{
	"contracts/13_VotingV3.sol": {
		"Voting": {
			"abi": [
				{
					"inputs": [],
					"stateMutability": "nonpayable",
					"type": "constructor"
				},
				{
					"inputs": [
						{
							"internalType": "address",
							"name": "owner",
							"type": "address"
						}
					],
					"name": "OwnableInvalidOwner",
					"type": "error"
				},
				{
					"inputs": [
						{
							"internalType": "address",
							"name": "account",
							"type": "address"
						}
					],
					"name": "OwnableUnauthorizedAccount",
					"type": "error"
				},
				{
					"anonymous": false,
					"inputs": [
						{
							"indexed": true,
							"internalType": "address",
							"name": "previousOwner",
							"type": "address"
						},
						{
							"indexed": true,
							"internalType": "address",
							"name": "newOwner",
							"type": "address"
						}
					],
					"name": "OwnershipTransferred",
					"type": "event"
				},
				{
					"anonymous": false,
					"inputs": [
						{
							"indexed": false,
							"internalType": "uint256",
							"name": "proposalId",
							"type": "uint256"
						}
					],
					"name": "ProposalRegistered",
					"type": "event"
				},
				{
					"anonymous": false,
					"inputs": [
						{
							"indexed": false,
							"internalType": "uint256",
							"name": "sessionId",
							"type": "uint256"
						}
					],
					"name": "SessionCreated",
					"type": "event"
				},
				{
					"anonymous": false,
					"inputs": [
						{
							"indexed": false,
							"internalType": "address",
							"name": "voter",
							"type": "address"
						},
						{
							"indexed": false,
							"internalType": "uint256",
							"name": "proposalId",
							"type": "uint256"
						}
					],
					"name": "Voted",
					"type": "event"
				},
				{
					"anonymous": false,
					"inputs": [
						{
							"indexed": false,
							"internalType": "address",
							"name": "voterAddress",
							"type": "address"
						}
					],
					"name": "VoterRegistered",
					"type": "event"
				},
				{
					"anonymous": false,
					"inputs": [
						{
							"indexed": false,
							"internalType": "address",
							"name": "voterAddress",
							"type": "address"
						}
					],
					"name": "VoterUnregistered",
					"type": "event"
				},
				{
					"anonymous": false,
					"inputs": [
						{
							"indexed": false,
							"internalType": "enum Voting.WorkflowStatus",
							"name": "previousStatus",
							"type": "uint8"
						},
						{
							"indexed": false,
							"internalType": "enum Voting.WorkflowStatus",
							"name": "newStatus",
							"type": "uint8"
						}
					],
					"name": "WorkflowStatusChange",
					"type": "event"
				},
				{
					"inputs": [],
					"name": "computeMostVotedProposal",
					"outputs": [],
					"stateMutability": "nonpayable",
					"type": "function"
				},
				{
					"inputs": [],
					"name": "createVotingSession",
					"outputs": [],
					"stateMutability": "nonpayable",
					"type": "function"
				},
				{
					"inputs": [],
					"name": "currentVotingSessionId",
					"outputs": [
						{
							"internalType": "uint256",
							"name": "",
							"type": "uint256"
						}
					],
					"stateMutability": "view",
					"type": "function"
				},
				{
					"inputs": [],
					"name": "endProposalsRegistration",
					"outputs": [],
					"stateMutability": "nonpayable",
					"type": "function"
				},
				{
					"inputs": [],
					"name": "endVotingSession",
					"outputs": [],
					"stateMutability": "nonpayable",
					"type": "function"
				},
				{
					"inputs": [
						{
							"internalType": "uint256",
							"name": "_sessiondId",
							"type": "uint256"
						}
					],
					"name": "getAllProposalsBySession",
					"outputs": [
						{
							"components": [
								{
									"internalType": "uint256",
									"name": "id",
									"type": "uint256"
								},
								{
									"internalType": "string",
									"name": "description",
									"type": "string"
								},
								{
									"internalType": "uint256",
									"name": "voteCount",
									"type": "uint256"
								}
							],
							"internalType": "struct Voting.Proposal[]",
							"name": "",
							"type": "tuple[]"
						}
					],
					"stateMutability": "view",
					"type": "function"
				},
				{
					"inputs": [],
					"name": "getAllProposalsFromCurrentSession",
					"outputs": [
						{
							"components": [
								{
									"internalType": "uint256",
									"name": "id",
									"type": "uint256"
								},
								{
									"internalType": "string",
									"name": "description",
									"type": "string"
								},
								{
									"internalType": "uint256",
									"name": "voteCount",
									"type": "uint256"
								}
							],
							"internalType": "struct Voting.Proposal[]",
							"name": "",
							"type": "tuple[]"
						}
					],
					"stateMutability": "view",
					"type": "function"
				},
				{
					"inputs": [],
					"name": "getCurrentSession",
					"outputs": [
						{
							"components": [
								{
									"internalType": "enum Voting.WorkflowStatus",
									"name": "workflowStatus",
									"type": "uint8"
								},
								{
									"internalType": "uint256",
									"name": "winningProposalId",
									"type": "uint256"
								},
								{
									"components": [
										{
											"internalType": "uint256",
											"name": "id",
											"type": "uint256"
										},
										{
											"internalType": "string",
											"name": "description",
											"type": "string"
										},
										{
											"internalType": "uint256",
											"name": "voteCount",
											"type": "uint256"
										}
									],
									"internalType": "struct Voting.Proposal[]",
									"name": "proposals",
									"type": "tuple[]"
								}
							],
							"internalType": "struct Voting.VotingSession",
							"name": "",
							"type": "tuple"
						}
					],
					"stateMutability": "view",
					"type": "function"
				},
				{
					"inputs": [
						{
							"internalType": "uint256",
							"name": "_sessionId",
							"type": "uint256"
						}
					],
					"name": "getWinningProposalBySession",
					"outputs": [
						{
							"components": [
								{
									"internalType": "enum Voting.WorkflowStatus",
									"name": "workflowStatus",
									"type": "uint8"
								},
								{
									"internalType": "uint256",
									"name": "winningProposalId",
									"type": "uint256"
								},
								{
									"components": [
										{
											"internalType": "uint256",
											"name": "id",
											"type": "uint256"
										},
										{
											"internalType": "string",
											"name": "description",
											"type": "string"
										},
										{
											"internalType": "uint256",
											"name": "voteCount",
											"type": "uint256"
										}
									],
									"internalType": "struct Voting.Proposal[]",
									"name": "proposals",
									"type": "tuple[]"
								}
							],
							"internalType": "struct Voting.VotingSession",
							"name": "",
							"type": "tuple"
						}
					],
					"stateMutability": "view",
					"type": "function"
				},
				{
					"inputs": [],
					"name": "owner",
					"outputs": [
						{
							"internalType": "address",
							"name": "",
							"type": "address"
						}
					],
					"stateMutability": "view",
					"type": "function"
				},
				{
					"inputs": [
						{
							"internalType": "address",
							"name": "_address",
							"type": "address"
						}
					],
					"name": "registerVoter",
					"outputs": [],
					"stateMutability": "nonpayable",
					"type": "function"
				},
				{
					"inputs": [],
					"name": "renounceOwnership",
					"outputs": [],
					"stateMutability": "nonpayable",
					"type": "function"
				},
				{
					"inputs": [
						{
							"internalType": "string",
							"name": "_description",
							"type": "string"
						}
					],
					"name": "sendNewProposition",
					"outputs": [],
					"stateMutability": "nonpayable",
					"type": "function"
				},
				{
					"inputs": [
						{
							"internalType": "uint256",
							"name": "_proposalId",
							"type": "uint256"
						}
					],
					"name": "sendVote",
					"outputs": [],
					"stateMutability": "nonpayable",
					"type": "function"
				},
				{
					"inputs": [],
					"name": "startProposalsRegistration",
					"outputs": [],
					"stateMutability": "nonpayable",
					"type": "function"
				},
				{
					"inputs": [],
					"name": "startVotingSession",
					"outputs": [],
					"stateMutability": "nonpayable",
					"type": "function"
				},
				{
					"inputs": [
						{
							"internalType": "address",
							"name": "newOwner",
							"type": "address"
						}
					],
					"name": "transferOwnership",
					"outputs": [],
					"stateMutability": "nonpayable",
					"type": "function"
				},
				{
					"inputs": [
						{
							"internalType": "address",
							"name": "_address",
							"type": "address"
						}
					],
					"name": "unregisterVoter",
					"outputs": [],
					"stateMutability": "nonpayable",
					"type": "function"
				},
				{
					"inputs": [
						{
							"internalType": "address",
							"name": "",
							"type": "address"
						}
					],
					"name": "voters",
					"outputs": [
						{
							"internalType": "bool",
							"name": "isRegistered",
							"type": "bool"
						}
					],
					"stateMutability": "view",
					"type": "function"
				},
				{
					"inputs": [
						{
							"internalType": "uint256",
							"name": "",
							"type": "uint256"
						}
					],
					"name": "votingSessions",
					"outputs": [
						{
							"internalType": "enum Voting.WorkflowStatus",
							"name": "workflowStatus",
							"type": "uint8"
						},
						{
							"internalType": "uint256",
							"name": "winningProposalId",
							"type": "uint256"
						}
					],
					"stateMutability": "view",
					"type": "function"
				}
			],
			"devdoc": {
				"errors": {
					"OwnableInvalidOwner(address)": [
						{
							"details": "The owner is not a valid owner account. (eg. `address(0)`)"
						}
					],
					"OwnableUnauthorizedAccount(address)": [
						{
							"details": "The caller account is not authorized to perform an operation."
						}
					]
				},
				"kind": "dev",
				"methods": {
					"owner()": {
						"details": "Returns the address of the current owner."
					},
					"renounceOwnership()": {
						"details": "Leaves the contract without owner. It will not be possible to call `onlyOwner` functions. Can only be called by the current owner. NOTE: Renouncing ownership will leave the contract without an owner, thereby disabling any functionality that is only available to the owner."
					},
					"transferOwnership(address)": {
						"details": "Transfers ownership of the contract to a new account (`newOwner`). Can only be called by the current owner."
					}
				},
				"version": 1
			},
			"evm": {
				"assembly": "    /* \"contracts/13_VotingV3.sol\":165:8615  contract Voting is Ownable {... */\n  mstore(0x40, 0x80)\n    /* \"contracts/13_VotingV3.sol\":1456:1497  constructor() Ownable(msg.sender) {... */\n  callvalue\n  dup1\n  iszero\n  tag_1\n  jumpi\n  revert(0x00, 0x00)\ntag_1:\n  pop\n    /* \"contracts/13_VotingV3.sol\":1478:1488  msg.sender */\n  caller\n    /* \"https://github.com/OpenZeppelin/openzeppelin-contracts/blob/master/contracts/access/Ownable.sol\":1297:1298  0 */\n  0x00\n    /* \"https://github.com/OpenZeppelin/openzeppelin-contracts/blob/master/contracts/access/Ownable.sol\":1273:1299  initialOwner == address(0) */\n  0xffffffffffffffffffffffffffffffffffffffff\n  and\n    /* \"https://github.com/OpenZeppelin/openzeppelin-contracts/blob/master/contracts/access/Ownable.sol\":1273:1285  initialOwner */\n  dup2\n    /* \"https://github.com/OpenZeppelin/openzeppelin-contracts/blob/master/contracts/access/Ownable.sol\":1273:1299  initialOwner == address(0) */\n  0xffffffffffffffffffffffffffffffffffffffff\n  and\n  sub\n    /* \"https://github.com/OpenZeppelin/openzeppelin-contracts/blob/master/contracts/access/Ownable.sol\":1269:1364  if (initialOwner == address(0)) {... */\n  tag_5\n  jumpi\n    /* \"https://github.com/OpenZeppelin/openzeppelin-contracts/blob/master/contracts/access/Ownable.sol\":1350:1351  0 */\n  0x00\n    /* \"https://github.com/OpenZeppelin/openzeppelin-contracts/blob/master/contracts/access/Ownable.sol\":1322:1353  OwnableInvalidOwner(address(0)) */\n  mload(0x40)\n  0x1e4fbdf700000000000000000000000000000000000000000000000000000000\n  dup2\n  mstore\n  0x04\n  add\n  tag_6\n  swap2\n  swap1\n  tag_7\n  jump\t// in\ntag_6:\n  mload(0x40)\n  dup1\n  swap2\n  sub\n  swap1\n  revert\n    /* \"https://github.com/OpenZeppelin/openzeppelin-contracts/blob/master/contracts/access/Ownable.sol\":1269:1364  if (initialOwner == address(0)) {... */\ntag_5:\n    /* \"https://github.com/OpenZeppelin/openzeppelin-contracts/blob/master/contracts/access/Ownable.sol\":1373:1405  _transferOwnership(initialOwner) */\n  tag_8\n    /* \"https://github.com/OpenZeppelin/openzeppelin-contracts/blob/master/contracts/access/Ownable.sol\":1392:1404  initialOwner */\n  dup2\n    /* \"https://github.com/OpenZeppelin/openzeppelin-contracts/blob/master/contracts/access/Ownable.sol\":1373:1391  _transferOwnership */\n  shl(0x20, tag_9)\n    /* \"https://github.com/OpenZeppelin/openzeppelin-contracts/blob/master/contracts/access/Ownable.sol\":1373:1405  _transferOwnership(initialOwner) */\n  0x20\n  shr\n  jump\t// in\ntag_8:\n    /* \"https://github.com/OpenZeppelin/openzeppelin-contracts/blob/master/contracts/access/Ownable.sol\":1225:1412  constructor(address initialOwner) {... */\n  pop\n    /* \"contracts/13_VotingV3.sol\":165:8615  contract Voting is Ownable {... */\n  jump(tag_11)\n    /* \"https://github.com/OpenZeppelin/openzeppelin-contracts/blob/master/contracts/access/Ownable.sol\":2912:3099  function _transferOwnership(address newOwner) internal virtual {... */\ntag_9:\n    /* \"https://github.com/OpenZeppelin/openzeppelin-contracts/blob/master/contracts/access/Ownable.sol\":2985:3001  address oldOwner */\n  0x00\n    /* \"https://github.com/OpenZeppelin/openzeppelin-contracts/blob/master/contracts/access/Ownable.sol\":3004:3010  _owner */\n  0x00\n  0x00\n  swap1\n  sload\n  swap1\n  0x0100\n  exp\n  swap1\n  div\n  0xffffffffffffffffffffffffffffffffffffffff\n  and\n    /* \"https://github.com/OpenZeppelin/openzeppelin-contracts/blob/master/contracts/access/Ownable.sol\":2985:3010  address oldOwner = _owner */\n  swap1\n  pop\n    /* \"https://github.com/OpenZeppelin/openzeppelin-contracts/blob/master/contracts/access/Ownable.sol\":3029:3037  newOwner */\n  dup2\n    /* \"https://github.com/OpenZeppelin/openzeppelin-contracts/blob/master/contracts/access/Ownable.sol\":3020:3026  _owner */\n  0x00\n  0x00\n    /* \"https://github.com/OpenZeppelin/openzeppelin-contracts/blob/master/contracts/access/Ownable.sol\":3020:3037  _owner = newOwner */\n  0x0100\n  exp\n  dup2\n  sload\n  dup2\n  0xffffffffffffffffffffffffffffffffffffffff\n  mul\n  not\n  and\n  swap1\n  dup4\n  0xffffffffffffffffffffffffffffffffffffffff\n  and\n  mul\n  or\n  swap1\n  sstore\n  pop\n    /* \"https://github.com/OpenZeppelin/openzeppelin-contracts/blob/master/contracts/access/Ownable.sol\":3083:3091  newOwner */\n  dup2\n    /* \"https://github.com/OpenZeppelin/openzeppelin-contracts/blob/master/contracts/access/Ownable.sol\":3052:3092  OwnershipTransferred(oldOwner, newOwner) */\n  0xffffffffffffffffffffffffffffffffffffffff\n  and\n    /* \"https://github.com/OpenZeppelin/openzeppelin-contracts/blob/master/contracts/access/Ownable.sol\":3073:3081  oldOwner */\n  dup2\n    /* \"https://github.com/OpenZeppelin/openzeppelin-contracts/blob/master/contracts/access/Ownable.sol\":3052:3092  OwnershipTransferred(oldOwner, newOwner) */\n  0xffffffffffffffffffffffffffffffffffffffff\n  and\n  0x8be0079c531659141344cd1fd0a4f28419497f9722a3daafe3b4186f6b6457e0\n  mload(0x40)\n  mload(0x40)\n  dup1\n  swap2\n  sub\n  swap1\n  log3\n    /* \"https://github.com/OpenZeppelin/openzeppelin-contracts/blob/master/contracts/access/Ownable.sol\":2975:3099  {... */\n  pop\n    /* \"https://github.com/OpenZeppelin/openzeppelin-contracts/blob/master/contracts/access/Ownable.sol\":2912:3099  function _transferOwnership(address newOwner) internal virtual {... */\n  pop\n  jump\t// out\n    /* \"#utility.yul\":7:133   */\ntag_13:\n    /* \"#utility.yul\":44:51   */\n  0x00\n    /* \"#utility.yul\":84:126   */\n  0xffffffffffffffffffffffffffffffffffffffff\n    /* \"#utility.yul\":77:82   */\n  dup3\n    /* \"#utility.yul\":73:127   */\n  and\n    /* \"#utility.yul\":62:127   */\n  swap1\n  pop\n    /* \"#utility.yul\":7:133   */\n  swap2\n  swap1\n  pop\n  jump\t// out\n    /* \"#utility.yul\":139:235   */\ntag_14:\n    /* \"#utility.yul\":176:183   */\n  0x00\n    /* \"#utility.yul\":205:229   */\n  tag_19\n    /* \"#utility.yul\":223:228   */\n  dup3\n    /* \"#utility.yul\":205:229   */\n  tag_13\n  jump\t// in\ntag_19:\n    /* \"#utility.yul\":194:229   */\n  swap1\n  pop\n    /* \"#utility.yul\":139:235   */\n  swap2\n  swap1\n  pop\n  jump\t// out\n    /* \"#utility.yul\":241:359   */\ntag_15:\n    /* \"#utility.yul\":328:352   */\n  tag_21\n    /* \"#utility.yul\":346:351   */\n  dup2\n    /* \"#utility.yul\":328:352   */\n  tag_14\n  jump\t// in\ntag_21:\n    /* \"#utility.yul\":323:326   */\n  dup3\n    /* \"#utility.yul\":316:353   */\n  mstore\n    /* \"#utility.yul\":241:359   */\n  pop\n  pop\n  jump\t// out\n    /* \"#utility.yul\":365:587   */\ntag_7:\n    /* \"#utility.yul\":458:462   */\n  0x00\n    /* \"#utility.yul\":496:498   */\n  0x20\n    /* \"#utility.yul\":485:494   */\n  dup3\n    /* \"#utility.yul\":481:499   */\n  add\n    /* \"#utility.yul\":473:499   */\n  swap1\n  pop\n    /* \"#utility.yul\":509:580   */\n  tag_23\n    /* \"#utility.yul\":577:578   */\n  0x00\n    /* \"#utility.yul\":566:575   */\n  dup4\n    /* \"#utility.yul\":562:579   */\n  add\n    /* \"#utility.yul\":553:559   */\n  dup5\n    /* \"#utility.yul\":509:580   */\n  tag_15\n  jump\t// in\ntag_23:\n    /* \"#utility.yul\":365:587   */\n  swap3\n  swap2\n  pop\n  pop\n  jump\t// out\n    /* \"contracts/13_VotingV3.sol\":165:8615  contract Voting is Ownable {... */\ntag_11:\n  dataSize(sub_0)\n  dup1\n  dataOffset(sub_0)\n  0x00\n  codecopy\n  0x00\n  return\nstop\n\nsub_0: assembly {\n        /* \"contracts/13_VotingV3.sol\":165:8615  contract Voting is Ownable {... */\n      mstore(0x40, 0x80)\n      callvalue\n      dup1\n      iszero\n      tag_1\n      jumpi\n      revert(0x00, 0x00)\n    tag_1:\n      pop\n      jumpi(tag_2, lt(calldatasize, 0x04))\n      shr(0xe0, calldataload(0x00))\n      dup1\n      0x895d0faf\n      gt\n      tag_23\n      jumpi\n      dup1\n      0xc8f5714e\n      gt\n      tag_24\n      jumpi\n      dup1\n      0xc8f5714e\n      eq\n      tag_18\n      jumpi\n      dup1\n      0xe09b8c79\n      eq\n      tag_19\n      jumpi\n      dup1\n      0xee74c678\n      eq\n      tag_20\n      jumpi\n      dup1\n      0xf2fde38b\n      eq\n      tag_21\n      jumpi\n      dup1\n      0xf38d3af8\n      eq\n      tag_22\n      jumpi\n      jump(tag_2)\n    tag_24:\n      dup1\n      0x895d0faf\n      eq\n      tag_13\n      jumpi\n      dup1\n      0x8da5cb5b\n      eq\n      tag_14\n      jumpi\n      dup1\n      0x9bdfef30\n      eq\n      tag_15\n      jumpi\n      dup1\n      0xa3ec138d\n      eq\n      tag_16\n      jumpi\n      dup1\n      0xa7bfab16\n      eq\n      tag_17\n      jumpi\n      jump(tag_2)\n    tag_23:\n      dup1\n      0x58fb94ec\n      gt\n      tag_25\n      jumpi\n      dup1\n      0x58fb94ec\n      eq\n      tag_8\n      jumpi\n      dup1\n      0x640be567\n      eq\n      tag_9\n      jumpi\n      dup1\n      0x6c297445\n      eq\n      tag_10\n      jumpi\n      dup1\n      0x715018a6\n      eq\n      tag_11\n      jumpi\n      dup1\n      0x7ed17751\n      eq\n      tag_12\n      jumpi\n      jump(tag_2)\n    tag_25:\n      dup1\n      0x0a936e3a\n      eq\n      tag_3\n      jumpi\n      dup1\n      0x1186eb7c\n      eq\n      tag_4\n      jumpi\n      dup1\n      0x1401795f\n      eq\n      tag_5\n      jumpi\n      dup1\n      0x38db6dd3\n      eq\n      tag_6\n      jumpi\n      dup1\n      0x45bf58fd\n      eq\n      tag_7\n      jumpi\n    tag_2:\n      revert(0x00, 0x00)\n        /* \"contracts/13_VotingV3.sol\":1772:2012  function createVotingSession() public onlyOwner {... */\n    tag_3:\n      tag_26\n      tag_27\n      jump\t// in\n    tag_26:\n      stop\n        /* \"contracts/13_VotingV3.sol\":303:355  mapping(uint => VotingSession) public votingSessions */\n    tag_4:\n      tag_28\n      0x04\n      dup1\n      calldatasize\n      sub\n      dup2\n      add\n      swap1\n      tag_29\n      swap2\n      swap1\n      tag_30\n      jump\t// in\n    tag_29:\n      tag_31\n      jump\t// in\n    tag_28:\n      mload(0x40)\n      tag_32\n      swap3\n      swap2\n      swap1\n      tag_33\n      jump\t// in\n    tag_32:\n      mload(0x40)\n      dup1\n      swap2\n      sub\n      swap1\n      return\n        /* \"contracts/13_VotingV3.sol\":1632:1766  function getCurrentSession() public view returns (VotingSession memory) {... */\n    tag_5:\n      tag_34\n      tag_35\n      jump\t// in\n    tag_34:\n      mload(0x40)\n      tag_36\n      swap2\n      swap1\n      tag_37\n      jump\t// in\n    tag_36:\n      mload(0x40)\n      dup1\n      swap2\n      sub\n      swap1\n      return\n        /* \"contracts/13_VotingV3.sol\":2018:2655  function registerVoter(address _address) public onlyOwner {... */\n    tag_6:\n      tag_38\n      0x04\n      dup1\n      calldatasize\n      sub\n      dup2\n      add\n      swap1\n      tag_39\n      swap2\n      swap1\n      tag_40\n      jump\t// in\n    tag_39:\n      tag_41\n      jump\t// in\n    tag_38:\n      stop\n        /* \"contracts/13_VotingV3.sol\":3616:4402  function sendNewProposition(string memory _description) public onlyIfRegistered {... */\n    tag_7:\n      tag_42\n      0x04\n      dup1\n      calldatasize\n      sub\n      dup2\n      add\n      swap1\n      tag_43\n      swap2\n      swap1\n      tag_44\n      jump\t// in\n    tag_43:\n      tag_45\n      jump\t// in\n    tag_42:\n      stop\n        /* \"contracts/13_VotingV3.sol\":8084:8232  function getWinningProposalBySession(uint _sessionId) external view returns(VotingSession memory) {... */\n    tag_8:\n      tag_46\n      0x04\n      dup1\n      calldatasize\n      sub\n      dup2\n      add\n      swap1\n      tag_47\n      swap2\n      swap1\n      tag_30\n      jump\t// in\n    tag_47:\n      tag_48\n      jump\t// in\n    tag_46:\n      mload(0x40)\n      tag_49\n      swap2\n      swap1\n      tag_37\n      jump\t// in\n    tag_49:\n      mload(0x40)\n      dup1\n      swap2\n      sub\n      swap1\n      return\n        /* \"contracts/13_VotingV3.sol\":8399:8613  function getAllProposalsFromCurrentSession() public view returns (Proposal[] memory) {... */\n    tag_9:\n      tag_50\n      tag_51\n      jump\t// in\n    tag_50:\n      mload(0x40)\n      tag_52\n      swap2\n      swap1\n      tag_53\n      jump\t// in\n    tag_52:\n      mload(0x40)\n      dup1\n      swap2\n      sub\n      swap1\n      return\n        /* \"contracts/13_VotingV3.sol\":4408:4965  function endProposalsRegistration() public onlyOwner {... */\n    tag_10:\n      tag_54\n      tag_55\n      jump\t// in\n    tag_54:\n      stop\n        /* \"https://github.com/OpenZeppelin/openzeppelin-contracts/blob/master/contracts/access/Ownable.sol\":2293:2394  function renounceOwnership() public virtual onlyOwner {... */\n    tag_11:\n      tag_56\n      tag_57\n      jump\t// in\n    tag_56:\n      stop\n        /* \"contracts/13_VotingV3.sol\":2661:3077  function unregisterVoter(address _address) public onlyOwner {... */\n    tag_12:\n      tag_58\n      0x04\n      dup1\n      calldatasize\n      sub\n      dup2\n      add\n      swap1\n      tag_59\n      swap2\n      swap1\n      tag_40\n      jump\t// in\n    tag_59:\n      tag_60\n      jump\t// in\n    tag_58:\n      stop\n        /* \"contracts/13_VotingV3.sol\":7147:8078  function computeMostVotedProposal() public {... */\n    tag_13:\n      tag_61\n      tag_62\n      jump\t// in\n    tag_61:\n      stop\n        /* \"https://github.com/OpenZeppelin/openzeppelin-contracts/blob/master/contracts/access/Ownable.sol\":1638:1723  function owner() public view virtual returns (address) {... */\n    tag_14:\n      tag_63\n      tag_64\n      jump\t// in\n    tag_63:\n      mload(0x40)\n      tag_65\n      swap2\n      swap1\n      tag_66\n      jump\t// in\n    tag_65:\n      mload(0x40)\n      dup1\n      swap2\n      sub\n      swap1\n      return\n        /* \"contracts/13_VotingV3.sol\":198:232  uint public currentVotingSessionId */\n    tag_15:\n      tag_67\n      tag_68\n      jump\t// in\n    tag_67:\n      mload(0x40)\n      tag_69\n      swap2\n      swap1\n      tag_70\n      jump\t// in\n    tag_69:\n      mload(0x40)\n      dup1\n      swap2\n      sub\n      swap1\n      return\n        /* \"contracts/13_VotingV3.sol\":361:400  mapping(address => Voter) public voters */\n    tag_16:\n      tag_71\n      0x04\n      dup1\n      calldatasize\n      sub\n      dup2\n      add\n      swap1\n      tag_72\n      swap2\n      swap1\n      tag_40\n      jump\t// in\n    tag_72:\n      tag_73\n      jump\t// in\n    tag_71:\n      mload(0x40)\n      tag_74\n      swap2\n      swap1\n      tag_75\n      jump\t// in\n    tag_74:\n      mload(0x40)\n      dup1\n      swap2\n      sub\n      swap1\n      return\n        /* \"contracts/13_VotingV3.sol\":6650:7141  function endVotingSession() public onlyOwner {... */\n    tag_17:\n      tag_76\n      tag_77\n      jump\t// in\n    tag_76:\n      stop\n        /* \"contracts/13_VotingV3.sol\":5492:6644  function sendVote(uint _proposalId) public onlyIfRegistered {... */\n    tag_18:\n      tag_78\n      0x04\n      dup1\n      calldatasize\n      sub\n      dup2\n      add\n      swap1\n      tag_79\n      swap2\n      swap1\n      tag_30\n      jump\t// in\n    tag_79:\n      tag_80\n      jump\t// in\n    tag_78:\n      stop\n        /* \"contracts/13_VotingV3.sol\":3083:3610  function startProposalsRegistration() public onlyOwner {... */\n    tag_19:\n      tag_81\n      tag_82\n      jump\t// in\n    tag_81:\n      stop\n        /* \"contracts/13_VotingV3.sol\":4971:5486  function startVotingSession() public onlyOwner {... */\n    tag_20:\n      tag_83\n      tag_84\n      jump\t// in\n    tag_83:\n      stop\n        /* \"https://github.com/OpenZeppelin/openzeppelin-contracts/blob/master/contracts/access/Ownable.sol\":2543:2758  function transferOwnership(address newOwner) public virtual onlyOwner {... */\n    tag_21:\n      tag_85\n      0x04\n      dup1\n      calldatasize\n      sub\n      dup2\n      add\n      swap1\n      tag_86\n      swap2\n      swap1\n      tag_40\n      jump\t// in\n    tag_86:\n      tag_87\n      jump\t// in\n    tag_85:\n      stop\n        /* \"contracts/13_VotingV3.sol\":8238:8393  function getAllProposalsBySession(uint _sessiondId) external view returns (Proposal[] memory) {... */\n    tag_22:\n      tag_88\n      0x04\n      dup1\n      calldatasize\n      sub\n      dup2\n      add\n      swap1\n      tag_89\n      swap2\n      swap1\n      tag_30\n      jump\t// in\n    tag_89:\n      tag_90\n      jump\t// in\n    tag_88:\n      mload(0x40)\n      tag_91\n      swap2\n      swap1\n      tag_53\n      jump\t// in\n    tag_91:\n      mload(0x40)\n      dup1\n      swap2\n      sub\n      swap1\n      return\n        /* \"contracts/13_VotingV3.sol\":1772:2012  function createVotingSession() public onlyOwner {... */\n    tag_27:\n        /* \"https://github.com/OpenZeppelin/openzeppelin-contracts/blob/master/contracts/access/Ownable.sol\":1531:1544  _checkOwner() */\n      tag_93\n        /* \"https://github.com/OpenZeppelin/openzeppelin-contracts/blob/master/contracts/access/Ownable.sol\":1531:1542  _checkOwner */\n      tag_94\n        /* \"https://github.com/OpenZeppelin/openzeppelin-contracts/blob/master/contracts/access/Ownable.sol\":1531:1544  _checkOwner() */\n      jump\t// in\n    tag_93:\n        /* \"contracts/13_VotingV3.sol\":1830:1852  currentVotingSessionId */\n      0x01\n      0x00\n        /* \"contracts/13_VotingV3.sol\":1830:1854  currentVotingSessionId++ */\n      dup2\n      sload\n      dup1\n      swap3\n      swap2\n      swap1\n      tag_96\n      swap1\n      tag_97\n      jump\t// in\n    tag_96:\n      swap2\n      swap1\n      pop\n      sstore\n      pop\n        /* \"contracts/13_VotingV3.sol\":1920:1952  WorkflowStatus.RegisteringVoters */\n      0x00\n        /* \"contracts/13_VotingV3.sol\":1864:1878  votingSessions */\n      0x03\n        /* \"contracts/13_VotingV3.sol\":1864:1902  votingSessions[currentVotingSessionId] */\n      0x00\n        /* \"contracts/13_VotingV3.sol\":1879:1901  currentVotingSessionId */\n      sload(0x01)\n        /* \"contracts/13_VotingV3.sol\":1864:1902  votingSessions[currentVotingSessionId] */\n      dup2\n      mstore\n      0x20\n      add\n      swap1\n      dup2\n      mstore\n      0x20\n      add\n      0x00\n      keccak256\n        /* \"contracts/13_VotingV3.sol\":1864:1917  votingSessions[currentVotingSessionId].workflowStatus */\n      0x00\n      add\n      0x00\n        /* \"contracts/13_VotingV3.sol\":1864:1952  votingSessions[currentVotingSessionId].workflowStatus = WorkflowStatus.RegisteringVoters */\n      0x0100\n      exp\n      dup2\n      sload\n      dup2\n      0xff\n      mul\n      not\n      and\n      swap1\n      dup4\n      0x05\n      dup2\n      gt\n      iszero\n      tag_98\n      jumpi\n      tag_99\n      tag_100\n      jump\t// in\n    tag_99:\n    tag_98:\n      mul\n      or\n      swap1\n      sstore\n      pop\n        /* \"contracts/13_VotingV3.sol\":1967:2005  SessionCreated(currentVotingSessionId) */\n      0xba5b9081592c446fc890c90b94eb1cb2e823c52d85adafb0a116860c7549705a\n        /* \"contracts/13_VotingV3.sol\":1982:2004  currentVotingSessionId */\n      sload(0x01)\n        /* \"contracts/13_VotingV3.sol\":1967:2005  SessionCreated(currentVotingSessionId) */\n      mload(0x40)\n      tag_101\n      swap2\n      swap1\n      tag_70\n      jump\t// in\n    tag_101:\n      mload(0x40)\n      dup1\n      swap2\n      sub\n      swap1\n      log1\n        /* \"contracts/13_VotingV3.sol\":1772:2012  function createVotingSession() public onlyOwner {... */\n      jump\t// out\n        /* \"contracts/13_VotingV3.sol\":303:355  mapping(uint => VotingSession) public votingSessions */\n    tag_31:\n      mstore(0x20, 0x03)\n      dup1\n      0x00\n      mstore\n      keccak256(0x00, 0x40)\n      0x00\n      swap2\n      pop\n      swap1\n      pop\n      dup1\n      0x00\n      add\n      0x00\n      swap1\n      sload\n      swap1\n      0x0100\n      exp\n      swap1\n      div\n      0xff\n      and\n      swap1\n      dup1\n      0x01\n      add\n      sload\n      swap1\n      pop\n      dup3\n      jump\t// out\n        /* \"contracts/13_VotingV3.sol\":1632:1766  function getCurrentSession() public view returns (VotingSession memory) {... */\n    tag_35:\n        /* \"contracts/13_VotingV3.sol\":1682:1702  VotingSession memory */\n      tag_102\n      tag_103\n      jump\t// in\n    tag_102:\n        /* \"contracts/13_VotingV3.sol\":1721:1735  votingSessions */\n      0x03\n        /* \"contracts/13_VotingV3.sol\":1721:1759  votingSessions[currentVotingSessionId] */\n      0x00\n        /* \"contracts/13_VotingV3.sol\":1736:1758  currentVotingSessionId */\n      sload(0x01)\n        /* \"contracts/13_VotingV3.sol\":1721:1759  votingSessions[currentVotingSessionId] */\n      dup2\n      mstore\n      0x20\n      add\n      swap1\n      dup2\n      mstore\n      0x20\n      add\n      0x00\n      keccak256\n        /* \"contracts/13_VotingV3.sol\":1714:1759  return votingSessions[currentVotingSessionId] */\n      mload(0x40)\n      dup1\n      0x60\n      add\n      0x40\n      mstore\n      swap1\n      dup2\n      0x00\n      dup3\n      add\n      0x00\n      swap1\n      sload\n      swap1\n      0x0100\n      exp\n      swap1\n      div\n      0xff\n      and\n      0x05\n      dup2\n      gt\n      iszero\n      tag_105\n      jumpi\n      tag_106\n      tag_100\n      jump\t// in\n    tag_106:\n    tag_105:\n      0x05\n      dup2\n      gt\n      iszero\n      tag_107\n      jumpi\n      tag_108\n      tag_100\n      jump\t// in\n    tag_108:\n    tag_107:\n      dup2\n      mstore\n      0x20\n      add\n      0x01\n      dup3\n      add\n      sload\n      dup2\n      mstore\n      0x20\n      add\n      0x02\n      dup3\n      add\n      dup1\n      sload\n      dup1\n      0x20\n      mul\n      0x20\n      add\n      mload(0x40)\n      swap1\n      dup2\n      add\n      0x40\n      mstore\n      dup1\n      swap3\n      swap2\n      swap1\n      dup2\n      dup2\n      mstore\n      0x20\n      add\n      0x00\n      swap1\n    tag_109:\n      dup3\n      dup3\n      lt\n      iszero\n      tag_110\n      jumpi\n      dup4\n      dup3\n      swap1\n      0x00\n      mstore\n      keccak256(0x00, 0x20)\n      swap1\n      0x03\n      mul\n      add\n      mload(0x40)\n      dup1\n      0x60\n      add\n      0x40\n      mstore\n      swap1\n      dup2\n      0x00\n      dup3\n      add\n      sload\n      dup2\n      mstore\n      0x20\n      add\n      0x01\n      dup3\n      add\n      dup1\n      sload\n      tag_112\n      swap1\n      tag_113\n      jump\t// in\n    tag_112:\n      dup1\n      0x1f\n      add\n      0x20\n      dup1\n      swap2\n      div\n      mul\n      0x20\n      add\n      mload(0x40)\n      swap1\n      dup2\n      add\n      0x40\n      mstore\n      dup1\n      swap3\n      swap2\n      swap1\n      dup2\n      dup2\n      mstore\n      0x20\n      add\n      dup3\n      dup1\n      sload\n      tag_114\n      swap1\n      tag_113\n      jump\t// in\n    tag_114:\n      dup1\n      iszero\n      tag_115\n      jumpi\n      dup1\n      0x1f\n      lt\n      tag_116\n      jumpi\n      0x0100\n      dup1\n      dup4\n      sload\n      div\n      mul\n      dup4\n      mstore\n      swap2\n      0x20\n      add\n      swap2\n      jump(tag_115)\n    tag_116:\n      dup3\n      add\n      swap2\n      swap1\n      0x00\n      mstore\n      keccak256(0x00, 0x20)\n      swap1\n    tag_117:\n      dup2\n      sload\n      dup2\n      mstore\n      swap1\n      0x01\n      add\n      swap1\n      0x20\n      add\n      dup1\n      dup4\n      gt\n      tag_117\n      jumpi\n      dup3\n      swap1\n      sub\n      0x1f\n      and\n      dup3\n      add\n      swap2\n    tag_115:\n      pop\n      pop\n      pop\n      pop\n      pop\n      dup2\n      mstore\n      0x20\n      add\n      0x02\n      dup3\n      add\n      sload\n      dup2\n      mstore\n      pop\n      pop\n      dup2\n      mstore\n      0x20\n      add\n      swap1\n      0x01\n      add\n      swap1\n      jump(tag_109)\n    tag_110:\n      pop\n      pop\n      pop\n      pop\n      dup2\n      mstore\n      pop\n      pop\n      swap1\n      pop\n        /* \"contracts/13_VotingV3.sol\":1632:1766  function getCurrentSession() public view returns (VotingSession memory) {... */\n      swap1\n      jump\t// out\n        /* \"contracts/13_VotingV3.sol\":2018:2655  function registerVoter(address _address) public onlyOwner {... */\n    tag_41:\n        /* \"https://github.com/OpenZeppelin/openzeppelin-contracts/blob/master/contracts/access/Ownable.sol\":1531:1544  _checkOwner() */\n      tag_119\n        /* \"https://github.com/OpenZeppelin/openzeppelin-contracts/blob/master/contracts/access/Ownable.sol\":1531:1542  _checkOwner */\n      tag_94\n        /* \"https://github.com/OpenZeppelin/openzeppelin-contracts/blob/master/contracts/access/Ownable.sol\":1531:1544  _checkOwner() */\n      jump\t// in\n    tag_119:\n        /* \"contracts/13_VotingV3.sol\":2151:2183  WorkflowStatus.RegisteringVoters */\n      0x00\n        /* \"contracts/13_VotingV3.sol\":2094:2183  votingSessions[currentVotingSessionId].workflowStatus == WorkflowStatus.RegisteringVoters */\n      0x05\n      dup2\n      gt\n      iszero\n      tag_121\n      jumpi\n      tag_122\n      tag_100\n      jump\t// in\n    tag_122:\n    tag_121:\n        /* \"contracts/13_VotingV3.sol\":2094:2108  votingSessions */\n      0x03\n        /* \"contracts/13_VotingV3.sol\":2094:2132  votingSessions[currentVotingSessionId] */\n      0x00\n        /* \"contracts/13_VotingV3.sol\":2109:2131  currentVotingSessionId */\n      sload(0x01)\n        /* \"contracts/13_VotingV3.sol\":2094:2132  votingSessions[currentVotingSessionId] */\n      dup2\n      mstore\n      0x20\n      add\n      swap1\n      dup2\n      mstore\n      0x20\n      add\n      0x00\n      keccak256\n        /* \"contracts/13_VotingV3.sol\":2094:2147  votingSessions[currentVotingSessionId].workflowStatus */\n      0x00\n      add\n      0x00\n      swap1\n      sload\n      swap1\n      0x0100\n      exp\n      swap1\n      div\n      0xff\n      and\n        /* \"contracts/13_VotingV3.sol\":2094:2183  votingSessions[currentVotingSessionId].workflowStatus == WorkflowStatus.RegisteringVoters */\n      0x05\n      dup2\n      gt\n      iszero\n      tag_123\n      jumpi\n      tag_124\n      tag_100\n      jump\t// in\n    tag_124:\n    tag_123:\n      eq\n        /* \"contracts/13_VotingV3.sol\":2086:2246  require(votingSessions[currentVotingSessionId].workflowStatus == WorkflowStatus.RegisteringVoters, ... */\n      tag_125\n      jumpi\n      mload(0x40)\n      0x08c379a000000000000000000000000000000000000000000000000000000000\n      dup2\n      mstore\n      0x04\n      add\n      tag_126\n      swap1\n      tag_127\n      jump\t// in\n    tag_126:\n      mload(0x40)\n      dup1\n      swap2\n      sub\n      swap1\n      revert\n    tag_125:\n        /* \"contracts/13_VotingV3.sol\":2265:2271  voters */\n      0x04\n        /* \"contracts/13_VotingV3.sol\":2265:2281  voters[_address] */\n      0x00\n        /* \"contracts/13_VotingV3.sol\":2272:2280  _address */\n      dup3\n        /* \"contracts/13_VotingV3.sol\":2265:2281  voters[_address] */\n      0xffffffffffffffffffffffffffffffffffffffff\n      and\n      0xffffffffffffffffffffffffffffffffffffffff\n      and\n      dup2\n      mstore\n      0x20\n      add\n      swap1\n      dup2\n      mstore\n      0x20\n      add\n      0x00\n      keccak256\n        /* \"contracts/13_VotingV3.sol\":2265:2294  voters[_address].isRegistered */\n      0x00\n      add\n      0x00\n      swap1\n      sload\n      swap1\n      0x0100\n      exp\n      swap1\n      div\n      0xff\n      and\n        /* \"contracts/13_VotingV3.sol\":2264:2294  !voters[_address].isRegistered */\n      iszero\n        /* \"contracts/13_VotingV3.sol\":2256:2326  require(!voters[_address].isRegistered, \"Voter is already registered\") */\n      tag_128\n      jumpi\n      mload(0x40)\n      0x08c379a000000000000000000000000000000000000000000000000000000000\n      dup2\n      mstore\n      0x04\n      add\n      tag_129\n      swap1\n      tag_130\n      jump\t// in\n    tag_129:\n      mload(0x40)\n      dup1\n      swap2\n      sub\n      swap1\n      revert\n    tag_128:\n        /* \"contracts/13_VotingV3.sol\":2425:2429  true */\n      0x01\n        /* \"contracts/13_VotingV3.sol\":2393:2399  voters */\n      0x04\n        /* \"contracts/13_VotingV3.sol\":2393:2409  voters[_address] */\n      0x00\n        /* \"contracts/13_VotingV3.sol\":2400:2408  _address */\n      dup4\n        /* \"contracts/13_VotingV3.sol\":2393:2409  voters[_address] */\n      0xffffffffffffffffffffffffffffffffffffffff\n      and\n      0xffffffffffffffffffffffffffffffffffffffff\n      and\n      dup2\n      mstore\n      0x20\n      add\n      swap1\n      dup2\n      mstore\n      0x20\n      add\n      0x00\n      keccak256\n        /* \"contracts/13_VotingV3.sol\":2393:2422  voters[_address].isRegistered */\n      0x00\n      add\n      0x00\n        /* \"contracts/13_VotingV3.sol\":2393:2429  voters[_address].isRegistered = true */\n      0x0100\n      exp\n      dup2\n      sload\n      dup2\n      0xff\n      mul\n      not\n      and\n      swap1\n      dup4\n      iszero\n      iszero\n      mul\n      or\n      swap1\n      sstore\n      pop\n        /* \"contracts/13_VotingV3.sol\":2485:2486  0 */\n      0x00\n        /* \"contracts/13_VotingV3.sol\":2474:2487  new uint[](0) */\n      0xffffffffffffffff\n      dup2\n      gt\n      iszero\n      tag_131\n      jumpi\n      tag_132\n      tag_133\n      jump\t// in\n    tag_132:\n    tag_131:\n      mload(0x40)\n      swap1\n      dup1\n      dup3\n      mstore\n      dup1\n      0x20\n      mul\n      0x20\n      add\n      dup3\n      add\n      0x40\n      mstore\n      dup1\n      iszero\n      tag_134\n      jumpi\n      dup2\n      0x20\n      add\n      0x20\n      dup3\n      mul\n      dup1\n      calldatasize\n      dup4\n      calldatacopy\n      dup1\n      dup3\n      add\n      swap2\n      pop\n      pop\n      swap1\n      pop\n    tag_134:\n      pop\n        /* \"contracts/13_VotingV3.sol\":2439:2445  voters */\n      0x04\n        /* \"contracts/13_VotingV3.sol\":2439:2455  voters[_address] */\n      0x00\n        /* \"contracts/13_VotingV3.sol\":2446:2454  _address */\n      dup4\n        /* \"contracts/13_VotingV3.sol\":2439:2455  voters[_address] */\n      0xffffffffffffffffffffffffffffffffffffffff\n      and\n      0xffffffffffffffffffffffffffffffffffffffff\n      and\n      dup2\n      mstore\n      0x20\n      add\n      swap1\n      dup2\n      mstore\n      0x20\n      add\n      0x00\n      keccak256\n        /* \"contracts/13_VotingV3.sol\":2439:2471  voters[_address].votedSessionIds */\n      0x01\n      add\n        /* \"contracts/13_VotingV3.sol\":2439:2487  voters[_address].votedSessionIds = new uint[](0) */\n      swap1\n      dup1\n      mload\n      swap1\n      0x20\n      add\n      swap1\n      tag_135\n      swap3\n      swap2\n      swap1\n      tag_136\n      jump\t// in\n    tag_135:\n      pop\n        /* \"contracts/13_VotingV3.sol\":2566:2567  0 */\n      0x00\n        /* \"contracts/13_VotingV3.sol\":2555:2568  new uint[](0) */\n      0xffffffffffffffff\n      dup2\n      gt\n      iszero\n      tag_137\n      jumpi\n      tag_138\n      tag_133\n      jump\t// in\n    tag_138:\n    tag_137:\n      mload(0x40)\n      swap1\n      dup1\n      dup3\n      mstore\n      dup1\n      0x20\n      mul\n      0x20\n      add\n      dup3\n      add\n      0x40\n      mstore\n      dup1\n      iszero\n      tag_139\n      jumpi\n      dup2\n      0x20\n      add\n      0x20\n      dup3\n      mul\n      dup1\n      calldatasize\n      dup4\n      calldatacopy\n      dup1\n      dup3\n      add\n      swap2\n      pop\n      pop\n      swap1\n      pop\n    tag_139:\n      pop\n        /* \"contracts/13_VotingV3.sol\":2524:2530  voters */\n      0x04\n        /* \"contracts/13_VotingV3.sol\":2524:2540  voters[_address] */\n      0x00\n        /* \"contracts/13_VotingV3.sol\":2531:2539  _address */\n      dup4\n        /* \"contracts/13_VotingV3.sol\":2524:2540  voters[_address] */\n      0xffffffffffffffffffffffffffffffffffffffff\n      and\n      0xffffffffffffffffffffffffffffffffffffffff\n      and\n      dup2\n      mstore\n      0x20\n      add\n      swap1\n      dup2\n      mstore\n      0x20\n      add\n      0x00\n      keccak256\n        /* \"contracts/13_VotingV3.sol\":2524:2552  voters[_address].proposalIds */\n      0x02\n      add\n        /* \"contracts/13_VotingV3.sol\":2524:2568  voters[_address].proposalIds = new uint[](0) */\n      swap1\n      dup1\n      mload\n      swap1\n      0x20\n      add\n      swap1\n      tag_140\n      swap3\n      swap2\n      swap1\n      tag_136\n      jump\t// in\n    tag_140:\n      pop\n        /* \"contracts/13_VotingV3.sol\":2623:2648  VoterRegistered(_address) */\n      0xb6be2187d059cc2a55fe29e0e503b566e1e0f8c8780096e185429350acffd3dd\n        /* \"contracts/13_VotingV3.sol\":2639:2647  _address */\n      dup2\n        /* \"contracts/13_VotingV3.sol\":2623:2648  VoterRegistered(_address) */\n      mload(0x40)\n      tag_141\n      swap2\n      swap1\n      tag_66\n      jump\t// in\n    tag_141:\n      mload(0x40)\n      dup1\n      swap2\n      sub\n      swap1\n      log1\n        /* \"contracts/13_VotingV3.sol\":2018:2655  function registerVoter(address _address) public onlyOwner {... */\n      pop\n      jump\t// out\n        /* \"contracts/13_VotingV3.sol\":3616:4402  function sendNewProposition(string memory _description) public onlyIfRegistered {... */\n    tag_45:\n        /* \"contracts/13_VotingV3.sol\":1549:1555  voters */\n      0x04\n        /* \"contracts/13_VotingV3.sol\":1549:1567  voters[msg.sender] */\n      0x00\n        /* \"contracts/13_VotingV3.sol\":1556:1566  msg.sender */\n      caller\n        /* \"contracts/13_VotingV3.sol\":1549:1567  voters[msg.sender] */\n      0xffffffffffffffffffffffffffffffffffffffff\n      and\n      0xffffffffffffffffffffffffffffffffffffffff\n      and\n      dup2\n      mstore\n      0x20\n      add\n      swap1\n      dup2\n      mstore\n      0x20\n      add\n      0x00\n      keccak256\n        /* \"contracts/13_VotingV3.sol\":1549:1580  voters[msg.sender].isRegistered */\n      0x00\n      add\n      0x00\n      swap1\n      sload\n      swap1\n      0x0100\n      exp\n      swap1\n      div\n      0xff\n      and\n        /* \"contracts/13_VotingV3.sol\":1541:1607  require(voters[msg.sender].isRegistered, \"You are not registered\") */\n      tag_143\n      jumpi\n      mload(0x40)\n      0x08c379a000000000000000000000000000000000000000000000000000000000\n      dup2\n      mstore\n      0x04\n      add\n      tag_144\n      swap1\n      tag_145\n      jump\t// in\n    tag_144:\n      mload(0x40)\n      dup1\n      swap2\n      sub\n      swap1\n      revert\n    tag_143:\n        /* \"contracts/13_VotingV3.sol\":3743:3744  0 */\n      0x00\n        /* \"contracts/13_VotingV3.sol\":3720:3732  _description */\n      dup2\n        /* \"contracts/13_VotingV3.sol\":3714:3740  bytes(_description).length */\n      mload\n        /* \"contracts/13_VotingV3.sol\":3714:3744  bytes(_description).length > 0 */\n      gt\n        /* \"contracts/13_VotingV3.sol\":3706:3781  require(bytes(_description).length > 0, \"Proposal description is required\") */\n      tag_147\n      jumpi\n      mload(0x40)\n      0x08c379a000000000000000000000000000000000000000000000000000000000\n      dup2\n      mstore\n      0x04\n      add\n      tag_148\n      swap1\n      tag_149\n      jump\t// in\n    tag_148:\n      mload(0x40)\n      dup1\n      swap2\n      sub\n      swap1\n      revert\n    tag_147:\n        /* \"contracts/13_VotingV3.sol\":3866:3902  VotingSession storage currentSession */\n      0x00\n        /* \"contracts/13_VotingV3.sol\":3905:3919  votingSessions */\n      0x03\n        /* \"contracts/13_VotingV3.sol\":3905:3943  votingSessions[currentVotingSessionId] */\n      0x00\n        /* \"contracts/13_VotingV3.sol\":3920:3942  currentVotingSessionId */\n      sload(0x01)\n        /* \"contracts/13_VotingV3.sol\":3905:3943  votingSessions[currentVotingSessionId] */\n      dup2\n      mstore\n      0x20\n      add\n      swap1\n      dup2\n      mstore\n      0x20\n      add\n      0x00\n      keccak256\n        /* \"contracts/13_VotingV3.sol\":3866:3943  VotingSession storage currentSession = votingSessions[currentVotingSessionId] */\n      swap1\n      pop\n        /* \"contracts/13_VotingV3.sol\":3994:4037  WorkflowStatus.ProposalsRegistrationStarted */\n      0x01\n        /* \"contracts/13_VotingV3.sol\":3961:4037  currentSession.workflowStatus == WorkflowStatus.ProposalsRegistrationStarted */\n      0x05\n      dup2\n      gt\n      iszero\n      tag_150\n      jumpi\n      tag_151\n      tag_100\n      jump\t// in\n    tag_151:\n    tag_150:\n        /* \"contracts/13_VotingV3.sol\":3961:3975  currentSession */\n      dup2\n        /* \"contracts/13_VotingV3.sol\":3961:3990  currentSession.workflowStatus */\n      0x00\n      add\n      0x00\n      swap1\n      sload\n      swap1\n      0x0100\n      exp\n      swap1\n      div\n      0xff\n      and\n        /* \"contracts/13_VotingV3.sol\":3961:4037  currentSession.workflowStatus == WorkflowStatus.ProposalsRegistrationStarted */\n      0x05\n      dup2\n      gt\n      iszero\n      tag_152\n      jumpi\n      tag_153\n      tag_100\n      jump\t// in\n    tag_153:\n    tag_152:\n      eq\n        /* \"contracts/13_VotingV3.sol\":3953:4097  require(currentSession.workflowStatus == WorkflowStatus.ProposalsRegistrationStarted, ... */\n      tag_154\n      jumpi\n      mload(0x40)\n      0x08c379a000000000000000000000000000000000000000000000000000000000\n      dup2\n      mstore\n      0x04\n      add\n      tag_155\n      swap1\n      tag_156\n      jump\t// in\n    tag_155:\n      mload(0x40)\n      dup1\n      swap2\n      sub\n      swap1\n      revert\n    tag_154:\n        /* \"contracts/13_VotingV3.sol\":4164:4178  currentSession */\n      dup1\n        /* \"contracts/13_VotingV3.sol\":4164:4188  currentSession.proposals */\n      0x02\n      add\n        /* \"contracts/13_VotingV3.sol\":4194:4302  Proposal({... */\n      mload(0x40)\n      dup1\n      0x60\n      add\n      0x40\n      mstore\n      dup1\n        /* \"contracts/13_VotingV3.sol\":4221:4226  nonce */\n      sload(0x02)\n        /* \"contracts/13_VotingV3.sol\":4194:4302  Proposal({... */\n      dup2\n      mstore\n      0x20\n      add\n        /* \"contracts/13_VotingV3.sol\":4253:4265  _description */\n      dup5\n        /* \"contracts/13_VotingV3.sol\":4194:4302  Proposal({... */\n      dup2\n      mstore\n      0x20\n      add\n        /* \"contracts/13_VotingV3.sol\":4290:4291  0 */\n      0x00\n        /* \"contracts/13_VotingV3.sol\":4194:4302  Proposal({... */\n      dup2\n      mstore\n      pop\n        /* \"contracts/13_VotingV3.sol\":4164:4303  currentSession.proposals.push(Proposal({... */\n      swap1\n      dup1\n      0x01\n      dup2\n      sload\n      add\n      dup1\n      dup3\n      sstore\n      dup1\n      swap2\n      pop\n      pop\n      0x01\n      swap1\n      sub\n      swap1\n      0x00\n      mstore\n      keccak256(0x00, 0x20)\n      swap1\n      0x03\n      mul\n      add\n      0x00\n      swap1\n      swap2\n      swap1\n      swap2\n      swap1\n      swap2\n      pop\n      0x00\n      dup3\n      add\n      mload\n      dup2\n      0x00\n      add\n      sstore\n      0x20\n      dup3\n      add\n      mload\n      dup2\n      0x01\n      add\n      swap1\n      dup2\n      tag_158\n      swap2\n      swap1\n      tag_159\n      jump\t// in\n    tag_158:\n      pop\n      0x40\n      dup3\n      add\n      mload\n      dup2\n      0x02\n      add\n      sstore\n      pop\n      pop\n        /* \"contracts/13_VotingV3.sol\":4327:4352  ProposalRegistered(nonce) */\n      0x92e393e9b54e2f801d3ea4beb0c5e71a21cc34a5d34b77d0fb8a3aa1650dc18f\n        /* \"contracts/13_VotingV3.sol\":4346:4351  nonce */\n      sload(0x02)\n        /* \"contracts/13_VotingV3.sol\":4327:4352  ProposalRegistered(nonce) */\n      mload(0x40)\n      tag_160\n      swap2\n      swap1\n      tag_70\n      jump\t// in\n    tag_160:\n      mload(0x40)\n      dup1\n      swap2\n      sub\n      swap1\n      log1\n        /* \"contracts/13_VotingV3.sol\":4362:4367  nonce */\n      0x02\n      0x00\n        /* \"contracts/13_VotingV3.sol\":4362:4369  nonce++ */\n      dup2\n      sload\n      dup1\n      swap3\n      swap2\n      swap1\n      tag_161\n      swap1\n      tag_97\n      jump\t// in\n    tag_161:\n      swap2\n      swap1\n      pop\n      sstore\n      pop\n        /* \"contracts/13_VotingV3.sol\":3696:4402  {... */\n      pop\n        /* \"contracts/13_VotingV3.sol\":3616:4402  function sendNewProposition(string memory _description) public onlyIfRegistered {... */\n      pop\n      jump\t// out\n        /* \"contracts/13_VotingV3.sol\":8084:8232  function getWinningProposalBySession(uint _sessionId) external view returns(VotingSession memory) {... */\n    tag_48:\n        /* \"contracts/13_VotingV3.sol\":8160:8180  VotingSession memory */\n      tag_162\n      tag_103\n      jump\t// in\n    tag_162:\n        /* \"contracts/13_VotingV3.sol\":8199:8213  votingSessions */\n      0x03\n        /* \"contracts/13_VotingV3.sol\":8199:8225  votingSessions[_sessionId] */\n      0x00\n        /* \"contracts/13_VotingV3.sol\":8214:8224  _sessionId */\n      dup4\n        /* \"contracts/13_VotingV3.sol\":8199:8225  votingSessions[_sessionId] */\n      dup2\n      mstore\n      0x20\n      add\n      swap1\n      dup2\n      mstore\n      0x20\n      add\n      0x00\n      keccak256\n        /* \"contracts/13_VotingV3.sol\":8192:8225  return votingSessions[_sessionId] */\n      mload(0x40)\n      dup1\n      0x60\n      add\n      0x40\n      mstore\n      swap1\n      dup2\n      0x00\n      dup3\n      add\n      0x00\n      swap1\n      sload\n      swap1\n      0x0100\n      exp\n      swap1\n      div\n      0xff\n      and\n      0x05\n      dup2\n      gt\n      iszero\n      tag_164\n      jumpi\n      tag_165\n      tag_100\n      jump\t// in\n    tag_165:\n    tag_164:\n      0x05\n      dup2\n      gt\n      iszero\n      tag_166\n      jumpi\n      tag_167\n      tag_100\n      jump\t// in\n    tag_167:\n    tag_166:\n      dup2\n      mstore\n      0x20\n      add\n      0x01\n      dup3\n      add\n      sload\n      dup2\n      mstore\n      0x20\n      add\n      0x02\n      dup3\n      add\n      dup1\n      sload\n      dup1\n      0x20\n      mul\n      0x20\n      add\n      mload(0x40)\n      swap1\n      dup2\n      add\n      0x40\n      mstore\n      dup1\n      swap3\n      swap2\n      swap1\n      dup2\n      dup2\n      mstore\n      0x20\n      add\n      0x00\n      swap1\n    tag_168:\n      dup3\n      dup3\n      lt\n      iszero\n      tag_169\n      jumpi\n      dup4\n      dup3\n      swap1\n      0x00\n      mstore\n      keccak256(0x00, 0x20)\n      swap1\n      0x03\n      mul\n      add\n      mload(0x40)\n      dup1\n      0x60\n      add\n      0x40\n      mstore\n      swap1\n      dup2\n      0x00\n      dup3\n      add\n      sload\n      dup2\n      mstore\n      0x20\n      add\n      0x01\n      dup3\n      add\n      dup1\n      sload\n      tag_171\n      swap1\n      tag_113\n      jump\t// in\n    tag_171:\n      dup1\n      0x1f\n      add\n      0x20\n      dup1\n      swap2\n      div\n      mul\n      0x20\n      add\n      mload(0x40)\n      swap1\n      dup2\n      add\n      0x40\n      mstore\n      dup1\n      swap3\n      swap2\n      swap1\n      dup2\n      dup2\n      mstore\n      0x20\n      add\n      dup3\n      dup1\n      sload\n      tag_172\n      swap1\n      tag_113\n      jump\t// in\n    tag_172:\n      dup1\n      iszero\n      tag_173\n      jumpi\n      dup1\n      0x1f\n      lt\n      tag_174\n      jumpi\n      0x0100\n      dup1\n      dup4\n      sload\n      div\n      mul\n      dup4\n      mstore\n      swap2\n      0x20\n      add\n      swap2\n      jump(tag_173)\n    tag_174:\n      dup3\n      add\n      swap2\n      swap1\n      0x00\n      mstore\n      keccak256(0x00, 0x20)\n      swap1\n    tag_175:\n      dup2\n      sload\n      dup2\n      mstore\n      swap1\n      0x01\n      add\n      swap1\n      0x20\n      add\n      dup1\n      dup4\n      gt\n      tag_175\n      jumpi\n      dup3\n      swap1\n      sub\n      0x1f\n      and\n      dup3\n      add\n      swap2\n    tag_173:\n      pop\n      pop\n      pop\n      pop\n      pop\n      dup2\n      mstore\n      0x20\n      add\n      0x02\n      dup3\n      add\n      sload\n      dup2\n      mstore\n      pop\n      pop\n      dup2\n      mstore\n      0x20\n      add\n      swap1\n      0x01\n      add\n      swap1\n      jump(tag_168)\n    tag_169:\n      pop\n      pop\n      pop\n      pop\n      dup2\n      mstore\n      pop\n      pop\n      swap1\n      pop\n        /* \"contracts/13_VotingV3.sol\":8084:8232  function getWinningProposalBySession(uint _sessionId) external view returns(VotingSession memory) {... */\n      swap2\n      swap1\n      pop\n      jump\t// out\n        /* \"contracts/13_VotingV3.sol\":8399:8613  function getAllProposalsFromCurrentSession() public view returns (Proposal[] memory) {... */\n    tag_51:\n        /* \"contracts/13_VotingV3.sol\":8465:8482  Proposal[] memory */\n      0x60\n        /* \"contracts/13_VotingV3.sol\":8558:8572  votingSessions */\n      0x03\n        /* \"contracts/13_VotingV3.sol\":8558:8596  votingSessions[currentVotingSessionId] */\n      0x00\n        /* \"contracts/13_VotingV3.sol\":8573:8595  currentVotingSessionId */\n      sload(0x01)\n        /* \"contracts/13_VotingV3.sol\":8558:8596  votingSessions[currentVotingSessionId] */\n      dup2\n      mstore\n      0x20\n      add\n      swap1\n      dup2\n      mstore\n      0x20\n      add\n      0x00\n      keccak256\n        /* \"contracts/13_VotingV3.sol\":8558:8606  votingSessions[currentVotingSessionId].proposals */\n      0x02\n      add\n        /* \"contracts/13_VotingV3.sol\":8551:8606  return votingSessions[currentVotingSessionId].proposals */\n      dup1\n      sload\n      dup1\n      0x20\n      mul\n      0x20\n      add\n      mload(0x40)\n      swap1\n      dup2\n      add\n      0x40\n      mstore\n      dup1\n      swap3\n      swap2\n      swap1\n      dup2\n      dup2\n      mstore\n      0x20\n      add\n      0x00\n      swap1\n    tag_177:\n      dup3\n      dup3\n      lt\n      iszero\n      tag_178\n      jumpi\n      dup4\n      dup3\n      swap1\n      0x00\n      mstore\n      keccak256(0x00, 0x20)\n      swap1\n      0x03\n      mul\n      add\n      mload(0x40)\n      dup1\n      0x60\n      add\n      0x40\n      mstore\n      swap1\n      dup2\n      0x00\n      dup3\n      add\n      sload\n      dup2\n      mstore\n      0x20\n      add\n      0x01\n      dup3\n      add\n      dup1\n      sload\n      tag_180\n      swap1\n      tag_113\n      jump\t// in\n    tag_180:\n      dup1\n      0x1f\n      add\n      0x20\n      dup1\n      swap2\n      div\n      mul\n      0x20\n      add\n      mload(0x40)\n      swap1\n      dup2\n      add\n      0x40\n      mstore\n      dup1\n      swap3\n      swap2\n      swap1\n      dup2\n      dup2\n      mstore\n      0x20\n      add\n      dup3\n      dup1\n      sload\n      tag_181\n      swap1\n      tag_113\n      jump\t// in\n    tag_181:\n      dup1\n      iszero\n      tag_182\n      jumpi\n      dup1\n      0x1f\n      lt\n      tag_183\n      jumpi\n      0x0100\n      dup1\n      dup4\n      sload\n      div\n      mul\n      dup4\n      mstore\n      swap2\n      0x20\n      add\n      swap2\n      jump(tag_182)\n    tag_183:\n      dup3\n      add\n      swap2\n      swap1\n      0x00\n      mstore\n      keccak256(0x00, 0x20)\n      swap1\n    tag_184:\n      dup2\n      sload\n      dup2\n      mstore\n      swap1\n      0x01\n      add\n      swap1\n      0x20\n      add\n      dup1\n      dup4\n      gt\n      tag_184\n      jumpi\n      dup3\n      swap1\n      sub\n      0x1f\n      and\n      dup3\n      add\n      swap2\n    tag_182:\n      pop\n      pop\n      pop\n      pop\n      pop\n      dup2\n      mstore\n      0x20\n      add\n      0x02\n      dup3\n      add\n      sload\n      dup2\n      mstore\n      pop\n      pop\n      dup2\n      mstore\n      0x20\n      add\n      swap1\n      0x01\n      add\n      swap1\n      jump(tag_177)\n    tag_178:\n      pop\n      pop\n      pop\n      pop\n      swap1\n      pop\n        /* \"contracts/13_VotingV3.sol\":8399:8613  function getAllProposalsFromCurrentSession() public view returns (Proposal[] memory) {... */\n      swap1\n      jump\t// out\n        /* \"contracts/13_VotingV3.sol\":4408:4965  function endProposalsRegistration() public onlyOwner {... */\n    tag_55:\n        /* \"https://github.com/OpenZeppelin/openzeppelin-contracts/blob/master/contracts/access/Ownable.sol\":1531:1544  _checkOwner() */\n      tag_186\n        /* \"https://github.com/OpenZeppelin/openzeppelin-contracts/blob/master/contracts/access/Ownable.sol\":1531:1542  _checkOwner */\n      tag_94\n        /* \"https://github.com/OpenZeppelin/openzeppelin-contracts/blob/master/contracts/access/Ownable.sol\":1531:1544  _checkOwner() */\n      jump\t// in\n    tag_186:\n        /* \"contracts/13_VotingV3.sol\":4602:4645  WorkflowStatus.ProposalsRegistrationStarted */\n      0x01\n        /* \"contracts/13_VotingV3.sol\":4545:4645  votingSessions[currentVotingSessionId].workflowStatus == WorkflowStatus.ProposalsRegistrationStarted */\n      0x05\n      dup2\n      gt\n      iszero\n      tag_188\n      jumpi\n      tag_189\n      tag_100\n      jump\t// in\n    tag_189:\n    tag_188:\n        /* \"contracts/13_VotingV3.sol\":4545:4559  votingSessions */\n      0x03\n        /* \"contracts/13_VotingV3.sol\":4545:4583  votingSessions[currentVotingSessionId] */\n      0x00\n        /* \"contracts/13_VotingV3.sol\":4560:4582  currentVotingSessionId */\n      sload(0x01)\n        /* \"contracts/13_VotingV3.sol\":4545:4583  votingSessions[currentVotingSessionId] */\n      dup2\n      mstore\n      0x20\n      add\n      swap1\n      dup2\n      mstore\n      0x20\n      add\n      0x00\n      keccak256\n        /* \"contracts/13_VotingV3.sol\":4545:4598  votingSessions[currentVotingSessionId].workflowStatus */\n      0x00\n      add\n      0x00\n      swap1\n      sload\n      swap1\n      0x0100\n      exp\n      swap1\n      div\n      0xff\n      and\n        /* \"contracts/13_VotingV3.sol\":4545:4645  votingSessions[currentVotingSessionId].workflowStatus == WorkflowStatus.ProposalsRegistrationStarted */\n      0x05\n      dup2\n      gt\n      iszero\n      tag_190\n      jumpi\n      tag_191\n      tag_100\n      jump\t// in\n    tag_191:\n    tag_190:\n      eq\n        /* \"contracts/13_VotingV3.sol\":4537:4718  require(votingSessions[currentVotingSessionId].workflowStatus == WorkflowStatus.ProposalsRegistrationStarted, ... */\n      tag_192\n      jumpi\n      mload(0x40)\n      0x08c379a000000000000000000000000000000000000000000000000000000000\n      dup2\n      mstore\n      0x04\n      add\n      tag_193\n      swap1\n      tag_194\n      jump\t// in\n    tag_193:\n      mload(0x40)\n      dup1\n      swap2\n      sub\n      swap1\n      revert\n    tag_192:\n        /* \"contracts/13_VotingV3.sol\":4793:4834  WorkflowStatus.ProposalsRegistrationEnded */\n      0x02\n        /* \"contracts/13_VotingV3.sol\":4737:4751  votingSessions */\n      0x03\n        /* \"contracts/13_VotingV3.sol\":4737:4775  votingSessions[currentVotingSessionId] */\n      0x00\n        /* \"contracts/13_VotingV3.sol\":4752:4774  currentVotingSessionId */\n      sload(0x01)\n        /* \"contracts/13_VotingV3.sol\":4737:4775  votingSessions[currentVotingSessionId] */\n      dup2\n      mstore\n      0x20\n      add\n      swap1\n      dup2\n      mstore\n      0x20\n      add\n      0x00\n      keccak256\n        /* \"contracts/13_VotingV3.sol\":4737:4790  votingSessions[currentVotingSessionId].workflowStatus */\n      0x00\n      add\n      0x00\n        /* \"contracts/13_VotingV3.sol\":4737:4834  votingSessions[currentVotingSessionId].workflowStatus = WorkflowStatus.ProposalsRegistrationEnded */\n      0x0100\n      exp\n      dup2\n      sload\n      dup2\n      0xff\n      mul\n      not\n      and\n      swap1\n      dup4\n      0x05\n      dup2\n      gt\n      iszero\n      tag_195\n      jumpi\n      tag_196\n      tag_100\n      jump\t// in\n    tag_196:\n    tag_195:\n      mul\n      or\n      swap1\n      sstore\n      pop\n        /* \"contracts/13_VotingV3.sol\":4849:4957  WorkflowStatusChange(WorkflowStatus.ProposalsRegistrationStarted, WorkflowStatus.ProposalsRegistrationEnded) */\n      0x0a97a4ee45751e2abf3e4fc8946939630b11b371ea8ae39ccdc3056e98f5cc3f\n        /* \"contracts/13_VotingV3.sol\":4870:4913  WorkflowStatus.ProposalsRegistrationStarted */\n      0x01\n        /* \"contracts/13_VotingV3.sol\":4915:4956  WorkflowStatus.ProposalsRegistrationEnded */\n      0x02\n        /* \"contracts/13_VotingV3.sol\":4849:4957  WorkflowStatusChange(WorkflowStatus.ProposalsRegistrationStarted, WorkflowStatus.ProposalsRegistrationEnded) */\n      mload(0x40)\n      tag_197\n      swap3\n      swap2\n      swap1\n      tag_198\n      jump\t// in\n    tag_197:\n      mload(0x40)\n      dup1\n      swap2\n      sub\n      swap1\n      log1\n        /* \"contracts/13_VotingV3.sol\":4408:4965  function endProposalsRegistration() public onlyOwner {... */\n      jump\t// out\n        /* \"https://github.com/OpenZeppelin/openzeppelin-contracts/blob/master/contracts/access/Ownable.sol\":2293:2394  function renounceOwnership() public virtual onlyOwner {... */\n    tag_57:\n        /* \"https://github.com/OpenZeppelin/openzeppelin-contracts/blob/master/contracts/access/Ownable.sol\":1531:1544  _checkOwner() */\n      tag_200\n        /* \"https://github.com/OpenZeppelin/openzeppelin-contracts/blob/master/contracts/access/Ownable.sol\":1531:1542  _checkOwner */\n      tag_94\n        /* \"https://github.com/OpenZeppelin/openzeppelin-contracts/blob/master/contracts/access/Ownable.sol\":1531:1544  _checkOwner() */\n      jump\t// in\n    tag_200:\n        /* \"https://github.com/OpenZeppelin/openzeppelin-contracts/blob/master/contracts/access/Ownable.sol\":2357:2387  _transferOwnership(address(0)) */\n      tag_202\n        /* \"https://github.com/OpenZeppelin/openzeppelin-contracts/blob/master/contracts/access/Ownable.sol\":2384:2385  0 */\n      0x00\n        /* \"https://github.com/OpenZeppelin/openzeppelin-contracts/blob/master/contracts/access/Ownable.sol\":2357:2375  _transferOwnership */\n      tag_203\n        /* \"https://github.com/OpenZeppelin/openzeppelin-contracts/blob/master/contracts/access/Ownable.sol\":2357:2387  _transferOwnership(address(0)) */\n      jump\t// in\n    tag_202:\n        /* \"https://github.com/OpenZeppelin/openzeppelin-contracts/blob/master/contracts/access/Ownable.sol\":2293:2394  function renounceOwnership() public virtual onlyOwner {... */\n      jump\t// out\n        /* \"contracts/13_VotingV3.sol\":2661:3077  function unregisterVoter(address _address) public onlyOwner {... */\n    tag_60:\n        /* \"https://github.com/OpenZeppelin/openzeppelin-contracts/blob/master/contracts/access/Ownable.sol\":1531:1544  _checkOwner() */\n      tag_205\n        /* \"https://github.com/OpenZeppelin/openzeppelin-contracts/blob/master/contracts/access/Ownable.sol\":1531:1542  _checkOwner */\n      tag_94\n        /* \"https://github.com/OpenZeppelin/openzeppelin-contracts/blob/master/contracts/access/Ownable.sol\":1531:1544  _checkOwner() */\n      jump\t// in\n    tag_205:\n        /* \"contracts/13_VotingV3.sol\":2796:2828  WorkflowStatus.RegisteringVoters */\n      0x00\n        /* \"contracts/13_VotingV3.sol\":2739:2828  votingSessions[currentVotingSessionId].workflowStatus == WorkflowStatus.RegisteringVoters */\n      0x05\n      dup2\n      gt\n      iszero\n      tag_207\n      jumpi\n      tag_208\n      tag_100\n      jump\t// in\n    tag_208:\n    tag_207:\n        /* \"contracts/13_VotingV3.sol\":2739:2753  votingSessions */\n      0x03\n        /* \"contracts/13_VotingV3.sol\":2739:2777  votingSessions[currentVotingSessionId] */\n      0x00\n        /* \"contracts/13_VotingV3.sol\":2754:2776  currentVotingSessionId */\n      sload(0x01)\n        /* \"contracts/13_VotingV3.sol\":2739:2777  votingSessions[currentVotingSessionId] */\n      dup2\n      mstore\n      0x20\n      add\n      swap1\n      dup2\n      mstore\n      0x20\n      add\n      0x00\n      keccak256\n        /* \"contracts/13_VotingV3.sol\":2739:2792  votingSessions[currentVotingSessionId].workflowStatus */\n      0x00\n      add\n      0x00\n      swap1\n      sload\n      swap1\n      0x0100\n      exp\n      swap1\n      div\n      0xff\n      and\n        /* \"contracts/13_VotingV3.sol\":2739:2828  votingSessions[currentVotingSessionId].workflowStatus == WorkflowStatus.RegisteringVoters */\n      0x05\n      dup2\n      gt\n      iszero\n      tag_209\n      jumpi\n      tag_210\n      tag_100\n      jump\t// in\n    tag_210:\n    tag_209:\n      eq\n        /* \"contracts/13_VotingV3.sol\":2731:2891  require(votingSessions[currentVotingSessionId].workflowStatus == WorkflowStatus.RegisteringVoters, ... */\n      tag_211\n      jumpi\n      mload(0x40)\n      0x08c379a000000000000000000000000000000000000000000000000000000000\n      dup2\n      mstore\n      0x04\n      add\n      tag_212\n      swap1\n      tag_127\n      jump\t// in\n    tag_212:\n      mload(0x40)\n      dup1\n      swap2\n      sub\n      swap1\n      revert\n    tag_211:\n        /* \"contracts/13_VotingV3.sol\":2909:2915  voters */\n      0x04\n        /* \"contracts/13_VotingV3.sol\":2909:2925  voters[_address] */\n      0x00\n        /* \"contracts/13_VotingV3.sol\":2916:2924  _address */\n      dup3\n        /* \"contracts/13_VotingV3.sol\":2909:2925  voters[_address] */\n      0xffffffffffffffffffffffffffffffffffffffff\n      and\n      0xffffffffffffffffffffffffffffffffffffffff\n      and\n      dup2\n      mstore\n      0x20\n      add\n      swap1\n      dup2\n      mstore\n      0x20\n      add\n      0x00\n      keccak256\n        /* \"contracts/13_VotingV3.sol\":2909:2938  voters[_address].isRegistered */\n      0x00\n      add\n      0x00\n      swap1\n      sload\n      swap1\n      0x0100\n      exp\n      swap1\n      div\n      0xff\n      and\n        /* \"contracts/13_VotingV3.sol\":2901:2972  require(voters[_address].isRegistered, \"Voter is already unregistered\") */\n      tag_213\n      jumpi\n      mload(0x40)\n      0x08c379a000000000000000000000000000000000000000000000000000000000\n      dup2\n      mstore\n      0x04\n      add\n      tag_214\n      swap1\n      tag_215\n      jump\t// in\n    tag_214:\n      mload(0x40)\n      dup1\n      swap2\n      sub\n      swap1\n      revert\n    tag_213:\n        /* \"contracts/13_VotingV3.sol\":3023:3028  false */\n      0x00\n        /* \"contracts/13_VotingV3.sol\":2991:2997  voters */\n      0x04\n        /* \"contracts/13_VotingV3.sol\":2991:3007  voters[_address] */\n      0x00\n        /* \"contracts/13_VotingV3.sol\":2998:3006  _address */\n      dup4\n        /* \"contracts/13_VotingV3.sol\":2991:3007  voters[_address] */\n      0xffffffffffffffffffffffffffffffffffffffff\n      and\n      0xffffffffffffffffffffffffffffffffffffffff\n      and\n      dup2\n      mstore\n      0x20\n      add\n      swap1\n      dup2\n      mstore\n      0x20\n      add\n      0x00\n      keccak256\n        /* \"contracts/13_VotingV3.sol\":2991:3020  voters[_address].isRegistered */\n      0x00\n      add\n      0x00\n        /* \"contracts/13_VotingV3.sol\":2991:3028  voters[_address].isRegistered = false */\n      0x0100\n      exp\n      dup2\n      sload\n      dup2\n      0xff\n      mul\n      not\n      and\n      swap1\n      dup4\n      iszero\n      iszero\n      mul\n      or\n      swap1\n      sstore\n      pop\n        /* \"contracts/13_VotingV3.sol\":3043:3070  VoterUnregistered(_address) */\n      0x25fc2460244a2fff1d6879302ea1d6f3e684e599d76c012a22e42d5bb61cc5d7\n        /* \"contracts/13_VotingV3.sol\":3061:3069  _address */\n      dup2\n        /* \"contracts/13_VotingV3.sol\":3043:3070  VoterUnregistered(_address) */\n      mload(0x40)\n      tag_216\n      swap2\n      swap1\n      tag_66\n      jump\t// in\n    tag_216:\n      mload(0x40)\n      dup1\n      swap2\n      sub\n      swap1\n      log1\n        /* \"contracts/13_VotingV3.sol\":2661:3077  function unregisterVoter(address _address) public onlyOwner {... */\n      pop\n      jump\t// out\n        /* \"contracts/13_VotingV3.sol\":7147:8078  function computeMostVotedProposal() public {... */\n    tag_62:\n        /* \"contracts/13_VotingV3.sol\":7270:7294  VotingSession storage cs */\n      0x00\n        /* \"contracts/13_VotingV3.sol\":7297:7311  votingSessions */\n      0x03\n        /* \"contracts/13_VotingV3.sol\":7297:7335  votingSessions[currentVotingSessionId] */\n      0x00\n        /* \"contracts/13_VotingV3.sol\":7312:7334  currentVotingSessionId */\n      sload(0x01)\n        /* \"contracts/13_VotingV3.sol\":7297:7335  votingSessions[currentVotingSessionId] */\n      dup2\n      mstore\n      0x20\n      add\n      swap1\n      dup2\n      mstore\n      0x20\n      add\n      0x00\n      keccak256\n        /* \"contracts/13_VotingV3.sol\":7270:7335  VotingSession storage cs = votingSessions[currentVotingSessionId] */\n      swap1\n      pop\n        /* \"contracts/13_VotingV3.sol\":7374:7407  WorkflowStatus.VotingSessionEnded */\n      0x04\n        /* \"contracts/13_VotingV3.sol\":7353:7407  cs.workflowStatus == WorkflowStatus.VotingSessionEnded */\n      0x05\n      dup2\n      gt\n      iszero\n      tag_218\n      jumpi\n      tag_219\n      tag_100\n      jump\t// in\n    tag_219:\n    tag_218:\n        /* \"contracts/13_VotingV3.sol\":7353:7355  cs */\n      dup2\n        /* \"contracts/13_VotingV3.sol\":7353:7370  cs.workflowStatus */\n      0x00\n      add\n      0x00\n      swap1\n      sload\n      swap1\n      0x0100\n      exp\n      swap1\n      div\n      0xff\n      and\n        /* \"contracts/13_VotingV3.sol\":7353:7407  cs.workflowStatus == WorkflowStatus.VotingSessionEnded */\n      0x05\n      dup2\n      gt\n      iszero\n      tag_220\n      jumpi\n      tag_221\n      tag_100\n      jump\t// in\n    tag_221:\n    tag_220:\n      eq\n        /* \"contracts/13_VotingV3.sol\":7345:7436  require(cs.workflowStatus == WorkflowStatus.VotingSessionEnded, \"Voting session not ended\") */\n      tag_222\n      jumpi\n      mload(0x40)\n      0x08c379a000000000000000000000000000000000000000000000000000000000\n      dup2\n      mstore\n      0x04\n      add\n      tag_223\n      swap1\n      tag_224\n      jump\t// in\n    tag_223:\n      mload(0x40)\n      dup1\n      swap2\n      sub\n      swap1\n      revert\n    tag_222:\n        /* \"contracts/13_VotingV3.sol\":7476:7477  0 */\n      0x00\n        /* \"contracts/13_VotingV3.sol\":7454:7456  cs */\n      dup2\n        /* \"contracts/13_VotingV3.sol\":7454:7466  cs.proposals */\n      0x02\n      add\n        /* \"contracts/13_VotingV3.sol\":7454:7473  cs.proposals.length */\n      dup1\n      sload\n      swap1\n      pop\n        /* \"contracts/13_VotingV3.sol\":7454:7477  cs.proposals.length > 0 */\n      gt\n        /* \"contracts/13_VotingV3.sol\":7446:7511  require(cs.proposals.length > 0, \"This session has no proposals\") */\n      tag_225\n      jumpi\n      mload(0x40)\n      0x08c379a000000000000000000000000000000000000000000000000000000000\n      dup2\n      mstore\n      0x04\n      add\n      tag_226\n      swap1\n      tag_227\n      jump\t// in\n    tag_226:\n      mload(0x40)\n      dup1\n      swap2\n      sub\n      swap1\n      revert\n    tag_225:\n        /* \"contracts/13_VotingV3.sol\":7579:7593  uint winningId */\n      0x00\n        /* \"contracts/13_VotingV3.sol\":7596:7597  0 */\n      0x00\n        /* \"contracts/13_VotingV3.sol\":7579:7597  uint winningId = 0 */\n      swap1\n      pop\n        /* \"contracts/13_VotingV3.sol\":7607:7620  uint maxVotes */\n      0x00\n        /* \"contracts/13_VotingV3.sol\":7623:7624  0 */\n      0x00\n        /* \"contracts/13_VotingV3.sol\":7607:7624  uint maxVotes = 0 */\n      swap1\n      pop\n        /* \"contracts/13_VotingV3.sol\":7648:7654  uint i */\n      0x00\n        /* \"contracts/13_VotingV3.sol\":7657:7658  0 */\n      0x00\n        /* \"contracts/13_VotingV3.sol\":7648:7658  uint i = 0 */\n      swap1\n      pop\n        /* \"contracts/13_VotingV3.sol\":7643:7873  for (uint i = 0; i < cs.proposals.length; i++) {... */\n    tag_228:\n        /* \"contracts/13_VotingV3.sol\":7664:7666  cs */\n      dup4\n        /* \"contracts/13_VotingV3.sol\":7664:7676  cs.proposals */\n      0x02\n      add\n        /* \"contracts/13_VotingV3.sol\":7664:7683  cs.proposals.length */\n      dup1\n      sload\n      swap1\n      pop\n        /* \"contracts/13_VotingV3.sol\":7660:7661  i */\n      dup2\n        /* \"contracts/13_VotingV3.sol\":7660:7683  i < cs.proposals.length */\n      lt\n        /* \"contracts/13_VotingV3.sol\":7643:7873  for (uint i = 0; i < cs.proposals.length; i++) {... */\n      iszero\n      tag_229\n      jumpi\n        /* \"contracts/13_VotingV3.sol\":7736:7744  maxVotes */\n      dup2\n        /* \"contracts/13_VotingV3.sol\":7708:7710  cs */\n      dup5\n        /* \"contracts/13_VotingV3.sol\":7708:7720  cs.proposals */\n      0x02\n      add\n        /* \"contracts/13_VotingV3.sol\":7721:7722  i */\n      dup3\n        /* \"contracts/13_VotingV3.sol\":7708:7723  cs.proposals[i] */\n      dup2\n      sload\n      dup2\n      lt\n      tag_231\n      jumpi\n      tag_232\n      tag_233\n      jump\t// in\n    tag_232:\n    tag_231:\n      swap1\n      0x00\n      mstore\n      keccak256(0x00, 0x20)\n      swap1\n      0x03\n      mul\n      add\n        /* \"contracts/13_VotingV3.sol\":7708:7733  cs.proposals[i].voteCount */\n      0x02\n      add\n      sload\n        /* \"contracts/13_VotingV3.sol\":7708:7744  cs.proposals[i].voteCount > maxVotes */\n      gt\n        /* \"contracts/13_VotingV3.sol\":7704:7863  if (cs.proposals[i].voteCount > maxVotes) {... */\n      iszero\n      tag_235\n      jumpi\n        /* \"contracts/13_VotingV3.sol\":7775:7777  cs */\n      dup4\n        /* \"contracts/13_VotingV3.sol\":7775:7787  cs.proposals */\n      0x02\n      add\n        /* \"contracts/13_VotingV3.sol\":7788:7789  i */\n      dup2\n        /* \"contracts/13_VotingV3.sol\":7775:7790  cs.proposals[i] */\n      dup2\n      sload\n      dup2\n      lt\n      tag_236\n      jumpi\n      tag_237\n      tag_233\n      jump\t// in\n    tag_237:\n    tag_236:\n      swap1\n      0x00\n      mstore\n      keccak256(0x00, 0x20)\n      swap1\n      0x03\n      mul\n      add\n        /* \"contracts/13_VotingV3.sol\":7775:7800  cs.proposals[i].voteCount */\n      0x02\n      add\n      sload\n        /* \"contracts/13_VotingV3.sol\":7764:7800  maxVotes = cs.proposals[i].voteCount */\n      swap2\n      pop\n        /* \"contracts/13_VotingV3.sol\":7830:7832  cs */\n      dup4\n        /* \"contracts/13_VotingV3.sol\":7830:7842  cs.proposals */\n      0x02\n      add\n        /* \"contracts/13_VotingV3.sol\":7843:7844  i */\n      dup2\n        /* \"contracts/13_VotingV3.sol\":7830:7845  cs.proposals[i] */\n      dup2\n      sload\n      dup2\n      lt\n      tag_239\n      jumpi\n      tag_240\n      tag_233\n      jump\t// in\n    tag_240:\n    tag_239:\n      swap1\n      0x00\n      mstore\n      keccak256(0x00, 0x20)\n      swap1\n      0x03\n      mul\n      add\n        /* \"contracts/13_VotingV3.sol\":7830:7848  cs.proposals[i].id */\n      0x00\n      add\n      sload\n        /* \"contracts/13_VotingV3.sol\":7818:7848  winningId = cs.proposals[i].id */\n      swap3\n      pop\n        /* \"contracts/13_VotingV3.sol\":7704:7863  if (cs.proposals[i].voteCount > maxVotes) {... */\n    tag_235:\n        /* \"contracts/13_VotingV3.sol\":7685:7688  i++ */\n      dup1\n      dup1\n      0x01\n      add\n      swap2\n      pop\n      pop\n        /* \"contracts/13_VotingV3.sol\":7643:7873  for (uint i = 0; i < cs.proposals.length; i++) {... */\n      jump(tag_228)\n    tag_229:\n      pop\n        /* \"contracts/13_VotingV3.sol\":7906:7915  winningId */\n      dup2\n        /* \"contracts/13_VotingV3.sol\":7883:7885  cs */\n      dup4\n        /* \"contracts/13_VotingV3.sol\":7883:7903  cs.winningProposalId */\n      0x01\n      add\n        /* \"contracts/13_VotingV3.sol\":7883:7915  cs.winningProposalId = winningId */\n      dup2\n      swap1\n      sstore\n      pop\n        /* \"contracts/13_VotingV3.sol\":7945:7972  WorkflowStatus.VotesTallied */\n      0x05\n        /* \"contracts/13_VotingV3.sol\":7925:7927  cs */\n      dup4\n        /* \"contracts/13_VotingV3.sol\":7925:7942  cs.workflowStatus */\n      0x00\n      add\n      0x00\n        /* \"contracts/13_VotingV3.sol\":7925:7972  cs.workflowStatus = WorkflowStatus.VotesTallied */\n      0x0100\n      exp\n      dup2\n      sload\n      dup2\n      0xff\n      mul\n      not\n      and\n      swap1\n      dup4\n      0x05\n      dup2\n      gt\n      iszero\n      tag_242\n      jumpi\n      tag_243\n      tag_100\n      jump\t// in\n    tag_243:\n    tag_242:\n      mul\n      or\n      swap1\n      sstore\n      pop\n        /* \"contracts/13_VotingV3.sol\":7987:8071  WorkflowStatusChange(WorkflowStatus.VotingSessionEnded, WorkflowStatus.VotesTallied) */\n      0x0a97a4ee45751e2abf3e4fc8946939630b11b371ea8ae39ccdc3056e98f5cc3f\n        /* \"contracts/13_VotingV3.sol\":8008:8041  WorkflowStatus.VotingSessionEnded */\n      0x04\n        /* \"contracts/13_VotingV3.sol\":8043:8070  WorkflowStatus.VotesTallied */\n      0x05\n        /* \"contracts/13_VotingV3.sol\":7987:8071  WorkflowStatusChange(WorkflowStatus.VotingSessionEnded, WorkflowStatus.VotesTallied) */\n      mload(0x40)\n      tag_244\n      swap3\n      swap2\n      swap1\n      tag_198\n      jump\t// in\n    tag_244:\n      mload(0x40)\n      dup1\n      swap2\n      sub\n      swap1\n      log1\n        /* \"contracts/13_VotingV3.sol\":7190:8078  {... */\n      pop\n      pop\n      pop\n        /* \"contracts/13_VotingV3.sol\":7147:8078  function computeMostVotedProposal() public {... */\n      jump\t// out\n        /* \"https://github.com/OpenZeppelin/openzeppelin-contracts/blob/master/contracts/access/Ownable.sol\":1638:1723  function owner() public view virtual returns (address) {... */\n    tag_64:\n        /* \"https://github.com/OpenZeppelin/openzeppelin-contracts/blob/master/contracts/access/Ownable.sol\":1684:1691  address */\n      0x00\n        /* \"https://github.com/OpenZeppelin/openzeppelin-contracts/blob/master/contracts/access/Ownable.sol\":1710:1716  _owner */\n      0x00\n      0x00\n      swap1\n      sload\n      swap1\n      0x0100\n      exp\n      swap1\n      div\n      0xffffffffffffffffffffffffffffffffffffffff\n      and\n        /* \"https://github.com/OpenZeppelin/openzeppelin-contracts/blob/master/contracts/access/Ownable.sol\":1703:1716  return _owner */\n      swap1\n      pop\n        /* \"https://github.com/OpenZeppelin/openzeppelin-contracts/blob/master/contracts/access/Ownable.sol\":1638:1723  function owner() public view virtual returns (address) {... */\n      swap1\n      jump\t// out\n        /* \"contracts/13_VotingV3.sol\":198:232  uint public currentVotingSessionId */\n    tag_68:\n      sload(0x01)\n      dup2\n      jump\t// out\n        /* \"contracts/13_VotingV3.sol\":361:400  mapping(address => Voter) public voters */\n    tag_73:\n      mstore(0x20, 0x04)\n      dup1\n      0x00\n      mstore\n      keccak256(0x00, 0x40)\n      0x00\n      swap2\n      pop\n      swap1\n      pop\n      dup1\n      0x00\n      add\n      0x00\n      swap1\n      sload\n      swap1\n      0x0100\n      exp\n      swap1\n      div\n      0xff\n      and\n      swap1\n      pop\n      dup2\n      jump\t// out\n        /* \"contracts/13_VotingV3.sol\":6650:7141  function endVotingSession() public onlyOwner {... */\n    tag_77:\n        /* \"https://github.com/OpenZeppelin/openzeppelin-contracts/blob/master/contracts/access/Ownable.sol\":1531:1544  _checkOwner() */\n      tag_247\n        /* \"https://github.com/OpenZeppelin/openzeppelin-contracts/blob/master/contracts/access/Ownable.sol\":1531:1542  _checkOwner */\n      tag_94\n        /* \"https://github.com/OpenZeppelin/openzeppelin-contracts/blob/master/contracts/access/Ownable.sol\":1531:1544  _checkOwner() */\n      jump\t// in\n    tag_247:\n        /* \"contracts/13_VotingV3.sol\":6836:6871  WorkflowStatus.VotingSessionStarted */\n      0x03\n        /* \"contracts/13_VotingV3.sol\":6779:6871  votingSessions[currentVotingSessionId].workflowStatus == WorkflowStatus.VotingSessionStarted */\n      0x05\n      dup2\n      gt\n      iszero\n      tag_249\n      jumpi\n      tag_250\n      tag_100\n      jump\t// in\n    tag_250:\n    tag_249:\n        /* \"contracts/13_VotingV3.sol\":6779:6793  votingSessions */\n      0x03\n        /* \"contracts/13_VotingV3.sol\":6779:6817  votingSessions[currentVotingSessionId] */\n      0x00\n        /* \"contracts/13_VotingV3.sol\":6794:6816  currentVotingSessionId */\n      sload(0x01)\n        /* \"contracts/13_VotingV3.sol\":6779:6817  votingSessions[currentVotingSessionId] */\n      dup2\n      mstore\n      0x20\n      add\n      swap1\n      dup2\n      mstore\n      0x20\n      add\n      0x00\n      keccak256\n        /* \"contracts/13_VotingV3.sol\":6779:6832  votingSessions[currentVotingSessionId].workflowStatus */\n      0x00\n      add\n      0x00\n      swap1\n      sload\n      swap1\n      0x0100\n      exp\n      swap1\n      div\n      0xff\n      and\n        /* \"contracts/13_VotingV3.sol\":6779:6871  votingSessions[currentVotingSessionId].workflowStatus == WorkflowStatus.VotingSessionStarted */\n      0x05\n      dup2\n      gt\n      iszero\n      tag_251\n      jumpi\n      tag_252\n      tag_100\n      jump\t// in\n    tag_252:\n    tag_251:\n      eq\n        /* \"contracts/13_VotingV3.sol\":6771:6919  require(votingSessions[currentVotingSessionId].workflowStatus == WorkflowStatus.VotingSessionStarted, ... */\n      tag_253\n      jumpi\n      mload(0x40)\n      0x08c379a000000000000000000000000000000000000000000000000000000000\n      dup2\n      mstore\n      0x04\n      add\n      tag_254\n      swap1\n      tag_255\n      jump\t// in\n    tag_254:\n      mload(0x40)\n      dup1\n      swap2\n      sub\n      swap1\n      revert\n    tag_253:\n        /* \"contracts/13_VotingV3.sol\":6994:7027  WorkflowStatus.VotingSessionEnded */\n      0x04\n        /* \"contracts/13_VotingV3.sol\":6938:6952  votingSessions */\n      0x03\n        /* \"contracts/13_VotingV3.sol\":6938:6976  votingSessions[currentVotingSessionId] */\n      0x00\n        /* \"contracts/13_VotingV3.sol\":6953:6975  currentVotingSessionId */\n      sload(0x01)\n        /* \"contracts/13_VotingV3.sol\":6938:6976  votingSessions[currentVotingSessionId] */\n      dup2\n      mstore\n      0x20\n      add\n      swap1\n      dup2\n      mstore\n      0x20\n      add\n      0x00\n      keccak256\n        /* \"contracts/13_VotingV3.sol\":6938:6991  votingSessions[currentVotingSessionId].workflowStatus */\n      0x00\n      add\n      0x00\n        /* \"contracts/13_VotingV3.sol\":6938:7027  votingSessions[currentVotingSessionId].workflowStatus = WorkflowStatus.VotingSessionEnded */\n      0x0100\n      exp\n      dup2\n      sload\n      dup2\n      0xff\n      mul\n      not\n      and\n      swap1\n      dup4\n      0x05\n      dup2\n      gt\n      iszero\n      tag_256\n      jumpi\n      tag_257\n      tag_100\n      jump\t// in\n    tag_257:\n    tag_256:\n      mul\n      or\n      swap1\n      sstore\n      pop\n        /* \"contracts/13_VotingV3.sol\":7042:7134  WorkflowStatusChange(WorkflowStatus.VotingSessionStarted, WorkflowStatus.VotingSessionEnded) */\n      0x0a97a4ee45751e2abf3e4fc8946939630b11b371ea8ae39ccdc3056e98f5cc3f\n        /* \"contracts/13_VotingV3.sol\":7063:7098  WorkflowStatus.VotingSessionStarted */\n      0x03\n        /* \"contracts/13_VotingV3.sol\":7100:7133  WorkflowStatus.VotingSessionEnded */\n      0x04\n        /* \"contracts/13_VotingV3.sol\":7042:7134  WorkflowStatusChange(WorkflowStatus.VotingSessionStarted, WorkflowStatus.VotingSessionEnded) */\n      mload(0x40)\n      tag_258\n      swap3\n      swap2\n      swap1\n      tag_198\n      jump\t// in\n    tag_258:\n      mload(0x40)\n      dup1\n      swap2\n      sub\n      swap1\n      log1\n        /* \"contracts/13_VotingV3.sol\":6650:7141  function endVotingSession() public onlyOwner {... */\n      jump\t// out\n        /* \"contracts/13_VotingV3.sol\":5492:6644  function sendVote(uint _proposalId) public onlyIfRegistered {... */\n    tag_80:\n        /* \"contracts/13_VotingV3.sol\":1549:1555  voters */\n      0x04\n        /* \"contracts/13_VotingV3.sol\":1549:1567  voters[msg.sender] */\n      0x00\n        /* \"contracts/13_VotingV3.sol\":1556:1566  msg.sender */\n      caller\n        /* \"contracts/13_VotingV3.sol\":1549:1567  voters[msg.sender] */\n      0xffffffffffffffffffffffffffffffffffffffff\n      and\n      0xffffffffffffffffffffffffffffffffffffffff\n      and\n      dup2\n      mstore\n      0x20\n      add\n      swap1\n      dup2\n      mstore\n      0x20\n      add\n      0x00\n      keccak256\n        /* \"contracts/13_VotingV3.sol\":1549:1580  voters[msg.sender].isRegistered */\n      0x00\n      add\n      0x00\n      swap1\n      sload\n      swap1\n      0x0100\n      exp\n      swap1\n      div\n      0xff\n      and\n        /* \"contracts/13_VotingV3.sol\":1541:1607  require(voters[msg.sender].isRegistered, \"You are not registered\") */\n      tag_260\n      jumpi\n      mload(0x40)\n      0x08c379a000000000000000000000000000000000000000000000000000000000\n      dup2\n      mstore\n      0x04\n      add\n      tag_261\n      swap1\n      tag_145\n      jump\t// in\n    tag_261:\n      mload(0x40)\n      dup1\n      swap2\n      sub\n      swap1\n      revert\n    tag_260:\n        /* \"contracts/13_VotingV3.sol\":5632:5656  VotingSession storage cs */\n      0x00\n        /* \"contracts/13_VotingV3.sol\":5659:5673  votingSessions */\n      0x03\n        /* \"contracts/13_VotingV3.sol\":5659:5697  votingSessions[currentVotingSessionId] */\n      0x00\n        /* \"contracts/13_VotingV3.sol\":5674:5696  currentVotingSessionId */\n      sload(0x01)\n        /* \"contracts/13_VotingV3.sol\":5659:5697  votingSessions[currentVotingSessionId] */\n      dup2\n      mstore\n      0x20\n      add\n      swap1\n      dup2\n      mstore\n      0x20\n      add\n      0x00\n      keccak256\n        /* \"contracts/13_VotingV3.sol\":5632:5697  VotingSession storage cs = votingSessions[currentVotingSessionId] */\n      swap1\n      pop\n        /* \"contracts/13_VotingV3.sol\":5736:5771  WorkflowStatus.VotingSessionStarted */\n      0x03\n        /* \"contracts/13_VotingV3.sol\":5715:5771  cs.workflowStatus == WorkflowStatus.VotingSessionStarted */\n      0x05\n      dup2\n      gt\n      iszero\n      tag_263\n      jumpi\n      tag_264\n      tag_100\n      jump\t// in\n    tag_264:\n    tag_263:\n        /* \"contracts/13_VotingV3.sol\":5715:5717  cs */\n      dup2\n        /* \"contracts/13_VotingV3.sol\":5715:5732  cs.workflowStatus */\n      0x00\n      add\n      0x00\n      swap1\n      sload\n      swap1\n      0x0100\n      exp\n      swap1\n      div\n      0xff\n      and\n        /* \"contracts/13_VotingV3.sol\":5715:5771  cs.workflowStatus == WorkflowStatus.VotingSessionStarted */\n      0x05\n      dup2\n      gt\n      iszero\n      tag_265\n      jumpi\n      tag_266\n      tag_100\n      jump\t// in\n    tag_266:\n    tag_265:\n      eq\n        /* \"contracts/13_VotingV3.sol\":5707:5802  require(cs.workflowStatus == WorkflowStatus.VotingSessionStarted, \"Voting session not started\") */\n      tag_267\n      jumpi\n      mload(0x40)\n      0x08c379a000000000000000000000000000000000000000000000000000000000\n      dup2\n      mstore\n      0x04\n      add\n      tag_268\n      swap1\n      tag_255\n      jump\t// in\n    tag_268:\n      mload(0x40)\n      dup1\n      swap2\n      sub\n      swap1\n      revert\n    tag_267:\n        /* \"contracts/13_VotingV3.sol\":5886:5888  cs */\n      dup1\n        /* \"contracts/13_VotingV3.sol\":5886:5898  cs.proposals */\n      0x02\n      add\n        /* \"contracts/13_VotingV3.sol\":5886:5905  cs.proposals.length */\n      dup1\n      sload\n      swap1\n      pop\n        /* \"contracts/13_VotingV3.sol\":5872:5883  _proposalId */\n      dup3\n        /* \"contracts/13_VotingV3.sol\":5872:5905  _proposalId < cs.proposals.length */\n      lt\n        /* \"contracts/13_VotingV3.sol\":5864:5929  require(_proposalId < cs.proposals.length, \"Invalid proposal Id\") */\n      tag_269\n      jumpi\n      mload(0x40)\n      0x08c379a000000000000000000000000000000000000000000000000000000000\n      dup2\n      mstore\n      0x04\n      add\n      tag_270\n      swap1\n      tag_271\n      jump\t// in\n    tag_270:\n      mload(0x40)\n      dup1\n      swap2\n      sub\n      swap1\n      revert\n    tag_269:\n        /* \"contracts/13_VotingV3.sol\":5940:5955  Voter storage v */\n      0x00\n        /* \"contracts/13_VotingV3.sol\":5958:5964  voters */\n      0x04\n        /* \"contracts/13_VotingV3.sol\":5958:5976  voters[msg.sender] */\n      0x00\n        /* \"contracts/13_VotingV3.sol\":5965:5975  msg.sender */\n      caller\n        /* \"contracts/13_VotingV3.sol\":5958:5976  voters[msg.sender] */\n      0xffffffffffffffffffffffffffffffffffffffff\n      and\n      0xffffffffffffffffffffffffffffffffffffffff\n      and\n      dup2\n      mstore\n      0x20\n      add\n      swap1\n      dup2\n      mstore\n      0x20\n      add\n      0x00\n      keccak256\n        /* \"contracts/13_VotingV3.sol\":5940:5976  Voter storage v = voters[msg.sender] */\n      swap1\n      pop\n        /* \"contracts/13_VotingV3.sol\":6059:6081  bool hasVotedInSession */\n      0x00\n        /* \"contracts/13_VotingV3.sol\":6084:6089  false */\n      0x00\n        /* \"contracts/13_VotingV3.sol\":6059:6089  bool hasVotedInSession = false */\n      swap1\n      pop\n        /* \"contracts/13_VotingV3.sol\":6103:6109  uint i */\n      0x00\n        /* \"contracts/13_VotingV3.sol\":6112:6113  0 */\n      0x00\n        /* \"contracts/13_VotingV3.sol\":6103:6113  uint i = 0 */\n      swap1\n      pop\n        /* \"contracts/13_VotingV3.sol\":6099:6305  for(uint i = 0; i < v.votedSessionIds.length; i++) {... */\n    tag_272:\n        /* \"contracts/13_VotingV3.sol\":6119:6120  v */\n      dup3\n        /* \"contracts/13_VotingV3.sol\":6119:6136  v.votedSessionIds */\n      0x01\n      add\n        /* \"contracts/13_VotingV3.sol\":6119:6143  v.votedSessionIds.length */\n      dup1\n      sload\n      swap1\n      pop\n        /* \"contracts/13_VotingV3.sol\":6115:6116  i */\n      dup2\n        /* \"contracts/13_VotingV3.sol\":6115:6143  i < v.votedSessionIds.length */\n      lt\n        /* \"contracts/13_VotingV3.sol\":6099:6305  for(uint i = 0; i < v.votedSessionIds.length; i++) {... */\n      iszero\n      tag_273\n      jumpi\n        /* \"contracts/13_VotingV3.sol\":6191:6213  currentVotingSessionId */\n      sload(0x01)\n        /* \"contracts/13_VotingV3.sol\":6167:6168  v */\n      dup4\n        /* \"contracts/13_VotingV3.sol\":6167:6184  v.votedSessionIds */\n      0x01\n      add\n        /* \"contracts/13_VotingV3.sol\":6185:6186  i */\n      dup3\n        /* \"contracts/13_VotingV3.sol\":6167:6187  v.votedSessionIds[i] */\n      dup2\n      sload\n      dup2\n      lt\n      tag_275\n      jumpi\n      tag_276\n      tag_233\n      jump\t// in\n    tag_276:\n    tag_275:\n      swap1\n      0x00\n      mstore\n      keccak256(0x00, 0x20)\n      add\n      sload\n        /* \"contracts/13_VotingV3.sol\":6167:6213  v.votedSessionIds[i] == currentVotingSessionId */\n      sub\n        /* \"contracts/13_VotingV3.sol\":6164:6295  if(v.votedSessionIds[i] == currentVotingSessionId) {... */\n      tag_278\n      jumpi\n        /* \"contracts/13_VotingV3.sol\":6253:6257  true */\n      0x01\n        /* \"contracts/13_VotingV3.sol\":6233:6257  hasVotedInSession = true */\n      swap2\n      pop\n        /* \"contracts/13_VotingV3.sol\":6275:6280  break */\n      jump(tag_273)\n        /* \"contracts/13_VotingV3.sol\":6164:6295  if(v.votedSessionIds[i] == currentVotingSessionId) {... */\n    tag_278:\n        /* \"contracts/13_VotingV3.sol\":6145:6148  i++ */\n      dup1\n      dup1\n      0x01\n      add\n      swap2\n      pop\n      pop\n        /* \"contracts/13_VotingV3.sol\":6099:6305  for(uint i = 0; i < v.votedSessionIds.length; i++) {... */\n      jump(tag_272)\n    tag_273:\n      pop\n        /* \"contracts/13_VotingV3.sol\":6323:6340  hasVotedInSession */\n      dup1\n        /* \"contracts/13_VotingV3.sol\":6322:6340  !hasVotedInSession */\n      iszero\n        /* \"contracts/13_VotingV3.sol\":6314:6384  require(!hasVotedInSession, \"You have already voted for this session\") */\n      tag_279\n      jumpi\n      mload(0x40)\n      0x08c379a000000000000000000000000000000000000000000000000000000000\n      dup2\n      mstore\n      0x04\n      add\n      tag_280\n      swap1\n      tag_281\n      jump\t// in\n    tag_280:\n      mload(0x40)\n      dup1\n      swap2\n      sub\n      swap1\n      revert\n    tag_279:\n        /* \"contracts/13_VotingV3.sol\":6449:6450  v */\n      dup2\n        /* \"contracts/13_VotingV3.sol\":6449:6466  v.votedSessionIds */\n      0x01\n      add\n        /* \"contracts/13_VotingV3.sol\":6472:6494  currentVotingSessionId */\n      sload(0x01)\n        /* \"contracts/13_VotingV3.sol\":6449:6495  v.votedSessionIds.push(currentVotingSessionId) */\n      swap1\n      dup1\n      0x01\n      dup2\n      sload\n      add\n      dup1\n      dup3\n      sstore\n      dup1\n      swap2\n      pop\n      pop\n      0x01\n      swap1\n      sub\n      swap1\n      0x00\n      mstore\n      keccak256(0x00, 0x20)\n      add\n      0x00\n      swap1\n      swap2\n      swap1\n      swap2\n      swap1\n      swap2\n      pop\n      sstore\n        /* \"contracts/13_VotingV3.sol\":6505:6506  v */\n      dup2\n        /* \"contracts/13_VotingV3.sol\":6505:6518  v.proposalIds */\n      0x02\n      add\n        /* \"contracts/13_VotingV3.sol\":6524:6535  _proposalId */\n      dup5\n        /* \"contracts/13_VotingV3.sol\":6505:6536  v.proposalIds.push(_proposalId) */\n      swap1\n      dup1\n      0x01\n      dup2\n      sload\n      add\n      dup1\n      dup3\n      sstore\n      dup1\n      swap2\n      pop\n      pop\n      0x01\n      swap1\n      sub\n      swap1\n      0x00\n      mstore\n      keccak256(0x00, 0x20)\n      add\n      0x00\n      swap1\n      swap2\n      swap1\n      swap2\n      swap1\n      swap2\n      pop\n      sstore\n        /* \"contracts/13_VotingV3.sol\":6555:6557  cs */\n      dup3\n        /* \"contracts/13_VotingV3.sol\":6555:6567  cs.proposals */\n      0x02\n      add\n        /* \"contracts/13_VotingV3.sol\":6568:6579  _proposalId */\n      dup5\n        /* \"contracts/13_VotingV3.sol\":6555:6580  cs.proposals[_proposalId] */\n      dup2\n      sload\n      dup2\n      lt\n      tag_284\n      jumpi\n      tag_285\n      tag_233\n      jump\t// in\n    tag_285:\n    tag_284:\n      swap1\n      0x00\n      mstore\n      keccak256(0x00, 0x20)\n      swap1\n      0x03\n      mul\n      add\n        /* \"contracts/13_VotingV3.sol\":6555:6590  cs.proposals[_proposalId].voteCount */\n      0x02\n      add\n      0x00\n        /* \"contracts/13_VotingV3.sol\":6555:6592  cs.proposals[_proposalId].voteCount++ */\n      dup2\n      sload\n      dup1\n      swap3\n      swap2\n      swap1\n      tag_287\n      swap1\n      tag_97\n      jump\t// in\n    tag_287:\n      swap2\n      swap1\n      pop\n      sstore\n      pop\n        /* \"contracts/13_VotingV3.sol\":6607:6637  Voted(msg.sender, _proposalId) */\n      0x4d99b957a2bc29a30ebd96a7be8e68fe50a3c701db28a91436490b7d53870ca4\n        /* \"contracts/13_VotingV3.sol\":6613:6623  msg.sender */\n      caller\n        /* \"contracts/13_VotingV3.sol\":6625:6636  _proposalId */\n      dup6\n        /* \"contracts/13_VotingV3.sol\":6607:6637  Voted(msg.sender, _proposalId) */\n      mload(0x40)\n      tag_288\n      swap3\n      swap2\n      swap1\n      tag_289\n      jump\t// in\n    tag_288:\n      mload(0x40)\n      dup1\n      swap2\n      sub\n      swap1\n      log1\n        /* \"contracts/13_VotingV3.sol\":5552:6644  {... */\n      pop\n      pop\n      pop\n        /* \"contracts/13_VotingV3.sol\":5492:6644  function sendVote(uint _proposalId) public onlyIfRegistered {... */\n      pop\n      jump\t// out\n        /* \"contracts/13_VotingV3.sol\":3083:3610  function startProposalsRegistration() public onlyOwner {... */\n    tag_82:\n        /* \"https://github.com/OpenZeppelin/openzeppelin-contracts/blob/master/contracts/access/Ownable.sol\":1531:1544  _checkOwner() */\n      tag_291\n        /* \"https://github.com/OpenZeppelin/openzeppelin-contracts/blob/master/contracts/access/Ownable.sol\":1531:1542  _checkOwner */\n      tag_94\n        /* \"https://github.com/OpenZeppelin/openzeppelin-contracts/blob/master/contracts/access/Ownable.sol\":1531:1544  _checkOwner() */\n      jump\t// in\n    tag_291:\n        /* \"contracts/13_VotingV3.sol\":3279:3311  WorkflowStatus.RegisteringVoters */\n      0x00\n        /* \"contracts/13_VotingV3.sol\":3222:3311  votingSessions[currentVotingSessionId].workflowStatus == WorkflowStatus.RegisteringVoters */\n      0x05\n      dup2\n      gt\n      iszero\n      tag_293\n      jumpi\n      tag_294\n      tag_100\n      jump\t// in\n    tag_294:\n    tag_293:\n        /* \"contracts/13_VotingV3.sol\":3222:3236  votingSessions */\n      0x03\n        /* \"contracts/13_VotingV3.sol\":3222:3260  votingSessions[currentVotingSessionId] */\n      0x00\n        /* \"contracts/13_VotingV3.sol\":3237:3259  currentVotingSessionId */\n      sload(0x01)\n        /* \"contracts/13_VotingV3.sol\":3222:3260  votingSessions[currentVotingSessionId] */\n      dup2\n      mstore\n      0x20\n      add\n      swap1\n      dup2\n      mstore\n      0x20\n      add\n      0x00\n      keccak256\n        /* \"contracts/13_VotingV3.sol\":3222:3275  votingSessions[currentVotingSessionId].workflowStatus */\n      0x00\n      add\n      0x00\n      swap1\n      sload\n      swap1\n      0x0100\n      exp\n      swap1\n      div\n      0xff\n      and\n        /* \"contracts/13_VotingV3.sol\":3222:3311  votingSessions[currentVotingSessionId].workflowStatus == WorkflowStatus.RegisteringVoters */\n      0x05\n      dup2\n      gt\n      iszero\n      tag_295\n      jumpi\n      tag_296\n      tag_100\n      jump\t// in\n    tag_296:\n    tag_295:\n      eq\n        /* \"contracts/13_VotingV3.sol\":3214:3371  require(votingSessions[currentVotingSessionId].workflowStatus == WorkflowStatus.RegisteringVoters, ... */\n      tag_297\n      jumpi\n      mload(0x40)\n      0x08c379a000000000000000000000000000000000000000000000000000000000\n      dup2\n      mstore\n      0x04\n      add\n      tag_298\n      swap1\n      tag_156\n      jump\t// in\n    tag_298:\n      mload(0x40)\n      dup1\n      swap2\n      sub\n      swap1\n      revert\n    tag_297:\n        /* \"contracts/13_VotingV3.sol\":3446:3489  WorkflowStatus.ProposalsRegistrationStarted */\n      0x01\n        /* \"contracts/13_VotingV3.sol\":3390:3404  votingSessions */\n      0x03\n        /* \"contracts/13_VotingV3.sol\":3390:3428  votingSessions[currentVotingSessionId] */\n      0x00\n        /* \"contracts/13_VotingV3.sol\":3405:3427  currentVotingSessionId */\n      sload(0x01)\n        /* \"contracts/13_VotingV3.sol\":3390:3428  votingSessions[currentVotingSessionId] */\n      dup2\n      mstore\n      0x20\n      add\n      swap1\n      dup2\n      mstore\n      0x20\n      add\n      0x00\n      keccak256\n        /* \"contracts/13_VotingV3.sol\":3390:3443  votingSessions[currentVotingSessionId].workflowStatus */\n      0x00\n      add\n      0x00\n        /* \"contracts/13_VotingV3.sol\":3390:3489  votingSessions[currentVotingSessionId].workflowStatus = WorkflowStatus.ProposalsRegistrationStarted */\n      0x0100\n      exp\n      dup2\n      sload\n      dup2\n      0xff\n      mul\n      not\n      and\n      swap1\n      dup4\n      0x05\n      dup2\n      gt\n      iszero\n      tag_299\n      jumpi\n      tag_300\n      tag_100\n      jump\t// in\n    tag_300:\n    tag_299:\n      mul\n      or\n      swap1\n      sstore\n      pop\n        /* \"contracts/13_VotingV3.sol\":3504:3603  WorkflowStatusChange(WorkflowStatus.RegisteringVoters, WorkflowStatus.ProposalsRegistrationStarted) */\n      0x0a97a4ee45751e2abf3e4fc8946939630b11b371ea8ae39ccdc3056e98f5cc3f\n        /* \"contracts/13_VotingV3.sol\":3525:3557  WorkflowStatus.RegisteringVoters */\n      0x00\n        /* \"contracts/13_VotingV3.sol\":3559:3602  WorkflowStatus.ProposalsRegistrationStarted */\n      0x01\n        /* \"contracts/13_VotingV3.sol\":3504:3603  WorkflowStatusChange(WorkflowStatus.RegisteringVoters, WorkflowStatus.ProposalsRegistrationStarted) */\n      mload(0x40)\n      tag_301\n      swap3\n      swap2\n      swap1\n      tag_198\n      jump\t// in\n    tag_301:\n      mload(0x40)\n      dup1\n      swap2\n      sub\n      swap1\n      log1\n        /* \"contracts/13_VotingV3.sol\":3083:3610  function startProposalsRegistration() public onlyOwner {... */\n      jump\t// out\n        /* \"contracts/13_VotingV3.sol\":4971:5486  function startVotingSession() public onlyOwner {... */\n    tag_84:\n        /* \"https://github.com/OpenZeppelin/openzeppelin-contracts/blob/master/contracts/access/Ownable.sol\":1531:1544  _checkOwner() */\n      tag_303\n        /* \"https://github.com/OpenZeppelin/openzeppelin-contracts/blob/master/contracts/access/Ownable.sol\":1531:1542  _checkOwner */\n      tag_94\n        /* \"https://github.com/OpenZeppelin/openzeppelin-contracts/blob/master/contracts/access/Ownable.sol\":1531:1544  _checkOwner() */\n      jump\t// in\n    tag_303:\n        /* \"contracts/13_VotingV3.sol\":5159:5200  WorkflowStatus.ProposalsRegistrationEnded */\n      0x02\n        /* \"contracts/13_VotingV3.sol\":5102:5200  votingSessions[currentVotingSessionId].workflowStatus == WorkflowStatus.ProposalsRegistrationEnded */\n      0x05\n      dup2\n      gt\n      iszero\n      tag_305\n      jumpi\n      tag_306\n      tag_100\n      jump\t// in\n    tag_306:\n    tag_305:\n        /* \"contracts/13_VotingV3.sol\":5102:5116  votingSessions */\n      0x03\n        /* \"contracts/13_VotingV3.sol\":5102:5140  votingSessions[currentVotingSessionId] */\n      0x00\n        /* \"contracts/13_VotingV3.sol\":5117:5139  currentVotingSessionId */\n      sload(0x01)\n        /* \"contracts/13_VotingV3.sol\":5102:5140  votingSessions[currentVotingSessionId] */\n      dup2\n      mstore\n      0x20\n      add\n      swap1\n      dup2\n      mstore\n      0x20\n      add\n      0x00\n      keccak256\n        /* \"contracts/13_VotingV3.sol\":5102:5155  votingSessions[currentVotingSessionId].workflowStatus */\n      0x00\n      add\n      0x00\n      swap1\n      sload\n      swap1\n      0x0100\n      exp\n      swap1\n      div\n      0xff\n      and\n        /* \"contracts/13_VotingV3.sol\":5102:5200  votingSessions[currentVotingSessionId].workflowStatus == WorkflowStatus.ProposalsRegistrationEnded */\n      0x05\n      dup2\n      gt\n      iszero\n      tag_307\n      jumpi\n      tag_308\n      tag_100\n      jump\t// in\n    tag_308:\n    tag_307:\n      eq\n        /* \"contracts/13_VotingV3.sol\":5094:5254  require(votingSessions[currentVotingSessionId].workflowStatus == WorkflowStatus.ProposalsRegistrationEnded, ... */\n      tag_309\n      jumpi\n      mload(0x40)\n      0x08c379a000000000000000000000000000000000000000000000000000000000\n      dup2\n      mstore\n      0x04\n      add\n      tag_310\n      swap1\n      tag_311\n      jump\t// in\n    tag_310:\n      mload(0x40)\n      dup1\n      swap2\n      sub\n      swap1\n      revert\n    tag_309:\n        /* \"contracts/13_VotingV3.sol\":5329:5364  WorkflowStatus.VotingSessionStarted */\n      0x03\n        /* \"contracts/13_VotingV3.sol\":5273:5287  votingSessions */\n      dup1\n        /* \"contracts/13_VotingV3.sol\":5273:5311  votingSessions[currentVotingSessionId] */\n      0x00\n        /* \"contracts/13_VotingV3.sol\":5288:5310  currentVotingSessionId */\n      sload(0x01)\n        /* \"contracts/13_VotingV3.sol\":5273:5311  votingSessions[currentVotingSessionId] */\n      dup2\n      mstore\n      0x20\n      add\n      swap1\n      dup2\n      mstore\n      0x20\n      add\n      0x00\n      keccak256\n        /* \"contracts/13_VotingV3.sol\":5273:5326  votingSessions[currentVotingSessionId].workflowStatus */\n      0x00\n      add\n      0x00\n        /* \"contracts/13_VotingV3.sol\":5273:5364  votingSessions[currentVotingSessionId].workflowStatus = WorkflowStatus.VotingSessionStarted */\n      0x0100\n      exp\n      dup2\n      sload\n      dup2\n      0xff\n      mul\n      not\n      and\n      swap1\n      dup4\n      0x05\n      dup2\n      gt\n      iszero\n      tag_312\n      jumpi\n      tag_313\n      tag_100\n      jump\t// in\n    tag_313:\n    tag_312:\n      mul\n      or\n      swap1\n      sstore\n      pop\n        /* \"contracts/13_VotingV3.sol\":5379:5479  WorkflowStatusChange(WorkflowStatus.ProposalsRegistrationEnded, WorkflowStatus.VotingSessionStarted) */\n      0x0a97a4ee45751e2abf3e4fc8946939630b11b371ea8ae39ccdc3056e98f5cc3f\n        /* \"contracts/13_VotingV3.sol\":5400:5441  WorkflowStatus.ProposalsRegistrationEnded */\n      0x02\n        /* \"contracts/13_VotingV3.sol\":5443:5478  WorkflowStatus.VotingSessionStarted */\n      0x03\n        /* \"contracts/13_VotingV3.sol\":5379:5479  WorkflowStatusChange(WorkflowStatus.ProposalsRegistrationEnded, WorkflowStatus.VotingSessionStarted) */\n      mload(0x40)\n      tag_314\n      swap3\n      swap2\n      swap1\n      tag_198\n      jump\t// in\n    tag_314:\n      mload(0x40)\n      dup1\n      swap2\n      sub\n      swap1\n      log1\n        /* \"contracts/13_VotingV3.sol\":4971:5486  function startVotingSession() public onlyOwner {... */\n      jump\t// out\n        /* \"https://github.com/OpenZeppelin/openzeppelin-contracts/blob/master/contracts/access/Ownable.sol\":2543:2758  function transferOwnership(address newOwner) public virtual onlyOwner {... */\n    tag_87:\n        /* \"https://github.com/OpenZeppelin/openzeppelin-contracts/blob/master/contracts/access/Ownable.sol\":1531:1544  _checkOwner() */\n      tag_316\n        /* \"https://github.com/OpenZeppelin/openzeppelin-contracts/blob/master/contracts/access/Ownable.sol\":1531:1542  _checkOwner */\n      tag_94\n        /* \"https://github.com/OpenZeppelin/openzeppelin-contracts/blob/master/contracts/access/Ownable.sol\":1531:1544  _checkOwner() */\n      jump\t// in\n    tag_316:\n        /* \"https://github.com/OpenZeppelin/openzeppelin-contracts/blob/master/contracts/access/Ownable.sol\":2647:2648  0 */\n      0x00\n        /* \"https://github.com/OpenZeppelin/openzeppelin-contracts/blob/master/contracts/access/Ownable.sol\":2627:2649  newOwner == address(0) */\n      0xffffffffffffffffffffffffffffffffffffffff\n      and\n        /* \"https://github.com/OpenZeppelin/openzeppelin-contracts/blob/master/contracts/access/Ownable.sol\":2627:2635  newOwner */\n      dup2\n        /* \"https://github.com/OpenZeppelin/openzeppelin-contracts/blob/master/contracts/access/Ownable.sol\":2627:2649  newOwner == address(0) */\n      0xffffffffffffffffffffffffffffffffffffffff\n      and\n      sub\n        /* \"https://github.com/OpenZeppelin/openzeppelin-contracts/blob/master/contracts/access/Ownable.sol\":2623:2714  if (newOwner == address(0)) {... */\n      tag_318\n      jumpi\n        /* \"https://github.com/OpenZeppelin/openzeppelin-contracts/blob/master/contracts/access/Ownable.sol\":2700:2701  0 */\n      0x00\n        /* \"https://github.com/OpenZeppelin/openzeppelin-contracts/blob/master/contracts/access/Ownable.sol\":2672:2703  OwnableInvalidOwner(address(0)) */\n      mload(0x40)\n      0x1e4fbdf700000000000000000000000000000000000000000000000000000000\n      dup2\n      mstore\n      0x04\n      add\n      tag_319\n      swap2\n      swap1\n      tag_66\n      jump\t// in\n    tag_319:\n      mload(0x40)\n      dup1\n      swap2\n      sub\n      swap1\n      revert\n        /* \"https://github.com/OpenZeppelin/openzeppelin-contracts/blob/master/contracts/access/Ownable.sol\":2623:2714  if (newOwner == address(0)) {... */\n    tag_318:\n        /* \"https://github.com/OpenZeppelin/openzeppelin-contracts/blob/master/contracts/access/Ownable.sol\":2723:2751  _transferOwnership(newOwner) */\n      tag_320\n        /* \"https://github.com/OpenZeppelin/openzeppelin-contracts/blob/master/contracts/access/Ownable.sol\":2742:2750  newOwner */\n      dup2\n        /* \"https://github.com/OpenZeppelin/openzeppelin-contracts/blob/master/contracts/access/Ownable.sol\":2723:2741  _transferOwnership */\n      tag_203\n        /* \"https://github.com/OpenZeppelin/openzeppelin-contracts/blob/master/contracts/access/Ownable.sol\":2723:2751  _transferOwnership(newOwner) */\n      jump\t// in\n    tag_320:\n        /* \"https://github.com/OpenZeppelin/openzeppelin-contracts/blob/master/contracts/access/Ownable.sol\":2543:2758  function transferOwnership(address newOwner) public virtual onlyOwner {... */\n      pop\n      jump\t// out\n        /* \"contracts/13_VotingV3.sol\":8238:8393  function getAllProposalsBySession(uint _sessiondId) external view returns (Proposal[] memory) {... */\n    tag_90:\n        /* \"contracts/13_VotingV3.sol\":8313:8330  Proposal[] memory */\n      0x60\n        /* \"contracts/13_VotingV3.sol\":8349:8363  votingSessions */\n      0x03\n        /* \"contracts/13_VotingV3.sol\":8349:8376  votingSessions[_sessiondId] */\n      0x00\n        /* \"contracts/13_VotingV3.sol\":8364:8375  _sessiondId */\n      dup4\n        /* \"contracts/13_VotingV3.sol\":8349:8376  votingSessions[_sessiondId] */\n      dup2\n      mstore\n      0x20\n      add\n      swap1\n      dup2\n      mstore\n      0x20\n      add\n      0x00\n      keccak256\n        /* \"contracts/13_VotingV3.sol\":8349:8386  votingSessions[_sessiondId].proposals */\n      0x02\n      add\n        /* \"contracts/13_VotingV3.sol\":8342:8386  return votingSessions[_sessiondId].proposals */\n      dup1\n      sload\n      dup1\n      0x20\n      mul\n      0x20\n      add\n      mload(0x40)\n      swap1\n      dup2\n      add\n      0x40\n      mstore\n      dup1\n      swap3\n      swap2\n      swap1\n      dup2\n      dup2\n      mstore\n      0x20\n      add\n      0x00\n      swap1\n    tag_322:\n      dup3\n      dup3\n      lt\n      iszero\n      tag_323\n      jumpi\n      dup4\n      dup3\n      swap1\n      0x00\n      mstore\n      keccak256(0x00, 0x20)\n      swap1\n      0x03\n      mul\n      add\n      mload(0x40)\n      dup1\n      0x60\n      add\n      0x40\n      mstore\n      swap1\n      dup2\n      0x00\n      dup3\n      add\n      sload\n      dup2\n      mstore\n      0x20\n      add\n      0x01\n      dup3\n      add\n      dup1\n      sload\n      tag_325\n      swap1\n      tag_113\n      jump\t// in\n    tag_325:\n      dup1\n      0x1f\n      add\n      0x20\n      dup1\n      swap2\n      div\n      mul\n      0x20\n      add\n      mload(0x40)\n      swap1\n      dup2\n      add\n      0x40\n      mstore\n      dup1\n      swap3\n      swap2\n      swap1\n      dup2\n      dup2\n      mstore\n      0x20\n      add\n      dup3\n      dup1\n      sload\n      tag_326\n      swap1\n      tag_113\n      jump\t// in\n    tag_326:\n      dup1\n      iszero\n      tag_327\n      jumpi\n      dup1\n      0x1f\n      lt\n      tag_328\n      jumpi\n      0x0100\n      dup1\n      dup4\n      sload\n      div\n      mul\n      dup4\n      mstore\n      swap2\n      0x20\n      add\n      swap2\n      jump(tag_327)\n    tag_328:\n      dup3\n      add\n      swap2\n      swap1\n      0x00\n      mstore\n      keccak256(0x00, 0x20)\n      swap1\n    tag_329:\n      dup2\n      sload\n      dup2\n      mstore\n      swap1\n      0x01\n      add\n      swap1\n      0x20\n      add\n      dup1\n      dup4\n      gt\n      tag_329\n      jumpi\n      dup3\n      swap1\n      sub\n      0x1f\n      and\n      dup3\n      add\n      swap2\n    tag_327:\n      pop\n      pop\n      pop\n      pop\n      pop\n      dup2\n      mstore\n      0x20\n      add\n      0x02\n      dup3\n      add\n      sload\n      dup2\n      mstore\n      pop\n      pop\n      dup2\n      mstore\n      0x20\n      add\n      swap1\n      0x01\n      add\n      swap1\n      jump(tag_322)\n    tag_323:\n      pop\n      pop\n      pop\n      pop\n      swap1\n      pop\n        /* \"contracts/13_VotingV3.sol\":8238:8393  function getAllProposalsBySession(uint _sessiondId) external view returns (Proposal[] memory) {... */\n      swap2\n      swap1\n      pop\n      jump\t// out\n        /* \"https://github.com/OpenZeppelin/openzeppelin-contracts/blob/master/contracts/access/Ownable.sol\":1796:1958  function _checkOwner() internal view virtual {... */\n    tag_94:\n        /* \"https://github.com/OpenZeppelin/openzeppelin-contracts/blob/master/contracts/access/Ownable.sol\":1866:1878  _msgSender() */\n      tag_331\n        /* \"https://github.com/OpenZeppelin/openzeppelin-contracts/blob/master/contracts/access/Ownable.sol\":1866:1876  _msgSender */\n      tag_332\n        /* \"https://github.com/OpenZeppelin/openzeppelin-contracts/blob/master/contracts/access/Ownable.sol\":1866:1878  _msgSender() */\n      jump\t// in\n    tag_331:\n        /* \"https://github.com/OpenZeppelin/openzeppelin-contracts/blob/master/contracts/access/Ownable.sol\":1855:1878  owner() != _msgSender() */\n      0xffffffffffffffffffffffffffffffffffffffff\n      and\n        /* \"https://github.com/OpenZeppelin/openzeppelin-contracts/blob/master/contracts/access/Ownable.sol\":1855:1862  owner() */\n      tag_333\n        /* \"https://github.com/OpenZeppelin/openzeppelin-contracts/blob/master/contracts/access/Ownable.sol\":1855:1860  owner */\n      tag_64\n        /* \"https://github.com/OpenZeppelin/openzeppelin-contracts/blob/master/contracts/access/Ownable.sol\":1855:1862  owner() */\n      jump\t// in\n    tag_333:\n        /* \"https://github.com/OpenZeppelin/openzeppelin-contracts/blob/master/contracts/access/Ownable.sol\":1855:1878  owner() != _msgSender() */\n      0xffffffffffffffffffffffffffffffffffffffff\n      and\n      eq\n        /* \"https://github.com/OpenZeppelin/openzeppelin-contracts/blob/master/contracts/access/Ownable.sol\":1851:1952  if (owner() != _msgSender()) {... */\n      tag_334\n      jumpi\n        /* \"https://github.com/OpenZeppelin/openzeppelin-contracts/blob/master/contracts/access/Ownable.sol\":1928:1940  _msgSender() */\n      tag_335\n        /* \"https://github.com/OpenZeppelin/openzeppelin-contracts/blob/master/contracts/access/Ownable.sol\":1928:1938  _msgSender */\n      tag_332\n        /* \"https://github.com/OpenZeppelin/openzeppelin-contracts/blob/master/contracts/access/Ownable.sol\":1928:1940  _msgSender() */\n      jump\t// in\n    tag_335:\n        /* \"https://github.com/OpenZeppelin/openzeppelin-contracts/blob/master/contracts/access/Ownable.sol\":1901:1941  OwnableUnauthorizedAccount(_msgSender()) */\n      mload(0x40)\n      0x118cdaa700000000000000000000000000000000000000000000000000000000\n      dup2\n      mstore\n      0x04\n      add\n      tag_336\n      swap2\n      swap1\n      tag_66\n      jump\t// in\n    tag_336:\n      mload(0x40)\n      dup1\n      swap2\n      sub\n      swap1\n      revert\n        /* \"https://github.com/OpenZeppelin/openzeppelin-contracts/blob/master/contracts/access/Ownable.sol\":1851:1952  if (owner() != _msgSender()) {... */\n    tag_334:\n        /* \"https://github.com/OpenZeppelin/openzeppelin-contracts/blob/master/contracts/access/Ownable.sol\":1796:1958  function _checkOwner() internal view virtual {... */\n      jump\t// out\n        /* \"https://github.com/OpenZeppelin/openzeppelin-contracts/blob/master/contracts/access/Ownable.sol\":2912:3099  function _transferOwnership(address newOwner) internal virtual {... */\n    tag_203:\n        /* \"https://github.com/OpenZeppelin/openzeppelin-contracts/blob/master/contracts/access/Ownable.sol\":2985:3001  address oldOwner */\n      0x00\n        /* \"https://github.com/OpenZeppelin/openzeppelin-contracts/blob/master/contracts/access/Ownable.sol\":3004:3010  _owner */\n      0x00\n      0x00\n      swap1\n      sload\n      swap1\n      0x0100\n      exp\n      swap1\n      div\n      0xffffffffffffffffffffffffffffffffffffffff\n      and\n        /* \"https://github.com/OpenZeppelin/openzeppelin-contracts/blob/master/contracts/access/Ownable.sol\":2985:3010  address oldOwner = _owner */\n      swap1\n      pop\n        /* \"https://github.com/OpenZeppelin/openzeppelin-contracts/blob/master/contracts/access/Ownable.sol\":3029:3037  newOwner */\n      dup2\n        /* \"https://github.com/OpenZeppelin/openzeppelin-contracts/blob/master/contracts/access/Ownable.sol\":3020:3026  _owner */\n      0x00\n      0x00\n        /* \"https://github.com/OpenZeppelin/openzeppelin-contracts/blob/master/contracts/access/Ownable.sol\":3020:3037  _owner = newOwner */\n      0x0100\n      exp\n      dup2\n      sload\n      dup2\n      0xffffffffffffffffffffffffffffffffffffffff\n      mul\n      not\n      and\n      swap1\n      dup4\n      0xffffffffffffffffffffffffffffffffffffffff\n      and\n      mul\n      or\n      swap1\n      sstore\n      pop\n        /* \"https://github.com/OpenZeppelin/openzeppelin-contracts/blob/master/contracts/access/Ownable.sol\":3083:3091  newOwner */\n      dup2\n        /* \"https://github.com/OpenZeppelin/openzeppelin-contracts/blob/master/contracts/access/Ownable.sol\":3052:3092  OwnershipTransferred(oldOwner, newOwner) */\n      0xffffffffffffffffffffffffffffffffffffffff\n      and\n        /* \"https://github.com/OpenZeppelin/openzeppelin-contracts/blob/master/contracts/access/Ownable.sol\":3073:3081  oldOwner */\n      dup2\n        /* \"https://github.com/OpenZeppelin/openzeppelin-contracts/blob/master/contracts/access/Ownable.sol\":3052:3092  OwnershipTransferred(oldOwner, newOwner) */\n      0xffffffffffffffffffffffffffffffffffffffff\n      and\n      0x8be0079c531659141344cd1fd0a4f28419497f9722a3daafe3b4186f6b6457e0\n      mload(0x40)\n      mload(0x40)\n      dup1\n      swap2\n      sub\n      swap1\n      log3\n        /* \"https://github.com/OpenZeppelin/openzeppelin-contracts/blob/master/contracts/access/Ownable.sol\":2975:3099  {... */\n      pop\n        /* \"https://github.com/OpenZeppelin/openzeppelin-contracts/blob/master/contracts/access/Ownable.sol\":2912:3099  function _transferOwnership(address newOwner) internal virtual {... */\n      pop\n      jump\t// out\n        /* \"https://github.com/OpenZeppelin/openzeppelin-contracts/blob/master/contracts/utils/Context.sol\":656:752  function _msgSender() internal view virtual returns (address) {... */\n    tag_332:\n        /* \"https://github.com/OpenZeppelin/openzeppelin-contracts/blob/master/contracts/utils/Context.sol\":709:716  address */\n      0x00\n        /* \"https://github.com/OpenZeppelin/openzeppelin-contracts/blob/master/contracts/utils/Context.sol\":735:745  msg.sender */\n      caller\n        /* \"https://github.com/OpenZeppelin/openzeppelin-contracts/blob/master/contracts/utils/Context.sol\":728:745  return msg.sender */\n      swap1\n      pop\n        /* \"https://github.com/OpenZeppelin/openzeppelin-contracts/blob/master/contracts/utils/Context.sol\":656:752  function _msgSender() internal view virtual returns (address) {... */\n      swap1\n      jump\t// out\n    tag_103:\n      mload(0x40)\n      dup1\n      0x60\n      add\n      0x40\n      mstore\n      dup1\n      0x00\n      0x05\n      dup2\n      gt\n      iszero\n      tag_339\n      jumpi\n      tag_340\n      tag_100\n      jump\t// in\n    tag_340:\n    tag_339:\n      dup2\n      mstore\n      0x20\n      add\n      0x00\n      dup2\n      mstore\n      0x20\n      add\n      0x60\n      dup2\n      mstore\n      pop\n      swap1\n      jump\t// out\n    tag_136:\n      dup3\n      dup1\n      sload\n      dup3\n      dup3\n      sstore\n      swap1\n      0x00\n      mstore\n      keccak256(0x00, 0x20)\n      swap1\n      dup2\n      add\n      swap3\n      dup3\n      iszero\n      tag_341\n      jumpi\n      swap2\n      0x20\n      mul\n      dup3\n      add\n    tag_342:\n      dup3\n      dup2\n      gt\n      iszero\n      tag_343\n      jumpi\n      dup3\n      mload\n      dup3\n      sstore\n      swap2\n      0x20\n      add\n      swap2\n      swap1\n      0x01\n      add\n      swap1\n      jump(tag_342)\n    tag_343:\n    tag_341:\n      pop\n      swap1\n      pop\n      tag_344\n      swap2\n      swap1\n      tag_345\n      jump\t// in\n    tag_344:\n      pop\n      swap1\n      jump\t// out\n    tag_345:\n    tag_346:\n      dup1\n      dup3\n      gt\n      iszero\n      tag_347\n      jumpi\n      0x00\n      dup2\n      0x00\n      swap1\n      sstore\n      pop\n      0x01\n      add\n      jump(tag_346)\n    tag_347:\n      pop\n      swap1\n      jump\t// out\n        /* \"#utility.yul\":7:82   */\n    tag_348:\n        /* \"#utility.yul\":40:46   */\n      0x00\n        /* \"#utility.yul\":73:75   */\n      0x40\n        /* \"#utility.yul\":67:76   */\n      mload\n        /* \"#utility.yul\":57:76   */\n      swap1\n      pop\n        /* \"#utility.yul\":7:82   */\n      swap1\n      jump\t// out\n        /* \"#utility.yul\":88:205   */\n    tag_349:\n        /* \"#utility.yul\":197:198   */\n      0x00\n        /* \"#utility.yul\":194:195   */\n      0x00\n        /* \"#utility.yul\":187:199   */\n      revert\n        /* \"#utility.yul\":211:328   */\n    tag_350:\n        /* \"#utility.yul\":320:321   */\n      0x00\n        /* \"#utility.yul\":317:318   */\n      0x00\n        /* \"#utility.yul\":310:322   */\n      revert\n        /* \"#utility.yul\":334:411   */\n    tag_351:\n        /* \"#utility.yul\":371:378   */\n      0x00\n        /* \"#utility.yul\":400:405   */\n      dup2\n        /* \"#utility.yul\":389:405   */\n      swap1\n      pop\n        /* \"#utility.yul\":334:411   */\n      swap2\n      swap1\n      pop\n      jump\t// out\n        /* \"#utility.yul\":417:539   */\n    tag_352:\n        /* \"#utility.yul\":490:514   */\n      tag_441\n        /* \"#utility.yul\":508:513   */\n      dup2\n        /* \"#utility.yul\":490:514   */\n      tag_351\n      jump\t// in\n    tag_441:\n        /* \"#utility.yul\":483:488   */\n      dup2\n        /* \"#utility.yul\":480:515   */\n      eq\n        /* \"#utility.yul\":470:533   */\n      tag_442\n      jumpi\n        /* \"#utility.yul\":529:530   */\n      0x00\n        /* \"#utility.yul\":526:527   */\n      0x00\n        /* \"#utility.yul\":519:531   */\n      revert\n        /* \"#utility.yul\":470:533   */\n    tag_442:\n        /* \"#utility.yul\":417:539   */\n      pop\n      jump\t// out\n        /* \"#utility.yul\":545:684   */\n    tag_353:\n        /* \"#utility.yul\":591:596   */\n      0x00\n        /* \"#utility.yul\":629:635   */\n      dup2\n        /* \"#utility.yul\":616:636   */\n      calldataload\n        /* \"#utility.yul\":607:636   */\n      swap1\n      pop\n        /* \"#utility.yul\":645:678   */\n      tag_444\n        /* \"#utility.yul\":672:677   */\n      dup2\n        /* \"#utility.yul\":645:678   */\n      tag_352\n      jump\t// in\n    tag_444:\n        /* \"#utility.yul\":545:684   */\n      swap3\n      swap2\n      pop\n      pop\n      jump\t// out\n        /* \"#utility.yul\":690:1019   */\n    tag_30:\n        /* \"#utility.yul\":749:755   */\n      0x00\n        /* \"#utility.yul\":798:800   */\n      0x20\n        /* \"#utility.yul\":786:795   */\n      dup3\n        /* \"#utility.yul\":777:784   */\n      dup5\n        /* \"#utility.yul\":773:796   */\n      sub\n        /* \"#utility.yul\":769:801   */\n      slt\n        /* \"#utility.yul\":766:885   */\n      iszero\n      tag_446\n      jumpi\n        /* \"#utility.yul\":804:883   */\n      tag_447\n      tag_349\n      jump\t// in\n    tag_447:\n        /* \"#utility.yul\":766:885   */\n    tag_446:\n        /* \"#utility.yul\":924:925   */\n      0x00\n        /* \"#utility.yul\":949:1002   */\n      tag_448\n        /* \"#utility.yul\":994:1001   */\n      dup5\n        /* \"#utility.yul\":985:991   */\n      dup3\n        /* \"#utility.yul\":974:983   */\n      dup6\n        /* \"#utility.yul\":970:992   */\n      add\n        /* \"#utility.yul\":949:1002   */\n      tag_353\n      jump\t// in\n    tag_448:\n        /* \"#utility.yul\":939:1002   */\n      swap2\n      pop\n        /* \"#utility.yul\":895:1012   */\n      pop\n        /* \"#utility.yul\":690:1019   */\n      swap3\n      swap2\n      pop\n      pop\n      jump\t// out\n        /* \"#utility.yul\":1025:1205   */\n    tag_100:\n        /* \"#utility.yul\":1073:1150   */\n      0x4e487b7100000000000000000000000000000000000000000000000000000000\n        /* \"#utility.yul\":1070:1071   */\n      0x00\n        /* \"#utility.yul\":1063:1151   */\n      mstore\n        /* \"#utility.yul\":1170:1174   */\n      0x21\n        /* \"#utility.yul\":1167:1168   */\n      0x04\n        /* \"#utility.yul\":1160:1175   */\n      mstore\n        /* \"#utility.yul\":1194:1198   */\n      0x24\n        /* \"#utility.yul\":1191:1192   */\n      0x00\n        /* \"#utility.yul\":1184:1199   */\n      revert\n        /* \"#utility.yul\":1211:1333   */\n    tag_354:\n        /* \"#utility.yul\":1301:1302   */\n      0x06\n        /* \"#utility.yul\":1294:1299   */\n      dup2\n        /* \"#utility.yul\":1291:1303   */\n      lt\n        /* \"#utility.yul\":1281:1327   */\n      tag_451\n      jumpi\n        /* \"#utility.yul\":1307:1325   */\n      tag_452\n      tag_100\n      jump\t// in\n    tag_452:\n        /* \"#utility.yul\":1281:1327   */\n    tag_451:\n        /* \"#utility.yul\":1211:1333   */\n      pop\n      jump\t// out\n        /* \"#utility.yul\":1339:1484   */\n    tag_355:\n        /* \"#utility.yul\":1393:1400   */\n      0x00\n        /* \"#utility.yul\":1422:1427   */\n      dup2\n        /* \"#utility.yul\":1411:1427   */\n      swap1\n      pop\n        /* \"#utility.yul\":1428:1478   */\n      tag_454\n        /* \"#utility.yul\":1472:1477   */\n      dup3\n        /* \"#utility.yul\":1428:1478   */\n      tag_354\n      jump\t// in\n    tag_454:\n        /* \"#utility.yul\":1339:1484   */\n      swap2\n      swap1\n      pop\n      jump\t// out\n        /* \"#utility.yul\":1490:1635   */\n    tag_356:\n        /* \"#utility.yul\":1555:1564   */\n      0x00\n        /* \"#utility.yul\":1588:1629   */\n      tag_456\n        /* \"#utility.yul\":1623:1628   */\n      dup3\n        /* \"#utility.yul\":1588:1629   */\n      tag_355\n      jump\t// in\n    tag_456:\n        /* \"#utility.yul\":1575:1629   */\n      swap1\n      pop\n        /* \"#utility.yul\":1490:1635   */\n      swap2\n      swap1\n      pop\n      jump\t// out\n        /* \"#utility.yul\":1641:1802   */\n    tag_357:\n        /* \"#utility.yul\":1743:1795   */\n      tag_458\n        /* \"#utility.yul\":1789:1794   */\n      dup2\n        /* \"#utility.yul\":1743:1795   */\n      tag_356\n      jump\t// in\n    tag_458:\n        /* \"#utility.yul\":1738:1741   */\n      dup3\n        /* \"#utility.yul\":1731:1796   */\n      mstore\n        /* \"#utility.yul\":1641:1802   */\n      pop\n      pop\n      jump\t// out\n        /* \"#utility.yul\":1808:1926   */\n    tag_358:\n        /* \"#utility.yul\":1895:1919   */\n      tag_460\n        /* \"#utility.yul\":1913:1918   */\n      dup2\n        /* \"#utility.yul\":1895:1919   */\n      tag_351\n      jump\t// in\n    tag_460:\n        /* \"#utility.yul\":1890:1893   */\n      dup3\n        /* \"#utility.yul\":1883:1920   */\n      mstore\n        /* \"#utility.yul\":1808:1926   */\n      pop\n      pop\n      jump\t// out\n        /* \"#utility.yul\":1932:2294   */\n    tag_33:\n        /* \"#utility.yul\":2068:2072   */\n      0x00\n        /* \"#utility.yul\":2106:2108   */\n      0x40\n        /* \"#utility.yul\":2095:2104   */\n      dup3\n        /* \"#utility.yul\":2091:2109   */\n      add\n        /* \"#utility.yul\":2083:2109   */\n      swap1\n      pop\n        /* \"#utility.yul\":2119:2205   */\n      tag_462\n        /* \"#utility.yul\":2202:2203   */\n      0x00\n        /* \"#utility.yul\":2191:2200   */\n      dup4\n        /* \"#utility.yul\":2187:2204   */\n      add\n        /* \"#utility.yul\":2178:2184   */\n      dup6\n        /* \"#utility.yul\":2119:2205   */\n      tag_357\n      jump\t// in\n    tag_462:\n        /* \"#utility.yul\":2215:2287   */\n      tag_463\n        /* \"#utility.yul\":2283:2285   */\n      0x20\n        /* \"#utility.yul\":2272:2281   */\n      dup4\n        /* \"#utility.yul\":2268:2286   */\n      add\n        /* \"#utility.yul\":2259:2265   */\n      dup5\n        /* \"#utility.yul\":2215:2287   */\n      tag_358\n      jump\t// in\n    tag_463:\n        /* \"#utility.yul\":1932:2294   */\n      swap4\n      swap3\n      pop\n      pop\n      pop\n      jump\t// out\n        /* \"#utility.yul\":2300:2451   */\n    tag_359:\n        /* \"#utility.yul\":2392:2444   */\n      tag_465\n        /* \"#utility.yul\":2438:2443   */\n      dup2\n        /* \"#utility.yul\":2392:2444   */\n      tag_356\n      jump\t// in\n    tag_465:\n        /* \"#utility.yul\":2387:2390   */\n      dup3\n        /* \"#utility.yul\":2380:2445   */\n      mstore\n        /* \"#utility.yul\":2300:2451   */\n      pop\n      pop\n      jump\t// out\n        /* \"#utility.yul\":2457:2565   */\n    tag_360:\n        /* \"#utility.yul\":2534:2558   */\n      tag_467\n        /* \"#utility.yul\":2552:2557   */\n      dup2\n        /* \"#utility.yul\":2534:2558   */\n      tag_351\n      jump\t// in\n    tag_467:\n        /* \"#utility.yul\":2529:2532   */\n      dup3\n        /* \"#utility.yul\":2522:2559   */\n      mstore\n        /* \"#utility.yul\":2457:2565   */\n      pop\n      pop\n      jump\t// out\n        /* \"#utility.yul\":2571:2709   */\n    tag_361:\n        /* \"#utility.yul\":2662:2668   */\n      0x00\n        /* \"#utility.yul\":2696:2701   */\n      dup2\n        /* \"#utility.yul\":2690:2702   */\n      mload\n        /* \"#utility.yul\":2680:2702   */\n      swap1\n      pop\n        /* \"#utility.yul\":2571:2709   */\n      swap2\n      swap1\n      pop\n      jump\t// out\n        /* \"#utility.yul\":2715:2913   */\n    tag_362:\n        /* \"#utility.yul\":2828:2839   */\n      0x00\n        /* \"#utility.yul\":2862:2868   */\n      dup3\n        /* \"#utility.yul\":2857:2860   */\n      dup3\n        /* \"#utility.yul\":2850:2869   */\n      mstore\n        /* \"#utility.yul\":2902:2906   */\n      0x20\n        /* \"#utility.yul\":2897:2900   */\n      dup3\n        /* \"#utility.yul\":2893:2907   */\n      add\n        /* \"#utility.yul\":2878:2907   */\n      swap1\n      pop\n        /* \"#utility.yul\":2715:2913   */\n      swap3\n      swap2\n      pop\n      pop\n      jump\t// out\n        /* \"#utility.yul\":2919:3075   */\n    tag_363:\n        /* \"#utility.yul\":3010:3014   */\n      0x00\n        /* \"#utility.yul\":3033:3036   */\n      dup2\n        /* \"#utility.yul\":3025:3036   */\n      swap1\n      pop\n        /* \"#utility.yul\":3063:3067   */\n      0x20\n        /* \"#utility.yul\":3058:3061   */\n      dup3\n        /* \"#utility.yul\":3054:3068   */\n      add\n        /* \"#utility.yul\":3046:3068   */\n      swap1\n      pop\n        /* \"#utility.yul\":2919:3075   */\n      swap2\n      swap1\n      pop\n      jump\t// out\n        /* \"#utility.yul\":3081:3180   */\n    tag_364:\n        /* \"#utility.yul\":3133:3139   */\n      0x00\n        /* \"#utility.yul\":3167:3172   */\n      dup2\n        /* \"#utility.yul\":3161:3173   */\n      mload\n        /* \"#utility.yul\":3151:3173   */\n      swap1\n      pop\n        /* \"#utility.yul\":3081:3180   */\n      swap2\n      swap1\n      pop\n      jump\t// out\n        /* \"#utility.yul\":3186:3345   */\n    tag_365:\n        /* \"#utility.yul\":3260:3271   */\n      0x00\n        /* \"#utility.yul\":3294:3300   */\n      dup3\n        /* \"#utility.yul\":3289:3292   */\n      dup3\n        /* \"#utility.yul\":3282:3301   */\n      mstore\n        /* \"#utility.yul\":3334:3338   */\n      0x20\n        /* \"#utility.yul\":3329:3332   */\n      dup3\n        /* \"#utility.yul\":3325:3339   */\n      add\n        /* \"#utility.yul\":3310:3339   */\n      swap1\n      pop\n        /* \"#utility.yul\":3186:3345   */\n      swap3\n      swap2\n      pop\n      pop\n      jump\t// out\n        /* \"#utility.yul\":3351:3490   */\n    tag_366:\n        /* \"#utility.yul\":3440:3446   */\n      dup3\n        /* \"#utility.yul\":3435:3438   */\n      dup2\n        /* \"#utility.yul\":3430:3433   */\n      dup4\n        /* \"#utility.yul\":3424:3447   */\n      mcopy\n        /* \"#utility.yul\":3481:3482   */\n      0x00\n        /* \"#utility.yul\":3472:3478   */\n      dup4\n        /* \"#utility.yul\":3467:3470   */\n      dup4\n        /* \"#utility.yul\":3463:3479   */\n      add\n        /* \"#utility.yul\":3456:3483   */\n      mstore\n        /* \"#utility.yul\":3351:3490   */\n      pop\n      pop\n      pop\n      jump\t// out\n        /* \"#utility.yul\":3496:3598   */\n    tag_367:\n        /* \"#utility.yul\":3537:3543   */\n      0x00\n        /* \"#utility.yul\":3588:3590   */\n      0x1f\n        /* \"#utility.yul\":3584:3591   */\n      not\n        /* \"#utility.yul\":3579:3581   */\n      0x1f\n        /* \"#utility.yul\":3572:3577   */\n      dup4\n        /* \"#utility.yul\":3568:3582   */\n      add\n        /* \"#utility.yul\":3564:3592   */\n      and\n        /* \"#utility.yul\":3554:3592   */\n      swap1\n      pop\n        /* \"#utility.yul\":3496:3598   */\n      swap2\n      swap1\n      pop\n      jump\t// out\n        /* \"#utility.yul\":3604:3961   */\n    tag_368:\n        /* \"#utility.yul\":3682:3685   */\n      0x00\n        /* \"#utility.yul\":3710:3749   */\n      tag_476\n        /* \"#utility.yul\":3743:3748   */\n      dup3\n        /* \"#utility.yul\":3710:3749   */\n      tag_364\n      jump\t// in\n    tag_476:\n        /* \"#utility.yul\":3765:3826   */\n      tag_477\n        /* \"#utility.yul\":3819:3825   */\n      dup2\n        /* \"#utility.yul\":3814:3817   */\n      dup6\n        /* \"#utility.yul\":3765:3826   */\n      tag_365\n      jump\t// in\n    tag_477:\n        /* \"#utility.yul\":3758:3826   */\n      swap4\n      pop\n        /* \"#utility.yul\":3835:3900   */\n      tag_478\n        /* \"#utility.yul\":3893:3899   */\n      dup2\n        /* \"#utility.yul\":3888:3891   */\n      dup6\n        /* \"#utility.yul\":3881:3885   */\n      0x20\n        /* \"#utility.yul\":3874:3879   */\n      dup7\n        /* \"#utility.yul\":3870:3886   */\n      add\n        /* \"#utility.yul\":3835:3900   */\n      tag_366\n      jump\t// in\n    tag_478:\n        /* \"#utility.yul\":3925:3954   */\n      tag_479\n        /* \"#utility.yul\":3947:3953   */\n      dup2\n        /* \"#utility.yul\":3925:3954   */\n      tag_367\n      jump\t// in\n    tag_479:\n        /* \"#utility.yul\":3920:3923   */\n      dup5\n        /* \"#utility.yul\":3916:3955   */\n      add\n        /* \"#utility.yul\":3909:3955   */\n      swap2\n      pop\n        /* \"#utility.yul\":3686:3961   */\n      pop\n        /* \"#utility.yul\":3604:3961   */\n      swap3\n      swap2\n      pop\n      pop\n      jump\t// out\n        /* \"#utility.yul\":4023:4801   */\n    tag_369:\n        /* \"#utility.yul\":4130:4133   */\n      0x00\n        /* \"#utility.yul\":4166:4170   */\n      0x60\n        /* \"#utility.yul\":4161:4164   */\n      dup4\n        /* \"#utility.yul\":4157:4171   */\n      add\n        /* \"#utility.yul\":4251:4255   */\n      0x00\n        /* \"#utility.yul\":4244:4249   */\n      dup4\n        /* \"#utility.yul\":4240:4256   */\n      add\n        /* \"#utility.yul\":4234:4257   */\n      mload\n        /* \"#utility.yul\":4270:4333   */\n      tag_481\n        /* \"#utility.yul\":4327:4331   */\n      0x00\n        /* \"#utility.yul\":4322:4325   */\n      dup7\n        /* \"#utility.yul\":4318:4332   */\n      add\n        /* \"#utility.yul\":4304:4316   */\n      dup3\n        /* \"#utility.yul\":4270:4333   */\n      tag_360\n      jump\t// in\n    tag_481:\n        /* \"#utility.yul\":4181:4343   */\n      pop\n        /* \"#utility.yul\":4432:4436   */\n      0x20\n        /* \"#utility.yul\":4425:4430   */\n      dup4\n        /* \"#utility.yul\":4421:4437   */\n      add\n        /* \"#utility.yul\":4415:4438   */\n      mload\n        /* \"#utility.yul\":4485:4488   */\n      dup5\n        /* \"#utility.yul\":4479:4483   */\n      dup3\n        /* \"#utility.yul\":4475:4489   */\n      sub\n        /* \"#utility.yul\":4468:4472   */\n      0x20\n        /* \"#utility.yul\":4463:4466   */\n      dup7\n        /* \"#utility.yul\":4459:4473   */\n      add\n        /* \"#utility.yul\":4452:4490   */\n      mstore\n        /* \"#utility.yul\":4511:4584   */\n      tag_482\n        /* \"#utility.yul\":4579:4583   */\n      dup3\n        /* \"#utility.yul\":4565:4577   */\n      dup3\n        /* \"#utility.yul\":4511:4584   */\n      tag_368\n      jump\t// in\n    tag_482:\n        /* \"#utility.yul\":4503:4584   */\n      swap2\n      pop\n        /* \"#utility.yul\":4353:4595   */\n      pop\n        /* \"#utility.yul\":4682:4686   */\n      0x40\n        /* \"#utility.yul\":4675:4680   */\n      dup4\n        /* \"#utility.yul\":4671:4687   */\n      add\n        /* \"#utility.yul\":4665:4688   */\n      mload\n        /* \"#utility.yul\":4701:4764   */\n      tag_483\n        /* \"#utility.yul\":4758:4762   */\n      0x40\n        /* \"#utility.yul\":4753:4756   */\n      dup7\n        /* \"#utility.yul\":4749:4763   */\n      add\n        /* \"#utility.yul\":4735:4747   */\n      dup3\n        /* \"#utility.yul\":4701:4764   */\n      tag_360\n      jump\t// in\n    tag_483:\n        /* \"#utility.yul\":4605:4774   */\n      pop\n        /* \"#utility.yul\":4791:4795   */\n      dup1\n        /* \"#utility.yul\":4784:4795   */\n      swap2\n      pop\n        /* \"#utility.yul\":4135:4801   */\n      pop\n        /* \"#utility.yul\":4023:4801   */\n      swap3\n      swap2\n      pop\n      pop\n      jump\t// out\n        /* \"#utility.yul\":4807:5059   */\n    tag_370:\n        /* \"#utility.yul\":4924:4934   */\n      0x00\n        /* \"#utility.yul\":4959:5053   */\n      tag_485\n        /* \"#utility.yul\":5049:5052   */\n      dup4\n        /* \"#utility.yul\":5041:5047   */\n      dup4\n        /* \"#utility.yul\":4959:5053   */\n      tag_369\n      jump\t// in\n    tag_485:\n        /* \"#utility.yul\":4945:5053   */\n      swap1\n      pop\n        /* \"#utility.yul\":4807:5059   */\n      swap3\n      swap2\n      pop\n      pop\n      jump\t// out\n        /* \"#utility.yul\":5065:5202   */\n    tag_371:\n        /* \"#utility.yul\":5159:5163   */\n      0x00\n        /* \"#utility.yul\":5191:5195   */\n      0x20\n        /* \"#utility.yul\":5186:5189   */\n      dup3\n        /* \"#utility.yul\":5182:5196   */\n      add\n        /* \"#utility.yul\":5174:5196   */\n      swap1\n      pop\n        /* \"#utility.yul\":5065:5202   */\n      swap2\n      swap1\n      pop\n      jump\t// out\n        /* \"#utility.yul\":5268:6351   */\n    tag_372:\n        /* \"#utility.yul\":5425:5428   */\n      0x00\n        /* \"#utility.yul\":5454:5532   */\n      tag_488\n        /* \"#utility.yul\":5526:5531   */\n      dup3\n        /* \"#utility.yul\":5454:5532   */\n      tag_361\n      jump\t// in\n    tag_488:\n        /* \"#utility.yul\":5548:5648   */\n      tag_489\n        /* \"#utility.yul\":5641:5647   */\n      dup2\n        /* \"#utility.yul\":5636:5639   */\n      dup6\n        /* \"#utility.yul\":5548:5648   */\n      tag_362\n      jump\t// in\n    tag_489:\n        /* \"#utility.yul\":5541:5648   */\n      swap4\n      pop\n        /* \"#utility.yul\":5674:5677   */\n      dup4\n        /* \"#utility.yul\":5719:5723   */\n      0x20\n        /* \"#utility.yul\":5711:5717   */\n      dup3\n        /* \"#utility.yul\":5707:5724   */\n      mul\n        /* \"#utility.yul\":5702:5705   */\n      dup6\n        /* \"#utility.yul\":5698:5725   */\n      add\n        /* \"#utility.yul\":5749:5829   */\n      tag_490\n        /* \"#utility.yul\":5823:5828   */\n      dup6\n        /* \"#utility.yul\":5749:5829   */\n      tag_363\n      jump\t// in\n    tag_490:\n        /* \"#utility.yul\":5852:5859   */\n      dup1\n        /* \"#utility.yul\":5883:5884   */\n      0x00\n        /* \"#utility.yul\":5868:6306   */\n    tag_491:\n        /* \"#utility.yul\":5893:5899   */\n      dup6\n        /* \"#utility.yul\":5890:5891   */\n      dup2\n        /* \"#utility.yul\":5887:5900   */\n      lt\n        /* \"#utility.yul\":5868:6306   */\n      iszero\n      tag_493\n      jumpi\n        /* \"#utility.yul\":5964:5973   */\n      dup5\n        /* \"#utility.yul\":5958:5962   */\n      dup5\n        /* \"#utility.yul\":5954:5974   */\n      sub\n        /* \"#utility.yul\":5949:5952   */\n      dup10\n        /* \"#utility.yul\":5942:5975   */\n      mstore\n        /* \"#utility.yul\":6015:6021   */\n      dup2\n        /* \"#utility.yul\":6009:6022   */\n      mload\n        /* \"#utility.yul\":6043:6155   */\n      tag_494\n        /* \"#utility.yul\":6150:6154   */\n      dup6\n        /* \"#utility.yul\":6135:6148   */\n      dup3\n        /* \"#utility.yul\":6043:6155   */\n      tag_370\n      jump\t// in\n    tag_494:\n        /* \"#utility.yul\":6035:6155   */\n      swap5\n      pop\n        /* \"#utility.yul\":6178:6262   */\n      tag_495\n        /* \"#utility.yul\":6255:6261   */\n      dup4\n        /* \"#utility.yul\":6178:6262   */\n      tag_371\n      jump\t// in\n    tag_495:\n        /* \"#utility.yul\":6168:6262   */\n      swap3\n      pop\n        /* \"#utility.yul\":6291:6295   */\n      0x20\n        /* \"#utility.yul\":6286:6289   */\n      dup11\n        /* \"#utility.yul\":6282:6296   */\n      add\n        /* \"#utility.yul\":6275:6296   */\n      swap10\n      pop\n        /* \"#utility.yul\":5928:6306   */\n      pop\n        /* \"#utility.yul\":5915:5916   */\n      0x01\n        /* \"#utility.yul\":5912:5913   */\n      dup2\n        /* \"#utility.yul\":5908:5917   */\n      add\n        /* \"#utility.yul\":5903:5917   */\n      swap1\n      pop\n        /* \"#utility.yul\":5868:6306   */\n      jump(tag_491)\n    tag_493:\n        /* \"#utility.yul\":5872:5886   */\n      pop\n        /* \"#utility.yul\":6322:6326   */\n      dup3\n        /* \"#utility.yul\":6315:6326   */\n      swap8\n      pop\n        /* \"#utility.yul\":6342:6345   */\n      dup8\n        /* \"#utility.yul\":6335:6345   */\n      swap6\n      pop\n        /* \"#utility.yul\":5430:6351   */\n      pop\n      pop\n      pop\n      pop\n      pop\n        /* \"#utility.yul\":5268:6351   */\n      swap3\n      swap2\n      pop\n      pop\n      jump\t// out\n        /* \"#utility.yul\":6423:7332   */\n    tag_373:\n        /* \"#utility.yul\":6550:6553   */\n      0x00\n        /* \"#utility.yul\":6586:6590   */\n      0x60\n        /* \"#utility.yul\":6581:6584   */\n      dup4\n        /* \"#utility.yul\":6577:6591   */\n      add\n        /* \"#utility.yul\":6683:6687   */\n      0x00\n        /* \"#utility.yul\":6676:6681   */\n      dup4\n        /* \"#utility.yul\":6672:6688   */\n      add\n        /* \"#utility.yul\":6666:6689   */\n      mload\n        /* \"#utility.yul\":6702:6780   */\n      tag_497\n        /* \"#utility.yul\":6774:6778   */\n      0x00\n        /* \"#utility.yul\":6769:6772   */\n      dup7\n        /* \"#utility.yul\":6765:6779   */\n      add\n        /* \"#utility.yul\":6751:6763   */\n      dup3\n        /* \"#utility.yul\":6702:6780   */\n      tag_359\n      jump\t// in\n    tag_497:\n        /* \"#utility.yul\":6601:6790   */\n      pop\n        /* \"#utility.yul\":6885:6889   */\n      0x20\n        /* \"#utility.yul\":6878:6883   */\n      dup4\n        /* \"#utility.yul\":6874:6890   */\n      add\n        /* \"#utility.yul\":6868:6891   */\n      mload\n        /* \"#utility.yul\":6904:6967   */\n      tag_498\n        /* \"#utility.yul\":6961:6965   */\n      0x20\n        /* \"#utility.yul\":6956:6959   */\n      dup7\n        /* \"#utility.yul\":6952:6966   */\n      add\n        /* \"#utility.yul\":6938:6950   */\n      dup3\n        /* \"#utility.yul\":6904:6967   */\n      tag_360\n      jump\t// in\n    tag_498:\n        /* \"#utility.yul\":6800:6977   */\n      pop\n        /* \"#utility.yul\":7064:7068   */\n      0x40\n        /* \"#utility.yul\":7057:7062   */\n      dup4\n        /* \"#utility.yul\":7053:7069   */\n      add\n        /* \"#utility.yul\":7047:7070   */\n      mload\n        /* \"#utility.yul\":7117:7120   */\n      dup5\n        /* \"#utility.yul\":7111:7115   */\n      dup3\n        /* \"#utility.yul\":7107:7121   */\n      sub\n        /* \"#utility.yul\":7100:7104   */\n      0x40\n        /* \"#utility.yul\":7095:7098   */\n      dup7\n        /* \"#utility.yul\":7091:7105   */\n      add\n        /* \"#utility.yul\":7084:7122   */\n      mstore\n        /* \"#utility.yul\":7143:7294   */\n      tag_499\n        /* \"#utility.yul\":7289:7293   */\n      dup3\n        /* \"#utility.yul\":7275:7287   */\n      dup3\n        /* \"#utility.yul\":7143:7294   */\n      tag_372\n      jump\t// in\n    tag_499:\n        /* \"#utility.yul\":7135:7294   */\n      swap2\n      pop\n        /* \"#utility.yul\":6987:7305   */\n      pop\n        /* \"#utility.yul\":7322:7326   */\n      dup1\n        /* \"#utility.yul\":7315:7326   */\n      swap2\n      pop\n        /* \"#utility.yul\":6555:7332   */\n      pop\n        /* \"#utility.yul\":6423:7332   */\n      swap3\n      swap2\n      pop\n      pop\n      jump\t// out\n        /* \"#utility.yul\":7338:7727   */\n    tag_37:\n        /* \"#utility.yul\":7489:7493   */\n      0x00\n        /* \"#utility.yul\":7527:7529   */\n      0x20\n        /* \"#utility.yul\":7516:7525   */\n      dup3\n        /* \"#utility.yul\":7512:7530   */\n      add\n        /* \"#utility.yul\":7504:7530   */\n      swap1\n      pop\n        /* \"#utility.yul\":7576:7585   */\n      dup2\n        /* \"#utility.yul\":7570:7574   */\n      dup2\n        /* \"#utility.yul\":7566:7586   */\n      sub\n        /* \"#utility.yul\":7562:7563   */\n      0x00\n        /* \"#utility.yul\":7551:7560   */\n      dup4\n        /* \"#utility.yul\":7547:7564   */\n      add\n        /* \"#utility.yul\":7540:7587   */\n      mstore\n        /* \"#utility.yul\":7604:7720   */\n      tag_501\n        /* \"#utility.yul\":7715:7719   */\n      dup2\n        /* \"#utility.yul\":7706:7712   */\n      dup5\n        /* \"#utility.yul\":7604:7720   */\n      tag_373\n      jump\t// in\n    tag_501:\n        /* \"#utility.yul\":7596:7720   */\n      swap1\n      pop\n        /* \"#utility.yul\":7338:7727   */\n      swap3\n      swap2\n      pop\n      pop\n      jump\t// out\n        /* \"#utility.yul\":7733:7859   */\n    tag_374:\n        /* \"#utility.yul\":7770:7777   */\n      0x00\n        /* \"#utility.yul\":7810:7852   */\n      0xffffffffffffffffffffffffffffffffffffffff\n        /* \"#utility.yul\":7803:7808   */\n      dup3\n        /* \"#utility.yul\":7799:7853   */\n      and\n        /* \"#utility.yul\":7788:7853   */\n      swap1\n      pop\n        /* \"#utility.yul\":7733:7859   */\n      swap2\n      swap1\n      pop\n      jump\t// out\n        /* \"#utility.yul\":7865:7961   */\n    tag_375:\n        /* \"#utility.yul\":7902:7909   */\n      0x00\n        /* \"#utility.yul\":7931:7955   */\n      tag_504\n        /* \"#utility.yul\":7949:7954   */\n      dup3\n        /* \"#utility.yul\":7931:7955   */\n      tag_374\n      jump\t// in\n    tag_504:\n        /* \"#utility.yul\":7920:7955   */\n      swap1\n      pop\n        /* \"#utility.yul\":7865:7961   */\n      swap2\n      swap1\n      pop\n      jump\t// out\n        /* \"#utility.yul\":7967:8089   */\n    tag_376:\n        /* \"#utility.yul\":8040:8064   */\n      tag_506\n        /* \"#utility.yul\":8058:8063   */\n      dup2\n        /* \"#utility.yul\":8040:8064   */\n      tag_375\n      jump\t// in\n    tag_506:\n        /* \"#utility.yul\":8033:8038   */\n      dup2\n        /* \"#utility.yul\":8030:8065   */\n      eq\n        /* \"#utility.yul\":8020:8083   */\n      tag_507\n      jumpi\n        /* \"#utility.yul\":8079:8080   */\n      0x00\n        /* \"#utility.yul\":8076:8077   */\n      0x00\n        /* \"#utility.yul\":8069:8081   */\n      revert\n        /* \"#utility.yul\":8020:8083   */\n    tag_507:\n        /* \"#utility.yul\":7967:8089   */\n      pop\n      jump\t// out\n        /* \"#utility.yul\":8095:8234   */\n    tag_377:\n        /* \"#utility.yul\":8141:8146   */\n      0x00\n        /* \"#utility.yul\":8179:8185   */\n      dup2\n        /* \"#utility.yul\":8166:8186   */\n      calldataload\n        /* \"#utility.yul\":8157:8186   */\n      swap1\n      pop\n        /* \"#utility.yul\":8195:8228   */\n      tag_509\n        /* \"#utility.yul\":8222:8227   */\n      dup2\n        /* \"#utility.yul\":8195:8228   */\n      tag_376\n      jump\t// in\n    tag_509:\n        /* \"#utility.yul\":8095:8234   */\n      swap3\n      swap2\n      pop\n      pop\n      jump\t// out\n        /* \"#utility.yul\":8240:8569   */\n    tag_40:\n        /* \"#utility.yul\":8299:8305   */\n      0x00\n        /* \"#utility.yul\":8348:8350   */\n      0x20\n        /* \"#utility.yul\":8336:8345   */\n      dup3\n        /* \"#utility.yul\":8327:8334   */\n      dup5\n        /* \"#utility.yul\":8323:8346   */\n      sub\n        /* \"#utility.yul\":8319:8351   */\n      slt\n        /* \"#utility.yul\":8316:8435   */\n      iszero\n      tag_511\n      jumpi\n        /* \"#utility.yul\":8354:8433   */\n      tag_512\n      tag_349\n      jump\t// in\n    tag_512:\n        /* \"#utility.yul\":8316:8435   */\n    tag_511:\n        /* \"#utility.yul\":8474:8475   */\n      0x00\n        /* \"#utility.yul\":8499:8552   */\n      tag_513\n        /* \"#utility.yul\":8544:8551   */\n      dup5\n        /* \"#utility.yul\":8535:8541   */\n      dup3\n        /* \"#utility.yul\":8524:8533   */\n      dup6\n        /* \"#utility.yul\":8520:8542   */\n      add\n        /* \"#utility.yul\":8499:8552   */\n      tag_377\n      jump\t// in\n    tag_513:\n        /* \"#utility.yul\":8489:8552   */\n      swap2\n      pop\n        /* \"#utility.yul\":8445:8562   */\n      pop\n        /* \"#utility.yul\":8240:8569   */\n      swap3\n      swap2\n      pop\n      pop\n      jump\t// out\n        /* \"#utility.yul\":8575:8692   */\n    tag_378:\n        /* \"#utility.yul\":8684:8685   */\n      0x00\n        /* \"#utility.yul\":8681:8682   */\n      0x00\n        /* \"#utility.yul\":8674:8686   */\n      revert\n        /* \"#utility.yul\":8698:8815   */\n    tag_379:\n        /* \"#utility.yul\":8807:8808   */\n      0x00\n        /* \"#utility.yul\":8804:8805   */\n      0x00\n        /* \"#utility.yul\":8797:8809   */\n      revert\n        /* \"#utility.yul\":8821:9001   */\n    tag_133:\n        /* \"#utility.yul\":8869:8946   */\n      0x4e487b7100000000000000000000000000000000000000000000000000000000\n        /* \"#utility.yul\":8866:8867   */\n      0x00\n        /* \"#utility.yul\":8859:8947   */\n      mstore\n        /* \"#utility.yul\":8966:8970   */\n      0x41\n        /* \"#utility.yul\":8963:8964   */\n      0x04\n        /* \"#utility.yul\":8956:8971   */\n      mstore\n        /* \"#utility.yul\":8990:8994   */\n      0x24\n        /* \"#utility.yul\":8987:8988   */\n      0x00\n        /* \"#utility.yul\":8980:8995   */\n      revert\n        /* \"#utility.yul\":9007:9288   */\n    tag_380:\n        /* \"#utility.yul\":9090:9117   */\n      tag_518\n        /* \"#utility.yul\":9112:9116   */\n      dup3\n        /* \"#utility.yul\":9090:9117   */\n      tag_367\n      jump\t// in\n    tag_518:\n        /* \"#utility.yul\":9082:9088   */\n      dup2\n        /* \"#utility.yul\":9078:9118   */\n      add\n        /* \"#utility.yul\":9220:9226   */\n      dup2\n        /* \"#utility.yul\":9208:9218   */\n      dup2\n        /* \"#utility.yul\":9205:9227   */\n      lt\n        /* \"#utility.yul\":9184:9202   */\n      0xffffffffffffffff\n        /* \"#utility.yul\":9172:9182   */\n      dup3\n        /* \"#utility.yul\":9169:9203   */\n      gt\n        /* \"#utility.yul\":9166:9228   */\n      or\n        /* \"#utility.yul\":9163:9251   */\n      iszero\n      tag_519\n      jumpi\n        /* \"#utility.yul\":9231:9249   */\n      tag_520\n      tag_133\n      jump\t// in\n    tag_520:\n        /* \"#utility.yul\":9163:9251   */\n    tag_519:\n        /* \"#utility.yul\":9271:9281   */\n      dup1\n        /* \"#utility.yul\":9267:9269   */\n      0x40\n        /* \"#utility.yul\":9260:9282   */\n      mstore\n        /* \"#utility.yul\":9050:9288   */\n      pop\n        /* \"#utility.yul\":9007:9288   */\n      pop\n      pop\n      jump\t// out\n        /* \"#utility.yul\":9294:9423   */\n    tag_381:\n        /* \"#utility.yul\":9328:9334   */\n      0x00\n        /* \"#utility.yul\":9355:9375   */\n      tag_522\n      tag_348\n      jump\t// in\n    tag_522:\n        /* \"#utility.yul\":9345:9375   */\n      swap1\n      pop\n        /* \"#utility.yul\":9384:9417   */\n      tag_523\n        /* \"#utility.yul\":9412:9416   */\n      dup3\n        /* \"#utility.yul\":9404:9410   */\n      dup3\n        /* \"#utility.yul\":9384:9417   */\n      tag_380\n      jump\t// in\n    tag_523:\n        /* \"#utility.yul\":9294:9423   */\n      swap2\n      swap1\n      pop\n      jump\t// out\n        /* \"#utility.yul\":9429:9737   */\n    tag_382:\n        /* \"#utility.yul\":9491:9495   */\n      0x00\n        /* \"#utility.yul\":9581:9599   */\n      0xffffffffffffffff\n        /* \"#utility.yul\":9573:9579   */\n      dup3\n        /* \"#utility.yul\":9570:9600   */\n      gt\n        /* \"#utility.yul\":9567:9623   */\n      iszero\n      tag_525\n      jumpi\n        /* \"#utility.yul\":9603:9621   */\n      tag_526\n      tag_133\n      jump\t// in\n    tag_526:\n        /* \"#utility.yul\":9567:9623   */\n    tag_525:\n        /* \"#utility.yul\":9641:9670   */\n      tag_527\n        /* \"#utility.yul\":9663:9669   */\n      dup3\n        /* \"#utility.yul\":9641:9670   */\n      tag_367\n      jump\t// in\n    tag_527:\n        /* \"#utility.yul\":9633:9670   */\n      swap1\n      pop\n        /* \"#utility.yul\":9725:9729   */\n      0x20\n        /* \"#utility.yul\":9719:9723   */\n      dup2\n        /* \"#utility.yul\":9715:9730   */\n      add\n        /* \"#utility.yul\":9707:9730   */\n      swap1\n      pop\n        /* \"#utility.yul\":9429:9737   */\n      swap2\n      swap1\n      pop\n      jump\t// out\n        /* \"#utility.yul\":9743:9891   */\n    tag_383:\n        /* \"#utility.yul\":9841:9847   */\n      dup3\n        /* \"#utility.yul\":9836:9839   */\n      dup2\n        /* \"#utility.yul\":9831:9834   */\n      dup4\n        /* \"#utility.yul\":9818:9848   */\n      calldatacopy\n        /* \"#utility.yul\":9882:9883   */\n      0x00\n        /* \"#utility.yul\":9873:9879   */\n      dup4\n        /* \"#utility.yul\":9868:9871   */\n      dup4\n        /* \"#utility.yul\":9864:9880   */\n      add\n        /* \"#utility.yul\":9857:9884   */\n      mstore\n        /* \"#utility.yul\":9743:9891   */\n      pop\n      pop\n      pop\n      jump\t// out\n        /* \"#utility.yul\":9897:10322   */\n    tag_384:\n        /* \"#utility.yul\":9975:9980   */\n      0x00\n        /* \"#utility.yul\":10000:10066   */\n      tag_530\n        /* \"#utility.yul\":10016:10065   */\n      tag_531\n        /* \"#utility.yul\":10058:10064   */\n      dup5\n        /* \"#utility.yul\":10016:10065   */\n      tag_382\n      jump\t// in\n    tag_531:\n        /* \"#utility.yul\":10000:10066   */\n      tag_381\n      jump\t// in\n    tag_530:\n        /* \"#utility.yul\":9991:10066   */\n      swap1\n      pop\n        /* \"#utility.yul\":10089:10095   */\n      dup3\n        /* \"#utility.yul\":10082:10087   */\n      dup2\n        /* \"#utility.yul\":10075:10096   */\n      mstore\n        /* \"#utility.yul\":10127:10131   */\n      0x20\n        /* \"#utility.yul\":10120:10125   */\n      dup2\n        /* \"#utility.yul\":10116:10132   */\n      add\n        /* \"#utility.yul\":10165:10168   */\n      dup5\n        /* \"#utility.yul\":10156:10162   */\n      dup5\n        /* \"#utility.yul\":10151:10154   */\n      dup5\n        /* \"#utility.yul\":10147:10163   */\n      add\n        /* \"#utility.yul\":10144:10169   */\n      gt\n        /* \"#utility.yul\":10141:10253   */\n      iszero\n      tag_532\n      jumpi\n        /* \"#utility.yul\":10172:10251   */\n      tag_533\n      tag_379\n      jump\t// in\n    tag_533:\n        /* \"#utility.yul\":10141:10253   */\n    tag_532:\n        /* \"#utility.yul\":10262:10316   */\n      tag_534\n        /* \"#utility.yul\":10309:10315   */\n      dup5\n        /* \"#utility.yul\":10304:10307   */\n      dup3\n        /* \"#utility.yul\":10299:10302   */\n      dup6\n        /* \"#utility.yul\":10262:10316   */\n      tag_383\n      jump\t// in\n    tag_534:\n        /* \"#utility.yul\":9981:10322   */\n      pop\n        /* \"#utility.yul\":9897:10322   */\n      swap4\n      swap3\n      pop\n      pop\n      pop\n      jump\t// out\n        /* \"#utility.yul\":10342:10682   */\n    tag_385:\n        /* \"#utility.yul\":10398:10403   */\n      0x00\n        /* \"#utility.yul\":10447:10450   */\n      dup3\n        /* \"#utility.yul\":10440:10444   */\n      0x1f\n        /* \"#utility.yul\":10432:10438   */\n      dup4\n        /* \"#utility.yul\":10428:10445   */\n      add\n        /* \"#utility.yul\":10424:10451   */\n      slt\n        /* \"#utility.yul\":10414:10536   */\n      tag_536\n      jumpi\n        /* \"#utility.yul\":10455:10534   */\n      tag_537\n      tag_378\n      jump\t// in\n    tag_537:\n        /* \"#utility.yul\":10414:10536   */\n    tag_536:\n        /* \"#utility.yul\":10572:10578   */\n      dup2\n        /* \"#utility.yul\":10559:10579   */\n      calldataload\n        /* \"#utility.yul\":10597:10676   */\n      tag_538\n        /* \"#utility.yul\":10672:10675   */\n      dup5\n        /* \"#utility.yul\":10664:10670   */\n      dup3\n        /* \"#utility.yul\":10657:10661   */\n      0x20\n        /* \"#utility.yul\":10649:10655   */\n      dup7\n        /* \"#utility.yul\":10645:10662   */\n      add\n        /* \"#utility.yul\":10597:10676   */\n      tag_384\n      jump\t// in\n    tag_538:\n        /* \"#utility.yul\":10588:10676   */\n      swap2\n      pop\n        /* \"#utility.yul\":10404:10682   */\n      pop\n        /* \"#utility.yul\":10342:10682   */\n      swap3\n      swap2\n      pop\n      pop\n      jump\t// out\n        /* \"#utility.yul\":10688:11197   */\n    tag_44:\n        /* \"#utility.yul\":10757:10763   */\n      0x00\n        /* \"#utility.yul\":10806:10808   */\n      0x20\n        /* \"#utility.yul\":10794:10803   */\n      dup3\n        /* \"#utility.yul\":10785:10792   */\n      dup5\n        /* \"#utility.yul\":10781:10804   */\n      sub\n        /* \"#utility.yul\":10777:10809   */\n      slt\n        /* \"#utility.yul\":10774:10893   */\n      iszero\n      tag_540\n      jumpi\n        /* \"#utility.yul\":10812:10891   */\n      tag_541\n      tag_349\n      jump\t// in\n    tag_541:\n        /* \"#utility.yul\":10774:10893   */\n    tag_540:\n        /* \"#utility.yul\":10960:10961   */\n      0x00\n        /* \"#utility.yul\":10949:10958   */\n      dup3\n        /* \"#utility.yul\":10945:10962   */\n      add\n        /* \"#utility.yul\":10932:10963   */\n      calldataload\n        /* \"#utility.yul\":10990:11008   */\n      0xffffffffffffffff\n        /* \"#utility.yul\":10982:10988   */\n      dup2\n        /* \"#utility.yul\":10979:11009   */\n      gt\n        /* \"#utility.yul\":10976:11093   */\n      iszero\n      tag_542\n      jumpi\n        /* \"#utility.yul\":11012:11091   */\n      tag_543\n      tag_350\n      jump\t// in\n    tag_543:\n        /* \"#utility.yul\":10976:11093   */\n    tag_542:\n        /* \"#utility.yul\":11117:11180   */\n      tag_544\n        /* \"#utility.yul\":11172:11179   */\n      dup5\n        /* \"#utility.yul\":11163:11169   */\n      dup3\n        /* \"#utility.yul\":11152:11161   */\n      dup6\n        /* \"#utility.yul\":11148:11170   */\n      add\n        /* \"#utility.yul\":11117:11180   */\n      tag_385\n      jump\t// in\n    tag_544:\n        /* \"#utility.yul\":11107:11180   */\n      swap2\n      pop\n        /* \"#utility.yul\":10903:11190   */\n      pop\n        /* \"#utility.yul\":10688:11197   */\n      swap3\n      swap2\n      pop\n      pop\n      jump\t// out\n        /* \"#utility.yul\":11203:11411   */\n    tag_386:\n        /* \"#utility.yul\":11326:11337   */\n      0x00\n        /* \"#utility.yul\":11360:11366   */\n      dup3\n        /* \"#utility.yul\":11355:11358   */\n      dup3\n        /* \"#utility.yul\":11348:11367   */\n      mstore\n        /* \"#utility.yul\":11400:11404   */\n      0x20\n        /* \"#utility.yul\":11395:11398   */\n      dup3\n        /* \"#utility.yul\":11391:11405   */\n      add\n        /* \"#utility.yul\":11376:11405   */\n      swap1\n      pop\n        /* \"#utility.yul\":11203:11411   */\n      swap3\n      swap2\n      pop\n      pop\n      jump\t// out\n        /* \"#utility.yul\":11477:12580   */\n    tag_387:\n        /* \"#utility.yul\":11644:11647   */\n      0x00\n        /* \"#utility.yul\":11673:11751   */\n      tag_547\n        /* \"#utility.yul\":11745:11750   */\n      dup3\n        /* \"#utility.yul\":11673:11751   */\n      tag_361\n      jump\t// in\n    tag_547:\n        /* \"#utility.yul\":11767:11877   */\n      tag_548\n        /* \"#utility.yul\":11870:11876   */\n      dup2\n        /* \"#utility.yul\":11865:11868   */\n      dup6\n        /* \"#utility.yul\":11767:11877   */\n      tag_386\n      jump\t// in\n    tag_548:\n        /* \"#utility.yul\":11760:11877   */\n      swap4\n      pop\n        /* \"#utility.yul\":11903:11906   */\n      dup4\n        /* \"#utility.yul\":11948:11952   */\n      0x20\n        /* \"#utility.yul\":11940:11946   */\n      dup3\n        /* \"#utility.yul\":11936:11953   */\n      mul\n        /* \"#utility.yul\":11931:11934   */\n      dup6\n        /* \"#utility.yul\":11927:11954   */\n      add\n        /* \"#utility.yul\":11978:12058   */\n      tag_549\n        /* \"#utility.yul\":12052:12057   */\n      dup6\n        /* \"#utility.yul\":11978:12058   */\n      tag_363\n      jump\t// in\n    tag_549:\n        /* \"#utility.yul\":12081:12088   */\n      dup1\n        /* \"#utility.yul\":12112:12113   */\n      0x00\n        /* \"#utility.yul\":12097:12535   */\n    tag_550:\n        /* \"#utility.yul\":12122:12128   */\n      dup6\n        /* \"#utility.yul\":12119:12120   */\n      dup2\n        /* \"#utility.yul\":12116:12129   */\n      lt\n        /* \"#utility.yul\":12097:12535   */\n      iszero\n      tag_552\n      jumpi\n        /* \"#utility.yul\":12193:12202   */\n      dup5\n        /* \"#utility.yul\":12187:12191   */\n      dup5\n        /* \"#utility.yul\":12183:12203   */\n      sub\n        /* \"#utility.yul\":12178:12181   */\n      dup10\n        /* \"#utility.yul\":12171:12204   */\n      mstore\n        /* \"#utility.yul\":12244:12250   */\n      dup2\n        /* \"#utility.yul\":12238:12251   */\n      mload\n        /* \"#utility.yul\":12272:12384   */\n      tag_553\n        /* \"#utility.yul\":12379:12383   */\n      dup6\n        /* \"#utility.yul\":12364:12377   */\n      dup3\n        /* \"#utility.yul\":12272:12384   */\n      tag_370\n      jump\t// in\n    tag_553:\n        /* \"#utility.yul\":12264:12384   */\n      swap5\n      pop\n        /* \"#utility.yul\":12407:12491   */\n      tag_554\n        /* \"#utility.yul\":12484:12490   */\n      dup4\n        /* \"#utility.yul\":12407:12491   */\n      tag_371\n      jump\t// in\n    tag_554:\n        /* \"#utility.yul\":12397:12491   */\n      swap3\n      pop\n        /* \"#utility.yul\":12520:12524   */\n      0x20\n        /* \"#utility.yul\":12515:12518   */\n      dup11\n        /* \"#utility.yul\":12511:12525   */\n      add\n        /* \"#utility.yul\":12504:12525   */\n      swap10\n      pop\n        /* \"#utility.yul\":12157:12535   */\n      pop\n        /* \"#utility.yul\":12144:12145   */\n      0x01\n        /* \"#utility.yul\":12141:12142   */\n      dup2\n        /* \"#utility.yul\":12137:12146   */\n      add\n        /* \"#utility.yul\":12132:12146   */\n      swap1\n      pop\n        /* \"#utility.yul\":12097:12535   */\n      jump(tag_550)\n    tag_552:\n        /* \"#utility.yul\":12101:12115   */\n      pop\n        /* \"#utility.yul\":12551:12555   */\n      dup3\n        /* \"#utility.yul\":12544:12555   */\n      swap8\n      pop\n        /* \"#utility.yul\":12571:12574   */\n      dup8\n        /* \"#utility.yul\":12564:12574   */\n      swap6\n      pop\n        /* \"#utility.yul\":11649:12580   */\n      pop\n      pop\n      pop\n      pop\n      pop\n        /* \"#utility.yul\":11477:12580   */\n      swap3\n      swap2\n      pop\n      pop\n      jump\t// out\n        /* \"#utility.yul\":12586:13055   */\n    tag_53:\n        /* \"#utility.yul\":12777:12781   */\n      0x00\n        /* \"#utility.yul\":12815:12817   */\n      0x20\n        /* \"#utility.yul\":12804:12813   */\n      dup3\n        /* \"#utility.yul\":12800:12818   */\n      add\n        /* \"#utility.yul\":12792:12818   */\n      swap1\n      pop\n        /* \"#utility.yul\":12864:12873   */\n      dup2\n        /* \"#utility.yul\":12858:12862   */\n      dup2\n        /* \"#utility.yul\":12854:12874   */\n      sub\n        /* \"#utility.yul\":12850:12851   */\n      0x00\n        /* \"#utility.yul\":12839:12848   */\n      dup4\n        /* \"#utility.yul\":12835:12852   */\n      add\n        /* \"#utility.yul\":12828:12875   */\n      mstore\n        /* \"#utility.yul\":12892:13048   */\n      tag_556\n        /* \"#utility.yul\":13043:13047   */\n      dup2\n        /* \"#utility.yul\":13034:13040   */\n      dup5\n        /* \"#utility.yul\":12892:13048   */\n      tag_387\n      jump\t// in\n    tag_556:\n        /* \"#utility.yul\":12884:13048   */\n      swap1\n      pop\n        /* \"#utility.yul\":12586:13055   */\n      swap3\n      swap2\n      pop\n      pop\n      jump\t// out\n        /* \"#utility.yul\":13061:13179   */\n    tag_388:\n        /* \"#utility.yul\":13148:13172   */\n      tag_558\n        /* \"#utility.yul\":13166:13171   */\n      dup2\n        /* \"#utility.yul\":13148:13172   */\n      tag_375\n      jump\t// in\n    tag_558:\n        /* \"#utility.yul\":13143:13146   */\n      dup3\n        /* \"#utility.yul\":13136:13173   */\n      mstore\n        /* \"#utility.yul\":13061:13179   */\n      pop\n      pop\n      jump\t// out\n        /* \"#utility.yul\":13185:13407   */\n    tag_66:\n        /* \"#utility.yul\":13278:13282   */\n      0x00\n        /* \"#utility.yul\":13316:13318   */\n      0x20\n        /* \"#utility.yul\":13305:13314   */\n      dup3\n        /* \"#utility.yul\":13301:13319   */\n      add\n        /* \"#utility.yul\":13293:13319   */\n      swap1\n      pop\n        /* \"#utility.yul\":13329:13400   */\n      tag_560\n        /* \"#utility.yul\":13397:13398   */\n      0x00\n        /* \"#utility.yul\":13386:13395   */\n      dup4\n        /* \"#utility.yul\":13382:13399   */\n      add\n        /* \"#utility.yul\":13373:13379   */\n      dup5\n        /* \"#utility.yul\":13329:13400   */\n      tag_388\n      jump\t// in\n    tag_560:\n        /* \"#utility.yul\":13185:13407   */\n      swap3\n      swap2\n      pop\n      pop\n      jump\t// out\n        /* \"#utility.yul\":13413:13635   */\n    tag_70:\n        /* \"#utility.yul\":13506:13510   */\n      0x00\n        /* \"#utility.yul\":13544:13546   */\n      0x20\n        /* \"#utility.yul\":13533:13542   */\n      dup3\n        /* \"#utility.yul\":13529:13547   */\n      add\n        /* \"#utility.yul\":13521:13547   */\n      swap1\n      pop\n        /* \"#utility.yul\":13557:13628   */\n      tag_562\n        /* \"#utility.yul\":13625:13626   */\n      0x00\n        /* \"#utility.yul\":13614:13623   */\n      dup4\n        /* \"#utility.yul\":13610:13627   */\n      add\n        /* \"#utility.yul\":13601:13607   */\n      dup5\n        /* \"#utility.yul\":13557:13628   */\n      tag_358\n      jump\t// in\n    tag_562:\n        /* \"#utility.yul\":13413:13635   */\n      swap3\n      swap2\n      pop\n      pop\n      jump\t// out\n        /* \"#utility.yul\":13641:13731   */\n    tag_389:\n        /* \"#utility.yul\":13675:13682   */\n      0x00\n        /* \"#utility.yul\":13718:13723   */\n      dup2\n        /* \"#utility.yul\":13711:13724   */\n      iszero\n        /* \"#utility.yul\":13704:13725   */\n      iszero\n        /* \"#utility.yul\":13693:13725   */\n      swap1\n      pop\n        /* \"#utility.yul\":13641:13731   */\n      swap2\n      swap1\n      pop\n      jump\t// out\n        /* \"#utility.yul\":13737:13846   */\n    tag_390:\n        /* \"#utility.yul\":13818:13839   */\n      tag_565\n        /* \"#utility.yul\":13833:13838   */\n      dup2\n        /* \"#utility.yul\":13818:13839   */\n      tag_389\n      jump\t// in\n    tag_565:\n        /* \"#utility.yul\":13813:13816   */\n      dup3\n        /* \"#utility.yul\":13806:13840   */\n      mstore\n        /* \"#utility.yul\":13737:13846   */\n      pop\n      pop\n      jump\t// out\n        /* \"#utility.yul\":13852:14062   */\n    tag_75:\n        /* \"#utility.yul\":13939:13943   */\n      0x00\n        /* \"#utility.yul\":13977:13979   */\n      0x20\n        /* \"#utility.yul\":13966:13975   */\n      dup3\n        /* \"#utility.yul\":13962:13980   */\n      add\n        /* \"#utility.yul\":13954:13980   */\n      swap1\n      pop\n        /* \"#utility.yul\":13990:14055   */\n      tag_567\n        /* \"#utility.yul\":14052:14053   */\n      0x00\n        /* \"#utility.yul\":14041:14050   */\n      dup4\n        /* \"#utility.yul\":14037:14054   */\n      add\n        /* \"#utility.yul\":14028:14034   */\n      dup5\n        /* \"#utility.yul\":13990:14055   */\n      tag_390\n      jump\t// in\n    tag_567:\n        /* \"#utility.yul\":13852:14062   */\n      swap3\n      swap2\n      pop\n      pop\n      jump\t// out\n        /* \"#utility.yul\":14068:14248   */\n    tag_391:\n        /* \"#utility.yul\":14116:14193   */\n      0x4e487b7100000000000000000000000000000000000000000000000000000000\n        /* \"#utility.yul\":14113:14114   */\n      0x00\n        /* \"#utility.yul\":14106:14194   */\n      mstore\n        /* \"#utility.yul\":14213:14217   */\n      0x11\n        /* \"#utility.yul\":14210:14211   */\n      0x04\n        /* \"#utility.yul\":14203:14218   */\n      mstore\n        /* \"#utility.yul\":14237:14241   */\n      0x24\n        /* \"#utility.yul\":14234:14235   */\n      0x00\n        /* \"#utility.yul\":14227:14242   */\n      revert\n        /* \"#utility.yul\":14254:14487   */\n    tag_97:\n        /* \"#utility.yul\":14293:14296   */\n      0x00\n        /* \"#utility.yul\":14316:14340   */\n      tag_570\n        /* \"#utility.yul\":14334:14339   */\n      dup3\n        /* \"#utility.yul\":14316:14340   */\n      tag_351\n      jump\t// in\n    tag_570:\n        /* \"#utility.yul\":14307:14340   */\n      swap2\n      pop\n        /* \"#utility.yul\":14362:14428   */\n      0xffffffffffffffffffffffffffffffffffffffffffffffffffffffffffffffff\n        /* \"#utility.yul\":14355:14360   */\n      dup3\n        /* \"#utility.yul\":14352:14429   */\n      sub\n        /* \"#utility.yul\":14349:14452   */\n      tag_571\n      jumpi\n        /* \"#utility.yul\":14432:14450   */\n      tag_572\n      tag_391\n      jump\t// in\n    tag_572:\n        /* \"#utility.yul\":14349:14452   */\n    tag_571:\n        /* \"#utility.yul\":14479:14480   */\n      0x01\n        /* \"#utility.yul\":14472:14477   */\n      dup3\n        /* \"#utility.yul\":14468:14481   */\n      add\n        /* \"#utility.yul\":14461:14481   */\n      swap1\n      pop\n        /* \"#utility.yul\":14254:14487   */\n      swap2\n      swap1\n      pop\n      jump\t// out\n        /* \"#utility.yul\":14493:14673   */\n    tag_392:\n        /* \"#utility.yul\":14541:14618   */\n      0x4e487b7100000000000000000000000000000000000000000000000000000000\n        /* \"#utility.yul\":14538:14539   */\n      0x00\n        /* \"#utility.yul\":14531:14619   */\n      mstore\n        /* \"#utility.yul\":14638:14642   */\n      0x22\n        /* \"#utility.yul\":14635:14636   */\n      0x04\n        /* \"#utility.yul\":14628:14643   */\n      mstore\n        /* \"#utility.yul\":14662:14666   */\n      0x24\n        /* \"#utility.yul\":14659:14660   */\n      0x00\n        /* \"#utility.yul\":14652:14667   */\n      revert\n        /* \"#utility.yul\":14679:14999   */\n    tag_113:\n        /* \"#utility.yul\":14723:14729   */\n      0x00\n        /* \"#utility.yul\":14760:14761   */\n      0x02\n        /* \"#utility.yul\":14754:14758   */\n      dup3\n        /* \"#utility.yul\":14750:14762   */\n      div\n        /* \"#utility.yul\":14740:14762   */\n      swap1\n      pop\n        /* \"#utility.yul\":14807:14808   */\n      0x01\n        /* \"#utility.yul\":14801:14805   */\n      dup3\n        /* \"#utility.yul\":14797:14809   */\n      and\n        /* \"#utility.yul\":14828:14846   */\n      dup1\n        /* \"#utility.yul\":14818:14899   */\n      tag_575\n      jumpi\n        /* \"#utility.yul\":14884:14888   */\n      0x7f\n        /* \"#utility.yul\":14876:14882   */\n      dup3\n        /* \"#utility.yul\":14872:14889   */\n      and\n        /* \"#utility.yul\":14862:14889   */\n      swap2\n      pop\n        /* \"#utility.yul\":14818:14899   */\n    tag_575:\n        /* \"#utility.yul\":14946:14948   */\n      0x20\n        /* \"#utility.yul\":14938:14944   */\n      dup3\n        /* \"#utility.yul\":14935:14949   */\n      lt\n        /* \"#utility.yul\":14915:14933   */\n      dup2\n        /* \"#utility.yul\":14912:14950   */\n      sub\n        /* \"#utility.yul\":14909:14993   */\n      tag_576\n      jumpi\n        /* \"#utility.yul\":14965:14983   */\n      tag_577\n      tag_392\n      jump\t// in\n    tag_577:\n        /* \"#utility.yul\":14909:14993   */\n    tag_576:\n        /* \"#utility.yul\":14730:14999   */\n      pop\n        /* \"#utility.yul\":14679:14999   */\n      swap2\n      swap1\n      pop\n      jump\t// out\n        /* \"#utility.yul\":15005:15174   */\n    tag_393:\n        /* \"#utility.yul\":15089:15100   */\n      0x00\n        /* \"#utility.yul\":15123:15129   */\n      dup3\n        /* \"#utility.yul\":15118:15121   */\n      dup3\n        /* \"#utility.yul\":15111:15130   */\n      mstore\n        /* \"#utility.yul\":15163:15167   */\n      0x20\n        /* \"#utility.yul\":15158:15161   */\n      dup3\n        /* \"#utility.yul\":15154:15168   */\n      add\n        /* \"#utility.yul\":15139:15168   */\n      swap1\n      pop\n        /* \"#utility.yul\":15005:15174   */\n      swap3\n      swap2\n      pop\n      pop\n      jump\t// out\n        /* \"#utility.yul\":15180:15408   */\n    tag_394:\n        /* \"#utility.yul\":15320:15354   */\n      0x526567697374726174696f6e206e6f74207374617274656420666f7220746869\n        /* \"#utility.yul\":15316:15317   */\n      0x00\n        /* \"#utility.yul\":15308:15314   */\n      dup3\n        /* \"#utility.yul\":15304:15318   */\n      add\n        /* \"#utility.yul\":15297:15355   */\n      mstore\n        /* \"#utility.yul\":15389:15400   */\n      0x732073657373696f6e0000000000000000000000000000000000000000000000\n        /* \"#utility.yul\":15384:15386   */\n      0x20\n        /* \"#utility.yul\":15376:15382   */\n      dup3\n        /* \"#utility.yul\":15372:15387   */\n      add\n        /* \"#utility.yul\":15365:15401   */\n      mstore\n        /* \"#utility.yul\":15180:15408   */\n      pop\n      jump\t// out\n        /* \"#utility.yul\":15414:15780   */\n    tag_395:\n        /* \"#utility.yul\":15556:15559   */\n      0x00\n        /* \"#utility.yul\":15577:15644   */\n      tag_581\n        /* \"#utility.yul\":15641:15643   */\n      0x29\n        /* \"#utility.yul\":15636:15639   */\n      dup4\n        /* \"#utility.yul\":15577:15644   */\n      tag_393\n      jump\t// in\n    tag_581:\n        /* \"#utility.yul\":15570:15644   */\n      swap2\n      pop\n        /* \"#utility.yul\":15653:15746   */\n      tag_582\n        /* \"#utility.yul\":15742:15745   */\n      dup3\n        /* \"#utility.yul\":15653:15746   */\n      tag_394\n      jump\t// in\n    tag_582:\n        /* \"#utility.yul\":15771:15773   */\n      0x40\n        /* \"#utility.yul\":15766:15769   */\n      dup3\n        /* \"#utility.yul\":15762:15774   */\n      add\n        /* \"#utility.yul\":15755:15774   */\n      swap1\n      pop\n        /* \"#utility.yul\":15414:15780   */\n      swap2\n      swap1\n      pop\n      jump\t// out\n        /* \"#utility.yul\":15786:16205   */\n    tag_127:\n        /* \"#utility.yul\":15952:15956   */\n      0x00\n        /* \"#utility.yul\":15990:15992   */\n      0x20\n        /* \"#utility.yul\":15979:15988   */\n      dup3\n        /* \"#utility.yul\":15975:15993   */\n      add\n        /* \"#utility.yul\":15967:15993   */\n      swap1\n      pop\n        /* \"#utility.yul\":16039:16048   */\n      dup2\n        /* \"#utility.yul\":16033:16037   */\n      dup2\n        /* \"#utility.yul\":16029:16049   */\n      sub\n        /* \"#utility.yul\":16025:16026   */\n      0x00\n        /* \"#utility.yul\":16014:16023   */\n      dup4\n        /* \"#utility.yul\":16010:16027   */\n      add\n        /* \"#utility.yul\":16003:16050   */\n      mstore\n        /* \"#utility.yul\":16067:16198   */\n      tag_584\n        /* \"#utility.yul\":16193:16197   */\n      dup2\n        /* \"#utility.yul\":16067:16198   */\n      tag_395\n      jump\t// in\n    tag_584:\n        /* \"#utility.yul\":16059:16198   */\n      swap1\n      pop\n        /* \"#utility.yul\":15786:16205   */\n      swap2\n      swap1\n      pop\n      jump\t// out\n        /* \"#utility.yul\":16211:16388   */\n    tag_396:\n        /* \"#utility.yul\":16351:16380   */\n      0x566f74657220697320616c726561647920726567697374657265640000000000\n        /* \"#utility.yul\":16347:16348   */\n      0x00\n        /* \"#utility.yul\":16339:16345   */\n      dup3\n        /* \"#utility.yul\":16335:16349   */\n      add\n        /* \"#utility.yul\":16328:16381   */\n      mstore\n        /* \"#utility.yul\":16211:16388   */\n      pop\n      jump\t// out\n        /* \"#utility.yul\":16394:16760   */\n    tag_397:\n        /* \"#utility.yul\":16536:16539   */\n      0x00\n        /* \"#utility.yul\":16557:16624   */\n      tag_587\n        /* \"#utility.yul\":16621:16623   */\n      0x1b\n        /* \"#utility.yul\":16616:16619   */\n      dup4\n        /* \"#utility.yul\":16557:16624   */\n      tag_393\n      jump\t// in\n    tag_587:\n        /* \"#utility.yul\":16550:16624   */\n      swap2\n      pop\n        /* \"#utility.yul\":16633:16726   */\n      tag_588\n        /* \"#utility.yul\":16722:16725   */\n      dup3\n        /* \"#utility.yul\":16633:16726   */\n      tag_396\n      jump\t// in\n    tag_588:\n        /* \"#utility.yul\":16751:16753   */\n      0x20\n        /* \"#utility.yul\":16746:16749   */\n      dup3\n        /* \"#utility.yul\":16742:16754   */\n      add\n        /* \"#utility.yul\":16735:16754   */\n      swap1\n      pop\n        /* \"#utility.yul\":16394:16760   */\n      swap2\n      swap1\n      pop\n      jump\t// out\n        /* \"#utility.yul\":16766:17185   */\n    tag_130:\n        /* \"#utility.yul\":16932:16936   */\n      0x00\n        /* \"#utility.yul\":16970:16972   */\n      0x20\n        /* \"#utility.yul\":16959:16968   */\n      dup3\n        /* \"#utility.yul\":16955:16973   */\n      add\n        /* \"#utility.yul\":16947:16973   */\n      swap1\n      pop\n        /* \"#utility.yul\":17019:17028   */\n      dup2\n        /* \"#utility.yul\":17013:17017   */\n      dup2\n        /* \"#utility.yul\":17009:17029   */\n      sub\n        /* \"#utility.yul\":17005:17006   */\n      0x00\n        /* \"#utility.yul\":16994:17003   */\n      dup4\n        /* \"#utility.yul\":16990:17007   */\n      add\n        /* \"#utility.yul\":16983:17030   */\n      mstore\n        /* \"#utility.yul\":17047:17178   */\n      tag_590\n        /* \"#utility.yul\":17173:17177   */\n      dup2\n        /* \"#utility.yul\":17047:17178   */\n      tag_397\n      jump\t// in\n    tag_590:\n        /* \"#utility.yul\":17039:17178   */\n      swap1\n      pop\n        /* \"#utility.yul\":16766:17185   */\n      swap2\n      swap1\n      pop\n      jump\t// out\n        /* \"#utility.yul\":17191:17363   */\n    tag_398:\n        /* \"#utility.yul\":17331:17355   */\n      0x596f7520617265206e6f74207265676973746572656400000000000000000000\n        /* \"#utility.yul\":17327:17328   */\n      0x00\n        /* \"#utility.yul\":17319:17325   */\n      dup3\n        /* \"#utility.yul\":17315:17329   */\n      add\n        /* \"#utility.yul\":17308:17356   */\n      mstore\n        /* \"#utility.yul\":17191:17363   */\n      pop\n      jump\t// out\n        /* \"#utility.yul\":17369:17735   */\n    tag_399:\n        /* \"#utility.yul\":17511:17514   */\n      0x00\n        /* \"#utility.yul\":17532:17599   */\n      tag_593\n        /* \"#utility.yul\":17596:17598   */\n      0x16\n        /* \"#utility.yul\":17591:17594   */\n      dup4\n        /* \"#utility.yul\":17532:17599   */\n      tag_393\n      jump\t// in\n    tag_593:\n        /* \"#utility.yul\":17525:17599   */\n      swap2\n      pop\n        /* \"#utility.yul\":17608:17701   */\n      tag_594\n        /* \"#utility.yul\":17697:17700   */\n      dup3\n        /* \"#utility.yul\":17608:17701   */\n      tag_398\n      jump\t// in\n    tag_594:\n        /* \"#utility.yul\":17726:17728   */\n      0x20\n        /* \"#utility.yul\":17721:17724   */\n      dup3\n        /* \"#utility.yul\":17717:17729   */\n      add\n        /* \"#utility.yul\":17710:17729   */\n      swap1\n      pop\n        /* \"#utility.yul\":17369:17735   */\n      swap2\n      swap1\n      pop\n      jump\t// out\n        /* \"#utility.yul\":17741:18160   */\n    tag_145:\n        /* \"#utility.yul\":17907:17911   */\n      0x00\n        /* \"#utility.yul\":17945:17947   */\n      0x20\n        /* \"#utility.yul\":17934:17943   */\n      dup3\n        /* \"#utility.yul\":17930:17948   */\n      add\n        /* \"#utility.yul\":17922:17948   */\n      swap1\n      pop\n        /* \"#utility.yul\":17994:18003   */\n      dup2\n        /* \"#utility.yul\":17988:17992   */\n      dup2\n        /* \"#utility.yul\":17984:18004   */\n      sub\n        /* \"#utility.yul\":17980:17981   */\n      0x00\n        /* \"#utility.yul\":17969:17978   */\n      dup4\n        /* \"#utility.yul\":17965:17982   */\n      add\n        /* \"#utility.yul\":17958:18005   */\n      mstore\n        /* \"#utility.yul\":18022:18153   */\n      tag_596\n        /* \"#utility.yul\":18148:18152   */\n      dup2\n        /* \"#utility.yul\":18022:18153   */\n      tag_399\n      jump\t// in\n    tag_596:\n        /* \"#utility.yul\":18014:18153   */\n      swap1\n      pop\n        /* \"#utility.yul\":17741:18160   */\n      swap2\n      swap1\n      pop\n      jump\t// out\n        /* \"#utility.yul\":18166:18348   */\n    tag_400:\n        /* \"#utility.yul\":18306:18340   */\n      0x50726f706f73616c206465736372697074696f6e206973207265717569726564\n        /* \"#utility.yul\":18302:18303   */\n      0x00\n        /* \"#utility.yul\":18294:18300   */\n      dup3\n        /* \"#utility.yul\":18290:18304   */\n      add\n        /* \"#utility.yul\":18283:18341   */\n      mstore\n        /* \"#utility.yul\":18166:18348   */\n      pop\n      jump\t// out\n        /* \"#utility.yul\":18354:18720   */\n    tag_401:\n        /* \"#utility.yul\":18496:18499   */\n      0x00\n        /* \"#utility.yul\":18517:18584   */\n      tag_599\n        /* \"#utility.yul\":18581:18583   */\n      0x20\n        /* \"#utility.yul\":18576:18579   */\n      dup4\n        /* \"#utility.yul\":18517:18584   */\n      tag_393\n      jump\t// in\n    tag_599:\n        /* \"#utility.yul\":18510:18584   */\n      swap2\n      pop\n        /* \"#utility.yul\":18593:18686   */\n      tag_600\n        /* \"#utility.yul\":18682:18685   */\n      dup3\n        /* \"#utility.yul\":18593:18686   */\n      tag_400\n      jump\t// in\n    tag_600:\n        /* \"#utility.yul\":18711:18713   */\n      0x20\n        /* \"#utility.yul\":18706:18709   */\n      dup3\n        /* \"#utility.yul\":18702:18714   */\n      add\n        /* \"#utility.yul\":18695:18714   */\n      swap1\n      pop\n        /* \"#utility.yul\":18354:18720   */\n      swap2\n      swap1\n      pop\n      jump\t// out\n        /* \"#utility.yul\":18726:19145   */\n    tag_149:\n        /* \"#utility.yul\":18892:18896   */\n      0x00\n        /* \"#utility.yul\":18930:18932   */\n      0x20\n        /* \"#utility.yul\":18919:18928   */\n      dup3\n        /* \"#utility.yul\":18915:18933   */\n      add\n        /* \"#utility.yul\":18907:18933   */\n      swap1\n      pop\n        /* \"#utility.yul\":18979:18988   */\n      dup2\n        /* \"#utility.yul\":18973:18977   */\n      dup2\n        /* \"#utility.yul\":18969:18989   */\n      sub\n        /* \"#utility.yul\":18965:18966   */\n      0x00\n        /* \"#utility.yul\":18954:18963   */\n      dup4\n        /* \"#utility.yul\":18950:18967   */\n      add\n        /* \"#utility.yul\":18943:18990   */\n      mstore\n        /* \"#utility.yul\":19007:19138   */\n      tag_602\n        /* \"#utility.yul\":19133:19137   */\n      dup2\n        /* \"#utility.yul\":19007:19138   */\n      tag_401\n      jump\t// in\n    tag_602:\n        /* \"#utility.yul\":18999:19138   */\n      swap1\n      pop\n        /* \"#utility.yul\":18726:19145   */\n      swap2\n      swap1\n      pop\n      jump\t// out\n        /* \"#utility.yul\":19151:19376   */\n    tag_402:\n        /* \"#utility.yul\":19291:19325   */\n      0x50726f706f73616c73206e6f74207374617274656420666f7220746869732073\n        /* \"#utility.yul\":19287:19288   */\n      0x00\n        /* \"#utility.yul\":19279:19285   */\n      dup3\n        /* \"#utility.yul\":19275:19289   */\n      add\n        /* \"#utility.yul\":19268:19326   */\n      mstore\n        /* \"#utility.yul\":19360:19368   */\n      0x657373696f6e0000000000000000000000000000000000000000000000000000\n        /* \"#utility.yul\":19355:19357   */\n      0x20\n        /* \"#utility.yul\":19347:19353   */\n      dup3\n        /* \"#utility.yul\":19343:19358   */\n      add\n        /* \"#utility.yul\":19336:19369   */\n      mstore\n        /* \"#utility.yul\":19151:19376   */\n      pop\n      jump\t// out\n        /* \"#utility.yul\":19382:19748   */\n    tag_403:\n        /* \"#utility.yul\":19524:19527   */\n      0x00\n        /* \"#utility.yul\":19545:19612   */\n      tag_605\n        /* \"#utility.yul\":19609:19611   */\n      0x26\n        /* \"#utility.yul\":19604:19607   */\n      dup4\n        /* \"#utility.yul\":19545:19612   */\n      tag_393\n      jump\t// in\n    tag_605:\n        /* \"#utility.yul\":19538:19612   */\n      swap2\n      pop\n        /* \"#utility.yul\":19621:19714   */\n      tag_606\n        /* \"#utility.yul\":19710:19713   */\n      dup3\n        /* \"#utility.yul\":19621:19714   */\n      tag_402\n      jump\t// in\n    tag_606:\n        /* \"#utility.yul\":19739:19741   */\n      0x40\n        /* \"#utility.yul\":19734:19737   */\n      dup3\n        /* \"#utility.yul\":19730:19742   */\n      add\n        /* \"#utility.yul\":19723:19742   */\n      swap1\n      pop\n        /* \"#utility.yul\":19382:19748   */\n      swap2\n      swap1\n      pop\n      jump\t// out\n        /* \"#utility.yul\":19754:20173   */\n    tag_156:\n        /* \"#utility.yul\":19920:19924   */\n      0x00\n        /* \"#utility.yul\":19958:19960   */\n      0x20\n        /* \"#utility.yul\":19947:19956   */\n      dup3\n        /* \"#utility.yul\":19943:19961   */\n      add\n        /* \"#utility.yul\":19935:19961   */\n      swap1\n      pop\n        /* \"#utility.yul\":20007:20016   */\n      dup2\n        /* \"#utility.yul\":20001:20005   */\n      dup2\n        /* \"#utility.yul\":19997:20017   */\n      sub\n        /* \"#utility.yul\":19993:19994   */\n      0x00\n        /* \"#utility.yul\":19982:19991   */\n      dup4\n        /* \"#utility.yul\":19978:19995   */\n      add\n        /* \"#utility.yul\":19971:20018   */\n      mstore\n        /* \"#utility.yul\":20035:20166   */\n      tag_608\n        /* \"#utility.yul\":20161:20165   */\n      dup2\n        /* \"#utility.yul\":20035:20166   */\n      tag_403\n      jump\t// in\n    tag_608:\n        /* \"#utility.yul\":20027:20166   */\n      swap1\n      pop\n        /* \"#utility.yul\":19754:20173   */\n      swap2\n      swap1\n      pop\n      jump\t// out\n        /* \"#utility.yul\":20179:20320   */\n    tag_404:\n        /* \"#utility.yul\":20228:20232   */\n      0x00\n        /* \"#utility.yul\":20251:20254   */\n      dup2\n        /* \"#utility.yul\":20243:20254   */\n      swap1\n      pop\n        /* \"#utility.yul\":20274:20277   */\n      dup2\n        /* \"#utility.yul\":20271:20272   */\n      0x00\n        /* \"#utility.yul\":20264:20278   */\n      mstore\n        /* \"#utility.yul\":20308:20312   */\n      0x20\n        /* \"#utility.yul\":20305:20306   */\n      0x00\n        /* \"#utility.yul\":20295:20313   */\n      keccak256\n        /* \"#utility.yul\":20287:20313   */\n      swap1\n      pop\n        /* \"#utility.yul\":20179:20320   */\n      swap2\n      swap1\n      pop\n      jump\t// out\n        /* \"#utility.yul\":20326:20419   */\n    tag_405:\n        /* \"#utility.yul\":20363:20369   */\n      0x00\n        /* \"#utility.yul\":20410:20412   */\n      0x20\n        /* \"#utility.yul\":20405:20407   */\n      0x1f\n        /* \"#utility.yul\":20398:20403   */\n      dup4\n        /* \"#utility.yul\":20394:20408   */\n      add\n        /* \"#utility.yul\":20390:20413   */\n      div\n        /* \"#utility.yul\":20380:20413   */\n      swap1\n      pop\n        /* \"#utility.yul\":20326:20419   */\n      swap2\n      swap1\n      pop\n      jump\t// out\n        /* \"#utility.yul\":20425:20532   */\n    tag_406:\n        /* \"#utility.yul\":20469:20477   */\n      0x00\n        /* \"#utility.yul\":20519:20524   */\n      dup3\n        /* \"#utility.yul\":20513:20517   */\n      dup3\n        /* \"#utility.yul\":20509:20525   */\n      shl\n        /* \"#utility.yul\":20488:20525   */\n      swap1\n      pop\n        /* \"#utility.yul\":20425:20532   */\n      swap3\n      swap2\n      pop\n      pop\n      jump\t// out\n        /* \"#utility.yul\":20538:20931   */\n    tag_407:\n        /* \"#utility.yul\":20607:20613   */\n      0x00\n        /* \"#utility.yul\":20657:20658   */\n      0x08\n        /* \"#utility.yul\":20645:20655   */\n      dup4\n        /* \"#utility.yul\":20641:20659   */\n      mul\n        /* \"#utility.yul\":20680:20777   */\n      tag_613\n        /* \"#utility.yul\":20710:20776   */\n      0xffffffffffffffffffffffffffffffffffffffffffffffffffffffffffffffff\n        /* \"#utility.yul\":20699:20708   */\n      dup3\n        /* \"#utility.yul\":20680:20777   */\n      tag_406\n      jump\t// in\n    tag_613:\n        /* \"#utility.yul\":20798:20837   */\n      tag_614\n        /* \"#utility.yul\":20828:20836   */\n      dup7\n        /* \"#utility.yul\":20817:20826   */\n      dup4\n        /* \"#utility.yul\":20798:20837   */\n      tag_406\n      jump\t// in\n    tag_614:\n        /* \"#utility.yul\":20786:20837   */\n      swap6\n      pop\n        /* \"#utility.yul\":20870:20874   */\n      dup1\n        /* \"#utility.yul\":20866:20875   */\n      not\n        /* \"#utility.yul\":20859:20864   */\n      dup5\n        /* \"#utility.yul\":20855:20876   */\n      and\n        /* \"#utility.yul\":20846:20876   */\n      swap4\n      pop\n        /* \"#utility.yul\":20919:20923   */\n      dup1\n        /* \"#utility.yul\":20909:20917   */\n      dup7\n        /* \"#utility.yul\":20905:20924   */\n      and\n        /* \"#utility.yul\":20898:20903   */\n      dup5\n        /* \"#utility.yul\":20895:20925   */\n      or\n        /* \"#utility.yul\":20885:20925   */\n      swap3\n      pop\n        /* \"#utility.yul\":20614:20931   */\n      pop\n      pop\n        /* \"#utility.yul\":20538:20931   */\n      swap4\n      swap3\n      pop\n      pop\n      pop\n      jump\t// out\n        /* \"#utility.yul\":20937:20997   */\n    tag_408:\n        /* \"#utility.yul\":20965:20968   */\n      0x00\n        /* \"#utility.yul\":20986:20991   */\n      dup2\n        /* \"#utility.yul\":20979:20991   */\n      swap1\n      pop\n        /* \"#utility.yul\":20937:20997   */\n      swap2\n      swap1\n      pop\n      jump\t// out\n        /* \"#utility.yul\":21003:21145   */\n    tag_409:\n        /* \"#utility.yul\":21053:21062   */\n      0x00\n        /* \"#utility.yul\":21086:21139   */\n      tag_617\n        /* \"#utility.yul\":21104:21138   */\n      tag_618\n        /* \"#utility.yul\":21113:21137   */\n      tag_619\n        /* \"#utility.yul\":21131:21136   */\n      dup5\n        /* \"#utility.yul\":21113:21137   */\n      tag_351\n      jump\t// in\n    tag_619:\n        /* \"#utility.yul\":21104:21138   */\n      tag_408\n      jump\t// in\n    tag_618:\n        /* \"#utility.yul\":21086:21139   */\n      tag_351\n      jump\t// in\n    tag_617:\n        /* \"#utility.yul\":21073:21139   */\n      swap1\n      pop\n        /* \"#utility.yul\":21003:21145   */\n      swap2\n      swap1\n      pop\n      jump\t// out\n        /* \"#utility.yul\":21151:21226   */\n    tag_410:\n        /* \"#utility.yul\":21194:21197   */\n      0x00\n        /* \"#utility.yul\":21215:21220   */\n      dup2\n        /* \"#utility.yul\":21208:21220   */\n      swap1\n      pop\n        /* \"#utility.yul\":21151:21226   */\n      swap2\n      swap1\n      pop\n      jump\t// out\n        /* \"#utility.yul\":21232:21501   */\n    tag_411:\n        /* \"#utility.yul\":21342:21381   */\n      tag_622\n        /* \"#utility.yul\":21373:21380   */\n      dup4\n        /* \"#utility.yul\":21342:21381   */\n      tag_409\n      jump\t// in\n    tag_622:\n        /* \"#utility.yul\":21403:21494   */\n      tag_623\n        /* \"#utility.yul\":21452:21493   */\n      tag_624\n        /* \"#utility.yul\":21476:21492   */\n      dup3\n        /* \"#utility.yul\":21452:21493   */\n      tag_410\n      jump\t// in\n    tag_624:\n        /* \"#utility.yul\":21444:21450   */\n      dup5\n        /* \"#utility.yul\":21437:21441   */\n      dup5\n        /* \"#utility.yul\":21431:21442   */\n      sload\n        /* \"#utility.yul\":21403:21494   */\n      tag_407\n      jump\t// in\n    tag_623:\n        /* \"#utility.yul\":21397:21401   */\n      dup3\n        /* \"#utility.yul\":21390:21495   */\n      sstore\n        /* \"#utility.yul\":21308:21501   */\n      pop\n        /* \"#utility.yul\":21232:21501   */\n      pop\n      pop\n      pop\n      jump\t// out\n        /* \"#utility.yul\":21507:21580   */\n    tag_412:\n        /* \"#utility.yul\":21552:21555   */\n      0x00\n        /* \"#utility.yul\":21573:21574   */\n      0x00\n        /* \"#utility.yul\":21566:21574   */\n      swap1\n      pop\n        /* \"#utility.yul\":21507:21580   */\n      swap1\n      jump\t// out\n        /* \"#utility.yul\":21586:21775   */\n    tag_413:\n        /* \"#utility.yul\":21663:21695   */\n      tag_627\n      tag_412\n      jump\t// in\n    tag_627:\n        /* \"#utility.yul\":21704:21769   */\n      tag_628\n        /* \"#utility.yul\":21762:21768   */\n      dup2\n        /* \"#utility.yul\":21754:21760   */\n      dup5\n        /* \"#utility.yul\":21748:21752   */\n      dup5\n        /* \"#utility.yul\":21704:21769   */\n      tag_411\n      jump\t// in\n    tag_628:\n        /* \"#utility.yul\":21639:21775   */\n      pop\n        /* \"#utility.yul\":21586:21775   */\n      pop\n      pop\n      jump\t// out\n        /* \"#utility.yul\":21781:21967   */\n    tag_414:\n        /* \"#utility.yul\":21841:21961   */\n    tag_630:\n        /* \"#utility.yul\":21858:21861   */\n      dup2\n        /* \"#utility.yul\":21851:21856   */\n      dup2\n        /* \"#utility.yul\":21848:21862   */\n      lt\n        /* \"#utility.yul\":21841:21961   */\n      iszero\n      tag_632\n      jumpi\n        /* \"#utility.yul\":21912:21951   */\n      tag_633\n        /* \"#utility.yul\":21949:21950   */\n      0x00\n        /* \"#utility.yul\":21942:21947   */\n      dup3\n        /* \"#utility.yul\":21912:21951   */\n      tag_413\n      jump\t// in\n    tag_633:\n        /* \"#utility.yul\":21885:21886   */\n      0x01\n        /* \"#utility.yul\":21878:21883   */\n      dup2\n        /* \"#utility.yul\":21874:21887   */\n      add\n        /* \"#utility.yul\":21865:21887   */\n      swap1\n      pop\n        /* \"#utility.yul\":21841:21961   */\n      jump(tag_630)\n    tag_632:\n        /* \"#utility.yul\":21781:21967   */\n      pop\n      pop\n      jump\t// out\n        /* \"#utility.yul\":21973:22516   */\n    tag_415:\n        /* \"#utility.yul\":22074:22076   */\n      0x1f\n        /* \"#utility.yul\":22069:22072   */\n      dup3\n        /* \"#utility.yul\":22066:22077   */\n      gt\n        /* \"#utility.yul\":22063:22509   */\n      iszero\n      tag_635\n      jumpi\n        /* \"#utility.yul\":22108:22146   */\n      tag_636\n        /* \"#utility.yul\":22140:22145   */\n      dup2\n        /* \"#utility.yul\":22108:22146   */\n      tag_404\n      jump\t// in\n    tag_636:\n        /* \"#utility.yul\":22192:22221   */\n      tag_637\n        /* \"#utility.yul\":22210:22220   */\n      dup5\n        /* \"#utility.yul\":22192:22221   */\n      tag_405\n      jump\t// in\n    tag_637:\n        /* \"#utility.yul\":22182:22190   */\n      dup2\n        /* \"#utility.yul\":22178:22222   */\n      add\n        /* \"#utility.yul\":22375:22377   */\n      0x20\n        /* \"#utility.yul\":22363:22373   */\n      dup6\n        /* \"#utility.yul\":22360:22378   */\n      lt\n        /* \"#utility.yul\":22357:22406   */\n      iszero\n      tag_638\n      jumpi\n        /* \"#utility.yul\":22396:22404   */\n      dup2\n        /* \"#utility.yul\":22381:22404   */\n      swap1\n      pop\n        /* \"#utility.yul\":22357:22406   */\n    tag_638:\n        /* \"#utility.yul\":22419:22499   */\n      tag_639\n        /* \"#utility.yul\":22475:22497   */\n      tag_640\n        /* \"#utility.yul\":22493:22496   */\n      dup6\n        /* \"#utility.yul\":22475:22497   */\n      tag_405\n      jump\t// in\n    tag_640:\n        /* \"#utility.yul\":22465:22473   */\n      dup4\n        /* \"#utility.yul\":22461:22498   */\n      add\n        /* \"#utility.yul\":22448:22459   */\n      dup3\n        /* \"#utility.yul\":22419:22499   */\n      tag_414\n      jump\t// in\n    tag_639:\n        /* \"#utility.yul\":22078:22509   */\n      pop\n      pop\n        /* \"#utility.yul\":22063:22509   */\n    tag_635:\n        /* \"#utility.yul\":21973:22516   */\n      pop\n      pop\n      pop\n      jump\t// out\n        /* \"#utility.yul\":22522:22639   */\n    tag_416:\n        /* \"#utility.yul\":22576:22584   */\n      0x00\n        /* \"#utility.yul\":22626:22631   */\n      dup3\n        /* \"#utility.yul\":22620:22624   */\n      dup3\n        /* \"#utility.yul\":22616:22632   */\n      shr\n        /* \"#utility.yul\":22595:22632   */\n      swap1\n      pop\n        /* \"#utility.yul\":22522:22639   */\n      swap3\n      swap2\n      pop\n      pop\n      jump\t// out\n        /* \"#utility.yul\":22645:22814   */\n    tag_417:\n        /* \"#utility.yul\":22689:22695   */\n      0x00\n        /* \"#utility.yul\":22722:22773   */\n      tag_643\n        /* \"#utility.yul\":22770:22771   */\n      0x00\n        /* \"#utility.yul\":22766:22772   */\n      not\n        /* \"#utility.yul\":22758:22763   */\n      dup5\n        /* \"#utility.yul\":22755:22756   */\n      0x08\n        /* \"#utility.yul\":22751:22764   */\n      mul\n        /* \"#utility.yul\":22722:22773   */\n      tag_416\n      jump\t// in\n    tag_643:\n        /* \"#utility.yul\":22718:22774   */\n      not\n        /* \"#utility.yul\":22803:22807   */\n      dup1\n        /* \"#utility.yul\":22797:22801   */\n      dup4\n        /* \"#utility.yul\":22793:22808   */\n      and\n        /* \"#utility.yul\":22783:22808   */\n      swap2\n      pop\n        /* \"#utility.yul\":22696:22814   */\n      pop\n        /* \"#utility.yul\":22645:22814   */\n      swap3\n      swap2\n      pop\n      pop\n      jump\t// out\n        /* \"#utility.yul\":22819:23114   */\n    tag_418:\n        /* \"#utility.yul\":22895:22899   */\n      0x00\n        /* \"#utility.yul\":23041:23070   */\n      tag_645\n        /* \"#utility.yul\":23066:23069   */\n      dup4\n        /* \"#utility.yul\":23060:23064   */\n      dup4\n        /* \"#utility.yul\":23041:23070   */\n      tag_417\n      jump\t// in\n    tag_645:\n        /* \"#utility.yul\":23033:23070   */\n      swap2\n      pop\n        /* \"#utility.yul\":23103:23106   */\n      dup3\n        /* \"#utility.yul\":23100:23101   */\n      0x02\n        /* \"#utility.yul\":23096:23107   */\n      mul\n        /* \"#utility.yul\":23090:23094   */\n      dup3\n        /* \"#utility.yul\":23087:23108   */\n      or\n        /* \"#utility.yul\":23079:23108   */\n      swap1\n      pop\n        /* \"#utility.yul\":22819:23114   */\n      swap3\n      swap2\n      pop\n      pop\n      jump\t// out\n        /* \"#utility.yul\":23119:24514   */\n    tag_159:\n        /* \"#utility.yul\":23236:23273   */\n      tag_647\n        /* \"#utility.yul\":23269:23272   */\n      dup3\n        /* \"#utility.yul\":23236:23273   */\n      tag_364\n      jump\t// in\n    tag_647:\n        /* \"#utility.yul\":23338:23356   */\n      0xffffffffffffffff\n        /* \"#utility.yul\":23330:23336   */\n      dup2\n        /* \"#utility.yul\":23327:23357   */\n      gt\n        /* \"#utility.yul\":23324:23380   */\n      iszero\n      tag_648\n      jumpi\n        /* \"#utility.yul\":23360:23378   */\n      tag_649\n      tag_133\n      jump\t// in\n    tag_649:\n        /* \"#utility.yul\":23324:23380   */\n    tag_648:\n        /* \"#utility.yul\":23404:23442   */\n      tag_650\n        /* \"#utility.yul\":23436:23440   */\n      dup3\n        /* \"#utility.yul\":23430:23441   */\n      sload\n        /* \"#utility.yul\":23404:23442   */\n      tag_113\n      jump\t// in\n    tag_650:\n        /* \"#utility.yul\":23489:23556   */\n      tag_651\n        /* \"#utility.yul\":23549:23555   */\n      dup3\n        /* \"#utility.yul\":23541:23547   */\n      dup3\n        /* \"#utility.yul\":23535:23539   */\n      dup6\n        /* \"#utility.yul\":23489:23556   */\n      tag_415\n      jump\t// in\n    tag_651:\n        /* \"#utility.yul\":23583:23584   */\n      0x00\n        /* \"#utility.yul\":23607:23611   */\n      0x20\n        /* \"#utility.yul\":23594:23611   */\n      swap1\n      pop\n        /* \"#utility.yul\":23639:23641   */\n      0x1f\n        /* \"#utility.yul\":23631:23637   */\n      dup4\n        /* \"#utility.yul\":23628:23642   */\n      gt\n        /* \"#utility.yul\":23656:23657   */\n      0x01\n        /* \"#utility.yul\":23651:24269   */\n      dup2\n      eq\n      tag_653\n      jumpi\n        /* \"#utility.yul\":24313:24314   */\n      0x00\n        /* \"#utility.yul\":24330:24336   */\n      dup5\n        /* \"#utility.yul\":24327:24404   */\n      iszero\n      tag_654\n      jumpi\n        /* \"#utility.yul\":24379:24388   */\n      dup3\n        /* \"#utility.yul\":24374:24377   */\n      dup8\n        /* \"#utility.yul\":24370:24389   */\n      add\n        /* \"#utility.yul\":24364:24390   */\n      mload\n        /* \"#utility.yul\":24355:24390   */\n      swap1\n      pop\n        /* \"#utility.yul\":24327:24404   */\n    tag_654:\n        /* \"#utility.yul\":24430:24497   */\n      tag_655\n        /* \"#utility.yul\":24490:24496   */\n      dup6\n        /* \"#utility.yul\":24483:24488   */\n      dup3\n        /* \"#utility.yul\":24430:24497   */\n      tag_418\n      jump\t// in\n    tag_655:\n        /* \"#utility.yul\":24424:24428   */\n      dup7\n        /* \"#utility.yul\":24417:24498   */\n      sstore\n        /* \"#utility.yul\":24286:24508   */\n      pop\n        /* \"#utility.yul\":23621:24508   */\n      jump(tag_652)\n        /* \"#utility.yul\":23651:24269   */\n    tag_653:\n        /* \"#utility.yul\":23703:23707   */\n      0x1f\n        /* \"#utility.yul\":23699:23708   */\n      not\n        /* \"#utility.yul\":23691:23697   */\n      dup5\n        /* \"#utility.yul\":23687:23709   */\n      and\n        /* \"#utility.yul\":23737:23774   */\n      tag_656\n        /* \"#utility.yul\":23769:23773   */\n      dup7\n        /* \"#utility.yul\":23737:23774   */\n      tag_404\n      jump\t// in\n    tag_656:\n        /* \"#utility.yul\":23796:23797   */\n      0x00\n        /* \"#utility.yul\":23810:24018   */\n    tag_657:\n        /* \"#utility.yul\":23824:23831   */\n      dup3\n        /* \"#utility.yul\":23821:23822   */\n      dup2\n        /* \"#utility.yul\":23818:23832   */\n      lt\n        /* \"#utility.yul\":23810:24018   */\n      iszero\n      tag_659\n      jumpi\n        /* \"#utility.yul\":23903:23912   */\n      dup5\n        /* \"#utility.yul\":23898:23901   */\n      dup10\n        /* \"#utility.yul\":23894:23913   */\n      add\n        /* \"#utility.yul\":23888:23914   */\n      mload\n        /* \"#utility.yul\":23880:23886   */\n      dup3\n        /* \"#utility.yul\":23873:23915   */\n      sstore\n        /* \"#utility.yul\":23954:23955   */\n      0x01\n        /* \"#utility.yul\":23946:23952   */\n      dup3\n        /* \"#utility.yul\":23942:23956   */\n      add\n        /* \"#utility.yul\":23932:23956   */\n      swap2\n      pop\n        /* \"#utility.yul\":24001:24003   */\n      0x20\n        /* \"#utility.yul\":23990:23999   */\n      dup6\n        /* \"#utility.yul\":23986:24004   */\n      add\n        /* \"#utility.yul\":23973:24004   */\n      swap5\n      pop\n        /* \"#utility.yul\":23847:23851   */\n      0x20\n        /* \"#utility.yul\":23844:23845   */\n      dup2\n        /* \"#utility.yul\":23840:23852   */\n      add\n        /* \"#utility.yul\":23835:23852   */\n      swap1\n      pop\n        /* \"#utility.yul\":23810:24018   */\n      jump(tag_657)\n    tag_659:\n        /* \"#utility.yul\":24046:24052   */\n      dup7\n        /* \"#utility.yul\":24037:24044   */\n      dup4\n        /* \"#utility.yul\":24034:24053   */\n      lt\n        /* \"#utility.yul\":24031:24210   */\n      iszero\n      tag_660\n      jumpi\n        /* \"#utility.yul\":24104:24113   */\n      dup5\n        /* \"#utility.yul\":24099:24102   */\n      dup10\n        /* \"#utility.yul\":24095:24114   */\n      add\n        /* \"#utility.yul\":24089:24115   */\n      mload\n        /* \"#utility.yul\":24147:24195   */\n      tag_661\n        /* \"#utility.yul\":24189:24193   */\n      0x1f\n        /* \"#utility.yul\":24181:24187   */\n      dup10\n        /* \"#utility.yul\":24177:24194   */\n      and\n        /* \"#utility.yul\":24166:24175   */\n      dup3\n        /* \"#utility.yul\":24147:24195   */\n      tag_417\n      jump\t// in\n    tag_661:\n        /* \"#utility.yul\":24139:24145   */\n      dup4\n        /* \"#utility.yul\":24132:24196   */\n      sstore\n        /* \"#utility.yul\":24054:24210   */\n      pop\n        /* \"#utility.yul\":24031:24210   */\n    tag_660:\n        /* \"#utility.yul\":24256:24257   */\n      0x01\n        /* \"#utility.yul\":24252:24253   */\n      0x02\n        /* \"#utility.yul\":24244:24250   */\n      dup9\n        /* \"#utility.yul\":24240:24254   */\n      mul\n        /* \"#utility.yul\":24236:24258   */\n      add\n        /* \"#utility.yul\":24230:24234   */\n      dup9\n        /* \"#utility.yul\":24223:24259   */\n      sstore\n        /* \"#utility.yul\":23658:24269   */\n      pop\n      pop\n      pop\n        /* \"#utility.yul\":23621:24508   */\n    tag_652:\n      pop\n        /* \"#utility.yul\":23211:24514   */\n      pop\n      pop\n      pop\n        /* \"#utility.yul\":23119:24514   */\n      pop\n      pop\n      jump\t// out\n        /* \"#utility.yul\":24520:24758   */\n    tag_419:\n        /* \"#utility.yul\":24660:24694   */\n      0x50726f706f73616c7320726567697374726174696f6e206e6f74207374617274\n        /* \"#utility.yul\":24656:24657   */\n      0x00\n        /* \"#utility.yul\":24648:24654   */\n      dup3\n        /* \"#utility.yul\":24644:24658   */\n      add\n        /* \"#utility.yul\":24637:24695   */\n      mstore\n        /* \"#utility.yul\":24729:24750   */\n      0x656420666f7220746869732073657373696f6e00000000000000000000000000\n        /* \"#utility.yul\":24724:24726   */\n      0x20\n        /* \"#utility.yul\":24716:24722   */\n      dup3\n        /* \"#utility.yul\":24712:24727   */\n      add\n        /* \"#utility.yul\":24705:24751   */\n      mstore\n        /* \"#utility.yul\":24520:24758   */\n      pop\n      jump\t// out\n        /* \"#utility.yul\":24764:25130   */\n    tag_420:\n        /* \"#utility.yul\":24906:24909   */\n      0x00\n        /* \"#utility.yul\":24927:24994   */\n      tag_664\n        /* \"#utility.yul\":24991:24993   */\n      0x33\n        /* \"#utility.yul\":24986:24989   */\n      dup4\n        /* \"#utility.yul\":24927:24994   */\n      tag_393\n      jump\t// in\n    tag_664:\n        /* \"#utility.yul\":24920:24994   */\n      swap2\n      pop\n        /* \"#utility.yul\":25003:25096   */\n      tag_665\n        /* \"#utility.yul\":25092:25095   */\n      dup3\n        /* \"#utility.yul\":25003:25096   */\n      tag_419\n      jump\t// in\n    tag_665:\n        /* \"#utility.yul\":25121:25123   */\n      0x40\n        /* \"#utility.yul\":25116:25119   */\n      dup3\n        /* \"#utility.yul\":25112:25124   */\n      add\n        /* \"#utility.yul\":25105:25124   */\n      swap1\n      pop\n        /* \"#utility.yul\":24764:25130   */\n      swap2\n      swap1\n      pop\n      jump\t// out\n        /* \"#utility.yul\":25136:25555   */\n    tag_194:\n        /* \"#utility.yul\":25302:25306   */\n      0x00\n        /* \"#utility.yul\":25340:25342   */\n      0x20\n        /* \"#utility.yul\":25329:25338   */\n      dup3\n        /* \"#utility.yul\":25325:25343   */\n      add\n        /* \"#utility.yul\":25317:25343   */\n      swap1\n      pop\n        /* \"#utility.yul\":25389:25398   */\n      dup2\n        /* \"#utility.yul\":25383:25387   */\n      dup2\n        /* \"#utility.yul\":25379:25399   */\n      sub\n        /* \"#utility.yul\":25375:25376   */\n      0x00\n        /* \"#utility.yul\":25364:25373   */\n      dup4\n        /* \"#utility.yul\":25360:25377   */\n      add\n        /* \"#utility.yul\":25353:25400   */\n      mstore\n        /* \"#utility.yul\":25417:25548   */\n      tag_667\n        /* \"#utility.yul\":25543:25547   */\n      dup2\n        /* \"#utility.yul\":25417:25548   */\n      tag_420\n      jump\t// in\n    tag_667:\n        /* \"#utility.yul\":25409:25548   */\n      swap1\n      pop\n        /* \"#utility.yul\":25136:25555   */\n      swap2\n      swap1\n      pop\n      jump\t// out\n        /* \"#utility.yul\":25561:25953   */\n    tag_198:\n        /* \"#utility.yul\":25712:25716   */\n      0x00\n        /* \"#utility.yul\":25750:25752   */\n      0x40\n        /* \"#utility.yul\":25739:25748   */\n      dup3\n        /* \"#utility.yul\":25735:25753   */\n      add\n        /* \"#utility.yul\":25727:25753   */\n      swap1\n      pop\n        /* \"#utility.yul\":25763:25849   */\n      tag_669\n        /* \"#utility.yul\":25846:25847   */\n      0x00\n        /* \"#utility.yul\":25835:25844   */\n      dup4\n        /* \"#utility.yul\":25831:25848   */\n      add\n        /* \"#utility.yul\":25822:25828   */\n      dup6\n        /* \"#utility.yul\":25763:25849   */\n      tag_357\n      jump\t// in\n    tag_669:\n        /* \"#utility.yul\":25859:25946   */\n      tag_670\n        /* \"#utility.yul\":25942:25944   */\n      0x20\n        /* \"#utility.yul\":25931:25940   */\n      dup4\n        /* \"#utility.yul\":25927:25945   */\n      add\n        /* \"#utility.yul\":25918:25924   */\n      dup5\n        /* \"#utility.yul\":25859:25946   */\n      tag_357\n      jump\t// in\n    tag_670:\n        /* \"#utility.yul\":25561:25953   */\n      swap4\n      swap3\n      pop\n      pop\n      pop\n      jump\t// out\n        /* \"#utility.yul\":25959:26138   */\n    tag_421:\n        /* \"#utility.yul\":26099:26130   */\n      0x566f74657220697320616c726561647920756e72656769737465726564000000\n        /* \"#utility.yul\":26095:26096   */\n      0x00\n        /* \"#utility.yul\":26087:26093   */\n      dup3\n        /* \"#utility.yul\":26083:26097   */\n      add\n        /* \"#utility.yul\":26076:26131   */\n      mstore\n        /* \"#utility.yul\":25959:26138   */\n      pop\n      jump\t// out\n        /* \"#utility.yul\":26144:26510   */\n    tag_422:\n        /* \"#utility.yul\":26286:26289   */\n      0x00\n        /* \"#utility.yul\":26307:26374   */\n      tag_673\n        /* \"#utility.yul\":26371:26373   */\n      0x1d\n        /* \"#utility.yul\":26366:26369   */\n      dup4\n        /* \"#utility.yul\":26307:26374   */\n      tag_393\n      jump\t// in\n    tag_673:\n        /* \"#utility.yul\":26300:26374   */\n      swap2\n      pop\n        /* \"#utility.yul\":26383:26476   */\n      tag_674\n        /* \"#utility.yul\":26472:26475   */\n      dup3\n        /* \"#utility.yul\":26383:26476   */\n      tag_421\n      jump\t// in\n    tag_674:\n        /* \"#utility.yul\":26501:26503   */\n      0x20\n        /* \"#utility.yul\":26496:26499   */\n      dup3\n        /* \"#utility.yul\":26492:26504   */\n      add\n        /* \"#utility.yul\":26485:26504   */\n      swap1\n      pop\n        /* \"#utility.yul\":26144:26510   */\n      swap2\n      swap1\n      pop\n      jump\t// out\n        /* \"#utility.yul\":26516:26935   */\n    tag_215:\n        /* \"#utility.yul\":26682:26686   */\n      0x00\n        /* \"#utility.yul\":26720:26722   */\n      0x20\n        /* \"#utility.yul\":26709:26718   */\n      dup3\n        /* \"#utility.yul\":26705:26723   */\n      add\n        /* \"#utility.yul\":26697:26723   */\n      swap1\n      pop\n        /* \"#utility.yul\":26769:26778   */\n      dup2\n        /* \"#utility.yul\":26763:26767   */\n      dup2\n        /* \"#utility.yul\":26759:26779   */\n      sub\n        /* \"#utility.yul\":26755:26756   */\n      0x00\n        /* \"#utility.yul\":26744:26753   */\n      dup4\n        /* \"#utility.yul\":26740:26757   */\n      add\n        /* \"#utility.yul\":26733:26780   */\n      mstore\n        /* \"#utility.yul\":26797:26928   */\n      tag_676\n        /* \"#utility.yul\":26923:26927   */\n      dup2\n        /* \"#utility.yul\":26797:26928   */\n      tag_422\n      jump\t// in\n    tag_676:\n        /* \"#utility.yul\":26789:26928   */\n      swap1\n      pop\n        /* \"#utility.yul\":26516:26935   */\n      swap2\n      swap1\n      pop\n      jump\t// out\n        /* \"#utility.yul\":26941:27115   */\n    tag_423:\n        /* \"#utility.yul\":27081:27107   */\n      0x566f74696e672073657373696f6e206e6f7420656e6465640000000000000000\n        /* \"#utility.yul\":27077:27078   */\n      0x00\n        /* \"#utility.yul\":27069:27075   */\n      dup3\n        /* \"#utility.yul\":27065:27079   */\n      add\n        /* \"#utility.yul\":27058:27108   */\n      mstore\n        /* \"#utility.yul\":26941:27115   */\n      pop\n      jump\t// out\n        /* \"#utility.yul\":27121:27487   */\n    tag_424:\n        /* \"#utility.yul\":27263:27266   */\n      0x00\n        /* \"#utility.yul\":27284:27351   */\n      tag_679\n        /* \"#utility.yul\":27348:27350   */\n      0x18\n        /* \"#utility.yul\":27343:27346   */\n      dup4\n        /* \"#utility.yul\":27284:27351   */\n      tag_393\n      jump\t// in\n    tag_679:\n        /* \"#utility.yul\":27277:27351   */\n      swap2\n      pop\n        /* \"#utility.yul\":27360:27453   */\n      tag_680\n        /* \"#utility.yul\":27449:27452   */\n      dup3\n        /* \"#utility.yul\":27360:27453   */\n      tag_423\n      jump\t// in\n    tag_680:\n        /* \"#utility.yul\":27478:27480   */\n      0x20\n        /* \"#utility.yul\":27473:27476   */\n      dup3\n        /* \"#utility.yul\":27469:27481   */\n      add\n        /* \"#utility.yul\":27462:27481   */\n      swap1\n      pop\n        /* \"#utility.yul\":27121:27487   */\n      swap2\n      swap1\n      pop\n      jump\t// out\n        /* \"#utility.yul\":27493:27912   */\n    tag_224:\n        /* \"#utility.yul\":27659:27663   */\n      0x00\n        /* \"#utility.yul\":27697:27699   */\n      0x20\n        /* \"#utility.yul\":27686:27695   */\n      dup3\n        /* \"#utility.yul\":27682:27700   */\n      add\n        /* \"#utility.yul\":27674:27700   */\n      swap1\n      pop\n        /* \"#utility.yul\":27746:27755   */\n      dup2\n        /* \"#utility.yul\":27740:27744   */\n      dup2\n        /* \"#utility.yul\":27736:27756   */\n      sub\n        /* \"#utility.yul\":27732:27733   */\n      0x00\n        /* \"#utility.yul\":27721:27730   */\n      dup4\n        /* \"#utility.yul\":27717:27734   */\n      add\n        /* \"#utility.yul\":27710:27757   */\n      mstore\n        /* \"#utility.yul\":27774:27905   */\n      tag_682\n        /* \"#utility.yul\":27900:27904   */\n      dup2\n        /* \"#utility.yul\":27774:27905   */\n      tag_424\n      jump\t// in\n    tag_682:\n        /* \"#utility.yul\":27766:27905   */\n      swap1\n      pop\n        /* \"#utility.yul\":27493:27912   */\n      swap2\n      swap1\n      pop\n      jump\t// out\n        /* \"#utility.yul\":27918:28097   */\n    tag_425:\n        /* \"#utility.yul\":28058:28089   */\n      0x546869732073657373696f6e20686173206e6f2070726f706f73616c73000000\n        /* \"#utility.yul\":28054:28055   */\n      0x00\n        /* \"#utility.yul\":28046:28052   */\n      dup3\n        /* \"#utility.yul\":28042:28056   */\n      add\n        /* \"#utility.yul\":28035:28090   */\n      mstore\n        /* \"#utility.yul\":27918:28097   */\n      pop\n      jump\t// out\n        /* \"#utility.yul\":28103:28469   */\n    tag_426:\n        /* \"#utility.yul\":28245:28248   */\n      0x00\n        /* \"#utility.yul\":28266:28333   */\n      tag_685\n        /* \"#utility.yul\":28330:28332   */\n      0x1d\n        /* \"#utility.yul\":28325:28328   */\n      dup4\n        /* \"#utility.yul\":28266:28333   */\n      tag_393\n      jump\t// in\n    tag_685:\n        /* \"#utility.yul\":28259:28333   */\n      swap2\n      pop\n        /* \"#utility.yul\":28342:28435   */\n      tag_686\n        /* \"#utility.yul\":28431:28434   */\n      dup3\n        /* \"#utility.yul\":28342:28435   */\n      tag_425\n      jump\t// in\n    tag_686:\n        /* \"#utility.yul\":28460:28462   */\n      0x20\n        /* \"#utility.yul\":28455:28458   */\n      dup3\n        /* \"#utility.yul\":28451:28463   */\n      add\n        /* \"#utility.yul\":28444:28463   */\n      swap1\n      pop\n        /* \"#utility.yul\":28103:28469   */\n      swap2\n      swap1\n      pop\n      jump\t// out\n        /* \"#utility.yul\":28475:28894   */\n    tag_227:\n        /* \"#utility.yul\":28641:28645   */\n      0x00\n        /* \"#utility.yul\":28679:28681   */\n      0x20\n        /* \"#utility.yul\":28668:28677   */\n      dup3\n        /* \"#utility.yul\":28664:28682   */\n      add\n        /* \"#utility.yul\":28656:28682   */\n      swap1\n      pop\n        /* \"#utility.yul\":28728:28737   */\n      dup2\n        /* \"#utility.yul\":28722:28726   */\n      dup2\n        /* \"#utility.yul\":28718:28738   */\n      sub\n        /* \"#utility.yul\":28714:28715   */\n      0x00\n        /* \"#utility.yul\":28703:28712   */\n      dup4\n        /* \"#utility.yul\":28699:28716   */\n      add\n        /* \"#utility.yul\":28692:28739   */\n      mstore\n        /* \"#utility.yul\":28756:28887   */\n      tag_688\n        /* \"#utility.yul\":28882:28886   */\n      dup2\n        /* \"#utility.yul\":28756:28887   */\n      tag_426\n      jump\t// in\n    tag_688:\n        /* \"#utility.yul\":28748:28887   */\n      swap1\n      pop\n        /* \"#utility.yul\":28475:28894   */\n      swap2\n      swap1\n      pop\n      jump\t// out\n        /* \"#utility.yul\":28900:29080   */\n    tag_233:\n        /* \"#utility.yul\":28948:29025   */\n      0x4e487b7100000000000000000000000000000000000000000000000000000000\n        /* \"#utility.yul\":28945:28946   */\n      0x00\n        /* \"#utility.yul\":28938:29026   */\n      mstore\n        /* \"#utility.yul\":29045:29049   */\n      0x32\n        /* \"#utility.yul\":29042:29043   */\n      0x04\n        /* \"#utility.yul\":29035:29050   */\n      mstore\n        /* \"#utility.yul\":29069:29073   */\n      0x24\n        /* \"#utility.yul\":29066:29067   */\n      0x00\n        /* \"#utility.yul\":29059:29074   */\n      revert\n        /* \"#utility.yul\":29086:29262   */\n    tag_427:\n        /* \"#utility.yul\":29226:29254   */\n      0x566f74696e672073657373696f6e206e6f742073746172746564000000000000\n        /* \"#utility.yul\":29222:29223   */\n      0x00\n        /* \"#utility.yul\":29214:29220   */\n      dup3\n        /* \"#utility.yul\":29210:29224   */\n      add\n        /* \"#utility.yul\":29203:29255   */\n      mstore\n        /* \"#utility.yul\":29086:29262   */\n      pop\n      jump\t// out\n        /* \"#utility.yul\":29268:29634   */\n    tag_428:\n        /* \"#utility.yul\":29410:29413   */\n      0x00\n        /* \"#utility.yul\":29431:29498   */\n      tag_692\n        /* \"#utility.yul\":29495:29497   */\n      0x1a\n        /* \"#utility.yul\":29490:29493   */\n      dup4\n        /* \"#utility.yul\":29431:29498   */\n      tag_393\n      jump\t// in\n    tag_692:\n        /* \"#utility.yul\":29424:29498   */\n      swap2\n      pop\n        /* \"#utility.yul\":29507:29600   */\n      tag_693\n        /* \"#utility.yul\":29596:29599   */\n      dup3\n        /* \"#utility.yul\":29507:29600   */\n      tag_427\n      jump\t// in\n    tag_693:\n        /* \"#utility.yul\":29625:29627   */\n      0x20\n        /* \"#utility.yul\":29620:29623   */\n      dup3\n        /* \"#utility.yul\":29616:29628   */\n      add\n        /* \"#utility.yul\":29609:29628   */\n      swap1\n      pop\n        /* \"#utility.yul\":29268:29634   */\n      swap2\n      swap1\n      pop\n      jump\t// out\n        /* \"#utility.yul\":29640:30059   */\n    tag_255:\n        /* \"#utility.yul\":29806:29810   */\n      0x00\n        /* \"#utility.yul\":29844:29846   */\n      0x20\n        /* \"#utility.yul\":29833:29842   */\n      dup3\n        /* \"#utility.yul\":29829:29847   */\n      add\n        /* \"#utility.yul\":29821:29847   */\n      swap1\n      pop\n        /* \"#utility.yul\":29893:29902   */\n      dup2\n        /* \"#utility.yul\":29887:29891   */\n      dup2\n        /* \"#utility.yul\":29883:29903   */\n      sub\n        /* \"#utility.yul\":29879:29880   */\n      0x00\n        /* \"#utility.yul\":29868:29877   */\n      dup4\n        /* \"#utility.yul\":29864:29881   */\n      add\n        /* \"#utility.yul\":29857:29904   */\n      mstore\n        /* \"#utility.yul\":29921:30052   */\n      tag_695\n        /* \"#utility.yul\":30047:30051   */\n      dup2\n        /* \"#utility.yul\":29921:30052   */\n      tag_428\n      jump\t// in\n    tag_695:\n        /* \"#utility.yul\":29913:30052   */\n      swap1\n      pop\n        /* \"#utility.yul\":29640:30059   */\n      swap2\n      swap1\n      pop\n      jump\t// out\n        /* \"#utility.yul\":30065:30234   */\n    tag_429:\n        /* \"#utility.yul\":30205:30226   */\n      0x496e76616c69642070726f706f73616c20496400000000000000000000000000\n        /* \"#utility.yul\":30201:30202   */\n      0x00\n        /* \"#utility.yul\":30193:30199   */\n      dup3\n        /* \"#utility.yul\":30189:30203   */\n      add\n        /* \"#utility.yul\":30182:30227   */\n      mstore\n        /* \"#utility.yul\":30065:30234   */\n      pop\n      jump\t// out\n        /* \"#utility.yul\":30240:30606   */\n    tag_430:\n        /* \"#utility.yul\":30382:30385   */\n      0x00\n        /* \"#utility.yul\":30403:30470   */\n      tag_698\n        /* \"#utility.yul\":30467:30469   */\n      0x13\n        /* \"#utility.yul\":30462:30465   */\n      dup4\n        /* \"#utility.yul\":30403:30470   */\n      tag_393\n      jump\t// in\n    tag_698:\n        /* \"#utility.yul\":30396:30470   */\n      swap2\n      pop\n        /* \"#utility.yul\":30479:30572   */\n      tag_699\n        /* \"#utility.yul\":30568:30571   */\n      dup3\n        /* \"#utility.yul\":30479:30572   */\n      tag_429\n      jump\t// in\n    tag_699:\n        /* \"#utility.yul\":30597:30599   */\n      0x20\n        /* \"#utility.yul\":30592:30595   */\n      dup3\n        /* \"#utility.yul\":30588:30600   */\n      add\n        /* \"#utility.yul\":30581:30600   */\n      swap1\n      pop\n        /* \"#utility.yul\":30240:30606   */\n      swap2\n      swap1\n      pop\n      jump\t// out\n        /* \"#utility.yul\":30612:31031   */\n    tag_271:\n        /* \"#utility.yul\":30778:30782   */\n      0x00\n        /* \"#utility.yul\":30816:30818   */\n      0x20\n        /* \"#utility.yul\":30805:30814   */\n      dup3\n        /* \"#utility.yul\":30801:30819   */\n      add\n        /* \"#utility.yul\":30793:30819   */\n      swap1\n      pop\n        /* \"#utility.yul\":30865:30874   */\n      dup2\n        /* \"#utility.yul\":30859:30863   */\n      dup2\n        /* \"#utility.yul\":30855:30875   */\n      sub\n        /* \"#utility.yul\":30851:30852   */\n      0x00\n        /* \"#utility.yul\":30840:30849   */\n      dup4\n        /* \"#utility.yul\":30836:30853   */\n      add\n        /* \"#utility.yul\":30829:30876   */\n      mstore\n        /* \"#utility.yul\":30893:31024   */\n      tag_701\n        /* \"#utility.yul\":31019:31023   */\n      dup2\n        /* \"#utility.yul\":30893:31024   */\n      tag_430\n      jump\t// in\n    tag_701:\n        /* \"#utility.yul\":30885:31024   */\n      swap1\n      pop\n        /* \"#utility.yul\":30612:31031   */\n      swap2\n      swap1\n      pop\n      jump\t// out\n        /* \"#utility.yul\":31037:31263   */\n    tag_431:\n        /* \"#utility.yul\":31177:31211   */\n      0x596f75206861766520616c726561647920766f74656420666f72207468697320\n        /* \"#utility.yul\":31173:31174   */\n      0x00\n        /* \"#utility.yul\":31165:31171   */\n      dup3\n        /* \"#utility.yul\":31161:31175   */\n      add\n        /* \"#utility.yul\":31154:31212   */\n      mstore\n        /* \"#utility.yul\":31246:31255   */\n      0x73657373696f6e00000000000000000000000000000000000000000000000000\n        /* \"#utility.yul\":31241:31243   */\n      0x20\n        /* \"#utility.yul\":31233:31239   */\n      dup3\n        /* \"#utility.yul\":31229:31244   */\n      add\n        /* \"#utility.yul\":31222:31256   */\n      mstore\n        /* \"#utility.yul\":31037:31263   */\n      pop\n      jump\t// out\n        /* \"#utility.yul\":31269:31635   */\n    tag_432:\n        /* \"#utility.yul\":31411:31414   */\n      0x00\n        /* \"#utility.yul\":31432:31499   */\n      tag_704\n        /* \"#utility.yul\":31496:31498   */\n      0x27\n        /* \"#utility.yul\":31491:31494   */\n      dup4\n        /* \"#utility.yul\":31432:31499   */\n      tag_393\n      jump\t// in\n    tag_704:\n        /* \"#utility.yul\":31425:31499   */\n      swap2\n      pop\n        /* \"#utility.yul\":31508:31601   */\n      tag_705\n        /* \"#utility.yul\":31597:31600   */\n      dup3\n        /* \"#utility.yul\":31508:31601   */\n      tag_431\n      jump\t// in\n    tag_705:\n        /* \"#utility.yul\":31626:31628   */\n      0x40\n        /* \"#utility.yul\":31621:31624   */\n      dup3\n        /* \"#utility.yul\":31617:31629   */\n      add\n        /* \"#utility.yul\":31610:31629   */\n      swap1\n      pop\n        /* \"#utility.yul\":31269:31635   */\n      swap2\n      swap1\n      pop\n      jump\t// out\n        /* \"#utility.yul\":31641:32060   */\n    tag_281:\n        /* \"#utility.yul\":31807:31811   */\n      0x00\n        /* \"#utility.yul\":31845:31847   */\n      0x20\n        /* \"#utility.yul\":31834:31843   */\n      dup3\n        /* \"#utility.yul\":31830:31848   */\n      add\n        /* \"#utility.yul\":31822:31848   */\n      swap1\n      pop\n        /* \"#utility.yul\":31894:31903   */\n      dup2\n        /* \"#utility.yul\":31888:31892   */\n      dup2\n        /* \"#utility.yul\":31884:31904   */\n      sub\n        /* \"#utility.yul\":31880:31881   */\n      0x00\n        /* \"#utility.yul\":31869:31878   */\n      dup4\n        /* \"#utility.yul\":31865:31882   */\n      add\n        /* \"#utility.yul\":31858:31905   */\n      mstore\n        /* \"#utility.yul\":31922:32053   */\n      tag_707\n        /* \"#utility.yul\":32048:32052   */\n      dup2\n        /* \"#utility.yul\":31922:32053   */\n      tag_432\n      jump\t// in\n    tag_707:\n        /* \"#utility.yul\":31914:32053   */\n      swap1\n      pop\n        /* \"#utility.yul\":31641:32060   */\n      swap2\n      swap1\n      pop\n      jump\t// out\n        /* \"#utility.yul\":32066:32398   */\n    tag_289:\n        /* \"#utility.yul\":32187:32191   */\n      0x00\n        /* \"#utility.yul\":32225:32227   */\n      0x40\n        /* \"#utility.yul\":32214:32223   */\n      dup3\n        /* \"#utility.yul\":32210:32228   */\n      add\n        /* \"#utility.yul\":32202:32228   */\n      swap1\n      pop\n        /* \"#utility.yul\":32238:32309   */\n      tag_709\n        /* \"#utility.yul\":32306:32307   */\n      0x00\n        /* \"#utility.yul\":32295:32304   */\n      dup4\n        /* \"#utility.yul\":32291:32308   */\n      add\n        /* \"#utility.yul\":32282:32288   */\n      dup6\n        /* \"#utility.yul\":32238:32309   */\n      tag_388\n      jump\t// in\n    tag_709:\n        /* \"#utility.yul\":32319:32391   */\n      tag_710\n        /* \"#utility.yul\":32387:32389   */\n      0x20\n        /* \"#utility.yul\":32376:32385   */\n      dup4\n        /* \"#utility.yul\":32372:32390   */\n      add\n        /* \"#utility.yul\":32363:32369   */\n      dup5\n        /* \"#utility.yul\":32319:32391   */\n      tag_358\n      jump\t// in\n    tag_710:\n        /* \"#utility.yul\":32066:32398   */\n      swap4\n      swap3\n      pop\n      pop\n      pop\n      jump\t// out\n        /* \"#utility.yul\":32404:32586   */\n    tag_433:\n        /* \"#utility.yul\":32544:32578   */\n      0x50726f706f73616c7320726567697374726174696f6e206e6f7420656e646564\n        /* \"#utility.yul\":32540:32541   */\n      0x00\n        /* \"#utility.yul\":32532:32538   */\n      dup3\n        /* \"#utility.yul\":32528:32542   */\n      add\n        /* \"#utility.yul\":32521:32579   */\n      mstore\n        /* \"#utility.yul\":32404:32586   */\n      pop\n      jump\t// out\n        /* \"#utility.yul\":32592:32958   */\n    tag_434:\n        /* \"#utility.yul\":32734:32737   */\n      0x00\n        /* \"#utility.yul\":32755:32822   */\n      tag_713\n        /* \"#utility.yul\":32819:32821   */\n      0x20\n        /* \"#utility.yul\":32814:32817   */\n      dup4\n        /* \"#utility.yul\":32755:32822   */\n      tag_393\n      jump\t// in\n    tag_713:\n        /* \"#utility.yul\":32748:32822   */\n      swap2\n      pop\n        /* \"#utility.yul\":32831:32924   */\n      tag_714\n        /* \"#utility.yul\":32920:32923   */\n      dup3\n        /* \"#utility.yul\":32831:32924   */\n      tag_433\n      jump\t// in\n    tag_714:\n        /* \"#utility.yul\":32949:32951   */\n      0x20\n        /* \"#utility.yul\":32944:32947   */\n      dup3\n        /* \"#utility.yul\":32940:32952   */\n      add\n        /* \"#utility.yul\":32933:32952   */\n      swap1\n      pop\n        /* \"#utility.yul\":32592:32958   */\n      swap2\n      swap1\n      pop\n      jump\t// out\n        /* \"#utility.yul\":32964:33383   */\n    tag_311:\n        /* \"#utility.yul\":33130:33134   */\n      0x00\n        /* \"#utility.yul\":33168:33170   */\n      0x20\n        /* \"#utility.yul\":33157:33166   */\n      dup3\n        /* \"#utility.yul\":33153:33171   */\n      add\n        /* \"#utility.yul\":33145:33171   */\n      swap1\n      pop\n        /* \"#utility.yul\":33217:33226   */\n      dup2\n        /* \"#utility.yul\":33211:33215   */\n      dup2\n        /* \"#utility.yul\":33207:33227   */\n      sub\n        /* \"#utility.yul\":33203:33204   */\n      0x00\n        /* \"#utility.yul\":33192:33201   */\n      dup4\n        /* \"#utility.yul\":33188:33205   */\n      add\n        /* \"#utility.yul\":33181:33228   */\n      mstore\n        /* \"#utility.yul\":33245:33376   */\n      tag_716\n        /* \"#utility.yul\":33371:33375   */\n      dup2\n        /* \"#utility.yul\":33245:33376   */\n      tag_434\n      jump\t// in\n    tag_716:\n        /* \"#utility.yul\":33237:33376   */\n      swap1\n      pop\n        /* \"#utility.yul\":32964:33383   */\n      swap2\n      swap1\n      pop\n      jump\t// out\n\n    auxdata: 0xa2646970667358221220fb7e5757f41dec8ab35b8b36f82cf4cdfad01093fd8f9f25ab7c24a768f4b62064736f6c634300081e0033\n}\n",
				"bytecode": {
					"linkReferences": {},
					"object": "608060405234801561000f575f5ffd5b50335f73ffffffffffffffffffffffffffffffffffffffff168173ffffffffffffffffffffffffffffffffffffffff1603610081575f6040517f1e4fbdf70000000000000000000000000000000000000000000000000000000081526004016100789190610196565b60405180910390fd5b6100908161009660201b60201c565b506101af565b5f5f5f9054906101000a900473ffffffffffffffffffffffffffffffffffffffff169050815f5f6101000a81548173ffffffffffffffffffffffffffffffffffffffff021916908373ffffffffffffffffffffffffffffffffffffffff1602179055508173ffffffffffffffffffffffffffffffffffffffff168173ffffffffffffffffffffffffffffffffffffffff167f8be0079c531659141344cd1fd0a4f28419497f9722a3daafe3b4186f6b6457e060405160405180910390a35050565b5f73ffffffffffffffffffffffffffffffffffffffff82169050919050565b5f61018082610157565b9050919050565b61019081610176565b82525050565b5f6020820190506101a95f830184610187565b92915050565b612b9c806101bc5f395ff3fe608060405234801561000f575f5ffd5b506004361061012a575f3560e01c8063895d0faf116100ab578063c8f5714e1161006f578063c8f5714e146102bd578063e09b8c79146102d9578063ee74c678146102e3578063f2fde38b146102ed578063f38d3af8146103095761012a565b8063895d0faf1461023d5780638da5cb5b146102475780639bdfef3014610265578063a3ec138d14610283578063a7bfab16146102b35761012a565b806358fb94ec116100f257806358fb94ec146101bf578063640be567146101ef5780636c2974451461020d578063715018a6146102175780637ed17751146102215761012a565b80630a936e3a1461012e5780631186eb7c146101385780631401795f1461016957806338db6dd31461018757806345bf58fd146101a3575b5f5ffd5b610136610339565b005b610152600480360381019061014d9190611bd5565b6103cf565b604051610160929190611c82565b60405180910390f35b6101716103fb565b60405161017e9190611e8c565b60405180910390f35b6101a1600480360381019061019c9190611f06565b610568565b005b6101bd60048036038101906101b8919061205d565b61084e565b005b6101d960048036038101906101d49190611bd5565b610a6d565b6040516101e69190611e8c565b60405180910390f35b6101f7610bda565b6040516102049190612127565b60405180910390f35b610215610ced565b005b61021f610df7565b005b61023b60048036038101906102369190611f06565b610e0a565b005b610245610fb4565b005b61024f6111a4565b60405161025c9190612156565b60405180910390f35b61026d6111cb565b60405161027a919061216f565b60405180910390f35b61029d60048036038101906102989190611f06565b6111d1565b6040516102aa91906121a2565b60405180910390f35b6102bb6111f7565b005b6102d760048036038101906102d29190611bd5565b611301565b005b6102e1611603565b005b6102eb61170b565b005b61030760048036038101906103029190611f06565b611814565b005b610323600480360381019061031e9190611bd5565b611898565b6040516103309190612127565b60405180910390f35b6103416119ab565b60015f815480929190610353906121e8565b91905055505f60035f60015481526020019081526020015f205f015f6101000a81548160ff0219169083600581111561038f5761038e611c00565b5b02179055507fba5b9081592c446fc890c90b94eb1cb2e823c52d85adafb0a116860c7549705a6001546040516103c5919061216f565b60405180910390a1565b6003602052805f5260405f205f91509050805f015f9054906101000a900460ff16908060010154905082565b610403611afa565b60035f60015481526020019081526020015f206040518060600160405290815f82015f9054906101000a900460ff16600581111561044457610443611c00565b5b600581111561045657610455611c00565b5b81526020016001820154815260200160028201805480602002602001604051908101604052809291908181526020015f905b8282101561055b578382905f5260205f2090600302016040518060600160405290815f82015481526020016001820180546104c29061225c565b80601f01602080910402602001604051908101604052809291908181526020018280546104ee9061225c565b80156105395780601f1061051057610100808354040283529160200191610539565b820191905f5260205f20905b81548152906001019060200180831161051c57829003601f168201915b5050505050815260200160028201548152505081526020019060010190610488565b5050505081525050905090565b6105706119ab565b5f600581111561058357610582611c00565b5b60035f60015481526020019081526020015f205f015f9054906101000a900460ff1660058111156105b7576105b6611c00565b5b146105f7576040517f08c379a00000000000000000000000000000000000000000000000000000000081526004016105ee9061230c565b60405180910390fd5b60045f8273ffffffffffffffffffffffffffffffffffffffff1673ffffffffffffffffffffffffffffffffffffffff1681526020019081526020015f205f015f9054906101000a900460ff1615610683576040517f08c379a000000000000000000000000000000000000000000000000000000000815260040161067a90612374565b60405180910390fd5b600160045f8373ffffffffffffffffffffffffffffffffffffffff1673ffffffffffffffffffffffffffffffffffffffff1681526020019081526020015f205f015f6101000a81548160ff0219169083151502179055505f67ffffffffffffffff8111156106f4576106f3611f39565b5b6040519080825280602002602001820160405280156107225781602001602082028036833780820191505090505b5060045f8373ffffffffffffffffffffffffffffffffffffffff1673ffffffffffffffffffffffffffffffffffffffff1681526020019081526020015f206001019080519060200190610776929190611b2b565b505f67ffffffffffffffff81111561079157610790611f39565b5b6040519080825280602002602001820160405280156107bf5781602001602082028036833780820191505090505b5060045f8373ffffffffffffffffffffffffffffffffffffffff1673ffffffffffffffffffffffffffffffffffffffff1681526020019081526020015f206002019080519060200190610813929190611b2b565b507fb6be2187d059cc2a55fe29e0e503b566e1e0f8c8780096e185429350acffd3dd816040516108439190612156565b60405180910390a150565b60045f3373ffffffffffffffffffffffffffffffffffffffff1673ffffffffffffffffffffffffffffffffffffffff1681526020019081526020015f205f015f9054906101000a900460ff166108d9576040517f08c379a00000000000000000000000000000000000000000000000000000000081526004016108d0906123dc565b60405180910390fd5b5f81511161091c576040517f08c379a000000000000000000000000000000000000000000000000000000000815260040161091390612444565b60405180910390fd5b5f60035f60015481526020019081526020015f2090506001600581111561094657610945611c00565b5b815f015f9054906101000a900460ff16600581111561096857610967611c00565b5b146109a8576040517f08c379a000000000000000000000000000000000000000000000000000000000815260040161099f906124d2565b60405180910390fd5b80600201604051806060016040528060025481526020018481526020015f815250908060018154018082558091505060019003905f5260205f2090600302015f909190919091505f820151815f01556020820151816001019081610a0c9190612690565b506040820151816002015550507f92e393e9b54e2f801d3ea4beb0c5e71a21cc34a5d34b77d0fb8a3aa1650dc18f600254604051610a4a919061216f565b60405180910390a160025f815480929190610a64906121e8565b91905055505050565b610a75611afa565b60035f8381526020019081526020015f206040518060600160405290815f82015f9054906101000a900460ff166005811115610ab457610ab3611c00565b5b6005811115610ac657610ac5611c00565b5b81526020016001820154815260200160028201805480602002602001604051908101604052809291908181526020015f905b82821015610bcb578382905f5260205f2090600302016040518060600160405290815f8201548152602001600182018054610b329061225c565b80601f0160208091040260200160405190810160405280929190818152602001828054610b5e9061225c565b8015610ba95780601f10610b8057610100808354040283529160200191610ba9565b820191905f5260205f20905b815481529060010190602001808311610b8c57829003601f168201915b5050505050815260200160028201548152505081526020019060010190610af8565b50505050815250509050919050565b606060035f60015481526020019081526020015f20600201805480602002602001604051908101604052809291908181526020015f905b82821015610ce4578382905f5260205f2090600302016040518060600160405290815f8201548152602001600182018054610c4b9061225c565b80601f0160208091040260200160405190810160405280929190818152602001828054610c779061225c565b8015610cc25780601f10610c9957610100808354040283529160200191610cc2565b820191905f5260205f20905b815481529060010190602001808311610ca557829003601f168201915b5050505050815260200160028201548152505081526020019060010190610c11565b50505050905090565b610cf56119ab565b60016005811115610d0957610d08611c00565b5b60035f60015481526020019081526020015f205f015f9054906101000a900460ff166005811115610d3d57610d3c611c00565b5b14610d7d576040517f08c379a0000000000000000000000000000000000000000000000000000000008152600401610d74906127cf565b60405180910390fd5b600260035f60015481526020019081526020015f205f015f6101000a81548160ff02191690836005811115610db557610db4611c00565b5b02179055507f0a97a4ee45751e2abf3e4fc8946939630b11b371ea8ae39ccdc3056e98f5cc3f60016002604051610ded9291906127ed565b60405180910390a1565b610dff6119ab565b610e085f611a32565b565b610e126119ab565b5f6005811115610e2557610e24611c00565b5b60035f60015481526020019081526020015f205f015f9054906101000a900460ff166005811115610e5957610e58611c00565b5b14610e99576040517f08c379a0000000000000000000000000000000000000000000000000000000008152600401610e909061230c565b60405180910390fd5b60045f8273ffffffffffffffffffffffffffffffffffffffff1673ffffffffffffffffffffffffffffffffffffffff1681526020019081526020015f205f015f9054906101000a900460ff16610f24576040517f08c379a0000000000000000000000000000000000000000000000000000000008152600401610f1b9061285e565b60405180910390fd5b5f60045f8373ffffffffffffffffffffffffffffffffffffffff1673ffffffffffffffffffffffffffffffffffffffff1681526020019081526020015f205f015f6101000a81548160ff0219169083151502179055507f25fc2460244a2fff1d6879302ea1d6f3e684e599d76c012a22e42d5bb61cc5d781604051610fa99190612156565b60405180910390a150565b5f60035f60015481526020019081526020015f20905060046005811115610fde57610fdd611c00565b5b815f015f9054906101000a900460ff16600581111561100057610fff611c00565b5b14611040576040517f08c379a0000000000000000000000000000000000000000000000000000000008152600401611037906128c6565b60405180910390fd5b5f816002018054905011611089576040517f08c379a00000000000000000000000000000000000000000000000000000000081526004016110809061292e565b60405180910390fd5b5f5f90505f5f90505f5f90505b836002018054905081101561112f57818460020182815481106110bc576110bb61294c565b5b905f5260205f209060030201600201541115611122578360020181815481106110e8576110e761294c565b5b905f5260205f2090600302016002015491508360020181815481106111105761110f61294c565b5b905f5260205f2090600302015f015492505b8080600101915050611096565b508183600101819055506005835f015f6101000a81548160ff0219169083600581111561115f5761115e611c00565b5b02179055507f0a97a4ee45751e2abf3e4fc8946939630b11b371ea8ae39ccdc3056e98f5cc3f600460056040516111979291906127ed565b60405180910390a1505050565b5f5f5f9054906101000a900473ffffffffffffffffffffffffffffffffffffffff16905090565b60015481565b6004602052805f5260405f205f91509050805f015f9054906101000a900460ff16905081565b6111ff6119ab565b6003600581111561121357611212611c00565b5b60035f60015481526020019081526020015f205f015f9054906101000a900460ff16600581111561124757611246611c00565b5b14611287576040517f08c379a000000000000000000000000000000000000000000000000000000000815260040161127e906129c3565b60405180910390fd5b600460035f60015481526020019081526020015f205f015f6101000a81548160ff021916908360058111156112bf576112be611c00565b5b02179055507f0a97a4ee45751e2abf3e4fc8946939630b11b371ea8ae39ccdc3056e98f5cc3f600360046040516112f79291906127ed565b60405180910390a1565b60045f3373ffffffffffffffffffffffffffffffffffffffff1673ffffffffffffffffffffffffffffffffffffffff1681526020019081526020015f205f015f9054906101000a900460ff1661138c576040517f08c379a0000000000000000000000000000000000000000000000000000000008152600401611383906123dc565b60405180910390fd5b5f60035f60015481526020019081526020015f209050600360058111156113b6576113b5611c00565b5b815f015f9054906101000a900460ff1660058111156113d8576113d7611c00565b5b14611418576040517f08c379a000000000000000000000000000000000000000000000000000000000815260040161140f906129c3565b60405180910390fd5b80600201805490508210611461576040517f08c379a000000000000000000000000000000000000000000000000000000000815260040161145890612a2b565b60405180910390fd5b5f60045f3373ffffffffffffffffffffffffffffffffffffffff1673ffffffffffffffffffffffffffffffffffffffff1681526020019081526020015f2090505f5f90505f5f90505b82600101805490508110156114f6576001548360010182815481106114d2576114d161294c565b5b905f5260205f200154036114e957600191506114f6565b80806001019150506114aa565b508015611538576040517f08c379a000000000000000000000000000000000000000000000000000000000815260040161152f90612ab9565b60405180910390fd5b81600101600154908060018154018082558091505060019003905f5260205f20015f90919091909150558160020184908060018154018082558091505060019003905f5260205f20015f90919091909150558260020184815481106115a05761159f61294c565b5b905f5260205f2090600302016002015f8154809291906115bf906121e8565b91905055507f4d99b957a2bc29a30ebd96a7be8e68fe50a3c701db28a91436490b7d53870ca433856040516115f5929190612ad7565b60405180910390a150505050565b61160b6119ab565b5f600581111561161e5761161d611c00565b5b60035f60015481526020019081526020015f205f015f9054906101000a900460ff16600581111561165257611651611c00565b5b14611692576040517f08c379a0000000000000000000000000000000000000000000000000000000008152600401611689906124d2565b60405180910390fd5b600160035f60015481526020019081526020015f205f015f6101000a81548160ff021916908360058111156116ca576116c9611c00565b5b02179055507f0a97a4ee45751e2abf3e4fc8946939630b11b371ea8ae39ccdc3056e98f5cc3f5f60016040516117019291906127ed565b60405180910390a1565b6117136119ab565b6002600581111561172757611726611c00565b5b60035f60015481526020019081526020015f205f015f9054906101000a900460ff16600581111561175b5761175a611c00565b5b1461179b576040517f08c379a000000000000000000000000000000000000000000000000000000000815260040161179290612b48565b60405180910390fd5b6003805f60015481526020019081526020015f205f015f6101000a81548160ff021916908360058111156117d2576117d1611c00565b5b02179055507f0a97a4ee45751e2abf3e4fc8946939630b11b371ea8ae39ccdc3056e98f5cc3f6002600360405161180a9291906127ed565b60405180910390a1565b61181c6119ab565b5f73ffffffffffffffffffffffffffffffffffffffff168173ffffffffffffffffffffffffffffffffffffffff160361188c575f6040517f1e4fbdf70000000000000000000000000000000000000000000000000000000081526004016118839190612156565b60405180910390fd5b61189581611a32565b50565b606060035f8381526020019081526020015f20600201805480602002602001604051908101604052809291908181526020015f905b828210156119a0578382905f5260205f2090600302016040518060600160405290815f82015481526020016001820180546119079061225c565b80601f01602080910402602001604051908101604052809291908181526020018280546119339061225c565b801561197e5780601f106119555761010080835404028352916020019161197e565b820191905f5260205f20905b81548152906001019060200180831161196157829003601f168201915b50505050508152602001600282015481525050815260200190600101906118cd565b505050509050919050565b6119b3611af3565b73ffffffffffffffffffffffffffffffffffffffff166119d16111a4565b73ffffffffffffffffffffffffffffffffffffffff1614611a30576119f4611af3565b6040517f118cdaa7000000000000000000000000000000000000000000000000000000008152600401611a279190612156565b60405180910390fd5b565b5f5f5f9054906101000a900473ffffffffffffffffffffffffffffffffffffffff169050815f5f6101000a81548173ffffffffffffffffffffffffffffffffffffffff021916908373ffffffffffffffffffffffffffffffffffffffff1602179055508173ffffffffffffffffffffffffffffffffffffffff168173ffffffffffffffffffffffffffffffffffffffff167f8be0079c531659141344cd1fd0a4f28419497f9722a3daafe3b4186f6b6457e060405160405180910390a35050565b5f33905090565b60405180606001604052805f6005811115611b1857611b17611c00565b5b81526020015f8152602001606081525090565b828054828255905f5260205f20908101928215611b65579160200282015b82811115611b64578251825591602001919060010190611b49565b5b509050611b729190611b76565b5090565b5b80821115611b8d575f815f905550600101611b77565b5090565b5f604051905090565b5f5ffd5b5f5ffd5b5f819050919050565b611bb481611ba2565b8114611bbe575f5ffd5b50565b5f81359050611bcf81611bab565b92915050565b5f60208284031215611bea57611be9611b9a565b5b5f611bf784828501611bc1565b91505092915050565b7f4e487b71000000000000000000000000000000000000000000000000000000005f52602160045260245ffd5b60068110611c3e57611c3d611c00565b5b50565b5f819050611c4e82611c2d565b919050565b5f611c5d82611c41565b9050919050565b611c6d81611c53565b82525050565b611c7c81611ba2565b82525050565b5f604082019050611c955f830185611c64565b611ca26020830184611c73565b9392505050565b611cb281611c53565b82525050565b611cc181611ba2565b82525050565b5f81519050919050565b5f82825260208201905092915050565b5f819050602082019050919050565b5f81519050919050565b5f82825260208201905092915050565b8281835e5f83830152505050565b5f601f19601f8301169050919050565b5f611d3282611cf0565b611d3c8185611cfa565b9350611d4c818560208601611d0a565b611d5581611d18565b840191505092915050565b5f606083015f830151611d755f860182611cb8565b5060208301518482036020860152611d8d8282611d28565b9150506040830151611da26040860182611cb8565b508091505092915050565b5f611db88383611d60565b905092915050565b5f602082019050919050565b5f611dd682611cc7565b611de08185611cd1565b935083602082028501611df285611ce1565b805f5b85811015611e2d5784840389528151611e0e8582611dad565b9450611e1983611dc0565b925060208a01995050600181019050611df5565b50829750879550505050505092915050565b5f606083015f830151611e545f860182611ca9565b506020830151611e676020860182611cb8565b5060408301518482036040860152611e7f8282611dcc565b9150508091505092915050565b5f6020820190508181035f830152611ea48184611e3f565b905092915050565b5f73ffffffffffffffffffffffffffffffffffffffff82169050919050565b5f611ed582611eac565b9050919050565b611ee581611ecb565b8114611eef575f5ffd5b50565b5f81359050611f0081611edc565b92915050565b5f60208284031215611f1b57611f1a611b9a565b5b5f611f2884828501611ef2565b91505092915050565b5f5ffd5b5f5ffd5b7f4e487b71000000000000000000000000000000000000000000000000000000005f52604160045260245ffd5b611f6f82611d18565b810181811067ffffffffffffffff82111715611f8e57611f8d611f39565b5b80604052505050565b5f611fa0611b91565b9050611fac8282611f66565b919050565b5f67ffffffffffffffff821115611fcb57611fca611f39565b5b611fd482611d18565b9050602081019050919050565b828183375f83830152505050565b5f612001611ffc84611fb1565b611f97565b90508281526020810184848401111561201d5761201c611f35565b5b612028848285611fe1565b509392505050565b5f82601f83011261204457612043611f31565b5b8135612054848260208601611fef565b91505092915050565b5f6020828403121561207257612071611b9a565b5b5f82013567ffffffffffffffff81111561208f5761208e611b9e565b5b61209b84828501612030565b91505092915050565b5f82825260208201905092915050565b5f6120be82611cc7565b6120c881856120a4565b9350836020820285016120da85611ce1565b805f5b8581101561211557848403895281516120f68582611dad565b945061210183611dc0565b925060208a019950506001810190506120dd565b50829750879550505050505092915050565b5f6020820190508181035f83015261213f81846120b4565b905092915050565b61215081611ecb565b82525050565b5f6020820190506121695f830184612147565b92915050565b5f6020820190506121825f830184611c73565b92915050565b5f8115159050919050565b61219c81612188565b82525050565b5f6020820190506121b55f830184612193565b92915050565b7f4e487b71000000000000000000000000000000000000000000000000000000005f52601160045260245ffd5b5f6121f282611ba2565b91507fffffffffffffffffffffffffffffffffffffffffffffffffffffffffffffffff8203612224576122236121bb565b5b600182019050919050565b7f4e487b71000000000000000000000000000000000000000000000000000000005f52602260045260245ffd5b5f600282049050600182168061227357607f821691505b6020821081036122865761228561222f565b5b50919050565b5f82825260208201905092915050565b7f526567697374726174696f6e206e6f74207374617274656420666f72207468695f8201527f732073657373696f6e0000000000000000000000000000000000000000000000602082015250565b5f6122f660298361228c565b91506123018261229c565b604082019050919050565b5f6020820190508181035f830152612323816122ea565b9050919050565b7f566f74657220697320616c7265616479207265676973746572656400000000005f82015250565b5f61235e601b8361228c565b91506123698261232a565b602082019050919050565b5f6020820190508181035f83015261238b81612352565b9050919050565b7f596f7520617265206e6f742072656769737465726564000000000000000000005f82015250565b5f6123c660168361228c565b91506123d182612392565b602082019050919050565b5f6020820190508181035f8301526123f3816123ba565b9050919050565b7f50726f706f73616c206465736372697074696f6e2069732072657175697265645f82015250565b5f61242e60208361228c565b9150612439826123fa565b602082019050919050565b5f6020820190508181035f83015261245b81612422565b9050919050565b7f50726f706f73616c73206e6f74207374617274656420666f72207468697320735f8201527f657373696f6e0000000000000000000000000000000000000000000000000000602082015250565b5f6124bc60268361228c565b91506124c782612462565b604082019050919050565b5f6020820190508181035f8301526124e9816124b0565b9050919050565b5f819050815f5260205f209050919050565b5f6020601f8301049050919050565b5f82821b905092915050565b5f6008830261254c7fffffffffffffffffffffffffffffffffffffffffffffffffffffffffffffffff82612511565b6125568683612511565b95508019841693508086168417925050509392505050565b5f819050919050565b5f61259161258c61258784611ba2565b61256e565b611ba2565b9050919050565b5f819050919050565b6125aa83612577565b6125be6125b682612598565b84845461251d565b825550505050565b5f5f905090565b6125d56125c6565b6125e08184846125a1565b505050565b5b81811015612603576125f85f826125cd565b6001810190506125e6565b5050565b601f82111561264857612619816124f0565b61262284612502565b81016020851015612631578190505b61264561263d85612502565b8301826125e5565b50505b505050565b5f82821c905092915050565b5f6126685f198460080261264d565b1980831691505092915050565b5f6126808383612659565b9150826002028217905092915050565b61269982611cf0565b67ffffffffffffffff8111156126b2576126b1611f39565b5b6126bc825461225c565b6126c7828285612607565b5f60209050601f8311600181146126f8575f84156126e6578287015190505b6126f08582612675565b865550612757565b601f198416612706866124f0565b5f5b8281101561272d57848901518255600182019150602085019450602081019050612708565b8683101561274a5784890151612746601f891682612659565b8355505b6001600288020188555050505b505050505050565b7f50726f706f73616c7320726567697374726174696f6e206e6f742073746172745f8201527f656420666f7220746869732073657373696f6e00000000000000000000000000602082015250565b5f6127b960338361228c565b91506127c48261275f565b604082019050919050565b5f6020820190508181035f8301526127e6816127ad565b9050919050565b5f6040820190506128005f830185611c64565b61280d6020830184611c64565b9392505050565b7f566f74657220697320616c726561647920756e726567697374657265640000005f82015250565b5f612848601d8361228c565b915061285382612814565b602082019050919050565b5f6020820190508181035f8301526128758161283c565b9050919050565b7f566f74696e672073657373696f6e206e6f7420656e64656400000000000000005f82015250565b5f6128b060188361228c565b91506128bb8261287c565b602082019050919050565b5f6020820190508181035f8301526128dd816128a4565b9050919050565b7f546869732073657373696f6e20686173206e6f2070726f706f73616c730000005f82015250565b5f612918601d8361228c565b9150612923826128e4565b602082019050919050565b5f6020820190508181035f8301526129458161290c565b9050919050565b7f4e487b71000000000000000000000000000000000000000000000000000000005f52603260045260245ffd5b7f566f74696e672073657373696f6e206e6f7420737461727465640000000000005f82015250565b5f6129ad601a8361228c565b91506129b882612979565b602082019050919050565b5f6020820190508181035f8301526129da816129a1565b9050919050565b7f496e76616c69642070726f706f73616c204964000000000000000000000000005f82015250565b5f612a1560138361228c565b9150612a20826129e1565b602082019050919050565b5f6020820190508181035f830152612a4281612a09565b9050919050565b7f596f75206861766520616c726561647920766f74656420666f722074686973205f8201527f73657373696f6e00000000000000000000000000000000000000000000000000602082015250565b5f612aa360278361228c565b9150612aae82612a49565b604082019050919050565b5f6020820190508181035f830152612ad081612a97565b9050919050565b5f604082019050612aea5f830185612147565b612af76020830184611c73565b9392505050565b7f50726f706f73616c7320726567697374726174696f6e206e6f7420656e6465645f82015250565b5f612b3260208361228c565b9150612b3d82612afe565b602082019050919050565b5f6020820190508181035f830152612b5f81612b26565b905091905056fea2646970667358221220fb7e5757f41dec8ab35b8b36f82cf4cdfad01093fd8f9f25ab7c24a768f4b62064736f6c634300081e0033",
					"opcodes": "PUSH1 0x80 PUSH1 0x40 MSTORE CALLVALUE DUP1 ISZERO PUSH2 0xF JUMPI PUSH0 PUSH0 REVERT JUMPDEST POP CALLER PUSH0 PUSH20 0xFFFFFFFFFFFFFFFFFFFFFFFFFFFFFFFFFFFFFFFF AND DUP2 PUSH20 0xFFFFFFFFFFFFFFFFFFFFFFFFFFFFFFFFFFFFFFFF AND SUB PUSH2 0x81 JUMPI PUSH0 PUSH1 0x40 MLOAD PUSH32 0x1E4FBDF700000000000000000000000000000000000000000000000000000000 DUP2 MSTORE PUSH1 0x4 ADD PUSH2 0x78 SWAP2 SWAP1 PUSH2 0x196 JUMP JUMPDEST PUSH1 0x40 MLOAD DUP1 SWAP2 SUB SWAP1 REVERT JUMPDEST PUSH2 0x90 DUP2 PUSH2 0x96 PUSH1 0x20 SHL PUSH1 0x20 SHR JUMP JUMPDEST POP PUSH2 0x1AF JUMP JUMPDEST PUSH0 PUSH0 PUSH0 SWAP1 SLOAD SWAP1 PUSH2 0x100 EXP SWAP1 DIV PUSH20 0xFFFFFFFFFFFFFFFFFFFFFFFFFFFFFFFFFFFFFFFF AND SWAP1 POP DUP2 PUSH0 PUSH0 PUSH2 0x100 EXP DUP2 SLOAD DUP2 PUSH20 0xFFFFFFFFFFFFFFFFFFFFFFFFFFFFFFFFFFFFFFFF MUL NOT AND SWAP1 DUP4 PUSH20 0xFFFFFFFFFFFFFFFFFFFFFFFFFFFFFFFFFFFFFFFF AND MUL OR SWAP1 SSTORE POP DUP2 PUSH20 0xFFFFFFFFFFFFFFFFFFFFFFFFFFFFFFFFFFFFFFFF AND DUP2 PUSH20 0xFFFFFFFFFFFFFFFFFFFFFFFFFFFFFFFFFFFFFFFF AND PUSH32 0x8BE0079C531659141344CD1FD0A4F28419497F9722A3DAAFE3B4186F6B6457E0 PUSH1 0x40 MLOAD PUSH1 0x40 MLOAD DUP1 SWAP2 SUB SWAP1 LOG3 POP POP JUMP JUMPDEST PUSH0 PUSH20 0xFFFFFFFFFFFFFFFFFFFFFFFFFFFFFFFFFFFFFFFF DUP3 AND SWAP1 POP SWAP2 SWAP1 POP JUMP JUMPDEST PUSH0 PUSH2 0x180 DUP3 PUSH2 0x157 JUMP JUMPDEST SWAP1 POP SWAP2 SWAP1 POP JUMP JUMPDEST PUSH2 0x190 DUP2 PUSH2 0x176 JUMP JUMPDEST DUP3 MSTORE POP POP JUMP JUMPDEST PUSH0 PUSH1 0x20 DUP3 ADD SWAP1 POP PUSH2 0x1A9 PUSH0 DUP4 ADD DUP5 PUSH2 0x187 JUMP JUMPDEST SWAP3 SWAP2 POP POP JUMP JUMPDEST PUSH2 0x2B9C DUP1 PUSH2 0x1BC PUSH0 CODECOPY PUSH0 RETURN INVALID PUSH1 0x80 PUSH1 0x40 MSTORE CALLVALUE DUP1 ISZERO PUSH2 0xF JUMPI PUSH0 PUSH0 REVERT JUMPDEST POP PUSH1 0x4 CALLDATASIZE LT PUSH2 0x12A JUMPI PUSH0 CALLDATALOAD PUSH1 0xE0 SHR DUP1 PUSH4 0x895D0FAF GT PUSH2 0xAB JUMPI DUP1 PUSH4 0xC8F5714E GT PUSH2 0x6F JUMPI DUP1 PUSH4 0xC8F5714E EQ PUSH2 0x2BD JUMPI DUP1 PUSH4 0xE09B8C79 EQ PUSH2 0x2D9 JUMPI DUP1 PUSH4 0xEE74C678 EQ PUSH2 0x2E3 JUMPI DUP1 PUSH4 0xF2FDE38B EQ PUSH2 0x2ED JUMPI DUP1 PUSH4 0xF38D3AF8 EQ PUSH2 0x309 JUMPI PUSH2 0x12A JUMP JUMPDEST DUP1 PUSH4 0x895D0FAF EQ PUSH2 0x23D JUMPI DUP1 PUSH4 0x8DA5CB5B EQ PUSH2 0x247 JUMPI DUP1 PUSH4 0x9BDFEF30 EQ PUSH2 0x265 JUMPI DUP1 PUSH4 0xA3EC138D EQ PUSH2 0x283 JUMPI DUP1 PUSH4 0xA7BFAB16 EQ PUSH2 0x2B3 JUMPI PUSH2 0x12A JUMP JUMPDEST DUP1 PUSH4 0x58FB94EC GT PUSH2 0xF2 JUMPI DUP1 PUSH4 0x58FB94EC EQ PUSH2 0x1BF JUMPI DUP1 PUSH4 0x640BE567 EQ PUSH2 0x1EF JUMPI DUP1 PUSH4 0x6C297445 EQ PUSH2 0x20D JUMPI DUP1 PUSH4 0x715018A6 EQ PUSH2 0x217 JUMPI DUP1 PUSH4 0x7ED17751 EQ PUSH2 0x221 JUMPI PUSH2 0x12A JUMP JUMPDEST DUP1 PUSH4 0xA936E3A EQ PUSH2 0x12E JUMPI DUP1 PUSH4 0x1186EB7C EQ PUSH2 0x138 JUMPI DUP1 PUSH4 0x1401795F EQ PUSH2 0x169 JUMPI DUP1 PUSH4 0x38DB6DD3 EQ PUSH2 0x187 JUMPI DUP1 PUSH4 0x45BF58FD EQ PUSH2 0x1A3 JUMPI JUMPDEST PUSH0 PUSH0 REVERT JUMPDEST PUSH2 0x136 PUSH2 0x339 JUMP JUMPDEST STOP JUMPDEST PUSH2 0x152 PUSH1 0x4 DUP1 CALLDATASIZE SUB DUP2 ADD SWAP1 PUSH2 0x14D SWAP2 SWAP1 PUSH2 0x1BD5 JUMP JUMPDEST PUSH2 0x3CF JUMP JUMPDEST PUSH1 0x40 MLOAD PUSH2 0x160 SWAP3 SWAP2 SWAP1 PUSH2 0x1C82 JUMP JUMPDEST PUSH1 0x40 MLOAD DUP1 SWAP2 SUB SWAP1 RETURN JUMPDEST PUSH2 0x171 PUSH2 0x3FB JUMP JUMPDEST PUSH1 0x40 MLOAD PUSH2 0x17E SWAP2 SWAP1 PUSH2 0x1E8C JUMP JUMPDEST PUSH1 0x40 MLOAD DUP1 SWAP2 SUB SWAP1 RETURN JUMPDEST PUSH2 0x1A1 PUSH1 0x4 DUP1 CALLDATASIZE SUB DUP2 ADD SWAP1 PUSH2 0x19C SWAP2 SWAP1 PUSH2 0x1F06 JUMP JUMPDEST PUSH2 0x568 JUMP JUMPDEST STOP JUMPDEST PUSH2 0x1BD PUSH1 0x4 DUP1 CALLDATASIZE SUB DUP2 ADD SWAP1 PUSH2 0x1B8 SWAP2 SWAP1 PUSH2 0x205D JUMP JUMPDEST PUSH2 0x84E JUMP JUMPDEST STOP JUMPDEST PUSH2 0x1D9 PUSH1 0x4 DUP1 CALLDATASIZE SUB DUP2 ADD SWAP1 PUSH2 0x1D4 SWAP2 SWAP1 PUSH2 0x1BD5 JUMP JUMPDEST PUSH2 0xA6D JUMP JUMPDEST PUSH1 0x40 MLOAD PUSH2 0x1E6 SWAP2 SWAP1 PUSH2 0x1E8C JUMP JUMPDEST PUSH1 0x40 MLOAD DUP1 SWAP2 SUB SWAP1 RETURN JUMPDEST PUSH2 0x1F7 PUSH2 0xBDA JUMP JUMPDEST PUSH1 0x40 MLOAD PUSH2 0x204 SWAP2 SWAP1 PUSH2 0x2127 JUMP JUMPDEST PUSH1 0x40 MLOAD DUP1 SWAP2 SUB SWAP1 RETURN JUMPDEST PUSH2 0x215 PUSH2 0xCED JUMP JUMPDEST STOP JUMPDEST PUSH2 0x21F PUSH2 0xDF7 JUMP JUMPDEST STOP JUMPDEST PUSH2 0x23B PUSH1 0x4 DUP1 CALLDATASIZE SUB DUP2 ADD SWAP1 PUSH2 0x236 SWAP2 SWAP1 PUSH2 0x1F06 JUMP JUMPDEST PUSH2 0xE0A JUMP JUMPDEST STOP JUMPDEST PUSH2 0x245 PUSH2 0xFB4 JUMP JUMPDEST STOP JUMPDEST PUSH2 0x24F PUSH2 0x11A4 JUMP JUMPDEST PUSH1 0x40 MLOAD PUSH2 0x25C SWAP2 SWAP1 PUSH2 0x2156 JUMP JUMPDEST PUSH1 0x40 MLOAD DUP1 SWAP2 SUB SWAP1 RETURN JUMPDEST PUSH2 0x26D PUSH2 0x11CB JUMP JUMPDEST PUSH1 0x40 MLOAD PUSH2 0x27A SWAP2 SWAP1 PUSH2 0x216F JUMP JUMPDEST PUSH1 0x40 MLOAD DUP1 SWAP2 SUB SWAP1 RETURN JUMPDEST PUSH2 0x29D PUSH1 0x4 DUP1 CALLDATASIZE SUB DUP2 ADD SWAP1 PUSH2 0x298 SWAP2 SWAP1 PUSH2 0x1F06 JUMP JUMPDEST PUSH2 0x11D1 JUMP JUMPDEST PUSH1 0x40 MLOAD PUSH2 0x2AA SWAP2 SWAP1 PUSH2 0x21A2 JUMP JUMPDEST PUSH1 0x40 MLOAD DUP1 SWAP2 SUB SWAP1 RETURN JUMPDEST PUSH2 0x2BB PUSH2 0x11F7 JUMP JUMPDEST STOP JUMPDEST PUSH2 0x2D7 PUSH1 0x4 DUP1 CALLDATASIZE SUB DUP2 ADD SWAP1 PUSH2 0x2D2 SWAP2 SWAP1 PUSH2 0x1BD5 JUMP JUMPDEST PUSH2 0x1301 JUMP JUMPDEST STOP JUMPDEST PUSH2 0x2E1 PUSH2 0x1603 JUMP JUMPDEST STOP JUMPDEST PUSH2 0x2EB PUSH2 0x170B JUMP JUMPDEST STOP JUMPDEST PUSH2 0x307 PUSH1 0x4 DUP1 CALLDATASIZE SUB DUP2 ADD SWAP1 PUSH2 0x302 SWAP2 SWAP1 PUSH2 0x1F06 JUMP JUMPDEST PUSH2 0x1814 JUMP JUMPDEST STOP JUMPDEST PUSH2 0x323 PUSH1 0x4 DUP1 CALLDATASIZE SUB DUP2 ADD SWAP1 PUSH2 0x31E SWAP2 SWAP1 PUSH2 0x1BD5 JUMP JUMPDEST PUSH2 0x1898 JUMP JUMPDEST PUSH1 0x40 MLOAD PUSH2 0x330 SWAP2 SWAP1 PUSH2 0x2127 JUMP JUMPDEST PUSH1 0x40 MLOAD DUP1 SWAP2 SUB SWAP1 RETURN JUMPDEST PUSH2 0x341 PUSH2 0x19AB JUMP JUMPDEST PUSH1 0x1 PUSH0 DUP2 SLOAD DUP1 SWAP3 SWAP2 SWAP1 PUSH2 0x353 SWAP1 PUSH2 0x21E8 JUMP JUMPDEST SWAP2 SWAP1 POP SSTORE POP PUSH0 PUSH1 0x3 PUSH0 PUSH1 0x1 SLOAD DUP2 MSTORE PUSH1 0x20 ADD SWAP1 DUP2 MSTORE PUSH1 0x20 ADD PUSH0 KECCAK256 PUSH0 ADD PUSH0 PUSH2 0x100 EXP DUP2 SLOAD DUP2 PUSH1 0xFF MUL NOT AND SWAP1 DUP4 PUSH1 0x5 DUP2 GT ISZERO PUSH2 0x38F JUMPI PUSH2 0x38E PUSH2 0x1C00 JUMP JUMPDEST JUMPDEST MUL OR SWAP1 SSTORE POP PUSH32 0xBA5B9081592C446FC890C90B94EB1CB2E823C52D85ADAFB0A116860C7549705A PUSH1 0x1 SLOAD PUSH1 0x40 MLOAD PUSH2 0x3C5 SWAP2 SWAP1 PUSH2 0x216F JUMP JUMPDEST PUSH1 0x40 MLOAD DUP1 SWAP2 SUB SWAP1 LOG1 JUMP JUMPDEST PUSH1 0x3 PUSH1 0x20 MSTORE DUP1 PUSH0 MSTORE PUSH1 0x40 PUSH0 KECCAK256 PUSH0 SWAP2 POP SWAP1 POP DUP1 PUSH0 ADD PUSH0 SWAP1 SLOAD SWAP1 PUSH2 0x100 EXP SWAP1 DIV PUSH1 0xFF AND SWAP1 DUP1 PUSH1 0x1 ADD SLOAD SWAP1 POP DUP3 JUMP JUMPDEST PUSH2 0x403 PUSH2 0x1AFA JUMP JUMPDEST PUSH1 0x3 PUSH0 PUSH1 0x1 SLOAD DUP2 MSTORE PUSH1 0x20 ADD SWAP1 DUP2 MSTORE PUSH1 0x20 ADD PUSH0 KECCAK256 PUSH1 0x40 MLOAD DUP1 PUSH1 0x60 ADD PUSH1 0x40 MSTORE SWAP1 DUP2 PUSH0 DUP3 ADD PUSH0 SWAP1 SLOAD SWAP1 PUSH2 0x100 EXP SWAP1 DIV PUSH1 0xFF AND PUSH1 0x5 DUP2 GT ISZERO PUSH2 0x444 JUMPI PUSH2 0x443 PUSH2 0x1C00 JUMP JUMPDEST JUMPDEST PUSH1 0x5 DUP2 GT ISZERO PUSH2 0x456 JUMPI PUSH2 0x455 PUSH2 0x1C00 JUMP JUMPDEST JUMPDEST DUP2 MSTORE PUSH1 0x20 ADD PUSH1 0x1 DUP3 ADD SLOAD DUP2 MSTORE PUSH1 0x20 ADD PUSH1 0x2 DUP3 ADD DUP1 SLOAD DUP1 PUSH1 0x20 MUL PUSH1 0x20 ADD PUSH1 0x40 MLOAD SWAP1 DUP2 ADD PUSH1 0x40 MSTORE DUP1 SWAP3 SWAP2 SWAP1 DUP2 DUP2 MSTORE PUSH1 0x20 ADD PUSH0 SWAP1 JUMPDEST DUP3 DUP3 LT ISZERO PUSH2 0x55B JUMPI DUP4 DUP3 SWAP1 PUSH0 MSTORE PUSH1 0x20 PUSH0 KECCAK256 SWAP1 PUSH1 0x3 MUL ADD PUSH1 0x40 MLOAD DUP1 PUSH1 0x60 ADD PUSH1 0x40 MSTORE SWAP1 DUP2 PUSH0 DUP3 ADD SLOAD DUP2 MSTORE PUSH1 0x20 ADD PUSH1 0x1 DUP3 ADD DUP1 SLOAD PUSH2 0x4C2 SWAP1 PUSH2 0x225C JUMP JUMPDEST DUP1 PUSH1 0x1F ADD PUSH1 0x20 DUP1 SWAP2 DIV MUL PUSH1 0x20 ADD PUSH1 0x40 MLOAD SWAP1 DUP2 ADD PUSH1 0x40 MSTORE DUP1 SWAP3 SWAP2 SWAP1 DUP2 DUP2 MSTORE PUSH1 0x20 ADD DUP3 DUP1 SLOAD PUSH2 0x4EE SWAP1 PUSH2 0x225C JUMP JUMPDEST DUP1 ISZERO PUSH2 0x539 JUMPI DUP1 PUSH1 0x1F LT PUSH2 0x510 JUMPI PUSH2 0x100 DUP1 DUP4 SLOAD DIV MUL DUP4 MSTORE SWAP2 PUSH1 0x20 ADD SWAP2 PUSH2 0x539 JUMP JUMPDEST DUP3 ADD SWAP2 SWAP1 PUSH0 MSTORE PUSH1 0x20 PUSH0 KECCAK256 SWAP1 JUMPDEST DUP2 SLOAD DUP2 MSTORE SWAP1 PUSH1 0x1 ADD SWAP1 PUSH1 0x20 ADD DUP1 DUP4 GT PUSH2 0x51C JUMPI DUP3 SWAP1 SUB PUSH1 0x1F AND DUP3 ADD SWAP2 JUMPDEST POP POP POP POP POP DUP2 MSTORE PUSH1 0x20 ADD PUSH1 0x2 DUP3 ADD SLOAD DUP2 MSTORE POP POP DUP2 MSTORE PUSH1 0x20 ADD SWAP1 PUSH1 0x1 ADD SWAP1 PUSH2 0x488 JUMP JUMPDEST POP POP POP POP DUP2 MSTORE POP POP SWAP1 POP SWAP1 JUMP JUMPDEST PUSH2 0x570 PUSH2 0x19AB JUMP JUMPDEST PUSH0 PUSH1 0x5 DUP2 GT ISZERO PUSH2 0x583 JUMPI PUSH2 0x582 PUSH2 0x1C00 JUMP JUMPDEST JUMPDEST PUSH1 0x3 PUSH0 PUSH1 0x1 SLOAD DUP2 MSTORE PUSH1 0x20 ADD SWAP1 DUP2 MSTORE PUSH1 0x20 ADD PUSH0 KECCAK256 PUSH0 ADD PUSH0 SWAP1 SLOAD SWAP1 PUSH2 0x100 EXP SWAP1 DIV PUSH1 0xFF AND PUSH1 0x5 DUP2 GT ISZERO PUSH2 0x5B7 JUMPI PUSH2 0x5B6 PUSH2 0x1C00 JUMP JUMPDEST JUMPDEST EQ PUSH2 0x5F7 JUMPI PUSH1 0x40 MLOAD PUSH32 0x8C379A000000000000000000000000000000000000000000000000000000000 DUP2 MSTORE PUSH1 0x4 ADD PUSH2 0x5EE SWAP1 PUSH2 0x230C JUMP JUMPDEST PUSH1 0x40 MLOAD DUP1 SWAP2 SUB SWAP1 REVERT JUMPDEST PUSH1 0x4 PUSH0 DUP3 PUSH20 0xFFFFFFFFFFFFFFFFFFFFFFFFFFFFFFFFFFFFFFFF AND PUSH20 0xFFFFFFFFFFFFFFFFFFFFFFFFFFFFFFFFFFFFFFFF AND DUP2 MSTORE PUSH1 0x20 ADD SWAP1 DUP2 MSTORE PUSH1 0x20 ADD PUSH0 KECCAK256 PUSH0 ADD PUSH0 SWAP1 SLOAD SWAP1 PUSH2 0x100 EXP SWAP1 DIV PUSH1 0xFF AND ISZERO PUSH2 0x683 JUMPI PUSH1 0x40 MLOAD PUSH32 0x8C379A000000000000000000000000000000000000000000000000000000000 DUP2 MSTORE PUSH1 0x4 ADD PUSH2 0x67A SWAP1 PUSH2 0x2374 JUMP JUMPDEST PUSH1 0x40 MLOAD DUP1 SWAP2 SUB SWAP1 REVERT JUMPDEST PUSH1 0x1 PUSH1 0x4 PUSH0 DUP4 PUSH20 0xFFFFFFFFFFFFFFFFFFFFFFFFFFFFFFFFFFFFFFFF AND PUSH20 0xFFFFFFFFFFFFFFFFFFFFFFFFFFFFFFFFFFFFFFFF AND DUP2 MSTORE PUSH1 0x20 ADD SWAP1 DUP2 MSTORE PUSH1 0x20 ADD PUSH0 KECCAK256 PUSH0 ADD PUSH0 PUSH2 0x100 EXP DUP2 SLOAD DUP2 PUSH1 0xFF MUL NOT AND SWAP1 DUP4 ISZERO ISZERO MUL OR SWAP1 SSTORE POP PUSH0 PUSH8 0xFFFFFFFFFFFFFFFF DUP2 GT ISZERO PUSH2 0x6F4 JUMPI PUSH2 0x6F3 PUSH2 0x1F39 JUMP JUMPDEST JUMPDEST PUSH1 0x40 MLOAD SWAP1 DUP1 DUP3 MSTORE DUP1 PUSH1 0x20 MUL PUSH1 0x20 ADD DUP3 ADD PUSH1 0x40 MSTORE DUP1 ISZERO PUSH2 0x722 JUMPI DUP2 PUSH1 0x20 ADD PUSH1 0x20 DUP3 MUL DUP1 CALLDATASIZE DUP4 CALLDATACOPY DUP1 DUP3 ADD SWAP2 POP POP SWAP1 POP JUMPDEST POP PUSH1 0x4 PUSH0 DUP4 PUSH20 0xFFFFFFFFFFFFFFFFFFFFFFFFFFFFFFFFFFFFFFFF AND PUSH20 0xFFFFFFFFFFFFFFFFFFFFFFFFFFFFFFFFFFFFFFFF AND DUP2 MSTORE PUSH1 0x20 ADD SWAP1 DUP2 MSTORE PUSH1 0x20 ADD PUSH0 KECCAK256 PUSH1 0x1 ADD SWAP1 DUP1 MLOAD SWAP1 PUSH1 0x20 ADD SWAP1 PUSH2 0x776 SWAP3 SWAP2 SWAP1 PUSH2 0x1B2B JUMP JUMPDEST POP PUSH0 PUSH8 0xFFFFFFFFFFFFFFFF DUP2 GT ISZERO PUSH2 0x791 JUMPI PUSH2 0x790 PUSH2 0x1F39 JUMP JUMPDEST JUMPDEST PUSH1 0x40 MLOAD SWAP1 DUP1 DUP3 MSTORE DUP1 PUSH1 0x20 MUL PUSH1 0x20 ADD DUP3 ADD PUSH1 0x40 MSTORE DUP1 ISZERO PUSH2 0x7BF JUMPI DUP2 PUSH1 0x20 ADD PUSH1 0x20 DUP3 MUL DUP1 CALLDATASIZE DUP4 CALLDATACOPY DUP1 DUP3 ADD SWAP2 POP POP SWAP1 POP JUMPDEST POP PUSH1 0x4 PUSH0 DUP4 PUSH20 0xFFFFFFFFFFFFFFFFFFFFFFFFFFFFFFFFFFFFFFFF AND PUSH20 0xFFFFFFFFFFFFFFFFFFFFFFFFFFFFFFFFFFFFFFFF AND DUP2 MSTORE PUSH1 0x20 ADD SWAP1 DUP2 MSTORE PUSH1 0x20 ADD PUSH0 KECCAK256 PUSH1 0x2 ADD SWAP1 DUP1 MLOAD SWAP1 PUSH1 0x20 ADD SWAP1 PUSH2 0x813 SWAP3 SWAP2 SWAP1 PUSH2 0x1B2B JUMP JUMPDEST POP PUSH32 0xB6BE2187D059CC2A55FE29E0E503B566E1E0F8C8780096E185429350ACFFD3DD DUP2 PUSH1 0x40 MLOAD PUSH2 0x843 SWAP2 SWAP1 PUSH2 0x2156 JUMP JUMPDEST PUSH1 0x40 MLOAD DUP1 SWAP2 SUB SWAP1 LOG1 POP JUMP JUMPDEST PUSH1 0x4 PUSH0 CALLER PUSH20 0xFFFFFFFFFFFFFFFFFFFFFFFFFFFFFFFFFFFFFFFF AND PUSH20 0xFFFFFFFFFFFFFFFFFFFFFFFFFFFFFFFFFFFFFFFF AND DUP2 MSTORE PUSH1 0x20 ADD SWAP1 DUP2 MSTORE PUSH1 0x20 ADD PUSH0 KECCAK256 PUSH0 ADD PUSH0 SWAP1 SLOAD SWAP1 PUSH2 0x100 EXP SWAP1 DIV PUSH1 0xFF AND PUSH2 0x8D9 JUMPI PUSH1 0x40 MLOAD PUSH32 0x8C379A000000000000000000000000000000000000000000000000000000000 DUP2 MSTORE PUSH1 0x4 ADD PUSH2 0x8D0 SWAP1 PUSH2 0x23DC JUMP JUMPDEST PUSH1 0x40 MLOAD DUP1 SWAP2 SUB SWAP1 REVERT JUMPDEST PUSH0 DUP2 MLOAD GT PUSH2 0x91C JUMPI PUSH1 0x40 MLOAD PUSH32 0x8C379A000000000000000000000000000000000000000000000000000000000 DUP2 MSTORE PUSH1 0x4 ADD PUSH2 0x913 SWAP1 PUSH2 0x2444 JUMP JUMPDEST PUSH1 0x40 MLOAD DUP1 SWAP2 SUB SWAP1 REVERT JUMPDEST PUSH0 PUSH1 0x3 PUSH0 PUSH1 0x1 SLOAD DUP2 MSTORE PUSH1 0x20 ADD SWAP1 DUP2 MSTORE PUSH1 0x20 ADD PUSH0 KECCAK256 SWAP1 POP PUSH1 0x1 PUSH1 0x5 DUP2 GT ISZERO PUSH2 0x946 JUMPI PUSH2 0x945 PUSH2 0x1C00 JUMP JUMPDEST JUMPDEST DUP2 PUSH0 ADD PUSH0 SWAP1 SLOAD SWAP1 PUSH2 0x100 EXP SWAP1 DIV PUSH1 0xFF AND PUSH1 0x5 DUP2 GT ISZERO PUSH2 0x968 JUMPI PUSH2 0x967 PUSH2 0x1C00 JUMP JUMPDEST JUMPDEST EQ PUSH2 0x9A8 JUMPI PUSH1 0x40 MLOAD PUSH32 0x8C379A000000000000000000000000000000000000000000000000000000000 DUP2 MSTORE PUSH1 0x4 ADD PUSH2 0x99F SWAP1 PUSH2 0x24D2 JUMP JUMPDEST PUSH1 0x40 MLOAD DUP1 SWAP2 SUB SWAP1 REVERT JUMPDEST DUP1 PUSH1 0x2 ADD PUSH1 0x40 MLOAD DUP1 PUSH1 0x60 ADD PUSH1 0x40 MSTORE DUP1 PUSH1 0x2 SLOAD DUP2 MSTORE PUSH1 0x20 ADD DUP5 DUP2 MSTORE PUSH1 0x20 ADD PUSH0 DUP2 MSTORE POP SWAP1 DUP1 PUSH1 0x1 DUP2 SLOAD ADD DUP1 DUP3 SSTORE DUP1 SWAP2 POP POP PUSH1 0x1 SWAP1 SUB SWAP1 PUSH0 MSTORE PUSH1 0x20 PUSH0 KECCAK256 SWAP1 PUSH1 0x3 MUL ADD PUSH0 SWAP1 SWAP2 SWAP1 SWAP2 SWAP1 SWAP2 POP PUSH0 DUP3 ADD MLOAD DUP2 PUSH0 ADD SSTORE PUSH1 0x20 DUP3 ADD MLOAD DUP2 PUSH1 0x1 ADD SWAP1 DUP2 PUSH2 0xA0C SWAP2 SWAP1 PUSH2 0x2690 JUMP JUMPDEST POP PUSH1 0x40 DUP3 ADD MLOAD DUP2 PUSH1 0x2 ADD SSTORE POP POP PUSH32 0x92E393E9B54E2F801D3EA4BEB0C5E71A21CC34A5D34B77D0FB8A3AA1650DC18F PUSH1 0x2 SLOAD PUSH1 0x40 MLOAD PUSH2 0xA4A SWAP2 SWAP1 PUSH2 0x216F JUMP JUMPDEST PUSH1 0x40 MLOAD DUP1 SWAP2 SUB SWAP1 LOG1 PUSH1 0x2 PUSH0 DUP2 SLOAD DUP1 SWAP3 SWAP2 SWAP1 PUSH2 0xA64 SWAP1 PUSH2 0x21E8 JUMP JUMPDEST SWAP2 SWAP1 POP SSTORE POP POP POP JUMP JUMPDEST PUSH2 0xA75 PUSH2 0x1AFA JUMP JUMPDEST PUSH1 0x3 PUSH0 DUP4 DUP2 MSTORE PUSH1 0x20 ADD SWAP1 DUP2 MSTORE PUSH1 0x20 ADD PUSH0 KECCAK256 PUSH1 0x40 MLOAD DUP1 PUSH1 0x60 ADD PUSH1 0x40 MSTORE SWAP1 DUP2 PUSH0 DUP3 ADD PUSH0 SWAP1 SLOAD SWAP1 PUSH2 0x100 EXP SWAP1 DIV PUSH1 0xFF AND PUSH1 0x5 DUP2 GT ISZERO PUSH2 0xAB4 JUMPI PUSH2 0xAB3 PUSH2 0x1C00 JUMP JUMPDEST JUMPDEST PUSH1 0x5 DUP2 GT ISZERO PUSH2 0xAC6 JUMPI PUSH2 0xAC5 PUSH2 0x1C00 JUMP JUMPDEST JUMPDEST DUP2 MSTORE PUSH1 0x20 ADD PUSH1 0x1 DUP3 ADD SLOAD DUP2 MSTORE PUSH1 0x20 ADD PUSH1 0x2 DUP3 ADD DUP1 SLOAD DUP1 PUSH1 0x20 MUL PUSH1 0x20 ADD PUSH1 0x40 MLOAD SWAP1 DUP2 ADD PUSH1 0x40 MSTORE DUP1 SWAP3 SWAP2 SWAP1 DUP2 DUP2 MSTORE PUSH1 0x20 ADD PUSH0 SWAP1 JUMPDEST DUP3 DUP3 LT ISZERO PUSH2 0xBCB JUMPI DUP4 DUP3 SWAP1 PUSH0 MSTORE PUSH1 0x20 PUSH0 KECCAK256 SWAP1 PUSH1 0x3 MUL ADD PUSH1 0x40 MLOAD DUP1 PUSH1 0x60 ADD PUSH1 0x40 MSTORE SWAP1 DUP2 PUSH0 DUP3 ADD SLOAD DUP2 MSTORE PUSH1 0x20 ADD PUSH1 0x1 DUP3 ADD DUP1 SLOAD PUSH2 0xB32 SWAP1 PUSH2 0x225C JUMP JUMPDEST DUP1 PUSH1 0x1F ADD PUSH1 0x20 DUP1 SWAP2 DIV MUL PUSH1 0x20 ADD PUSH1 0x40 MLOAD SWAP1 DUP2 ADD PUSH1 0x40 MSTORE DUP1 SWAP3 SWAP2 SWAP1 DUP2 DUP2 MSTORE PUSH1 0x20 ADD DUP3 DUP1 SLOAD PUSH2 0xB5E SWAP1 PUSH2 0x225C JUMP JUMPDEST DUP1 ISZERO PUSH2 0xBA9 JUMPI DUP1 PUSH1 0x1F LT PUSH2 0xB80 JUMPI PUSH2 0x100 DUP1 DUP4 SLOAD DIV MUL DUP4 MSTORE SWAP2 PUSH1 0x20 ADD SWAP2 PUSH2 0xBA9 JUMP JUMPDEST DUP3 ADD SWAP2 SWAP1 PUSH0 MSTORE PUSH1 0x20 PUSH0 KECCAK256 SWAP1 JUMPDEST DUP2 SLOAD DUP2 MSTORE SWAP1 PUSH1 0x1 ADD SWAP1 PUSH1 0x20 ADD DUP1 DUP4 GT PUSH2 0xB8C JUMPI DUP3 SWAP1 SUB PUSH1 0x1F AND DUP3 ADD SWAP2 JUMPDEST POP POP POP POP POP DUP2 MSTORE PUSH1 0x20 ADD PUSH1 0x2 DUP3 ADD SLOAD DUP2 MSTORE POP POP DUP2 MSTORE PUSH1 0x20 ADD SWAP1 PUSH1 0x1 ADD SWAP1 PUSH2 0xAF8 JUMP JUMPDEST POP POP POP POP DUP2 MSTORE POP POP SWAP1 POP SWAP2 SWAP1 POP JUMP JUMPDEST PUSH1 0x60 PUSH1 0x3 PUSH0 PUSH1 0x1 SLOAD DUP2 MSTORE PUSH1 0x20 ADD SWAP1 DUP2 MSTORE PUSH1 0x20 ADD PUSH0 KECCAK256 PUSH1 0x2 ADD DUP1 SLOAD DUP1 PUSH1 0x20 MUL PUSH1 0x20 ADD PUSH1 0x40 MLOAD SWAP1 DUP2 ADD PUSH1 0x40 MSTORE DUP1 SWAP3 SWAP2 SWAP1 DUP2 DUP2 MSTORE PUSH1 0x20 ADD PUSH0 SWAP1 JUMPDEST DUP3 DUP3 LT ISZERO PUSH2 0xCE4 JUMPI DUP4 DUP3 SWAP1 PUSH0 MSTORE PUSH1 0x20 PUSH0 KECCAK256 SWAP1 PUSH1 0x3 MUL ADD PUSH1 0x40 MLOAD DUP1 PUSH1 0x60 ADD PUSH1 0x40 MSTORE SWAP1 DUP2 PUSH0 DUP3 ADD SLOAD DUP2 MSTORE PUSH1 0x20 ADD PUSH1 0x1 DUP3 ADD DUP1 SLOAD PUSH2 0xC4B SWAP1 PUSH2 0x225C JUMP JUMPDEST DUP1 PUSH1 0x1F ADD PUSH1 0x20 DUP1 SWAP2 DIV MUL PUSH1 0x20 ADD PUSH1 0x40 MLOAD SWAP1 DUP2 ADD PUSH1 0x40 MSTORE DUP1 SWAP3 SWAP2 SWAP1 DUP2 DUP2 MSTORE PUSH1 0x20 ADD DUP3 DUP1 SLOAD PUSH2 0xC77 SWAP1 PUSH2 0x225C JUMP JUMPDEST DUP1 ISZERO PUSH2 0xCC2 JUMPI DUP1 PUSH1 0x1F LT PUSH2 0xC99 JUMPI PUSH2 0x100 DUP1 DUP4 SLOAD DIV MUL DUP4 MSTORE SWAP2 PUSH1 0x20 ADD SWAP2 PUSH2 0xCC2 JUMP JUMPDEST DUP3 ADD SWAP2 SWAP1 PUSH0 MSTORE PUSH1 0x20 PUSH0 KECCAK256 SWAP1 JUMPDEST DUP2 SLOAD DUP2 MSTORE SWAP1 PUSH1 0x1 ADD SWAP1 PUSH1 0x20 ADD DUP1 DUP4 GT PUSH2 0xCA5 JUMPI DUP3 SWAP1 SUB PUSH1 0x1F AND DUP3 ADD SWAP2 JUMPDEST POP POP POP POP POP DUP2 MSTORE PUSH1 0x20 ADD PUSH1 0x2 DUP3 ADD SLOAD DUP2 MSTORE POP POP DUP2 MSTORE PUSH1 0x20 ADD SWAP1 PUSH1 0x1 ADD SWAP1 PUSH2 0xC11 JUMP JUMPDEST POP POP POP POP SWAP1 POP SWAP1 JUMP JUMPDEST PUSH2 0xCF5 PUSH2 0x19AB JUMP JUMPDEST PUSH1 0x1 PUSH1 0x5 DUP2 GT ISZERO PUSH2 0xD09 JUMPI PUSH2 0xD08 PUSH2 0x1C00 JUMP JUMPDEST JUMPDEST PUSH1 0x3 PUSH0 PUSH1 0x1 SLOAD DUP2 MSTORE PUSH1 0x20 ADD SWAP1 DUP2 MSTORE PUSH1 0x20 ADD PUSH0 KECCAK256 PUSH0 ADD PUSH0 SWAP1 SLOAD SWAP1 PUSH2 0x100 EXP SWAP1 DIV PUSH1 0xFF AND PUSH1 0x5 DUP2 GT ISZERO PUSH2 0xD3D JUMPI PUSH2 0xD3C PUSH2 0x1C00 JUMP JUMPDEST JUMPDEST EQ PUSH2 0xD7D JUMPI PUSH1 0x40 MLOAD PUSH32 0x8C379A000000000000000000000000000000000000000000000000000000000 DUP2 MSTORE PUSH1 0x4 ADD PUSH2 0xD74 SWAP1 PUSH2 0x27CF JUMP JUMPDEST PUSH1 0x40 MLOAD DUP1 SWAP2 SUB SWAP1 REVERT JUMPDEST PUSH1 0x2 PUSH1 0x3 PUSH0 PUSH1 0x1 SLOAD DUP2 MSTORE PUSH1 0x20 ADD SWAP1 DUP2 MSTORE PUSH1 0x20 ADD PUSH0 KECCAK256 PUSH0 ADD PUSH0 PUSH2 0x100 EXP DUP2 SLOAD DUP2 PUSH1 0xFF MUL NOT AND SWAP1 DUP4 PUSH1 0x5 DUP2 GT ISZERO PUSH2 0xDB5 JUMPI PUSH2 0xDB4 PUSH2 0x1C00 JUMP JUMPDEST JUMPDEST MUL OR SWAP1 SSTORE POP PUSH32 0xA97A4EE45751E2ABF3E4FC8946939630B11B371EA8AE39CCDC3056E98F5CC3F PUSH1 0x1 PUSH1 0x2 PUSH1 0x40 MLOAD PUSH2 0xDED SWAP3 SWAP2 SWAP1 PUSH2 0x27ED JUMP JUMPDEST PUSH1 0x40 MLOAD DUP1 SWAP2 SUB SWAP1 LOG1 JUMP JUMPDEST PUSH2 0xDFF PUSH2 0x19AB JUMP JUMPDEST PUSH2 0xE08 PUSH0 PUSH2 0x1A32 JUMP JUMPDEST JUMP JUMPDEST PUSH2 0xE12 PUSH2 0x19AB JUMP JUMPDEST PUSH0 PUSH1 0x5 DUP2 GT ISZERO PUSH2 0xE25 JUMPI PUSH2 0xE24 PUSH2 0x1C00 JUMP JUMPDEST JUMPDEST PUSH1 0x3 PUSH0 PUSH1 0x1 SLOAD DUP2 MSTORE PUSH1 0x20 ADD SWAP1 DUP2 MSTORE PUSH1 0x20 ADD PUSH0 KECCAK256 PUSH0 ADD PUSH0 SWAP1 SLOAD SWAP1 PUSH2 0x100 EXP SWAP1 DIV PUSH1 0xFF AND PUSH1 0x5 DUP2 GT ISZERO PUSH2 0xE59 JUMPI PUSH2 0xE58 PUSH2 0x1C00 JUMP JUMPDEST JUMPDEST EQ PUSH2 0xE99 JUMPI PUSH1 0x40 MLOAD PUSH32 0x8C379A000000000000000000000000000000000000000000000000000000000 DUP2 MSTORE PUSH1 0x4 ADD PUSH2 0xE90 SWAP1 PUSH2 0x230C JUMP JUMPDEST PUSH1 0x40 MLOAD DUP1 SWAP2 SUB SWAP1 REVERT JUMPDEST PUSH1 0x4 PUSH0 DUP3 PUSH20 0xFFFFFFFFFFFFFFFFFFFFFFFFFFFFFFFFFFFFFFFF AND PUSH20 0xFFFFFFFFFFFFFFFFFFFFFFFFFFFFFFFFFFFFFFFF AND DUP2 MSTORE PUSH1 0x20 ADD SWAP1 DUP2 MSTORE PUSH1 0x20 ADD PUSH0 KECCAK256 PUSH0 ADD PUSH0 SWAP1 SLOAD SWAP1 PUSH2 0x100 EXP SWAP1 DIV PUSH1 0xFF AND PUSH2 0xF24 JUMPI PUSH1 0x40 MLOAD PUSH32 0x8C379A000000000000000000000000000000000000000000000000000000000 DUP2 MSTORE PUSH1 0x4 ADD PUSH2 0xF1B SWAP1 PUSH2 0x285E JUMP JUMPDEST PUSH1 0x40 MLOAD DUP1 SWAP2 SUB SWAP1 REVERT JUMPDEST PUSH0 PUSH1 0x4 PUSH0 DUP4 PUSH20 0xFFFFFFFFFFFFFFFFFFFFFFFFFFFFFFFFFFFFFFFF AND PUSH20 0xFFFFFFFFFFFFFFFFFFFFFFFFFFFFFFFFFFFFFFFF AND DUP2 MSTORE PUSH1 0x20 ADD SWAP1 DUP2 MSTORE PUSH1 0x20 ADD PUSH0 KECCAK256 PUSH0 ADD PUSH0 PUSH2 0x100 EXP DUP2 SLOAD DUP2 PUSH1 0xFF MUL NOT AND SWAP1 DUP4 ISZERO ISZERO MUL OR SWAP1 SSTORE POP PUSH32 0x25FC2460244A2FFF1D6879302EA1D6F3E684E599D76C012A22E42D5BB61CC5D7 DUP2 PUSH1 0x40 MLOAD PUSH2 0xFA9 SWAP2 SWAP1 PUSH2 0x2156 JUMP JUMPDEST PUSH1 0x40 MLOAD DUP1 SWAP2 SUB SWAP1 LOG1 POP JUMP JUMPDEST PUSH0 PUSH1 0x3 PUSH0 PUSH1 0x1 SLOAD DUP2 MSTORE PUSH1 0x20 ADD SWAP1 DUP2 MSTORE PUSH1 0x20 ADD PUSH0 KECCAK256 SWAP1 POP PUSH1 0x4 PUSH1 0x5 DUP2 GT ISZERO PUSH2 0xFDE JUMPI PUSH2 0xFDD PUSH2 0x1C00 JUMP JUMPDEST JUMPDEST DUP2 PUSH0 ADD PUSH0 SWAP1 SLOAD SWAP1 PUSH2 0x100 EXP SWAP1 DIV PUSH1 0xFF AND PUSH1 0x5 DUP2 GT ISZERO PUSH2 0x1000 JUMPI PUSH2 0xFFF PUSH2 0x1C00 JUMP JUMPDEST JUMPDEST EQ PUSH2 0x1040 JUMPI PUSH1 0x40 MLOAD PUSH32 0x8C379A000000000000000000000000000000000000000000000000000000000 DUP2 MSTORE PUSH1 0x4 ADD PUSH2 0x1037 SWAP1 PUSH2 0x28C6 JUMP JUMPDEST PUSH1 0x40 MLOAD DUP1 SWAP2 SUB SWAP1 REVERT JUMPDEST PUSH0 DUP2 PUSH1 0x2 ADD DUP1 SLOAD SWAP1 POP GT PUSH2 0x1089 JUMPI PUSH1 0x40 MLOAD PUSH32 0x8C379A000000000000000000000000000000000000000000000000000000000 DUP2 MSTORE PUSH1 0x4 ADD PUSH2 0x1080 SWAP1 PUSH2 0x292E JUMP JUMPDEST PUSH1 0x40 MLOAD DUP1 SWAP2 SUB SWAP1 REVERT JUMPDEST PUSH0 PUSH0 SWAP1 POP PUSH0 PUSH0 SWAP1 POP PUSH0 PUSH0 SWAP1 POP JUMPDEST DUP4 PUSH1 0x2 ADD DUP1 SLOAD SWAP1 POP DUP2 LT ISZERO PUSH2 0x112F JUMPI DUP2 DUP5 PUSH1 0x2 ADD DUP3 DUP2 SLOAD DUP2 LT PUSH2 0x10BC JUMPI PUSH2 0x10BB PUSH2 0x294C JUMP JUMPDEST JUMPDEST SWAP1 PUSH0 MSTORE PUSH1 0x20 PUSH0 KECCAK256 SWAP1 PUSH1 0x3 MUL ADD PUSH1 0x2 ADD SLOAD GT ISZERO PUSH2 0x1122 JUMPI DUP4 PUSH1 0x2 ADD DUP2 DUP2 SLOAD DUP2 LT PUSH2 0x10E8 JUMPI PUSH2 0x10E7 PUSH2 0x294C JUMP JUMPDEST JUMPDEST SWAP1 PUSH0 MSTORE PUSH1 0x20 PUSH0 KECCAK256 SWAP1 PUSH1 0x3 MUL ADD PUSH1 0x2 ADD SLOAD SWAP2 POP DUP4 PUSH1 0x2 ADD DUP2 DUP2 SLOAD DUP2 LT PUSH2 0x1110 JUMPI PUSH2 0x110F PUSH2 0x294C JUMP JUMPDEST JUMPDEST SWAP1 PUSH0 MSTORE PUSH1 0x20 PUSH0 KECCAK256 SWAP1 PUSH1 0x3 MUL ADD PUSH0 ADD SLOAD SWAP3 POP JUMPDEST DUP1 DUP1 PUSH1 0x1 ADD SWAP2 POP POP PUSH2 0x1096 JUMP JUMPDEST POP DUP2 DUP4 PUSH1 0x1 ADD DUP2 SWAP1 SSTORE POP PUSH1 0x5 DUP4 PUSH0 ADD PUSH0 PUSH2 0x100 EXP DUP2 SLOAD DUP2 PUSH1 0xFF MUL NOT AND SWAP1 DUP4 PUSH1 0x5 DUP2 GT ISZERO PUSH2 0x115F JUMPI PUSH2 0x115E PUSH2 0x1C00 JUMP JUMPDEST JUMPDEST MUL OR SWAP1 SSTORE POP PUSH32 0xA97A4EE45751E2ABF3E4FC8946939630B11B371EA8AE39CCDC3056E98F5CC3F PUSH1 0x4 PUSH1 0x5 PUSH1 0x40 MLOAD PUSH2 0x1197 SWAP3 SWAP2 SWAP1 PUSH2 0x27ED JUMP JUMPDEST PUSH1 0x40 MLOAD DUP1 SWAP2 SUB SWAP1 LOG1 POP POP POP JUMP JUMPDEST PUSH0 PUSH0 PUSH0 SWAP1 SLOAD SWAP1 PUSH2 0x100 EXP SWAP1 DIV PUSH20 0xFFFFFFFFFFFFFFFFFFFFFFFFFFFFFFFFFFFFFFFF AND SWAP1 POP SWAP1 JUMP JUMPDEST PUSH1 0x1 SLOAD DUP2 JUMP JUMPDEST PUSH1 0x4 PUSH1 0x20 MSTORE DUP1 PUSH0 MSTORE PUSH1 0x40 PUSH0 KECCAK256 PUSH0 SWAP2 POP SWAP1 POP DUP1 PUSH0 ADD PUSH0 SWAP1 SLOAD SWAP1 PUSH2 0x100 EXP SWAP1 DIV PUSH1 0xFF AND SWAP1 POP DUP2 JUMP JUMPDEST PUSH2 0x11FF PUSH2 0x19AB JUMP JUMPDEST PUSH1 0x3 PUSH1 0x5 DUP2 GT ISZERO PUSH2 0x1213 JUMPI PUSH2 0x1212 PUSH2 0x1C00 JUMP JUMPDEST JUMPDEST PUSH1 0x3 PUSH0 PUSH1 0x1 SLOAD DUP2 MSTORE PUSH1 0x20 ADD SWAP1 DUP2 MSTORE PUSH1 0x20 ADD PUSH0 KECCAK256 PUSH0 ADD PUSH0 SWAP1 SLOAD SWAP1 PUSH2 0x100 EXP SWAP1 DIV PUSH1 0xFF AND PUSH1 0x5 DUP2 GT ISZERO PUSH2 0x1247 JUMPI PUSH2 0x1246 PUSH2 0x1C00 JUMP JUMPDEST JUMPDEST EQ PUSH2 0x1287 JUMPI PUSH1 0x40 MLOAD PUSH32 0x8C379A000000000000000000000000000000000000000000000000000000000 DUP2 MSTORE PUSH1 0x4 ADD PUSH2 0x127E SWAP1 PUSH2 0x29C3 JUMP JUMPDEST PUSH1 0x40 MLOAD DUP1 SWAP2 SUB SWAP1 REVERT JUMPDEST PUSH1 0x4 PUSH1 0x3 PUSH0 PUSH1 0x1 SLOAD DUP2 MSTORE PUSH1 0x20 ADD SWAP1 DUP2 MSTORE PUSH1 0x20 ADD PUSH0 KECCAK256 PUSH0 ADD PUSH0 PUSH2 0x100 EXP DUP2 SLOAD DUP2 PUSH1 0xFF MUL NOT AND SWAP1 DUP4 PUSH1 0x5 DUP2 GT ISZERO PUSH2 0x12BF JUMPI PUSH2 0x12BE PUSH2 0x1C00 JUMP JUMPDEST JUMPDEST MUL OR SWAP1 SSTORE POP PUSH32 0xA97A4EE45751E2ABF3E4FC8946939630B11B371EA8AE39CCDC3056E98F5CC3F PUSH1 0x3 PUSH1 0x4 PUSH1 0x40 MLOAD PUSH2 0x12F7 SWAP3 SWAP2 SWAP1 PUSH2 0x27ED JUMP JUMPDEST PUSH1 0x40 MLOAD DUP1 SWAP2 SUB SWAP1 LOG1 JUMP JUMPDEST PUSH1 0x4 PUSH0 CALLER PUSH20 0xFFFFFFFFFFFFFFFFFFFFFFFFFFFFFFFFFFFFFFFF AND PUSH20 0xFFFFFFFFFFFFFFFFFFFFFFFFFFFFFFFFFFFFFFFF AND DUP2 MSTORE PUSH1 0x20 ADD SWAP1 DUP2 MSTORE PUSH1 0x20 ADD PUSH0 KECCAK256 PUSH0 ADD PUSH0 SWAP1 SLOAD SWAP1 PUSH2 0x100 EXP SWAP1 DIV PUSH1 0xFF AND PUSH2 0x138C JUMPI PUSH1 0x40 MLOAD PUSH32 0x8C379A000000000000000000000000000000000000000000000000000000000 DUP2 MSTORE PUSH1 0x4 ADD PUSH2 0x1383 SWAP1 PUSH2 0x23DC JUMP JUMPDEST PUSH1 0x40 MLOAD DUP1 SWAP2 SUB SWAP1 REVERT JUMPDEST PUSH0 PUSH1 0x3 PUSH0 PUSH1 0x1 SLOAD DUP2 MSTORE PUSH1 0x20 ADD SWAP1 DUP2 MSTORE PUSH1 0x20 ADD PUSH0 KECCAK256 SWAP1 POP PUSH1 0x3 PUSH1 0x5 DUP2 GT ISZERO PUSH2 0x13B6 JUMPI PUSH2 0x13B5 PUSH2 0x1C00 JUMP JUMPDEST JUMPDEST DUP2 PUSH0 ADD PUSH0 SWAP1 SLOAD SWAP1 PUSH2 0x100 EXP SWAP1 DIV PUSH1 0xFF AND PUSH1 0x5 DUP2 GT ISZERO PUSH2 0x13D8 JUMPI PUSH2 0x13D7 PUSH2 0x1C00 JUMP JUMPDEST JUMPDEST EQ PUSH2 0x1418 JUMPI PUSH1 0x40 MLOAD PUSH32 0x8C379A000000000000000000000000000000000000000000000000000000000 DUP2 MSTORE PUSH1 0x4 ADD PUSH2 0x140F SWAP1 PUSH2 0x29C3 JUMP JUMPDEST PUSH1 0x40 MLOAD DUP1 SWAP2 SUB SWAP1 REVERT JUMPDEST DUP1 PUSH1 0x2 ADD DUP1 SLOAD SWAP1 POP DUP3 LT PUSH2 0x1461 JUMPI PUSH1 0x40 MLOAD PUSH32 0x8C379A000000000000000000000000000000000000000000000000000000000 DUP2 MSTORE PUSH1 0x4 ADD PUSH2 0x1458 SWAP1 PUSH2 0x2A2B JUMP JUMPDEST PUSH1 0x40 MLOAD DUP1 SWAP2 SUB SWAP1 REVERT JUMPDEST PUSH0 PUSH1 0x4 PUSH0 CALLER PUSH20 0xFFFFFFFFFFFFFFFFFFFFFFFFFFFFFFFFFFFFFFFF AND PUSH20 0xFFFFFFFFFFFFFFFFFFFFFFFFFFFFFFFFFFFFFFFF AND DUP2 MSTORE PUSH1 0x20 ADD SWAP1 DUP2 MSTORE PUSH1 0x20 ADD PUSH0 KECCAK256 SWAP1 POP PUSH0 PUSH0 SWAP1 POP PUSH0 PUSH0 SWAP1 POP JUMPDEST DUP3 PUSH1 0x1 ADD DUP1 SLOAD SWAP1 POP DUP2 LT ISZERO PUSH2 0x14F6 JUMPI PUSH1 0x1 SLOAD DUP4 PUSH1 0x1 ADD DUP3 DUP2 SLOAD DUP2 LT PUSH2 0x14D2 JUMPI PUSH2 0x14D1 PUSH2 0x294C JUMP JUMPDEST JUMPDEST SWAP1 PUSH0 MSTORE PUSH1 0x20 PUSH0 KECCAK256 ADD SLOAD SUB PUSH2 0x14E9 JUMPI PUSH1 0x1 SWAP2 POP PUSH2 0x14F6 JUMP JUMPDEST DUP1 DUP1 PUSH1 0x1 ADD SWAP2 POP POP PUSH2 0x14AA JUMP JUMPDEST POP DUP1 ISZERO PUSH2 0x1538 JUMPI PUSH1 0x40 MLOAD PUSH32 0x8C379A000000000000000000000000000000000000000000000000000000000 DUP2 MSTORE PUSH1 0x4 ADD PUSH2 0x152F SWAP1 PUSH2 0x2AB9 JUMP JUMPDEST PUSH1 0x40 MLOAD DUP1 SWAP2 SUB SWAP1 REVERT JUMPDEST DUP2 PUSH1 0x1 ADD PUSH1 0x1 SLOAD SWAP1 DUP1 PUSH1 0x1 DUP2 SLOAD ADD DUP1 DUP3 SSTORE DUP1 SWAP2 POP POP PUSH1 0x1 SWAP1 SUB SWAP1 PUSH0 MSTORE PUSH1 0x20 PUSH0 KECCAK256 ADD PUSH0 SWAP1 SWAP2 SWAP1 SWAP2 SWAP1 SWAP2 POP SSTORE DUP2 PUSH1 0x2 ADD DUP5 SWAP1 DUP1 PUSH1 0x1 DUP2 SLOAD ADD DUP1 DUP3 SSTORE DUP1 SWAP2 POP POP PUSH1 0x1 SWAP1 SUB SWAP1 PUSH0 MSTORE PUSH1 0x20 PUSH0 KECCAK256 ADD PUSH0 SWAP1 SWAP2 SWAP1 SWAP2 SWAP1 SWAP2 POP SSTORE DUP3 PUSH1 0x2 ADD DUP5 DUP2 SLOAD DUP2 LT PUSH2 0x15A0 JUMPI PUSH2 0x159F PUSH2 0x294C JUMP JUMPDEST JUMPDEST SWAP1 PUSH0 MSTORE PUSH1 0x20 PUSH0 KECCAK256 SWAP1 PUSH1 0x3 MUL ADD PUSH1 0x2 ADD PUSH0 DUP2 SLOAD DUP1 SWAP3 SWAP2 SWAP1 PUSH2 0x15BF SWAP1 PUSH2 0x21E8 JUMP JUMPDEST SWAP2 SWAP1 POP SSTORE POP PUSH32 0x4D99B957A2BC29A30EBD96A7BE8E68FE50A3C701DB28A91436490B7D53870CA4 CALLER DUP6 PUSH1 0x40 MLOAD PUSH2 0x15F5 SWAP3 SWAP2 SWAP1 PUSH2 0x2AD7 JUMP JUMPDEST PUSH1 0x40 MLOAD DUP1 SWAP2 SUB SWAP1 LOG1 POP POP POP POP JUMP JUMPDEST PUSH2 0x160B PUSH2 0x19AB JUMP JUMPDEST PUSH0 PUSH1 0x5 DUP2 GT ISZERO PUSH2 0x161E JUMPI PUSH2 0x161D PUSH2 0x1C00 JUMP JUMPDEST JUMPDEST PUSH1 0x3 PUSH0 PUSH1 0x1 SLOAD DUP2 MSTORE PUSH1 0x20 ADD SWAP1 DUP2 MSTORE PUSH1 0x20 ADD PUSH0 KECCAK256 PUSH0 ADD PUSH0 SWAP1 SLOAD SWAP1 PUSH2 0x100 EXP SWAP1 DIV PUSH1 0xFF AND PUSH1 0x5 DUP2 GT ISZERO PUSH2 0x1652 JUMPI PUSH2 0x1651 PUSH2 0x1C00 JUMP JUMPDEST JUMPDEST EQ PUSH2 0x1692 JUMPI PUSH1 0x40 MLOAD PUSH32 0x8C379A000000000000000000000000000000000000000000000000000000000 DUP2 MSTORE PUSH1 0x4 ADD PUSH2 0x1689 SWAP1 PUSH2 0x24D2 JUMP JUMPDEST PUSH1 0x40 MLOAD DUP1 SWAP2 SUB SWAP1 REVERT JUMPDEST PUSH1 0x1 PUSH1 0x3 PUSH0 PUSH1 0x1 SLOAD DUP2 MSTORE PUSH1 0x20 ADD SWAP1 DUP2 MSTORE PUSH1 0x20 ADD PUSH0 KECCAK256 PUSH0 ADD PUSH0 PUSH2 0x100 EXP DUP2 SLOAD DUP2 PUSH1 0xFF MUL NOT AND SWAP1 DUP4 PUSH1 0x5 DUP2 GT ISZERO PUSH2 0x16CA JUMPI PUSH2 0x16C9 PUSH2 0x1C00 JUMP JUMPDEST JUMPDEST MUL OR SWAP1 SSTORE POP PUSH32 0xA97A4EE45751E2ABF3E4FC8946939630B11B371EA8AE39CCDC3056E98F5CC3F PUSH0 PUSH1 0x1 PUSH1 0x40 MLOAD PUSH2 0x1701 SWAP3 SWAP2 SWAP1 PUSH2 0x27ED JUMP JUMPDEST PUSH1 0x40 MLOAD DUP1 SWAP2 SUB SWAP1 LOG1 JUMP JUMPDEST PUSH2 0x1713 PUSH2 0x19AB JUMP JUMPDEST PUSH1 0x2 PUSH1 0x5 DUP2 GT ISZERO PUSH2 0x1727 JUMPI PUSH2 0x1726 PUSH2 0x1C00 JUMP JUMPDEST JUMPDEST PUSH1 0x3 PUSH0 PUSH1 0x1 SLOAD DUP2 MSTORE PUSH1 0x20 ADD SWAP1 DUP2 MSTORE PUSH1 0x20 ADD PUSH0 KECCAK256 PUSH0 ADD PUSH0 SWAP1 SLOAD SWAP1 PUSH2 0x100 EXP SWAP1 DIV PUSH1 0xFF AND PUSH1 0x5 DUP2 GT ISZERO PUSH2 0x175B JUMPI PUSH2 0x175A PUSH2 0x1C00 JUMP JUMPDEST JUMPDEST EQ PUSH2 0x179B JUMPI PUSH1 0x40 MLOAD PUSH32 0x8C379A000000000000000000000000000000000000000000000000000000000 DUP2 MSTORE PUSH1 0x4 ADD PUSH2 0x1792 SWAP1 PUSH2 0x2B48 JUMP JUMPDEST PUSH1 0x40 MLOAD DUP1 SWAP2 SUB SWAP1 REVERT JUMPDEST PUSH1 0x3 DUP1 PUSH0 PUSH1 0x1 SLOAD DUP2 MSTORE PUSH1 0x20 ADD SWAP1 DUP2 MSTORE PUSH1 0x20 ADD PUSH0 KECCAK256 PUSH0 ADD PUSH0 PUSH2 0x100 EXP DUP2 SLOAD DUP2 PUSH1 0xFF MUL NOT AND SWAP1 DUP4 PUSH1 0x5 DUP2 GT ISZERO PUSH2 0x17D2 JUMPI PUSH2 0x17D1 PUSH2 0x1C00 JUMP JUMPDEST JUMPDEST MUL OR SWAP1 SSTORE POP PUSH32 0xA97A4EE45751E2ABF3E4FC8946939630B11B371EA8AE39CCDC3056E98F5CC3F PUSH1 0x2 PUSH1 0x3 PUSH1 0x40 MLOAD PUSH2 0x180A SWAP3 SWAP2 SWAP1 PUSH2 0x27ED JUMP JUMPDEST PUSH1 0x40 MLOAD DUP1 SWAP2 SUB SWAP1 LOG1 JUMP JUMPDEST PUSH2 0x181C PUSH2 0x19AB JUMP JUMPDEST PUSH0 PUSH20 0xFFFFFFFFFFFFFFFFFFFFFFFFFFFFFFFFFFFFFFFF AND DUP2 PUSH20 0xFFFFFFFFFFFFFFFFFFFFFFFFFFFFFFFFFFFFFFFF AND SUB PUSH2 0x188C JUMPI PUSH0 PUSH1 0x40 MLOAD PUSH32 0x1E4FBDF700000000000000000000000000000000000000000000000000000000 DUP2 MSTORE PUSH1 0x4 ADD PUSH2 0x1883 SWAP2 SWAP1 PUSH2 0x2156 JUMP JUMPDEST PUSH1 0x40 MLOAD DUP1 SWAP2 SUB SWAP1 REVERT JUMPDEST PUSH2 0x1895 DUP2 PUSH2 0x1A32 JUMP JUMPDEST POP JUMP JUMPDEST PUSH1 0x60 PUSH1 0x3 PUSH0 DUP4 DUP2 MSTORE PUSH1 0x20 ADD SWAP1 DUP2 MSTORE PUSH1 0x20 ADD PUSH0 KECCAK256 PUSH1 0x2 ADD DUP1 SLOAD DUP1 PUSH1 0x20 MUL PUSH1 0x20 ADD PUSH1 0x40 MLOAD SWAP1 DUP2 ADD PUSH1 0x40 MSTORE DUP1 SWAP3 SWAP2 SWAP1 DUP2 DUP2 MSTORE PUSH1 0x20 ADD PUSH0 SWAP1 JUMPDEST DUP3 DUP3 LT ISZERO PUSH2 0x19A0 JUMPI DUP4 DUP3 SWAP1 PUSH0 MSTORE PUSH1 0x20 PUSH0 KECCAK256 SWAP1 PUSH1 0x3 MUL ADD PUSH1 0x40 MLOAD DUP1 PUSH1 0x60 ADD PUSH1 0x40 MSTORE SWAP1 DUP2 PUSH0 DUP3 ADD SLOAD DUP2 MSTORE PUSH1 0x20 ADD PUSH1 0x1 DUP3 ADD DUP1 SLOAD PUSH2 0x1907 SWAP1 PUSH2 0x225C JUMP JUMPDEST DUP1 PUSH1 0x1F ADD PUSH1 0x20 DUP1 SWAP2 DIV MUL PUSH1 0x20 ADD PUSH1 0x40 MLOAD SWAP1 DUP2 ADD PUSH1 0x40 MSTORE DUP1 SWAP3 SWAP2 SWAP1 DUP2 DUP2 MSTORE PUSH1 0x20 ADD DUP3 DUP1 SLOAD PUSH2 0x1933 SWAP1 PUSH2 0x225C JUMP JUMPDEST DUP1 ISZERO PUSH2 0x197E JUMPI DUP1 PUSH1 0x1F LT PUSH2 0x1955 JUMPI PUSH2 0x100 DUP1 DUP4 SLOAD DIV MUL DUP4 MSTORE SWAP2 PUSH1 0x20 ADD SWAP2 PUSH2 0x197E JUMP JUMPDEST DUP3 ADD SWAP2 SWAP1 PUSH0 MSTORE PUSH1 0x20 PUSH0 KECCAK256 SWAP1 JUMPDEST DUP2 SLOAD DUP2 MSTORE SWAP1 PUSH1 0x1 ADD SWAP1 PUSH1 0x20 ADD DUP1 DUP4 GT PUSH2 0x1961 JUMPI DUP3 SWAP1 SUB PUSH1 0x1F AND DUP3 ADD SWAP2 JUMPDEST POP POP POP POP POP DUP2 MSTORE PUSH1 0x20 ADD PUSH1 0x2 DUP3 ADD SLOAD DUP2 MSTORE POP POP DUP2 MSTORE PUSH1 0x20 ADD SWAP1 PUSH1 0x1 ADD SWAP1 PUSH2 0x18CD JUMP JUMPDEST POP POP POP POP SWAP1 POP SWAP2 SWAP1 POP JUMP JUMPDEST PUSH2 0x19B3 PUSH2 0x1AF3 JUMP JUMPDEST PUSH20 0xFFFFFFFFFFFFFFFFFFFFFFFFFFFFFFFFFFFFFFFF AND PUSH2 0x19D1 PUSH2 0x11A4 JUMP JUMPDEST PUSH20 0xFFFFFFFFFFFFFFFFFFFFFFFFFFFFFFFFFFFFFFFF AND EQ PUSH2 0x1A30 JUMPI PUSH2 0x19F4 PUSH2 0x1AF3 JUMP JUMPDEST PUSH1 0x40 MLOAD PUSH32 0x118CDAA700000000000000000000000000000000000000000000000000000000 DUP2 MSTORE PUSH1 0x4 ADD PUSH2 0x1A27 SWAP2 SWAP1 PUSH2 0x2156 JUMP JUMPDEST PUSH1 0x40 MLOAD DUP1 SWAP2 SUB SWAP1 REVERT JUMPDEST JUMP JUMPDEST PUSH0 PUSH0 PUSH0 SWAP1 SLOAD SWAP1 PUSH2 0x100 EXP SWAP1 DIV PUSH20 0xFFFFFFFFFFFFFFFFFFFFFFFFFFFFFFFFFFFFFFFF AND SWAP1 POP DUP2 PUSH0 PUSH0 PUSH2 0x100 EXP DUP2 SLOAD DUP2 PUSH20 0xFFFFFFFFFFFFFFFFFFFFFFFFFFFFFFFFFFFFFFFF MUL NOT AND SWAP1 DUP4 PUSH20 0xFFFFFFFFFFFFFFFFFFFFFFFFFFFFFFFFFFFFFFFF AND MUL OR SWAP1 SSTORE POP DUP2 PUSH20 0xFFFFFFFFFFFFFFFFFFFFFFFFFFFFFFFFFFFFFFFF AND DUP2 PUSH20 0xFFFFFFFFFFFFFFFFFFFFFFFFFFFFFFFFFFFFFFFF AND PUSH32 0x8BE0079C531659141344CD1FD0A4F28419497F9722A3DAAFE3B4186F6B6457E0 PUSH1 0x40 MLOAD PUSH1 0x40 MLOAD DUP1 SWAP2 SUB SWAP1 LOG3 POP POP JUMP JUMPDEST PUSH0 CALLER SWAP1 POP SWAP1 JUMP JUMPDEST PUSH1 0x40 MLOAD DUP1 PUSH1 0x60 ADD PUSH1 0x40 MSTORE DUP1 PUSH0 PUSH1 0x5 DUP2 GT ISZERO PUSH2 0x1B18 JUMPI PUSH2 0x1B17 PUSH2 0x1C00 JUMP JUMPDEST JUMPDEST DUP2 MSTORE PUSH1 0x20 ADD PUSH0 DUP2 MSTORE PUSH1 0x20 ADD PUSH1 0x60 DUP2 MSTORE POP SWAP1 JUMP JUMPDEST DUP3 DUP1 SLOAD DUP3 DUP3 SSTORE SWAP1 PUSH0 MSTORE PUSH1 0x20 PUSH0 KECCAK256 SWAP1 DUP2 ADD SWAP3 DUP3 ISZERO PUSH2 0x1B65 JUMPI SWAP2 PUSH1 0x20 MUL DUP3 ADD JUMPDEST DUP3 DUP2 GT ISZERO PUSH2 0x1B64 JUMPI DUP3 MLOAD DUP3 SSTORE SWAP2 PUSH1 0x20 ADD SWAP2 SWAP1 PUSH1 0x1 ADD SWAP1 PUSH2 0x1B49 JUMP JUMPDEST JUMPDEST POP SWAP1 POP PUSH2 0x1B72 SWAP2 SWAP1 PUSH2 0x1B76 JUMP JUMPDEST POP SWAP1 JUMP JUMPDEST JUMPDEST DUP1 DUP3 GT ISZERO PUSH2 0x1B8D JUMPI PUSH0 DUP2 PUSH0 SWAP1 SSTORE POP PUSH1 0x1 ADD PUSH2 0x1B77 JUMP JUMPDEST POP SWAP1 JUMP JUMPDEST PUSH0 PUSH1 0x40 MLOAD SWAP1 POP SWAP1 JUMP JUMPDEST PUSH0 PUSH0 REVERT JUMPDEST PUSH0 PUSH0 REVERT JUMPDEST PUSH0 DUP2 SWAP1 POP SWAP2 SWAP1 POP JUMP JUMPDEST PUSH2 0x1BB4 DUP2 PUSH2 0x1BA2 JUMP JUMPDEST DUP2 EQ PUSH2 0x1BBE JUMPI PUSH0 PUSH0 REVERT JUMPDEST POP JUMP JUMPDEST PUSH0 DUP2 CALLDATALOAD SWAP1 POP PUSH2 0x1BCF DUP2 PUSH2 0x1BAB JUMP JUMPDEST SWAP3 SWAP2 POP POP JUMP JUMPDEST PUSH0 PUSH1 0x20 DUP3 DUP5 SUB SLT ISZERO PUSH2 0x1BEA JUMPI PUSH2 0x1BE9 PUSH2 0x1B9A JUMP JUMPDEST JUMPDEST PUSH0 PUSH2 0x1BF7 DUP5 DUP3 DUP6 ADD PUSH2 0x1BC1 JUMP JUMPDEST SWAP2 POP POP SWAP3 SWAP2 POP POP JUMP JUMPDEST PUSH32 0x4E487B7100000000000000000000000000000000000000000000000000000000 PUSH0 MSTORE PUSH1 0x21 PUSH1 0x4 MSTORE PUSH1 0x24 PUSH0 REVERT JUMPDEST PUSH1 0x6 DUP2 LT PUSH2 0x1C3E JUMPI PUSH2 0x1C3D PUSH2 0x1C00 JUMP JUMPDEST JUMPDEST POP JUMP JUMPDEST PUSH0 DUP2 SWAP1 POP PUSH2 0x1C4E DUP3 PUSH2 0x1C2D JUMP JUMPDEST SWAP2 SWAP1 POP JUMP JUMPDEST PUSH0 PUSH2 0x1C5D DUP3 PUSH2 0x1C41 JUMP JUMPDEST SWAP1 POP SWAP2 SWAP1 POP JUMP JUMPDEST PUSH2 0x1C6D DUP2 PUSH2 0x1C53 JUMP JUMPDEST DUP3 MSTORE POP POP JUMP JUMPDEST PUSH2 0x1C7C DUP2 PUSH2 0x1BA2 JUMP JUMPDEST DUP3 MSTORE POP POP JUMP JUMPDEST PUSH0 PUSH1 0x40 DUP3 ADD SWAP1 POP PUSH2 0x1C95 PUSH0 DUP4 ADD DUP6 PUSH2 0x1C64 JUMP JUMPDEST PUSH2 0x1CA2 PUSH1 0x20 DUP4 ADD DUP5 PUSH2 0x1C73 JUMP JUMPDEST SWAP4 SWAP3 POP POP POP JUMP JUMPDEST PUSH2 0x1CB2 DUP2 PUSH2 0x1C53 JUMP JUMPDEST DUP3 MSTORE POP POP JUMP JUMPDEST PUSH2 0x1CC1 DUP2 PUSH2 0x1BA2 JUMP JUMPDEST DUP3 MSTORE POP POP JUMP JUMPDEST PUSH0 DUP2 MLOAD SWAP1 POP SWAP2 SWAP1 POP JUMP JUMPDEST PUSH0 DUP3 DUP3 MSTORE PUSH1 0x20 DUP3 ADD SWAP1 POP SWAP3 SWAP2 POP POP JUMP JUMPDEST PUSH0 DUP2 SWAP1 POP PUSH1 0x20 DUP3 ADD SWAP1 POP SWAP2 SWAP1 POP JUMP JUMPDEST PUSH0 DUP2 MLOAD SWAP1 POP SWAP2 SWAP1 POP JUMP JUMPDEST PUSH0 DUP3 DUP3 MSTORE PUSH1 0x20 DUP3 ADD SWAP1 POP SWAP3 SWAP2 POP POP JUMP JUMPDEST DUP3 DUP2 DUP4 MCOPY PUSH0 DUP4 DUP4 ADD MSTORE POP POP POP JUMP JUMPDEST PUSH0 PUSH1 0x1F NOT PUSH1 0x1F DUP4 ADD AND SWAP1 POP SWAP2 SWAP1 POP JUMP JUMPDEST PUSH0 PUSH2 0x1D32 DUP3 PUSH2 0x1CF0 JUMP JUMPDEST PUSH2 0x1D3C DUP2 DUP6 PUSH2 0x1CFA JUMP JUMPDEST SWAP4 POP PUSH2 0x1D4C DUP2 DUP6 PUSH1 0x20 DUP7 ADD PUSH2 0x1D0A JUMP JUMPDEST PUSH2 0x1D55 DUP2 PUSH2 0x1D18 JUMP JUMPDEST DUP5 ADD SWAP2 POP POP SWAP3 SWAP2 POP POP JUMP JUMPDEST PUSH0 PUSH1 0x60 DUP4 ADD PUSH0 DUP4 ADD MLOAD PUSH2 0x1D75 PUSH0 DUP7 ADD DUP3 PUSH2 0x1CB8 JUMP JUMPDEST POP PUSH1 0x20 DUP4 ADD MLOAD DUP5 DUP3 SUB PUSH1 0x20 DUP7 ADD MSTORE PUSH2 0x1D8D DUP3 DUP3 PUSH2 0x1D28 JUMP JUMPDEST SWAP2 POP POP PUSH1 0x40 DUP4 ADD MLOAD PUSH2 0x1DA2 PUSH1 0x40 DUP7 ADD DUP3 PUSH2 0x1CB8 JUMP JUMPDEST POP DUP1 SWAP2 POP POP SWAP3 SWAP2 POP POP JUMP JUMPDEST PUSH0 PUSH2 0x1DB8 DUP4 DUP4 PUSH2 0x1D60 JUMP JUMPDEST SWAP1 POP SWAP3 SWAP2 POP POP JUMP JUMPDEST PUSH0 PUSH1 0x20 DUP3 ADD SWAP1 POP SWAP2 SWAP1 POP JUMP JUMPDEST PUSH0 PUSH2 0x1DD6 DUP3 PUSH2 0x1CC7 JUMP JUMPDEST PUSH2 0x1DE0 DUP2 DUP6 PUSH2 0x1CD1 JUMP JUMPDEST SWAP4 POP DUP4 PUSH1 0x20 DUP3 MUL DUP6 ADD PUSH2 0x1DF2 DUP6 PUSH2 0x1CE1 JUMP JUMPDEST DUP1 PUSH0 JUMPDEST DUP6 DUP2 LT ISZERO PUSH2 0x1E2D JUMPI DUP5 DUP5 SUB DUP10 MSTORE DUP2 MLOAD PUSH2 0x1E0E DUP6 DUP3 PUSH2 0x1DAD JUMP JUMPDEST SWAP5 POP PUSH2 0x1E19 DUP4 PUSH2 0x1DC0 JUMP JUMPDEST SWAP3 POP PUSH1 0x20 DUP11 ADD SWAP10 POP POP PUSH1 0x1 DUP2 ADD SWAP1 POP PUSH2 0x1DF5 JUMP JUMPDEST POP DUP3 SWAP8 POP DUP8 SWAP6 POP POP POP POP POP POP SWAP3 SWAP2 POP POP JUMP JUMPDEST PUSH0 PUSH1 0x60 DUP4 ADD PUSH0 DUP4 ADD MLOAD PUSH2 0x1E54 PUSH0 DUP7 ADD DUP3 PUSH2 0x1CA9 JUMP JUMPDEST POP PUSH1 0x20 DUP4 ADD MLOAD PUSH2 0x1E67 PUSH1 0x20 DUP7 ADD DUP3 PUSH2 0x1CB8 JUMP JUMPDEST POP PUSH1 0x40 DUP4 ADD MLOAD DUP5 DUP3 SUB PUSH1 0x40 DUP7 ADD MSTORE PUSH2 0x1E7F DUP3 DUP3 PUSH2 0x1DCC JUMP JUMPDEST SWAP2 POP POP DUP1 SWAP2 POP POP SWAP3 SWAP2 POP POP JUMP JUMPDEST PUSH0 PUSH1 0x20 DUP3 ADD SWAP1 POP DUP2 DUP2 SUB PUSH0 DUP4 ADD MSTORE PUSH2 0x1EA4 DUP2 DUP5 PUSH2 0x1E3F JUMP JUMPDEST SWAP1 POP SWAP3 SWAP2 POP POP JUMP JUMPDEST PUSH0 PUSH20 0xFFFFFFFFFFFFFFFFFFFFFFFFFFFFFFFFFFFFFFFF DUP3 AND SWAP1 POP SWAP2 SWAP1 POP JUMP JUMPDEST PUSH0 PUSH2 0x1ED5 DUP3 PUSH2 0x1EAC JUMP JUMPDEST SWAP1 POP SWAP2 SWAP1 POP JUMP JUMPDEST PUSH2 0x1EE5 DUP2 PUSH2 0x1ECB JUMP JUMPDEST DUP2 EQ PUSH2 0x1EEF JUMPI PUSH0 PUSH0 REVERT JUMPDEST POP JUMP JUMPDEST PUSH0 DUP2 CALLDATALOAD SWAP1 POP PUSH2 0x1F00 DUP2 PUSH2 0x1EDC JUMP JUMPDEST SWAP3 SWAP2 POP POP JUMP JUMPDEST PUSH0 PUSH1 0x20 DUP3 DUP5 SUB SLT ISZERO PUSH2 0x1F1B JUMPI PUSH2 0x1F1A PUSH2 0x1B9A JUMP JUMPDEST JUMPDEST PUSH0 PUSH2 0x1F28 DUP5 DUP3 DUP6 ADD PUSH2 0x1EF2 JUMP JUMPDEST SWAP2 POP POP SWAP3 SWAP2 POP POP JUMP JUMPDEST PUSH0 PUSH0 REVERT JUMPDEST PUSH0 PUSH0 REVERT JUMPDEST PUSH32 0x4E487B7100000000000000000000000000000000000000000000000000000000 PUSH0 MSTORE PUSH1 0x41 PUSH1 0x4 MSTORE PUSH1 0x24 PUSH0 REVERT JUMPDEST PUSH2 0x1F6F DUP3 PUSH2 0x1D18 JUMP JUMPDEST DUP2 ADD DUP2 DUP2 LT PUSH8 0xFFFFFFFFFFFFFFFF DUP3 GT OR ISZERO PUSH2 0x1F8E JUMPI PUSH2 0x1F8D PUSH2 0x1F39 JUMP JUMPDEST JUMPDEST DUP1 PUSH1 0x40 MSTORE POP POP POP JUMP JUMPDEST PUSH0 PUSH2 0x1FA0 PUSH2 0x1B91 JUMP JUMPDEST SWAP1 POP PUSH2 0x1FAC DUP3 DUP3 PUSH2 0x1F66 JUMP JUMPDEST SWAP2 SWAP1 POP JUMP JUMPDEST PUSH0 PUSH8 0xFFFFFFFFFFFFFFFF DUP3 GT ISZERO PUSH2 0x1FCB JUMPI PUSH2 0x1FCA PUSH2 0x1F39 JUMP JUMPDEST JUMPDEST PUSH2 0x1FD4 DUP3 PUSH2 0x1D18 JUMP JUMPDEST SWAP1 POP PUSH1 0x20 DUP2 ADD SWAP1 POP SWAP2 SWAP1 POP JUMP JUMPDEST DUP3 DUP2 DUP4 CALLDATACOPY PUSH0 DUP4 DUP4 ADD MSTORE POP POP POP JUMP JUMPDEST PUSH0 PUSH2 0x2001 PUSH2 0x1FFC DUP5 PUSH2 0x1FB1 JUMP JUMPDEST PUSH2 0x1F97 JUMP JUMPDEST SWAP1 POP DUP3 DUP2 MSTORE PUSH1 0x20 DUP2 ADD DUP5 DUP5 DUP5 ADD GT ISZERO PUSH2 0x201D JUMPI PUSH2 0x201C PUSH2 0x1F35 JUMP JUMPDEST JUMPDEST PUSH2 0x2028 DUP5 DUP3 DUP6 PUSH2 0x1FE1 JUMP JUMPDEST POP SWAP4 SWAP3 POP POP POP JUMP JUMPDEST PUSH0 DUP3 PUSH1 0x1F DUP4 ADD SLT PUSH2 0x2044 JUMPI PUSH2 0x2043 PUSH2 0x1F31 JUMP JUMPDEST JUMPDEST DUP2 CALLDATALOAD PUSH2 0x2054 DUP5 DUP3 PUSH1 0x20 DUP7 ADD PUSH2 0x1FEF JUMP JUMPDEST SWAP2 POP POP SWAP3 SWAP2 POP POP JUMP JUMPDEST PUSH0 PUSH1 0x20 DUP3 DUP5 SUB SLT ISZERO PUSH2 0x2072 JUMPI PUSH2 0x2071 PUSH2 0x1B9A JUMP JUMPDEST JUMPDEST PUSH0 DUP3 ADD CALLDATALOAD PUSH8 0xFFFFFFFFFFFFFFFF DUP2 GT ISZERO PUSH2 0x208F JUMPI PUSH2 0x208E PUSH2 0x1B9E JUMP JUMPDEST JUMPDEST PUSH2 0x209B DUP5 DUP3 DUP6 ADD PUSH2 0x2030 JUMP JUMPDEST SWAP2 POP POP SWAP3 SWAP2 POP POP JUMP JUMPDEST PUSH0 DUP3 DUP3 MSTORE PUSH1 0x20 DUP3 ADD SWAP1 POP SWAP3 SWAP2 POP POP JUMP JUMPDEST PUSH0 PUSH2 0x20BE DUP3 PUSH2 0x1CC7 JUMP JUMPDEST PUSH2 0x20C8 DUP2 DUP6 PUSH2 0x20A4 JUMP JUMPDEST SWAP4 POP DUP4 PUSH1 0x20 DUP3 MUL DUP6 ADD PUSH2 0x20DA DUP6 PUSH2 0x1CE1 JUMP JUMPDEST DUP1 PUSH0 JUMPDEST DUP6 DUP2 LT ISZERO PUSH2 0x2115 JUMPI DUP5 DUP5 SUB DUP10 MSTORE DUP2 MLOAD PUSH2 0x20F6 DUP6 DUP3 PUSH2 0x1DAD JUMP JUMPDEST SWAP5 POP PUSH2 0x2101 DUP4 PUSH2 0x1DC0 JUMP JUMPDEST SWAP3 POP PUSH1 0x20 DUP11 ADD SWAP10 POP POP PUSH1 0x1 DUP2 ADD SWAP1 POP PUSH2 0x20DD JUMP JUMPDEST POP DUP3 SWAP8 POP DUP8 SWAP6 POP POP POP POP POP POP SWAP3 SWAP2 POP POP JUMP JUMPDEST PUSH0 PUSH1 0x20 DUP3 ADD SWAP1 POP DUP2 DUP2 SUB PUSH0 DUP4 ADD MSTORE PUSH2 0x213F DUP2 DUP5 PUSH2 0x20B4 JUMP JUMPDEST SWAP1 POP SWAP3 SWAP2 POP POP JUMP JUMPDEST PUSH2 0x2150 DUP2 PUSH2 0x1ECB JUMP JUMPDEST DUP3 MSTORE POP POP JUMP JUMPDEST PUSH0 PUSH1 0x20 DUP3 ADD SWAP1 POP PUSH2 0x2169 PUSH0 DUP4 ADD DUP5 PUSH2 0x2147 JUMP JUMPDEST SWAP3 SWAP2 POP POP JUMP JUMPDEST PUSH0 PUSH1 0x20 DUP3 ADD SWAP1 POP PUSH2 0x2182 PUSH0 DUP4 ADD DUP5 PUSH2 0x1C73 JUMP JUMPDEST SWAP3 SWAP2 POP POP JUMP JUMPDEST PUSH0 DUP2 ISZERO ISZERO SWAP1 POP SWAP2 SWAP1 POP JUMP JUMPDEST PUSH2 0x219C DUP2 PUSH2 0x2188 JUMP JUMPDEST DUP3 MSTORE POP POP JUMP JUMPDEST PUSH0 PUSH1 0x20 DUP3 ADD SWAP1 POP PUSH2 0x21B5 PUSH0 DUP4 ADD DUP5 PUSH2 0x2193 JUMP JUMPDEST SWAP3 SWAP2 POP POP JUMP JUMPDEST PUSH32 0x4E487B7100000000000000000000000000000000000000000000000000000000 PUSH0 MSTORE PUSH1 0x11 PUSH1 0x4 MSTORE PUSH1 0x24 PUSH0 REVERT JUMPDEST PUSH0 PUSH2 0x21F2 DUP3 PUSH2 0x1BA2 JUMP JUMPDEST SWAP2 POP PUSH32 0xFFFFFFFFFFFFFFFFFFFFFFFFFFFFFFFFFFFFFFFFFFFFFFFFFFFFFFFFFFFFFFFF DUP3 SUB PUSH2 0x2224 JUMPI PUSH2 0x2223 PUSH2 0x21BB JUMP JUMPDEST JUMPDEST PUSH1 0x1 DUP3 ADD SWAP1 POP SWAP2 SWAP1 POP JUMP JUMPDEST PUSH32 0x4E487B7100000000000000000000000000000000000000000000000000000000 PUSH0 MSTORE PUSH1 0x22 PUSH1 0x4 MSTORE PUSH1 0x24 PUSH0 REVERT JUMPDEST PUSH0 PUSH1 0x2 DUP3 DIV SWAP1 POP PUSH1 0x1 DUP3 AND DUP1 PUSH2 0x2273 JUMPI PUSH1 0x7F DUP3 AND SWAP2 POP JUMPDEST PUSH1 0x20 DUP3 LT DUP2 SUB PUSH2 0x2286 JUMPI PUSH2 0x2285 PUSH2 0x222F JUMP JUMPDEST JUMPDEST POP SWAP2 SWAP1 POP JUMP JUMPDEST PUSH0 DUP3 DUP3 MSTORE PUSH1 0x20 DUP3 ADD SWAP1 POP SWAP3 SWAP2 POP POP JUMP JUMPDEST PUSH32 0x526567697374726174696F6E206E6F74207374617274656420666F7220746869 PUSH0 DUP3 ADD MSTORE PUSH32 0x732073657373696F6E0000000000000000000000000000000000000000000000 PUSH1 0x20 DUP3 ADD MSTORE POP JUMP JUMPDEST PUSH0 PUSH2 0x22F6 PUSH1 0x29 DUP4 PUSH2 0x228C JUMP JUMPDEST SWAP2 POP PUSH2 0x2301 DUP3 PUSH2 0x229C JUMP JUMPDEST PUSH1 0x40 DUP3 ADD SWAP1 POP SWAP2 SWAP1 POP JUMP JUMPDEST PUSH0 PUSH1 0x20 DUP3 ADD SWAP1 POP DUP2 DUP2 SUB PUSH0 DUP4 ADD MSTORE PUSH2 0x2323 DUP2 PUSH2 0x22EA JUMP JUMPDEST SWAP1 POP SWAP2 SWAP1 POP JUMP JUMPDEST PUSH32 0x566F74657220697320616C726561647920726567697374657265640000000000 PUSH0 DUP3 ADD MSTORE POP JUMP JUMPDEST PUSH0 PUSH2 0x235E PUSH1 0x1B DUP4 PUSH2 0x228C JUMP JUMPDEST SWAP2 POP PUSH2 0x2369 DUP3 PUSH2 0x232A JUMP JUMPDEST PUSH1 0x20 DUP3 ADD SWAP1 POP SWAP2 SWAP1 POP JUMP JUMPDEST PUSH0 PUSH1 0x20 DUP3 ADD SWAP1 POP DUP2 DUP2 SUB PUSH0 DUP4 ADD MSTORE PUSH2 0x238B DUP2 PUSH2 0x2352 JUMP JUMPDEST SWAP1 POP SWAP2 SWAP1 POP JUMP JUMPDEST PUSH32 0x596F7520617265206E6F74207265676973746572656400000000000000000000 PUSH0 DUP3 ADD MSTORE POP JUMP JUMPDEST PUSH0 PUSH2 0x23C6 PUSH1 0x16 DUP4 PUSH2 0x228C JUMP JUMPDEST SWAP2 POP PUSH2 0x23D1 DUP3 PUSH2 0x2392 JUMP JUMPDEST PUSH1 0x20 DUP3 ADD SWAP1 POP SWAP2 SWAP1 POP JUMP JUMPDEST PUSH0 PUSH1 0x20 DUP3 ADD SWAP1 POP DUP2 DUP2 SUB PUSH0 DUP4 ADD MSTORE PUSH2 0x23F3 DUP2 PUSH2 0x23BA JUMP JUMPDEST SWAP1 POP SWAP2 SWAP1 POP JUMP JUMPDEST PUSH32 0x50726F706F73616C206465736372697074696F6E206973207265717569726564 PUSH0 DUP3 ADD MSTORE POP JUMP JUMPDEST PUSH0 PUSH2 0x242E PUSH1 0x20 DUP4 PUSH2 0x228C JUMP JUMPDEST SWAP2 POP PUSH2 0x2439 DUP3 PUSH2 0x23FA JUMP JUMPDEST PUSH1 0x20 DUP3 ADD SWAP1 POP SWAP2 SWAP1 POP JUMP JUMPDEST PUSH0 PUSH1 0x20 DUP3 ADD SWAP1 POP DUP2 DUP2 SUB PUSH0 DUP4 ADD MSTORE PUSH2 0x245B DUP2 PUSH2 0x2422 JUMP JUMPDEST SWAP1 POP SWAP2 SWAP1 POP JUMP JUMPDEST PUSH32 0x50726F706F73616C73206E6F74207374617274656420666F7220746869732073 PUSH0 DUP3 ADD MSTORE PUSH32 0x657373696F6E0000000000000000000000000000000000000000000000000000 PUSH1 0x20 DUP3 ADD MSTORE POP JUMP JUMPDEST PUSH0 PUSH2 0x24BC PUSH1 0x26 DUP4 PUSH2 0x228C JUMP JUMPDEST SWAP2 POP PUSH2 0x24C7 DUP3 PUSH2 0x2462 JUMP JUMPDEST PUSH1 0x40 DUP3 ADD SWAP1 POP SWAP2 SWAP1 POP JUMP JUMPDEST PUSH0 PUSH1 0x20 DUP3 ADD SWAP1 POP DUP2 DUP2 SUB PUSH0 DUP4 ADD MSTORE PUSH2 0x24E9 DUP2 PUSH2 0x24B0 JUMP JUMPDEST SWAP1 POP SWAP2 SWAP1 POP JUMP JUMPDEST PUSH0 DUP2 SWAP1 POP DUP2 PUSH0 MSTORE PUSH1 0x20 PUSH0 KECCAK256 SWAP1 POP SWAP2 SWAP1 POP JUMP JUMPDEST PUSH0 PUSH1 0x20 PUSH1 0x1F DUP4 ADD DIV SWAP1 POP SWAP2 SWAP1 POP JUMP JUMPDEST PUSH0 DUP3 DUP3 SHL SWAP1 POP SWAP3 SWAP2 POP POP JUMP JUMPDEST PUSH0 PUSH1 0x8 DUP4 MUL PUSH2 0x254C PUSH32 0xFFFFFFFFFFFFFFFFFFFFFFFFFFFFFFFFFFFFFFFFFFFFFFFFFFFFFFFFFFFFFFFF DUP3 PUSH2 0x2511 JUMP JUMPDEST PUSH2 0x2556 DUP7 DUP4 PUSH2 0x2511 JUMP JUMPDEST SWAP6 POP DUP1 NOT DUP5 AND SWAP4 POP DUP1 DUP7 AND DUP5 OR SWAP3 POP POP POP SWAP4 SWAP3 POP POP POP JUMP JUMPDEST PUSH0 DUP2 SWAP1 POP SWAP2 SWAP1 POP JUMP JUMPDEST PUSH0 PUSH2 0x2591 PUSH2 0x258C PUSH2 0x2587 DUP5 PUSH2 0x1BA2 JUMP JUMPDEST PUSH2 0x256E JUMP JUMPDEST PUSH2 0x1BA2 JUMP JUMPDEST SWAP1 POP SWAP2 SWAP1 POP JUMP JUMPDEST PUSH0 DUP2 SWAP1 POP SWAP2 SWAP1 POP JUMP JUMPDEST PUSH2 0x25AA DUP4 PUSH2 0x2577 JUMP JUMPDEST PUSH2 0x25BE PUSH2 0x25B6 DUP3 PUSH2 0x2598 JUMP JUMPDEST DUP5 DUP5 SLOAD PUSH2 0x251D JUMP JUMPDEST DUP3 SSTORE POP POP POP POP JUMP JUMPDEST PUSH0 PUSH0 SWAP1 POP SWAP1 JUMP JUMPDEST PUSH2 0x25D5 PUSH2 0x25C6 JUMP JUMPDEST PUSH2 0x25E0 DUP2 DUP5 DUP5 PUSH2 0x25A1 JUMP JUMPDEST POP POP POP JUMP JUMPDEST JUMPDEST DUP2 DUP2 LT ISZERO PUSH2 0x2603 JUMPI PUSH2 0x25F8 PUSH0 DUP3 PUSH2 0x25CD JUMP JUMPDEST PUSH1 0x1 DUP2 ADD SWAP1 POP PUSH2 0x25E6 JUMP JUMPDEST POP POP JUMP JUMPDEST PUSH1 0x1F DUP3 GT ISZERO PUSH2 0x2648 JUMPI PUSH2 0x2619 DUP2 PUSH2 0x24F0 JUMP JUMPDEST PUSH2 0x2622 DUP5 PUSH2 0x2502 JUMP JUMPDEST DUP2 ADD PUSH1 0x20 DUP6 LT ISZERO PUSH2 0x2631 JUMPI DUP2 SWAP1 POP JUMPDEST PUSH2 0x2645 PUSH2 0x263D DUP6 PUSH2 0x2502 JUMP JUMPDEST DUP4 ADD DUP3 PUSH2 0x25E5 JUMP JUMPDEST POP POP JUMPDEST POP POP POP JUMP JUMPDEST PUSH0 DUP3 DUP3 SHR SWAP1 POP SWAP3 SWAP2 POP POP JUMP JUMPDEST PUSH0 PUSH2 0x2668 PUSH0 NOT DUP5 PUSH1 0x8 MUL PUSH2 0x264D JUMP JUMPDEST NOT DUP1 DUP4 AND SWAP2 POP POP SWAP3 SWAP2 POP POP JUMP JUMPDEST PUSH0 PUSH2 0x2680 DUP4 DUP4 PUSH2 0x2659 JUMP JUMPDEST SWAP2 POP DUP3 PUSH1 0x2 MUL DUP3 OR SWAP1 POP SWAP3 SWAP2 POP POP JUMP JUMPDEST PUSH2 0x2699 DUP3 PUSH2 0x1CF0 JUMP JUMPDEST PUSH8 0xFFFFFFFFFFFFFFFF DUP2 GT ISZERO PUSH2 0x26B2 JUMPI PUSH2 0x26B1 PUSH2 0x1F39 JUMP JUMPDEST JUMPDEST PUSH2 0x26BC DUP3 SLOAD PUSH2 0x225C JUMP JUMPDEST PUSH2 0x26C7 DUP3 DUP3 DUP6 PUSH2 0x2607 JUMP JUMPDEST PUSH0 PUSH1 0x20 SWAP1 POP PUSH1 0x1F DUP4 GT PUSH1 0x1 DUP2 EQ PUSH2 0x26F8 JUMPI PUSH0 DUP5 ISZERO PUSH2 0x26E6 JUMPI DUP3 DUP8 ADD MLOAD SWAP1 POP JUMPDEST PUSH2 0x26F0 DUP6 DUP3 PUSH2 0x2675 JUMP JUMPDEST DUP7 SSTORE POP PUSH2 0x2757 JUMP JUMPDEST PUSH1 0x1F NOT DUP5 AND PUSH2 0x2706 DUP7 PUSH2 0x24F0 JUMP JUMPDEST PUSH0 JUMPDEST DUP3 DUP2 LT ISZERO PUSH2 0x272D JUMPI DUP5 DUP10 ADD MLOAD DUP3 SSTORE PUSH1 0x1 DUP3 ADD SWAP2 POP PUSH1 0x20 DUP6 ADD SWAP5 POP PUSH1 0x20 DUP2 ADD SWAP1 POP PUSH2 0x2708 JUMP JUMPDEST DUP7 DUP4 LT ISZERO PUSH2 0x274A JUMPI DUP5 DUP10 ADD MLOAD PUSH2 0x2746 PUSH1 0x1F DUP10 AND DUP3 PUSH2 0x2659 JUMP JUMPDEST DUP4 SSTORE POP JUMPDEST PUSH1 0x1 PUSH1 0x2 DUP9 MUL ADD DUP9 SSTORE POP POP POP JUMPDEST POP POP POP POP POP POP JUMP JUMPDEST PUSH32 0x50726F706F73616C7320726567697374726174696F6E206E6F74207374617274 PUSH0 DUP3 ADD MSTORE PUSH32 0x656420666F7220746869732073657373696F6E00000000000000000000000000 PUSH1 0x20 DUP3 ADD MSTORE POP JUMP JUMPDEST PUSH0 PUSH2 0x27B9 PUSH1 0x33 DUP4 PUSH2 0x228C JUMP JUMPDEST SWAP2 POP PUSH2 0x27C4 DUP3 PUSH2 0x275F JUMP JUMPDEST PUSH1 0x40 DUP3 ADD SWAP1 POP SWAP2 SWAP1 POP JUMP JUMPDEST PUSH0 PUSH1 0x20 DUP3 ADD SWAP1 POP DUP2 DUP2 SUB PUSH0 DUP4 ADD MSTORE PUSH2 0x27E6 DUP2 PUSH2 0x27AD JUMP JUMPDEST SWAP1 POP SWAP2 SWAP1 POP JUMP JUMPDEST PUSH0 PUSH1 0x40 DUP3 ADD SWAP1 POP PUSH2 0x2800 PUSH0 DUP4 ADD DUP6 PUSH2 0x1C64 JUMP JUMPDEST PUSH2 0x280D PUSH1 0x20 DUP4 ADD DUP5 PUSH2 0x1C64 JUMP JUMPDEST SWAP4 SWAP3 POP POP POP JUMP JUMPDEST PUSH32 0x566F74657220697320616C726561647920756E72656769737465726564000000 PUSH0 DUP3 ADD MSTORE POP JUMP JUMPDEST PUSH0 PUSH2 0x2848 PUSH1 0x1D DUP4 PUSH2 0x228C JUMP JUMPDEST SWAP2 POP PUSH2 0x2853 DUP3 PUSH2 0x2814 JUMP JUMPDEST PUSH1 0x20 DUP3 ADD SWAP1 POP SWAP2 SWAP1 POP JUMP JUMPDEST PUSH0 PUSH1 0x20 DUP3 ADD SWAP1 POP DUP2 DUP2 SUB PUSH0 DUP4 ADD MSTORE PUSH2 0x2875 DUP2 PUSH2 0x283C JUMP JUMPDEST SWAP1 POP SWAP2 SWAP1 POP JUMP JUMPDEST PUSH32 0x566F74696E672073657373696F6E206E6F7420656E6465640000000000000000 PUSH0 DUP3 ADD MSTORE POP JUMP JUMPDEST PUSH0 PUSH2 0x28B0 PUSH1 0x18 DUP4 PUSH2 0x228C JUMP JUMPDEST SWAP2 POP PUSH2 0x28BB DUP3 PUSH2 0x287C JUMP JUMPDEST PUSH1 0x20 DUP3 ADD SWAP1 POP SWAP2 SWAP1 POP JUMP JUMPDEST PUSH0 PUSH1 0x20 DUP3 ADD SWAP1 POP DUP2 DUP2 SUB PUSH0 DUP4 ADD MSTORE PUSH2 0x28DD DUP2 PUSH2 0x28A4 JUMP JUMPDEST SWAP1 POP SWAP2 SWAP1 POP JUMP JUMPDEST PUSH32 0x546869732073657373696F6E20686173206E6F2070726F706F73616C73000000 PUSH0 DUP3 ADD MSTORE POP JUMP JUMPDEST PUSH0 PUSH2 0x2918 PUSH1 0x1D DUP4 PUSH2 0x228C JUMP JUMPDEST SWAP2 POP PUSH2 0x2923 DUP3 PUSH2 0x28E4 JUMP JUMPDEST PUSH1 0x20 DUP3 ADD SWAP1 POP SWAP2 SWAP1 POP JUMP JUMPDEST PUSH0 PUSH1 0x20 DUP3 ADD SWAP1 POP DUP2 DUP2 SUB PUSH0 DUP4 ADD MSTORE PUSH2 0x2945 DUP2 PUSH2 0x290C JUMP JUMPDEST SWAP1 POP SWAP2 SWAP1 POP JUMP JUMPDEST PUSH32 0x4E487B7100000000000000000000000000000000000000000000000000000000 PUSH0 MSTORE PUSH1 0x32 PUSH1 0x4 MSTORE PUSH1 0x24 PUSH0 REVERT JUMPDEST PUSH32 0x566F74696E672073657373696F6E206E6F742073746172746564000000000000 PUSH0 DUP3 ADD MSTORE POP JUMP JUMPDEST PUSH0 PUSH2 0x29AD PUSH1 0x1A DUP4 PUSH2 0x228C JUMP JUMPDEST SWAP2 POP PUSH2 0x29B8 DUP3 PUSH2 0x2979 JUMP JUMPDEST PUSH1 0x20 DUP3 ADD SWAP1 POP SWAP2 SWAP1 POP JUMP JUMPDEST PUSH0 PUSH1 0x20 DUP3 ADD SWAP1 POP DUP2 DUP2 SUB PUSH0 DUP4 ADD MSTORE PUSH2 0x29DA DUP2 PUSH2 0x29A1 JUMP JUMPDEST SWAP1 POP SWAP2 SWAP1 POP JUMP JUMPDEST PUSH32 0x496E76616C69642070726F706F73616C20496400000000000000000000000000 PUSH0 DUP3 ADD MSTORE POP JUMP JUMPDEST PUSH0 PUSH2 0x2A15 PUSH1 0x13 DUP4 PUSH2 0x228C JUMP JUMPDEST SWAP2 POP PUSH2 0x2A20 DUP3 PUSH2 0x29E1 JUMP JUMPDEST PUSH1 0x20 DUP3 ADD SWAP1 POP SWAP2 SWAP1 POP JUMP JUMPDEST PUSH0 PUSH1 0x20 DUP3 ADD SWAP1 POP DUP2 DUP2 SUB PUSH0 DUP4 ADD MSTORE PUSH2 0x2A42 DUP2 PUSH2 0x2A09 JUMP JUMPDEST SWAP1 POP SWAP2 SWAP1 POP JUMP JUMPDEST PUSH32 0x596F75206861766520616C726561647920766F74656420666F72207468697320 PUSH0 DUP3 ADD MSTORE PUSH32 0x73657373696F6E00000000000000000000000000000000000000000000000000 PUSH1 0x20 DUP3 ADD MSTORE POP JUMP JUMPDEST PUSH0 PUSH2 0x2AA3 PUSH1 0x27 DUP4 PUSH2 0x228C JUMP JUMPDEST SWAP2 POP PUSH2 0x2AAE DUP3 PUSH2 0x2A49 JUMP JUMPDEST PUSH1 0x40 DUP3 ADD SWAP1 POP SWAP2 SWAP1 POP JUMP JUMPDEST PUSH0 PUSH1 0x20 DUP3 ADD SWAP1 POP DUP2 DUP2 SUB PUSH0 DUP4 ADD MSTORE PUSH2 0x2AD0 DUP2 PUSH2 0x2A97 JUMP JUMPDEST SWAP1 POP SWAP2 SWAP1 POP JUMP JUMPDEST PUSH0 PUSH1 0x40 DUP3 ADD SWAP1 POP PUSH2 0x2AEA PUSH0 DUP4 ADD DUP6 PUSH2 0x2147 JUMP JUMPDEST PUSH2 0x2AF7 PUSH1 0x20 DUP4 ADD DUP5 PUSH2 0x1C73 JUMP JUMPDEST SWAP4 SWAP3 POP POP POP JUMP JUMPDEST PUSH32 0x50726F706F73616C7320726567697374726174696F6E206E6F7420656E646564 PUSH0 DUP3 ADD MSTORE POP JUMP JUMPDEST PUSH0 PUSH2 0x2B32 PUSH1 0x20 DUP4 PUSH2 0x228C JUMP JUMPDEST SWAP2 POP PUSH2 0x2B3D DUP3 PUSH2 0x2AFE JUMP JUMPDEST PUSH1 0x20 DUP3 ADD SWAP1 POP SWAP2 SWAP1 POP JUMP JUMPDEST PUSH0 PUSH1 0x20 DUP3 ADD SWAP1 POP DUP2 DUP2 SUB PUSH0 DUP4 ADD MSTORE PUSH2 0x2B5F DUP2 PUSH2 0x2B26 JUMP JUMPDEST SWAP1 POP SWAP2 SWAP1 POP JUMP INVALID LOG2 PUSH5 0x6970667358 0x22 SLT KECCAK256 EXTSTATICCALL PUSH31 0x5757F41DEC8AB35B8B36F82CF4CDFAD01093FD8F9F25AB7C24A768F4B62064 PUSH20 0x6F6C634300081E00330000000000000000000000 "
				},
				"gasEstimates": {
					"creation": {
						"codeDepositCost": "2232800",
						"executionCost": "infinite",
						"totalCost": "infinite"
					},
					"external": {
						"computeMostVotedProposal()": "infinite",
						"createVotingSession()": "infinite",
						"currentVotingSessionId()": "2492",
						"endProposalsRegistration()": "infinite",
						"endVotingSession()": "infinite",
						"getAllProposalsBySession(uint256)": "infinite",
						"getAllProposalsFromCurrentSession()": "infinite",
						"getCurrentSession()": "infinite",
						"getWinningProposalBySession(uint256)": "infinite",
						"owner()": "2559",
						"registerVoter(address)": "infinite",
						"renounceOwnership()": "infinite",
						"sendNewProposition(string)": "infinite",
						"sendVote(uint256)": "infinite",
						"startProposalsRegistration()": "infinite",
						"startVotingSession()": "infinite",
						"transferOwnership(address)": "infinite",
						"unregisterVoter(address)": "infinite",
						"voters(address)": "2945",
						"votingSessions(uint256)": "infinite"
					}
				},
				"methodIdentifiers": {
					"computeMostVotedProposal()": "895d0faf",
					"createVotingSession()": "0a936e3a",
					"currentVotingSessionId()": "9bdfef30",
					"endProposalsRegistration()": "6c297445",
					"endVotingSession()": "a7bfab16",
					"getAllProposalsBySession(uint256)": "f38d3af8",
					"getAllProposalsFromCurrentSession()": "640be567",
					"getCurrentSession()": "1401795f",
					"getWinningProposalBySession(uint256)": "58fb94ec",
					"owner()": "8da5cb5b",
					"registerVoter(address)": "38db6dd3",
					"renounceOwnership()": "715018a6",
					"sendNewProposition(string)": "45bf58fd",
					"sendVote(uint256)": "c8f5714e",
					"startProposalsRegistration()": "e09b8c79",
					"startVotingSession()": "ee74c678",
					"transferOwnership(address)": "f2fde38b",
					"unregisterVoter(address)": "7ed17751",
					"voters(address)": "a3ec138d",
					"votingSessions(uint256)": "1186eb7c"
				}
			},
			"storageLayout": {
				"storage": [
					{
						"astId": 670,
						"contract": "contracts/13_VotingV3.sol:Voting",
						"label": "_owner",
						"offset": 0,
						"slot": "0",
						"type": "t_address"
					},
					{
						"astId": 6,
						"contract": "contracts/13_VotingV3.sol:Voting",
						"label": "currentVotingSessionId",
						"offset": 0,
						"slot": "1",
						"type": "t_uint256"
					},
					{
						"astId": 8,
						"contract": "contracts/13_VotingV3.sol:Voting",
						"label": "nonce",
						"offset": 0,
						"slot": "2",
						"type": "t_uint256"
					},
					{
						"astId": 13,
						"contract": "contracts/13_VotingV3.sol:Voting",
						"label": "votingSessions",
						"offset": 0,
						"slot": "3",
						"type": "t_mapping(t_uint256,t_struct(VotingSession)44_storage)"
					},
					{
						"astId": 18,
						"contract": "contracts/13_VotingV3.sol:Voting",
						"label": "voters",
						"offset": 0,
						"slot": "4",
						"type": "t_mapping(t_address,t_struct(Voter)27_storage)"
					}
				],
				"types": {
					"t_address": {
						"encoding": "inplace",
						"label": "address",
						"numberOfBytes": "20"
					},
					"t_array(t_struct(Proposal)34_storage)dyn_storage": {
						"base": "t_struct(Proposal)34_storage",
						"encoding": "dynamic_array",
						"label": "struct Voting.Proposal[]",
						"numberOfBytes": "32"
					},
					"t_array(t_uint256)dyn_storage": {
						"base": "t_uint256",
						"encoding": "dynamic_array",
						"label": "uint256[]",
						"numberOfBytes": "32"
					},
					"t_bool": {
						"encoding": "inplace",
						"label": "bool",
						"numberOfBytes": "1"
					},
					"t_enum(WorkflowStatus)51": {
						"encoding": "inplace",
						"label": "enum Voting.WorkflowStatus",
						"numberOfBytes": "1"
					},
					"t_mapping(t_address,t_struct(Voter)27_storage)": {
						"encoding": "mapping",
						"key": "t_address",
						"label": "mapping(address => struct Voting.Voter)",
						"numberOfBytes": "32",
						"value": "t_struct(Voter)27_storage"
					},
					"t_mapping(t_uint256,t_struct(VotingSession)44_storage)": {
						"encoding": "mapping",
						"key": "t_uint256",
						"label": "mapping(uint256 => struct Voting.VotingSession)",
						"numberOfBytes": "32",
						"value": "t_struct(VotingSession)44_storage"
					},
					"t_string_storage": {
						"encoding": "bytes",
						"label": "string",
						"numberOfBytes": "32"
					},
					"t_struct(Proposal)34_storage": {
						"encoding": "inplace",
						"label": "struct Voting.Proposal",
						"members": [
							{
								"astId": 29,
								"contract": "contracts/13_VotingV3.sol:Voting",
								"label": "id",
								"offset": 0,
								"slot": "0",
								"type": "t_uint256"
							},
							{
								"astId": 31,
								"contract": "contracts/13_VotingV3.sol:Voting",
								"label": "description",
								"offset": 0,
								"slot": "1",
								"type": "t_string_storage"
							},
							{
								"astId": 33,
								"contract": "contracts/13_VotingV3.sol:Voting",
								"label": "voteCount",
								"offset": 0,
								"slot": "2",
								"type": "t_uint256"
							}
						],
						"numberOfBytes": "96"
					},
					"t_struct(Voter)27_storage": {
						"encoding": "inplace",
						"label": "struct Voting.Voter",
						"members": [
							{
								"astId": 20,
								"contract": "contracts/13_VotingV3.sol:Voting",
								"label": "isRegistered",
								"offset": 0,
								"slot": "0",
								"type": "t_bool"
							},
							{
								"astId": 23,
								"contract": "contracts/13_VotingV3.sol:Voting",
								"label": "votedSessionIds",
								"offset": 0,
								"slot": "1",
								"type": "t_array(t_uint256)dyn_storage"
							},
							{
								"astId": 26,
								"contract": "contracts/13_VotingV3.sol:Voting",
								"label": "proposalIds",
								"offset": 0,
								"slot": "2",
								"type": "t_array(t_uint256)dyn_storage"
							}
						],
						"numberOfBytes": "96"
					},
					"t_struct(VotingSession)44_storage": {
						"encoding": "inplace",
						"label": "struct Voting.VotingSession",
						"members": [
							{
								"astId": 37,
								"contract": "contracts/13_VotingV3.sol:Voting",
								"label": "workflowStatus",
								"offset": 0,
								"slot": "0",
								"type": "t_enum(WorkflowStatus)51"
							},
							{
								"astId": 39,
								"contract": "contracts/13_VotingV3.sol:Voting",
								"label": "winningProposalId",
								"offset": 0,
								"slot": "1",
								"type": "t_uint256"
							},
							{
								"astId": 43,
								"contract": "contracts/13_VotingV3.sol:Voting",
								"label": "proposals",
								"offset": 0,
								"slot": "2",
								"type": "t_array(t_struct(Proposal)34_storage)dyn_storage"
							}
						],
						"numberOfBytes": "96"
					},
					"t_uint256": {
						"encoding": "inplace",
						"label": "uint256",
						"numberOfBytes": "32"
					}
				}
			},
			"userdoc": {
				"kind": "user",
				"methods": {},
				"version": 1
			}
		}
	}
}