{
	"contracts/11_Voting_withTest.sol": {
		"Voting": {
			"abi": [
				{
					"inputs": [],
					"stateMutability": "nonpayable",
					"type": "constructor"
				},
				{
					"inputs": [
						{
							"internalType": "address",
							"name": "owner",
							"type": "address"
						}
					],
					"name": "OwnableInvalidOwner",
					"type": "error"
				},
				{
					"inputs": [
						{
							"internalType": "address",
							"name": "account",
							"type": "address"
						}
					],
					"name": "OwnableUnauthorizedAccount",
					"type": "error"
				},
				{
					"anonymous": false,
					"inputs": [
						{
							"indexed": true,
							"internalType": "address",
							"name": "previousOwner",
							"type": "address"
						},
						{
							"indexed": true,
							"internalType": "address",
							"name": "newOwner",
							"type": "address"
						}
					],
					"name": "OwnershipTransferred",
					"type": "event"
				},
				{
					"anonymous": false,
					"inputs": [
						{
							"indexed": false,
							"internalType": "uint256",
							"name": "proposalId",
							"type": "uint256"
						}
					],
					"name": "ProposalRegistered",
					"type": "event"
				},
				{
					"anonymous": false,
					"inputs": [
						{
							"indexed": false,
							"internalType": "address",
							"name": "voter",
							"type": "address"
						},
						{
							"indexed": false,
							"internalType": "uint256",
							"name": "proposalId",
							"type": "uint256"
						}
					],
					"name": "Voted",
					"type": "event"
				},
				{
					"anonymous": false,
					"inputs": [
						{
							"indexed": false,
							"internalType": "address",
							"name": "voterAddress",
							"type": "address"
						}
					],
					"name": "VoterRegistered",
					"type": "event"
				},
				{
					"anonymous": false,
					"inputs": [
						{
							"indexed": false,
							"internalType": "enum Voting.WorkflowStatus",
							"name": "previousStatus",
							"type": "uint8"
						},
						{
							"indexed": false,
							"internalType": "enum Voting.WorkflowStatus",
							"name": "newStatus",
							"type": "uint8"
						}
					],
					"name": "WorkflowStatusChange",
					"type": "event"
				},
				{
					"inputs": [
						{
							"internalType": "address",
							"name": "_address",
							"type": "address"
						}
					],
					"name": "addToWhitelist",
					"outputs": [],
					"stateMutability": "nonpayable",
					"type": "function"
				},
				{
					"inputs": [],
					"name": "computeMostVotedproposal",
					"outputs": [],
					"stateMutability": "nonpayable",
					"type": "function"
				},
				{
					"inputs": [],
					"name": "endProposalsRegistration",
					"outputs": [],
					"stateMutability": "nonpayable",
					"type": "function"
				},
				{
					"inputs": [],
					"name": "endVotingSession",
					"outputs": [],
					"stateMutability": "nonpayable",
					"type": "function"
				},
				{
					"inputs": [],
					"name": "getAllProposals",
					"outputs": [
						{
							"components": [
								{
									"internalType": "string",
									"name": "description",
									"type": "string"
								},
								{
									"internalType": "uint256",
									"name": "voteCount",
									"type": "uint256"
								}
							],
							"internalType": "struct Voting.Proposal[]",
							"name": "",
							"type": "tuple[]"
						}
					],
					"stateMutability": "view",
					"type": "function"
				},
				{
					"inputs": [],
					"name": "getMostVotedProposal",
					"outputs": [
						{
							"components": [
								{
									"internalType": "string",
									"name": "description",
									"type": "string"
								},
								{
									"internalType": "uint256",
									"name": "voteCount",
									"type": "uint256"
								}
							],
							"internalType": "struct Voting.Proposal",
							"name": "",
							"type": "tuple"
						}
					],
					"stateMutability": "view",
					"type": "function"
				},
				{
					"inputs": [
						{
							"internalType": "uint256",
							"name": "_index",
							"type": "uint256"
						}
					],
					"name": "getProposalByIndex",
					"outputs": [
						{
							"components": [
								{
									"internalType": "string",
									"name": "description",
									"type": "string"
								},
								{
									"internalType": "uint256",
									"name": "voteCount",
									"type": "uint256"
								}
							],
							"internalType": "struct Voting.Proposal",
							"name": "",
							"type": "tuple"
						}
					],
					"stateMutability": "view",
					"type": "function"
				},
				{
					"inputs": [],
					"name": "getWorkflowStatus",
					"outputs": [
						{
							"internalType": "enum Voting.WorkflowStatus",
							"name": "",
							"type": "uint8"
						}
					],
					"stateMutability": "view",
					"type": "function"
				},
				{
					"inputs": [
						{
							"internalType": "address",
							"name": "_address",
							"type": "address"
						}
					],
					"name": "isWhitelisted",
					"outputs": [
						{
							"internalType": "bool",
							"name": "",
							"type": "bool"
						}
					],
					"stateMutability": "view",
					"type": "function"
				},
				{
					"inputs": [],
					"name": "owner",
					"outputs": [
						{
							"internalType": "address",
							"name": "",
							"type": "address"
						}
					],
					"stateMutability": "view",
					"type": "function"
				},
				{
					"inputs": [
						{
							"internalType": "uint256",
							"name": "",
							"type": "uint256"
						}
					],
					"name": "proposals",
					"outputs": [
						{
							"internalType": "string",
							"name": "description",
							"type": "string"
						},
						{
							"internalType": "uint256",
							"name": "voteCount",
							"type": "uint256"
						}
					],
					"stateMutability": "view",
					"type": "function"
				},
				{
					"inputs": [],
					"name": "renounceOwnership",
					"outputs": [],
					"stateMutability": "nonpayable",
					"type": "function"
				},
				{
					"inputs": [
						{
							"internalType": "string",
							"name": "_description",
							"type": "string"
						}
					],
					"name": "sendNewProposition",
					"outputs": [],
					"stateMutability": "nonpayable",
					"type": "function"
				},
				{
					"inputs": [
						{
							"internalType": "uint256",
							"name": "_proposalIndex",
							"type": "uint256"
						}
					],
					"name": "sendVote",
					"outputs": [],
					"stateMutability": "nonpayable",
					"type": "function"
				},
				{
					"inputs": [],
					"name": "startProposalsRegistration",
					"outputs": [],
					"stateMutability": "nonpayable",
					"type": "function"
				},
				{
					"inputs": [],
					"name": "startVotingSession",
					"outputs": [],
					"stateMutability": "nonpayable",
					"type": "function"
				},
				{
					"inputs": [
						{
							"internalType": "address",
							"name": "newOwner",
							"type": "address"
						}
					],
					"name": "transferOwnership",
					"outputs": [],
					"stateMutability": "nonpayable",
					"type": "function"
				},
				{
					"inputs": [
						{
							"internalType": "address",
							"name": "",
							"type": "address"
						}
					],
					"name": "voters",
					"outputs": [
						{
							"internalType": "bool",
							"name": "isRegistered",
							"type": "bool"
						},
						{
							"internalType": "bool",
							"name": "hasVoted",
							"type": "bool"
						},
						{
							"internalType": "uint256",
							"name": "voteProposalId",
							"type": "uint256"
						}
					],
					"stateMutability": "view",
					"type": "function"
				},
				{
					"inputs": [
						{
							"internalType": "address",
							"name": "",
							"type": "address"
						}
					],
					"name": "whitelist",
					"outputs": [
						{
							"internalType": "bool",
							"name": "",
							"type": "bool"
						}
					],
					"stateMutability": "view",
					"type": "function"
				},
				{
					"inputs": [],
					"name": "winningProposalId",
					"outputs": [
						{
							"internalType": "uint256",
							"name": "",
							"type": "uint256"
						}
					],
					"stateMutability": "view",
					"type": "function"
				},
				{
					"inputs": [],
					"name": "workflowStatus",
					"outputs": [
						{
							"internalType": "enum Voting.WorkflowStatus",
							"name": "",
							"type": "uint8"
						}
					],
					"stateMutability": "view",
					"type": "function"
				}
			],
			"devdoc": {
				"errors": {
					"OwnableInvalidOwner(address)": [
						{
							"details": "The owner is not a valid owner account. (eg. `address(0)`)"
						}
					],
					"OwnableUnauthorizedAccount(address)": [
						{
							"details": "The caller account is not authorized to perform an operation."
						}
					]
				},
				"kind": "dev",
				"methods": {
					"owner()": {
						"details": "Returns the address of the current owner."
					},
					"renounceOwnership()": {
						"details": "Leaves the contract without owner. It will not be possible to call `onlyOwner` functions. Can only be called by the current owner. NOTE: Renouncing ownership will leave the contract without an owner, thereby disabling any functionality that is only available to the owner."
					},
					"transferOwnership(address)": {
						"details": "Transfers ownership of the contract to a new account (`newOwner`). Can only be called by the current owner."
					}
				},
				"version": 1
			},
			"evm": {
				"assembly": "    /* \"contracts/11_Voting_withTest.sol\":165:5420  contract Voting is Ownable {... */\n  mstore(0x40, 0x80)\n    /* \"contracts/11_Voting_withTest.sol\":1036:1401  constructor() Ownable(msg.sender) {... */\n  callvalue\n  dup1\n  iszero\n  tag_1\n  jumpi\n  revert(0x00, 0x00)\ntag_1:\n  pop\n    /* \"contracts/11_Voting_withTest.sol\":1058:1068  msg.sender */\n  caller\n    /* \"https://github.com/OpenZeppelin/openzeppelin-contracts/blob/master/contracts/access/Ownable.sol\":1297:1298  0 */\n  0x00\n    /* \"https://github.com/OpenZeppelin/openzeppelin-contracts/blob/master/contracts/access/Ownable.sol\":1273:1299  initialOwner == address(0) */\n  0xffffffffffffffffffffffffffffffffffffffff\n  and\n    /* \"https://github.com/OpenZeppelin/openzeppelin-contracts/blob/master/contracts/access/Ownable.sol\":1273:1285  initialOwner */\n  dup2\n    /* \"https://github.com/OpenZeppelin/openzeppelin-contracts/blob/master/contracts/access/Ownable.sol\":1273:1299  initialOwner == address(0) */\n  0xffffffffffffffffffffffffffffffffffffffff\n  and\n  sub\n    /* \"https://github.com/OpenZeppelin/openzeppelin-contracts/blob/master/contracts/access/Ownable.sol\":1269:1364  if (initialOwner == address(0)) {... */\n  tag_5\n  jumpi\n    /* \"https://github.com/OpenZeppelin/openzeppelin-contracts/blob/master/contracts/access/Ownable.sol\":1350:1351  0 */\n  0x00\n    /* \"https://github.com/OpenZeppelin/openzeppelin-contracts/blob/master/contracts/access/Ownable.sol\":1322:1353  OwnableInvalidOwner(address(0)) */\n  mload(0x40)\n  0x1e4fbdf700000000000000000000000000000000000000000000000000000000\n  dup2\n  mstore\n  0x04\n  add\n  tag_6\n  swap2\n  swap1\n  tag_7\n  jump\t// in\ntag_6:\n  mload(0x40)\n  dup1\n  swap2\n  sub\n  swap1\n  revert\n    /* \"https://github.com/OpenZeppelin/openzeppelin-contracts/blob/master/contracts/access/Ownable.sol\":1269:1364  if (initialOwner == address(0)) {... */\ntag_5:\n    /* \"https://github.com/OpenZeppelin/openzeppelin-contracts/blob/master/contracts/access/Ownable.sol\":1373:1405  _transferOwnership(initialOwner) */\n  tag_8\n    /* \"https://github.com/OpenZeppelin/openzeppelin-contracts/blob/master/contracts/access/Ownable.sol\":1392:1404  initialOwner */\n  dup2\n    /* \"https://github.com/OpenZeppelin/openzeppelin-contracts/blob/master/contracts/access/Ownable.sol\":1373:1391  _transferOwnership */\n  shl(0x20, tag_9)\n    /* \"https://github.com/OpenZeppelin/openzeppelin-contracts/blob/master/contracts/access/Ownable.sol\":1373:1405  _transferOwnership(initialOwner) */\n  0x20\n  shr\n  jump\t// in\ntag_8:\n    /* \"https://github.com/OpenZeppelin/openzeppelin-contracts/blob/master/contracts/access/Ownable.sol\":1225:1412  constructor(address initialOwner) {... */\n  pop\n    /* \"contracts/11_Voting_withTest.sol\":165:5420  contract Voting is Ownable {... */\n  jump(tag_11)\n    /* \"https://github.com/OpenZeppelin/openzeppelin-contracts/blob/master/contracts/access/Ownable.sol\":2912:3099  function _transferOwnership(address newOwner) internal virtual {... */\ntag_9:\n    /* \"https://github.com/OpenZeppelin/openzeppelin-contracts/blob/master/contracts/access/Ownable.sol\":2985:3001  address oldOwner */\n  0x00\n    /* \"https://github.com/OpenZeppelin/openzeppelin-contracts/blob/master/contracts/access/Ownable.sol\":3004:3010  _owner */\n  0x00\n  0x00\n  swap1\n  sload\n  swap1\n  0x0100\n  exp\n  swap1\n  div\n  0xffffffffffffffffffffffffffffffffffffffff\n  and\n    /* \"https://github.com/OpenZeppelin/openzeppelin-contracts/blob/master/contracts/access/Ownable.sol\":2985:3010  address oldOwner = _owner */\n  swap1\n  pop\n    /* \"https://github.com/OpenZeppelin/openzeppelin-contracts/blob/master/contracts/access/Ownable.sol\":3029:3037  newOwner */\n  dup2\n    /* \"https://github.com/OpenZeppelin/openzeppelin-contracts/blob/master/contracts/access/Ownable.sol\":3020:3026  _owner */\n  0x00\n  0x00\n    /* \"https://github.com/OpenZeppelin/openzeppelin-contracts/blob/master/contracts/access/Ownable.sol\":3020:3037  _owner = newOwner */\n  0x0100\n  exp\n  dup2\n  sload\n  dup2\n  0xffffffffffffffffffffffffffffffffffffffff\n  mul\n  not\n  and\n  swap1\n  dup4\n  0xffffffffffffffffffffffffffffffffffffffff\n  and\n  mul\n  or\n  swap1\n  sstore\n  pop\n    /* \"https://github.com/OpenZeppelin/openzeppelin-contracts/blob/master/contracts/access/Ownable.sol\":3083:3091  newOwner */\n  dup2\n    /* \"https://github.com/OpenZeppelin/openzeppelin-contracts/blob/master/contracts/access/Ownable.sol\":3052:3092  OwnershipTransferred(oldOwner, newOwner) */\n  0xffffffffffffffffffffffffffffffffffffffff\n  and\n    /* \"https://github.com/OpenZeppelin/openzeppelin-contracts/blob/master/contracts/access/Ownable.sol\":3073:3081  oldOwner */\n  dup2\n    /* \"https://github.com/OpenZeppelin/openzeppelin-contracts/blob/master/contracts/access/Ownable.sol\":3052:3092  OwnershipTransferred(oldOwner, newOwner) */\n  0xffffffffffffffffffffffffffffffffffffffff\n  and\n  0x8be0079c531659141344cd1fd0a4f28419497f9722a3daafe3b4186f6b6457e0\n  mload(0x40)\n  mload(0x40)\n  dup1\n  swap2\n  sub\n  swap1\n  log3\n    /* \"https://github.com/OpenZeppelin/openzeppelin-contracts/blob/master/contracts/access/Ownable.sol\":2975:3099  {... */\n  pop\n    /* \"https://github.com/OpenZeppelin/openzeppelin-contracts/blob/master/contracts/access/Ownable.sol\":2912:3099  function _transferOwnership(address newOwner) internal virtual {... */\n  pop\n  jump\t// out\n    /* \"#utility.yul\":7:133   */\ntag_13:\n    /* \"#utility.yul\":44:51   */\n  0x00\n    /* \"#utility.yul\":84:126   */\n  0xffffffffffffffffffffffffffffffffffffffff\n    /* \"#utility.yul\":77:82   */\n  dup3\n    /* \"#utility.yul\":73:127   */\n  and\n    /* \"#utility.yul\":62:127   */\n  swap1\n  pop\n    /* \"#utility.yul\":7:133   */\n  swap2\n  swap1\n  pop\n  jump\t// out\n    /* \"#utility.yul\":139:235   */\ntag_14:\n    /* \"#utility.yul\":176:183   */\n  0x00\n    /* \"#utility.yul\":205:229   */\n  tag_19\n    /* \"#utility.yul\":223:228   */\n  dup3\n    /* \"#utility.yul\":205:229   */\n  tag_13\n  jump\t// in\ntag_19:\n    /* \"#utility.yul\":194:229   */\n  swap1\n  pop\n    /* \"#utility.yul\":139:235   */\n  swap2\n  swap1\n  pop\n  jump\t// out\n    /* \"#utility.yul\":241:359   */\ntag_15:\n    /* \"#utility.yul\":328:352   */\n  tag_21\n    /* \"#utility.yul\":346:351   */\n  dup2\n    /* \"#utility.yul\":328:352   */\n  tag_14\n  jump\t// in\ntag_21:\n    /* \"#utility.yul\":323:326   */\n  dup3\n    /* \"#utility.yul\":316:353   */\n  mstore\n    /* \"#utility.yul\":241:359   */\n  pop\n  pop\n  jump\t// out\n    /* \"#utility.yul\":365:587   */\ntag_7:\n    /* \"#utility.yul\":458:462   */\n  0x00\n    /* \"#utility.yul\":496:498   */\n  0x20\n    /* \"#utility.yul\":485:494   */\n  dup3\n    /* \"#utility.yul\":481:499   */\n  add\n    /* \"#utility.yul\":473:499   */\n  swap1\n  pop\n    /* \"#utility.yul\":509:580   */\n  tag_23\n    /* \"#utility.yul\":577:578   */\n  0x00\n    /* \"#utility.yul\":566:575   */\n  dup4\n    /* \"#utility.yul\":562:579   */\n  add\n    /* \"#utility.yul\":553:559   */\n  dup5\n    /* \"#utility.yul\":509:580   */\n  tag_15\n  jump\t// in\ntag_23:\n    /* \"#utility.yul\":365:587   */\n  swap3\n  swap2\n  pop\n  pop\n  jump\t// out\n    /* \"contracts/11_Voting_withTest.sol\":165:5420  contract Voting is Ownable {... */\ntag_11:\n  dataSize(sub_0)\n  dup1\n  dataOffset(sub_0)\n  0x00\n  codecopy\n  0x00\n  return\nstop\n\nsub_0: assembly {\n        /* \"contracts/11_Voting_withTest.sol\":165:5420  contract Voting is Ownable {... */\n      mstore(0x40, 0x80)\n      callvalue\n      dup1\n      iszero\n      tag_1\n      jumpi\n      revert(0x00, 0x00)\n    tag_1:\n      pop\n      jumpi(tag_2, lt(calldatasize, 0x04))\n      shr(0xe0, calldataload(0x00))\n      dup1\n      0xa3ec138d\n      gt\n      tag_24\n      jumpi\n      dup1\n      0xcceb68f5\n      gt\n      tag_25\n      jumpi\n      dup1\n      0xcceb68f5\n      eq\n      tag_18\n      jumpi\n      dup1\n      0xe09b8c79\n      eq\n      tag_19\n      jumpi\n      dup1\n      0xe43252d7\n      eq\n      tag_20\n      jumpi\n      dup1\n      0xee74c678\n      eq\n      tag_21\n      jumpi\n      dup1\n      0xf2fde38b\n      eq\n      tag_22\n      jumpi\n      dup1\n      0xf75d64a6\n      eq\n      tag_23\n      jumpi\n      jump(tag_2)\n    tag_25:\n      dup1\n      0xa3ec138d\n      eq\n      tag_13\n      jumpi\n      dup1\n      0xa7bfab16\n      eq\n      tag_14\n      jumpi\n      dup1\n      0xc64963c5\n      eq\n      tag_15\n      jumpi\n      dup1\n      0xc8f5714e\n      eq\n      tag_16\n      jumpi\n      dup1\n      0xcc5a6668\n      eq\n      tag_17\n      jumpi\n      jump(tag_2)\n    tag_24:\n      dup1\n      0x6c297445\n      gt\n      tag_26\n      jumpi\n      dup1\n      0x6c297445\n      eq\n      tag_8\n      jumpi\n      dup1\n      0x715018a6\n      eq\n      tag_9\n      jumpi\n      dup1\n      0x8da5cb5b\n      eq\n      tag_10\n      jumpi\n      dup1\n      0x9b19251a\n      eq\n      tag_11\n      jumpi\n      dup1\n      0xa1edffa2\n      eq\n      tag_12\n      jumpi\n      jump(tag_2)\n    tag_26:\n      dup1\n      0x013cf08b\n      eq\n      tag_3\n      jumpi\n      dup1\n      0x37d1d389\n      eq\n      tag_4\n      jumpi\n      dup1\n      0x3af32abf\n      eq\n      tag_5\n      jumpi\n      dup1\n      0x4394ba21\n      eq\n      tag_6\n      jumpi\n      dup1\n      0x45bf58fd\n      eq\n      tag_7\n      jumpi\n    tag_2:\n      revert(0x00, 0x00)\n        /* \"contracts/11_Voting_withTest.sol\":276:303  Proposal[] public proposals */\n    tag_3:\n      tag_27\n      0x04\n      dup1\n      calldatasize\n      sub\n      dup2\n      add\n      swap1\n      tag_28\n      swap2\n      swap1\n      tag_29\n      jump\t// in\n    tag_28:\n      tag_30\n      jump\t// in\n    tag_27:\n      mload(0x40)\n      tag_31\n      swap3\n      swap2\n      swap1\n      tag_32\n      jump\t// in\n    tag_31:\n      mload(0x40)\n      dup1\n      swap2\n      sub\n      swap1\n      return\n        /* \"contracts/11_Voting_withTest.sol\":2762:2956  function getProposalByIndex(uint _index) external view returns(Proposal memory) {... */\n    tag_4:\n      tag_33\n      0x04\n      dup1\n      calldatasize\n      sub\n      dup2\n      add\n      swap1\n      tag_34\n      swap2\n      swap1\n      tag_29\n      jump\t// in\n    tag_34:\n      tag_35\n      jump\t// in\n    tag_33:\n      mload(0x40)\n      tag_36\n      swap2\n      swap1\n      tag_37\n      jump\t// in\n    tag_36:\n      mload(0x40)\n      dup1\n      swap2\n      sub\n      swap1\n      return\n        /* \"contracts/11_Voting_withTest.sol\":1698:1809  function isWhitelisted(address _address) public view returns (bool) {... */\n    tag_5:\n      tag_38\n      0x04\n      dup1\n      calldatasize\n      sub\n      dup2\n      add\n      swap1\n      tag_39\n      swap2\n      swap1\n      tag_40\n      jump\t// in\n    tag_39:\n      tag_41\n      jump\t// in\n    tag_38:\n      mload(0x40)\n      tag_42\n      swap2\n      swap1\n      tag_43\n      jump\t// in\n    tag_42:\n      mload(0x40)\n      dup1\n      swap2\n      sub\n      swap1\n      return\n        /* \"contracts/11_Voting_withTest.sol\":5294:5417  function getMostVotedProposal() external view returns(Proposal memory) {... */\n    tag_6:\n      tag_44\n      tag_45\n      jump\t// in\n    tag_44:\n      mload(0x40)\n      tag_46\n      swap2\n      swap1\n      tag_37\n      jump\t// in\n    tag_46:\n      mload(0x40)\n      dup1\n      swap2\n      sub\n      swap1\n      return\n        /* \"contracts/11_Voting_withTest.sol\":2281:2649  function sendNewProposition(string memory _description) public {... */\n    tag_7:\n      tag_47\n      0x04\n      dup1\n      calldatasize\n      sub\n      dup2\n      add\n      swap1\n      tag_48\n      swap2\n      swap1\n      tag_49\n      jump\t// in\n    tag_48:\n      tag_50\n      jump\t// in\n    tag_47:\n      stop\n        /* \"contracts/11_Voting_withTest.sol\":2966:3337  function endProposalsRegistration() public onlyOwner {... */\n    tag_8:\n      tag_51\n      tag_52\n      jump\t// in\n    tag_51:\n      stop\n        /* \"https://github.com/OpenZeppelin/openzeppelin-contracts/blob/master/contracts/access/Ownable.sol\":2293:2394  function renounceOwnership() public virtual onlyOwner {... */\n    tag_9:\n      tag_53\n      tag_54\n      jump\t// in\n    tag_53:\n      stop\n        /* \"https://github.com/OpenZeppelin/openzeppelin-contracts/blob/master/contracts/access/Ownable.sol\":1638:1723  function owner() public view virtual returns (address) {... */\n    tag_10:\n      tag_55\n      tag_56\n      jump\t// in\n    tag_55:\n      mload(0x40)\n      tag_57\n      swap2\n      swap1\n      tag_58\n      jump\t// in\n    tag_57:\n      mload(0x40)\n      dup1\n      swap2\n      sub\n      swap1\n      return\n        /* \"contracts/11_Voting_withTest.sol\":309:350  mapping(address => bool) public whitelist */\n    tag_11:\n      tag_59\n      0x04\n      dup1\n      calldatasize\n      sub\n      dup2\n      add\n      swap1\n      tag_60\n      swap2\n      swap1\n      tag_40\n      jump\t// in\n    tag_60:\n      tag_61\n      jump\t// in\n    tag_59:\n      mload(0x40)\n      tag_62\n      swap2\n      swap1\n      tag_43\n      jump\t// in\n    tag_62:\n      mload(0x40)\n      dup1\n      swap2\n      sub\n      swap1\n      return\n        /* \"contracts/11_Voting_withTest.sol\":234:270  WorkflowStatus public workflowStatus */\n    tag_12:\n      tag_63\n      tag_64\n      jump\t// in\n    tag_63:\n      mload(0x40)\n      tag_65\n      swap2\n      swap1\n      tag_66\n      jump\t// in\n    tag_65:\n      mload(0x40)\n      dup1\n      swap2\n      sub\n      swap1\n      return\n        /* \"contracts/11_Voting_withTest.sol\":356:395  mapping(address => Voter) public voters */\n    tag_13:\n      tag_67\n      0x04\n      dup1\n      calldatasize\n      sub\n      dup2\n      add\n      swap1\n      tag_68\n      swap2\n      swap1\n      tag_40\n      jump\t// in\n    tag_68:\n      tag_69\n      jump\t// in\n    tag_67:\n      mload(0x40)\n      tag_70\n      swap4\n      swap3\n      swap2\n      swap1\n      tag_71\n      jump\t// in\n    tag_70:\n      mload(0x40)\n      dup1\n      swap2\n      sub\n      swap1\n      return\n        /* \"contracts/11_Voting_withTest.sol\":4299:4620  function endVotingSession() public onlyOwner {... */\n    tag_14:\n      tag_72\n      tag_73\n      jump\t// in\n    tag_72:\n      stop\n        /* \"contracts/11_Voting_withTest.sol\":199:228  uint public winningProposalId */\n    tag_15:\n      tag_74\n      tag_75\n      jump\t// in\n    tag_74:\n      mload(0x40)\n      tag_76\n      swap2\n      swap1\n      tag_77\n      jump\t// in\n    tag_76:\n      mload(0x40)\n      dup1\n      swap2\n      sub\n      swap1\n      return\n        /* \"contracts/11_Voting_withTest.sol\":3692:4289  function sendVote(uint _proposalIndex) public {... */\n    tag_16:\n      tag_78\n      0x04\n      dup1\n      calldatasize\n      sub\n      dup2\n      add\n      swap1\n      tag_79\n      swap2\n      swap1\n      tag_29\n      jump\t// in\n    tag_79:\n      tag_80\n      jump\t// in\n    tag_78:\n      stop\n        /* \"contracts/11_Voting_withTest.sol\":4730:5288  function computeMostVotedproposal() public {... */\n    tag_17:\n      tag_81\n      tag_82\n      jump\t// in\n    tag_81:\n      stop\n        /* \"contracts/11_Voting_withTest.sol\":2655:2756  function getAllProposals() external view returns(Proposal[] memory) {... */\n    tag_18:\n      tag_83\n      tag_84\n      jump\t// in\n    tag_83:\n      mload(0x40)\n      tag_85\n      swap2\n      swap1\n      tag_86\n      jump\t// in\n    tag_85:\n      mload(0x40)\n      dup1\n      swap2\n      sub\n      swap1\n      return\n        /* \"contracts/11_Voting_withTest.sol\":1815:2166  function startProposalsRegistration() public onlyOwner {... */\n    tag_19:\n      tag_87\n      tag_88\n      jump\t// in\n    tag_87:\n      stop\n        /* \"contracts/11_Voting_withTest.sol\":1407:1692  function addToWhitelist(address _address) public onlyOwner {... */\n    tag_20:\n      tag_89\n      0x04\n      dup1\n      calldatasize\n      sub\n      dup2\n      add\n      swap1\n      tag_90\n      swap2\n      swap1\n      tag_40\n      jump\t// in\n    tag_90:\n      tag_91\n      jump\t// in\n    tag_89:\n      stop\n        /* \"contracts/11_Voting_withTest.sol\":3343:3686  function startVotingSession() public onlyOwner {... */\n    tag_21:\n      tag_92\n      tag_93\n      jump\t// in\n    tag_92:\n      stop\n        /* \"https://github.com/OpenZeppelin/openzeppelin-contracts/blob/master/contracts/access/Ownable.sol\":2543:2758  function transferOwnership(address newOwner) public virtual onlyOwner {... */\n    tag_22:\n      tag_94\n      0x04\n      dup1\n      calldatasize\n      sub\n      dup2\n      add\n      swap1\n      tag_95\n      swap2\n      swap1\n      tag_40\n      jump\t// in\n    tag_95:\n      tag_96\n      jump\t// in\n    tag_94:\n      stop\n        /* \"contracts/11_Voting_withTest.sol\":2172:2275  function getWorkflowStatus() public view returns(WorkflowStatus) {... */\n    tag_23:\n      tag_97\n      tag_98\n      jump\t// in\n    tag_97:\n      mload(0x40)\n      tag_99\n      swap2\n      swap1\n      tag_66\n      jump\t// in\n    tag_99:\n      mload(0x40)\n      dup1\n      swap2\n      sub\n      swap1\n      return\n        /* \"contracts/11_Voting_withTest.sol\":276:303  Proposal[] public proposals */\n    tag_30:\n      0x03\n      dup2\n      dup2\n      sload\n      dup2\n      lt\n      tag_100\n      jumpi\n      0x00\n      dup1\n      revert\n    tag_100:\n      swap1\n      0x00\n      mstore\n      keccak256(0x00, 0x20)\n      swap1\n      0x02\n      mul\n      add\n      0x00\n      swap2\n      pop\n      swap1\n      pop\n      dup1\n      0x00\n      add\n      dup1\n      sload\n      tag_102\n      swap1\n      tag_103\n      jump\t// in\n    tag_102:\n      dup1\n      0x1f\n      add\n      0x20\n      dup1\n      swap2\n      div\n      mul\n      0x20\n      add\n      mload(0x40)\n      swap1\n      dup2\n      add\n      0x40\n      mstore\n      dup1\n      swap3\n      swap2\n      swap1\n      dup2\n      dup2\n      mstore\n      0x20\n      add\n      dup3\n      dup1\n      sload\n      tag_104\n      swap1\n      tag_103\n      jump\t// in\n    tag_104:\n      dup1\n      iszero\n      tag_105\n      jumpi\n      dup1\n      0x1f\n      lt\n      tag_106\n      jumpi\n      0x0100\n      dup1\n      dup4\n      sload\n      div\n      mul\n      dup4\n      mstore\n      swap2\n      0x20\n      add\n      swap2\n      jump(tag_105)\n    tag_106:\n      dup3\n      add\n      swap2\n      swap1\n      0x00\n      mstore\n      keccak256(0x00, 0x20)\n      swap1\n    tag_107:\n      dup2\n      sload\n      dup2\n      mstore\n      swap1\n      0x01\n      add\n      swap1\n      0x20\n      add\n      dup1\n      dup4\n      gt\n      tag_107\n      jumpi\n      dup3\n      swap1\n      sub\n      0x1f\n      and\n      dup3\n      add\n      swap2\n    tag_105:\n      pop\n      pop\n      pop\n      pop\n      pop\n      swap1\n      dup1\n      0x01\n      add\n      sload\n      swap1\n      pop\n      dup3\n      jump\t// out\n        /* \"contracts/11_Voting_withTest.sol\":2762:2956  function getProposalByIndex(uint _index) external view returns(Proposal memory) {... */\n    tag_35:\n        /* \"contracts/11_Voting_withTest.sol\":2825:2840  Proposal memory */\n      tag_108\n      tag_109\n      jump\t// in\n    tag_108:\n        /* \"contracts/11_Voting_withTest.sol\":2871:2880  proposals */\n      0x03\n        /* \"contracts/11_Voting_withTest.sol\":2871:2887  proposals.length */\n      dup1\n      sload\n      swap1\n      pop\n        /* \"contracts/11_Voting_withTest.sol\":2862:2868  _index */\n      dup3\n        /* \"contracts/11_Voting_withTest.sol\":2862:2887  _index < proposals.length */\n      lt\n        /* \"contracts/11_Voting_withTest.sol\":2854:2915  require(_index < proposals.length, \"Proposal does not exist\") */\n      tag_111\n      jumpi\n      mload(0x40)\n      0x08c379a000000000000000000000000000000000000000000000000000000000\n      dup2\n      mstore\n      0x04\n      add\n      tag_112\n      swap1\n      tag_113\n      jump\t// in\n    tag_112:\n      mload(0x40)\n      dup1\n      swap2\n      sub\n      swap1\n      revert\n    tag_111:\n        /* \"contracts/11_Voting_withTest.sol\":2932:2941  proposals */\n      0x03\n        /* \"contracts/11_Voting_withTest.sol\":2942:2948  _index */\n      dup3\n        /* \"contracts/11_Voting_withTest.sol\":2932:2949  proposals[_index] */\n      dup2\n      sload\n      dup2\n      lt\n      tag_114\n      jumpi\n      tag_115\n      tag_116\n      jump\t// in\n    tag_115:\n    tag_114:\n      swap1\n      0x00\n      mstore\n      keccak256(0x00, 0x20)\n      swap1\n      0x02\n      mul\n      add\n        /* \"contracts/11_Voting_withTest.sol\":2925:2949  return proposals[_index] */\n      mload(0x40)\n      dup1\n      0x40\n      add\n      0x40\n      mstore\n      swap1\n      dup2\n      0x00\n      dup3\n      add\n      dup1\n      sload\n      tag_118\n      swap1\n      tag_103\n      jump\t// in\n    tag_118:\n      dup1\n      0x1f\n      add\n      0x20\n      dup1\n      swap2\n      div\n      mul\n      0x20\n      add\n      mload(0x40)\n      swap1\n      dup2\n      add\n      0x40\n      mstore\n      dup1\n      swap3\n      swap2\n      swap1\n      dup2\n      dup2\n      mstore\n      0x20\n      add\n      dup3\n      dup1\n      sload\n      tag_119\n      swap1\n      tag_103\n      jump\t// in\n    tag_119:\n      dup1\n      iszero\n      tag_120\n      jumpi\n      dup1\n      0x1f\n      lt\n      tag_121\n      jumpi\n      0x0100\n      dup1\n      dup4\n      sload\n      div\n      mul\n      dup4\n      mstore\n      swap2\n      0x20\n      add\n      swap2\n      jump(tag_120)\n    tag_121:\n      dup3\n      add\n      swap2\n      swap1\n      0x00\n      mstore\n      keccak256(0x00, 0x20)\n      swap1\n    tag_122:\n      dup2\n      sload\n      dup2\n      mstore\n      swap1\n      0x01\n      add\n      swap1\n      0x20\n      add\n      dup1\n      dup4\n      gt\n      tag_122\n      jumpi\n      dup3\n      swap1\n      sub\n      0x1f\n      and\n      dup3\n      add\n      swap2\n    tag_120:\n      pop\n      pop\n      pop\n      pop\n      pop\n      dup2\n      mstore\n      0x20\n      add\n      0x01\n      dup3\n      add\n      sload\n      dup2\n      mstore\n      pop\n      pop\n      swap1\n      pop\n        /* \"contracts/11_Voting_withTest.sol\":2762:2956  function getProposalByIndex(uint _index) external view returns(Proposal memory) {... */\n      swap2\n      swap1\n      pop\n      jump\t// out\n        /* \"contracts/11_Voting_withTest.sol\":1698:1809  function isWhitelisted(address _address) public view returns (bool) {... */\n    tag_41:\n        /* \"contracts/11_Voting_withTest.sol\":1760:1764  bool */\n      0x00\n        /* \"contracts/11_Voting_withTest.sol\":1783:1792  whitelist */\n      0x04\n        /* \"contracts/11_Voting_withTest.sol\":1783:1802  whitelist[_address] */\n      0x00\n        /* \"contracts/11_Voting_withTest.sol\":1793:1801  _address */\n      dup4\n        /* \"contracts/11_Voting_withTest.sol\":1783:1802  whitelist[_address] */\n      0xffffffffffffffffffffffffffffffffffffffff\n      and\n      0xffffffffffffffffffffffffffffffffffffffff\n      and\n      dup2\n      mstore\n      0x20\n      add\n      swap1\n      dup2\n      mstore\n      0x20\n      add\n      0x00\n      keccak256\n      0x00\n      swap1\n      sload\n      swap1\n      0x0100\n      exp\n      swap1\n      div\n      0xff\n      and\n        /* \"contracts/11_Voting_withTest.sol\":1776:1802  return whitelist[_address] */\n      swap1\n      pop\n        /* \"contracts/11_Voting_withTest.sol\":1698:1809  function isWhitelisted(address _address) public view returns (bool) {... */\n      swap2\n      swap1\n      pop\n      jump\t// out\n        /* \"contracts/11_Voting_withTest.sol\":5294:5417  function getMostVotedProposal() external view returns(Proposal memory) {... */\n    tag_45:\n        /* \"contracts/11_Voting_withTest.sol\":5348:5363  Proposal memory */\n      tag_124\n      tag_109\n      jump\t// in\n    tag_124:\n        /* \"contracts/11_Voting_withTest.sol\":5382:5391  proposals */\n      0x03\n        /* \"contracts/11_Voting_withTest.sol\":5392:5409  winningProposalId */\n      sload(0x01)\n        /* \"contracts/11_Voting_withTest.sol\":5382:5410  proposals[winningProposalId] */\n      dup2\n      sload\n      dup2\n      lt\n      tag_126\n      jumpi\n      tag_127\n      tag_116\n      jump\t// in\n    tag_127:\n    tag_126:\n      swap1\n      0x00\n      mstore\n      keccak256(0x00, 0x20)\n      swap1\n      0x02\n      mul\n      add\n        /* \"contracts/11_Voting_withTest.sol\":5375:5410  return proposals[winningProposalId] */\n      mload(0x40)\n      dup1\n      0x40\n      add\n      0x40\n      mstore\n      swap1\n      dup2\n      0x00\n      dup3\n      add\n      dup1\n      sload\n      tag_129\n      swap1\n      tag_103\n      jump\t// in\n    tag_129:\n      dup1\n      0x1f\n      add\n      0x20\n      dup1\n      swap2\n      div\n      mul\n      0x20\n      add\n      mload(0x40)\n      swap1\n      dup2\n      add\n      0x40\n      mstore\n      dup1\n      swap3\n      swap2\n      swap1\n      dup2\n      dup2\n      mstore\n      0x20\n      add\n      dup3\n      dup1\n      sload\n      tag_130\n      swap1\n      tag_103\n      jump\t// in\n    tag_130:\n      dup1\n      iszero\n      tag_131\n      jumpi\n      dup1\n      0x1f\n      lt\n      tag_132\n      jumpi\n      0x0100\n      dup1\n      dup4\n      sload\n      div\n      mul\n      dup4\n      mstore\n      swap2\n      0x20\n      add\n      swap2\n      jump(tag_131)\n    tag_132:\n      dup3\n      add\n      swap2\n      swap1\n      0x00\n      mstore\n      keccak256(0x00, 0x20)\n      swap1\n    tag_133:\n      dup2\n      sload\n      dup2\n      mstore\n      swap1\n      0x01\n      add\n      swap1\n      0x20\n      add\n      dup1\n      dup4\n      gt\n      tag_133\n      jumpi\n      dup3\n      swap1\n      sub\n      0x1f\n      and\n      dup3\n      add\n      swap2\n    tag_131:\n      pop\n      pop\n      pop\n      pop\n      pop\n      dup2\n      mstore\n      0x20\n      add\n      0x01\n      dup3\n      add\n      sload\n      dup2\n      mstore\n      pop\n      pop\n      swap1\n      pop\n        /* \"contracts/11_Voting_withTest.sol\":5294:5417  function getMostVotedProposal() external view returns(Proposal memory) {... */\n      swap1\n      jump\t// out\n        /* \"contracts/11_Voting_withTest.sol\":2281:2649  function sendNewProposition(string memory _description) public {... */\n    tag_50:\n        /* \"contracts/11_Voting_withTest.sol\":2380:2423  WorkflowStatus.ProposalsRegistrationStarted */\n      0x01\n        /* \"contracts/11_Voting_withTest.sol\":2362:2423  workflowStatus == WorkflowStatus.ProposalsRegistrationStarted */\n      0x05\n      dup2\n      gt\n      iszero\n      tag_135\n      jumpi\n      tag_136\n      tag_137\n      jump\t// in\n    tag_136:\n    tag_135:\n        /* \"contracts/11_Voting_withTest.sol\":2362:2376  workflowStatus */\n      0x02\n      0x00\n      swap1\n      sload\n      swap1\n      0x0100\n      exp\n      swap1\n      div\n      0xff\n      and\n        /* \"contracts/11_Voting_withTest.sol\":2362:2423  workflowStatus == WorkflowStatus.ProposalsRegistrationStarted */\n      0x05\n      dup2\n      gt\n      iszero\n      tag_138\n      jumpi\n      tag_139\n      tag_137\n      jump\t// in\n    tag_139:\n    tag_138:\n      eq\n        /* \"contracts/11_Voting_withTest.sol\":2354:2469  require(workflowStatus == WorkflowStatus.ProposalsRegistrationStarted, \"Registration propositions did not started\") */\n      tag_140\n      jumpi\n      mload(0x40)\n      0x08c379a000000000000000000000000000000000000000000000000000000000\n      dup2\n      mstore\n      0x04\n      add\n      tag_141\n      swap1\n      tag_142\n      jump\t// in\n    tag_141:\n      mload(0x40)\n      dup1\n      swap2\n      sub\n      swap1\n      revert\n    tag_140:\n        /* \"contracts/11_Voting_withTest.sol\":2487:2496  whitelist */\n      0x04\n        /* \"contracts/11_Voting_withTest.sol\":2487:2508  whitelist[msg.sender] */\n      0x00\n        /* \"contracts/11_Voting_withTest.sol\":2497:2507  msg.sender */\n      caller\n        /* \"contracts/11_Voting_withTest.sol\":2487:2508  whitelist[msg.sender] */\n      0xffffffffffffffffffffffffffffffffffffffff\n      and\n      0xffffffffffffffffffffffffffffffffffffffff\n      and\n      dup2\n      mstore\n      0x20\n      add\n      swap1\n      dup2\n      mstore\n      0x20\n      add\n      0x00\n      keccak256\n      0x00\n      swap1\n      sload\n      swap1\n      0x0100\n      exp\n      swap1\n      div\n      0xff\n      and\n        /* \"contracts/11_Voting_withTest.sol\":2479:2536  require(whitelist[msg.sender], \"You are not whitelisted\") */\n      tag_143\n      jumpi\n      mload(0x40)\n      0x08c379a000000000000000000000000000000000000000000000000000000000\n      dup2\n      mstore\n      0x04\n      add\n      tag_144\n      swap1\n      tag_145\n      jump\t// in\n    tag_144:\n      mload(0x40)\n      dup1\n      swap2\n      sub\n      swap1\n      revert\n    tag_143:\n        /* \"contracts/11_Voting_withTest.sol\":2546:2555  proposals */\n      0x03\n        /* \"contracts/11_Voting_withTest.sol\":2561:2586  Proposal(_description, 0) */\n      mload(0x40)\n      dup1\n      0x40\n      add\n      0x40\n      mstore\n      dup1\n        /* \"contracts/11_Voting_withTest.sol\":2570:2582  _description */\n      dup4\n        /* \"contracts/11_Voting_withTest.sol\":2561:2586  Proposal(_description, 0) */\n      dup2\n      mstore\n      0x20\n      add\n        /* \"contracts/11_Voting_withTest.sol\":2584:2585  0 */\n      0x00\n        /* \"contracts/11_Voting_withTest.sol\":2561:2586  Proposal(_description, 0) */\n      dup2\n      mstore\n      pop\n        /* \"contracts/11_Voting_withTest.sol\":2546:2587  proposals.push(Proposal(_description, 0)) */\n      swap1\n      dup1\n      0x01\n      dup2\n      sload\n      add\n      dup1\n      dup3\n      sstore\n      dup1\n      swap2\n      pop\n      pop\n      0x01\n      swap1\n      sub\n      swap1\n      0x00\n      mstore\n      keccak256(0x00, 0x20)\n      swap1\n      0x02\n      mul\n      add\n      0x00\n      swap1\n      swap2\n      swap1\n      swap2\n      swap1\n      swap2\n      pop\n      0x00\n      dup3\n      add\n      mload\n      dup2\n      0x00\n      add\n      swap1\n      dup2\n      tag_147\n      swap2\n      swap1\n      tag_148\n      jump\t// in\n    tag_147:\n      pop\n      0x20\n      dup3\n      add\n      mload\n      dup2\n      0x01\n      add\n      sstore\n      pop\n      pop\n        /* \"contracts/11_Voting_withTest.sol\":2602:2642  ProposalRegistered(proposals.length - 1) */\n      0x92e393e9b54e2f801d3ea4beb0c5e71a21cc34a5d34b77d0fb8a3aa1650dc18f\n        /* \"contracts/11_Voting_withTest.sol\":2640:2641  1 */\n      0x01\n        /* \"contracts/11_Voting_withTest.sol\":2621:2630  proposals */\n      0x03\n        /* \"contracts/11_Voting_withTest.sol\":2621:2637  proposals.length */\n      dup1\n      sload\n      swap1\n      pop\n        /* \"contracts/11_Voting_withTest.sol\":2621:2641  proposals.length - 1 */\n      tag_149\n      swap2\n      swap1\n      tag_150\n      jump\t// in\n    tag_149:\n        /* \"contracts/11_Voting_withTest.sol\":2602:2642  ProposalRegistered(proposals.length - 1) */\n      mload(0x40)\n      tag_151\n      swap2\n      swap1\n      tag_77\n      jump\t// in\n    tag_151:\n      mload(0x40)\n      dup1\n      swap2\n      sub\n      swap1\n      log1\n        /* \"contracts/11_Voting_withTest.sol\":2281:2649  function sendNewProposition(string memory _description) public {... */\n      pop\n      jump\t// out\n        /* \"contracts/11_Voting_withTest.sol\":2966:3337  function endProposalsRegistration() public onlyOwner {... */\n    tag_52:\n        /* \"https://github.com/OpenZeppelin/openzeppelin-contracts/blob/master/contracts/access/Ownable.sol\":1531:1544  _checkOwner() */\n      tag_153\n        /* \"https://github.com/OpenZeppelin/openzeppelin-contracts/blob/master/contracts/access/Ownable.sol\":1531:1542  _checkOwner */\n      tag_154\n        /* \"https://github.com/OpenZeppelin/openzeppelin-contracts/blob/master/contracts/access/Ownable.sol\":1531:1544  _checkOwner() */\n      jump\t// in\n    tag_153:\n        /* \"contracts/11_Voting_withTest.sol\":3056:3099  WorkflowStatus.ProposalsRegistrationStarted */\n      0x01\n        /* \"contracts/11_Voting_withTest.sol\":3038:3099  workflowStatus == WorkflowStatus.ProposalsRegistrationStarted */\n      0x05\n      dup2\n      gt\n      iszero\n      tag_156\n      jumpi\n      tag_157\n      tag_137\n      jump\t// in\n    tag_157:\n    tag_156:\n        /* \"contracts/11_Voting_withTest.sol\":3038:3052  workflowStatus */\n      0x02\n      0x00\n      swap1\n      sload\n      swap1\n      0x0100\n      exp\n      swap1\n      div\n      0xff\n      and\n        /* \"contracts/11_Voting_withTest.sol\":3038:3099  workflowStatus == WorkflowStatus.ProposalsRegistrationStarted */\n      0x05\n      dup2\n      gt\n      iszero\n      tag_158\n      jumpi\n      tag_159\n      tag_137\n      jump\t// in\n    tag_159:\n    tag_158:\n      eq\n        /* \"contracts/11_Voting_withTest.sol\":3029:3138  require (workflowStatus == WorkflowStatus.ProposalsRegistrationStarted, \"Proposals registration not started\") */\n      tag_160\n      jumpi\n      mload(0x40)\n      0x08c379a000000000000000000000000000000000000000000000000000000000\n      dup2\n      mstore\n      0x04\n      add\n      tag_161\n      swap1\n      tag_162\n      jump\t// in\n    tag_161:\n      mload(0x40)\n      dup1\n      swap2\n      sub\n      swap1\n      revert\n    tag_160:\n        /* \"contracts/11_Voting_withTest.sol\":3165:3206  WorkflowStatus.ProposalsRegistrationEnded */\n      0x02\n        /* \"contracts/11_Voting_withTest.sol\":3148:3162  workflowStatus */\n      dup1\n      0x00\n        /* \"contracts/11_Voting_withTest.sol\":3148:3206  workflowStatus = WorkflowStatus.ProposalsRegistrationEnded */\n      0x0100\n      exp\n      dup2\n      sload\n      dup2\n      0xff\n      mul\n      not\n      and\n      swap1\n      dup4\n      0x05\n      dup2\n      gt\n      iszero\n      tag_163\n      jumpi\n      tag_164\n      tag_137\n      jump\t// in\n    tag_164:\n    tag_163:\n      mul\n      or\n      swap1\n      sstore\n      pop\n        /* \"contracts/11_Voting_withTest.sol\":3221:3329  WorkflowStatusChange(WorkflowStatus.ProposalsRegistrationStarted, WorkflowStatus.ProposalsRegistrationEnded) */\n      0x0a97a4ee45751e2abf3e4fc8946939630b11b371ea8ae39ccdc3056e98f5cc3f\n        /* \"contracts/11_Voting_withTest.sol\":3242:3285  WorkflowStatus.ProposalsRegistrationStarted */\n      0x01\n        /* \"contracts/11_Voting_withTest.sol\":3287:3328  WorkflowStatus.ProposalsRegistrationEnded */\n      0x02\n        /* \"contracts/11_Voting_withTest.sol\":3221:3329  WorkflowStatusChange(WorkflowStatus.ProposalsRegistrationStarted, WorkflowStatus.ProposalsRegistrationEnded) */\n      mload(0x40)\n      tag_165\n      swap3\n      swap2\n      swap1\n      tag_166\n      jump\t// in\n    tag_165:\n      mload(0x40)\n      dup1\n      swap2\n      sub\n      swap1\n      log1\n        /* \"contracts/11_Voting_withTest.sol\":2966:3337  function endProposalsRegistration() public onlyOwner {... */\n      jump\t// out\n        /* \"https://github.com/OpenZeppelin/openzeppelin-contracts/blob/master/contracts/access/Ownable.sol\":2293:2394  function renounceOwnership() public virtual onlyOwner {... */\n    tag_54:\n        /* \"https://github.com/OpenZeppelin/openzeppelin-contracts/blob/master/contracts/access/Ownable.sol\":1531:1544  _checkOwner() */\n      tag_168\n        /* \"https://github.com/OpenZeppelin/openzeppelin-contracts/blob/master/contracts/access/Ownable.sol\":1531:1542  _checkOwner */\n      tag_154\n        /* \"https://github.com/OpenZeppelin/openzeppelin-contracts/blob/master/contracts/access/Ownable.sol\":1531:1544  _checkOwner() */\n      jump\t// in\n    tag_168:\n        /* \"https://github.com/OpenZeppelin/openzeppelin-contracts/blob/master/contracts/access/Ownable.sol\":2357:2387  _transferOwnership(address(0)) */\n      tag_170\n        /* \"https://github.com/OpenZeppelin/openzeppelin-contracts/blob/master/contracts/access/Ownable.sol\":2384:2385  0 */\n      0x00\n        /* \"https://github.com/OpenZeppelin/openzeppelin-contracts/blob/master/contracts/access/Ownable.sol\":2357:2375  _transferOwnership */\n      tag_171\n        /* \"https://github.com/OpenZeppelin/openzeppelin-contracts/blob/master/contracts/access/Ownable.sol\":2357:2387  _transferOwnership(address(0)) */\n      jump\t// in\n    tag_170:\n        /* \"https://github.com/OpenZeppelin/openzeppelin-contracts/blob/master/contracts/access/Ownable.sol\":2293:2394  function renounceOwnership() public virtual onlyOwner {... */\n      jump\t// out\n        /* \"https://github.com/OpenZeppelin/openzeppelin-contracts/blob/master/contracts/access/Ownable.sol\":1638:1723  function owner() public view virtual returns (address) {... */\n    tag_56:\n        /* \"https://github.com/OpenZeppelin/openzeppelin-contracts/blob/master/contracts/access/Ownable.sol\":1684:1691  address */\n      0x00\n        /* \"https://github.com/OpenZeppelin/openzeppelin-contracts/blob/master/contracts/access/Ownable.sol\":1710:1716  _owner */\n      0x00\n      0x00\n      swap1\n      sload\n      swap1\n      0x0100\n      exp\n      swap1\n      div\n      0xffffffffffffffffffffffffffffffffffffffff\n      and\n        /* \"https://github.com/OpenZeppelin/openzeppelin-contracts/blob/master/contracts/access/Ownable.sol\":1703:1716  return _owner */\n      swap1\n      pop\n        /* \"https://github.com/OpenZeppelin/openzeppelin-contracts/blob/master/contracts/access/Ownable.sol\":1638:1723  function owner() public view virtual returns (address) {... */\n      swap1\n      jump\t// out\n        /* \"contracts/11_Voting_withTest.sol\":309:350  mapping(address => bool) public whitelist */\n    tag_61:\n      mstore(0x20, 0x04)\n      dup1\n      0x00\n      mstore\n      keccak256(0x00, 0x40)\n      0x00\n      swap2\n      pop\n      sload\n      swap1\n      0x0100\n      exp\n      swap1\n      div\n      0xff\n      and\n      dup2\n      jump\t// out\n        /* \"contracts/11_Voting_withTest.sol\":234:270  WorkflowStatus public workflowStatus */\n    tag_64:\n      0x02\n      0x00\n      swap1\n      sload\n      swap1\n      0x0100\n      exp\n      swap1\n      div\n      0xff\n      and\n      dup2\n      jump\t// out\n        /* \"contracts/11_Voting_withTest.sol\":356:395  mapping(address => Voter) public voters */\n    tag_69:\n      mstore(0x20, 0x05)\n      dup1\n      0x00\n      mstore\n      keccak256(0x00, 0x40)\n      0x00\n      swap2\n      pop\n      swap1\n      pop\n      dup1\n      0x00\n      add\n      0x00\n      swap1\n      sload\n      swap1\n      0x0100\n      exp\n      swap1\n      div\n      0xff\n      and\n      swap1\n      dup1\n      0x00\n      add\n      0x01\n      swap1\n      sload\n      swap1\n      0x0100\n      exp\n      swap1\n      div\n      0xff\n      and\n      swap1\n      dup1\n      0x01\n      add\n      sload\n      swap1\n      pop\n      dup4\n      jump\t// out\n        /* \"contracts/11_Voting_withTest.sol\":4299:4620  function endVotingSession() public onlyOwner {... */\n    tag_73:\n        /* \"https://github.com/OpenZeppelin/openzeppelin-contracts/blob/master/contracts/access/Ownable.sol\":1531:1544  _checkOwner() */\n      tag_174\n        /* \"https://github.com/OpenZeppelin/openzeppelin-contracts/blob/master/contracts/access/Ownable.sol\":1531:1542  _checkOwner */\n      tag_154\n        /* \"https://github.com/OpenZeppelin/openzeppelin-contracts/blob/master/contracts/access/Ownable.sol\":1531:1544  _checkOwner() */\n      jump\t// in\n    tag_174:\n        /* \"contracts/11_Voting_withTest.sol\":4380:4415  WorkflowStatus.VotingSessionStarted */\n      0x03\n        /* \"contracts/11_Voting_withTest.sol\":4362:4415  workflowStatus == WorkflowStatus.VotingSessionStarted */\n      0x05\n      dup2\n      gt\n      iszero\n      tag_176\n      jumpi\n      tag_177\n      tag_137\n      jump\t// in\n    tag_177:\n    tag_176:\n        /* \"contracts/11_Voting_withTest.sol\":4362:4376  workflowStatus */\n      0x02\n      0x00\n      swap1\n      sload\n      swap1\n      0x0100\n      exp\n      swap1\n      div\n      0xff\n      and\n        /* \"contracts/11_Voting_withTest.sol\":4362:4415  workflowStatus == WorkflowStatus.VotingSessionStarted */\n      0x05\n      dup2\n      gt\n      iszero\n      tag_178\n      jumpi\n      tag_179\n      tag_137\n      jump\t// in\n    tag_179:\n    tag_178:\n      eq\n        /* \"contracts/11_Voting_withTest.sol\":4354:4446  require(workflowStatus == WorkflowStatus.VotingSessionStarted, \"Voting session not started\") */\n      tag_180\n      jumpi\n      mload(0x40)\n      0x08c379a000000000000000000000000000000000000000000000000000000000\n      dup2\n      mstore\n      0x04\n      add\n      tag_181\n      swap1\n      tag_182\n      jump\t// in\n    tag_181:\n      mload(0x40)\n      dup1\n      swap2\n      sub\n      swap1\n      revert\n    tag_180:\n        /* \"contracts/11_Voting_withTest.sol\":4473:4506  WorkflowStatus.VotingSessionEnded */\n      0x04\n        /* \"contracts/11_Voting_withTest.sol\":4456:4470  workflowStatus */\n      0x02\n      0x00\n        /* \"contracts/11_Voting_withTest.sol\":4456:4506  workflowStatus = WorkflowStatus.VotingSessionEnded */\n      0x0100\n      exp\n      dup2\n      sload\n      dup2\n      0xff\n      mul\n      not\n      and\n      swap1\n      dup4\n      0x05\n      dup2\n      gt\n      iszero\n      tag_183\n      jumpi\n      tag_184\n      tag_137\n      jump\t// in\n    tag_184:\n    tag_183:\n      mul\n      or\n      swap1\n      sstore\n      pop\n        /* \"contracts/11_Voting_withTest.sol\":4521:4613  WorkflowStatusChange(WorkflowStatus.VotingSessionStarted, WorkflowStatus.VotingSessionEnded) */\n      0x0a97a4ee45751e2abf3e4fc8946939630b11b371ea8ae39ccdc3056e98f5cc3f\n        /* \"contracts/11_Voting_withTest.sol\":4542:4577  WorkflowStatus.VotingSessionStarted */\n      0x03\n        /* \"contracts/11_Voting_withTest.sol\":4579:4612  WorkflowStatus.VotingSessionEnded */\n      0x04\n        /* \"contracts/11_Voting_withTest.sol\":4521:4613  WorkflowStatusChange(WorkflowStatus.VotingSessionStarted, WorkflowStatus.VotingSessionEnded) */\n      mload(0x40)\n      tag_185\n      swap3\n      swap2\n      swap1\n      tag_166\n      jump\t// in\n    tag_185:\n      mload(0x40)\n      dup1\n      swap2\n      sub\n      swap1\n      log1\n        /* \"contracts/11_Voting_withTest.sol\":4299:4620  function endVotingSession() public onlyOwner {... */\n      jump\t// out\n        /* \"contracts/11_Voting_withTest.sol\":199:228  uint public winningProposalId */\n    tag_75:\n      sload(0x01)\n      dup2\n      jump\t// out\n        /* \"contracts/11_Voting_withTest.sol\":3692:4289  function sendVote(uint _proposalIndex) public {... */\n    tag_80:\n        /* \"contracts/11_Voting_withTest.sol\":3774:3809  WorkflowStatus.VotingSessionStarted */\n      0x03\n        /* \"contracts/11_Voting_withTest.sol\":3756:3809  workflowStatus == WorkflowStatus.VotingSessionStarted */\n      0x05\n      dup2\n      gt\n      iszero\n      tag_187\n      jumpi\n      tag_188\n      tag_137\n      jump\t// in\n    tag_188:\n    tag_187:\n        /* \"contracts/11_Voting_withTest.sol\":3756:3770  workflowStatus */\n      0x02\n      0x00\n      swap1\n      sload\n      swap1\n      0x0100\n      exp\n      swap1\n      div\n      0xff\n      and\n        /* \"contracts/11_Voting_withTest.sol\":3756:3809  workflowStatus == WorkflowStatus.VotingSessionStarted */\n      0x05\n      dup2\n      gt\n      iszero\n      tag_189\n      jumpi\n      tag_190\n      tag_137\n      jump\t// in\n    tag_190:\n    tag_189:\n      eq\n        /* \"contracts/11_Voting_withTest.sol\":3748:3842  require(workflowStatus == WorkflowStatus.VotingSessionStarted, \"registration did not started\") */\n      tag_191\n      jumpi\n      mload(0x40)\n      0x08c379a000000000000000000000000000000000000000000000000000000000\n      dup2\n      mstore\n      0x04\n      add\n      tag_192\n      swap1\n      tag_193\n      jump\t// in\n    tag_192:\n      mload(0x40)\n      dup1\n      swap2\n      sub\n      swap1\n      revert\n    tag_191:\n        /* \"contracts/11_Voting_withTest.sol\":3877:3886  proposals */\n      0x03\n        /* \"contracts/11_Voting_withTest.sol\":3877:3893  proposals.length */\n      dup1\n      sload\n      swap1\n      pop\n        /* \"contracts/11_Voting_withTest.sol\":3860:3874  _proposalIndex */\n      dup2\n        /* \"contracts/11_Voting_withTest.sol\":3860:3893  _proposalIndex < proposals.length */\n      lt\n        /* \"contracts/11_Voting_withTest.sol\":3852:3921  require(_proposalIndex < proposals.length, \"Proposal does not exist\") */\n      tag_194\n      jumpi\n      mload(0x40)\n      0x08c379a000000000000000000000000000000000000000000000000000000000\n      dup2\n      mstore\n      0x04\n      add\n      tag_195\n      swap1\n      tag_113\n      jump\t// in\n    tag_195:\n      mload(0x40)\n      dup1\n      swap2\n      sub\n      swap1\n      revert\n    tag_194:\n        /* \"contracts/11_Voting_withTest.sol\":3931:3946  Voter storage v */\n      0x00\n        /* \"contracts/11_Voting_withTest.sol\":3949:3955  voters */\n      0x05\n        /* \"contracts/11_Voting_withTest.sol\":3949:3967  voters[msg.sender] */\n      0x00\n        /* \"contracts/11_Voting_withTest.sol\":3956:3966  msg.sender */\n      caller\n        /* \"contracts/11_Voting_withTest.sol\":3949:3967  voters[msg.sender] */\n      0xffffffffffffffffffffffffffffffffffffffff\n      and\n      0xffffffffffffffffffffffffffffffffffffffff\n      and\n      dup2\n      mstore\n      0x20\n      add\n      swap1\n      dup2\n      mstore\n      0x20\n      add\n      0x00\n      keccak256\n        /* \"contracts/11_Voting_withTest.sol\":3931:3967  Voter storage v = voters[msg.sender] */\n      swap1\n      pop\n        /* \"contracts/11_Voting_withTest.sol\":3986:3987  v */\n      dup1\n        /* \"contracts/11_Voting_withTest.sol\":3986:4000  v.isRegistered */\n      0x00\n      add\n      0x00\n      swap1\n      sload\n      swap1\n      0x0100\n      exp\n      swap1\n      div\n      0xff\n      and\n        /* \"contracts/11_Voting_withTest.sol\":3977:4027  require (v.isRegistered, \"you are not registered\") */\n      tag_196\n      jumpi\n      mload(0x40)\n      0x08c379a000000000000000000000000000000000000000000000000000000000\n      dup2\n      mstore\n      0x04\n      add\n      tag_197\n      swap1\n      tag_198\n      jump\t// in\n    tag_197:\n      mload(0x40)\n      dup1\n      swap2\n      sub\n      swap1\n      revert\n    tag_196:\n        /* \"contracts/11_Voting_withTest.sol\":4046:4047  v */\n      dup1\n        /* \"contracts/11_Voting_withTest.sol\":4046:4056  v.hasVoted */\n      0x00\n      add\n      0x01\n      swap1\n      sload\n      swap1\n      0x0100\n      exp\n      swap1\n      div\n      0xff\n      and\n        /* \"contracts/11_Voting_withTest.sol\":4045:4056  !v.hasVoted */\n      iszero\n        /* \"contracts/11_Voting_withTest.sol\":4037:4085  require(!v.hasVoted, \"do you have already vote\") */\n      tag_199\n      jumpi\n      mload(0x40)\n      0x08c379a000000000000000000000000000000000000000000000000000000000\n      dup2\n      mstore\n      0x04\n      add\n      tag_200\n      swap1\n      tag_201\n      jump\t// in\n    tag_200:\n      mload(0x40)\n      dup1\n      swap2\n      sub\n      swap1\n      revert\n    tag_199:\n        /* \"contracts/11_Voting_withTest.sol\":4095:4113  Proposal storage p */\n      0x00\n        /* \"contracts/11_Voting_withTest.sol\":4116:4125  proposals */\n      0x03\n        /* \"contracts/11_Voting_withTest.sol\":4126:4140  _proposalIndex */\n      dup4\n        /* \"contracts/11_Voting_withTest.sol\":4116:4141  proposals[_proposalIndex] */\n      dup2\n      sload\n      dup2\n      lt\n      tag_202\n      jumpi\n      tag_203\n      tag_116\n      jump\t// in\n    tag_203:\n    tag_202:\n      swap1\n      0x00\n      mstore\n      keccak256(0x00, 0x20)\n      swap1\n      0x02\n      mul\n      add\n        /* \"contracts/11_Voting_withTest.sol\":4095:4141  Proposal storage p = proposals[_proposalIndex] */\n      swap1\n      pop\n        /* \"contracts/11_Voting_withTest.sol\":4151:4152  p */\n      dup1\n        /* \"contracts/11_Voting_withTest.sol\":4151:4162  p.voteCount */\n      0x01\n      add\n      0x00\n        /* \"contracts/11_Voting_withTest.sol\":4151:4164  p.voteCount++ */\n      dup2\n      sload\n      dup1\n      swap3\n      swap2\n      swap1\n      tag_205\n      swap1\n      tag_206\n      jump\t// in\n    tag_205:\n      swap2\n      swap1\n      pop\n      sstore\n      pop\n        /* \"contracts/11_Voting_withTest.sol\":4187:4191  true */\n      0x01\n        /* \"contracts/11_Voting_withTest.sol\":4174:4175  v */\n      dup3\n        /* \"contracts/11_Voting_withTest.sol\":4174:4184  v.hasVoted */\n      0x00\n      add\n      0x01\n        /* \"contracts/11_Voting_withTest.sol\":4174:4191  v.hasVoted = true */\n      0x0100\n      exp\n      dup2\n      sload\n      dup2\n      0xff\n      mul\n      not\n      and\n      swap1\n      dup4\n      iszero\n      iszero\n      mul\n      or\n      swap1\n      sstore\n      pop\n        /* \"contracts/11_Voting_withTest.sol\":4220:4234  _proposalIndex */\n      dup3\n        /* \"contracts/11_Voting_withTest.sol\":4201:4202  v */\n      dup3\n        /* \"contracts/11_Voting_withTest.sol\":4201:4217  v.voteProposalId */\n      0x01\n      add\n        /* \"contracts/11_Voting_withTest.sol\":4201:4234  v.voteProposalId = _proposalIndex */\n      dup2\n      swap1\n      sstore\n      pop\n        /* \"contracts/11_Voting_withTest.sol\":4249:4282  Voted(msg.sender, _proposalIndex) */\n      0x4d99b957a2bc29a30ebd96a7be8e68fe50a3c701db28a91436490b7d53870ca4\n        /* \"contracts/11_Voting_withTest.sol\":4255:4265  msg.sender */\n      caller\n        /* \"contracts/11_Voting_withTest.sol\":4267:4281  _proposalIndex */\n      dup5\n        /* \"contracts/11_Voting_withTest.sol\":4249:4282  Voted(msg.sender, _proposalIndex) */\n      mload(0x40)\n      tag_207\n      swap3\n      swap2\n      swap1\n      tag_208\n      jump\t// in\n    tag_207:\n      mload(0x40)\n      dup1\n      swap2\n      sub\n      swap1\n      log1\n        /* \"contracts/11_Voting_withTest.sol\":3738:4289  {... */\n      pop\n      pop\n        /* \"contracts/11_Voting_withTest.sol\":3692:4289  function sendVote(uint _proposalIndex) public {... */\n      pop\n      jump\t// out\n        /* \"contracts/11_Voting_withTest.sol\":4730:5288  function computeMostVotedproposal() public {... */\n    tag_82:\n        /* \"contracts/11_Voting_withTest.sol\":4809:4842  WorkflowStatus.VotingSessionEnded */\n      0x04\n        /* \"contracts/11_Voting_withTest.sol\":4791:4842  workflowStatus == WorkflowStatus.VotingSessionEnded */\n      0x05\n      dup2\n      gt\n      iszero\n      tag_210\n      jumpi\n      tag_211\n      tag_137\n      jump\t// in\n    tag_211:\n    tag_210:\n        /* \"contracts/11_Voting_withTest.sol\":4791:4805  workflowStatus */\n      0x02\n      0x00\n      swap1\n      sload\n      swap1\n      0x0100\n      exp\n      swap1\n      div\n      0xff\n      and\n        /* \"contracts/11_Voting_withTest.sol\":4791:4842  workflowStatus == WorkflowStatus.VotingSessionEnded */\n      0x05\n      dup2\n      gt\n      iszero\n      tag_212\n      jumpi\n      tag_213\n      tag_137\n      jump\t// in\n    tag_213:\n    tag_212:\n      eq\n        /* \"contracts/11_Voting_withTest.sol\":4783:4871  require(workflowStatus == WorkflowStatus.VotingSessionEnded, \"Voting session not ended\") */\n      tag_214\n      jumpi\n      mload(0x40)\n      0x08c379a000000000000000000000000000000000000000000000000000000000\n      dup2\n      mstore\n      0x04\n      add\n      tag_215\n      swap1\n      tag_216\n      jump\t// in\n    tag_215:\n      mload(0x40)\n      dup1\n      swap2\n      sub\n      swap1\n      revert\n    tag_214:\n        /* \"contracts/11_Voting_withTest.sol\":4881:4898  uint winningIndex */\n      0x00\n        /* \"contracts/11_Voting_withTest.sol\":4908:4929  uint highestVoteCount */\n      0x00\n        /* \"contracts/11_Voting_withTest.sol\":4944:4950  uint i */\n      0x00\n        /* \"contracts/11_Voting_withTest.sol\":4953:4954  0 */\n      0x00\n        /* \"contracts/11_Voting_withTest.sol\":4944:4954  uint i = 0 */\n      swap1\n      pop\n        /* \"contracts/11_Voting_withTest.sol\":4939:5087  for (uint i = 0; i < proposals.length; i++) {... */\n    tag_217:\n        /* \"contracts/11_Voting_withTest.sol\":4960:4969  proposals */\n      0x03\n        /* \"contracts/11_Voting_withTest.sol\":4960:4976  proposals.length */\n      dup1\n      sload\n      swap1\n      pop\n        /* \"contracts/11_Voting_withTest.sol\":4956:4957  i */\n      dup2\n        /* \"contracts/11_Voting_withTest.sol\":4956:4976  i < proposals.length */\n      lt\n        /* \"contracts/11_Voting_withTest.sol\":4939:5087  for (uint i = 0; i < proposals.length; i++) {... */\n      iszero\n      tag_218\n      jumpi\n        /* \"contracts/11_Voting_withTest.sol\":5026:5042  highestVoteCount */\n      dup2\n        /* \"contracts/11_Voting_withTest.sol\":5001:5010  proposals */\n      0x03\n        /* \"contracts/11_Voting_withTest.sol\":5011:5012  i */\n      dup3\n        /* \"contracts/11_Voting_withTest.sol\":5001:5013  proposals[i] */\n      dup2\n      sload\n      dup2\n      lt\n      tag_220\n      jumpi\n      tag_221\n      tag_116\n      jump\t// in\n    tag_221:\n    tag_220:\n      swap1\n      0x00\n      mstore\n      keccak256(0x00, 0x20)\n      swap1\n      0x02\n      mul\n      add\n        /* \"contracts/11_Voting_withTest.sol\":5001:5023  proposals[i].voteCount */\n      0x01\n      add\n      sload\n        /* \"contracts/11_Voting_withTest.sol\":5001:5042  proposals[i].voteCount > highestVoteCount */\n      gt\n        /* \"contracts/11_Voting_withTest.sol\":4997:5076  if (proposals[i].voteCount > highestVoteCount)... */\n      iszero\n      tag_223\n      jumpi\n        /* \"contracts/11_Voting_withTest.sol\":5075:5076  i */\n      dup1\n        /* \"contracts/11_Voting_withTest.sol\":5060:5076  winningIndex = i */\n      swap3\n      pop\n        /* \"contracts/11_Voting_withTest.sol\":4997:5076  if (proposals[i].voteCount > highestVoteCount)... */\n    tag_223:\n        /* \"contracts/11_Voting_withTest.sol\":4978:4981  i++ */\n      dup1\n      dup1\n      0x01\n      add\n      swap2\n      pop\n      pop\n        /* \"contracts/11_Voting_withTest.sol\":4939:5087  for (uint i = 0; i < proposals.length; i++) {... */\n      jump(tag_217)\n    tag_218:\n      pop\n        /* \"contracts/11_Voting_withTest.sol\":5116:5128  winningIndex */\n      dup2\n        /* \"contracts/11_Voting_withTest.sol\":5096:5113  winningProposalId */\n      0x01\n        /* \"contracts/11_Voting_withTest.sol\":5096:5128  winningProposalId = winningIndex */\n      dup2\n      swap1\n      sstore\n      pop\n        /* \"contracts/11_Voting_withTest.sol\":5155:5182  WorkflowStatus.VotesTallied */\n      0x05\n        /* \"contracts/11_Voting_withTest.sol\":5138:5152  workflowStatus */\n      0x02\n      0x00\n        /* \"contracts/11_Voting_withTest.sol\":5138:5182  workflowStatus = WorkflowStatus.VotesTallied */\n      0x0100\n      exp\n      dup2\n      sload\n      dup2\n      0xff\n      mul\n      not\n      and\n      swap1\n      dup4\n      0x05\n      dup2\n      gt\n      iszero\n      tag_224\n      jumpi\n      tag_225\n      tag_137\n      jump\t// in\n    tag_225:\n    tag_224:\n      mul\n      or\n      swap1\n      sstore\n      pop\n        /* \"contracts/11_Voting_withTest.sol\":5197:5281  WorkflowStatusChange(WorkflowStatus.VotingSessionEnded, WorkflowStatus.VotesTallied) */\n      0x0a97a4ee45751e2abf3e4fc8946939630b11b371ea8ae39ccdc3056e98f5cc3f\n        /* \"contracts/11_Voting_withTest.sol\":5218:5251  WorkflowStatus.VotingSessionEnded */\n      0x04\n        /* \"contracts/11_Voting_withTest.sol\":5253:5280  WorkflowStatus.VotesTallied */\n      0x05\n        /* \"contracts/11_Voting_withTest.sol\":5197:5281  WorkflowStatusChange(WorkflowStatus.VotingSessionEnded, WorkflowStatus.VotesTallied) */\n      mload(0x40)\n      tag_226\n      swap3\n      swap2\n      swap1\n      tag_166\n      jump\t// in\n    tag_226:\n      mload(0x40)\n      dup1\n      swap2\n      sub\n      swap1\n      log1\n        /* \"contracts/11_Voting_withTest.sol\":4773:5288  {... */\n      pop\n      pop\n        /* \"contracts/11_Voting_withTest.sol\":4730:5288  function computeMostVotedproposal() public {... */\n      jump\t// out\n        /* \"contracts/11_Voting_withTest.sol\":2655:2756  function getAllProposals() external view returns(Proposal[] memory) {... */\n    tag_84:\n        /* \"contracts/11_Voting_withTest.sol\":2704:2721  Proposal[] memory */\n      0x60\n        /* \"contracts/11_Voting_withTest.sol\":2740:2749  proposals */\n      0x03\n        /* \"contracts/11_Voting_withTest.sol\":2733:2749  return proposals */\n      dup1\n      sload\n      dup1\n      0x20\n      mul\n      0x20\n      add\n      mload(0x40)\n      swap1\n      dup2\n      add\n      0x40\n      mstore\n      dup1\n      swap3\n      swap2\n      swap1\n      dup2\n      dup2\n      mstore\n      0x20\n      add\n      0x00\n      swap1\n    tag_228:\n      dup3\n      dup3\n      lt\n      iszero\n      tag_229\n      jumpi\n      dup4\n      dup3\n      swap1\n      0x00\n      mstore\n      keccak256(0x00, 0x20)\n      swap1\n      0x02\n      mul\n      add\n      mload(0x40)\n      dup1\n      0x40\n      add\n      0x40\n      mstore\n      swap1\n      dup2\n      0x00\n      dup3\n      add\n      dup1\n      sload\n      tag_231\n      swap1\n      tag_103\n      jump\t// in\n    tag_231:\n      dup1\n      0x1f\n      add\n      0x20\n      dup1\n      swap2\n      div\n      mul\n      0x20\n      add\n      mload(0x40)\n      swap1\n      dup2\n      add\n      0x40\n      mstore\n      dup1\n      swap3\n      swap2\n      swap1\n      dup2\n      dup2\n      mstore\n      0x20\n      add\n      dup3\n      dup1\n      sload\n      tag_232\n      swap1\n      tag_103\n      jump\t// in\n    tag_232:\n      dup1\n      iszero\n      tag_233\n      jumpi\n      dup1\n      0x1f\n      lt\n      tag_234\n      jumpi\n      0x0100\n      dup1\n      dup4\n      sload\n      div\n      mul\n      dup4\n      mstore\n      swap2\n      0x20\n      add\n      swap2\n      jump(tag_233)\n    tag_234:\n      dup3\n      add\n      swap2\n      swap1\n      0x00\n      mstore\n      keccak256(0x00, 0x20)\n      swap1\n    tag_235:\n      dup2\n      sload\n      dup2\n      mstore\n      swap1\n      0x01\n      add\n      swap1\n      0x20\n      add\n      dup1\n      dup4\n      gt\n      tag_235\n      jumpi\n      dup3\n      swap1\n      sub\n      0x1f\n      and\n      dup3\n      add\n      swap2\n    tag_233:\n      pop\n      pop\n      pop\n      pop\n      pop\n      dup2\n      mstore\n      0x20\n      add\n      0x01\n      dup3\n      add\n      sload\n      dup2\n      mstore\n      pop\n      pop\n      dup2\n      mstore\n      0x20\n      add\n      swap1\n      0x01\n      add\n      swap1\n      jump(tag_228)\n    tag_229:\n      pop\n      pop\n      pop\n      pop\n      swap1\n      pop\n        /* \"contracts/11_Voting_withTest.sol\":2655:2756  function getAllProposals() external view returns(Proposal[] memory) {... */\n      swap1\n      jump\t// out\n        /* \"contracts/11_Voting_withTest.sol\":1815:2166  function startProposalsRegistration() public onlyOwner {... */\n    tag_88:\n        /* \"https://github.com/OpenZeppelin/openzeppelin-contracts/blob/master/contracts/access/Ownable.sol\":1531:1544  _checkOwner() */\n      tag_237\n        /* \"https://github.com/OpenZeppelin/openzeppelin-contracts/blob/master/contracts/access/Ownable.sol\":1531:1542  _checkOwner */\n      tag_154\n        /* \"https://github.com/OpenZeppelin/openzeppelin-contracts/blob/master/contracts/access/Ownable.sol\":1531:1544  _checkOwner() */\n      jump\t// in\n    tag_237:\n        /* \"contracts/11_Voting_withTest.sol\":1906:1938  WorkflowStatus.RegisteringVoters */\n      0x00\n        /* \"contracts/11_Voting_withTest.sol\":1888:1938  workflowStatus == WorkflowStatus.RegisteringVoters */\n      0x05\n      dup2\n      gt\n      iszero\n      tag_239\n      jumpi\n      tag_240\n      tag_137\n      jump\t// in\n    tag_240:\n    tag_239:\n        /* \"contracts/11_Voting_withTest.sol\":1888:1902  workflowStatus */\n      0x02\n      0x00\n      swap1\n      sload\n      swap1\n      0x0100\n      exp\n      swap1\n      div\n      0xff\n      and\n        /* \"contracts/11_Voting_withTest.sol\":1888:1938  workflowStatus == WorkflowStatus.RegisteringVoters */\n      0x05\n      dup2\n      gt\n      iszero\n      tag_241\n      jumpi\n      tag_242\n      tag_137\n      jump\t// in\n    tag_242:\n    tag_241:\n      eq\n        /* \"contracts/11_Voting_withTest.sol\":1880:1975  require(workflowStatus == WorkflowStatus.RegisteringVoters, \"Registering voters did not start\") */\n      tag_243\n      jumpi\n      mload(0x40)\n      0x08c379a000000000000000000000000000000000000000000000000000000000\n      dup2\n      mstore\n      0x04\n      add\n      tag_244\n      swap1\n      tag_245\n      jump\t// in\n    tag_244:\n      mload(0x40)\n      dup1\n      swap2\n      sub\n      swap1\n      revert\n    tag_243:\n        /* \"contracts/11_Voting_withTest.sol\":2002:2045  WorkflowStatus.ProposalsRegistrationStarted */\n      0x01\n        /* \"contracts/11_Voting_withTest.sol\":1985:1999  workflowStatus */\n      0x02\n      0x00\n        /* \"contracts/11_Voting_withTest.sol\":1985:2045  workflowStatus = WorkflowStatus.ProposalsRegistrationStarted */\n      0x0100\n      exp\n      dup2\n      sload\n      dup2\n      0xff\n      mul\n      not\n      and\n      swap1\n      dup4\n      0x05\n      dup2\n      gt\n      iszero\n      tag_246\n      jumpi\n      tag_247\n      tag_137\n      jump\t// in\n    tag_247:\n    tag_246:\n      mul\n      or\n      swap1\n      sstore\n      pop\n        /* \"contracts/11_Voting_withTest.sol\":2060:2159  WorkflowStatusChange(WorkflowStatus.RegisteringVoters, WorkflowStatus.ProposalsRegistrationStarted) */\n      0x0a97a4ee45751e2abf3e4fc8946939630b11b371ea8ae39ccdc3056e98f5cc3f\n        /* \"contracts/11_Voting_withTest.sol\":2081:2113  WorkflowStatus.RegisteringVoters */\n      0x00\n        /* \"contracts/11_Voting_withTest.sol\":2115:2158  WorkflowStatus.ProposalsRegistrationStarted */\n      0x01\n        /* \"contracts/11_Voting_withTest.sol\":2060:2159  WorkflowStatusChange(WorkflowStatus.RegisteringVoters, WorkflowStatus.ProposalsRegistrationStarted) */\n      mload(0x40)\n      tag_248\n      swap3\n      swap2\n      swap1\n      tag_166\n      jump\t// in\n    tag_248:\n      mload(0x40)\n      dup1\n      swap2\n      sub\n      swap1\n      log1\n        /* \"contracts/11_Voting_withTest.sol\":1815:2166  function startProposalsRegistration() public onlyOwner {... */\n      jump\t// out\n        /* \"contracts/11_Voting_withTest.sol\":1407:1692  function addToWhitelist(address _address) public onlyOwner {... */\n    tag_91:\n        /* \"https://github.com/OpenZeppelin/openzeppelin-contracts/blob/master/contracts/access/Ownable.sol\":1531:1544  _checkOwner() */\n      tag_250\n        /* \"https://github.com/OpenZeppelin/openzeppelin-contracts/blob/master/contracts/access/Ownable.sol\":1531:1542  _checkOwner */\n      tag_154\n        /* \"https://github.com/OpenZeppelin/openzeppelin-contracts/blob/master/contracts/access/Ownable.sol\":1531:1544  _checkOwner() */\n      jump\t// in\n    tag_250:\n        /* \"contracts/11_Voting_withTest.sol\":1502:1534  WorkflowStatus.RegisteringVoters */\n      0x00\n        /* \"contracts/11_Voting_withTest.sol\":1484:1534  workflowStatus == WorkflowStatus.RegisteringVoters */\n      0x05\n      dup2\n      gt\n      iszero\n      tag_252\n      jumpi\n      tag_253\n      tag_137\n      jump\t// in\n    tag_253:\n    tag_252:\n        /* \"contracts/11_Voting_withTest.sol\":1484:1498  workflowStatus */\n      0x02\n      0x00\n      swap1\n      sload\n      swap1\n      0x0100\n      exp\n      swap1\n      div\n      0xff\n      and\n        /* \"contracts/11_Voting_withTest.sol\":1484:1534  workflowStatus == WorkflowStatus.RegisteringVoters */\n      0x05\n      dup2\n      gt\n      iszero\n      tag_254\n      jumpi\n      tag_255\n      tag_137\n      jump\t// in\n    tag_255:\n    tag_254:\n      eq\n        /* \"contracts/11_Voting_withTest.sol\":1476:1563  require(workflowStatus == WorkflowStatus.RegisteringVoters, \"Registration not started\") */\n      tag_256\n      jumpi\n      mload(0x40)\n      0x08c379a000000000000000000000000000000000000000000000000000000000\n      dup2\n      mstore\n      0x04\n      add\n      tag_257\n      swap1\n      tag_258\n      jump\t// in\n    tag_257:\n      mload(0x40)\n      dup1\n      swap2\n      sub\n      swap1\n      revert\n    tag_256:\n        /* \"contracts/11_Voting_withTest.sol\":1604:1609  false */\n      0x00\n        /* \"contracts/11_Voting_withTest.sol\":1581:1609  whitelist[_address] == false */\n      iszero\n      iszero\n        /* \"contracts/11_Voting_withTest.sol\":1581:1590  whitelist */\n      0x04\n        /* \"contracts/11_Voting_withTest.sol\":1581:1600  whitelist[_address] */\n      0x00\n        /* \"contracts/11_Voting_withTest.sol\":1591:1599  _address */\n      dup4\n        /* \"contracts/11_Voting_withTest.sol\":1581:1600  whitelist[_address] */\n      0xffffffffffffffffffffffffffffffffffffffff\n      and\n      0xffffffffffffffffffffffffffffffffffffffff\n      and\n      dup2\n      mstore\n      0x20\n      add\n      swap1\n      dup2\n      mstore\n      0x20\n      add\n      0x00\n      keccak256\n      0x00\n      swap1\n      sload\n      swap1\n      0x0100\n      exp\n      swap1\n      div\n      0xff\n      and\n        /* \"contracts/11_Voting_withTest.sol\":1581:1609  whitelist[_address] == false */\n      iszero\n      iszero\n      eq\n        /* \"contracts/11_Voting_withTest.sol\":1573:1649  require(whitelist[_address] == false, \"address is already in the whitelist\") */\n      tag_259\n      jumpi\n      mload(0x40)\n      0x08c379a000000000000000000000000000000000000000000000000000000000\n      dup2\n      mstore\n      0x04\n      add\n      tag_260\n      swap1\n      tag_261\n      jump\t// in\n    tag_260:\n      mload(0x40)\n      dup1\n      swap2\n      sub\n      swap1\n      revert\n    tag_259:\n        /* \"contracts/11_Voting_withTest.sol\":1681:1685  true */\n      0x01\n        /* \"contracts/11_Voting_withTest.sol\":1659:1668  whitelist */\n      0x04\n        /* \"contracts/11_Voting_withTest.sol\":1659:1678  whitelist[_address] */\n      0x00\n        /* \"contracts/11_Voting_withTest.sol\":1669:1677  _address */\n      dup4\n        /* \"contracts/11_Voting_withTest.sol\":1659:1678  whitelist[_address] */\n      0xffffffffffffffffffffffffffffffffffffffff\n      and\n      0xffffffffffffffffffffffffffffffffffffffff\n      and\n      dup2\n      mstore\n      0x20\n      add\n      swap1\n      dup2\n      mstore\n      0x20\n      add\n      0x00\n      keccak256\n      0x00\n        /* \"contracts/11_Voting_withTest.sol\":1659:1685  whitelist[_address] = true */\n      0x0100\n      exp\n      dup2\n      sload\n      dup2\n      0xff\n      mul\n      not\n      and\n      swap1\n      dup4\n      iszero\n      iszero\n      mul\n      or\n      swap1\n      sstore\n      pop\n        /* \"contracts/11_Voting_withTest.sol\":1407:1692  function addToWhitelist(address _address) public onlyOwner {... */\n      pop\n      jump\t// out\n        /* \"contracts/11_Voting_withTest.sol\":3343:3686  function startVotingSession() public onlyOwner {... */\n    tag_93:\n        /* \"https://github.com/OpenZeppelin/openzeppelin-contracts/blob/master/contracts/access/Ownable.sol\":1531:1544  _checkOwner() */\n      tag_263\n        /* \"https://github.com/OpenZeppelin/openzeppelin-contracts/blob/master/contracts/access/Ownable.sol\":1531:1542  _checkOwner */\n      tag_154\n        /* \"https://github.com/OpenZeppelin/openzeppelin-contracts/blob/master/contracts/access/Ownable.sol\":1531:1544  _checkOwner() */\n      jump\t// in\n    tag_263:\n        /* \"contracts/11_Voting_withTest.sol\":3425:3466  WorkflowStatus.ProposalsRegistrationEnded */\n      0x02\n        /* \"contracts/11_Voting_withTest.sol\":3407:3466  workflowStatus == WorkflowStatus.ProposalsRegistrationEnded */\n      0x05\n      dup2\n      gt\n      iszero\n      tag_265\n      jumpi\n      tag_266\n      tag_137\n      jump\t// in\n    tag_266:\n    tag_265:\n        /* \"contracts/11_Voting_withTest.sol\":3407:3421  workflowStatus */\n      0x02\n      0x00\n      swap1\n      sload\n      swap1\n      0x0100\n      exp\n      swap1\n      div\n      0xff\n      and\n        /* \"contracts/11_Voting_withTest.sol\":3407:3466  workflowStatus == WorkflowStatus.ProposalsRegistrationEnded */\n      0x05\n      dup2\n      gt\n      iszero\n      tag_267\n      jumpi\n      tag_268\n      tag_137\n      jump\t// in\n    tag_268:\n    tag_267:\n      eq\n        /* \"contracts/11_Voting_withTest.sol\":3399:3503  require(workflowStatus == WorkflowStatus.ProposalsRegistrationEnded, \"Proposals registration not ended\") */\n      tag_269\n      jumpi\n      mload(0x40)\n      0x08c379a000000000000000000000000000000000000000000000000000000000\n      dup2\n      mstore\n      0x04\n      add\n      tag_270\n      swap1\n      tag_271\n      jump\t// in\n    tag_270:\n      mload(0x40)\n      dup1\n      swap2\n      sub\n      swap1\n      revert\n    tag_269:\n        /* \"contracts/11_Voting_withTest.sol\":3529:3564  WorkflowStatus.VotingSessionStarted */\n      0x03\n        /* \"contracts/11_Voting_withTest.sol\":3512:3526  workflowStatus */\n      0x02\n      0x00\n        /* \"contracts/11_Voting_withTest.sol\":3512:3564  workflowStatus = WorkflowStatus.VotingSessionStarted */\n      0x0100\n      exp\n      dup2\n      sload\n      dup2\n      0xff\n      mul\n      not\n      and\n      swap1\n      dup4\n      0x05\n      dup2\n      gt\n      iszero\n      tag_272\n      jumpi\n      tag_273\n      tag_137\n      jump\t// in\n    tag_273:\n    tag_272:\n      mul\n      or\n      swap1\n      sstore\n      pop\n        /* \"contracts/11_Voting_withTest.sol\":3578:3678  WorkflowStatusChange(WorkflowStatus.ProposalsRegistrationEnded, WorkflowStatus.VotingSessionStarted) */\n      0x0a97a4ee45751e2abf3e4fc8946939630b11b371ea8ae39ccdc3056e98f5cc3f\n        /* \"contracts/11_Voting_withTest.sol\":3599:3640  WorkflowStatus.ProposalsRegistrationEnded */\n      0x02\n        /* \"contracts/11_Voting_withTest.sol\":3642:3677  WorkflowStatus.VotingSessionStarted */\n      0x03\n        /* \"contracts/11_Voting_withTest.sol\":3578:3678  WorkflowStatusChange(WorkflowStatus.ProposalsRegistrationEnded, WorkflowStatus.VotingSessionStarted) */\n      mload(0x40)\n      tag_274\n      swap3\n      swap2\n      swap1\n      tag_166\n      jump\t// in\n    tag_274:\n      mload(0x40)\n      dup1\n      swap2\n      sub\n      swap1\n      log1\n        /* \"contracts/11_Voting_withTest.sol\":3343:3686  function startVotingSession() public onlyOwner {... */\n      jump\t// out\n        /* \"https://github.com/OpenZeppelin/openzeppelin-contracts/blob/master/contracts/access/Ownable.sol\":2543:2758  function transferOwnership(address newOwner) public virtual onlyOwner {... */\n    tag_96:\n        /* \"https://github.com/OpenZeppelin/openzeppelin-contracts/blob/master/contracts/access/Ownable.sol\":1531:1544  _checkOwner() */\n      tag_276\n        /* \"https://github.com/OpenZeppelin/openzeppelin-contracts/blob/master/contracts/access/Ownable.sol\":1531:1542  _checkOwner */\n      tag_154\n        /* \"https://github.com/OpenZeppelin/openzeppelin-contracts/blob/master/contracts/access/Ownable.sol\":1531:1544  _checkOwner() */\n      jump\t// in\n    tag_276:\n        /* \"https://github.com/OpenZeppelin/openzeppelin-contracts/blob/master/contracts/access/Ownable.sol\":2647:2648  0 */\n      0x00\n        /* \"https://github.com/OpenZeppelin/openzeppelin-contracts/blob/master/contracts/access/Ownable.sol\":2627:2649  newOwner == address(0) */\n      0xffffffffffffffffffffffffffffffffffffffff\n      and\n        /* \"https://github.com/OpenZeppelin/openzeppelin-contracts/blob/master/contracts/access/Ownable.sol\":2627:2635  newOwner */\n      dup2\n        /* \"https://github.com/OpenZeppelin/openzeppelin-contracts/blob/master/contracts/access/Ownable.sol\":2627:2649  newOwner == address(0) */\n      0xffffffffffffffffffffffffffffffffffffffff\n      and\n      sub\n        /* \"https://github.com/OpenZeppelin/openzeppelin-contracts/blob/master/contracts/access/Ownable.sol\":2623:2714  if (newOwner == address(0)) {... */\n      tag_278\n      jumpi\n        /* \"https://github.com/OpenZeppelin/openzeppelin-contracts/blob/master/contracts/access/Ownable.sol\":2700:2701  0 */\n      0x00\n        /* \"https://github.com/OpenZeppelin/openzeppelin-contracts/blob/master/contracts/access/Ownable.sol\":2672:2703  OwnableInvalidOwner(address(0)) */\n      mload(0x40)\n      0x1e4fbdf700000000000000000000000000000000000000000000000000000000\n      dup2\n      mstore\n      0x04\n      add\n      tag_279\n      swap2\n      swap1\n      tag_58\n      jump\t// in\n    tag_279:\n      mload(0x40)\n      dup1\n      swap2\n      sub\n      swap1\n      revert\n        /* \"https://github.com/OpenZeppelin/openzeppelin-contracts/blob/master/contracts/access/Ownable.sol\":2623:2714  if (newOwner == address(0)) {... */\n    tag_278:\n        /* \"https://github.com/OpenZeppelin/openzeppelin-contracts/blob/master/contracts/access/Ownable.sol\":2723:2751  _transferOwnership(newOwner) */\n      tag_280\n        /* \"https://github.com/OpenZeppelin/openzeppelin-contracts/blob/master/contracts/access/Ownable.sol\":2742:2750  newOwner */\n      dup2\n        /* \"https://github.com/OpenZeppelin/openzeppelin-contracts/blob/master/contracts/access/Ownable.sol\":2723:2741  _transferOwnership */\n      tag_171\n        /* \"https://github.com/OpenZeppelin/openzeppelin-contracts/blob/master/contracts/access/Ownable.sol\":2723:2751  _transferOwnership(newOwner) */\n      jump\t// in\n    tag_280:\n        /* \"https://github.com/OpenZeppelin/openzeppelin-contracts/blob/master/contracts/access/Ownable.sol\":2543:2758  function transferOwnership(address newOwner) public virtual onlyOwner {... */\n      pop\n      jump\t// out\n        /* \"contracts/11_Voting_withTest.sol\":2172:2275  function getWorkflowStatus() public view returns(WorkflowStatus) {... */\n    tag_98:\n        /* \"contracts/11_Voting_withTest.sol\":2221:2235  WorkflowStatus */\n      0x00\n        /* \"contracts/11_Voting_withTest.sol\":2254:2268  workflowStatus */\n      0x02\n      0x00\n      swap1\n      sload\n      swap1\n      0x0100\n      exp\n      swap1\n      div\n      0xff\n      and\n        /* \"contracts/11_Voting_withTest.sol\":2247:2268  return workflowStatus */\n      swap1\n      pop\n        /* \"contracts/11_Voting_withTest.sol\":2172:2275  function getWorkflowStatus() public view returns(WorkflowStatus) {... */\n      swap1\n      jump\t// out\n        /* \"https://github.com/OpenZeppelin/openzeppelin-contracts/blob/master/contracts/access/Ownable.sol\":1796:1958  function _checkOwner() internal view virtual {... */\n    tag_154:\n        /* \"https://github.com/OpenZeppelin/openzeppelin-contracts/blob/master/contracts/access/Ownable.sol\":1866:1878  _msgSender() */\n      tag_283\n        /* \"https://github.com/OpenZeppelin/openzeppelin-contracts/blob/master/contracts/access/Ownable.sol\":1866:1876  _msgSender */\n      tag_284\n        /* \"https://github.com/OpenZeppelin/openzeppelin-contracts/blob/master/contracts/access/Ownable.sol\":1866:1878  _msgSender() */\n      jump\t// in\n    tag_283:\n        /* \"https://github.com/OpenZeppelin/openzeppelin-contracts/blob/master/contracts/access/Ownable.sol\":1855:1878  owner() != _msgSender() */\n      0xffffffffffffffffffffffffffffffffffffffff\n      and\n        /* \"https://github.com/OpenZeppelin/openzeppelin-contracts/blob/master/contracts/access/Ownable.sol\":1855:1862  owner() */\n      tag_285\n        /* \"https://github.com/OpenZeppelin/openzeppelin-contracts/blob/master/contracts/access/Ownable.sol\":1855:1860  owner */\n      tag_56\n        /* \"https://github.com/OpenZeppelin/openzeppelin-contracts/blob/master/contracts/access/Ownable.sol\":1855:1862  owner() */\n      jump\t// in\n    tag_285:\n        /* \"https://github.com/OpenZeppelin/openzeppelin-contracts/blob/master/contracts/access/Ownable.sol\":1855:1878  owner() != _msgSender() */\n      0xffffffffffffffffffffffffffffffffffffffff\n      and\n      eq\n        /* \"https://github.com/OpenZeppelin/openzeppelin-contracts/blob/master/contracts/access/Ownable.sol\":1851:1952  if (owner() != _msgSender()) {... */\n      tag_286\n      jumpi\n        /* \"https://github.com/OpenZeppelin/openzeppelin-contracts/blob/master/contracts/access/Ownable.sol\":1928:1940  _msgSender() */\n      tag_287\n        /* \"https://github.com/OpenZeppelin/openzeppelin-contracts/blob/master/contracts/access/Ownable.sol\":1928:1938  _msgSender */\n      tag_284\n        /* \"https://github.com/OpenZeppelin/openzeppelin-contracts/blob/master/contracts/access/Ownable.sol\":1928:1940  _msgSender() */\n      jump\t// in\n    tag_287:\n        /* \"https://github.com/OpenZeppelin/openzeppelin-contracts/blob/master/contracts/access/Ownable.sol\":1901:1941  OwnableUnauthorizedAccount(_msgSender()) */\n      mload(0x40)\n      0x118cdaa700000000000000000000000000000000000000000000000000000000\n      dup2\n      mstore\n      0x04\n      add\n      tag_288\n      swap2\n      swap1\n      tag_58\n      jump\t// in\n    tag_288:\n      mload(0x40)\n      dup1\n      swap2\n      sub\n      swap1\n      revert\n        /* \"https://github.com/OpenZeppelin/openzeppelin-contracts/blob/master/contracts/access/Ownable.sol\":1851:1952  if (owner() != _msgSender()) {... */\n    tag_286:\n        /* \"https://github.com/OpenZeppelin/openzeppelin-contracts/blob/master/contracts/access/Ownable.sol\":1796:1958  function _checkOwner() internal view virtual {... */\n      jump\t// out\n        /* \"https://github.com/OpenZeppelin/openzeppelin-contracts/blob/master/contracts/access/Ownable.sol\":2912:3099  function _transferOwnership(address newOwner) internal virtual {... */\n    tag_171:\n        /* \"https://github.com/OpenZeppelin/openzeppelin-contracts/blob/master/contracts/access/Ownable.sol\":2985:3001  address oldOwner */\n      0x00\n        /* \"https://github.com/OpenZeppelin/openzeppelin-contracts/blob/master/contracts/access/Ownable.sol\":3004:3010  _owner */\n      0x00\n      0x00\n      swap1\n      sload\n      swap1\n      0x0100\n      exp\n      swap1\n      div\n      0xffffffffffffffffffffffffffffffffffffffff\n      and\n        /* \"https://github.com/OpenZeppelin/openzeppelin-contracts/blob/master/contracts/access/Ownable.sol\":2985:3010  address oldOwner = _owner */\n      swap1\n      pop\n        /* \"https://github.com/OpenZeppelin/openzeppelin-contracts/blob/master/contracts/access/Ownable.sol\":3029:3037  newOwner */\n      dup2\n        /* \"https://github.com/OpenZeppelin/openzeppelin-contracts/blob/master/contracts/access/Ownable.sol\":3020:3026  _owner */\n      0x00\n      0x00\n        /* \"https://github.com/OpenZeppelin/openzeppelin-contracts/blob/master/contracts/access/Ownable.sol\":3020:3037  _owner = newOwner */\n      0x0100\n      exp\n      dup2\n      sload\n      dup2\n      0xffffffffffffffffffffffffffffffffffffffff\n      mul\n      not\n      and\n      swap1\n      dup4\n      0xffffffffffffffffffffffffffffffffffffffff\n      and\n      mul\n      or\n      swap1\n      sstore\n      pop\n        /* \"https://github.com/OpenZeppelin/openzeppelin-contracts/blob/master/contracts/access/Ownable.sol\":3083:3091  newOwner */\n      dup2\n        /* \"https://github.com/OpenZeppelin/openzeppelin-contracts/blob/master/contracts/access/Ownable.sol\":3052:3092  OwnershipTransferred(oldOwner, newOwner) */\n      0xffffffffffffffffffffffffffffffffffffffff\n      and\n        /* \"https://github.com/OpenZeppelin/openzeppelin-contracts/blob/master/contracts/access/Ownable.sol\":3073:3081  oldOwner */\n      dup2\n        /* \"https://github.com/OpenZeppelin/openzeppelin-contracts/blob/master/contracts/access/Ownable.sol\":3052:3092  OwnershipTransferred(oldOwner, newOwner) */\n      0xffffffffffffffffffffffffffffffffffffffff\n      and\n      0x8be0079c531659141344cd1fd0a4f28419497f9722a3daafe3b4186f6b6457e0\n      mload(0x40)\n      mload(0x40)\n      dup1\n      swap2\n      sub\n      swap1\n      log3\n        /* \"https://github.com/OpenZeppelin/openzeppelin-contracts/blob/master/contracts/access/Ownable.sol\":2975:3099  {... */\n      pop\n        /* \"https://github.com/OpenZeppelin/openzeppelin-contracts/blob/master/contracts/access/Ownable.sol\":2912:3099  function _transferOwnership(address newOwner) internal virtual {... */\n      pop\n      jump\t// out\n        /* \"https://github.com/OpenZeppelin/openzeppelin-contracts/blob/master/contracts/utils/Context.sol\":656:752  function _msgSender() internal view virtual returns (address) {... */\n    tag_284:\n        /* \"https://github.com/OpenZeppelin/openzeppelin-contracts/blob/master/contracts/utils/Context.sol\":709:716  address */\n      0x00\n        /* \"https://github.com/OpenZeppelin/openzeppelin-contracts/blob/master/contracts/utils/Context.sol\":735:745  msg.sender */\n      caller\n        /* \"https://github.com/OpenZeppelin/openzeppelin-contracts/blob/master/contracts/utils/Context.sol\":728:745  return msg.sender */\n      swap1\n      pop\n        /* \"https://github.com/OpenZeppelin/openzeppelin-contracts/blob/master/contracts/utils/Context.sol\":656:752  function _msgSender() internal view virtual returns (address) {... */\n      swap1\n      jump\t// out\n    tag_109:\n      mload(0x40)\n      dup1\n      0x40\n      add\n      0x40\n      mstore\n      dup1\n      0x60\n      dup2\n      mstore\n      0x20\n      add\n      0x00\n      dup2\n      mstore\n      pop\n      swap1\n      jump\t// out\n        /* \"#utility.yul\":7:82   */\n    tag_291:\n        /* \"#utility.yul\":40:46   */\n      0x00\n        /* \"#utility.yul\":73:75   */\n      0x40\n        /* \"#utility.yul\":67:76   */\n      mload\n        /* \"#utility.yul\":57:76   */\n      swap1\n      pop\n        /* \"#utility.yul\":7:82   */\n      swap1\n      jump\t// out\n        /* \"#utility.yul\":88:205   */\n    tag_292:\n        /* \"#utility.yul\":197:198   */\n      0x00\n        /* \"#utility.yul\":194:195   */\n      0x00\n        /* \"#utility.yul\":187:199   */\n      revert\n        /* \"#utility.yul\":211:328   */\n    tag_293:\n        /* \"#utility.yul\":320:321   */\n      0x00\n        /* \"#utility.yul\":317:318   */\n      0x00\n        /* \"#utility.yul\":310:322   */\n      revert\n        /* \"#utility.yul\":334:411   */\n    tag_294:\n        /* \"#utility.yul\":371:378   */\n      0x00\n        /* \"#utility.yul\":400:405   */\n      dup2\n        /* \"#utility.yul\":389:405   */\n      swap1\n      pop\n        /* \"#utility.yul\":334:411   */\n      swap2\n      swap1\n      pop\n      jump\t// out\n        /* \"#utility.yul\":417:539   */\n    tag_295:\n        /* \"#utility.yul\":490:514   */\n      tag_383\n        /* \"#utility.yul\":508:513   */\n      dup2\n        /* \"#utility.yul\":490:514   */\n      tag_294\n      jump\t// in\n    tag_383:\n        /* \"#utility.yul\":483:488   */\n      dup2\n        /* \"#utility.yul\":480:515   */\n      eq\n        /* \"#utility.yul\":470:533   */\n      tag_384\n      jumpi\n        /* \"#utility.yul\":529:530   */\n      0x00\n        /* \"#utility.yul\":526:527   */\n      0x00\n        /* \"#utility.yul\":519:531   */\n      revert\n        /* \"#utility.yul\":470:533   */\n    tag_384:\n        /* \"#utility.yul\":417:539   */\n      pop\n      jump\t// out\n        /* \"#utility.yul\":545:684   */\n    tag_296:\n        /* \"#utility.yul\":591:596   */\n      0x00\n        /* \"#utility.yul\":629:635   */\n      dup2\n        /* \"#utility.yul\":616:636   */\n      calldataload\n        /* \"#utility.yul\":607:636   */\n      swap1\n      pop\n        /* \"#utility.yul\":645:678   */\n      tag_386\n        /* \"#utility.yul\":672:677   */\n      dup2\n        /* \"#utility.yul\":645:678   */\n      tag_295\n      jump\t// in\n    tag_386:\n        /* \"#utility.yul\":545:684   */\n      swap3\n      swap2\n      pop\n      pop\n      jump\t// out\n        /* \"#utility.yul\":690:1019   */\n    tag_29:\n        /* \"#utility.yul\":749:755   */\n      0x00\n        /* \"#utility.yul\":798:800   */\n      0x20\n        /* \"#utility.yul\":786:795   */\n      dup3\n        /* \"#utility.yul\":777:784   */\n      dup5\n        /* \"#utility.yul\":773:796   */\n      sub\n        /* \"#utility.yul\":769:801   */\n      slt\n        /* \"#utility.yul\":766:885   */\n      iszero\n      tag_388\n      jumpi\n        /* \"#utility.yul\":804:883   */\n      tag_389\n      tag_292\n      jump\t// in\n    tag_389:\n        /* \"#utility.yul\":766:885   */\n    tag_388:\n        /* \"#utility.yul\":924:925   */\n      0x00\n        /* \"#utility.yul\":949:1002   */\n      tag_390\n        /* \"#utility.yul\":994:1001   */\n      dup5\n        /* \"#utility.yul\":985:991   */\n      dup3\n        /* \"#utility.yul\":974:983   */\n      dup6\n        /* \"#utility.yul\":970:992   */\n      add\n        /* \"#utility.yul\":949:1002   */\n      tag_296\n      jump\t// in\n    tag_390:\n        /* \"#utility.yul\":939:1002   */\n      swap2\n      pop\n        /* \"#utility.yul\":895:1012   */\n      pop\n        /* \"#utility.yul\":690:1019   */\n      swap3\n      swap2\n      pop\n      pop\n      jump\t// out\n        /* \"#utility.yul\":1025:1124   */\n    tag_297:\n        /* \"#utility.yul\":1077:1083   */\n      0x00\n        /* \"#utility.yul\":1111:1116   */\n      dup2\n        /* \"#utility.yul\":1105:1117   */\n      mload\n        /* \"#utility.yul\":1095:1117   */\n      swap1\n      pop\n        /* \"#utility.yul\":1025:1124   */\n      swap2\n      swap1\n      pop\n      jump\t// out\n        /* \"#utility.yul\":1130:1299   */\n    tag_298:\n        /* \"#utility.yul\":1214:1225   */\n      0x00\n        /* \"#utility.yul\":1248:1254   */\n      dup3\n        /* \"#utility.yul\":1243:1246   */\n      dup3\n        /* \"#utility.yul\":1236:1255   */\n      mstore\n        /* \"#utility.yul\":1288:1292   */\n      0x20\n        /* \"#utility.yul\":1283:1286   */\n      dup3\n        /* \"#utility.yul\":1279:1293   */\n      add\n        /* \"#utility.yul\":1264:1293   */\n      swap1\n      pop\n        /* \"#utility.yul\":1130:1299   */\n      swap3\n      swap2\n      pop\n      pop\n      jump\t// out\n        /* \"#utility.yul\":1305:1444   */\n    tag_299:\n        /* \"#utility.yul\":1394:1400   */\n      dup3\n        /* \"#utility.yul\":1389:1392   */\n      dup2\n        /* \"#utility.yul\":1384:1387   */\n      dup4\n        /* \"#utility.yul\":1378:1401   */\n      mcopy\n        /* \"#utility.yul\":1435:1436   */\n      0x00\n        /* \"#utility.yul\":1426:1432   */\n      dup4\n        /* \"#utility.yul\":1421:1424   */\n      dup4\n        /* \"#utility.yul\":1417:1433   */\n      add\n        /* \"#utility.yul\":1410:1437   */\n      mstore\n        /* \"#utility.yul\":1305:1444   */\n      pop\n      pop\n      pop\n      jump\t// out\n        /* \"#utility.yul\":1450:1552   */\n    tag_300:\n        /* \"#utility.yul\":1491:1497   */\n      0x00\n        /* \"#utility.yul\":1542:1544   */\n      0x1f\n        /* \"#utility.yul\":1538:1545   */\n      not\n        /* \"#utility.yul\":1533:1535   */\n      0x1f\n        /* \"#utility.yul\":1526:1531   */\n      dup4\n        /* \"#utility.yul\":1522:1536   */\n      add\n        /* \"#utility.yul\":1518:1546   */\n      and\n        /* \"#utility.yul\":1508:1546   */\n      swap1\n      pop\n        /* \"#utility.yul\":1450:1552   */\n      swap2\n      swap1\n      pop\n      jump\t// out\n        /* \"#utility.yul\":1558:1935   */\n    tag_301:\n        /* \"#utility.yul\":1646:1649   */\n      0x00\n        /* \"#utility.yul\":1674:1713   */\n      tag_396\n        /* \"#utility.yul\":1707:1712   */\n      dup3\n        /* \"#utility.yul\":1674:1713   */\n      tag_297\n      jump\t// in\n    tag_396:\n        /* \"#utility.yul\":1729:1800   */\n      tag_397\n        /* \"#utility.yul\":1793:1799   */\n      dup2\n        /* \"#utility.yul\":1788:1791   */\n      dup6\n        /* \"#utility.yul\":1729:1800   */\n      tag_298\n      jump\t// in\n    tag_397:\n        /* \"#utility.yul\":1722:1800   */\n      swap4\n      pop\n        /* \"#utility.yul\":1809:1874   */\n      tag_398\n        /* \"#utility.yul\":1867:1873   */\n      dup2\n        /* \"#utility.yul\":1862:1865   */\n      dup6\n        /* \"#utility.yul\":1855:1859   */\n      0x20\n        /* \"#utility.yul\":1848:1853   */\n      dup7\n        /* \"#utility.yul\":1844:1860   */\n      add\n        /* \"#utility.yul\":1809:1874   */\n      tag_299\n      jump\t// in\n    tag_398:\n        /* \"#utility.yul\":1899:1928   */\n      tag_399\n        /* \"#utility.yul\":1921:1927   */\n      dup2\n        /* \"#utility.yul\":1899:1928   */\n      tag_300\n      jump\t// in\n    tag_399:\n        /* \"#utility.yul\":1894:1897   */\n      dup5\n        /* \"#utility.yul\":1890:1929   */\n      add\n        /* \"#utility.yul\":1883:1929   */\n      swap2\n      pop\n        /* \"#utility.yul\":1650:1935   */\n      pop\n        /* \"#utility.yul\":1558:1935   */\n      swap3\n      swap2\n      pop\n      pop\n      jump\t// out\n        /* \"#utility.yul\":1941:2059   */\n    tag_302:\n        /* \"#utility.yul\":2028:2052   */\n      tag_401\n        /* \"#utility.yul\":2046:2051   */\n      dup2\n        /* \"#utility.yul\":2028:2052   */\n      tag_294\n      jump\t// in\n    tag_401:\n        /* \"#utility.yul\":2023:2026   */\n      dup3\n        /* \"#utility.yul\":2016:2053   */\n      mstore\n        /* \"#utility.yul\":1941:2059   */\n      pop\n      pop\n      jump\t// out\n        /* \"#utility.yul\":2065:2488   */\n    tag_32:\n        /* \"#utility.yul\":2206:2210   */\n      0x00\n        /* \"#utility.yul\":2244:2246   */\n      0x40\n        /* \"#utility.yul\":2233:2242   */\n      dup3\n        /* \"#utility.yul\":2229:2247   */\n      add\n        /* \"#utility.yul\":2221:2247   */\n      swap1\n      pop\n        /* \"#utility.yul\":2293:2302   */\n      dup2\n        /* \"#utility.yul\":2287:2291   */\n      dup2\n        /* \"#utility.yul\":2283:2303   */\n      sub\n        /* \"#utility.yul\":2279:2280   */\n      0x00\n        /* \"#utility.yul\":2268:2277   */\n      dup4\n        /* \"#utility.yul\":2264:2281   */\n      add\n        /* \"#utility.yul\":2257:2304   */\n      mstore\n        /* \"#utility.yul\":2321:2399   */\n      tag_403\n        /* \"#utility.yul\":2394:2398   */\n      dup2\n        /* \"#utility.yul\":2385:2391   */\n      dup6\n        /* \"#utility.yul\":2321:2399   */\n      tag_301\n      jump\t// in\n    tag_403:\n        /* \"#utility.yul\":2313:2399   */\n      swap1\n      pop\n        /* \"#utility.yul\":2409:2481   */\n      tag_404\n        /* \"#utility.yul\":2477:2479   */\n      0x20\n        /* \"#utility.yul\":2466:2475   */\n      dup4\n        /* \"#utility.yul\":2462:2480   */\n      add\n        /* \"#utility.yul\":2453:2459   */\n      dup5\n        /* \"#utility.yul\":2409:2481   */\n      tag_302\n      jump\t// in\n    tag_404:\n        /* \"#utility.yul\":2065:2488   */\n      swap4\n      swap3\n      pop\n      pop\n      pop\n      jump\t// out\n        /* \"#utility.yul\":2494:2653   */\n    tag_303:\n        /* \"#utility.yul\":2568:2579   */\n      0x00\n        /* \"#utility.yul\":2602:2608   */\n      dup3\n        /* \"#utility.yul\":2597:2600   */\n      dup3\n        /* \"#utility.yul\":2590:2609   */\n      mstore\n        /* \"#utility.yul\":2642:2646   */\n      0x20\n        /* \"#utility.yul\":2637:2640   */\n      dup3\n        /* \"#utility.yul\":2633:2647   */\n      add\n        /* \"#utility.yul\":2618:2647   */\n      swap1\n      pop\n        /* \"#utility.yul\":2494:2653   */\n      swap3\n      swap2\n      pop\n      pop\n      jump\t// out\n        /* \"#utility.yul\":2659:3016   */\n    tag_304:\n        /* \"#utility.yul\":2737:2740   */\n      0x00\n        /* \"#utility.yul\":2765:2804   */\n      tag_407\n        /* \"#utility.yul\":2798:2803   */\n      dup3\n        /* \"#utility.yul\":2765:2804   */\n      tag_297\n      jump\t// in\n    tag_407:\n        /* \"#utility.yul\":2820:2881   */\n      tag_408\n        /* \"#utility.yul\":2874:2880   */\n      dup2\n        /* \"#utility.yul\":2869:2872   */\n      dup6\n        /* \"#utility.yul\":2820:2881   */\n      tag_303\n      jump\t// in\n    tag_408:\n        /* \"#utility.yul\":2813:2881   */\n      swap4\n      pop\n        /* \"#utility.yul\":2890:2955   */\n      tag_409\n        /* \"#utility.yul\":2948:2954   */\n      dup2\n        /* \"#utility.yul\":2943:2946   */\n      dup6\n        /* \"#utility.yul\":2936:2940   */\n      0x20\n        /* \"#utility.yul\":2929:2934   */\n      dup7\n        /* \"#utility.yul\":2925:2941   */\n      add\n        /* \"#utility.yul\":2890:2955   */\n      tag_299\n      jump\t// in\n    tag_409:\n        /* \"#utility.yul\":2980:3009   */\n      tag_410\n        /* \"#utility.yul\":3002:3008   */\n      dup2\n        /* \"#utility.yul\":2980:3009   */\n      tag_300\n      jump\t// in\n    tag_410:\n        /* \"#utility.yul\":2975:2978   */\n      dup5\n        /* \"#utility.yul\":2971:3010   */\n      add\n        /* \"#utility.yul\":2964:3010   */\n      swap2\n      pop\n        /* \"#utility.yul\":2741:3016   */\n      pop\n        /* \"#utility.yul\":2659:3016   */\n      swap3\n      swap2\n      pop\n      pop\n      jump\t// out\n        /* \"#utility.yul\":3022:3130   */\n    tag_305:\n        /* \"#utility.yul\":3099:3123   */\n      tag_412\n        /* \"#utility.yul\":3117:3122   */\n      dup2\n        /* \"#utility.yul\":3099:3123   */\n      tag_294\n      jump\t// in\n    tag_412:\n        /* \"#utility.yul\":3094:3097   */\n      dup3\n        /* \"#utility.yul\":3087:3124   */\n      mstore\n        /* \"#utility.yul\":3022:3130   */\n      pop\n      pop\n      jump\t// out\n        /* \"#utility.yul\":3192:3808   */\n    tag_306:\n        /* \"#utility.yul\":3309:3312   */\n      0x00\n        /* \"#utility.yul\":3345:3349   */\n      0x40\n        /* \"#utility.yul\":3340:3343   */\n      dup4\n        /* \"#utility.yul\":3336:3350   */\n      add\n        /* \"#utility.yul\":3439:3443   */\n      0x00\n        /* \"#utility.yul\":3432:3437   */\n      dup4\n        /* \"#utility.yul\":3428:3444   */\n      add\n        /* \"#utility.yul\":3422:3445   */\n      mload\n        /* \"#utility.yul\":3492:3495   */\n      dup5\n        /* \"#utility.yul\":3486:3490   */\n      dup3\n        /* \"#utility.yul\":3482:3496   */\n      sub\n        /* \"#utility.yul\":3475:3479   */\n      0x00\n        /* \"#utility.yul\":3470:3473   */\n      dup7\n        /* \"#utility.yul\":3466:3480   */\n      add\n        /* \"#utility.yul\":3459:3497   */\n      mstore\n        /* \"#utility.yul\":3518:3591   */\n      tag_414\n        /* \"#utility.yul\":3586:3590   */\n      dup3\n        /* \"#utility.yul\":3572:3584   */\n      dup3\n        /* \"#utility.yul\":3518:3591   */\n      tag_304\n      jump\t// in\n    tag_414:\n        /* \"#utility.yul\":3510:3591   */\n      swap2\n      pop\n        /* \"#utility.yul\":3360:3602   */\n      pop\n        /* \"#utility.yul\":3689:3693   */\n      0x20\n        /* \"#utility.yul\":3682:3687   */\n      dup4\n        /* \"#utility.yul\":3678:3694   */\n      add\n        /* \"#utility.yul\":3672:3695   */\n      mload\n        /* \"#utility.yul\":3708:3771   */\n      tag_415\n        /* \"#utility.yul\":3765:3769   */\n      0x20\n        /* \"#utility.yul\":3760:3763   */\n      dup7\n        /* \"#utility.yul\":3756:3770   */\n      add\n        /* \"#utility.yul\":3742:3754   */\n      dup3\n        /* \"#utility.yul\":3708:3771   */\n      tag_305\n      jump\t// in\n    tag_415:\n        /* \"#utility.yul\":3612:3781   */\n      pop\n        /* \"#utility.yul\":3798:3802   */\n      dup1\n        /* \"#utility.yul\":3791:3802   */\n      swap2\n      pop\n        /* \"#utility.yul\":3314:3808   */\n      pop\n        /* \"#utility.yul\":3192:3808   */\n      swap3\n      swap2\n      pop\n      pop\n      jump\t// out\n        /* \"#utility.yul\":3814:4183   */\n    tag_37:\n        /* \"#utility.yul\":3955:3959   */\n      0x00\n        /* \"#utility.yul\":3993:3995   */\n      0x20\n        /* \"#utility.yul\":3982:3991   */\n      dup3\n        /* \"#utility.yul\":3978:3996   */\n      add\n        /* \"#utility.yul\":3970:3996   */\n      swap1\n      pop\n        /* \"#utility.yul\":4042:4051   */\n      dup2\n        /* \"#utility.yul\":4036:4040   */\n      dup2\n        /* \"#utility.yul\":4032:4052   */\n      sub\n        /* \"#utility.yul\":4028:4029   */\n      0x00\n        /* \"#utility.yul\":4017:4026   */\n      dup4\n        /* \"#utility.yul\":4013:4030   */\n      add\n        /* \"#utility.yul\":4006:4053   */\n      mstore\n        /* \"#utility.yul\":4070:4176   */\n      tag_417\n        /* \"#utility.yul\":4171:4175   */\n      dup2\n        /* \"#utility.yul\":4162:4168   */\n      dup5\n        /* \"#utility.yul\":4070:4176   */\n      tag_306\n      jump\t// in\n    tag_417:\n        /* \"#utility.yul\":4062:4176   */\n      swap1\n      pop\n        /* \"#utility.yul\":3814:4183   */\n      swap3\n      swap2\n      pop\n      pop\n      jump\t// out\n        /* \"#utility.yul\":4189:4315   */\n    tag_307:\n        /* \"#utility.yul\":4226:4233   */\n      0x00\n        /* \"#utility.yul\":4266:4308   */\n      0xffffffffffffffffffffffffffffffffffffffff\n        /* \"#utility.yul\":4259:4264   */\n      dup3\n        /* \"#utility.yul\":4255:4309   */\n      and\n        /* \"#utility.yul\":4244:4309   */\n      swap1\n      pop\n        /* \"#utility.yul\":4189:4315   */\n      swap2\n      swap1\n      pop\n      jump\t// out\n        /* \"#utility.yul\":4321:4417   */\n    tag_308:\n        /* \"#utility.yul\":4358:4365   */\n      0x00\n        /* \"#utility.yul\":4387:4411   */\n      tag_420\n        /* \"#utility.yul\":4405:4410   */\n      dup3\n        /* \"#utility.yul\":4387:4411   */\n      tag_307\n      jump\t// in\n    tag_420:\n        /* \"#utility.yul\":4376:4411   */\n      swap1\n      pop\n        /* \"#utility.yul\":4321:4417   */\n      swap2\n      swap1\n      pop\n      jump\t// out\n        /* \"#utility.yul\":4423:4545   */\n    tag_309:\n        /* \"#utility.yul\":4496:4520   */\n      tag_422\n        /* \"#utility.yul\":4514:4519   */\n      dup2\n        /* \"#utility.yul\":4496:4520   */\n      tag_308\n      jump\t// in\n    tag_422:\n        /* \"#utility.yul\":4489:4494   */\n      dup2\n        /* \"#utility.yul\":4486:4521   */\n      eq\n        /* \"#utility.yul\":4476:4539   */\n      tag_423\n      jumpi\n        /* \"#utility.yul\":4535:4536   */\n      0x00\n        /* \"#utility.yul\":4532:4533   */\n      0x00\n        /* \"#utility.yul\":4525:4537   */\n      revert\n        /* \"#utility.yul\":4476:4539   */\n    tag_423:\n        /* \"#utility.yul\":4423:4545   */\n      pop\n      jump\t// out\n        /* \"#utility.yul\":4551:4690   */\n    tag_310:\n        /* \"#utility.yul\":4597:4602   */\n      0x00\n        /* \"#utility.yul\":4635:4641   */\n      dup2\n        /* \"#utility.yul\":4622:4642   */\n      calldataload\n        /* \"#utility.yul\":4613:4642   */\n      swap1\n      pop\n        /* \"#utility.yul\":4651:4684   */\n      tag_425\n        /* \"#utility.yul\":4678:4683   */\n      dup2\n        /* \"#utility.yul\":4651:4684   */\n      tag_309\n      jump\t// in\n    tag_425:\n        /* \"#utility.yul\":4551:4690   */\n      swap3\n      swap2\n      pop\n      pop\n      jump\t// out\n        /* \"#utility.yul\":4696:5025   */\n    tag_40:\n        /* \"#utility.yul\":4755:4761   */\n      0x00\n        /* \"#utility.yul\":4804:4806   */\n      0x20\n        /* \"#utility.yul\":4792:4801   */\n      dup3\n        /* \"#utility.yul\":4783:4790   */\n      dup5\n        /* \"#utility.yul\":4779:4802   */\n      sub\n        /* \"#utility.yul\":4775:4807   */\n      slt\n        /* \"#utility.yul\":4772:4891   */\n      iszero\n      tag_427\n      jumpi\n        /* \"#utility.yul\":4810:4889   */\n      tag_428\n      tag_292\n      jump\t// in\n    tag_428:\n        /* \"#utility.yul\":4772:4891   */\n    tag_427:\n        /* \"#utility.yul\":4930:4931   */\n      0x00\n        /* \"#utility.yul\":4955:5008   */\n      tag_429\n        /* \"#utility.yul\":5000:5007   */\n      dup5\n        /* \"#utility.yul\":4991:4997   */\n      dup3\n        /* \"#utility.yul\":4980:4989   */\n      dup6\n        /* \"#utility.yul\":4976:4998   */\n      add\n        /* \"#utility.yul\":4955:5008   */\n      tag_310\n      jump\t// in\n    tag_429:\n        /* \"#utility.yul\":4945:5008   */\n      swap2\n      pop\n        /* \"#utility.yul\":4901:5018   */\n      pop\n        /* \"#utility.yul\":4696:5025   */\n      swap3\n      swap2\n      pop\n      pop\n      jump\t// out\n        /* \"#utility.yul\":5031:5121   */\n    tag_311:\n        /* \"#utility.yul\":5065:5072   */\n      0x00\n        /* \"#utility.yul\":5108:5113   */\n      dup2\n        /* \"#utility.yul\":5101:5114   */\n      iszero\n        /* \"#utility.yul\":5094:5115   */\n      iszero\n        /* \"#utility.yul\":5083:5115   */\n      swap1\n      pop\n        /* \"#utility.yul\":5031:5121   */\n      swap2\n      swap1\n      pop\n      jump\t// out\n        /* \"#utility.yul\":5127:5236   */\n    tag_312:\n        /* \"#utility.yul\":5208:5229   */\n      tag_432\n        /* \"#utility.yul\":5223:5228   */\n      dup2\n        /* \"#utility.yul\":5208:5229   */\n      tag_311\n      jump\t// in\n    tag_432:\n        /* \"#utility.yul\":5203:5206   */\n      dup3\n        /* \"#utility.yul\":5196:5230   */\n      mstore\n        /* \"#utility.yul\":5127:5236   */\n      pop\n      pop\n      jump\t// out\n        /* \"#utility.yul\":5242:5452   */\n    tag_43:\n        /* \"#utility.yul\":5329:5333   */\n      0x00\n        /* \"#utility.yul\":5367:5369   */\n      0x20\n        /* \"#utility.yul\":5356:5365   */\n      dup3\n        /* \"#utility.yul\":5352:5370   */\n      add\n        /* \"#utility.yul\":5344:5370   */\n      swap1\n      pop\n        /* \"#utility.yul\":5380:5445   */\n      tag_434\n        /* \"#utility.yul\":5442:5443   */\n      0x00\n        /* \"#utility.yul\":5431:5440   */\n      dup4\n        /* \"#utility.yul\":5427:5444   */\n      add\n        /* \"#utility.yul\":5418:5424   */\n      dup5\n        /* \"#utility.yul\":5380:5445   */\n      tag_312\n      jump\t// in\n    tag_434:\n        /* \"#utility.yul\":5242:5452   */\n      swap3\n      swap2\n      pop\n      pop\n      jump\t// out\n        /* \"#utility.yul\":5458:5575   */\n    tag_313:\n        /* \"#utility.yul\":5567:5568   */\n      0x00\n        /* \"#utility.yul\":5564:5565   */\n      0x00\n        /* \"#utility.yul\":5557:5569   */\n      revert\n        /* \"#utility.yul\":5581:5698   */\n    tag_314:\n        /* \"#utility.yul\":5690:5691   */\n      0x00\n        /* \"#utility.yul\":5687:5688   */\n      0x00\n        /* \"#utility.yul\":5680:5692   */\n      revert\n        /* \"#utility.yul\":5704:5884   */\n    tag_315:\n        /* \"#utility.yul\":5752:5829   */\n      0x4e487b7100000000000000000000000000000000000000000000000000000000\n        /* \"#utility.yul\":5749:5750   */\n      0x00\n        /* \"#utility.yul\":5742:5830   */\n      mstore\n        /* \"#utility.yul\":5849:5853   */\n      0x41\n        /* \"#utility.yul\":5846:5847   */\n      0x04\n        /* \"#utility.yul\":5839:5854   */\n      mstore\n        /* \"#utility.yul\":5873:5877   */\n      0x24\n        /* \"#utility.yul\":5870:5871   */\n      0x00\n        /* \"#utility.yul\":5863:5878   */\n      revert\n        /* \"#utility.yul\":5890:6171   */\n    tag_316:\n        /* \"#utility.yul\":5973:6000   */\n      tag_439\n        /* \"#utility.yul\":5995:5999   */\n      dup3\n        /* \"#utility.yul\":5973:6000   */\n      tag_300\n      jump\t// in\n    tag_439:\n        /* \"#utility.yul\":5965:5971   */\n      dup2\n        /* \"#utility.yul\":5961:6001   */\n      add\n        /* \"#utility.yul\":6103:6109   */\n      dup2\n        /* \"#utility.yul\":6091:6101   */\n      dup2\n        /* \"#utility.yul\":6088:6110   */\n      lt\n        /* \"#utility.yul\":6067:6085   */\n      0xffffffffffffffff\n        /* \"#utility.yul\":6055:6065   */\n      dup3\n        /* \"#utility.yul\":6052:6086   */\n      gt\n        /* \"#utility.yul\":6049:6111   */\n      or\n        /* \"#utility.yul\":6046:6134   */\n      iszero\n      tag_440\n      jumpi\n        /* \"#utility.yul\":6114:6132   */\n      tag_441\n      tag_315\n      jump\t// in\n    tag_441:\n        /* \"#utility.yul\":6046:6134   */\n    tag_440:\n        /* \"#utility.yul\":6154:6164   */\n      dup1\n        /* \"#utility.yul\":6150:6152   */\n      0x40\n        /* \"#utility.yul\":6143:6165   */\n      mstore\n        /* \"#utility.yul\":5933:6171   */\n      pop\n        /* \"#utility.yul\":5890:6171   */\n      pop\n      pop\n      jump\t// out\n        /* \"#utility.yul\":6177:6306   */\n    tag_317:\n        /* \"#utility.yul\":6211:6217   */\n      0x00\n        /* \"#utility.yul\":6238:6258   */\n      tag_443\n      tag_291\n      jump\t// in\n    tag_443:\n        /* \"#utility.yul\":6228:6258   */\n      swap1\n      pop\n        /* \"#utility.yul\":6267:6300   */\n      tag_444\n        /* \"#utility.yul\":6295:6299   */\n      dup3\n        /* \"#utility.yul\":6287:6293   */\n      dup3\n        /* \"#utility.yul\":6267:6300   */\n      tag_316\n      jump\t// in\n    tag_444:\n        /* \"#utility.yul\":6177:6306   */\n      swap2\n      swap1\n      pop\n      jump\t// out\n        /* \"#utility.yul\":6312:6620   */\n    tag_318:\n        /* \"#utility.yul\":6374:6378   */\n      0x00\n        /* \"#utility.yul\":6464:6482   */\n      0xffffffffffffffff\n        /* \"#utility.yul\":6456:6462   */\n      dup3\n        /* \"#utility.yul\":6453:6483   */\n      gt\n        /* \"#utility.yul\":6450:6506   */\n      iszero\n      tag_446\n      jumpi\n        /* \"#utility.yul\":6486:6504   */\n      tag_447\n      tag_315\n      jump\t// in\n    tag_447:\n        /* \"#utility.yul\":6450:6506   */\n    tag_446:\n        /* \"#utility.yul\":6524:6553   */\n      tag_448\n        /* \"#utility.yul\":6546:6552   */\n      dup3\n        /* \"#utility.yul\":6524:6553   */\n      tag_300\n      jump\t// in\n    tag_448:\n        /* \"#utility.yul\":6516:6553   */\n      swap1\n      pop\n        /* \"#utility.yul\":6608:6612   */\n      0x20\n        /* \"#utility.yul\":6602:6606   */\n      dup2\n        /* \"#utility.yul\":6598:6613   */\n      add\n        /* \"#utility.yul\":6590:6613   */\n      swap1\n      pop\n        /* \"#utility.yul\":6312:6620   */\n      swap2\n      swap1\n      pop\n      jump\t// out\n        /* \"#utility.yul\":6626:6774   */\n    tag_319:\n        /* \"#utility.yul\":6724:6730   */\n      dup3\n        /* \"#utility.yul\":6719:6722   */\n      dup2\n        /* \"#utility.yul\":6714:6717   */\n      dup4\n        /* \"#utility.yul\":6701:6731   */\n      calldatacopy\n        /* \"#utility.yul\":6765:6766   */\n      0x00\n        /* \"#utility.yul\":6756:6762   */\n      dup4\n        /* \"#utility.yul\":6751:6754   */\n      dup4\n        /* \"#utility.yul\":6747:6763   */\n      add\n        /* \"#utility.yul\":6740:6767   */\n      mstore\n        /* \"#utility.yul\":6626:6774   */\n      pop\n      pop\n      pop\n      jump\t// out\n        /* \"#utility.yul\":6780:7205   */\n    tag_320:\n        /* \"#utility.yul\":6858:6863   */\n      0x00\n        /* \"#utility.yul\":6883:6949   */\n      tag_451\n        /* \"#utility.yul\":6899:6948   */\n      tag_452\n        /* \"#utility.yul\":6941:6947   */\n      dup5\n        /* \"#utility.yul\":6899:6948   */\n      tag_318\n      jump\t// in\n    tag_452:\n        /* \"#utility.yul\":6883:6949   */\n      tag_317\n      jump\t// in\n    tag_451:\n        /* \"#utility.yul\":6874:6949   */\n      swap1\n      pop\n        /* \"#utility.yul\":6972:6978   */\n      dup3\n        /* \"#utility.yul\":6965:6970   */\n      dup2\n        /* \"#utility.yul\":6958:6979   */\n      mstore\n        /* \"#utility.yul\":7010:7014   */\n      0x20\n        /* \"#utility.yul\":7003:7008   */\n      dup2\n        /* \"#utility.yul\":6999:7015   */\n      add\n        /* \"#utility.yul\":7048:7051   */\n      dup5\n        /* \"#utility.yul\":7039:7045   */\n      dup5\n        /* \"#utility.yul\":7034:7037   */\n      dup5\n        /* \"#utility.yul\":7030:7046   */\n      add\n        /* \"#utility.yul\":7027:7052   */\n      gt\n        /* \"#utility.yul\":7024:7136   */\n      iszero\n      tag_453\n      jumpi\n        /* \"#utility.yul\":7055:7134   */\n      tag_454\n      tag_314\n      jump\t// in\n    tag_454:\n        /* \"#utility.yul\":7024:7136   */\n    tag_453:\n        /* \"#utility.yul\":7145:7199   */\n      tag_455\n        /* \"#utility.yul\":7192:7198   */\n      dup5\n        /* \"#utility.yul\":7187:7190   */\n      dup3\n        /* \"#utility.yul\":7182:7185   */\n      dup6\n        /* \"#utility.yul\":7145:7199   */\n      tag_319\n      jump\t// in\n    tag_455:\n        /* \"#utility.yul\":6864:7205   */\n      pop\n        /* \"#utility.yul\":6780:7205   */\n      swap4\n      swap3\n      pop\n      pop\n      pop\n      jump\t// out\n        /* \"#utility.yul\":7225:7565   */\n    tag_321:\n        /* \"#utility.yul\":7281:7286   */\n      0x00\n        /* \"#utility.yul\":7330:7333   */\n      dup3\n        /* \"#utility.yul\":7323:7327   */\n      0x1f\n        /* \"#utility.yul\":7315:7321   */\n      dup4\n        /* \"#utility.yul\":7311:7328   */\n      add\n        /* \"#utility.yul\":7307:7334   */\n      slt\n        /* \"#utility.yul\":7297:7419   */\n      tag_457\n      jumpi\n        /* \"#utility.yul\":7338:7417   */\n      tag_458\n      tag_313\n      jump\t// in\n    tag_458:\n        /* \"#utility.yul\":7297:7419   */\n    tag_457:\n        /* \"#utility.yul\":7455:7461   */\n      dup2\n        /* \"#utility.yul\":7442:7462   */\n      calldataload\n        /* \"#utility.yul\":7480:7559   */\n      tag_459\n        /* \"#utility.yul\":7555:7558   */\n      dup5\n        /* \"#utility.yul\":7547:7553   */\n      dup3\n        /* \"#utility.yul\":7540:7544   */\n      0x20\n        /* \"#utility.yul\":7532:7538   */\n      dup7\n        /* \"#utility.yul\":7528:7545   */\n      add\n        /* \"#utility.yul\":7480:7559   */\n      tag_320\n      jump\t// in\n    tag_459:\n        /* \"#utility.yul\":7471:7559   */\n      swap2\n      pop\n        /* \"#utility.yul\":7287:7565   */\n      pop\n        /* \"#utility.yul\":7225:7565   */\n      swap3\n      swap2\n      pop\n      pop\n      jump\t// out\n        /* \"#utility.yul\":7571:8080   */\n    tag_49:\n        /* \"#utility.yul\":7640:7646   */\n      0x00\n        /* \"#utility.yul\":7689:7691   */\n      0x20\n        /* \"#utility.yul\":7677:7686   */\n      dup3\n        /* \"#utility.yul\":7668:7675   */\n      dup5\n        /* \"#utility.yul\":7664:7687   */\n      sub\n        /* \"#utility.yul\":7660:7692   */\n      slt\n        /* \"#utility.yul\":7657:7776   */\n      iszero\n      tag_461\n      jumpi\n        /* \"#utility.yul\":7695:7774   */\n      tag_462\n      tag_292\n      jump\t// in\n    tag_462:\n        /* \"#utility.yul\":7657:7776   */\n    tag_461:\n        /* \"#utility.yul\":7843:7844   */\n      0x00\n        /* \"#utility.yul\":7832:7841   */\n      dup3\n        /* \"#utility.yul\":7828:7845   */\n      add\n        /* \"#utility.yul\":7815:7846   */\n      calldataload\n        /* \"#utility.yul\":7873:7891   */\n      0xffffffffffffffff\n        /* \"#utility.yul\":7865:7871   */\n      dup2\n        /* \"#utility.yul\":7862:7892   */\n      gt\n        /* \"#utility.yul\":7859:7976   */\n      iszero\n      tag_463\n      jumpi\n        /* \"#utility.yul\":7895:7974   */\n      tag_464\n      tag_293\n      jump\t// in\n    tag_464:\n        /* \"#utility.yul\":7859:7976   */\n    tag_463:\n        /* \"#utility.yul\":8000:8063   */\n      tag_465\n        /* \"#utility.yul\":8055:8062   */\n      dup5\n        /* \"#utility.yul\":8046:8052   */\n      dup3\n        /* \"#utility.yul\":8035:8044   */\n      dup6\n        /* \"#utility.yul\":8031:8053   */\n      add\n        /* \"#utility.yul\":8000:8063   */\n      tag_321\n      jump\t// in\n    tag_465:\n        /* \"#utility.yul\":7990:8063   */\n      swap2\n      pop\n        /* \"#utility.yul\":7786:8073   */\n      pop\n        /* \"#utility.yul\":7571:8080   */\n      swap3\n      swap2\n      pop\n      pop\n      jump\t// out\n        /* \"#utility.yul\":8086:8204   */\n    tag_322:\n        /* \"#utility.yul\":8173:8197   */\n      tag_467\n        /* \"#utility.yul\":8191:8196   */\n      dup2\n        /* \"#utility.yul\":8173:8197   */\n      tag_308\n      jump\t// in\n    tag_467:\n        /* \"#utility.yul\":8168:8171   */\n      dup3\n        /* \"#utility.yul\":8161:8198   */\n      mstore\n        /* \"#utility.yul\":8086:8204   */\n      pop\n      pop\n      jump\t// out\n        /* \"#utility.yul\":8210:8432   */\n    tag_58:\n        /* \"#utility.yul\":8303:8307   */\n      0x00\n        /* \"#utility.yul\":8341:8343   */\n      0x20\n        /* \"#utility.yul\":8330:8339   */\n      dup3\n        /* \"#utility.yul\":8326:8344   */\n      add\n        /* \"#utility.yul\":8318:8344   */\n      swap1\n      pop\n        /* \"#utility.yul\":8354:8425   */\n      tag_469\n        /* \"#utility.yul\":8422:8423   */\n      0x00\n        /* \"#utility.yul\":8411:8420   */\n      dup4\n        /* \"#utility.yul\":8407:8424   */\n      add\n        /* \"#utility.yul\":8398:8404   */\n      dup5\n        /* \"#utility.yul\":8354:8425   */\n      tag_322\n      jump\t// in\n    tag_469:\n        /* \"#utility.yul\":8210:8432   */\n      swap3\n      swap2\n      pop\n      pop\n      jump\t// out\n        /* \"#utility.yul\":8438:8618   */\n    tag_137:\n        /* \"#utility.yul\":8486:8563   */\n      0x4e487b7100000000000000000000000000000000000000000000000000000000\n        /* \"#utility.yul\":8483:8484   */\n      0x00\n        /* \"#utility.yul\":8476:8564   */\n      mstore\n        /* \"#utility.yul\":8583:8587   */\n      0x21\n        /* \"#utility.yul\":8580:8581   */\n      0x04\n        /* \"#utility.yul\":8573:8588   */\n      mstore\n        /* \"#utility.yul\":8607:8611   */\n      0x24\n        /* \"#utility.yul\":8604:8605   */\n      0x00\n        /* \"#utility.yul\":8597:8612   */\n      revert\n        /* \"#utility.yul\":8624:8746   */\n    tag_323:\n        /* \"#utility.yul\":8714:8715   */\n      0x06\n        /* \"#utility.yul\":8707:8712   */\n      dup2\n        /* \"#utility.yul\":8704:8716   */\n      lt\n        /* \"#utility.yul\":8694:8740   */\n      tag_472\n      jumpi\n        /* \"#utility.yul\":8720:8738   */\n      tag_473\n      tag_137\n      jump\t// in\n    tag_473:\n        /* \"#utility.yul\":8694:8740   */\n    tag_472:\n        /* \"#utility.yul\":8624:8746   */\n      pop\n      jump\t// out\n        /* \"#utility.yul\":8752:8897   */\n    tag_324:\n        /* \"#utility.yul\":8806:8813   */\n      0x00\n        /* \"#utility.yul\":8835:8840   */\n      dup2\n        /* \"#utility.yul\":8824:8840   */\n      swap1\n      pop\n        /* \"#utility.yul\":8841:8891   */\n      tag_475\n        /* \"#utility.yul\":8885:8890   */\n      dup3\n        /* \"#utility.yul\":8841:8891   */\n      tag_323\n      jump\t// in\n    tag_475:\n        /* \"#utility.yul\":8752:8897   */\n      swap2\n      swap1\n      pop\n      jump\t// out\n        /* \"#utility.yul\":8903:9048   */\n    tag_325:\n        /* \"#utility.yul\":8968:8977   */\n      0x00\n        /* \"#utility.yul\":9001:9042   */\n      tag_477\n        /* \"#utility.yul\":9036:9041   */\n      dup3\n        /* \"#utility.yul\":9001:9042   */\n      tag_324\n      jump\t// in\n    tag_477:\n        /* \"#utility.yul\":8988:9042   */\n      swap1\n      pop\n        /* \"#utility.yul\":8903:9048   */\n      swap2\n      swap1\n      pop\n      jump\t// out\n        /* \"#utility.yul\":9054:9215   */\n    tag_326:\n        /* \"#utility.yul\":9156:9208   */\n      tag_479\n        /* \"#utility.yul\":9202:9207   */\n      dup2\n        /* \"#utility.yul\":9156:9208   */\n      tag_325\n      jump\t// in\n    tag_479:\n        /* \"#utility.yul\":9151:9154   */\n      dup3\n        /* \"#utility.yul\":9144:9209   */\n      mstore\n        /* \"#utility.yul\":9054:9215   */\n      pop\n      pop\n      jump\t// out\n        /* \"#utility.yul\":9221:9473   */\n    tag_66:\n        /* \"#utility.yul\":9329:9333   */\n      0x00\n        /* \"#utility.yul\":9367:9369   */\n      0x20\n        /* \"#utility.yul\":9356:9365   */\n      dup3\n        /* \"#utility.yul\":9352:9370   */\n      add\n        /* \"#utility.yul\":9344:9370   */\n      swap1\n      pop\n        /* \"#utility.yul\":9380:9466   */\n      tag_481\n        /* \"#utility.yul\":9463:9464   */\n      0x00\n        /* \"#utility.yul\":9452:9461   */\n      dup4\n        /* \"#utility.yul\":9448:9465   */\n      add\n        /* \"#utility.yul\":9439:9445   */\n      dup5\n        /* \"#utility.yul\":9380:9466   */\n      tag_326\n      jump\t// in\n    tag_481:\n        /* \"#utility.yul\":9221:9473   */\n      swap3\n      swap2\n      pop\n      pop\n      jump\t// out\n        /* \"#utility.yul\":9479:9897   */\n    tag_71:\n        /* \"#utility.yul\":9616:9620   */\n      0x00\n        /* \"#utility.yul\":9654:9656   */\n      0x60\n        /* \"#utility.yul\":9643:9652   */\n      dup3\n        /* \"#utility.yul\":9639:9657   */\n      add\n        /* \"#utility.yul\":9631:9657   */\n      swap1\n      pop\n        /* \"#utility.yul\":9667:9732   */\n      tag_483\n        /* \"#utility.yul\":9729:9730   */\n      0x00\n        /* \"#utility.yul\":9718:9727   */\n      dup4\n        /* \"#utility.yul\":9714:9731   */\n      add\n        /* \"#utility.yul\":9705:9711   */\n      dup7\n        /* \"#utility.yul\":9667:9732   */\n      tag_312\n      jump\t// in\n    tag_483:\n        /* \"#utility.yul\":9742:9808   */\n      tag_484\n        /* \"#utility.yul\":9804:9806   */\n      0x20\n        /* \"#utility.yul\":9793:9802   */\n      dup4\n        /* \"#utility.yul\":9789:9807   */\n      add\n        /* \"#utility.yul\":9780:9786   */\n      dup6\n        /* \"#utility.yul\":9742:9808   */\n      tag_312\n      jump\t// in\n    tag_484:\n        /* \"#utility.yul\":9818:9890   */\n      tag_485\n        /* \"#utility.yul\":9886:9888   */\n      0x40\n        /* \"#utility.yul\":9875:9884   */\n      dup4\n        /* \"#utility.yul\":9871:9889   */\n      add\n        /* \"#utility.yul\":9862:9868   */\n      dup5\n        /* \"#utility.yul\":9818:9890   */\n      tag_302\n      jump\t// in\n    tag_485:\n        /* \"#utility.yul\":9479:9897   */\n      swap5\n      swap4\n      pop\n      pop\n      pop\n      pop\n      jump\t// out\n        /* \"#utility.yul\":9903:10125   */\n    tag_77:\n        /* \"#utility.yul\":9996:10000   */\n      0x00\n        /* \"#utility.yul\":10034:10036   */\n      0x20\n        /* \"#utility.yul\":10023:10032   */\n      dup3\n        /* \"#utility.yul\":10019:10037   */\n      add\n        /* \"#utility.yul\":10011:10037   */\n      swap1\n      pop\n        /* \"#utility.yul\":10047:10118   */\n      tag_487\n        /* \"#utility.yul\":10115:10116   */\n      0x00\n        /* \"#utility.yul\":10104:10113   */\n      dup4\n        /* \"#utility.yul\":10100:10117   */\n      add\n        /* \"#utility.yul\":10091:10097   */\n      dup5\n        /* \"#utility.yul\":10047:10118   */\n      tag_302\n      jump\t// in\n    tag_487:\n        /* \"#utility.yul\":9903:10125   */\n      swap3\n      swap2\n      pop\n      pop\n      jump\t// out\n        /* \"#utility.yul\":10131:10269   */\n    tag_327:\n        /* \"#utility.yul\":10222:10228   */\n      0x00\n        /* \"#utility.yul\":10256:10261   */\n      dup2\n        /* \"#utility.yul\":10250:10262   */\n      mload\n        /* \"#utility.yul\":10240:10262   */\n      swap1\n      pop\n        /* \"#utility.yul\":10131:10269   */\n      swap2\n      swap1\n      pop\n      jump\t// out\n        /* \"#utility.yul\":10275:10483   */\n    tag_328:\n        /* \"#utility.yul\":10398:10409   */\n      0x00\n        /* \"#utility.yul\":10432:10438   */\n      dup3\n        /* \"#utility.yul\":10427:10430   */\n      dup3\n        /* \"#utility.yul\":10420:10439   */\n      mstore\n        /* \"#utility.yul\":10472:10476   */\n      0x20\n        /* \"#utility.yul\":10467:10470   */\n      dup3\n        /* \"#utility.yul\":10463:10477   */\n      add\n        /* \"#utility.yul\":10448:10477   */\n      swap1\n      pop\n        /* \"#utility.yul\":10275:10483   */\n      swap3\n      swap2\n      pop\n      pop\n      jump\t// out\n        /* \"#utility.yul\":10489:10645   */\n    tag_329:\n        /* \"#utility.yul\":10580:10584   */\n      0x00\n        /* \"#utility.yul\":10603:10606   */\n      dup2\n        /* \"#utility.yul\":10595:10606   */\n      swap1\n      pop\n        /* \"#utility.yul\":10633:10637   */\n      0x20\n        /* \"#utility.yul\":10628:10631   */\n      dup3\n        /* \"#utility.yul\":10624:10638   */\n      add\n        /* \"#utility.yul\":10616:10638   */\n      swap1\n      pop\n        /* \"#utility.yul\":10489:10645   */\n      swap2\n      swap1\n      pop\n      jump\t// out\n        /* \"#utility.yul\":10707:11313   */\n    tag_330:\n        /* \"#utility.yul\":10814:10817   */\n      0x00\n        /* \"#utility.yul\":10850:10854   */\n      0x40\n        /* \"#utility.yul\":10845:10848   */\n      dup4\n        /* \"#utility.yul\":10841:10855   */\n      add\n        /* \"#utility.yul\":10944:10948   */\n      0x00\n        /* \"#utility.yul\":10937:10942   */\n      dup4\n        /* \"#utility.yul\":10933:10949   */\n      add\n        /* \"#utility.yul\":10927:10950   */\n      mload\n        /* \"#utility.yul\":10997:11000   */\n      dup5\n        /* \"#utility.yul\":10991:10995   */\n      dup3\n        /* \"#utility.yul\":10987:11001   */\n      sub\n        /* \"#utility.yul\":10980:10984   */\n      0x00\n        /* \"#utility.yul\":10975:10978   */\n      dup7\n        /* \"#utility.yul\":10971:10985   */\n      add\n        /* \"#utility.yul\":10964:11002   */\n      mstore\n        /* \"#utility.yul\":11023:11096   */\n      tag_492\n        /* \"#utility.yul\":11091:11095   */\n      dup3\n        /* \"#utility.yul\":11077:11089   */\n      dup3\n        /* \"#utility.yul\":11023:11096   */\n      tag_304\n      jump\t// in\n    tag_492:\n        /* \"#utility.yul\":11015:11096   */\n      swap2\n      pop\n        /* \"#utility.yul\":10865:11107   */\n      pop\n        /* \"#utility.yul\":11194:11198   */\n      0x20\n        /* \"#utility.yul\":11187:11192   */\n      dup4\n        /* \"#utility.yul\":11183:11199   */\n      add\n        /* \"#utility.yul\":11177:11200   */\n      mload\n        /* \"#utility.yul\":11213:11276   */\n      tag_493\n        /* \"#utility.yul\":11270:11274   */\n      0x20\n        /* \"#utility.yul\":11265:11268   */\n      dup7\n        /* \"#utility.yul\":11261:11275   */\n      add\n        /* \"#utility.yul\":11247:11259   */\n      dup3\n        /* \"#utility.yul\":11213:11276   */\n      tag_305\n      jump\t// in\n    tag_493:\n        /* \"#utility.yul\":11117:11286   */\n      pop\n        /* \"#utility.yul\":11303:11307   */\n      dup1\n        /* \"#utility.yul\":11296:11307   */\n      swap2\n      pop\n        /* \"#utility.yul\":10819:11313   */\n      pop\n        /* \"#utility.yul\":10707:11313   */\n      swap3\n      swap2\n      pop\n      pop\n      jump\t// out\n        /* \"#utility.yul\":11319:11571   */\n    tag_331:\n        /* \"#utility.yul\":11436:11446   */\n      0x00\n        /* \"#utility.yul\":11471:11565   */\n      tag_495\n        /* \"#utility.yul\":11561:11564   */\n      dup4\n        /* \"#utility.yul\":11553:11559   */\n      dup4\n        /* \"#utility.yul\":11471:11565   */\n      tag_330\n      jump\t// in\n    tag_495:\n        /* \"#utility.yul\":11457:11565   */\n      swap1\n      pop\n        /* \"#utility.yul\":11319:11571   */\n      swap3\n      swap2\n      pop\n      pop\n      jump\t// out\n        /* \"#utility.yul\":11577:11714   */\n    tag_332:\n        /* \"#utility.yul\":11671:11675   */\n      0x00\n        /* \"#utility.yul\":11703:11707   */\n      0x20\n        /* \"#utility.yul\":11698:11701   */\n      dup3\n        /* \"#utility.yul\":11694:11708   */\n      add\n        /* \"#utility.yul\":11686:11708   */\n      swap1\n      pop\n        /* \"#utility.yul\":11577:11714   */\n      swap2\n      swap1\n      pop\n      jump\t// out\n        /* \"#utility.yul\":11780:12883   */\n    tag_333:\n        /* \"#utility.yul\":11947:11950   */\n      0x00\n        /* \"#utility.yul\":11976:12054   */\n      tag_498\n        /* \"#utility.yul\":12048:12053   */\n      dup3\n        /* \"#utility.yul\":11976:12054   */\n      tag_327\n      jump\t// in\n    tag_498:\n        /* \"#utility.yul\":12070:12180   */\n      tag_499\n        /* \"#utility.yul\":12173:12179   */\n      dup2\n        /* \"#utility.yul\":12168:12171   */\n      dup6\n        /* \"#utility.yul\":12070:12180   */\n      tag_328\n      jump\t// in\n    tag_499:\n        /* \"#utility.yul\":12063:12180   */\n      swap4\n      pop\n        /* \"#utility.yul\":12206:12209   */\n      dup4\n        /* \"#utility.yul\":12251:12255   */\n      0x20\n        /* \"#utility.yul\":12243:12249   */\n      dup3\n        /* \"#utility.yul\":12239:12256   */\n      mul\n        /* \"#utility.yul\":12234:12237   */\n      dup6\n        /* \"#utility.yul\":12230:12257   */\n      add\n        /* \"#utility.yul\":12281:12361   */\n      tag_500\n        /* \"#utility.yul\":12355:12360   */\n      dup6\n        /* \"#utility.yul\":12281:12361   */\n      tag_329\n      jump\t// in\n    tag_500:\n        /* \"#utility.yul\":12384:12391   */\n      dup1\n        /* \"#utility.yul\":12415:12416   */\n      0x00\n        /* \"#utility.yul\":12400:12838   */\n    tag_501:\n        /* \"#utility.yul\":12425:12431   */\n      dup6\n        /* \"#utility.yul\":12422:12423   */\n      dup2\n        /* \"#utility.yul\":12419:12432   */\n      lt\n        /* \"#utility.yul\":12400:12838   */\n      iszero\n      tag_503\n      jumpi\n        /* \"#utility.yul\":12496:12505   */\n      dup5\n        /* \"#utility.yul\":12490:12494   */\n      dup5\n        /* \"#utility.yul\":12486:12506   */\n      sub\n        /* \"#utility.yul\":12481:12484   */\n      dup10\n        /* \"#utility.yul\":12474:12507   */\n      mstore\n        /* \"#utility.yul\":12547:12553   */\n      dup2\n        /* \"#utility.yul\":12541:12554   */\n      mload\n        /* \"#utility.yul\":12575:12687   */\n      tag_504\n        /* \"#utility.yul\":12682:12686   */\n      dup6\n        /* \"#utility.yul\":12667:12680   */\n      dup3\n        /* \"#utility.yul\":12575:12687   */\n      tag_331\n      jump\t// in\n    tag_504:\n        /* \"#utility.yul\":12567:12687   */\n      swap5\n      pop\n        /* \"#utility.yul\":12710:12794   */\n      tag_505\n        /* \"#utility.yul\":12787:12793   */\n      dup4\n        /* \"#utility.yul\":12710:12794   */\n      tag_332\n      jump\t// in\n    tag_505:\n        /* \"#utility.yul\":12700:12794   */\n      swap3\n      pop\n        /* \"#utility.yul\":12823:12827   */\n      0x20\n        /* \"#utility.yul\":12818:12821   */\n      dup11\n        /* \"#utility.yul\":12814:12828   */\n      add\n        /* \"#utility.yul\":12807:12828   */\n      swap10\n      pop\n        /* \"#utility.yul\":12460:12838   */\n      pop\n        /* \"#utility.yul\":12447:12448   */\n      0x01\n        /* \"#utility.yul\":12444:12445   */\n      dup2\n        /* \"#utility.yul\":12440:12449   */\n      add\n        /* \"#utility.yul\":12435:12449   */\n      swap1\n      pop\n        /* \"#utility.yul\":12400:12838   */\n      jump(tag_501)\n    tag_503:\n        /* \"#utility.yul\":12404:12418   */\n      pop\n        /* \"#utility.yul\":12854:12858   */\n      dup3\n        /* \"#utility.yul\":12847:12858   */\n      swap8\n      pop\n        /* \"#utility.yul\":12874:12877   */\n      dup8\n        /* \"#utility.yul\":12867:12877   */\n      swap6\n      pop\n        /* \"#utility.yul\":11952:12883   */\n      pop\n      pop\n      pop\n      pop\n      pop\n        /* \"#utility.yul\":11780:12883   */\n      swap3\n      swap2\n      pop\n      pop\n      jump\t// out\n        /* \"#utility.yul\":12889:13358   */\n    tag_86:\n        /* \"#utility.yul\":13080:13084   */\n      0x00\n        /* \"#utility.yul\":13118:13120   */\n      0x20\n        /* \"#utility.yul\":13107:13116   */\n      dup3\n        /* \"#utility.yul\":13103:13121   */\n      add\n        /* \"#utility.yul\":13095:13121   */\n      swap1\n      pop\n        /* \"#utility.yul\":13167:13176   */\n      dup2\n        /* \"#utility.yul\":13161:13165   */\n      dup2\n        /* \"#utility.yul\":13157:13177   */\n      sub\n        /* \"#utility.yul\":13153:13154   */\n      0x00\n        /* \"#utility.yul\":13142:13151   */\n      dup4\n        /* \"#utility.yul\":13138:13155   */\n      add\n        /* \"#utility.yul\":13131:13178   */\n      mstore\n        /* \"#utility.yul\":13195:13351   */\n      tag_507\n        /* \"#utility.yul\":13346:13350   */\n      dup2\n        /* \"#utility.yul\":13337:13343   */\n      dup5\n        /* \"#utility.yul\":13195:13351   */\n      tag_333\n      jump\t// in\n    tag_507:\n        /* \"#utility.yul\":13187:13351   */\n      swap1\n      pop\n        /* \"#utility.yul\":12889:13358   */\n      swap3\n      swap2\n      pop\n      pop\n      jump\t// out\n        /* \"#utility.yul\":13364:13544   */\n    tag_334:\n        /* \"#utility.yul\":13412:13489   */\n      0x4e487b7100000000000000000000000000000000000000000000000000000000\n        /* \"#utility.yul\":13409:13410   */\n      0x00\n        /* \"#utility.yul\":13402:13490   */\n      mstore\n        /* \"#utility.yul\":13509:13513   */\n      0x22\n        /* \"#utility.yul\":13506:13507   */\n      0x04\n        /* \"#utility.yul\":13499:13514   */\n      mstore\n        /* \"#utility.yul\":13533:13537   */\n      0x24\n        /* \"#utility.yul\":13530:13531   */\n      0x00\n        /* \"#utility.yul\":13523:13538   */\n      revert\n        /* \"#utility.yul\":13550:13870   */\n    tag_103:\n        /* \"#utility.yul\":13594:13600   */\n      0x00\n        /* \"#utility.yul\":13631:13632   */\n      0x02\n        /* \"#utility.yul\":13625:13629   */\n      dup3\n        /* \"#utility.yul\":13621:13633   */\n      div\n        /* \"#utility.yul\":13611:13633   */\n      swap1\n      pop\n        /* \"#utility.yul\":13678:13679   */\n      0x01\n        /* \"#utility.yul\":13672:13676   */\n      dup3\n        /* \"#utility.yul\":13668:13680   */\n      and\n        /* \"#utility.yul\":13699:13717   */\n      dup1\n        /* \"#utility.yul\":13689:13770   */\n      tag_510\n      jumpi\n        /* \"#utility.yul\":13755:13759   */\n      0x7f\n        /* \"#utility.yul\":13747:13753   */\n      dup3\n        /* \"#utility.yul\":13743:13760   */\n      and\n        /* \"#utility.yul\":13733:13760   */\n      swap2\n      pop\n        /* \"#utility.yul\":13689:13770   */\n    tag_510:\n        /* \"#utility.yul\":13817:13819   */\n      0x20\n        /* \"#utility.yul\":13809:13815   */\n      dup3\n        /* \"#utility.yul\":13806:13820   */\n      lt\n        /* \"#utility.yul\":13786:13804   */\n      dup2\n        /* \"#utility.yul\":13783:13821   */\n      sub\n        /* \"#utility.yul\":13780:13864   */\n      tag_511\n      jumpi\n        /* \"#utility.yul\":13836:13854   */\n      tag_512\n      tag_334\n      jump\t// in\n    tag_512:\n        /* \"#utility.yul\":13780:13864   */\n    tag_511:\n        /* \"#utility.yul\":13601:13870   */\n      pop\n        /* \"#utility.yul\":13550:13870   */\n      swap2\n      swap1\n      pop\n      jump\t// out\n        /* \"#utility.yul\":13876:14049   */\n    tag_335:\n        /* \"#utility.yul\":14016:14041   */\n      0x50726f706f73616c20646f6573206e6f74206578697374000000000000000000\n        /* \"#utility.yul\":14012:14013   */\n      0x00\n        /* \"#utility.yul\":14004:14010   */\n      dup3\n        /* \"#utility.yul\":14000:14014   */\n      add\n        /* \"#utility.yul\":13993:14042   */\n      mstore\n        /* \"#utility.yul\":13876:14049   */\n      pop\n      jump\t// out\n        /* \"#utility.yul\":14055:14421   */\n    tag_336:\n        /* \"#utility.yul\":14197:14200   */\n      0x00\n        /* \"#utility.yul\":14218:14285   */\n      tag_515\n        /* \"#utility.yul\":14282:14284   */\n      0x17\n        /* \"#utility.yul\":14277:14280   */\n      dup4\n        /* \"#utility.yul\":14218:14285   */\n      tag_298\n      jump\t// in\n    tag_515:\n        /* \"#utility.yul\":14211:14285   */\n      swap2\n      pop\n        /* \"#utility.yul\":14294:14387   */\n      tag_516\n        /* \"#utility.yul\":14383:14386   */\n      dup3\n        /* \"#utility.yul\":14294:14387   */\n      tag_335\n      jump\t// in\n    tag_516:\n        /* \"#utility.yul\":14412:14414   */\n      0x20\n        /* \"#utility.yul\":14407:14410   */\n      dup3\n        /* \"#utility.yul\":14403:14415   */\n      add\n        /* \"#utility.yul\":14396:14415   */\n      swap1\n      pop\n        /* \"#utility.yul\":14055:14421   */\n      swap2\n      swap1\n      pop\n      jump\t// out\n        /* \"#utility.yul\":14427:14846   */\n    tag_113:\n        /* \"#utility.yul\":14593:14597   */\n      0x00\n        /* \"#utility.yul\":14631:14633   */\n      0x20\n        /* \"#utility.yul\":14620:14629   */\n      dup3\n        /* \"#utility.yul\":14616:14634   */\n      add\n        /* \"#utility.yul\":14608:14634   */\n      swap1\n      pop\n        /* \"#utility.yul\":14680:14689   */\n      dup2\n        /* \"#utility.yul\":14674:14678   */\n      dup2\n        /* \"#utility.yul\":14670:14690   */\n      sub\n        /* \"#utility.yul\":14666:14667   */\n      0x00\n        /* \"#utility.yul\":14655:14664   */\n      dup4\n        /* \"#utility.yul\":14651:14668   */\n      add\n        /* \"#utility.yul\":14644:14691   */\n      mstore\n        /* \"#utility.yul\":14708:14839   */\n      tag_518\n        /* \"#utility.yul\":14834:14838   */\n      dup2\n        /* \"#utility.yul\":14708:14839   */\n      tag_336\n      jump\t// in\n    tag_518:\n        /* \"#utility.yul\":14700:14839   */\n      swap1\n      pop\n        /* \"#utility.yul\":14427:14846   */\n      swap2\n      swap1\n      pop\n      jump\t// out\n        /* \"#utility.yul\":14852:15032   */\n    tag_116:\n        /* \"#utility.yul\":14900:14977   */\n      0x4e487b7100000000000000000000000000000000000000000000000000000000\n        /* \"#utility.yul\":14897:14898   */\n      0x00\n        /* \"#utility.yul\":14890:14978   */\n      mstore\n        /* \"#utility.yul\":14997:15001   */\n      0x32\n        /* \"#utility.yul\":14994:14995   */\n      0x04\n        /* \"#utility.yul\":14987:15002   */\n      mstore\n        /* \"#utility.yul\":15021:15025   */\n      0x24\n        /* \"#utility.yul\":15018:15019   */\n      0x00\n        /* \"#utility.yul\":15011:15026   */\n      revert\n        /* \"#utility.yul\":15038:15266   */\n    tag_337:\n        /* \"#utility.yul\":15178:15212   */\n      0x526567697374726174696f6e2070726f706f736974696f6e7320646964206e6f\n        /* \"#utility.yul\":15174:15175   */\n      0x00\n        /* \"#utility.yul\":15166:15172   */\n      dup3\n        /* \"#utility.yul\":15162:15176   */\n      add\n        /* \"#utility.yul\":15155:15213   */\n      mstore\n        /* \"#utility.yul\":15247:15258   */\n      0x7420737461727465640000000000000000000000000000000000000000000000\n        /* \"#utility.yul\":15242:15244   */\n      0x20\n        /* \"#utility.yul\":15234:15240   */\n      dup3\n        /* \"#utility.yul\":15230:15245   */\n      add\n        /* \"#utility.yul\":15223:15259   */\n      mstore\n        /* \"#utility.yul\":15038:15266   */\n      pop\n      jump\t// out\n        /* \"#utility.yul\":15272:15638   */\n    tag_338:\n        /* \"#utility.yul\":15414:15417   */\n      0x00\n        /* \"#utility.yul\":15435:15502   */\n      tag_522\n        /* \"#utility.yul\":15499:15501   */\n      0x29\n        /* \"#utility.yul\":15494:15497   */\n      dup4\n        /* \"#utility.yul\":15435:15502   */\n      tag_298\n      jump\t// in\n    tag_522:\n        /* \"#utility.yul\":15428:15502   */\n      swap2\n      pop\n        /* \"#utility.yul\":15511:15604   */\n      tag_523\n        /* \"#utility.yul\":15600:15603   */\n      dup3\n        /* \"#utility.yul\":15511:15604   */\n      tag_337\n      jump\t// in\n    tag_523:\n        /* \"#utility.yul\":15629:15631   */\n      0x40\n        /* \"#utility.yul\":15624:15627   */\n      dup3\n        /* \"#utility.yul\":15620:15632   */\n      add\n        /* \"#utility.yul\":15613:15632   */\n      swap1\n      pop\n        /* \"#utility.yul\":15272:15638   */\n      swap2\n      swap1\n      pop\n      jump\t// out\n        /* \"#utility.yul\":15644:16063   */\n    tag_142:\n        /* \"#utility.yul\":15810:15814   */\n      0x00\n        /* \"#utility.yul\":15848:15850   */\n      0x20\n        /* \"#utility.yul\":15837:15846   */\n      dup3\n        /* \"#utility.yul\":15833:15851   */\n      add\n        /* \"#utility.yul\":15825:15851   */\n      swap1\n      pop\n        /* \"#utility.yul\":15897:15906   */\n      dup2\n        /* \"#utility.yul\":15891:15895   */\n      dup2\n        /* \"#utility.yul\":15887:15907   */\n      sub\n        /* \"#utility.yul\":15883:15884   */\n      0x00\n        /* \"#utility.yul\":15872:15881   */\n      dup4\n        /* \"#utility.yul\":15868:15885   */\n      add\n        /* \"#utility.yul\":15861:15908   */\n      mstore\n        /* \"#utility.yul\":15925:16056   */\n      tag_525\n        /* \"#utility.yul\":16051:16055   */\n      dup2\n        /* \"#utility.yul\":15925:16056   */\n      tag_338\n      jump\t// in\n    tag_525:\n        /* \"#utility.yul\":15917:16056   */\n      swap1\n      pop\n        /* \"#utility.yul\":15644:16063   */\n      swap2\n      swap1\n      pop\n      jump\t// out\n        /* \"#utility.yul\":16069:16242   */\n    tag_339:\n        /* \"#utility.yul\":16209:16234   */\n      0x596f7520617265206e6f742077686974656c6973746564000000000000000000\n        /* \"#utility.yul\":16205:16206   */\n      0x00\n        /* \"#utility.yul\":16197:16203   */\n      dup3\n        /* \"#utility.yul\":16193:16207   */\n      add\n        /* \"#utility.yul\":16186:16235   */\n      mstore\n        /* \"#utility.yul\":16069:16242   */\n      pop\n      jump\t// out\n        /* \"#utility.yul\":16248:16614   */\n    tag_340:\n        /* \"#utility.yul\":16390:16393   */\n      0x00\n        /* \"#utility.yul\":16411:16478   */\n      tag_528\n        /* \"#utility.yul\":16475:16477   */\n      0x17\n        /* \"#utility.yul\":16470:16473   */\n      dup4\n        /* \"#utility.yul\":16411:16478   */\n      tag_298\n      jump\t// in\n    tag_528:\n        /* \"#utility.yul\":16404:16478   */\n      swap2\n      pop\n        /* \"#utility.yul\":16487:16580   */\n      tag_529\n        /* \"#utility.yul\":16576:16579   */\n      dup3\n        /* \"#utility.yul\":16487:16580   */\n      tag_339\n      jump\t// in\n    tag_529:\n        /* \"#utility.yul\":16605:16607   */\n      0x20\n        /* \"#utility.yul\":16600:16603   */\n      dup3\n        /* \"#utility.yul\":16596:16608   */\n      add\n        /* \"#utility.yul\":16589:16608   */\n      swap1\n      pop\n        /* \"#utility.yul\":16248:16614   */\n      swap2\n      swap1\n      pop\n      jump\t// out\n        /* \"#utility.yul\":16620:17039   */\n    tag_145:\n        /* \"#utility.yul\":16786:16790   */\n      0x00\n        /* \"#utility.yul\":16824:16826   */\n      0x20\n        /* \"#utility.yul\":16813:16822   */\n      dup3\n        /* \"#utility.yul\":16809:16827   */\n      add\n        /* \"#utility.yul\":16801:16827   */\n      swap1\n      pop\n        /* \"#utility.yul\":16873:16882   */\n      dup2\n        /* \"#utility.yul\":16867:16871   */\n      dup2\n        /* \"#utility.yul\":16863:16883   */\n      sub\n        /* \"#utility.yul\":16859:16860   */\n      0x00\n        /* \"#utility.yul\":16848:16857   */\n      dup4\n        /* \"#utility.yul\":16844:16861   */\n      add\n        /* \"#utility.yul\":16837:16884   */\n      mstore\n        /* \"#utility.yul\":16901:17032   */\n      tag_531\n        /* \"#utility.yul\":17027:17031   */\n      dup2\n        /* \"#utility.yul\":16901:17032   */\n      tag_340\n      jump\t// in\n    tag_531:\n        /* \"#utility.yul\":16893:17032   */\n      swap1\n      pop\n        /* \"#utility.yul\":16620:17039   */\n      swap2\n      swap1\n      pop\n      jump\t// out\n        /* \"#utility.yul\":17045:17186   */\n    tag_341:\n        /* \"#utility.yul\":17094:17098   */\n      0x00\n        /* \"#utility.yul\":17117:17120   */\n      dup2\n        /* \"#utility.yul\":17109:17120   */\n      swap1\n      pop\n        /* \"#utility.yul\":17140:17143   */\n      dup2\n        /* \"#utility.yul\":17137:17138   */\n      0x00\n        /* \"#utility.yul\":17130:17144   */\n      mstore\n        /* \"#utility.yul\":17174:17178   */\n      0x20\n        /* \"#utility.yul\":17171:17172   */\n      0x00\n        /* \"#utility.yul\":17161:17179   */\n      keccak256\n        /* \"#utility.yul\":17153:17179   */\n      swap1\n      pop\n        /* \"#utility.yul\":17045:17186   */\n      swap2\n      swap1\n      pop\n      jump\t// out\n        /* \"#utility.yul\":17192:17285   */\n    tag_342:\n        /* \"#utility.yul\":17229:17235   */\n      0x00\n        /* \"#utility.yul\":17276:17278   */\n      0x20\n        /* \"#utility.yul\":17271:17273   */\n      0x1f\n        /* \"#utility.yul\":17264:17269   */\n      dup4\n        /* \"#utility.yul\":17260:17274   */\n      add\n        /* \"#utility.yul\":17256:17279   */\n      div\n        /* \"#utility.yul\":17246:17279   */\n      swap1\n      pop\n        /* \"#utility.yul\":17192:17285   */\n      swap2\n      swap1\n      pop\n      jump\t// out\n        /* \"#utility.yul\":17291:17398   */\n    tag_343:\n        /* \"#utility.yul\":17335:17343   */\n      0x00\n        /* \"#utility.yul\":17385:17390   */\n      dup3\n        /* \"#utility.yul\":17379:17383   */\n      dup3\n        /* \"#utility.yul\":17375:17391   */\n      shl\n        /* \"#utility.yul\":17354:17391   */\n      swap1\n      pop\n        /* \"#utility.yul\":17291:17398   */\n      swap3\n      swap2\n      pop\n      pop\n      jump\t// out\n        /* \"#utility.yul\":17404:17797   */\n    tag_344:\n        /* \"#utility.yul\":17473:17479   */\n      0x00\n        /* \"#utility.yul\":17523:17524   */\n      0x08\n        /* \"#utility.yul\":17511:17521   */\n      dup4\n        /* \"#utility.yul\":17507:17525   */\n      mul\n        /* \"#utility.yul\":17546:17643   */\n      tag_536\n        /* \"#utility.yul\":17576:17642   */\n      0xffffffffffffffffffffffffffffffffffffffffffffffffffffffffffffffff\n        /* \"#utility.yul\":17565:17574   */\n      dup3\n        /* \"#utility.yul\":17546:17643   */\n      tag_343\n      jump\t// in\n    tag_536:\n        /* \"#utility.yul\":17664:17703   */\n      tag_537\n        /* \"#utility.yul\":17694:17702   */\n      dup7\n        /* \"#utility.yul\":17683:17692   */\n      dup4\n        /* \"#utility.yul\":17664:17703   */\n      tag_343\n      jump\t// in\n    tag_537:\n        /* \"#utility.yul\":17652:17703   */\n      swap6\n      pop\n        /* \"#utility.yul\":17736:17740   */\n      dup1\n        /* \"#utility.yul\":17732:17741   */\n      not\n        /* \"#utility.yul\":17725:17730   */\n      dup5\n        /* \"#utility.yul\":17721:17742   */\n      and\n        /* \"#utility.yul\":17712:17742   */\n      swap4\n      pop\n        /* \"#utility.yul\":17785:17789   */\n      dup1\n        /* \"#utility.yul\":17775:17783   */\n      dup7\n        /* \"#utility.yul\":17771:17790   */\n      and\n        /* \"#utility.yul\":17764:17769   */\n      dup5\n        /* \"#utility.yul\":17761:17791   */\n      or\n        /* \"#utility.yul\":17751:17791   */\n      swap3\n      pop\n        /* \"#utility.yul\":17480:17797   */\n      pop\n      pop\n        /* \"#utility.yul\":17404:17797   */\n      swap4\n      swap3\n      pop\n      pop\n      pop\n      jump\t// out\n        /* \"#utility.yul\":17803:17863   */\n    tag_345:\n        /* \"#utility.yul\":17831:17834   */\n      0x00\n        /* \"#utility.yul\":17852:17857   */\n      dup2\n        /* \"#utility.yul\":17845:17857   */\n      swap1\n      pop\n        /* \"#utility.yul\":17803:17863   */\n      swap2\n      swap1\n      pop\n      jump\t// out\n        /* \"#utility.yul\":17869:18011   */\n    tag_346:\n        /* \"#utility.yul\":17919:17928   */\n      0x00\n        /* \"#utility.yul\":17952:18005   */\n      tag_540\n        /* \"#utility.yul\":17970:18004   */\n      tag_541\n        /* \"#utility.yul\":17979:18003   */\n      tag_542\n        /* \"#utility.yul\":17997:18002   */\n      dup5\n        /* \"#utility.yul\":17979:18003   */\n      tag_294\n      jump\t// in\n    tag_542:\n        /* \"#utility.yul\":17970:18004   */\n      tag_345\n      jump\t// in\n    tag_541:\n        /* \"#utility.yul\":17952:18005   */\n      tag_294\n      jump\t// in\n    tag_540:\n        /* \"#utility.yul\":17939:18005   */\n      swap1\n      pop\n        /* \"#utility.yul\":17869:18011   */\n      swap2\n      swap1\n      pop\n      jump\t// out\n        /* \"#utility.yul\":18017:18092   */\n    tag_347:\n        /* \"#utility.yul\":18060:18063   */\n      0x00\n        /* \"#utility.yul\":18081:18086   */\n      dup2\n        /* \"#utility.yul\":18074:18086   */\n      swap1\n      pop\n        /* \"#utility.yul\":18017:18092   */\n      swap2\n      swap1\n      pop\n      jump\t// out\n        /* \"#utility.yul\":18098:18367   */\n    tag_348:\n        /* \"#utility.yul\":18208:18247   */\n      tag_545\n        /* \"#utility.yul\":18239:18246   */\n      dup4\n        /* \"#utility.yul\":18208:18247   */\n      tag_346\n      jump\t// in\n    tag_545:\n        /* \"#utility.yul\":18269:18360   */\n      tag_546\n        /* \"#utility.yul\":18318:18359   */\n      tag_547\n        /* \"#utility.yul\":18342:18358   */\n      dup3\n        /* \"#utility.yul\":18318:18359   */\n      tag_347\n      jump\t// in\n    tag_547:\n        /* \"#utility.yul\":18310:18316   */\n      dup5\n        /* \"#utility.yul\":18303:18307   */\n      dup5\n        /* \"#utility.yul\":18297:18308   */\n      sload\n        /* \"#utility.yul\":18269:18360   */\n      tag_344\n      jump\t// in\n    tag_546:\n        /* \"#utility.yul\":18263:18267   */\n      dup3\n        /* \"#utility.yul\":18256:18361   */\n      sstore\n        /* \"#utility.yul\":18174:18367   */\n      pop\n        /* \"#utility.yul\":18098:18367   */\n      pop\n      pop\n      pop\n      jump\t// out\n        /* \"#utility.yul\":18373:18446   */\n    tag_349:\n        /* \"#utility.yul\":18418:18421   */\n      0x00\n        /* \"#utility.yul\":18439:18440   */\n      0x00\n        /* \"#utility.yul\":18432:18440   */\n      swap1\n      pop\n        /* \"#utility.yul\":18373:18446   */\n      swap1\n      jump\t// out\n        /* \"#utility.yul\":18452:18641   */\n    tag_350:\n        /* \"#utility.yul\":18529:18561   */\n      tag_550\n      tag_349\n      jump\t// in\n    tag_550:\n        /* \"#utility.yul\":18570:18635   */\n      tag_551\n        /* \"#utility.yul\":18628:18634   */\n      dup2\n        /* \"#utility.yul\":18620:18626   */\n      dup5\n        /* \"#utility.yul\":18614:18618   */\n      dup5\n        /* \"#utility.yul\":18570:18635   */\n      tag_348\n      jump\t// in\n    tag_551:\n        /* \"#utility.yul\":18505:18641   */\n      pop\n        /* \"#utility.yul\":18452:18641   */\n      pop\n      pop\n      jump\t// out\n        /* \"#utility.yul\":18647:18833   */\n    tag_351:\n        /* \"#utility.yul\":18707:18827   */\n    tag_553:\n        /* \"#utility.yul\":18724:18727   */\n      dup2\n        /* \"#utility.yul\":18717:18722   */\n      dup2\n        /* \"#utility.yul\":18714:18728   */\n      lt\n        /* \"#utility.yul\":18707:18827   */\n      iszero\n      tag_555\n      jumpi\n        /* \"#utility.yul\":18778:18817   */\n      tag_556\n        /* \"#utility.yul\":18815:18816   */\n      0x00\n        /* \"#utility.yul\":18808:18813   */\n      dup3\n        /* \"#utility.yul\":18778:18817   */\n      tag_350\n      jump\t// in\n    tag_556:\n        /* \"#utility.yul\":18751:18752   */\n      0x01\n        /* \"#utility.yul\":18744:18749   */\n      dup2\n        /* \"#utility.yul\":18740:18753   */\n      add\n        /* \"#utility.yul\":18731:18753   */\n      swap1\n      pop\n        /* \"#utility.yul\":18707:18827   */\n      jump(tag_553)\n    tag_555:\n        /* \"#utility.yul\":18647:18833   */\n      pop\n      pop\n      jump\t// out\n        /* \"#utility.yul\":18839:19382   */\n    tag_352:\n        /* \"#utility.yul\":18940:18942   */\n      0x1f\n        /* \"#utility.yul\":18935:18938   */\n      dup3\n        /* \"#utility.yul\":18932:18943   */\n      gt\n        /* \"#utility.yul\":18929:19375   */\n      iszero\n      tag_558\n      jumpi\n        /* \"#utility.yul\":18974:19012   */\n      tag_559\n        /* \"#utility.yul\":19006:19011   */\n      dup2\n        /* \"#utility.yul\":18974:19012   */\n      tag_341\n      jump\t// in\n    tag_559:\n        /* \"#utility.yul\":19058:19087   */\n      tag_560\n        /* \"#utility.yul\":19076:19086   */\n      dup5\n        /* \"#utility.yul\":19058:19087   */\n      tag_342\n      jump\t// in\n    tag_560:\n        /* \"#utility.yul\":19048:19056   */\n      dup2\n        /* \"#utility.yul\":19044:19088   */\n      add\n        /* \"#utility.yul\":19241:19243   */\n      0x20\n        /* \"#utility.yul\":19229:19239   */\n      dup6\n        /* \"#utility.yul\":19226:19244   */\n      lt\n        /* \"#utility.yul\":19223:19272   */\n      iszero\n      tag_561\n      jumpi\n        /* \"#utility.yul\":19262:19270   */\n      dup2\n        /* \"#utility.yul\":19247:19270   */\n      swap1\n      pop\n        /* \"#utility.yul\":19223:19272   */\n    tag_561:\n        /* \"#utility.yul\":19285:19365   */\n      tag_562\n        /* \"#utility.yul\":19341:19363   */\n      tag_563\n        /* \"#utility.yul\":19359:19362   */\n      dup6\n        /* \"#utility.yul\":19341:19363   */\n      tag_342\n      jump\t// in\n    tag_563:\n        /* \"#utility.yul\":19331:19339   */\n      dup4\n        /* \"#utility.yul\":19327:19364   */\n      add\n        /* \"#utility.yul\":19314:19325   */\n      dup3\n        /* \"#utility.yul\":19285:19365   */\n      tag_351\n      jump\t// in\n    tag_562:\n        /* \"#utility.yul\":18944:19375   */\n      pop\n      pop\n        /* \"#utility.yul\":18929:19375   */\n    tag_558:\n        /* \"#utility.yul\":18839:19382   */\n      pop\n      pop\n      pop\n      jump\t// out\n        /* \"#utility.yul\":19388:19505   */\n    tag_353:\n        /* \"#utility.yul\":19442:19450   */\n      0x00\n        /* \"#utility.yul\":19492:19497   */\n      dup3\n        /* \"#utility.yul\":19486:19490   */\n      dup3\n        /* \"#utility.yul\":19482:19498   */\n      shr\n        /* \"#utility.yul\":19461:19498   */\n      swap1\n      pop\n        /* \"#utility.yul\":19388:19505   */\n      swap3\n      swap2\n      pop\n      pop\n      jump\t// out\n        /* \"#utility.yul\":19511:19680   */\n    tag_354:\n        /* \"#utility.yul\":19555:19561   */\n      0x00\n        /* \"#utility.yul\":19588:19639   */\n      tag_566\n        /* \"#utility.yul\":19636:19637   */\n      0x00\n        /* \"#utility.yul\":19632:19638   */\n      not\n        /* \"#utility.yul\":19624:19629   */\n      dup5\n        /* \"#utility.yul\":19621:19622   */\n      0x08\n        /* \"#utility.yul\":19617:19630   */\n      mul\n        /* \"#utility.yul\":19588:19639   */\n      tag_353\n      jump\t// in\n    tag_566:\n        /* \"#utility.yul\":19584:19640   */\n      not\n        /* \"#utility.yul\":19669:19673   */\n      dup1\n        /* \"#utility.yul\":19663:19667   */\n      dup4\n        /* \"#utility.yul\":19659:19674   */\n      and\n        /* \"#utility.yul\":19649:19674   */\n      swap2\n      pop\n        /* \"#utility.yul\":19562:19680   */\n      pop\n        /* \"#utility.yul\":19511:19680   */\n      swap3\n      swap2\n      pop\n      pop\n      jump\t// out\n        /* \"#utility.yul\":19685:19980   */\n    tag_355:\n        /* \"#utility.yul\":19761:19765   */\n      0x00\n        /* \"#utility.yul\":19907:19936   */\n      tag_568\n        /* \"#utility.yul\":19932:19935   */\n      dup4\n        /* \"#utility.yul\":19926:19930   */\n      dup4\n        /* \"#utility.yul\":19907:19936   */\n      tag_354\n      jump\t// in\n    tag_568:\n        /* \"#utility.yul\":19899:19936   */\n      swap2\n      pop\n        /* \"#utility.yul\":19969:19972   */\n      dup3\n        /* \"#utility.yul\":19966:19967   */\n      0x02\n        /* \"#utility.yul\":19962:19973   */\n      mul\n        /* \"#utility.yul\":19956:19960   */\n      dup3\n        /* \"#utility.yul\":19953:19974   */\n      or\n        /* \"#utility.yul\":19945:19974   */\n      swap1\n      pop\n        /* \"#utility.yul\":19685:19980   */\n      swap3\n      swap2\n      pop\n      pop\n      jump\t// out\n        /* \"#utility.yul\":19985:21380   */\n    tag_148:\n        /* \"#utility.yul\":20102:20139   */\n      tag_570\n        /* \"#utility.yul\":20135:20138   */\n      dup3\n        /* \"#utility.yul\":20102:20139   */\n      tag_297\n      jump\t// in\n    tag_570:\n        /* \"#utility.yul\":20204:20222   */\n      0xffffffffffffffff\n        /* \"#utility.yul\":20196:20202   */\n      dup2\n        /* \"#utility.yul\":20193:20223   */\n      gt\n        /* \"#utility.yul\":20190:20246   */\n      iszero\n      tag_571\n      jumpi\n        /* \"#utility.yul\":20226:20244   */\n      tag_572\n      tag_315\n      jump\t// in\n    tag_572:\n        /* \"#utility.yul\":20190:20246   */\n    tag_571:\n        /* \"#utility.yul\":20270:20308   */\n      tag_573\n        /* \"#utility.yul\":20302:20306   */\n      dup3\n        /* \"#utility.yul\":20296:20307   */\n      sload\n        /* \"#utility.yul\":20270:20308   */\n      tag_103\n      jump\t// in\n    tag_573:\n        /* \"#utility.yul\":20355:20422   */\n      tag_574\n        /* \"#utility.yul\":20415:20421   */\n      dup3\n        /* \"#utility.yul\":20407:20413   */\n      dup3\n        /* \"#utility.yul\":20401:20405   */\n      dup6\n        /* \"#utility.yul\":20355:20422   */\n      tag_352\n      jump\t// in\n    tag_574:\n        /* \"#utility.yul\":20449:20450   */\n      0x00\n        /* \"#utility.yul\":20473:20477   */\n      0x20\n        /* \"#utility.yul\":20460:20477   */\n      swap1\n      pop\n        /* \"#utility.yul\":20505:20507   */\n      0x1f\n        /* \"#utility.yul\":20497:20503   */\n      dup4\n        /* \"#utility.yul\":20494:20508   */\n      gt\n        /* \"#utility.yul\":20522:20523   */\n      0x01\n        /* \"#utility.yul\":20517:21135   */\n      dup2\n      eq\n      tag_576\n      jumpi\n        /* \"#utility.yul\":21179:21180   */\n      0x00\n        /* \"#utility.yul\":21196:21202   */\n      dup5\n        /* \"#utility.yul\":21193:21270   */\n      iszero\n      tag_577\n      jumpi\n        /* \"#utility.yul\":21245:21254   */\n      dup3\n        /* \"#utility.yul\":21240:21243   */\n      dup8\n        /* \"#utility.yul\":21236:21255   */\n      add\n        /* \"#utility.yul\":21230:21256   */\n      mload\n        /* \"#utility.yul\":21221:21256   */\n      swap1\n      pop\n        /* \"#utility.yul\":21193:21270   */\n    tag_577:\n        /* \"#utility.yul\":21296:21363   */\n      tag_578\n        /* \"#utility.yul\":21356:21362   */\n      dup6\n        /* \"#utility.yul\":21349:21354   */\n      dup3\n        /* \"#utility.yul\":21296:21363   */\n      tag_355\n      jump\t// in\n    tag_578:\n        /* \"#utility.yul\":21290:21294   */\n      dup7\n        /* \"#utility.yul\":21283:21364   */\n      sstore\n        /* \"#utility.yul\":21152:21374   */\n      pop\n        /* \"#utility.yul\":20487:21374   */\n      jump(tag_575)\n        /* \"#utility.yul\":20517:21135   */\n    tag_576:\n        /* \"#utility.yul\":20569:20573   */\n      0x1f\n        /* \"#utility.yul\":20565:20574   */\n      not\n        /* \"#utility.yul\":20557:20563   */\n      dup5\n        /* \"#utility.yul\":20553:20575   */\n      and\n        /* \"#utility.yul\":20603:20640   */\n      tag_579\n        /* \"#utility.yul\":20635:20639   */\n      dup7\n        /* \"#utility.yul\":20603:20640   */\n      tag_341\n      jump\t// in\n    tag_579:\n        /* \"#utility.yul\":20662:20663   */\n      0x00\n        /* \"#utility.yul\":20676:20884   */\n    tag_580:\n        /* \"#utility.yul\":20690:20697   */\n      dup3\n        /* \"#utility.yul\":20687:20688   */\n      dup2\n        /* \"#utility.yul\":20684:20698   */\n      lt\n        /* \"#utility.yul\":20676:20884   */\n      iszero\n      tag_582\n      jumpi\n        /* \"#utility.yul\":20769:20778   */\n      dup5\n        /* \"#utility.yul\":20764:20767   */\n      dup10\n        /* \"#utility.yul\":20760:20779   */\n      add\n        /* \"#utility.yul\":20754:20780   */\n      mload\n        /* \"#utility.yul\":20746:20752   */\n      dup3\n        /* \"#utility.yul\":20739:20781   */\n      sstore\n        /* \"#utility.yul\":20820:20821   */\n      0x01\n        /* \"#utility.yul\":20812:20818   */\n      dup3\n        /* \"#utility.yul\":20808:20822   */\n      add\n        /* \"#utility.yul\":20798:20822   */\n      swap2\n      pop\n        /* \"#utility.yul\":20867:20869   */\n      0x20\n        /* \"#utility.yul\":20856:20865   */\n      dup6\n        /* \"#utility.yul\":20852:20870   */\n      add\n        /* \"#utility.yul\":20839:20870   */\n      swap5\n      pop\n        /* \"#utility.yul\":20713:20717   */\n      0x20\n        /* \"#utility.yul\":20710:20711   */\n      dup2\n        /* \"#utility.yul\":20706:20718   */\n      add\n        /* \"#utility.yul\":20701:20718   */\n      swap1\n      pop\n        /* \"#utility.yul\":20676:20884   */\n      jump(tag_580)\n    tag_582:\n        /* \"#utility.yul\":20912:20918   */\n      dup7\n        /* \"#utility.yul\":20903:20910   */\n      dup4\n        /* \"#utility.yul\":20900:20919   */\n      lt\n        /* \"#utility.yul\":20897:21076   */\n      iszero\n      tag_583\n      jumpi\n        /* \"#utility.yul\":20970:20979   */\n      dup5\n        /* \"#utility.yul\":20965:20968   */\n      dup10\n        /* \"#utility.yul\":20961:20980   */\n      add\n        /* \"#utility.yul\":20955:20981   */\n      mload\n        /* \"#utility.yul\":21013:21061   */\n      tag_584\n        /* \"#utility.yul\":21055:21059   */\n      0x1f\n        /* \"#utility.yul\":21047:21053   */\n      dup10\n        /* \"#utility.yul\":21043:21060   */\n      and\n        /* \"#utility.yul\":21032:21041   */\n      dup3\n        /* \"#utility.yul\":21013:21061   */\n      tag_354\n      jump\t// in\n    tag_584:\n        /* \"#utility.yul\":21005:21011   */\n      dup4\n        /* \"#utility.yul\":20998:21062   */\n      sstore\n        /* \"#utility.yul\":20920:21076   */\n      pop\n        /* \"#utility.yul\":20897:21076   */\n    tag_583:\n        /* \"#utility.yul\":21122:21123   */\n      0x01\n        /* \"#utility.yul\":21118:21119   */\n      0x02\n        /* \"#utility.yul\":21110:21116   */\n      dup9\n        /* \"#utility.yul\":21106:21120   */\n      mul\n        /* \"#utility.yul\":21102:21124   */\n      add\n        /* \"#utility.yul\":21096:21100   */\n      dup9\n        /* \"#utility.yul\":21089:21125   */\n      sstore\n        /* \"#utility.yul\":20524:21135   */\n      pop\n      pop\n      pop\n        /* \"#utility.yul\":20487:21374   */\n    tag_575:\n      pop\n        /* \"#utility.yul\":20077:21380   */\n      pop\n      pop\n      pop\n        /* \"#utility.yul\":19985:21380   */\n      pop\n      pop\n      jump\t// out\n        /* \"#utility.yul\":21386:21566   */\n    tag_356:\n        /* \"#utility.yul\":21434:21511   */\n      0x4e487b7100000000000000000000000000000000000000000000000000000000\n        /* \"#utility.yul\":21431:21432   */\n      0x00\n        /* \"#utility.yul\":21424:21512   */\n      mstore\n        /* \"#utility.yul\":21531:21535   */\n      0x11\n        /* \"#utility.yul\":21528:21529   */\n      0x04\n        /* \"#utility.yul\":21521:21536   */\n      mstore\n        /* \"#utility.yul\":21555:21559   */\n      0x24\n        /* \"#utility.yul\":21552:21553   */\n      0x00\n        /* \"#utility.yul\":21545:21560   */\n      revert\n        /* \"#utility.yul\":21572:21766   */\n    tag_150:\n        /* \"#utility.yul\":21612:21616   */\n      0x00\n        /* \"#utility.yul\":21632:21652   */\n      tag_587\n        /* \"#utility.yul\":21650:21651   */\n      dup3\n        /* \"#utility.yul\":21632:21652   */\n      tag_294\n      jump\t// in\n    tag_587:\n        /* \"#utility.yul\":21627:21652   */\n      swap2\n      pop\n        /* \"#utility.yul\":21666:21686   */\n      tag_588\n        /* \"#utility.yul\":21684:21685   */\n      dup4\n        /* \"#utility.yul\":21666:21686   */\n      tag_294\n      jump\t// in\n    tag_588:\n        /* \"#utility.yul\":21661:21686   */\n      swap3\n      pop\n        /* \"#utility.yul\":21710:21711   */\n      dup3\n        /* \"#utility.yul\":21707:21708   */\n      dup3\n        /* \"#utility.yul\":21703:21712   */\n      sub\n        /* \"#utility.yul\":21695:21712   */\n      swap1\n      pop\n        /* \"#utility.yul\":21734:21735   */\n      dup2\n        /* \"#utility.yul\":21728:21732   */\n      dup2\n        /* \"#utility.yul\":21725:21736   */\n      gt\n        /* \"#utility.yul\":21722:21759   */\n      iszero\n      tag_589\n      jumpi\n        /* \"#utility.yul\":21739:21757   */\n      tag_590\n      tag_356\n      jump\t// in\n    tag_590:\n        /* \"#utility.yul\":21722:21759   */\n    tag_589:\n        /* \"#utility.yul\":21572:21766   */\n      swap3\n      swap2\n      pop\n      pop\n      jump\t// out\n        /* \"#utility.yul\":21772:21993   */\n    tag_357:\n        /* \"#utility.yul\":21912:21946   */\n      0x50726f706f73616c7320726567697374726174696f6e206e6f74207374617274\n        /* \"#utility.yul\":21908:21909   */\n      0x00\n        /* \"#utility.yul\":21900:21906   */\n      dup3\n        /* \"#utility.yul\":21896:21910   */\n      add\n        /* \"#utility.yul\":21889:21947   */\n      mstore\n        /* \"#utility.yul\":21981:21985   */\n      0x6564000000000000000000000000000000000000000000000000000000000000\n        /* \"#utility.yul\":21976:21978   */\n      0x20\n        /* \"#utility.yul\":21968:21974   */\n      dup3\n        /* \"#utility.yul\":21964:21979   */\n      add\n        /* \"#utility.yul\":21957:21986   */\n      mstore\n        /* \"#utility.yul\":21772:21993   */\n      pop\n      jump\t// out\n        /* \"#utility.yul\":21999:22365   */\n    tag_358:\n        /* \"#utility.yul\":22141:22144   */\n      0x00\n        /* \"#utility.yul\":22162:22229   */\n      tag_593\n        /* \"#utility.yul\":22226:22228   */\n      0x22\n        /* \"#utility.yul\":22221:22224   */\n      dup4\n        /* \"#utility.yul\":22162:22229   */\n      tag_298\n      jump\t// in\n    tag_593:\n        /* \"#utility.yul\":22155:22229   */\n      swap2\n      pop\n        /* \"#utility.yul\":22238:22331   */\n      tag_594\n        /* \"#utility.yul\":22327:22330   */\n      dup3\n        /* \"#utility.yul\":22238:22331   */\n      tag_357\n      jump\t// in\n    tag_594:\n        /* \"#utility.yul\":22356:22358   */\n      0x40\n        /* \"#utility.yul\":22351:22354   */\n      dup3\n        /* \"#utility.yul\":22347:22359   */\n      add\n        /* \"#utility.yul\":22340:22359   */\n      swap1\n      pop\n        /* \"#utility.yul\":21999:22365   */\n      swap2\n      swap1\n      pop\n      jump\t// out\n        /* \"#utility.yul\":22371:22790   */\n    tag_162:\n        /* \"#utility.yul\":22537:22541   */\n      0x00\n        /* \"#utility.yul\":22575:22577   */\n      0x20\n        /* \"#utility.yul\":22564:22573   */\n      dup3\n        /* \"#utility.yul\":22560:22578   */\n      add\n        /* \"#utility.yul\":22552:22578   */\n      swap1\n      pop\n        /* \"#utility.yul\":22624:22633   */\n      dup2\n        /* \"#utility.yul\":22618:22622   */\n      dup2\n        /* \"#utility.yul\":22614:22634   */\n      sub\n        /* \"#utility.yul\":22610:22611   */\n      0x00\n        /* \"#utility.yul\":22599:22608   */\n      dup4\n        /* \"#utility.yul\":22595:22612   */\n      add\n        /* \"#utility.yul\":22588:22635   */\n      mstore\n        /* \"#utility.yul\":22652:22783   */\n      tag_596\n        /* \"#utility.yul\":22778:22782   */\n      dup2\n        /* \"#utility.yul\":22652:22783   */\n      tag_358\n      jump\t// in\n    tag_596:\n        /* \"#utility.yul\":22644:22783   */\n      swap1\n      pop\n        /* \"#utility.yul\":22371:22790   */\n      swap2\n      swap1\n      pop\n      jump\t// out\n        /* \"#utility.yul\":22796:23188   */\n    tag_166:\n        /* \"#utility.yul\":22947:22951   */\n      0x00\n        /* \"#utility.yul\":22985:22987   */\n      0x40\n        /* \"#utility.yul\":22974:22983   */\n      dup3\n        /* \"#utility.yul\":22970:22988   */\n      add\n        /* \"#utility.yul\":22962:22988   */\n      swap1\n      pop\n        /* \"#utility.yul\":22998:23084   */\n      tag_598\n        /* \"#utility.yul\":23081:23082   */\n      0x00\n        /* \"#utility.yul\":23070:23079   */\n      dup4\n        /* \"#utility.yul\":23066:23083   */\n      add\n        /* \"#utility.yul\":23057:23063   */\n      dup6\n        /* \"#utility.yul\":22998:23084   */\n      tag_326\n      jump\t// in\n    tag_598:\n        /* \"#utility.yul\":23094:23181   */\n      tag_599\n        /* \"#utility.yul\":23177:23179   */\n      0x20\n        /* \"#utility.yul\":23166:23175   */\n      dup4\n        /* \"#utility.yul\":23162:23180   */\n      add\n        /* \"#utility.yul\":23153:23159   */\n      dup5\n        /* \"#utility.yul\":23094:23181   */\n      tag_326\n      jump\t// in\n    tag_599:\n        /* \"#utility.yul\":22796:23188   */\n      swap4\n      swap3\n      pop\n      pop\n      pop\n      jump\t// out\n        /* \"#utility.yul\":23194:23370   */\n    tag_359:\n        /* \"#utility.yul\":23334:23362   */\n      0x566f74696e672073657373696f6e206e6f742073746172746564000000000000\n        /* \"#utility.yul\":23330:23331   */\n      0x00\n        /* \"#utility.yul\":23322:23328   */\n      dup3\n        /* \"#utility.yul\":23318:23332   */\n      add\n        /* \"#utility.yul\":23311:23363   */\n      mstore\n        /* \"#utility.yul\":23194:23370   */\n      pop\n      jump\t// out\n        /* \"#utility.yul\":23376:23742   */\n    tag_360:\n        /* \"#utility.yul\":23518:23521   */\n      0x00\n        /* \"#utility.yul\":23539:23606   */\n      tag_602\n        /* \"#utility.yul\":23603:23605   */\n      0x1a\n        /* \"#utility.yul\":23598:23601   */\n      dup4\n        /* \"#utility.yul\":23539:23606   */\n      tag_298\n      jump\t// in\n    tag_602:\n        /* \"#utility.yul\":23532:23606   */\n      swap2\n      pop\n        /* \"#utility.yul\":23615:23708   */\n      tag_603\n        /* \"#utility.yul\":23704:23707   */\n      dup3\n        /* \"#utility.yul\":23615:23708   */\n      tag_359\n      jump\t// in\n    tag_603:\n        /* \"#utility.yul\":23733:23735   */\n      0x20\n        /* \"#utility.yul\":23728:23731   */\n      dup3\n        /* \"#utility.yul\":23724:23736   */\n      add\n        /* \"#utility.yul\":23717:23736   */\n      swap1\n      pop\n        /* \"#utility.yul\":23376:23742   */\n      swap2\n      swap1\n      pop\n      jump\t// out\n        /* \"#utility.yul\":23748:24167   */\n    tag_182:\n        /* \"#utility.yul\":23914:23918   */\n      0x00\n        /* \"#utility.yul\":23952:23954   */\n      0x20\n        /* \"#utility.yul\":23941:23950   */\n      dup3\n        /* \"#utility.yul\":23937:23955   */\n      add\n        /* \"#utility.yul\":23929:23955   */\n      swap1\n      pop\n        /* \"#utility.yul\":24001:24010   */\n      dup2\n        /* \"#utility.yul\":23995:23999   */\n      dup2\n        /* \"#utility.yul\":23991:24011   */\n      sub\n        /* \"#utility.yul\":23987:23988   */\n      0x00\n        /* \"#utility.yul\":23976:23985   */\n      dup4\n        /* \"#utility.yul\":23972:23989   */\n      add\n        /* \"#utility.yul\":23965:24012   */\n      mstore\n        /* \"#utility.yul\":24029:24160   */\n      tag_605\n        /* \"#utility.yul\":24155:24159   */\n      dup2\n        /* \"#utility.yul\":24029:24160   */\n      tag_360\n      jump\t// in\n    tag_605:\n        /* \"#utility.yul\":24021:24160   */\n      swap1\n      pop\n        /* \"#utility.yul\":23748:24167   */\n      swap2\n      swap1\n      pop\n      jump\t// out\n        /* \"#utility.yul\":24173:24351   */\n    tag_361:\n        /* \"#utility.yul\":24313:24343   */\n      0x726567697374726174696f6e20646964206e6f74207374617274656400000000\n        /* \"#utility.yul\":24309:24310   */\n      0x00\n        /* \"#utility.yul\":24301:24307   */\n      dup3\n        /* \"#utility.yul\":24297:24311   */\n      add\n        /* \"#utility.yul\":24290:24344   */\n      mstore\n        /* \"#utility.yul\":24173:24351   */\n      pop\n      jump\t// out\n        /* \"#utility.yul\":24357:24723   */\n    tag_362:\n        /* \"#utility.yul\":24499:24502   */\n      0x00\n        /* \"#utility.yul\":24520:24587   */\n      tag_608\n        /* \"#utility.yul\":24584:24586   */\n      0x1c\n        /* \"#utility.yul\":24579:24582   */\n      dup4\n        /* \"#utility.yul\":24520:24587   */\n      tag_298\n      jump\t// in\n    tag_608:\n        /* \"#utility.yul\":24513:24587   */\n      swap2\n      pop\n        /* \"#utility.yul\":24596:24689   */\n      tag_609\n        /* \"#utility.yul\":24685:24688   */\n      dup3\n        /* \"#utility.yul\":24596:24689   */\n      tag_361\n      jump\t// in\n    tag_609:\n        /* \"#utility.yul\":24714:24716   */\n      0x20\n        /* \"#utility.yul\":24709:24712   */\n      dup3\n        /* \"#utility.yul\":24705:24717   */\n      add\n        /* \"#utility.yul\":24698:24717   */\n      swap1\n      pop\n        /* \"#utility.yul\":24357:24723   */\n      swap2\n      swap1\n      pop\n      jump\t// out\n        /* \"#utility.yul\":24729:25148   */\n    tag_193:\n        /* \"#utility.yul\":24895:24899   */\n      0x00\n        /* \"#utility.yul\":24933:24935   */\n      0x20\n        /* \"#utility.yul\":24922:24931   */\n      dup3\n        /* \"#utility.yul\":24918:24936   */\n      add\n        /* \"#utility.yul\":24910:24936   */\n      swap1\n      pop\n        /* \"#utility.yul\":24982:24991   */\n      dup2\n        /* \"#utility.yul\":24976:24980   */\n      dup2\n        /* \"#utility.yul\":24972:24992   */\n      sub\n        /* \"#utility.yul\":24968:24969   */\n      0x00\n        /* \"#utility.yul\":24957:24966   */\n      dup4\n        /* \"#utility.yul\":24953:24970   */\n      add\n        /* \"#utility.yul\":24946:24993   */\n      mstore\n        /* \"#utility.yul\":25010:25141   */\n      tag_611\n        /* \"#utility.yul\":25136:25140   */\n      dup2\n        /* \"#utility.yul\":25010:25141   */\n      tag_362\n      jump\t// in\n    tag_611:\n        /* \"#utility.yul\":25002:25141   */\n      swap1\n      pop\n        /* \"#utility.yul\":24729:25148   */\n      swap2\n      swap1\n      pop\n      jump\t// out\n        /* \"#utility.yul\":25154:25326   */\n    tag_363:\n        /* \"#utility.yul\":25294:25318   */\n      0x796f7520617265206e6f74207265676973746572656400000000000000000000\n        /* \"#utility.yul\":25290:25291   */\n      0x00\n        /* \"#utility.yul\":25282:25288   */\n      dup3\n        /* \"#utility.yul\":25278:25292   */\n      add\n        /* \"#utility.yul\":25271:25319   */\n      mstore\n        /* \"#utility.yul\":25154:25326   */\n      pop\n      jump\t// out\n        /* \"#utility.yul\":25332:25698   */\n    tag_364:\n        /* \"#utility.yul\":25474:25477   */\n      0x00\n        /* \"#utility.yul\":25495:25562   */\n      tag_614\n        /* \"#utility.yul\":25559:25561   */\n      0x16\n        /* \"#utility.yul\":25554:25557   */\n      dup4\n        /* \"#utility.yul\":25495:25562   */\n      tag_298\n      jump\t// in\n    tag_614:\n        /* \"#utility.yul\":25488:25562   */\n      swap2\n      pop\n        /* \"#utility.yul\":25571:25664   */\n      tag_615\n        /* \"#utility.yul\":25660:25663   */\n      dup3\n        /* \"#utility.yul\":25571:25664   */\n      tag_363\n      jump\t// in\n    tag_615:\n        /* \"#utility.yul\":25689:25691   */\n      0x20\n        /* \"#utility.yul\":25684:25687   */\n      dup3\n        /* \"#utility.yul\":25680:25692   */\n      add\n        /* \"#utility.yul\":25673:25692   */\n      swap1\n      pop\n        /* \"#utility.yul\":25332:25698   */\n      swap2\n      swap1\n      pop\n      jump\t// out\n        /* \"#utility.yul\":25704:26123   */\n    tag_198:\n        /* \"#utility.yul\":25870:25874   */\n      0x00\n        /* \"#utility.yul\":25908:25910   */\n      0x20\n        /* \"#utility.yul\":25897:25906   */\n      dup3\n        /* \"#utility.yul\":25893:25911   */\n      add\n        /* \"#utility.yul\":25885:25911   */\n      swap1\n      pop\n        /* \"#utility.yul\":25957:25966   */\n      dup2\n        /* \"#utility.yul\":25951:25955   */\n      dup2\n        /* \"#utility.yul\":25947:25967   */\n      sub\n        /* \"#utility.yul\":25943:25944   */\n      0x00\n        /* \"#utility.yul\":25932:25941   */\n      dup4\n        /* \"#utility.yul\":25928:25945   */\n      add\n        /* \"#utility.yul\":25921:25968   */\n      mstore\n        /* \"#utility.yul\":25985:26116   */\n      tag_617\n        /* \"#utility.yul\":26111:26115   */\n      dup2\n        /* \"#utility.yul\":25985:26116   */\n      tag_364\n      jump\t// in\n    tag_617:\n        /* \"#utility.yul\":25977:26116   */\n      swap1\n      pop\n        /* \"#utility.yul\":25704:26123   */\n      swap2\n      swap1\n      pop\n      jump\t// out\n        /* \"#utility.yul\":26129:26303   */\n    tag_365:\n        /* \"#utility.yul\":26269:26295   */\n      0x646f20796f75206861766520616c726561647920766f74650000000000000000\n        /* \"#utility.yul\":26265:26266   */\n      0x00\n        /* \"#utility.yul\":26257:26263   */\n      dup3\n        /* \"#utility.yul\":26253:26267   */\n      add\n        /* \"#utility.yul\":26246:26296   */\n      mstore\n        /* \"#utility.yul\":26129:26303   */\n      pop\n      jump\t// out\n        /* \"#utility.yul\":26309:26675   */\n    tag_366:\n        /* \"#utility.yul\":26451:26454   */\n      0x00\n        /* \"#utility.yul\":26472:26539   */\n      tag_620\n        /* \"#utility.yul\":26536:26538   */\n      0x18\n        /* \"#utility.yul\":26531:26534   */\n      dup4\n        /* \"#utility.yul\":26472:26539   */\n      tag_298\n      jump\t// in\n    tag_620:\n        /* \"#utility.yul\":26465:26539   */\n      swap2\n      pop\n        /* \"#utility.yul\":26548:26641   */\n      tag_621\n        /* \"#utility.yul\":26637:26640   */\n      dup3\n        /* \"#utility.yul\":26548:26641   */\n      tag_365\n      jump\t// in\n    tag_621:\n        /* \"#utility.yul\":26666:26668   */\n      0x20\n        /* \"#utility.yul\":26661:26664   */\n      dup3\n        /* \"#utility.yul\":26657:26669   */\n      add\n        /* \"#utility.yul\":26650:26669   */\n      swap1\n      pop\n        /* \"#utility.yul\":26309:26675   */\n      swap2\n      swap1\n      pop\n      jump\t// out\n        /* \"#utility.yul\":26681:27100   */\n    tag_201:\n        /* \"#utility.yul\":26847:26851   */\n      0x00\n        /* \"#utility.yul\":26885:26887   */\n      0x20\n        /* \"#utility.yul\":26874:26883   */\n      dup3\n        /* \"#utility.yul\":26870:26888   */\n      add\n        /* \"#utility.yul\":26862:26888   */\n      swap1\n      pop\n        /* \"#utility.yul\":26934:26943   */\n      dup2\n        /* \"#utility.yul\":26928:26932   */\n      dup2\n        /* \"#utility.yul\":26924:26944   */\n      sub\n        /* \"#utility.yul\":26920:26921   */\n      0x00\n        /* \"#utility.yul\":26909:26918   */\n      dup4\n        /* \"#utility.yul\":26905:26922   */\n      add\n        /* \"#utility.yul\":26898:26945   */\n      mstore\n        /* \"#utility.yul\":26962:27093   */\n      tag_623\n        /* \"#utility.yul\":27088:27092   */\n      dup2\n        /* \"#utility.yul\":26962:27093   */\n      tag_366\n      jump\t// in\n    tag_623:\n        /* \"#utility.yul\":26954:27093   */\n      swap1\n      pop\n        /* \"#utility.yul\":26681:27100   */\n      swap2\n      swap1\n      pop\n      jump\t// out\n        /* \"#utility.yul\":27106:27339   */\n    tag_206:\n        /* \"#utility.yul\":27145:27148   */\n      0x00\n        /* \"#utility.yul\":27168:27192   */\n      tag_625\n        /* \"#utility.yul\":27186:27191   */\n      dup3\n        /* \"#utility.yul\":27168:27192   */\n      tag_294\n      jump\t// in\n    tag_625:\n        /* \"#utility.yul\":27159:27192   */\n      swap2\n      pop\n        /* \"#utility.yul\":27214:27280   */\n      0xffffffffffffffffffffffffffffffffffffffffffffffffffffffffffffffff\n        /* \"#utility.yul\":27207:27212   */\n      dup3\n        /* \"#utility.yul\":27204:27281   */\n      sub\n        /* \"#utility.yul\":27201:27304   */\n      tag_626\n      jumpi\n        /* \"#utility.yul\":27284:27302   */\n      tag_627\n      tag_356\n      jump\t// in\n    tag_627:\n        /* \"#utility.yul\":27201:27304   */\n    tag_626:\n        /* \"#utility.yul\":27331:27332   */\n      0x01\n        /* \"#utility.yul\":27324:27329   */\n      dup3\n        /* \"#utility.yul\":27320:27333   */\n      add\n        /* \"#utility.yul\":27313:27333   */\n      swap1\n      pop\n        /* \"#utility.yul\":27106:27339   */\n      swap2\n      swap1\n      pop\n      jump\t// out\n        /* \"#utility.yul\":27345:27677   */\n    tag_208:\n        /* \"#utility.yul\":27466:27470   */\n      0x00\n        /* \"#utility.yul\":27504:27506   */\n      0x40\n        /* \"#utility.yul\":27493:27502   */\n      dup3\n        /* \"#utility.yul\":27489:27507   */\n      add\n        /* \"#utility.yul\":27481:27507   */\n      swap1\n      pop\n        /* \"#utility.yul\":27517:27588   */\n      tag_629\n        /* \"#utility.yul\":27585:27586   */\n      0x00\n        /* \"#utility.yul\":27574:27583   */\n      dup4\n        /* \"#utility.yul\":27570:27587   */\n      add\n        /* \"#utility.yul\":27561:27567   */\n      dup6\n        /* \"#utility.yul\":27517:27588   */\n      tag_322\n      jump\t// in\n    tag_629:\n        /* \"#utility.yul\":27598:27670   */\n      tag_630\n        /* \"#utility.yul\":27666:27668   */\n      0x20\n        /* \"#utility.yul\":27655:27664   */\n      dup4\n        /* \"#utility.yul\":27651:27669   */\n      add\n        /* \"#utility.yul\":27642:27648   */\n      dup5\n        /* \"#utility.yul\":27598:27670   */\n      tag_302\n      jump\t// in\n    tag_630:\n        /* \"#utility.yul\":27345:27677   */\n      swap4\n      swap3\n      pop\n      pop\n      pop\n      jump\t// out\n        /* \"#utility.yul\":27683:27857   */\n    tag_367:\n        /* \"#utility.yul\":27823:27849   */\n      0x566f74696e672073657373696f6e206e6f7420656e6465640000000000000000\n        /* \"#utility.yul\":27819:27820   */\n      0x00\n        /* \"#utility.yul\":27811:27817   */\n      dup3\n        /* \"#utility.yul\":27807:27821   */\n      add\n        /* \"#utility.yul\":27800:27850   */\n      mstore\n        /* \"#utility.yul\":27683:27857   */\n      pop\n      jump\t// out\n        /* \"#utility.yul\":27863:28229   */\n    tag_368:\n        /* \"#utility.yul\":28005:28008   */\n      0x00\n        /* \"#utility.yul\":28026:28093   */\n      tag_633\n        /* \"#utility.yul\":28090:28092   */\n      0x18\n        /* \"#utility.yul\":28085:28088   */\n      dup4\n        /* \"#utility.yul\":28026:28093   */\n      tag_298\n      jump\t// in\n    tag_633:\n        /* \"#utility.yul\":28019:28093   */\n      swap2\n      pop\n        /* \"#utility.yul\":28102:28195   */\n      tag_634\n        /* \"#utility.yul\":28191:28194   */\n      dup3\n        /* \"#utility.yul\":28102:28195   */\n      tag_367\n      jump\t// in\n    tag_634:\n        /* \"#utility.yul\":28220:28222   */\n      0x20\n        /* \"#utility.yul\":28215:28218   */\n      dup3\n        /* \"#utility.yul\":28211:28223   */\n      add\n        /* \"#utility.yul\":28204:28223   */\n      swap1\n      pop\n        /* \"#utility.yul\":27863:28229   */\n      swap2\n      swap1\n      pop\n      jump\t// out\n        /* \"#utility.yul\":28235:28654   */\n    tag_216:\n        /* \"#utility.yul\":28401:28405   */\n      0x00\n        /* \"#utility.yul\":28439:28441   */\n      0x20\n        /* \"#utility.yul\":28428:28437   */\n      dup3\n        /* \"#utility.yul\":28424:28442   */\n      add\n        /* \"#utility.yul\":28416:28442   */\n      swap1\n      pop\n        /* \"#utility.yul\":28488:28497   */\n      dup2\n        /* \"#utility.yul\":28482:28486   */\n      dup2\n        /* \"#utility.yul\":28478:28498   */\n      sub\n        /* \"#utility.yul\":28474:28475   */\n      0x00\n        /* \"#utility.yul\":28463:28472   */\n      dup4\n        /* \"#utility.yul\":28459:28476   */\n      add\n        /* \"#utility.yul\":28452:28499   */\n      mstore\n        /* \"#utility.yul\":28516:28647   */\n      tag_636\n        /* \"#utility.yul\":28642:28646   */\n      dup2\n        /* \"#utility.yul\":28516:28647   */\n      tag_368\n      jump\t// in\n    tag_636:\n        /* \"#utility.yul\":28508:28647   */\n      swap1\n      pop\n        /* \"#utility.yul\":28235:28654   */\n      swap2\n      swap1\n      pop\n      jump\t// out\n        /* \"#utility.yul\":28660:28842   */\n    tag_369:\n        /* \"#utility.yul\":28800:28834   */\n      0x5265676973746572696e6720766f7465727320646964206e6f74207374617274\n        /* \"#utility.yul\":28796:28797   */\n      0x00\n        /* \"#utility.yul\":28788:28794   */\n      dup3\n        /* \"#utility.yul\":28784:28798   */\n      add\n        /* \"#utility.yul\":28777:28835   */\n      mstore\n        /* \"#utility.yul\":28660:28842   */\n      pop\n      jump\t// out\n        /* \"#utility.yul\":28848:29214   */\n    tag_370:\n        /* \"#utility.yul\":28990:28993   */\n      0x00\n        /* \"#utility.yul\":29011:29078   */\n      tag_639\n        /* \"#utility.yul\":29075:29077   */\n      0x20\n        /* \"#utility.yul\":29070:29073   */\n      dup4\n        /* \"#utility.yul\":29011:29078   */\n      tag_298\n      jump\t// in\n    tag_639:\n        /* \"#utility.yul\":29004:29078   */\n      swap2\n      pop\n        /* \"#utility.yul\":29087:29180   */\n      tag_640\n        /* \"#utility.yul\":29176:29179   */\n      dup3\n        /* \"#utility.yul\":29087:29180   */\n      tag_369\n      jump\t// in\n    tag_640:\n        /* \"#utility.yul\":29205:29207   */\n      0x20\n        /* \"#utility.yul\":29200:29203   */\n      dup3\n        /* \"#utility.yul\":29196:29208   */\n      add\n        /* \"#utility.yul\":29189:29208   */\n      swap1\n      pop\n        /* \"#utility.yul\":28848:29214   */\n      swap2\n      swap1\n      pop\n      jump\t// out\n        /* \"#utility.yul\":29220:29639   */\n    tag_245:\n        /* \"#utility.yul\":29386:29390   */\n      0x00\n        /* \"#utility.yul\":29424:29426   */\n      0x20\n        /* \"#utility.yul\":29413:29422   */\n      dup3\n        /* \"#utility.yul\":29409:29427   */\n      add\n        /* \"#utility.yul\":29401:29427   */\n      swap1\n      pop\n        /* \"#utility.yul\":29473:29482   */\n      dup2\n        /* \"#utility.yul\":29467:29471   */\n      dup2\n        /* \"#utility.yul\":29463:29483   */\n      sub\n        /* \"#utility.yul\":29459:29460   */\n      0x00\n        /* \"#utility.yul\":29448:29457   */\n      dup4\n        /* \"#utility.yul\":29444:29461   */\n      add\n        /* \"#utility.yul\":29437:29484   */\n      mstore\n        /* \"#utility.yul\":29501:29632   */\n      tag_642\n        /* \"#utility.yul\":29627:29631   */\n      dup2\n        /* \"#utility.yul\":29501:29632   */\n      tag_370\n      jump\t// in\n    tag_642:\n        /* \"#utility.yul\":29493:29632   */\n      swap1\n      pop\n        /* \"#utility.yul\":29220:29639   */\n      swap2\n      swap1\n      pop\n      jump\t// out\n        /* \"#utility.yul\":29645:29819   */\n    tag_371:\n        /* \"#utility.yul\":29785:29811   */\n      0x526567697374726174696f6e206e6f7420737461727465640000000000000000\n        /* \"#utility.yul\":29781:29782   */\n      0x00\n        /* \"#utility.yul\":29773:29779   */\n      dup3\n        /* \"#utility.yul\":29769:29783   */\n      add\n        /* \"#utility.yul\":29762:29812   */\n      mstore\n        /* \"#utility.yul\":29645:29819   */\n      pop\n      jump\t// out\n        /* \"#utility.yul\":29825:30191   */\n    tag_372:\n        /* \"#utility.yul\":29967:29970   */\n      0x00\n        /* \"#utility.yul\":29988:30055   */\n      tag_645\n        /* \"#utility.yul\":30052:30054   */\n      0x18\n        /* \"#utility.yul\":30047:30050   */\n      dup4\n        /* \"#utility.yul\":29988:30055   */\n      tag_298\n      jump\t// in\n    tag_645:\n        /* \"#utility.yul\":29981:30055   */\n      swap2\n      pop\n        /* \"#utility.yul\":30064:30157   */\n      tag_646\n        /* \"#utility.yul\":30153:30156   */\n      dup3\n        /* \"#utility.yul\":30064:30157   */\n      tag_371\n      jump\t// in\n    tag_646:\n        /* \"#utility.yul\":30182:30184   */\n      0x20\n        /* \"#utility.yul\":30177:30180   */\n      dup3\n        /* \"#utility.yul\":30173:30185   */\n      add\n        /* \"#utility.yul\":30166:30185   */\n      swap1\n      pop\n        /* \"#utility.yul\":29825:30191   */\n      swap2\n      swap1\n      pop\n      jump\t// out\n        /* \"#utility.yul\":30197:30616   */\n    tag_258:\n        /* \"#utility.yul\":30363:30367   */\n      0x00\n        /* \"#utility.yul\":30401:30403   */\n      0x20\n        /* \"#utility.yul\":30390:30399   */\n      dup3\n        /* \"#utility.yul\":30386:30404   */\n      add\n        /* \"#utility.yul\":30378:30404   */\n      swap1\n      pop\n        /* \"#utility.yul\":30450:30459   */\n      dup2\n        /* \"#utility.yul\":30444:30448   */\n      dup2\n        /* \"#utility.yul\":30440:30460   */\n      sub\n        /* \"#utility.yul\":30436:30437   */\n      0x00\n        /* \"#utility.yul\":30425:30434   */\n      dup4\n        /* \"#utility.yul\":30421:30438   */\n      add\n        /* \"#utility.yul\":30414:30461   */\n      mstore\n        /* \"#utility.yul\":30478:30609   */\n      tag_648\n        /* \"#utility.yul\":30604:30608   */\n      dup2\n        /* \"#utility.yul\":30478:30609   */\n      tag_372\n      jump\t// in\n    tag_648:\n        /* \"#utility.yul\":30470:30609   */\n      swap1\n      pop\n        /* \"#utility.yul\":30197:30616   */\n      swap2\n      swap1\n      pop\n      jump\t// out\n        /* \"#utility.yul\":30622:30844   */\n    tag_373:\n        /* \"#utility.yul\":30762:30796   */\n      0x6164647265737320697320616c726561647920696e207468652077686974656c\n        /* \"#utility.yul\":30758:30759   */\n      0x00\n        /* \"#utility.yul\":30750:30756   */\n      dup3\n        /* \"#utility.yul\":30746:30760   */\n      add\n        /* \"#utility.yul\":30739:30797   */\n      mstore\n        /* \"#utility.yul\":30831:30836   */\n      0x6973740000000000000000000000000000000000000000000000000000000000\n        /* \"#utility.yul\":30826:30828   */\n      0x20\n        /* \"#utility.yul\":30818:30824   */\n      dup3\n        /* \"#utility.yul\":30814:30829   */\n      add\n        /* \"#utility.yul\":30807:30837   */\n      mstore\n        /* \"#utility.yul\":30622:30844   */\n      pop\n      jump\t// out\n        /* \"#utility.yul\":30850:31216   */\n    tag_374:\n        /* \"#utility.yul\":30992:30995   */\n      0x00\n        /* \"#utility.yul\":31013:31080   */\n      tag_651\n        /* \"#utility.yul\":31077:31079   */\n      0x23\n        /* \"#utility.yul\":31072:31075   */\n      dup4\n        /* \"#utility.yul\":31013:31080   */\n      tag_298\n      jump\t// in\n    tag_651:\n        /* \"#utility.yul\":31006:31080   */\n      swap2\n      pop\n        /* \"#utility.yul\":31089:31182   */\n      tag_652\n        /* \"#utility.yul\":31178:31181   */\n      dup3\n        /* \"#utility.yul\":31089:31182   */\n      tag_373\n      jump\t// in\n    tag_652:\n        /* \"#utility.yul\":31207:31209   */\n      0x40\n        /* \"#utility.yul\":31202:31205   */\n      dup3\n        /* \"#utility.yul\":31198:31210   */\n      add\n        /* \"#utility.yul\":31191:31210   */\n      swap1\n      pop\n        /* \"#utility.yul\":30850:31216   */\n      swap2\n      swap1\n      pop\n      jump\t// out\n        /* \"#utility.yul\":31222:31641   */\n    tag_261:\n        /* \"#utility.yul\":31388:31392   */\n      0x00\n        /* \"#utility.yul\":31426:31428   */\n      0x20\n        /* \"#utility.yul\":31415:31424   */\n      dup3\n        /* \"#utility.yul\":31411:31429   */\n      add\n        /* \"#utility.yul\":31403:31429   */\n      swap1\n      pop\n        /* \"#utility.yul\":31475:31484   */\n      dup2\n        /* \"#utility.yul\":31469:31473   */\n      dup2\n        /* \"#utility.yul\":31465:31485   */\n      sub\n        /* \"#utility.yul\":31461:31462   */\n      0x00\n        /* \"#utility.yul\":31450:31459   */\n      dup4\n        /* \"#utility.yul\":31446:31463   */\n      add\n        /* \"#utility.yul\":31439:31486   */\n      mstore\n        /* \"#utility.yul\":31503:31634   */\n      tag_654\n        /* \"#utility.yul\":31629:31633   */\n      dup2\n        /* \"#utility.yul\":31503:31634   */\n      tag_374\n      jump\t// in\n    tag_654:\n        /* \"#utility.yul\":31495:31634   */\n      swap1\n      pop\n        /* \"#utility.yul\":31222:31641   */\n      swap2\n      swap1\n      pop\n      jump\t// out\n        /* \"#utility.yul\":31647:31829   */\n    tag_375:\n        /* \"#utility.yul\":31787:31821   */\n      0x50726f706f73616c7320726567697374726174696f6e206e6f7420656e646564\n        /* \"#utility.yul\":31783:31784   */\n      0x00\n        /* \"#utility.yul\":31775:31781   */\n      dup3\n        /* \"#utility.yul\":31771:31785   */\n      add\n        /* \"#utility.yul\":31764:31822   */\n      mstore\n        /* \"#utility.yul\":31647:31829   */\n      pop\n      jump\t// out\n        /* \"#utility.yul\":31835:32201   */\n    tag_376:\n        /* \"#utility.yul\":31977:31980   */\n      0x00\n        /* \"#utility.yul\":31998:32065   */\n      tag_657\n        /* \"#utility.yul\":32062:32064   */\n      0x20\n        /* \"#utility.yul\":32057:32060   */\n      dup4\n        /* \"#utility.yul\":31998:32065   */\n      tag_298\n      jump\t// in\n    tag_657:\n        /* \"#utility.yul\":31991:32065   */\n      swap2\n      pop\n        /* \"#utility.yul\":32074:32167   */\n      tag_658\n        /* \"#utility.yul\":32163:32166   */\n      dup3\n        /* \"#utility.yul\":32074:32167   */\n      tag_375\n      jump\t// in\n    tag_658:\n        /* \"#utility.yul\":32192:32194   */\n      0x20\n        /* \"#utility.yul\":32187:32190   */\n      dup3\n        /* \"#utility.yul\":32183:32195   */\n      add\n        /* \"#utility.yul\":32176:32195   */\n      swap1\n      pop\n        /* \"#utility.yul\":31835:32201   */\n      swap2\n      swap1\n      pop\n      jump\t// out\n        /* \"#utility.yul\":32207:32626   */\n    tag_271:\n        /* \"#utility.yul\":32373:32377   */\n      0x00\n        /* \"#utility.yul\":32411:32413   */\n      0x20\n        /* \"#utility.yul\":32400:32409   */\n      dup3\n        /* \"#utility.yul\":32396:32414   */\n      add\n        /* \"#utility.yul\":32388:32414   */\n      swap1\n      pop\n        /* \"#utility.yul\":32460:32469   */\n      dup2\n        /* \"#utility.yul\":32454:32458   */\n      dup2\n        /* \"#utility.yul\":32450:32470   */\n      sub\n        /* \"#utility.yul\":32446:32447   */\n      0x00\n        /* \"#utility.yul\":32435:32444   */\n      dup4\n        /* \"#utility.yul\":32431:32448   */\n      add\n        /* \"#utility.yul\":32424:32471   */\n      mstore\n        /* \"#utility.yul\":32488:32619   */\n      tag_660\n        /* \"#utility.yul\":32614:32618   */\n      dup2\n        /* \"#utility.yul\":32488:32619   */\n      tag_376\n      jump\t// in\n    tag_660:\n        /* \"#utility.yul\":32480:32619   */\n      swap1\n      pop\n        /* \"#utility.yul\":32207:32626   */\n      swap2\n      swap1\n      pop\n      jump\t// out\n\n    auxdata: 0xa2646970667358221220c728d32ab1cec61f6823ded7be532a41531223833142474f95d422675360b7a664736f6c634300081e0033\n}\n",
				"bytecode": {
					"linkReferences": {},
					"object": "608060405234801561000f575f5ffd5b50335f73ffffffffffffffffffffffffffffffffffffffff168173ffffffffffffffffffffffffffffffffffffffff1603610081575f6040517f1e4fbdf70000000000000000000000000000000000000000000000000000000081526004016100789190610196565b60405180910390fd5b6100908161009660201b60201c565b506101af565b5f5f5f9054906101000a900473ffffffffffffffffffffffffffffffffffffffff169050815f5f6101000a81548173ffffffffffffffffffffffffffffffffffffffff021916908373ffffffffffffffffffffffffffffffffffffffff1602179055508173ffffffffffffffffffffffffffffffffffffffff168173ffffffffffffffffffffffffffffffffffffffff167f8be0079c531659141344cd1fd0a4f28419497f9722a3daafe3b4186f6b6457e060405160405180910390a35050565b5f73ffffffffffffffffffffffffffffffffffffffff82169050919050565b5f61018082610157565b9050919050565b61019081610176565b82525050565b5f6020820190506101a95f830184610187565b92915050565b612417806101bc5f395ff3fe608060405234801561000f575f5ffd5b5060043610610135575f3560e01c8063a3ec138d116100b6578063cceb68f51161007a578063cceb68f514610304578063e09b8c7914610322578063e43252d71461032c578063ee74c67814610348578063f2fde38b14610352578063f75d64a61461036e57610135565b8063a3ec138d14610284578063a7bfab16146102b6578063c64963c5146102c0578063c8f5714e146102de578063cc5a6668146102fa57610135565b80636c297445116100fd5780636c29744514610204578063715018a61461020e5780638da5cb5b146102185780639b19251a14610236578063a1edffa21461026657610135565b8063013cf08b1461013957806337d1d3891461016a5780633af32abf1461019a5780634394ba21146101ca57806345bf58fd146101e8575b5f5ffd5b610153600480360381019061014e919061146e565b61038c565b604051610161929190611518565b60405180910390f35b610184600480360381019061017f919061146e565b610441565b60405161019191906115d7565b60405180910390f35b6101b460048036038101906101af9190611651565b61055b565b6040516101c19190611696565b60405180910390f35b6101d26105ad565b6040516101df91906115d7565b60405180910390f35b61020260048036038101906101fd91906117db565b610680565b005b61020c610826565b005b610216610909565b005b61022061091c565b60405161022d9190611831565b60405180910390f35b610250600480360381019061024b9190611651565b610943565b60405161025d9190611696565b60405180910390f35b61026e610960565b60405161027b91906118bd565b60405180910390f35b61029e60048036038101906102999190611651565b610972565b6040516102ad939291906118d6565b60405180910390f35b6102be6109b0565b005b6102c8610a94565b6040516102d5919061190b565b60405180910390f35b6102f860048036038101906102f3919061146e565b610a9a565b005b610302610cd5565b005b61030c610e0b565b6040516103199190611a19565b60405180910390f35b61032a610f00565b005b61034660048036038101906103419190611651565b610fe2565b005b610350611145565b005b61036c60048036038101906103679190611651565b611229565b005b6103766112ad565b60405161038391906118bd565b60405180910390f35b6003818154811061039b575f80fd5b905f5260205f2090600202015f91509050805f0180546103ba90611a66565b80601f01602080910402602001604051908101604052809291908181526020018280546103e690611a66565b80156104315780601f1061040857610100808354040283529160200191610431565b820191905f5260205f20905b81548152906001019060200180831161041457829003601f168201915b5050505050908060010154905082565b610449611411565b6003805490508210610490576040517f08c379a000000000000000000000000000000000000000000000000000000000815260040161048790611ae0565b60405180910390fd5b600382815481106104a4576104a3611afe565b5b905f5260205f2090600202016040518060400160405290815f820180546104ca90611a66565b80601f01602080910402602001604051908101604052809291908181526020018280546104f690611a66565b80156105415780601f1061051857610100808354040283529160200191610541565b820191905f5260205f20905b81548152906001019060200180831161052457829003601f168201915b505050505081526020016001820154815250509050919050565b5f60045f8373ffffffffffffffffffffffffffffffffffffffff1673ffffffffffffffffffffffffffffffffffffffff1681526020019081526020015f205f9054906101000a900460ff169050919050565b6105b5611411565b6003600154815481106105cb576105ca611afe565b5b905f5260205f2090600202016040518060400160405290815f820180546105f190611a66565b80601f016020809104026020016040519081016040528092919081815260200182805461061d90611a66565b80156106685780601f1061063f57610100808354040283529160200191610668565b820191905f5260205f20905b81548152906001019060200180831161064b57829003601f168201915b50505050508152602001600182015481525050905090565b600160058111156106945761069361184a565b5b60025f9054906101000a900460ff1660058111156106b5576106b461184a565b5b146106f5576040517f08c379a00000000000000000000000000000000000000000000000000000000081526004016106ec90611b9b565b60405180910390fd5b60045f3373ffffffffffffffffffffffffffffffffffffffff1673ffffffffffffffffffffffffffffffffffffffff1681526020019081526020015f205f9054906101000a900460ff1661077e576040517f08c379a000000000000000000000000000000000000000000000000000000000815260040161077590611c03565b60405180910390fd5b600360405180604001604052808381526020015f815250908060018154018082558091505060019003905f5260205f2090600202015f909190919091505f820151815f0190816107ce9190611dc1565b506020820151816001015550507f92e393e9b54e2f801d3ea4beb0c5e71a21cc34a5d34b77d0fb8a3aa1650dc18f600160038054905061080e9190611ebd565b60405161081b919061190b565b60405180910390a150565b61082e6112c2565b600160058111156108425761084161184a565b5b60025f9054906101000a900460ff1660058111156108635761086261184a565b5b146108a3576040517f08c379a000000000000000000000000000000000000000000000000000000000815260040161089a90611f60565b60405180910390fd5b6002805f6101000a81548160ff021916908360058111156108c7576108c661184a565b5b02179055507f0a97a4ee45751e2abf3e4fc8946939630b11b371ea8ae39ccdc3056e98f5cc3f600160026040516108ff929190611f7e565b60405180910390a1565b6109116112c2565b61091a5f611349565b565b5f5f5f9054906101000a900473ffffffffffffffffffffffffffffffffffffffff16905090565b6004602052805f5260405f205f915054906101000a900460ff1681565b60025f9054906101000a900460ff1681565b6005602052805f5260405f205f91509050805f015f9054906101000a900460ff1690805f0160019054906101000a900460ff16908060010154905083565b6109b86112c2565b600360058111156109cc576109cb61184a565b5b60025f9054906101000a900460ff1660058111156109ed576109ec61184a565b5b14610a2d576040517f08c379a0000000000000000000000000000000000000000000000000000000008152600401610a2490611fef565b60405180910390fd5b600460025f6101000a81548160ff02191690836005811115610a5257610a5161184a565b5b02179055507f0a97a4ee45751e2abf3e4fc8946939630b11b371ea8ae39ccdc3056e98f5cc3f60036004604051610a8a929190611f7e565b60405180910390a1565b60015481565b60036005811115610aae57610aad61184a565b5b60025f9054906101000a900460ff166005811115610acf57610ace61184a565b5b14610b0f576040517f08c379a0000000000000000000000000000000000000000000000000000000008152600401610b0690612057565b60405180910390fd5b6003805490508110610b56576040517f08c379a0000000000000000000000000000000000000000000000000000000008152600401610b4d90611ae0565b60405180910390fd5b5f60055f3373ffffffffffffffffffffffffffffffffffffffff1673ffffffffffffffffffffffffffffffffffffffff1681526020019081526020015f209050805f015f9054906101000a900460ff16610be5576040517f08c379a0000000000000000000000000000000000000000000000000000000008152600401610bdc906120bf565b60405180910390fd5b805f0160019054906101000a900460ff1615610c36576040517f08c379a0000000000000000000000000000000000000000000000000000000008152600401610c2d90612127565b60405180910390fd5b5f60038381548110610c4b57610c4a611afe565b5b905f5260205f2090600202019050806001015f815480929190610c6d90612145565b91905055506001825f0160016101000a81548160ff0219169083151502179055508282600101819055507f4d99b957a2bc29a30ebd96a7be8e68fe50a3c701db28a91436490b7d53870ca43384604051610cc892919061218c565b60405180910390a1505050565b60046005811115610ce957610ce861184a565b5b60025f9054906101000a900460ff166005811115610d0a57610d0961184a565b5b14610d4a576040517f08c379a0000000000000000000000000000000000000000000000000000000008152600401610d41906121fd565b60405180910390fd5b5f5f5f5f90505b600380549050811015610d9a578160038281548110610d7357610d72611afe565b5b905f5260205f209060020201600101541115610d8d578092505b8080600101915050610d51565b5081600181905550600560025f6101000a81548160ff02191690836005811115610dc757610dc661184a565b5b02179055507f0a97a4ee45751e2abf3e4fc8946939630b11b371ea8ae39ccdc3056e98f5cc3f60046005604051610dff929190611f7e565b60405180910390a15050565b60606003805480602002602001604051908101604052809291908181526020015f905b82821015610ef7578382905f5260205f2090600202016040518060400160405290815f82018054610e5e90611a66565b80601f0160208091040260200160405190810160405280929190818152602001828054610e8a90611a66565b8015610ed55780601f10610eac57610100808354040283529160200191610ed5565b820191905f5260205f20905b815481529060010190602001808311610eb857829003601f168201915b5050505050815260200160018201548152505081526020019060010190610e2e565b50505050905090565b610f086112c2565b5f6005811115610f1b57610f1a61184a565b5b60025f9054906101000a900460ff166005811115610f3c57610f3b61184a565b5b14610f7c576040517f08c379a0000000000000000000000000000000000000000000000000000000008152600401610f7390612265565b60405180910390fd5b600160025f6101000a81548160ff02191690836005811115610fa157610fa061184a565b5b02179055507f0a97a4ee45751e2abf3e4fc8946939630b11b371ea8ae39ccdc3056e98f5cc3f5f6001604051610fd8929190611f7e565b60405180910390a1565b610fea6112c2565b5f6005811115610ffd57610ffc61184a565b5b60025f9054906101000a900460ff16600581111561101e5761101d61184a565b5b1461105e576040517f08c379a0000000000000000000000000000000000000000000000000000000008152600401611055906122cd565b60405180910390fd5b5f151560045f8373ffffffffffffffffffffffffffffffffffffffff1673ffffffffffffffffffffffffffffffffffffffff1681526020019081526020015f205f9054906101000a900460ff161515146110ed576040517f08c379a00000000000000000000000000000000000000000000000000000000081526004016110e49061235b565b60405180910390fd5b600160045f8373ffffffffffffffffffffffffffffffffffffffff1673ffffffffffffffffffffffffffffffffffffffff1681526020019081526020015f205f6101000a81548160ff02191690831515021790555050565b61114d6112c2565b600260058111156111615761116061184a565b5b60025f9054906101000a900460ff1660058111156111825761118161184a565b5b146111c2576040517f08c379a00000000000000000000000000000000000000000000000000000000081526004016111b9906123c3565b60405180910390fd5b600360025f6101000a81548160ff021916908360058111156111e7576111e661184a565b5b02179055507f0a97a4ee45751e2abf3e4fc8946939630b11b371ea8ae39ccdc3056e98f5cc3f6002600360405161121f929190611f7e565b60405180910390a1565b6112316112c2565b5f73ffffffffffffffffffffffffffffffffffffffff168173ffffffffffffffffffffffffffffffffffffffff16036112a1575f6040517f1e4fbdf70000000000000000000000000000000000000000000000000000000081526004016112989190611831565b60405180910390fd5b6112aa81611349565b50565b5f60025f9054906101000a900460ff16905090565b6112ca61140a565b73ffffffffffffffffffffffffffffffffffffffff166112e861091c565b73ffffffffffffffffffffffffffffffffffffffff16146113475761130b61140a565b6040517f118cdaa700000000000000000000000000000000000000000000000000000000815260040161133e9190611831565b60405180910390fd5b565b5f5f5f9054906101000a900473ffffffffffffffffffffffffffffffffffffffff169050815f5f6101000a81548173ffffffffffffffffffffffffffffffffffffffff021916908373ffffffffffffffffffffffffffffffffffffffff1602179055508173ffffffffffffffffffffffffffffffffffffffff168173ffffffffffffffffffffffffffffffffffffffff167f8be0079c531659141344cd1fd0a4f28419497f9722a3daafe3b4186f6b6457e060405160405180910390a35050565b5f33905090565b6040518060400160405280606081526020015f81525090565b5f604051905090565b5f5ffd5b5f5ffd5b5f819050919050565b61144d8161143b565b8114611457575f5ffd5b50565b5f8135905061146881611444565b92915050565b5f6020828403121561148357611482611433565b5b5f6114908482850161145a565b91505092915050565b5f81519050919050565b5f82825260208201905092915050565b8281835e5f83830152505050565b5f601f19601f8301169050919050565b5f6114db82611499565b6114e581856114a3565b93506114f58185602086016114b3565b6114fe816114c1565b840191505092915050565b6115128161143b565b82525050565b5f6040820190508181035f83015261153081856114d1565b905061153f6020830184611509565b9392505050565b5f82825260208201905092915050565b5f61156082611499565b61156a8185611546565b935061157a8185602086016114b3565b611583816114c1565b840191505092915050565b6115978161143b565b82525050565b5f604083015f8301518482035f8601526115b78282611556565b91505060208301516115cc602086018261158e565b508091505092915050565b5f6020820190508181035f8301526115ef818461159d565b905092915050565b5f73ffffffffffffffffffffffffffffffffffffffff82169050919050565b5f611620826115f7565b9050919050565b61163081611616565b811461163a575f5ffd5b50565b5f8135905061164b81611627565b92915050565b5f6020828403121561166657611665611433565b5b5f6116738482850161163d565b91505092915050565b5f8115159050919050565b6116908161167c565b82525050565b5f6020820190506116a95f830184611687565b92915050565b5f5ffd5b5f5ffd5b7f4e487b71000000000000000000000000000000000000000000000000000000005f52604160045260245ffd5b6116ed826114c1565b810181811067ffffffffffffffff8211171561170c5761170b6116b7565b5b80604052505050565b5f61171e61142a565b905061172a82826116e4565b919050565b5f67ffffffffffffffff821115611749576117486116b7565b5b611752826114c1565b9050602081019050919050565b828183375f83830152505050565b5f61177f61177a8461172f565b611715565b90508281526020810184848401111561179b5761179a6116b3565b5b6117a684828561175f565b509392505050565b5f82601f8301126117c2576117c16116af565b5b81356117d284826020860161176d565b91505092915050565b5f602082840312156117f0576117ef611433565b5b5f82013567ffffffffffffffff81111561180d5761180c611437565b5b611819848285016117ae565b91505092915050565b61182b81611616565b82525050565b5f6020820190506118445f830184611822565b92915050565b7f4e487b71000000000000000000000000000000000000000000000000000000005f52602160045260245ffd5b600681106118885761188761184a565b5b50565b5f81905061189882611877565b919050565b5f6118a78261188b565b9050919050565b6118b78161189d565b82525050565b5f6020820190506118d05f8301846118ae565b92915050565b5f6060820190506118e95f830186611687565b6118f66020830185611687565b6119036040830184611509565b949350505050565b5f60208201905061191e5f830184611509565b92915050565b5f81519050919050565b5f82825260208201905092915050565b5f819050602082019050919050565b5f604083015f8301518482035f8601526119678282611556565b915050602083015161197c602086018261158e565b508091505092915050565b5f611992838361194d565b905092915050565b5f602082019050919050565b5f6119b082611924565b6119ba818561192e565b9350836020820285016119cc8561193e565b805f5b85811015611a0757848403895281516119e88582611987565b94506119f38361199a565b925060208a019950506001810190506119cf565b50829750879550505050505092915050565b5f6020820190508181035f830152611a3181846119a6565b905092915050565b7f4e487b71000000000000000000000000000000000000000000000000000000005f52602260045260245ffd5b5f6002820490506001821680611a7d57607f821691505b602082108103611a9057611a8f611a39565b5b50919050565b7f50726f706f73616c20646f6573206e6f742065786973740000000000000000005f82015250565b5f611aca6017836114a3565b9150611ad582611a96565b602082019050919050565b5f6020820190508181035f830152611af781611abe565b9050919050565b7f4e487b71000000000000000000000000000000000000000000000000000000005f52603260045260245ffd5b7f526567697374726174696f6e2070726f706f736974696f6e7320646964206e6f5f8201527f7420737461727465640000000000000000000000000000000000000000000000602082015250565b5f611b856029836114a3565b9150611b9082611b2b565b604082019050919050565b5f6020820190508181035f830152611bb281611b79565b9050919050565b7f596f7520617265206e6f742077686974656c69737465640000000000000000005f82015250565b5f611bed6017836114a3565b9150611bf882611bb9565b602082019050919050565b5f6020820190508181035f830152611c1a81611be1565b9050919050565b5f819050815f5260205f209050919050565b5f6020601f8301049050919050565b5f82821b905092915050565b5f60088302611c7d7fffffffffffffffffffffffffffffffffffffffffffffffffffffffffffffffff82611c42565b611c878683611c42565b95508019841693508086168417925050509392505050565b5f819050919050565b5f611cc2611cbd611cb88461143b565b611c9f565b61143b565b9050919050565b5f819050919050565b611cdb83611ca8565b611cef611ce782611cc9565b848454611c4e565b825550505050565b5f5f905090565b611d06611cf7565b611d11818484611cd2565b505050565b5b81811015611d3457611d295f82611cfe565b600181019050611d17565b5050565b601f821115611d7957611d4a81611c21565b611d5384611c33565b81016020851015611d62578190505b611d76611d6e85611c33565b830182611d16565b50505b505050565b5f82821c905092915050565b5f611d995f1984600802611d7e565b1980831691505092915050565b5f611db18383611d8a565b9150826002028217905092915050565b611dca82611499565b67ffffffffffffffff811115611de357611de26116b7565b5b611ded8254611a66565b611df8828285611d38565b5f60209050601f831160018114611e29575f8415611e17578287015190505b611e218582611da6565b865550611e88565b601f198416611e3786611c21565b5f5b82811015611e5e57848901518255600182019150602085019450602081019050611e39565b86831015611e7b5784890151611e77601f891682611d8a565b8355505b6001600288020188555050505b505050505050565b7f4e487b71000000000000000000000000000000000000000000000000000000005f52601160045260245ffd5b5f611ec78261143b565b9150611ed28361143b565b9250828203905081811115611eea57611ee9611e90565b5b92915050565b7f50726f706f73616c7320726567697374726174696f6e206e6f742073746172745f8201527f6564000000000000000000000000000000000000000000000000000000000000602082015250565b5f611f4a6022836114a3565b9150611f5582611ef0565b604082019050919050565b5f6020820190508181035f830152611f7781611f3e565b9050919050565b5f604082019050611f915f8301856118ae565b611f9e60208301846118ae565b9392505050565b7f566f74696e672073657373696f6e206e6f7420737461727465640000000000005f82015250565b5f611fd9601a836114a3565b9150611fe482611fa5565b602082019050919050565b5f6020820190508181035f83015261200681611fcd565b9050919050565b7f726567697374726174696f6e20646964206e6f742073746172746564000000005f82015250565b5f612041601c836114a3565b915061204c8261200d565b602082019050919050565b5f6020820190508181035f83015261206e81612035565b9050919050565b7f796f7520617265206e6f742072656769737465726564000000000000000000005f82015250565b5f6120a96016836114a3565b91506120b482612075565b602082019050919050565b5f6020820190508181035f8301526120d68161209d565b9050919050565b7f646f20796f75206861766520616c726561647920766f746500000000000000005f82015250565b5f6121116018836114a3565b915061211c826120dd565b602082019050919050565b5f6020820190508181035f83015261213e81612105565b9050919050565b5f61214f8261143b565b91507fffffffffffffffffffffffffffffffffffffffffffffffffffffffffffffffff820361218157612180611e90565b5b600182019050919050565b5f60408201905061219f5f830185611822565b6121ac6020830184611509565b9392505050565b7f566f74696e672073657373696f6e206e6f7420656e64656400000000000000005f82015250565b5f6121e76018836114a3565b91506121f2826121b3565b602082019050919050565b5f6020820190508181035f830152612214816121db565b9050919050565b7f5265676973746572696e6720766f7465727320646964206e6f742073746172745f82015250565b5f61224f6020836114a3565b915061225a8261221b565b602082019050919050565b5f6020820190508181035f83015261227c81612243565b9050919050565b7f526567697374726174696f6e206e6f74207374617274656400000000000000005f82015250565b5f6122b76018836114a3565b91506122c282612283565b602082019050919050565b5f6020820190508181035f8301526122e4816122ab565b9050919050565b7f6164647265737320697320616c726561647920696e207468652077686974656c5f8201527f6973740000000000000000000000000000000000000000000000000000000000602082015250565b5f6123456023836114a3565b9150612350826122eb565b604082019050919050565b5f6020820190508181035f83015261237281612339565b9050919050565b7f50726f706f73616c7320726567697374726174696f6e206e6f7420656e6465645f82015250565b5f6123ad6020836114a3565b91506123b882612379565b602082019050919050565b5f6020820190508181035f8301526123da816123a1565b905091905056fea2646970667358221220c728d32ab1cec61f6823ded7be532a41531223833142474f95d422675360b7a664736f6c634300081e0033",
					"opcodes": "PUSH1 0x80 PUSH1 0x40 MSTORE CALLVALUE DUP1 ISZERO PUSH2 0xF JUMPI PUSH0 PUSH0 REVERT JUMPDEST POP CALLER PUSH0 PUSH20 0xFFFFFFFFFFFFFFFFFFFFFFFFFFFFFFFFFFFFFFFF AND DUP2 PUSH20 0xFFFFFFFFFFFFFFFFFFFFFFFFFFFFFFFFFFFFFFFF AND SUB PUSH2 0x81 JUMPI PUSH0 PUSH1 0x40 MLOAD PUSH32 0x1E4FBDF700000000000000000000000000000000000000000000000000000000 DUP2 MSTORE PUSH1 0x4 ADD PUSH2 0x78 SWAP2 SWAP1 PUSH2 0x196 JUMP JUMPDEST PUSH1 0x40 MLOAD DUP1 SWAP2 SUB SWAP1 REVERT JUMPDEST PUSH2 0x90 DUP2 PUSH2 0x96 PUSH1 0x20 SHL PUSH1 0x20 SHR JUMP JUMPDEST POP PUSH2 0x1AF JUMP JUMPDEST PUSH0 PUSH0 PUSH0 SWAP1 SLOAD SWAP1 PUSH2 0x100 EXP SWAP1 DIV PUSH20 0xFFFFFFFFFFFFFFFFFFFFFFFFFFFFFFFFFFFFFFFF AND SWAP1 POP DUP2 PUSH0 PUSH0 PUSH2 0x100 EXP DUP2 SLOAD DUP2 PUSH20 0xFFFFFFFFFFFFFFFFFFFFFFFFFFFFFFFFFFFFFFFF MUL NOT AND SWAP1 DUP4 PUSH20 0xFFFFFFFFFFFFFFFFFFFFFFFFFFFFFFFFFFFFFFFF AND MUL OR SWAP1 SSTORE POP DUP2 PUSH20 0xFFFFFFFFFFFFFFFFFFFFFFFFFFFFFFFFFFFFFFFF AND DUP2 PUSH20 0xFFFFFFFFFFFFFFFFFFFFFFFFFFFFFFFFFFFFFFFF AND PUSH32 0x8BE0079C531659141344CD1FD0A4F28419497F9722A3DAAFE3B4186F6B6457E0 PUSH1 0x40 MLOAD PUSH1 0x40 MLOAD DUP1 SWAP2 SUB SWAP1 LOG3 POP POP JUMP JUMPDEST PUSH0 PUSH20 0xFFFFFFFFFFFFFFFFFFFFFFFFFFFFFFFFFFFFFFFF DUP3 AND SWAP1 POP SWAP2 SWAP1 POP JUMP JUMPDEST PUSH0 PUSH2 0x180 DUP3 PUSH2 0x157 JUMP JUMPDEST SWAP1 POP SWAP2 SWAP1 POP JUMP JUMPDEST PUSH2 0x190 DUP2 PUSH2 0x176 JUMP JUMPDEST DUP3 MSTORE POP POP JUMP JUMPDEST PUSH0 PUSH1 0x20 DUP3 ADD SWAP1 POP PUSH2 0x1A9 PUSH0 DUP4 ADD DUP5 PUSH2 0x187 JUMP JUMPDEST SWAP3 SWAP2 POP POP JUMP JUMPDEST PUSH2 0x2417 DUP1 PUSH2 0x1BC PUSH0 CODECOPY PUSH0 RETURN INVALID PUSH1 0x80 PUSH1 0x40 MSTORE CALLVALUE DUP1 ISZERO PUSH2 0xF JUMPI PUSH0 PUSH0 REVERT JUMPDEST POP PUSH1 0x4 CALLDATASIZE LT PUSH2 0x135 JUMPI PUSH0 CALLDATALOAD PUSH1 0xE0 SHR DUP1 PUSH4 0xA3EC138D GT PUSH2 0xB6 JUMPI DUP1 PUSH4 0xCCEB68F5 GT PUSH2 0x7A JUMPI DUP1 PUSH4 0xCCEB68F5 EQ PUSH2 0x304 JUMPI DUP1 PUSH4 0xE09B8C79 EQ PUSH2 0x322 JUMPI DUP1 PUSH4 0xE43252D7 EQ PUSH2 0x32C JUMPI DUP1 PUSH4 0xEE74C678 EQ PUSH2 0x348 JUMPI DUP1 PUSH4 0xF2FDE38B EQ PUSH2 0x352 JUMPI DUP1 PUSH4 0xF75D64A6 EQ PUSH2 0x36E JUMPI PUSH2 0x135 JUMP JUMPDEST DUP1 PUSH4 0xA3EC138D EQ PUSH2 0x284 JUMPI DUP1 PUSH4 0xA7BFAB16 EQ PUSH2 0x2B6 JUMPI DUP1 PUSH4 0xC64963C5 EQ PUSH2 0x2C0 JUMPI DUP1 PUSH4 0xC8F5714E EQ PUSH2 0x2DE JUMPI DUP1 PUSH4 0xCC5A6668 EQ PUSH2 0x2FA JUMPI PUSH2 0x135 JUMP JUMPDEST DUP1 PUSH4 0x6C297445 GT PUSH2 0xFD JUMPI DUP1 PUSH4 0x6C297445 EQ PUSH2 0x204 JUMPI DUP1 PUSH4 0x715018A6 EQ PUSH2 0x20E JUMPI DUP1 PUSH4 0x8DA5CB5B EQ PUSH2 0x218 JUMPI DUP1 PUSH4 0x9B19251A EQ PUSH2 0x236 JUMPI DUP1 PUSH4 0xA1EDFFA2 EQ PUSH2 0x266 JUMPI PUSH2 0x135 JUMP JUMPDEST DUP1 PUSH4 0x13CF08B EQ PUSH2 0x139 JUMPI DUP1 PUSH4 0x37D1D389 EQ PUSH2 0x16A JUMPI DUP1 PUSH4 0x3AF32ABF EQ PUSH2 0x19A JUMPI DUP1 PUSH4 0x4394BA21 EQ PUSH2 0x1CA JUMPI DUP1 PUSH4 0x45BF58FD EQ PUSH2 0x1E8 JUMPI JUMPDEST PUSH0 PUSH0 REVERT JUMPDEST PUSH2 0x153 PUSH1 0x4 DUP1 CALLDATASIZE SUB DUP2 ADD SWAP1 PUSH2 0x14E SWAP2 SWAP1 PUSH2 0x146E JUMP JUMPDEST PUSH2 0x38C JUMP JUMPDEST PUSH1 0x40 MLOAD PUSH2 0x161 SWAP3 SWAP2 SWAP1 PUSH2 0x1518 JUMP JUMPDEST PUSH1 0x40 MLOAD DUP1 SWAP2 SUB SWAP1 RETURN JUMPDEST PUSH2 0x184 PUSH1 0x4 DUP1 CALLDATASIZE SUB DUP2 ADD SWAP1 PUSH2 0x17F SWAP2 SWAP1 PUSH2 0x146E JUMP JUMPDEST PUSH2 0x441 JUMP JUMPDEST PUSH1 0x40 MLOAD PUSH2 0x191 SWAP2 SWAP1 PUSH2 0x15D7 JUMP JUMPDEST PUSH1 0x40 MLOAD DUP1 SWAP2 SUB SWAP1 RETURN JUMPDEST PUSH2 0x1B4 PUSH1 0x4 DUP1 CALLDATASIZE SUB DUP2 ADD SWAP1 PUSH2 0x1AF SWAP2 SWAP1 PUSH2 0x1651 JUMP JUMPDEST PUSH2 0x55B JUMP JUMPDEST PUSH1 0x40 MLOAD PUSH2 0x1C1 SWAP2 SWAP1 PUSH2 0x1696 JUMP JUMPDEST PUSH1 0x40 MLOAD DUP1 SWAP2 SUB SWAP1 RETURN JUMPDEST PUSH2 0x1D2 PUSH2 0x5AD JUMP JUMPDEST PUSH1 0x40 MLOAD PUSH2 0x1DF SWAP2 SWAP1 PUSH2 0x15D7 JUMP JUMPDEST PUSH1 0x40 MLOAD DUP1 SWAP2 SUB SWAP1 RETURN JUMPDEST PUSH2 0x202 PUSH1 0x4 DUP1 CALLDATASIZE SUB DUP2 ADD SWAP1 PUSH2 0x1FD SWAP2 SWAP1 PUSH2 0x17DB JUMP JUMPDEST PUSH2 0x680 JUMP JUMPDEST STOP JUMPDEST PUSH2 0x20C PUSH2 0x826 JUMP JUMPDEST STOP JUMPDEST PUSH2 0x216 PUSH2 0x909 JUMP JUMPDEST STOP JUMPDEST PUSH2 0x220 PUSH2 0x91C JUMP JUMPDEST PUSH1 0x40 MLOAD PUSH2 0x22D SWAP2 SWAP1 PUSH2 0x1831 JUMP JUMPDEST PUSH1 0x40 MLOAD DUP1 SWAP2 SUB SWAP1 RETURN JUMPDEST PUSH2 0x250 PUSH1 0x4 DUP1 CALLDATASIZE SUB DUP2 ADD SWAP1 PUSH2 0x24B SWAP2 SWAP1 PUSH2 0x1651 JUMP JUMPDEST PUSH2 0x943 JUMP JUMPDEST PUSH1 0x40 MLOAD PUSH2 0x25D SWAP2 SWAP1 PUSH2 0x1696 JUMP JUMPDEST PUSH1 0x40 MLOAD DUP1 SWAP2 SUB SWAP1 RETURN JUMPDEST PUSH2 0x26E PUSH2 0x960 JUMP JUMPDEST PUSH1 0x40 MLOAD PUSH2 0x27B SWAP2 SWAP1 PUSH2 0x18BD JUMP JUMPDEST PUSH1 0x40 MLOAD DUP1 SWAP2 SUB SWAP1 RETURN JUMPDEST PUSH2 0x29E PUSH1 0x4 DUP1 CALLDATASIZE SUB DUP2 ADD SWAP1 PUSH2 0x299 SWAP2 SWAP1 PUSH2 0x1651 JUMP JUMPDEST PUSH2 0x972 JUMP JUMPDEST PUSH1 0x40 MLOAD PUSH2 0x2AD SWAP4 SWAP3 SWAP2 SWAP1 PUSH2 0x18D6 JUMP JUMPDEST PUSH1 0x40 MLOAD DUP1 SWAP2 SUB SWAP1 RETURN JUMPDEST PUSH2 0x2BE PUSH2 0x9B0 JUMP JUMPDEST STOP JUMPDEST PUSH2 0x2C8 PUSH2 0xA94 JUMP JUMPDEST PUSH1 0x40 MLOAD PUSH2 0x2D5 SWAP2 SWAP1 PUSH2 0x190B JUMP JUMPDEST PUSH1 0x40 MLOAD DUP1 SWAP2 SUB SWAP1 RETURN JUMPDEST PUSH2 0x2F8 PUSH1 0x4 DUP1 CALLDATASIZE SUB DUP2 ADD SWAP1 PUSH2 0x2F3 SWAP2 SWAP1 PUSH2 0x146E JUMP JUMPDEST PUSH2 0xA9A JUMP JUMPDEST STOP JUMPDEST PUSH2 0x302 PUSH2 0xCD5 JUMP JUMPDEST STOP JUMPDEST PUSH2 0x30C PUSH2 0xE0B JUMP JUMPDEST PUSH1 0x40 MLOAD PUSH2 0x319 SWAP2 SWAP1 PUSH2 0x1A19 JUMP JUMPDEST PUSH1 0x40 MLOAD DUP1 SWAP2 SUB SWAP1 RETURN JUMPDEST PUSH2 0x32A PUSH2 0xF00 JUMP JUMPDEST STOP JUMPDEST PUSH2 0x346 PUSH1 0x4 DUP1 CALLDATASIZE SUB DUP2 ADD SWAP1 PUSH2 0x341 SWAP2 SWAP1 PUSH2 0x1651 JUMP JUMPDEST PUSH2 0xFE2 JUMP JUMPDEST STOP JUMPDEST PUSH2 0x350 PUSH2 0x1145 JUMP JUMPDEST STOP JUMPDEST PUSH2 0x36C PUSH1 0x4 DUP1 CALLDATASIZE SUB DUP2 ADD SWAP1 PUSH2 0x367 SWAP2 SWAP1 PUSH2 0x1651 JUMP JUMPDEST PUSH2 0x1229 JUMP JUMPDEST STOP JUMPDEST PUSH2 0x376 PUSH2 0x12AD JUMP JUMPDEST PUSH1 0x40 MLOAD PUSH2 0x383 SWAP2 SWAP1 PUSH2 0x18BD JUMP JUMPDEST PUSH1 0x40 MLOAD DUP1 SWAP2 SUB SWAP1 RETURN JUMPDEST PUSH1 0x3 DUP2 DUP2 SLOAD DUP2 LT PUSH2 0x39B JUMPI PUSH0 DUP1 REVERT JUMPDEST SWAP1 PUSH0 MSTORE PUSH1 0x20 PUSH0 KECCAK256 SWAP1 PUSH1 0x2 MUL ADD PUSH0 SWAP2 POP SWAP1 POP DUP1 PUSH0 ADD DUP1 SLOAD PUSH2 0x3BA SWAP1 PUSH2 0x1A66 JUMP JUMPDEST DUP1 PUSH1 0x1F ADD PUSH1 0x20 DUP1 SWAP2 DIV MUL PUSH1 0x20 ADD PUSH1 0x40 MLOAD SWAP1 DUP2 ADD PUSH1 0x40 MSTORE DUP1 SWAP3 SWAP2 SWAP1 DUP2 DUP2 MSTORE PUSH1 0x20 ADD DUP3 DUP1 SLOAD PUSH2 0x3E6 SWAP1 PUSH2 0x1A66 JUMP JUMPDEST DUP1 ISZERO PUSH2 0x431 JUMPI DUP1 PUSH1 0x1F LT PUSH2 0x408 JUMPI PUSH2 0x100 DUP1 DUP4 SLOAD DIV MUL DUP4 MSTORE SWAP2 PUSH1 0x20 ADD SWAP2 PUSH2 0x431 JUMP JUMPDEST DUP3 ADD SWAP2 SWAP1 PUSH0 MSTORE PUSH1 0x20 PUSH0 KECCAK256 SWAP1 JUMPDEST DUP2 SLOAD DUP2 MSTORE SWAP1 PUSH1 0x1 ADD SWAP1 PUSH1 0x20 ADD DUP1 DUP4 GT PUSH2 0x414 JUMPI DUP3 SWAP1 SUB PUSH1 0x1F AND DUP3 ADD SWAP2 JUMPDEST POP POP POP POP POP SWAP1 DUP1 PUSH1 0x1 ADD SLOAD SWAP1 POP DUP3 JUMP JUMPDEST PUSH2 0x449 PUSH2 0x1411 JUMP JUMPDEST PUSH1 0x3 DUP1 SLOAD SWAP1 POP DUP3 LT PUSH2 0x490 JUMPI PUSH1 0x40 MLOAD PUSH32 0x8C379A000000000000000000000000000000000000000000000000000000000 DUP2 MSTORE PUSH1 0x4 ADD PUSH2 0x487 SWAP1 PUSH2 0x1AE0 JUMP JUMPDEST PUSH1 0x40 MLOAD DUP1 SWAP2 SUB SWAP1 REVERT JUMPDEST PUSH1 0x3 DUP3 DUP2 SLOAD DUP2 LT PUSH2 0x4A4 JUMPI PUSH2 0x4A3 PUSH2 0x1AFE JUMP JUMPDEST JUMPDEST SWAP1 PUSH0 MSTORE PUSH1 0x20 PUSH0 KECCAK256 SWAP1 PUSH1 0x2 MUL ADD PUSH1 0x40 MLOAD DUP1 PUSH1 0x40 ADD PUSH1 0x40 MSTORE SWAP1 DUP2 PUSH0 DUP3 ADD DUP1 SLOAD PUSH2 0x4CA SWAP1 PUSH2 0x1A66 JUMP JUMPDEST DUP1 PUSH1 0x1F ADD PUSH1 0x20 DUP1 SWAP2 DIV MUL PUSH1 0x20 ADD PUSH1 0x40 MLOAD SWAP1 DUP2 ADD PUSH1 0x40 MSTORE DUP1 SWAP3 SWAP2 SWAP1 DUP2 DUP2 MSTORE PUSH1 0x20 ADD DUP3 DUP1 SLOAD PUSH2 0x4F6 SWAP1 PUSH2 0x1A66 JUMP JUMPDEST DUP1 ISZERO PUSH2 0x541 JUMPI DUP1 PUSH1 0x1F LT PUSH2 0x518 JUMPI PUSH2 0x100 DUP1 DUP4 SLOAD DIV MUL DUP4 MSTORE SWAP2 PUSH1 0x20 ADD SWAP2 PUSH2 0x541 JUMP JUMPDEST DUP3 ADD SWAP2 SWAP1 PUSH0 MSTORE PUSH1 0x20 PUSH0 KECCAK256 SWAP1 JUMPDEST DUP2 SLOAD DUP2 MSTORE SWAP1 PUSH1 0x1 ADD SWAP1 PUSH1 0x20 ADD DUP1 DUP4 GT PUSH2 0x524 JUMPI DUP3 SWAP1 SUB PUSH1 0x1F AND DUP3 ADD SWAP2 JUMPDEST POP POP POP POP POP DUP2 MSTORE PUSH1 0x20 ADD PUSH1 0x1 DUP3 ADD SLOAD DUP2 MSTORE POP POP SWAP1 POP SWAP2 SWAP1 POP JUMP JUMPDEST PUSH0 PUSH1 0x4 PUSH0 DUP4 PUSH20 0xFFFFFFFFFFFFFFFFFFFFFFFFFFFFFFFFFFFFFFFF AND PUSH20 0xFFFFFFFFFFFFFFFFFFFFFFFFFFFFFFFFFFFFFFFF AND DUP2 MSTORE PUSH1 0x20 ADD SWAP1 DUP2 MSTORE PUSH1 0x20 ADD PUSH0 KECCAK256 PUSH0 SWAP1 SLOAD SWAP1 PUSH2 0x100 EXP SWAP1 DIV PUSH1 0xFF AND SWAP1 POP SWAP2 SWAP1 POP JUMP JUMPDEST PUSH2 0x5B5 PUSH2 0x1411 JUMP JUMPDEST PUSH1 0x3 PUSH1 0x1 SLOAD DUP2 SLOAD DUP2 LT PUSH2 0x5CB JUMPI PUSH2 0x5CA PUSH2 0x1AFE JUMP JUMPDEST JUMPDEST SWAP1 PUSH0 MSTORE PUSH1 0x20 PUSH0 KECCAK256 SWAP1 PUSH1 0x2 MUL ADD PUSH1 0x40 MLOAD DUP1 PUSH1 0x40 ADD PUSH1 0x40 MSTORE SWAP1 DUP2 PUSH0 DUP3 ADD DUP1 SLOAD PUSH2 0x5F1 SWAP1 PUSH2 0x1A66 JUMP JUMPDEST DUP1 PUSH1 0x1F ADD PUSH1 0x20 DUP1 SWAP2 DIV MUL PUSH1 0x20 ADD PUSH1 0x40 MLOAD SWAP1 DUP2 ADD PUSH1 0x40 MSTORE DUP1 SWAP3 SWAP2 SWAP1 DUP2 DUP2 MSTORE PUSH1 0x20 ADD DUP3 DUP1 SLOAD PUSH2 0x61D SWAP1 PUSH2 0x1A66 JUMP JUMPDEST DUP1 ISZERO PUSH2 0x668 JUMPI DUP1 PUSH1 0x1F LT PUSH2 0x63F JUMPI PUSH2 0x100 DUP1 DUP4 SLOAD DIV MUL DUP4 MSTORE SWAP2 PUSH1 0x20 ADD SWAP2 PUSH2 0x668 JUMP JUMPDEST DUP3 ADD SWAP2 SWAP1 PUSH0 MSTORE PUSH1 0x20 PUSH0 KECCAK256 SWAP1 JUMPDEST DUP2 SLOAD DUP2 MSTORE SWAP1 PUSH1 0x1 ADD SWAP1 PUSH1 0x20 ADD DUP1 DUP4 GT PUSH2 0x64B JUMPI DUP3 SWAP1 SUB PUSH1 0x1F AND DUP3 ADD SWAP2 JUMPDEST POP POP POP POP POP DUP2 MSTORE PUSH1 0x20 ADD PUSH1 0x1 DUP3 ADD SLOAD DUP2 MSTORE POP POP SWAP1 POP SWAP1 JUMP JUMPDEST PUSH1 0x1 PUSH1 0x5 DUP2 GT ISZERO PUSH2 0x694 JUMPI PUSH2 0x693 PUSH2 0x184A JUMP JUMPDEST JUMPDEST PUSH1 0x2 PUSH0 SWAP1 SLOAD SWAP1 PUSH2 0x100 EXP SWAP1 DIV PUSH1 0xFF AND PUSH1 0x5 DUP2 GT ISZERO PUSH2 0x6B5 JUMPI PUSH2 0x6B4 PUSH2 0x184A JUMP JUMPDEST JUMPDEST EQ PUSH2 0x6F5 JUMPI PUSH1 0x40 MLOAD PUSH32 0x8C379A000000000000000000000000000000000000000000000000000000000 DUP2 MSTORE PUSH1 0x4 ADD PUSH2 0x6EC SWAP1 PUSH2 0x1B9B JUMP JUMPDEST PUSH1 0x40 MLOAD DUP1 SWAP2 SUB SWAP1 REVERT JUMPDEST PUSH1 0x4 PUSH0 CALLER PUSH20 0xFFFFFFFFFFFFFFFFFFFFFFFFFFFFFFFFFFFFFFFF AND PUSH20 0xFFFFFFFFFFFFFFFFFFFFFFFFFFFFFFFFFFFFFFFF AND DUP2 MSTORE PUSH1 0x20 ADD SWAP1 DUP2 MSTORE PUSH1 0x20 ADD PUSH0 KECCAK256 PUSH0 SWAP1 SLOAD SWAP1 PUSH2 0x100 EXP SWAP1 DIV PUSH1 0xFF AND PUSH2 0x77E JUMPI PUSH1 0x40 MLOAD PUSH32 0x8C379A000000000000000000000000000000000000000000000000000000000 DUP2 MSTORE PUSH1 0x4 ADD PUSH2 0x775 SWAP1 PUSH2 0x1C03 JUMP JUMPDEST PUSH1 0x40 MLOAD DUP1 SWAP2 SUB SWAP1 REVERT JUMPDEST PUSH1 0x3 PUSH1 0x40 MLOAD DUP1 PUSH1 0x40 ADD PUSH1 0x40 MSTORE DUP1 DUP4 DUP2 MSTORE PUSH1 0x20 ADD PUSH0 DUP2 MSTORE POP SWAP1 DUP1 PUSH1 0x1 DUP2 SLOAD ADD DUP1 DUP3 SSTORE DUP1 SWAP2 POP POP PUSH1 0x1 SWAP1 SUB SWAP1 PUSH0 MSTORE PUSH1 0x20 PUSH0 KECCAK256 SWAP1 PUSH1 0x2 MUL ADD PUSH0 SWAP1 SWAP2 SWAP1 SWAP2 SWAP1 SWAP2 POP PUSH0 DUP3 ADD MLOAD DUP2 PUSH0 ADD SWAP1 DUP2 PUSH2 0x7CE SWAP2 SWAP1 PUSH2 0x1DC1 JUMP JUMPDEST POP PUSH1 0x20 DUP3 ADD MLOAD DUP2 PUSH1 0x1 ADD SSTORE POP POP PUSH32 0x92E393E9B54E2F801D3EA4BEB0C5E71A21CC34A5D34B77D0FB8A3AA1650DC18F PUSH1 0x1 PUSH1 0x3 DUP1 SLOAD SWAP1 POP PUSH2 0x80E SWAP2 SWAP1 PUSH2 0x1EBD JUMP JUMPDEST PUSH1 0x40 MLOAD PUSH2 0x81B SWAP2 SWAP1 PUSH2 0x190B JUMP JUMPDEST PUSH1 0x40 MLOAD DUP1 SWAP2 SUB SWAP1 LOG1 POP JUMP JUMPDEST PUSH2 0x82E PUSH2 0x12C2 JUMP JUMPDEST PUSH1 0x1 PUSH1 0x5 DUP2 GT ISZERO PUSH2 0x842 JUMPI PUSH2 0x841 PUSH2 0x184A JUMP JUMPDEST JUMPDEST PUSH1 0x2 PUSH0 SWAP1 SLOAD SWAP1 PUSH2 0x100 EXP SWAP1 DIV PUSH1 0xFF AND PUSH1 0x5 DUP2 GT ISZERO PUSH2 0x863 JUMPI PUSH2 0x862 PUSH2 0x184A JUMP JUMPDEST JUMPDEST EQ PUSH2 0x8A3 JUMPI PUSH1 0x40 MLOAD PUSH32 0x8C379A000000000000000000000000000000000000000000000000000000000 DUP2 MSTORE PUSH1 0x4 ADD PUSH2 0x89A SWAP1 PUSH2 0x1F60 JUMP JUMPDEST PUSH1 0x40 MLOAD DUP1 SWAP2 SUB SWAP1 REVERT JUMPDEST PUSH1 0x2 DUP1 PUSH0 PUSH2 0x100 EXP DUP2 SLOAD DUP2 PUSH1 0xFF MUL NOT AND SWAP1 DUP4 PUSH1 0x5 DUP2 GT ISZERO PUSH2 0x8C7 JUMPI PUSH2 0x8C6 PUSH2 0x184A JUMP JUMPDEST JUMPDEST MUL OR SWAP1 SSTORE POP PUSH32 0xA97A4EE45751E2ABF3E4FC8946939630B11B371EA8AE39CCDC3056E98F5CC3F PUSH1 0x1 PUSH1 0x2 PUSH1 0x40 MLOAD PUSH2 0x8FF SWAP3 SWAP2 SWAP1 PUSH2 0x1F7E JUMP JUMPDEST PUSH1 0x40 MLOAD DUP1 SWAP2 SUB SWAP1 LOG1 JUMP JUMPDEST PUSH2 0x911 PUSH2 0x12C2 JUMP JUMPDEST PUSH2 0x91A PUSH0 PUSH2 0x1349 JUMP JUMPDEST JUMP JUMPDEST PUSH0 PUSH0 PUSH0 SWAP1 SLOAD SWAP1 PUSH2 0x100 EXP SWAP1 DIV PUSH20 0xFFFFFFFFFFFFFFFFFFFFFFFFFFFFFFFFFFFFFFFF AND SWAP1 POP SWAP1 JUMP JUMPDEST PUSH1 0x4 PUSH1 0x20 MSTORE DUP1 PUSH0 MSTORE PUSH1 0x40 PUSH0 KECCAK256 PUSH0 SWAP2 POP SLOAD SWAP1 PUSH2 0x100 EXP SWAP1 DIV PUSH1 0xFF AND DUP2 JUMP JUMPDEST PUSH1 0x2 PUSH0 SWAP1 SLOAD SWAP1 PUSH2 0x100 EXP SWAP1 DIV PUSH1 0xFF AND DUP2 JUMP JUMPDEST PUSH1 0x5 PUSH1 0x20 MSTORE DUP1 PUSH0 MSTORE PUSH1 0x40 PUSH0 KECCAK256 PUSH0 SWAP2 POP SWAP1 POP DUP1 PUSH0 ADD PUSH0 SWAP1 SLOAD SWAP1 PUSH2 0x100 EXP SWAP1 DIV PUSH1 0xFF AND SWAP1 DUP1 PUSH0 ADD PUSH1 0x1 SWAP1 SLOAD SWAP1 PUSH2 0x100 EXP SWAP1 DIV PUSH1 0xFF AND SWAP1 DUP1 PUSH1 0x1 ADD SLOAD SWAP1 POP DUP4 JUMP JUMPDEST PUSH2 0x9B8 PUSH2 0x12C2 JUMP JUMPDEST PUSH1 0x3 PUSH1 0x5 DUP2 GT ISZERO PUSH2 0x9CC JUMPI PUSH2 0x9CB PUSH2 0x184A JUMP JUMPDEST JUMPDEST PUSH1 0x2 PUSH0 SWAP1 SLOAD SWAP1 PUSH2 0x100 EXP SWAP1 DIV PUSH1 0xFF AND PUSH1 0x5 DUP2 GT ISZERO PUSH2 0x9ED JUMPI PUSH2 0x9EC PUSH2 0x184A JUMP JUMPDEST JUMPDEST EQ PUSH2 0xA2D JUMPI PUSH1 0x40 MLOAD PUSH32 0x8C379A000000000000000000000000000000000000000000000000000000000 DUP2 MSTORE PUSH1 0x4 ADD PUSH2 0xA24 SWAP1 PUSH2 0x1FEF JUMP JUMPDEST PUSH1 0x40 MLOAD DUP1 SWAP2 SUB SWAP1 REVERT JUMPDEST PUSH1 0x4 PUSH1 0x2 PUSH0 PUSH2 0x100 EXP DUP2 SLOAD DUP2 PUSH1 0xFF MUL NOT AND SWAP1 DUP4 PUSH1 0x5 DUP2 GT ISZERO PUSH2 0xA52 JUMPI PUSH2 0xA51 PUSH2 0x184A JUMP JUMPDEST JUMPDEST MUL OR SWAP1 SSTORE POP PUSH32 0xA97A4EE45751E2ABF3E4FC8946939630B11B371EA8AE39CCDC3056E98F5CC3F PUSH1 0x3 PUSH1 0x4 PUSH1 0x40 MLOAD PUSH2 0xA8A SWAP3 SWAP2 SWAP1 PUSH2 0x1F7E JUMP JUMPDEST PUSH1 0x40 MLOAD DUP1 SWAP2 SUB SWAP1 LOG1 JUMP JUMPDEST PUSH1 0x1 SLOAD DUP2 JUMP JUMPDEST PUSH1 0x3 PUSH1 0x5 DUP2 GT ISZERO PUSH2 0xAAE JUMPI PUSH2 0xAAD PUSH2 0x184A JUMP JUMPDEST JUMPDEST PUSH1 0x2 PUSH0 SWAP1 SLOAD SWAP1 PUSH2 0x100 EXP SWAP1 DIV PUSH1 0xFF AND PUSH1 0x5 DUP2 GT ISZERO PUSH2 0xACF JUMPI PUSH2 0xACE PUSH2 0x184A JUMP JUMPDEST JUMPDEST EQ PUSH2 0xB0F JUMPI PUSH1 0x40 MLOAD PUSH32 0x8C379A000000000000000000000000000000000000000000000000000000000 DUP2 MSTORE PUSH1 0x4 ADD PUSH2 0xB06 SWAP1 PUSH2 0x2057 JUMP JUMPDEST PUSH1 0x40 MLOAD DUP1 SWAP2 SUB SWAP1 REVERT JUMPDEST PUSH1 0x3 DUP1 SLOAD SWAP1 POP DUP2 LT PUSH2 0xB56 JUMPI PUSH1 0x40 MLOAD PUSH32 0x8C379A000000000000000000000000000000000000000000000000000000000 DUP2 MSTORE PUSH1 0x4 ADD PUSH2 0xB4D SWAP1 PUSH2 0x1AE0 JUMP JUMPDEST PUSH1 0x40 MLOAD DUP1 SWAP2 SUB SWAP1 REVERT JUMPDEST PUSH0 PUSH1 0x5 PUSH0 CALLER PUSH20 0xFFFFFFFFFFFFFFFFFFFFFFFFFFFFFFFFFFFFFFFF AND PUSH20 0xFFFFFFFFFFFFFFFFFFFFFFFFFFFFFFFFFFFFFFFF AND DUP2 MSTORE PUSH1 0x20 ADD SWAP1 DUP2 MSTORE PUSH1 0x20 ADD PUSH0 KECCAK256 SWAP1 POP DUP1 PUSH0 ADD PUSH0 SWAP1 SLOAD SWAP1 PUSH2 0x100 EXP SWAP1 DIV PUSH1 0xFF AND PUSH2 0xBE5 JUMPI PUSH1 0x40 MLOAD PUSH32 0x8C379A000000000000000000000000000000000000000000000000000000000 DUP2 MSTORE PUSH1 0x4 ADD PUSH2 0xBDC SWAP1 PUSH2 0x20BF JUMP JUMPDEST PUSH1 0x40 MLOAD DUP1 SWAP2 SUB SWAP1 REVERT JUMPDEST DUP1 PUSH0 ADD PUSH1 0x1 SWAP1 SLOAD SWAP1 PUSH2 0x100 EXP SWAP1 DIV PUSH1 0xFF AND ISZERO PUSH2 0xC36 JUMPI PUSH1 0x40 MLOAD PUSH32 0x8C379A000000000000000000000000000000000000000000000000000000000 DUP2 MSTORE PUSH1 0x4 ADD PUSH2 0xC2D SWAP1 PUSH2 0x2127 JUMP JUMPDEST PUSH1 0x40 MLOAD DUP1 SWAP2 SUB SWAP1 REVERT JUMPDEST PUSH0 PUSH1 0x3 DUP4 DUP2 SLOAD DUP2 LT PUSH2 0xC4B JUMPI PUSH2 0xC4A PUSH2 0x1AFE JUMP JUMPDEST JUMPDEST SWAP1 PUSH0 MSTORE PUSH1 0x20 PUSH0 KECCAK256 SWAP1 PUSH1 0x2 MUL ADD SWAP1 POP DUP1 PUSH1 0x1 ADD PUSH0 DUP2 SLOAD DUP1 SWAP3 SWAP2 SWAP1 PUSH2 0xC6D SWAP1 PUSH2 0x2145 JUMP JUMPDEST SWAP2 SWAP1 POP SSTORE POP PUSH1 0x1 DUP3 PUSH0 ADD PUSH1 0x1 PUSH2 0x100 EXP DUP2 SLOAD DUP2 PUSH1 0xFF MUL NOT AND SWAP1 DUP4 ISZERO ISZERO MUL OR SWAP1 SSTORE POP DUP3 DUP3 PUSH1 0x1 ADD DUP2 SWAP1 SSTORE POP PUSH32 0x4D99B957A2BC29A30EBD96A7BE8E68FE50A3C701DB28A91436490B7D53870CA4 CALLER DUP5 PUSH1 0x40 MLOAD PUSH2 0xCC8 SWAP3 SWAP2 SWAP1 PUSH2 0x218C JUMP JUMPDEST PUSH1 0x40 MLOAD DUP1 SWAP2 SUB SWAP1 LOG1 POP POP POP JUMP JUMPDEST PUSH1 0x4 PUSH1 0x5 DUP2 GT ISZERO PUSH2 0xCE9 JUMPI PUSH2 0xCE8 PUSH2 0x184A JUMP JUMPDEST JUMPDEST PUSH1 0x2 PUSH0 SWAP1 SLOAD SWAP1 PUSH2 0x100 EXP SWAP1 DIV PUSH1 0xFF AND PUSH1 0x5 DUP2 GT ISZERO PUSH2 0xD0A JUMPI PUSH2 0xD09 PUSH2 0x184A JUMP JUMPDEST JUMPDEST EQ PUSH2 0xD4A JUMPI PUSH1 0x40 MLOAD PUSH32 0x8C379A000000000000000000000000000000000000000000000000000000000 DUP2 MSTORE PUSH1 0x4 ADD PUSH2 0xD41 SWAP1 PUSH2 0x21FD JUMP JUMPDEST PUSH1 0x40 MLOAD DUP1 SWAP2 SUB SWAP1 REVERT JUMPDEST PUSH0 PUSH0 PUSH0 PUSH0 SWAP1 POP JUMPDEST PUSH1 0x3 DUP1 SLOAD SWAP1 POP DUP2 LT ISZERO PUSH2 0xD9A JUMPI DUP2 PUSH1 0x3 DUP3 DUP2 SLOAD DUP2 LT PUSH2 0xD73 JUMPI PUSH2 0xD72 PUSH2 0x1AFE JUMP JUMPDEST JUMPDEST SWAP1 PUSH0 MSTORE PUSH1 0x20 PUSH0 KECCAK256 SWAP1 PUSH1 0x2 MUL ADD PUSH1 0x1 ADD SLOAD GT ISZERO PUSH2 0xD8D JUMPI DUP1 SWAP3 POP JUMPDEST DUP1 DUP1 PUSH1 0x1 ADD SWAP2 POP POP PUSH2 0xD51 JUMP JUMPDEST POP DUP2 PUSH1 0x1 DUP2 SWAP1 SSTORE POP PUSH1 0x5 PUSH1 0x2 PUSH0 PUSH2 0x100 EXP DUP2 SLOAD DUP2 PUSH1 0xFF MUL NOT AND SWAP1 DUP4 PUSH1 0x5 DUP2 GT ISZERO PUSH2 0xDC7 JUMPI PUSH2 0xDC6 PUSH2 0x184A JUMP JUMPDEST JUMPDEST MUL OR SWAP1 SSTORE POP PUSH32 0xA97A4EE45751E2ABF3E4FC8946939630B11B371EA8AE39CCDC3056E98F5CC3F PUSH1 0x4 PUSH1 0x5 PUSH1 0x40 MLOAD PUSH2 0xDFF SWAP3 SWAP2 SWAP1 PUSH2 0x1F7E JUMP JUMPDEST PUSH1 0x40 MLOAD DUP1 SWAP2 SUB SWAP1 LOG1 POP POP JUMP JUMPDEST PUSH1 0x60 PUSH1 0x3 DUP1 SLOAD DUP1 PUSH1 0x20 MUL PUSH1 0x20 ADD PUSH1 0x40 MLOAD SWAP1 DUP2 ADD PUSH1 0x40 MSTORE DUP1 SWAP3 SWAP2 SWAP1 DUP2 DUP2 MSTORE PUSH1 0x20 ADD PUSH0 SWAP1 JUMPDEST DUP3 DUP3 LT ISZERO PUSH2 0xEF7 JUMPI DUP4 DUP3 SWAP1 PUSH0 MSTORE PUSH1 0x20 PUSH0 KECCAK256 SWAP1 PUSH1 0x2 MUL ADD PUSH1 0x40 MLOAD DUP1 PUSH1 0x40 ADD PUSH1 0x40 MSTORE SWAP1 DUP2 PUSH0 DUP3 ADD DUP1 SLOAD PUSH2 0xE5E SWAP1 PUSH2 0x1A66 JUMP JUMPDEST DUP1 PUSH1 0x1F ADD PUSH1 0x20 DUP1 SWAP2 DIV MUL PUSH1 0x20 ADD PUSH1 0x40 MLOAD SWAP1 DUP2 ADD PUSH1 0x40 MSTORE DUP1 SWAP3 SWAP2 SWAP1 DUP2 DUP2 MSTORE PUSH1 0x20 ADD DUP3 DUP1 SLOAD PUSH2 0xE8A SWAP1 PUSH2 0x1A66 JUMP JUMPDEST DUP1 ISZERO PUSH2 0xED5 JUMPI DUP1 PUSH1 0x1F LT PUSH2 0xEAC JUMPI PUSH2 0x100 DUP1 DUP4 SLOAD DIV MUL DUP4 MSTORE SWAP2 PUSH1 0x20 ADD SWAP2 PUSH2 0xED5 JUMP JUMPDEST DUP3 ADD SWAP2 SWAP1 PUSH0 MSTORE PUSH1 0x20 PUSH0 KECCAK256 SWAP1 JUMPDEST DUP2 SLOAD DUP2 MSTORE SWAP1 PUSH1 0x1 ADD SWAP1 PUSH1 0x20 ADD DUP1 DUP4 GT PUSH2 0xEB8 JUMPI DUP3 SWAP1 SUB PUSH1 0x1F AND DUP3 ADD SWAP2 JUMPDEST POP POP POP POP POP DUP2 MSTORE PUSH1 0x20 ADD PUSH1 0x1 DUP3 ADD SLOAD DUP2 MSTORE POP POP DUP2 MSTORE PUSH1 0x20 ADD SWAP1 PUSH1 0x1 ADD SWAP1 PUSH2 0xE2E JUMP JUMPDEST POP POP POP POP SWAP1 POP SWAP1 JUMP JUMPDEST PUSH2 0xF08 PUSH2 0x12C2 JUMP JUMPDEST PUSH0 PUSH1 0x5 DUP2 GT ISZERO PUSH2 0xF1B JUMPI PUSH2 0xF1A PUSH2 0x184A JUMP JUMPDEST JUMPDEST PUSH1 0x2 PUSH0 SWAP1 SLOAD SWAP1 PUSH2 0x100 EXP SWAP1 DIV PUSH1 0xFF AND PUSH1 0x5 DUP2 GT ISZERO PUSH2 0xF3C JUMPI PUSH2 0xF3B PUSH2 0x184A JUMP JUMPDEST JUMPDEST EQ PUSH2 0xF7C JUMPI PUSH1 0x40 MLOAD PUSH32 0x8C379A000000000000000000000000000000000000000000000000000000000 DUP2 MSTORE PUSH1 0x4 ADD PUSH2 0xF73 SWAP1 PUSH2 0x2265 JUMP JUMPDEST PUSH1 0x40 MLOAD DUP1 SWAP2 SUB SWAP1 REVERT JUMPDEST PUSH1 0x1 PUSH1 0x2 PUSH0 PUSH2 0x100 EXP DUP2 SLOAD DUP2 PUSH1 0xFF MUL NOT AND SWAP1 DUP4 PUSH1 0x5 DUP2 GT ISZERO PUSH2 0xFA1 JUMPI PUSH2 0xFA0 PUSH2 0x184A JUMP JUMPDEST JUMPDEST MUL OR SWAP1 SSTORE POP PUSH32 0xA97A4EE45751E2ABF3E4FC8946939630B11B371EA8AE39CCDC3056E98F5CC3F PUSH0 PUSH1 0x1 PUSH1 0x40 MLOAD PUSH2 0xFD8 SWAP3 SWAP2 SWAP1 PUSH2 0x1F7E JUMP JUMPDEST PUSH1 0x40 MLOAD DUP1 SWAP2 SUB SWAP1 LOG1 JUMP JUMPDEST PUSH2 0xFEA PUSH2 0x12C2 JUMP JUMPDEST PUSH0 PUSH1 0x5 DUP2 GT ISZERO PUSH2 0xFFD JUMPI PUSH2 0xFFC PUSH2 0x184A JUMP JUMPDEST JUMPDEST PUSH1 0x2 PUSH0 SWAP1 SLOAD SWAP1 PUSH2 0x100 EXP SWAP1 DIV PUSH1 0xFF AND PUSH1 0x5 DUP2 GT ISZERO PUSH2 0x101E JUMPI PUSH2 0x101D PUSH2 0x184A JUMP JUMPDEST JUMPDEST EQ PUSH2 0x105E JUMPI PUSH1 0x40 MLOAD PUSH32 0x8C379A000000000000000000000000000000000000000000000000000000000 DUP2 MSTORE PUSH1 0x4 ADD PUSH2 0x1055 SWAP1 PUSH2 0x22CD JUMP JUMPDEST PUSH1 0x40 MLOAD DUP1 SWAP2 SUB SWAP1 REVERT JUMPDEST PUSH0 ISZERO ISZERO PUSH1 0x4 PUSH0 DUP4 PUSH20 0xFFFFFFFFFFFFFFFFFFFFFFFFFFFFFFFFFFFFFFFF AND PUSH20 0xFFFFFFFFFFFFFFFFFFFFFFFFFFFFFFFFFFFFFFFF AND DUP2 MSTORE PUSH1 0x20 ADD SWAP1 DUP2 MSTORE PUSH1 0x20 ADD PUSH0 KECCAK256 PUSH0 SWAP1 SLOAD SWAP1 PUSH2 0x100 EXP SWAP1 DIV PUSH1 0xFF AND ISZERO ISZERO EQ PUSH2 0x10ED JUMPI PUSH1 0x40 MLOAD PUSH32 0x8C379A000000000000000000000000000000000000000000000000000000000 DUP2 MSTORE PUSH1 0x4 ADD PUSH2 0x10E4 SWAP1 PUSH2 0x235B JUMP JUMPDEST PUSH1 0x40 MLOAD DUP1 SWAP2 SUB SWAP1 REVERT JUMPDEST PUSH1 0x1 PUSH1 0x4 PUSH0 DUP4 PUSH20 0xFFFFFFFFFFFFFFFFFFFFFFFFFFFFFFFFFFFFFFFF AND PUSH20 0xFFFFFFFFFFFFFFFFFFFFFFFFFFFFFFFFFFFFFFFF AND DUP2 MSTORE PUSH1 0x20 ADD SWAP1 DUP2 MSTORE PUSH1 0x20 ADD PUSH0 KECCAK256 PUSH0 PUSH2 0x100 EXP DUP2 SLOAD DUP2 PUSH1 0xFF MUL NOT AND SWAP1 DUP4 ISZERO ISZERO MUL OR SWAP1 SSTORE POP POP JUMP JUMPDEST PUSH2 0x114D PUSH2 0x12C2 JUMP JUMPDEST PUSH1 0x2 PUSH1 0x5 DUP2 GT ISZERO PUSH2 0x1161 JUMPI PUSH2 0x1160 PUSH2 0x184A JUMP JUMPDEST JUMPDEST PUSH1 0x2 PUSH0 SWAP1 SLOAD SWAP1 PUSH2 0x100 EXP SWAP1 DIV PUSH1 0xFF AND PUSH1 0x5 DUP2 GT ISZERO PUSH2 0x1182 JUMPI PUSH2 0x1181 PUSH2 0x184A JUMP JUMPDEST JUMPDEST EQ PUSH2 0x11C2 JUMPI PUSH1 0x40 MLOAD PUSH32 0x8C379A000000000000000000000000000000000000000000000000000000000 DUP2 MSTORE PUSH1 0x4 ADD PUSH2 0x11B9 SWAP1 PUSH2 0x23C3 JUMP JUMPDEST PUSH1 0x40 MLOAD DUP1 SWAP2 SUB SWAP1 REVERT JUMPDEST PUSH1 0x3 PUSH1 0x2 PUSH0 PUSH2 0x100 EXP DUP2 SLOAD DUP2 PUSH1 0xFF MUL NOT AND SWAP1 DUP4 PUSH1 0x5 DUP2 GT ISZERO PUSH2 0x11E7 JUMPI PUSH2 0x11E6 PUSH2 0x184A JUMP JUMPDEST JUMPDEST MUL OR SWAP1 SSTORE POP PUSH32 0xA97A4EE45751E2ABF3E4FC8946939630B11B371EA8AE39CCDC3056E98F5CC3F PUSH1 0x2 PUSH1 0x3 PUSH1 0x40 MLOAD PUSH2 0x121F SWAP3 SWAP2 SWAP1 PUSH2 0x1F7E JUMP JUMPDEST PUSH1 0x40 MLOAD DUP1 SWAP2 SUB SWAP1 LOG1 JUMP JUMPDEST PUSH2 0x1231 PUSH2 0x12C2 JUMP JUMPDEST PUSH0 PUSH20 0xFFFFFFFFFFFFFFFFFFFFFFFFFFFFFFFFFFFFFFFF AND DUP2 PUSH20 0xFFFFFFFFFFFFFFFFFFFFFFFFFFFFFFFFFFFFFFFF AND SUB PUSH2 0x12A1 JUMPI PUSH0 PUSH1 0x40 MLOAD PUSH32 0x1E4FBDF700000000000000000000000000000000000000000000000000000000 DUP2 MSTORE PUSH1 0x4 ADD PUSH2 0x1298 SWAP2 SWAP1 PUSH2 0x1831 JUMP JUMPDEST PUSH1 0x40 MLOAD DUP1 SWAP2 SUB SWAP1 REVERT JUMPDEST PUSH2 0x12AA DUP2 PUSH2 0x1349 JUMP JUMPDEST POP JUMP JUMPDEST PUSH0 PUSH1 0x2 PUSH0 SWAP1 SLOAD SWAP1 PUSH2 0x100 EXP SWAP1 DIV PUSH1 0xFF AND SWAP1 POP SWAP1 JUMP JUMPDEST PUSH2 0x12CA PUSH2 0x140A JUMP JUMPDEST PUSH20 0xFFFFFFFFFFFFFFFFFFFFFFFFFFFFFFFFFFFFFFFF AND PUSH2 0x12E8 PUSH2 0x91C JUMP JUMPDEST PUSH20 0xFFFFFFFFFFFFFFFFFFFFFFFFFFFFFFFFFFFFFFFF AND EQ PUSH2 0x1347 JUMPI PUSH2 0x130B PUSH2 0x140A JUMP JUMPDEST PUSH1 0x40 MLOAD PUSH32 0x118CDAA700000000000000000000000000000000000000000000000000000000 DUP2 MSTORE PUSH1 0x4 ADD PUSH2 0x133E SWAP2 SWAP1 PUSH2 0x1831 JUMP JUMPDEST PUSH1 0x40 MLOAD DUP1 SWAP2 SUB SWAP1 REVERT JUMPDEST JUMP JUMPDEST PUSH0 PUSH0 PUSH0 SWAP1 SLOAD SWAP1 PUSH2 0x100 EXP SWAP1 DIV PUSH20 0xFFFFFFFFFFFFFFFFFFFFFFFFFFFFFFFFFFFFFFFF AND SWAP1 POP DUP2 PUSH0 PUSH0 PUSH2 0x100 EXP DUP2 SLOAD DUP2 PUSH20 0xFFFFFFFFFFFFFFFFFFFFFFFFFFFFFFFFFFFFFFFF MUL NOT AND SWAP1 DUP4 PUSH20 0xFFFFFFFFFFFFFFFFFFFFFFFFFFFFFFFFFFFFFFFF AND MUL OR SWAP1 SSTORE POP DUP2 PUSH20 0xFFFFFFFFFFFFFFFFFFFFFFFFFFFFFFFFFFFFFFFF AND DUP2 PUSH20 0xFFFFFFFFFFFFFFFFFFFFFFFFFFFFFFFFFFFFFFFF AND PUSH32 0x8BE0079C531659141344CD1FD0A4F28419497F9722A3DAAFE3B4186F6B6457E0 PUSH1 0x40 MLOAD PUSH1 0x40 MLOAD DUP1 SWAP2 SUB SWAP1 LOG3 POP POP JUMP JUMPDEST PUSH0 CALLER SWAP1 POP SWAP1 JUMP JUMPDEST PUSH1 0x40 MLOAD DUP1 PUSH1 0x40 ADD PUSH1 0x40 MSTORE DUP1 PUSH1 0x60 DUP2 MSTORE PUSH1 0x20 ADD PUSH0 DUP2 MSTORE POP SWAP1 JUMP JUMPDEST PUSH0 PUSH1 0x40 MLOAD SWAP1 POP SWAP1 JUMP JUMPDEST PUSH0 PUSH0 REVERT JUMPDEST PUSH0 PUSH0 REVERT JUMPDEST PUSH0 DUP2 SWAP1 POP SWAP2 SWAP1 POP JUMP JUMPDEST PUSH2 0x144D DUP2 PUSH2 0x143B JUMP JUMPDEST DUP2 EQ PUSH2 0x1457 JUMPI PUSH0 PUSH0 REVERT JUMPDEST POP JUMP JUMPDEST PUSH0 DUP2 CALLDATALOAD SWAP1 POP PUSH2 0x1468 DUP2 PUSH2 0x1444 JUMP JUMPDEST SWAP3 SWAP2 POP POP JUMP JUMPDEST PUSH0 PUSH1 0x20 DUP3 DUP5 SUB SLT ISZERO PUSH2 0x1483 JUMPI PUSH2 0x1482 PUSH2 0x1433 JUMP JUMPDEST JUMPDEST PUSH0 PUSH2 0x1490 DUP5 DUP3 DUP6 ADD PUSH2 0x145A JUMP JUMPDEST SWAP2 POP POP SWAP3 SWAP2 POP POP JUMP JUMPDEST PUSH0 DUP2 MLOAD SWAP1 POP SWAP2 SWAP1 POP JUMP JUMPDEST PUSH0 DUP3 DUP3 MSTORE PUSH1 0x20 DUP3 ADD SWAP1 POP SWAP3 SWAP2 POP POP JUMP JUMPDEST DUP3 DUP2 DUP4 MCOPY PUSH0 DUP4 DUP4 ADD MSTORE POP POP POP JUMP JUMPDEST PUSH0 PUSH1 0x1F NOT PUSH1 0x1F DUP4 ADD AND SWAP1 POP SWAP2 SWAP1 POP JUMP JUMPDEST PUSH0 PUSH2 0x14DB DUP3 PUSH2 0x1499 JUMP JUMPDEST PUSH2 0x14E5 DUP2 DUP6 PUSH2 0x14A3 JUMP JUMPDEST SWAP4 POP PUSH2 0x14F5 DUP2 DUP6 PUSH1 0x20 DUP7 ADD PUSH2 0x14B3 JUMP JUMPDEST PUSH2 0x14FE DUP2 PUSH2 0x14C1 JUMP JUMPDEST DUP5 ADD SWAP2 POP POP SWAP3 SWAP2 POP POP JUMP JUMPDEST PUSH2 0x1512 DUP2 PUSH2 0x143B JUMP JUMPDEST DUP3 MSTORE POP POP JUMP JUMPDEST PUSH0 PUSH1 0x40 DUP3 ADD SWAP1 POP DUP2 DUP2 SUB PUSH0 DUP4 ADD MSTORE PUSH2 0x1530 DUP2 DUP6 PUSH2 0x14D1 JUMP JUMPDEST SWAP1 POP PUSH2 0x153F PUSH1 0x20 DUP4 ADD DUP5 PUSH2 0x1509 JUMP JUMPDEST SWAP4 SWAP3 POP POP POP JUMP JUMPDEST PUSH0 DUP3 DUP3 MSTORE PUSH1 0x20 DUP3 ADD SWAP1 POP SWAP3 SWAP2 POP POP JUMP JUMPDEST PUSH0 PUSH2 0x1560 DUP3 PUSH2 0x1499 JUMP JUMPDEST PUSH2 0x156A DUP2 DUP6 PUSH2 0x1546 JUMP JUMPDEST SWAP4 POP PUSH2 0x157A DUP2 DUP6 PUSH1 0x20 DUP7 ADD PUSH2 0x14B3 JUMP JUMPDEST PUSH2 0x1583 DUP2 PUSH2 0x14C1 JUMP JUMPDEST DUP5 ADD SWAP2 POP POP SWAP3 SWAP2 POP POP JUMP JUMPDEST PUSH2 0x1597 DUP2 PUSH2 0x143B JUMP JUMPDEST DUP3 MSTORE POP POP JUMP JUMPDEST PUSH0 PUSH1 0x40 DUP4 ADD PUSH0 DUP4 ADD MLOAD DUP5 DUP3 SUB PUSH0 DUP7 ADD MSTORE PUSH2 0x15B7 DUP3 DUP3 PUSH2 0x1556 JUMP JUMPDEST SWAP2 POP POP PUSH1 0x20 DUP4 ADD MLOAD PUSH2 0x15CC PUSH1 0x20 DUP7 ADD DUP3 PUSH2 0x158E JUMP JUMPDEST POP DUP1 SWAP2 POP POP SWAP3 SWAP2 POP POP JUMP JUMPDEST PUSH0 PUSH1 0x20 DUP3 ADD SWAP1 POP DUP2 DUP2 SUB PUSH0 DUP4 ADD MSTORE PUSH2 0x15EF DUP2 DUP5 PUSH2 0x159D JUMP JUMPDEST SWAP1 POP SWAP3 SWAP2 POP POP JUMP JUMPDEST PUSH0 PUSH20 0xFFFFFFFFFFFFFFFFFFFFFFFFFFFFFFFFFFFFFFFF DUP3 AND SWAP1 POP SWAP2 SWAP1 POP JUMP JUMPDEST PUSH0 PUSH2 0x1620 DUP3 PUSH2 0x15F7 JUMP JUMPDEST SWAP1 POP SWAP2 SWAP1 POP JUMP JUMPDEST PUSH2 0x1630 DUP2 PUSH2 0x1616 JUMP JUMPDEST DUP2 EQ PUSH2 0x163A JUMPI PUSH0 PUSH0 REVERT JUMPDEST POP JUMP JUMPDEST PUSH0 DUP2 CALLDATALOAD SWAP1 POP PUSH2 0x164B DUP2 PUSH2 0x1627 JUMP JUMPDEST SWAP3 SWAP2 POP POP JUMP JUMPDEST PUSH0 PUSH1 0x20 DUP3 DUP5 SUB SLT ISZERO PUSH2 0x1666 JUMPI PUSH2 0x1665 PUSH2 0x1433 JUMP JUMPDEST JUMPDEST PUSH0 PUSH2 0x1673 DUP5 DUP3 DUP6 ADD PUSH2 0x163D JUMP JUMPDEST SWAP2 POP POP SWAP3 SWAP2 POP POP JUMP JUMPDEST PUSH0 DUP2 ISZERO ISZERO SWAP1 POP SWAP2 SWAP1 POP JUMP JUMPDEST PUSH2 0x1690 DUP2 PUSH2 0x167C JUMP JUMPDEST DUP3 MSTORE POP POP JUMP JUMPDEST PUSH0 PUSH1 0x20 DUP3 ADD SWAP1 POP PUSH2 0x16A9 PUSH0 DUP4 ADD DUP5 PUSH2 0x1687 JUMP JUMPDEST SWAP3 SWAP2 POP POP JUMP JUMPDEST PUSH0 PUSH0 REVERT JUMPDEST PUSH0 PUSH0 REVERT JUMPDEST PUSH32 0x4E487B7100000000000000000000000000000000000000000000000000000000 PUSH0 MSTORE PUSH1 0x41 PUSH1 0x4 MSTORE PUSH1 0x24 PUSH0 REVERT JUMPDEST PUSH2 0x16ED DUP3 PUSH2 0x14C1 JUMP JUMPDEST DUP2 ADD DUP2 DUP2 LT PUSH8 0xFFFFFFFFFFFFFFFF DUP3 GT OR ISZERO PUSH2 0x170C JUMPI PUSH2 0x170B PUSH2 0x16B7 JUMP JUMPDEST JUMPDEST DUP1 PUSH1 0x40 MSTORE POP POP POP JUMP JUMPDEST PUSH0 PUSH2 0x171E PUSH2 0x142A JUMP JUMPDEST SWAP1 POP PUSH2 0x172A DUP3 DUP3 PUSH2 0x16E4 JUMP JUMPDEST SWAP2 SWAP1 POP JUMP JUMPDEST PUSH0 PUSH8 0xFFFFFFFFFFFFFFFF DUP3 GT ISZERO PUSH2 0x1749 JUMPI PUSH2 0x1748 PUSH2 0x16B7 JUMP JUMPDEST JUMPDEST PUSH2 0x1752 DUP3 PUSH2 0x14C1 JUMP JUMPDEST SWAP1 POP PUSH1 0x20 DUP2 ADD SWAP1 POP SWAP2 SWAP1 POP JUMP JUMPDEST DUP3 DUP2 DUP4 CALLDATACOPY PUSH0 DUP4 DUP4 ADD MSTORE POP POP POP JUMP JUMPDEST PUSH0 PUSH2 0x177F PUSH2 0x177A DUP5 PUSH2 0x172F JUMP JUMPDEST PUSH2 0x1715 JUMP JUMPDEST SWAP1 POP DUP3 DUP2 MSTORE PUSH1 0x20 DUP2 ADD DUP5 DUP5 DUP5 ADD GT ISZERO PUSH2 0x179B JUMPI PUSH2 0x179A PUSH2 0x16B3 JUMP JUMPDEST JUMPDEST PUSH2 0x17A6 DUP5 DUP3 DUP6 PUSH2 0x175F JUMP JUMPDEST POP SWAP4 SWAP3 POP POP POP JUMP JUMPDEST PUSH0 DUP3 PUSH1 0x1F DUP4 ADD SLT PUSH2 0x17C2 JUMPI PUSH2 0x17C1 PUSH2 0x16AF JUMP JUMPDEST JUMPDEST DUP2 CALLDATALOAD PUSH2 0x17D2 DUP5 DUP3 PUSH1 0x20 DUP7 ADD PUSH2 0x176D JUMP JUMPDEST SWAP2 POP POP SWAP3 SWAP2 POP POP JUMP JUMPDEST PUSH0 PUSH1 0x20 DUP3 DUP5 SUB SLT ISZERO PUSH2 0x17F0 JUMPI PUSH2 0x17EF PUSH2 0x1433 JUMP JUMPDEST JUMPDEST PUSH0 DUP3 ADD CALLDATALOAD PUSH8 0xFFFFFFFFFFFFFFFF DUP2 GT ISZERO PUSH2 0x180D JUMPI PUSH2 0x180C PUSH2 0x1437 JUMP JUMPDEST JUMPDEST PUSH2 0x1819 DUP5 DUP3 DUP6 ADD PUSH2 0x17AE JUMP JUMPDEST SWAP2 POP POP SWAP3 SWAP2 POP POP JUMP JUMPDEST PUSH2 0x182B DUP2 PUSH2 0x1616 JUMP JUMPDEST DUP3 MSTORE POP POP JUMP JUMPDEST PUSH0 PUSH1 0x20 DUP3 ADD SWAP1 POP PUSH2 0x1844 PUSH0 DUP4 ADD DUP5 PUSH2 0x1822 JUMP JUMPDEST SWAP3 SWAP2 POP POP JUMP JUMPDEST PUSH32 0x4E487B7100000000000000000000000000000000000000000000000000000000 PUSH0 MSTORE PUSH1 0x21 PUSH1 0x4 MSTORE PUSH1 0x24 PUSH0 REVERT JUMPDEST PUSH1 0x6 DUP2 LT PUSH2 0x1888 JUMPI PUSH2 0x1887 PUSH2 0x184A JUMP JUMPDEST JUMPDEST POP JUMP JUMPDEST PUSH0 DUP2 SWAP1 POP PUSH2 0x1898 DUP3 PUSH2 0x1877 JUMP JUMPDEST SWAP2 SWAP1 POP JUMP JUMPDEST PUSH0 PUSH2 0x18A7 DUP3 PUSH2 0x188B JUMP JUMPDEST SWAP1 POP SWAP2 SWAP1 POP JUMP JUMPDEST PUSH2 0x18B7 DUP2 PUSH2 0x189D JUMP JUMPDEST DUP3 MSTORE POP POP JUMP JUMPDEST PUSH0 PUSH1 0x20 DUP3 ADD SWAP1 POP PUSH2 0x18D0 PUSH0 DUP4 ADD DUP5 PUSH2 0x18AE JUMP JUMPDEST SWAP3 SWAP2 POP POP JUMP JUMPDEST PUSH0 PUSH1 0x60 DUP3 ADD SWAP1 POP PUSH2 0x18E9 PUSH0 DUP4 ADD DUP7 PUSH2 0x1687 JUMP JUMPDEST PUSH2 0x18F6 PUSH1 0x20 DUP4 ADD DUP6 PUSH2 0x1687 JUMP JUMPDEST PUSH2 0x1903 PUSH1 0x40 DUP4 ADD DUP5 PUSH2 0x1509 JUMP JUMPDEST SWAP5 SWAP4 POP POP POP POP JUMP JUMPDEST PUSH0 PUSH1 0x20 DUP3 ADD SWAP1 POP PUSH2 0x191E PUSH0 DUP4 ADD DUP5 PUSH2 0x1509 JUMP JUMPDEST SWAP3 SWAP2 POP POP JUMP JUMPDEST PUSH0 DUP2 MLOAD SWAP1 POP SWAP2 SWAP1 POP JUMP JUMPDEST PUSH0 DUP3 DUP3 MSTORE PUSH1 0x20 DUP3 ADD SWAP1 POP SWAP3 SWAP2 POP POP JUMP JUMPDEST PUSH0 DUP2 SWAP1 POP PUSH1 0x20 DUP3 ADD SWAP1 POP SWAP2 SWAP1 POP JUMP JUMPDEST PUSH0 PUSH1 0x40 DUP4 ADD PUSH0 DUP4 ADD MLOAD DUP5 DUP3 SUB PUSH0 DUP7 ADD MSTORE PUSH2 0x1967 DUP3 DUP3 PUSH2 0x1556 JUMP JUMPDEST SWAP2 POP POP PUSH1 0x20 DUP4 ADD MLOAD PUSH2 0x197C PUSH1 0x20 DUP7 ADD DUP3 PUSH2 0x158E JUMP JUMPDEST POP DUP1 SWAP2 POP POP SWAP3 SWAP2 POP POP JUMP JUMPDEST PUSH0 PUSH2 0x1992 DUP4 DUP4 PUSH2 0x194D JUMP JUMPDEST SWAP1 POP SWAP3 SWAP2 POP POP JUMP JUMPDEST PUSH0 PUSH1 0x20 DUP3 ADD SWAP1 POP SWAP2 SWAP1 POP JUMP JUMPDEST PUSH0 PUSH2 0x19B0 DUP3 PUSH2 0x1924 JUMP JUMPDEST PUSH2 0x19BA DUP2 DUP6 PUSH2 0x192E JUMP JUMPDEST SWAP4 POP DUP4 PUSH1 0x20 DUP3 MUL DUP6 ADD PUSH2 0x19CC DUP6 PUSH2 0x193E JUMP JUMPDEST DUP1 PUSH0 JUMPDEST DUP6 DUP2 LT ISZERO PUSH2 0x1A07 JUMPI DUP5 DUP5 SUB DUP10 MSTORE DUP2 MLOAD PUSH2 0x19E8 DUP6 DUP3 PUSH2 0x1987 JUMP JUMPDEST SWAP5 POP PUSH2 0x19F3 DUP4 PUSH2 0x199A JUMP JUMPDEST SWAP3 POP PUSH1 0x20 DUP11 ADD SWAP10 POP POP PUSH1 0x1 DUP2 ADD SWAP1 POP PUSH2 0x19CF JUMP JUMPDEST POP DUP3 SWAP8 POP DUP8 SWAP6 POP POP POP POP POP POP SWAP3 SWAP2 POP POP JUMP JUMPDEST PUSH0 PUSH1 0x20 DUP3 ADD SWAP1 POP DUP2 DUP2 SUB PUSH0 DUP4 ADD MSTORE PUSH2 0x1A31 DUP2 DUP5 PUSH2 0x19A6 JUMP JUMPDEST SWAP1 POP SWAP3 SWAP2 POP POP JUMP JUMPDEST PUSH32 0x4E487B7100000000000000000000000000000000000000000000000000000000 PUSH0 MSTORE PUSH1 0x22 PUSH1 0x4 MSTORE PUSH1 0x24 PUSH0 REVERT JUMPDEST PUSH0 PUSH1 0x2 DUP3 DIV SWAP1 POP PUSH1 0x1 DUP3 AND DUP1 PUSH2 0x1A7D JUMPI PUSH1 0x7F DUP3 AND SWAP2 POP JUMPDEST PUSH1 0x20 DUP3 LT DUP2 SUB PUSH2 0x1A90 JUMPI PUSH2 0x1A8F PUSH2 0x1A39 JUMP JUMPDEST JUMPDEST POP SWAP2 SWAP1 POP JUMP JUMPDEST PUSH32 0x50726F706F73616C20646F6573206E6F74206578697374000000000000000000 PUSH0 DUP3 ADD MSTORE POP JUMP JUMPDEST PUSH0 PUSH2 0x1ACA PUSH1 0x17 DUP4 PUSH2 0x14A3 JUMP JUMPDEST SWAP2 POP PUSH2 0x1AD5 DUP3 PUSH2 0x1A96 JUMP JUMPDEST PUSH1 0x20 DUP3 ADD SWAP1 POP SWAP2 SWAP1 POP JUMP JUMPDEST PUSH0 PUSH1 0x20 DUP3 ADD SWAP1 POP DUP2 DUP2 SUB PUSH0 DUP4 ADD MSTORE PUSH2 0x1AF7 DUP2 PUSH2 0x1ABE JUMP JUMPDEST SWAP1 POP SWAP2 SWAP1 POP JUMP JUMPDEST PUSH32 0x4E487B7100000000000000000000000000000000000000000000000000000000 PUSH0 MSTORE PUSH1 0x32 PUSH1 0x4 MSTORE PUSH1 0x24 PUSH0 REVERT JUMPDEST PUSH32 0x526567697374726174696F6E2070726F706F736974696F6E7320646964206E6F PUSH0 DUP3 ADD MSTORE PUSH32 0x7420737461727465640000000000000000000000000000000000000000000000 PUSH1 0x20 DUP3 ADD MSTORE POP JUMP JUMPDEST PUSH0 PUSH2 0x1B85 PUSH1 0x29 DUP4 PUSH2 0x14A3 JUMP JUMPDEST SWAP2 POP PUSH2 0x1B90 DUP3 PUSH2 0x1B2B JUMP JUMPDEST PUSH1 0x40 DUP3 ADD SWAP1 POP SWAP2 SWAP1 POP JUMP JUMPDEST PUSH0 PUSH1 0x20 DUP3 ADD SWAP1 POP DUP2 DUP2 SUB PUSH0 DUP4 ADD MSTORE PUSH2 0x1BB2 DUP2 PUSH2 0x1B79 JUMP JUMPDEST SWAP1 POP SWAP2 SWAP1 POP JUMP JUMPDEST PUSH32 0x596F7520617265206E6F742077686974656C6973746564000000000000000000 PUSH0 DUP3 ADD MSTORE POP JUMP JUMPDEST PUSH0 PUSH2 0x1BED PUSH1 0x17 DUP4 PUSH2 0x14A3 JUMP JUMPDEST SWAP2 POP PUSH2 0x1BF8 DUP3 PUSH2 0x1BB9 JUMP JUMPDEST PUSH1 0x20 DUP3 ADD SWAP1 POP SWAP2 SWAP1 POP JUMP JUMPDEST PUSH0 PUSH1 0x20 DUP3 ADD SWAP1 POP DUP2 DUP2 SUB PUSH0 DUP4 ADD MSTORE PUSH2 0x1C1A DUP2 PUSH2 0x1BE1 JUMP JUMPDEST SWAP1 POP SWAP2 SWAP1 POP JUMP JUMPDEST PUSH0 DUP2 SWAP1 POP DUP2 PUSH0 MSTORE PUSH1 0x20 PUSH0 KECCAK256 SWAP1 POP SWAP2 SWAP1 POP JUMP JUMPDEST PUSH0 PUSH1 0x20 PUSH1 0x1F DUP4 ADD DIV SWAP1 POP SWAP2 SWAP1 POP JUMP JUMPDEST PUSH0 DUP3 DUP3 SHL SWAP1 POP SWAP3 SWAP2 POP POP JUMP JUMPDEST PUSH0 PUSH1 0x8 DUP4 MUL PUSH2 0x1C7D PUSH32 0xFFFFFFFFFFFFFFFFFFFFFFFFFFFFFFFFFFFFFFFFFFFFFFFFFFFFFFFFFFFFFFFF DUP3 PUSH2 0x1C42 JUMP JUMPDEST PUSH2 0x1C87 DUP7 DUP4 PUSH2 0x1C42 JUMP JUMPDEST SWAP6 POP DUP1 NOT DUP5 AND SWAP4 POP DUP1 DUP7 AND DUP5 OR SWAP3 POP POP POP SWAP4 SWAP3 POP POP POP JUMP JUMPDEST PUSH0 DUP2 SWAP1 POP SWAP2 SWAP1 POP JUMP JUMPDEST PUSH0 PUSH2 0x1CC2 PUSH2 0x1CBD PUSH2 0x1CB8 DUP5 PUSH2 0x143B JUMP JUMPDEST PUSH2 0x1C9F JUMP JUMPDEST PUSH2 0x143B JUMP JUMPDEST SWAP1 POP SWAP2 SWAP1 POP JUMP JUMPDEST PUSH0 DUP2 SWAP1 POP SWAP2 SWAP1 POP JUMP JUMPDEST PUSH2 0x1CDB DUP4 PUSH2 0x1CA8 JUMP JUMPDEST PUSH2 0x1CEF PUSH2 0x1CE7 DUP3 PUSH2 0x1CC9 JUMP JUMPDEST DUP5 DUP5 SLOAD PUSH2 0x1C4E JUMP JUMPDEST DUP3 SSTORE POP POP POP POP JUMP JUMPDEST PUSH0 PUSH0 SWAP1 POP SWAP1 JUMP JUMPDEST PUSH2 0x1D06 PUSH2 0x1CF7 JUMP JUMPDEST PUSH2 0x1D11 DUP2 DUP5 DUP5 PUSH2 0x1CD2 JUMP JUMPDEST POP POP POP JUMP JUMPDEST JUMPDEST DUP2 DUP2 LT ISZERO PUSH2 0x1D34 JUMPI PUSH2 0x1D29 PUSH0 DUP3 PUSH2 0x1CFE JUMP JUMPDEST PUSH1 0x1 DUP2 ADD SWAP1 POP PUSH2 0x1D17 JUMP JUMPDEST POP POP JUMP JUMPDEST PUSH1 0x1F DUP3 GT ISZERO PUSH2 0x1D79 JUMPI PUSH2 0x1D4A DUP2 PUSH2 0x1C21 JUMP JUMPDEST PUSH2 0x1D53 DUP5 PUSH2 0x1C33 JUMP JUMPDEST DUP2 ADD PUSH1 0x20 DUP6 LT ISZERO PUSH2 0x1D62 JUMPI DUP2 SWAP1 POP JUMPDEST PUSH2 0x1D76 PUSH2 0x1D6E DUP6 PUSH2 0x1C33 JUMP JUMPDEST DUP4 ADD DUP3 PUSH2 0x1D16 JUMP JUMPDEST POP POP JUMPDEST POP POP POP JUMP JUMPDEST PUSH0 DUP3 DUP3 SHR SWAP1 POP SWAP3 SWAP2 POP POP JUMP JUMPDEST PUSH0 PUSH2 0x1D99 PUSH0 NOT DUP5 PUSH1 0x8 MUL PUSH2 0x1D7E JUMP JUMPDEST NOT DUP1 DUP4 AND SWAP2 POP POP SWAP3 SWAP2 POP POP JUMP JUMPDEST PUSH0 PUSH2 0x1DB1 DUP4 DUP4 PUSH2 0x1D8A JUMP JUMPDEST SWAP2 POP DUP3 PUSH1 0x2 MUL DUP3 OR SWAP1 POP SWAP3 SWAP2 POP POP JUMP JUMPDEST PUSH2 0x1DCA DUP3 PUSH2 0x1499 JUMP JUMPDEST PUSH8 0xFFFFFFFFFFFFFFFF DUP2 GT ISZERO PUSH2 0x1DE3 JUMPI PUSH2 0x1DE2 PUSH2 0x16B7 JUMP JUMPDEST JUMPDEST PUSH2 0x1DED DUP3 SLOAD PUSH2 0x1A66 JUMP JUMPDEST PUSH2 0x1DF8 DUP3 DUP3 DUP6 PUSH2 0x1D38 JUMP JUMPDEST PUSH0 PUSH1 0x20 SWAP1 POP PUSH1 0x1F DUP4 GT PUSH1 0x1 DUP2 EQ PUSH2 0x1E29 JUMPI PUSH0 DUP5 ISZERO PUSH2 0x1E17 JUMPI DUP3 DUP8 ADD MLOAD SWAP1 POP JUMPDEST PUSH2 0x1E21 DUP6 DUP3 PUSH2 0x1DA6 JUMP JUMPDEST DUP7 SSTORE POP PUSH2 0x1E88 JUMP JUMPDEST PUSH1 0x1F NOT DUP5 AND PUSH2 0x1E37 DUP7 PUSH2 0x1C21 JUMP JUMPDEST PUSH0 JUMPDEST DUP3 DUP2 LT ISZERO PUSH2 0x1E5E JUMPI DUP5 DUP10 ADD MLOAD DUP3 SSTORE PUSH1 0x1 DUP3 ADD SWAP2 POP PUSH1 0x20 DUP6 ADD SWAP5 POP PUSH1 0x20 DUP2 ADD SWAP1 POP PUSH2 0x1E39 JUMP JUMPDEST DUP7 DUP4 LT ISZERO PUSH2 0x1E7B JUMPI DUP5 DUP10 ADD MLOAD PUSH2 0x1E77 PUSH1 0x1F DUP10 AND DUP3 PUSH2 0x1D8A JUMP JUMPDEST DUP4 SSTORE POP JUMPDEST PUSH1 0x1 PUSH1 0x2 DUP9 MUL ADD DUP9 SSTORE POP POP POP JUMPDEST POP POP POP POP POP POP JUMP JUMPDEST PUSH32 0x4E487B7100000000000000000000000000000000000000000000000000000000 PUSH0 MSTORE PUSH1 0x11 PUSH1 0x4 MSTORE PUSH1 0x24 PUSH0 REVERT JUMPDEST PUSH0 PUSH2 0x1EC7 DUP3 PUSH2 0x143B JUMP JUMPDEST SWAP2 POP PUSH2 0x1ED2 DUP4 PUSH2 0x143B JUMP JUMPDEST SWAP3 POP DUP3 DUP3 SUB SWAP1 POP DUP2 DUP2 GT ISZERO PUSH2 0x1EEA JUMPI PUSH2 0x1EE9 PUSH2 0x1E90 JUMP JUMPDEST JUMPDEST SWAP3 SWAP2 POP POP JUMP JUMPDEST PUSH32 0x50726F706F73616C7320726567697374726174696F6E206E6F74207374617274 PUSH0 DUP3 ADD MSTORE PUSH32 0x6564000000000000000000000000000000000000000000000000000000000000 PUSH1 0x20 DUP3 ADD MSTORE POP JUMP JUMPDEST PUSH0 PUSH2 0x1F4A PUSH1 0x22 DUP4 PUSH2 0x14A3 JUMP JUMPDEST SWAP2 POP PUSH2 0x1F55 DUP3 PUSH2 0x1EF0 JUMP JUMPDEST PUSH1 0x40 DUP3 ADD SWAP1 POP SWAP2 SWAP1 POP JUMP JUMPDEST PUSH0 PUSH1 0x20 DUP3 ADD SWAP1 POP DUP2 DUP2 SUB PUSH0 DUP4 ADD MSTORE PUSH2 0x1F77 DUP2 PUSH2 0x1F3E JUMP JUMPDEST SWAP1 POP SWAP2 SWAP1 POP JUMP JUMPDEST PUSH0 PUSH1 0x40 DUP3 ADD SWAP1 POP PUSH2 0x1F91 PUSH0 DUP4 ADD DUP6 PUSH2 0x18AE JUMP JUMPDEST PUSH2 0x1F9E PUSH1 0x20 DUP4 ADD DUP5 PUSH2 0x18AE JUMP JUMPDEST SWAP4 SWAP3 POP POP POP JUMP JUMPDEST PUSH32 0x566F74696E672073657373696F6E206E6F742073746172746564000000000000 PUSH0 DUP3 ADD MSTORE POP JUMP JUMPDEST PUSH0 PUSH2 0x1FD9 PUSH1 0x1A DUP4 PUSH2 0x14A3 JUMP JUMPDEST SWAP2 POP PUSH2 0x1FE4 DUP3 PUSH2 0x1FA5 JUMP JUMPDEST PUSH1 0x20 DUP3 ADD SWAP1 POP SWAP2 SWAP1 POP JUMP JUMPDEST PUSH0 PUSH1 0x20 DUP3 ADD SWAP1 POP DUP2 DUP2 SUB PUSH0 DUP4 ADD MSTORE PUSH2 0x2006 DUP2 PUSH2 0x1FCD JUMP JUMPDEST SWAP1 POP SWAP2 SWAP1 POP JUMP JUMPDEST PUSH32 0x726567697374726174696F6E20646964206E6F74207374617274656400000000 PUSH0 DUP3 ADD MSTORE POP JUMP JUMPDEST PUSH0 PUSH2 0x2041 PUSH1 0x1C DUP4 PUSH2 0x14A3 JUMP JUMPDEST SWAP2 POP PUSH2 0x204C DUP3 PUSH2 0x200D JUMP JUMPDEST PUSH1 0x20 DUP3 ADD SWAP1 POP SWAP2 SWAP1 POP JUMP JUMPDEST PUSH0 PUSH1 0x20 DUP3 ADD SWAP1 POP DUP2 DUP2 SUB PUSH0 DUP4 ADD MSTORE PUSH2 0x206E DUP2 PUSH2 0x2035 JUMP JUMPDEST SWAP1 POP SWAP2 SWAP1 POP JUMP JUMPDEST PUSH32 0x796F7520617265206E6F74207265676973746572656400000000000000000000 PUSH0 DUP3 ADD MSTORE POP JUMP JUMPDEST PUSH0 PUSH2 0x20A9 PUSH1 0x16 DUP4 PUSH2 0x14A3 JUMP JUMPDEST SWAP2 POP PUSH2 0x20B4 DUP3 PUSH2 0x2075 JUMP JUMPDEST PUSH1 0x20 DUP3 ADD SWAP1 POP SWAP2 SWAP1 POP JUMP JUMPDEST PUSH0 PUSH1 0x20 DUP3 ADD SWAP1 POP DUP2 DUP2 SUB PUSH0 DUP4 ADD MSTORE PUSH2 0x20D6 DUP2 PUSH2 0x209D JUMP JUMPDEST SWAP1 POP SWAP2 SWAP1 POP JUMP JUMPDEST PUSH32 0x646F20796F75206861766520616C726561647920766F74650000000000000000 PUSH0 DUP3 ADD MSTORE POP JUMP JUMPDEST PUSH0 PUSH2 0x2111 PUSH1 0x18 DUP4 PUSH2 0x14A3 JUMP JUMPDEST SWAP2 POP PUSH2 0x211C DUP3 PUSH2 0x20DD JUMP JUMPDEST PUSH1 0x20 DUP3 ADD SWAP1 POP SWAP2 SWAP1 POP JUMP JUMPDEST PUSH0 PUSH1 0x20 DUP3 ADD SWAP1 POP DUP2 DUP2 SUB PUSH0 DUP4 ADD MSTORE PUSH2 0x213E DUP2 PUSH2 0x2105 JUMP JUMPDEST SWAP1 POP SWAP2 SWAP1 POP JUMP JUMPDEST PUSH0 PUSH2 0x214F DUP3 PUSH2 0x143B JUMP JUMPDEST SWAP2 POP PUSH32 0xFFFFFFFFFFFFFFFFFFFFFFFFFFFFFFFFFFFFFFFFFFFFFFFFFFFFFFFFFFFFFFFF DUP3 SUB PUSH2 0x2181 JUMPI PUSH2 0x2180 PUSH2 0x1E90 JUMP JUMPDEST JUMPDEST PUSH1 0x1 DUP3 ADD SWAP1 POP SWAP2 SWAP1 POP JUMP JUMPDEST PUSH0 PUSH1 0x40 DUP3 ADD SWAP1 POP PUSH2 0x219F PUSH0 DUP4 ADD DUP6 PUSH2 0x1822 JUMP JUMPDEST PUSH2 0x21AC PUSH1 0x20 DUP4 ADD DUP5 PUSH2 0x1509 JUMP JUMPDEST SWAP4 SWAP3 POP POP POP JUMP JUMPDEST PUSH32 0x566F74696E672073657373696F6E206E6F7420656E6465640000000000000000 PUSH0 DUP3 ADD MSTORE POP JUMP JUMPDEST PUSH0 PUSH2 0x21E7 PUSH1 0x18 DUP4 PUSH2 0x14A3 JUMP JUMPDEST SWAP2 POP PUSH2 0x21F2 DUP3 PUSH2 0x21B3 JUMP JUMPDEST PUSH1 0x20 DUP3 ADD SWAP1 POP SWAP2 SWAP1 POP JUMP JUMPDEST PUSH0 PUSH1 0x20 DUP3 ADD SWAP1 POP DUP2 DUP2 SUB PUSH0 DUP4 ADD MSTORE PUSH2 0x2214 DUP2 PUSH2 0x21DB JUMP JUMPDEST SWAP1 POP SWAP2 SWAP1 POP JUMP JUMPDEST PUSH32 0x5265676973746572696E6720766F7465727320646964206E6F74207374617274 PUSH0 DUP3 ADD MSTORE POP JUMP JUMPDEST PUSH0 PUSH2 0x224F PUSH1 0x20 DUP4 PUSH2 0x14A3 JUMP JUMPDEST SWAP2 POP PUSH2 0x225A DUP3 PUSH2 0x221B JUMP JUMPDEST PUSH1 0x20 DUP3 ADD SWAP1 POP SWAP2 SWAP1 POP JUMP JUMPDEST PUSH0 PUSH1 0x20 DUP3 ADD SWAP1 POP DUP2 DUP2 SUB PUSH0 DUP4 ADD MSTORE PUSH2 0x227C DUP2 PUSH2 0x2243 JUMP JUMPDEST SWAP1 POP SWAP2 SWAP1 POP JUMP JUMPDEST PUSH32 0x526567697374726174696F6E206E6F7420737461727465640000000000000000 PUSH0 DUP3 ADD MSTORE POP JUMP JUMPDEST PUSH0 PUSH2 0x22B7 PUSH1 0x18 DUP4 PUSH2 0x14A3 JUMP JUMPDEST SWAP2 POP PUSH2 0x22C2 DUP3 PUSH2 0x2283 JUMP JUMPDEST PUSH1 0x20 DUP3 ADD SWAP1 POP SWAP2 SWAP1 POP JUMP JUMPDEST PUSH0 PUSH1 0x20 DUP3 ADD SWAP1 POP DUP2 DUP2 SUB PUSH0 DUP4 ADD MSTORE PUSH2 0x22E4 DUP2 PUSH2 0x22AB JUMP JUMPDEST SWAP1 POP SWAP2 SWAP1 POP JUMP JUMPDEST PUSH32 0x6164647265737320697320616C726561647920696E207468652077686974656C PUSH0 DUP3 ADD MSTORE PUSH32 0x6973740000000000000000000000000000000000000000000000000000000000 PUSH1 0x20 DUP3 ADD MSTORE POP JUMP JUMPDEST PUSH0 PUSH2 0x2345 PUSH1 0x23 DUP4 PUSH2 0x14A3 JUMP JUMPDEST SWAP2 POP PUSH2 0x2350 DUP3 PUSH2 0x22EB JUMP JUMPDEST PUSH1 0x40 DUP3 ADD SWAP1 POP SWAP2 SWAP1 POP JUMP JUMPDEST PUSH0 PUSH1 0x20 DUP3 ADD SWAP1 POP DUP2 DUP2 SUB PUSH0 DUP4 ADD MSTORE PUSH2 0x2372 DUP2 PUSH2 0x2339 JUMP JUMPDEST SWAP1 POP SWAP2 SWAP1 POP JUMP JUMPDEST PUSH32 0x50726F706F73616C7320726567697374726174696F6E206E6F7420656E646564 PUSH0 DUP3 ADD MSTORE POP JUMP JUMPDEST PUSH0 PUSH2 0x23AD PUSH1 0x20 DUP4 PUSH2 0x14A3 JUMP JUMPDEST SWAP2 POP PUSH2 0x23B8 DUP3 PUSH2 0x2379 JUMP JUMPDEST PUSH1 0x20 DUP3 ADD SWAP1 POP SWAP2 SWAP1 POP JUMP JUMPDEST PUSH0 PUSH1 0x20 DUP3 ADD SWAP1 POP DUP2 DUP2 SUB PUSH0 DUP4 ADD MSTORE PUSH2 0x23DA DUP2 PUSH2 0x23A1 JUMP JUMPDEST SWAP1 POP SWAP2 SWAP1 POP JUMP INVALID LOG2 PUSH5 0x6970667358 0x22 SLT KECCAK256 0xC7 0x28 0xD3 0x2A 0xB1 0xCE 0xC6 0x1F PUSH9 0x23DED7BE532A415312 0x23 DUP4 BALANCE TIMESTAMP SELFBALANCE 0x4F SWAP6 0xD4 0x22 PUSH8 0x5360B7A664736F6C PUSH4 0x4300081E STOP CALLER "
				},
				"gasEstimates": {
					"creation": {
						"codeDepositCost": "1847800",
						"executionCost": "infinite",
						"totalCost": "infinite"
					},
					"external": {
						"addToWhitelist(address)": "infinite",
						"computeMostVotedproposal()": "infinite",
						"endProposalsRegistration()": "infinite",
						"endVotingSession()": "infinite",
						"getAllProposals()": "infinite",
						"getMostVotedProposal()": "infinite",
						"getProposalByIndex(uint256)": "infinite",
						"getWorkflowStatus()": "2693",
						"isWhitelisted(address)": "2938",
						"owner()": "2581",
						"proposals(uint256)": "infinite",
						"renounceOwnership()": "infinite",
						"sendNewProposition(string)": "infinite",
						"sendVote(uint256)": "infinite",
						"startProposalsRegistration()": "infinite",
						"startVotingSession()": "infinite",
						"transferOwnership(address)": "infinite",
						"voters(address)": "infinite",
						"whitelist(address)": "2922",
						"winningProposalId()": "2492",
						"workflowStatus()": "2665"
					}
				},
				"methodIdentifiers": {
					"addToWhitelist(address)": "e43252d7",
					"computeMostVotedproposal()": "cc5a6668",
					"endProposalsRegistration()": "6c297445",
					"endVotingSession()": "a7bfab16",
					"getAllProposals()": "cceb68f5",
					"getMostVotedProposal()": "4394ba21",
					"getProposalByIndex(uint256)": "37d1d389",
					"getWorkflowStatus()": "f75d64a6",
					"isWhitelisted(address)": "3af32abf",
					"owner()": "8da5cb5b",
					"proposals(uint256)": "013cf08b",
					"renounceOwnership()": "715018a6",
					"sendNewProposition(string)": "45bf58fd",
					"sendVote(uint256)": "c8f5714e",
					"startProposalsRegistration()": "e09b8c79",
					"startVotingSession()": "ee74c678",
					"transferOwnership(address)": "f2fde38b",
					"voters(address)": "a3ec138d",
					"whitelist(address)": "9b19251a",
					"winningProposalId()": "c64963c5",
					"workflowStatus()": "a1edffa2"
				}
			},
			"storageLayout": {
				"storage": [
					{
						"astId": 448,
						"contract": "contracts/11_Voting_withTest.sol:Voting",
						"label": "_owner",
						"offset": 0,
						"slot": "0",
						"type": "t_address"
					},
					{
						"astId": 6,
						"contract": "contracts/11_Voting_withTest.sol:Voting",
						"label": "winningProposalId",
						"offset": 0,
						"slot": "1",
						"type": "t_uint256"
					},
					{
						"astId": 9,
						"contract": "contracts/11_Voting_withTest.sol:Voting",
						"label": "workflowStatus",
						"offset": 0,
						"slot": "2",
						"type": "t_enum(WorkflowStatus)41"
					},
					{
						"astId": 13,
						"contract": "contracts/11_Voting_withTest.sol:Voting",
						"label": "proposals",
						"offset": 0,
						"slot": "3",
						"type": "t_array(t_struct(Proposal)34_storage)dyn_storage"
					},
					{
						"astId": 17,
						"contract": "contracts/11_Voting_withTest.sol:Voting",
						"label": "whitelist",
						"offset": 0,
						"slot": "4",
						"type": "t_mapping(t_address,t_bool)"
					},
					{
						"astId": 22,
						"contract": "contracts/11_Voting_withTest.sol:Voting",
						"label": "voters",
						"offset": 0,
						"slot": "5",
						"type": "t_mapping(t_address,t_struct(Voter)29_storage)"
					}
				],
				"types": {
					"t_address": {
						"encoding": "inplace",
						"label": "address",
						"numberOfBytes": "20"
					},
					"t_array(t_struct(Proposal)34_storage)dyn_storage": {
						"base": "t_struct(Proposal)34_storage",
						"encoding": "dynamic_array",
						"label": "struct Voting.Proposal[]",
						"numberOfBytes": "32"
					},
					"t_bool": {
						"encoding": "inplace",
						"label": "bool",
						"numberOfBytes": "1"
					},
					"t_enum(WorkflowStatus)41": {
						"encoding": "inplace",
						"label": "enum Voting.WorkflowStatus",
						"numberOfBytes": "1"
					},
					"t_mapping(t_address,t_bool)": {
						"encoding": "mapping",
						"key": "t_address",
						"label": "mapping(address => bool)",
						"numberOfBytes": "32",
						"value": "t_bool"
					},
					"t_mapping(t_address,t_struct(Voter)29_storage)": {
						"encoding": "mapping",
						"key": "t_address",
						"label": "mapping(address => struct Voting.Voter)",
						"numberOfBytes": "32",
						"value": "t_struct(Voter)29_storage"
					},
					"t_string_storage": {
						"encoding": "bytes",
						"label": "string",
						"numberOfBytes": "32"
					},
					"t_struct(Proposal)34_storage": {
						"encoding": "inplace",
						"label": "struct Voting.Proposal",
						"members": [
							{
								"astId": 31,
								"contract": "contracts/11_Voting_withTest.sol:Voting",
								"label": "description",
								"offset": 0,
								"slot": "0",
								"type": "t_string_storage"
							},
							{
								"astId": 33,
								"contract": "contracts/11_Voting_withTest.sol:Voting",
								"label": "voteCount",
								"offset": 0,
								"slot": "1",
								"type": "t_uint256"
							}
						],
						"numberOfBytes": "64"
					},
					"t_struct(Voter)29_storage": {
						"encoding": "inplace",
						"label": "struct Voting.Voter",
						"members": [
							{
								"astId": 24,
								"contract": "contracts/11_Voting_withTest.sol:Voting",
								"label": "isRegistered",
								"offset": 0,
								"slot": "0",
								"type": "t_bool"
							},
							{
								"astId": 26,
								"contract": "contracts/11_Voting_withTest.sol:Voting",
								"label": "hasVoted",
								"offset": 1,
								"slot": "0",
								"type": "t_bool"
							},
							{
								"astId": 28,
								"contract": "contracts/11_Voting_withTest.sol:Voting",
								"label": "voteProposalId",
								"offset": 0,
								"slot": "1",
								"type": "t_uint256"
							}
						],
						"numberOfBytes": "64"
					},
					"t_uint256": {
						"encoding": "inplace",
						"label": "uint256",
						"numberOfBytes": "32"
					}
				}
			},
			"userdoc": {
				"kind": "user",
				"methods": {},
				"version": 1
			}
		}
	}
}