{
	"contracts/15_Voting.sol": {
		"Voting": {
			"abi": [
				{
					"inputs": [],
					"stateMutability": "nonpayable",
					"type": "constructor"
				},
				{
					"inputs": [
						{
							"internalType": "address",
							"name": "owner",
							"type": "address"
						}
					],
					"name": "OwnableInvalidOwner",
					"type": "error"
				},
				{
					"inputs": [
						{
							"internalType": "address",
							"name": "account",
							"type": "address"
						}
					],
					"name": "OwnableUnauthorizedAccount",
					"type": "error"
				},
				{
					"anonymous": false,
					"inputs": [
						{
							"indexed": true,
							"internalType": "address",
							"name": "previousOwner",
							"type": "address"
						},
						{
							"indexed": true,
							"internalType": "address",
							"name": "newOwner",
							"type": "address"
						}
					],
					"name": "OwnershipTransferred",
					"type": "event"
				},
				{
					"anonymous": false,
					"inputs": [
						{
							"indexed": false,
							"internalType": "uint256",
							"name": "sessionId",
							"type": "uint256"
						},
						{
							"indexed": false,
							"internalType": "uint256",
							"name": "proposalId",
							"type": "uint256"
						}
					],
					"name": "ProposalRegistered",
					"type": "event"
				},
				{
					"anonymous": false,
					"inputs": [
						{
							"indexed": false,
							"internalType": "uint256",
							"name": "sessionId",
							"type": "uint256"
						},
						{
							"indexed": false,
							"internalType": "address",
							"name": "voter",
							"type": "address"
						},
						{
							"indexed": false,
							"internalType": "uint256",
							"name": "proposalId",
							"type": "uint256"
						}
					],
					"name": "Voted",
					"type": "event"
				},
				{
					"anonymous": false,
					"inputs": [
						{
							"indexed": false,
							"internalType": "uint256",
							"name": "sessionId",
							"type": "uint256"
						},
						{
							"indexed": false,
							"internalType": "address",
							"name": "voterAddress",
							"type": "address"
						}
					],
					"name": "VoterRegistered",
					"type": "event"
				},
				{
					"anonymous": false,
					"inputs": [
						{
							"indexed": false,
							"internalType": "uint256",
							"name": "sessionId",
							"type": "uint256"
						},
						{
							"indexed": false,
							"internalType": "enum Voting.WorkflowStatus",
							"name": "previousStatus",
							"type": "uint8"
						},
						{
							"indexed": false,
							"internalType": "enum Voting.WorkflowStatus",
							"name": "newStatus",
							"type": "uint8"
						}
					],
					"name": "WorkflowStatusChange",
					"type": "event"
				},
				{
					"inputs": [
						{
							"internalType": "uint256",
							"name": "sessionId",
							"type": "uint256"
						},
						{
							"internalType": "address",
							"name": "voter",
							"type": "address"
						}
					],
					"name": "addToWhitelist",
					"outputs": [],
					"stateMutability": "nonpayable",
					"type": "function"
				},
				{
					"inputs": [
						{
							"internalType": "uint256",
							"name": "sessionId",
							"type": "uint256"
						}
					],
					"name": "computeMostVotedProposal",
					"outputs": [],
					"stateMutability": "nonpayable",
					"type": "function"
				},
				{
					"inputs": [],
					"name": "currentSessionId",
					"outputs": [
						{
							"internalType": "uint256",
							"name": "",
							"type": "uint256"
						}
					],
					"stateMutability": "view",
					"type": "function"
				},
				{
					"inputs": [
						{
							"internalType": "uint256",
							"name": "sessionId",
							"type": "uint256"
						}
					],
					"name": "endProposalsRegistration",
					"outputs": [],
					"stateMutability": "nonpayable",
					"type": "function"
				},
				{
					"inputs": [
						{
							"internalType": "uint256",
							"name": "sessionId",
							"type": "uint256"
						}
					],
					"name": "endVotingSession",
					"outputs": [],
					"stateMutability": "nonpayable",
					"type": "function"
				},
				{
					"inputs": [
						{
							"internalType": "uint256",
							"name": "sessionId",
							"type": "uint256"
						}
					],
					"name": "getAllProposals",
					"outputs": [
						{
							"components": [
								{
									"internalType": "string",
									"name": "description",
									"type": "string"
								},
								{
									"internalType": "uint256",
									"name": "voteCount",
									"type": "uint256"
								}
							],
							"internalType": "struct Voting.Proposal[]",
							"name": "",
							"type": "tuple[]"
						}
					],
					"stateMutability": "view",
					"type": "function"
				},
				{
					"inputs": [
						{
							"internalType": "uint256",
							"name": "sessionId",
							"type": "uint256"
						}
					],
					"name": "getMostVotedProposal",
					"outputs": [
						{
							"components": [
								{
									"internalType": "string",
									"name": "description",
									"type": "string"
								},
								{
									"internalType": "uint256",
									"name": "voteCount",
									"type": "uint256"
								}
							],
							"internalType": "struct Voting.Proposal",
							"name": "",
							"type": "tuple"
						}
					],
					"stateMutability": "view",
					"type": "function"
				},
				{
					"inputs": [
						{
							"internalType": "uint256",
							"name": "sessionId",
							"type": "uint256"
						},
						{
							"internalType": "address",
							"name": "voter",
							"type": "address"
						}
					],
					"name": "isWhitelisted",
					"outputs": [
						{
							"internalType": "bool",
							"name": "",
							"type": "bool"
						}
					],
					"stateMutability": "view",
					"type": "function"
				},
				{
					"inputs": [],
					"name": "owner",
					"outputs": [
						{
							"internalType": "address",
							"name": "",
							"type": "address"
						}
					],
					"stateMutability": "view",
					"type": "function"
				},
				{
					"inputs": [],
					"name": "renounceOwnership",
					"outputs": [],
					"stateMutability": "nonpayable",
					"type": "function"
				},
				{
					"inputs": [
						{
							"internalType": "uint256",
							"name": "sessionId",
							"type": "uint256"
						},
						{
							"internalType": "string",
							"name": "description",
							"type": "string"
						}
					],
					"name": "sendNewProposition",
					"outputs": [],
					"stateMutability": "nonpayable",
					"type": "function"
				},
				{
					"inputs": [
						{
							"internalType": "uint256",
							"name": "sessionId",
							"type": "uint256"
						},
						{
							"internalType": "uint256",
							"name": "proposalIndex",
							"type": "uint256"
						}
					],
					"name": "sendVote",
					"outputs": [],
					"stateMutability": "nonpayable",
					"type": "function"
				},
				{
					"inputs": [],
					"name": "startNewSession",
					"outputs": [],
					"stateMutability": "nonpayable",
					"type": "function"
				},
				{
					"inputs": [
						{
							"internalType": "uint256",
							"name": "sessionId",
							"type": "uint256"
						}
					],
					"name": "startProposalsRegistration",
					"outputs": [],
					"stateMutability": "nonpayable",
					"type": "function"
				},
				{
					"inputs": [
						{
							"internalType": "uint256",
							"name": "sessionId",
							"type": "uint256"
						}
					],
					"name": "startVotingSession",
					"outputs": [],
					"stateMutability": "nonpayable",
					"type": "function"
				},
				{
					"inputs": [
						{
							"internalType": "address",
							"name": "newOwner",
							"type": "address"
						}
					],
					"name": "transferOwnership",
					"outputs": [],
					"stateMutability": "nonpayable",
					"type": "function"
				}
			],
			"devdoc": {
				"errors": {
					"OwnableInvalidOwner(address)": [
						{
							"details": "The owner is not a valid owner account. (eg. `address(0)`)"
						}
					],
					"OwnableUnauthorizedAccount(address)": [
						{
							"details": "The caller account is not authorized to perform an operation."
						}
					]
				},
				"kind": "dev",
				"methods": {
					"owner()": {
						"details": "Returns the address of the current owner."
					},
					"renounceOwnership()": {
						"details": "Leaves the contract without owner. It will not be possible to call `onlyOwner` functions. Can only be called by the current owner. NOTE: Renouncing ownership will leave the contract without an owner, thereby disabling any functionality that is only available to the owner."
					},
					"transferOwnership(address)": {
						"details": "Transfers ownership of the contract to a new account (`newOwner`). Can only be called by the current owner."
					}
				},
				"version": 1
			},
			"evm": {
				"assembly": "    /* \"contracts/15_Voting.sol\":111:7207  contract Voting is Ownable {... */\n  mstore(0x40, 0x80)\n    /* \"contracts/15_Voting.sol\":800:850  constructor() Ownable(msg.sender) {... */\n  callvalue\n  dup1\n  iszero\n  tag_1\n  jumpi\n  revert(0x00, 0x00)\ntag_1:\n  pop\n    /* \"contracts/15_Voting.sol\":822:832  msg.sender */\n  caller\n    /* \"@openzeppelin/contracts/access/Ownable.sol\":1297:1298  0 */\n  0x00\n    /* \"@openzeppelin/contracts/access/Ownable.sol\":1273:1299  initialOwner == address(0) */\n  0xffffffffffffffffffffffffffffffffffffffff\n  and\n    /* \"@openzeppelin/contracts/access/Ownable.sol\":1273:1285  initialOwner */\n  dup2\n    /* \"@openzeppelin/contracts/access/Ownable.sol\":1273:1299  initialOwner == address(0) */\n  0xffffffffffffffffffffffffffffffffffffffff\n  and\n  sub\n    /* \"@openzeppelin/contracts/access/Ownable.sol\":1269:1364  if (initialOwner == address(0)) {... */\n  tag_5\n  jumpi\n    /* \"@openzeppelin/contracts/access/Ownable.sol\":1350:1351  0 */\n  0x00\n    /* \"@openzeppelin/contracts/access/Ownable.sol\":1322:1353  OwnableInvalidOwner(address(0)) */\n  mload(0x40)\n  0x1e4fbdf700000000000000000000000000000000000000000000000000000000\n  dup2\n  mstore\n  0x04\n  add\n  tag_6\n  swap2\n  swap1\n  tag_7\n  jump\t// in\ntag_6:\n  mload(0x40)\n  dup1\n  swap2\n  sub\n  swap1\n  revert\n    /* \"@openzeppelin/contracts/access/Ownable.sol\":1269:1364  if (initialOwner == address(0)) {... */\ntag_5:\n    /* \"@openzeppelin/contracts/access/Ownable.sol\":1373:1405  _transferOwnership(initialOwner) */\n  tag_8\n    /* \"@openzeppelin/contracts/access/Ownable.sol\":1392:1404  initialOwner */\n  dup2\n    /* \"@openzeppelin/contracts/access/Ownable.sol\":1373:1391  _transferOwnership */\n  shl(0x20, tag_9)\n    /* \"@openzeppelin/contracts/access/Ownable.sol\":1373:1405  _transferOwnership(initialOwner) */\n  0x20\n  shr\n  jump\t// in\ntag_8:\n    /* \"@openzeppelin/contracts/access/Ownable.sol\":1225:1412  constructor(address initialOwner) {... */\n  pop\n    /* \"contracts/15_Voting.sol\":111:7207  contract Voting is Ownable {... */\n  jump(tag_11)\n    /* \"@openzeppelin/contracts/access/Ownable.sol\":2912:3099  function _transferOwnership(address newOwner) internal virtual {... */\ntag_9:\n    /* \"@openzeppelin/contracts/access/Ownable.sol\":2985:3001  address oldOwner */\n  0x00\n    /* \"@openzeppelin/contracts/access/Ownable.sol\":3004:3010  _owner */\n  0x00\n  0x00\n  swap1\n  sload\n  swap1\n  0x0100\n  exp\n  swap1\n  div\n  0xffffffffffffffffffffffffffffffffffffffff\n  and\n    /* \"@openzeppelin/contracts/access/Ownable.sol\":2985:3010  address oldOwner = _owner */\n  swap1\n  pop\n    /* \"@openzeppelin/contracts/access/Ownable.sol\":3029:3037  newOwner */\n  dup2\n    /* \"@openzeppelin/contracts/access/Ownable.sol\":3020:3026  _owner */\n  0x00\n  0x00\n    /* \"@openzeppelin/contracts/access/Ownable.sol\":3020:3037  _owner = newOwner */\n  0x0100\n  exp\n  dup2\n  sload\n  dup2\n  0xffffffffffffffffffffffffffffffffffffffff\n  mul\n  not\n  and\n  swap1\n  dup4\n  0xffffffffffffffffffffffffffffffffffffffff\n  and\n  mul\n  or\n  swap1\n  sstore\n  pop\n    /* \"@openzeppelin/contracts/access/Ownable.sol\":3083:3091  newOwner */\n  dup2\n    /* \"@openzeppelin/contracts/access/Ownable.sol\":3052:3092  OwnershipTransferred(oldOwner, newOwner) */\n  0xffffffffffffffffffffffffffffffffffffffff\n  and\n    /* \"@openzeppelin/contracts/access/Ownable.sol\":3073:3081  oldOwner */\n  dup2\n    /* \"@openzeppelin/contracts/access/Ownable.sol\":3052:3092  OwnershipTransferred(oldOwner, newOwner) */\n  0xffffffffffffffffffffffffffffffffffffffff\n  and\n  0x8be0079c531659141344cd1fd0a4f28419497f9722a3daafe3b4186f6b6457e0\n  mload(0x40)\n  mload(0x40)\n  dup1\n  swap2\n  sub\n  swap1\n  log3\n    /* \"@openzeppelin/contracts/access/Ownable.sol\":2975:3099  {... */\n  pop\n    /* \"@openzeppelin/contracts/access/Ownable.sol\":2912:3099  function _transferOwnership(address newOwner) internal virtual {... */\n  pop\n  jump\t// out\n    /* \"#utility.yul\":7:133   */\ntag_13:\n    /* \"#utility.yul\":44:51   */\n  0x00\n    /* \"#utility.yul\":84:126   */\n  0xffffffffffffffffffffffffffffffffffffffff\n    /* \"#utility.yul\":77:82   */\n  dup3\n    /* \"#utility.yul\":73:127   */\n  and\n    /* \"#utility.yul\":62:127   */\n  swap1\n  pop\n    /* \"#utility.yul\":7:133   */\n  swap2\n  swap1\n  pop\n  jump\t// out\n    /* \"#utility.yul\":139:235   */\ntag_14:\n    /* \"#utility.yul\":176:183   */\n  0x00\n    /* \"#utility.yul\":205:229   */\n  tag_19\n    /* \"#utility.yul\":223:228   */\n  dup3\n    /* \"#utility.yul\":205:229   */\n  tag_13\n  jump\t// in\ntag_19:\n    /* \"#utility.yul\":194:229   */\n  swap1\n  pop\n    /* \"#utility.yul\":139:235   */\n  swap2\n  swap1\n  pop\n  jump\t// out\n    /* \"#utility.yul\":241:359   */\ntag_15:\n    /* \"#utility.yul\":328:352   */\n  tag_21\n    /* \"#utility.yul\":346:351   */\n  dup2\n    /* \"#utility.yul\":328:352   */\n  tag_14\n  jump\t// in\ntag_21:\n    /* \"#utility.yul\":323:326   */\n  dup3\n    /* \"#utility.yul\":316:353   */\n  mstore\n    /* \"#utility.yul\":241:359   */\n  pop\n  pop\n  jump\t// out\n    /* \"#utility.yul\":365:587   */\ntag_7:\n    /* \"#utility.yul\":458:462   */\n  0x00\n    /* \"#utility.yul\":496:498   */\n  0x20\n    /* \"#utility.yul\":485:494   */\n  dup3\n    /* \"#utility.yul\":481:499   */\n  add\n    /* \"#utility.yul\":473:499   */\n  swap1\n  pop\n    /* \"#utility.yul\":509:580   */\n  tag_23\n    /* \"#utility.yul\":577:578   */\n  0x00\n    /* \"#utility.yul\":566:575   */\n  dup4\n    /* \"#utility.yul\":562:579   */\n  add\n    /* \"#utility.yul\":553:559   */\n  dup5\n    /* \"#utility.yul\":509:580   */\n  tag_15\n  jump\t// in\ntag_23:\n    /* \"#utility.yul\":365:587   */\n  swap3\n  swap2\n  pop\n  pop\n  jump\t// out\n    /* \"contracts/15_Voting.sol\":111:7207  contract Voting is Ownable {... */\ntag_11:\n  dataSize(sub_0)\n  dup1\n  dataOffset(sub_0)\n  0x00\n  codecopy\n  0x00\n  return\nstop\n\nsub_0: assembly {\n        /* \"contracts/15_Voting.sol\":111:7207  contract Voting is Ownable {... */\n      mstore(0x40, 0x80)\n      callvalue\n      dup1\n      iszero\n      tag_1\n      jumpi\n      revert(0x00, 0x00)\n    tag_1:\n      pop\n      jumpi(tag_2, lt(calldatasize, 0x04))\n      shr(0xe0, calldataload(0x00))\n      dup1\n      0x8bc6a6dd\n      gt\n      tag_19\n      jumpi\n      dup1\n      0xd1ff7eeb\n      gt\n      tag_20\n      jumpi\n      dup1\n      0xd1ff7eeb\n      eq\n      tag_15\n      jumpi\n      dup1\n      0xd6a10dcb\n      eq\n      tag_16\n      jumpi\n      dup1\n      0xdc871a5c\n      eq\n      tag_17\n      jumpi\n      dup1\n      0xf2fde38b\n      eq\n      tag_18\n      jumpi\n      jump(tag_2)\n    tag_20:\n      dup1\n      0x8bc6a6dd\n      eq\n      tag_11\n      jumpi\n      dup1\n      0x8da5cb5b\n      eq\n      tag_12\n      jumpi\n      dup1\n      0x9980a55a\n      eq\n      tag_13\n      jumpi\n      dup1\n      0xbf8ca1aa\n      eq\n      tag_14\n      jumpi\n      jump(tag_2)\n    tag_19:\n      dup1\n      0x6597a130\n      gt\n      tag_21\n      jumpi\n      dup1\n      0x6597a130\n      eq\n      tag_7\n      jumpi\n      dup1\n      0x715018a6\n      eq\n      tag_8\n      jumpi\n      dup1\n      0x7d22c35c\n      eq\n      tag_9\n      jumpi\n      dup1\n      0x89a2f485\n      eq\n      tag_10\n      jumpi\n      jump(tag_2)\n    tag_21:\n      dup1\n      0x291e6777\n      eq\n      tag_3\n      jumpi\n      dup1\n      0x2d785461\n      eq\n      tag_4\n      jumpi\n      dup1\n      0x35bb3d30\n      eq\n      tag_5\n      jumpi\n      dup1\n      0x371820e9\n      eq\n      tag_6\n      jumpi\n    tag_2:\n      revert(0x00, 0x00)\n        /* \"contracts/15_Voting.sol\":4814:5512  function sendVote(uint sessionId, uint proposalIndex) external {... */\n    tag_3:\n      tag_22\n      0x04\n      dup1\n      calldatasize\n      sub\n      dup2\n      add\n      swap1\n      tag_23\n      swap2\n      swap1\n      tag_24\n      jump\t// in\n    tag_23:\n      tag_25\n      jump\t// in\n    tag_22:\n      stop\n        /* \"contracts/15_Voting.sol\":1926:2358  function addToWhitelist(uint sessionId, address voter) external onlyOwner {... */\n    tag_4:\n      tag_26\n      0x04\n      dup1\n      calldatasize\n      sub\n      dup2\n      add\n      swap1\n      tag_27\n      swap2\n      swap1\n      tag_28\n      jump\t// in\n    tag_27:\n      tag_29\n      jump\t// in\n    tag_26:\n      stop\n        /* \"contracts/15_Voting.sol\":5545:6001  function endVotingSession(uint sessionId) external onlyOwner {... */\n    tag_5:\n      tag_30\n      0x04\n      dup1\n      calldatasize\n      sub\n      dup2\n      add\n      swap1\n      tag_31\n      swap2\n      swap1\n      tag_32\n      jump\t// in\n    tag_31:\n      tag_33\n      jump\t// in\n    tag_30:\n      stop\n        /* \"contracts/15_Voting.sol\":3078:3569  function sendNewProposition(uint sessionId, string memory description) external {... */\n    tag_6:\n      tag_34\n      0x04\n      dup1\n      calldatasize\n      sub\n      dup2\n      add\n      swap1\n      tag_35\n      swap2\n      swap1\n      tag_36\n      jump\t// in\n    tag_35:\n      tag_37\n      jump\t// in\n    tag_34:\n      stop\n        /* \"contracts/15_Voting.sol\":884:912  uint public currentSessionId */\n    tag_7:\n      tag_38\n      tag_39\n      jump\t// in\n    tag_38:\n      mload(0x40)\n      tag_40\n      swap2\n      swap1\n      tag_41\n      jump\t// in\n    tag_40:\n      mload(0x40)\n      dup1\n      swap2\n      sub\n      swap1\n      return\n        /* \"@openzeppelin/contracts/access/Ownable.sol\":2293:2394  function renounceOwnership() public virtual onlyOwner {... */\n    tag_8:\n      tag_42\n      tag_43\n      jump\t// in\n    tag_42:\n      stop\n        /* \"contracts/15_Voting.sol\":2364:2515  function isWhitelisted(uint sessionId, address voter) public view returns (bool) {... */\n    tag_9:\n      tag_44\n      0x04\n      dup1\n      calldatasize\n      sub\n      dup2\n      add\n      swap1\n      tag_45\n      swap2\n      swap1\n      tag_28\n      jump\t// in\n    tag_45:\n      tag_46\n      jump\t// in\n    tag_44:\n      mload(0x40)\n      tag_47\n      swap2\n      swap1\n      tag_48\n      jump\t// in\n    tag_47:\n      mload(0x40)\n      dup1\n      swap2\n      sub\n      swap1\n      return\n        /* \"contracts/15_Voting.sol\":6897:7205  function getMostVotedProposal(uint sessionId) external view returns (Proposal memory) {... */\n    tag_10:\n      tag_49\n      0x04\n      dup1\n      calldatasize\n      sub\n      dup2\n      add\n      swap1\n      tag_50\n      swap2\n      swap1\n      tag_32\n      jump\t// in\n    tag_50:\n      tag_51\n      jump\t// in\n    tag_49:\n      mload(0x40)\n      tag_52\n      swap2\n      swap1\n      tag_53\n      jump\t// in\n    tag_52:\n      mload(0x40)\n      dup1\n      swap2\n      sub\n      swap1\n      return\n        /* \"contracts/15_Voting.sol\":2563:3041  function startProposalsRegistration(uint sessionId) external onlyOwner {... */\n    tag_11:\n      tag_54\n      0x04\n      dup1\n      calldatasize\n      sub\n      dup2\n      add\n      swap1\n      tag_55\n      swap2\n      swap1\n      tag_32\n      jump\t// in\n    tag_55:\n      tag_56\n      jump\t// in\n    tag_54:\n      stop\n        /* \"@openzeppelin/contracts/access/Ownable.sol\":1638:1723  function owner() public view virtual returns (address) {... */\n    tag_12:\n      tag_57\n      tag_58\n      jump\t// in\n    tag_57:\n      mload(0x40)\n      tag_59\n      swap2\n      swap1\n      tag_60\n      jump\t// in\n    tag_59:\n      mload(0x40)\n      dup1\n      swap2\n      sub\n      swap1\n      return\n        /* \"contracts/15_Voting.sol\":4332:4795  function startVotingSession(uint sessionId) external onlyOwner {... */\n    tag_13:\n      tag_61\n      0x04\n      dup1\n      calldatasize\n      sub\n      dup2\n      add\n      swap1\n      tag_62\n      swap2\n      swap1\n      tag_32\n      jump\t// in\n    tag_62:\n      tag_63\n      jump\t// in\n    tag_61:\n      stop\n        /* \"contracts/15_Voting.sol\":3632:3768  function getAllProposals(uint sessionId) external view returns (Proposal[] memory) {... */\n    tag_14:\n      tag_64\n      0x04\n      dup1\n      calldatasize\n      sub\n      dup2\n      add\n      swap1\n      tag_65\n      swap2\n      swap1\n      tag_32\n      jump\t// in\n    tag_65:\n      tag_66\n      jump\t// in\n    tag_64:\n      mload(0x40)\n      tag_67\n      swap2\n      swap1\n      tag_68\n      jump\t// in\n    tag_67:\n      mload(0x40)\n      dup1\n      swap2\n      sub\n      swap1\n      return\n        /* \"contracts/15_Voting.sol\":3810:4293  function endProposalsRegistration(uint sessionId) external onlyOwner {... */\n    tag_15:\n      tag_69\n      0x04\n      dup1\n      calldatasize\n      sub\n      dup2\n      add\n      swap1\n      tag_70\n      swap2\n      swap1\n      tag_32\n      jump\t// in\n    tag_70:\n      tag_71\n      jump\t// in\n    tag_69:\n      stop\n        /* \"contracts/15_Voting.sol\":6031:6852  function computeMostVotedProposal(uint sessionId) external onlyOwner {... */\n    tag_16:\n      tag_72\n      0x04\n      dup1\n      calldatasize\n      sub\n      dup2\n      add\n      swap1\n      tag_73\n      swap2\n      swap1\n      tag_32\n      jump\t// in\n    tag_73:\n      tag_74\n      jump\t// in\n    tag_72:\n      stop\n        /* \"contracts/15_Voting.sol\":1437:1878  function startNewSession() external onlyOwner {... */\n    tag_17:\n      tag_75\n      tag_76\n      jump\t// in\n    tag_75:\n      stop\n        /* \"@openzeppelin/contracts/access/Ownable.sol\":2543:2758  function transferOwnership(address newOwner) public virtual onlyOwner {... */\n    tag_18:\n      tag_77\n      0x04\n      dup1\n      calldatasize\n      sub\n      dup2\n      add\n      swap1\n      tag_78\n      swap2\n      swap1\n      tag_79\n      jump\t// in\n    tag_78:\n      tag_80\n      jump\t// in\n    tag_77:\n      stop\n        /* \"contracts/15_Voting.sol\":4814:5512  function sendVote(uint sessionId, uint proposalIndex) external {... */\n    tag_25:\n        /* \"contracts/15_Voting.sol\":4887:4916  VotingSession storage session */\n      0x00\n        /* \"contracts/15_Voting.sol\":4919:4927  sessions */\n      0x02\n        /* \"contracts/15_Voting.sol\":4919:4938  sessions[sessionId] */\n      0x00\n        /* \"contracts/15_Voting.sol\":4928:4937  sessionId */\n      dup5\n        /* \"contracts/15_Voting.sol\":4919:4938  sessions[sessionId] */\n      dup2\n      mstore\n      0x20\n      add\n      swap1\n      dup2\n      mstore\n      0x20\n      add\n      0x00\n      keccak256\n        /* \"contracts/15_Voting.sol\":4887:4938  VotingSession storage session = sessions[sessionId] */\n      swap1\n      pop\n        /* \"contracts/15_Voting.sol\":4982:5017  WorkflowStatus.VotingSessionStarted */\n      0x03\n        /* \"contracts/15_Voting.sol\":4956:5017  session.workflowStatus == WorkflowStatus.VotingSessionStarted */\n      0x05\n      dup2\n      gt\n      iszero\n      tag_82\n      jumpi\n      tag_83\n      tag_84\n      jump\t// in\n    tag_83:\n    tag_82:\n        /* \"contracts/15_Voting.sol\":4956:4963  session */\n      dup2\n        /* \"contracts/15_Voting.sol\":4956:4978  session.workflowStatus */\n      0x00\n      add\n      0x00\n      swap1\n      sload\n      swap1\n      0x0100\n      exp\n      swap1\n      div\n      0xff\n      and\n        /* \"contracts/15_Voting.sol\":4956:5017  session.workflowStatus == WorkflowStatus.VotingSessionStarted */\n      0x05\n      dup2\n      gt\n      iszero\n      tag_85\n      jumpi\n      tag_86\n      tag_84\n      jump\t// in\n    tag_86:\n    tag_85:\n      eq\n        /* \"contracts/15_Voting.sol\":4948:5048  require(session.workflowStatus == WorkflowStatus.VotingSessionStarted, \"Voting session not started\") */\n      tag_87\n      jumpi\n      mload(0x40)\n      0x08c379a000000000000000000000000000000000000000000000000000000000\n      dup2\n      mstore\n      0x04\n      add\n      tag_88\n      swap1\n      tag_89\n      jump\t// in\n    tag_88:\n      mload(0x40)\n      dup1\n      swap2\n      sub\n      swap1\n      revert\n    tag_87:\n        /* \"contracts/15_Voting.sol\":5082:5089  session */\n      dup1\n        /* \"contracts/15_Voting.sol\":5082:5099  session.proposals */\n      0x01\n      add\n        /* \"contracts/15_Voting.sol\":5082:5106  session.proposals.length */\n      dup1\n      sload\n      swap1\n      pop\n        /* \"contracts/15_Voting.sol\":5066:5079  proposalIndex */\n      dup3\n        /* \"contracts/15_Voting.sol\":5066:5106  proposalIndex < session.proposals.length */\n      lt\n        /* \"contracts/15_Voting.sol\":5058:5134  require(proposalIndex < session.proposals.length, \"Proposal does not exist\") */\n      tag_90\n      jumpi\n      mload(0x40)\n      0x08c379a000000000000000000000000000000000000000000000000000000000\n      dup2\n      mstore\n      0x04\n      add\n      tag_91\n      swap1\n      tag_92\n      jump\t// in\n    tag_91:\n      mload(0x40)\n      dup1\n      swap2\n      sub\n      swap1\n      revert\n    tag_90:\n        /* \"contracts/15_Voting.sol\":5144:5163  Voter storage voter */\n      0x00\n        /* \"contracts/15_Voting.sol\":5166:5173  session */\n      dup2\n        /* \"contracts/15_Voting.sol\":5166:5180  session.voters */\n      0x02\n      add\n        /* \"contracts/15_Voting.sol\":5166:5192  session.voters[msg.sender] */\n      0x00\n        /* \"contracts/15_Voting.sol\":5181:5191  msg.sender */\n      caller\n        /* \"contracts/15_Voting.sol\":5166:5192  session.voters[msg.sender] */\n      0xffffffffffffffffffffffffffffffffffffffff\n      and\n      0xffffffffffffffffffffffffffffffffffffffff\n      and\n      dup2\n      mstore\n      0x20\n      add\n      swap1\n      dup2\n      mstore\n      0x20\n      add\n      0x00\n      keccak256\n        /* \"contracts/15_Voting.sol\":5144:5192  Voter storage voter = session.voters[msg.sender] */\n      swap1\n      pop\n        /* \"contracts/15_Voting.sol\":5210:5215  voter */\n      dup1\n        /* \"contracts/15_Voting.sol\":5210:5228  voter.isRegistered */\n      0x00\n      add\n      0x00\n      swap1\n      sload\n      swap1\n      0x0100\n      exp\n      swap1\n      div\n      0xff\n      and\n        /* \"contracts/15_Voting.sol\":5202:5255  require(voter.isRegistered, \"You are not registered\") */\n      tag_93\n      jumpi\n      mload(0x40)\n      0x08c379a000000000000000000000000000000000000000000000000000000000\n      dup2\n      mstore\n      0x04\n      add\n      tag_94\n      swap1\n      tag_95\n      jump\t// in\n    tag_94:\n      mload(0x40)\n      dup1\n      swap2\n      sub\n      swap1\n      revert\n    tag_93:\n        /* \"contracts/15_Voting.sol\":5274:5279  voter */\n      dup1\n        /* \"contracts/15_Voting.sol\":5274:5288  voter.hasVoted */\n      0x00\n      add\n      0x01\n      swap1\n      sload\n      swap1\n      0x0100\n      exp\n      swap1\n      div\n      0xff\n      and\n        /* \"contracts/15_Voting.sol\":5273:5288  !voter.hasVoted */\n      iszero\n        /* \"contracts/15_Voting.sol\":5265:5315  require(!voter.hasVoted, \"You have already voted\") */\n      tag_96\n      jumpi\n      mload(0x40)\n      0x08c379a000000000000000000000000000000000000000000000000000000000\n      dup2\n      mstore\n      0x04\n      add\n      tag_97\n      swap1\n      tag_98\n      jump\t// in\n    tag_97:\n      mload(0x40)\n      dup1\n      swap2\n      sub\n      swap1\n      revert\n    tag_96:\n        /* \"contracts/15_Voting.sol\":5326:5333  session */\n      dup2\n        /* \"contracts/15_Voting.sol\":5326:5343  session.proposals */\n      0x01\n      add\n        /* \"contracts/15_Voting.sol\":5344:5357  proposalIndex */\n      dup4\n        /* \"contracts/15_Voting.sol\":5326:5358  session.proposals[proposalIndex] */\n      dup2\n      sload\n      dup2\n      lt\n      tag_99\n      jumpi\n      tag_100\n      tag_101\n      jump\t// in\n    tag_100:\n    tag_99:\n      swap1\n      0x00\n      mstore\n      keccak256(0x00, 0x20)\n      swap1\n      0x02\n      mul\n      add\n        /* \"contracts/15_Voting.sol\":5326:5368  session.proposals[proposalIndex].voteCount */\n      0x01\n      add\n      0x00\n        /* \"contracts/15_Voting.sol\":5326:5370  session.proposals[proposalIndex].voteCount++ */\n      dup2\n      sload\n      dup1\n      swap3\n      swap2\n      swap1\n      tag_103\n      swap1\n      tag_104\n      jump\t// in\n    tag_103:\n      swap2\n      swap1\n      pop\n      sstore\n      pop\n        /* \"contracts/15_Voting.sol\":5397:5401  true */\n      0x01\n        /* \"contracts/15_Voting.sol\":5380:5385  voter */\n      dup2\n        /* \"contracts/15_Voting.sol\":5380:5394  voter.hasVoted */\n      0x00\n      add\n      0x01\n        /* \"contracts/15_Voting.sol\":5380:5401  voter.hasVoted = true */\n      0x0100\n      exp\n      dup2\n      sload\n      dup2\n      0xff\n      mul\n      not\n      and\n      swap1\n      dup4\n      iszero\n      iszero\n      mul\n      or\n      swap1\n      sstore\n      pop\n        /* \"contracts/15_Voting.sol\":5434:5447  proposalIndex */\n      dup3\n        /* \"contracts/15_Voting.sol\":5411:5416  voter */\n      dup2\n        /* \"contracts/15_Voting.sol\":5411:5431  voter.voteProposalId */\n      0x01\n      add\n        /* \"contracts/15_Voting.sol\":5411:5447  voter.voteProposalId = proposalIndex */\n      dup2\n      swap1\n      sstore\n      pop\n        /* \"contracts/15_Voting.sol\":5462:5505  Voted(sessionId, msg.sender, proposalIndex) */\n      0x1abe610cf2bf87e57dcc1181fcf5ac0934e843d8344ab9eed6e86c799f62585e\n        /* \"contracts/15_Voting.sol\":5468:5477  sessionId */\n      dup5\n        /* \"contracts/15_Voting.sol\":5479:5489  msg.sender */\n      caller\n        /* \"contracts/15_Voting.sol\":5491:5504  proposalIndex */\n      dup6\n        /* \"contracts/15_Voting.sol\":5462:5505  Voted(sessionId, msg.sender, proposalIndex) */\n      mload(0x40)\n      tag_105\n      swap4\n      swap3\n      swap2\n      swap1\n      tag_106\n      jump\t// in\n    tag_105:\n      mload(0x40)\n      dup1\n      swap2\n      sub\n      swap1\n      log1\n        /* \"contracts/15_Voting.sol\":4877:5512  {... */\n      pop\n      pop\n        /* \"contracts/15_Voting.sol\":4814:5512  function sendVote(uint sessionId, uint proposalIndex) external {... */\n      pop\n      pop\n      jump\t// out\n        /* \"contracts/15_Voting.sol\":1926:2358  function addToWhitelist(uint sessionId, address voter) external onlyOwner {... */\n    tag_29:\n        /* \"@openzeppelin/contracts/access/Ownable.sol\":1531:1544  _checkOwner() */\n      tag_108\n        /* \"@openzeppelin/contracts/access/Ownable.sol\":1531:1542  _checkOwner */\n      tag_109\n        /* \"@openzeppelin/contracts/access/Ownable.sol\":1531:1544  _checkOwner() */\n      jump\t// in\n    tag_108:\n        /* \"contracts/15_Voting.sol\":2010:2039  VotingSession storage session */\n      0x00\n        /* \"contracts/15_Voting.sol\":2042:2050  sessions */\n      0x02\n        /* \"contracts/15_Voting.sol\":2042:2061  sessions[sessionId] */\n      0x00\n        /* \"contracts/15_Voting.sol\":2051:2060  sessionId */\n      dup5\n        /* \"contracts/15_Voting.sol\":2042:2061  sessions[sessionId] */\n      dup2\n      mstore\n      0x20\n      add\n      swap1\n      dup2\n      mstore\n      0x20\n      add\n      0x00\n      keccak256\n        /* \"contracts/15_Voting.sol\":2010:2061  VotingSession storage session = sessions[sessionId] */\n      swap1\n      pop\n        /* \"contracts/15_Voting.sol\":2105:2137  WorkflowStatus.RegisteringVoters */\n      0x00\n        /* \"contracts/15_Voting.sol\":2079:2137  session.workflowStatus == WorkflowStatus.RegisteringVoters */\n      0x05\n      dup2\n      gt\n      iszero\n      tag_111\n      jumpi\n      tag_112\n      tag_84\n      jump\t// in\n    tag_112:\n    tag_111:\n        /* \"contracts/15_Voting.sol\":2079:2086  session */\n      dup2\n        /* \"contracts/15_Voting.sol\":2079:2101  session.workflowStatus */\n      0x00\n      add\n      0x00\n      swap1\n      sload\n      swap1\n      0x0100\n      exp\n      swap1\n      div\n      0xff\n      and\n        /* \"contracts/15_Voting.sol\":2079:2137  session.workflowStatus == WorkflowStatus.RegisteringVoters */\n      0x05\n      dup2\n      gt\n      iszero\n      tag_113\n      jumpi\n      tag_114\n      tag_84\n      jump\t// in\n    tag_114:\n    tag_113:\n      eq\n        /* \"contracts/15_Voting.sol\":2071:2166  require(session.workflowStatus == WorkflowStatus.RegisteringVoters, \"Registration not started\") */\n      tag_115\n      jumpi\n      mload(0x40)\n      0x08c379a000000000000000000000000000000000000000000000000000000000\n      dup2\n      mstore\n      0x04\n      add\n      tag_116\n      swap1\n      tag_117\n      jump\t// in\n    tag_116:\n      mload(0x40)\n      dup1\n      swap2\n      sub\n      swap1\n      revert\n    tag_115:\n        /* \"contracts/15_Voting.sol\":2185:2192  session */\n      dup1\n        /* \"contracts/15_Voting.sol\":2185:2199  session.voters */\n      0x02\n      add\n        /* \"contracts/15_Voting.sol\":2185:2206  session.voters[voter] */\n      0x00\n        /* \"contracts/15_Voting.sol\":2200:2205  voter */\n      dup4\n        /* \"contracts/15_Voting.sol\":2185:2206  session.voters[voter] */\n      0xffffffffffffffffffffffffffffffffffffffff\n      and\n      0xffffffffffffffffffffffffffffffffffffffff\n      and\n      dup2\n      mstore\n      0x20\n      add\n      swap1\n      dup2\n      mstore\n      0x20\n      add\n      0x00\n      keccak256\n        /* \"contracts/15_Voting.sol\":2185:2219  session.voters[voter].isRegistered */\n      0x00\n      add\n      0x00\n      swap1\n      sload\n      swap1\n      0x0100\n      exp\n      swap1\n      div\n      0xff\n      and\n        /* \"contracts/15_Voting.sol\":2184:2219  !session.voters[voter].isRegistered */\n      iszero\n        /* \"contracts/15_Voting.sol\":2176:2248  require(!session.voters[voter].isRegistered, \"Voter already registered\") */\n      tag_118\n      jumpi\n      mload(0x40)\n      0x08c379a000000000000000000000000000000000000000000000000000000000\n      dup2\n      mstore\n      0x04\n      add\n      tag_119\n      swap1\n      tag_120\n      jump\t// in\n    tag_119:\n      mload(0x40)\n      dup1\n      swap2\n      sub\n      swap1\n      revert\n    tag_118:\n        /* \"contracts/15_Voting.sol\":2282:2303  Voter(true, false, 0) */\n      mload(0x40)\n      dup1\n      0x60\n      add\n      0x40\n      mstore\n      dup1\n        /* \"contracts/15_Voting.sol\":2288:2292  true */\n      0x01\n        /* \"contracts/15_Voting.sol\":2282:2303  Voter(true, false, 0) */\n      iszero\n      iszero\n      dup2\n      mstore\n      0x20\n      add\n        /* \"contracts/15_Voting.sol\":2294:2299  false */\n      0x00\n        /* \"contracts/15_Voting.sol\":2282:2303  Voter(true, false, 0) */\n      iszero\n      iszero\n      dup2\n      mstore\n      0x20\n      add\n        /* \"contracts/15_Voting.sol\":2301:2302  0 */\n      0x00\n        /* \"contracts/15_Voting.sol\":2282:2303  Voter(true, false, 0) */\n      dup2\n      mstore\n      pop\n        /* \"contracts/15_Voting.sol\":2258:2265  session */\n      dup2\n        /* \"contracts/15_Voting.sol\":2258:2272  session.voters */\n      0x02\n      add\n        /* \"contracts/15_Voting.sol\":2258:2279  session.voters[voter] */\n      0x00\n        /* \"contracts/15_Voting.sol\":2273:2278  voter */\n      dup5\n        /* \"contracts/15_Voting.sol\":2258:2279  session.voters[voter] */\n      0xffffffffffffffffffffffffffffffffffffffff\n      and\n      0xffffffffffffffffffffffffffffffffffffffff\n      and\n      dup2\n      mstore\n      0x20\n      add\n      swap1\n      dup2\n      mstore\n      0x20\n      add\n      0x00\n      keccak256\n        /* \"contracts/15_Voting.sol\":2258:2303  session.voters[voter] = Voter(true, false, 0) */\n      0x00\n      dup3\n      add\n      mload\n      dup2\n      0x00\n      add\n      exp(0x0100, 0x00)\n      dup2\n      sload\n      dup2\n      0xff\n      mul\n      not\n      and\n      swap1\n      dup4\n      iszero\n      iszero\n      mul\n      or\n      swap1\n      sstore\n      pop\n      0x20\n      dup3\n      add\n      mload\n      dup2\n      0x00\n      add\n      exp(0x0100, 0x01)\n      dup2\n      sload\n      dup2\n      0xff\n      mul\n      not\n      and\n      swap1\n      dup4\n      iszero\n      iszero\n      mul\n      or\n      swap1\n      sstore\n      pop\n      0x40\n      dup3\n      add\n      mload\n      dup2\n      0x01\n      add\n      sstore\n      swap1\n      pop\n      pop\n        /* \"contracts/15_Voting.sol\":2318:2351  VoterRegistered(sessionId, voter) */\n      0xf45b8429c36d478f9a6d081c4811a819b98aa5b608588bed9d406405cf282473\n        /* \"contracts/15_Voting.sol\":2334:2343  sessionId */\n      dup4\n        /* \"contracts/15_Voting.sol\":2345:2350  voter */\n      dup4\n        /* \"contracts/15_Voting.sol\":2318:2351  VoterRegistered(sessionId, voter) */\n      mload(0x40)\n      tag_121\n      swap3\n      swap2\n      swap1\n      tag_122\n      jump\t// in\n    tag_121:\n      mload(0x40)\n      dup1\n      swap2\n      sub\n      swap1\n      log1\n        /* \"contracts/15_Voting.sol\":2000:2358  {... */\n      pop\n        /* \"contracts/15_Voting.sol\":1926:2358  function addToWhitelist(uint sessionId, address voter) external onlyOwner {... */\n      pop\n      pop\n      jump\t// out\n        /* \"contracts/15_Voting.sol\":5545:6001  function endVotingSession(uint sessionId) external onlyOwner {... */\n    tag_33:\n        /* \"@openzeppelin/contracts/access/Ownable.sol\":1531:1544  _checkOwner() */\n      tag_124\n        /* \"@openzeppelin/contracts/access/Ownable.sol\":1531:1542  _checkOwner */\n      tag_109\n        /* \"@openzeppelin/contracts/access/Ownable.sol\":1531:1544  _checkOwner() */\n      jump\t// in\n    tag_124:\n        /* \"contracts/15_Voting.sol\":5616:5645  VotingSession storage session */\n      0x00\n        /* \"contracts/15_Voting.sol\":5648:5656  sessions */\n      0x02\n        /* \"contracts/15_Voting.sol\":5648:5667  sessions[sessionId] */\n      0x00\n        /* \"contracts/15_Voting.sol\":5657:5666  sessionId */\n      dup4\n        /* \"contracts/15_Voting.sol\":5648:5667  sessions[sessionId] */\n      dup2\n      mstore\n      0x20\n      add\n      swap1\n      dup2\n      mstore\n      0x20\n      add\n      0x00\n      keccak256\n        /* \"contracts/15_Voting.sol\":5616:5667  VotingSession storage session = sessions[sessionId] */\n      swap1\n      pop\n        /* \"contracts/15_Voting.sol\":5711:5746  WorkflowStatus.VotingSessionStarted */\n      0x03\n        /* \"contracts/15_Voting.sol\":5685:5746  session.workflowStatus == WorkflowStatus.VotingSessionStarted */\n      0x05\n      dup2\n      gt\n      iszero\n      tag_126\n      jumpi\n      tag_127\n      tag_84\n      jump\t// in\n    tag_127:\n    tag_126:\n        /* \"contracts/15_Voting.sol\":5685:5692  session */\n      dup2\n        /* \"contracts/15_Voting.sol\":5685:5707  session.workflowStatus */\n      0x00\n      add\n      0x00\n      swap1\n      sload\n      swap1\n      0x0100\n      exp\n      swap1\n      div\n      0xff\n      and\n        /* \"contracts/15_Voting.sol\":5685:5746  session.workflowStatus == WorkflowStatus.VotingSessionStarted */\n      0x05\n      dup2\n      gt\n      iszero\n      tag_128\n      jumpi\n      tag_129\n      tag_84\n      jump\t// in\n    tag_129:\n    tag_128:\n      eq\n        /* \"contracts/15_Voting.sol\":5677:5777  require(session.workflowStatus == WorkflowStatus.VotingSessionStarted, \"Voting session not started\") */\n      tag_130\n      jumpi\n      mload(0x40)\n      0x08c379a000000000000000000000000000000000000000000000000000000000\n      dup2\n      mstore\n      0x04\n      add\n      tag_131\n      swap1\n      tag_89\n      jump\t// in\n    tag_131:\n      mload(0x40)\n      dup1\n      swap2\n      sub\n      swap1\n      revert\n    tag_130:\n        /* \"contracts/15_Voting.sol\":5787:5810  WorkflowStatus previous */\n      0x00\n        /* \"contracts/15_Voting.sol\":5813:5820  session */\n      dup2\n        /* \"contracts/15_Voting.sol\":5813:5835  session.workflowStatus */\n      0x00\n      add\n      0x00\n      swap1\n      sload\n      swap1\n      0x0100\n      exp\n      swap1\n      div\n      0xff\n      and\n        /* \"contracts/15_Voting.sol\":5787:5835  WorkflowStatus previous = session.workflowStatus */\n      swap1\n      pop\n        /* \"contracts/15_Voting.sol\":5870:5903  WorkflowStatus.VotingSessionEnded */\n      0x04\n        /* \"contracts/15_Voting.sol\":5845:5852  session */\n      dup3\n        /* \"contracts/15_Voting.sol\":5845:5867  session.workflowStatus */\n      0x00\n      add\n      0x00\n        /* \"contracts/15_Voting.sol\":5845:5903  session.workflowStatus = WorkflowStatus.VotingSessionEnded */\n      0x0100\n      exp\n      dup2\n      sload\n      dup2\n      0xff\n      mul\n      not\n      and\n      swap1\n      dup4\n      0x05\n      dup2\n      gt\n      iszero\n      tag_132\n      jumpi\n      tag_133\n      tag_84\n      jump\t// in\n    tag_133:\n    tag_132:\n      mul\n      or\n      swap1\n      sstore\n      pop\n        /* \"contracts/15_Voting.sol\":5918:5994  WorkflowStatusChange(sessionId, previous, WorkflowStatus.VotingSessionEnded) */\n      0xb067099e10826978a3867510ad1e0dcf4ca5cef8e422fd8df2fc3d679167fe8d\n        /* \"contracts/15_Voting.sol\":5939:5948  sessionId */\n      dup4\n        /* \"contracts/15_Voting.sol\":5950:5958  previous */\n      dup3\n        /* \"contracts/15_Voting.sol\":5960:5993  WorkflowStatus.VotingSessionEnded */\n      0x04\n        /* \"contracts/15_Voting.sol\":5918:5994  WorkflowStatusChange(sessionId, previous, WorkflowStatus.VotingSessionEnded) */\n      mload(0x40)\n      tag_134\n      swap4\n      swap3\n      swap2\n      swap1\n      tag_135\n      jump\t// in\n    tag_134:\n      mload(0x40)\n      dup1\n      swap2\n      sub\n      swap1\n      log1\n        /* \"contracts/15_Voting.sol\":5606:6001  {... */\n      pop\n      pop\n        /* \"contracts/15_Voting.sol\":5545:6001  function endVotingSession(uint sessionId) external onlyOwner {... */\n      pop\n      jump\t// out\n        /* \"contracts/15_Voting.sol\":3078:3569  function sendNewProposition(uint sessionId, string memory description) external {... */\n    tag_37:\n        /* \"contracts/15_Voting.sol\":3168:3197  VotingSession storage session */\n      0x00\n        /* \"contracts/15_Voting.sol\":3200:3208  sessions */\n      0x02\n        /* \"contracts/15_Voting.sol\":3200:3219  sessions[sessionId] */\n      0x00\n        /* \"contracts/15_Voting.sol\":3209:3218  sessionId */\n      dup5\n        /* \"contracts/15_Voting.sol\":3200:3219  sessions[sessionId] */\n      dup2\n      mstore\n      0x20\n      add\n      swap1\n      dup2\n      mstore\n      0x20\n      add\n      0x00\n      keccak256\n        /* \"contracts/15_Voting.sol\":3168:3219  VotingSession storage session = sessions[sessionId] */\n      swap1\n      pop\n        /* \"contracts/15_Voting.sol\":3263:3306  WorkflowStatus.ProposalsRegistrationStarted */\n      0x01\n        /* \"contracts/15_Voting.sol\":3237:3306  session.workflowStatus == WorkflowStatus.ProposalsRegistrationStarted */\n      0x05\n      dup2\n      gt\n      iszero\n      tag_137\n      jumpi\n      tag_138\n      tag_84\n      jump\t// in\n    tag_138:\n    tag_137:\n        /* \"contracts/15_Voting.sol\":3237:3244  session */\n      dup2\n        /* \"contracts/15_Voting.sol\":3237:3259  session.workflowStatus */\n      0x00\n      add\n      0x00\n      swap1\n      sload\n      swap1\n      0x0100\n      exp\n      swap1\n      div\n      0xff\n      and\n        /* \"contracts/15_Voting.sol\":3237:3306  session.workflowStatus == WorkflowStatus.ProposalsRegistrationStarted */\n      0x05\n      dup2\n      gt\n      iszero\n      tag_139\n      jumpi\n      tag_140\n      tag_84\n      jump\t// in\n    tag_140:\n    tag_139:\n      eq\n        /* \"contracts/15_Voting.sol\":3229:3345  require(session.workflowStatus == WorkflowStatus.ProposalsRegistrationStarted, \"Proposals registration not started\") */\n      tag_141\n      jumpi\n      mload(0x40)\n      0x08c379a000000000000000000000000000000000000000000000000000000000\n      dup2\n      mstore\n      0x04\n      add\n      tag_142\n      swap1\n      tag_143\n      jump\t// in\n    tag_142:\n      mload(0x40)\n      dup1\n      swap2\n      sub\n      swap1\n      revert\n    tag_141:\n        /* \"contracts/15_Voting.sol\":3363:3370  session */\n      dup1\n        /* \"contracts/15_Voting.sol\":3363:3377  session.voters */\n      0x02\n      add\n        /* \"contracts/15_Voting.sol\":3363:3389  session.voters[msg.sender] */\n      0x00\n        /* \"contracts/15_Voting.sol\":3378:3388  msg.sender */\n      caller\n        /* \"contracts/15_Voting.sol\":3363:3389  session.voters[msg.sender] */\n      0xffffffffffffffffffffffffffffffffffffffff\n      and\n      0xffffffffffffffffffffffffffffffffffffffff\n      and\n      dup2\n      mstore\n      0x20\n      add\n      swap1\n      dup2\n      mstore\n      0x20\n      add\n      0x00\n      keccak256\n        /* \"contracts/15_Voting.sol\":3363:3402  session.voters[msg.sender].isRegistered */\n      0x00\n      add\n      0x00\n      swap1\n      sload\n      swap1\n      0x0100\n      exp\n      swap1\n      div\n      0xff\n      and\n        /* \"contracts/15_Voting.sol\":3355:3430  require(session.voters[msg.sender].isRegistered, \"You are not whitelisted\") */\n      tag_144\n      jumpi\n      mload(0x40)\n      0x08c379a000000000000000000000000000000000000000000000000000000000\n      dup2\n      mstore\n      0x04\n      add\n      tag_145\n      swap1\n      tag_146\n      jump\t// in\n    tag_145:\n      mload(0x40)\n      dup1\n      swap2\n      sub\n      swap1\n      revert\n    tag_144:\n        /* \"contracts/15_Voting.sol\":3440:3447  session */\n      dup1\n        /* \"contracts/15_Voting.sol\":3440:3457  session.proposals */\n      0x01\n      add\n        /* \"contracts/15_Voting.sol\":3463:3487  Proposal(description, 0) */\n      mload(0x40)\n      dup1\n      0x40\n      add\n      0x40\n      mstore\n      dup1\n        /* \"contracts/15_Voting.sol\":3472:3483  description */\n      dup5\n        /* \"contracts/15_Voting.sol\":3463:3487  Proposal(description, 0) */\n      dup2\n      mstore\n      0x20\n      add\n        /* \"contracts/15_Voting.sol\":3485:3486  0 */\n      0x00\n        /* \"contracts/15_Voting.sol\":3463:3487  Proposal(description, 0) */\n      dup2\n      mstore\n      pop\n        /* \"contracts/15_Voting.sol\":3440:3488  session.proposals.push(Proposal(description, 0)) */\n      swap1\n      dup1\n      0x01\n      dup2\n      sload\n      add\n      dup1\n      dup3\n      sstore\n      dup1\n      swap2\n      pop\n      pop\n      0x01\n      swap1\n      sub\n      swap1\n      0x00\n      mstore\n      keccak256(0x00, 0x20)\n      swap1\n      0x02\n      mul\n      add\n      0x00\n      swap1\n      swap2\n      swap1\n      swap2\n      swap1\n      swap2\n      pop\n      0x00\n      dup3\n      add\n      mload\n      dup2\n      0x00\n      add\n      swap1\n      dup2\n      tag_148\n      swap2\n      swap1\n      tag_149\n      jump\t// in\n    tag_148:\n      pop\n      0x20\n      dup3\n      add\n      mload\n      dup2\n      0x01\n      add\n      sstore\n      pop\n      pop\n        /* \"contracts/15_Voting.sol\":3503:3562  ProposalRegistered(sessionId, session.proposals.length - 1) */\n      0xca195036d7c4d40b171ad51e9c891c830a0ad9a5e114b5b075cdf791317e300c\n        /* \"contracts/15_Voting.sol\":3522:3531  sessionId */\n      dup4\n        /* \"contracts/15_Voting.sol\":3560:3561  1 */\n      0x01\n        /* \"contracts/15_Voting.sol\":3533:3540  session */\n      dup4\n        /* \"contracts/15_Voting.sol\":3533:3550  session.proposals */\n      0x01\n      add\n        /* \"contracts/15_Voting.sol\":3533:3557  session.proposals.length */\n      dup1\n      sload\n      swap1\n      pop\n        /* \"contracts/15_Voting.sol\":3533:3561  session.proposals.length - 1 */\n      tag_150\n      swap2\n      swap1\n      tag_151\n      jump\t// in\n    tag_150:\n        /* \"contracts/15_Voting.sol\":3503:3562  ProposalRegistered(sessionId, session.proposals.length - 1) */\n      mload(0x40)\n      tag_152\n      swap3\n      swap2\n      swap1\n      tag_153\n      jump\t// in\n    tag_152:\n      mload(0x40)\n      dup1\n      swap2\n      sub\n      swap1\n      log1\n        /* \"contracts/15_Voting.sol\":3158:3569  {... */\n      pop\n        /* \"contracts/15_Voting.sol\":3078:3569  function sendNewProposition(uint sessionId, string memory description) external {... */\n      pop\n      pop\n      jump\t// out\n        /* \"contracts/15_Voting.sol\":884:912  uint public currentSessionId */\n    tag_39:\n      sload(0x01)\n      dup2\n      jump\t// out\n        /* \"@openzeppelin/contracts/access/Ownable.sol\":2293:2394  function renounceOwnership() public virtual onlyOwner {... */\n    tag_43:\n        /* \"@openzeppelin/contracts/access/Ownable.sol\":1531:1544  _checkOwner() */\n      tag_155\n        /* \"@openzeppelin/contracts/access/Ownable.sol\":1531:1542  _checkOwner */\n      tag_109\n        /* \"@openzeppelin/contracts/access/Ownable.sol\":1531:1544  _checkOwner() */\n      jump\t// in\n    tag_155:\n        /* \"@openzeppelin/contracts/access/Ownable.sol\":2357:2387  _transferOwnership(address(0)) */\n      tag_157\n        /* \"@openzeppelin/contracts/access/Ownable.sol\":2384:2385  0 */\n      0x00\n        /* \"@openzeppelin/contracts/access/Ownable.sol\":2357:2375  _transferOwnership */\n      tag_158\n        /* \"@openzeppelin/contracts/access/Ownable.sol\":2357:2387  _transferOwnership(address(0)) */\n      jump\t// in\n    tag_157:\n        /* \"@openzeppelin/contracts/access/Ownable.sol\":2293:2394  function renounceOwnership() public virtual onlyOwner {... */\n      jump\t// out\n        /* \"contracts/15_Voting.sol\":2364:2515  function isWhitelisted(uint sessionId, address voter) public view returns (bool) {... */\n    tag_46:\n        /* \"contracts/15_Voting.sol\":2439:2443  bool */\n      0x00\n        /* \"contracts/15_Voting.sol\":2462:2470  sessions */\n      0x02\n        /* \"contracts/15_Voting.sol\":2462:2481  sessions[sessionId] */\n      0x00\n        /* \"contracts/15_Voting.sol\":2471:2480  sessionId */\n      dup5\n        /* \"contracts/15_Voting.sol\":2462:2481  sessions[sessionId] */\n      dup2\n      mstore\n      0x20\n      add\n      swap1\n      dup2\n      mstore\n      0x20\n      add\n      0x00\n      keccak256\n        /* \"contracts/15_Voting.sol\":2462:2488  sessions[sessionId].voters */\n      0x02\n      add\n        /* \"contracts/15_Voting.sol\":2462:2495  sessions[sessionId].voters[voter] */\n      0x00\n        /* \"contracts/15_Voting.sol\":2489:2494  voter */\n      dup4\n        /* \"contracts/15_Voting.sol\":2462:2495  sessions[sessionId].voters[voter] */\n      0xffffffffffffffffffffffffffffffffffffffff\n      and\n      0xffffffffffffffffffffffffffffffffffffffff\n      and\n      dup2\n      mstore\n      0x20\n      add\n      swap1\n      dup2\n      mstore\n      0x20\n      add\n      0x00\n      keccak256\n        /* \"contracts/15_Voting.sol\":2462:2508  sessions[sessionId].voters[voter].isRegistered */\n      0x00\n      add\n      0x00\n      swap1\n      sload\n      swap1\n      0x0100\n      exp\n      swap1\n      div\n      0xff\n      and\n        /* \"contracts/15_Voting.sol\":2455:2508  return sessions[sessionId].voters[voter].isRegistered */\n      swap1\n      pop\n        /* \"contracts/15_Voting.sol\":2364:2515  function isWhitelisted(uint sessionId, address voter) public view returns (bool) {... */\n      swap3\n      swap2\n      pop\n      pop\n      jump\t// out\n        /* \"contracts/15_Voting.sol\":6897:7205  function getMostVotedProposal(uint sessionId) external view returns (Proposal memory) {... */\n    tag_51:\n        /* \"contracts/15_Voting.sol\":6966:6981  Proposal memory */\n      tag_160\n      tag_161\n      jump\t// in\n    tag_160:\n        /* \"contracts/15_Voting.sol\":6993:7022  VotingSession storage session */\n      0x00\n        /* \"contracts/15_Voting.sol\":7025:7033  sessions */\n      0x02\n        /* \"contracts/15_Voting.sol\":7025:7044  sessions[sessionId] */\n      0x00\n        /* \"contracts/15_Voting.sol\":7034:7043  sessionId */\n      dup5\n        /* \"contracts/15_Voting.sol\":7025:7044  sessions[sessionId] */\n      dup2\n      mstore\n      0x20\n      add\n      swap1\n      dup2\n      mstore\n      0x20\n      add\n      0x00\n      keccak256\n        /* \"contracts/15_Voting.sol\":6993:7044  VotingSession storage session = sessions[sessionId] */\n      swap1\n      pop\n        /* \"contracts/15_Voting.sol\":7088:7115  WorkflowStatus.VotesTallied */\n      0x05\n        /* \"contracts/15_Voting.sol\":7062:7115  session.workflowStatus >= WorkflowStatus.VotesTallied */\n      dup1\n      dup2\n      gt\n      iszero\n      tag_163\n      jumpi\n      tag_164\n      tag_84\n      jump\t// in\n    tag_164:\n    tag_163:\n        /* \"contracts/15_Voting.sol\":7062:7069  session */\n      dup2\n        /* \"contracts/15_Voting.sol\":7062:7084  session.workflowStatus */\n      0x00\n      add\n      0x00\n      swap1\n      sload\n      swap1\n      0x0100\n      exp\n      swap1\n      div\n      0xff\n      and\n        /* \"contracts/15_Voting.sol\":7062:7115  session.workflowStatus >= WorkflowStatus.VotesTallied */\n      0x05\n      dup2\n      gt\n      iszero\n      tag_165\n      jumpi\n      tag_166\n      tag_84\n      jump\t// in\n    tag_166:\n    tag_165:\n      lt\n      iszero\n        /* \"contracts/15_Voting.sol\":7054:7137  require(session.workflowStatus >= WorkflowStatus.VotesTallied, \"Votes not tallied\") */\n      tag_167\n      jumpi\n      mload(0x40)\n      0x08c379a000000000000000000000000000000000000000000000000000000000\n      dup2\n      mstore\n      0x04\n      add\n      tag_168\n      swap1\n      tag_169\n      jump\t// in\n    tag_168:\n      mload(0x40)\n      dup1\n      swap2\n      sub\n      swap1\n      revert\n    tag_167:\n        /* \"contracts/15_Voting.sol\":7154:7161  session */\n      dup1\n        /* \"contracts/15_Voting.sol\":7154:7171  session.proposals */\n      0x01\n      add\n        /* \"contracts/15_Voting.sol\":7172:7179  session */\n      dup2\n        /* \"contracts/15_Voting.sol\":7172:7197  session.winningProposalId */\n      0x03\n      add\n      sload\n        /* \"contracts/15_Voting.sol\":7154:7198  session.proposals[session.winningProposalId] */\n      dup2\n      sload\n      dup2\n      lt\n      tag_170\n      jumpi\n      tag_171\n      tag_101\n      jump\t// in\n    tag_171:\n    tag_170:\n      swap1\n      0x00\n      mstore\n      keccak256(0x00, 0x20)\n      swap1\n      0x02\n      mul\n      add\n        /* \"contracts/15_Voting.sol\":7147:7198  return session.proposals[session.winningProposalId] */\n      mload(0x40)\n      dup1\n      0x40\n      add\n      0x40\n      mstore\n      swap1\n      dup2\n      0x00\n      dup3\n      add\n      dup1\n      sload\n      tag_173\n      swap1\n      tag_174\n      jump\t// in\n    tag_173:\n      dup1\n      0x1f\n      add\n      0x20\n      dup1\n      swap2\n      div\n      mul\n      0x20\n      add\n      mload(0x40)\n      swap1\n      dup2\n      add\n      0x40\n      mstore\n      dup1\n      swap3\n      swap2\n      swap1\n      dup2\n      dup2\n      mstore\n      0x20\n      add\n      dup3\n      dup1\n      sload\n      tag_175\n      swap1\n      tag_174\n      jump\t// in\n    tag_175:\n      dup1\n      iszero\n      tag_176\n      jumpi\n      dup1\n      0x1f\n      lt\n      tag_177\n      jumpi\n      0x0100\n      dup1\n      dup4\n      sload\n      div\n      mul\n      dup4\n      mstore\n      swap2\n      0x20\n      add\n      swap2\n      jump(tag_176)\n    tag_177:\n      dup3\n      add\n      swap2\n      swap1\n      0x00\n      mstore\n      keccak256(0x00, 0x20)\n      swap1\n    tag_178:\n      dup2\n      sload\n      dup2\n      mstore\n      swap1\n      0x01\n      add\n      swap1\n      0x20\n      add\n      dup1\n      dup4\n      gt\n      tag_178\n      jumpi\n      dup3\n      swap1\n      sub\n      0x1f\n      and\n      dup3\n      add\n      swap2\n    tag_176:\n      pop\n      pop\n      pop\n      pop\n      pop\n      dup2\n      mstore\n      0x20\n      add\n      0x01\n      dup3\n      add\n      sload\n      dup2\n      mstore\n      pop\n      pop\n      swap2\n      pop\n      pop\n        /* \"contracts/15_Voting.sol\":6897:7205  function getMostVotedProposal(uint sessionId) external view returns (Proposal memory) {... */\n      swap2\n      swap1\n      pop\n      jump\t// out\n        /* \"contracts/15_Voting.sol\":2563:3041  function startProposalsRegistration(uint sessionId) external onlyOwner {... */\n    tag_56:\n        /* \"@openzeppelin/contracts/access/Ownable.sol\":1531:1544  _checkOwner() */\n      tag_180\n        /* \"@openzeppelin/contracts/access/Ownable.sol\":1531:1542  _checkOwner */\n      tag_109\n        /* \"@openzeppelin/contracts/access/Ownable.sol\":1531:1544  _checkOwner() */\n      jump\t// in\n    tag_180:\n        /* \"contracts/15_Voting.sol\":2644:2673  VotingSession storage session */\n      0x00\n        /* \"contracts/15_Voting.sol\":2676:2684  sessions */\n      0x02\n        /* \"contracts/15_Voting.sol\":2676:2695  sessions[sessionId] */\n      0x00\n        /* \"contracts/15_Voting.sol\":2685:2694  sessionId */\n      dup4\n        /* \"contracts/15_Voting.sol\":2676:2695  sessions[sessionId] */\n      dup2\n      mstore\n      0x20\n      add\n      swap1\n      dup2\n      mstore\n      0x20\n      add\n      0x00\n      keccak256\n        /* \"contracts/15_Voting.sol\":2644:2695  VotingSession storage session = sessions[sessionId] */\n      swap1\n      pop\n        /* \"contracts/15_Voting.sol\":2739:2771  WorkflowStatus.RegisteringVoters */\n      0x00\n        /* \"contracts/15_Voting.sol\":2713:2771  session.workflowStatus == WorkflowStatus.RegisteringVoters */\n      0x05\n      dup2\n      gt\n      iszero\n      tag_182\n      jumpi\n      tag_183\n      tag_84\n      jump\t// in\n    tag_183:\n    tag_182:\n        /* \"contracts/15_Voting.sol\":2713:2720  session */\n      dup2\n        /* \"contracts/15_Voting.sol\":2713:2735  session.workflowStatus */\n      0x00\n      add\n      0x00\n      swap1\n      sload\n      swap1\n      0x0100\n      exp\n      swap1\n      div\n      0xff\n      and\n        /* \"contracts/15_Voting.sol\":2713:2771  session.workflowStatus == WorkflowStatus.RegisteringVoters */\n      0x05\n      dup2\n      gt\n      iszero\n      tag_184\n      jumpi\n      tag_185\n      tag_84\n      jump\t// in\n    tag_185:\n    tag_184:\n      eq\n        /* \"contracts/15_Voting.sol\":2705:2797  require(session.workflowStatus == WorkflowStatus.RegisteringVoters, \"Wrong workflow status\") */\n      tag_186\n      jumpi\n      mload(0x40)\n      0x08c379a000000000000000000000000000000000000000000000000000000000\n      dup2\n      mstore\n      0x04\n      add\n      tag_187\n      swap1\n      tag_188\n      jump\t// in\n    tag_187:\n      mload(0x40)\n      dup1\n      swap2\n      sub\n      swap1\n      revert\n    tag_186:\n        /* \"contracts/15_Voting.sol\":2807:2830  WorkflowStatus previous */\n      0x00\n        /* \"contracts/15_Voting.sol\":2833:2840  session */\n      dup2\n        /* \"contracts/15_Voting.sol\":2833:2855  session.workflowStatus */\n      0x00\n      add\n      0x00\n      swap1\n      sload\n      swap1\n      0x0100\n      exp\n      swap1\n      div\n      0xff\n      and\n        /* \"contracts/15_Voting.sol\":2807:2855  WorkflowStatus previous = session.workflowStatus */\n      swap1\n      pop\n        /* \"contracts/15_Voting.sol\":2890:2933  WorkflowStatus.ProposalsRegistrationStarted */\n      0x01\n        /* \"contracts/15_Voting.sol\":2865:2872  session */\n      dup3\n        /* \"contracts/15_Voting.sol\":2865:2887  session.workflowStatus */\n      0x00\n      add\n      0x00\n        /* \"contracts/15_Voting.sol\":2865:2933  session.workflowStatus = WorkflowStatus.ProposalsRegistrationStarted */\n      0x0100\n      exp\n      dup2\n      sload\n      dup2\n      0xff\n      mul\n      not\n      and\n      swap1\n      dup4\n      0x05\n      dup2\n      gt\n      iszero\n      tag_189\n      jumpi\n      tag_190\n      tag_84\n      jump\t// in\n    tag_190:\n    tag_189:\n      mul\n      or\n      swap1\n      sstore\n      pop\n        /* \"contracts/15_Voting.sol\":2948:3034  WorkflowStatusChange(sessionId, previous, WorkflowStatus.ProposalsRegistrationStarted) */\n      0xb067099e10826978a3867510ad1e0dcf4ca5cef8e422fd8df2fc3d679167fe8d\n        /* \"contracts/15_Voting.sol\":2969:2978  sessionId */\n      dup4\n        /* \"contracts/15_Voting.sol\":2980:2988  previous */\n      dup3\n        /* \"contracts/15_Voting.sol\":2990:3033  WorkflowStatus.ProposalsRegistrationStarted */\n      0x01\n        /* \"contracts/15_Voting.sol\":2948:3034  WorkflowStatusChange(sessionId, previous, WorkflowStatus.ProposalsRegistrationStarted) */\n      mload(0x40)\n      tag_191\n      swap4\n      swap3\n      swap2\n      swap1\n      tag_135\n      jump\t// in\n    tag_191:\n      mload(0x40)\n      dup1\n      swap2\n      sub\n      swap1\n      log1\n        /* \"contracts/15_Voting.sol\":2634:3041  {... */\n      pop\n      pop\n        /* \"contracts/15_Voting.sol\":2563:3041  function startProposalsRegistration(uint sessionId) external onlyOwner {... */\n      pop\n      jump\t// out\n        /* \"@openzeppelin/contracts/access/Ownable.sol\":1638:1723  function owner() public view virtual returns (address) {... */\n    tag_58:\n        /* \"@openzeppelin/contracts/access/Ownable.sol\":1684:1691  address */\n      0x00\n        /* \"@openzeppelin/contracts/access/Ownable.sol\":1710:1716  _owner */\n      0x00\n      0x00\n      swap1\n      sload\n      swap1\n      0x0100\n      exp\n      swap1\n      div\n      0xffffffffffffffffffffffffffffffffffffffff\n      and\n        /* \"@openzeppelin/contracts/access/Ownable.sol\":1703:1716  return _owner */\n      swap1\n      pop\n        /* \"@openzeppelin/contracts/access/Ownable.sol\":1638:1723  function owner() public view virtual returns (address) {... */\n      swap1\n      jump\t// out\n        /* \"contracts/15_Voting.sol\":4332:4795  function startVotingSession(uint sessionId) external onlyOwner {... */\n    tag_63:\n        /* \"@openzeppelin/contracts/access/Ownable.sol\":1531:1544  _checkOwner() */\n      tag_194\n        /* \"@openzeppelin/contracts/access/Ownable.sol\":1531:1542  _checkOwner */\n      tag_109\n        /* \"@openzeppelin/contracts/access/Ownable.sol\":1531:1544  _checkOwner() */\n      jump\t// in\n    tag_194:\n        /* \"contracts/15_Voting.sol\":4405:4434  VotingSession storage session */\n      0x00\n        /* \"contracts/15_Voting.sol\":4437:4445  sessions */\n      0x02\n        /* \"contracts/15_Voting.sol\":4437:4456  sessions[sessionId] */\n      0x00\n        /* \"contracts/15_Voting.sol\":4446:4455  sessionId */\n      dup4\n        /* \"contracts/15_Voting.sol\":4437:4456  sessions[sessionId] */\n      dup2\n      mstore\n      0x20\n      add\n      swap1\n      dup2\n      mstore\n      0x20\n      add\n      0x00\n      keccak256\n        /* \"contracts/15_Voting.sol\":4405:4456  VotingSession storage session = sessions[sessionId] */\n      swap1\n      pop\n        /* \"contracts/15_Voting.sol\":4500:4541  WorkflowStatus.ProposalsRegistrationEnded */\n      0x02\n        /* \"contracts/15_Voting.sol\":4474:4541  session.workflowStatus == WorkflowStatus.ProposalsRegistrationEnded */\n      0x05\n      dup2\n      gt\n      iszero\n      tag_196\n      jumpi\n      tag_197\n      tag_84\n      jump\t// in\n    tag_197:\n    tag_196:\n        /* \"contracts/15_Voting.sol\":4474:4481  session */\n      dup2\n        /* \"contracts/15_Voting.sol\":4474:4496  session.workflowStatus */\n      0x00\n      add\n      0x00\n      swap1\n      sload\n      swap1\n      0x0100\n      exp\n      swap1\n      div\n      0xff\n      and\n        /* \"contracts/15_Voting.sol\":4474:4541  session.workflowStatus == WorkflowStatus.ProposalsRegistrationEnded */\n      0x05\n      dup2\n      gt\n      iszero\n      tag_198\n      jumpi\n      tag_199\n      tag_84\n      jump\t// in\n    tag_199:\n    tag_198:\n      eq\n        /* \"contracts/15_Voting.sol\":4466:4567  require(session.workflowStatus == WorkflowStatus.ProposalsRegistrationEnded, \"Wrong workflow status\") */\n      tag_200\n      jumpi\n      mload(0x40)\n      0x08c379a000000000000000000000000000000000000000000000000000000000\n      dup2\n      mstore\n      0x04\n      add\n      tag_201\n      swap1\n      tag_188\n      jump\t// in\n    tag_201:\n      mload(0x40)\n      dup1\n      swap2\n      sub\n      swap1\n      revert\n    tag_200:\n        /* \"contracts/15_Voting.sol\":4577:4600  WorkflowStatus previous */\n      0x00\n        /* \"contracts/15_Voting.sol\":4603:4610  session */\n      dup2\n        /* \"contracts/15_Voting.sol\":4603:4625  session.workflowStatus */\n      0x00\n      add\n      0x00\n      swap1\n      sload\n      swap1\n      0x0100\n      exp\n      swap1\n      div\n      0xff\n      and\n        /* \"contracts/15_Voting.sol\":4577:4625  WorkflowStatus previous = session.workflowStatus */\n      swap1\n      pop\n        /* \"contracts/15_Voting.sol\":4660:4695  WorkflowStatus.VotingSessionStarted */\n      0x03\n        /* \"contracts/15_Voting.sol\":4635:4642  session */\n      dup3\n        /* \"contracts/15_Voting.sol\":4635:4657  session.workflowStatus */\n      0x00\n      add\n      0x00\n        /* \"contracts/15_Voting.sol\":4635:4695  session.workflowStatus = WorkflowStatus.VotingSessionStarted */\n      0x0100\n      exp\n      dup2\n      sload\n      dup2\n      0xff\n      mul\n      not\n      and\n      swap1\n      dup4\n      0x05\n      dup2\n      gt\n      iszero\n      tag_202\n      jumpi\n      tag_203\n      tag_84\n      jump\t// in\n    tag_203:\n    tag_202:\n      mul\n      or\n      swap1\n      sstore\n      pop\n        /* \"contracts/15_Voting.sol\":4710:4788  WorkflowStatusChange(sessionId, previous, WorkflowStatus.VotingSessionStarted) */\n      0xb067099e10826978a3867510ad1e0dcf4ca5cef8e422fd8df2fc3d679167fe8d\n        /* \"contracts/15_Voting.sol\":4731:4740  sessionId */\n      dup4\n        /* \"contracts/15_Voting.sol\":4742:4750  previous */\n      dup3\n        /* \"contracts/15_Voting.sol\":4752:4787  WorkflowStatus.VotingSessionStarted */\n      0x03\n        /* \"contracts/15_Voting.sol\":4710:4788  WorkflowStatusChange(sessionId, previous, WorkflowStatus.VotingSessionStarted) */\n      mload(0x40)\n      tag_204\n      swap4\n      swap3\n      swap2\n      swap1\n      tag_135\n      jump\t// in\n    tag_204:\n      mload(0x40)\n      dup1\n      swap2\n      sub\n      swap1\n      log1\n        /* \"contracts/15_Voting.sol\":4395:4795  {... */\n      pop\n      pop\n        /* \"contracts/15_Voting.sol\":4332:4795  function startVotingSession(uint sessionId) external onlyOwner {... */\n      pop\n      jump\t// out\n        /* \"contracts/15_Voting.sol\":3632:3768  function getAllProposals(uint sessionId) external view returns (Proposal[] memory) {... */\n    tag_66:\n        /* \"contracts/15_Voting.sol\":3696:3713  Proposal[] memory */\n      0x60\n        /* \"contracts/15_Voting.sol\":3732:3740  sessions */\n      0x02\n        /* \"contracts/15_Voting.sol\":3732:3751  sessions[sessionId] */\n      0x00\n        /* \"contracts/15_Voting.sol\":3741:3750  sessionId */\n      dup4\n        /* \"contracts/15_Voting.sol\":3732:3751  sessions[sessionId] */\n      dup2\n      mstore\n      0x20\n      add\n      swap1\n      dup2\n      mstore\n      0x20\n      add\n      0x00\n      keccak256\n        /* \"contracts/15_Voting.sol\":3732:3761  sessions[sessionId].proposals */\n      0x01\n      add\n        /* \"contracts/15_Voting.sol\":3725:3761  return sessions[sessionId].proposals */\n      dup1\n      sload\n      dup1\n      0x20\n      mul\n      0x20\n      add\n      mload(0x40)\n      swap1\n      dup2\n      add\n      0x40\n      mstore\n      dup1\n      swap3\n      swap2\n      swap1\n      dup2\n      dup2\n      mstore\n      0x20\n      add\n      0x00\n      swap1\n    tag_206:\n      dup3\n      dup3\n      lt\n      iszero\n      tag_207\n      jumpi\n      dup4\n      dup3\n      swap1\n      0x00\n      mstore\n      keccak256(0x00, 0x20)\n      swap1\n      0x02\n      mul\n      add\n      mload(0x40)\n      dup1\n      0x40\n      add\n      0x40\n      mstore\n      swap1\n      dup2\n      0x00\n      dup3\n      add\n      dup1\n      sload\n      tag_209\n      swap1\n      tag_174\n      jump\t// in\n    tag_209:\n      dup1\n      0x1f\n      add\n      0x20\n      dup1\n      swap2\n      div\n      mul\n      0x20\n      add\n      mload(0x40)\n      swap1\n      dup2\n      add\n      0x40\n      mstore\n      dup1\n      swap3\n      swap2\n      swap1\n      dup2\n      dup2\n      mstore\n      0x20\n      add\n      dup3\n      dup1\n      sload\n      tag_210\n      swap1\n      tag_174\n      jump\t// in\n    tag_210:\n      dup1\n      iszero\n      tag_211\n      jumpi\n      dup1\n      0x1f\n      lt\n      tag_212\n      jumpi\n      0x0100\n      dup1\n      dup4\n      sload\n      div\n      mul\n      dup4\n      mstore\n      swap2\n      0x20\n      add\n      swap2\n      jump(tag_211)\n    tag_212:\n      dup3\n      add\n      swap2\n      swap1\n      0x00\n      mstore\n      keccak256(0x00, 0x20)\n      swap1\n    tag_213:\n      dup2\n      sload\n      dup2\n      mstore\n      swap1\n      0x01\n      add\n      swap1\n      0x20\n      add\n      dup1\n      dup4\n      gt\n      tag_213\n      jumpi\n      dup3\n      swap1\n      sub\n      0x1f\n      and\n      dup3\n      add\n      swap2\n    tag_211:\n      pop\n      pop\n      pop\n      pop\n      pop\n      dup2\n      mstore\n      0x20\n      add\n      0x01\n      dup3\n      add\n      sload\n      dup2\n      mstore\n      pop\n      pop\n      dup2\n      mstore\n      0x20\n      add\n      swap1\n      0x01\n      add\n      swap1\n      jump(tag_206)\n    tag_207:\n      pop\n      pop\n      pop\n      pop\n      swap1\n      pop\n        /* \"contracts/15_Voting.sol\":3632:3768  function getAllProposals(uint sessionId) external view returns (Proposal[] memory) {... */\n      swap2\n      swap1\n      pop\n      jump\t// out\n        /* \"contracts/15_Voting.sol\":3810:4293  function endProposalsRegistration(uint sessionId) external onlyOwner {... */\n    tag_71:\n        /* \"@openzeppelin/contracts/access/Ownable.sol\":1531:1544  _checkOwner() */\n      tag_215\n        /* \"@openzeppelin/contracts/access/Ownable.sol\":1531:1542  _checkOwner */\n      tag_109\n        /* \"@openzeppelin/contracts/access/Ownable.sol\":1531:1544  _checkOwner() */\n      jump\t// in\n    tag_215:\n        /* \"contracts/15_Voting.sol\":3889:3918  VotingSession storage session */\n      0x00\n        /* \"contracts/15_Voting.sol\":3921:3929  sessions */\n      0x02\n        /* \"contracts/15_Voting.sol\":3921:3940  sessions[sessionId] */\n      0x00\n        /* \"contracts/15_Voting.sol\":3930:3939  sessionId */\n      dup4\n        /* \"contracts/15_Voting.sol\":3921:3940  sessions[sessionId] */\n      dup2\n      mstore\n      0x20\n      add\n      swap1\n      dup2\n      mstore\n      0x20\n      add\n      0x00\n      keccak256\n        /* \"contracts/15_Voting.sol\":3889:3940  VotingSession storage session = sessions[sessionId] */\n      swap1\n      pop\n        /* \"contracts/15_Voting.sol\":3984:4027  WorkflowStatus.ProposalsRegistrationStarted */\n      0x01\n        /* \"contracts/15_Voting.sol\":3958:4027  session.workflowStatus == WorkflowStatus.ProposalsRegistrationStarted */\n      0x05\n      dup2\n      gt\n      iszero\n      tag_217\n      jumpi\n      tag_218\n      tag_84\n      jump\t// in\n    tag_218:\n    tag_217:\n        /* \"contracts/15_Voting.sol\":3958:3965  session */\n      dup2\n        /* \"contracts/15_Voting.sol\":3958:3980  session.workflowStatus */\n      0x00\n      add\n      0x00\n      swap1\n      sload\n      swap1\n      0x0100\n      exp\n      swap1\n      div\n      0xff\n      and\n        /* \"contracts/15_Voting.sol\":3958:4027  session.workflowStatus == WorkflowStatus.ProposalsRegistrationStarted */\n      0x05\n      dup2\n      gt\n      iszero\n      tag_219\n      jumpi\n      tag_220\n      tag_84\n      jump\t// in\n    tag_220:\n    tag_219:\n      eq\n        /* \"contracts/15_Voting.sol\":3950:4053  require(session.workflowStatus == WorkflowStatus.ProposalsRegistrationStarted, \"Wrong workflow status\") */\n      tag_221\n      jumpi\n      mload(0x40)\n      0x08c379a000000000000000000000000000000000000000000000000000000000\n      dup2\n      mstore\n      0x04\n      add\n      tag_222\n      swap1\n      tag_188\n      jump\t// in\n    tag_222:\n      mload(0x40)\n      dup1\n      swap2\n      sub\n      swap1\n      revert\n    tag_221:\n        /* \"contracts/15_Voting.sol\":4063:4086  WorkflowStatus previous */\n      0x00\n        /* \"contracts/15_Voting.sol\":4089:4096  session */\n      dup2\n        /* \"contracts/15_Voting.sol\":4089:4111  session.workflowStatus */\n      0x00\n      add\n      0x00\n      swap1\n      sload\n      swap1\n      0x0100\n      exp\n      swap1\n      div\n      0xff\n      and\n        /* \"contracts/15_Voting.sol\":4063:4111  WorkflowStatus previous = session.workflowStatus */\n      swap1\n      pop\n        /* \"contracts/15_Voting.sol\":4146:4187  WorkflowStatus.ProposalsRegistrationEnded */\n      0x02\n        /* \"contracts/15_Voting.sol\":4121:4128  session */\n      dup3\n        /* \"contracts/15_Voting.sol\":4121:4143  session.workflowStatus */\n      0x00\n      add\n      0x00\n        /* \"contracts/15_Voting.sol\":4121:4187  session.workflowStatus = WorkflowStatus.ProposalsRegistrationEnded */\n      0x0100\n      exp\n      dup2\n      sload\n      dup2\n      0xff\n      mul\n      not\n      and\n      swap1\n      dup4\n      0x05\n      dup2\n      gt\n      iszero\n      tag_223\n      jumpi\n      tag_224\n      tag_84\n      jump\t// in\n    tag_224:\n    tag_223:\n      mul\n      or\n      swap1\n      sstore\n      pop\n        /* \"contracts/15_Voting.sol\":4202:4286  WorkflowStatusChange(sessionId, previous, WorkflowStatus.ProposalsRegistrationEnded) */\n      0xb067099e10826978a3867510ad1e0dcf4ca5cef8e422fd8df2fc3d679167fe8d\n        /* \"contracts/15_Voting.sol\":4223:4232  sessionId */\n      dup4\n        /* \"contracts/15_Voting.sol\":4234:4242  previous */\n      dup3\n        /* \"contracts/15_Voting.sol\":4244:4285  WorkflowStatus.ProposalsRegistrationEnded */\n      0x02\n        /* \"contracts/15_Voting.sol\":4202:4286  WorkflowStatusChange(sessionId, previous, WorkflowStatus.ProposalsRegistrationEnded) */\n      mload(0x40)\n      tag_225\n      swap4\n      swap3\n      swap2\n      swap1\n      tag_135\n      jump\t// in\n    tag_225:\n      mload(0x40)\n      dup1\n      swap2\n      sub\n      swap1\n      log1\n        /* \"contracts/15_Voting.sol\":3879:4293  {... */\n      pop\n      pop\n        /* \"contracts/15_Voting.sol\":3810:4293  function endProposalsRegistration(uint sessionId) external onlyOwner {... */\n      pop\n      jump\t// out\n        /* \"contracts/15_Voting.sol\":6031:6852  function computeMostVotedProposal(uint sessionId) external onlyOwner {... */\n    tag_74:\n        /* \"@openzeppelin/contracts/access/Ownable.sol\":1531:1544  _checkOwner() */\n      tag_227\n        /* \"@openzeppelin/contracts/access/Ownable.sol\":1531:1542  _checkOwner */\n      tag_109\n        /* \"@openzeppelin/contracts/access/Ownable.sol\":1531:1544  _checkOwner() */\n      jump\t// in\n    tag_227:\n        /* \"contracts/15_Voting.sol\":6110:6139  VotingSession storage session */\n      0x00\n        /* \"contracts/15_Voting.sol\":6142:6150  sessions */\n      0x02\n        /* \"contracts/15_Voting.sol\":6142:6161  sessions[sessionId] */\n      0x00\n        /* \"contracts/15_Voting.sol\":6151:6160  sessionId */\n      dup4\n        /* \"contracts/15_Voting.sol\":6142:6161  sessions[sessionId] */\n      dup2\n      mstore\n      0x20\n      add\n      swap1\n      dup2\n      mstore\n      0x20\n      add\n      0x00\n      keccak256\n        /* \"contracts/15_Voting.sol\":6110:6161  VotingSession storage session = sessions[sessionId] */\n      swap1\n      pop\n        /* \"contracts/15_Voting.sol\":6205:6238  WorkflowStatus.VotingSessionEnded */\n      0x04\n        /* \"contracts/15_Voting.sol\":6179:6238  session.workflowStatus == WorkflowStatus.VotingSessionEnded */\n      0x05\n      dup2\n      gt\n      iszero\n      tag_229\n      jumpi\n      tag_230\n      tag_84\n      jump\t// in\n    tag_230:\n    tag_229:\n        /* \"contracts/15_Voting.sol\":6179:6186  session */\n      dup2\n        /* \"contracts/15_Voting.sol\":6179:6201  session.workflowStatus */\n      0x00\n      add\n      0x00\n      swap1\n      sload\n      swap1\n      0x0100\n      exp\n      swap1\n      div\n      0xff\n      and\n        /* \"contracts/15_Voting.sol\":6179:6238  session.workflowStatus == WorkflowStatus.VotingSessionEnded */\n      0x05\n      dup2\n      gt\n      iszero\n      tag_231\n      jumpi\n      tag_232\n      tag_84\n      jump\t// in\n    tag_232:\n    tag_231:\n      eq\n        /* \"contracts/15_Voting.sol\":6171:6267  require(session.workflowStatus == WorkflowStatus.VotingSessionEnded, \"Voting session not ended\") */\n      tag_233\n      jumpi\n      mload(0x40)\n      0x08c379a000000000000000000000000000000000000000000000000000000000\n      dup2\n      mstore\n      0x04\n      add\n      tag_234\n      swap1\n      tag_235\n      jump\t// in\n    tag_234:\n      mload(0x40)\n      dup1\n      swap2\n      sub\n      swap1\n      revert\n    tag_233:\n        /* \"contracts/15_Voting.sol\":6278:6295  uint winningIndex */\n      0x00\n        /* \"contracts/15_Voting.sol\":6298:6299  0 */\n      0x00\n        /* \"contracts/15_Voting.sol\":6278:6299  uint winningIndex = 0 */\n      swap1\n      pop\n        /* \"contracts/15_Voting.sol\":6309:6330  uint highestVoteCount */\n      0x00\n        /* \"contracts/15_Voting.sol\":6333:6334  0 */\n      0x00\n        /* \"contracts/15_Voting.sol\":6309:6334  uint highestVoteCount = 0 */\n      swap1\n      pop\n        /* \"contracts/15_Voting.sol\":6349:6355  uint i */\n      0x00\n        /* \"contracts/15_Voting.sol\":6358:6359  0 */\n      0x00\n        /* \"contracts/15_Voting.sol\":6349:6359  uint i = 0 */\n      swap1\n      pop\n        /* \"contracts/15_Voting.sol\":6344:6591  for (uint i = 0; i < session.proposals.length; i++) {... */\n    tag_236:\n        /* \"contracts/15_Voting.sol\":6365:6372  session */\n      dup4\n        /* \"contracts/15_Voting.sol\":6365:6382  session.proposals */\n      0x01\n      add\n        /* \"contracts/15_Voting.sol\":6365:6389  session.proposals.length */\n      dup1\n      sload\n      swap1\n      pop\n        /* \"contracts/15_Voting.sol\":6361:6362  i */\n      dup2\n        /* \"contracts/15_Voting.sol\":6361:6389  i < session.proposals.length */\n      lt\n        /* \"contracts/15_Voting.sol\":6344:6591  for (uint i = 0; i < session.proposals.length; i++) {... */\n      iszero\n      tag_237\n      jumpi\n        /* \"contracts/15_Voting.sol\":6447:6463  highestVoteCount */\n      dup2\n        /* \"contracts/15_Voting.sol\":6414:6421  session */\n      dup5\n        /* \"contracts/15_Voting.sol\":6414:6431  session.proposals */\n      0x01\n      add\n        /* \"contracts/15_Voting.sol\":6432:6433  i */\n      dup3\n        /* \"contracts/15_Voting.sol\":6414:6434  session.proposals[i] */\n      dup2\n      sload\n      dup2\n      lt\n      tag_239\n      jumpi\n      tag_240\n      tag_101\n      jump\t// in\n    tag_240:\n    tag_239:\n      swap1\n      0x00\n      mstore\n      keccak256(0x00, 0x20)\n      swap1\n      0x02\n      mul\n      add\n        /* \"contracts/15_Voting.sol\":6414:6444  session.proposals[i].voteCount */\n      0x01\n      add\n      sload\n        /* \"contracts/15_Voting.sol\":6414:6463  session.proposals[i].voteCount > highestVoteCount */\n      gt\n        /* \"contracts/15_Voting.sol\":6410:6581  if (session.proposals[i].voteCount > highestVoteCount) {... */\n      iszero\n      tag_242\n      jumpi\n        /* \"contracts/15_Voting.sol\":6502:6509  session */\n      dup4\n        /* \"contracts/15_Voting.sol\":6502:6519  session.proposals */\n      0x01\n      add\n        /* \"contracts/15_Voting.sol\":6520:6521  i */\n      dup2\n        /* \"contracts/15_Voting.sol\":6502:6522  session.proposals[i] */\n      dup2\n      sload\n      dup2\n      lt\n      tag_243\n      jumpi\n      tag_244\n      tag_101\n      jump\t// in\n    tag_244:\n    tag_243:\n      swap1\n      0x00\n      mstore\n      keccak256(0x00, 0x20)\n      swap1\n      0x02\n      mul\n      add\n        /* \"contracts/15_Voting.sol\":6502:6532  session.proposals[i].voteCount */\n      0x01\n      add\n      sload\n        /* \"contracts/15_Voting.sol\":6483:6532  highestVoteCount = session.proposals[i].voteCount */\n      swap2\n      pop\n        /* \"contracts/15_Voting.sol\":6565:6566  i */\n      dup1\n        /* \"contracts/15_Voting.sol\":6550:6566  winningIndex = i */\n      swap3\n      pop\n        /* \"contracts/15_Voting.sol\":6410:6581  if (session.proposals[i].voteCount > highestVoteCount) {... */\n    tag_242:\n        /* \"contracts/15_Voting.sol\":6391:6394  i++ */\n      dup1\n      dup1\n      0x01\n      add\n      swap2\n      pop\n      pop\n        /* \"contracts/15_Voting.sol\":6344:6591  for (uint i = 0; i < session.proposals.length; i++) {... */\n      jump(tag_236)\n    tag_237:\n      pop\n        /* \"contracts/15_Voting.sol\":6628:6640  winningIndex */\n      dup2\n        /* \"contracts/15_Voting.sol\":6600:6607  session */\n      dup4\n        /* \"contracts/15_Voting.sol\":6600:6625  session.winningProposalId */\n      0x03\n      add\n        /* \"contracts/15_Voting.sol\":6600:6640  session.winningProposalId = winningIndex */\n      dup2\n      swap1\n      sstore\n      pop\n        /* \"contracts/15_Voting.sol\":6650:6673  WorkflowStatus previous */\n      0x00\n        /* \"contracts/15_Voting.sol\":6676:6683  session */\n      dup4\n        /* \"contracts/15_Voting.sol\":6676:6698  session.workflowStatus */\n      0x00\n      add\n      0x00\n      swap1\n      sload\n      swap1\n      0x0100\n      exp\n      swap1\n      div\n      0xff\n      and\n        /* \"contracts/15_Voting.sol\":6650:6698  WorkflowStatus previous = session.workflowStatus */\n      swap1\n      pop\n        /* \"contracts/15_Voting.sol\":6733:6760  WorkflowStatus.VotesTallied */\n      0x05\n        /* \"contracts/15_Voting.sol\":6708:6715  session */\n      dup5\n        /* \"contracts/15_Voting.sol\":6708:6730  session.workflowStatus */\n      0x00\n      add\n      0x00\n        /* \"contracts/15_Voting.sol\":6708:6760  session.workflowStatus = WorkflowStatus.VotesTallied */\n      0x0100\n      exp\n      dup2\n      sload\n      dup2\n      0xff\n      mul\n      not\n      and\n      swap1\n      dup4\n      0x05\n      dup2\n      gt\n      iszero\n      tag_246\n      jumpi\n      tag_247\n      tag_84\n      jump\t// in\n    tag_247:\n    tag_246:\n      mul\n      or\n      swap1\n      sstore\n      pop\n        /* \"contracts/15_Voting.sol\":6775:6845  WorkflowStatusChange(sessionId, previous, WorkflowStatus.VotesTallied) */\n      0xb067099e10826978a3867510ad1e0dcf4ca5cef8e422fd8df2fc3d679167fe8d\n        /* \"contracts/15_Voting.sol\":6796:6805  sessionId */\n      dup6\n        /* \"contracts/15_Voting.sol\":6807:6815  previous */\n      dup3\n        /* \"contracts/15_Voting.sol\":6817:6844  WorkflowStatus.VotesTallied */\n      0x05\n        /* \"contracts/15_Voting.sol\":6775:6845  WorkflowStatusChange(sessionId, previous, WorkflowStatus.VotesTallied) */\n      mload(0x40)\n      tag_248\n      swap4\n      swap3\n      swap2\n      swap1\n      tag_135\n      jump\t// in\n    tag_248:\n      mload(0x40)\n      dup1\n      swap2\n      sub\n      swap1\n      log1\n        /* \"contracts/15_Voting.sol\":6100:6852  {... */\n      pop\n      pop\n      pop\n      pop\n        /* \"contracts/15_Voting.sol\":6031:6852  function computeMostVotedProposal(uint sessionId) external onlyOwner {... */\n      pop\n      jump\t// out\n        /* \"contracts/15_Voting.sol\":1437:1878  function startNewSession() external onlyOwner {... */\n    tag_76:\n        /* \"@openzeppelin/contracts/access/Ownable.sol\":1531:1544  _checkOwner() */\n      tag_250\n        /* \"@openzeppelin/contracts/access/Ownable.sol\":1531:1542  _checkOwner */\n      tag_109\n        /* \"@openzeppelin/contracts/access/Ownable.sol\":1531:1544  _checkOwner() */\n      jump\t// in\n    tag_250:\n        /* \"contracts/15_Voting.sol\":1493:1509  currentSessionId */\n      0x01\n      0x00\n        /* \"contracts/15_Voting.sol\":1493:1511  currentSessionId++ */\n      dup2\n      sload\n      dup1\n      swap3\n      swap2\n      swap1\n      tag_252\n      swap1\n      tag_104\n      jump\t// in\n    tag_252:\n      swap2\n      swap1\n      pop\n      sstore\n      pop\n        /* \"contracts/15_Voting.sol\":1521:1550  VotingSession storage session */\n      0x00\n        /* \"contracts/15_Voting.sol\":1553:1561  sessions */\n      0x02\n        /* \"contracts/15_Voting.sol\":1553:1579  sessions[currentSessionId] */\n      0x00\n        /* \"contracts/15_Voting.sol\":1562:1578  currentSessionId */\n      sload(0x01)\n        /* \"contracts/15_Voting.sol\":1553:1579  sessions[currentSessionId] */\n      dup2\n      mstore\n      0x20\n      add\n      swap1\n      dup2\n      mstore\n      0x20\n      add\n      0x00\n      keccak256\n        /* \"contracts/15_Voting.sol\":1521:1579  VotingSession storage session = sessions[currentSessionId] */\n      swap1\n      pop\n        /* \"contracts/15_Voting.sol\":1656:1688  WorkflowStatus.RegisteringVoters */\n      0x00\n        /* \"contracts/15_Voting.sol\":1631:1638  session */\n      dup2\n        /* \"contracts/15_Voting.sol\":1631:1653  session.workflowStatus */\n      0x00\n      add\n      0x00\n        /* \"contracts/15_Voting.sol\":1631:1688  session.workflowStatus = WorkflowStatus.RegisteringVoters */\n      0x0100\n      exp\n      dup2\n      sload\n      dup2\n      0xff\n      mul\n      not\n      and\n      swap1\n      dup4\n      0x05\n      dup2\n      gt\n      iszero\n      tag_253\n      jumpi\n      tag_254\n      tag_84\n      jump\t// in\n    tag_254:\n    tag_253:\n      mul\n      or\n      swap1\n      sstore\n      pop\n        /* \"contracts/15_Voting.sol\":1770:1871  WorkflowStatusChange(currentSessionId, WorkflowStatus.VotesTallied, WorkflowStatus.RegisteringVoters) */\n      0xb067099e10826978a3867510ad1e0dcf4ca5cef8e422fd8df2fc3d679167fe8d\n        /* \"contracts/15_Voting.sol\":1791:1807  currentSessionId */\n      sload(0x01)\n        /* \"contracts/15_Voting.sol\":1809:1836  WorkflowStatus.VotesTallied */\n      0x05\n        /* \"contracts/15_Voting.sol\":1838:1870  WorkflowStatus.RegisteringVoters */\n      0x00\n        /* \"contracts/15_Voting.sol\":1770:1871  WorkflowStatusChange(currentSessionId, WorkflowStatus.VotesTallied, WorkflowStatus.RegisteringVoters) */\n      mload(0x40)\n      tag_255\n      swap4\n      swap3\n      swap2\n      swap1\n      tag_135\n      jump\t// in\n    tag_255:\n      mload(0x40)\n      dup1\n      swap2\n      sub\n      swap1\n      log1\n        /* \"contracts/15_Voting.sol\":1483:1878  {... */\n      pop\n        /* \"contracts/15_Voting.sol\":1437:1878  function startNewSession() external onlyOwner {... */\n      jump\t// out\n        /* \"@openzeppelin/contracts/access/Ownable.sol\":2543:2758  function transferOwnership(address newOwner) public virtual onlyOwner {... */\n    tag_80:\n        /* \"@openzeppelin/contracts/access/Ownable.sol\":1531:1544  _checkOwner() */\n      tag_257\n        /* \"@openzeppelin/contracts/access/Ownable.sol\":1531:1542  _checkOwner */\n      tag_109\n        /* \"@openzeppelin/contracts/access/Ownable.sol\":1531:1544  _checkOwner() */\n      jump\t// in\n    tag_257:\n        /* \"@openzeppelin/contracts/access/Ownable.sol\":2647:2648  0 */\n      0x00\n        /* \"@openzeppelin/contracts/access/Ownable.sol\":2627:2649  newOwner == address(0) */\n      0xffffffffffffffffffffffffffffffffffffffff\n      and\n        /* \"@openzeppelin/contracts/access/Ownable.sol\":2627:2635  newOwner */\n      dup2\n        /* \"@openzeppelin/contracts/access/Ownable.sol\":2627:2649  newOwner == address(0) */\n      0xffffffffffffffffffffffffffffffffffffffff\n      and\n      sub\n        /* \"@openzeppelin/contracts/access/Ownable.sol\":2623:2714  if (newOwner == address(0)) {... */\n      tag_259\n      jumpi\n        /* \"@openzeppelin/contracts/access/Ownable.sol\":2700:2701  0 */\n      0x00\n        /* \"@openzeppelin/contracts/access/Ownable.sol\":2672:2703  OwnableInvalidOwner(address(0)) */\n      mload(0x40)\n      0x1e4fbdf700000000000000000000000000000000000000000000000000000000\n      dup2\n      mstore\n      0x04\n      add\n      tag_260\n      swap2\n      swap1\n      tag_60\n      jump\t// in\n    tag_260:\n      mload(0x40)\n      dup1\n      swap2\n      sub\n      swap1\n      revert\n        /* \"@openzeppelin/contracts/access/Ownable.sol\":2623:2714  if (newOwner == address(0)) {... */\n    tag_259:\n        /* \"@openzeppelin/contracts/access/Ownable.sol\":2723:2751  _transferOwnership(newOwner) */\n      tag_261\n        /* \"@openzeppelin/contracts/access/Ownable.sol\":2742:2750  newOwner */\n      dup2\n        /* \"@openzeppelin/contracts/access/Ownable.sol\":2723:2741  _transferOwnership */\n      tag_158\n        /* \"@openzeppelin/contracts/access/Ownable.sol\":2723:2751  _transferOwnership(newOwner) */\n      jump\t// in\n    tag_261:\n        /* \"@openzeppelin/contracts/access/Ownable.sol\":2543:2758  function transferOwnership(address newOwner) public virtual onlyOwner {... */\n      pop\n      jump\t// out\n        /* \"@openzeppelin/contracts/access/Ownable.sol\":1796:1958  function _checkOwner() internal view virtual {... */\n    tag_109:\n        /* \"@openzeppelin/contracts/access/Ownable.sol\":1866:1878  _msgSender() */\n      tag_263\n        /* \"@openzeppelin/contracts/access/Ownable.sol\":1866:1876  _msgSender */\n      tag_264\n        /* \"@openzeppelin/contracts/access/Ownable.sol\":1866:1878  _msgSender() */\n      jump\t// in\n    tag_263:\n        /* \"@openzeppelin/contracts/access/Ownable.sol\":1855:1878  owner() != _msgSender() */\n      0xffffffffffffffffffffffffffffffffffffffff\n      and\n        /* \"@openzeppelin/contracts/access/Ownable.sol\":1855:1862  owner() */\n      tag_265\n        /* \"@openzeppelin/contracts/access/Ownable.sol\":1855:1860  owner */\n      tag_58\n        /* \"@openzeppelin/contracts/access/Ownable.sol\":1855:1862  owner() */\n      jump\t// in\n    tag_265:\n        /* \"@openzeppelin/contracts/access/Ownable.sol\":1855:1878  owner() != _msgSender() */\n      0xffffffffffffffffffffffffffffffffffffffff\n      and\n      eq\n        /* \"@openzeppelin/contracts/access/Ownable.sol\":1851:1952  if (owner() != _msgSender()) {... */\n      tag_266\n      jumpi\n        /* \"@openzeppelin/contracts/access/Ownable.sol\":1928:1940  _msgSender() */\n      tag_267\n        /* \"@openzeppelin/contracts/access/Ownable.sol\":1928:1938  _msgSender */\n      tag_264\n        /* \"@openzeppelin/contracts/access/Ownable.sol\":1928:1940  _msgSender() */\n      jump\t// in\n    tag_267:\n        /* \"@openzeppelin/contracts/access/Ownable.sol\":1901:1941  OwnableUnauthorizedAccount(_msgSender()) */\n      mload(0x40)\n      0x118cdaa700000000000000000000000000000000000000000000000000000000\n      dup2\n      mstore\n      0x04\n      add\n      tag_268\n      swap2\n      swap1\n      tag_60\n      jump\t// in\n    tag_268:\n      mload(0x40)\n      dup1\n      swap2\n      sub\n      swap1\n      revert\n        /* \"@openzeppelin/contracts/access/Ownable.sol\":1851:1952  if (owner() != _msgSender()) {... */\n    tag_266:\n        /* \"@openzeppelin/contracts/access/Ownable.sol\":1796:1958  function _checkOwner() internal view virtual {... */\n      jump\t// out\n        /* \"@openzeppelin/contracts/access/Ownable.sol\":2912:3099  function _transferOwnership(address newOwner) internal virtual {... */\n    tag_158:\n        /* \"@openzeppelin/contracts/access/Ownable.sol\":2985:3001  address oldOwner */\n      0x00\n        /* \"@openzeppelin/contracts/access/Ownable.sol\":3004:3010  _owner */\n      0x00\n      0x00\n      swap1\n      sload\n      swap1\n      0x0100\n      exp\n      swap1\n      div\n      0xffffffffffffffffffffffffffffffffffffffff\n      and\n        /* \"@openzeppelin/contracts/access/Ownable.sol\":2985:3010  address oldOwner = _owner */\n      swap1\n      pop\n        /* \"@openzeppelin/contracts/access/Ownable.sol\":3029:3037  newOwner */\n      dup2\n        /* \"@openzeppelin/contracts/access/Ownable.sol\":3020:3026  _owner */\n      0x00\n      0x00\n        /* \"@openzeppelin/contracts/access/Ownable.sol\":3020:3037  _owner = newOwner */\n      0x0100\n      exp\n      dup2\n      sload\n      dup2\n      0xffffffffffffffffffffffffffffffffffffffff\n      mul\n      not\n      and\n      swap1\n      dup4\n      0xffffffffffffffffffffffffffffffffffffffff\n      and\n      mul\n      or\n      swap1\n      sstore\n      pop\n        /* \"@openzeppelin/contracts/access/Ownable.sol\":3083:3091  newOwner */\n      dup2\n        /* \"@openzeppelin/contracts/access/Ownable.sol\":3052:3092  OwnershipTransferred(oldOwner, newOwner) */\n      0xffffffffffffffffffffffffffffffffffffffff\n      and\n        /* \"@openzeppelin/contracts/access/Ownable.sol\":3073:3081  oldOwner */\n      dup2\n        /* \"@openzeppelin/contracts/access/Ownable.sol\":3052:3092  OwnershipTransferred(oldOwner, newOwner) */\n      0xffffffffffffffffffffffffffffffffffffffff\n      and\n      0x8be0079c531659141344cd1fd0a4f28419497f9722a3daafe3b4186f6b6457e0\n      mload(0x40)\n      mload(0x40)\n      dup1\n      swap2\n      sub\n      swap1\n      log3\n        /* \"@openzeppelin/contracts/access/Ownable.sol\":2975:3099  {... */\n      pop\n        /* \"@openzeppelin/contracts/access/Ownable.sol\":2912:3099  function _transferOwnership(address newOwner) internal virtual {... */\n      pop\n      jump\t// out\n        /* \"@openzeppelin/contracts/utils/Context.sol\":656:752  function _msgSender() internal view virtual returns (address) {... */\n    tag_264:\n        /* \"@openzeppelin/contracts/utils/Context.sol\":709:716  address */\n      0x00\n        /* \"@openzeppelin/contracts/utils/Context.sol\":735:745  msg.sender */\n      caller\n        /* \"@openzeppelin/contracts/utils/Context.sol\":728:745  return msg.sender */\n      swap1\n      pop\n        /* \"@openzeppelin/contracts/utils/Context.sol\":656:752  function _msgSender() internal view virtual returns (address) {... */\n      swap1\n      jump\t// out\n    tag_161:\n      mload(0x40)\n      dup1\n      0x40\n      add\n      0x40\n      mstore\n      dup1\n      0x60\n      dup2\n      mstore\n      0x20\n      add\n      0x00\n      dup2\n      mstore\n      pop\n      swap1\n      jump\t// out\n        /* \"#utility.yul\":7:82   */\n    tag_271:\n        /* \"#utility.yul\":40:46   */\n      0x00\n        /* \"#utility.yul\":73:75   */\n      0x40\n        /* \"#utility.yul\":67:76   */\n      mload\n        /* \"#utility.yul\":57:76   */\n      swap1\n      pop\n        /* \"#utility.yul\":7:82   */\n      swap1\n      jump\t// out\n        /* \"#utility.yul\":88:205   */\n    tag_272:\n        /* \"#utility.yul\":197:198   */\n      0x00\n        /* \"#utility.yul\":194:195   */\n      0x00\n        /* \"#utility.yul\":187:199   */\n      revert\n        /* \"#utility.yul\":211:328   */\n    tag_273:\n        /* \"#utility.yul\":320:321   */\n      0x00\n        /* \"#utility.yul\":317:318   */\n      0x00\n        /* \"#utility.yul\":310:322   */\n      revert\n        /* \"#utility.yul\":334:411   */\n    tag_274:\n        /* \"#utility.yul\":371:378   */\n      0x00\n        /* \"#utility.yul\":400:405   */\n      dup2\n        /* \"#utility.yul\":389:405   */\n      swap1\n      pop\n        /* \"#utility.yul\":334:411   */\n      swap2\n      swap1\n      pop\n      jump\t// out\n        /* \"#utility.yul\":417:539   */\n    tag_275:\n        /* \"#utility.yul\":490:514   */\n      tag_358\n        /* \"#utility.yul\":508:513   */\n      dup2\n        /* \"#utility.yul\":490:514   */\n      tag_274\n      jump\t// in\n    tag_358:\n        /* \"#utility.yul\":483:488   */\n      dup2\n        /* \"#utility.yul\":480:515   */\n      eq\n        /* \"#utility.yul\":470:533   */\n      tag_359\n      jumpi\n        /* \"#utility.yul\":529:530   */\n      0x00\n        /* \"#utility.yul\":526:527   */\n      0x00\n        /* \"#utility.yul\":519:531   */\n      revert\n        /* \"#utility.yul\":470:533   */\n    tag_359:\n        /* \"#utility.yul\":417:539   */\n      pop\n      jump\t// out\n        /* \"#utility.yul\":545:684   */\n    tag_276:\n        /* \"#utility.yul\":591:596   */\n      0x00\n        /* \"#utility.yul\":629:635   */\n      dup2\n        /* \"#utility.yul\":616:636   */\n      calldataload\n        /* \"#utility.yul\":607:636   */\n      swap1\n      pop\n        /* \"#utility.yul\":645:678   */\n      tag_361\n        /* \"#utility.yul\":672:677   */\n      dup2\n        /* \"#utility.yul\":645:678   */\n      tag_275\n      jump\t// in\n    tag_361:\n        /* \"#utility.yul\":545:684   */\n      swap3\n      swap2\n      pop\n      pop\n      jump\t// out\n        /* \"#utility.yul\":690:1164   */\n    tag_24:\n        /* \"#utility.yul\":758:764   */\n      0x00\n        /* \"#utility.yul\":766:772   */\n      0x00\n        /* \"#utility.yul\":815:817   */\n      0x40\n        /* \"#utility.yul\":803:812   */\n      dup4\n        /* \"#utility.yul\":794:801   */\n      dup6\n        /* \"#utility.yul\":790:813   */\n      sub\n        /* \"#utility.yul\":786:818   */\n      slt\n        /* \"#utility.yul\":783:902   */\n      iszero\n      tag_363\n      jumpi\n        /* \"#utility.yul\":821:900   */\n      tag_364\n      tag_272\n      jump\t// in\n    tag_364:\n        /* \"#utility.yul\":783:902   */\n    tag_363:\n        /* \"#utility.yul\":941:942   */\n      0x00\n        /* \"#utility.yul\":966:1019   */\n      tag_365\n        /* \"#utility.yul\":1011:1018   */\n      dup6\n        /* \"#utility.yul\":1002:1008   */\n      dup3\n        /* \"#utility.yul\":991:1000   */\n      dup7\n        /* \"#utility.yul\":987:1009   */\n      add\n        /* \"#utility.yul\":966:1019   */\n      tag_276\n      jump\t// in\n    tag_365:\n        /* \"#utility.yul\":956:1019   */\n      swap3\n      pop\n        /* \"#utility.yul\":912:1029   */\n      pop\n        /* \"#utility.yul\":1068:1070   */\n      0x20\n        /* \"#utility.yul\":1094:1147   */\n      tag_366\n        /* \"#utility.yul\":1139:1146   */\n      dup6\n        /* \"#utility.yul\":1130:1136   */\n      dup3\n        /* \"#utility.yul\":1119:1128   */\n      dup7\n        /* \"#utility.yul\":1115:1137   */\n      add\n        /* \"#utility.yul\":1094:1147   */\n      tag_276\n      jump\t// in\n    tag_366:\n        /* \"#utility.yul\":1084:1147   */\n      swap2\n      pop\n        /* \"#utility.yul\":1039:1157   */\n      pop\n        /* \"#utility.yul\":690:1164   */\n      swap3\n      pop\n      swap3\n      swap1\n      pop\n      jump\t// out\n        /* \"#utility.yul\":1170:1296   */\n    tag_277:\n        /* \"#utility.yul\":1207:1214   */\n      0x00\n        /* \"#utility.yul\":1247:1289   */\n      0xffffffffffffffffffffffffffffffffffffffff\n        /* \"#utility.yul\":1240:1245   */\n      dup3\n        /* \"#utility.yul\":1236:1290   */\n      and\n        /* \"#utility.yul\":1225:1290   */\n      swap1\n      pop\n        /* \"#utility.yul\":1170:1296   */\n      swap2\n      swap1\n      pop\n      jump\t// out\n        /* \"#utility.yul\":1302:1398   */\n    tag_278:\n        /* \"#utility.yul\":1339:1346   */\n      0x00\n        /* \"#utility.yul\":1368:1392   */\n      tag_369\n        /* \"#utility.yul\":1386:1391   */\n      dup3\n        /* \"#utility.yul\":1368:1392   */\n      tag_277\n      jump\t// in\n    tag_369:\n        /* \"#utility.yul\":1357:1392   */\n      swap1\n      pop\n        /* \"#utility.yul\":1302:1398   */\n      swap2\n      swap1\n      pop\n      jump\t// out\n        /* \"#utility.yul\":1404:1526   */\n    tag_279:\n        /* \"#utility.yul\":1477:1501   */\n      tag_371\n        /* \"#utility.yul\":1495:1500   */\n      dup2\n        /* \"#utility.yul\":1477:1501   */\n      tag_278\n      jump\t// in\n    tag_371:\n        /* \"#utility.yul\":1470:1475   */\n      dup2\n        /* \"#utility.yul\":1467:1502   */\n      eq\n        /* \"#utility.yul\":1457:1520   */\n      tag_372\n      jumpi\n        /* \"#utility.yul\":1516:1517   */\n      0x00\n        /* \"#utility.yul\":1513:1514   */\n      0x00\n        /* \"#utility.yul\":1506:1518   */\n      revert\n        /* \"#utility.yul\":1457:1520   */\n    tag_372:\n        /* \"#utility.yul\":1404:1526   */\n      pop\n      jump\t// out\n        /* \"#utility.yul\":1532:1671   */\n    tag_280:\n        /* \"#utility.yul\":1578:1583   */\n      0x00\n        /* \"#utility.yul\":1616:1622   */\n      dup2\n        /* \"#utility.yul\":1603:1623   */\n      calldataload\n        /* \"#utility.yul\":1594:1623   */\n      swap1\n      pop\n        /* \"#utility.yul\":1632:1665   */\n      tag_374\n        /* \"#utility.yul\":1659:1664   */\n      dup2\n        /* \"#utility.yul\":1632:1665   */\n      tag_279\n      jump\t// in\n    tag_374:\n        /* \"#utility.yul\":1532:1671   */\n      swap3\n      swap2\n      pop\n      pop\n      jump\t// out\n        /* \"#utility.yul\":1677:2151   */\n    tag_28:\n        /* \"#utility.yul\":1745:1751   */\n      0x00\n        /* \"#utility.yul\":1753:1759   */\n      0x00\n        /* \"#utility.yul\":1802:1804   */\n      0x40\n        /* \"#utility.yul\":1790:1799   */\n      dup4\n        /* \"#utility.yul\":1781:1788   */\n      dup6\n        /* \"#utility.yul\":1777:1800   */\n      sub\n        /* \"#utility.yul\":1773:1805   */\n      slt\n        /* \"#utility.yul\":1770:1889   */\n      iszero\n      tag_376\n      jumpi\n        /* \"#utility.yul\":1808:1887   */\n      tag_377\n      tag_272\n      jump\t// in\n    tag_377:\n        /* \"#utility.yul\":1770:1889   */\n    tag_376:\n        /* \"#utility.yul\":1928:1929   */\n      0x00\n        /* \"#utility.yul\":1953:2006   */\n      tag_378\n        /* \"#utility.yul\":1998:2005   */\n      dup6\n        /* \"#utility.yul\":1989:1995   */\n      dup3\n        /* \"#utility.yul\":1978:1987   */\n      dup7\n        /* \"#utility.yul\":1974:1996   */\n      add\n        /* \"#utility.yul\":1953:2006   */\n      tag_276\n      jump\t// in\n    tag_378:\n        /* \"#utility.yul\":1943:2006   */\n      swap3\n      pop\n        /* \"#utility.yul\":1899:2016   */\n      pop\n        /* \"#utility.yul\":2055:2057   */\n      0x20\n        /* \"#utility.yul\":2081:2134   */\n      tag_379\n        /* \"#utility.yul\":2126:2133   */\n      dup6\n        /* \"#utility.yul\":2117:2123   */\n      dup3\n        /* \"#utility.yul\":2106:2115   */\n      dup7\n        /* \"#utility.yul\":2102:2124   */\n      add\n        /* \"#utility.yul\":2081:2134   */\n      tag_280\n      jump\t// in\n    tag_379:\n        /* \"#utility.yul\":2071:2134   */\n      swap2\n      pop\n        /* \"#utility.yul\":2026:2144   */\n      pop\n        /* \"#utility.yul\":1677:2151   */\n      swap3\n      pop\n      swap3\n      swap1\n      pop\n      jump\t// out\n        /* \"#utility.yul\":2157:2486   */\n    tag_32:\n        /* \"#utility.yul\":2216:2222   */\n      0x00\n        /* \"#utility.yul\":2265:2267   */\n      0x20\n        /* \"#utility.yul\":2253:2262   */\n      dup3\n        /* \"#utility.yul\":2244:2251   */\n      dup5\n        /* \"#utility.yul\":2240:2263   */\n      sub\n        /* \"#utility.yul\":2236:2268   */\n      slt\n        /* \"#utility.yul\":2233:2352   */\n      iszero\n      tag_381\n      jumpi\n        /* \"#utility.yul\":2271:2350   */\n      tag_382\n      tag_272\n      jump\t// in\n    tag_382:\n        /* \"#utility.yul\":2233:2352   */\n    tag_381:\n        /* \"#utility.yul\":2391:2392   */\n      0x00\n        /* \"#utility.yul\":2416:2469   */\n      tag_383\n        /* \"#utility.yul\":2461:2468   */\n      dup5\n        /* \"#utility.yul\":2452:2458   */\n      dup3\n        /* \"#utility.yul\":2441:2450   */\n      dup6\n        /* \"#utility.yul\":2437:2459   */\n      add\n        /* \"#utility.yul\":2416:2469   */\n      tag_276\n      jump\t// in\n    tag_383:\n        /* \"#utility.yul\":2406:2469   */\n      swap2\n      pop\n        /* \"#utility.yul\":2362:2479   */\n      pop\n        /* \"#utility.yul\":2157:2486   */\n      swap3\n      swap2\n      pop\n      pop\n      jump\t// out\n        /* \"#utility.yul\":2492:2609   */\n    tag_281:\n        /* \"#utility.yul\":2601:2602   */\n      0x00\n        /* \"#utility.yul\":2598:2599   */\n      0x00\n        /* \"#utility.yul\":2591:2603   */\n      revert\n        /* \"#utility.yul\":2615:2732   */\n    tag_282:\n        /* \"#utility.yul\":2724:2725   */\n      0x00\n        /* \"#utility.yul\":2721:2722   */\n      0x00\n        /* \"#utility.yul\":2714:2726   */\n      revert\n        /* \"#utility.yul\":2738:2840   */\n    tag_283:\n        /* \"#utility.yul\":2779:2785   */\n      0x00\n        /* \"#utility.yul\":2830:2832   */\n      0x1f\n        /* \"#utility.yul\":2826:2833   */\n      not\n        /* \"#utility.yul\":2821:2823   */\n      0x1f\n        /* \"#utility.yul\":2814:2819   */\n      dup4\n        /* \"#utility.yul\":2810:2824   */\n      add\n        /* \"#utility.yul\":2806:2834   */\n      and\n        /* \"#utility.yul\":2796:2834   */\n      swap1\n      pop\n        /* \"#utility.yul\":2738:2840   */\n      swap2\n      swap1\n      pop\n      jump\t// out\n        /* \"#utility.yul\":2846:3026   */\n    tag_284:\n        /* \"#utility.yul\":2894:2971   */\n      0x4e487b7100000000000000000000000000000000000000000000000000000000\n        /* \"#utility.yul\":2891:2892   */\n      0x00\n        /* \"#utility.yul\":2884:2972   */\n      mstore\n        /* \"#utility.yul\":2991:2995   */\n      0x41\n        /* \"#utility.yul\":2988:2989   */\n      0x04\n        /* \"#utility.yul\":2981:2996   */\n      mstore\n        /* \"#utility.yul\":3015:3019   */\n      0x24\n        /* \"#utility.yul\":3012:3013   */\n      0x00\n        /* \"#utility.yul\":3005:3020   */\n      revert\n        /* \"#utility.yul\":3032:3313   */\n    tag_285:\n        /* \"#utility.yul\":3115:3142   */\n      tag_389\n        /* \"#utility.yul\":3137:3141   */\n      dup3\n        /* \"#utility.yul\":3115:3142   */\n      tag_283\n      jump\t// in\n    tag_389:\n        /* \"#utility.yul\":3107:3113   */\n      dup2\n        /* \"#utility.yul\":3103:3143   */\n      add\n        /* \"#utility.yul\":3245:3251   */\n      dup2\n        /* \"#utility.yul\":3233:3243   */\n      dup2\n        /* \"#utility.yul\":3230:3252   */\n      lt\n        /* \"#utility.yul\":3209:3227   */\n      0xffffffffffffffff\n        /* \"#utility.yul\":3197:3207   */\n      dup3\n        /* \"#utility.yul\":3194:3228   */\n      gt\n        /* \"#utility.yul\":3191:3253   */\n      or\n        /* \"#utility.yul\":3188:3276   */\n      iszero\n      tag_390\n      jumpi\n        /* \"#utility.yul\":3256:3274   */\n      tag_391\n      tag_284\n      jump\t// in\n    tag_391:\n        /* \"#utility.yul\":3188:3276   */\n    tag_390:\n        /* \"#utility.yul\":3296:3306   */\n      dup1\n        /* \"#utility.yul\":3292:3294   */\n      0x40\n        /* \"#utility.yul\":3285:3307   */\n      mstore\n        /* \"#utility.yul\":3075:3313   */\n      pop\n        /* \"#utility.yul\":3032:3313   */\n      pop\n      pop\n      jump\t// out\n        /* \"#utility.yul\":3319:3448   */\n    tag_286:\n        /* \"#utility.yul\":3353:3359   */\n      0x00\n        /* \"#utility.yul\":3380:3400   */\n      tag_393\n      tag_271\n      jump\t// in\n    tag_393:\n        /* \"#utility.yul\":3370:3400   */\n      swap1\n      pop\n        /* \"#utility.yul\":3409:3442   */\n      tag_394\n        /* \"#utility.yul\":3437:3441   */\n      dup3\n        /* \"#utility.yul\":3429:3435   */\n      dup3\n        /* \"#utility.yul\":3409:3442   */\n      tag_285\n      jump\t// in\n    tag_394:\n        /* \"#utility.yul\":3319:3448   */\n      swap2\n      swap1\n      pop\n      jump\t// out\n        /* \"#utility.yul\":3454:3762   */\n    tag_287:\n        /* \"#utility.yul\":3516:3520   */\n      0x00\n        /* \"#utility.yul\":3606:3624   */\n      0xffffffffffffffff\n        /* \"#utility.yul\":3598:3604   */\n      dup3\n        /* \"#utility.yul\":3595:3625   */\n      gt\n        /* \"#utility.yul\":3592:3648   */\n      iszero\n      tag_396\n      jumpi\n        /* \"#utility.yul\":3628:3646   */\n      tag_397\n      tag_284\n      jump\t// in\n    tag_397:\n        /* \"#utility.yul\":3592:3648   */\n    tag_396:\n        /* \"#utility.yul\":3666:3695   */\n      tag_398\n        /* \"#utility.yul\":3688:3694   */\n      dup3\n        /* \"#utility.yul\":3666:3695   */\n      tag_283\n      jump\t// in\n    tag_398:\n        /* \"#utility.yul\":3658:3695   */\n      swap1\n      pop\n        /* \"#utility.yul\":3750:3754   */\n      0x20\n        /* \"#utility.yul\":3744:3748   */\n      dup2\n        /* \"#utility.yul\":3740:3755   */\n      add\n        /* \"#utility.yul\":3732:3755   */\n      swap1\n      pop\n        /* \"#utility.yul\":3454:3762   */\n      swap2\n      swap1\n      pop\n      jump\t// out\n        /* \"#utility.yul\":3768:3916   */\n    tag_288:\n        /* \"#utility.yul\":3866:3872   */\n      dup3\n        /* \"#utility.yul\":3861:3864   */\n      dup2\n        /* \"#utility.yul\":3856:3859   */\n      dup4\n        /* \"#utility.yul\":3843:3873   */\n      calldatacopy\n        /* \"#utility.yul\":3907:3908   */\n      0x00\n        /* \"#utility.yul\":3898:3904   */\n      dup4\n        /* \"#utility.yul\":3893:3896   */\n      dup4\n        /* \"#utility.yul\":3889:3905   */\n      add\n        /* \"#utility.yul\":3882:3909   */\n      mstore\n        /* \"#utility.yul\":3768:3916   */\n      pop\n      pop\n      pop\n      jump\t// out\n        /* \"#utility.yul\":3922:4347   */\n    tag_289:\n        /* \"#utility.yul\":4000:4005   */\n      0x00\n        /* \"#utility.yul\":4025:4091   */\n      tag_401\n        /* \"#utility.yul\":4041:4090   */\n      tag_402\n        /* \"#utility.yul\":4083:4089   */\n      dup5\n        /* \"#utility.yul\":4041:4090   */\n      tag_287\n      jump\t// in\n    tag_402:\n        /* \"#utility.yul\":4025:4091   */\n      tag_286\n      jump\t// in\n    tag_401:\n        /* \"#utility.yul\":4016:4091   */\n      swap1\n      pop\n        /* \"#utility.yul\":4114:4120   */\n      dup3\n        /* \"#utility.yul\":4107:4112   */\n      dup2\n        /* \"#utility.yul\":4100:4121   */\n      mstore\n        /* \"#utility.yul\":4152:4156   */\n      0x20\n        /* \"#utility.yul\":4145:4150   */\n      dup2\n        /* \"#utility.yul\":4141:4157   */\n      add\n        /* \"#utility.yul\":4190:4193   */\n      dup5\n        /* \"#utility.yul\":4181:4187   */\n      dup5\n        /* \"#utility.yul\":4176:4179   */\n      dup5\n        /* \"#utility.yul\":4172:4188   */\n      add\n        /* \"#utility.yul\":4169:4194   */\n      gt\n        /* \"#utility.yul\":4166:4278   */\n      iszero\n      tag_403\n      jumpi\n        /* \"#utility.yul\":4197:4276   */\n      tag_404\n      tag_282\n      jump\t// in\n    tag_404:\n        /* \"#utility.yul\":4166:4278   */\n    tag_403:\n        /* \"#utility.yul\":4287:4341   */\n      tag_405\n        /* \"#utility.yul\":4334:4340   */\n      dup5\n        /* \"#utility.yul\":4329:4332   */\n      dup3\n        /* \"#utility.yul\":4324:4327   */\n      dup6\n        /* \"#utility.yul\":4287:4341   */\n      tag_288\n      jump\t// in\n    tag_405:\n        /* \"#utility.yul\":4006:4347   */\n      pop\n        /* \"#utility.yul\":3922:4347   */\n      swap4\n      swap3\n      pop\n      pop\n      pop\n      jump\t// out\n        /* \"#utility.yul\":4367:4707   */\n    tag_290:\n        /* \"#utility.yul\":4423:4428   */\n      0x00\n        /* \"#utility.yul\":4472:4475   */\n      dup3\n        /* \"#utility.yul\":4465:4469   */\n      0x1f\n        /* \"#utility.yul\":4457:4463   */\n      dup4\n        /* \"#utility.yul\":4453:4470   */\n      add\n        /* \"#utility.yul\":4449:4476   */\n      slt\n        /* \"#utility.yul\":4439:4561   */\n      tag_407\n      jumpi\n        /* \"#utility.yul\":4480:4559   */\n      tag_408\n      tag_281\n      jump\t// in\n    tag_408:\n        /* \"#utility.yul\":4439:4561   */\n    tag_407:\n        /* \"#utility.yul\":4597:4603   */\n      dup2\n        /* \"#utility.yul\":4584:4604   */\n      calldataload\n        /* \"#utility.yul\":4622:4701   */\n      tag_409\n        /* \"#utility.yul\":4697:4700   */\n      dup5\n        /* \"#utility.yul\":4689:4695   */\n      dup3\n        /* \"#utility.yul\":4682:4686   */\n      0x20\n        /* \"#utility.yul\":4674:4680   */\n      dup7\n        /* \"#utility.yul\":4670:4687   */\n      add\n        /* \"#utility.yul\":4622:4701   */\n      tag_289\n      jump\t// in\n    tag_409:\n        /* \"#utility.yul\":4613:4701   */\n      swap2\n      pop\n        /* \"#utility.yul\":4429:4707   */\n      pop\n        /* \"#utility.yul\":4367:4707   */\n      swap3\n      swap2\n      pop\n      pop\n      jump\t// out\n        /* \"#utility.yul\":4713:5367   */\n    tag_36:\n        /* \"#utility.yul\":4791:4797   */\n      0x00\n        /* \"#utility.yul\":4799:4805   */\n      0x00\n        /* \"#utility.yul\":4848:4850   */\n      0x40\n        /* \"#utility.yul\":4836:4845   */\n      dup4\n        /* \"#utility.yul\":4827:4834   */\n      dup6\n        /* \"#utility.yul\":4823:4846   */\n      sub\n        /* \"#utility.yul\":4819:4851   */\n      slt\n        /* \"#utility.yul\":4816:4935   */\n      iszero\n      tag_411\n      jumpi\n        /* \"#utility.yul\":4854:4933   */\n      tag_412\n      tag_272\n      jump\t// in\n    tag_412:\n        /* \"#utility.yul\":4816:4935   */\n    tag_411:\n        /* \"#utility.yul\":4974:4975   */\n      0x00\n        /* \"#utility.yul\":4999:5052   */\n      tag_413\n        /* \"#utility.yul\":5044:5051   */\n      dup6\n        /* \"#utility.yul\":5035:5041   */\n      dup3\n        /* \"#utility.yul\":5024:5033   */\n      dup7\n        /* \"#utility.yul\":5020:5042   */\n      add\n        /* \"#utility.yul\":4999:5052   */\n      tag_276\n      jump\t// in\n    tag_413:\n        /* \"#utility.yul\":4989:5052   */\n      swap3\n      pop\n        /* \"#utility.yul\":4945:5062   */\n      pop\n        /* \"#utility.yul\":5129:5131   */\n      0x20\n        /* \"#utility.yul\":5118:5127   */\n      dup4\n        /* \"#utility.yul\":5114:5132   */\n      add\n        /* \"#utility.yul\":5101:5133   */\n      calldataload\n        /* \"#utility.yul\":5160:5178   */\n      0xffffffffffffffff\n        /* \"#utility.yul\":5152:5158   */\n      dup2\n        /* \"#utility.yul\":5149:5179   */\n      gt\n        /* \"#utility.yul\":5146:5263   */\n      iszero\n      tag_414\n      jumpi\n        /* \"#utility.yul\":5182:5261   */\n      tag_415\n      tag_273\n      jump\t// in\n    tag_415:\n        /* \"#utility.yul\":5146:5263   */\n    tag_414:\n        /* \"#utility.yul\":5287:5350   */\n      tag_416\n        /* \"#utility.yul\":5342:5349   */\n      dup6\n        /* \"#utility.yul\":5333:5339   */\n      dup3\n        /* \"#utility.yul\":5322:5331   */\n      dup7\n        /* \"#utility.yul\":5318:5340   */\n      add\n        /* \"#utility.yul\":5287:5350   */\n      tag_290\n      jump\t// in\n    tag_416:\n        /* \"#utility.yul\":5277:5350   */\n      swap2\n      pop\n        /* \"#utility.yul\":5072:5360   */\n      pop\n        /* \"#utility.yul\":4713:5367   */\n      swap3\n      pop\n      swap3\n      swap1\n      pop\n      jump\t// out\n        /* \"#utility.yul\":5373:5491   */\n    tag_291:\n        /* \"#utility.yul\":5460:5484   */\n      tag_418\n        /* \"#utility.yul\":5478:5483   */\n      dup2\n        /* \"#utility.yul\":5460:5484   */\n      tag_274\n      jump\t// in\n    tag_418:\n        /* \"#utility.yul\":5455:5458   */\n      dup3\n        /* \"#utility.yul\":5448:5485   */\n      mstore\n        /* \"#utility.yul\":5373:5491   */\n      pop\n      pop\n      jump\t// out\n        /* \"#utility.yul\":5497:5719   */\n    tag_41:\n        /* \"#utility.yul\":5590:5594   */\n      0x00\n        /* \"#utility.yul\":5628:5630   */\n      0x20\n        /* \"#utility.yul\":5617:5626   */\n      dup3\n        /* \"#utility.yul\":5613:5631   */\n      add\n        /* \"#utility.yul\":5605:5631   */\n      swap1\n      pop\n        /* \"#utility.yul\":5641:5712   */\n      tag_420\n        /* \"#utility.yul\":5709:5710   */\n      0x00\n        /* \"#utility.yul\":5698:5707   */\n      dup4\n        /* \"#utility.yul\":5694:5711   */\n      add\n        /* \"#utility.yul\":5685:5691   */\n      dup5\n        /* \"#utility.yul\":5641:5712   */\n      tag_291\n      jump\t// in\n    tag_420:\n        /* \"#utility.yul\":5497:5719   */\n      swap3\n      swap2\n      pop\n      pop\n      jump\t// out\n        /* \"#utility.yul\":5725:5815   */\n    tag_292:\n        /* \"#utility.yul\":5759:5766   */\n      0x00\n        /* \"#utility.yul\":5802:5807   */\n      dup2\n        /* \"#utility.yul\":5795:5808   */\n      iszero\n        /* \"#utility.yul\":5788:5809   */\n      iszero\n        /* \"#utility.yul\":5777:5809   */\n      swap1\n      pop\n        /* \"#utility.yul\":5725:5815   */\n      swap2\n      swap1\n      pop\n      jump\t// out\n        /* \"#utility.yul\":5821:5930   */\n    tag_293:\n        /* \"#utility.yul\":5902:5923   */\n      tag_423\n        /* \"#utility.yul\":5917:5922   */\n      dup2\n        /* \"#utility.yul\":5902:5923   */\n      tag_292\n      jump\t// in\n    tag_423:\n        /* \"#utility.yul\":5897:5900   */\n      dup3\n        /* \"#utility.yul\":5890:5924   */\n      mstore\n        /* \"#utility.yul\":5821:5930   */\n      pop\n      pop\n      jump\t// out\n        /* \"#utility.yul\":5936:6146   */\n    tag_48:\n        /* \"#utility.yul\":6023:6027   */\n      0x00\n        /* \"#utility.yul\":6061:6063   */\n      0x20\n        /* \"#utility.yul\":6050:6059   */\n      dup3\n        /* \"#utility.yul\":6046:6064   */\n      add\n        /* \"#utility.yul\":6038:6064   */\n      swap1\n      pop\n        /* \"#utility.yul\":6074:6139   */\n      tag_425\n        /* \"#utility.yul\":6136:6137   */\n      0x00\n        /* \"#utility.yul\":6125:6134   */\n      dup4\n        /* \"#utility.yul\":6121:6138   */\n      add\n        /* \"#utility.yul\":6112:6118   */\n      dup5\n        /* \"#utility.yul\":6074:6139   */\n      tag_293\n      jump\t// in\n    tag_425:\n        /* \"#utility.yul\":5936:6146   */\n      swap3\n      swap2\n      pop\n      pop\n      jump\t// out\n        /* \"#utility.yul\":6152:6251   */\n    tag_294:\n        /* \"#utility.yul\":6204:6210   */\n      0x00\n        /* \"#utility.yul\":6238:6243   */\n      dup2\n        /* \"#utility.yul\":6232:6244   */\n      mload\n        /* \"#utility.yul\":6222:6244   */\n      swap1\n      pop\n        /* \"#utility.yul\":6152:6251   */\n      swap2\n      swap1\n      pop\n      jump\t// out\n        /* \"#utility.yul\":6257:6416   */\n    tag_295:\n        /* \"#utility.yul\":6331:6342   */\n      0x00\n        /* \"#utility.yul\":6365:6371   */\n      dup3\n        /* \"#utility.yul\":6360:6363   */\n      dup3\n        /* \"#utility.yul\":6353:6372   */\n      mstore\n        /* \"#utility.yul\":6405:6409   */\n      0x20\n        /* \"#utility.yul\":6400:6403   */\n      dup3\n        /* \"#utility.yul\":6396:6410   */\n      add\n        /* \"#utility.yul\":6381:6410   */\n      swap1\n      pop\n        /* \"#utility.yul\":6257:6416   */\n      swap3\n      swap2\n      pop\n      pop\n      jump\t// out\n        /* \"#utility.yul\":6422:6561   */\n    tag_296:\n        /* \"#utility.yul\":6511:6517   */\n      dup3\n        /* \"#utility.yul\":6506:6509   */\n      dup2\n        /* \"#utility.yul\":6501:6504   */\n      dup4\n        /* \"#utility.yul\":6495:6518   */\n      mcopy\n        /* \"#utility.yul\":6552:6553   */\n      0x00\n        /* \"#utility.yul\":6543:6549   */\n      dup4\n        /* \"#utility.yul\":6538:6541   */\n      dup4\n        /* \"#utility.yul\":6534:6550   */\n      add\n        /* \"#utility.yul\":6527:6554   */\n      mstore\n        /* \"#utility.yul\":6422:6561   */\n      pop\n      pop\n      pop\n      jump\t// out\n        /* \"#utility.yul\":6567:6924   */\n    tag_297:\n        /* \"#utility.yul\":6645:6648   */\n      0x00\n        /* \"#utility.yul\":6673:6712   */\n      tag_430\n        /* \"#utility.yul\":6706:6711   */\n      dup3\n        /* \"#utility.yul\":6673:6712   */\n      tag_294\n      jump\t// in\n    tag_430:\n        /* \"#utility.yul\":6728:6789   */\n      tag_431\n        /* \"#utility.yul\":6782:6788   */\n      dup2\n        /* \"#utility.yul\":6777:6780   */\n      dup6\n        /* \"#utility.yul\":6728:6789   */\n      tag_295\n      jump\t// in\n    tag_431:\n        /* \"#utility.yul\":6721:6789   */\n      swap4\n      pop\n        /* \"#utility.yul\":6798:6863   */\n      tag_432\n        /* \"#utility.yul\":6856:6862   */\n      dup2\n        /* \"#utility.yul\":6851:6854   */\n      dup6\n        /* \"#utility.yul\":6844:6848   */\n      0x20\n        /* \"#utility.yul\":6837:6842   */\n      dup7\n        /* \"#utility.yul\":6833:6849   */\n      add\n        /* \"#utility.yul\":6798:6863   */\n      tag_296\n      jump\t// in\n    tag_432:\n        /* \"#utility.yul\":6888:6917   */\n      tag_433\n        /* \"#utility.yul\":6910:6916   */\n      dup2\n        /* \"#utility.yul\":6888:6917   */\n      tag_283\n      jump\t// in\n    tag_433:\n        /* \"#utility.yul\":6883:6886   */\n      dup5\n        /* \"#utility.yul\":6879:6918   */\n      add\n        /* \"#utility.yul\":6872:6918   */\n      swap2\n      pop\n        /* \"#utility.yul\":6649:6924   */\n      pop\n        /* \"#utility.yul\":6567:6924   */\n      swap3\n      swap2\n      pop\n      pop\n      jump\t// out\n        /* \"#utility.yul\":6930:7038   */\n    tag_298:\n        /* \"#utility.yul\":7007:7031   */\n      tag_435\n        /* \"#utility.yul\":7025:7030   */\n      dup2\n        /* \"#utility.yul\":7007:7031   */\n      tag_274\n      jump\t// in\n    tag_435:\n        /* \"#utility.yul\":7002:7005   */\n      dup3\n        /* \"#utility.yul\":6995:7032   */\n      mstore\n        /* \"#utility.yul\":6930:7038   */\n      pop\n      pop\n      jump\t// out\n        /* \"#utility.yul\":7100:7718   */\n    tag_299:\n        /* \"#utility.yul\":7219:7222   */\n      0x00\n        /* \"#utility.yul\":7255:7259   */\n      0x40\n        /* \"#utility.yul\":7250:7253   */\n      dup4\n        /* \"#utility.yul\":7246:7260   */\n      add\n        /* \"#utility.yul\":7349:7353   */\n      0x00\n        /* \"#utility.yul\":7342:7347   */\n      dup4\n        /* \"#utility.yul\":7338:7354   */\n      add\n        /* \"#utility.yul\":7332:7355   */\n      mload\n        /* \"#utility.yul\":7402:7405   */\n      dup5\n        /* \"#utility.yul\":7396:7400   */\n      dup3\n        /* \"#utility.yul\":7392:7406   */\n      sub\n        /* \"#utility.yul\":7385:7389   */\n      0x00\n        /* \"#utility.yul\":7380:7383   */\n      dup7\n        /* \"#utility.yul\":7376:7390   */\n      add\n        /* \"#utility.yul\":7369:7407   */\n      mstore\n        /* \"#utility.yul\":7428:7501   */\n      tag_437\n        /* \"#utility.yul\":7496:7500   */\n      dup3\n        /* \"#utility.yul\":7482:7494   */\n      dup3\n        /* \"#utility.yul\":7428:7501   */\n      tag_297\n      jump\t// in\n    tag_437:\n        /* \"#utility.yul\":7420:7501   */\n      swap2\n      pop\n        /* \"#utility.yul\":7270:7512   */\n      pop\n        /* \"#utility.yul\":7599:7603   */\n      0x20\n        /* \"#utility.yul\":7592:7597   */\n      dup4\n        /* \"#utility.yul\":7588:7604   */\n      add\n        /* \"#utility.yul\":7582:7605   */\n      mload\n        /* \"#utility.yul\":7618:7681   */\n      tag_438\n        /* \"#utility.yul\":7675:7679   */\n      0x20\n        /* \"#utility.yul\":7670:7673   */\n      dup7\n        /* \"#utility.yul\":7666:7680   */\n      add\n        /* \"#utility.yul\":7652:7664   */\n      dup3\n        /* \"#utility.yul\":7618:7681   */\n      tag_298\n      jump\t// in\n    tag_438:\n        /* \"#utility.yul\":7522:7691   */\n      pop\n        /* \"#utility.yul\":7708:7712   */\n      dup1\n        /* \"#utility.yul\":7701:7712   */\n      swap2\n      pop\n        /* \"#utility.yul\":7224:7718   */\n      pop\n        /* \"#utility.yul\":7100:7718   */\n      swap3\n      swap2\n      pop\n      pop\n      jump\t// out\n        /* \"#utility.yul\":7724:8097   */\n    tag_53:\n        /* \"#utility.yul\":7867:7871   */\n      0x00\n        /* \"#utility.yul\":7905:7907   */\n      0x20\n        /* \"#utility.yul\":7894:7903   */\n      dup3\n        /* \"#utility.yul\":7890:7908   */\n      add\n        /* \"#utility.yul\":7882:7908   */\n      swap1\n      pop\n        /* \"#utility.yul\":7954:7963   */\n      dup2\n        /* \"#utility.yul\":7948:7952   */\n      dup2\n        /* \"#utility.yul\":7944:7964   */\n      sub\n        /* \"#utility.yul\":7940:7941   */\n      0x00\n        /* \"#utility.yul\":7929:7938   */\n      dup4\n        /* \"#utility.yul\":7925:7942   */\n      add\n        /* \"#utility.yul\":7918:7965   */\n      mstore\n        /* \"#utility.yul\":7982:8090   */\n      tag_440\n        /* \"#utility.yul\":8085:8089   */\n      dup2\n        /* \"#utility.yul\":8076:8082   */\n      dup5\n        /* \"#utility.yul\":7982:8090   */\n      tag_299\n      jump\t// in\n    tag_440:\n        /* \"#utility.yul\":7974:8090   */\n      swap1\n      pop\n        /* \"#utility.yul\":7724:8097   */\n      swap3\n      swap2\n      pop\n      pop\n      jump\t// out\n        /* \"#utility.yul\":8103:8221   */\n    tag_300:\n        /* \"#utility.yul\":8190:8214   */\n      tag_442\n        /* \"#utility.yul\":8208:8213   */\n      dup2\n        /* \"#utility.yul\":8190:8214   */\n      tag_278\n      jump\t// in\n    tag_442:\n        /* \"#utility.yul\":8185:8188   */\n      dup3\n        /* \"#utility.yul\":8178:8215   */\n      mstore\n        /* \"#utility.yul\":8103:8221   */\n      pop\n      pop\n      jump\t// out\n        /* \"#utility.yul\":8227:8449   */\n    tag_60:\n        /* \"#utility.yul\":8320:8324   */\n      0x00\n        /* \"#utility.yul\":8358:8360   */\n      0x20\n        /* \"#utility.yul\":8347:8356   */\n      dup3\n        /* \"#utility.yul\":8343:8361   */\n      add\n        /* \"#utility.yul\":8335:8361   */\n      swap1\n      pop\n        /* \"#utility.yul\":8371:8442   */\n      tag_444\n        /* \"#utility.yul\":8439:8440   */\n      0x00\n        /* \"#utility.yul\":8428:8437   */\n      dup4\n        /* \"#utility.yul\":8424:8441   */\n      add\n        /* \"#utility.yul\":8415:8421   */\n      dup5\n        /* \"#utility.yul\":8371:8442   */\n      tag_300\n      jump\t// in\n    tag_444:\n        /* \"#utility.yul\":8227:8449   */\n      swap3\n      swap2\n      pop\n      pop\n      jump\t// out\n        /* \"#utility.yul\":8455:8594   */\n    tag_301:\n        /* \"#utility.yul\":8547:8553   */\n      0x00\n        /* \"#utility.yul\":8581:8586   */\n      dup2\n        /* \"#utility.yul\":8575:8587   */\n      mload\n        /* \"#utility.yul\":8565:8587   */\n      swap1\n      pop\n        /* \"#utility.yul\":8455:8594   */\n      swap2\n      swap1\n      pop\n      jump\t// out\n        /* \"#utility.yul\":8600:8809   */\n    tag_302:\n        /* \"#utility.yul\":8724:8735   */\n      0x00\n        /* \"#utility.yul\":8758:8764   */\n      dup3\n        /* \"#utility.yul\":8753:8756   */\n      dup3\n        /* \"#utility.yul\":8746:8765   */\n      mstore\n        /* \"#utility.yul\":8798:8802   */\n      0x20\n        /* \"#utility.yul\":8793:8796   */\n      dup3\n        /* \"#utility.yul\":8789:8803   */\n      add\n        /* \"#utility.yul\":8774:8803   */\n      swap1\n      pop\n        /* \"#utility.yul\":8600:8809   */\n      swap3\n      swap2\n      pop\n      pop\n      jump\t// out\n        /* \"#utility.yul\":8815:8972   */\n    tag_303:\n        /* \"#utility.yul\":8907:8911   */\n      0x00\n        /* \"#utility.yul\":8930:8933   */\n      dup2\n        /* \"#utility.yul\":8922:8933   */\n      swap1\n      pop\n        /* \"#utility.yul\":8960:8964   */\n      0x20\n        /* \"#utility.yul\":8955:8958   */\n      dup3\n        /* \"#utility.yul\":8951:8965   */\n      add\n        /* \"#utility.yul\":8943:8965   */\n      swap1\n      pop\n        /* \"#utility.yul\":8815:8972   */\n      swap2\n      swap1\n      pop\n      jump\t// out\n        /* \"#utility.yul\":9034:9642   */\n    tag_304:\n        /* \"#utility.yul\":9143:9146   */\n      0x00\n        /* \"#utility.yul\":9179:9183   */\n      0x40\n        /* \"#utility.yul\":9174:9177   */\n      dup4\n        /* \"#utility.yul\":9170:9184   */\n      add\n        /* \"#utility.yul\":9273:9277   */\n      0x00\n        /* \"#utility.yul\":9266:9271   */\n      dup4\n        /* \"#utility.yul\":9262:9278   */\n      add\n        /* \"#utility.yul\":9256:9279   */\n      mload\n        /* \"#utility.yul\":9326:9329   */\n      dup5\n        /* \"#utility.yul\":9320:9324   */\n      dup3\n        /* \"#utility.yul\":9316:9330   */\n      sub\n        /* \"#utility.yul\":9309:9313   */\n      0x00\n        /* \"#utility.yul\":9304:9307   */\n      dup7\n        /* \"#utility.yul\":9300:9314   */\n      add\n        /* \"#utility.yul\":9293:9331   */\n      mstore\n        /* \"#utility.yul\":9352:9425   */\n      tag_449\n        /* \"#utility.yul\":9420:9424   */\n      dup3\n        /* \"#utility.yul\":9406:9418   */\n      dup3\n        /* \"#utility.yul\":9352:9425   */\n      tag_297\n      jump\t// in\n    tag_449:\n        /* \"#utility.yul\":9344:9425   */\n      swap2\n      pop\n        /* \"#utility.yul\":9194:9436   */\n      pop\n        /* \"#utility.yul\":9523:9527   */\n      0x20\n        /* \"#utility.yul\":9516:9521   */\n      dup4\n        /* \"#utility.yul\":9512:9528   */\n      add\n        /* \"#utility.yul\":9506:9529   */\n      mload\n        /* \"#utility.yul\":9542:9605   */\n      tag_450\n        /* \"#utility.yul\":9599:9603   */\n      0x20\n        /* \"#utility.yul\":9594:9597   */\n      dup7\n        /* \"#utility.yul\":9590:9604   */\n      add\n        /* \"#utility.yul\":9576:9588   */\n      dup3\n        /* \"#utility.yul\":9542:9605   */\n      tag_298\n      jump\t// in\n    tag_450:\n        /* \"#utility.yul\":9446:9615   */\n      pop\n        /* \"#utility.yul\":9632:9636   */\n      dup1\n        /* \"#utility.yul\":9625:9636   */\n      swap2\n      pop\n        /* \"#utility.yul\":9148:9642   */\n      pop\n        /* \"#utility.yul\":9034:9642   */\n      swap3\n      swap2\n      pop\n      pop\n      jump\t// out\n        /* \"#utility.yul\":9648:9904   */\n    tag_305:\n        /* \"#utility.yul\":9767:9777   */\n      0x00\n        /* \"#utility.yul\":9802:9898   */\n      tag_452\n        /* \"#utility.yul\":9894:9897   */\n      dup4\n        /* \"#utility.yul\":9886:9892   */\n      dup4\n        /* \"#utility.yul\":9802:9898   */\n      tag_304\n      jump\t// in\n    tag_452:\n        /* \"#utility.yul\":9788:9898   */\n      swap1\n      pop\n        /* \"#utility.yul\":9648:9904   */\n      swap3\n      swap2\n      pop\n      pop\n      jump\t// out\n        /* \"#utility.yul\":9910:10048   */\n    tag_306:\n        /* \"#utility.yul\":10005:10009   */\n      0x00\n        /* \"#utility.yul\":10037:10041   */\n      0x20\n        /* \"#utility.yul\":10032:10035   */\n      dup3\n        /* \"#utility.yul\":10028:10042   */\n      add\n        /* \"#utility.yul\":10020:10042   */\n      swap1\n      pop\n        /* \"#utility.yul\":9910:10048   */\n      swap2\n      swap1\n      pop\n      jump\t// out\n        /* \"#utility.yul\":10114:11225   */\n    tag_307:\n        /* \"#utility.yul\":10283:10286   */\n      0x00\n        /* \"#utility.yul\":10312:10391   */\n      tag_455\n        /* \"#utility.yul\":10385:10390   */\n      dup3\n        /* \"#utility.yul\":10312:10391   */\n      tag_301\n      jump\t// in\n    tag_455:\n        /* \"#utility.yul\":10407:10518   */\n      tag_456\n        /* \"#utility.yul\":10511:10517   */\n      dup2\n        /* \"#utility.yul\":10506:10509   */\n      dup6\n        /* \"#utility.yul\":10407:10518   */\n      tag_302\n      jump\t// in\n    tag_456:\n        /* \"#utility.yul\":10400:10518   */\n      swap4\n      pop\n        /* \"#utility.yul\":10544:10547   */\n      dup4\n        /* \"#utility.yul\":10589:10593   */\n      0x20\n        /* \"#utility.yul\":10581:10587   */\n      dup3\n        /* \"#utility.yul\":10577:10594   */\n      mul\n        /* \"#utility.yul\":10572:10575   */\n      dup6\n        /* \"#utility.yul\":10568:10595   */\n      add\n        /* \"#utility.yul\":10619:10700   */\n      tag_457\n        /* \"#utility.yul\":10694:10699   */\n      dup6\n        /* \"#utility.yul\":10619:10700   */\n      tag_303\n      jump\t// in\n    tag_457:\n        /* \"#utility.yul\":10723:10730   */\n      dup1\n        /* \"#utility.yul\":10754:10755   */\n      0x00\n        /* \"#utility.yul\":10739:11180   */\n    tag_458:\n        /* \"#utility.yul\":10764:10770   */\n      dup6\n        /* \"#utility.yul\":10761:10762   */\n      dup2\n        /* \"#utility.yul\":10758:10771   */\n      lt\n        /* \"#utility.yul\":10739:11180   */\n      iszero\n      tag_460\n      jumpi\n        /* \"#utility.yul\":10835:10844   */\n      dup5\n        /* \"#utility.yul\":10829:10833   */\n      dup5\n        /* \"#utility.yul\":10825:10845   */\n      sub\n        /* \"#utility.yul\":10820:10823   */\n      dup10\n        /* \"#utility.yul\":10813:10846   */\n      mstore\n        /* \"#utility.yul\":10886:10892   */\n      dup2\n        /* \"#utility.yul\":10880:10893   */\n      mload\n        /* \"#utility.yul\":10914:11028   */\n      tag_461\n        /* \"#utility.yul\":11023:11027   */\n      dup6\n        /* \"#utility.yul\":11008:11021   */\n      dup3\n        /* \"#utility.yul\":10914:11028   */\n      tag_305\n      jump\t// in\n    tag_461:\n        /* \"#utility.yul\":10906:11028   */\n      swap5\n      pop\n        /* \"#utility.yul\":11051:11136   */\n      tag_462\n        /* \"#utility.yul\":11129:11135   */\n      dup4\n        /* \"#utility.yul\":11051:11136   */\n      tag_306\n      jump\t// in\n    tag_462:\n        /* \"#utility.yul\":11041:11136   */\n      swap3\n      pop\n        /* \"#utility.yul\":11165:11169   */\n      0x20\n        /* \"#utility.yul\":11160:11163   */\n      dup11\n        /* \"#utility.yul\":11156:11170   */\n      add\n        /* \"#utility.yul\":11149:11170   */\n      swap10\n      pop\n        /* \"#utility.yul\":10799:11180   */\n      pop\n        /* \"#utility.yul\":10786:10787   */\n      0x01\n        /* \"#utility.yul\":10783:10784   */\n      dup2\n        /* \"#utility.yul\":10779:10788   */\n      add\n        /* \"#utility.yul\":10774:10788   */\n      swap1\n      pop\n        /* \"#utility.yul\":10739:11180   */\n      jump(tag_458)\n    tag_460:\n        /* \"#utility.yul\":10743:10757   */\n      pop\n        /* \"#utility.yul\":11196:11200   */\n      dup3\n        /* \"#utility.yul\":11189:11200   */\n      swap8\n      pop\n        /* \"#utility.yul\":11216:11219   */\n      dup8\n        /* \"#utility.yul\":11209:11219   */\n      swap6\n      pop\n        /* \"#utility.yul\":10288:11225   */\n      pop\n      pop\n      pop\n      pop\n      pop\n        /* \"#utility.yul\":10114:11225   */\n      swap3\n      swap2\n      pop\n      pop\n      jump\t// out\n        /* \"#utility.yul\":11231:11704   */\n    tag_68:\n        /* \"#utility.yul\":11424:11428   */\n      0x00\n        /* \"#utility.yul\":11462:11464   */\n      0x20\n        /* \"#utility.yul\":11451:11460   */\n      dup3\n        /* \"#utility.yul\":11447:11465   */\n      add\n        /* \"#utility.yul\":11439:11465   */\n      swap1\n      pop\n        /* \"#utility.yul\":11511:11520   */\n      dup2\n        /* \"#utility.yul\":11505:11509   */\n      dup2\n        /* \"#utility.yul\":11501:11521   */\n      sub\n        /* \"#utility.yul\":11497:11498   */\n      0x00\n        /* \"#utility.yul\":11486:11495   */\n      dup4\n        /* \"#utility.yul\":11482:11499   */\n      add\n        /* \"#utility.yul\":11475:11522   */\n      mstore\n        /* \"#utility.yul\":11539:11697   */\n      tag_464\n        /* \"#utility.yul\":11692:11696   */\n      dup2\n        /* \"#utility.yul\":11683:11689   */\n      dup5\n        /* \"#utility.yul\":11539:11697   */\n      tag_307\n      jump\t// in\n    tag_464:\n        /* \"#utility.yul\":11531:11697   */\n      swap1\n      pop\n        /* \"#utility.yul\":11231:11704   */\n      swap3\n      swap2\n      pop\n      pop\n      jump\t// out\n        /* \"#utility.yul\":11710:12039   */\n    tag_79:\n        /* \"#utility.yul\":11769:11775   */\n      0x00\n        /* \"#utility.yul\":11818:11820   */\n      0x20\n        /* \"#utility.yul\":11806:11815   */\n      dup3\n        /* \"#utility.yul\":11797:11804   */\n      dup5\n        /* \"#utility.yul\":11793:11816   */\n      sub\n        /* \"#utility.yul\":11789:11821   */\n      slt\n        /* \"#utility.yul\":11786:11905   */\n      iszero\n      tag_466\n      jumpi\n        /* \"#utility.yul\":11824:11903   */\n      tag_467\n      tag_272\n      jump\t// in\n    tag_467:\n        /* \"#utility.yul\":11786:11905   */\n    tag_466:\n        /* \"#utility.yul\":11944:11945   */\n      0x00\n        /* \"#utility.yul\":11969:12022   */\n      tag_468\n        /* \"#utility.yul\":12014:12021   */\n      dup5\n        /* \"#utility.yul\":12005:12011   */\n      dup3\n        /* \"#utility.yul\":11994:12003   */\n      dup6\n        /* \"#utility.yul\":11990:12012   */\n      add\n        /* \"#utility.yul\":11969:12022   */\n      tag_280\n      jump\t// in\n    tag_468:\n        /* \"#utility.yul\":11959:12022   */\n      swap2\n      pop\n        /* \"#utility.yul\":11915:12032   */\n      pop\n        /* \"#utility.yul\":11710:12039   */\n      swap3\n      swap2\n      pop\n      pop\n      jump\t// out\n        /* \"#utility.yul\":12045:12225   */\n    tag_84:\n        /* \"#utility.yul\":12093:12170   */\n      0x4e487b7100000000000000000000000000000000000000000000000000000000\n        /* \"#utility.yul\":12090:12091   */\n      0x00\n        /* \"#utility.yul\":12083:12171   */\n      mstore\n        /* \"#utility.yul\":12190:12194   */\n      0x21\n        /* \"#utility.yul\":12187:12188   */\n      0x04\n        /* \"#utility.yul\":12180:12195   */\n      mstore\n        /* \"#utility.yul\":12214:12218   */\n      0x24\n        /* \"#utility.yul\":12211:12212   */\n      0x00\n        /* \"#utility.yul\":12204:12219   */\n      revert\n        /* \"#utility.yul\":12231:12400   */\n    tag_308:\n        /* \"#utility.yul\":12315:12326   */\n      0x00\n        /* \"#utility.yul\":12349:12355   */\n      dup3\n        /* \"#utility.yul\":12344:12347   */\n      dup3\n        /* \"#utility.yul\":12337:12356   */\n      mstore\n        /* \"#utility.yul\":12389:12393   */\n      0x20\n        /* \"#utility.yul\":12384:12387   */\n      dup3\n        /* \"#utility.yul\":12380:12394   */\n      add\n        /* \"#utility.yul\":12365:12394   */\n      swap1\n      pop\n        /* \"#utility.yul\":12231:12400   */\n      swap3\n      swap2\n      pop\n      pop\n      jump\t// out\n        /* \"#utility.yul\":12406:12582   */\n    tag_309:\n        /* \"#utility.yul\":12546:12574   */\n      0x566f74696e672073657373696f6e206e6f742073746172746564000000000000\n        /* \"#utility.yul\":12542:12543   */\n      0x00\n        /* \"#utility.yul\":12534:12540   */\n      dup3\n        /* \"#utility.yul\":12530:12544   */\n      add\n        /* \"#utility.yul\":12523:12575   */\n      mstore\n        /* \"#utility.yul\":12406:12582   */\n      pop\n      jump\t// out\n        /* \"#utility.yul\":12588:12954   */\n    tag_310:\n        /* \"#utility.yul\":12730:12733   */\n      0x00\n        /* \"#utility.yul\":12751:12818   */\n      tag_473\n        /* \"#utility.yul\":12815:12817   */\n      0x1a\n        /* \"#utility.yul\":12810:12813   */\n      dup4\n        /* \"#utility.yul\":12751:12818   */\n      tag_308\n      jump\t// in\n    tag_473:\n        /* \"#utility.yul\":12744:12818   */\n      swap2\n      pop\n        /* \"#utility.yul\":12827:12920   */\n      tag_474\n        /* \"#utility.yul\":12916:12919   */\n      dup3\n        /* \"#utility.yul\":12827:12920   */\n      tag_309\n      jump\t// in\n    tag_474:\n        /* \"#utility.yul\":12945:12947   */\n      0x20\n        /* \"#utility.yul\":12940:12943   */\n      dup3\n        /* \"#utility.yul\":12936:12948   */\n      add\n        /* \"#utility.yul\":12929:12948   */\n      swap1\n      pop\n        /* \"#utility.yul\":12588:12954   */\n      swap2\n      swap1\n      pop\n      jump\t// out\n        /* \"#utility.yul\":12960:13379   */\n    tag_89:\n        /* \"#utility.yul\":13126:13130   */\n      0x00\n        /* \"#utility.yul\":13164:13166   */\n      0x20\n        /* \"#utility.yul\":13153:13162   */\n      dup3\n        /* \"#utility.yul\":13149:13167   */\n      add\n        /* \"#utility.yul\":13141:13167   */\n      swap1\n      pop\n        /* \"#utility.yul\":13213:13222   */\n      dup2\n        /* \"#utility.yul\":13207:13211   */\n      dup2\n        /* \"#utility.yul\":13203:13223   */\n      sub\n        /* \"#utility.yul\":13199:13200   */\n      0x00\n        /* \"#utility.yul\":13188:13197   */\n      dup4\n        /* \"#utility.yul\":13184:13201   */\n      add\n        /* \"#utility.yul\":13177:13224   */\n      mstore\n        /* \"#utility.yul\":13241:13372   */\n      tag_476\n        /* \"#utility.yul\":13367:13371   */\n      dup2\n        /* \"#utility.yul\":13241:13372   */\n      tag_310\n      jump\t// in\n    tag_476:\n        /* \"#utility.yul\":13233:13372   */\n      swap1\n      pop\n        /* \"#utility.yul\":12960:13379   */\n      swap2\n      swap1\n      pop\n      jump\t// out\n        /* \"#utility.yul\":13385:13558   */\n    tag_311:\n        /* \"#utility.yul\":13525:13550   */\n      0x50726f706f73616c20646f6573206e6f74206578697374000000000000000000\n        /* \"#utility.yul\":13521:13522   */\n      0x00\n        /* \"#utility.yul\":13513:13519   */\n      dup3\n        /* \"#utility.yul\":13509:13523   */\n      add\n        /* \"#utility.yul\":13502:13551   */\n      mstore\n        /* \"#utility.yul\":13385:13558   */\n      pop\n      jump\t// out\n        /* \"#utility.yul\":13564:13930   */\n    tag_312:\n        /* \"#utility.yul\":13706:13709   */\n      0x00\n        /* \"#utility.yul\":13727:13794   */\n      tag_479\n        /* \"#utility.yul\":13791:13793   */\n      0x17\n        /* \"#utility.yul\":13786:13789   */\n      dup4\n        /* \"#utility.yul\":13727:13794   */\n      tag_308\n      jump\t// in\n    tag_479:\n        /* \"#utility.yul\":13720:13794   */\n      swap2\n      pop\n        /* \"#utility.yul\":13803:13896   */\n      tag_480\n        /* \"#utility.yul\":13892:13895   */\n      dup3\n        /* \"#utility.yul\":13803:13896   */\n      tag_311\n      jump\t// in\n    tag_480:\n        /* \"#utility.yul\":13921:13923   */\n      0x20\n        /* \"#utility.yul\":13916:13919   */\n      dup3\n        /* \"#utility.yul\":13912:13924   */\n      add\n        /* \"#utility.yul\":13905:13924   */\n      swap1\n      pop\n        /* \"#utility.yul\":13564:13930   */\n      swap2\n      swap1\n      pop\n      jump\t// out\n        /* \"#utility.yul\":13936:14355   */\n    tag_92:\n        /* \"#utility.yul\":14102:14106   */\n      0x00\n        /* \"#utility.yul\":14140:14142   */\n      0x20\n        /* \"#utility.yul\":14129:14138   */\n      dup3\n        /* \"#utility.yul\":14125:14143   */\n      add\n        /* \"#utility.yul\":14117:14143   */\n      swap1\n      pop\n        /* \"#utility.yul\":14189:14198   */\n      dup2\n        /* \"#utility.yul\":14183:14187   */\n      dup2\n        /* \"#utility.yul\":14179:14199   */\n      sub\n        /* \"#utility.yul\":14175:14176   */\n      0x00\n        /* \"#utility.yul\":14164:14173   */\n      dup4\n        /* \"#utility.yul\":14160:14177   */\n      add\n        /* \"#utility.yul\":14153:14200   */\n      mstore\n        /* \"#utility.yul\":14217:14348   */\n      tag_482\n        /* \"#utility.yul\":14343:14347   */\n      dup2\n        /* \"#utility.yul\":14217:14348   */\n      tag_312\n      jump\t// in\n    tag_482:\n        /* \"#utility.yul\":14209:14348   */\n      swap1\n      pop\n        /* \"#utility.yul\":13936:14355   */\n      swap2\n      swap1\n      pop\n      jump\t// out\n        /* \"#utility.yul\":14361:14533   */\n    tag_313:\n        /* \"#utility.yul\":14501:14525   */\n      0x596f7520617265206e6f74207265676973746572656400000000000000000000\n        /* \"#utility.yul\":14497:14498   */\n      0x00\n        /* \"#utility.yul\":14489:14495   */\n      dup3\n        /* \"#utility.yul\":14485:14499   */\n      add\n        /* \"#utility.yul\":14478:14526   */\n      mstore\n        /* \"#utility.yul\":14361:14533   */\n      pop\n      jump\t// out\n        /* \"#utility.yul\":14539:14905   */\n    tag_314:\n        /* \"#utility.yul\":14681:14684   */\n      0x00\n        /* \"#utility.yul\":14702:14769   */\n      tag_485\n        /* \"#utility.yul\":14766:14768   */\n      0x16\n        /* \"#utility.yul\":14761:14764   */\n      dup4\n        /* \"#utility.yul\":14702:14769   */\n      tag_308\n      jump\t// in\n    tag_485:\n        /* \"#utility.yul\":14695:14769   */\n      swap2\n      pop\n        /* \"#utility.yul\":14778:14871   */\n      tag_486\n        /* \"#utility.yul\":14867:14870   */\n      dup3\n        /* \"#utility.yul\":14778:14871   */\n      tag_313\n      jump\t// in\n    tag_486:\n        /* \"#utility.yul\":14896:14898   */\n      0x20\n        /* \"#utility.yul\":14891:14894   */\n      dup3\n        /* \"#utility.yul\":14887:14899   */\n      add\n        /* \"#utility.yul\":14880:14899   */\n      swap1\n      pop\n        /* \"#utility.yul\":14539:14905   */\n      swap2\n      swap1\n      pop\n      jump\t// out\n        /* \"#utility.yul\":14911:15330   */\n    tag_95:\n        /* \"#utility.yul\":15077:15081   */\n      0x00\n        /* \"#utility.yul\":15115:15117   */\n      0x20\n        /* \"#utility.yul\":15104:15113   */\n      dup3\n        /* \"#utility.yul\":15100:15118   */\n      add\n        /* \"#utility.yul\":15092:15118   */\n      swap1\n      pop\n        /* \"#utility.yul\":15164:15173   */\n      dup2\n        /* \"#utility.yul\":15158:15162   */\n      dup2\n        /* \"#utility.yul\":15154:15174   */\n      sub\n        /* \"#utility.yul\":15150:15151   */\n      0x00\n        /* \"#utility.yul\":15139:15148   */\n      dup4\n        /* \"#utility.yul\":15135:15152   */\n      add\n        /* \"#utility.yul\":15128:15175   */\n      mstore\n        /* \"#utility.yul\":15192:15323   */\n      tag_488\n        /* \"#utility.yul\":15318:15322   */\n      dup2\n        /* \"#utility.yul\":15192:15323   */\n      tag_314\n      jump\t// in\n    tag_488:\n        /* \"#utility.yul\":15184:15323   */\n      swap1\n      pop\n        /* \"#utility.yul\":14911:15330   */\n      swap2\n      swap1\n      pop\n      jump\t// out\n        /* \"#utility.yul\":15336:15508   */\n    tag_315:\n        /* \"#utility.yul\":15476:15500   */\n      0x596f75206861766520616c726561647920766f74656400000000000000000000\n        /* \"#utility.yul\":15472:15473   */\n      0x00\n        /* \"#utility.yul\":15464:15470   */\n      dup3\n        /* \"#utility.yul\":15460:15474   */\n      add\n        /* \"#utility.yul\":15453:15501   */\n      mstore\n        /* \"#utility.yul\":15336:15508   */\n      pop\n      jump\t// out\n        /* \"#utility.yul\":15514:15880   */\n    tag_316:\n        /* \"#utility.yul\":15656:15659   */\n      0x00\n        /* \"#utility.yul\":15677:15744   */\n      tag_491\n        /* \"#utility.yul\":15741:15743   */\n      0x16\n        /* \"#utility.yul\":15736:15739   */\n      dup4\n        /* \"#utility.yul\":15677:15744   */\n      tag_308\n      jump\t// in\n    tag_491:\n        /* \"#utility.yul\":15670:15744   */\n      swap2\n      pop\n        /* \"#utility.yul\":15753:15846   */\n      tag_492\n        /* \"#utility.yul\":15842:15845   */\n      dup3\n        /* \"#utility.yul\":15753:15846   */\n      tag_315\n      jump\t// in\n    tag_492:\n        /* \"#utility.yul\":15871:15873   */\n      0x20\n        /* \"#utility.yul\":15866:15869   */\n      dup3\n        /* \"#utility.yul\":15862:15874   */\n      add\n        /* \"#utility.yul\":15855:15874   */\n      swap1\n      pop\n        /* \"#utility.yul\":15514:15880   */\n      swap2\n      swap1\n      pop\n      jump\t// out\n        /* \"#utility.yul\":15886:16305   */\n    tag_98:\n        /* \"#utility.yul\":16052:16056   */\n      0x00\n        /* \"#utility.yul\":16090:16092   */\n      0x20\n        /* \"#utility.yul\":16079:16088   */\n      dup3\n        /* \"#utility.yul\":16075:16093   */\n      add\n        /* \"#utility.yul\":16067:16093   */\n      swap1\n      pop\n        /* \"#utility.yul\":16139:16148   */\n      dup2\n        /* \"#utility.yul\":16133:16137   */\n      dup2\n        /* \"#utility.yul\":16129:16149   */\n      sub\n        /* \"#utility.yul\":16125:16126   */\n      0x00\n        /* \"#utility.yul\":16114:16123   */\n      dup4\n        /* \"#utility.yul\":16110:16127   */\n      add\n        /* \"#utility.yul\":16103:16150   */\n      mstore\n        /* \"#utility.yul\":16167:16298   */\n      tag_494\n        /* \"#utility.yul\":16293:16297   */\n      dup2\n        /* \"#utility.yul\":16167:16298   */\n      tag_316\n      jump\t// in\n    tag_494:\n        /* \"#utility.yul\":16159:16298   */\n      swap1\n      pop\n        /* \"#utility.yul\":15886:16305   */\n      swap2\n      swap1\n      pop\n      jump\t// out\n        /* \"#utility.yul\":16311:16491   */\n    tag_101:\n        /* \"#utility.yul\":16359:16436   */\n      0x4e487b7100000000000000000000000000000000000000000000000000000000\n        /* \"#utility.yul\":16356:16357   */\n      0x00\n        /* \"#utility.yul\":16349:16437   */\n      mstore\n        /* \"#utility.yul\":16456:16460   */\n      0x32\n        /* \"#utility.yul\":16453:16454   */\n      0x04\n        /* \"#utility.yul\":16446:16461   */\n      mstore\n        /* \"#utility.yul\":16480:16484   */\n      0x24\n        /* \"#utility.yul\":16477:16478   */\n      0x00\n        /* \"#utility.yul\":16470:16485   */\n      revert\n        /* \"#utility.yul\":16497:16677   */\n    tag_317:\n        /* \"#utility.yul\":16545:16622   */\n      0x4e487b7100000000000000000000000000000000000000000000000000000000\n        /* \"#utility.yul\":16542:16543   */\n      0x00\n        /* \"#utility.yul\":16535:16623   */\n      mstore\n        /* \"#utility.yul\":16642:16646   */\n      0x11\n        /* \"#utility.yul\":16639:16640   */\n      0x04\n        /* \"#utility.yul\":16632:16647   */\n      mstore\n        /* \"#utility.yul\":16666:16670   */\n      0x24\n        /* \"#utility.yul\":16663:16664   */\n      0x00\n        /* \"#utility.yul\":16656:16671   */\n      revert\n        /* \"#utility.yul\":16683:16916   */\n    tag_104:\n        /* \"#utility.yul\":16722:16725   */\n      0x00\n        /* \"#utility.yul\":16745:16769   */\n      tag_498\n        /* \"#utility.yul\":16763:16768   */\n      dup3\n        /* \"#utility.yul\":16745:16769   */\n      tag_274\n      jump\t// in\n    tag_498:\n        /* \"#utility.yul\":16736:16769   */\n      swap2\n      pop\n        /* \"#utility.yul\":16791:16857   */\n      0xffffffffffffffffffffffffffffffffffffffffffffffffffffffffffffffff\n        /* \"#utility.yul\":16784:16789   */\n      dup3\n        /* \"#utility.yul\":16781:16858   */\n      sub\n        /* \"#utility.yul\":16778:16881   */\n      tag_499\n      jumpi\n        /* \"#utility.yul\":16861:16879   */\n      tag_500\n      tag_317\n      jump\t// in\n    tag_500:\n        /* \"#utility.yul\":16778:16881   */\n    tag_499:\n        /* \"#utility.yul\":16908:16909   */\n      0x01\n        /* \"#utility.yul\":16901:16906   */\n      dup3\n        /* \"#utility.yul\":16897:16910   */\n      add\n        /* \"#utility.yul\":16890:16910   */\n      swap1\n      pop\n        /* \"#utility.yul\":16683:16916   */\n      swap2\n      swap1\n      pop\n      jump\t// out\n        /* \"#utility.yul\":16922:17364   */\n    tag_106:\n        /* \"#utility.yul\":17071:17075   */\n      0x00\n        /* \"#utility.yul\":17109:17111   */\n      0x60\n        /* \"#utility.yul\":17098:17107   */\n      dup3\n        /* \"#utility.yul\":17094:17112   */\n      add\n        /* \"#utility.yul\":17086:17112   */\n      swap1\n      pop\n        /* \"#utility.yul\":17122:17193   */\n      tag_502\n        /* \"#utility.yul\":17190:17191   */\n      0x00\n        /* \"#utility.yul\":17179:17188   */\n      dup4\n        /* \"#utility.yul\":17175:17192   */\n      add\n        /* \"#utility.yul\":17166:17172   */\n      dup7\n        /* \"#utility.yul\":17122:17193   */\n      tag_291\n      jump\t// in\n    tag_502:\n        /* \"#utility.yul\":17203:17275   */\n      tag_503\n        /* \"#utility.yul\":17271:17273   */\n      0x20\n        /* \"#utility.yul\":17260:17269   */\n      dup4\n        /* \"#utility.yul\":17256:17274   */\n      add\n        /* \"#utility.yul\":17247:17253   */\n      dup6\n        /* \"#utility.yul\":17203:17275   */\n      tag_300\n      jump\t// in\n    tag_503:\n        /* \"#utility.yul\":17285:17357   */\n      tag_504\n        /* \"#utility.yul\":17353:17355   */\n      0x40\n        /* \"#utility.yul\":17342:17351   */\n      dup4\n        /* \"#utility.yul\":17338:17356   */\n      add\n        /* \"#utility.yul\":17329:17335   */\n      dup5\n        /* \"#utility.yul\":17285:17357   */\n      tag_291\n      jump\t// in\n    tag_504:\n        /* \"#utility.yul\":16922:17364   */\n      swap5\n      swap4\n      pop\n      pop\n      pop\n      pop\n      jump\t// out\n        /* \"#utility.yul\":17370:17544   */\n    tag_318:\n        /* \"#utility.yul\":17510:17536   */\n      0x526567697374726174696f6e206e6f7420737461727465640000000000000000\n        /* \"#utility.yul\":17506:17507   */\n      0x00\n        /* \"#utility.yul\":17498:17504   */\n      dup3\n        /* \"#utility.yul\":17494:17508   */\n      add\n        /* \"#utility.yul\":17487:17537   */\n      mstore\n        /* \"#utility.yul\":17370:17544   */\n      pop\n      jump\t// out\n        /* \"#utility.yul\":17550:17916   */\n    tag_319:\n        /* \"#utility.yul\":17692:17695   */\n      0x00\n        /* \"#utility.yul\":17713:17780   */\n      tag_507\n        /* \"#utility.yul\":17777:17779   */\n      0x18\n        /* \"#utility.yul\":17772:17775   */\n      dup4\n        /* \"#utility.yul\":17713:17780   */\n      tag_308\n      jump\t// in\n    tag_507:\n        /* \"#utility.yul\":17706:17780   */\n      swap2\n      pop\n        /* \"#utility.yul\":17789:17882   */\n      tag_508\n        /* \"#utility.yul\":17878:17881   */\n      dup3\n        /* \"#utility.yul\":17789:17882   */\n      tag_318\n      jump\t// in\n    tag_508:\n        /* \"#utility.yul\":17907:17909   */\n      0x20\n        /* \"#utility.yul\":17902:17905   */\n      dup3\n        /* \"#utility.yul\":17898:17910   */\n      add\n        /* \"#utility.yul\":17891:17910   */\n      swap1\n      pop\n        /* \"#utility.yul\":17550:17916   */\n      swap2\n      swap1\n      pop\n      jump\t// out\n        /* \"#utility.yul\":17922:18341   */\n    tag_117:\n        /* \"#utility.yul\":18088:18092   */\n      0x00\n        /* \"#utility.yul\":18126:18128   */\n      0x20\n        /* \"#utility.yul\":18115:18124   */\n      dup3\n        /* \"#utility.yul\":18111:18129   */\n      add\n        /* \"#utility.yul\":18103:18129   */\n      swap1\n      pop\n        /* \"#utility.yul\":18175:18184   */\n      dup2\n        /* \"#utility.yul\":18169:18173   */\n      dup2\n        /* \"#utility.yul\":18165:18185   */\n      sub\n        /* \"#utility.yul\":18161:18162   */\n      0x00\n        /* \"#utility.yul\":18150:18159   */\n      dup4\n        /* \"#utility.yul\":18146:18163   */\n      add\n        /* \"#utility.yul\":18139:18186   */\n      mstore\n        /* \"#utility.yul\":18203:18334   */\n      tag_510\n        /* \"#utility.yul\":18329:18333   */\n      dup2\n        /* \"#utility.yul\":18203:18334   */\n      tag_319\n      jump\t// in\n    tag_510:\n        /* \"#utility.yul\":18195:18334   */\n      swap1\n      pop\n        /* \"#utility.yul\":17922:18341   */\n      swap2\n      swap1\n      pop\n      jump\t// out\n        /* \"#utility.yul\":18347:18521   */\n    tag_320:\n        /* \"#utility.yul\":18487:18513   */\n      0x566f74657220616c726561647920726567697374657265640000000000000000\n        /* \"#utility.yul\":18483:18484   */\n      0x00\n        /* \"#utility.yul\":18475:18481   */\n      dup3\n        /* \"#utility.yul\":18471:18485   */\n      add\n        /* \"#utility.yul\":18464:18514   */\n      mstore\n        /* \"#utility.yul\":18347:18521   */\n      pop\n      jump\t// out\n        /* \"#utility.yul\":18527:18893   */\n    tag_321:\n        /* \"#utility.yul\":18669:18672   */\n      0x00\n        /* \"#utility.yul\":18690:18757   */\n      tag_513\n        /* \"#utility.yul\":18754:18756   */\n      0x18\n        /* \"#utility.yul\":18749:18752   */\n      dup4\n        /* \"#utility.yul\":18690:18757   */\n      tag_308\n      jump\t// in\n    tag_513:\n        /* \"#utility.yul\":18683:18757   */\n      swap2\n      pop\n        /* \"#utility.yul\":18766:18859   */\n      tag_514\n        /* \"#utility.yul\":18855:18858   */\n      dup3\n        /* \"#utility.yul\":18766:18859   */\n      tag_320\n      jump\t// in\n    tag_514:\n        /* \"#utility.yul\":18884:18886   */\n      0x20\n        /* \"#utility.yul\":18879:18882   */\n      dup3\n        /* \"#utility.yul\":18875:18887   */\n      add\n        /* \"#utility.yul\":18868:18887   */\n      swap1\n      pop\n        /* \"#utility.yul\":18527:18893   */\n      swap2\n      swap1\n      pop\n      jump\t// out\n        /* \"#utility.yul\":18899:19318   */\n    tag_120:\n        /* \"#utility.yul\":19065:19069   */\n      0x00\n        /* \"#utility.yul\":19103:19105   */\n      0x20\n        /* \"#utility.yul\":19092:19101   */\n      dup3\n        /* \"#utility.yul\":19088:19106   */\n      add\n        /* \"#utility.yul\":19080:19106   */\n      swap1\n      pop\n        /* \"#utility.yul\":19152:19161   */\n      dup2\n        /* \"#utility.yul\":19146:19150   */\n      dup2\n        /* \"#utility.yul\":19142:19162   */\n      sub\n        /* \"#utility.yul\":19138:19139   */\n      0x00\n        /* \"#utility.yul\":19127:19136   */\n      dup4\n        /* \"#utility.yul\":19123:19140   */\n      add\n        /* \"#utility.yul\":19116:19163   */\n      mstore\n        /* \"#utility.yul\":19180:19311   */\n      tag_516\n        /* \"#utility.yul\":19306:19310   */\n      dup2\n        /* \"#utility.yul\":19180:19311   */\n      tag_321\n      jump\t// in\n    tag_516:\n        /* \"#utility.yul\":19172:19311   */\n      swap1\n      pop\n        /* \"#utility.yul\":18899:19318   */\n      swap2\n      swap1\n      pop\n      jump\t// out\n        /* \"#utility.yul\":19324:19656   */\n    tag_122:\n        /* \"#utility.yul\":19445:19449   */\n      0x00\n        /* \"#utility.yul\":19483:19485   */\n      0x40\n        /* \"#utility.yul\":19472:19481   */\n      dup3\n        /* \"#utility.yul\":19468:19486   */\n      add\n        /* \"#utility.yul\":19460:19486   */\n      swap1\n      pop\n        /* \"#utility.yul\":19496:19567   */\n      tag_518\n        /* \"#utility.yul\":19564:19565   */\n      0x00\n        /* \"#utility.yul\":19553:19562   */\n      dup4\n        /* \"#utility.yul\":19549:19566   */\n      add\n        /* \"#utility.yul\":19540:19546   */\n      dup6\n        /* \"#utility.yul\":19496:19567   */\n      tag_291\n      jump\t// in\n    tag_518:\n        /* \"#utility.yul\":19577:19649   */\n      tag_519\n        /* \"#utility.yul\":19645:19647   */\n      0x20\n        /* \"#utility.yul\":19634:19643   */\n      dup4\n        /* \"#utility.yul\":19630:19648   */\n      add\n        /* \"#utility.yul\":19621:19627   */\n      dup5\n        /* \"#utility.yul\":19577:19649   */\n      tag_300\n      jump\t// in\n    tag_519:\n        /* \"#utility.yul\":19324:19656   */\n      swap4\n      swap3\n      pop\n      pop\n      pop\n      jump\t// out\n        /* \"#utility.yul\":19662:19785   */\n    tag_322:\n        /* \"#utility.yul\":19753:19754   */\n      0x06\n        /* \"#utility.yul\":19746:19751   */\n      dup2\n        /* \"#utility.yul\":19743:19755   */\n      lt\n        /* \"#utility.yul\":19733:19779   */\n      tag_521\n      jumpi\n        /* \"#utility.yul\":19759:19777   */\n      tag_522\n      tag_84\n      jump\t// in\n    tag_522:\n        /* \"#utility.yul\":19733:19779   */\n    tag_521:\n        /* \"#utility.yul\":19662:19785   */\n      pop\n      jump\t// out\n        /* \"#utility.yul\":19791:19938   */\n    tag_323:\n        /* \"#utility.yul\":19846:19853   */\n      0x00\n        /* \"#utility.yul\":19875:19880   */\n      dup2\n        /* \"#utility.yul\":19864:19880   */\n      swap1\n      pop\n        /* \"#utility.yul\":19881:19932   */\n      tag_524\n        /* \"#utility.yul\":19926:19931   */\n      dup3\n        /* \"#utility.yul\":19881:19932   */\n      tag_322\n      jump\t// in\n    tag_524:\n        /* \"#utility.yul\":19791:19938   */\n      swap2\n      swap1\n      pop\n      jump\t// out\n        /* \"#utility.yul\":19944:20091   */\n    tag_324:\n        /* \"#utility.yul\":20010:20019   */\n      0x00\n        /* \"#utility.yul\":20043:20085   */\n      tag_526\n        /* \"#utility.yul\":20079:20084   */\n      dup3\n        /* \"#utility.yul\":20043:20085   */\n      tag_323\n      jump\t// in\n    tag_526:\n        /* \"#utility.yul\":20030:20085   */\n      swap1\n      pop\n        /* \"#utility.yul\":19944:20091   */\n      swap2\n      swap1\n      pop\n      jump\t// out\n        /* \"#utility.yul\":20097:20260   */\n    tag_325:\n        /* \"#utility.yul\":20200:20253   */\n      tag_528\n        /* \"#utility.yul\":20247:20252   */\n      dup2\n        /* \"#utility.yul\":20200:20253   */\n      tag_324\n      jump\t// in\n    tag_528:\n        /* \"#utility.yul\":20195:20198   */\n      dup3\n        /* \"#utility.yul\":20188:20254   */\n      mstore\n        /* \"#utility.yul\":20097:20260   */\n      pop\n      pop\n      jump\t// out\n        /* \"#utility.yul\":20266:20772   */\n    tag_135:\n        /* \"#utility.yul\":20447:20451   */\n      0x00\n        /* \"#utility.yul\":20485:20487   */\n      0x60\n        /* \"#utility.yul\":20474:20483   */\n      dup3\n        /* \"#utility.yul\":20470:20488   */\n      add\n        /* \"#utility.yul\":20462:20488   */\n      swap1\n      pop\n        /* \"#utility.yul\":20498:20569   */\n      tag_530\n        /* \"#utility.yul\":20566:20567   */\n      0x00\n        /* \"#utility.yul\":20555:20564   */\n      dup4\n        /* \"#utility.yul\":20551:20568   */\n      add\n        /* \"#utility.yul\":20542:20548   */\n      dup7\n        /* \"#utility.yul\":20498:20569   */\n      tag_291\n      jump\t// in\n    tag_530:\n        /* \"#utility.yul\":20579:20667   */\n      tag_531\n        /* \"#utility.yul\":20663:20665   */\n      0x20\n        /* \"#utility.yul\":20652:20661   */\n      dup4\n        /* \"#utility.yul\":20648:20666   */\n      add\n        /* \"#utility.yul\":20639:20645   */\n      dup6\n        /* \"#utility.yul\":20579:20667   */\n      tag_325\n      jump\t// in\n    tag_531:\n        /* \"#utility.yul\":20677:20765   */\n      tag_532\n        /* \"#utility.yul\":20761:20763   */\n      0x40\n        /* \"#utility.yul\":20750:20759   */\n      dup4\n        /* \"#utility.yul\":20746:20764   */\n      add\n        /* \"#utility.yul\":20737:20743   */\n      dup5\n        /* \"#utility.yul\":20677:20765   */\n      tag_325\n      jump\t// in\n    tag_532:\n        /* \"#utility.yul\":20266:20772   */\n      swap5\n      swap4\n      pop\n      pop\n      pop\n      pop\n      jump\t// out\n        /* \"#utility.yul\":20778:20999   */\n    tag_326:\n        /* \"#utility.yul\":20918:20952   */\n      0x50726f706f73616c7320726567697374726174696f6e206e6f74207374617274\n        /* \"#utility.yul\":20914:20915   */\n      0x00\n        /* \"#utility.yul\":20906:20912   */\n      dup3\n        /* \"#utility.yul\":20902:20916   */\n      add\n        /* \"#utility.yul\":20895:20953   */\n      mstore\n        /* \"#utility.yul\":20987:20991   */\n      0x6564000000000000000000000000000000000000000000000000000000000000\n        /* \"#utility.yul\":20982:20984   */\n      0x20\n        /* \"#utility.yul\":20974:20980   */\n      dup3\n        /* \"#utility.yul\":20970:20985   */\n      add\n        /* \"#utility.yul\":20963:20992   */\n      mstore\n        /* \"#utility.yul\":20778:20999   */\n      pop\n      jump\t// out\n        /* \"#utility.yul\":21005:21371   */\n    tag_327:\n        /* \"#utility.yul\":21147:21150   */\n      0x00\n        /* \"#utility.yul\":21168:21235   */\n      tag_535\n        /* \"#utility.yul\":21232:21234   */\n      0x22\n        /* \"#utility.yul\":21227:21230   */\n      dup4\n        /* \"#utility.yul\":21168:21235   */\n      tag_308\n      jump\t// in\n    tag_535:\n        /* \"#utility.yul\":21161:21235   */\n      swap2\n      pop\n        /* \"#utility.yul\":21244:21337   */\n      tag_536\n        /* \"#utility.yul\":21333:21336   */\n      dup3\n        /* \"#utility.yul\":21244:21337   */\n      tag_326\n      jump\t// in\n    tag_536:\n        /* \"#utility.yul\":21362:21364   */\n      0x40\n        /* \"#utility.yul\":21357:21360   */\n      dup3\n        /* \"#utility.yul\":21353:21365   */\n      add\n        /* \"#utility.yul\":21346:21365   */\n      swap1\n      pop\n        /* \"#utility.yul\":21005:21371   */\n      swap2\n      swap1\n      pop\n      jump\t// out\n        /* \"#utility.yul\":21377:21796   */\n    tag_143:\n        /* \"#utility.yul\":21543:21547   */\n      0x00\n        /* \"#utility.yul\":21581:21583   */\n      0x20\n        /* \"#utility.yul\":21570:21579   */\n      dup3\n        /* \"#utility.yul\":21566:21584   */\n      add\n        /* \"#utility.yul\":21558:21584   */\n      swap1\n      pop\n        /* \"#utility.yul\":21630:21639   */\n      dup2\n        /* \"#utility.yul\":21624:21628   */\n      dup2\n        /* \"#utility.yul\":21620:21640   */\n      sub\n        /* \"#utility.yul\":21616:21617   */\n      0x00\n        /* \"#utility.yul\":21605:21614   */\n      dup4\n        /* \"#utility.yul\":21601:21618   */\n      add\n        /* \"#utility.yul\":21594:21641   */\n      mstore\n        /* \"#utility.yul\":21658:21789   */\n      tag_538\n        /* \"#utility.yul\":21784:21788   */\n      dup2\n        /* \"#utility.yul\":21658:21789   */\n      tag_327\n      jump\t// in\n    tag_538:\n        /* \"#utility.yul\":21650:21789   */\n      swap1\n      pop\n        /* \"#utility.yul\":21377:21796   */\n      swap2\n      swap1\n      pop\n      jump\t// out\n        /* \"#utility.yul\":21802:21975   */\n    tag_328:\n        /* \"#utility.yul\":21942:21967   */\n      0x596f7520617265206e6f742077686974656c6973746564000000000000000000\n        /* \"#utility.yul\":21938:21939   */\n      0x00\n        /* \"#utility.yul\":21930:21936   */\n      dup3\n        /* \"#utility.yul\":21926:21940   */\n      add\n        /* \"#utility.yul\":21919:21968   */\n      mstore\n        /* \"#utility.yul\":21802:21975   */\n      pop\n      jump\t// out\n        /* \"#utility.yul\":21981:22347   */\n    tag_329:\n        /* \"#utility.yul\":22123:22126   */\n      0x00\n        /* \"#utility.yul\":22144:22211   */\n      tag_541\n        /* \"#utility.yul\":22208:22210   */\n      0x17\n        /* \"#utility.yul\":22203:22206   */\n      dup4\n        /* \"#utility.yul\":22144:22211   */\n      tag_308\n      jump\t// in\n    tag_541:\n        /* \"#utility.yul\":22137:22211   */\n      swap2\n      pop\n        /* \"#utility.yul\":22220:22313   */\n      tag_542\n        /* \"#utility.yul\":22309:22312   */\n      dup3\n        /* \"#utility.yul\":22220:22313   */\n      tag_328\n      jump\t// in\n    tag_542:\n        /* \"#utility.yul\":22338:22340   */\n      0x20\n        /* \"#utility.yul\":22333:22336   */\n      dup3\n        /* \"#utility.yul\":22329:22341   */\n      add\n        /* \"#utility.yul\":22322:22341   */\n      swap1\n      pop\n        /* \"#utility.yul\":21981:22347   */\n      swap2\n      swap1\n      pop\n      jump\t// out\n        /* \"#utility.yul\":22353:22772   */\n    tag_146:\n        /* \"#utility.yul\":22519:22523   */\n      0x00\n        /* \"#utility.yul\":22557:22559   */\n      0x20\n        /* \"#utility.yul\":22546:22555   */\n      dup3\n        /* \"#utility.yul\":22542:22560   */\n      add\n        /* \"#utility.yul\":22534:22560   */\n      swap1\n      pop\n        /* \"#utility.yul\":22606:22615   */\n      dup2\n        /* \"#utility.yul\":22600:22604   */\n      dup2\n        /* \"#utility.yul\":22596:22616   */\n      sub\n        /* \"#utility.yul\":22592:22593   */\n      0x00\n        /* \"#utility.yul\":22581:22590   */\n      dup4\n        /* \"#utility.yul\":22577:22594   */\n      add\n        /* \"#utility.yul\":22570:22617   */\n      mstore\n        /* \"#utility.yul\":22634:22765   */\n      tag_544\n        /* \"#utility.yul\":22760:22764   */\n      dup2\n        /* \"#utility.yul\":22634:22765   */\n      tag_329\n      jump\t// in\n    tag_544:\n        /* \"#utility.yul\":22626:22765   */\n      swap1\n      pop\n        /* \"#utility.yul\":22353:22772   */\n      swap2\n      swap1\n      pop\n      jump\t// out\n        /* \"#utility.yul\":22778:22958   */\n    tag_330:\n        /* \"#utility.yul\":22826:22903   */\n      0x4e487b7100000000000000000000000000000000000000000000000000000000\n        /* \"#utility.yul\":22823:22824   */\n      0x00\n        /* \"#utility.yul\":22816:22904   */\n      mstore\n        /* \"#utility.yul\":22923:22927   */\n      0x22\n        /* \"#utility.yul\":22920:22921   */\n      0x04\n        /* \"#utility.yul\":22913:22928   */\n      mstore\n        /* \"#utility.yul\":22947:22951   */\n      0x24\n        /* \"#utility.yul\":22944:22945   */\n      0x00\n        /* \"#utility.yul\":22937:22952   */\n      revert\n        /* \"#utility.yul\":22964:23284   */\n    tag_174:\n        /* \"#utility.yul\":23008:23014   */\n      0x00\n        /* \"#utility.yul\":23045:23046   */\n      0x02\n        /* \"#utility.yul\":23039:23043   */\n      dup3\n        /* \"#utility.yul\":23035:23047   */\n      div\n        /* \"#utility.yul\":23025:23047   */\n      swap1\n      pop\n        /* \"#utility.yul\":23092:23093   */\n      0x01\n        /* \"#utility.yul\":23086:23090   */\n      dup3\n        /* \"#utility.yul\":23082:23094   */\n      and\n        /* \"#utility.yul\":23113:23131   */\n      dup1\n        /* \"#utility.yul\":23103:23184   */\n      tag_547\n      jumpi\n        /* \"#utility.yul\":23169:23173   */\n      0x7f\n        /* \"#utility.yul\":23161:23167   */\n      dup3\n        /* \"#utility.yul\":23157:23174   */\n      and\n        /* \"#utility.yul\":23147:23174   */\n      swap2\n      pop\n        /* \"#utility.yul\":23103:23184   */\n    tag_547:\n        /* \"#utility.yul\":23231:23233   */\n      0x20\n        /* \"#utility.yul\":23223:23229   */\n      dup3\n        /* \"#utility.yul\":23220:23234   */\n      lt\n        /* \"#utility.yul\":23200:23218   */\n      dup2\n        /* \"#utility.yul\":23197:23235   */\n      sub\n        /* \"#utility.yul\":23194:23278   */\n      tag_548\n      jumpi\n        /* \"#utility.yul\":23250:23268   */\n      tag_549\n      tag_330\n      jump\t// in\n    tag_549:\n        /* \"#utility.yul\":23194:23278   */\n    tag_548:\n        /* \"#utility.yul\":23015:23284   */\n      pop\n        /* \"#utility.yul\":22964:23284   */\n      swap2\n      swap1\n      pop\n      jump\t// out\n        /* \"#utility.yul\":23290:23431   */\n    tag_331:\n        /* \"#utility.yul\":23339:23343   */\n      0x00\n        /* \"#utility.yul\":23362:23365   */\n      dup2\n        /* \"#utility.yul\":23354:23365   */\n      swap1\n      pop\n        /* \"#utility.yul\":23385:23388   */\n      dup2\n        /* \"#utility.yul\":23382:23383   */\n      0x00\n        /* \"#utility.yul\":23375:23389   */\n      mstore\n        /* \"#utility.yul\":23419:23423   */\n      0x20\n        /* \"#utility.yul\":23416:23417   */\n      0x00\n        /* \"#utility.yul\":23406:23424   */\n      keccak256\n        /* \"#utility.yul\":23398:23424   */\n      swap1\n      pop\n        /* \"#utility.yul\":23290:23431   */\n      swap2\n      swap1\n      pop\n      jump\t// out\n        /* \"#utility.yul\":23437:23530   */\n    tag_332:\n        /* \"#utility.yul\":23474:23480   */\n      0x00\n        /* \"#utility.yul\":23521:23523   */\n      0x20\n        /* \"#utility.yul\":23516:23518   */\n      0x1f\n        /* \"#utility.yul\":23509:23514   */\n      dup4\n        /* \"#utility.yul\":23505:23519   */\n      add\n        /* \"#utility.yul\":23501:23524   */\n      div\n        /* \"#utility.yul\":23491:23524   */\n      swap1\n      pop\n        /* \"#utility.yul\":23437:23530   */\n      swap2\n      swap1\n      pop\n      jump\t// out\n        /* \"#utility.yul\":23536:23643   */\n    tag_333:\n        /* \"#utility.yul\":23580:23588   */\n      0x00\n        /* \"#utility.yul\":23630:23635   */\n      dup3\n        /* \"#utility.yul\":23624:23628   */\n      dup3\n        /* \"#utility.yul\":23620:23636   */\n      shl\n        /* \"#utility.yul\":23599:23636   */\n      swap1\n      pop\n        /* \"#utility.yul\":23536:23643   */\n      swap3\n      swap2\n      pop\n      pop\n      jump\t// out\n        /* \"#utility.yul\":23649:24042   */\n    tag_334:\n        /* \"#utility.yul\":23718:23724   */\n      0x00\n        /* \"#utility.yul\":23768:23769   */\n      0x08\n        /* \"#utility.yul\":23756:23766   */\n      dup4\n        /* \"#utility.yul\":23752:23770   */\n      mul\n        /* \"#utility.yul\":23791:23888   */\n      tag_554\n        /* \"#utility.yul\":23821:23887   */\n      0xffffffffffffffffffffffffffffffffffffffffffffffffffffffffffffffff\n        /* \"#utility.yul\":23810:23819   */\n      dup3\n        /* \"#utility.yul\":23791:23888   */\n      tag_333\n      jump\t// in\n    tag_554:\n        /* \"#utility.yul\":23909:23948   */\n      tag_555\n        /* \"#utility.yul\":23939:23947   */\n      dup7\n        /* \"#utility.yul\":23928:23937   */\n      dup4\n        /* \"#utility.yul\":23909:23948   */\n      tag_333\n      jump\t// in\n    tag_555:\n        /* \"#utility.yul\":23897:23948   */\n      swap6\n      pop\n        /* \"#utility.yul\":23981:23985   */\n      dup1\n        /* \"#utility.yul\":23977:23986   */\n      not\n        /* \"#utility.yul\":23970:23975   */\n      dup5\n        /* \"#utility.yul\":23966:23987   */\n      and\n        /* \"#utility.yul\":23957:23987   */\n      swap4\n      pop\n        /* \"#utility.yul\":24030:24034   */\n      dup1\n        /* \"#utility.yul\":24020:24028   */\n      dup7\n        /* \"#utility.yul\":24016:24035   */\n      and\n        /* \"#utility.yul\":24009:24014   */\n      dup5\n        /* \"#utility.yul\":24006:24036   */\n      or\n        /* \"#utility.yul\":23996:24036   */\n      swap3\n      pop\n        /* \"#utility.yul\":23725:24042   */\n      pop\n      pop\n        /* \"#utility.yul\":23649:24042   */\n      swap4\n      swap3\n      pop\n      pop\n      pop\n      jump\t// out\n        /* \"#utility.yul\":24048:24108   */\n    tag_335:\n        /* \"#utility.yul\":24076:24079   */\n      0x00\n        /* \"#utility.yul\":24097:24102   */\n      dup2\n        /* \"#utility.yul\":24090:24102   */\n      swap1\n      pop\n        /* \"#utility.yul\":24048:24108   */\n      swap2\n      swap1\n      pop\n      jump\t// out\n        /* \"#utility.yul\":24114:24256   */\n    tag_336:\n        /* \"#utility.yul\":24164:24173   */\n      0x00\n        /* \"#utility.yul\":24197:24250   */\n      tag_558\n        /* \"#utility.yul\":24215:24249   */\n      tag_559\n        /* \"#utility.yul\":24224:24248   */\n      tag_560\n        /* \"#utility.yul\":24242:24247   */\n      dup5\n        /* \"#utility.yul\":24224:24248   */\n      tag_274\n      jump\t// in\n    tag_560:\n        /* \"#utility.yul\":24215:24249   */\n      tag_335\n      jump\t// in\n    tag_559:\n        /* \"#utility.yul\":24197:24250   */\n      tag_274\n      jump\t// in\n    tag_558:\n        /* \"#utility.yul\":24184:24250   */\n      swap1\n      pop\n        /* \"#utility.yul\":24114:24256   */\n      swap2\n      swap1\n      pop\n      jump\t// out\n        /* \"#utility.yul\":24262:24337   */\n    tag_337:\n        /* \"#utility.yul\":24305:24308   */\n      0x00\n        /* \"#utility.yul\":24326:24331   */\n      dup2\n        /* \"#utility.yul\":24319:24331   */\n      swap1\n      pop\n        /* \"#utility.yul\":24262:24337   */\n      swap2\n      swap1\n      pop\n      jump\t// out\n        /* \"#utility.yul\":24343:24612   */\n    tag_338:\n        /* \"#utility.yul\":24453:24492   */\n      tag_563\n        /* \"#utility.yul\":24484:24491   */\n      dup4\n        /* \"#utility.yul\":24453:24492   */\n      tag_336\n      jump\t// in\n    tag_563:\n        /* \"#utility.yul\":24514:24605   */\n      tag_564\n        /* \"#utility.yul\":24563:24604   */\n      tag_565\n        /* \"#utility.yul\":24587:24603   */\n      dup3\n        /* \"#utility.yul\":24563:24604   */\n      tag_337\n      jump\t// in\n    tag_565:\n        /* \"#utility.yul\":24555:24561   */\n      dup5\n        /* \"#utility.yul\":24548:24552   */\n      dup5\n        /* \"#utility.yul\":24542:24553   */\n      sload\n        /* \"#utility.yul\":24514:24605   */\n      tag_334\n      jump\t// in\n    tag_564:\n        /* \"#utility.yul\":24508:24512   */\n      dup3\n        /* \"#utility.yul\":24501:24606   */\n      sstore\n        /* \"#utility.yul\":24419:24612   */\n      pop\n        /* \"#utility.yul\":24343:24612   */\n      pop\n      pop\n      pop\n      jump\t// out\n        /* \"#utility.yul\":24618:24691   */\n    tag_339:\n        /* \"#utility.yul\":24663:24666   */\n      0x00\n        /* \"#utility.yul\":24684:24685   */\n      0x00\n        /* \"#utility.yul\":24677:24685   */\n      swap1\n      pop\n        /* \"#utility.yul\":24618:24691   */\n      swap1\n      jump\t// out\n        /* \"#utility.yul\":24697:24886   */\n    tag_340:\n        /* \"#utility.yul\":24774:24806   */\n      tag_568\n      tag_339\n      jump\t// in\n    tag_568:\n        /* \"#utility.yul\":24815:24880   */\n      tag_569\n        /* \"#utility.yul\":24873:24879   */\n      dup2\n        /* \"#utility.yul\":24865:24871   */\n      dup5\n        /* \"#utility.yul\":24859:24863   */\n      dup5\n        /* \"#utility.yul\":24815:24880   */\n      tag_338\n      jump\t// in\n    tag_569:\n        /* \"#utility.yul\":24750:24886   */\n      pop\n        /* \"#utility.yul\":24697:24886   */\n      pop\n      pop\n      jump\t// out\n        /* \"#utility.yul\":24892:25078   */\n    tag_341:\n        /* \"#utility.yul\":24952:25072   */\n    tag_571:\n        /* \"#utility.yul\":24969:24972   */\n      dup2\n        /* \"#utility.yul\":24962:24967   */\n      dup2\n        /* \"#utility.yul\":24959:24973   */\n      lt\n        /* \"#utility.yul\":24952:25072   */\n      iszero\n      tag_573\n      jumpi\n        /* \"#utility.yul\":25023:25062   */\n      tag_574\n        /* \"#utility.yul\":25060:25061   */\n      0x00\n        /* \"#utility.yul\":25053:25058   */\n      dup3\n        /* \"#utility.yul\":25023:25062   */\n      tag_340\n      jump\t// in\n    tag_574:\n        /* \"#utility.yul\":24996:24997   */\n      0x01\n        /* \"#utility.yul\":24989:24994   */\n      dup2\n        /* \"#utility.yul\":24985:24998   */\n      add\n        /* \"#utility.yul\":24976:24998   */\n      swap1\n      pop\n        /* \"#utility.yul\":24952:25072   */\n      jump(tag_571)\n    tag_573:\n        /* \"#utility.yul\":24892:25078   */\n      pop\n      pop\n      jump\t// out\n        /* \"#utility.yul\":25084:25627   */\n    tag_342:\n        /* \"#utility.yul\":25185:25187   */\n      0x1f\n        /* \"#utility.yul\":25180:25183   */\n      dup3\n        /* \"#utility.yul\":25177:25188   */\n      gt\n        /* \"#utility.yul\":25174:25620   */\n      iszero\n      tag_576\n      jumpi\n        /* \"#utility.yul\":25219:25257   */\n      tag_577\n        /* \"#utility.yul\":25251:25256   */\n      dup2\n        /* \"#utility.yul\":25219:25257   */\n      tag_331\n      jump\t// in\n    tag_577:\n        /* \"#utility.yul\":25303:25332   */\n      tag_578\n        /* \"#utility.yul\":25321:25331   */\n      dup5\n        /* \"#utility.yul\":25303:25332   */\n      tag_332\n      jump\t// in\n    tag_578:\n        /* \"#utility.yul\":25293:25301   */\n      dup2\n        /* \"#utility.yul\":25289:25333   */\n      add\n        /* \"#utility.yul\":25486:25488   */\n      0x20\n        /* \"#utility.yul\":25474:25484   */\n      dup6\n        /* \"#utility.yul\":25471:25489   */\n      lt\n        /* \"#utility.yul\":25468:25517   */\n      iszero\n      tag_579\n      jumpi\n        /* \"#utility.yul\":25507:25515   */\n      dup2\n        /* \"#utility.yul\":25492:25515   */\n      swap1\n      pop\n        /* \"#utility.yul\":25468:25517   */\n    tag_579:\n        /* \"#utility.yul\":25530:25610   */\n      tag_580\n        /* \"#utility.yul\":25586:25608   */\n      tag_581\n        /* \"#utility.yul\":25604:25607   */\n      dup6\n        /* \"#utility.yul\":25586:25608   */\n      tag_332\n      jump\t// in\n    tag_581:\n        /* \"#utility.yul\":25576:25584   */\n      dup4\n        /* \"#utility.yul\":25572:25609   */\n      add\n        /* \"#utility.yul\":25559:25570   */\n      dup3\n        /* \"#utility.yul\":25530:25610   */\n      tag_341\n      jump\t// in\n    tag_580:\n        /* \"#utility.yul\":25189:25620   */\n      pop\n      pop\n        /* \"#utility.yul\":25174:25620   */\n    tag_576:\n        /* \"#utility.yul\":25084:25627   */\n      pop\n      pop\n      pop\n      jump\t// out\n        /* \"#utility.yul\":25633:25750   */\n    tag_343:\n        /* \"#utility.yul\":25687:25695   */\n      0x00\n        /* \"#utility.yul\":25737:25742   */\n      dup3\n        /* \"#utility.yul\":25731:25735   */\n      dup3\n        /* \"#utility.yul\":25727:25743   */\n      shr\n        /* \"#utility.yul\":25706:25743   */\n      swap1\n      pop\n        /* \"#utility.yul\":25633:25750   */\n      swap3\n      swap2\n      pop\n      pop\n      jump\t// out\n        /* \"#utility.yul\":25756:25925   */\n    tag_344:\n        /* \"#utility.yul\":25800:25806   */\n      0x00\n        /* \"#utility.yul\":25833:25884   */\n      tag_584\n        /* \"#utility.yul\":25881:25882   */\n      0x00\n        /* \"#utility.yul\":25877:25883   */\n      not\n        /* \"#utility.yul\":25869:25874   */\n      dup5\n        /* \"#utility.yul\":25866:25867   */\n      0x08\n        /* \"#utility.yul\":25862:25875   */\n      mul\n        /* \"#utility.yul\":25833:25884   */\n      tag_343\n      jump\t// in\n    tag_584:\n        /* \"#utility.yul\":25829:25885   */\n      not\n        /* \"#utility.yul\":25914:25918   */\n      dup1\n        /* \"#utility.yul\":25908:25912   */\n      dup4\n        /* \"#utility.yul\":25904:25919   */\n      and\n        /* \"#utility.yul\":25894:25919   */\n      swap2\n      pop\n        /* \"#utility.yul\":25807:25925   */\n      pop\n        /* \"#utility.yul\":25756:25925   */\n      swap3\n      swap2\n      pop\n      pop\n      jump\t// out\n        /* \"#utility.yul\":25930:26225   */\n    tag_345:\n        /* \"#utility.yul\":26006:26010   */\n      0x00\n        /* \"#utility.yul\":26152:26181   */\n      tag_586\n        /* \"#utility.yul\":26177:26180   */\n      dup4\n        /* \"#utility.yul\":26171:26175   */\n      dup4\n        /* \"#utility.yul\":26152:26181   */\n      tag_344\n      jump\t// in\n    tag_586:\n        /* \"#utility.yul\":26144:26181   */\n      swap2\n      pop\n        /* \"#utility.yul\":26214:26217   */\n      dup3\n        /* \"#utility.yul\":26211:26212   */\n      0x02\n        /* \"#utility.yul\":26207:26218   */\n      mul\n        /* \"#utility.yul\":26201:26205   */\n      dup3\n        /* \"#utility.yul\":26198:26219   */\n      or\n        /* \"#utility.yul\":26190:26219   */\n      swap1\n      pop\n        /* \"#utility.yul\":25930:26225   */\n      swap3\n      swap2\n      pop\n      pop\n      jump\t// out\n        /* \"#utility.yul\":26230:27625   */\n    tag_149:\n        /* \"#utility.yul\":26347:26384   */\n      tag_588\n        /* \"#utility.yul\":26380:26383   */\n      dup3\n        /* \"#utility.yul\":26347:26384   */\n      tag_294\n      jump\t// in\n    tag_588:\n        /* \"#utility.yul\":26449:26467   */\n      0xffffffffffffffff\n        /* \"#utility.yul\":26441:26447   */\n      dup2\n        /* \"#utility.yul\":26438:26468   */\n      gt\n        /* \"#utility.yul\":26435:26491   */\n      iszero\n      tag_589\n      jumpi\n        /* \"#utility.yul\":26471:26489   */\n      tag_590\n      tag_284\n      jump\t// in\n    tag_590:\n        /* \"#utility.yul\":26435:26491   */\n    tag_589:\n        /* \"#utility.yul\":26515:26553   */\n      tag_591\n        /* \"#utility.yul\":26547:26551   */\n      dup3\n        /* \"#utility.yul\":26541:26552   */\n      sload\n        /* \"#utility.yul\":26515:26553   */\n      tag_174\n      jump\t// in\n    tag_591:\n        /* \"#utility.yul\":26600:26667   */\n      tag_592\n        /* \"#utility.yul\":26660:26666   */\n      dup3\n        /* \"#utility.yul\":26652:26658   */\n      dup3\n        /* \"#utility.yul\":26646:26650   */\n      dup6\n        /* \"#utility.yul\":26600:26667   */\n      tag_342\n      jump\t// in\n    tag_592:\n        /* \"#utility.yul\":26694:26695   */\n      0x00\n        /* \"#utility.yul\":26718:26722   */\n      0x20\n        /* \"#utility.yul\":26705:26722   */\n      swap1\n      pop\n        /* \"#utility.yul\":26750:26752   */\n      0x1f\n        /* \"#utility.yul\":26742:26748   */\n      dup4\n        /* \"#utility.yul\":26739:26753   */\n      gt\n        /* \"#utility.yul\":26767:26768   */\n      0x01\n        /* \"#utility.yul\":26762:27380   */\n      dup2\n      eq\n      tag_594\n      jumpi\n        /* \"#utility.yul\":27424:27425   */\n      0x00\n        /* \"#utility.yul\":27441:27447   */\n      dup5\n        /* \"#utility.yul\":27438:27515   */\n      iszero\n      tag_595\n      jumpi\n        /* \"#utility.yul\":27490:27499   */\n      dup3\n        /* \"#utility.yul\":27485:27488   */\n      dup8\n        /* \"#utility.yul\":27481:27500   */\n      add\n        /* \"#utility.yul\":27475:27501   */\n      mload\n        /* \"#utility.yul\":27466:27501   */\n      swap1\n      pop\n        /* \"#utility.yul\":27438:27515   */\n    tag_595:\n        /* \"#utility.yul\":27541:27608   */\n      tag_596\n        /* \"#utility.yul\":27601:27607   */\n      dup6\n        /* \"#utility.yul\":27594:27599   */\n      dup3\n        /* \"#utility.yul\":27541:27608   */\n      tag_345\n      jump\t// in\n    tag_596:\n        /* \"#utility.yul\":27535:27539   */\n      dup7\n        /* \"#utility.yul\":27528:27609   */\n      sstore\n        /* \"#utility.yul\":27397:27619   */\n      pop\n        /* \"#utility.yul\":26732:27619   */\n      jump(tag_593)\n        /* \"#utility.yul\":26762:27380   */\n    tag_594:\n        /* \"#utility.yul\":26814:26818   */\n      0x1f\n        /* \"#utility.yul\":26810:26819   */\n      not\n        /* \"#utility.yul\":26802:26808   */\n      dup5\n        /* \"#utility.yul\":26798:26820   */\n      and\n        /* \"#utility.yul\":26848:26885   */\n      tag_597\n        /* \"#utility.yul\":26880:26884   */\n      dup7\n        /* \"#utility.yul\":26848:26885   */\n      tag_331\n      jump\t// in\n    tag_597:\n        /* \"#utility.yul\":26907:26908   */\n      0x00\n        /* \"#utility.yul\":26921:27129   */\n    tag_598:\n        /* \"#utility.yul\":26935:26942   */\n      dup3\n        /* \"#utility.yul\":26932:26933   */\n      dup2\n        /* \"#utility.yul\":26929:26943   */\n      lt\n        /* \"#utility.yul\":26921:27129   */\n      iszero\n      tag_600\n      jumpi\n        /* \"#utility.yul\":27014:27023   */\n      dup5\n        /* \"#utility.yul\":27009:27012   */\n      dup10\n        /* \"#utility.yul\":27005:27024   */\n      add\n        /* \"#utility.yul\":26999:27025   */\n      mload\n        /* \"#utility.yul\":26991:26997   */\n      dup3\n        /* \"#utility.yul\":26984:27026   */\n      sstore\n        /* \"#utility.yul\":27065:27066   */\n      0x01\n        /* \"#utility.yul\":27057:27063   */\n      dup3\n        /* \"#utility.yul\":27053:27067   */\n      add\n        /* \"#utility.yul\":27043:27067   */\n      swap2\n      pop\n        /* \"#utility.yul\":27112:27114   */\n      0x20\n        /* \"#utility.yul\":27101:27110   */\n      dup6\n        /* \"#utility.yul\":27097:27115   */\n      add\n        /* \"#utility.yul\":27084:27115   */\n      swap5\n      pop\n        /* \"#utility.yul\":26958:26962   */\n      0x20\n        /* \"#utility.yul\":26955:26956   */\n      dup2\n        /* \"#utility.yul\":26951:26963   */\n      add\n        /* \"#utility.yul\":26946:26963   */\n      swap1\n      pop\n        /* \"#utility.yul\":26921:27129   */\n      jump(tag_598)\n    tag_600:\n        /* \"#utility.yul\":27157:27163   */\n      dup7\n        /* \"#utility.yul\":27148:27155   */\n      dup4\n        /* \"#utility.yul\":27145:27164   */\n      lt\n        /* \"#utility.yul\":27142:27321   */\n      iszero\n      tag_601\n      jumpi\n        /* \"#utility.yul\":27215:27224   */\n      dup5\n        /* \"#utility.yul\":27210:27213   */\n      dup10\n        /* \"#utility.yul\":27206:27225   */\n      add\n        /* \"#utility.yul\":27200:27226   */\n      mload\n        /* \"#utility.yul\":27258:27306   */\n      tag_602\n        /* \"#utility.yul\":27300:27304   */\n      0x1f\n        /* \"#utility.yul\":27292:27298   */\n      dup10\n        /* \"#utility.yul\":27288:27305   */\n      and\n        /* \"#utility.yul\":27277:27286   */\n      dup3\n        /* \"#utility.yul\":27258:27306   */\n      tag_344\n      jump\t// in\n    tag_602:\n        /* \"#utility.yul\":27250:27256   */\n      dup4\n        /* \"#utility.yul\":27243:27307   */\n      sstore\n        /* \"#utility.yul\":27165:27321   */\n      pop\n        /* \"#utility.yul\":27142:27321   */\n    tag_601:\n        /* \"#utility.yul\":27367:27368   */\n      0x01\n        /* \"#utility.yul\":27363:27364   */\n      0x02\n        /* \"#utility.yul\":27355:27361   */\n      dup9\n        /* \"#utility.yul\":27351:27365   */\n      mul\n        /* \"#utility.yul\":27347:27369   */\n      add\n        /* \"#utility.yul\":27341:27345   */\n      dup9\n        /* \"#utility.yul\":27334:27370   */\n      sstore\n        /* \"#utility.yul\":26769:27380   */\n      pop\n      pop\n      pop\n        /* \"#utility.yul\":26732:27619   */\n    tag_593:\n      pop\n        /* \"#utility.yul\":26322:27625   */\n      pop\n      pop\n      pop\n        /* \"#utility.yul\":26230:27625   */\n      pop\n      pop\n      jump\t// out\n        /* \"#utility.yul\":27631:27825   */\n    tag_151:\n        /* \"#utility.yul\":27671:27675   */\n      0x00\n        /* \"#utility.yul\":27691:27711   */\n      tag_604\n        /* \"#utility.yul\":27709:27710   */\n      dup3\n        /* \"#utility.yul\":27691:27711   */\n      tag_274\n      jump\t// in\n    tag_604:\n        /* \"#utility.yul\":27686:27711   */\n      swap2\n      pop\n        /* \"#utility.yul\":27725:27745   */\n      tag_605\n        /* \"#utility.yul\":27743:27744   */\n      dup4\n        /* \"#utility.yul\":27725:27745   */\n      tag_274\n      jump\t// in\n    tag_605:\n        /* \"#utility.yul\":27720:27745   */\n      swap3\n      pop\n        /* \"#utility.yul\":27769:27770   */\n      dup3\n        /* \"#utility.yul\":27766:27767   */\n      dup3\n        /* \"#utility.yul\":27762:27771   */\n      sub\n        /* \"#utility.yul\":27754:27771   */\n      swap1\n      pop\n        /* \"#utility.yul\":27793:27794   */\n      dup2\n        /* \"#utility.yul\":27787:27791   */\n      dup2\n        /* \"#utility.yul\":27784:27795   */\n      gt\n        /* \"#utility.yul\":27781:27818   */\n      iszero\n      tag_606\n      jumpi\n        /* \"#utility.yul\":27798:27816   */\n      tag_607\n      tag_317\n      jump\t// in\n    tag_607:\n        /* \"#utility.yul\":27781:27818   */\n    tag_606:\n        /* \"#utility.yul\":27631:27825   */\n      swap3\n      swap2\n      pop\n      pop\n      jump\t// out\n        /* \"#utility.yul\":27831:28163   */\n    tag_153:\n        /* \"#utility.yul\":27952:27956   */\n      0x00\n        /* \"#utility.yul\":27990:27992   */\n      0x40\n        /* \"#utility.yul\":27979:27988   */\n      dup3\n        /* \"#utility.yul\":27975:27993   */\n      add\n        /* \"#utility.yul\":27967:27993   */\n      swap1\n      pop\n        /* \"#utility.yul\":28003:28074   */\n      tag_609\n        /* \"#utility.yul\":28071:28072   */\n      0x00\n        /* \"#utility.yul\":28060:28069   */\n      dup4\n        /* \"#utility.yul\":28056:28073   */\n      add\n        /* \"#utility.yul\":28047:28053   */\n      dup6\n        /* \"#utility.yul\":28003:28074   */\n      tag_291\n      jump\t// in\n    tag_609:\n        /* \"#utility.yul\":28084:28156   */\n      tag_610\n        /* \"#utility.yul\":28152:28154   */\n      0x20\n        /* \"#utility.yul\":28141:28150   */\n      dup4\n        /* \"#utility.yul\":28137:28155   */\n      add\n        /* \"#utility.yul\":28128:28134   */\n      dup5\n        /* \"#utility.yul\":28084:28156   */\n      tag_291\n      jump\t// in\n    tag_610:\n        /* \"#utility.yul\":27831:28163   */\n      swap4\n      swap3\n      pop\n      pop\n      pop\n      jump\t// out\n        /* \"#utility.yul\":28169:28336   */\n    tag_346:\n        /* \"#utility.yul\":28309:28328   */\n      0x566f746573206e6f742074616c6c696564000000000000000000000000000000\n        /* \"#utility.yul\":28305:28306   */\n      0x00\n        /* \"#utility.yul\":28297:28303   */\n      dup3\n        /* \"#utility.yul\":28293:28307   */\n      add\n        /* \"#utility.yul\":28286:28329   */\n      mstore\n        /* \"#utility.yul\":28169:28336   */\n      pop\n      jump\t// out\n        /* \"#utility.yul\":28342:28708   */\n    tag_347:\n        /* \"#utility.yul\":28484:28487   */\n      0x00\n        /* \"#utility.yul\":28505:28572   */\n      tag_613\n        /* \"#utility.yul\":28569:28571   */\n      0x11\n        /* \"#utility.yul\":28564:28567   */\n      dup4\n        /* \"#utility.yul\":28505:28572   */\n      tag_308\n      jump\t// in\n    tag_613:\n        /* \"#utility.yul\":28498:28572   */\n      swap2\n      pop\n        /* \"#utility.yul\":28581:28674   */\n      tag_614\n        /* \"#utility.yul\":28670:28673   */\n      dup3\n        /* \"#utility.yul\":28581:28674   */\n      tag_346\n      jump\t// in\n    tag_614:\n        /* \"#utility.yul\":28699:28701   */\n      0x20\n        /* \"#utility.yul\":28694:28697   */\n      dup3\n        /* \"#utility.yul\":28690:28702   */\n      add\n        /* \"#utility.yul\":28683:28702   */\n      swap1\n      pop\n        /* \"#utility.yul\":28342:28708   */\n      swap2\n      swap1\n      pop\n      jump\t// out\n        /* \"#utility.yul\":28714:29133   */\n    tag_169:\n        /* \"#utility.yul\":28880:28884   */\n      0x00\n        /* \"#utility.yul\":28918:28920   */\n      0x20\n        /* \"#utility.yul\":28907:28916   */\n      dup3\n        /* \"#utility.yul\":28903:28921   */\n      add\n        /* \"#utility.yul\":28895:28921   */\n      swap1\n      pop\n        /* \"#utility.yul\":28967:28976   */\n      dup2\n        /* \"#utility.yul\":28961:28965   */\n      dup2\n        /* \"#utility.yul\":28957:28977   */\n      sub\n        /* \"#utility.yul\":28953:28954   */\n      0x00\n        /* \"#utility.yul\":28942:28951   */\n      dup4\n        /* \"#utility.yul\":28938:28955   */\n      add\n        /* \"#utility.yul\":28931:28978   */\n      mstore\n        /* \"#utility.yul\":28995:29126   */\n      tag_616\n        /* \"#utility.yul\":29121:29125   */\n      dup2\n        /* \"#utility.yul\":28995:29126   */\n      tag_347\n      jump\t// in\n    tag_616:\n        /* \"#utility.yul\":28987:29126   */\n      swap1\n      pop\n        /* \"#utility.yul\":28714:29133   */\n      swap2\n      swap1\n      pop\n      jump\t// out\n        /* \"#utility.yul\":29139:29310   */\n    tag_348:\n        /* \"#utility.yul\":29279:29302   */\n      0x57726f6e6720776f726b666c6f77207374617475730000000000000000000000\n        /* \"#utility.yul\":29275:29276   */\n      0x00\n        /* \"#utility.yul\":29267:29273   */\n      dup3\n        /* \"#utility.yul\":29263:29277   */\n      add\n        /* \"#utility.yul\":29256:29303   */\n      mstore\n        /* \"#utility.yul\":29139:29310   */\n      pop\n      jump\t// out\n        /* \"#utility.yul\":29316:29682   */\n    tag_349:\n        /* \"#utility.yul\":29458:29461   */\n      0x00\n        /* \"#utility.yul\":29479:29546   */\n      tag_619\n        /* \"#utility.yul\":29543:29545   */\n      0x15\n        /* \"#utility.yul\":29538:29541   */\n      dup4\n        /* \"#utility.yul\":29479:29546   */\n      tag_308\n      jump\t// in\n    tag_619:\n        /* \"#utility.yul\":29472:29546   */\n      swap2\n      pop\n        /* \"#utility.yul\":29555:29648   */\n      tag_620\n        /* \"#utility.yul\":29644:29647   */\n      dup3\n        /* \"#utility.yul\":29555:29648   */\n      tag_348\n      jump\t// in\n    tag_620:\n        /* \"#utility.yul\":29673:29675   */\n      0x20\n        /* \"#utility.yul\":29668:29671   */\n      dup3\n        /* \"#utility.yul\":29664:29676   */\n      add\n        /* \"#utility.yul\":29657:29676   */\n      swap1\n      pop\n        /* \"#utility.yul\":29316:29682   */\n      swap2\n      swap1\n      pop\n      jump\t// out\n        /* \"#utility.yul\":29688:30107   */\n    tag_188:\n        /* \"#utility.yul\":29854:29858   */\n      0x00\n        /* \"#utility.yul\":29892:29894   */\n      0x20\n        /* \"#utility.yul\":29881:29890   */\n      dup3\n        /* \"#utility.yul\":29877:29895   */\n      add\n        /* \"#utility.yul\":29869:29895   */\n      swap1\n      pop\n        /* \"#utility.yul\":29941:29950   */\n      dup2\n        /* \"#utility.yul\":29935:29939   */\n      dup2\n        /* \"#utility.yul\":29931:29951   */\n      sub\n        /* \"#utility.yul\":29927:29928   */\n      0x00\n        /* \"#utility.yul\":29916:29925   */\n      dup4\n        /* \"#utility.yul\":29912:29929   */\n      add\n        /* \"#utility.yul\":29905:29952   */\n      mstore\n        /* \"#utility.yul\":29969:30100   */\n      tag_622\n        /* \"#utility.yul\":30095:30099   */\n      dup2\n        /* \"#utility.yul\":29969:30100   */\n      tag_349\n      jump\t// in\n    tag_622:\n        /* \"#utility.yul\":29961:30100   */\n      swap1\n      pop\n        /* \"#utility.yul\":29688:30107   */\n      swap2\n      swap1\n      pop\n      jump\t// out\n        /* \"#utility.yul\":30113:30287   */\n    tag_350:\n        /* \"#utility.yul\":30253:30279   */\n      0x566f74696e672073657373696f6e206e6f7420656e6465640000000000000000\n        /* \"#utility.yul\":30249:30250   */\n      0x00\n        /* \"#utility.yul\":30241:30247   */\n      dup3\n        /* \"#utility.yul\":30237:30251   */\n      add\n        /* \"#utility.yul\":30230:30280   */\n      mstore\n        /* \"#utility.yul\":30113:30287   */\n      pop\n      jump\t// out\n        /* \"#utility.yul\":30293:30659   */\n    tag_351:\n        /* \"#utility.yul\":30435:30438   */\n      0x00\n        /* \"#utility.yul\":30456:30523   */\n      tag_625\n        /* \"#utility.yul\":30520:30522   */\n      0x18\n        /* \"#utility.yul\":30515:30518   */\n      dup4\n        /* \"#utility.yul\":30456:30523   */\n      tag_308\n      jump\t// in\n    tag_625:\n        /* \"#utility.yul\":30449:30523   */\n      swap2\n      pop\n        /* \"#utility.yul\":30532:30625   */\n      tag_626\n        /* \"#utility.yul\":30621:30624   */\n      dup3\n        /* \"#utility.yul\":30532:30625   */\n      tag_350\n      jump\t// in\n    tag_626:\n        /* \"#utility.yul\":30650:30652   */\n      0x20\n        /* \"#utility.yul\":30645:30648   */\n      dup3\n        /* \"#utility.yul\":30641:30653   */\n      add\n        /* \"#utility.yul\":30634:30653   */\n      swap1\n      pop\n        /* \"#utility.yul\":30293:30659   */\n      swap2\n      swap1\n      pop\n      jump\t// out\n        /* \"#utility.yul\":30665:31084   */\n    tag_235:\n        /* \"#utility.yul\":30831:30835   */\n      0x00\n        /* \"#utility.yul\":30869:30871   */\n      0x20\n        /* \"#utility.yul\":30858:30867   */\n      dup3\n        /* \"#utility.yul\":30854:30872   */\n      add\n        /* \"#utility.yul\":30846:30872   */\n      swap1\n      pop\n        /* \"#utility.yul\":30918:30927   */\n      dup2\n        /* \"#utility.yul\":30912:30916   */\n      dup2\n        /* \"#utility.yul\":30908:30928   */\n      sub\n        /* \"#utility.yul\":30904:30905   */\n      0x00\n        /* \"#utility.yul\":30893:30902   */\n      dup4\n        /* \"#utility.yul\":30889:30906   */\n      add\n        /* \"#utility.yul\":30882:30929   */\n      mstore\n        /* \"#utility.yul\":30946:31077   */\n      tag_628\n        /* \"#utility.yul\":31072:31076   */\n      dup2\n        /* \"#utility.yul\":30946:31077   */\n      tag_351\n      jump\t// in\n    tag_628:\n        /* \"#utility.yul\":30938:31077   */\n      swap1\n      pop\n        /* \"#utility.yul\":30665:31084   */\n      swap2\n      swap1\n      pop\n      jump\t// out\n\n    auxdata: 0xa26469706673582212202d9be69d2231708cfa4f4b578fd3950af46aee93f38117ffec1926107fe9fb3064736f6c634300081e0033\n}\n",
				"bytecode": {
					"linkReferences": {},
					"object": "608060405234801561000f575f5ffd5b50335f73ffffffffffffffffffffffffffffffffffffffff168173ffffffffffffffffffffffffffffffffffffffff1603610081575f6040517f1e4fbdf70000000000000000000000000000000000000000000000000000000081526004016100789190610196565b60405180910390fd5b6100908161009660201b60201c565b506101af565b5f5f5f9054906101000a900473ffffffffffffffffffffffffffffffffffffffff169050815f5f6101000a81548173ffffffffffffffffffffffffffffffffffffffff021916908373ffffffffffffffffffffffffffffffffffffffff1602179055508173ffffffffffffffffffffffffffffffffffffffff168173ffffffffffffffffffffffffffffffffffffffff167f8be0079c531659141344cd1fd0a4f28419497f9722a3daafe3b4186f6b6457e060405160405180910390a35050565b5f73ffffffffffffffffffffffffffffffffffffffff82169050919050565b5f61018082610157565b9050919050565b61019081610176565b82525050565b5f6020820190506101a95f830184610187565b92915050565b612397806101bc5f395ff3fe608060405234801561000f575f5ffd5b50600436106100fe575f3560e01c80638bc6a6dd11610095578063d1ff7eeb11610064578063d1ff7eeb14610280578063d6a10dcb1461029c578063dc871a5c146102b8578063f2fde38b146102c2576100fe565b80638bc6a6dd146101fa5780638da5cb5b146102165780639980a55a14610234578063bf8ca1aa14610250576100fe565b80636597a130116100d15780636597a13014610172578063715018a6146101905780637d22c35c1461019a57806389a2f485146101ca576100fe565b8063291e6777146101025780632d7854611461011e57806335bb3d301461013a578063371820e914610156575b5f5ffd5b61011c600480360381019061011791906114c5565b6102de565b005b6101386004803603810190610133919061155d565b610533565b005b610154600480360381019061014f919061159b565b610738565b005b610170600480360381019061016b9190611702565b610849565b005b61017a610a10565b604051610187919061176b565b60405180910390f35b610198610a16565b005b6101b460048036038101906101af919061155d565b610a29565b6040516101c1919061179e565b60405180910390f35b6101e460048036038101906101df919061159b565b610a90565b6040516101f19190611860565b60405180910390f35b610214600480360381019061020f919061159b565b610bf4565b005b61021e610d04565b60405161022b919061188f565b60405180910390f35b61024e6004803603810190610249919061159b565b610d2b565b005b61026a6004803603810190610265919061159b565b610e3c565b604051610277919061199d565b60405180910390f35b61029a6004803603810190610295919061159b565b610f45565b005b6102b660048036038101906102b1919061159b565b611056565b005b6102c06111f5565b005b6102dc60048036038101906102d791906119bd565b611295565b005b5f60025f8481526020019081526020015f20905060036005811115610306576103056119e8565b5b815f015f9054906101000a900460ff166005811115610328576103276119e8565b5b14610368576040517f08c379a000000000000000000000000000000000000000000000000000000000815260040161035f90611a6f565b60405180910390fd5b806001018054905082106103b1576040517f08c379a00000000000000000000000000000000000000000000000000000000081526004016103a890611ad7565b60405180910390fd5b5f816002015f3373ffffffffffffffffffffffffffffffffffffffff1673ffffffffffffffffffffffffffffffffffffffff1681526020019081526020015f209050805f015f9054906101000a900460ff16610442576040517f08c379a000000000000000000000000000000000000000000000000000000000815260040161043990611b3f565b60405180910390fd5b805f0160019054906101000a900460ff1615610493576040517f08c379a000000000000000000000000000000000000000000000000000000000815260040161048a90611ba7565b60405180910390fd5b8160010183815481106104a9576104a8611bc5565b5b905f5260205f2090600202016001015f8154809291906104c890611c1f565b91905055506001815f0160016101000a81548160ff0219169083151502179055508281600101819055507f1abe610cf2bf87e57dcc1181fcf5ac0934e843d8344ab9eed6e86c799f62585e84338560405161052593929190611c66565b60405180910390a150505050565b61053b611319565b5f60025f8481526020019081526020015f2090505f6005811115610562576105616119e8565b5b815f015f9054906101000a900460ff166005811115610584576105836119e8565b5b146105c4576040517f08c379a00000000000000000000000000000000000000000000000000000000081526004016105bb90611ce5565b60405180910390fd5b806002015f8373ffffffffffffffffffffffffffffffffffffffff1673ffffffffffffffffffffffffffffffffffffffff1681526020019081526020015f205f015f9054906101000a900460ff1615610652576040517f08c379a000000000000000000000000000000000000000000000000000000000815260040161064990611d4d565b60405180910390fd5b60405180606001604052806001151581526020015f151581526020015f815250816002015f8473ffffffffffffffffffffffffffffffffffffffff1673ffffffffffffffffffffffffffffffffffffffff1681526020019081526020015f205f820151815f015f6101000a81548160ff0219169083151502179055506020820151815f0160016101000a81548160ff021916908315150217905550604082015181600101559050507ff45b8429c36d478f9a6d081c4811a819b98aa5b608588bed9d406405cf282473838360405161072b929190611d6b565b60405180910390a1505050565b610740611319565b5f60025f8381526020019081526020015f20905060036005811115610768576107676119e8565b5b815f015f9054906101000a900460ff16600581111561078a576107896119e8565b5b146107ca576040517f08c379a00000000000000000000000000000000000000000000000000000000081526004016107c190611a6f565b60405180910390fd5b5f815f015f9054906101000a900460ff1690506004825f015f6101000a81548160ff02191690836005811115610803576108026119e8565b5b02179055507fb067099e10826978a3867510ad1e0dcf4ca5cef8e422fd8df2fc3d679167fe8d8382600460405161083c93929190611dd8565b60405180910390a1505050565b5f60025f8481526020019081526020015f20905060016005811115610871576108706119e8565b5b815f015f9054906101000a900460ff166005811115610893576108926119e8565b5b146108d3576040517f08c379a00000000000000000000000000000000000000000000000000000000081526004016108ca90611e7d565b60405180910390fd5b806002015f3373ffffffffffffffffffffffffffffffffffffffff1673ffffffffffffffffffffffffffffffffffffffff1681526020019081526020015f205f015f9054906101000a900460ff16610960576040517f08c379a000000000000000000000000000000000000000000000000000000000815260040161095790611ee5565b60405180910390fd5b8060010160405180604001604052808481526020015f815250908060018154018082558091505060019003905f5260205f2090600202015f909190919091505f820151815f0190816109b29190612100565b506020820151816001015550507fca195036d7c4d40b171ad51e9c891c830a0ad9a5e114b5b075cdf791317e300c83600183600101805490506109f591906121cf565b604051610a03929190612202565b60405180910390a1505050565b60015481565b610a1e611319565b610a275f6113a0565b565b5f60025f8481526020019081526020015f206002015f8373ffffffffffffffffffffffffffffffffffffffff1673ffffffffffffffffffffffffffffffffffffffff1681526020019081526020015f205f015f9054906101000a900460ff16905092915050565b610a98611468565b5f60025f8481526020019081526020015f209050600580811115610abf57610abe6119e8565b5b815f015f9054906101000a900460ff166005811115610ae157610ae06119e8565b5b1015610b22576040517f08c379a0000000000000000000000000000000000000000000000000000000008152600401610b1990612273565b60405180910390fd5b80600101816003015481548110610b3c57610b3b611bc5565b5b905f5260205f2090600202016040518060400160405290815f82018054610b6290611f30565b80601f0160208091040260200160405190810160405280929190818152602001828054610b8e90611f30565b8015610bd95780601f10610bb057610100808354040283529160200191610bd9565b820191905f5260205f20905b815481529060010190602001808311610bbc57829003601f168201915b50505050508152602001600182015481525050915050919050565b610bfc611319565b5f60025f8381526020019081526020015f2090505f6005811115610c2357610c226119e8565b5b815f015f9054906101000a900460ff166005811115610c4557610c446119e8565b5b14610c85576040517f08c379a0000000000000000000000000000000000000000000000000000000008152600401610c7c906122db565b60405180910390fd5b5f815f015f9054906101000a900460ff1690506001825f015f6101000a81548160ff02191690836005811115610cbe57610cbd6119e8565b5b02179055507fb067099e10826978a3867510ad1e0dcf4ca5cef8e422fd8df2fc3d679167fe8d83826001604051610cf793929190611dd8565b60405180910390a1505050565b5f5f5f9054906101000a900473ffffffffffffffffffffffffffffffffffffffff16905090565b610d33611319565b5f60025f8381526020019081526020015f20905060026005811115610d5b57610d5a6119e8565b5b815f015f9054906101000a900460ff166005811115610d7d57610d7c6119e8565b5b14610dbd576040517f08c379a0000000000000000000000000000000000000000000000000000000008152600401610db4906122db565b60405180910390fd5b5f815f015f9054906101000a900460ff1690506003825f015f6101000a81548160ff02191690836005811115610df657610df56119e8565b5b02179055507fb067099e10826978a3867510ad1e0dcf4ca5cef8e422fd8df2fc3d679167fe8d83826003604051610e2f93929190611dd8565b60405180910390a1505050565b606060025f8381526020019081526020015f20600101805480602002602001604051908101604052809291908181526020015f905b82821015610f3a578382905f5260205f2090600202016040518060400160405290815f82018054610ea190611f30565b80601f0160208091040260200160405190810160405280929190818152602001828054610ecd90611f30565b8015610f185780601f10610eef57610100808354040283529160200191610f18565b820191905f5260205f20905b815481529060010190602001808311610efb57829003601f168201915b5050505050815260200160018201548152505081526020019060010190610e71565b505050509050919050565b610f4d611319565b5f60025f8381526020019081526020015f20905060016005811115610f7557610f746119e8565b5b815f015f9054906101000a900460ff166005811115610f9757610f966119e8565b5b14610fd7576040517f08c379a0000000000000000000000000000000000000000000000000000000008152600401610fce906122db565b60405180910390fd5b5f815f015f9054906101000a900460ff1690506002825f015f6101000a81548160ff021916908360058111156110105761100f6119e8565b5b02179055507fb067099e10826978a3867510ad1e0dcf4ca5cef8e422fd8df2fc3d679167fe8d8382600260405161104993929190611dd8565b60405180910390a1505050565b61105e611319565b5f60025f8381526020019081526020015f20905060046005811115611086576110856119e8565b5b815f015f9054906101000a900460ff1660058111156110a8576110a76119e8565b5b146110e8576040517f08c379a00000000000000000000000000000000000000000000000000000000081526004016110df90612343565b60405180910390fd5b5f5f90505f5f90505f5f90505b836001018054905081101561116a578184600101828154811061111b5761111a611bc5565b5b905f5260205f20906002020160010154111561115d5783600101818154811061114757611146611bc5565b5b905f5260205f2090600202016001015491508092505b80806001019150506110f5565b508183600301819055505f835f015f9054906101000a900460ff1690506005845f015f6101000a81548160ff021916908360058111156111ad576111ac6119e8565b5b02179055507fb067099e10826978a3867510ad1e0dcf4ca5cef8e422fd8df2fc3d679167fe8d858260056040516111e693929190611dd8565b60405180910390a15050505050565b6111fd611319565b60015f81548092919061120f90611c1f565b91905055505f60025f60015481526020019081526020015f2090505f815f015f6101000a81548160ff0219169083600581111561124f5761124e6119e8565b5b02179055507fb067099e10826978a3867510ad1e0dcf4ca5cef8e422fd8df2fc3d679167fe8d60015460055f60405161128a93929190611dd8565b60405180910390a150565b61129d611319565b5f73ffffffffffffffffffffffffffffffffffffffff168173ffffffffffffffffffffffffffffffffffffffff160361130d575f6040517f1e4fbdf7000000000000000000000000000000000000000000000000000000008152600401611304919061188f565b60405180910390fd5b611316816113a0565b50565b611321611461565b73ffffffffffffffffffffffffffffffffffffffff1661133f610d04565b73ffffffffffffffffffffffffffffffffffffffff161461139e57611362611461565b6040517f118cdaa7000000000000000000000000000000000000000000000000000000008152600401611395919061188f565b60405180910390fd5b565b5f5f5f9054906101000a900473ffffffffffffffffffffffffffffffffffffffff169050815f5f6101000a81548173ffffffffffffffffffffffffffffffffffffffff021916908373ffffffffffffffffffffffffffffffffffffffff1602179055508173ffffffffffffffffffffffffffffffffffffffff168173ffffffffffffffffffffffffffffffffffffffff167f8be0079c531659141344cd1fd0a4f28419497f9722a3daafe3b4186f6b6457e060405160405180910390a35050565b5f33905090565b6040518060400160405280606081526020015f81525090565b5f604051905090565b5f5ffd5b5f5ffd5b5f819050919050565b6114a481611492565b81146114ae575f5ffd5b50565b5f813590506114bf8161149b565b92915050565b5f5f604083850312156114db576114da61148a565b5b5f6114e8858286016114b1565b92505060206114f9858286016114b1565b9150509250929050565b5f73ffffffffffffffffffffffffffffffffffffffff82169050919050565b5f61152c82611503565b9050919050565b61153c81611522565b8114611546575f5ffd5b50565b5f8135905061155781611533565b92915050565b5f5f604083850312156115735761157261148a565b5b5f611580858286016114b1565b925050602061159185828601611549565b9150509250929050565b5f602082840312156115b0576115af61148a565b5b5f6115bd848285016114b1565b91505092915050565b5f5ffd5b5f5ffd5b5f601f19601f8301169050919050565b7f4e487b71000000000000000000000000000000000000000000000000000000005f52604160045260245ffd5b611614826115ce565b810181811067ffffffffffffffff82111715611633576116326115de565b5b80604052505050565b5f611645611481565b9050611651828261160b565b919050565b5f67ffffffffffffffff8211156116705761166f6115de565b5b611679826115ce565b9050602081019050919050565b828183375f83830152505050565b5f6116a66116a184611656565b61163c565b9050828152602081018484840111156116c2576116c16115ca565b5b6116cd848285611686565b509392505050565b5f82601f8301126116e9576116e86115c6565b5b81356116f9848260208601611694565b91505092915050565b5f5f604083850312156117185761171761148a565b5b5f611725858286016114b1565b925050602083013567ffffffffffffffff8111156117465761174561148e565b5b611752858286016116d5565b9150509250929050565b61176581611492565b82525050565b5f60208201905061177e5f83018461175c565b92915050565b5f8115159050919050565b61179881611784565b82525050565b5f6020820190506117b15f83018461178f565b92915050565b5f81519050919050565b5f82825260208201905092915050565b8281835e5f83830152505050565b5f6117e9826117b7565b6117f381856117c1565b93506118038185602086016117d1565b61180c816115ce565b840191505092915050565b61182081611492565b82525050565b5f604083015f8301518482035f86015261184082826117df565b91505060208301516118556020860182611817565b508091505092915050565b5f6020820190508181035f8301526118788184611826565b905092915050565b61188981611522565b82525050565b5f6020820190506118a25f830184611880565b92915050565b5f81519050919050565b5f82825260208201905092915050565b5f819050602082019050919050565b5f604083015f8301518482035f8601526118eb82826117df565b91505060208301516119006020860182611817565b508091505092915050565b5f61191683836118d1565b905092915050565b5f602082019050919050565b5f611934826118a8565b61193e81856118b2565b935083602082028501611950856118c2565b805f5b8581101561198b578484038952815161196c858261190b565b94506119778361191e565b925060208a01995050600181019050611953565b50829750879550505050505092915050565b5f6020820190508181035f8301526119b5818461192a565b905092915050565b5f602082840312156119d2576119d161148a565b5b5f6119df84828501611549565b91505092915050565b7f4e487b71000000000000000000000000000000000000000000000000000000005f52602160045260245ffd5b5f82825260208201905092915050565b7f566f74696e672073657373696f6e206e6f7420737461727465640000000000005f82015250565b5f611a59601a83611a15565b9150611a6482611a25565b602082019050919050565b5f6020820190508181035f830152611a8681611a4d565b9050919050565b7f50726f706f73616c20646f6573206e6f742065786973740000000000000000005f82015250565b5f611ac1601783611a15565b9150611acc82611a8d565b602082019050919050565b5f6020820190508181035f830152611aee81611ab5565b9050919050565b7f596f7520617265206e6f742072656769737465726564000000000000000000005f82015250565b5f611b29601683611a15565b9150611b3482611af5565b602082019050919050565b5f6020820190508181035f830152611b5681611b1d565b9050919050565b7f596f75206861766520616c726561647920766f746564000000000000000000005f82015250565b5f611b91601683611a15565b9150611b9c82611b5d565b602082019050919050565b5f6020820190508181035f830152611bbe81611b85565b9050919050565b7f4e487b71000000000000000000000000000000000000000000000000000000005f52603260045260245ffd5b7f4e487b71000000000000000000000000000000000000000000000000000000005f52601160045260245ffd5b5f611c2982611492565b91507fffffffffffffffffffffffffffffffffffffffffffffffffffffffffffffffff8203611c5b57611c5a611bf2565b5b600182019050919050565b5f606082019050611c795f83018661175c565b611c866020830185611880565b611c93604083018461175c565b949350505050565b7f526567697374726174696f6e206e6f74207374617274656400000000000000005f82015250565b5f611ccf601883611a15565b9150611cda82611c9b565b602082019050919050565b5f6020820190508181035f830152611cfc81611cc3565b9050919050565b7f566f74657220616c7265616479207265676973746572656400000000000000005f82015250565b5f611d37601883611a15565b9150611d4282611d03565b602082019050919050565b5f6020820190508181035f830152611d6481611d2b565b9050919050565b5f604082019050611d7e5f83018561175c565b611d8b6020830184611880565b9392505050565b60068110611da357611da26119e8565b5b50565b5f819050611db382611d92565b919050565b5f611dc282611da6565b9050919050565b611dd281611db8565b82525050565b5f606082019050611deb5f83018661175c565b611df86020830185611dc9565b611e056040830184611dc9565b949350505050565b7f50726f706f73616c7320726567697374726174696f6e206e6f742073746172745f8201527f6564000000000000000000000000000000000000000000000000000000000000602082015250565b5f611e67602283611a15565b9150611e7282611e0d565b604082019050919050565b5f6020820190508181035f830152611e9481611e5b565b9050919050565b7f596f7520617265206e6f742077686974656c69737465640000000000000000005f82015250565b5f611ecf601783611a15565b9150611eda82611e9b565b602082019050919050565b5f6020820190508181035f830152611efc81611ec3565b9050919050565b7f4e487b71000000000000000000000000000000000000000000000000000000005f52602260045260245ffd5b5f6002820490506001821680611f4757607f821691505b602082108103611f5a57611f59611f03565b5b50919050565b5f819050815f5260205f209050919050565b5f6020601f8301049050919050565b5f82821b905092915050565b5f60088302611fbc7fffffffffffffffffffffffffffffffffffffffffffffffffffffffffffffffff82611f81565b611fc68683611f81565b95508019841693508086168417925050509392505050565b5f819050919050565b5f612001611ffc611ff784611492565b611fde565b611492565b9050919050565b5f819050919050565b61201a83611fe7565b61202e61202682612008565b848454611f8d565b825550505050565b5f5f905090565b612045612036565b612050818484612011565b505050565b5b81811015612073576120685f8261203d565b600181019050612056565b5050565b601f8211156120b85761208981611f60565b61209284611f72565b810160208510156120a1578190505b6120b56120ad85611f72565b830182612055565b50505b505050565b5f82821c905092915050565b5f6120d85f19846008026120bd565b1980831691505092915050565b5f6120f083836120c9565b9150826002028217905092915050565b612109826117b7565b67ffffffffffffffff811115612122576121216115de565b5b61212c8254611f30565b612137828285612077565b5f60209050601f831160018114612168575f8415612156578287015190505b61216085826120e5565b8655506121c7565b601f19841661217686611f60565b5f5b8281101561219d57848901518255600182019150602085019450602081019050612178565b868310156121ba57848901516121b6601f8916826120c9565b8355505b6001600288020188555050505b505050505050565b5f6121d982611492565b91506121e483611492565b92508282039050818111156121fc576121fb611bf2565b5b92915050565b5f6040820190506122155f83018561175c565b612222602083018461175c565b9392505050565b7f566f746573206e6f742074616c6c6965640000000000000000000000000000005f82015250565b5f61225d601183611a15565b915061226882612229565b602082019050919050565b5f6020820190508181035f83015261228a81612251565b9050919050565b7f57726f6e6720776f726b666c6f772073746174757300000000000000000000005f82015250565b5f6122c5601583611a15565b91506122d082612291565b602082019050919050565b5f6020820190508181035f8301526122f2816122b9565b9050919050565b7f566f74696e672073657373696f6e206e6f7420656e64656400000000000000005f82015250565b5f61232d601883611a15565b9150612338826122f9565b602082019050919050565b5f6020820190508181035f83015261235a81612321565b905091905056fea26469706673582212202d9be69d2231708cfa4f4b578fd3950af46aee93f38117ffec1926107fe9fb3064736f6c634300081e0033",
					"opcodes": "PUSH1 0x80 PUSH1 0x40 MSTORE CALLVALUE DUP1 ISZERO PUSH2 0xF JUMPI PUSH0 PUSH0 REVERT JUMPDEST POP CALLER PUSH0 PUSH20 0xFFFFFFFFFFFFFFFFFFFFFFFFFFFFFFFFFFFFFFFF AND DUP2 PUSH20 0xFFFFFFFFFFFFFFFFFFFFFFFFFFFFFFFFFFFFFFFF AND SUB PUSH2 0x81 JUMPI PUSH0 PUSH1 0x40 MLOAD PUSH32 0x1E4FBDF700000000000000000000000000000000000000000000000000000000 DUP2 MSTORE PUSH1 0x4 ADD PUSH2 0x78 SWAP2 SWAP1 PUSH2 0x196 JUMP JUMPDEST PUSH1 0x40 MLOAD DUP1 SWAP2 SUB SWAP1 REVERT JUMPDEST PUSH2 0x90 DUP2 PUSH2 0x96 PUSH1 0x20 SHL PUSH1 0x20 SHR JUMP JUMPDEST POP PUSH2 0x1AF JUMP JUMPDEST PUSH0 PUSH0 PUSH0 SWAP1 SLOAD SWAP1 PUSH2 0x100 EXP SWAP1 DIV PUSH20 0xFFFFFFFFFFFFFFFFFFFFFFFFFFFFFFFFFFFFFFFF AND SWAP1 POP DUP2 PUSH0 PUSH0 PUSH2 0x100 EXP DUP2 SLOAD DUP2 PUSH20 0xFFFFFFFFFFFFFFFFFFFFFFFFFFFFFFFFFFFFFFFF MUL NOT AND SWAP1 DUP4 PUSH20 0xFFFFFFFFFFFFFFFFFFFFFFFFFFFFFFFFFFFFFFFF AND MUL OR SWAP1 SSTORE POP DUP2 PUSH20 0xFFFFFFFFFFFFFFFFFFFFFFFFFFFFFFFFFFFFFFFF AND DUP2 PUSH20 0xFFFFFFFFFFFFFFFFFFFFFFFFFFFFFFFFFFFFFFFF AND PUSH32 0x8BE0079C531659141344CD1FD0A4F28419497F9722A3DAAFE3B4186F6B6457E0 PUSH1 0x40 MLOAD PUSH1 0x40 MLOAD DUP1 SWAP2 SUB SWAP1 LOG3 POP POP JUMP JUMPDEST PUSH0 PUSH20 0xFFFFFFFFFFFFFFFFFFFFFFFFFFFFFFFFFFFFFFFF DUP3 AND SWAP1 POP SWAP2 SWAP1 POP JUMP JUMPDEST PUSH0 PUSH2 0x180 DUP3 PUSH2 0x157 JUMP JUMPDEST SWAP1 POP SWAP2 SWAP1 POP JUMP JUMPDEST PUSH2 0x190 DUP2 PUSH2 0x176 JUMP JUMPDEST DUP3 MSTORE POP POP JUMP JUMPDEST PUSH0 PUSH1 0x20 DUP3 ADD SWAP1 POP PUSH2 0x1A9 PUSH0 DUP4 ADD DUP5 PUSH2 0x187 JUMP JUMPDEST SWAP3 SWAP2 POP POP JUMP JUMPDEST PUSH2 0x2397 DUP1 PUSH2 0x1BC PUSH0 CODECOPY PUSH0 RETURN INVALID PUSH1 0x80 PUSH1 0x40 MSTORE CALLVALUE DUP1 ISZERO PUSH2 0xF JUMPI PUSH0 PUSH0 REVERT JUMPDEST POP PUSH1 0x4 CALLDATASIZE LT PUSH2 0xFE JUMPI PUSH0 CALLDATALOAD PUSH1 0xE0 SHR DUP1 PUSH4 0x8BC6A6DD GT PUSH2 0x95 JUMPI DUP1 PUSH4 0xD1FF7EEB GT PUSH2 0x64 JUMPI DUP1 PUSH4 0xD1FF7EEB EQ PUSH2 0x280 JUMPI DUP1 PUSH4 0xD6A10DCB EQ PUSH2 0x29C JUMPI DUP1 PUSH4 0xDC871A5C EQ PUSH2 0x2B8 JUMPI DUP1 PUSH4 0xF2FDE38B EQ PUSH2 0x2C2 JUMPI PUSH2 0xFE JUMP JUMPDEST DUP1 PUSH4 0x8BC6A6DD EQ PUSH2 0x1FA JUMPI DUP1 PUSH4 0x8DA5CB5B EQ PUSH2 0x216 JUMPI DUP1 PUSH4 0x9980A55A EQ PUSH2 0x234 JUMPI DUP1 PUSH4 0xBF8CA1AA EQ PUSH2 0x250 JUMPI PUSH2 0xFE JUMP JUMPDEST DUP1 PUSH4 0x6597A130 GT PUSH2 0xD1 JUMPI DUP1 PUSH4 0x6597A130 EQ PUSH2 0x172 JUMPI DUP1 PUSH4 0x715018A6 EQ PUSH2 0x190 JUMPI DUP1 PUSH4 0x7D22C35C EQ PUSH2 0x19A JUMPI DUP1 PUSH4 0x89A2F485 EQ PUSH2 0x1CA JUMPI PUSH2 0xFE JUMP JUMPDEST DUP1 PUSH4 0x291E6777 EQ PUSH2 0x102 JUMPI DUP1 PUSH4 0x2D785461 EQ PUSH2 0x11E JUMPI DUP1 PUSH4 0x35BB3D30 EQ PUSH2 0x13A JUMPI DUP1 PUSH4 0x371820E9 EQ PUSH2 0x156 JUMPI JUMPDEST PUSH0 PUSH0 REVERT JUMPDEST PUSH2 0x11C PUSH1 0x4 DUP1 CALLDATASIZE SUB DUP2 ADD SWAP1 PUSH2 0x117 SWAP2 SWAP1 PUSH2 0x14C5 JUMP JUMPDEST PUSH2 0x2DE JUMP JUMPDEST STOP JUMPDEST PUSH2 0x138 PUSH1 0x4 DUP1 CALLDATASIZE SUB DUP2 ADD SWAP1 PUSH2 0x133 SWAP2 SWAP1 PUSH2 0x155D JUMP JUMPDEST PUSH2 0x533 JUMP JUMPDEST STOP JUMPDEST PUSH2 0x154 PUSH1 0x4 DUP1 CALLDATASIZE SUB DUP2 ADD SWAP1 PUSH2 0x14F SWAP2 SWAP1 PUSH2 0x159B JUMP JUMPDEST PUSH2 0x738 JUMP JUMPDEST STOP JUMPDEST PUSH2 0x170 PUSH1 0x4 DUP1 CALLDATASIZE SUB DUP2 ADD SWAP1 PUSH2 0x16B SWAP2 SWAP1 PUSH2 0x1702 JUMP JUMPDEST PUSH2 0x849 JUMP JUMPDEST STOP JUMPDEST PUSH2 0x17A PUSH2 0xA10 JUMP JUMPDEST PUSH1 0x40 MLOAD PUSH2 0x187 SWAP2 SWAP1 PUSH2 0x176B JUMP JUMPDEST PUSH1 0x40 MLOAD DUP1 SWAP2 SUB SWAP1 RETURN JUMPDEST PUSH2 0x198 PUSH2 0xA16 JUMP JUMPDEST STOP JUMPDEST PUSH2 0x1B4 PUSH1 0x4 DUP1 CALLDATASIZE SUB DUP2 ADD SWAP1 PUSH2 0x1AF SWAP2 SWAP1 PUSH2 0x155D JUMP JUMPDEST PUSH2 0xA29 JUMP JUMPDEST PUSH1 0x40 MLOAD PUSH2 0x1C1 SWAP2 SWAP1 PUSH2 0x179E JUMP JUMPDEST PUSH1 0x40 MLOAD DUP1 SWAP2 SUB SWAP1 RETURN JUMPDEST PUSH2 0x1E4 PUSH1 0x4 DUP1 CALLDATASIZE SUB DUP2 ADD SWAP1 PUSH2 0x1DF SWAP2 SWAP1 PUSH2 0x159B JUMP JUMPDEST PUSH2 0xA90 JUMP JUMPDEST PUSH1 0x40 MLOAD PUSH2 0x1F1 SWAP2 SWAP1 PUSH2 0x1860 JUMP JUMPDEST PUSH1 0x40 MLOAD DUP1 SWAP2 SUB SWAP1 RETURN JUMPDEST PUSH2 0x214 PUSH1 0x4 DUP1 CALLDATASIZE SUB DUP2 ADD SWAP1 PUSH2 0x20F SWAP2 SWAP1 PUSH2 0x159B JUMP JUMPDEST PUSH2 0xBF4 JUMP JUMPDEST STOP JUMPDEST PUSH2 0x21E PUSH2 0xD04 JUMP JUMPDEST PUSH1 0x40 MLOAD PUSH2 0x22B SWAP2 SWAP1 PUSH2 0x188F JUMP JUMPDEST PUSH1 0x40 MLOAD DUP1 SWAP2 SUB SWAP1 RETURN JUMPDEST PUSH2 0x24E PUSH1 0x4 DUP1 CALLDATASIZE SUB DUP2 ADD SWAP1 PUSH2 0x249 SWAP2 SWAP1 PUSH2 0x159B JUMP JUMPDEST PUSH2 0xD2B JUMP JUMPDEST STOP JUMPDEST PUSH2 0x26A PUSH1 0x4 DUP1 CALLDATASIZE SUB DUP2 ADD SWAP1 PUSH2 0x265 SWAP2 SWAP1 PUSH2 0x159B JUMP JUMPDEST PUSH2 0xE3C JUMP JUMPDEST PUSH1 0x40 MLOAD PUSH2 0x277 SWAP2 SWAP1 PUSH2 0x199D JUMP JUMPDEST PUSH1 0x40 MLOAD DUP1 SWAP2 SUB SWAP1 RETURN JUMPDEST PUSH2 0x29A PUSH1 0x4 DUP1 CALLDATASIZE SUB DUP2 ADD SWAP1 PUSH2 0x295 SWAP2 SWAP1 PUSH2 0x159B JUMP JUMPDEST PUSH2 0xF45 JUMP JUMPDEST STOP JUMPDEST PUSH2 0x2B6 PUSH1 0x4 DUP1 CALLDATASIZE SUB DUP2 ADD SWAP1 PUSH2 0x2B1 SWAP2 SWAP1 PUSH2 0x159B JUMP JUMPDEST PUSH2 0x1056 JUMP JUMPDEST STOP JUMPDEST PUSH2 0x2C0 PUSH2 0x11F5 JUMP JUMPDEST STOP JUMPDEST PUSH2 0x2DC PUSH1 0x4 DUP1 CALLDATASIZE SUB DUP2 ADD SWAP1 PUSH2 0x2D7 SWAP2 SWAP1 PUSH2 0x19BD JUMP JUMPDEST PUSH2 0x1295 JUMP JUMPDEST STOP JUMPDEST PUSH0 PUSH1 0x2 PUSH0 DUP5 DUP2 MSTORE PUSH1 0x20 ADD SWAP1 DUP2 MSTORE PUSH1 0x20 ADD PUSH0 KECCAK256 SWAP1 POP PUSH1 0x3 PUSH1 0x5 DUP2 GT ISZERO PUSH2 0x306 JUMPI PUSH2 0x305 PUSH2 0x19E8 JUMP JUMPDEST JUMPDEST DUP2 PUSH0 ADD PUSH0 SWAP1 SLOAD SWAP1 PUSH2 0x100 EXP SWAP1 DIV PUSH1 0xFF AND PUSH1 0x5 DUP2 GT ISZERO PUSH2 0x328 JUMPI PUSH2 0x327 PUSH2 0x19E8 JUMP JUMPDEST JUMPDEST EQ PUSH2 0x368 JUMPI PUSH1 0x40 MLOAD PUSH32 0x8C379A000000000000000000000000000000000000000000000000000000000 DUP2 MSTORE PUSH1 0x4 ADD PUSH2 0x35F SWAP1 PUSH2 0x1A6F JUMP JUMPDEST PUSH1 0x40 MLOAD DUP1 SWAP2 SUB SWAP1 REVERT JUMPDEST DUP1 PUSH1 0x1 ADD DUP1 SLOAD SWAP1 POP DUP3 LT PUSH2 0x3B1 JUMPI PUSH1 0x40 MLOAD PUSH32 0x8C379A000000000000000000000000000000000000000000000000000000000 DUP2 MSTORE PUSH1 0x4 ADD PUSH2 0x3A8 SWAP1 PUSH2 0x1AD7 JUMP JUMPDEST PUSH1 0x40 MLOAD DUP1 SWAP2 SUB SWAP1 REVERT JUMPDEST PUSH0 DUP2 PUSH1 0x2 ADD PUSH0 CALLER PUSH20 0xFFFFFFFFFFFFFFFFFFFFFFFFFFFFFFFFFFFFFFFF AND PUSH20 0xFFFFFFFFFFFFFFFFFFFFFFFFFFFFFFFFFFFFFFFF AND DUP2 MSTORE PUSH1 0x20 ADD SWAP1 DUP2 MSTORE PUSH1 0x20 ADD PUSH0 KECCAK256 SWAP1 POP DUP1 PUSH0 ADD PUSH0 SWAP1 SLOAD SWAP1 PUSH2 0x100 EXP SWAP1 DIV PUSH1 0xFF AND PUSH2 0x442 JUMPI PUSH1 0x40 MLOAD PUSH32 0x8C379A000000000000000000000000000000000000000000000000000000000 DUP2 MSTORE PUSH1 0x4 ADD PUSH2 0x439 SWAP1 PUSH2 0x1B3F JUMP JUMPDEST PUSH1 0x40 MLOAD DUP1 SWAP2 SUB SWAP1 REVERT JUMPDEST DUP1 PUSH0 ADD PUSH1 0x1 SWAP1 SLOAD SWAP1 PUSH2 0x100 EXP SWAP1 DIV PUSH1 0xFF AND ISZERO PUSH2 0x493 JUMPI PUSH1 0x40 MLOAD PUSH32 0x8C379A000000000000000000000000000000000000000000000000000000000 DUP2 MSTORE PUSH1 0x4 ADD PUSH2 0x48A SWAP1 PUSH2 0x1BA7 JUMP JUMPDEST PUSH1 0x40 MLOAD DUP1 SWAP2 SUB SWAP1 REVERT JUMPDEST DUP2 PUSH1 0x1 ADD DUP4 DUP2 SLOAD DUP2 LT PUSH2 0x4A9 JUMPI PUSH2 0x4A8 PUSH2 0x1BC5 JUMP JUMPDEST JUMPDEST SWAP1 PUSH0 MSTORE PUSH1 0x20 PUSH0 KECCAK256 SWAP1 PUSH1 0x2 MUL ADD PUSH1 0x1 ADD PUSH0 DUP2 SLOAD DUP1 SWAP3 SWAP2 SWAP1 PUSH2 0x4C8 SWAP1 PUSH2 0x1C1F JUMP JUMPDEST SWAP2 SWAP1 POP SSTORE POP PUSH1 0x1 DUP2 PUSH0 ADD PUSH1 0x1 PUSH2 0x100 EXP DUP2 SLOAD DUP2 PUSH1 0xFF MUL NOT AND SWAP1 DUP4 ISZERO ISZERO MUL OR SWAP1 SSTORE POP DUP3 DUP2 PUSH1 0x1 ADD DUP2 SWAP1 SSTORE POP PUSH32 0x1ABE610CF2BF87E57DCC1181FCF5AC0934E843D8344AB9EED6E86C799F62585E DUP5 CALLER DUP6 PUSH1 0x40 MLOAD PUSH2 0x525 SWAP4 SWAP3 SWAP2 SWAP1 PUSH2 0x1C66 JUMP JUMPDEST PUSH1 0x40 MLOAD DUP1 SWAP2 SUB SWAP1 LOG1 POP POP POP POP JUMP JUMPDEST PUSH2 0x53B PUSH2 0x1319 JUMP JUMPDEST PUSH0 PUSH1 0x2 PUSH0 DUP5 DUP2 MSTORE PUSH1 0x20 ADD SWAP1 DUP2 MSTORE PUSH1 0x20 ADD PUSH0 KECCAK256 SWAP1 POP PUSH0 PUSH1 0x5 DUP2 GT ISZERO PUSH2 0x562 JUMPI PUSH2 0x561 PUSH2 0x19E8 JUMP JUMPDEST JUMPDEST DUP2 PUSH0 ADD PUSH0 SWAP1 SLOAD SWAP1 PUSH2 0x100 EXP SWAP1 DIV PUSH1 0xFF AND PUSH1 0x5 DUP2 GT ISZERO PUSH2 0x584 JUMPI PUSH2 0x583 PUSH2 0x19E8 JUMP JUMPDEST JUMPDEST EQ PUSH2 0x5C4 JUMPI PUSH1 0x40 MLOAD PUSH32 0x8C379A000000000000000000000000000000000000000000000000000000000 DUP2 MSTORE PUSH1 0x4 ADD PUSH2 0x5BB SWAP1 PUSH2 0x1CE5 JUMP JUMPDEST PUSH1 0x40 MLOAD DUP1 SWAP2 SUB SWAP1 REVERT JUMPDEST DUP1 PUSH1 0x2 ADD PUSH0 DUP4 PUSH20 0xFFFFFFFFFFFFFFFFFFFFFFFFFFFFFFFFFFFFFFFF AND PUSH20 0xFFFFFFFFFFFFFFFFFFFFFFFFFFFFFFFFFFFFFFFF AND DUP2 MSTORE PUSH1 0x20 ADD SWAP1 DUP2 MSTORE PUSH1 0x20 ADD PUSH0 KECCAK256 PUSH0 ADD PUSH0 SWAP1 SLOAD SWAP1 PUSH2 0x100 EXP SWAP1 DIV PUSH1 0xFF AND ISZERO PUSH2 0x652 JUMPI PUSH1 0x40 MLOAD PUSH32 0x8C379A000000000000000000000000000000000000000000000000000000000 DUP2 MSTORE PUSH1 0x4 ADD PUSH2 0x649 SWAP1 PUSH2 0x1D4D JUMP JUMPDEST PUSH1 0x40 MLOAD DUP1 SWAP2 SUB SWAP1 REVERT JUMPDEST PUSH1 0x40 MLOAD DUP1 PUSH1 0x60 ADD PUSH1 0x40 MSTORE DUP1 PUSH1 0x1 ISZERO ISZERO DUP2 MSTORE PUSH1 0x20 ADD PUSH0 ISZERO ISZERO DUP2 MSTORE PUSH1 0x20 ADD PUSH0 DUP2 MSTORE POP DUP2 PUSH1 0x2 ADD PUSH0 DUP5 PUSH20 0xFFFFFFFFFFFFFFFFFFFFFFFFFFFFFFFFFFFFFFFF AND PUSH20 0xFFFFFFFFFFFFFFFFFFFFFFFFFFFFFFFFFFFFFFFF AND DUP2 MSTORE PUSH1 0x20 ADD SWAP1 DUP2 MSTORE PUSH1 0x20 ADD PUSH0 KECCAK256 PUSH0 DUP3 ADD MLOAD DUP2 PUSH0 ADD PUSH0 PUSH2 0x100 EXP DUP2 SLOAD DUP2 PUSH1 0xFF MUL NOT AND SWAP1 DUP4 ISZERO ISZERO MUL OR SWAP1 SSTORE POP PUSH1 0x20 DUP3 ADD MLOAD DUP2 PUSH0 ADD PUSH1 0x1 PUSH2 0x100 EXP DUP2 SLOAD DUP2 PUSH1 0xFF MUL NOT AND SWAP1 DUP4 ISZERO ISZERO MUL OR SWAP1 SSTORE POP PUSH1 0x40 DUP3 ADD MLOAD DUP2 PUSH1 0x1 ADD SSTORE SWAP1 POP POP PUSH32 0xF45B8429C36D478F9A6D081C4811A819B98AA5B608588BED9D406405CF282473 DUP4 DUP4 PUSH1 0x40 MLOAD PUSH2 0x72B SWAP3 SWAP2 SWAP1 PUSH2 0x1D6B JUMP JUMPDEST PUSH1 0x40 MLOAD DUP1 SWAP2 SUB SWAP1 LOG1 POP POP POP JUMP JUMPDEST PUSH2 0x740 PUSH2 0x1319 JUMP JUMPDEST PUSH0 PUSH1 0x2 PUSH0 DUP4 DUP2 MSTORE PUSH1 0x20 ADD SWAP1 DUP2 MSTORE PUSH1 0x20 ADD PUSH0 KECCAK256 SWAP1 POP PUSH1 0x3 PUSH1 0x5 DUP2 GT ISZERO PUSH2 0x768 JUMPI PUSH2 0x767 PUSH2 0x19E8 JUMP JUMPDEST JUMPDEST DUP2 PUSH0 ADD PUSH0 SWAP1 SLOAD SWAP1 PUSH2 0x100 EXP SWAP1 DIV PUSH1 0xFF AND PUSH1 0x5 DUP2 GT ISZERO PUSH2 0x78A JUMPI PUSH2 0x789 PUSH2 0x19E8 JUMP JUMPDEST JUMPDEST EQ PUSH2 0x7CA JUMPI PUSH1 0x40 MLOAD PUSH32 0x8C379A000000000000000000000000000000000000000000000000000000000 DUP2 MSTORE PUSH1 0x4 ADD PUSH2 0x7C1 SWAP1 PUSH2 0x1A6F JUMP JUMPDEST PUSH1 0x40 MLOAD DUP1 SWAP2 SUB SWAP1 REVERT JUMPDEST PUSH0 DUP2 PUSH0 ADD PUSH0 SWAP1 SLOAD SWAP1 PUSH2 0x100 EXP SWAP1 DIV PUSH1 0xFF AND SWAP1 POP PUSH1 0x4 DUP3 PUSH0 ADD PUSH0 PUSH2 0x100 EXP DUP2 SLOAD DUP2 PUSH1 0xFF MUL NOT AND SWAP1 DUP4 PUSH1 0x5 DUP2 GT ISZERO PUSH2 0x803 JUMPI PUSH2 0x802 PUSH2 0x19E8 JUMP JUMPDEST JUMPDEST MUL OR SWAP1 SSTORE POP PUSH32 0xB067099E10826978A3867510AD1E0DCF4CA5CEF8E422FD8DF2FC3D679167FE8D DUP4 DUP3 PUSH1 0x4 PUSH1 0x40 MLOAD PUSH2 0x83C SWAP4 SWAP3 SWAP2 SWAP1 PUSH2 0x1DD8 JUMP JUMPDEST PUSH1 0x40 MLOAD DUP1 SWAP2 SUB SWAP1 LOG1 POP POP POP JUMP JUMPDEST PUSH0 PUSH1 0x2 PUSH0 DUP5 DUP2 MSTORE PUSH1 0x20 ADD SWAP1 DUP2 MSTORE PUSH1 0x20 ADD PUSH0 KECCAK256 SWAP1 POP PUSH1 0x1 PUSH1 0x5 DUP2 GT ISZERO PUSH2 0x871 JUMPI PUSH2 0x870 PUSH2 0x19E8 JUMP JUMPDEST JUMPDEST DUP2 PUSH0 ADD PUSH0 SWAP1 SLOAD SWAP1 PUSH2 0x100 EXP SWAP1 DIV PUSH1 0xFF AND PUSH1 0x5 DUP2 GT ISZERO PUSH2 0x893 JUMPI PUSH2 0x892 PUSH2 0x19E8 JUMP JUMPDEST JUMPDEST EQ PUSH2 0x8D3 JUMPI PUSH1 0x40 MLOAD PUSH32 0x8C379A000000000000000000000000000000000000000000000000000000000 DUP2 MSTORE PUSH1 0x4 ADD PUSH2 0x8CA SWAP1 PUSH2 0x1E7D JUMP JUMPDEST PUSH1 0x40 MLOAD DUP1 SWAP2 SUB SWAP1 REVERT JUMPDEST DUP1 PUSH1 0x2 ADD PUSH0 CALLER PUSH20 0xFFFFFFFFFFFFFFFFFFFFFFFFFFFFFFFFFFFFFFFF AND PUSH20 0xFFFFFFFFFFFFFFFFFFFFFFFFFFFFFFFFFFFFFFFF AND DUP2 MSTORE PUSH1 0x20 ADD SWAP1 DUP2 MSTORE PUSH1 0x20 ADD PUSH0 KECCAK256 PUSH0 ADD PUSH0 SWAP1 SLOAD SWAP1 PUSH2 0x100 EXP SWAP1 DIV PUSH1 0xFF AND PUSH2 0x960 JUMPI PUSH1 0x40 MLOAD PUSH32 0x8C379A000000000000000000000000000000000000000000000000000000000 DUP2 MSTORE PUSH1 0x4 ADD PUSH2 0x957 SWAP1 PUSH2 0x1EE5 JUMP JUMPDEST PUSH1 0x40 MLOAD DUP1 SWAP2 SUB SWAP1 REVERT JUMPDEST DUP1 PUSH1 0x1 ADD PUSH1 0x40 MLOAD DUP1 PUSH1 0x40 ADD PUSH1 0x40 MSTORE DUP1 DUP5 DUP2 MSTORE PUSH1 0x20 ADD PUSH0 DUP2 MSTORE POP SWAP1 DUP1 PUSH1 0x1 DUP2 SLOAD ADD DUP1 DUP3 SSTORE DUP1 SWAP2 POP POP PUSH1 0x1 SWAP1 SUB SWAP1 PUSH0 MSTORE PUSH1 0x20 PUSH0 KECCAK256 SWAP1 PUSH1 0x2 MUL ADD PUSH0 SWAP1 SWAP2 SWAP1 SWAP2 SWAP1 SWAP2 POP PUSH0 DUP3 ADD MLOAD DUP2 PUSH0 ADD SWAP1 DUP2 PUSH2 0x9B2 SWAP2 SWAP1 PUSH2 0x2100 JUMP JUMPDEST POP PUSH1 0x20 DUP3 ADD MLOAD DUP2 PUSH1 0x1 ADD SSTORE POP POP PUSH32 0xCA195036D7C4D40B171AD51E9C891C830A0AD9A5E114B5B075CDF791317E300C DUP4 PUSH1 0x1 DUP4 PUSH1 0x1 ADD DUP1 SLOAD SWAP1 POP PUSH2 0x9F5 SWAP2 SWAP1 PUSH2 0x21CF JUMP JUMPDEST PUSH1 0x40 MLOAD PUSH2 0xA03 SWAP3 SWAP2 SWAP1 PUSH2 0x2202 JUMP JUMPDEST PUSH1 0x40 MLOAD DUP1 SWAP2 SUB SWAP1 LOG1 POP POP POP JUMP JUMPDEST PUSH1 0x1 SLOAD DUP2 JUMP JUMPDEST PUSH2 0xA1E PUSH2 0x1319 JUMP JUMPDEST PUSH2 0xA27 PUSH0 PUSH2 0x13A0 JUMP JUMPDEST JUMP JUMPDEST PUSH0 PUSH1 0x2 PUSH0 DUP5 DUP2 MSTORE PUSH1 0x20 ADD SWAP1 DUP2 MSTORE PUSH1 0x20 ADD PUSH0 KECCAK256 PUSH1 0x2 ADD PUSH0 DUP4 PUSH20 0xFFFFFFFFFFFFFFFFFFFFFFFFFFFFFFFFFFFFFFFF AND PUSH20 0xFFFFFFFFFFFFFFFFFFFFFFFFFFFFFFFFFFFFFFFF AND DUP2 MSTORE PUSH1 0x20 ADD SWAP1 DUP2 MSTORE PUSH1 0x20 ADD PUSH0 KECCAK256 PUSH0 ADD PUSH0 SWAP1 SLOAD SWAP1 PUSH2 0x100 EXP SWAP1 DIV PUSH1 0xFF AND SWAP1 POP SWAP3 SWAP2 POP POP JUMP JUMPDEST PUSH2 0xA98 PUSH2 0x1468 JUMP JUMPDEST PUSH0 PUSH1 0x2 PUSH0 DUP5 DUP2 MSTORE PUSH1 0x20 ADD SWAP1 DUP2 MSTORE PUSH1 0x20 ADD PUSH0 KECCAK256 SWAP1 POP PUSH1 0x5 DUP1 DUP2 GT ISZERO PUSH2 0xABF JUMPI PUSH2 0xABE PUSH2 0x19E8 JUMP JUMPDEST JUMPDEST DUP2 PUSH0 ADD PUSH0 SWAP1 SLOAD SWAP1 PUSH2 0x100 EXP SWAP1 DIV PUSH1 0xFF AND PUSH1 0x5 DUP2 GT ISZERO PUSH2 0xAE1 JUMPI PUSH2 0xAE0 PUSH2 0x19E8 JUMP JUMPDEST JUMPDEST LT ISZERO PUSH2 0xB22 JUMPI PUSH1 0x40 MLOAD PUSH32 0x8C379A000000000000000000000000000000000000000000000000000000000 DUP2 MSTORE PUSH1 0x4 ADD PUSH2 0xB19 SWAP1 PUSH2 0x2273 JUMP JUMPDEST PUSH1 0x40 MLOAD DUP1 SWAP2 SUB SWAP1 REVERT JUMPDEST DUP1 PUSH1 0x1 ADD DUP2 PUSH1 0x3 ADD SLOAD DUP2 SLOAD DUP2 LT PUSH2 0xB3C JUMPI PUSH2 0xB3B PUSH2 0x1BC5 JUMP JUMPDEST JUMPDEST SWAP1 PUSH0 MSTORE PUSH1 0x20 PUSH0 KECCAK256 SWAP1 PUSH1 0x2 MUL ADD PUSH1 0x40 MLOAD DUP1 PUSH1 0x40 ADD PUSH1 0x40 MSTORE SWAP1 DUP2 PUSH0 DUP3 ADD DUP1 SLOAD PUSH2 0xB62 SWAP1 PUSH2 0x1F30 JUMP JUMPDEST DUP1 PUSH1 0x1F ADD PUSH1 0x20 DUP1 SWAP2 DIV MUL PUSH1 0x20 ADD PUSH1 0x40 MLOAD SWAP1 DUP2 ADD PUSH1 0x40 MSTORE DUP1 SWAP3 SWAP2 SWAP1 DUP2 DUP2 MSTORE PUSH1 0x20 ADD DUP3 DUP1 SLOAD PUSH2 0xB8E SWAP1 PUSH2 0x1F30 JUMP JUMPDEST DUP1 ISZERO PUSH2 0xBD9 JUMPI DUP1 PUSH1 0x1F LT PUSH2 0xBB0 JUMPI PUSH2 0x100 DUP1 DUP4 SLOAD DIV MUL DUP4 MSTORE SWAP2 PUSH1 0x20 ADD SWAP2 PUSH2 0xBD9 JUMP JUMPDEST DUP3 ADD SWAP2 SWAP1 PUSH0 MSTORE PUSH1 0x20 PUSH0 KECCAK256 SWAP1 JUMPDEST DUP2 SLOAD DUP2 MSTORE SWAP1 PUSH1 0x1 ADD SWAP1 PUSH1 0x20 ADD DUP1 DUP4 GT PUSH2 0xBBC JUMPI DUP3 SWAP1 SUB PUSH1 0x1F AND DUP3 ADD SWAP2 JUMPDEST POP POP POP POP POP DUP2 MSTORE PUSH1 0x20 ADD PUSH1 0x1 DUP3 ADD SLOAD DUP2 MSTORE POP POP SWAP2 POP POP SWAP2 SWAP1 POP JUMP JUMPDEST PUSH2 0xBFC PUSH2 0x1319 JUMP JUMPDEST PUSH0 PUSH1 0x2 PUSH0 DUP4 DUP2 MSTORE PUSH1 0x20 ADD SWAP1 DUP2 MSTORE PUSH1 0x20 ADD PUSH0 KECCAK256 SWAP1 POP PUSH0 PUSH1 0x5 DUP2 GT ISZERO PUSH2 0xC23 JUMPI PUSH2 0xC22 PUSH2 0x19E8 JUMP JUMPDEST JUMPDEST DUP2 PUSH0 ADD PUSH0 SWAP1 SLOAD SWAP1 PUSH2 0x100 EXP SWAP1 DIV PUSH1 0xFF AND PUSH1 0x5 DUP2 GT ISZERO PUSH2 0xC45 JUMPI PUSH2 0xC44 PUSH2 0x19E8 JUMP JUMPDEST JUMPDEST EQ PUSH2 0xC85 JUMPI PUSH1 0x40 MLOAD PUSH32 0x8C379A000000000000000000000000000000000000000000000000000000000 DUP2 MSTORE PUSH1 0x4 ADD PUSH2 0xC7C SWAP1 PUSH2 0x22DB JUMP JUMPDEST PUSH1 0x40 MLOAD DUP1 SWAP2 SUB SWAP1 REVERT JUMPDEST PUSH0 DUP2 PUSH0 ADD PUSH0 SWAP1 SLOAD SWAP1 PUSH2 0x100 EXP SWAP1 DIV PUSH1 0xFF AND SWAP1 POP PUSH1 0x1 DUP3 PUSH0 ADD PUSH0 PUSH2 0x100 EXP DUP2 SLOAD DUP2 PUSH1 0xFF MUL NOT AND SWAP1 DUP4 PUSH1 0x5 DUP2 GT ISZERO PUSH2 0xCBE JUMPI PUSH2 0xCBD PUSH2 0x19E8 JUMP JUMPDEST JUMPDEST MUL OR SWAP1 SSTORE POP PUSH32 0xB067099E10826978A3867510AD1E0DCF4CA5CEF8E422FD8DF2FC3D679167FE8D DUP4 DUP3 PUSH1 0x1 PUSH1 0x40 MLOAD PUSH2 0xCF7 SWAP4 SWAP3 SWAP2 SWAP1 PUSH2 0x1DD8 JUMP JUMPDEST PUSH1 0x40 MLOAD DUP1 SWAP2 SUB SWAP1 LOG1 POP POP POP JUMP JUMPDEST PUSH0 PUSH0 PUSH0 SWAP1 SLOAD SWAP1 PUSH2 0x100 EXP SWAP1 DIV PUSH20 0xFFFFFFFFFFFFFFFFFFFFFFFFFFFFFFFFFFFFFFFF AND SWAP1 POP SWAP1 JUMP JUMPDEST PUSH2 0xD33 PUSH2 0x1319 JUMP JUMPDEST PUSH0 PUSH1 0x2 PUSH0 DUP4 DUP2 MSTORE PUSH1 0x20 ADD SWAP1 DUP2 MSTORE PUSH1 0x20 ADD PUSH0 KECCAK256 SWAP1 POP PUSH1 0x2 PUSH1 0x5 DUP2 GT ISZERO PUSH2 0xD5B JUMPI PUSH2 0xD5A PUSH2 0x19E8 JUMP JUMPDEST JUMPDEST DUP2 PUSH0 ADD PUSH0 SWAP1 SLOAD SWAP1 PUSH2 0x100 EXP SWAP1 DIV PUSH1 0xFF AND PUSH1 0x5 DUP2 GT ISZERO PUSH2 0xD7D JUMPI PUSH2 0xD7C PUSH2 0x19E8 JUMP JUMPDEST JUMPDEST EQ PUSH2 0xDBD JUMPI PUSH1 0x40 MLOAD PUSH32 0x8C379A000000000000000000000000000000000000000000000000000000000 DUP2 MSTORE PUSH1 0x4 ADD PUSH2 0xDB4 SWAP1 PUSH2 0x22DB JUMP JUMPDEST PUSH1 0x40 MLOAD DUP1 SWAP2 SUB SWAP1 REVERT JUMPDEST PUSH0 DUP2 PUSH0 ADD PUSH0 SWAP1 SLOAD SWAP1 PUSH2 0x100 EXP SWAP1 DIV PUSH1 0xFF AND SWAP1 POP PUSH1 0x3 DUP3 PUSH0 ADD PUSH0 PUSH2 0x100 EXP DUP2 SLOAD DUP2 PUSH1 0xFF MUL NOT AND SWAP1 DUP4 PUSH1 0x5 DUP2 GT ISZERO PUSH2 0xDF6 JUMPI PUSH2 0xDF5 PUSH2 0x19E8 JUMP JUMPDEST JUMPDEST MUL OR SWAP1 SSTORE POP PUSH32 0xB067099E10826978A3867510AD1E0DCF4CA5CEF8E422FD8DF2FC3D679167FE8D DUP4 DUP3 PUSH1 0x3 PUSH1 0x40 MLOAD PUSH2 0xE2F SWAP4 SWAP3 SWAP2 SWAP1 PUSH2 0x1DD8 JUMP JUMPDEST PUSH1 0x40 MLOAD DUP1 SWAP2 SUB SWAP1 LOG1 POP POP POP JUMP JUMPDEST PUSH1 0x60 PUSH1 0x2 PUSH0 DUP4 DUP2 MSTORE PUSH1 0x20 ADD SWAP1 DUP2 MSTORE PUSH1 0x20 ADD PUSH0 KECCAK256 PUSH1 0x1 ADD DUP1 SLOAD DUP1 PUSH1 0x20 MUL PUSH1 0x20 ADD PUSH1 0x40 MLOAD SWAP1 DUP2 ADD PUSH1 0x40 MSTORE DUP1 SWAP3 SWAP2 SWAP1 DUP2 DUP2 MSTORE PUSH1 0x20 ADD PUSH0 SWAP1 JUMPDEST DUP3 DUP3 LT ISZERO PUSH2 0xF3A JUMPI DUP4 DUP3 SWAP1 PUSH0 MSTORE PUSH1 0x20 PUSH0 KECCAK256 SWAP1 PUSH1 0x2 MUL ADD PUSH1 0x40 MLOAD DUP1 PUSH1 0x40 ADD PUSH1 0x40 MSTORE SWAP1 DUP2 PUSH0 DUP3 ADD DUP1 SLOAD PUSH2 0xEA1 SWAP1 PUSH2 0x1F30 JUMP JUMPDEST DUP1 PUSH1 0x1F ADD PUSH1 0x20 DUP1 SWAP2 DIV MUL PUSH1 0x20 ADD PUSH1 0x40 MLOAD SWAP1 DUP2 ADD PUSH1 0x40 MSTORE DUP1 SWAP3 SWAP2 SWAP1 DUP2 DUP2 MSTORE PUSH1 0x20 ADD DUP3 DUP1 SLOAD PUSH2 0xECD SWAP1 PUSH2 0x1F30 JUMP JUMPDEST DUP1 ISZERO PUSH2 0xF18 JUMPI DUP1 PUSH1 0x1F LT PUSH2 0xEEF JUMPI PUSH2 0x100 DUP1 DUP4 SLOAD DIV MUL DUP4 MSTORE SWAP2 PUSH1 0x20 ADD SWAP2 PUSH2 0xF18 JUMP JUMPDEST DUP3 ADD SWAP2 SWAP1 PUSH0 MSTORE PUSH1 0x20 PUSH0 KECCAK256 SWAP1 JUMPDEST DUP2 SLOAD DUP2 MSTORE SWAP1 PUSH1 0x1 ADD SWAP1 PUSH1 0x20 ADD DUP1 DUP4 GT PUSH2 0xEFB JUMPI DUP3 SWAP1 SUB PUSH1 0x1F AND DUP3 ADD SWAP2 JUMPDEST POP POP POP POP POP DUP2 MSTORE PUSH1 0x20 ADD PUSH1 0x1 DUP3 ADD SLOAD DUP2 MSTORE POP POP DUP2 MSTORE PUSH1 0x20 ADD SWAP1 PUSH1 0x1 ADD SWAP1 PUSH2 0xE71 JUMP JUMPDEST POP POP POP POP SWAP1 POP SWAP2 SWAP1 POP JUMP JUMPDEST PUSH2 0xF4D PUSH2 0x1319 JUMP JUMPDEST PUSH0 PUSH1 0x2 PUSH0 DUP4 DUP2 MSTORE PUSH1 0x20 ADD SWAP1 DUP2 MSTORE PUSH1 0x20 ADD PUSH0 KECCAK256 SWAP1 POP PUSH1 0x1 PUSH1 0x5 DUP2 GT ISZERO PUSH2 0xF75 JUMPI PUSH2 0xF74 PUSH2 0x19E8 JUMP JUMPDEST JUMPDEST DUP2 PUSH0 ADD PUSH0 SWAP1 SLOAD SWAP1 PUSH2 0x100 EXP SWAP1 DIV PUSH1 0xFF AND PUSH1 0x5 DUP2 GT ISZERO PUSH2 0xF97 JUMPI PUSH2 0xF96 PUSH2 0x19E8 JUMP JUMPDEST JUMPDEST EQ PUSH2 0xFD7 JUMPI PUSH1 0x40 MLOAD PUSH32 0x8C379A000000000000000000000000000000000000000000000000000000000 DUP2 MSTORE PUSH1 0x4 ADD PUSH2 0xFCE SWAP1 PUSH2 0x22DB JUMP JUMPDEST PUSH1 0x40 MLOAD DUP1 SWAP2 SUB SWAP1 REVERT JUMPDEST PUSH0 DUP2 PUSH0 ADD PUSH0 SWAP1 SLOAD SWAP1 PUSH2 0x100 EXP SWAP1 DIV PUSH1 0xFF AND SWAP1 POP PUSH1 0x2 DUP3 PUSH0 ADD PUSH0 PUSH2 0x100 EXP DUP2 SLOAD DUP2 PUSH1 0xFF MUL NOT AND SWAP1 DUP4 PUSH1 0x5 DUP2 GT ISZERO PUSH2 0x1010 JUMPI PUSH2 0x100F PUSH2 0x19E8 JUMP JUMPDEST JUMPDEST MUL OR SWAP1 SSTORE POP PUSH32 0xB067099E10826978A3867510AD1E0DCF4CA5CEF8E422FD8DF2FC3D679167FE8D DUP4 DUP3 PUSH1 0x2 PUSH1 0x40 MLOAD PUSH2 0x1049 SWAP4 SWAP3 SWAP2 SWAP1 PUSH2 0x1DD8 JUMP JUMPDEST PUSH1 0x40 MLOAD DUP1 SWAP2 SUB SWAP1 LOG1 POP POP POP JUMP JUMPDEST PUSH2 0x105E PUSH2 0x1319 JUMP JUMPDEST PUSH0 PUSH1 0x2 PUSH0 DUP4 DUP2 MSTORE PUSH1 0x20 ADD SWAP1 DUP2 MSTORE PUSH1 0x20 ADD PUSH0 KECCAK256 SWAP1 POP PUSH1 0x4 PUSH1 0x5 DUP2 GT ISZERO PUSH2 0x1086 JUMPI PUSH2 0x1085 PUSH2 0x19E8 JUMP JUMPDEST JUMPDEST DUP2 PUSH0 ADD PUSH0 SWAP1 SLOAD SWAP1 PUSH2 0x100 EXP SWAP1 DIV PUSH1 0xFF AND PUSH1 0x5 DUP2 GT ISZERO PUSH2 0x10A8 JUMPI PUSH2 0x10A7 PUSH2 0x19E8 JUMP JUMPDEST JUMPDEST EQ PUSH2 0x10E8 JUMPI PUSH1 0x40 MLOAD PUSH32 0x8C379A000000000000000000000000000000000000000000000000000000000 DUP2 MSTORE PUSH1 0x4 ADD PUSH2 0x10DF SWAP1 PUSH2 0x2343 JUMP JUMPDEST PUSH1 0x40 MLOAD DUP1 SWAP2 SUB SWAP1 REVERT JUMPDEST PUSH0 PUSH0 SWAP1 POP PUSH0 PUSH0 SWAP1 POP PUSH0 PUSH0 SWAP1 POP JUMPDEST DUP4 PUSH1 0x1 ADD DUP1 SLOAD SWAP1 POP DUP2 LT ISZERO PUSH2 0x116A JUMPI DUP2 DUP5 PUSH1 0x1 ADD DUP3 DUP2 SLOAD DUP2 LT PUSH2 0x111B JUMPI PUSH2 0x111A PUSH2 0x1BC5 JUMP JUMPDEST JUMPDEST SWAP1 PUSH0 MSTORE PUSH1 0x20 PUSH0 KECCAK256 SWAP1 PUSH1 0x2 MUL ADD PUSH1 0x1 ADD SLOAD GT ISZERO PUSH2 0x115D JUMPI DUP4 PUSH1 0x1 ADD DUP2 DUP2 SLOAD DUP2 LT PUSH2 0x1147 JUMPI PUSH2 0x1146 PUSH2 0x1BC5 JUMP JUMPDEST JUMPDEST SWAP1 PUSH0 MSTORE PUSH1 0x20 PUSH0 KECCAK256 SWAP1 PUSH1 0x2 MUL ADD PUSH1 0x1 ADD SLOAD SWAP2 POP DUP1 SWAP3 POP JUMPDEST DUP1 DUP1 PUSH1 0x1 ADD SWAP2 POP POP PUSH2 0x10F5 JUMP JUMPDEST POP DUP2 DUP4 PUSH1 0x3 ADD DUP2 SWAP1 SSTORE POP PUSH0 DUP4 PUSH0 ADD PUSH0 SWAP1 SLOAD SWAP1 PUSH2 0x100 EXP SWAP1 DIV PUSH1 0xFF AND SWAP1 POP PUSH1 0x5 DUP5 PUSH0 ADD PUSH0 PUSH2 0x100 EXP DUP2 SLOAD DUP2 PUSH1 0xFF MUL NOT AND SWAP1 DUP4 PUSH1 0x5 DUP2 GT ISZERO PUSH2 0x11AD JUMPI PUSH2 0x11AC PUSH2 0x19E8 JUMP JUMPDEST JUMPDEST MUL OR SWAP1 SSTORE POP PUSH32 0xB067099E10826978A3867510AD1E0DCF4CA5CEF8E422FD8DF2FC3D679167FE8D DUP6 DUP3 PUSH1 0x5 PUSH1 0x40 MLOAD PUSH2 0x11E6 SWAP4 SWAP3 SWAP2 SWAP1 PUSH2 0x1DD8 JUMP JUMPDEST PUSH1 0x40 MLOAD DUP1 SWAP2 SUB SWAP1 LOG1 POP POP POP POP POP JUMP JUMPDEST PUSH2 0x11FD PUSH2 0x1319 JUMP JUMPDEST PUSH1 0x1 PUSH0 DUP2 SLOAD DUP1 SWAP3 SWAP2 SWAP1 PUSH2 0x120F SWAP1 PUSH2 0x1C1F JUMP JUMPDEST SWAP2 SWAP1 POP SSTORE POP PUSH0 PUSH1 0x2 PUSH0 PUSH1 0x1 SLOAD DUP2 MSTORE PUSH1 0x20 ADD SWAP1 DUP2 MSTORE PUSH1 0x20 ADD PUSH0 KECCAK256 SWAP1 POP PUSH0 DUP2 PUSH0 ADD PUSH0 PUSH2 0x100 EXP DUP2 SLOAD DUP2 PUSH1 0xFF MUL NOT AND SWAP1 DUP4 PUSH1 0x5 DUP2 GT ISZERO PUSH2 0x124F JUMPI PUSH2 0x124E PUSH2 0x19E8 JUMP JUMPDEST JUMPDEST MUL OR SWAP1 SSTORE POP PUSH32 0xB067099E10826978A3867510AD1E0DCF4CA5CEF8E422FD8DF2FC3D679167FE8D PUSH1 0x1 SLOAD PUSH1 0x5 PUSH0 PUSH1 0x40 MLOAD PUSH2 0x128A SWAP4 SWAP3 SWAP2 SWAP1 PUSH2 0x1DD8 JUMP JUMPDEST PUSH1 0x40 MLOAD DUP1 SWAP2 SUB SWAP1 LOG1 POP JUMP JUMPDEST PUSH2 0x129D PUSH2 0x1319 JUMP JUMPDEST PUSH0 PUSH20 0xFFFFFFFFFFFFFFFFFFFFFFFFFFFFFFFFFFFFFFFF AND DUP2 PUSH20 0xFFFFFFFFFFFFFFFFFFFFFFFFFFFFFFFFFFFFFFFF AND SUB PUSH2 0x130D JUMPI PUSH0 PUSH1 0x40 MLOAD PUSH32 0x1E4FBDF700000000000000000000000000000000000000000000000000000000 DUP2 MSTORE PUSH1 0x4 ADD PUSH2 0x1304 SWAP2 SWAP1 PUSH2 0x188F JUMP JUMPDEST PUSH1 0x40 MLOAD DUP1 SWAP2 SUB SWAP1 REVERT JUMPDEST PUSH2 0x1316 DUP2 PUSH2 0x13A0 JUMP JUMPDEST POP JUMP JUMPDEST PUSH2 0x1321 PUSH2 0x1461 JUMP JUMPDEST PUSH20 0xFFFFFFFFFFFFFFFFFFFFFFFFFFFFFFFFFFFFFFFF AND PUSH2 0x133F PUSH2 0xD04 JUMP JUMPDEST PUSH20 0xFFFFFFFFFFFFFFFFFFFFFFFFFFFFFFFFFFFFFFFF AND EQ PUSH2 0x139E JUMPI PUSH2 0x1362 PUSH2 0x1461 JUMP JUMPDEST PUSH1 0x40 MLOAD PUSH32 0x118CDAA700000000000000000000000000000000000000000000000000000000 DUP2 MSTORE PUSH1 0x4 ADD PUSH2 0x1395 SWAP2 SWAP1 PUSH2 0x188F JUMP JUMPDEST PUSH1 0x40 MLOAD DUP1 SWAP2 SUB SWAP1 REVERT JUMPDEST JUMP JUMPDEST PUSH0 PUSH0 PUSH0 SWAP1 SLOAD SWAP1 PUSH2 0x100 EXP SWAP1 DIV PUSH20 0xFFFFFFFFFFFFFFFFFFFFFFFFFFFFFFFFFFFFFFFF AND SWAP1 POP DUP2 PUSH0 PUSH0 PUSH2 0x100 EXP DUP2 SLOAD DUP2 PUSH20 0xFFFFFFFFFFFFFFFFFFFFFFFFFFFFFFFFFFFFFFFF MUL NOT AND SWAP1 DUP4 PUSH20 0xFFFFFFFFFFFFFFFFFFFFFFFFFFFFFFFFFFFFFFFF AND MUL OR SWAP1 SSTORE POP DUP2 PUSH20 0xFFFFFFFFFFFFFFFFFFFFFFFFFFFFFFFFFFFFFFFF AND DUP2 PUSH20 0xFFFFFFFFFFFFFFFFFFFFFFFFFFFFFFFFFFFFFFFF AND PUSH32 0x8BE0079C531659141344CD1FD0A4F28419497F9722A3DAAFE3B4186F6B6457E0 PUSH1 0x40 MLOAD PUSH1 0x40 MLOAD DUP1 SWAP2 SUB SWAP1 LOG3 POP POP JUMP JUMPDEST PUSH0 CALLER SWAP1 POP SWAP1 JUMP JUMPDEST PUSH1 0x40 MLOAD DUP1 PUSH1 0x40 ADD PUSH1 0x40 MSTORE DUP1 PUSH1 0x60 DUP2 MSTORE PUSH1 0x20 ADD PUSH0 DUP2 MSTORE POP SWAP1 JUMP JUMPDEST PUSH0 PUSH1 0x40 MLOAD SWAP1 POP SWAP1 JUMP JUMPDEST PUSH0 PUSH0 REVERT JUMPDEST PUSH0 PUSH0 REVERT JUMPDEST PUSH0 DUP2 SWAP1 POP SWAP2 SWAP1 POP JUMP JUMPDEST PUSH2 0x14A4 DUP2 PUSH2 0x1492 JUMP JUMPDEST DUP2 EQ PUSH2 0x14AE JUMPI PUSH0 PUSH0 REVERT JUMPDEST POP JUMP JUMPDEST PUSH0 DUP2 CALLDATALOAD SWAP1 POP PUSH2 0x14BF DUP2 PUSH2 0x149B JUMP JUMPDEST SWAP3 SWAP2 POP POP JUMP JUMPDEST PUSH0 PUSH0 PUSH1 0x40 DUP4 DUP6 SUB SLT ISZERO PUSH2 0x14DB JUMPI PUSH2 0x14DA PUSH2 0x148A JUMP JUMPDEST JUMPDEST PUSH0 PUSH2 0x14E8 DUP6 DUP3 DUP7 ADD PUSH2 0x14B1 JUMP JUMPDEST SWAP3 POP POP PUSH1 0x20 PUSH2 0x14F9 DUP6 DUP3 DUP7 ADD PUSH2 0x14B1 JUMP JUMPDEST SWAP2 POP POP SWAP3 POP SWAP3 SWAP1 POP JUMP JUMPDEST PUSH0 PUSH20 0xFFFFFFFFFFFFFFFFFFFFFFFFFFFFFFFFFFFFFFFF DUP3 AND SWAP1 POP SWAP2 SWAP1 POP JUMP JUMPDEST PUSH0 PUSH2 0x152C DUP3 PUSH2 0x1503 JUMP JUMPDEST SWAP1 POP SWAP2 SWAP1 POP JUMP JUMPDEST PUSH2 0x153C DUP2 PUSH2 0x1522 JUMP JUMPDEST DUP2 EQ PUSH2 0x1546 JUMPI PUSH0 PUSH0 REVERT JUMPDEST POP JUMP JUMPDEST PUSH0 DUP2 CALLDATALOAD SWAP1 POP PUSH2 0x1557 DUP2 PUSH2 0x1533 JUMP JUMPDEST SWAP3 SWAP2 POP POP JUMP JUMPDEST PUSH0 PUSH0 PUSH1 0x40 DUP4 DUP6 SUB SLT ISZERO PUSH2 0x1573 JUMPI PUSH2 0x1572 PUSH2 0x148A JUMP JUMPDEST JUMPDEST PUSH0 PUSH2 0x1580 DUP6 DUP3 DUP7 ADD PUSH2 0x14B1 JUMP JUMPDEST SWAP3 POP POP PUSH1 0x20 PUSH2 0x1591 DUP6 DUP3 DUP7 ADD PUSH2 0x1549 JUMP JUMPDEST SWAP2 POP POP SWAP3 POP SWAP3 SWAP1 POP JUMP JUMPDEST PUSH0 PUSH1 0x20 DUP3 DUP5 SUB SLT ISZERO PUSH2 0x15B0 JUMPI PUSH2 0x15AF PUSH2 0x148A JUMP JUMPDEST JUMPDEST PUSH0 PUSH2 0x15BD DUP5 DUP3 DUP6 ADD PUSH2 0x14B1 JUMP JUMPDEST SWAP2 POP POP SWAP3 SWAP2 POP POP JUMP JUMPDEST PUSH0 PUSH0 REVERT JUMPDEST PUSH0 PUSH0 REVERT JUMPDEST PUSH0 PUSH1 0x1F NOT PUSH1 0x1F DUP4 ADD AND SWAP1 POP SWAP2 SWAP1 POP JUMP JUMPDEST PUSH32 0x4E487B7100000000000000000000000000000000000000000000000000000000 PUSH0 MSTORE PUSH1 0x41 PUSH1 0x4 MSTORE PUSH1 0x24 PUSH0 REVERT JUMPDEST PUSH2 0x1614 DUP3 PUSH2 0x15CE JUMP JUMPDEST DUP2 ADD DUP2 DUP2 LT PUSH8 0xFFFFFFFFFFFFFFFF DUP3 GT OR ISZERO PUSH2 0x1633 JUMPI PUSH2 0x1632 PUSH2 0x15DE JUMP JUMPDEST JUMPDEST DUP1 PUSH1 0x40 MSTORE POP POP POP JUMP JUMPDEST PUSH0 PUSH2 0x1645 PUSH2 0x1481 JUMP JUMPDEST SWAP1 POP PUSH2 0x1651 DUP3 DUP3 PUSH2 0x160B JUMP JUMPDEST SWAP2 SWAP1 POP JUMP JUMPDEST PUSH0 PUSH8 0xFFFFFFFFFFFFFFFF DUP3 GT ISZERO PUSH2 0x1670 JUMPI PUSH2 0x166F PUSH2 0x15DE JUMP JUMPDEST JUMPDEST PUSH2 0x1679 DUP3 PUSH2 0x15CE JUMP JUMPDEST SWAP1 POP PUSH1 0x20 DUP2 ADD SWAP1 POP SWAP2 SWAP1 POP JUMP JUMPDEST DUP3 DUP2 DUP4 CALLDATACOPY PUSH0 DUP4 DUP4 ADD MSTORE POP POP POP JUMP JUMPDEST PUSH0 PUSH2 0x16A6 PUSH2 0x16A1 DUP5 PUSH2 0x1656 JUMP JUMPDEST PUSH2 0x163C JUMP JUMPDEST SWAP1 POP DUP3 DUP2 MSTORE PUSH1 0x20 DUP2 ADD DUP5 DUP5 DUP5 ADD GT ISZERO PUSH2 0x16C2 JUMPI PUSH2 0x16C1 PUSH2 0x15CA JUMP JUMPDEST JUMPDEST PUSH2 0x16CD DUP5 DUP3 DUP6 PUSH2 0x1686 JUMP JUMPDEST POP SWAP4 SWAP3 POP POP POP JUMP JUMPDEST PUSH0 DUP3 PUSH1 0x1F DUP4 ADD SLT PUSH2 0x16E9 JUMPI PUSH2 0x16E8 PUSH2 0x15C6 JUMP JUMPDEST JUMPDEST DUP2 CALLDATALOAD PUSH2 0x16F9 DUP5 DUP3 PUSH1 0x20 DUP7 ADD PUSH2 0x1694 JUMP JUMPDEST SWAP2 POP POP SWAP3 SWAP2 POP POP JUMP JUMPDEST PUSH0 PUSH0 PUSH1 0x40 DUP4 DUP6 SUB SLT ISZERO PUSH2 0x1718 JUMPI PUSH2 0x1717 PUSH2 0x148A JUMP JUMPDEST JUMPDEST PUSH0 PUSH2 0x1725 DUP6 DUP3 DUP7 ADD PUSH2 0x14B1 JUMP JUMPDEST SWAP3 POP POP PUSH1 0x20 DUP4 ADD CALLDATALOAD PUSH8 0xFFFFFFFFFFFFFFFF DUP2 GT ISZERO PUSH2 0x1746 JUMPI PUSH2 0x1745 PUSH2 0x148E JUMP JUMPDEST JUMPDEST PUSH2 0x1752 DUP6 DUP3 DUP7 ADD PUSH2 0x16D5 JUMP JUMPDEST SWAP2 POP POP SWAP3 POP SWAP3 SWAP1 POP JUMP JUMPDEST PUSH2 0x1765 DUP2 PUSH2 0x1492 JUMP JUMPDEST DUP3 MSTORE POP POP JUMP JUMPDEST PUSH0 PUSH1 0x20 DUP3 ADD SWAP1 POP PUSH2 0x177E PUSH0 DUP4 ADD DUP5 PUSH2 0x175C JUMP JUMPDEST SWAP3 SWAP2 POP POP JUMP JUMPDEST PUSH0 DUP2 ISZERO ISZERO SWAP1 POP SWAP2 SWAP1 POP JUMP JUMPDEST PUSH2 0x1798 DUP2 PUSH2 0x1784 JUMP JUMPDEST DUP3 MSTORE POP POP JUMP JUMPDEST PUSH0 PUSH1 0x20 DUP3 ADD SWAP1 POP PUSH2 0x17B1 PUSH0 DUP4 ADD DUP5 PUSH2 0x178F JUMP JUMPDEST SWAP3 SWAP2 POP POP JUMP JUMPDEST PUSH0 DUP2 MLOAD SWAP1 POP SWAP2 SWAP1 POP JUMP JUMPDEST PUSH0 DUP3 DUP3 MSTORE PUSH1 0x20 DUP3 ADD SWAP1 POP SWAP3 SWAP2 POP POP JUMP JUMPDEST DUP3 DUP2 DUP4 MCOPY PUSH0 DUP4 DUP4 ADD MSTORE POP POP POP JUMP JUMPDEST PUSH0 PUSH2 0x17E9 DUP3 PUSH2 0x17B7 JUMP JUMPDEST PUSH2 0x17F3 DUP2 DUP6 PUSH2 0x17C1 JUMP JUMPDEST SWAP4 POP PUSH2 0x1803 DUP2 DUP6 PUSH1 0x20 DUP7 ADD PUSH2 0x17D1 JUMP JUMPDEST PUSH2 0x180C DUP2 PUSH2 0x15CE JUMP JUMPDEST DUP5 ADD SWAP2 POP POP SWAP3 SWAP2 POP POP JUMP JUMPDEST PUSH2 0x1820 DUP2 PUSH2 0x1492 JUMP JUMPDEST DUP3 MSTORE POP POP JUMP JUMPDEST PUSH0 PUSH1 0x40 DUP4 ADD PUSH0 DUP4 ADD MLOAD DUP5 DUP3 SUB PUSH0 DUP7 ADD MSTORE PUSH2 0x1840 DUP3 DUP3 PUSH2 0x17DF JUMP JUMPDEST SWAP2 POP POP PUSH1 0x20 DUP4 ADD MLOAD PUSH2 0x1855 PUSH1 0x20 DUP7 ADD DUP3 PUSH2 0x1817 JUMP JUMPDEST POP DUP1 SWAP2 POP POP SWAP3 SWAP2 POP POP JUMP JUMPDEST PUSH0 PUSH1 0x20 DUP3 ADD SWAP1 POP DUP2 DUP2 SUB PUSH0 DUP4 ADD MSTORE PUSH2 0x1878 DUP2 DUP5 PUSH2 0x1826 JUMP JUMPDEST SWAP1 POP SWAP3 SWAP2 POP POP JUMP JUMPDEST PUSH2 0x1889 DUP2 PUSH2 0x1522 JUMP JUMPDEST DUP3 MSTORE POP POP JUMP JUMPDEST PUSH0 PUSH1 0x20 DUP3 ADD SWAP1 POP PUSH2 0x18A2 PUSH0 DUP4 ADD DUP5 PUSH2 0x1880 JUMP JUMPDEST SWAP3 SWAP2 POP POP JUMP JUMPDEST PUSH0 DUP2 MLOAD SWAP1 POP SWAP2 SWAP1 POP JUMP JUMPDEST PUSH0 DUP3 DUP3 MSTORE PUSH1 0x20 DUP3 ADD SWAP1 POP SWAP3 SWAP2 POP POP JUMP JUMPDEST PUSH0 DUP2 SWAP1 POP PUSH1 0x20 DUP3 ADD SWAP1 POP SWAP2 SWAP1 POP JUMP JUMPDEST PUSH0 PUSH1 0x40 DUP4 ADD PUSH0 DUP4 ADD MLOAD DUP5 DUP3 SUB PUSH0 DUP7 ADD MSTORE PUSH2 0x18EB DUP3 DUP3 PUSH2 0x17DF JUMP JUMPDEST SWAP2 POP POP PUSH1 0x20 DUP4 ADD MLOAD PUSH2 0x1900 PUSH1 0x20 DUP7 ADD DUP3 PUSH2 0x1817 JUMP JUMPDEST POP DUP1 SWAP2 POP POP SWAP3 SWAP2 POP POP JUMP JUMPDEST PUSH0 PUSH2 0x1916 DUP4 DUP4 PUSH2 0x18D1 JUMP JUMPDEST SWAP1 POP SWAP3 SWAP2 POP POP JUMP JUMPDEST PUSH0 PUSH1 0x20 DUP3 ADD SWAP1 POP SWAP2 SWAP1 POP JUMP JUMPDEST PUSH0 PUSH2 0x1934 DUP3 PUSH2 0x18A8 JUMP JUMPDEST PUSH2 0x193E DUP2 DUP6 PUSH2 0x18B2 JUMP JUMPDEST SWAP4 POP DUP4 PUSH1 0x20 DUP3 MUL DUP6 ADD PUSH2 0x1950 DUP6 PUSH2 0x18C2 JUMP JUMPDEST DUP1 PUSH0 JUMPDEST DUP6 DUP2 LT ISZERO PUSH2 0x198B JUMPI DUP5 DUP5 SUB DUP10 MSTORE DUP2 MLOAD PUSH2 0x196C DUP6 DUP3 PUSH2 0x190B JUMP JUMPDEST SWAP5 POP PUSH2 0x1977 DUP4 PUSH2 0x191E JUMP JUMPDEST SWAP3 POP PUSH1 0x20 DUP11 ADD SWAP10 POP POP PUSH1 0x1 DUP2 ADD SWAP1 POP PUSH2 0x1953 JUMP JUMPDEST POP DUP3 SWAP8 POP DUP8 SWAP6 POP POP POP POP POP POP SWAP3 SWAP2 POP POP JUMP JUMPDEST PUSH0 PUSH1 0x20 DUP3 ADD SWAP1 POP DUP2 DUP2 SUB PUSH0 DUP4 ADD MSTORE PUSH2 0x19B5 DUP2 DUP5 PUSH2 0x192A JUMP JUMPDEST SWAP1 POP SWAP3 SWAP2 POP POP JUMP JUMPDEST PUSH0 PUSH1 0x20 DUP3 DUP5 SUB SLT ISZERO PUSH2 0x19D2 JUMPI PUSH2 0x19D1 PUSH2 0x148A JUMP JUMPDEST JUMPDEST PUSH0 PUSH2 0x19DF DUP5 DUP3 DUP6 ADD PUSH2 0x1549 JUMP JUMPDEST SWAP2 POP POP SWAP3 SWAP2 POP POP JUMP JUMPDEST PUSH32 0x4E487B7100000000000000000000000000000000000000000000000000000000 PUSH0 MSTORE PUSH1 0x21 PUSH1 0x4 MSTORE PUSH1 0x24 PUSH0 REVERT JUMPDEST PUSH0 DUP3 DUP3 MSTORE PUSH1 0x20 DUP3 ADD SWAP1 POP SWAP3 SWAP2 POP POP JUMP JUMPDEST PUSH32 0x566F74696E672073657373696F6E206E6F742073746172746564000000000000 PUSH0 DUP3 ADD MSTORE POP JUMP JUMPDEST PUSH0 PUSH2 0x1A59 PUSH1 0x1A DUP4 PUSH2 0x1A15 JUMP JUMPDEST SWAP2 POP PUSH2 0x1A64 DUP3 PUSH2 0x1A25 JUMP JUMPDEST PUSH1 0x20 DUP3 ADD SWAP1 POP SWAP2 SWAP1 POP JUMP JUMPDEST PUSH0 PUSH1 0x20 DUP3 ADD SWAP1 POP DUP2 DUP2 SUB PUSH0 DUP4 ADD MSTORE PUSH2 0x1A86 DUP2 PUSH2 0x1A4D JUMP JUMPDEST SWAP1 POP SWAP2 SWAP1 POP JUMP JUMPDEST PUSH32 0x50726F706F73616C20646F6573206E6F74206578697374000000000000000000 PUSH0 DUP3 ADD MSTORE POP JUMP JUMPDEST PUSH0 PUSH2 0x1AC1 PUSH1 0x17 DUP4 PUSH2 0x1A15 JUMP JUMPDEST SWAP2 POP PUSH2 0x1ACC DUP3 PUSH2 0x1A8D JUMP JUMPDEST PUSH1 0x20 DUP3 ADD SWAP1 POP SWAP2 SWAP1 POP JUMP JUMPDEST PUSH0 PUSH1 0x20 DUP3 ADD SWAP1 POP DUP2 DUP2 SUB PUSH0 DUP4 ADD MSTORE PUSH2 0x1AEE DUP2 PUSH2 0x1AB5 JUMP JUMPDEST SWAP1 POP SWAP2 SWAP1 POP JUMP JUMPDEST PUSH32 0x596F7520617265206E6F74207265676973746572656400000000000000000000 PUSH0 DUP3 ADD MSTORE POP JUMP JUMPDEST PUSH0 PUSH2 0x1B29 PUSH1 0x16 DUP4 PUSH2 0x1A15 JUMP JUMPDEST SWAP2 POP PUSH2 0x1B34 DUP3 PUSH2 0x1AF5 JUMP JUMPDEST PUSH1 0x20 DUP3 ADD SWAP1 POP SWAP2 SWAP1 POP JUMP JUMPDEST PUSH0 PUSH1 0x20 DUP3 ADD SWAP1 POP DUP2 DUP2 SUB PUSH0 DUP4 ADD MSTORE PUSH2 0x1B56 DUP2 PUSH2 0x1B1D JUMP JUMPDEST SWAP1 POP SWAP2 SWAP1 POP JUMP JUMPDEST PUSH32 0x596F75206861766520616C726561647920766F74656400000000000000000000 PUSH0 DUP3 ADD MSTORE POP JUMP JUMPDEST PUSH0 PUSH2 0x1B91 PUSH1 0x16 DUP4 PUSH2 0x1A15 JUMP JUMPDEST SWAP2 POP PUSH2 0x1B9C DUP3 PUSH2 0x1B5D JUMP JUMPDEST PUSH1 0x20 DUP3 ADD SWAP1 POP SWAP2 SWAP1 POP JUMP JUMPDEST PUSH0 PUSH1 0x20 DUP3 ADD SWAP1 POP DUP2 DUP2 SUB PUSH0 DUP4 ADD MSTORE PUSH2 0x1BBE DUP2 PUSH2 0x1B85 JUMP JUMPDEST SWAP1 POP SWAP2 SWAP1 POP JUMP JUMPDEST PUSH32 0x4E487B7100000000000000000000000000000000000000000000000000000000 PUSH0 MSTORE PUSH1 0x32 PUSH1 0x4 MSTORE PUSH1 0x24 PUSH0 REVERT JUMPDEST PUSH32 0x4E487B7100000000000000000000000000000000000000000000000000000000 PUSH0 MSTORE PUSH1 0x11 PUSH1 0x4 MSTORE PUSH1 0x24 PUSH0 REVERT JUMPDEST PUSH0 PUSH2 0x1C29 DUP3 PUSH2 0x1492 JUMP JUMPDEST SWAP2 POP PUSH32 0xFFFFFFFFFFFFFFFFFFFFFFFFFFFFFFFFFFFFFFFFFFFFFFFFFFFFFFFFFFFFFFFF DUP3 SUB PUSH2 0x1C5B JUMPI PUSH2 0x1C5A PUSH2 0x1BF2 JUMP JUMPDEST JUMPDEST PUSH1 0x1 DUP3 ADD SWAP1 POP SWAP2 SWAP1 POP JUMP JUMPDEST PUSH0 PUSH1 0x60 DUP3 ADD SWAP1 POP PUSH2 0x1C79 PUSH0 DUP4 ADD DUP7 PUSH2 0x175C JUMP JUMPDEST PUSH2 0x1C86 PUSH1 0x20 DUP4 ADD DUP6 PUSH2 0x1880 JUMP JUMPDEST PUSH2 0x1C93 PUSH1 0x40 DUP4 ADD DUP5 PUSH2 0x175C JUMP JUMPDEST SWAP5 SWAP4 POP POP POP POP JUMP JUMPDEST PUSH32 0x526567697374726174696F6E206E6F7420737461727465640000000000000000 PUSH0 DUP3 ADD MSTORE POP JUMP JUMPDEST PUSH0 PUSH2 0x1CCF PUSH1 0x18 DUP4 PUSH2 0x1A15 JUMP JUMPDEST SWAP2 POP PUSH2 0x1CDA DUP3 PUSH2 0x1C9B JUMP JUMPDEST PUSH1 0x20 DUP3 ADD SWAP1 POP SWAP2 SWAP1 POP JUMP JUMPDEST PUSH0 PUSH1 0x20 DUP3 ADD SWAP1 POP DUP2 DUP2 SUB PUSH0 DUP4 ADD MSTORE PUSH2 0x1CFC DUP2 PUSH2 0x1CC3 JUMP JUMPDEST SWAP1 POP SWAP2 SWAP1 POP JUMP JUMPDEST PUSH32 0x566F74657220616C726561647920726567697374657265640000000000000000 PUSH0 DUP3 ADD MSTORE POP JUMP JUMPDEST PUSH0 PUSH2 0x1D37 PUSH1 0x18 DUP4 PUSH2 0x1A15 JUMP JUMPDEST SWAP2 POP PUSH2 0x1D42 DUP3 PUSH2 0x1D03 JUMP JUMPDEST PUSH1 0x20 DUP3 ADD SWAP1 POP SWAP2 SWAP1 POP JUMP JUMPDEST PUSH0 PUSH1 0x20 DUP3 ADD SWAP1 POP DUP2 DUP2 SUB PUSH0 DUP4 ADD MSTORE PUSH2 0x1D64 DUP2 PUSH2 0x1D2B JUMP JUMPDEST SWAP1 POP SWAP2 SWAP1 POP JUMP JUMPDEST PUSH0 PUSH1 0x40 DUP3 ADD SWAP1 POP PUSH2 0x1D7E PUSH0 DUP4 ADD DUP6 PUSH2 0x175C JUMP JUMPDEST PUSH2 0x1D8B PUSH1 0x20 DUP4 ADD DUP5 PUSH2 0x1880 JUMP JUMPDEST SWAP4 SWAP3 POP POP POP JUMP JUMPDEST PUSH1 0x6 DUP2 LT PUSH2 0x1DA3 JUMPI PUSH2 0x1DA2 PUSH2 0x19E8 JUMP JUMPDEST JUMPDEST POP JUMP JUMPDEST PUSH0 DUP2 SWAP1 POP PUSH2 0x1DB3 DUP3 PUSH2 0x1D92 JUMP JUMPDEST SWAP2 SWAP1 POP JUMP JUMPDEST PUSH0 PUSH2 0x1DC2 DUP3 PUSH2 0x1DA6 JUMP JUMPDEST SWAP1 POP SWAP2 SWAP1 POP JUMP JUMPDEST PUSH2 0x1DD2 DUP2 PUSH2 0x1DB8 JUMP JUMPDEST DUP3 MSTORE POP POP JUMP JUMPDEST PUSH0 PUSH1 0x60 DUP3 ADD SWAP1 POP PUSH2 0x1DEB PUSH0 DUP4 ADD DUP7 PUSH2 0x175C JUMP JUMPDEST PUSH2 0x1DF8 PUSH1 0x20 DUP4 ADD DUP6 PUSH2 0x1DC9 JUMP JUMPDEST PUSH2 0x1E05 PUSH1 0x40 DUP4 ADD DUP5 PUSH2 0x1DC9 JUMP JUMPDEST SWAP5 SWAP4 POP POP POP POP JUMP JUMPDEST PUSH32 0x50726F706F73616C7320726567697374726174696F6E206E6F74207374617274 PUSH0 DUP3 ADD MSTORE PUSH32 0x6564000000000000000000000000000000000000000000000000000000000000 PUSH1 0x20 DUP3 ADD MSTORE POP JUMP JUMPDEST PUSH0 PUSH2 0x1E67 PUSH1 0x22 DUP4 PUSH2 0x1A15 JUMP JUMPDEST SWAP2 POP PUSH2 0x1E72 DUP3 PUSH2 0x1E0D JUMP JUMPDEST PUSH1 0x40 DUP3 ADD SWAP1 POP SWAP2 SWAP1 POP JUMP JUMPDEST PUSH0 PUSH1 0x20 DUP3 ADD SWAP1 POP DUP2 DUP2 SUB PUSH0 DUP4 ADD MSTORE PUSH2 0x1E94 DUP2 PUSH2 0x1E5B JUMP JUMPDEST SWAP1 POP SWAP2 SWAP1 POP JUMP JUMPDEST PUSH32 0x596F7520617265206E6F742077686974656C6973746564000000000000000000 PUSH0 DUP3 ADD MSTORE POP JUMP JUMPDEST PUSH0 PUSH2 0x1ECF PUSH1 0x17 DUP4 PUSH2 0x1A15 JUMP JUMPDEST SWAP2 POP PUSH2 0x1EDA DUP3 PUSH2 0x1E9B JUMP JUMPDEST PUSH1 0x20 DUP3 ADD SWAP1 POP SWAP2 SWAP1 POP JUMP JUMPDEST PUSH0 PUSH1 0x20 DUP3 ADD SWAP1 POP DUP2 DUP2 SUB PUSH0 DUP4 ADD MSTORE PUSH2 0x1EFC DUP2 PUSH2 0x1EC3 JUMP JUMPDEST SWAP1 POP SWAP2 SWAP1 POP JUMP JUMPDEST PUSH32 0x4E487B7100000000000000000000000000000000000000000000000000000000 PUSH0 MSTORE PUSH1 0x22 PUSH1 0x4 MSTORE PUSH1 0x24 PUSH0 REVERT JUMPDEST PUSH0 PUSH1 0x2 DUP3 DIV SWAP1 POP PUSH1 0x1 DUP3 AND DUP1 PUSH2 0x1F47 JUMPI PUSH1 0x7F DUP3 AND SWAP2 POP JUMPDEST PUSH1 0x20 DUP3 LT DUP2 SUB PUSH2 0x1F5A JUMPI PUSH2 0x1F59 PUSH2 0x1F03 JUMP JUMPDEST JUMPDEST POP SWAP2 SWAP1 POP JUMP JUMPDEST PUSH0 DUP2 SWAP1 POP DUP2 PUSH0 MSTORE PUSH1 0x20 PUSH0 KECCAK256 SWAP1 POP SWAP2 SWAP1 POP JUMP JUMPDEST PUSH0 PUSH1 0x20 PUSH1 0x1F DUP4 ADD DIV SWAP1 POP SWAP2 SWAP1 POP JUMP JUMPDEST PUSH0 DUP3 DUP3 SHL SWAP1 POP SWAP3 SWAP2 POP POP JUMP JUMPDEST PUSH0 PUSH1 0x8 DUP4 MUL PUSH2 0x1FBC PUSH32 0xFFFFFFFFFFFFFFFFFFFFFFFFFFFFFFFFFFFFFFFFFFFFFFFFFFFFFFFFFFFFFFFF DUP3 PUSH2 0x1F81 JUMP JUMPDEST PUSH2 0x1FC6 DUP7 DUP4 PUSH2 0x1F81 JUMP JUMPDEST SWAP6 POP DUP1 NOT DUP5 AND SWAP4 POP DUP1 DUP7 AND DUP5 OR SWAP3 POP POP POP SWAP4 SWAP3 POP POP POP JUMP JUMPDEST PUSH0 DUP2 SWAP1 POP SWAP2 SWAP1 POP JUMP JUMPDEST PUSH0 PUSH2 0x2001 PUSH2 0x1FFC PUSH2 0x1FF7 DUP5 PUSH2 0x1492 JUMP JUMPDEST PUSH2 0x1FDE JUMP JUMPDEST PUSH2 0x1492 JUMP JUMPDEST SWAP1 POP SWAP2 SWAP1 POP JUMP JUMPDEST PUSH0 DUP2 SWAP1 POP SWAP2 SWAP1 POP JUMP JUMPDEST PUSH2 0x201A DUP4 PUSH2 0x1FE7 JUMP JUMPDEST PUSH2 0x202E PUSH2 0x2026 DUP3 PUSH2 0x2008 JUMP JUMPDEST DUP5 DUP5 SLOAD PUSH2 0x1F8D JUMP JUMPDEST DUP3 SSTORE POP POP POP POP JUMP JUMPDEST PUSH0 PUSH0 SWAP1 POP SWAP1 JUMP JUMPDEST PUSH2 0x2045 PUSH2 0x2036 JUMP JUMPDEST PUSH2 0x2050 DUP2 DUP5 DUP5 PUSH2 0x2011 JUMP JUMPDEST POP POP POP JUMP JUMPDEST JUMPDEST DUP2 DUP2 LT ISZERO PUSH2 0x2073 JUMPI PUSH2 0x2068 PUSH0 DUP3 PUSH2 0x203D JUMP JUMPDEST PUSH1 0x1 DUP2 ADD SWAP1 POP PUSH2 0x2056 JUMP JUMPDEST POP POP JUMP JUMPDEST PUSH1 0x1F DUP3 GT ISZERO PUSH2 0x20B8 JUMPI PUSH2 0x2089 DUP2 PUSH2 0x1F60 JUMP JUMPDEST PUSH2 0x2092 DUP5 PUSH2 0x1F72 JUMP JUMPDEST DUP2 ADD PUSH1 0x20 DUP6 LT ISZERO PUSH2 0x20A1 JUMPI DUP2 SWAP1 POP JUMPDEST PUSH2 0x20B5 PUSH2 0x20AD DUP6 PUSH2 0x1F72 JUMP JUMPDEST DUP4 ADD DUP3 PUSH2 0x2055 JUMP JUMPDEST POP POP JUMPDEST POP POP POP JUMP JUMPDEST PUSH0 DUP3 DUP3 SHR SWAP1 POP SWAP3 SWAP2 POP POP JUMP JUMPDEST PUSH0 PUSH2 0x20D8 PUSH0 NOT DUP5 PUSH1 0x8 MUL PUSH2 0x20BD JUMP JUMPDEST NOT DUP1 DUP4 AND SWAP2 POP POP SWAP3 SWAP2 POP POP JUMP JUMPDEST PUSH0 PUSH2 0x20F0 DUP4 DUP4 PUSH2 0x20C9 JUMP JUMPDEST SWAP2 POP DUP3 PUSH1 0x2 MUL DUP3 OR SWAP1 POP SWAP3 SWAP2 POP POP JUMP JUMPDEST PUSH2 0x2109 DUP3 PUSH2 0x17B7 JUMP JUMPDEST PUSH8 0xFFFFFFFFFFFFFFFF DUP2 GT ISZERO PUSH2 0x2122 JUMPI PUSH2 0x2121 PUSH2 0x15DE JUMP JUMPDEST JUMPDEST PUSH2 0x212C DUP3 SLOAD PUSH2 0x1F30 JUMP JUMPDEST PUSH2 0x2137 DUP3 DUP3 DUP6 PUSH2 0x2077 JUMP JUMPDEST PUSH0 PUSH1 0x20 SWAP1 POP PUSH1 0x1F DUP4 GT PUSH1 0x1 DUP2 EQ PUSH2 0x2168 JUMPI PUSH0 DUP5 ISZERO PUSH2 0x2156 JUMPI DUP3 DUP8 ADD MLOAD SWAP1 POP JUMPDEST PUSH2 0x2160 DUP6 DUP3 PUSH2 0x20E5 JUMP JUMPDEST DUP7 SSTORE POP PUSH2 0x21C7 JUMP JUMPDEST PUSH1 0x1F NOT DUP5 AND PUSH2 0x2176 DUP7 PUSH2 0x1F60 JUMP JUMPDEST PUSH0 JUMPDEST DUP3 DUP2 LT ISZERO PUSH2 0x219D JUMPI DUP5 DUP10 ADD MLOAD DUP3 SSTORE PUSH1 0x1 DUP3 ADD SWAP2 POP PUSH1 0x20 DUP6 ADD SWAP5 POP PUSH1 0x20 DUP2 ADD SWAP1 POP PUSH2 0x2178 JUMP JUMPDEST DUP7 DUP4 LT ISZERO PUSH2 0x21BA JUMPI DUP5 DUP10 ADD MLOAD PUSH2 0x21B6 PUSH1 0x1F DUP10 AND DUP3 PUSH2 0x20C9 JUMP JUMPDEST DUP4 SSTORE POP JUMPDEST PUSH1 0x1 PUSH1 0x2 DUP9 MUL ADD DUP9 SSTORE POP POP POP JUMPDEST POP POP POP POP POP POP JUMP JUMPDEST PUSH0 PUSH2 0x21D9 DUP3 PUSH2 0x1492 JUMP JUMPDEST SWAP2 POP PUSH2 0x21E4 DUP4 PUSH2 0x1492 JUMP JUMPDEST SWAP3 POP DUP3 DUP3 SUB SWAP1 POP DUP2 DUP2 GT ISZERO PUSH2 0x21FC JUMPI PUSH2 0x21FB PUSH2 0x1BF2 JUMP JUMPDEST JUMPDEST SWAP3 SWAP2 POP POP JUMP JUMPDEST PUSH0 PUSH1 0x40 DUP3 ADD SWAP1 POP PUSH2 0x2215 PUSH0 DUP4 ADD DUP6 PUSH2 0x175C JUMP JUMPDEST PUSH2 0x2222 PUSH1 0x20 DUP4 ADD DUP5 PUSH2 0x175C JUMP JUMPDEST SWAP4 SWAP3 POP POP POP JUMP JUMPDEST PUSH32 0x566F746573206E6F742074616C6C696564000000000000000000000000000000 PUSH0 DUP3 ADD MSTORE POP JUMP JUMPDEST PUSH0 PUSH2 0x225D PUSH1 0x11 DUP4 PUSH2 0x1A15 JUMP JUMPDEST SWAP2 POP PUSH2 0x2268 DUP3 PUSH2 0x2229 JUMP JUMPDEST PUSH1 0x20 DUP3 ADD SWAP1 POP SWAP2 SWAP1 POP JUMP JUMPDEST PUSH0 PUSH1 0x20 DUP3 ADD SWAP1 POP DUP2 DUP2 SUB PUSH0 DUP4 ADD MSTORE PUSH2 0x228A DUP2 PUSH2 0x2251 JUMP JUMPDEST SWAP1 POP SWAP2 SWAP1 POP JUMP JUMPDEST PUSH32 0x57726F6E6720776F726B666C6F77207374617475730000000000000000000000 PUSH0 DUP3 ADD MSTORE POP JUMP JUMPDEST PUSH0 PUSH2 0x22C5 PUSH1 0x15 DUP4 PUSH2 0x1A15 JUMP JUMPDEST SWAP2 POP PUSH2 0x22D0 DUP3 PUSH2 0x2291 JUMP JUMPDEST PUSH1 0x20 DUP3 ADD SWAP1 POP SWAP2 SWAP1 POP JUMP JUMPDEST PUSH0 PUSH1 0x20 DUP3 ADD SWAP1 POP DUP2 DUP2 SUB PUSH0 DUP4 ADD MSTORE PUSH2 0x22F2 DUP2 PUSH2 0x22B9 JUMP JUMPDEST SWAP1 POP SWAP2 SWAP1 POP JUMP JUMPDEST PUSH32 0x566F74696E672073657373696F6E206E6F7420656E6465640000000000000000 PUSH0 DUP3 ADD MSTORE POP JUMP JUMPDEST PUSH0 PUSH2 0x232D PUSH1 0x18 DUP4 PUSH2 0x1A15 JUMP JUMPDEST SWAP2 POP PUSH2 0x2338 DUP3 PUSH2 0x22F9 JUMP JUMPDEST PUSH1 0x20 DUP3 ADD SWAP1 POP SWAP2 SWAP1 POP JUMP JUMPDEST PUSH0 PUSH1 0x20 DUP3 ADD SWAP1 POP DUP2 DUP2 SUB PUSH0 DUP4 ADD MSTORE PUSH2 0x235A DUP2 PUSH2 0x2321 JUMP JUMPDEST SWAP1 POP SWAP2 SWAP1 POP JUMP INVALID LOG2 PUSH5 0x6970667358 0x22 SLT KECCAK256 0x2D SWAP12 DUPN 0x9D 0x22 BALANCE PUSH17 0x8CFA4F4B578FD3950AF46AEE93F38117FF EOFCREATE 0x19 0x26 LT PUSH32 0xE9FB3064736F6C634300081E0033000000000000000000000000000000000000 "
				},
				"gasEstimates": {
					"creation": {
						"codeDepositCost": "1822200",
						"executionCost": "infinite",
						"totalCost": "infinite"
					},
					"external": {
						"addToWhitelist(uint256,address)": "infinite",
						"computeMostVotedProposal(uint256)": "infinite",
						"currentSessionId()": "2448",
						"endProposalsRegistration(uint256)": "infinite",
						"endVotingSession(uint256)": "infinite",
						"getAllProposals(uint256)": "infinite",
						"getMostVotedProposal(uint256)": "infinite",
						"isWhitelisted(uint256,address)": "3194",
						"owner()": "2559",
						"renounceOwnership()": "infinite",
						"sendNewProposition(uint256,string)": "infinite",
						"sendVote(uint256,uint256)": "infinite",
						"startNewSession()": "infinite",
						"startProposalsRegistration(uint256)": "infinite",
						"startVotingSession(uint256)": "infinite",
						"transferOwnership(address)": "infinite"
					}
				},
				"methodIdentifiers": {
					"addToWhitelist(uint256,address)": "2d785461",
					"computeMostVotedProposal(uint256)": "d6a10dcb",
					"currentSessionId()": "6597a130",
					"endProposalsRegistration(uint256)": "d1ff7eeb",
					"endVotingSession(uint256)": "35bb3d30",
					"getAllProposals(uint256)": "bf8ca1aa",
					"getMostVotedProposal(uint256)": "89a2f485",
					"isWhitelisted(uint256,address)": "7d22c35c",
					"owner()": "8da5cb5b",
					"renounceOwnership()": "715018a6",
					"sendNewProposition(uint256,string)": "371820e9",
					"sendVote(uint256,uint256)": "291e6777",
					"startNewSession()": "dc871a5c",
					"startProposalsRegistration(uint256)": "8bc6a6dd",
					"startVotingSession(uint256)": "9980a55a",
					"transferOwnership(address)": "f2fde38b"
				}
			},
			"storageLayout": {
				"storage": [
					{
						"astId": 8,
						"contract": "contracts/15_Voting.sol:Voting",
						"label": "_owner",
						"offset": 0,
						"slot": "0",
						"type": "t_address"
					},
					{
						"astId": 226,
						"contract": "contracts/15_Voting.sol:Voting",
						"label": "currentSessionId",
						"offset": 0,
						"slot": "1",
						"type": "t_uint256"
					},
					{
						"astId": 231,
						"contract": "contracts/15_Voting.sol:Voting",
						"label": "sessions",
						"offset": 0,
						"slot": "2",
						"type": "t_mapping(t_uint256,t_struct(VotingSession)216_storage)"
					}
				],
				"types": {
					"t_address": {
						"encoding": "inplace",
						"label": "address",
						"numberOfBytes": "20"
					},
					"t_array(t_struct(Proposal)194_storage)dyn_storage": {
						"base": "t_struct(Proposal)194_storage",
						"encoding": "dynamic_array",
						"label": "struct Voting.Proposal[]",
						"numberOfBytes": "32"
					},
					"t_bool": {
						"encoding": "inplace",
						"label": "bool",
						"numberOfBytes": "1"
					},
					"t_enum(WorkflowStatus)201": {
						"encoding": "inplace",
						"label": "enum Voting.WorkflowStatus",
						"numberOfBytes": "1"
					},
					"t_mapping(t_address,t_struct(Voter)189_storage)": {
						"encoding": "mapping",
						"key": "t_address",
						"label": "mapping(address => struct Voting.Voter)",
						"numberOfBytes": "32",
						"value": "t_struct(Voter)189_storage"
					},
					"t_mapping(t_uint256,t_struct(VotingSession)216_storage)": {
						"encoding": "mapping",
						"key": "t_uint256",
						"label": "mapping(uint256 => struct Voting.VotingSession)",
						"numberOfBytes": "32",
						"value": "t_struct(VotingSession)216_storage"
					},
					"t_string_storage": {
						"encoding": "bytes",
						"label": "string",
						"numberOfBytes": "32"
					},
					"t_struct(Proposal)194_storage": {
						"encoding": "inplace",
						"label": "struct Voting.Proposal",
						"members": [
							{
								"astId": 191,
								"contract": "contracts/15_Voting.sol:Voting",
								"label": "description",
								"offset": 0,
								"slot": "0",
								"type": "t_string_storage"
							},
							{
								"astId": 193,
								"contract": "contracts/15_Voting.sol:Voting",
								"label": "voteCount",
								"offset": 0,
								"slot": "1",
								"type": "t_uint256"
							}
						],
						"numberOfBytes": "64"
					},
					"t_struct(Voter)189_storage": {
						"encoding": "inplace",
						"label": "struct Voting.Voter",
						"members": [
							{
								"astId": 184,
								"contract": "contracts/15_Voting.sol:Voting",
								"label": "isRegistered",
								"offset": 0,
								"slot": "0",
								"type": "t_bool"
							},
							{
								"astId": 186,
								"contract": "contracts/15_Voting.sol:Voting",
								"label": "hasVoted",
								"offset": 1,
								"slot": "0",
								"type": "t_bool"
							},
							{
								"astId": 188,
								"contract": "contracts/15_Voting.sol:Voting",
								"label": "voteProposalId",
								"offset": 0,
								"slot": "1",
								"type": "t_uint256"
							}
						],
						"numberOfBytes": "64"
					},
					"t_struct(VotingSession)216_storage": {
						"encoding": "inplace",
						"label": "struct Voting.VotingSession",
						"members": [
							{
								"astId": 204,
								"contract": "contracts/15_Voting.sol:Voting",
								"label": "workflowStatus",
								"offset": 0,
								"slot": "0",
								"type": "t_enum(WorkflowStatus)201"
							},
							{
								"astId": 208,
								"contract": "contracts/15_Voting.sol:Voting",
								"label": "proposals",
								"offset": 0,
								"slot": "1",
								"type": "t_array(t_struct(Proposal)194_storage)dyn_storage"
							},
							{
								"astId": 213,
								"contract": "contracts/15_Voting.sol:Voting",
								"label": "voters",
								"offset": 0,
								"slot": "2",
								"type": "t_mapping(t_address,t_struct(Voter)189_storage)"
							},
							{
								"astId": 215,
								"contract": "contracts/15_Voting.sol:Voting",
								"label": "winningProposalId",
								"offset": 0,
								"slot": "3",
								"type": "t_uint256"
							}
						],
						"numberOfBytes": "128"
					},
					"t_uint256": {
						"encoding": "inplace",
						"label": "uint256",
						"numberOfBytes": "32"
					}
				}
			},
			"userdoc": {
				"kind": "user",
				"methods": {},
				"version": 1
			}
		}
	}
}