{
	"contracts/14_VotingV4_withTest.sol": {
		"Voting": {
			"abi": [
				{
					"inputs": [],
					"stateMutability": "nonpayable",
					"type": "constructor"
				},
				{
					"inputs": [
						{
							"internalType": "address",
							"name": "owner",
							"type": "address"
						}
					],
					"name": "OwnableInvalidOwner",
					"type": "error"
				},
				{
					"inputs": [
						{
							"internalType": "address",
							"name": "account",
							"type": "address"
						}
					],
					"name": "OwnableUnauthorizedAccount",
					"type": "error"
				},
				{
					"anonymous": false,
					"inputs": [
						{
							"indexed": true,
							"internalType": "address",
							"name": "previousOwner",
							"type": "address"
						},
						{
							"indexed": true,
							"internalType": "address",
							"name": "newOwner",
							"type": "address"
						}
					],
					"name": "OwnershipTransferred",
					"type": "event"
				},
				{
					"anonymous": false,
					"inputs": [
						{
							"indexed": false,
							"internalType": "uint256",
							"name": "sessionId",
							"type": "uint256"
						},
						{
							"indexed": false,
							"internalType": "uint256",
							"name": "proposalId",
							"type": "uint256"
						}
					],
					"name": "ProposalRegistered",
					"type": "event"
				},
				{
					"anonymous": false,
					"inputs": [
						{
							"indexed": false,
							"internalType": "uint256",
							"name": "sessionId",
							"type": "uint256"
						}
					],
					"name": "SessionCreated",
					"type": "event"
				},
				{
					"anonymous": false,
					"inputs": [
						{
							"indexed": false,
							"internalType": "address",
							"name": "voter",
							"type": "address"
						},
						{
							"indexed": false,
							"internalType": "uint256",
							"name": "proposalId",
							"type": "uint256"
						}
					],
					"name": "Voted",
					"type": "event"
				},
				{
					"anonymous": false,
					"inputs": [
						{
							"indexed": false,
							"internalType": "address",
							"name": "voterAddress",
							"type": "address"
						}
					],
					"name": "VoterRegistered",
					"type": "event"
				},
				{
					"anonymous": false,
					"inputs": [
						{
							"indexed": false,
							"internalType": "address",
							"name": "voterAddress",
							"type": "address"
						}
					],
					"name": "VoterUnregistered",
					"type": "event"
				},
				{
					"anonymous": false,
					"inputs": [
						{
							"indexed": false,
							"internalType": "enum Voting.WorkflowStatus",
							"name": "previousStatus",
							"type": "uint8"
						},
						{
							"indexed": false,
							"internalType": "enum Voting.WorkflowStatus",
							"name": "newStatus",
							"type": "uint8"
						}
					],
					"name": "WorkflowStatusChange",
					"type": "event"
				},
				{
					"inputs": [],
					"name": "computeMostVotedProposal",
					"outputs": [],
					"stateMutability": "nonpayable",
					"type": "function"
				},
				{
					"inputs": [],
					"name": "createVotingSession",
					"outputs": [],
					"stateMutability": "nonpayable",
					"type": "function"
				},
				{
					"inputs": [],
					"name": "currentVotingSessionId",
					"outputs": [
						{
							"internalType": "uint256",
							"name": "",
							"type": "uint256"
						}
					],
					"stateMutability": "view",
					"type": "function"
				},
				{
					"inputs": [],
					"name": "endProposalsRegistration",
					"outputs": [],
					"stateMutability": "nonpayable",
					"type": "function"
				},
				{
					"inputs": [],
					"name": "endVotingSession",
					"outputs": [],
					"stateMutability": "nonpayable",
					"type": "function"
				},
				{
					"inputs": [
						{
							"internalType": "uint256",
							"name": "_sessionId",
							"type": "uint256"
						}
					],
					"name": "getAllProposalsBySession",
					"outputs": [
						{
							"components": [
								{
									"internalType": "uint256",
									"name": "id",
									"type": "uint256"
								},
								{
									"internalType": "string",
									"name": "description",
									"type": "string"
								},
								{
									"internalType": "uint256",
									"name": "voteCount",
									"type": "uint256"
								}
							],
							"internalType": "struct Voting.Proposal[]",
							"name": "",
							"type": "tuple[]"
						}
					],
					"stateMutability": "view",
					"type": "function"
				},
				{
					"inputs": [],
					"name": "getAllProposalsFromCurrentSession",
					"outputs": [
						{
							"components": [
								{
									"internalType": "uint256",
									"name": "id",
									"type": "uint256"
								},
								{
									"internalType": "string",
									"name": "description",
									"type": "string"
								},
								{
									"internalType": "uint256",
									"name": "voteCount",
									"type": "uint256"
								}
							],
							"internalType": "struct Voting.Proposal[]",
							"name": "",
							"type": "tuple[]"
						}
					],
					"stateMutability": "view",
					"type": "function"
				},
				{
					"inputs": [],
					"name": "getCurrentSession",
					"outputs": [
						{
							"components": [
								{
									"internalType": "enum Voting.WorkflowStatus",
									"name": "workflowStatus",
									"type": "uint8"
								},
								{
									"internalType": "uint256",
									"name": "winningProposalId",
									"type": "uint256"
								},
								{
									"components": [
										{
											"internalType": "uint256",
											"name": "id",
											"type": "uint256"
										},
										{
											"internalType": "string",
											"name": "description",
											"type": "string"
										},
										{
											"internalType": "uint256",
											"name": "voteCount",
											"type": "uint256"
										}
									],
									"internalType": "struct Voting.Proposal[]",
									"name": "proposals",
									"type": "tuple[]"
								},
								{
									"internalType": "uint256",
									"name": "proposalCount",
									"type": "uint256"
								}
							],
							"internalType": "struct Voting.VotingSession",
							"name": "",
							"type": "tuple"
						}
					],
					"stateMutability": "view",
					"type": "function"
				},
				{
					"inputs": [
						{
							"internalType": "uint256",
							"name": "_sessionId",
							"type": "uint256"
						}
					],
					"name": "getWinningProposalBySession",
					"outputs": [
						{
							"components": [
								{
									"internalType": "uint256",
									"name": "id",
									"type": "uint256"
								},
								{
									"internalType": "string",
									"name": "description",
									"type": "string"
								},
								{
									"internalType": "uint256",
									"name": "voteCount",
									"type": "uint256"
								}
							],
							"internalType": "struct Voting.Proposal",
							"name": "",
							"type": "tuple"
						}
					],
					"stateMutability": "view",
					"type": "function"
				},
				{
					"inputs": [],
					"name": "owner",
					"outputs": [
						{
							"internalType": "address",
							"name": "",
							"type": "address"
						}
					],
					"stateMutability": "view",
					"type": "function"
				},
				{
					"inputs": [
						{
							"internalType": "address",
							"name": "_address",
							"type": "address"
						}
					],
					"name": "registerVoter",
					"outputs": [],
					"stateMutability": "nonpayable",
					"type": "function"
				},
				{
					"inputs": [],
					"name": "renounceOwnership",
					"outputs": [],
					"stateMutability": "nonpayable",
					"type": "function"
				},
				{
					"inputs": [
						{
							"internalType": "string",
							"name": "_description",
							"type": "string"
						}
					],
					"name": "sendNewProposition",
					"outputs": [],
					"stateMutability": "nonpayable",
					"type": "function"
				},
				{
					"inputs": [
						{
							"internalType": "uint256",
							"name": "_proposalId",
							"type": "uint256"
						}
					],
					"name": "sendVote",
					"outputs": [],
					"stateMutability": "nonpayable",
					"type": "function"
				},
				{
					"inputs": [],
					"name": "startProposalsRegistration",
					"outputs": [],
					"stateMutability": "nonpayable",
					"type": "function"
				},
				{
					"inputs": [],
					"name": "startVotingSession",
					"outputs": [],
					"stateMutability": "nonpayable",
					"type": "function"
				},
				{
					"inputs": [
						{
							"internalType": "address",
							"name": "newOwner",
							"type": "address"
						}
					],
					"name": "transferOwnership",
					"outputs": [],
					"stateMutability": "nonpayable",
					"type": "function"
				},
				{
					"inputs": [
						{
							"internalType": "address",
							"name": "_address",
							"type": "address"
						}
					],
					"name": "unregisterVoter",
					"outputs": [],
					"stateMutability": "nonpayable",
					"type": "function"
				},
				{
					"inputs": [
						{
							"internalType": "uint256",
							"name": "",
							"type": "uint256"
						}
					],
					"name": "votingSessions",
					"outputs": [
						{
							"internalType": "enum Voting.WorkflowStatus",
							"name": "workflowStatus",
							"type": "uint8"
						},
						{
							"internalType": "uint256",
							"name": "winningProposalId",
							"type": "uint256"
						},
						{
							"internalType": "uint256",
							"name": "proposalCount",
							"type": "uint256"
						}
					],
					"stateMutability": "view",
					"type": "function"
				}
			],
			"devdoc": {
				"errors": {
					"OwnableInvalidOwner(address)": [
						{
							"details": "The owner is not a valid owner account. (eg. `address(0)`)"
						}
					],
					"OwnableUnauthorizedAccount(address)": [
						{
							"details": "The caller account is not authorized to perform an operation."
						}
					]
				},
				"kind": "dev",
				"methods": {
					"owner()": {
						"details": "Returns the address of the current owner."
					},
					"renounceOwnership()": {
						"details": "Leaves the contract without owner. It will not be possible to call `onlyOwner` functions. Can only be called by the current owner. NOTE: Renouncing ownership will leave the contract without an owner, thereby disabling any functionality that is only available to the owner."
					},
					"transferOwnership(address)": {
						"details": "Transfers ownership of the contract to a new account (`newOwner`). Can only be called by the current owner."
					}
				},
				"version": 1
			},
			"evm": {
				"assembly": "    /* \"contracts/14_VotingV4_withTest.sol\":164:8615  contract Voting is Ownable {... */\n  mstore(0x40, 0x80)\n    /* \"contracts/14_VotingV4_withTest.sol\":1321:1362  constructor() Ownable(msg.sender) {... */\n  callvalue\n  dup1\n  iszero\n  tag_1\n  jumpi\n  revert(0x00, 0x00)\ntag_1:\n  pop\n    /* \"contracts/14_VotingV4_withTest.sol\":1343:1353  msg.sender */\n  caller\n    /* \"https://github.com/OpenZeppelin/openzeppelin-contracts/blob/master/contracts/access/Ownable.sol\":1297:1298  0 */\n  0x00\n    /* \"https://github.com/OpenZeppelin/openzeppelin-contracts/blob/master/contracts/access/Ownable.sol\":1273:1299  initialOwner == address(0) */\n  0xffffffffffffffffffffffffffffffffffffffff\n  and\n    /* \"https://github.com/OpenZeppelin/openzeppelin-contracts/blob/master/contracts/access/Ownable.sol\":1273:1285  initialOwner */\n  dup2\n    /* \"https://github.com/OpenZeppelin/openzeppelin-contracts/blob/master/contracts/access/Ownable.sol\":1273:1299  initialOwner == address(0) */\n  0xffffffffffffffffffffffffffffffffffffffff\n  and\n  sub\n    /* \"https://github.com/OpenZeppelin/openzeppelin-contracts/blob/master/contracts/access/Ownable.sol\":1269:1364  if (initialOwner == address(0)) {... */\n  tag_5\n  jumpi\n    /* \"https://github.com/OpenZeppelin/openzeppelin-contracts/blob/master/contracts/access/Ownable.sol\":1350:1351  0 */\n  0x00\n    /* \"https://github.com/OpenZeppelin/openzeppelin-contracts/blob/master/contracts/access/Ownable.sol\":1322:1353  OwnableInvalidOwner(address(0)) */\n  mload(0x40)\n  0x1e4fbdf700000000000000000000000000000000000000000000000000000000\n  dup2\n  mstore\n  0x04\n  add\n  tag_6\n  swap2\n  swap1\n  tag_7\n  jump\t// in\ntag_6:\n  mload(0x40)\n  dup1\n  swap2\n  sub\n  swap1\n  revert\n    /* \"https://github.com/OpenZeppelin/openzeppelin-contracts/blob/master/contracts/access/Ownable.sol\":1269:1364  if (initialOwner == address(0)) {... */\ntag_5:\n    /* \"https://github.com/OpenZeppelin/openzeppelin-contracts/blob/master/contracts/access/Ownable.sol\":1373:1405  _transferOwnership(initialOwner) */\n  tag_8\n    /* \"https://github.com/OpenZeppelin/openzeppelin-contracts/blob/master/contracts/access/Ownable.sol\":1392:1404  initialOwner */\n  dup2\n    /* \"https://github.com/OpenZeppelin/openzeppelin-contracts/blob/master/contracts/access/Ownable.sol\":1373:1391  _transferOwnership */\n  shl(0x20, tag_9)\n    /* \"https://github.com/OpenZeppelin/openzeppelin-contracts/blob/master/contracts/access/Ownable.sol\":1373:1405  _transferOwnership(initialOwner) */\n  0x20\n  shr\n  jump\t// in\ntag_8:\n    /* \"https://github.com/OpenZeppelin/openzeppelin-contracts/blob/master/contracts/access/Ownable.sol\":1225:1412  constructor(address initialOwner) {... */\n  pop\n    /* \"contracts/14_VotingV4_withTest.sol\":164:8615  contract Voting is Ownable {... */\n  jump(tag_11)\n    /* \"https://github.com/OpenZeppelin/openzeppelin-contracts/blob/master/contracts/access/Ownable.sol\":2912:3099  function _transferOwnership(address newOwner) internal virtual {... */\ntag_9:\n    /* \"https://github.com/OpenZeppelin/openzeppelin-contracts/blob/master/contracts/access/Ownable.sol\":2985:3001  address oldOwner */\n  0x00\n    /* \"https://github.com/OpenZeppelin/openzeppelin-contracts/blob/master/contracts/access/Ownable.sol\":3004:3010  _owner */\n  0x00\n  0x00\n  swap1\n  sload\n  swap1\n  0x0100\n  exp\n  swap1\n  div\n  0xffffffffffffffffffffffffffffffffffffffff\n  and\n    /* \"https://github.com/OpenZeppelin/openzeppelin-contracts/blob/master/contracts/access/Ownable.sol\":2985:3010  address oldOwner = _owner */\n  swap1\n  pop\n    /* \"https://github.com/OpenZeppelin/openzeppelin-contracts/blob/master/contracts/access/Ownable.sol\":3029:3037  newOwner */\n  dup2\n    /* \"https://github.com/OpenZeppelin/openzeppelin-contracts/blob/master/contracts/access/Ownable.sol\":3020:3026  _owner */\n  0x00\n  0x00\n    /* \"https://github.com/OpenZeppelin/openzeppelin-contracts/blob/master/contracts/access/Ownable.sol\":3020:3037  _owner = newOwner */\n  0x0100\n  exp\n  dup2\n  sload\n  dup2\n  0xffffffffffffffffffffffffffffffffffffffff\n  mul\n  not\n  and\n  swap1\n  dup4\n  0xffffffffffffffffffffffffffffffffffffffff\n  and\n  mul\n  or\n  swap1\n  sstore\n  pop\n    /* \"https://github.com/OpenZeppelin/openzeppelin-contracts/blob/master/contracts/access/Ownable.sol\":3083:3091  newOwner */\n  dup2\n    /* \"https://github.com/OpenZeppelin/openzeppelin-contracts/blob/master/contracts/access/Ownable.sol\":3052:3092  OwnershipTransferred(oldOwner, newOwner) */\n  0xffffffffffffffffffffffffffffffffffffffff\n  and\n    /* \"https://github.com/OpenZeppelin/openzeppelin-contracts/blob/master/contracts/access/Ownable.sol\":3073:3081  oldOwner */\n  dup2\n    /* \"https://github.com/OpenZeppelin/openzeppelin-contracts/blob/master/contracts/access/Ownable.sol\":3052:3092  OwnershipTransferred(oldOwner, newOwner) */\n  0xffffffffffffffffffffffffffffffffffffffff\n  and\n  0x8be0079c531659141344cd1fd0a4f28419497f9722a3daafe3b4186f6b6457e0\n  mload(0x40)\n  mload(0x40)\n  dup1\n  swap2\n  sub\n  swap1\n  log3\n    /* \"https://github.com/OpenZeppelin/openzeppelin-contracts/blob/master/contracts/access/Ownable.sol\":2975:3099  {... */\n  pop\n    /* \"https://github.com/OpenZeppelin/openzeppelin-contracts/blob/master/contracts/access/Ownable.sol\":2912:3099  function _transferOwnership(address newOwner) internal virtual {... */\n  pop\n  jump\t// out\n    /* \"#utility.yul\":7:133   */\ntag_13:\n    /* \"#utility.yul\":44:51   */\n  0x00\n    /* \"#utility.yul\":84:126   */\n  0xffffffffffffffffffffffffffffffffffffffff\n    /* \"#utility.yul\":77:82   */\n  dup3\n    /* \"#utility.yul\":73:127   */\n  and\n    /* \"#utility.yul\":62:127   */\n  swap1\n  pop\n    /* \"#utility.yul\":7:133   */\n  swap2\n  swap1\n  pop\n  jump\t// out\n    /* \"#utility.yul\":139:235   */\ntag_14:\n    /* \"#utility.yul\":176:183   */\n  0x00\n    /* \"#utility.yul\":205:229   */\n  tag_19\n    /* \"#utility.yul\":223:228   */\n  dup3\n    /* \"#utility.yul\":205:229   */\n  tag_13\n  jump\t// in\ntag_19:\n    /* \"#utility.yul\":194:229   */\n  swap1\n  pop\n    /* \"#utility.yul\":139:235   */\n  swap2\n  swap1\n  pop\n  jump\t// out\n    /* \"#utility.yul\":241:359   */\ntag_15:\n    /* \"#utility.yul\":328:352   */\n  tag_21\n    /* \"#utility.yul\":346:351   */\n  dup2\n    /* \"#utility.yul\":328:352   */\n  tag_14\n  jump\t// in\ntag_21:\n    /* \"#utility.yul\":323:326   */\n  dup3\n    /* \"#utility.yul\":316:353   */\n  mstore\n    /* \"#utility.yul\":241:359   */\n  pop\n  pop\n  jump\t// out\n    /* \"#utility.yul\":365:587   */\ntag_7:\n    /* \"#utility.yul\":458:462   */\n  0x00\n    /* \"#utility.yul\":496:498   */\n  0x20\n    /* \"#utility.yul\":485:494   */\n  dup3\n    /* \"#utility.yul\":481:499   */\n  add\n    /* \"#utility.yul\":473:499   */\n  swap1\n  pop\n    /* \"#utility.yul\":509:580   */\n  tag_23\n    /* \"#utility.yul\":577:578   */\n  0x00\n    /* \"#utility.yul\":566:575   */\n  dup4\n    /* \"#utility.yul\":562:579   */\n  add\n    /* \"#utility.yul\":553:559   */\n  dup5\n    /* \"#utility.yul\":509:580   */\n  tag_15\n  jump\t// in\ntag_23:\n    /* \"#utility.yul\":365:587   */\n  swap3\n  swap2\n  pop\n  pop\n  jump\t// out\n    /* \"contracts/14_VotingV4_withTest.sol\":164:8615  contract Voting is Ownable {... */\ntag_11:\n  dataSize(sub_0)\n  dup1\n  dataOffset(sub_0)\n  0x00\n  codecopy\n  0x00\n  return\nstop\n\nsub_0: assembly {\n        /* \"contracts/14_VotingV4_withTest.sol\":164:8615  contract Voting is Ownable {... */\n      mstore(0x40, 0x80)\n      callvalue\n      dup1\n      iszero\n      tag_1\n      jumpi\n      revert(0x00, 0x00)\n    tag_1:\n      pop\n      jumpi(tag_2, lt(calldatasize, 0x04))\n      shr(0xe0, calldataload(0x00))\n      dup1\n      0x7ed17751\n      gt\n      tag_22\n      jumpi\n      dup1\n      0xc8f5714e\n      gt\n      tag_23\n      jumpi\n      dup1\n      0xc8f5714e\n      eq\n      tag_17\n      jumpi\n      dup1\n      0xe09b8c79\n      eq\n      tag_18\n      jumpi\n      dup1\n      0xee74c678\n      eq\n      tag_19\n      jumpi\n      dup1\n      0xf2fde38b\n      eq\n      tag_20\n      jumpi\n      dup1\n      0xf38d3af8\n      eq\n      tag_21\n      jumpi\n      jump(tag_2)\n    tag_23:\n      dup1\n      0x7ed17751\n      eq\n      tag_12\n      jumpi\n      dup1\n      0x895d0faf\n      eq\n      tag_13\n      jumpi\n      dup1\n      0x8da5cb5b\n      eq\n      tag_14\n      jumpi\n      dup1\n      0x9bdfef30\n      eq\n      tag_15\n      jumpi\n      dup1\n      0xa7bfab16\n      eq\n      tag_16\n      jumpi\n      jump(tag_2)\n    tag_22:\n      dup1\n      0x45bf58fd\n      gt\n      tag_24\n      jumpi\n      dup1\n      0x45bf58fd\n      eq\n      tag_7\n      jumpi\n      dup1\n      0x58fb94ec\n      eq\n      tag_8\n      jumpi\n      dup1\n      0x640be567\n      eq\n      tag_9\n      jumpi\n      dup1\n      0x6c297445\n      eq\n      tag_10\n      jumpi\n      dup1\n      0x715018a6\n      eq\n      tag_11\n      jumpi\n      jump(tag_2)\n    tag_24:\n      dup1\n      0x0a936e3a\n      eq\n      tag_3\n      jumpi\n      dup1\n      0x1186eb7c\n      eq\n      tag_4\n      jumpi\n      dup1\n      0x1401795f\n      eq\n      tag_5\n      jumpi\n      dup1\n      0x38db6dd3\n      eq\n      tag_6\n      jumpi\n    tag_2:\n      revert(0x00, 0x00)\n        /* \"contracts/14_VotingV4_withTest.sol\":1636:1969  function createVotingSession() public onlyOwner {... */\n    tag_3:\n      tag_25\n      tag_26\n      jump\t// in\n    tag_25:\n      stop\n        /* \"contracts/14_VotingV4_withTest.sol\":872:924  mapping(uint => VotingSession) public votingSessions */\n    tag_4:\n      tag_27\n      0x04\n      dup1\n      calldatasize\n      sub\n      dup2\n      add\n      swap1\n      tag_28\n      swap2\n      swap1\n      tag_29\n      jump\t// in\n    tag_28:\n      tag_30\n      jump\t// in\n    tag_27:\n      mload(0x40)\n      tag_31\n      swap4\n      swap3\n      swap2\n      swap1\n      tag_32\n      jump\t// in\n    tag_31:\n      mload(0x40)\n      dup1\n      swap2\n      sub\n      swap1\n      return\n        /* \"contracts/14_VotingV4_withTest.sol\":1496:1630  function getCurrentSession() public view returns (VotingSession memory) {... */\n    tag_5:\n      tag_33\n      tag_34\n      jump\t// in\n    tag_33:\n      mload(0x40)\n      tag_35\n      swap2\n      swap1\n      tag_36\n      jump\t// in\n    tag_35:\n      mload(0x40)\n      dup1\n      swap2\n      sub\n      swap1\n      return\n        /* \"contracts/14_VotingV4_withTest.sol\":1975:2453  function registerVoter(address _address) public onlyOwner {... */\n    tag_6:\n      tag_37\n      0x04\n      dup1\n      calldatasize\n      sub\n      dup2\n      add\n      swap1\n      tag_38\n      swap2\n      swap1\n      tag_39\n      jump\t// in\n    tag_38:\n      tag_40\n      jump\t// in\n    tag_37:\n      stop\n        /* \"contracts/14_VotingV4_withTest.sol\":3509:4323  function sendNewProposition(string memory _description) public onlyIfRegistered {... */\n    tag_7:\n      tag_41\n      0x04\n      dup1\n      calldatasize\n      sub\n      dup2\n      add\n      swap1\n      tag_42\n      swap2\n      swap1\n      tag_43\n      jump\t// in\n    tag_42:\n      tag_44\n      jump\t// in\n    tag_41:\n      stop\n        /* \"contracts/14_VotingV4_withTest.sol\":7852:8179  function getWinningProposalBySession(uint _sessionId) external view returns (Proposal memory) {... */\n    tag_8:\n      tag_45\n      0x04\n      dup1\n      calldatasize\n      sub\n      dup2\n      add\n      swap1\n      tag_46\n      swap2\n      swap1\n      tag_29\n      jump\t// in\n    tag_46:\n      tag_47\n      jump\t// in\n    tag_45:\n      mload(0x40)\n      tag_48\n      swap2\n      swap1\n      tag_49\n      jump\t// in\n    tag_48:\n      mload(0x40)\n      dup1\n      swap2\n      sub\n      swap1\n      return\n        /* \"contracts/14_VotingV4_withTest.sol\":8393:8613  function getAllProposalsFromCurrentSession() public view returns (Proposal[] memory) {... */\n    tag_9:\n      tag_50\n      tag_51\n      jump\t// in\n    tag_50:\n      mload(0x40)\n      tag_52\n      swap2\n      swap1\n      tag_53\n      jump\t// in\n    tag_52:\n      mload(0x40)\n      dup1\n      swap2\n      sub\n      swap1\n      return\n        /* \"contracts/14_VotingV4_withTest.sol\":4329:4896  function endProposalsRegistration() public onlyOwner {... */\n    tag_10:\n      tag_54\n      tag_55\n      jump\t// in\n    tag_54:\n      stop\n        /* \"https://github.com/OpenZeppelin/openzeppelin-contracts/blob/master/contracts/access/Ownable.sol\":2293:2394  function renounceOwnership() public virtual onlyOwner {... */\n    tag_11:\n      tag_56\n      tag_57\n      jump\t// in\n    tag_56:\n      stop\n        /* \"contracts/14_VotingV4_withTest.sol\":2459:2945  function unregisterVoter(address _address) public onlyOwner {... */\n    tag_12:\n      tag_58\n      0x04\n      dup1\n      calldatasize\n      sub\n      dup2\n      add\n      swap1\n      tag_59\n      swap2\n      swap1\n      tag_39\n      jump\t// in\n    tag_59:\n      tag_60\n      jump\t// in\n    tag_58:\n      stop\n        /* \"contracts/14_VotingV4_withTest.sol\":6792:7846  function computeMostVotedProposal() public onlyOwner {... */\n    tag_13:\n      tag_61\n      tag_62\n      jump\t// in\n    tag_61:\n      stop\n        /* \"https://github.com/OpenZeppelin/openzeppelin-contracts/blob/master/contracts/access/Ownable.sol\":1638:1723  function owner() public view virtual returns (address) {... */\n    tag_14:\n      tag_63\n      tag_64\n      jump\t// in\n    tag_63:\n      mload(0x40)\n      tag_65\n      swap2\n      swap1\n      tag_66\n      jump\t// in\n    tag_65:\n      mload(0x40)\n      dup1\n      swap2\n      sub\n      swap1\n      return\n        /* \"contracts/14_VotingV4_withTest.sol\":197:231  uint public currentVotingSessionId */\n    tag_15:\n      tag_67\n      tag_68\n      jump\t// in\n    tag_67:\n      mload(0x40)\n      tag_69\n      swap2\n      swap1\n      tag_70\n      jump\t// in\n    tag_69:\n      mload(0x40)\n      dup1\n      swap2\n      sub\n      swap1\n      return\n        /* \"contracts/14_VotingV4_withTest.sol\":6268:6786  function endVotingSession() public onlyOwner {... */\n    tag_16:\n      tag_71\n      tag_72\n      jump\t// in\n    tag_71:\n      stop\n        /* \"contracts/14_VotingV4_withTest.sol\":5442:6262  function sendVote(uint _proposalId) public onlyIfRegistered {... */\n    tag_17:\n      tag_73\n      0x04\n      dup1\n      calldatasize\n      sub\n      dup2\n      add\n      swap1\n      tag_74\n      swap2\n      swap1\n      tag_29\n      jump\t// in\n    tag_74:\n      tag_75\n      jump\t// in\n    tag_73:\n      stop\n        /* \"contracts/14_VotingV4_withTest.sol\":2951:3503  function startProposalsRegistration() public onlyOwner {... */\n    tag_18:\n      tag_76\n      tag_77\n      jump\t// in\n    tag_76:\n      stop\n        /* \"contracts/14_VotingV4_withTest.sol\":4902:5436  function startVotingSession() public onlyOwner {... */\n    tag_19:\n      tag_78\n      tag_79\n      jump\t// in\n    tag_78:\n      stop\n        /* \"https://github.com/OpenZeppelin/openzeppelin-contracts/blob/master/contracts/access/Ownable.sol\":2543:2758  function transferOwnership(address newOwner) public virtual onlyOwner {... */\n    tag_20:\n      tag_80\n      0x04\n      dup1\n      calldatasize\n      sub\n      dup2\n      add\n      swap1\n      tag_81\n      swap2\n      swap1\n      tag_39\n      jump\t// in\n    tag_81:\n      tag_82\n      jump\t// in\n    tag_80:\n      stop\n        /* \"contracts/14_VotingV4_withTest.sol\":8185:8387  function getAllProposalsBySession(uint _sessionId) external view returns (Proposal[] memory) {... */\n    tag_21:\n      tag_83\n      0x04\n      dup1\n      calldatasize\n      sub\n      dup2\n      add\n      swap1\n      tag_84\n      swap2\n      swap1\n      tag_29\n      jump\t// in\n    tag_84:\n      tag_85\n      jump\t// in\n    tag_83:\n      mload(0x40)\n      tag_86\n      swap2\n      swap1\n      tag_53\n      jump\t// in\n    tag_86:\n      mload(0x40)\n      dup1\n      swap2\n      sub\n      swap1\n      return\n        /* \"contracts/14_VotingV4_withTest.sol\":1636:1969  function createVotingSession() public onlyOwner {... */\n    tag_26:\n        /* \"https://github.com/OpenZeppelin/openzeppelin-contracts/blob/master/contracts/access/Ownable.sol\":1531:1544  _checkOwner() */\n      tag_88\n        /* \"https://github.com/OpenZeppelin/openzeppelin-contracts/blob/master/contracts/access/Ownable.sol\":1531:1542  _checkOwner */\n      tag_89\n        /* \"https://github.com/OpenZeppelin/openzeppelin-contracts/blob/master/contracts/access/Ownable.sol\":1531:1544  _checkOwner() */\n      jump\t// in\n    tag_88:\n        /* \"contracts/14_VotingV4_withTest.sol\":1694:1716  currentVotingSessionId */\n      0x01\n      0x00\n        /* \"contracts/14_VotingV4_withTest.sol\":1694:1718  currentVotingSessionId++ */\n      dup2\n      sload\n      dup1\n      swap3\n      swap2\n      swap1\n      tag_91\n      swap1\n      tag_92\n      jump\t// in\n    tag_91:\n      swap2\n      swap1\n      pop\n      sstore\n      pop\n        /* \"contracts/14_VotingV4_withTest.sol\":1728:1760  VotingSession storage newSession */\n      0x00\n        /* \"contracts/14_VotingV4_withTest.sol\":1763:1777  votingSessions */\n      0x02\n        /* \"contracts/14_VotingV4_withTest.sol\":1763:1801  votingSessions[currentVotingSessionId] */\n      0x00\n        /* \"contracts/14_VotingV4_withTest.sol\":1778:1800  currentVotingSessionId */\n      sload(0x01)\n        /* \"contracts/14_VotingV4_withTest.sol\":1763:1801  votingSessions[currentVotingSessionId] */\n      dup2\n      mstore\n      0x20\n      add\n      swap1\n      dup2\n      mstore\n      0x20\n      add\n      0x00\n      keccak256\n        /* \"contracts/14_VotingV4_withTest.sol\":1728:1801  VotingSession storage newSession = votingSessions[currentVotingSessionId] */\n      swap1\n      pop\n        /* \"contracts/14_VotingV4_withTest.sol\":1839:1871  WorkflowStatus.RegisteringVoters */\n      0x00\n        /* \"contracts/14_VotingV4_withTest.sol\":1811:1821  newSession */\n      dup2\n        /* \"contracts/14_VotingV4_withTest.sol\":1811:1836  newSession.workflowStatus */\n      0x00\n      add\n      0x00\n        /* \"contracts/14_VotingV4_withTest.sol\":1811:1871  newSession.workflowStatus = WorkflowStatus.RegisteringVoters */\n      0x0100\n      exp\n      dup2\n      sload\n      dup2\n      0xff\n      mul\n      not\n      and\n      swap1\n      dup4\n      0x05\n      dup2\n      gt\n      iszero\n      tag_93\n      jumpi\n      tag_94\n      tag_95\n      jump\t// in\n    tag_94:\n    tag_93:\n      mul\n      or\n      swap1\n      sstore\n      pop\n        /* \"contracts/14_VotingV4_withTest.sol\":1908:1909  0 */\n      0x00\n        /* \"contracts/14_VotingV4_withTest.sol\":1881:1891  newSession */\n      dup2\n        /* \"contracts/14_VotingV4_withTest.sol\":1881:1905  newSession.proposalCount */\n      0x03\n      add\n        /* \"contracts/14_VotingV4_withTest.sol\":1881:1909  newSession.proposalCount = 0 */\n      dup2\n      swap1\n      sstore\n      pop\n        /* \"contracts/14_VotingV4_withTest.sol\":1924:1962  SessionCreated(currentVotingSessionId) */\n      0xba5b9081592c446fc890c90b94eb1cb2e823c52d85adafb0a116860c7549705a\n        /* \"contracts/14_VotingV4_withTest.sol\":1939:1961  currentVotingSessionId */\n      sload(0x01)\n        /* \"contracts/14_VotingV4_withTest.sol\":1924:1962  SessionCreated(currentVotingSessionId) */\n      mload(0x40)\n      tag_96\n      swap2\n      swap1\n      tag_70\n      jump\t// in\n    tag_96:\n      mload(0x40)\n      dup1\n      swap2\n      sub\n      swap1\n      log1\n        /* \"contracts/14_VotingV4_withTest.sol\":1684:1969  {... */\n      pop\n        /* \"contracts/14_VotingV4_withTest.sol\":1636:1969  function createVotingSession() public onlyOwner {... */\n      jump\t// out\n        /* \"contracts/14_VotingV4_withTest.sol\":872:924  mapping(uint => VotingSession) public votingSessions */\n    tag_30:\n      mstore(0x20, 0x02)\n      dup1\n      0x00\n      mstore\n      keccak256(0x00, 0x40)\n      0x00\n      swap2\n      pop\n      swap1\n      pop\n      dup1\n      0x00\n      add\n      0x00\n      swap1\n      sload\n      swap1\n      0x0100\n      exp\n      swap1\n      div\n      0xff\n      and\n      swap1\n      dup1\n      0x01\n      add\n      sload\n      swap1\n      dup1\n      0x03\n      add\n      sload\n      swap1\n      pop\n      dup4\n      jump\t// out\n        /* \"contracts/14_VotingV4_withTest.sol\":1496:1630  function getCurrentSession() public view returns (VotingSession memory) {... */\n    tag_34:\n        /* \"contracts/14_VotingV4_withTest.sol\":1546:1566  VotingSession memory */\n      tag_97\n      tag_98\n      jump\t// in\n    tag_97:\n        /* \"contracts/14_VotingV4_withTest.sol\":1585:1599  votingSessions */\n      0x02\n        /* \"contracts/14_VotingV4_withTest.sol\":1585:1623  votingSessions[currentVotingSessionId] */\n      0x00\n        /* \"contracts/14_VotingV4_withTest.sol\":1600:1622  currentVotingSessionId */\n      sload(0x01)\n        /* \"contracts/14_VotingV4_withTest.sol\":1585:1623  votingSessions[currentVotingSessionId] */\n      dup2\n      mstore\n      0x20\n      add\n      swap1\n      dup2\n      mstore\n      0x20\n      add\n      0x00\n      keccak256\n        /* \"contracts/14_VotingV4_withTest.sol\":1578:1623  return votingSessions[currentVotingSessionId] */\n      mload(0x40)\n      dup1\n      0x80\n      add\n      0x40\n      mstore\n      swap1\n      dup2\n      0x00\n      dup3\n      add\n      0x00\n      swap1\n      sload\n      swap1\n      0x0100\n      exp\n      swap1\n      div\n      0xff\n      and\n      0x05\n      dup2\n      gt\n      iszero\n      tag_100\n      jumpi\n      tag_101\n      tag_95\n      jump\t// in\n    tag_101:\n    tag_100:\n      0x05\n      dup2\n      gt\n      iszero\n      tag_102\n      jumpi\n      tag_103\n      tag_95\n      jump\t// in\n    tag_103:\n    tag_102:\n      dup2\n      mstore\n      0x20\n      add\n      0x01\n      dup3\n      add\n      sload\n      dup2\n      mstore\n      0x20\n      add\n      0x02\n      dup3\n      add\n      dup1\n      sload\n      dup1\n      0x20\n      mul\n      0x20\n      add\n      mload(0x40)\n      swap1\n      dup2\n      add\n      0x40\n      mstore\n      dup1\n      swap3\n      swap2\n      swap1\n      dup2\n      dup2\n      mstore\n      0x20\n      add\n      0x00\n      swap1\n    tag_104:\n      dup3\n      dup3\n      lt\n      iszero\n      tag_105\n      jumpi\n      dup4\n      dup3\n      swap1\n      0x00\n      mstore\n      keccak256(0x00, 0x20)\n      swap1\n      0x03\n      mul\n      add\n      mload(0x40)\n      dup1\n      0x60\n      add\n      0x40\n      mstore\n      swap1\n      dup2\n      0x00\n      dup3\n      add\n      sload\n      dup2\n      mstore\n      0x20\n      add\n      0x01\n      dup3\n      add\n      dup1\n      sload\n      tag_107\n      swap1\n      tag_108\n      jump\t// in\n    tag_107:\n      dup1\n      0x1f\n      add\n      0x20\n      dup1\n      swap2\n      div\n      mul\n      0x20\n      add\n      mload(0x40)\n      swap1\n      dup2\n      add\n      0x40\n      mstore\n      dup1\n      swap3\n      swap2\n      swap1\n      dup2\n      dup2\n      mstore\n      0x20\n      add\n      dup3\n      dup1\n      sload\n      tag_109\n      swap1\n      tag_108\n      jump\t// in\n    tag_109:\n      dup1\n      iszero\n      tag_110\n      jumpi\n      dup1\n      0x1f\n      lt\n      tag_111\n      jumpi\n      0x0100\n      dup1\n      dup4\n      sload\n      div\n      mul\n      dup4\n      mstore\n      swap2\n      0x20\n      add\n      swap2\n      jump(tag_110)\n    tag_111:\n      dup3\n      add\n      swap2\n      swap1\n      0x00\n      mstore\n      keccak256(0x00, 0x20)\n      swap1\n    tag_112:\n      dup2\n      sload\n      dup2\n      mstore\n      swap1\n      0x01\n      add\n      swap1\n      0x20\n      add\n      dup1\n      dup4\n      gt\n      tag_112\n      jumpi\n      dup3\n      swap1\n      sub\n      0x1f\n      and\n      dup3\n      add\n      swap2\n    tag_110:\n      pop\n      pop\n      pop\n      pop\n      pop\n      dup2\n      mstore\n      0x20\n      add\n      0x02\n      dup3\n      add\n      sload\n      dup2\n      mstore\n      pop\n      pop\n      dup2\n      mstore\n      0x20\n      add\n      swap1\n      0x01\n      add\n      swap1\n      jump(tag_104)\n    tag_105:\n      pop\n      pop\n      pop\n      pop\n      dup2\n      mstore\n      0x20\n      add\n      0x03\n      dup3\n      add\n      sload\n      dup2\n      mstore\n      pop\n      pop\n      swap1\n      pop\n        /* \"contracts/14_VotingV4_withTest.sol\":1496:1630  function getCurrentSession() public view returns (VotingSession memory) {... */\n      swap1\n      jump\t// out\n        /* \"contracts/14_VotingV4_withTest.sol\":1975:2453  function registerVoter(address _address) public onlyOwner {... */\n    tag_40:\n        /* \"https://github.com/OpenZeppelin/openzeppelin-contracts/blob/master/contracts/access/Ownable.sol\":1531:1544  _checkOwner() */\n      tag_114\n        /* \"https://github.com/OpenZeppelin/openzeppelin-contracts/blob/master/contracts/access/Ownable.sol\":1531:1542  _checkOwner */\n      tag_89\n        /* \"https://github.com/OpenZeppelin/openzeppelin-contracts/blob/master/contracts/access/Ownable.sol\":1531:1544  _checkOwner() */\n      jump\t// in\n    tag_114:\n        /* \"contracts/14_VotingV4_withTest.sol\":2043:2079  VotingSession storage currentSession */\n      0x00\n        /* \"contracts/14_VotingV4_withTest.sol\":2082:2096  votingSessions */\n      0x02\n        /* \"contracts/14_VotingV4_withTest.sol\":2082:2120  votingSessions[currentVotingSessionId] */\n      0x00\n        /* \"contracts/14_VotingV4_withTest.sol\":2097:2119  currentVotingSessionId */\n      sload(0x01)\n        /* \"contracts/14_VotingV4_withTest.sol\":2082:2120  votingSessions[currentVotingSessionId] */\n      dup2\n      mstore\n      0x20\n      add\n      swap1\n      dup2\n      mstore\n      0x20\n      add\n      0x00\n      keccak256\n        /* \"contracts/14_VotingV4_withTest.sol\":2043:2120  VotingSession storage currentSession = votingSessions[currentVotingSessionId] */\n      swap1\n      pop\n        /* \"contracts/14_VotingV4_withTest.sol\":2184:2216  WorkflowStatus.RegisteringVoters */\n      0x00\n        /* \"contracts/14_VotingV4_withTest.sol\":2151:2216  currentSession.workflowStatus == WorkflowStatus.RegisteringVoters */\n      0x05\n      dup2\n      gt\n      iszero\n      tag_116\n      jumpi\n      tag_117\n      tag_95\n      jump\t// in\n    tag_117:\n    tag_116:\n        /* \"contracts/14_VotingV4_withTest.sol\":2151:2165  currentSession */\n      dup2\n        /* \"contracts/14_VotingV4_withTest.sol\":2151:2180  currentSession.workflowStatus */\n      0x00\n      add\n      0x00\n      swap1\n      sload\n      swap1\n      0x0100\n      exp\n      swap1\n      div\n      0xff\n      and\n        /* \"contracts/14_VotingV4_withTest.sol\":2151:2216  currentSession.workflowStatus == WorkflowStatus.RegisteringVoters */\n      0x05\n      dup2\n      gt\n      iszero\n      tag_118\n      jumpi\n      tag_119\n      tag_95\n      jump\t// in\n    tag_119:\n    tag_118:\n      eq\n        /* \"contracts/14_VotingV4_withTest.sol\":2130:2283  require(... */\n      tag_120\n      jumpi\n      mload(0x40)\n      0x08c379a000000000000000000000000000000000000000000000000000000000\n      dup2\n      mstore\n      0x04\n      add\n      tag_121\n      swap1\n      tag_122\n      jump\t// in\n    tag_121:\n      mload(0x40)\n      dup1\n      swap2\n      sub\n      swap1\n      revert\n    tag_120:\n        /* \"contracts/14_VotingV4_withTest.sol\":2302:2308  voters */\n      0x03\n        /* \"contracts/14_VotingV4_withTest.sol\":2302:2318  voters[_address] */\n      0x00\n        /* \"contracts/14_VotingV4_withTest.sol\":2309:2317  _address */\n      dup4\n        /* \"contracts/14_VotingV4_withTest.sol\":2302:2318  voters[_address] */\n      0xffffffffffffffffffffffffffffffffffffffff\n      and\n      0xffffffffffffffffffffffffffffffffffffffff\n      and\n      dup2\n      mstore\n      0x20\n      add\n      swap1\n      dup2\n      mstore\n      0x20\n      add\n      0x00\n      keccak256\n        /* \"contracts/14_VotingV4_withTest.sol\":2302:2331  voters[_address].isRegistered */\n      0x00\n      add\n      0x00\n      swap1\n      sload\n      swap1\n      0x0100\n      exp\n      swap1\n      div\n      0xff\n      and\n        /* \"contracts/14_VotingV4_withTest.sol\":2301:2331  !voters[_address].isRegistered */\n      iszero\n        /* \"contracts/14_VotingV4_withTest.sol\":2293:2360  require(!voters[_address].isRegistered, \"Voter already registered\") */\n      tag_123\n      jumpi\n      mload(0x40)\n      0x08c379a000000000000000000000000000000000000000000000000000000000\n      dup2\n      mstore\n      0x04\n      add\n      tag_124\n      swap1\n      tag_125\n      jump\t// in\n    tag_124:\n      mload(0x40)\n      dup1\n      swap2\n      sub\n      swap1\n      revert\n    tag_123:\n        /* \"contracts/14_VotingV4_withTest.sol\":2402:2406  true */\n      0x01\n        /* \"contracts/14_VotingV4_withTest.sol\":2370:2376  voters */\n      0x03\n        /* \"contracts/14_VotingV4_withTest.sol\":2370:2386  voters[_address] */\n      0x00\n        /* \"contracts/14_VotingV4_withTest.sol\":2377:2385  _address */\n      dup5\n        /* \"contracts/14_VotingV4_withTest.sol\":2370:2386  voters[_address] */\n      0xffffffffffffffffffffffffffffffffffffffff\n      and\n      0xffffffffffffffffffffffffffffffffffffffff\n      and\n      dup2\n      mstore\n      0x20\n      add\n      swap1\n      dup2\n      mstore\n      0x20\n      add\n      0x00\n      keccak256\n        /* \"contracts/14_VotingV4_withTest.sol\":2370:2399  voters[_address].isRegistered */\n      0x00\n      add\n      0x00\n        /* \"contracts/14_VotingV4_withTest.sol\":2370:2406  voters[_address].isRegistered = true */\n      0x0100\n      exp\n      dup2\n      sload\n      dup2\n      0xff\n      mul\n      not\n      and\n      swap1\n      dup4\n      iszero\n      iszero\n      mul\n      or\n      swap1\n      sstore\n      pop\n        /* \"contracts/14_VotingV4_withTest.sol\":2421:2446  VoterRegistered(_address) */\n      0xb6be2187d059cc2a55fe29e0e503b566e1e0f8c8780096e185429350acffd3dd\n        /* \"contracts/14_VotingV4_withTest.sol\":2437:2445  _address */\n      dup3\n        /* \"contracts/14_VotingV4_withTest.sol\":2421:2446  VoterRegistered(_address) */\n      mload(0x40)\n      tag_126\n      swap2\n      swap1\n      tag_66\n      jump\t// in\n    tag_126:\n      mload(0x40)\n      dup1\n      swap2\n      sub\n      swap1\n      log1\n        /* \"contracts/14_VotingV4_withTest.sol\":2033:2453  {... */\n      pop\n        /* \"contracts/14_VotingV4_withTest.sol\":1975:2453  function registerVoter(address _address) public onlyOwner {... */\n      pop\n      jump\t// out\n        /* \"contracts/14_VotingV4_withTest.sol\":3509:4323  function sendNewProposition(string memory _description) public onlyIfRegistered {... */\n    tag_44:\n        /* \"contracts/14_VotingV4_withTest.sol\":1414:1420  voters */\n      0x03\n        /* \"contracts/14_VotingV4_withTest.sol\":1414:1432  voters[msg.sender] */\n      0x00\n        /* \"contracts/14_VotingV4_withTest.sol\":1421:1431  msg.sender */\n      caller\n        /* \"contracts/14_VotingV4_withTest.sol\":1414:1432  voters[msg.sender] */\n      0xffffffffffffffffffffffffffffffffffffffff\n      and\n      0xffffffffffffffffffffffffffffffffffffffff\n      and\n      dup2\n      mstore\n      0x20\n      add\n      swap1\n      dup2\n      mstore\n      0x20\n      add\n      0x00\n      keccak256\n        /* \"contracts/14_VotingV4_withTest.sol\":1414:1445  voters[msg.sender].isRegistered */\n      0x00\n      add\n      0x00\n      swap1\n      sload\n      swap1\n      0x0100\n      exp\n      swap1\n      div\n      0xff\n      and\n        /* \"contracts/14_VotingV4_withTest.sol\":1406:1472  require(voters[msg.sender].isRegistered, \"You are not registered\") */\n      tag_128\n      jumpi\n      mload(0x40)\n      0x08c379a000000000000000000000000000000000000000000000000000000000\n      dup2\n      mstore\n      0x04\n      add\n      tag_129\n      swap1\n      tag_130\n      jump\t// in\n    tag_129:\n      mload(0x40)\n      dup1\n      swap2\n      sub\n      swap1\n      revert\n    tag_128:\n        /* \"contracts/14_VotingV4_withTest.sol\":3636:3637  0 */\n      0x00\n        /* \"contracts/14_VotingV4_withTest.sol\":3613:3625  _description */\n      dup2\n        /* \"contracts/14_VotingV4_withTest.sol\":3607:3633  bytes(_description).length */\n      mload\n        /* \"contracts/14_VotingV4_withTest.sol\":3607:3637  bytes(_description).length > 0 */\n      gt\n        /* \"contracts/14_VotingV4_withTest.sol\":3599:3674  require(bytes(_description).length > 0, \"Proposal description is required\") */\n      tag_132\n      jumpi\n      mload(0x40)\n      0x08c379a000000000000000000000000000000000000000000000000000000000\n      dup2\n      mstore\n      0x04\n      add\n      tag_133\n      swap1\n      tag_134\n      jump\t// in\n    tag_133:\n      mload(0x40)\n      dup1\n      swap2\n      sub\n      swap1\n      revert\n    tag_132:\n        /* \"contracts/14_VotingV4_withTest.sol\":3693:3729  VotingSession storage currentSession */\n      0x00\n        /* \"contracts/14_VotingV4_withTest.sol\":3732:3746  votingSessions */\n      0x02\n        /* \"contracts/14_VotingV4_withTest.sol\":3732:3770  votingSessions[currentVotingSessionId] */\n      0x00\n        /* \"contracts/14_VotingV4_withTest.sol\":3747:3769  currentVotingSessionId */\n      sload(0x01)\n        /* \"contracts/14_VotingV4_withTest.sol\":3732:3770  votingSessions[currentVotingSessionId] */\n      dup2\n      mstore\n      0x20\n      add\n      swap1\n      dup2\n      mstore\n      0x20\n      add\n      0x00\n      keccak256\n        /* \"contracts/14_VotingV4_withTest.sol\":3693:3770  VotingSession storage currentSession = votingSessions[currentVotingSessionId] */\n      swap1\n      pop\n        /* \"contracts/14_VotingV4_withTest.sol\":3834:3877  WorkflowStatus.ProposalsRegistrationStarted */\n      0x01\n        /* \"contracts/14_VotingV4_withTest.sol\":3801:3877  currentSession.workflowStatus == WorkflowStatus.ProposalsRegistrationStarted */\n      0x05\n      dup2\n      gt\n      iszero\n      tag_135\n      jumpi\n      tag_136\n      tag_95\n      jump\t// in\n    tag_136:\n    tag_135:\n        /* \"contracts/14_VotingV4_withTest.sol\":3801:3815  currentSession */\n      dup2\n        /* \"contracts/14_VotingV4_withTest.sol\":3801:3830  currentSession.workflowStatus */\n      0x00\n      add\n      0x00\n      swap1\n      sload\n      swap1\n      0x0100\n      exp\n      swap1\n      div\n      0xff\n      and\n        /* \"contracts/14_VotingV4_withTest.sol\":3801:3877  currentSession.workflowStatus == WorkflowStatus.ProposalsRegistrationStarted */\n      0x05\n      dup2\n      gt\n      iszero\n      tag_137\n      jumpi\n      tag_138\n      tag_95\n      jump\t// in\n    tag_138:\n    tag_137:\n      eq\n        /* \"contracts/14_VotingV4_withTest.sol\":3780:3937  require(... */\n      tag_139\n      jumpi\n      mload(0x40)\n      0x08c379a000000000000000000000000000000000000000000000000000000000\n      dup2\n      mstore\n      0x04\n      add\n      tag_140\n      swap1\n      tag_141\n      jump\t// in\n    tag_140:\n      mload(0x40)\n      dup1\n      swap2\n      sub\n      swap1\n      revert\n    tag_139:\n        /* \"contracts/14_VotingV4_withTest.sol\":3948:3963  uint proposalId */\n      0x00\n        /* \"contracts/14_VotingV4_withTest.sol\":3966:3980  currentSession */\n      dup2\n        /* \"contracts/14_VotingV4_withTest.sol\":3966:3994  currentSession.proposalCount */\n      0x03\n      add\n      sload\n        /* \"contracts/14_VotingV4_withTest.sol\":3948:3994  uint proposalId = currentSession.proposalCount */\n      swap1\n      pop\n        /* \"contracts/14_VotingV4_withTest.sol\":4004:4018  currentSession */\n      dup2\n        /* \"contracts/14_VotingV4_withTest.sol\":4004:4028  currentSession.proposals */\n      0x02\n      add\n        /* \"contracts/14_VotingV4_withTest.sol\":4034:4147  Proposal({... */\n      mload(0x40)\n      dup1\n      0x60\n      add\n      0x40\n      mstore\n      dup1\n        /* \"contracts/14_VotingV4_withTest.sol\":4061:4071  proposalId */\n      dup4\n        /* \"contracts/14_VotingV4_withTest.sol\":4034:4147  Proposal({... */\n      dup2\n      mstore\n      0x20\n      add\n        /* \"contracts/14_VotingV4_withTest.sol\":4098:4110  _description */\n      dup6\n        /* \"contracts/14_VotingV4_withTest.sol\":4034:4147  Proposal({... */\n      dup2\n      mstore\n      0x20\n      add\n        /* \"contracts/14_VotingV4_withTest.sol\":4135:4136  0 */\n      0x00\n        /* \"contracts/14_VotingV4_withTest.sol\":4034:4147  Proposal({... */\n      dup2\n      mstore\n      pop\n        /* \"contracts/14_VotingV4_withTest.sol\":4004:4148  currentSession.proposals.push(Proposal({... */\n      swap1\n      dup1\n      0x01\n      dup2\n      sload\n      add\n      dup1\n      dup3\n      sstore\n      dup1\n      swap2\n      pop\n      pop\n      0x01\n      swap1\n      sub\n      swap1\n      0x00\n      mstore\n      keccak256(0x00, 0x20)\n      swap1\n      0x03\n      mul\n      add\n      0x00\n      swap1\n      swap2\n      swap1\n      swap2\n      swap1\n      swap2\n      pop\n      0x00\n      dup3\n      add\n      mload\n      dup2\n      0x00\n      add\n      sstore\n      0x20\n      dup3\n      add\n      mload\n      dup2\n      0x01\n      add\n      swap1\n      dup2\n      tag_143\n      swap2\n      swap1\n      tag_144\n      jump\t// in\n    tag_143:\n      pop\n      0x40\n      dup3\n      add\n      mload\n      dup2\n      0x02\n      add\n      sstore\n      pop\n      pop\n        /* \"contracts/14_VotingV4_withTest.sol\":4158:4172  currentSession */\n      dup2\n        /* \"contracts/14_VotingV4_withTest.sol\":4158:4186  currentSession.proposalCount */\n      0x03\n      add\n      0x00\n        /* \"contracts/14_VotingV4_withTest.sol\":4158:4188  currentSession.proposalCount++ */\n      dup2\n      sload\n      dup1\n      swap3\n      swap2\n      swap1\n      tag_145\n      swap1\n      tag_92\n      jump\t// in\n    tag_145:\n      swap2\n      swap1\n      pop\n      sstore\n      pop\n        /* \"contracts/14_VotingV4_withTest.sol\":4199:4205  voters */\n      0x03\n        /* \"contracts/14_VotingV4_withTest.sol\":4199:4217  voters[msg.sender] */\n      0x00\n        /* \"contracts/14_VotingV4_withTest.sol\":4206:4216  msg.sender */\n      caller\n        /* \"contracts/14_VotingV4_withTest.sol\":4199:4217  voters[msg.sender] */\n      0xffffffffffffffffffffffffffffffffffffffff\n      and\n      0xffffffffffffffffffffffffffffffffffffffff\n      and\n      dup2\n      mstore\n      0x20\n      add\n      swap1\n      dup2\n      mstore\n      0x20\n      add\n      0x00\n      keccak256\n        /* \"contracts/14_VotingV4_withTest.sol\":4199:4229  voters[msg.sender].proposalIds */\n      0x03\n      add\n        /* \"contracts/14_VotingV4_withTest.sol\":4235:4245  proposalId */\n      dup2\n        /* \"contracts/14_VotingV4_withTest.sol\":4199:4246  voters[msg.sender].proposalIds.push(proposalId) */\n      swap1\n      dup1\n      0x01\n      dup2\n      sload\n      add\n      dup1\n      dup3\n      sstore\n      dup1\n      swap2\n      pop\n      pop\n      0x01\n      swap1\n      sub\n      swap1\n      0x00\n      mstore\n      keccak256(0x00, 0x20)\n      add\n      0x00\n      swap1\n      swap2\n      swap1\n      swap2\n      swap1\n      swap2\n      pop\n      sstore\n        /* \"contracts/14_VotingV4_withTest.sol\":4262:4316  ProposalRegistered(currentVotingSessionId, proposalId) */\n      0xca195036d7c4d40b171ad51e9c891c830a0ad9a5e114b5b075cdf791317e300c\n        /* \"contracts/14_VotingV4_withTest.sol\":4281:4303  currentVotingSessionId */\n      sload(0x01)\n        /* \"contracts/14_VotingV4_withTest.sol\":4305:4315  proposalId */\n      dup3\n        /* \"contracts/14_VotingV4_withTest.sol\":4262:4316  ProposalRegistered(currentVotingSessionId, proposalId) */\n      mload(0x40)\n      tag_147\n      swap3\n      swap2\n      swap1\n      tag_148\n      jump\t// in\n    tag_147:\n      mload(0x40)\n      dup1\n      swap2\n      sub\n      swap1\n      log1\n        /* \"contracts/14_VotingV4_withTest.sol\":3589:4323  {... */\n      pop\n      pop\n        /* \"contracts/14_VotingV4_withTest.sol\":3509:4323  function sendNewProposition(string memory _description) public onlyIfRegistered {... */\n      pop\n      jump\t// out\n        /* \"contracts/14_VotingV4_withTest.sol\":7852:8179  function getWinningProposalBySession(uint _sessionId) external view returns (Proposal memory) {... */\n    tag_47:\n        /* \"contracts/14_VotingV4_withTest.sol\":7929:7944  Proposal memory */\n      tag_149\n      tag_150\n      jump\t// in\n    tag_149:\n        /* \"contracts/14_VotingV4_withTest.sol\":7956:7985  VotingSession storage session */\n      0x00\n        /* \"contracts/14_VotingV4_withTest.sol\":7988:8002  votingSessions */\n      0x02\n        /* \"contracts/14_VotingV4_withTest.sol\":7988:8014  votingSessions[_sessionId] */\n      0x00\n        /* \"contracts/14_VotingV4_withTest.sol\":8003:8013  _sessionId */\n      dup5\n        /* \"contracts/14_VotingV4_withTest.sol\":7988:8014  votingSessions[_sessionId] */\n      dup2\n      mstore\n      0x20\n      add\n      swap1\n      dup2\n      mstore\n      0x20\n      add\n      0x00\n      keccak256\n        /* \"contracts/14_VotingV4_withTest.sol\":7956:8014  VotingSession storage session = votingSessions[_sessionId] */\n      swap1\n      pop\n        /* \"contracts/14_VotingV4_withTest.sol\":8058:8085  WorkflowStatus.VotesTallied */\n      0x05\n        /* \"contracts/14_VotingV4_withTest.sol\":8032:8085  session.workflowStatus == WorkflowStatus.VotesTallied */\n      dup1\n      dup2\n      gt\n      iszero\n      tag_152\n      jumpi\n      tag_153\n      tag_95\n      jump\t// in\n    tag_153:\n    tag_152:\n        /* \"contracts/14_VotingV4_withTest.sol\":8032:8039  session */\n      dup2\n        /* \"contracts/14_VotingV4_withTest.sol\":8032:8054  session.workflowStatus */\n      0x00\n      add\n      0x00\n      swap1\n      sload\n      swap1\n      0x0100\n      exp\n      swap1\n      div\n      0xff\n      and\n        /* \"contracts/14_VotingV4_withTest.sol\":8032:8085  session.workflowStatus == WorkflowStatus.VotesTallied */\n      0x05\n      dup2\n      gt\n      iszero\n      tag_154\n      jumpi\n      tag_155\n      tag_95\n      jump\t// in\n    tag_155:\n    tag_154:\n      eq\n        /* \"contracts/14_VotingV4_withTest.sol\":8024:8111  require(session.workflowStatus == WorkflowStatus.VotesTallied, \"Votes not tallied yet\") */\n      tag_156\n      jumpi\n      mload(0x40)\n      0x08c379a000000000000000000000000000000000000000000000000000000000\n      dup2\n      mstore\n      0x04\n      add\n      tag_157\n      swap1\n      tag_158\n      jump\t// in\n    tag_157:\n      mload(0x40)\n      dup1\n      swap2\n      sub\n      swap1\n      revert\n    tag_156:\n        /* \"contracts/14_VotingV4_withTest.sol\":8128:8135  session */\n      dup1\n        /* \"contracts/14_VotingV4_withTest.sol\":8128:8145  session.proposals */\n      0x02\n      add\n        /* \"contracts/14_VotingV4_withTest.sol\":8146:8153  session */\n      dup2\n        /* \"contracts/14_VotingV4_withTest.sol\":8146:8171  session.winningProposalId */\n      0x01\n      add\n      sload\n        /* \"contracts/14_VotingV4_withTest.sol\":8128:8172  session.proposals[session.winningProposalId] */\n      dup2\n      sload\n      dup2\n      lt\n      tag_159\n      jumpi\n      tag_160\n      tag_161\n      jump\t// in\n    tag_160:\n    tag_159:\n      swap1\n      0x00\n      mstore\n      keccak256(0x00, 0x20)\n      swap1\n      0x03\n      mul\n      add\n        /* \"contracts/14_VotingV4_withTest.sol\":8121:8172  return session.proposals[session.winningProposalId] */\n      mload(0x40)\n      dup1\n      0x60\n      add\n      0x40\n      mstore\n      swap1\n      dup2\n      0x00\n      dup3\n      add\n      sload\n      dup2\n      mstore\n      0x20\n      add\n      0x01\n      dup3\n      add\n      dup1\n      sload\n      tag_163\n      swap1\n      tag_108\n      jump\t// in\n    tag_163:\n      dup1\n      0x1f\n      add\n      0x20\n      dup1\n      swap2\n      div\n      mul\n      0x20\n      add\n      mload(0x40)\n      swap1\n      dup2\n      add\n      0x40\n      mstore\n      dup1\n      swap3\n      swap2\n      swap1\n      dup2\n      dup2\n      mstore\n      0x20\n      add\n      dup3\n      dup1\n      sload\n      tag_164\n      swap1\n      tag_108\n      jump\t// in\n    tag_164:\n      dup1\n      iszero\n      tag_165\n      jumpi\n      dup1\n      0x1f\n      lt\n      tag_166\n      jumpi\n      0x0100\n      dup1\n      dup4\n      sload\n      div\n      mul\n      dup4\n      mstore\n      swap2\n      0x20\n      add\n      swap2\n      jump(tag_165)\n    tag_166:\n      dup3\n      add\n      swap2\n      swap1\n      0x00\n      mstore\n      keccak256(0x00, 0x20)\n      swap1\n    tag_167:\n      dup2\n      sload\n      dup2\n      mstore\n      swap1\n      0x01\n      add\n      swap1\n      0x20\n      add\n      dup1\n      dup4\n      gt\n      tag_167\n      jumpi\n      dup3\n      swap1\n      sub\n      0x1f\n      and\n      dup3\n      add\n      swap2\n    tag_165:\n      pop\n      pop\n      pop\n      pop\n      pop\n      dup2\n      mstore\n      0x20\n      add\n      0x02\n      dup3\n      add\n      sload\n      dup2\n      mstore\n      pop\n      pop\n      swap2\n      pop\n      pop\n        /* \"contracts/14_VotingV4_withTest.sol\":7852:8179  function getWinningProposalBySession(uint _sessionId) external view returns (Proposal memory) {... */\n      swap2\n      swap1\n      pop\n      jump\t// out\n        /* \"contracts/14_VotingV4_withTest.sol\":8393:8613  function getAllProposalsFromCurrentSession() public view returns (Proposal[] memory) {... */\n    tag_51:\n        /* \"contracts/14_VotingV4_withTest.sol\":8459:8476  Proposal[] memory */\n      0x60\n        /* \"contracts/14_VotingV4_withTest.sol\":8488:8524  VotingSession storage currentSession */\n      0x00\n        /* \"contracts/14_VotingV4_withTest.sol\":8527:8541  votingSessions */\n      0x02\n        /* \"contracts/14_VotingV4_withTest.sol\":8527:8565  votingSessions[currentVotingSessionId] */\n      0x00\n        /* \"contracts/14_VotingV4_withTest.sol\":8542:8564  currentVotingSessionId */\n      sload(0x01)\n        /* \"contracts/14_VotingV4_withTest.sol\":8527:8565  votingSessions[currentVotingSessionId] */\n      dup2\n      mstore\n      0x20\n      add\n      swap1\n      dup2\n      mstore\n      0x20\n      add\n      0x00\n      keccak256\n        /* \"contracts/14_VotingV4_withTest.sol\":8488:8565  VotingSession storage currentSession = votingSessions[currentVotingSessionId] */\n      swap1\n      pop\n        /* \"contracts/14_VotingV4_withTest.sol\":8582:8596  currentSession */\n      dup1\n        /* \"contracts/14_VotingV4_withTest.sol\":8582:8606  currentSession.proposals */\n      0x02\n      add\n        /* \"contracts/14_VotingV4_withTest.sol\":8575:8606  return currentSession.proposals */\n      dup1\n      sload\n      dup1\n      0x20\n      mul\n      0x20\n      add\n      mload(0x40)\n      swap1\n      dup2\n      add\n      0x40\n      mstore\n      dup1\n      swap3\n      swap2\n      swap1\n      dup2\n      dup2\n      mstore\n      0x20\n      add\n      0x00\n      swap1\n    tag_169:\n      dup3\n      dup3\n      lt\n      iszero\n      tag_170\n      jumpi\n      dup4\n      dup3\n      swap1\n      0x00\n      mstore\n      keccak256(0x00, 0x20)\n      swap1\n      0x03\n      mul\n      add\n      mload(0x40)\n      dup1\n      0x60\n      add\n      0x40\n      mstore\n      swap1\n      dup2\n      0x00\n      dup3\n      add\n      sload\n      dup2\n      mstore\n      0x20\n      add\n      0x01\n      dup3\n      add\n      dup1\n      sload\n      tag_172\n      swap1\n      tag_108\n      jump\t// in\n    tag_172:\n      dup1\n      0x1f\n      add\n      0x20\n      dup1\n      swap2\n      div\n      mul\n      0x20\n      add\n      mload(0x40)\n      swap1\n      dup2\n      add\n      0x40\n      mstore\n      dup1\n      swap3\n      swap2\n      swap1\n      dup2\n      dup2\n      mstore\n      0x20\n      add\n      dup3\n      dup1\n      sload\n      tag_173\n      swap1\n      tag_108\n      jump\t// in\n    tag_173:\n      dup1\n      iszero\n      tag_174\n      jumpi\n      dup1\n      0x1f\n      lt\n      tag_175\n      jumpi\n      0x0100\n      dup1\n      dup4\n      sload\n      div\n      mul\n      dup4\n      mstore\n      swap2\n      0x20\n      add\n      swap2\n      jump(tag_174)\n    tag_175:\n      dup3\n      add\n      swap2\n      swap1\n      0x00\n      mstore\n      keccak256(0x00, 0x20)\n      swap1\n    tag_176:\n      dup2\n      sload\n      dup2\n      mstore\n      swap1\n      0x01\n      add\n      swap1\n      0x20\n      add\n      dup1\n      dup4\n      gt\n      tag_176\n      jumpi\n      dup3\n      swap1\n      sub\n      0x1f\n      and\n      dup3\n      add\n      swap2\n    tag_174:\n      pop\n      pop\n      pop\n      pop\n      pop\n      dup2\n      mstore\n      0x20\n      add\n      0x02\n      dup3\n      add\n      sload\n      dup2\n      mstore\n      pop\n      pop\n      dup2\n      mstore\n      0x20\n      add\n      swap1\n      0x01\n      add\n      swap1\n      jump(tag_169)\n    tag_170:\n      pop\n      pop\n      pop\n      pop\n      swap2\n      pop\n      pop\n        /* \"contracts/14_VotingV4_withTest.sol\":8393:8613  function getAllProposalsFromCurrentSession() public view returns (Proposal[] memory) {... */\n      swap1\n      jump\t// out\n        /* \"contracts/14_VotingV4_withTest.sol\":4329:4896  function endProposalsRegistration() public onlyOwner {... */\n    tag_55:\n        /* \"https://github.com/OpenZeppelin/openzeppelin-contracts/blob/master/contracts/access/Ownable.sol\":1531:1544  _checkOwner() */\n      tag_178\n        /* \"https://github.com/OpenZeppelin/openzeppelin-contracts/blob/master/contracts/access/Ownable.sol\":1531:1542  _checkOwner */\n      tag_89\n        /* \"https://github.com/OpenZeppelin/openzeppelin-contracts/blob/master/contracts/access/Ownable.sol\":1531:1544  _checkOwner() */\n      jump\t// in\n    tag_178:\n        /* \"contracts/14_VotingV4_withTest.sol\":4392:4428  VotingSession storage currentSession */\n      0x00\n        /* \"contracts/14_VotingV4_withTest.sol\":4431:4445  votingSessions */\n      0x02\n        /* \"contracts/14_VotingV4_withTest.sol\":4431:4469  votingSessions[currentVotingSessionId] */\n      0x00\n        /* \"contracts/14_VotingV4_withTest.sol\":4446:4468  currentVotingSessionId */\n      sload(0x01)\n        /* \"contracts/14_VotingV4_withTest.sol\":4431:4469  votingSessions[currentVotingSessionId] */\n      dup2\n      mstore\n      0x20\n      add\n      swap1\n      dup2\n      mstore\n      0x20\n      add\n      0x00\n      keccak256\n        /* \"contracts/14_VotingV4_withTest.sol\":4392:4469  VotingSession storage currentSession = votingSessions[currentVotingSessionId] */\n      swap1\n      pop\n        /* \"contracts/14_VotingV4_withTest.sol\":4533:4576  WorkflowStatus.ProposalsRegistrationStarted */\n      0x01\n        /* \"contracts/14_VotingV4_withTest.sol\":4500:4576  currentSession.workflowStatus == WorkflowStatus.ProposalsRegistrationStarted */\n      0x05\n      dup2\n      gt\n      iszero\n      tag_180\n      jumpi\n      tag_181\n      tag_95\n      jump\t// in\n    tag_181:\n    tag_180:\n        /* \"contracts/14_VotingV4_withTest.sol\":4500:4514  currentSession */\n      dup2\n        /* \"contracts/14_VotingV4_withTest.sol\":4500:4529  currentSession.workflowStatus */\n      0x00\n      add\n      0x00\n      swap1\n      sload\n      swap1\n      0x0100\n      exp\n      swap1\n      div\n      0xff\n      and\n        /* \"contracts/14_VotingV4_withTest.sol\":4500:4576  currentSession.workflowStatus == WorkflowStatus.ProposalsRegistrationStarted */\n      0x05\n      dup2\n      gt\n      iszero\n      tag_182\n      jumpi\n      tag_183\n      tag_95\n      jump\t// in\n    tag_183:\n    tag_182:\n      eq\n        /* \"contracts/14_VotingV4_withTest.sol\":4479:4653  require(... */\n      tag_184\n      jumpi\n      mload(0x40)\n      0x08c379a000000000000000000000000000000000000000000000000000000000\n      dup2\n      mstore\n      0x04\n      add\n      tag_185\n      swap1\n      tag_186\n      jump\t// in\n    tag_185:\n      mload(0x40)\n      dup1\n      swap2\n      sub\n      swap1\n      revert\n    tag_184:\n        /* \"contracts/14_VotingV4_withTest.sol\":4663:4692  WorkflowStatus previousStatus */\n      0x00\n        /* \"contracts/14_VotingV4_withTest.sol\":4695:4709  currentSession */\n      dup2\n        /* \"contracts/14_VotingV4_withTest.sol\":4695:4724  currentSession.workflowStatus */\n      0x00\n      add\n      0x00\n      swap1\n      sload\n      swap1\n      0x0100\n      exp\n      swap1\n      div\n      0xff\n      and\n        /* \"contracts/14_VotingV4_withTest.sol\":4663:4724  WorkflowStatus previousStatus = currentSession.workflowStatus */\n      swap1\n      pop\n        /* \"contracts/14_VotingV4_withTest.sol\":4766:4807  WorkflowStatus.ProposalsRegistrationEnded */\n      0x02\n        /* \"contracts/14_VotingV4_withTest.sol\":4734:4748  currentSession */\n      dup3\n        /* \"contracts/14_VotingV4_withTest.sol\":4734:4763  currentSession.workflowStatus */\n      0x00\n      add\n      0x00\n        /* \"contracts/14_VotingV4_withTest.sol\":4734:4807  currentSession.workflowStatus = WorkflowStatus.ProposalsRegistrationEnded */\n      0x0100\n      exp\n      dup2\n      sload\n      dup2\n      0xff\n      mul\n      not\n      and\n      swap1\n      dup4\n      0x05\n      dup2\n      gt\n      iszero\n      tag_187\n      jumpi\n      tag_188\n      tag_95\n      jump\t// in\n    tag_188:\n    tag_187:\n      mul\n      or\n      swap1\n      sstore\n      pop\n        /* \"contracts/14_VotingV4_withTest.sol\":4822:4889  WorkflowStatusChange(previousStatus, currentSession.workflowStatus) */\n      0x0a97a4ee45751e2abf3e4fc8946939630b11b371ea8ae39ccdc3056e98f5cc3f\n        /* \"contracts/14_VotingV4_withTest.sol\":4843:4857  previousStatus */\n      dup2\n        /* \"contracts/14_VotingV4_withTest.sol\":4859:4873  currentSession */\n      dup4\n        /* \"contracts/14_VotingV4_withTest.sol\":4859:4888  currentSession.workflowStatus */\n      0x00\n      add\n      0x00\n      swap1\n      sload\n      swap1\n      0x0100\n      exp\n      swap1\n      div\n      0xff\n      and\n        /* \"contracts/14_VotingV4_withTest.sol\":4822:4889  WorkflowStatusChange(previousStatus, currentSession.workflowStatus) */\n      mload(0x40)\n      tag_189\n      swap3\n      swap2\n      swap1\n      tag_190\n      jump\t// in\n    tag_189:\n      mload(0x40)\n      dup1\n      swap2\n      sub\n      swap1\n      log1\n        /* \"contracts/14_VotingV4_withTest.sol\":4382:4896  {... */\n      pop\n      pop\n        /* \"contracts/14_VotingV4_withTest.sol\":4329:4896  function endProposalsRegistration() public onlyOwner {... */\n      jump\t// out\n        /* \"https://github.com/OpenZeppelin/openzeppelin-contracts/blob/master/contracts/access/Ownable.sol\":2293:2394  function renounceOwnership() public virtual onlyOwner {... */\n    tag_57:\n        /* \"https://github.com/OpenZeppelin/openzeppelin-contracts/blob/master/contracts/access/Ownable.sol\":1531:1544  _checkOwner() */\n      tag_192\n        /* \"https://github.com/OpenZeppelin/openzeppelin-contracts/blob/master/contracts/access/Ownable.sol\":1531:1542  _checkOwner */\n      tag_89\n        /* \"https://github.com/OpenZeppelin/openzeppelin-contracts/blob/master/contracts/access/Ownable.sol\":1531:1544  _checkOwner() */\n      jump\t// in\n    tag_192:\n        /* \"https://github.com/OpenZeppelin/openzeppelin-contracts/blob/master/contracts/access/Ownable.sol\":2357:2387  _transferOwnership(address(0)) */\n      tag_194\n        /* \"https://github.com/OpenZeppelin/openzeppelin-contracts/blob/master/contracts/access/Ownable.sol\":2384:2385  0 */\n      0x00\n        /* \"https://github.com/OpenZeppelin/openzeppelin-contracts/blob/master/contracts/access/Ownable.sol\":2357:2375  _transferOwnership */\n      tag_195\n        /* \"https://github.com/OpenZeppelin/openzeppelin-contracts/blob/master/contracts/access/Ownable.sol\":2357:2387  _transferOwnership(address(0)) */\n      jump\t// in\n    tag_194:\n        /* \"https://github.com/OpenZeppelin/openzeppelin-contracts/blob/master/contracts/access/Ownable.sol\":2293:2394  function renounceOwnership() public virtual onlyOwner {... */\n      jump\t// out\n        /* \"contracts/14_VotingV4_withTest.sol\":2459:2945  function unregisterVoter(address _address) public onlyOwner {... */\n    tag_60:\n        /* \"https://github.com/OpenZeppelin/openzeppelin-contracts/blob/master/contracts/access/Ownable.sol\":1531:1544  _checkOwner() */\n      tag_197\n        /* \"https://github.com/OpenZeppelin/openzeppelin-contracts/blob/master/contracts/access/Ownable.sol\":1531:1542  _checkOwner */\n      tag_89\n        /* \"https://github.com/OpenZeppelin/openzeppelin-contracts/blob/master/contracts/access/Ownable.sol\":1531:1544  _checkOwner() */\n      jump\t// in\n    tag_197:\n        /* \"contracts/14_VotingV4_withTest.sol\":2529:2565  VotingSession storage currentSession */\n      0x00\n        /* \"contracts/14_VotingV4_withTest.sol\":2568:2582  votingSessions */\n      0x02\n        /* \"contracts/14_VotingV4_withTest.sol\":2568:2606  votingSessions[currentVotingSessionId] */\n      0x00\n        /* \"contracts/14_VotingV4_withTest.sol\":2583:2605  currentVotingSessionId */\n      sload(0x01)\n        /* \"contracts/14_VotingV4_withTest.sol\":2568:2606  votingSessions[currentVotingSessionId] */\n      dup2\n      mstore\n      0x20\n      add\n      swap1\n      dup2\n      mstore\n      0x20\n      add\n      0x00\n      keccak256\n        /* \"contracts/14_VotingV4_withTest.sol\":2529:2606  VotingSession storage currentSession = votingSessions[currentVotingSessionId] */\n      swap1\n      pop\n        /* \"contracts/14_VotingV4_withTest.sol\":2670:2702  WorkflowStatus.RegisteringVoters */\n      0x00\n        /* \"contracts/14_VotingV4_withTest.sol\":2637:2702  currentSession.workflowStatus == WorkflowStatus.RegisteringVoters */\n      0x05\n      dup2\n      gt\n      iszero\n      tag_199\n      jumpi\n      tag_200\n      tag_95\n      jump\t// in\n    tag_200:\n    tag_199:\n        /* \"contracts/14_VotingV4_withTest.sol\":2637:2651  currentSession */\n      dup2\n        /* \"contracts/14_VotingV4_withTest.sol\":2637:2666  currentSession.workflowStatus */\n      0x00\n      add\n      0x00\n      swap1\n      sload\n      swap1\n      0x0100\n      exp\n      swap1\n      div\n      0xff\n      and\n        /* \"contracts/14_VotingV4_withTest.sol\":2637:2702  currentSession.workflowStatus == WorkflowStatus.RegisteringVoters */\n      0x05\n      dup2\n      gt\n      iszero\n      tag_201\n      jumpi\n      tag_202\n      tag_95\n      jump\t// in\n    tag_202:\n    tag_201:\n      eq\n        /* \"contracts/14_VotingV4_withTest.sol\":2616:2771  require(... */\n      tag_203\n      jumpi\n      mload(0x40)\n      0x08c379a000000000000000000000000000000000000000000000000000000000\n      dup2\n      mstore\n      0x04\n      add\n      tag_204\n      swap1\n      tag_205\n      jump\t// in\n    tag_204:\n      mload(0x40)\n      dup1\n      swap2\n      sub\n      swap1\n      revert\n    tag_203:\n        /* \"contracts/14_VotingV4_withTest.sol\":2789:2795  voters */\n      0x03\n        /* \"contracts/14_VotingV4_withTest.sol\":2789:2805  voters[_address] */\n      0x00\n        /* \"contracts/14_VotingV4_withTest.sol\":2796:2804  _address */\n      dup4\n        /* \"contracts/14_VotingV4_withTest.sol\":2789:2805  voters[_address] */\n      0xffffffffffffffffffffffffffffffffffffffff\n      and\n      0xffffffffffffffffffffffffffffffffffffffff\n      and\n      dup2\n      mstore\n      0x20\n      add\n      swap1\n      dup2\n      mstore\n      0x20\n      add\n      0x00\n      keccak256\n        /* \"contracts/14_VotingV4_withTest.sol\":2789:2818  voters[_address].isRegistered */\n      0x00\n      add\n      0x00\n      swap1\n      sload\n      swap1\n      0x0100\n      exp\n      swap1\n      div\n      0xff\n      and\n        /* \"contracts/14_VotingV4_withTest.sol\":2781:2849  require(voters[_address].isRegistered, \"Voter already unregistered\") */\n      tag_206\n      jumpi\n      mload(0x40)\n      0x08c379a000000000000000000000000000000000000000000000000000000000\n      dup2\n      mstore\n      0x04\n      add\n      tag_207\n      swap1\n      tag_208\n      jump\t// in\n    tag_207:\n      mload(0x40)\n      dup1\n      swap2\n      sub\n      swap1\n      revert\n    tag_206:\n        /* \"contracts/14_VotingV4_withTest.sol\":2891:2896  false */\n      0x00\n        /* \"contracts/14_VotingV4_withTest.sol\":2859:2865  voters */\n      0x03\n        /* \"contracts/14_VotingV4_withTest.sol\":2859:2875  voters[_address] */\n      0x00\n        /* \"contracts/14_VotingV4_withTest.sol\":2866:2874  _address */\n      dup5\n        /* \"contracts/14_VotingV4_withTest.sol\":2859:2875  voters[_address] */\n      0xffffffffffffffffffffffffffffffffffffffff\n      and\n      0xffffffffffffffffffffffffffffffffffffffff\n      and\n      dup2\n      mstore\n      0x20\n      add\n      swap1\n      dup2\n      mstore\n      0x20\n      add\n      0x00\n      keccak256\n        /* \"contracts/14_VotingV4_withTest.sol\":2859:2888  voters[_address].isRegistered */\n      0x00\n      add\n      0x00\n        /* \"contracts/14_VotingV4_withTest.sol\":2859:2896  voters[_address].isRegistered = false */\n      0x0100\n      exp\n      dup2\n      sload\n      dup2\n      0xff\n      mul\n      not\n      and\n      swap1\n      dup4\n      iszero\n      iszero\n      mul\n      or\n      swap1\n      sstore\n      pop\n        /* \"contracts/14_VotingV4_withTest.sol\":2911:2938  VoterUnregistered(_address) */\n      0x25fc2460244a2fff1d6879302ea1d6f3e684e599d76c012a22e42d5bb61cc5d7\n        /* \"contracts/14_VotingV4_withTest.sol\":2929:2937  _address */\n      dup3\n        /* \"contracts/14_VotingV4_withTest.sol\":2911:2938  VoterUnregistered(_address) */\n      mload(0x40)\n      tag_209\n      swap2\n      swap1\n      tag_66\n      jump\t// in\n    tag_209:\n      mload(0x40)\n      dup1\n      swap2\n      sub\n      swap1\n      log1\n        /* \"contracts/14_VotingV4_withTest.sol\":2519:2945  {... */\n      pop\n        /* \"contracts/14_VotingV4_withTest.sol\":2459:2945  function unregisterVoter(address _address) public onlyOwner {... */\n      pop\n      jump\t// out\n        /* \"contracts/14_VotingV4_withTest.sol\":6792:7846  function computeMostVotedProposal() public onlyOwner {... */\n    tag_62:\n        /* \"https://github.com/OpenZeppelin/openzeppelin-contracts/blob/master/contracts/access/Ownable.sol\":1531:1544  _checkOwner() */\n      tag_211\n        /* \"https://github.com/OpenZeppelin/openzeppelin-contracts/blob/master/contracts/access/Ownable.sol\":1531:1542  _checkOwner */\n      tag_89\n        /* \"https://github.com/OpenZeppelin/openzeppelin-contracts/blob/master/contracts/access/Ownable.sol\":1531:1544  _checkOwner() */\n      jump\t// in\n    tag_211:\n        /* \"contracts/14_VotingV4_withTest.sol\":6855:6891  VotingSession storage currentSession */\n      0x00\n        /* \"contracts/14_VotingV4_withTest.sol\":6894:6908  votingSessions */\n      0x02\n        /* \"contracts/14_VotingV4_withTest.sol\":6894:6932  votingSessions[currentVotingSessionId] */\n      0x00\n        /* \"contracts/14_VotingV4_withTest.sol\":6909:6931  currentVotingSessionId */\n      sload(0x01)\n        /* \"contracts/14_VotingV4_withTest.sol\":6894:6932  votingSessions[currentVotingSessionId] */\n      dup2\n      mstore\n      0x20\n      add\n      swap1\n      dup2\n      mstore\n      0x20\n      add\n      0x00\n      keccak256\n        /* \"contracts/14_VotingV4_withTest.sol\":6855:6932  VotingSession storage currentSession = votingSessions[currentVotingSessionId] */\n      swap1\n      pop\n        /* \"contracts/14_VotingV4_withTest.sol\":6996:7029  WorkflowStatus.VotingSessionEnded */\n      0x04\n        /* \"contracts/14_VotingV4_withTest.sol\":6963:7029  currentSession.workflowStatus == WorkflowStatus.VotingSessionEnded */\n      0x05\n      dup2\n      gt\n      iszero\n      tag_213\n      jumpi\n      tag_214\n      tag_95\n      jump\t// in\n    tag_214:\n    tag_213:\n        /* \"contracts/14_VotingV4_withTest.sol\":6963:6977  currentSession */\n      dup2\n        /* \"contracts/14_VotingV4_withTest.sol\":6963:6992  currentSession.workflowStatus */\n      0x00\n      add\n      0x00\n      swap1\n      sload\n      swap1\n      0x0100\n      exp\n      swap1\n      div\n      0xff\n      and\n        /* \"contracts/14_VotingV4_withTest.sol\":6963:7029  currentSession.workflowStatus == WorkflowStatus.VotingSessionEnded */\n      0x05\n      dup2\n      gt\n      iszero\n      tag_215\n      jumpi\n      tag_216\n      tag_95\n      jump\t// in\n    tag_216:\n    tag_215:\n      eq\n        /* \"contracts/14_VotingV4_withTest.sol\":6942:7083  require(... */\n      tag_217\n      jumpi\n      mload(0x40)\n      0x08c379a000000000000000000000000000000000000000000000000000000000\n      dup2\n      mstore\n      0x04\n      add\n      tag_218\n      swap1\n      tag_219\n      jump\t// in\n    tag_218:\n      mload(0x40)\n      dup1\n      swap2\n      sub\n      swap1\n      revert\n    tag_217:\n        /* \"contracts/14_VotingV4_withTest.sol\":7135:7136  0 */\n      0x00\n        /* \"contracts/14_VotingV4_withTest.sol\":7101:7115  currentSession */\n      dup2\n        /* \"contracts/14_VotingV4_withTest.sol\":7101:7125  currentSession.proposals */\n      0x02\n      add\n        /* \"contracts/14_VotingV4_withTest.sol\":7101:7132  currentSession.proposals.length */\n      dup1\n      sload\n      swap1\n      pop\n        /* \"contracts/14_VotingV4_withTest.sol\":7101:7136  currentSession.proposals.length > 0 */\n      gt\n        /* \"contracts/14_VotingV4_withTest.sol\":7093:7170  require(currentSession.proposals.length > 0, \"No proposals for this session\") */\n      tag_220\n      jumpi\n      mload(0x40)\n      0x08c379a000000000000000000000000000000000000000000000000000000000\n      dup2\n      mstore\n      0x04\n      add\n      tag_221\n      swap1\n      tag_222\n      jump\t// in\n    tag_221:\n      mload(0x40)\n      dup1\n      swap2\n      sub\n      swap1\n      revert\n    tag_220:\n        /* \"contracts/14_VotingV4_withTest.sol\":7181:7202  uint highestVoteCount */\n      0x00\n        /* \"contracts/14_VotingV4_withTest.sol\":7205:7206  0 */\n      0x00\n        /* \"contracts/14_VotingV4_withTest.sol\":7181:7206  uint highestVoteCount = 0 */\n      swap1\n      pop\n        /* \"contracts/14_VotingV4_withTest.sol\":7216:7238  uint winningProposalId */\n      0x00\n        /* \"contracts/14_VotingV4_withTest.sol\":7241:7242  0 */\n      0x00\n        /* \"contracts/14_VotingV4_withTest.sol\":7216:7242  uint winningProposalId = 0 */\n      swap1\n      pop\n        /* \"contracts/14_VotingV4_withTest.sol\":7258:7264  uint i */\n      0x00\n        /* \"contracts/14_VotingV4_withTest.sol\":7267:7268  0 */\n      0x00\n        /* \"contracts/14_VotingV4_withTest.sol\":7258:7268  uint i = 0 */\n      swap1\n      pop\n        /* \"contracts/14_VotingV4_withTest.sol\":7253:7555  for (uint i = 0; i < currentSession.proposals.length; i++) {... */\n    tag_223:\n        /* \"contracts/14_VotingV4_withTest.sol\":7274:7288  currentSession */\n      dup4\n        /* \"contracts/14_VotingV4_withTest.sol\":7274:7298  currentSession.proposals */\n      0x02\n      add\n        /* \"contracts/14_VotingV4_withTest.sol\":7274:7305  currentSession.proposals.length */\n      dup1\n      sload\n      swap1\n      pop\n        /* \"contracts/14_VotingV4_withTest.sol\":7270:7271  i */\n      dup2\n        /* \"contracts/14_VotingV4_withTest.sol\":7270:7305  i < currentSession.proposals.length */\n      lt\n        /* \"contracts/14_VotingV4_withTest.sol\":7253:7555  for (uint i = 0; i < currentSession.proposals.length; i++) {... */\n      iszero\n      tag_224\n      jumpi\n        /* \"contracts/14_VotingV4_withTest.sol\":7370:7386  highestVoteCount */\n      dup3\n        /* \"contracts/14_VotingV4_withTest.sol\":7330:7344  currentSession */\n      dup5\n        /* \"contracts/14_VotingV4_withTest.sol\":7330:7354  currentSession.proposals */\n      0x02\n      add\n        /* \"contracts/14_VotingV4_withTest.sol\":7355:7356  i */\n      dup3\n        /* \"contracts/14_VotingV4_withTest.sol\":7330:7357  currentSession.proposals[i] */\n      dup2\n      sload\n      dup2\n      lt\n      tag_226\n      jumpi\n      tag_227\n      tag_161\n      jump\t// in\n    tag_227:\n    tag_226:\n      swap1\n      0x00\n      mstore\n      keccak256(0x00, 0x20)\n      swap1\n      0x03\n      mul\n      add\n        /* \"contracts/14_VotingV4_withTest.sol\":7330:7367  currentSession.proposals[i].voteCount */\n      0x02\n      add\n      sload\n        /* \"contracts/14_VotingV4_withTest.sol\":7330:7386  currentSession.proposals[i].voteCount > highestVoteCount */\n      gt\n        /* \"contracts/14_VotingV4_withTest.sol\":7326:7545  if (currentSession.proposals[i].voteCount > highestVoteCount) {... */\n      iszero\n      tag_229\n      jumpi\n        /* \"contracts/14_VotingV4_withTest.sol\":7425:7439  currentSession */\n      dup4\n        /* \"contracts/14_VotingV4_withTest.sol\":7425:7449  currentSession.proposals */\n      0x02\n      add\n        /* \"contracts/14_VotingV4_withTest.sol\":7450:7451  i */\n      dup2\n        /* \"contracts/14_VotingV4_withTest.sol\":7425:7452  currentSession.proposals[i] */\n      dup2\n      sload\n      dup2\n      lt\n      tag_230\n      jumpi\n      tag_231\n      tag_161\n      jump\t// in\n    tag_231:\n    tag_230:\n      swap1\n      0x00\n      mstore\n      keccak256(0x00, 0x20)\n      swap1\n      0x03\n      mul\n      add\n        /* \"contracts/14_VotingV4_withTest.sol\":7425:7462  currentSession.proposals[i].voteCount */\n      0x02\n      add\n      sload\n        /* \"contracts/14_VotingV4_withTest.sol\":7406:7462  highestVoteCount = currentSession.proposals[i].voteCount */\n      swap3\n      pop\n        /* \"contracts/14_VotingV4_withTest.sol\":7500:7514  currentSession */\n      dup4\n        /* \"contracts/14_VotingV4_withTest.sol\":7500:7524  currentSession.proposals */\n      0x02\n      add\n        /* \"contracts/14_VotingV4_withTest.sol\":7525:7526  i */\n      dup2\n        /* \"contracts/14_VotingV4_withTest.sol\":7500:7527  currentSession.proposals[i] */\n      dup2\n      sload\n      dup2\n      lt\n      tag_233\n      jumpi\n      tag_234\n      tag_161\n      jump\t// in\n    tag_234:\n    tag_233:\n      swap1\n      0x00\n      mstore\n      keccak256(0x00, 0x20)\n      swap1\n      0x03\n      mul\n      add\n        /* \"contracts/14_VotingV4_withTest.sol\":7500:7530  currentSession.proposals[i].id */\n      0x00\n      add\n      sload\n        /* \"contracts/14_VotingV4_withTest.sol\":7480:7530  winningProposalId = currentSession.proposals[i].id */\n      swap2\n      pop\n        /* \"contracts/14_VotingV4_withTest.sol\":7326:7545  if (currentSession.proposals[i].voteCount > highestVoteCount) {... */\n    tag_229:\n        /* \"contracts/14_VotingV4_withTest.sol\":7307:7310  i++ */\n      dup1\n      dup1\n      0x01\n      add\n      swap2\n      pop\n      pop\n        /* \"contracts/14_VotingV4_withTest.sol\":7253:7555  for (uint i = 0; i < currentSession.proposals.length; i++) {... */\n      jump(tag_223)\n    tag_224:\n      pop\n        /* \"contracts/14_VotingV4_withTest.sol\":7600:7617  winningProposalId */\n      dup1\n        /* \"contracts/14_VotingV4_withTest.sol\":7565:7579  currentSession */\n      dup4\n        /* \"contracts/14_VotingV4_withTest.sol\":7565:7597  currentSession.winningProposalId */\n      0x01\n      add\n        /* \"contracts/14_VotingV4_withTest.sol\":7565:7617  currentSession.winningProposalId = winningProposalId */\n      dup2\n      swap1\n      sstore\n      pop\n        /* \"contracts/14_VotingV4_withTest.sol\":7627:7656  WorkflowStatus previousStatus */\n      0x00\n        /* \"contracts/14_VotingV4_withTest.sol\":7659:7673  currentSession */\n      dup4\n        /* \"contracts/14_VotingV4_withTest.sol\":7659:7688  currentSession.workflowStatus */\n      0x00\n      add\n      0x00\n      swap1\n      sload\n      swap1\n      0x0100\n      exp\n      swap1\n      div\n      0xff\n      and\n        /* \"contracts/14_VotingV4_withTest.sol\":7627:7688  WorkflowStatus previousStatus = currentSession.workflowStatus */\n      swap1\n      pop\n        /* \"contracts/14_VotingV4_withTest.sol\":7730:7757  WorkflowStatus.VotesTallied */\n      0x05\n        /* \"contracts/14_VotingV4_withTest.sol\":7698:7712  currentSession */\n      dup5\n        /* \"contracts/14_VotingV4_withTest.sol\":7698:7727  currentSession.workflowStatus */\n      0x00\n      add\n      0x00\n        /* \"contracts/14_VotingV4_withTest.sol\":7698:7757  currentSession.workflowStatus = WorkflowStatus.VotesTallied */\n      0x0100\n      exp\n      dup2\n      sload\n      dup2\n      0xff\n      mul\n      not\n      and\n      swap1\n      dup4\n      0x05\n      dup2\n      gt\n      iszero\n      tag_236\n      jumpi\n      tag_237\n      tag_95\n      jump\t// in\n    tag_237:\n    tag_236:\n      mul\n      or\n      swap1\n      sstore\n      pop\n        /* \"contracts/14_VotingV4_withTest.sol\":7772:7839  WorkflowStatusChange(previousStatus, currentSession.workflowStatus) */\n      0x0a97a4ee45751e2abf3e4fc8946939630b11b371ea8ae39ccdc3056e98f5cc3f\n        /* \"contracts/14_VotingV4_withTest.sol\":7793:7807  previousStatus */\n      dup2\n        /* \"contracts/14_VotingV4_withTest.sol\":7809:7823  currentSession */\n      dup6\n        /* \"contracts/14_VotingV4_withTest.sol\":7809:7838  currentSession.workflowStatus */\n      0x00\n      add\n      0x00\n      swap1\n      sload\n      swap1\n      0x0100\n      exp\n      swap1\n      div\n      0xff\n      and\n        /* \"contracts/14_VotingV4_withTest.sol\":7772:7839  WorkflowStatusChange(previousStatus, currentSession.workflowStatus) */\n      mload(0x40)\n      tag_238\n      swap3\n      swap2\n      swap1\n      tag_190\n      jump\t// in\n    tag_238:\n      mload(0x40)\n      dup1\n      swap2\n      sub\n      swap1\n      log1\n        /* \"contracts/14_VotingV4_withTest.sol\":6845:7846  {... */\n      pop\n      pop\n      pop\n      pop\n        /* \"contracts/14_VotingV4_withTest.sol\":6792:7846  function computeMostVotedProposal() public onlyOwner {... */\n      jump\t// out\n        /* \"https://github.com/OpenZeppelin/openzeppelin-contracts/blob/master/contracts/access/Ownable.sol\":1638:1723  function owner() public view virtual returns (address) {... */\n    tag_64:\n        /* \"https://github.com/OpenZeppelin/openzeppelin-contracts/blob/master/contracts/access/Ownable.sol\":1684:1691  address */\n      0x00\n        /* \"https://github.com/OpenZeppelin/openzeppelin-contracts/blob/master/contracts/access/Ownable.sol\":1710:1716  _owner */\n      0x00\n      0x00\n      swap1\n      sload\n      swap1\n      0x0100\n      exp\n      swap1\n      div\n      0xffffffffffffffffffffffffffffffffffffffff\n      and\n        /* \"https://github.com/OpenZeppelin/openzeppelin-contracts/blob/master/contracts/access/Ownable.sol\":1703:1716  return _owner */\n      swap1\n      pop\n        /* \"https://github.com/OpenZeppelin/openzeppelin-contracts/blob/master/contracts/access/Ownable.sol\":1638:1723  function owner() public view virtual returns (address) {... */\n      swap1\n      jump\t// out\n        /* \"contracts/14_VotingV4_withTest.sol\":197:231  uint public currentVotingSessionId */\n    tag_68:\n      sload(0x01)\n      dup2\n      jump\t// out\n        /* \"contracts/14_VotingV4_withTest.sol\":6268:6786  function endVotingSession() public onlyOwner {... */\n    tag_72:\n        /* \"https://github.com/OpenZeppelin/openzeppelin-contracts/blob/master/contracts/access/Ownable.sol\":1531:1544  _checkOwner() */\n      tag_241\n        /* \"https://github.com/OpenZeppelin/openzeppelin-contracts/blob/master/contracts/access/Ownable.sol\":1531:1542  _checkOwner */\n      tag_89\n        /* \"https://github.com/OpenZeppelin/openzeppelin-contracts/blob/master/contracts/access/Ownable.sol\":1531:1544  _checkOwner() */\n      jump\t// in\n    tag_241:\n        /* \"contracts/14_VotingV4_withTest.sol\":6323:6359  VotingSession storage currentSession */\n      0x00\n        /* \"contracts/14_VotingV4_withTest.sol\":6362:6376  votingSessions */\n      0x02\n        /* \"contracts/14_VotingV4_withTest.sol\":6362:6400  votingSessions[currentVotingSessionId] */\n      0x00\n        /* \"contracts/14_VotingV4_withTest.sol\":6377:6399  currentVotingSessionId */\n      sload(0x01)\n        /* \"contracts/14_VotingV4_withTest.sol\":6362:6400  votingSessions[currentVotingSessionId] */\n      dup2\n      mstore\n      0x20\n      add\n      swap1\n      dup2\n      mstore\n      0x20\n      add\n      0x00\n      keccak256\n        /* \"contracts/14_VotingV4_withTest.sol\":6323:6400  VotingSession storage currentSession = votingSessions[currentVotingSessionId] */\n      swap1\n      pop\n        /* \"contracts/14_VotingV4_withTest.sol\":6464:6499  WorkflowStatus.VotingSessionStarted */\n      0x03\n        /* \"contracts/14_VotingV4_withTest.sol\":6431:6499  currentSession.workflowStatus == WorkflowStatus.VotingSessionStarted */\n      0x05\n      dup2\n      gt\n      iszero\n      tag_243\n      jumpi\n      tag_244\n      tag_95\n      jump\t// in\n    tag_244:\n    tag_243:\n        /* \"contracts/14_VotingV4_withTest.sol\":6431:6445  currentSession */\n      dup2\n        /* \"contracts/14_VotingV4_withTest.sol\":6431:6460  currentSession.workflowStatus */\n      0x00\n      add\n      0x00\n      swap1\n      sload\n      swap1\n      0x0100\n      exp\n      swap1\n      div\n      0xff\n      and\n        /* \"contracts/14_VotingV4_withTest.sol\":6431:6499  currentSession.workflowStatus == WorkflowStatus.VotingSessionStarted */\n      0x05\n      dup2\n      gt\n      iszero\n      tag_245\n      jumpi\n      tag_246\n      tag_95\n      jump\t// in\n    tag_246:\n    tag_245:\n      eq\n        /* \"contracts/14_VotingV4_withTest.sol\":6410:6551  require(... */\n      tag_247\n      jumpi\n      mload(0x40)\n      0x08c379a000000000000000000000000000000000000000000000000000000000\n      dup2\n      mstore\n      0x04\n      add\n      tag_248\n      swap1\n      tag_249\n      jump\t// in\n    tag_248:\n      mload(0x40)\n      dup1\n      swap2\n      sub\n      swap1\n      revert\n    tag_247:\n        /* \"contracts/14_VotingV4_withTest.sol\":6561:6590  WorkflowStatus previousStatus */\n      0x00\n        /* \"contracts/14_VotingV4_withTest.sol\":6593:6607  currentSession */\n      dup2\n        /* \"contracts/14_VotingV4_withTest.sol\":6593:6622  currentSession.workflowStatus */\n      0x00\n      add\n      0x00\n      swap1\n      sload\n      swap1\n      0x0100\n      exp\n      swap1\n      div\n      0xff\n      and\n        /* \"contracts/14_VotingV4_withTest.sol\":6561:6622  WorkflowStatus previousStatus = currentSession.workflowStatus */\n      swap1\n      pop\n        /* \"contracts/14_VotingV4_withTest.sol\":6664:6697  WorkflowStatus.VotingSessionEnded */\n      0x04\n        /* \"contracts/14_VotingV4_withTest.sol\":6632:6646  currentSession */\n      dup3\n        /* \"contracts/14_VotingV4_withTest.sol\":6632:6661  currentSession.workflowStatus */\n      0x00\n      add\n      0x00\n        /* \"contracts/14_VotingV4_withTest.sol\":6632:6697  currentSession.workflowStatus = WorkflowStatus.VotingSessionEnded */\n      0x0100\n      exp\n      dup2\n      sload\n      dup2\n      0xff\n      mul\n      not\n      and\n      swap1\n      dup4\n      0x05\n      dup2\n      gt\n      iszero\n      tag_250\n      jumpi\n      tag_251\n      tag_95\n      jump\t// in\n    tag_251:\n    tag_250:\n      mul\n      or\n      swap1\n      sstore\n      pop\n        /* \"contracts/14_VotingV4_withTest.sol\":6712:6779  WorkflowStatusChange(previousStatus, currentSession.workflowStatus) */\n      0x0a97a4ee45751e2abf3e4fc8946939630b11b371ea8ae39ccdc3056e98f5cc3f\n        /* \"contracts/14_VotingV4_withTest.sol\":6733:6747  previousStatus */\n      dup2\n        /* \"contracts/14_VotingV4_withTest.sol\":6749:6763  currentSession */\n      dup4\n        /* \"contracts/14_VotingV4_withTest.sol\":6749:6778  currentSession.workflowStatus */\n      0x00\n      add\n      0x00\n      swap1\n      sload\n      swap1\n      0x0100\n      exp\n      swap1\n      div\n      0xff\n      and\n        /* \"contracts/14_VotingV4_withTest.sol\":6712:6779  WorkflowStatusChange(previousStatus, currentSession.workflowStatus) */\n      mload(0x40)\n      tag_252\n      swap3\n      swap2\n      swap1\n      tag_190\n      jump\t// in\n    tag_252:\n      mload(0x40)\n      dup1\n      swap2\n      sub\n      swap1\n      log1\n        /* \"contracts/14_VotingV4_withTest.sol\":6313:6786  {... */\n      pop\n      pop\n        /* \"contracts/14_VotingV4_withTest.sol\":6268:6786  function endVotingSession() public onlyOwner {... */\n      jump\t// out\n        /* \"contracts/14_VotingV4_withTest.sol\":5442:6262  function sendVote(uint _proposalId) public onlyIfRegistered {... */\n    tag_75:\n        /* \"contracts/14_VotingV4_withTest.sol\":1414:1420  voters */\n      0x03\n        /* \"contracts/14_VotingV4_withTest.sol\":1414:1432  voters[msg.sender] */\n      0x00\n        /* \"contracts/14_VotingV4_withTest.sol\":1421:1431  msg.sender */\n      caller\n        /* \"contracts/14_VotingV4_withTest.sol\":1414:1432  voters[msg.sender] */\n      0xffffffffffffffffffffffffffffffffffffffff\n      and\n      0xffffffffffffffffffffffffffffffffffffffff\n      and\n      dup2\n      mstore\n      0x20\n      add\n      swap1\n      dup2\n      mstore\n      0x20\n      add\n      0x00\n      keccak256\n        /* \"contracts/14_VotingV4_withTest.sol\":1414:1445  voters[msg.sender].isRegistered */\n      0x00\n      add\n      0x00\n      swap1\n      sload\n      swap1\n      0x0100\n      exp\n      swap1\n      div\n      0xff\n      and\n        /* \"contracts/14_VotingV4_withTest.sol\":1406:1472  require(voters[msg.sender].isRegistered, \"You are not registered\") */\n      tag_254\n      jumpi\n      mload(0x40)\n      0x08c379a000000000000000000000000000000000000000000000000000000000\n      dup2\n      mstore\n      0x04\n      add\n      tag_255\n      swap1\n      tag_130\n      jump\t// in\n    tag_255:\n      mload(0x40)\n      dup1\n      swap2\n      sub\n      swap1\n      revert\n    tag_254:\n        /* \"contracts/14_VotingV4_withTest.sol\":5512:5548  VotingSession storage currentSession */\n      0x00\n        /* \"contracts/14_VotingV4_withTest.sol\":5551:5565  votingSessions */\n      0x02\n        /* \"contracts/14_VotingV4_withTest.sol\":5551:5589  votingSessions[currentVotingSessionId] */\n      0x00\n        /* \"contracts/14_VotingV4_withTest.sol\":5566:5588  currentVotingSessionId */\n      sload(0x01)\n        /* \"contracts/14_VotingV4_withTest.sol\":5551:5589  votingSessions[currentVotingSessionId] */\n      dup2\n      mstore\n      0x20\n      add\n      swap1\n      dup2\n      mstore\n      0x20\n      add\n      0x00\n      keccak256\n        /* \"contracts/14_VotingV4_withTest.sol\":5512:5589  VotingSession storage currentSession = votingSessions[currentVotingSessionId] */\n      swap1\n      pop\n        /* \"contracts/14_VotingV4_withTest.sol\":5653:5688  WorkflowStatus.VotingSessionStarted */\n      0x03\n        /* \"contracts/14_VotingV4_withTest.sol\":5620:5688  currentSession.workflowStatus == WorkflowStatus.VotingSessionStarted */\n      0x05\n      dup2\n      gt\n      iszero\n      tag_257\n      jumpi\n      tag_258\n      tag_95\n      jump\t// in\n    tag_258:\n    tag_257:\n        /* \"contracts/14_VotingV4_withTest.sol\":5620:5634  currentSession */\n      dup2\n        /* \"contracts/14_VotingV4_withTest.sol\":5620:5649  currentSession.workflowStatus */\n      0x00\n      add\n      0x00\n      swap1\n      sload\n      swap1\n      0x0100\n      exp\n      swap1\n      div\n      0xff\n      and\n        /* \"contracts/14_VotingV4_withTest.sol\":5620:5688  currentSession.workflowStatus == WorkflowStatus.VotingSessionStarted */\n      0x05\n      dup2\n      gt\n      iszero\n      tag_259\n      jumpi\n      tag_260\n      tag_95\n      jump\t// in\n    tag_260:\n    tag_259:\n      eq\n        /* \"contracts/14_VotingV4_withTest.sol\":5599:5740  require(... */\n      tag_261\n      jumpi\n      mload(0x40)\n      0x08c379a000000000000000000000000000000000000000000000000000000000\n      dup2\n      mstore\n      0x04\n      add\n      tag_262\n      swap1\n      tag_249\n      jump\t// in\n    tag_262:\n      mload(0x40)\n      dup1\n      swap2\n      sub\n      swap1\n      revert\n    tag_261:\n        /* \"contracts/14_VotingV4_withTest.sol\":5772:5786  currentSession */\n      dup1\n        /* \"contracts/14_VotingV4_withTest.sol\":5772:5796  currentSession.proposals */\n      0x02\n      add\n        /* \"contracts/14_VotingV4_withTest.sol\":5772:5803  currentSession.proposals.length */\n      dup1\n      sload\n      swap1\n      pop\n        /* \"contracts/14_VotingV4_withTest.sol\":5758:5769  _proposalId */\n      dup3\n        /* \"contracts/14_VotingV4_withTest.sol\":5758:5803  _proposalId < currentSession.proposals.length */\n      lt\n        /* \"contracts/14_VotingV4_withTest.sol\":5750:5827  require(_proposalId < currentSession.proposals.length, \"Invalid proposal Id\") */\n      tag_263\n      jumpi\n      mload(0x40)\n      0x08c379a000000000000000000000000000000000000000000000000000000000\n      dup2\n      mstore\n      0x04\n      add\n      tag_264\n      swap1\n      tag_265\n      jump\t// in\n    tag_264:\n      mload(0x40)\n      dup1\n      swap2\n      sub\n      swap1\n      revert\n    tag_263:\n        /* \"contracts/14_VotingV4_withTest.sol\":5838:5857  Voter storage voter */\n      0x00\n        /* \"contracts/14_VotingV4_withTest.sol\":5860:5866  voters */\n      0x03\n        /* \"contracts/14_VotingV4_withTest.sol\":5860:5878  voters[msg.sender] */\n      0x00\n        /* \"contracts/14_VotingV4_withTest.sol\":5867:5877  msg.sender */\n      caller\n        /* \"contracts/14_VotingV4_withTest.sol\":5860:5878  voters[msg.sender] */\n      0xffffffffffffffffffffffffffffffffffffffff\n      and\n      0xffffffffffffffffffffffffffffffffffffffff\n      and\n      dup2\n      mstore\n      0x20\n      add\n      swap1\n      dup2\n      mstore\n      0x20\n      add\n      0x00\n      keccak256\n        /* \"contracts/14_VotingV4_withTest.sol\":5838:5878  Voter storage voter = voters[msg.sender] */\n      swap1\n      pop\n        /* \"contracts/14_VotingV4_withTest.sol\":5897:5902  voter */\n      dup1\n        /* \"contracts/14_VotingV4_withTest.sol\":5897:5918  voter.hasVotedSession */\n      0x01\n      add\n        /* \"contracts/14_VotingV4_withTest.sol\":5897:5942  voter.hasVotedSession[currentVotingSessionId] */\n      0x00\n        /* \"contracts/14_VotingV4_withTest.sol\":5919:5941  currentVotingSessionId */\n      sload(0x01)\n        /* \"contracts/14_VotingV4_withTest.sol\":5897:5942  voter.hasVotedSession[currentVotingSessionId] */\n      dup2\n      mstore\n      0x20\n      add\n      swap1\n      dup2\n      mstore\n      0x20\n      add\n      0x00\n      keccak256\n      0x00\n      swap1\n      sload\n      swap1\n      0x0100\n      exp\n      swap1\n      div\n      0xff\n      and\n        /* \"contracts/14_VotingV4_withTest.sol\":5896:5942  !voter.hasVotedSession[currentVotingSessionId] */\n      iszero\n        /* \"contracts/14_VotingV4_withTest.sol\":5888:5982  require(!voter.hasVotedSession[currentVotingSessionId], \"You have already voted this session\") */\n      tag_266\n      jumpi\n      mload(0x40)\n      0x08c379a000000000000000000000000000000000000000000000000000000000\n      dup2\n      mstore\n      0x04\n      add\n      tag_267\n      swap1\n      tag_268\n      jump\t// in\n    tag_267:\n      mload(0x40)\n      dup1\n      swap2\n      sub\n      swap1\n      revert\n    tag_266:\n        /* \"contracts/14_VotingV4_withTest.sol\":6041:6045  true */\n      0x01\n        /* \"contracts/14_VotingV4_withTest.sol\":5993:5998  voter */\n      dup2\n        /* \"contracts/14_VotingV4_withTest.sol\":5993:6014  voter.hasVotedSession */\n      0x01\n      add\n        /* \"contracts/14_VotingV4_withTest.sol\":5993:6038  voter.hasVotedSession[currentVotingSessionId] */\n      0x00\n        /* \"contracts/14_VotingV4_withTest.sol\":6015:6037  currentVotingSessionId */\n      sload(0x01)\n        /* \"contracts/14_VotingV4_withTest.sol\":5993:6038  voter.hasVotedSession[currentVotingSessionId] */\n      dup2\n      mstore\n      0x20\n      add\n      swap1\n      dup2\n      mstore\n      0x20\n      add\n      0x00\n      keccak256\n      0x00\n        /* \"contracts/14_VotingV4_withTest.sol\":5993:6045  voter.hasVotedSession[currentVotingSessionId] = true */\n      0x0100\n      exp\n      dup2\n      sload\n      dup2\n      0xff\n      mul\n      not\n      and\n      swap1\n      dup4\n      iszero\n      iszero\n      mul\n      or\n      swap1\n      sstore\n      pop\n        /* \"contracts/14_VotingV4_withTest.sol\":6055:6060  voter */\n      dup1\n        /* \"contracts/14_VotingV4_withTest.sol\":6055:6076  voter.votedSessionIds */\n      0x02\n      add\n        /* \"contracts/14_VotingV4_withTest.sol\":6082:6104  currentVotingSessionId */\n      sload(0x01)\n        /* \"contracts/14_VotingV4_withTest.sol\":6055:6105  voter.votedSessionIds.push(currentVotingSessionId) */\n      swap1\n      dup1\n      0x01\n      dup2\n      sload\n      add\n      dup1\n      dup3\n      sstore\n      dup1\n      swap2\n      pop\n      pop\n      0x01\n      swap1\n      sub\n      swap1\n      0x00\n      mstore\n      keccak256(0x00, 0x20)\n      add\n      0x00\n      swap1\n      swap2\n      swap1\n      swap2\n      swap1\n      swap2\n      pop\n      sstore\n        /* \"contracts/14_VotingV4_withTest.sol\":6115:6120  voter */\n      dup1\n        /* \"contracts/14_VotingV4_withTest.sol\":6115:6132  voter.proposalIds */\n      0x03\n      add\n        /* \"contracts/14_VotingV4_withTest.sol\":6138:6149  _proposalId */\n      dup4\n        /* \"contracts/14_VotingV4_withTest.sol\":6115:6150  voter.proposalIds.push(_proposalId) */\n      swap1\n      dup1\n      0x01\n      dup2\n      sload\n      add\n      dup1\n      dup3\n      sstore\n      dup1\n      swap2\n      pop\n      pop\n      0x01\n      swap1\n      sub\n      swap1\n      0x00\n      mstore\n      keccak256(0x00, 0x20)\n      add\n      0x00\n      swap1\n      swap2\n      swap1\n      swap2\n      swap1\n      swap2\n      pop\n      sstore\n        /* \"contracts/14_VotingV4_withTest.sol\":6161:6175  currentSession */\n      dup2\n        /* \"contracts/14_VotingV4_withTest.sol\":6161:6185  currentSession.proposals */\n      0x02\n      add\n        /* \"contracts/14_VotingV4_withTest.sol\":6186:6197  _proposalId */\n      dup4\n        /* \"contracts/14_VotingV4_withTest.sol\":6161:6198  currentSession.proposals[_proposalId] */\n      dup2\n      sload\n      dup2\n      lt\n      tag_271\n      jumpi\n      tag_272\n      tag_161\n      jump\t// in\n    tag_272:\n    tag_271:\n      swap1\n      0x00\n      mstore\n      keccak256(0x00, 0x20)\n      swap1\n      0x03\n      mul\n      add\n        /* \"contracts/14_VotingV4_withTest.sol\":6161:6208  currentSession.proposals[_proposalId].voteCount */\n      0x02\n      add\n      0x00\n        /* \"contracts/14_VotingV4_withTest.sol\":6161:6210  currentSession.proposals[_proposalId].voteCount++ */\n      dup2\n      sload\n      dup1\n      swap3\n      swap2\n      swap1\n      tag_274\n      swap1\n      tag_92\n      jump\t// in\n    tag_274:\n      swap2\n      swap1\n      pop\n      sstore\n      pop\n        /* \"contracts/14_VotingV4_withTest.sol\":6225:6255  Voted(msg.sender, _proposalId) */\n      0x4d99b957a2bc29a30ebd96a7be8e68fe50a3c701db28a91436490b7d53870ca4\n        /* \"contracts/14_VotingV4_withTest.sol\":6231:6241  msg.sender */\n      caller\n        /* \"contracts/14_VotingV4_withTest.sol\":6243:6254  _proposalId */\n      dup5\n        /* \"contracts/14_VotingV4_withTest.sol\":6225:6255  Voted(msg.sender, _proposalId) */\n      mload(0x40)\n      tag_275\n      swap3\n      swap2\n      swap1\n      tag_276\n      jump\t// in\n    tag_275:\n      mload(0x40)\n      dup1\n      swap2\n      sub\n      swap1\n      log1\n        /* \"contracts/14_VotingV4_withTest.sol\":5502:6262  {... */\n      pop\n      pop\n        /* \"contracts/14_VotingV4_withTest.sol\":5442:6262  function sendVote(uint _proposalId) public onlyIfRegistered {... */\n      pop\n      jump\t// out\n        /* \"contracts/14_VotingV4_withTest.sol\":2951:3503  function startProposalsRegistration() public onlyOwner {... */\n    tag_77:\n        /* \"https://github.com/OpenZeppelin/openzeppelin-contracts/blob/master/contracts/access/Ownable.sol\":1531:1544  _checkOwner() */\n      tag_278\n        /* \"https://github.com/OpenZeppelin/openzeppelin-contracts/blob/master/contracts/access/Ownable.sol\":1531:1542  _checkOwner */\n      tag_89\n        /* \"https://github.com/OpenZeppelin/openzeppelin-contracts/blob/master/contracts/access/Ownable.sol\":1531:1544  _checkOwner() */\n      jump\t// in\n    tag_278:\n        /* \"contracts/14_VotingV4_withTest.sol\":3016:3052  VotingSession storage currentSession */\n      0x00\n        /* \"contracts/14_VotingV4_withTest.sol\":3055:3069  votingSessions */\n      0x02\n        /* \"contracts/14_VotingV4_withTest.sol\":3055:3093  votingSessions[currentVotingSessionId] */\n      0x00\n        /* \"contracts/14_VotingV4_withTest.sol\":3070:3092  currentVotingSessionId */\n      sload(0x01)\n        /* \"contracts/14_VotingV4_withTest.sol\":3055:3093  votingSessions[currentVotingSessionId] */\n      dup2\n      mstore\n      0x20\n      add\n      swap1\n      dup2\n      mstore\n      0x20\n      add\n      0x00\n      keccak256\n        /* \"contracts/14_VotingV4_withTest.sol\":3016:3093  VotingSession storage currentSession = votingSessions[currentVotingSessionId] */\n      swap1\n      pop\n        /* \"contracts/14_VotingV4_withTest.sol\":3157:3189  WorkflowStatus.RegisteringVoters */\n      0x00\n        /* \"contracts/14_VotingV4_withTest.sol\":3124:3189  currentSession.workflowStatus == WorkflowStatus.RegisteringVoters */\n      0x05\n      dup2\n      gt\n      iszero\n      tag_280\n      jumpi\n      tag_281\n      tag_95\n      jump\t// in\n    tag_281:\n    tag_280:\n        /* \"contracts/14_VotingV4_withTest.sol\":3124:3138  currentSession */\n      dup2\n        /* \"contracts/14_VotingV4_withTest.sol\":3124:3153  currentSession.workflowStatus */\n      0x00\n      add\n      0x00\n      swap1\n      sload\n      swap1\n      0x0100\n      exp\n      swap1\n      div\n      0xff\n      and\n        /* \"contracts/14_VotingV4_withTest.sol\":3124:3189  currentSession.workflowStatus == WorkflowStatus.RegisteringVoters */\n      0x05\n      dup2\n      gt\n      iszero\n      tag_282\n      jumpi\n      tag_283\n      tag_95\n      jump\t// in\n    tag_283:\n    tag_282:\n      eq\n        /* \"contracts/14_VotingV4_withTest.sol\":3103:3258  require(... */\n      tag_284\n      jumpi\n      mload(0x40)\n      0x08c379a000000000000000000000000000000000000000000000000000000000\n      dup2\n      mstore\n      0x04\n      add\n      tag_285\n      swap1\n      tag_286\n      jump\t// in\n    tag_285:\n      mload(0x40)\n      dup1\n      swap2\n      sub\n      swap1\n      revert\n    tag_284:\n        /* \"contracts/14_VotingV4_withTest.sol\":3268:3297  WorkflowStatus previousStatus */\n      0x00\n        /* \"contracts/14_VotingV4_withTest.sol\":3300:3314  currentSession */\n      dup2\n        /* \"contracts/14_VotingV4_withTest.sol\":3300:3329  currentSession.workflowStatus */\n      0x00\n      add\n      0x00\n      swap1\n      sload\n      swap1\n      0x0100\n      exp\n      swap1\n      div\n      0xff\n      and\n        /* \"contracts/14_VotingV4_withTest.sol\":3268:3329  WorkflowStatus previousStatus = currentSession.workflowStatus */\n      swap1\n      pop\n        /* \"contracts/14_VotingV4_withTest.sol\":3371:3414  WorkflowStatus.ProposalsRegistrationStarted */\n      0x01\n        /* \"contracts/14_VotingV4_withTest.sol\":3339:3353  currentSession */\n      dup3\n        /* \"contracts/14_VotingV4_withTest.sol\":3339:3368  currentSession.workflowStatus */\n      0x00\n      add\n      0x00\n        /* \"contracts/14_VotingV4_withTest.sol\":3339:3414  currentSession.workflowStatus = WorkflowStatus.ProposalsRegistrationStarted */\n      0x0100\n      exp\n      dup2\n      sload\n      dup2\n      0xff\n      mul\n      not\n      and\n      swap1\n      dup4\n      0x05\n      dup2\n      gt\n      iszero\n      tag_287\n      jumpi\n      tag_288\n      tag_95\n      jump\t// in\n    tag_288:\n    tag_287:\n      mul\n      or\n      swap1\n      sstore\n      pop\n        /* \"contracts/14_VotingV4_withTest.sol\":3429:3496  WorkflowStatusChange(previousStatus, currentSession.workflowStatus) */\n      0x0a97a4ee45751e2abf3e4fc8946939630b11b371ea8ae39ccdc3056e98f5cc3f\n        /* \"contracts/14_VotingV4_withTest.sol\":3450:3464  previousStatus */\n      dup2\n        /* \"contracts/14_VotingV4_withTest.sol\":3466:3480  currentSession */\n      dup4\n        /* \"contracts/14_VotingV4_withTest.sol\":3466:3495  currentSession.workflowStatus */\n      0x00\n      add\n      0x00\n      swap1\n      sload\n      swap1\n      0x0100\n      exp\n      swap1\n      div\n      0xff\n      and\n        /* \"contracts/14_VotingV4_withTest.sol\":3429:3496  WorkflowStatusChange(previousStatus, currentSession.workflowStatus) */\n      mload(0x40)\n      tag_289\n      swap3\n      swap2\n      swap1\n      tag_190\n      jump\t// in\n    tag_289:\n      mload(0x40)\n      dup1\n      swap2\n      sub\n      swap1\n      log1\n        /* \"contracts/14_VotingV4_withTest.sol\":3006:3503  {... */\n      pop\n      pop\n        /* \"contracts/14_VotingV4_withTest.sol\":2951:3503  function startProposalsRegistration() public onlyOwner {... */\n      jump\t// out\n        /* \"contracts/14_VotingV4_withTest.sol\":4902:5436  function startVotingSession() public onlyOwner {... */\n    tag_79:\n        /* \"https://github.com/OpenZeppelin/openzeppelin-contracts/blob/master/contracts/access/Ownable.sol\":1531:1544  _checkOwner() */\n      tag_291\n        /* \"https://github.com/OpenZeppelin/openzeppelin-contracts/blob/master/contracts/access/Ownable.sol\":1531:1542  _checkOwner */\n      tag_89\n        /* \"https://github.com/OpenZeppelin/openzeppelin-contracts/blob/master/contracts/access/Ownable.sol\":1531:1544  _checkOwner() */\n      jump\t// in\n    tag_291:\n        /* \"contracts/14_VotingV4_withTest.sol\":4959:4995  VotingSession storage currentSession */\n      0x00\n        /* \"contracts/14_VotingV4_withTest.sol\":4998:5012  votingSessions */\n      0x02\n        /* \"contracts/14_VotingV4_withTest.sol\":4998:5036  votingSessions[currentVotingSessionId] */\n      0x00\n        /* \"contracts/14_VotingV4_withTest.sol\":5013:5035  currentVotingSessionId */\n      sload(0x01)\n        /* \"contracts/14_VotingV4_withTest.sol\":4998:5036  votingSessions[currentVotingSessionId] */\n      dup2\n      mstore\n      0x20\n      add\n      swap1\n      dup2\n      mstore\n      0x20\n      add\n      0x00\n      keccak256\n        /* \"contracts/14_VotingV4_withTest.sol\":4959:5036  VotingSession storage currentSession = votingSessions[currentVotingSessionId] */\n      swap1\n      pop\n        /* \"contracts/14_VotingV4_withTest.sol\":5100:5141  WorkflowStatus.ProposalsRegistrationEnded */\n      0x02\n        /* \"contracts/14_VotingV4_withTest.sol\":5067:5141  currentSession.workflowStatus == WorkflowStatus.ProposalsRegistrationEnded */\n      0x05\n      dup2\n      gt\n      iszero\n      tag_293\n      jumpi\n      tag_294\n      tag_95\n      jump\t// in\n    tag_294:\n    tag_293:\n        /* \"contracts/14_VotingV4_withTest.sol\":5067:5081  currentSession */\n      dup2\n        /* \"contracts/14_VotingV4_withTest.sol\":5067:5096  currentSession.workflowStatus */\n      0x00\n      add\n      0x00\n      swap1\n      sload\n      swap1\n      0x0100\n      exp\n      swap1\n      div\n      0xff\n      and\n        /* \"contracts/14_VotingV4_withTest.sol\":5067:5141  currentSession.workflowStatus == WorkflowStatus.ProposalsRegistrationEnded */\n      0x05\n      dup2\n      gt\n      iszero\n      tag_295\n      jumpi\n      tag_296\n      tag_95\n      jump\t// in\n    tag_296:\n    tag_295:\n      eq\n        /* \"contracts/14_VotingV4_withTest.sol\":5046:5199  require(... */\n      tag_297\n      jumpi\n      mload(0x40)\n      0x08c379a000000000000000000000000000000000000000000000000000000000\n      dup2\n      mstore\n      0x04\n      add\n      tag_298\n      swap1\n      tag_299\n      jump\t// in\n    tag_298:\n      mload(0x40)\n      dup1\n      swap2\n      sub\n      swap1\n      revert\n    tag_297:\n        /* \"contracts/14_VotingV4_withTest.sol\":5209:5238  WorkflowStatus previousStatus */\n      0x00\n        /* \"contracts/14_VotingV4_withTest.sol\":5241:5255  currentSession */\n      dup2\n        /* \"contracts/14_VotingV4_withTest.sol\":5241:5270  currentSession.workflowStatus */\n      0x00\n      add\n      0x00\n      swap1\n      sload\n      swap1\n      0x0100\n      exp\n      swap1\n      div\n      0xff\n      and\n        /* \"contracts/14_VotingV4_withTest.sol\":5209:5270  WorkflowStatus previousStatus = currentSession.workflowStatus */\n      swap1\n      pop\n        /* \"contracts/14_VotingV4_withTest.sol\":5312:5347  WorkflowStatus.VotingSessionStarted */\n      0x03\n        /* \"contracts/14_VotingV4_withTest.sol\":5280:5294  currentSession */\n      dup3\n        /* \"contracts/14_VotingV4_withTest.sol\":5280:5309  currentSession.workflowStatus */\n      0x00\n      add\n      0x00\n        /* \"contracts/14_VotingV4_withTest.sol\":5280:5347  currentSession.workflowStatus = WorkflowStatus.VotingSessionStarted */\n      0x0100\n      exp\n      dup2\n      sload\n      dup2\n      0xff\n      mul\n      not\n      and\n      swap1\n      dup4\n      0x05\n      dup2\n      gt\n      iszero\n      tag_300\n      jumpi\n      tag_301\n      tag_95\n      jump\t// in\n    tag_301:\n    tag_300:\n      mul\n      or\n      swap1\n      sstore\n      pop\n        /* \"contracts/14_VotingV4_withTest.sol\":5362:5429  WorkflowStatusChange(previousStatus, currentSession.workflowStatus) */\n      0x0a97a4ee45751e2abf3e4fc8946939630b11b371ea8ae39ccdc3056e98f5cc3f\n        /* \"contracts/14_VotingV4_withTest.sol\":5383:5397  previousStatus */\n      dup2\n        /* \"contracts/14_VotingV4_withTest.sol\":5399:5413  currentSession */\n      dup4\n        /* \"contracts/14_VotingV4_withTest.sol\":5399:5428  currentSession.workflowStatus */\n      0x00\n      add\n      0x00\n      swap1\n      sload\n      swap1\n      0x0100\n      exp\n      swap1\n      div\n      0xff\n      and\n        /* \"contracts/14_VotingV4_withTest.sol\":5362:5429  WorkflowStatusChange(previousStatus, currentSession.workflowStatus) */\n      mload(0x40)\n      tag_302\n      swap3\n      swap2\n      swap1\n      tag_190\n      jump\t// in\n    tag_302:\n      mload(0x40)\n      dup1\n      swap2\n      sub\n      swap1\n      log1\n        /* \"contracts/14_VotingV4_withTest.sol\":4949:5436  {... */\n      pop\n      pop\n        /* \"contracts/14_VotingV4_withTest.sol\":4902:5436  function startVotingSession() public onlyOwner {... */\n      jump\t// out\n        /* \"https://github.com/OpenZeppelin/openzeppelin-contracts/blob/master/contracts/access/Ownable.sol\":2543:2758  function transferOwnership(address newOwner) public virtual onlyOwner {... */\n    tag_82:\n        /* \"https://github.com/OpenZeppelin/openzeppelin-contracts/blob/master/contracts/access/Ownable.sol\":1531:1544  _checkOwner() */\n      tag_304\n        /* \"https://github.com/OpenZeppelin/openzeppelin-contracts/blob/master/contracts/access/Ownable.sol\":1531:1542  _checkOwner */\n      tag_89\n        /* \"https://github.com/OpenZeppelin/openzeppelin-contracts/blob/master/contracts/access/Ownable.sol\":1531:1544  _checkOwner() */\n      jump\t// in\n    tag_304:\n        /* \"https://github.com/OpenZeppelin/openzeppelin-contracts/blob/master/contracts/access/Ownable.sol\":2647:2648  0 */\n      0x00\n        /* \"https://github.com/OpenZeppelin/openzeppelin-contracts/blob/master/contracts/access/Ownable.sol\":2627:2649  newOwner == address(0) */\n      0xffffffffffffffffffffffffffffffffffffffff\n      and\n        /* \"https://github.com/OpenZeppelin/openzeppelin-contracts/blob/master/contracts/access/Ownable.sol\":2627:2635  newOwner */\n      dup2\n        /* \"https://github.com/OpenZeppelin/openzeppelin-contracts/blob/master/contracts/access/Ownable.sol\":2627:2649  newOwner == address(0) */\n      0xffffffffffffffffffffffffffffffffffffffff\n      and\n      sub\n        /* \"https://github.com/OpenZeppelin/openzeppelin-contracts/blob/master/contracts/access/Ownable.sol\":2623:2714  if (newOwner == address(0)) {... */\n      tag_306\n      jumpi\n        /* \"https://github.com/OpenZeppelin/openzeppelin-contracts/blob/master/contracts/access/Ownable.sol\":2700:2701  0 */\n      0x00\n        /* \"https://github.com/OpenZeppelin/openzeppelin-contracts/blob/master/contracts/access/Ownable.sol\":2672:2703  OwnableInvalidOwner(address(0)) */\n      mload(0x40)\n      0x1e4fbdf700000000000000000000000000000000000000000000000000000000\n      dup2\n      mstore\n      0x04\n      add\n      tag_307\n      swap2\n      swap1\n      tag_66\n      jump\t// in\n    tag_307:\n      mload(0x40)\n      dup1\n      swap2\n      sub\n      swap1\n      revert\n        /* \"https://github.com/OpenZeppelin/openzeppelin-contracts/blob/master/contracts/access/Ownable.sol\":2623:2714  if (newOwner == address(0)) {... */\n    tag_306:\n        /* \"https://github.com/OpenZeppelin/openzeppelin-contracts/blob/master/contracts/access/Ownable.sol\":2723:2751  _transferOwnership(newOwner) */\n      tag_308\n        /* \"https://github.com/OpenZeppelin/openzeppelin-contracts/blob/master/contracts/access/Ownable.sol\":2742:2750  newOwner */\n      dup2\n        /* \"https://github.com/OpenZeppelin/openzeppelin-contracts/blob/master/contracts/access/Ownable.sol\":2723:2741  _transferOwnership */\n      tag_195\n        /* \"https://github.com/OpenZeppelin/openzeppelin-contracts/blob/master/contracts/access/Ownable.sol\":2723:2751  _transferOwnership(newOwner) */\n      jump\t// in\n    tag_308:\n        /* \"https://github.com/OpenZeppelin/openzeppelin-contracts/blob/master/contracts/access/Ownable.sol\":2543:2758  function transferOwnership(address newOwner) public virtual onlyOwner {... */\n      pop\n      jump\t// out\n        /* \"contracts/14_VotingV4_withTest.sol\":8185:8387  function getAllProposalsBySession(uint _sessionId) external view returns (Proposal[] memory) {... */\n    tag_85:\n        /* \"contracts/14_VotingV4_withTest.sol\":8259:8276  Proposal[] memory */\n      0x60\n        /* \"contracts/14_VotingV4_withTest.sol\":8288:8317  VotingSession storage session */\n      0x00\n        /* \"contracts/14_VotingV4_withTest.sol\":8320:8334  votingSessions */\n      0x02\n        /* \"contracts/14_VotingV4_withTest.sol\":8320:8346  votingSessions[_sessionId] */\n      0x00\n        /* \"contracts/14_VotingV4_withTest.sol\":8335:8345  _sessionId */\n      dup5\n        /* \"contracts/14_VotingV4_withTest.sol\":8320:8346  votingSessions[_sessionId] */\n      dup2\n      mstore\n      0x20\n      add\n      swap1\n      dup2\n      mstore\n      0x20\n      add\n      0x00\n      keccak256\n        /* \"contracts/14_VotingV4_withTest.sol\":8288:8346  VotingSession storage session = votingSessions[_sessionId] */\n      swap1\n      pop\n        /* \"contracts/14_VotingV4_withTest.sol\":8363:8370  session */\n      dup1\n        /* \"contracts/14_VotingV4_withTest.sol\":8363:8380  session.proposals */\n      0x02\n      add\n        /* \"contracts/14_VotingV4_withTest.sol\":8356:8380  return session.proposals */\n      dup1\n      sload\n      dup1\n      0x20\n      mul\n      0x20\n      add\n      mload(0x40)\n      swap1\n      dup2\n      add\n      0x40\n      mstore\n      dup1\n      swap3\n      swap2\n      swap1\n      dup2\n      dup2\n      mstore\n      0x20\n      add\n      0x00\n      swap1\n    tag_310:\n      dup3\n      dup3\n      lt\n      iszero\n      tag_311\n      jumpi\n      dup4\n      dup3\n      swap1\n      0x00\n      mstore\n      keccak256(0x00, 0x20)\n      swap1\n      0x03\n      mul\n      add\n      mload(0x40)\n      dup1\n      0x60\n      add\n      0x40\n      mstore\n      swap1\n      dup2\n      0x00\n      dup3\n      add\n      sload\n      dup2\n      mstore\n      0x20\n      add\n      0x01\n      dup3\n      add\n      dup1\n      sload\n      tag_313\n      swap1\n      tag_108\n      jump\t// in\n    tag_313:\n      dup1\n      0x1f\n      add\n      0x20\n      dup1\n      swap2\n      div\n      mul\n      0x20\n      add\n      mload(0x40)\n      swap1\n      dup2\n      add\n      0x40\n      mstore\n      dup1\n      swap3\n      swap2\n      swap1\n      dup2\n      dup2\n      mstore\n      0x20\n      add\n      dup3\n      dup1\n      sload\n      tag_314\n      swap1\n      tag_108\n      jump\t// in\n    tag_314:\n      dup1\n      iszero\n      tag_315\n      jumpi\n      dup1\n      0x1f\n      lt\n      tag_316\n      jumpi\n      0x0100\n      dup1\n      dup4\n      sload\n      div\n      mul\n      dup4\n      mstore\n      swap2\n      0x20\n      add\n      swap2\n      jump(tag_315)\n    tag_316:\n      dup3\n      add\n      swap2\n      swap1\n      0x00\n      mstore\n      keccak256(0x00, 0x20)\n      swap1\n    tag_317:\n      dup2\n      sload\n      dup2\n      mstore\n      swap1\n      0x01\n      add\n      swap1\n      0x20\n      add\n      dup1\n      dup4\n      gt\n      tag_317\n      jumpi\n      dup3\n      swap1\n      sub\n      0x1f\n      and\n      dup3\n      add\n      swap2\n    tag_315:\n      pop\n      pop\n      pop\n      pop\n      pop\n      dup2\n      mstore\n      0x20\n      add\n      0x02\n      dup3\n      add\n      sload\n      dup2\n      mstore\n      pop\n      pop\n      dup2\n      mstore\n      0x20\n      add\n      swap1\n      0x01\n      add\n      swap1\n      jump(tag_310)\n    tag_311:\n      pop\n      pop\n      pop\n      pop\n      swap2\n      pop\n      pop\n        /* \"contracts/14_VotingV4_withTest.sol\":8185:8387  function getAllProposalsBySession(uint _sessionId) external view returns (Proposal[] memory) {... */\n      swap2\n      swap1\n      pop\n      jump\t// out\n        /* \"https://github.com/OpenZeppelin/openzeppelin-contracts/blob/master/contracts/access/Ownable.sol\":1796:1958  function _checkOwner() internal view virtual {... */\n    tag_89:\n        /* \"https://github.com/OpenZeppelin/openzeppelin-contracts/blob/master/contracts/access/Ownable.sol\":1866:1878  _msgSender() */\n      tag_319\n        /* \"https://github.com/OpenZeppelin/openzeppelin-contracts/blob/master/contracts/access/Ownable.sol\":1866:1876  _msgSender */\n      tag_320\n        /* \"https://github.com/OpenZeppelin/openzeppelin-contracts/blob/master/contracts/access/Ownable.sol\":1866:1878  _msgSender() */\n      jump\t// in\n    tag_319:\n        /* \"https://github.com/OpenZeppelin/openzeppelin-contracts/blob/master/contracts/access/Ownable.sol\":1855:1878  owner() != _msgSender() */\n      0xffffffffffffffffffffffffffffffffffffffff\n      and\n        /* \"https://github.com/OpenZeppelin/openzeppelin-contracts/blob/master/contracts/access/Ownable.sol\":1855:1862  owner() */\n      tag_321\n        /* \"https://github.com/OpenZeppelin/openzeppelin-contracts/blob/master/contracts/access/Ownable.sol\":1855:1860  owner */\n      tag_64\n        /* \"https://github.com/OpenZeppelin/openzeppelin-contracts/blob/master/contracts/access/Ownable.sol\":1855:1862  owner() */\n      jump\t// in\n    tag_321:\n        /* \"https://github.com/OpenZeppelin/openzeppelin-contracts/blob/master/contracts/access/Ownable.sol\":1855:1878  owner() != _msgSender() */\n      0xffffffffffffffffffffffffffffffffffffffff\n      and\n      eq\n        /* \"https://github.com/OpenZeppelin/openzeppelin-contracts/blob/master/contracts/access/Ownable.sol\":1851:1952  if (owner() != _msgSender()) {... */\n      tag_322\n      jumpi\n        /* \"https://github.com/OpenZeppelin/openzeppelin-contracts/blob/master/contracts/access/Ownable.sol\":1928:1940  _msgSender() */\n      tag_323\n        /* \"https://github.com/OpenZeppelin/openzeppelin-contracts/blob/master/contracts/access/Ownable.sol\":1928:1938  _msgSender */\n      tag_320\n        /* \"https://github.com/OpenZeppelin/openzeppelin-contracts/blob/master/contracts/access/Ownable.sol\":1928:1940  _msgSender() */\n      jump\t// in\n    tag_323:\n        /* \"https://github.com/OpenZeppelin/openzeppelin-contracts/blob/master/contracts/access/Ownable.sol\":1901:1941  OwnableUnauthorizedAccount(_msgSender()) */\n      mload(0x40)\n      0x118cdaa700000000000000000000000000000000000000000000000000000000\n      dup2\n      mstore\n      0x04\n      add\n      tag_324\n      swap2\n      swap1\n      tag_66\n      jump\t// in\n    tag_324:\n      mload(0x40)\n      dup1\n      swap2\n      sub\n      swap1\n      revert\n        /* \"https://github.com/OpenZeppelin/openzeppelin-contracts/blob/master/contracts/access/Ownable.sol\":1851:1952  if (owner() != _msgSender()) {... */\n    tag_322:\n        /* \"https://github.com/OpenZeppelin/openzeppelin-contracts/blob/master/contracts/access/Ownable.sol\":1796:1958  function _checkOwner() internal view virtual {... */\n      jump\t// out\n        /* \"https://github.com/OpenZeppelin/openzeppelin-contracts/blob/master/contracts/access/Ownable.sol\":2912:3099  function _transferOwnership(address newOwner) internal virtual {... */\n    tag_195:\n        /* \"https://github.com/OpenZeppelin/openzeppelin-contracts/blob/master/contracts/access/Ownable.sol\":2985:3001  address oldOwner */\n      0x00\n        /* \"https://github.com/OpenZeppelin/openzeppelin-contracts/blob/master/contracts/access/Ownable.sol\":3004:3010  _owner */\n      0x00\n      0x00\n      swap1\n      sload\n      swap1\n      0x0100\n      exp\n      swap1\n      div\n      0xffffffffffffffffffffffffffffffffffffffff\n      and\n        /* \"https://github.com/OpenZeppelin/openzeppelin-contracts/blob/master/contracts/access/Ownable.sol\":2985:3010  address oldOwner = _owner */\n      swap1\n      pop\n        /* \"https://github.com/OpenZeppelin/openzeppelin-contracts/blob/master/contracts/access/Ownable.sol\":3029:3037  newOwner */\n      dup2\n        /* \"https://github.com/OpenZeppelin/openzeppelin-contracts/blob/master/contracts/access/Ownable.sol\":3020:3026  _owner */\n      0x00\n      0x00\n        /* \"https://github.com/OpenZeppelin/openzeppelin-contracts/blob/master/contracts/access/Ownable.sol\":3020:3037  _owner = newOwner */\n      0x0100\n      exp\n      dup2\n      sload\n      dup2\n      0xffffffffffffffffffffffffffffffffffffffff\n      mul\n      not\n      and\n      swap1\n      dup4\n      0xffffffffffffffffffffffffffffffffffffffff\n      and\n      mul\n      or\n      swap1\n      sstore\n      pop\n        /* \"https://github.com/OpenZeppelin/openzeppelin-contracts/blob/master/contracts/access/Ownable.sol\":3083:3091  newOwner */\n      dup2\n        /* \"https://github.com/OpenZeppelin/openzeppelin-contracts/blob/master/contracts/access/Ownable.sol\":3052:3092  OwnershipTransferred(oldOwner, newOwner) */\n      0xffffffffffffffffffffffffffffffffffffffff\n      and\n        /* \"https://github.com/OpenZeppelin/openzeppelin-contracts/blob/master/contracts/access/Ownable.sol\":3073:3081  oldOwner */\n      dup2\n        /* \"https://github.com/OpenZeppelin/openzeppelin-contracts/blob/master/contracts/access/Ownable.sol\":3052:3092  OwnershipTransferred(oldOwner, newOwner) */\n      0xffffffffffffffffffffffffffffffffffffffff\n      and\n      0x8be0079c531659141344cd1fd0a4f28419497f9722a3daafe3b4186f6b6457e0\n      mload(0x40)\n      mload(0x40)\n      dup1\n      swap2\n      sub\n      swap1\n      log3\n        /* \"https://github.com/OpenZeppelin/openzeppelin-contracts/blob/master/contracts/access/Ownable.sol\":2975:3099  {... */\n      pop\n        /* \"https://github.com/OpenZeppelin/openzeppelin-contracts/blob/master/contracts/access/Ownable.sol\":2912:3099  function _transferOwnership(address newOwner) internal virtual {... */\n      pop\n      jump\t// out\n        /* \"https://github.com/OpenZeppelin/openzeppelin-contracts/blob/master/contracts/utils/Context.sol\":656:752  function _msgSender() internal view virtual returns (address) {... */\n    tag_320:\n        /* \"https://github.com/OpenZeppelin/openzeppelin-contracts/blob/master/contracts/utils/Context.sol\":709:716  address */\n      0x00\n        /* \"https://github.com/OpenZeppelin/openzeppelin-contracts/blob/master/contracts/utils/Context.sol\":735:745  msg.sender */\n      caller\n        /* \"https://github.com/OpenZeppelin/openzeppelin-contracts/blob/master/contracts/utils/Context.sol\":728:745  return msg.sender */\n      swap1\n      pop\n        /* \"https://github.com/OpenZeppelin/openzeppelin-contracts/blob/master/contracts/utils/Context.sol\":656:752  function _msgSender() internal view virtual returns (address) {... */\n      swap1\n      jump\t// out\n    tag_98:\n      mload(0x40)\n      dup1\n      0x80\n      add\n      0x40\n      mstore\n      dup1\n      0x00\n      0x05\n      dup2\n      gt\n      iszero\n      tag_327\n      jumpi\n      tag_328\n      tag_95\n      jump\t// in\n    tag_328:\n    tag_327:\n      dup2\n      mstore\n      0x20\n      add\n      0x00\n      dup2\n      mstore\n      0x20\n      add\n      0x60\n      dup2\n      mstore\n      0x20\n      add\n      0x00\n      dup2\n      mstore\n      pop\n      swap1\n      jump\t// out\n    tag_150:\n      mload(0x40)\n      dup1\n      0x60\n      add\n      0x40\n      mstore\n      dup1\n      0x00\n      dup2\n      mstore\n      0x20\n      add\n      0x60\n      dup2\n      mstore\n      0x20\n      add\n      0x00\n      dup2\n      mstore\n      pop\n      swap1\n      jump\t// out\n        /* \"#utility.yul\":7:82   */\n    tag_329:\n        /* \"#utility.yul\":40:46   */\n      0x00\n        /* \"#utility.yul\":73:75   */\n      0x40\n        /* \"#utility.yul\":67:76   */\n      mload\n        /* \"#utility.yul\":57:76   */\n      swap1\n      pop\n        /* \"#utility.yul\":7:82   */\n      swap1\n      jump\t// out\n        /* \"#utility.yul\":88:205   */\n    tag_330:\n        /* \"#utility.yul\":197:198   */\n      0x00\n        /* \"#utility.yul\":194:195   */\n      0x00\n        /* \"#utility.yul\":187:199   */\n      revert\n        /* \"#utility.yul\":211:328   */\n    tag_331:\n        /* \"#utility.yul\":320:321   */\n      0x00\n        /* \"#utility.yul\":317:318   */\n      0x00\n        /* \"#utility.yul\":310:322   */\n      revert\n        /* \"#utility.yul\":334:411   */\n    tag_332:\n        /* \"#utility.yul\":371:378   */\n      0x00\n        /* \"#utility.yul\":400:405   */\n      dup2\n        /* \"#utility.yul\":389:405   */\n      swap1\n      pop\n        /* \"#utility.yul\":334:411   */\n      swap2\n      swap1\n      pop\n      jump\t// out\n        /* \"#utility.yul\":417:539   */\n    tag_333:\n        /* \"#utility.yul\":490:514   */\n      tag_428\n        /* \"#utility.yul\":508:513   */\n      dup2\n        /* \"#utility.yul\":490:514   */\n      tag_332\n      jump\t// in\n    tag_428:\n        /* \"#utility.yul\":483:488   */\n      dup2\n        /* \"#utility.yul\":480:515   */\n      eq\n        /* \"#utility.yul\":470:533   */\n      tag_429\n      jumpi\n        /* \"#utility.yul\":529:530   */\n      0x00\n        /* \"#utility.yul\":526:527   */\n      0x00\n        /* \"#utility.yul\":519:531   */\n      revert\n        /* \"#utility.yul\":470:533   */\n    tag_429:\n        /* \"#utility.yul\":417:539   */\n      pop\n      jump\t// out\n        /* \"#utility.yul\":545:684   */\n    tag_334:\n        /* \"#utility.yul\":591:596   */\n      0x00\n        /* \"#utility.yul\":629:635   */\n      dup2\n        /* \"#utility.yul\":616:636   */\n      calldataload\n        /* \"#utility.yul\":607:636   */\n      swap1\n      pop\n        /* \"#utility.yul\":645:678   */\n      tag_431\n        /* \"#utility.yul\":672:677   */\n      dup2\n        /* \"#utility.yul\":645:678   */\n      tag_333\n      jump\t// in\n    tag_431:\n        /* \"#utility.yul\":545:684   */\n      swap3\n      swap2\n      pop\n      pop\n      jump\t// out\n        /* \"#utility.yul\":690:1019   */\n    tag_29:\n        /* \"#utility.yul\":749:755   */\n      0x00\n        /* \"#utility.yul\":798:800   */\n      0x20\n        /* \"#utility.yul\":786:795   */\n      dup3\n        /* \"#utility.yul\":777:784   */\n      dup5\n        /* \"#utility.yul\":773:796   */\n      sub\n        /* \"#utility.yul\":769:801   */\n      slt\n        /* \"#utility.yul\":766:885   */\n      iszero\n      tag_433\n      jumpi\n        /* \"#utility.yul\":804:883   */\n      tag_434\n      tag_330\n      jump\t// in\n    tag_434:\n        /* \"#utility.yul\":766:885   */\n    tag_433:\n        /* \"#utility.yul\":924:925   */\n      0x00\n        /* \"#utility.yul\":949:1002   */\n      tag_435\n        /* \"#utility.yul\":994:1001   */\n      dup5\n        /* \"#utility.yul\":985:991   */\n      dup3\n        /* \"#utility.yul\":974:983   */\n      dup6\n        /* \"#utility.yul\":970:992   */\n      add\n        /* \"#utility.yul\":949:1002   */\n      tag_334\n      jump\t// in\n    tag_435:\n        /* \"#utility.yul\":939:1002   */\n      swap2\n      pop\n        /* \"#utility.yul\":895:1012   */\n      pop\n        /* \"#utility.yul\":690:1019   */\n      swap3\n      swap2\n      pop\n      pop\n      jump\t// out\n        /* \"#utility.yul\":1025:1205   */\n    tag_95:\n        /* \"#utility.yul\":1073:1150   */\n      0x4e487b7100000000000000000000000000000000000000000000000000000000\n        /* \"#utility.yul\":1070:1071   */\n      0x00\n        /* \"#utility.yul\":1063:1151   */\n      mstore\n        /* \"#utility.yul\":1170:1174   */\n      0x21\n        /* \"#utility.yul\":1167:1168   */\n      0x04\n        /* \"#utility.yul\":1160:1175   */\n      mstore\n        /* \"#utility.yul\":1194:1198   */\n      0x24\n        /* \"#utility.yul\":1191:1192   */\n      0x00\n        /* \"#utility.yul\":1184:1199   */\n      revert\n        /* \"#utility.yul\":1211:1333   */\n    tag_335:\n        /* \"#utility.yul\":1301:1302   */\n      0x06\n        /* \"#utility.yul\":1294:1299   */\n      dup2\n        /* \"#utility.yul\":1291:1303   */\n      lt\n        /* \"#utility.yul\":1281:1327   */\n      tag_438\n      jumpi\n        /* \"#utility.yul\":1307:1325   */\n      tag_439\n      tag_95\n      jump\t// in\n    tag_439:\n        /* \"#utility.yul\":1281:1327   */\n    tag_438:\n        /* \"#utility.yul\":1211:1333   */\n      pop\n      jump\t// out\n        /* \"#utility.yul\":1339:1484   */\n    tag_336:\n        /* \"#utility.yul\":1393:1400   */\n      0x00\n        /* \"#utility.yul\":1422:1427   */\n      dup2\n        /* \"#utility.yul\":1411:1427   */\n      swap1\n      pop\n        /* \"#utility.yul\":1428:1478   */\n      tag_441\n        /* \"#utility.yul\":1472:1477   */\n      dup3\n        /* \"#utility.yul\":1428:1478   */\n      tag_335\n      jump\t// in\n    tag_441:\n        /* \"#utility.yul\":1339:1484   */\n      swap2\n      swap1\n      pop\n      jump\t// out\n        /* \"#utility.yul\":1490:1635   */\n    tag_337:\n        /* \"#utility.yul\":1555:1564   */\n      0x00\n        /* \"#utility.yul\":1588:1629   */\n      tag_443\n        /* \"#utility.yul\":1623:1628   */\n      dup3\n        /* \"#utility.yul\":1588:1629   */\n      tag_336\n      jump\t// in\n    tag_443:\n        /* \"#utility.yul\":1575:1629   */\n      swap1\n      pop\n        /* \"#utility.yul\":1490:1635   */\n      swap2\n      swap1\n      pop\n      jump\t// out\n        /* \"#utility.yul\":1641:1802   */\n    tag_338:\n        /* \"#utility.yul\":1743:1795   */\n      tag_445\n        /* \"#utility.yul\":1789:1794   */\n      dup2\n        /* \"#utility.yul\":1743:1795   */\n      tag_337\n      jump\t// in\n    tag_445:\n        /* \"#utility.yul\":1738:1741   */\n      dup3\n        /* \"#utility.yul\":1731:1796   */\n      mstore\n        /* \"#utility.yul\":1641:1802   */\n      pop\n      pop\n      jump\t// out\n        /* \"#utility.yul\":1808:1926   */\n    tag_339:\n        /* \"#utility.yul\":1895:1919   */\n      tag_447\n        /* \"#utility.yul\":1913:1918   */\n      dup2\n        /* \"#utility.yul\":1895:1919   */\n      tag_332\n      jump\t// in\n    tag_447:\n        /* \"#utility.yul\":1890:1893   */\n      dup3\n        /* \"#utility.yul\":1883:1920   */\n      mstore\n        /* \"#utility.yul\":1808:1926   */\n      pop\n      pop\n      jump\t// out\n        /* \"#utility.yul\":1932:2404   */\n    tag_32:\n        /* \"#utility.yul\":2096:2100   */\n      0x00\n        /* \"#utility.yul\":2134:2136   */\n      0x60\n        /* \"#utility.yul\":2123:2132   */\n      dup3\n        /* \"#utility.yul\":2119:2137   */\n      add\n        /* \"#utility.yul\":2111:2137   */\n      swap1\n      pop\n        /* \"#utility.yul\":2147:2233   */\n      tag_449\n        /* \"#utility.yul\":2230:2231   */\n      0x00\n        /* \"#utility.yul\":2219:2228   */\n      dup4\n        /* \"#utility.yul\":2215:2232   */\n      add\n        /* \"#utility.yul\":2206:2212   */\n      dup7\n        /* \"#utility.yul\":2147:2233   */\n      tag_338\n      jump\t// in\n    tag_449:\n        /* \"#utility.yul\":2243:2315   */\n      tag_450\n        /* \"#utility.yul\":2311:2313   */\n      0x20\n        /* \"#utility.yul\":2300:2309   */\n      dup4\n        /* \"#utility.yul\":2296:2314   */\n      add\n        /* \"#utility.yul\":2287:2293   */\n      dup6\n        /* \"#utility.yul\":2243:2315   */\n      tag_339\n      jump\t// in\n    tag_450:\n        /* \"#utility.yul\":2325:2397   */\n      tag_451\n        /* \"#utility.yul\":2393:2395   */\n      0x40\n        /* \"#utility.yul\":2382:2391   */\n      dup4\n        /* \"#utility.yul\":2378:2396   */\n      add\n        /* \"#utility.yul\":2369:2375   */\n      dup5\n        /* \"#utility.yul\":2325:2397   */\n      tag_339\n      jump\t// in\n    tag_451:\n        /* \"#utility.yul\":1932:2404   */\n      swap5\n      swap4\n      pop\n      pop\n      pop\n      pop\n      jump\t// out\n        /* \"#utility.yul\":2410:2561   */\n    tag_340:\n        /* \"#utility.yul\":2502:2554   */\n      tag_453\n        /* \"#utility.yul\":2548:2553   */\n      dup2\n        /* \"#utility.yul\":2502:2554   */\n      tag_337\n      jump\t// in\n    tag_453:\n        /* \"#utility.yul\":2497:2500   */\n      dup3\n        /* \"#utility.yul\":2490:2555   */\n      mstore\n        /* \"#utility.yul\":2410:2561   */\n      pop\n      pop\n      jump\t// out\n        /* \"#utility.yul\":2567:2675   */\n    tag_341:\n        /* \"#utility.yul\":2644:2668   */\n      tag_455\n        /* \"#utility.yul\":2662:2667   */\n      dup2\n        /* \"#utility.yul\":2644:2668   */\n      tag_332\n      jump\t// in\n    tag_455:\n        /* \"#utility.yul\":2639:2642   */\n      dup3\n        /* \"#utility.yul\":2632:2669   */\n      mstore\n        /* \"#utility.yul\":2567:2675   */\n      pop\n      pop\n      jump\t// out\n        /* \"#utility.yul\":2681:2819   */\n    tag_342:\n        /* \"#utility.yul\":2772:2778   */\n      0x00\n        /* \"#utility.yul\":2806:2811   */\n      dup2\n        /* \"#utility.yul\":2800:2812   */\n      mload\n        /* \"#utility.yul\":2790:2812   */\n      swap1\n      pop\n        /* \"#utility.yul\":2681:2819   */\n      swap2\n      swap1\n      pop\n      jump\t// out\n        /* \"#utility.yul\":2825:3023   */\n    tag_343:\n        /* \"#utility.yul\":2938:2949   */\n      0x00\n        /* \"#utility.yul\":2972:2978   */\n      dup3\n        /* \"#utility.yul\":2967:2970   */\n      dup3\n        /* \"#utility.yul\":2960:2979   */\n      mstore\n        /* \"#utility.yul\":3012:3016   */\n      0x20\n        /* \"#utility.yul\":3007:3010   */\n      dup3\n        /* \"#utility.yul\":3003:3017   */\n      add\n        /* \"#utility.yul\":2988:3017   */\n      swap1\n      pop\n        /* \"#utility.yul\":2825:3023   */\n      swap3\n      swap2\n      pop\n      pop\n      jump\t// out\n        /* \"#utility.yul\":3029:3185   */\n    tag_344:\n        /* \"#utility.yul\":3120:3124   */\n      0x00\n        /* \"#utility.yul\":3143:3146   */\n      dup2\n        /* \"#utility.yul\":3135:3146   */\n      swap1\n      pop\n        /* \"#utility.yul\":3173:3177   */\n      0x20\n        /* \"#utility.yul\":3168:3171   */\n      dup3\n        /* \"#utility.yul\":3164:3178   */\n      add\n        /* \"#utility.yul\":3156:3178   */\n      swap1\n      pop\n        /* \"#utility.yul\":3029:3185   */\n      swap2\n      swap1\n      pop\n      jump\t// out\n        /* \"#utility.yul\":3191:3290   */\n    tag_345:\n        /* \"#utility.yul\":3243:3249   */\n      0x00\n        /* \"#utility.yul\":3277:3282   */\n      dup2\n        /* \"#utility.yul\":3271:3283   */\n      mload\n        /* \"#utility.yul\":3261:3283   */\n      swap1\n      pop\n        /* \"#utility.yul\":3191:3290   */\n      swap2\n      swap1\n      pop\n      jump\t// out\n        /* \"#utility.yul\":3296:3455   */\n    tag_346:\n        /* \"#utility.yul\":3370:3381   */\n      0x00\n        /* \"#utility.yul\":3404:3410   */\n      dup3\n        /* \"#utility.yul\":3399:3402   */\n      dup3\n        /* \"#utility.yul\":3392:3411   */\n      mstore\n        /* \"#utility.yul\":3444:3448   */\n      0x20\n        /* \"#utility.yul\":3439:3442   */\n      dup3\n        /* \"#utility.yul\":3435:3449   */\n      add\n        /* \"#utility.yul\":3420:3449   */\n      swap1\n      pop\n        /* \"#utility.yul\":3296:3455   */\n      swap3\n      swap2\n      pop\n      pop\n      jump\t// out\n        /* \"#utility.yul\":3461:3600   */\n    tag_347:\n        /* \"#utility.yul\":3550:3556   */\n      dup3\n        /* \"#utility.yul\":3545:3548   */\n      dup2\n        /* \"#utility.yul\":3540:3543   */\n      dup4\n        /* \"#utility.yul\":3534:3557   */\n      mcopy\n        /* \"#utility.yul\":3591:3592   */\n      0x00\n        /* \"#utility.yul\":3582:3588   */\n      dup4\n        /* \"#utility.yul\":3577:3580   */\n      dup4\n        /* \"#utility.yul\":3573:3589   */\n      add\n        /* \"#utility.yul\":3566:3593   */\n      mstore\n        /* \"#utility.yul\":3461:3600   */\n      pop\n      pop\n      pop\n      jump\t// out\n        /* \"#utility.yul\":3606:3708   */\n    tag_348:\n        /* \"#utility.yul\":3647:3653   */\n      0x00\n        /* \"#utility.yul\":3698:3700   */\n      0x1f\n        /* \"#utility.yul\":3694:3701   */\n      not\n        /* \"#utility.yul\":3689:3691   */\n      0x1f\n        /* \"#utility.yul\":3682:3687   */\n      dup4\n        /* \"#utility.yul\":3678:3692   */\n      add\n        /* \"#utility.yul\":3674:3702   */\n      and\n        /* \"#utility.yul\":3664:3702   */\n      swap1\n      pop\n        /* \"#utility.yul\":3606:3708   */\n      swap2\n      swap1\n      pop\n      jump\t// out\n        /* \"#utility.yul\":3714:4071   */\n    tag_349:\n        /* \"#utility.yul\":3792:3795   */\n      0x00\n        /* \"#utility.yul\":3820:3859   */\n      tag_464\n        /* \"#utility.yul\":3853:3858   */\n      dup3\n        /* \"#utility.yul\":3820:3859   */\n      tag_345\n      jump\t// in\n    tag_464:\n        /* \"#utility.yul\":3875:3936   */\n      tag_465\n        /* \"#utility.yul\":3929:3935   */\n      dup2\n        /* \"#utility.yul\":3924:3927   */\n      dup6\n        /* \"#utility.yul\":3875:3936   */\n      tag_346\n      jump\t// in\n    tag_465:\n        /* \"#utility.yul\":3868:3936   */\n      swap4\n      pop\n        /* \"#utility.yul\":3945:4010   */\n      tag_466\n        /* \"#utility.yul\":4003:4009   */\n      dup2\n        /* \"#utility.yul\":3998:4001   */\n      dup6\n        /* \"#utility.yul\":3991:3995   */\n      0x20\n        /* \"#utility.yul\":3984:3989   */\n      dup7\n        /* \"#utility.yul\":3980:3996   */\n      add\n        /* \"#utility.yul\":3945:4010   */\n      tag_347\n      jump\t// in\n    tag_466:\n        /* \"#utility.yul\":4035:4064   */\n      tag_467\n        /* \"#utility.yul\":4057:4063   */\n      dup2\n        /* \"#utility.yul\":4035:4064   */\n      tag_348\n      jump\t// in\n    tag_467:\n        /* \"#utility.yul\":4030:4033   */\n      dup5\n        /* \"#utility.yul\":4026:4065   */\n      add\n        /* \"#utility.yul\":4019:4065   */\n      swap2\n      pop\n        /* \"#utility.yul\":3796:4071   */\n      pop\n        /* \"#utility.yul\":3714:4071   */\n      swap3\n      swap2\n      pop\n      pop\n      jump\t// out\n        /* \"#utility.yul\":4133:4911   */\n    tag_350:\n        /* \"#utility.yul\":4240:4243   */\n      0x00\n        /* \"#utility.yul\":4276:4280   */\n      0x60\n        /* \"#utility.yul\":4271:4274   */\n      dup4\n        /* \"#utility.yul\":4267:4281   */\n      add\n        /* \"#utility.yul\":4361:4365   */\n      0x00\n        /* \"#utility.yul\":4354:4359   */\n      dup4\n        /* \"#utility.yul\":4350:4366   */\n      add\n        /* \"#utility.yul\":4344:4367   */\n      mload\n        /* \"#utility.yul\":4380:4443   */\n      tag_469\n        /* \"#utility.yul\":4437:4441   */\n      0x00\n        /* \"#utility.yul\":4432:4435   */\n      dup7\n        /* \"#utility.yul\":4428:4442   */\n      add\n        /* \"#utility.yul\":4414:4426   */\n      dup3\n        /* \"#utility.yul\":4380:4443   */\n      tag_341\n      jump\t// in\n    tag_469:\n        /* \"#utility.yul\":4291:4453   */\n      pop\n        /* \"#utility.yul\":4542:4546   */\n      0x20\n        /* \"#utility.yul\":4535:4540   */\n      dup4\n        /* \"#utility.yul\":4531:4547   */\n      add\n        /* \"#utility.yul\":4525:4548   */\n      mload\n        /* \"#utility.yul\":4595:4598   */\n      dup5\n        /* \"#utility.yul\":4589:4593   */\n      dup3\n        /* \"#utility.yul\":4585:4599   */\n      sub\n        /* \"#utility.yul\":4578:4582   */\n      0x20\n        /* \"#utility.yul\":4573:4576   */\n      dup7\n        /* \"#utility.yul\":4569:4583   */\n      add\n        /* \"#utility.yul\":4562:4600   */\n      mstore\n        /* \"#utility.yul\":4621:4694   */\n      tag_470\n        /* \"#utility.yul\":4689:4693   */\n      dup3\n        /* \"#utility.yul\":4675:4687   */\n      dup3\n        /* \"#utility.yul\":4621:4694   */\n      tag_349\n      jump\t// in\n    tag_470:\n        /* \"#utility.yul\":4613:4694   */\n      swap2\n      pop\n        /* \"#utility.yul\":4463:4705   */\n      pop\n        /* \"#utility.yul\":4792:4796   */\n      0x40\n        /* \"#utility.yul\":4785:4790   */\n      dup4\n        /* \"#utility.yul\":4781:4797   */\n      add\n        /* \"#utility.yul\":4775:4798   */\n      mload\n        /* \"#utility.yul\":4811:4874   */\n      tag_471\n        /* \"#utility.yul\":4868:4872   */\n      0x40\n        /* \"#utility.yul\":4863:4866   */\n      dup7\n        /* \"#utility.yul\":4859:4873   */\n      add\n        /* \"#utility.yul\":4845:4857   */\n      dup3\n        /* \"#utility.yul\":4811:4874   */\n      tag_341\n      jump\t// in\n    tag_471:\n        /* \"#utility.yul\":4715:4884   */\n      pop\n        /* \"#utility.yul\":4901:4905   */\n      dup1\n        /* \"#utility.yul\":4894:4905   */\n      swap2\n      pop\n        /* \"#utility.yul\":4245:4911   */\n      pop\n        /* \"#utility.yul\":4133:4911   */\n      swap3\n      swap2\n      pop\n      pop\n      jump\t// out\n        /* \"#utility.yul\":4917:5169   */\n    tag_351:\n        /* \"#utility.yul\":5034:5044   */\n      0x00\n        /* \"#utility.yul\":5069:5163   */\n      tag_473\n        /* \"#utility.yul\":5159:5162   */\n      dup4\n        /* \"#utility.yul\":5151:5157   */\n      dup4\n        /* \"#utility.yul\":5069:5163   */\n      tag_350\n      jump\t// in\n    tag_473:\n        /* \"#utility.yul\":5055:5163   */\n      swap1\n      pop\n        /* \"#utility.yul\":4917:5169   */\n      swap3\n      swap2\n      pop\n      pop\n      jump\t// out\n        /* \"#utility.yul\":5175:5312   */\n    tag_352:\n        /* \"#utility.yul\":5269:5273   */\n      0x00\n        /* \"#utility.yul\":5301:5305   */\n      0x20\n        /* \"#utility.yul\":5296:5299   */\n      dup3\n        /* \"#utility.yul\":5292:5306   */\n      add\n        /* \"#utility.yul\":5284:5306   */\n      swap1\n      pop\n        /* \"#utility.yul\":5175:5312   */\n      swap2\n      swap1\n      pop\n      jump\t// out\n        /* \"#utility.yul\":5378:6461   */\n    tag_353:\n        /* \"#utility.yul\":5535:5538   */\n      0x00\n        /* \"#utility.yul\":5564:5642   */\n      tag_476\n        /* \"#utility.yul\":5636:5641   */\n      dup3\n        /* \"#utility.yul\":5564:5642   */\n      tag_342\n      jump\t// in\n    tag_476:\n        /* \"#utility.yul\":5658:5758   */\n      tag_477\n        /* \"#utility.yul\":5751:5757   */\n      dup2\n        /* \"#utility.yul\":5746:5749   */\n      dup6\n        /* \"#utility.yul\":5658:5758   */\n      tag_343\n      jump\t// in\n    tag_477:\n        /* \"#utility.yul\":5651:5758   */\n      swap4\n      pop\n        /* \"#utility.yul\":5784:5787   */\n      dup4\n        /* \"#utility.yul\":5829:5833   */\n      0x20\n        /* \"#utility.yul\":5821:5827   */\n      dup3\n        /* \"#utility.yul\":5817:5834   */\n      mul\n        /* \"#utility.yul\":5812:5815   */\n      dup6\n        /* \"#utility.yul\":5808:5835   */\n      add\n        /* \"#utility.yul\":5859:5939   */\n      tag_478\n        /* \"#utility.yul\":5933:5938   */\n      dup6\n        /* \"#utility.yul\":5859:5939   */\n      tag_344\n      jump\t// in\n    tag_478:\n        /* \"#utility.yul\":5962:5969   */\n      dup1\n        /* \"#utility.yul\":5993:5994   */\n      0x00\n        /* \"#utility.yul\":5978:6416   */\n    tag_479:\n        /* \"#utility.yul\":6003:6009   */\n      dup6\n        /* \"#utility.yul\":6000:6001   */\n      dup2\n        /* \"#utility.yul\":5997:6010   */\n      lt\n        /* \"#utility.yul\":5978:6416   */\n      iszero\n      tag_481\n      jumpi\n        /* \"#utility.yul\":6074:6083   */\n      dup5\n        /* \"#utility.yul\":6068:6072   */\n      dup5\n        /* \"#utility.yul\":6064:6084   */\n      sub\n        /* \"#utility.yul\":6059:6062   */\n      dup10\n        /* \"#utility.yul\":6052:6085   */\n      mstore\n        /* \"#utility.yul\":6125:6131   */\n      dup2\n        /* \"#utility.yul\":6119:6132   */\n      mload\n        /* \"#utility.yul\":6153:6265   */\n      tag_482\n        /* \"#utility.yul\":6260:6264   */\n      dup6\n        /* \"#utility.yul\":6245:6258   */\n      dup3\n        /* \"#utility.yul\":6153:6265   */\n      tag_351\n      jump\t// in\n    tag_482:\n        /* \"#utility.yul\":6145:6265   */\n      swap5\n      pop\n        /* \"#utility.yul\":6288:6372   */\n      tag_483\n        /* \"#utility.yul\":6365:6371   */\n      dup4\n        /* \"#utility.yul\":6288:6372   */\n      tag_352\n      jump\t// in\n    tag_483:\n        /* \"#utility.yul\":6278:6372   */\n      swap3\n      pop\n        /* \"#utility.yul\":6401:6405   */\n      0x20\n        /* \"#utility.yul\":6396:6399   */\n      dup11\n        /* \"#utility.yul\":6392:6406   */\n      add\n        /* \"#utility.yul\":6385:6406   */\n      swap10\n      pop\n        /* \"#utility.yul\":6038:6416   */\n      pop\n        /* \"#utility.yul\":6025:6026   */\n      0x01\n        /* \"#utility.yul\":6022:6023   */\n      dup2\n        /* \"#utility.yul\":6018:6027   */\n      add\n        /* \"#utility.yul\":6013:6027   */\n      swap1\n      pop\n        /* \"#utility.yul\":5978:6416   */\n      jump(tag_479)\n    tag_481:\n        /* \"#utility.yul\":5982:5996   */\n      pop\n        /* \"#utility.yul\":6432:6436   */\n      dup3\n        /* \"#utility.yul\":6425:6436   */\n      swap8\n      pop\n        /* \"#utility.yul\":6452:6455   */\n      dup8\n        /* \"#utility.yul\":6445:6455   */\n      swap6\n      pop\n        /* \"#utility.yul\":5540:6461   */\n      pop\n      pop\n      pop\n      pop\n      pop\n        /* \"#utility.yul\":5378:6461   */\n      swap3\n      swap2\n      pop\n      pop\n      jump\t// out\n        /* \"#utility.yul\":6533:7625   */\n    tag_354:\n        /* \"#utility.yul\":6660:6663   */\n      0x00\n        /* \"#utility.yul\":6696:6700   */\n      0x80\n        /* \"#utility.yul\":6691:6694   */\n      dup4\n        /* \"#utility.yul\":6687:6701   */\n      add\n        /* \"#utility.yul\":6793:6797   */\n      0x00\n        /* \"#utility.yul\":6786:6791   */\n      dup4\n        /* \"#utility.yul\":6782:6798   */\n      add\n        /* \"#utility.yul\":6776:6799   */\n      mload\n        /* \"#utility.yul\":6812:6890   */\n      tag_485\n        /* \"#utility.yul\":6884:6888   */\n      0x00\n        /* \"#utility.yul\":6879:6882   */\n      dup7\n        /* \"#utility.yul\":6875:6889   */\n      add\n        /* \"#utility.yul\":6861:6873   */\n      dup3\n        /* \"#utility.yul\":6812:6890   */\n      tag_340\n      jump\t// in\n    tag_485:\n        /* \"#utility.yul\":6711:6900   */\n      pop\n        /* \"#utility.yul\":6995:6999   */\n      0x20\n        /* \"#utility.yul\":6988:6993   */\n      dup4\n        /* \"#utility.yul\":6984:7000   */\n      add\n        /* \"#utility.yul\":6978:7001   */\n      mload\n        /* \"#utility.yul\":7014:7077   */\n      tag_486\n        /* \"#utility.yul\":7071:7075   */\n      0x20\n        /* \"#utility.yul\":7066:7069   */\n      dup7\n        /* \"#utility.yul\":7062:7076   */\n      add\n        /* \"#utility.yul\":7048:7060   */\n      dup3\n        /* \"#utility.yul\":7014:7077   */\n      tag_341\n      jump\t// in\n    tag_486:\n        /* \"#utility.yul\":6910:7087   */\n      pop\n        /* \"#utility.yul\":7174:7178   */\n      0x40\n        /* \"#utility.yul\":7167:7172   */\n      dup4\n        /* \"#utility.yul\":7163:7179   */\n      add\n        /* \"#utility.yul\":7157:7180   */\n      mload\n        /* \"#utility.yul\":7227:7230   */\n      dup5\n        /* \"#utility.yul\":7221:7225   */\n      dup3\n        /* \"#utility.yul\":7217:7231   */\n      sub\n        /* \"#utility.yul\":7210:7214   */\n      0x40\n        /* \"#utility.yul\":7205:7208   */\n      dup7\n        /* \"#utility.yul\":7201:7215   */\n      add\n        /* \"#utility.yul\":7194:7232   */\n      mstore\n        /* \"#utility.yul\":7253:7404   */\n      tag_487\n        /* \"#utility.yul\":7399:7403   */\n      dup3\n        /* \"#utility.yul\":7385:7397   */\n      dup3\n        /* \"#utility.yul\":7253:7404   */\n      tag_353\n      jump\t// in\n    tag_487:\n        /* \"#utility.yul\":7245:7404   */\n      swap2\n      pop\n        /* \"#utility.yul\":7097:7415   */\n      pop\n        /* \"#utility.yul\":7506:7510   */\n      0x60\n        /* \"#utility.yul\":7499:7504   */\n      dup4\n        /* \"#utility.yul\":7495:7511   */\n      add\n        /* \"#utility.yul\":7489:7512   */\n      mload\n        /* \"#utility.yul\":7525:7588   */\n      tag_488\n        /* \"#utility.yul\":7582:7586   */\n      0x60\n        /* \"#utility.yul\":7577:7580   */\n      dup7\n        /* \"#utility.yul\":7573:7587   */\n      add\n        /* \"#utility.yul\":7559:7571   */\n      dup3\n        /* \"#utility.yul\":7525:7588   */\n      tag_341\n      jump\t// in\n    tag_488:\n        /* \"#utility.yul\":7425:7598   */\n      pop\n        /* \"#utility.yul\":7615:7619   */\n      dup1\n        /* \"#utility.yul\":7608:7619   */\n      swap2\n      pop\n        /* \"#utility.yul\":6665:7625   */\n      pop\n        /* \"#utility.yul\":6533:7625   */\n      swap3\n      swap2\n      pop\n      pop\n      jump\t// out\n        /* \"#utility.yul\":7631:8020   */\n    tag_36:\n        /* \"#utility.yul\":7782:7786   */\n      0x00\n        /* \"#utility.yul\":7820:7822   */\n      0x20\n        /* \"#utility.yul\":7809:7818   */\n      dup3\n        /* \"#utility.yul\":7805:7823   */\n      add\n        /* \"#utility.yul\":7797:7823   */\n      swap1\n      pop\n        /* \"#utility.yul\":7869:7878   */\n      dup2\n        /* \"#utility.yul\":7863:7867   */\n      dup2\n        /* \"#utility.yul\":7859:7879   */\n      sub\n        /* \"#utility.yul\":7855:7856   */\n      0x00\n        /* \"#utility.yul\":7844:7853   */\n      dup4\n        /* \"#utility.yul\":7840:7857   */\n      add\n        /* \"#utility.yul\":7833:7880   */\n      mstore\n        /* \"#utility.yul\":7897:8013   */\n      tag_490\n        /* \"#utility.yul\":8008:8012   */\n      dup2\n        /* \"#utility.yul\":7999:8005   */\n      dup5\n        /* \"#utility.yul\":7897:8013   */\n      tag_354\n      jump\t// in\n    tag_490:\n        /* \"#utility.yul\":7889:8013   */\n      swap1\n      pop\n        /* \"#utility.yul\":7631:8020   */\n      swap3\n      swap2\n      pop\n      pop\n      jump\t// out\n        /* \"#utility.yul\":8026:8152   */\n    tag_355:\n        /* \"#utility.yul\":8063:8070   */\n      0x00\n        /* \"#utility.yul\":8103:8145   */\n      0xffffffffffffffffffffffffffffffffffffffff\n        /* \"#utility.yul\":8096:8101   */\n      dup3\n        /* \"#utility.yul\":8092:8146   */\n      and\n        /* \"#utility.yul\":8081:8146   */\n      swap1\n      pop\n        /* \"#utility.yul\":8026:8152   */\n      swap2\n      swap1\n      pop\n      jump\t// out\n        /* \"#utility.yul\":8158:8254   */\n    tag_356:\n        /* \"#utility.yul\":8195:8202   */\n      0x00\n        /* \"#utility.yul\":8224:8248   */\n      tag_493\n        /* \"#utility.yul\":8242:8247   */\n      dup3\n        /* \"#utility.yul\":8224:8248   */\n      tag_355\n      jump\t// in\n    tag_493:\n        /* \"#utility.yul\":8213:8248   */\n      swap1\n      pop\n        /* \"#utility.yul\":8158:8254   */\n      swap2\n      swap1\n      pop\n      jump\t// out\n        /* \"#utility.yul\":8260:8382   */\n    tag_357:\n        /* \"#utility.yul\":8333:8357   */\n      tag_495\n        /* \"#utility.yul\":8351:8356   */\n      dup2\n        /* \"#utility.yul\":8333:8357   */\n      tag_356\n      jump\t// in\n    tag_495:\n        /* \"#utility.yul\":8326:8331   */\n      dup2\n        /* \"#utility.yul\":8323:8358   */\n      eq\n        /* \"#utility.yul\":8313:8376   */\n      tag_496\n      jumpi\n        /* \"#utility.yul\":8372:8373   */\n      0x00\n        /* \"#utility.yul\":8369:8370   */\n      0x00\n        /* \"#utility.yul\":8362:8374   */\n      revert\n        /* \"#utility.yul\":8313:8376   */\n    tag_496:\n        /* \"#utility.yul\":8260:8382   */\n      pop\n      jump\t// out\n        /* \"#utility.yul\":8388:8527   */\n    tag_358:\n        /* \"#utility.yul\":8434:8439   */\n      0x00\n        /* \"#utility.yul\":8472:8478   */\n      dup2\n        /* \"#utility.yul\":8459:8479   */\n      calldataload\n        /* \"#utility.yul\":8450:8479   */\n      swap1\n      pop\n        /* \"#utility.yul\":8488:8521   */\n      tag_498\n        /* \"#utility.yul\":8515:8520   */\n      dup2\n        /* \"#utility.yul\":8488:8521   */\n      tag_357\n      jump\t// in\n    tag_498:\n        /* \"#utility.yul\":8388:8527   */\n      swap3\n      swap2\n      pop\n      pop\n      jump\t// out\n        /* \"#utility.yul\":8533:8862   */\n    tag_39:\n        /* \"#utility.yul\":8592:8598   */\n      0x00\n        /* \"#utility.yul\":8641:8643   */\n      0x20\n        /* \"#utility.yul\":8629:8638   */\n      dup3\n        /* \"#utility.yul\":8620:8627   */\n      dup5\n        /* \"#utility.yul\":8616:8639   */\n      sub\n        /* \"#utility.yul\":8612:8644   */\n      slt\n        /* \"#utility.yul\":8609:8728   */\n      iszero\n      tag_500\n      jumpi\n        /* \"#utility.yul\":8647:8726   */\n      tag_501\n      tag_330\n      jump\t// in\n    tag_501:\n        /* \"#utility.yul\":8609:8728   */\n    tag_500:\n        /* \"#utility.yul\":8767:8768   */\n      0x00\n        /* \"#utility.yul\":8792:8845   */\n      tag_502\n        /* \"#utility.yul\":8837:8844   */\n      dup5\n        /* \"#utility.yul\":8828:8834   */\n      dup3\n        /* \"#utility.yul\":8817:8826   */\n      dup6\n        /* \"#utility.yul\":8813:8835   */\n      add\n        /* \"#utility.yul\":8792:8845   */\n      tag_358\n      jump\t// in\n    tag_502:\n        /* \"#utility.yul\":8782:8845   */\n      swap2\n      pop\n        /* \"#utility.yul\":8738:8855   */\n      pop\n        /* \"#utility.yul\":8533:8862   */\n      swap3\n      swap2\n      pop\n      pop\n      jump\t// out\n        /* \"#utility.yul\":8868:8985   */\n    tag_359:\n        /* \"#utility.yul\":8977:8978   */\n      0x00\n        /* \"#utility.yul\":8974:8975   */\n      0x00\n        /* \"#utility.yul\":8967:8979   */\n      revert\n        /* \"#utility.yul\":8991:9108   */\n    tag_360:\n        /* \"#utility.yul\":9100:9101   */\n      0x00\n        /* \"#utility.yul\":9097:9098   */\n      0x00\n        /* \"#utility.yul\":9090:9102   */\n      revert\n        /* \"#utility.yul\":9114:9294   */\n    tag_361:\n        /* \"#utility.yul\":9162:9239   */\n      0x4e487b7100000000000000000000000000000000000000000000000000000000\n        /* \"#utility.yul\":9159:9160   */\n      0x00\n        /* \"#utility.yul\":9152:9240   */\n      mstore\n        /* \"#utility.yul\":9259:9263   */\n      0x41\n        /* \"#utility.yul\":9256:9257   */\n      0x04\n        /* \"#utility.yul\":9249:9264   */\n      mstore\n        /* \"#utility.yul\":9283:9287   */\n      0x24\n        /* \"#utility.yul\":9280:9281   */\n      0x00\n        /* \"#utility.yul\":9273:9288   */\n      revert\n        /* \"#utility.yul\":9300:9581   */\n    tag_362:\n        /* \"#utility.yul\":9383:9410   */\n      tag_507\n        /* \"#utility.yul\":9405:9409   */\n      dup3\n        /* \"#utility.yul\":9383:9410   */\n      tag_348\n      jump\t// in\n    tag_507:\n        /* \"#utility.yul\":9375:9381   */\n      dup2\n        /* \"#utility.yul\":9371:9411   */\n      add\n        /* \"#utility.yul\":9513:9519   */\n      dup2\n        /* \"#utility.yul\":9501:9511   */\n      dup2\n        /* \"#utility.yul\":9498:9520   */\n      lt\n        /* \"#utility.yul\":9477:9495   */\n      0xffffffffffffffff\n        /* \"#utility.yul\":9465:9475   */\n      dup3\n        /* \"#utility.yul\":9462:9496   */\n      gt\n        /* \"#utility.yul\":9459:9521   */\n      or\n        /* \"#utility.yul\":9456:9544   */\n      iszero\n      tag_508\n      jumpi\n        /* \"#utility.yul\":9524:9542   */\n      tag_509\n      tag_361\n      jump\t// in\n    tag_509:\n        /* \"#utility.yul\":9456:9544   */\n    tag_508:\n        /* \"#utility.yul\":9564:9574   */\n      dup1\n        /* \"#utility.yul\":9560:9562   */\n      0x40\n        /* \"#utility.yul\":9553:9575   */\n      mstore\n        /* \"#utility.yul\":9343:9581   */\n      pop\n        /* \"#utility.yul\":9300:9581   */\n      pop\n      pop\n      jump\t// out\n        /* \"#utility.yul\":9587:9716   */\n    tag_363:\n        /* \"#utility.yul\":9621:9627   */\n      0x00\n        /* \"#utility.yul\":9648:9668   */\n      tag_511\n      tag_329\n      jump\t// in\n    tag_511:\n        /* \"#utility.yul\":9638:9668   */\n      swap1\n      pop\n        /* \"#utility.yul\":9677:9710   */\n      tag_512\n        /* \"#utility.yul\":9705:9709   */\n      dup3\n        /* \"#utility.yul\":9697:9703   */\n      dup3\n        /* \"#utility.yul\":9677:9710   */\n      tag_362\n      jump\t// in\n    tag_512:\n        /* \"#utility.yul\":9587:9716   */\n      swap2\n      swap1\n      pop\n      jump\t// out\n        /* \"#utility.yul\":9722:10030   */\n    tag_364:\n        /* \"#utility.yul\":9784:9788   */\n      0x00\n        /* \"#utility.yul\":9874:9892   */\n      0xffffffffffffffff\n        /* \"#utility.yul\":9866:9872   */\n      dup3\n        /* \"#utility.yul\":9863:9893   */\n      gt\n        /* \"#utility.yul\":9860:9916   */\n      iszero\n      tag_514\n      jumpi\n        /* \"#utility.yul\":9896:9914   */\n      tag_515\n      tag_361\n      jump\t// in\n    tag_515:\n        /* \"#utility.yul\":9860:9916   */\n    tag_514:\n        /* \"#utility.yul\":9934:9963   */\n      tag_516\n        /* \"#utility.yul\":9956:9962   */\n      dup3\n        /* \"#utility.yul\":9934:9963   */\n      tag_348\n      jump\t// in\n    tag_516:\n        /* \"#utility.yul\":9926:9963   */\n      swap1\n      pop\n        /* \"#utility.yul\":10018:10022   */\n      0x20\n        /* \"#utility.yul\":10012:10016   */\n      dup2\n        /* \"#utility.yul\":10008:10023   */\n      add\n        /* \"#utility.yul\":10000:10023   */\n      swap1\n      pop\n        /* \"#utility.yul\":9722:10030   */\n      swap2\n      swap1\n      pop\n      jump\t// out\n        /* \"#utility.yul\":10036:10184   */\n    tag_365:\n        /* \"#utility.yul\":10134:10140   */\n      dup3\n        /* \"#utility.yul\":10129:10132   */\n      dup2\n        /* \"#utility.yul\":10124:10127   */\n      dup4\n        /* \"#utility.yul\":10111:10141   */\n      calldatacopy\n        /* \"#utility.yul\":10175:10176   */\n      0x00\n        /* \"#utility.yul\":10166:10172   */\n      dup4\n        /* \"#utility.yul\":10161:10164   */\n      dup4\n        /* \"#utility.yul\":10157:10173   */\n      add\n        /* \"#utility.yul\":10150:10177   */\n      mstore\n        /* \"#utility.yul\":10036:10184   */\n      pop\n      pop\n      pop\n      jump\t// out\n        /* \"#utility.yul\":10190:10615   */\n    tag_366:\n        /* \"#utility.yul\":10268:10273   */\n      0x00\n        /* \"#utility.yul\":10293:10359   */\n      tag_519\n        /* \"#utility.yul\":10309:10358   */\n      tag_520\n        /* \"#utility.yul\":10351:10357   */\n      dup5\n        /* \"#utility.yul\":10309:10358   */\n      tag_364\n      jump\t// in\n    tag_520:\n        /* \"#utility.yul\":10293:10359   */\n      tag_363\n      jump\t// in\n    tag_519:\n        /* \"#utility.yul\":10284:10359   */\n      swap1\n      pop\n        /* \"#utility.yul\":10382:10388   */\n      dup3\n        /* \"#utility.yul\":10375:10380   */\n      dup2\n        /* \"#utility.yul\":10368:10389   */\n      mstore\n        /* \"#utility.yul\":10420:10424   */\n      0x20\n        /* \"#utility.yul\":10413:10418   */\n      dup2\n        /* \"#utility.yul\":10409:10425   */\n      add\n        /* \"#utility.yul\":10458:10461   */\n      dup5\n        /* \"#utility.yul\":10449:10455   */\n      dup5\n        /* \"#utility.yul\":10444:10447   */\n      dup5\n        /* \"#utility.yul\":10440:10456   */\n      add\n        /* \"#utility.yul\":10437:10462   */\n      gt\n        /* \"#utility.yul\":10434:10546   */\n      iszero\n      tag_521\n      jumpi\n        /* \"#utility.yul\":10465:10544   */\n      tag_522\n      tag_360\n      jump\t// in\n    tag_522:\n        /* \"#utility.yul\":10434:10546   */\n    tag_521:\n        /* \"#utility.yul\":10555:10609   */\n      tag_523\n        /* \"#utility.yul\":10602:10608   */\n      dup5\n        /* \"#utility.yul\":10597:10600   */\n      dup3\n        /* \"#utility.yul\":10592:10595   */\n      dup6\n        /* \"#utility.yul\":10555:10609   */\n      tag_365\n      jump\t// in\n    tag_523:\n        /* \"#utility.yul\":10274:10615   */\n      pop\n        /* \"#utility.yul\":10190:10615   */\n      swap4\n      swap3\n      pop\n      pop\n      pop\n      jump\t// out\n        /* \"#utility.yul\":10635:10975   */\n    tag_367:\n        /* \"#utility.yul\":10691:10696   */\n      0x00\n        /* \"#utility.yul\":10740:10743   */\n      dup3\n        /* \"#utility.yul\":10733:10737   */\n      0x1f\n        /* \"#utility.yul\":10725:10731   */\n      dup4\n        /* \"#utility.yul\":10721:10738   */\n      add\n        /* \"#utility.yul\":10717:10744   */\n      slt\n        /* \"#utility.yul\":10707:10829   */\n      tag_525\n      jumpi\n        /* \"#utility.yul\":10748:10827   */\n      tag_526\n      tag_359\n      jump\t// in\n    tag_526:\n        /* \"#utility.yul\":10707:10829   */\n    tag_525:\n        /* \"#utility.yul\":10865:10871   */\n      dup2\n        /* \"#utility.yul\":10852:10872   */\n      calldataload\n        /* \"#utility.yul\":10890:10969   */\n      tag_527\n        /* \"#utility.yul\":10965:10968   */\n      dup5\n        /* \"#utility.yul\":10957:10963   */\n      dup3\n        /* \"#utility.yul\":10950:10954   */\n      0x20\n        /* \"#utility.yul\":10942:10948   */\n      dup7\n        /* \"#utility.yul\":10938:10955   */\n      add\n        /* \"#utility.yul\":10890:10969   */\n      tag_366\n      jump\t// in\n    tag_527:\n        /* \"#utility.yul\":10881:10969   */\n      swap2\n      pop\n        /* \"#utility.yul\":10697:10975   */\n      pop\n        /* \"#utility.yul\":10635:10975   */\n      swap3\n      swap2\n      pop\n      pop\n      jump\t// out\n        /* \"#utility.yul\":10981:11490   */\n    tag_43:\n        /* \"#utility.yul\":11050:11056   */\n      0x00\n        /* \"#utility.yul\":11099:11101   */\n      0x20\n        /* \"#utility.yul\":11087:11096   */\n      dup3\n        /* \"#utility.yul\":11078:11085   */\n      dup5\n        /* \"#utility.yul\":11074:11097   */\n      sub\n        /* \"#utility.yul\":11070:11102   */\n      slt\n        /* \"#utility.yul\":11067:11186   */\n      iszero\n      tag_529\n      jumpi\n        /* \"#utility.yul\":11105:11184   */\n      tag_530\n      tag_330\n      jump\t// in\n    tag_530:\n        /* \"#utility.yul\":11067:11186   */\n    tag_529:\n        /* \"#utility.yul\":11253:11254   */\n      0x00\n        /* \"#utility.yul\":11242:11251   */\n      dup3\n        /* \"#utility.yul\":11238:11255   */\n      add\n        /* \"#utility.yul\":11225:11256   */\n      calldataload\n        /* \"#utility.yul\":11283:11301   */\n      0xffffffffffffffff\n        /* \"#utility.yul\":11275:11281   */\n      dup2\n        /* \"#utility.yul\":11272:11302   */\n      gt\n        /* \"#utility.yul\":11269:11386   */\n      iszero\n      tag_531\n      jumpi\n        /* \"#utility.yul\":11305:11384   */\n      tag_532\n      tag_331\n      jump\t// in\n    tag_532:\n        /* \"#utility.yul\":11269:11386   */\n    tag_531:\n        /* \"#utility.yul\":11410:11473   */\n      tag_533\n        /* \"#utility.yul\":11465:11472   */\n      dup5\n        /* \"#utility.yul\":11456:11462   */\n      dup3\n        /* \"#utility.yul\":11445:11454   */\n      dup6\n        /* \"#utility.yul\":11441:11463   */\n      add\n        /* \"#utility.yul\":11410:11473   */\n      tag_367\n      jump\t// in\n    tag_533:\n        /* \"#utility.yul\":11400:11473   */\n      swap2\n      pop\n        /* \"#utility.yul\":11196:11483   */\n      pop\n        /* \"#utility.yul\":10981:11490   */\n      swap3\n      swap2\n      pop\n      pop\n      jump\t// out\n        /* \"#utility.yul\":11552:12340   */\n    tag_368:\n        /* \"#utility.yul\":11669:11672   */\n      0x00\n        /* \"#utility.yul\":11705:11709   */\n      0x60\n        /* \"#utility.yul\":11700:11703   */\n      dup4\n        /* \"#utility.yul\":11696:11710   */\n      add\n        /* \"#utility.yul\":11790:11794   */\n      0x00\n        /* \"#utility.yul\":11783:11788   */\n      dup4\n        /* \"#utility.yul\":11779:11795   */\n      add\n        /* \"#utility.yul\":11773:11796   */\n      mload\n        /* \"#utility.yul\":11809:11872   */\n      tag_535\n        /* \"#utility.yul\":11866:11870   */\n      0x00\n        /* \"#utility.yul\":11861:11864   */\n      dup7\n        /* \"#utility.yul\":11857:11871   */\n      add\n        /* \"#utility.yul\":11843:11855   */\n      dup3\n        /* \"#utility.yul\":11809:11872   */\n      tag_341\n      jump\t// in\n    tag_535:\n        /* \"#utility.yul\":11720:11882   */\n      pop\n        /* \"#utility.yul\":11971:11975   */\n      0x20\n        /* \"#utility.yul\":11964:11969   */\n      dup4\n        /* \"#utility.yul\":11960:11976   */\n      add\n        /* \"#utility.yul\":11954:11977   */\n      mload\n        /* \"#utility.yul\":12024:12027   */\n      dup5\n        /* \"#utility.yul\":12018:12022   */\n      dup3\n        /* \"#utility.yul\":12014:12028   */\n      sub\n        /* \"#utility.yul\":12007:12011   */\n      0x20\n        /* \"#utility.yul\":12002:12005   */\n      dup7\n        /* \"#utility.yul\":11998:12012   */\n      add\n        /* \"#utility.yul\":11991:12029   */\n      mstore\n        /* \"#utility.yul\":12050:12123   */\n      tag_536\n        /* \"#utility.yul\":12118:12122   */\n      dup3\n        /* \"#utility.yul\":12104:12116   */\n      dup3\n        /* \"#utility.yul\":12050:12123   */\n      tag_349\n      jump\t// in\n    tag_536:\n        /* \"#utility.yul\":12042:12123   */\n      swap2\n      pop\n        /* \"#utility.yul\":11892:12134   */\n      pop\n        /* \"#utility.yul\":12221:12225   */\n      0x40\n        /* \"#utility.yul\":12214:12219   */\n      dup4\n        /* \"#utility.yul\":12210:12226   */\n      add\n        /* \"#utility.yul\":12204:12227   */\n      mload\n        /* \"#utility.yul\":12240:12303   */\n      tag_537\n        /* \"#utility.yul\":12297:12301   */\n      0x40\n        /* \"#utility.yul\":12292:12295   */\n      dup7\n        /* \"#utility.yul\":12288:12302   */\n      add\n        /* \"#utility.yul\":12274:12286   */\n      dup3\n        /* \"#utility.yul\":12240:12303   */\n      tag_341\n      jump\t// in\n    tag_537:\n        /* \"#utility.yul\":12144:12313   */\n      pop\n        /* \"#utility.yul\":12330:12334   */\n      dup1\n        /* \"#utility.yul\":12323:12334   */\n      swap2\n      pop\n        /* \"#utility.yul\":11674:12340   */\n      pop\n        /* \"#utility.yul\":11552:12340   */\n      swap3\n      swap2\n      pop\n      pop\n      jump\t// out\n        /* \"#utility.yul\":12346:12715   */\n    tag_49:\n        /* \"#utility.yul\":12487:12491   */\n      0x00\n        /* \"#utility.yul\":12525:12527   */\n      0x20\n        /* \"#utility.yul\":12514:12523   */\n      dup3\n        /* \"#utility.yul\":12510:12528   */\n      add\n        /* \"#utility.yul\":12502:12528   */\n      swap1\n      pop\n        /* \"#utility.yul\":12574:12583   */\n      dup2\n        /* \"#utility.yul\":12568:12572   */\n      dup2\n        /* \"#utility.yul\":12564:12584   */\n      sub\n        /* \"#utility.yul\":12560:12561   */\n      0x00\n        /* \"#utility.yul\":12549:12558   */\n      dup4\n        /* \"#utility.yul\":12545:12562   */\n      add\n        /* \"#utility.yul\":12538:12585   */\n      mstore\n        /* \"#utility.yul\":12602:12708   */\n      tag_539\n        /* \"#utility.yul\":12703:12707   */\n      dup2\n        /* \"#utility.yul\":12694:12700   */\n      dup5\n        /* \"#utility.yul\":12602:12708   */\n      tag_368\n      jump\t// in\n    tag_539:\n        /* \"#utility.yul\":12594:12708   */\n      swap1\n      pop\n        /* \"#utility.yul\":12346:12715   */\n      swap3\n      swap2\n      pop\n      pop\n      jump\t// out\n        /* \"#utility.yul\":12721:12929   */\n    tag_369:\n        /* \"#utility.yul\":12844:12855   */\n      0x00\n        /* \"#utility.yul\":12878:12884   */\n      dup3\n        /* \"#utility.yul\":12873:12876   */\n      dup3\n        /* \"#utility.yul\":12866:12885   */\n      mstore\n        /* \"#utility.yul\":12918:12922   */\n      0x20\n        /* \"#utility.yul\":12913:12916   */\n      dup3\n        /* \"#utility.yul\":12909:12923   */\n      add\n        /* \"#utility.yul\":12894:12923   */\n      swap1\n      pop\n        /* \"#utility.yul\":12721:12929   */\n      swap3\n      swap2\n      pop\n      pop\n      jump\t// out\n        /* \"#utility.yul\":12995:14098   */\n    tag_370:\n        /* \"#utility.yul\":13162:13165   */\n      0x00\n        /* \"#utility.yul\":13191:13269   */\n      tag_542\n        /* \"#utility.yul\":13263:13268   */\n      dup3\n        /* \"#utility.yul\":13191:13269   */\n      tag_342\n      jump\t// in\n    tag_542:\n        /* \"#utility.yul\":13285:13395   */\n      tag_543\n        /* \"#utility.yul\":13388:13394   */\n      dup2\n        /* \"#utility.yul\":13383:13386   */\n      dup6\n        /* \"#utility.yul\":13285:13395   */\n      tag_369\n      jump\t// in\n    tag_543:\n        /* \"#utility.yul\":13278:13395   */\n      swap4\n      pop\n        /* \"#utility.yul\":13421:13424   */\n      dup4\n        /* \"#utility.yul\":13466:13470   */\n      0x20\n        /* \"#utility.yul\":13458:13464   */\n      dup3\n        /* \"#utility.yul\":13454:13471   */\n      mul\n        /* \"#utility.yul\":13449:13452   */\n      dup6\n        /* \"#utility.yul\":13445:13472   */\n      add\n        /* \"#utility.yul\":13496:13576   */\n      tag_544\n        /* \"#utility.yul\":13570:13575   */\n      dup6\n        /* \"#utility.yul\":13496:13576   */\n      tag_344\n      jump\t// in\n    tag_544:\n        /* \"#utility.yul\":13599:13606   */\n      dup1\n        /* \"#utility.yul\":13630:13631   */\n      0x00\n        /* \"#utility.yul\":13615:14053   */\n    tag_545:\n        /* \"#utility.yul\":13640:13646   */\n      dup6\n        /* \"#utility.yul\":13637:13638   */\n      dup2\n        /* \"#utility.yul\":13634:13647   */\n      lt\n        /* \"#utility.yul\":13615:14053   */\n      iszero\n      tag_547\n      jumpi\n        /* \"#utility.yul\":13711:13720   */\n      dup5\n        /* \"#utility.yul\":13705:13709   */\n      dup5\n        /* \"#utility.yul\":13701:13721   */\n      sub\n        /* \"#utility.yul\":13696:13699   */\n      dup10\n        /* \"#utility.yul\":13689:13722   */\n      mstore\n        /* \"#utility.yul\":13762:13768   */\n      dup2\n        /* \"#utility.yul\":13756:13769   */\n      mload\n        /* \"#utility.yul\":13790:13902   */\n      tag_548\n        /* \"#utility.yul\":13897:13901   */\n      dup6\n        /* \"#utility.yul\":13882:13895   */\n      dup3\n        /* \"#utility.yul\":13790:13902   */\n      tag_351\n      jump\t// in\n    tag_548:\n        /* \"#utility.yul\":13782:13902   */\n      swap5\n      pop\n        /* \"#utility.yul\":13925:14009   */\n      tag_549\n        /* \"#utility.yul\":14002:14008   */\n      dup4\n        /* \"#utility.yul\":13925:14009   */\n      tag_352\n      jump\t// in\n    tag_549:\n        /* \"#utility.yul\":13915:14009   */\n      swap3\n      pop\n        /* \"#utility.yul\":14038:14042   */\n      0x20\n        /* \"#utility.yul\":14033:14036   */\n      dup11\n        /* \"#utility.yul\":14029:14043   */\n      add\n        /* \"#utility.yul\":14022:14043   */\n      swap10\n      pop\n        /* \"#utility.yul\":13675:14053   */\n      pop\n        /* \"#utility.yul\":13662:13663   */\n      0x01\n        /* \"#utility.yul\":13659:13660   */\n      dup2\n        /* \"#utility.yul\":13655:13664   */\n      add\n        /* \"#utility.yul\":13650:13664   */\n      swap1\n      pop\n        /* \"#utility.yul\":13615:14053   */\n      jump(tag_545)\n    tag_547:\n        /* \"#utility.yul\":13619:13633   */\n      pop\n        /* \"#utility.yul\":14069:14073   */\n      dup3\n        /* \"#utility.yul\":14062:14073   */\n      swap8\n      pop\n        /* \"#utility.yul\":14089:14092   */\n      dup8\n        /* \"#utility.yul\":14082:14092   */\n      swap6\n      pop\n        /* \"#utility.yul\":13167:14098   */\n      pop\n      pop\n      pop\n      pop\n      pop\n        /* \"#utility.yul\":12995:14098   */\n      swap3\n      swap2\n      pop\n      pop\n      jump\t// out\n        /* \"#utility.yul\":14104:14573   */\n    tag_53:\n        /* \"#utility.yul\":14295:14299   */\n      0x00\n        /* \"#utility.yul\":14333:14335   */\n      0x20\n        /* \"#utility.yul\":14322:14331   */\n      dup3\n        /* \"#utility.yul\":14318:14336   */\n      add\n        /* \"#utility.yul\":14310:14336   */\n      swap1\n      pop\n        /* \"#utility.yul\":14382:14391   */\n      dup2\n        /* \"#utility.yul\":14376:14380   */\n      dup2\n        /* \"#utility.yul\":14372:14392   */\n      sub\n        /* \"#utility.yul\":14368:14369   */\n      0x00\n        /* \"#utility.yul\":14357:14366   */\n      dup4\n        /* \"#utility.yul\":14353:14370   */\n      add\n        /* \"#utility.yul\":14346:14393   */\n      mstore\n        /* \"#utility.yul\":14410:14566   */\n      tag_551\n        /* \"#utility.yul\":14561:14565   */\n      dup2\n        /* \"#utility.yul\":14552:14558   */\n      dup5\n        /* \"#utility.yul\":14410:14566   */\n      tag_370\n      jump\t// in\n    tag_551:\n        /* \"#utility.yul\":14402:14566   */\n      swap1\n      pop\n        /* \"#utility.yul\":14104:14573   */\n      swap3\n      swap2\n      pop\n      pop\n      jump\t// out\n        /* \"#utility.yul\":14579:14697   */\n    tag_371:\n        /* \"#utility.yul\":14666:14690   */\n      tag_553\n        /* \"#utility.yul\":14684:14689   */\n      dup2\n        /* \"#utility.yul\":14666:14690   */\n      tag_356\n      jump\t// in\n    tag_553:\n        /* \"#utility.yul\":14661:14664   */\n      dup3\n        /* \"#utility.yul\":14654:14691   */\n      mstore\n        /* \"#utility.yul\":14579:14697   */\n      pop\n      pop\n      jump\t// out\n        /* \"#utility.yul\":14703:14925   */\n    tag_66:\n        /* \"#utility.yul\":14796:14800   */\n      0x00\n        /* \"#utility.yul\":14834:14836   */\n      0x20\n        /* \"#utility.yul\":14823:14832   */\n      dup3\n        /* \"#utility.yul\":14819:14837   */\n      add\n        /* \"#utility.yul\":14811:14837   */\n      swap1\n      pop\n        /* \"#utility.yul\":14847:14918   */\n      tag_555\n        /* \"#utility.yul\":14915:14916   */\n      0x00\n        /* \"#utility.yul\":14904:14913   */\n      dup4\n        /* \"#utility.yul\":14900:14917   */\n      add\n        /* \"#utility.yul\":14891:14897   */\n      dup5\n        /* \"#utility.yul\":14847:14918   */\n      tag_371\n      jump\t// in\n    tag_555:\n        /* \"#utility.yul\":14703:14925   */\n      swap3\n      swap2\n      pop\n      pop\n      jump\t// out\n        /* \"#utility.yul\":14931:15153   */\n    tag_70:\n        /* \"#utility.yul\":15024:15028   */\n      0x00\n        /* \"#utility.yul\":15062:15064   */\n      0x20\n        /* \"#utility.yul\":15051:15060   */\n      dup3\n        /* \"#utility.yul\":15047:15065   */\n      add\n        /* \"#utility.yul\":15039:15065   */\n      swap1\n      pop\n        /* \"#utility.yul\":15075:15146   */\n      tag_557\n        /* \"#utility.yul\":15143:15144   */\n      0x00\n        /* \"#utility.yul\":15132:15141   */\n      dup4\n        /* \"#utility.yul\":15128:15145   */\n      add\n        /* \"#utility.yul\":15119:15125   */\n      dup5\n        /* \"#utility.yul\":15075:15146   */\n      tag_339\n      jump\t// in\n    tag_557:\n        /* \"#utility.yul\":14931:15153   */\n      swap3\n      swap2\n      pop\n      pop\n      jump\t// out\n        /* \"#utility.yul\":15159:15339   */\n    tag_372:\n        /* \"#utility.yul\":15207:15284   */\n      0x4e487b7100000000000000000000000000000000000000000000000000000000\n        /* \"#utility.yul\":15204:15205   */\n      0x00\n        /* \"#utility.yul\":15197:15285   */\n      mstore\n        /* \"#utility.yul\":15304:15308   */\n      0x11\n        /* \"#utility.yul\":15301:15302   */\n      0x04\n        /* \"#utility.yul\":15294:15309   */\n      mstore\n        /* \"#utility.yul\":15328:15332   */\n      0x24\n        /* \"#utility.yul\":15325:15326   */\n      0x00\n        /* \"#utility.yul\":15318:15333   */\n      revert\n        /* \"#utility.yul\":15345:15578   */\n    tag_92:\n        /* \"#utility.yul\":15384:15387   */\n      0x00\n        /* \"#utility.yul\":15407:15431   */\n      tag_560\n        /* \"#utility.yul\":15425:15430   */\n      dup3\n        /* \"#utility.yul\":15407:15431   */\n      tag_332\n      jump\t// in\n    tag_560:\n        /* \"#utility.yul\":15398:15431   */\n      swap2\n      pop\n        /* \"#utility.yul\":15453:15519   */\n      0xffffffffffffffffffffffffffffffffffffffffffffffffffffffffffffffff\n        /* \"#utility.yul\":15446:15451   */\n      dup3\n        /* \"#utility.yul\":15443:15520   */\n      sub\n        /* \"#utility.yul\":15440:15543   */\n      tag_561\n      jumpi\n        /* \"#utility.yul\":15523:15541   */\n      tag_562\n      tag_372\n      jump\t// in\n    tag_562:\n        /* \"#utility.yul\":15440:15543   */\n    tag_561:\n        /* \"#utility.yul\":15570:15571   */\n      0x01\n        /* \"#utility.yul\":15563:15568   */\n      dup3\n        /* \"#utility.yul\":15559:15572   */\n      add\n        /* \"#utility.yul\":15552:15572   */\n      swap1\n      pop\n        /* \"#utility.yul\":15345:15578   */\n      swap2\n      swap1\n      pop\n      jump\t// out\n        /* \"#utility.yul\":15584:15764   */\n    tag_373:\n        /* \"#utility.yul\":15632:15709   */\n      0x4e487b7100000000000000000000000000000000000000000000000000000000\n        /* \"#utility.yul\":15629:15630   */\n      0x00\n        /* \"#utility.yul\":15622:15710   */\n      mstore\n        /* \"#utility.yul\":15729:15733   */\n      0x22\n        /* \"#utility.yul\":15726:15727   */\n      0x04\n        /* \"#utility.yul\":15719:15734   */\n      mstore\n        /* \"#utility.yul\":15753:15757   */\n      0x24\n        /* \"#utility.yul\":15750:15751   */\n      0x00\n        /* \"#utility.yul\":15743:15758   */\n      revert\n        /* \"#utility.yul\":15770:16090   */\n    tag_108:\n        /* \"#utility.yul\":15814:15820   */\n      0x00\n        /* \"#utility.yul\":15851:15852   */\n      0x02\n        /* \"#utility.yul\":15845:15849   */\n      dup3\n        /* \"#utility.yul\":15841:15853   */\n      div\n        /* \"#utility.yul\":15831:15853   */\n      swap1\n      pop\n        /* \"#utility.yul\":15898:15899   */\n      0x01\n        /* \"#utility.yul\":15892:15896   */\n      dup3\n        /* \"#utility.yul\":15888:15900   */\n      and\n        /* \"#utility.yul\":15919:15937   */\n      dup1\n        /* \"#utility.yul\":15909:15990   */\n      tag_565\n      jumpi\n        /* \"#utility.yul\":15975:15979   */\n      0x7f\n        /* \"#utility.yul\":15967:15973   */\n      dup3\n        /* \"#utility.yul\":15963:15980   */\n      and\n        /* \"#utility.yul\":15953:15980   */\n      swap2\n      pop\n        /* \"#utility.yul\":15909:15990   */\n    tag_565:\n        /* \"#utility.yul\":16037:16039   */\n      0x20\n        /* \"#utility.yul\":16029:16035   */\n      dup3\n        /* \"#utility.yul\":16026:16040   */\n      lt\n        /* \"#utility.yul\":16006:16024   */\n      dup2\n        /* \"#utility.yul\":16003:16041   */\n      sub\n        /* \"#utility.yul\":16000:16084   */\n      tag_566\n      jumpi\n        /* \"#utility.yul\":16056:16074   */\n      tag_567\n      tag_373\n      jump\t// in\n    tag_567:\n        /* \"#utility.yul\":16000:16084   */\n    tag_566:\n        /* \"#utility.yul\":15821:16090   */\n      pop\n        /* \"#utility.yul\":15770:16090   */\n      swap2\n      swap1\n      pop\n      jump\t// out\n        /* \"#utility.yul\":16096:16265   */\n    tag_374:\n        /* \"#utility.yul\":16180:16191   */\n      0x00\n        /* \"#utility.yul\":16214:16220   */\n      dup3\n        /* \"#utility.yul\":16209:16212   */\n      dup3\n        /* \"#utility.yul\":16202:16221   */\n      mstore\n        /* \"#utility.yul\":16254:16258   */\n      0x20\n        /* \"#utility.yul\":16249:16252   */\n      dup3\n        /* \"#utility.yul\":16245:16259   */\n      add\n        /* \"#utility.yul\":16230:16259   */\n      swap1\n      pop\n        /* \"#utility.yul\":16096:16265   */\n      swap3\n      swap2\n      pop\n      pop\n      jump\t// out\n        /* \"#utility.yul\":16271:16499   */\n    tag_375:\n        /* \"#utility.yul\":16411:16445   */\n      0x526567697374726174696f6e206e6f74207374617274656420666f7220746869\n        /* \"#utility.yul\":16407:16408   */\n      0x00\n        /* \"#utility.yul\":16399:16405   */\n      dup3\n        /* \"#utility.yul\":16395:16409   */\n      add\n        /* \"#utility.yul\":16388:16446   */\n      mstore\n        /* \"#utility.yul\":16480:16491   */\n      0x732073657373696f6e0000000000000000000000000000000000000000000000\n        /* \"#utility.yul\":16475:16477   */\n      0x20\n        /* \"#utility.yul\":16467:16473   */\n      dup3\n        /* \"#utility.yul\":16463:16478   */\n      add\n        /* \"#utility.yul\":16456:16492   */\n      mstore\n        /* \"#utility.yul\":16271:16499   */\n      pop\n      jump\t// out\n        /* \"#utility.yul\":16505:16871   */\n    tag_376:\n        /* \"#utility.yul\":16647:16650   */\n      0x00\n        /* \"#utility.yul\":16668:16735   */\n      tag_571\n        /* \"#utility.yul\":16732:16734   */\n      0x29\n        /* \"#utility.yul\":16727:16730   */\n      dup4\n        /* \"#utility.yul\":16668:16735   */\n      tag_374\n      jump\t// in\n    tag_571:\n        /* \"#utility.yul\":16661:16735   */\n      swap2\n      pop\n        /* \"#utility.yul\":16744:16837   */\n      tag_572\n        /* \"#utility.yul\":16833:16836   */\n      dup3\n        /* \"#utility.yul\":16744:16837   */\n      tag_375\n      jump\t// in\n    tag_572:\n        /* \"#utility.yul\":16862:16864   */\n      0x40\n        /* \"#utility.yul\":16857:16860   */\n      dup3\n        /* \"#utility.yul\":16853:16865   */\n      add\n        /* \"#utility.yul\":16846:16865   */\n      swap1\n      pop\n        /* \"#utility.yul\":16505:16871   */\n      swap2\n      swap1\n      pop\n      jump\t// out\n        /* \"#utility.yul\":16877:17296   */\n    tag_122:\n        /* \"#utility.yul\":17043:17047   */\n      0x00\n        /* \"#utility.yul\":17081:17083   */\n      0x20\n        /* \"#utility.yul\":17070:17079   */\n      dup3\n        /* \"#utility.yul\":17066:17084   */\n      add\n        /* \"#utility.yul\":17058:17084   */\n      swap1\n      pop\n        /* \"#utility.yul\":17130:17139   */\n      dup2\n        /* \"#utility.yul\":17124:17128   */\n      dup2\n        /* \"#utility.yul\":17120:17140   */\n      sub\n        /* \"#utility.yul\":17116:17117   */\n      0x00\n        /* \"#utility.yul\":17105:17114   */\n      dup4\n        /* \"#utility.yul\":17101:17118   */\n      add\n        /* \"#utility.yul\":17094:17141   */\n      mstore\n        /* \"#utility.yul\":17158:17289   */\n      tag_574\n        /* \"#utility.yul\":17284:17288   */\n      dup2\n        /* \"#utility.yul\":17158:17289   */\n      tag_376\n      jump\t// in\n    tag_574:\n        /* \"#utility.yul\":17150:17289   */\n      swap1\n      pop\n        /* \"#utility.yul\":16877:17296   */\n      swap2\n      swap1\n      pop\n      jump\t// out\n        /* \"#utility.yul\":17302:17476   */\n    tag_377:\n        /* \"#utility.yul\":17442:17468   */\n      0x566f74657220616c726561647920726567697374657265640000000000000000\n        /* \"#utility.yul\":17438:17439   */\n      0x00\n        /* \"#utility.yul\":17430:17436   */\n      dup3\n        /* \"#utility.yul\":17426:17440   */\n      add\n        /* \"#utility.yul\":17419:17469   */\n      mstore\n        /* \"#utility.yul\":17302:17476   */\n      pop\n      jump\t// out\n        /* \"#utility.yul\":17482:17848   */\n    tag_378:\n        /* \"#utility.yul\":17624:17627   */\n      0x00\n        /* \"#utility.yul\":17645:17712   */\n      tag_577\n        /* \"#utility.yul\":17709:17711   */\n      0x18\n        /* \"#utility.yul\":17704:17707   */\n      dup4\n        /* \"#utility.yul\":17645:17712   */\n      tag_374\n      jump\t// in\n    tag_577:\n        /* \"#utility.yul\":17638:17712   */\n      swap2\n      pop\n        /* \"#utility.yul\":17721:17814   */\n      tag_578\n        /* \"#utility.yul\":17810:17813   */\n      dup3\n        /* \"#utility.yul\":17721:17814   */\n      tag_377\n      jump\t// in\n    tag_578:\n        /* \"#utility.yul\":17839:17841   */\n      0x20\n        /* \"#utility.yul\":17834:17837   */\n      dup3\n        /* \"#utility.yul\":17830:17842   */\n      add\n        /* \"#utility.yul\":17823:17842   */\n      swap1\n      pop\n        /* \"#utility.yul\":17482:17848   */\n      swap2\n      swap1\n      pop\n      jump\t// out\n        /* \"#utility.yul\":17854:18273   */\n    tag_125:\n        /* \"#utility.yul\":18020:18024   */\n      0x00\n        /* \"#utility.yul\":18058:18060   */\n      0x20\n        /* \"#utility.yul\":18047:18056   */\n      dup3\n        /* \"#utility.yul\":18043:18061   */\n      add\n        /* \"#utility.yul\":18035:18061   */\n      swap1\n      pop\n        /* \"#utility.yul\":18107:18116   */\n      dup2\n        /* \"#utility.yul\":18101:18105   */\n      dup2\n        /* \"#utility.yul\":18097:18117   */\n      sub\n        /* \"#utility.yul\":18093:18094   */\n      0x00\n        /* \"#utility.yul\":18082:18091   */\n      dup4\n        /* \"#utility.yul\":18078:18095   */\n      add\n        /* \"#utility.yul\":18071:18118   */\n      mstore\n        /* \"#utility.yul\":18135:18266   */\n      tag_580\n        /* \"#utility.yul\":18261:18265   */\n      dup2\n        /* \"#utility.yul\":18135:18266   */\n      tag_378\n      jump\t// in\n    tag_580:\n        /* \"#utility.yul\":18127:18266   */\n      swap1\n      pop\n        /* \"#utility.yul\":17854:18273   */\n      swap2\n      swap1\n      pop\n      jump\t// out\n        /* \"#utility.yul\":18279:18451   */\n    tag_379:\n        /* \"#utility.yul\":18419:18443   */\n      0x596f7520617265206e6f74207265676973746572656400000000000000000000\n        /* \"#utility.yul\":18415:18416   */\n      0x00\n        /* \"#utility.yul\":18407:18413   */\n      dup3\n        /* \"#utility.yul\":18403:18417   */\n      add\n        /* \"#utility.yul\":18396:18444   */\n      mstore\n        /* \"#utility.yul\":18279:18451   */\n      pop\n      jump\t// out\n        /* \"#utility.yul\":18457:18823   */\n    tag_380:\n        /* \"#utility.yul\":18599:18602   */\n      0x00\n        /* \"#utility.yul\":18620:18687   */\n      tag_583\n        /* \"#utility.yul\":18684:18686   */\n      0x16\n        /* \"#utility.yul\":18679:18682   */\n      dup4\n        /* \"#utility.yul\":18620:18687   */\n      tag_374\n      jump\t// in\n    tag_583:\n        /* \"#utility.yul\":18613:18687   */\n      swap2\n      pop\n        /* \"#utility.yul\":18696:18789   */\n      tag_584\n        /* \"#utility.yul\":18785:18788   */\n      dup3\n        /* \"#utility.yul\":18696:18789   */\n      tag_379\n      jump\t// in\n    tag_584:\n        /* \"#utility.yul\":18814:18816   */\n      0x20\n        /* \"#utility.yul\":18809:18812   */\n      dup3\n        /* \"#utility.yul\":18805:18817   */\n      add\n        /* \"#utility.yul\":18798:18817   */\n      swap1\n      pop\n        /* \"#utility.yul\":18457:18823   */\n      swap2\n      swap1\n      pop\n      jump\t// out\n        /* \"#utility.yul\":18829:19248   */\n    tag_130:\n        /* \"#utility.yul\":18995:18999   */\n      0x00\n        /* \"#utility.yul\":19033:19035   */\n      0x20\n        /* \"#utility.yul\":19022:19031   */\n      dup3\n        /* \"#utility.yul\":19018:19036   */\n      add\n        /* \"#utility.yul\":19010:19036   */\n      swap1\n      pop\n        /* \"#utility.yul\":19082:19091   */\n      dup2\n        /* \"#utility.yul\":19076:19080   */\n      dup2\n        /* \"#utility.yul\":19072:19092   */\n      sub\n        /* \"#utility.yul\":19068:19069   */\n      0x00\n        /* \"#utility.yul\":19057:19066   */\n      dup4\n        /* \"#utility.yul\":19053:19070   */\n      add\n        /* \"#utility.yul\":19046:19093   */\n      mstore\n        /* \"#utility.yul\":19110:19241   */\n      tag_586\n        /* \"#utility.yul\":19236:19240   */\n      dup2\n        /* \"#utility.yul\":19110:19241   */\n      tag_380\n      jump\t// in\n    tag_586:\n        /* \"#utility.yul\":19102:19241   */\n      swap1\n      pop\n        /* \"#utility.yul\":18829:19248   */\n      swap2\n      swap1\n      pop\n      jump\t// out\n        /* \"#utility.yul\":19254:19436   */\n    tag_381:\n        /* \"#utility.yul\":19394:19428   */\n      0x50726f706f73616c206465736372697074696f6e206973207265717569726564\n        /* \"#utility.yul\":19390:19391   */\n      0x00\n        /* \"#utility.yul\":19382:19388   */\n      dup3\n        /* \"#utility.yul\":19378:19392   */\n      add\n        /* \"#utility.yul\":19371:19429   */\n      mstore\n        /* \"#utility.yul\":19254:19436   */\n      pop\n      jump\t// out\n        /* \"#utility.yul\":19442:19808   */\n    tag_382:\n        /* \"#utility.yul\":19584:19587   */\n      0x00\n        /* \"#utility.yul\":19605:19672   */\n      tag_589\n        /* \"#utility.yul\":19669:19671   */\n      0x20\n        /* \"#utility.yul\":19664:19667   */\n      dup4\n        /* \"#utility.yul\":19605:19672   */\n      tag_374\n      jump\t// in\n    tag_589:\n        /* \"#utility.yul\":19598:19672   */\n      swap2\n      pop\n        /* \"#utility.yul\":19681:19774   */\n      tag_590\n        /* \"#utility.yul\":19770:19773   */\n      dup3\n        /* \"#utility.yul\":19681:19774   */\n      tag_381\n      jump\t// in\n    tag_590:\n        /* \"#utility.yul\":19799:19801   */\n      0x20\n        /* \"#utility.yul\":19794:19797   */\n      dup3\n        /* \"#utility.yul\":19790:19802   */\n      add\n        /* \"#utility.yul\":19783:19802   */\n      swap1\n      pop\n        /* \"#utility.yul\":19442:19808   */\n      swap2\n      swap1\n      pop\n      jump\t// out\n        /* \"#utility.yul\":19814:20233   */\n    tag_134:\n        /* \"#utility.yul\":19980:19984   */\n      0x00\n        /* \"#utility.yul\":20018:20020   */\n      0x20\n        /* \"#utility.yul\":20007:20016   */\n      dup3\n        /* \"#utility.yul\":20003:20021   */\n      add\n        /* \"#utility.yul\":19995:20021   */\n      swap1\n      pop\n        /* \"#utility.yul\":20067:20076   */\n      dup2\n        /* \"#utility.yul\":20061:20065   */\n      dup2\n        /* \"#utility.yul\":20057:20077   */\n      sub\n        /* \"#utility.yul\":20053:20054   */\n      0x00\n        /* \"#utility.yul\":20042:20051   */\n      dup4\n        /* \"#utility.yul\":20038:20055   */\n      add\n        /* \"#utility.yul\":20031:20078   */\n      mstore\n        /* \"#utility.yul\":20095:20226   */\n      tag_592\n        /* \"#utility.yul\":20221:20225   */\n      dup2\n        /* \"#utility.yul\":20095:20226   */\n      tag_382\n      jump\t// in\n    tag_592:\n        /* \"#utility.yul\":20087:20226   */\n      swap1\n      pop\n        /* \"#utility.yul\":19814:20233   */\n      swap2\n      swap1\n      pop\n      jump\t// out\n        /* \"#utility.yul\":20239:20460   */\n    tag_383:\n        /* \"#utility.yul\":20379:20413   */\n      0x50726f706f73616c7320726567697374726174696f6e206e6f74207374617274\n        /* \"#utility.yul\":20375:20376   */\n      0x00\n        /* \"#utility.yul\":20367:20373   */\n      dup3\n        /* \"#utility.yul\":20363:20377   */\n      add\n        /* \"#utility.yul\":20356:20414   */\n      mstore\n        /* \"#utility.yul\":20448:20452   */\n      0x6564000000000000000000000000000000000000000000000000000000000000\n        /* \"#utility.yul\":20443:20445   */\n      0x20\n        /* \"#utility.yul\":20435:20441   */\n      dup3\n        /* \"#utility.yul\":20431:20446   */\n      add\n        /* \"#utility.yul\":20424:20453   */\n      mstore\n        /* \"#utility.yul\":20239:20460   */\n      pop\n      jump\t// out\n        /* \"#utility.yul\":20466:20832   */\n    tag_384:\n        /* \"#utility.yul\":20608:20611   */\n      0x00\n        /* \"#utility.yul\":20629:20696   */\n      tag_595\n        /* \"#utility.yul\":20693:20695   */\n      0x22\n        /* \"#utility.yul\":20688:20691   */\n      dup4\n        /* \"#utility.yul\":20629:20696   */\n      tag_374\n      jump\t// in\n    tag_595:\n        /* \"#utility.yul\":20622:20696   */\n      swap2\n      pop\n        /* \"#utility.yul\":20705:20798   */\n      tag_596\n        /* \"#utility.yul\":20794:20797   */\n      dup3\n        /* \"#utility.yul\":20705:20798   */\n      tag_383\n      jump\t// in\n    tag_596:\n        /* \"#utility.yul\":20823:20825   */\n      0x40\n        /* \"#utility.yul\":20818:20821   */\n      dup3\n        /* \"#utility.yul\":20814:20826   */\n      add\n        /* \"#utility.yul\":20807:20826   */\n      swap1\n      pop\n        /* \"#utility.yul\":20466:20832   */\n      swap2\n      swap1\n      pop\n      jump\t// out\n        /* \"#utility.yul\":20838:21257   */\n    tag_141:\n        /* \"#utility.yul\":21004:21008   */\n      0x00\n        /* \"#utility.yul\":21042:21044   */\n      0x20\n        /* \"#utility.yul\":21031:21040   */\n      dup3\n        /* \"#utility.yul\":21027:21045   */\n      add\n        /* \"#utility.yul\":21019:21045   */\n      swap1\n      pop\n        /* \"#utility.yul\":21091:21100   */\n      dup2\n        /* \"#utility.yul\":21085:21089   */\n      dup2\n        /* \"#utility.yul\":21081:21101   */\n      sub\n        /* \"#utility.yul\":21077:21078   */\n      0x00\n        /* \"#utility.yul\":21066:21075   */\n      dup4\n        /* \"#utility.yul\":21062:21079   */\n      add\n        /* \"#utility.yul\":21055:21102   */\n      mstore\n        /* \"#utility.yul\":21119:21250   */\n      tag_598\n        /* \"#utility.yul\":21245:21249   */\n      dup2\n        /* \"#utility.yul\":21119:21250   */\n      tag_384\n      jump\t// in\n    tag_598:\n        /* \"#utility.yul\":21111:21250   */\n      swap1\n      pop\n        /* \"#utility.yul\":20838:21257   */\n      swap2\n      swap1\n      pop\n      jump\t// out\n        /* \"#utility.yul\":21263:21404   */\n    tag_385:\n        /* \"#utility.yul\":21312:21316   */\n      0x00\n        /* \"#utility.yul\":21335:21338   */\n      dup2\n        /* \"#utility.yul\":21327:21338   */\n      swap1\n      pop\n        /* \"#utility.yul\":21358:21361   */\n      dup2\n        /* \"#utility.yul\":21355:21356   */\n      0x00\n        /* \"#utility.yul\":21348:21362   */\n      mstore\n        /* \"#utility.yul\":21392:21396   */\n      0x20\n        /* \"#utility.yul\":21389:21390   */\n      0x00\n        /* \"#utility.yul\":21379:21397   */\n      keccak256\n        /* \"#utility.yul\":21371:21397   */\n      swap1\n      pop\n        /* \"#utility.yul\":21263:21404   */\n      swap2\n      swap1\n      pop\n      jump\t// out\n        /* \"#utility.yul\":21410:21503   */\n    tag_386:\n        /* \"#utility.yul\":21447:21453   */\n      0x00\n        /* \"#utility.yul\":21494:21496   */\n      0x20\n        /* \"#utility.yul\":21489:21491   */\n      0x1f\n        /* \"#utility.yul\":21482:21487   */\n      dup4\n        /* \"#utility.yul\":21478:21492   */\n      add\n        /* \"#utility.yul\":21474:21497   */\n      div\n        /* \"#utility.yul\":21464:21497   */\n      swap1\n      pop\n        /* \"#utility.yul\":21410:21503   */\n      swap2\n      swap1\n      pop\n      jump\t// out\n        /* \"#utility.yul\":21509:21616   */\n    tag_387:\n        /* \"#utility.yul\":21553:21561   */\n      0x00\n        /* \"#utility.yul\":21603:21608   */\n      dup3\n        /* \"#utility.yul\":21597:21601   */\n      dup3\n        /* \"#utility.yul\":21593:21609   */\n      shl\n        /* \"#utility.yul\":21572:21609   */\n      swap1\n      pop\n        /* \"#utility.yul\":21509:21616   */\n      swap3\n      swap2\n      pop\n      pop\n      jump\t// out\n        /* \"#utility.yul\":21622:22015   */\n    tag_388:\n        /* \"#utility.yul\":21691:21697   */\n      0x00\n        /* \"#utility.yul\":21741:21742   */\n      0x08\n        /* \"#utility.yul\":21729:21739   */\n      dup4\n        /* \"#utility.yul\":21725:21743   */\n      mul\n        /* \"#utility.yul\":21764:21861   */\n      tag_603\n        /* \"#utility.yul\":21794:21860   */\n      0xffffffffffffffffffffffffffffffffffffffffffffffffffffffffffffffff\n        /* \"#utility.yul\":21783:21792   */\n      dup3\n        /* \"#utility.yul\":21764:21861   */\n      tag_387\n      jump\t// in\n    tag_603:\n        /* \"#utility.yul\":21882:21921   */\n      tag_604\n        /* \"#utility.yul\":21912:21920   */\n      dup7\n        /* \"#utility.yul\":21901:21910   */\n      dup4\n        /* \"#utility.yul\":21882:21921   */\n      tag_387\n      jump\t// in\n    tag_604:\n        /* \"#utility.yul\":21870:21921   */\n      swap6\n      pop\n        /* \"#utility.yul\":21954:21958   */\n      dup1\n        /* \"#utility.yul\":21950:21959   */\n      not\n        /* \"#utility.yul\":21943:21948   */\n      dup5\n        /* \"#utility.yul\":21939:21960   */\n      and\n        /* \"#utility.yul\":21930:21960   */\n      swap4\n      pop\n        /* \"#utility.yul\":22003:22007   */\n      dup1\n        /* \"#utility.yul\":21993:22001   */\n      dup7\n        /* \"#utility.yul\":21989:22008   */\n      and\n        /* \"#utility.yul\":21982:21987   */\n      dup5\n        /* \"#utility.yul\":21979:22009   */\n      or\n        /* \"#utility.yul\":21969:22009   */\n      swap3\n      pop\n        /* \"#utility.yul\":21698:22015   */\n      pop\n      pop\n        /* \"#utility.yul\":21622:22015   */\n      swap4\n      swap3\n      pop\n      pop\n      pop\n      jump\t// out\n        /* \"#utility.yul\":22021:22081   */\n    tag_389:\n        /* \"#utility.yul\":22049:22052   */\n      0x00\n        /* \"#utility.yul\":22070:22075   */\n      dup2\n        /* \"#utility.yul\":22063:22075   */\n      swap1\n      pop\n        /* \"#utility.yul\":22021:22081   */\n      swap2\n      swap1\n      pop\n      jump\t// out\n        /* \"#utility.yul\":22087:22229   */\n    tag_390:\n        /* \"#utility.yul\":22137:22146   */\n      0x00\n        /* \"#utility.yul\":22170:22223   */\n      tag_607\n        /* \"#utility.yul\":22188:22222   */\n      tag_608\n        /* \"#utility.yul\":22197:22221   */\n      tag_609\n        /* \"#utility.yul\":22215:22220   */\n      dup5\n        /* \"#utility.yul\":22197:22221   */\n      tag_332\n      jump\t// in\n    tag_609:\n        /* \"#utility.yul\":22188:22222   */\n      tag_389\n      jump\t// in\n    tag_608:\n        /* \"#utility.yul\":22170:22223   */\n      tag_332\n      jump\t// in\n    tag_607:\n        /* \"#utility.yul\":22157:22223   */\n      swap1\n      pop\n        /* \"#utility.yul\":22087:22229   */\n      swap2\n      swap1\n      pop\n      jump\t// out\n        /* \"#utility.yul\":22235:22310   */\n    tag_391:\n        /* \"#utility.yul\":22278:22281   */\n      0x00\n        /* \"#utility.yul\":22299:22304   */\n      dup2\n        /* \"#utility.yul\":22292:22304   */\n      swap1\n      pop\n        /* \"#utility.yul\":22235:22310   */\n      swap2\n      swap1\n      pop\n      jump\t// out\n        /* \"#utility.yul\":22316:22585   */\n    tag_392:\n        /* \"#utility.yul\":22426:22465   */\n      tag_612\n        /* \"#utility.yul\":22457:22464   */\n      dup4\n        /* \"#utility.yul\":22426:22465   */\n      tag_390\n      jump\t// in\n    tag_612:\n        /* \"#utility.yul\":22487:22578   */\n      tag_613\n        /* \"#utility.yul\":22536:22577   */\n      tag_614\n        /* \"#utility.yul\":22560:22576   */\n      dup3\n        /* \"#utility.yul\":22536:22577   */\n      tag_391\n      jump\t// in\n    tag_614:\n        /* \"#utility.yul\":22528:22534   */\n      dup5\n        /* \"#utility.yul\":22521:22525   */\n      dup5\n        /* \"#utility.yul\":22515:22526   */\n      sload\n        /* \"#utility.yul\":22487:22578   */\n      tag_388\n      jump\t// in\n    tag_613:\n        /* \"#utility.yul\":22481:22485   */\n      dup3\n        /* \"#utility.yul\":22474:22579   */\n      sstore\n        /* \"#utility.yul\":22392:22585   */\n      pop\n        /* \"#utility.yul\":22316:22585   */\n      pop\n      pop\n      pop\n      jump\t// out\n        /* \"#utility.yul\":22591:22664   */\n    tag_393:\n        /* \"#utility.yul\":22636:22639   */\n      0x00\n        /* \"#utility.yul\":22657:22658   */\n      0x00\n        /* \"#utility.yul\":22650:22658   */\n      swap1\n      pop\n        /* \"#utility.yul\":22591:22664   */\n      swap1\n      jump\t// out\n        /* \"#utility.yul\":22670:22859   */\n    tag_394:\n        /* \"#utility.yul\":22747:22779   */\n      tag_617\n      tag_393\n      jump\t// in\n    tag_617:\n        /* \"#utility.yul\":22788:22853   */\n      tag_618\n        /* \"#utility.yul\":22846:22852   */\n      dup2\n        /* \"#utility.yul\":22838:22844   */\n      dup5\n        /* \"#utility.yul\":22832:22836   */\n      dup5\n        /* \"#utility.yul\":22788:22853   */\n      tag_392\n      jump\t// in\n    tag_618:\n        /* \"#utility.yul\":22723:22859   */\n      pop\n        /* \"#utility.yul\":22670:22859   */\n      pop\n      pop\n      jump\t// out\n        /* \"#utility.yul\":22865:23051   */\n    tag_395:\n        /* \"#utility.yul\":22925:23045   */\n    tag_620:\n        /* \"#utility.yul\":22942:22945   */\n      dup2\n        /* \"#utility.yul\":22935:22940   */\n      dup2\n        /* \"#utility.yul\":22932:22946   */\n      lt\n        /* \"#utility.yul\":22925:23045   */\n      iszero\n      tag_622\n      jumpi\n        /* \"#utility.yul\":22996:23035   */\n      tag_623\n        /* \"#utility.yul\":23033:23034   */\n      0x00\n        /* \"#utility.yul\":23026:23031   */\n      dup3\n        /* \"#utility.yul\":22996:23035   */\n      tag_394\n      jump\t// in\n    tag_623:\n        /* \"#utility.yul\":22969:22970   */\n      0x01\n        /* \"#utility.yul\":22962:22967   */\n      dup2\n        /* \"#utility.yul\":22958:22971   */\n      add\n        /* \"#utility.yul\":22949:22971   */\n      swap1\n      pop\n        /* \"#utility.yul\":22925:23045   */\n      jump(tag_620)\n    tag_622:\n        /* \"#utility.yul\":22865:23051   */\n      pop\n      pop\n      jump\t// out\n        /* \"#utility.yul\":23057:23600   */\n    tag_396:\n        /* \"#utility.yul\":23158:23160   */\n      0x1f\n        /* \"#utility.yul\":23153:23156   */\n      dup3\n        /* \"#utility.yul\":23150:23161   */\n      gt\n        /* \"#utility.yul\":23147:23593   */\n      iszero\n      tag_625\n      jumpi\n        /* \"#utility.yul\":23192:23230   */\n      tag_626\n        /* \"#utility.yul\":23224:23229   */\n      dup2\n        /* \"#utility.yul\":23192:23230   */\n      tag_385\n      jump\t// in\n    tag_626:\n        /* \"#utility.yul\":23276:23305   */\n      tag_627\n        /* \"#utility.yul\":23294:23304   */\n      dup5\n        /* \"#utility.yul\":23276:23305   */\n      tag_386\n      jump\t// in\n    tag_627:\n        /* \"#utility.yul\":23266:23274   */\n      dup2\n        /* \"#utility.yul\":23262:23306   */\n      add\n        /* \"#utility.yul\":23459:23461   */\n      0x20\n        /* \"#utility.yul\":23447:23457   */\n      dup6\n        /* \"#utility.yul\":23444:23462   */\n      lt\n        /* \"#utility.yul\":23441:23490   */\n      iszero\n      tag_628\n      jumpi\n        /* \"#utility.yul\":23480:23488   */\n      dup2\n        /* \"#utility.yul\":23465:23488   */\n      swap1\n      pop\n        /* \"#utility.yul\":23441:23490   */\n    tag_628:\n        /* \"#utility.yul\":23503:23583   */\n      tag_629\n        /* \"#utility.yul\":23559:23581   */\n      tag_630\n        /* \"#utility.yul\":23577:23580   */\n      dup6\n        /* \"#utility.yul\":23559:23581   */\n      tag_386\n      jump\t// in\n    tag_630:\n        /* \"#utility.yul\":23549:23557   */\n      dup4\n        /* \"#utility.yul\":23545:23582   */\n      add\n        /* \"#utility.yul\":23532:23543   */\n      dup3\n        /* \"#utility.yul\":23503:23583   */\n      tag_395\n      jump\t// in\n    tag_629:\n        /* \"#utility.yul\":23162:23593   */\n      pop\n      pop\n        /* \"#utility.yul\":23147:23593   */\n    tag_625:\n        /* \"#utility.yul\":23057:23600   */\n      pop\n      pop\n      pop\n      jump\t// out\n        /* \"#utility.yul\":23606:23723   */\n    tag_397:\n        /* \"#utility.yul\":23660:23668   */\n      0x00\n        /* \"#utility.yul\":23710:23715   */\n      dup3\n        /* \"#utility.yul\":23704:23708   */\n      dup3\n        /* \"#utility.yul\":23700:23716   */\n      shr\n        /* \"#utility.yul\":23679:23716   */\n      swap1\n      pop\n        /* \"#utility.yul\":23606:23723   */\n      swap3\n      swap2\n      pop\n      pop\n      jump\t// out\n        /* \"#utility.yul\":23729:23898   */\n    tag_398:\n        /* \"#utility.yul\":23773:23779   */\n      0x00\n        /* \"#utility.yul\":23806:23857   */\n      tag_633\n        /* \"#utility.yul\":23854:23855   */\n      0x00\n        /* \"#utility.yul\":23850:23856   */\n      not\n        /* \"#utility.yul\":23842:23847   */\n      dup5\n        /* \"#utility.yul\":23839:23840   */\n      0x08\n        /* \"#utility.yul\":23835:23848   */\n      mul\n        /* \"#utility.yul\":23806:23857   */\n      tag_397\n      jump\t// in\n    tag_633:\n        /* \"#utility.yul\":23802:23858   */\n      not\n        /* \"#utility.yul\":23887:23891   */\n      dup1\n        /* \"#utility.yul\":23881:23885   */\n      dup4\n        /* \"#utility.yul\":23877:23892   */\n      and\n        /* \"#utility.yul\":23867:23892   */\n      swap2\n      pop\n        /* \"#utility.yul\":23780:23898   */\n      pop\n        /* \"#utility.yul\":23729:23898   */\n      swap3\n      swap2\n      pop\n      pop\n      jump\t// out\n        /* \"#utility.yul\":23903:24198   */\n    tag_399:\n        /* \"#utility.yul\":23979:23983   */\n      0x00\n        /* \"#utility.yul\":24125:24154   */\n      tag_635\n        /* \"#utility.yul\":24150:24153   */\n      dup4\n        /* \"#utility.yul\":24144:24148   */\n      dup4\n        /* \"#utility.yul\":24125:24154   */\n      tag_398\n      jump\t// in\n    tag_635:\n        /* \"#utility.yul\":24117:24154   */\n      swap2\n      pop\n        /* \"#utility.yul\":24187:24190   */\n      dup3\n        /* \"#utility.yul\":24184:24185   */\n      0x02\n        /* \"#utility.yul\":24180:24191   */\n      mul\n        /* \"#utility.yul\":24174:24178   */\n      dup3\n        /* \"#utility.yul\":24171:24192   */\n      or\n        /* \"#utility.yul\":24163:24192   */\n      swap1\n      pop\n        /* \"#utility.yul\":23903:24198   */\n      swap3\n      swap2\n      pop\n      pop\n      jump\t// out\n        /* \"#utility.yul\":24203:25598   */\n    tag_144:\n        /* \"#utility.yul\":24320:24357   */\n      tag_637\n        /* \"#utility.yul\":24353:24356   */\n      dup3\n        /* \"#utility.yul\":24320:24357   */\n      tag_345\n      jump\t// in\n    tag_637:\n        /* \"#utility.yul\":24422:24440   */\n      0xffffffffffffffff\n        /* \"#utility.yul\":24414:24420   */\n      dup2\n        /* \"#utility.yul\":24411:24441   */\n      gt\n        /* \"#utility.yul\":24408:24464   */\n      iszero\n      tag_638\n      jumpi\n        /* \"#utility.yul\":24444:24462   */\n      tag_639\n      tag_361\n      jump\t// in\n    tag_639:\n        /* \"#utility.yul\":24408:24464   */\n    tag_638:\n        /* \"#utility.yul\":24488:24526   */\n      tag_640\n        /* \"#utility.yul\":24520:24524   */\n      dup3\n        /* \"#utility.yul\":24514:24525   */\n      sload\n        /* \"#utility.yul\":24488:24526   */\n      tag_108\n      jump\t// in\n    tag_640:\n        /* \"#utility.yul\":24573:24640   */\n      tag_641\n        /* \"#utility.yul\":24633:24639   */\n      dup3\n        /* \"#utility.yul\":24625:24631   */\n      dup3\n        /* \"#utility.yul\":24619:24623   */\n      dup6\n        /* \"#utility.yul\":24573:24640   */\n      tag_396\n      jump\t// in\n    tag_641:\n        /* \"#utility.yul\":24667:24668   */\n      0x00\n        /* \"#utility.yul\":24691:24695   */\n      0x20\n        /* \"#utility.yul\":24678:24695   */\n      swap1\n      pop\n        /* \"#utility.yul\":24723:24725   */\n      0x1f\n        /* \"#utility.yul\":24715:24721   */\n      dup4\n        /* \"#utility.yul\":24712:24726   */\n      gt\n        /* \"#utility.yul\":24740:24741   */\n      0x01\n        /* \"#utility.yul\":24735:25353   */\n      dup2\n      eq\n      tag_643\n      jumpi\n        /* \"#utility.yul\":25397:25398   */\n      0x00\n        /* \"#utility.yul\":25414:25420   */\n      dup5\n        /* \"#utility.yul\":25411:25488   */\n      iszero\n      tag_644\n      jumpi\n        /* \"#utility.yul\":25463:25472   */\n      dup3\n        /* \"#utility.yul\":25458:25461   */\n      dup8\n        /* \"#utility.yul\":25454:25473   */\n      add\n        /* \"#utility.yul\":25448:25474   */\n      mload\n        /* \"#utility.yul\":25439:25474   */\n      swap1\n      pop\n        /* \"#utility.yul\":25411:25488   */\n    tag_644:\n        /* \"#utility.yul\":25514:25581   */\n      tag_645\n        /* \"#utility.yul\":25574:25580   */\n      dup6\n        /* \"#utility.yul\":25567:25572   */\n      dup3\n        /* \"#utility.yul\":25514:25581   */\n      tag_399\n      jump\t// in\n    tag_645:\n        /* \"#utility.yul\":25508:25512   */\n      dup7\n        /* \"#utility.yul\":25501:25582   */\n      sstore\n        /* \"#utility.yul\":25370:25592   */\n      pop\n        /* \"#utility.yul\":24705:25592   */\n      jump(tag_642)\n        /* \"#utility.yul\":24735:25353   */\n    tag_643:\n        /* \"#utility.yul\":24787:24791   */\n      0x1f\n        /* \"#utility.yul\":24783:24792   */\n      not\n        /* \"#utility.yul\":24775:24781   */\n      dup5\n        /* \"#utility.yul\":24771:24793   */\n      and\n        /* \"#utility.yul\":24821:24858   */\n      tag_646\n        /* \"#utility.yul\":24853:24857   */\n      dup7\n        /* \"#utility.yul\":24821:24858   */\n      tag_385\n      jump\t// in\n    tag_646:\n        /* \"#utility.yul\":24880:24881   */\n      0x00\n        /* \"#utility.yul\":24894:25102   */\n    tag_647:\n        /* \"#utility.yul\":24908:24915   */\n      dup3\n        /* \"#utility.yul\":24905:24906   */\n      dup2\n        /* \"#utility.yul\":24902:24916   */\n      lt\n        /* \"#utility.yul\":24894:25102   */\n      iszero\n      tag_649\n      jumpi\n        /* \"#utility.yul\":24987:24996   */\n      dup5\n        /* \"#utility.yul\":24982:24985   */\n      dup10\n        /* \"#utility.yul\":24978:24997   */\n      add\n        /* \"#utility.yul\":24972:24998   */\n      mload\n        /* \"#utility.yul\":24964:24970   */\n      dup3\n        /* \"#utility.yul\":24957:24999   */\n      sstore\n        /* \"#utility.yul\":25038:25039   */\n      0x01\n        /* \"#utility.yul\":25030:25036   */\n      dup3\n        /* \"#utility.yul\":25026:25040   */\n      add\n        /* \"#utility.yul\":25016:25040   */\n      swap2\n      pop\n        /* \"#utility.yul\":25085:25087   */\n      0x20\n        /* \"#utility.yul\":25074:25083   */\n      dup6\n        /* \"#utility.yul\":25070:25088   */\n      add\n        /* \"#utility.yul\":25057:25088   */\n      swap5\n      pop\n        /* \"#utility.yul\":24931:24935   */\n      0x20\n        /* \"#utility.yul\":24928:24929   */\n      dup2\n        /* \"#utility.yul\":24924:24936   */\n      add\n        /* \"#utility.yul\":24919:24936   */\n      swap1\n      pop\n        /* \"#utility.yul\":24894:25102   */\n      jump(tag_647)\n    tag_649:\n        /* \"#utility.yul\":25130:25136   */\n      dup7\n        /* \"#utility.yul\":25121:25128   */\n      dup4\n        /* \"#utility.yul\":25118:25137   */\n      lt\n        /* \"#utility.yul\":25115:25294   */\n      iszero\n      tag_650\n      jumpi\n        /* \"#utility.yul\":25188:25197   */\n      dup5\n        /* \"#utility.yul\":25183:25186   */\n      dup10\n        /* \"#utility.yul\":25179:25198   */\n      add\n        /* \"#utility.yul\":25173:25199   */\n      mload\n        /* \"#utility.yul\":25231:25279   */\n      tag_651\n        /* \"#utility.yul\":25273:25277   */\n      0x1f\n        /* \"#utility.yul\":25265:25271   */\n      dup10\n        /* \"#utility.yul\":25261:25278   */\n      and\n        /* \"#utility.yul\":25250:25259   */\n      dup3\n        /* \"#utility.yul\":25231:25279   */\n      tag_398\n      jump\t// in\n    tag_651:\n        /* \"#utility.yul\":25223:25229   */\n      dup4\n        /* \"#utility.yul\":25216:25280   */\n      sstore\n        /* \"#utility.yul\":25138:25294   */\n      pop\n        /* \"#utility.yul\":25115:25294   */\n    tag_650:\n        /* \"#utility.yul\":25340:25341   */\n      0x01\n        /* \"#utility.yul\":25336:25337   */\n      0x02\n        /* \"#utility.yul\":25328:25334   */\n      dup9\n        /* \"#utility.yul\":25324:25338   */\n      mul\n        /* \"#utility.yul\":25320:25342   */\n      add\n        /* \"#utility.yul\":25314:25318   */\n      dup9\n        /* \"#utility.yul\":25307:25343   */\n      sstore\n        /* \"#utility.yul\":24742:25353   */\n      pop\n      pop\n      pop\n        /* \"#utility.yul\":24705:25592   */\n    tag_642:\n      pop\n        /* \"#utility.yul\":24295:25598   */\n      pop\n      pop\n      pop\n        /* \"#utility.yul\":24203:25598   */\n      pop\n      pop\n      jump\t// out\n        /* \"#utility.yul\":25604:25936   */\n    tag_148:\n        /* \"#utility.yul\":25725:25729   */\n      0x00\n        /* \"#utility.yul\":25763:25765   */\n      0x40\n        /* \"#utility.yul\":25752:25761   */\n      dup3\n        /* \"#utility.yul\":25748:25766   */\n      add\n        /* \"#utility.yul\":25740:25766   */\n      swap1\n      pop\n        /* \"#utility.yul\":25776:25847   */\n      tag_653\n        /* \"#utility.yul\":25844:25845   */\n      0x00\n        /* \"#utility.yul\":25833:25842   */\n      dup4\n        /* \"#utility.yul\":25829:25846   */\n      add\n        /* \"#utility.yul\":25820:25826   */\n      dup6\n        /* \"#utility.yul\":25776:25847   */\n      tag_339\n      jump\t// in\n    tag_653:\n        /* \"#utility.yul\":25857:25929   */\n      tag_654\n        /* \"#utility.yul\":25925:25927   */\n      0x20\n        /* \"#utility.yul\":25914:25923   */\n      dup4\n        /* \"#utility.yul\":25910:25928   */\n      add\n        /* \"#utility.yul\":25901:25907   */\n      dup5\n        /* \"#utility.yul\":25857:25929   */\n      tag_339\n      jump\t// in\n    tag_654:\n        /* \"#utility.yul\":25604:25936   */\n      swap4\n      swap3\n      pop\n      pop\n      pop\n      jump\t// out\n        /* \"#utility.yul\":25942:26113   */\n    tag_400:\n        /* \"#utility.yul\":26082:26105   */\n      0x566f746573206e6f742074616c6c696564207965740000000000000000000000\n        /* \"#utility.yul\":26078:26079   */\n      0x00\n        /* \"#utility.yul\":26070:26076   */\n      dup3\n        /* \"#utility.yul\":26066:26080   */\n      add\n        /* \"#utility.yul\":26059:26106   */\n      mstore\n        /* \"#utility.yul\":25942:26113   */\n      pop\n      jump\t// out\n        /* \"#utility.yul\":26119:26485   */\n    tag_401:\n        /* \"#utility.yul\":26261:26264   */\n      0x00\n        /* \"#utility.yul\":26282:26349   */\n      tag_657\n        /* \"#utility.yul\":26346:26348   */\n      0x15\n        /* \"#utility.yul\":26341:26344   */\n      dup4\n        /* \"#utility.yul\":26282:26349   */\n      tag_374\n      jump\t// in\n    tag_657:\n        /* \"#utility.yul\":26275:26349   */\n      swap2\n      pop\n        /* \"#utility.yul\":26358:26451   */\n      tag_658\n        /* \"#utility.yul\":26447:26450   */\n      dup3\n        /* \"#utility.yul\":26358:26451   */\n      tag_400\n      jump\t// in\n    tag_658:\n        /* \"#utility.yul\":26476:26478   */\n      0x20\n        /* \"#utility.yul\":26471:26474   */\n      dup3\n        /* \"#utility.yul\":26467:26479   */\n      add\n        /* \"#utility.yul\":26460:26479   */\n      swap1\n      pop\n        /* \"#utility.yul\":26119:26485   */\n      swap2\n      swap1\n      pop\n      jump\t// out\n        /* \"#utility.yul\":26491:26910   */\n    tag_158:\n        /* \"#utility.yul\":26657:26661   */\n      0x00\n        /* \"#utility.yul\":26695:26697   */\n      0x20\n        /* \"#utility.yul\":26684:26693   */\n      dup3\n        /* \"#utility.yul\":26680:26698   */\n      add\n        /* \"#utility.yul\":26672:26698   */\n      swap1\n      pop\n        /* \"#utility.yul\":26744:26753   */\n      dup2\n        /* \"#utility.yul\":26738:26742   */\n      dup2\n        /* \"#utility.yul\":26734:26754   */\n      sub\n        /* \"#utility.yul\":26730:26731   */\n      0x00\n        /* \"#utility.yul\":26719:26728   */\n      dup4\n        /* \"#utility.yul\":26715:26732   */\n      add\n        /* \"#utility.yul\":26708:26755   */\n      mstore\n        /* \"#utility.yul\":26772:26903   */\n      tag_660\n        /* \"#utility.yul\":26898:26902   */\n      dup2\n        /* \"#utility.yul\":26772:26903   */\n      tag_401\n      jump\t// in\n    tag_660:\n        /* \"#utility.yul\":26764:26903   */\n      swap1\n      pop\n        /* \"#utility.yul\":26491:26910   */\n      swap2\n      swap1\n      pop\n      jump\t// out\n        /* \"#utility.yul\":26916:27096   */\n    tag_161:\n        /* \"#utility.yul\":26964:27041   */\n      0x4e487b7100000000000000000000000000000000000000000000000000000000\n        /* \"#utility.yul\":26961:26962   */\n      0x00\n        /* \"#utility.yul\":26954:27042   */\n      mstore\n        /* \"#utility.yul\":27061:27065   */\n      0x32\n        /* \"#utility.yul\":27058:27059   */\n      0x04\n        /* \"#utility.yul\":27051:27066   */\n      mstore\n        /* \"#utility.yul\":27085:27089   */\n      0x24\n        /* \"#utility.yul\":27082:27083   */\n      0x00\n        /* \"#utility.yul\":27075:27090   */\n      revert\n        /* \"#utility.yul\":27102:27340   */\n    tag_402:\n        /* \"#utility.yul\":27242:27276   */\n      0x50726f706f73616c7320726567697374726174696f6e206e6f74207374617274\n        /* \"#utility.yul\":27238:27239   */\n      0x00\n        /* \"#utility.yul\":27230:27236   */\n      dup3\n        /* \"#utility.yul\":27226:27240   */\n      add\n        /* \"#utility.yul\":27219:27277   */\n      mstore\n        /* \"#utility.yul\":27311:27332   */\n      0x6564206f7220616c726561647920656e64656400000000000000000000000000\n        /* \"#utility.yul\":27306:27308   */\n      0x20\n        /* \"#utility.yul\":27298:27304   */\n      dup3\n        /* \"#utility.yul\":27294:27309   */\n      add\n        /* \"#utility.yul\":27287:27333   */\n      mstore\n        /* \"#utility.yul\":27102:27340   */\n      pop\n      jump\t// out\n        /* \"#utility.yul\":27346:27712   */\n    tag_403:\n        /* \"#utility.yul\":27488:27491   */\n      0x00\n        /* \"#utility.yul\":27509:27576   */\n      tag_664\n        /* \"#utility.yul\":27573:27575   */\n      0x33\n        /* \"#utility.yul\":27568:27571   */\n      dup4\n        /* \"#utility.yul\":27509:27576   */\n      tag_374\n      jump\t// in\n    tag_664:\n        /* \"#utility.yul\":27502:27576   */\n      swap2\n      pop\n        /* \"#utility.yul\":27585:27678   */\n      tag_665\n        /* \"#utility.yul\":27674:27677   */\n      dup3\n        /* \"#utility.yul\":27585:27678   */\n      tag_402\n      jump\t// in\n    tag_665:\n        /* \"#utility.yul\":27703:27705   */\n      0x40\n        /* \"#utility.yul\":27698:27701   */\n      dup3\n        /* \"#utility.yul\":27694:27706   */\n      add\n        /* \"#utility.yul\":27687:27706   */\n      swap1\n      pop\n        /* \"#utility.yul\":27346:27712   */\n      swap2\n      swap1\n      pop\n      jump\t// out\n        /* \"#utility.yul\":27718:28137   */\n    tag_186:\n        /* \"#utility.yul\":27884:27888   */\n      0x00\n        /* \"#utility.yul\":27922:27924   */\n      0x20\n        /* \"#utility.yul\":27911:27920   */\n      dup3\n        /* \"#utility.yul\":27907:27925   */\n      add\n        /* \"#utility.yul\":27899:27925   */\n      swap1\n      pop\n        /* \"#utility.yul\":27971:27980   */\n      dup2\n        /* \"#utility.yul\":27965:27969   */\n      dup2\n        /* \"#utility.yul\":27961:27981   */\n      sub\n        /* \"#utility.yul\":27957:27958   */\n      0x00\n        /* \"#utility.yul\":27946:27955   */\n      dup4\n        /* \"#utility.yul\":27942:27959   */\n      add\n        /* \"#utility.yul\":27935:27982   */\n      mstore\n        /* \"#utility.yul\":27999:28130   */\n      tag_667\n        /* \"#utility.yul\":28125:28129   */\n      dup2\n        /* \"#utility.yul\":27999:28130   */\n      tag_403\n      jump\t// in\n    tag_667:\n        /* \"#utility.yul\":27991:28130   */\n      swap1\n      pop\n        /* \"#utility.yul\":27718:28137   */\n      swap2\n      swap1\n      pop\n      jump\t// out\n        /* \"#utility.yul\":28143:28535   */\n    tag_190:\n        /* \"#utility.yul\":28294:28298   */\n      0x00\n        /* \"#utility.yul\":28332:28334   */\n      0x40\n        /* \"#utility.yul\":28321:28330   */\n      dup3\n        /* \"#utility.yul\":28317:28335   */\n      add\n        /* \"#utility.yul\":28309:28335   */\n      swap1\n      pop\n        /* \"#utility.yul\":28345:28431   */\n      tag_669\n        /* \"#utility.yul\":28428:28429   */\n      0x00\n        /* \"#utility.yul\":28417:28426   */\n      dup4\n        /* \"#utility.yul\":28413:28430   */\n      add\n        /* \"#utility.yul\":28404:28410   */\n      dup6\n        /* \"#utility.yul\":28345:28431   */\n      tag_338\n      jump\t// in\n    tag_669:\n        /* \"#utility.yul\":28441:28528   */\n      tag_670\n        /* \"#utility.yul\":28524:28526   */\n      0x20\n        /* \"#utility.yul\":28513:28522   */\n      dup4\n        /* \"#utility.yul\":28509:28527   */\n      add\n        /* \"#utility.yul\":28500:28506   */\n      dup5\n        /* \"#utility.yul\":28441:28528   */\n      tag_338\n      jump\t// in\n    tag_670:\n        /* \"#utility.yul\":28143:28535   */\n      swap4\n      swap3\n      pop\n      pop\n      pop\n      jump\t// out\n        /* \"#utility.yul\":28541:28771   */\n    tag_404:\n        /* \"#utility.yul\":28681:28715   */\n      0x526567697374726174696f6e20706861736520656e6465642c2063616e6e6f74\n        /* \"#utility.yul\":28677:28678   */\n      0x00\n        /* \"#utility.yul\":28669:28675   */\n      dup3\n        /* \"#utility.yul\":28665:28679   */\n      add\n        /* \"#utility.yul\":28658:28716   */\n      mstore\n        /* \"#utility.yul\":28750:28763   */\n      0x20756e7265676973746572000000000000000000000000000000000000000000\n        /* \"#utility.yul\":28745:28747   */\n      0x20\n        /* \"#utility.yul\":28737:28743   */\n      dup3\n        /* \"#utility.yul\":28733:28748   */\n      add\n        /* \"#utility.yul\":28726:28764   */\n      mstore\n        /* \"#utility.yul\":28541:28771   */\n      pop\n      jump\t// out\n        /* \"#utility.yul\":28777:29143   */\n    tag_405:\n        /* \"#utility.yul\":28919:28922   */\n      0x00\n        /* \"#utility.yul\":28940:29007   */\n      tag_673\n        /* \"#utility.yul\":29004:29006   */\n      0x2b\n        /* \"#utility.yul\":28999:29002   */\n      dup4\n        /* \"#utility.yul\":28940:29007   */\n      tag_374\n      jump\t// in\n    tag_673:\n        /* \"#utility.yul\":28933:29007   */\n      swap2\n      pop\n        /* \"#utility.yul\":29016:29109   */\n      tag_674\n        /* \"#utility.yul\":29105:29108   */\n      dup3\n        /* \"#utility.yul\":29016:29109   */\n      tag_404\n      jump\t// in\n    tag_674:\n        /* \"#utility.yul\":29134:29136   */\n      0x40\n        /* \"#utility.yul\":29129:29132   */\n      dup3\n        /* \"#utility.yul\":29125:29137   */\n      add\n        /* \"#utility.yul\":29118:29137   */\n      swap1\n      pop\n        /* \"#utility.yul\":28777:29143   */\n      swap2\n      swap1\n      pop\n      jump\t// out\n        /* \"#utility.yul\":29149:29568   */\n    tag_205:\n        /* \"#utility.yul\":29315:29319   */\n      0x00\n        /* \"#utility.yul\":29353:29355   */\n      0x20\n        /* \"#utility.yul\":29342:29351   */\n      dup3\n        /* \"#utility.yul\":29338:29356   */\n      add\n        /* \"#utility.yul\":29330:29356   */\n      swap1\n      pop\n        /* \"#utility.yul\":29402:29411   */\n      dup2\n        /* \"#utility.yul\":29396:29400   */\n      dup2\n        /* \"#utility.yul\":29392:29412   */\n      sub\n        /* \"#utility.yul\":29388:29389   */\n      0x00\n        /* \"#utility.yul\":29377:29386   */\n      dup4\n        /* \"#utility.yul\":29373:29390   */\n      add\n        /* \"#utility.yul\":29366:29413   */\n      mstore\n        /* \"#utility.yul\":29430:29561   */\n      tag_676\n        /* \"#utility.yul\":29556:29560   */\n      dup2\n        /* \"#utility.yul\":29430:29561   */\n      tag_405\n      jump\t// in\n    tag_676:\n        /* \"#utility.yul\":29422:29561   */\n      swap1\n      pop\n        /* \"#utility.yul\":29149:29568   */\n      swap2\n      swap1\n      pop\n      jump\t// out\n        /* \"#utility.yul\":29574:29750   */\n    tag_406:\n        /* \"#utility.yul\":29714:29742   */\n      0x566f74657220616c726561647920756e72656769737465726564000000000000\n        /* \"#utility.yul\":29710:29711   */\n      0x00\n        /* \"#utility.yul\":29702:29708   */\n      dup3\n        /* \"#utility.yul\":29698:29712   */\n      add\n        /* \"#utility.yul\":29691:29743   */\n      mstore\n        /* \"#utility.yul\":29574:29750   */\n      pop\n      jump\t// out\n        /* \"#utility.yul\":29756:30122   */\n    tag_407:\n        /* \"#utility.yul\":29898:29901   */\n      0x00\n        /* \"#utility.yul\":29919:29986   */\n      tag_679\n        /* \"#utility.yul\":29983:29985   */\n      0x1a\n        /* \"#utility.yul\":29978:29981   */\n      dup4\n        /* \"#utility.yul\":29919:29986   */\n      tag_374\n      jump\t// in\n    tag_679:\n        /* \"#utility.yul\":29912:29986   */\n      swap2\n      pop\n        /* \"#utility.yul\":29995:30088   */\n      tag_680\n        /* \"#utility.yul\":30084:30087   */\n      dup3\n        /* \"#utility.yul\":29995:30088   */\n      tag_406\n      jump\t// in\n    tag_680:\n        /* \"#utility.yul\":30113:30115   */\n      0x20\n        /* \"#utility.yul\":30108:30111   */\n      dup3\n        /* \"#utility.yul\":30104:30116   */\n      add\n        /* \"#utility.yul\":30097:30116   */\n      swap1\n      pop\n        /* \"#utility.yul\":29756:30122   */\n      swap2\n      swap1\n      pop\n      jump\t// out\n        /* \"#utility.yul\":30128:30547   */\n    tag_208:\n        /* \"#utility.yul\":30294:30298   */\n      0x00\n        /* \"#utility.yul\":30332:30334   */\n      0x20\n        /* \"#utility.yul\":30321:30330   */\n      dup3\n        /* \"#utility.yul\":30317:30335   */\n      add\n        /* \"#utility.yul\":30309:30335   */\n      swap1\n      pop\n        /* \"#utility.yul\":30381:30390   */\n      dup2\n        /* \"#utility.yul\":30375:30379   */\n      dup2\n        /* \"#utility.yul\":30371:30391   */\n      sub\n        /* \"#utility.yul\":30367:30368   */\n      0x00\n        /* \"#utility.yul\":30356:30365   */\n      dup4\n        /* \"#utility.yul\":30352:30369   */\n      add\n        /* \"#utility.yul\":30345:30392   */\n      mstore\n        /* \"#utility.yul\":30409:30540   */\n      tag_682\n        /* \"#utility.yul\":30535:30539   */\n      dup2\n        /* \"#utility.yul\":30409:30540   */\n      tag_407\n      jump\t// in\n    tag_682:\n        /* \"#utility.yul\":30401:30540   */\n      swap1\n      pop\n        /* \"#utility.yul\":30128:30547   */\n      swap2\n      swap1\n      pop\n      jump\t// out\n        /* \"#utility.yul\":30553:30731   */\n    tag_408:\n        /* \"#utility.yul\":30693:30723   */\n      0x566f74696e672073657373696f6e206e6f7420656e6465642079657400000000\n        /* \"#utility.yul\":30689:30690   */\n      0x00\n        /* \"#utility.yul\":30681:30687   */\n      dup3\n        /* \"#utility.yul\":30677:30691   */\n      add\n        /* \"#utility.yul\":30670:30724   */\n      mstore\n        /* \"#utility.yul\":30553:30731   */\n      pop\n      jump\t// out\n        /* \"#utility.yul\":30737:31103   */\n    tag_409:\n        /* \"#utility.yul\":30879:30882   */\n      0x00\n        /* \"#utility.yul\":30900:30967   */\n      tag_685\n        /* \"#utility.yul\":30964:30966   */\n      0x1c\n        /* \"#utility.yul\":30959:30962   */\n      dup4\n        /* \"#utility.yul\":30900:30967   */\n      tag_374\n      jump\t// in\n    tag_685:\n        /* \"#utility.yul\":30893:30967   */\n      swap2\n      pop\n        /* \"#utility.yul\":30976:31069   */\n      tag_686\n        /* \"#utility.yul\":31065:31068   */\n      dup3\n        /* \"#utility.yul\":30976:31069   */\n      tag_408\n      jump\t// in\n    tag_686:\n        /* \"#utility.yul\":31094:31096   */\n      0x20\n        /* \"#utility.yul\":31089:31092   */\n      dup3\n        /* \"#utility.yul\":31085:31097   */\n      add\n        /* \"#utility.yul\":31078:31097   */\n      swap1\n      pop\n        /* \"#utility.yul\":30737:31103   */\n      swap2\n      swap1\n      pop\n      jump\t// out\n        /* \"#utility.yul\":31109:31528   */\n    tag_219:\n        /* \"#utility.yul\":31275:31279   */\n      0x00\n        /* \"#utility.yul\":31313:31315   */\n      0x20\n        /* \"#utility.yul\":31302:31311   */\n      dup3\n        /* \"#utility.yul\":31298:31316   */\n      add\n        /* \"#utility.yul\":31290:31316   */\n      swap1\n      pop\n        /* \"#utility.yul\":31362:31371   */\n      dup2\n        /* \"#utility.yul\":31356:31360   */\n      dup2\n        /* \"#utility.yul\":31352:31372   */\n      sub\n        /* \"#utility.yul\":31348:31349   */\n      0x00\n        /* \"#utility.yul\":31337:31346   */\n      dup4\n        /* \"#utility.yul\":31333:31350   */\n      add\n        /* \"#utility.yul\":31326:31373   */\n      mstore\n        /* \"#utility.yul\":31390:31521   */\n      tag_688\n        /* \"#utility.yul\":31516:31520   */\n      dup2\n        /* \"#utility.yul\":31390:31521   */\n      tag_409\n      jump\t// in\n    tag_688:\n        /* \"#utility.yul\":31382:31521   */\n      swap1\n      pop\n        /* \"#utility.yul\":31109:31528   */\n      swap2\n      swap1\n      pop\n      jump\t// out\n        /* \"#utility.yul\":31534:31713   */\n    tag_410:\n        /* \"#utility.yul\":31674:31705   */\n      0x4e6f2070726f706f73616c7320666f7220746869732073657373696f6e000000\n        /* \"#utility.yul\":31670:31671   */\n      0x00\n        /* \"#utility.yul\":31662:31668   */\n      dup3\n        /* \"#utility.yul\":31658:31672   */\n      add\n        /* \"#utility.yul\":31651:31706   */\n      mstore\n        /* \"#utility.yul\":31534:31713   */\n      pop\n      jump\t// out\n        /* \"#utility.yul\":31719:32085   */\n    tag_411:\n        /* \"#utility.yul\":31861:31864   */\n      0x00\n        /* \"#utility.yul\":31882:31949   */\n      tag_691\n        /* \"#utility.yul\":31946:31948   */\n      0x1d\n        /* \"#utility.yul\":31941:31944   */\n      dup4\n        /* \"#utility.yul\":31882:31949   */\n      tag_374\n      jump\t// in\n    tag_691:\n        /* \"#utility.yul\":31875:31949   */\n      swap2\n      pop\n        /* \"#utility.yul\":31958:32051   */\n      tag_692\n        /* \"#utility.yul\":32047:32050   */\n      dup3\n        /* \"#utility.yul\":31958:32051   */\n      tag_410\n      jump\t// in\n    tag_692:\n        /* \"#utility.yul\":32076:32078   */\n      0x20\n        /* \"#utility.yul\":32071:32074   */\n      dup3\n        /* \"#utility.yul\":32067:32079   */\n      add\n        /* \"#utility.yul\":32060:32079   */\n      swap1\n      pop\n        /* \"#utility.yul\":31719:32085   */\n      swap2\n      swap1\n      pop\n      jump\t// out\n        /* \"#utility.yul\":32091:32510   */\n    tag_222:\n        /* \"#utility.yul\":32257:32261   */\n      0x00\n        /* \"#utility.yul\":32295:32297   */\n      0x20\n        /* \"#utility.yul\":32284:32293   */\n      dup3\n        /* \"#utility.yul\":32280:32298   */\n      add\n        /* \"#utility.yul\":32272:32298   */\n      swap1\n      pop\n        /* \"#utility.yul\":32344:32353   */\n      dup2\n        /* \"#utility.yul\":32338:32342   */\n      dup2\n        /* \"#utility.yul\":32334:32354   */\n      sub\n        /* \"#utility.yul\":32330:32331   */\n      0x00\n        /* \"#utility.yul\":32319:32328   */\n      dup4\n        /* \"#utility.yul\":32315:32332   */\n      add\n        /* \"#utility.yul\":32308:32355   */\n      mstore\n        /* \"#utility.yul\":32372:32503   */\n      tag_694\n        /* \"#utility.yul\":32498:32502   */\n      dup2\n        /* \"#utility.yul\":32372:32503   */\n      tag_411\n      jump\t// in\n    tag_694:\n        /* \"#utility.yul\":32364:32503   */\n      swap1\n      pop\n        /* \"#utility.yul\":32091:32510   */\n      swap2\n      swap1\n      pop\n      jump\t// out\n        /* \"#utility.yul\":32516:32692   */\n    tag_412:\n        /* \"#utility.yul\":32656:32684   */\n      0x566f74696e672073657373696f6e206e6f742073746172746564000000000000\n        /* \"#utility.yul\":32652:32653   */\n      0x00\n        /* \"#utility.yul\":32644:32650   */\n      dup3\n        /* \"#utility.yul\":32640:32654   */\n      add\n        /* \"#utility.yul\":32633:32685   */\n      mstore\n        /* \"#utility.yul\":32516:32692   */\n      pop\n      jump\t// out\n        /* \"#utility.yul\":32698:33064   */\n    tag_413:\n        /* \"#utility.yul\":32840:32843   */\n      0x00\n        /* \"#utility.yul\":32861:32928   */\n      tag_697\n        /* \"#utility.yul\":32925:32927   */\n      0x1a\n        /* \"#utility.yul\":32920:32923   */\n      dup4\n        /* \"#utility.yul\":32861:32928   */\n      tag_374\n      jump\t// in\n    tag_697:\n        /* \"#utility.yul\":32854:32928   */\n      swap2\n      pop\n        /* \"#utility.yul\":32937:33030   */\n      tag_698\n        /* \"#utility.yul\":33026:33029   */\n      dup3\n        /* \"#utility.yul\":32937:33030   */\n      tag_412\n      jump\t// in\n    tag_698:\n        /* \"#utility.yul\":33055:33057   */\n      0x20\n        /* \"#utility.yul\":33050:33053   */\n      dup3\n        /* \"#utility.yul\":33046:33058   */\n      add\n        /* \"#utility.yul\":33039:33058   */\n      swap1\n      pop\n        /* \"#utility.yul\":32698:33064   */\n      swap2\n      swap1\n      pop\n      jump\t// out\n        /* \"#utility.yul\":33070:33489   */\n    tag_249:\n        /* \"#utility.yul\":33236:33240   */\n      0x00\n        /* \"#utility.yul\":33274:33276   */\n      0x20\n        /* \"#utility.yul\":33263:33272   */\n      dup3\n        /* \"#utility.yul\":33259:33277   */\n      add\n        /* \"#utility.yul\":33251:33277   */\n      swap1\n      pop\n        /* \"#utility.yul\":33323:33332   */\n      dup2\n        /* \"#utility.yul\":33317:33321   */\n      dup2\n        /* \"#utility.yul\":33313:33333   */\n      sub\n        /* \"#utility.yul\":33309:33310   */\n      0x00\n        /* \"#utility.yul\":33298:33307   */\n      dup4\n        /* \"#utility.yul\":33294:33311   */\n      add\n        /* \"#utility.yul\":33287:33334   */\n      mstore\n        /* \"#utility.yul\":33351:33482   */\n      tag_700\n        /* \"#utility.yul\":33477:33481   */\n      dup2\n        /* \"#utility.yul\":33351:33482   */\n      tag_413\n      jump\t// in\n    tag_700:\n        /* \"#utility.yul\":33343:33482   */\n      swap1\n      pop\n        /* \"#utility.yul\":33070:33489   */\n      swap2\n      swap1\n      pop\n      jump\t// out\n        /* \"#utility.yul\":33495:33664   */\n    tag_414:\n        /* \"#utility.yul\":33635:33656   */\n      0x496e76616c69642070726f706f73616c20496400000000000000000000000000\n        /* \"#utility.yul\":33631:33632   */\n      0x00\n        /* \"#utility.yul\":33623:33629   */\n      dup3\n        /* \"#utility.yul\":33619:33633   */\n      add\n        /* \"#utility.yul\":33612:33657   */\n      mstore\n        /* \"#utility.yul\":33495:33664   */\n      pop\n      jump\t// out\n        /* \"#utility.yul\":33670:34036   */\n    tag_415:\n        /* \"#utility.yul\":33812:33815   */\n      0x00\n        /* \"#utility.yul\":33833:33900   */\n      tag_703\n        /* \"#utility.yul\":33897:33899   */\n      0x13\n        /* \"#utility.yul\":33892:33895   */\n      dup4\n        /* \"#utility.yul\":33833:33900   */\n      tag_374\n      jump\t// in\n    tag_703:\n        /* \"#utility.yul\":33826:33900   */\n      swap2\n      pop\n        /* \"#utility.yul\":33909:34002   */\n      tag_704\n        /* \"#utility.yul\":33998:34001   */\n      dup3\n        /* \"#utility.yul\":33909:34002   */\n      tag_414\n      jump\t// in\n    tag_704:\n        /* \"#utility.yul\":34027:34029   */\n      0x20\n        /* \"#utility.yul\":34022:34025   */\n      dup3\n        /* \"#utility.yul\":34018:34030   */\n      add\n        /* \"#utility.yul\":34011:34030   */\n      swap1\n      pop\n        /* \"#utility.yul\":33670:34036   */\n      swap2\n      swap1\n      pop\n      jump\t// out\n        /* \"#utility.yul\":34042:34461   */\n    tag_265:\n        /* \"#utility.yul\":34208:34212   */\n      0x00\n        /* \"#utility.yul\":34246:34248   */\n      0x20\n        /* \"#utility.yul\":34235:34244   */\n      dup3\n        /* \"#utility.yul\":34231:34249   */\n      add\n        /* \"#utility.yul\":34223:34249   */\n      swap1\n      pop\n        /* \"#utility.yul\":34295:34304   */\n      dup2\n        /* \"#utility.yul\":34289:34293   */\n      dup2\n        /* \"#utility.yul\":34285:34305   */\n      sub\n        /* \"#utility.yul\":34281:34282   */\n      0x00\n        /* \"#utility.yul\":34270:34279   */\n      dup4\n        /* \"#utility.yul\":34266:34283   */\n      add\n        /* \"#utility.yul\":34259:34306   */\n      mstore\n        /* \"#utility.yul\":34323:34454   */\n      tag_706\n        /* \"#utility.yul\":34449:34453   */\n      dup2\n        /* \"#utility.yul\":34323:34454   */\n      tag_415\n      jump\t// in\n    tag_706:\n        /* \"#utility.yul\":34315:34454   */\n      swap1\n      pop\n        /* \"#utility.yul\":34042:34461   */\n      swap2\n      swap1\n      pop\n      jump\t// out\n        /* \"#utility.yul\":34467:34689   */\n    tag_416:\n        /* \"#utility.yul\":34607:34641   */\n      0x596f75206861766520616c726561647920766f74656420746869732073657373\n        /* \"#utility.yul\":34603:34604   */\n      0x00\n        /* \"#utility.yul\":34595:34601   */\n      dup3\n        /* \"#utility.yul\":34591:34605   */\n      add\n        /* \"#utility.yul\":34584:34642   */\n      mstore\n        /* \"#utility.yul\":34676:34681   */\n      0x696f6e0000000000000000000000000000000000000000000000000000000000\n        /* \"#utility.yul\":34671:34673   */\n      0x20\n        /* \"#utility.yul\":34663:34669   */\n      dup3\n        /* \"#utility.yul\":34659:34674   */\n      add\n        /* \"#utility.yul\":34652:34682   */\n      mstore\n        /* \"#utility.yul\":34467:34689   */\n      pop\n      jump\t// out\n        /* \"#utility.yul\":34695:35061   */\n    tag_417:\n        /* \"#utility.yul\":34837:34840   */\n      0x00\n        /* \"#utility.yul\":34858:34925   */\n      tag_709\n        /* \"#utility.yul\":34922:34924   */\n      0x23\n        /* \"#utility.yul\":34917:34920   */\n      dup4\n        /* \"#utility.yul\":34858:34925   */\n      tag_374\n      jump\t// in\n    tag_709:\n        /* \"#utility.yul\":34851:34925   */\n      swap2\n      pop\n        /* \"#utility.yul\":34934:35027   */\n      tag_710\n        /* \"#utility.yul\":35023:35026   */\n      dup3\n        /* \"#utility.yul\":34934:35027   */\n      tag_416\n      jump\t// in\n    tag_710:\n        /* \"#utility.yul\":35052:35054   */\n      0x40\n        /* \"#utility.yul\":35047:35050   */\n      dup3\n        /* \"#utility.yul\":35043:35055   */\n      add\n        /* \"#utility.yul\":35036:35055   */\n      swap1\n      pop\n        /* \"#utility.yul\":34695:35061   */\n      swap2\n      swap1\n      pop\n      jump\t// out\n        /* \"#utility.yul\":35067:35486   */\n    tag_268:\n        /* \"#utility.yul\":35233:35237   */\n      0x00\n        /* \"#utility.yul\":35271:35273   */\n      0x20\n        /* \"#utility.yul\":35260:35269   */\n      dup3\n        /* \"#utility.yul\":35256:35274   */\n      add\n        /* \"#utility.yul\":35248:35274   */\n      swap1\n      pop\n        /* \"#utility.yul\":35320:35329   */\n      dup2\n        /* \"#utility.yul\":35314:35318   */\n      dup2\n        /* \"#utility.yul\":35310:35330   */\n      sub\n        /* \"#utility.yul\":35306:35307   */\n      0x00\n        /* \"#utility.yul\":35295:35304   */\n      dup4\n        /* \"#utility.yul\":35291:35308   */\n      add\n        /* \"#utility.yul\":35284:35331   */\n      mstore\n        /* \"#utility.yul\":35348:35479   */\n      tag_712\n        /* \"#utility.yul\":35474:35478   */\n      dup2\n        /* \"#utility.yul\":35348:35479   */\n      tag_417\n      jump\t// in\n    tag_712:\n        /* \"#utility.yul\":35340:35479   */\n      swap1\n      pop\n        /* \"#utility.yul\":35067:35486   */\n      swap2\n      swap1\n      pop\n      jump\t// out\n        /* \"#utility.yul\":35492:35824   */\n    tag_276:\n        /* \"#utility.yul\":35613:35617   */\n      0x00\n        /* \"#utility.yul\":35651:35653   */\n      0x40\n        /* \"#utility.yul\":35640:35649   */\n      dup3\n        /* \"#utility.yul\":35636:35654   */\n      add\n        /* \"#utility.yul\":35628:35654   */\n      swap1\n      pop\n        /* \"#utility.yul\":35664:35735   */\n      tag_714\n        /* \"#utility.yul\":35732:35733   */\n      0x00\n        /* \"#utility.yul\":35721:35730   */\n      dup4\n        /* \"#utility.yul\":35717:35734   */\n      add\n        /* \"#utility.yul\":35708:35714   */\n      dup6\n        /* \"#utility.yul\":35664:35735   */\n      tag_371\n      jump\t// in\n    tag_714:\n        /* \"#utility.yul\":35745:35817   */\n      tag_715\n        /* \"#utility.yul\":35813:35815   */\n      0x20\n        /* \"#utility.yul\":35802:35811   */\n      dup4\n        /* \"#utility.yul\":35798:35816   */\n      add\n        /* \"#utility.yul\":35789:35795   */\n      dup5\n        /* \"#utility.yul\":35745:35817   */\n      tag_339\n      jump\t// in\n    tag_715:\n        /* \"#utility.yul\":35492:35824   */\n      swap4\n      swap3\n      pop\n      pop\n      pop\n      jump\t// out\n        /* \"#utility.yul\":35830:36060   */\n    tag_418:\n        /* \"#utility.yul\":35970:36004   */\n      0x57726f6e672073746174757320746f2073746172742070726f706f73616c2072\n        /* \"#utility.yul\":35966:35967   */\n      0x00\n        /* \"#utility.yul\":35958:35964   */\n      dup3\n        /* \"#utility.yul\":35954:35968   */\n      add\n        /* \"#utility.yul\":35947:36005   */\n      mstore\n        /* \"#utility.yul\":36039:36052   */\n      0x6567697374726174696f6e000000000000000000000000000000000000000000\n        /* \"#utility.yul\":36034:36036   */\n      0x20\n        /* \"#utility.yul\":36026:36032   */\n      dup3\n        /* \"#utility.yul\":36022:36037   */\n      add\n        /* \"#utility.yul\":36015:36053   */\n      mstore\n        /* \"#utility.yul\":35830:36060   */\n      pop\n      jump\t// out\n        /* \"#utility.yul\":36066:36432   */\n    tag_419:\n        /* \"#utility.yul\":36208:36211   */\n      0x00\n        /* \"#utility.yul\":36229:36296   */\n      tag_718\n        /* \"#utility.yul\":36293:36295   */\n      0x2b\n        /* \"#utility.yul\":36288:36291   */\n      dup4\n        /* \"#utility.yul\":36229:36296   */\n      tag_374\n      jump\t// in\n    tag_718:\n        /* \"#utility.yul\":36222:36296   */\n      swap2\n      pop\n        /* \"#utility.yul\":36305:36398   */\n      tag_719\n        /* \"#utility.yul\":36394:36397   */\n      dup3\n        /* \"#utility.yul\":36305:36398   */\n      tag_418\n      jump\t// in\n    tag_719:\n        /* \"#utility.yul\":36423:36425   */\n      0x40\n        /* \"#utility.yul\":36418:36421   */\n      dup3\n        /* \"#utility.yul\":36414:36426   */\n      add\n        /* \"#utility.yul\":36407:36426   */\n      swap1\n      pop\n        /* \"#utility.yul\":36066:36432   */\n      swap2\n      swap1\n      pop\n      jump\t// out\n        /* \"#utility.yul\":36438:36857   */\n    tag_286:\n        /* \"#utility.yul\":36604:36608   */\n      0x00\n        /* \"#utility.yul\":36642:36644   */\n      0x20\n        /* \"#utility.yul\":36631:36640   */\n      dup3\n        /* \"#utility.yul\":36627:36645   */\n      add\n        /* \"#utility.yul\":36619:36645   */\n      swap1\n      pop\n        /* \"#utility.yul\":36691:36700   */\n      dup2\n        /* \"#utility.yul\":36685:36689   */\n      dup2\n        /* \"#utility.yul\":36681:36701   */\n      sub\n        /* \"#utility.yul\":36677:36678   */\n      0x00\n        /* \"#utility.yul\":36666:36675   */\n      dup4\n        /* \"#utility.yul\":36662:36679   */\n      add\n        /* \"#utility.yul\":36655:36702   */\n      mstore\n        /* \"#utility.yul\":36719:36850   */\n      tag_721\n        /* \"#utility.yul\":36845:36849   */\n      dup2\n        /* \"#utility.yul\":36719:36850   */\n      tag_419\n      jump\t// in\n    tag_721:\n        /* \"#utility.yul\":36711:36850   */\n      swap1\n      pop\n        /* \"#utility.yul\":36438:36857   */\n      swap2\n      swap1\n      pop\n      jump\t// out\n        /* \"#utility.yul\":36863:37045   */\n    tag_420:\n        /* \"#utility.yul\":37003:37037   */\n      0x50726f706f73616c7320726567697374726174696f6e206e6f7420656e646564\n        /* \"#utility.yul\":36999:37000   */\n      0x00\n        /* \"#utility.yul\":36991:36997   */\n      dup3\n        /* \"#utility.yul\":36987:37001   */\n      add\n        /* \"#utility.yul\":36980:37038   */\n      mstore\n        /* \"#utility.yul\":36863:37045   */\n      pop\n      jump\t// out\n        /* \"#utility.yul\":37051:37417   */\n    tag_421:\n        /* \"#utility.yul\":37193:37196   */\n      0x00\n        /* \"#utility.yul\":37214:37281   */\n      tag_724\n        /* \"#utility.yul\":37278:37280   */\n      0x20\n        /* \"#utility.yul\":37273:37276   */\n      dup4\n        /* \"#utility.yul\":37214:37281   */\n      tag_374\n      jump\t// in\n    tag_724:\n        /* \"#utility.yul\":37207:37281   */\n      swap2\n      pop\n        /* \"#utility.yul\":37290:37383   */\n      tag_725\n        /* \"#utility.yul\":37379:37382   */\n      dup3\n        /* \"#utility.yul\":37290:37383   */\n      tag_420\n      jump\t// in\n    tag_725:\n        /* \"#utility.yul\":37408:37410   */\n      0x20\n        /* \"#utility.yul\":37403:37406   */\n      dup3\n        /* \"#utility.yul\":37399:37411   */\n      add\n        /* \"#utility.yul\":37392:37411   */\n      swap1\n      pop\n        /* \"#utility.yul\":37051:37417   */\n      swap2\n      swap1\n      pop\n      jump\t// out\n        /* \"#utility.yul\":37423:37842   */\n    tag_299:\n        /* \"#utility.yul\":37589:37593   */\n      0x00\n        /* \"#utility.yul\":37627:37629   */\n      0x20\n        /* \"#utility.yul\":37616:37625   */\n      dup3\n        /* \"#utility.yul\":37612:37630   */\n      add\n        /* \"#utility.yul\":37604:37630   */\n      swap1\n      pop\n        /* \"#utility.yul\":37676:37685   */\n      dup2\n        /* \"#utility.yul\":37670:37674   */\n      dup2\n        /* \"#utility.yul\":37666:37686   */\n      sub\n        /* \"#utility.yul\":37662:37663   */\n      0x00\n        /* \"#utility.yul\":37651:37660   */\n      dup4\n        /* \"#utility.yul\":37647:37664   */\n      add\n        /* \"#utility.yul\":37640:37687   */\n      mstore\n        /* \"#utility.yul\":37704:37835   */\n      tag_727\n        /* \"#utility.yul\":37830:37834   */\n      dup2\n        /* \"#utility.yul\":37704:37835   */\n      tag_421\n      jump\t// in\n    tag_727:\n        /* \"#utility.yul\":37696:37835   */\n      swap1\n      pop\n        /* \"#utility.yul\":37423:37842   */\n      swap2\n      swap1\n      pop\n      jump\t// out\n\n    auxdata: 0xa26469706673582212204fcfc558c6fc9cfc4f5b8f515a6f04284f7bff41d5fd80bb5a869e27607e18dd64736f6c634300081e0033\n}\n",
				"bytecode": {
					"linkReferences": {},
					"object": "608060405234801561000f575f5ffd5b50335f73ffffffffffffffffffffffffffffffffffffffff168173ffffffffffffffffffffffffffffffffffffffff1603610081575f6040517f1e4fbdf70000000000000000000000000000000000000000000000000000000081526004016100789190610196565b60405180910390fd5b6100908161009660201b60201c565b506101af565b5f5f5f9054906101000a900473ffffffffffffffffffffffffffffffffffffffff169050815f5f6101000a81548173ffffffffffffffffffffffffffffffffffffffff021916908373ffffffffffffffffffffffffffffffffffffffff1602179055508173ffffffffffffffffffffffffffffffffffffffff168173ffffffffffffffffffffffffffffffffffffffff167f8be0079c531659141344cd1fd0a4f28419497f9722a3daafe3b4186f6b6457e060405160405180910390a35050565b5f73ffffffffffffffffffffffffffffffffffffffff82169050919050565b5f61018082610157565b9050919050565b61019081610176565b82525050565b5f6020820190506101a95f830184610187565b92915050565b612cda806101bc5f395ff3fe608060405234801561000f575f5ffd5b506004361061011f575f3560e01c80637ed17751116100ab578063c8f5714e1161006f578063c8f5714e14610283578063e09b8c791461029f578063ee74c678146102a9578063f2fde38b146102b3578063f38d3af8146102cf5761011f565b80637ed1775114610217578063895d0faf146102335780638da5cb5b1461023d5780639bdfef301461025b578063a7bfab16146102795761011f565b806345bf58fd116100f257806345bf58fd1461019957806358fb94ec146101b5578063640be567146101e55780636c29744514610203578063715018a61461020d5761011f565b80630a936e3a146101235780631186eb7c1461012d5780631401795f1461015f57806338db6dd31461017d575b5f5ffd5b61012b6102ff565b005b61014760048036038101906101429190611b0d565b6103a3565b60405161015693929190611bba565b60405180910390f35b6101676103d5565b6040516101749190611de5565b60405180910390f35b61019760048036038101906101929190611e5f565b61054c565b005b6101b360048036038101906101ae9190611fb6565b6106fd565b005b6101cf60048036038101906101ca9190611b0d565b61098b565b6040516101dc919061204a565b60405180910390f35b6101ed610af8565b6040516101fa91906120ed565b60405180910390f35b61020b610c10565b005b610215610d2e565b005b610231600480360381019061022c9190611e5f565b610d41565b005b61023b610ef0565b005b610245611109565b604051610252919061211c565b60405180910390f35b610263611130565b6040516102709190612135565b60405180910390f35b610281611136565b005b61029d60048036038101906102989190611b0d565b611254565b005b6102a761154d565b005b6102b161166a565b005b6102cd60048036038101906102c89190611e5f565b611788565b005b6102e960048036038101906102e49190611b0d565b61180c565b6040516102f691906120ed565b60405180910390f35b610307611924565b60015f8154809291906103199061217b565b91905055505f60025f60015481526020019081526020015f2090505f815f015f6101000a81548160ff0219169083600581111561035957610358611b38565b5b02179055505f81600301819055507fba5b9081592c446fc890c90b94eb1cb2e823c52d85adafb0a116860c7549705a6001546040516103989190612135565b60405180910390a150565b6002602052805f5260405f205f91509050805f015f9054906101000a900460ff16908060010154908060030154905083565b6103dd611a73565b60025f60015481526020019081526020015f206040518060800160405290815f82015f9054906101000a900460ff16600581111561041e5761041d611b38565b5b60058111156104305761042f611b38565b5b81526020016001820154815260200160028201805480602002602001604051908101604052809291908181526020015f905b82821015610535578382905f5260205f2090600302016040518060600160405290815f820154815260200160018201805461049c906121ef565b80601f01602080910402602001604051908101604052809291908181526020018280546104c8906121ef565b80156105135780601f106104ea57610100808354040283529160200191610513565b820191905f5260205f20905b8154815290600101906020018083116104f657829003601f168201915b5050505050815260200160028201548152505081526020019060010190610462565b505050508152602001600382015481525050905090565b610554611924565b5f60025f60015481526020019081526020015f2090505f600581111561057d5761057c611b38565b5b815f015f9054906101000a900460ff16600581111561059f5761059e611b38565b5b146105df576040517f08c379a00000000000000000000000000000000000000000000000000000000081526004016105d69061229f565b60405180910390fd5b60035f8373ffffffffffffffffffffffffffffffffffffffff1673ffffffffffffffffffffffffffffffffffffffff1681526020019081526020015f205f015f9054906101000a900460ff161561066b576040517f08c379a000000000000000000000000000000000000000000000000000000000815260040161066290612307565b60405180910390fd5b600160035f8473ffffffffffffffffffffffffffffffffffffffff1673ffffffffffffffffffffffffffffffffffffffff1681526020019081526020015f205f015f6101000a81548160ff0219169083151502179055507fb6be2187d059cc2a55fe29e0e503b566e1e0f8c8780096e185429350acffd3dd826040516106f1919061211c565b60405180910390a15050565b60035f3373ffffffffffffffffffffffffffffffffffffffff1673ffffffffffffffffffffffffffffffffffffffff1681526020019081526020015f205f015f9054906101000a900460ff16610788576040517f08c379a000000000000000000000000000000000000000000000000000000000815260040161077f9061236f565b60405180910390fd5b5f8151116107cb576040517f08c379a00000000000000000000000000000000000000000000000000000000081526004016107c2906123d7565b60405180910390fd5b5f60025f60015481526020019081526020015f209050600160058111156107f5576107f4611b38565b5b815f015f9054906101000a900460ff16600581111561081757610816611b38565b5b14610857576040517f08c379a000000000000000000000000000000000000000000000000000000000815260040161084e90612465565b60405180910390fd5b5f816003015490508160020160405180606001604052808381526020018581526020015f815250908060018154018082558091505060019003905f5260205f2090600302015f909190919091505f820151815f015560208201518160010190816108c19190612623565b50604082015181600201555050816003015f8154809291906108e29061217b565b919050555060035f3373ffffffffffffffffffffffffffffffffffffffff1673ffffffffffffffffffffffffffffffffffffffff1681526020019081526020015f2060030181908060018154018082558091505060019003905f5260205f20015f90919091909150557fca195036d7c4d40b171ad51e9c891c830a0ad9a5e114b5b075cdf791317e300c6001548260405161097e9291906126f2565b60405180910390a1505050565b610993611aaa565b5f60025f8481526020019081526020015f2090506005808111156109ba576109b9611b38565b5b815f015f9054906101000a900460ff1660058111156109dc576109db611b38565b5b14610a1c576040517f08c379a0000000000000000000000000000000000000000000000000000000008152600401610a1390612763565b60405180910390fd5b80600201816001015481548110610a3657610a35612781565b5b905f5260205f2090600302016040518060600160405290815f8201548152602001600182018054610a66906121ef565b80601f0160208091040260200160405190810160405280929190818152602001828054610a92906121ef565b8015610add5780601f10610ab457610100808354040283529160200191610add565b820191905f5260205f20905b815481529060010190602001808311610ac057829003601f168201915b50505050508152602001600282015481525050915050919050565b60605f60025f60015481526020019081526020015f20905080600201805480602002602001604051908101604052809291908181526020015f905b82821015610c06578382905f5260205f2090600302016040518060600160405290815f8201548152602001600182018054610b6d906121ef565b80601f0160208091040260200160405190810160405280929190818152602001828054610b99906121ef565b8015610be45780601f10610bbb57610100808354040283529160200191610be4565b820191905f5260205f20905b815481529060010190602001808311610bc757829003601f168201915b5050505050815260200160028201548152505081526020019060010190610b33565b5050505091505090565b610c18611924565b5f60025f60015481526020019081526020015f20905060016005811115610c4257610c41611b38565b5b815f015f9054906101000a900460ff166005811115610c6457610c63611b38565b5b14610ca4576040517f08c379a0000000000000000000000000000000000000000000000000000000008152600401610c9b9061281e565b60405180910390fd5b5f815f015f9054906101000a900460ff1690506002825f015f6101000a81548160ff02191690836005811115610cdd57610cdc611b38565b5b02179055507f0a97a4ee45751e2abf3e4fc8946939630b11b371ea8ae39ccdc3056e98f5cc3f81835f015f9054906101000a900460ff16604051610d2292919061283c565b60405180910390a15050565b610d36611924565b610d3f5f6119ab565b565b610d49611924565b5f60025f60015481526020019081526020015f2090505f6005811115610d7257610d71611b38565b5b815f015f9054906101000a900460ff166005811115610d9457610d93611b38565b5b14610dd4576040517f08c379a0000000000000000000000000000000000000000000000000000000008152600401610dcb906128d3565b60405180910390fd5b60035f8373ffffffffffffffffffffffffffffffffffffffff1673ffffffffffffffffffffffffffffffffffffffff1681526020019081526020015f205f015f9054906101000a900460ff16610e5f576040517f08c379a0000000000000000000000000000000000000000000000000000000008152600401610e569061293b565b60405180910390fd5b5f60035f8473ffffffffffffffffffffffffffffffffffffffff1673ffffffffffffffffffffffffffffffffffffffff1681526020019081526020015f205f015f6101000a81548160ff0219169083151502179055507f25fc2460244a2fff1d6879302ea1d6f3e684e599d76c012a22e42d5bb61cc5d782604051610ee4919061211c565b60405180910390a15050565b610ef8611924565b5f60025f60015481526020019081526020015f20905060046005811115610f2257610f21611b38565b5b815f015f9054906101000a900460ff166005811115610f4457610f43611b38565b5b14610f84576040517f08c379a0000000000000000000000000000000000000000000000000000000008152600401610f7b906129a3565b60405180910390fd5b5f816002018054905011610fcd576040517f08c379a0000000000000000000000000000000000000000000000000000000008152600401610fc490612a0b565b60405180910390fd5b5f5f90505f5f90505f5f90505b8360020180549050811015611073578284600201828154811061100057610fff612781565b5b905f5260205f2090600302016002015411156110665783600201818154811061102c5761102b612781565b5b905f5260205f20906003020160020154925083600201818154811061105457611053612781565b5b905f5260205f2090600302015f015491505b8080600101915050610fda565b508083600101819055505f835f015f9054906101000a900460ff1690506005845f015f6101000a81548160ff021916908360058111156110b6576110b5611b38565b5b02179055507f0a97a4ee45751e2abf3e4fc8946939630b11b371ea8ae39ccdc3056e98f5cc3f81855f015f9054906101000a900460ff166040516110fb92919061283c565b60405180910390a150505050565b5f5f5f9054906101000a900473ffffffffffffffffffffffffffffffffffffffff16905090565b60015481565b61113e611924565b5f60025f60015481526020019081526020015f2090506003600581111561116857611167611b38565b5b815f015f9054906101000a900460ff16600581111561118a57611189611b38565b5b146111ca576040517f08c379a00000000000000000000000000000000000000000000000000000000081526004016111c190612a73565b60405180910390fd5b5f815f015f9054906101000a900460ff1690506004825f015f6101000a81548160ff0219169083600581111561120357611202611b38565b5b02179055507f0a97a4ee45751e2abf3e4fc8946939630b11b371ea8ae39ccdc3056e98f5cc3f81835f015f9054906101000a900460ff1660405161124892919061283c565b60405180910390a15050565b60035f3373ffffffffffffffffffffffffffffffffffffffff1673ffffffffffffffffffffffffffffffffffffffff1681526020019081526020015f205f015f9054906101000a900460ff166112df576040517f08c379a00000000000000000000000000000000000000000000000000000000081526004016112d69061236f565b60405180910390fd5b5f60025f60015481526020019081526020015f2090506003600581111561130957611308611b38565b5b815f015f9054906101000a900460ff16600581111561132b5761132a611b38565b5b1461136b576040517f08c379a000000000000000000000000000000000000000000000000000000000815260040161136290612a73565b60405180910390fd5b806002018054905082106113b4576040517f08c379a00000000000000000000000000000000000000000000000000000000081526004016113ab90612adb565b60405180910390fd5b5f60035f3373ffffffffffffffffffffffffffffffffffffffff1673ffffffffffffffffffffffffffffffffffffffff1681526020019081526020015f209050806001015f60015481526020019081526020015f205f9054906101000a900460ff1615611456576040517f08c379a000000000000000000000000000000000000000000000000000000000815260040161144d90612b69565b60405180910390fd5b6001816001015f60015481526020019081526020015f205f6101000a81548160ff02191690831515021790555080600201600154908060018154018082558091505060019003905f5260205f20015f90919091909150558060030183908060018154018082558091505060019003905f5260205f20015f90919091909150558160020183815481106114eb576114ea612781565b5b905f5260205f2090600302016002015f81548092919061150a9061217b565b91905055507f4d99b957a2bc29a30ebd96a7be8e68fe50a3c701db28a91436490b7d53870ca43384604051611540929190612b87565b60405180910390a1505050565b611555611924565b5f60025f60015481526020019081526020015f2090505f600581111561157e5761157d611b38565b5b815f015f9054906101000a900460ff1660058111156115a05761159f611b38565b5b146115e0576040517f08c379a00000000000000000000000000000000000000000000000000000000081526004016115d790612c1e565b60405180910390fd5b5f815f015f9054906101000a900460ff1690506001825f015f6101000a81548160ff0219169083600581111561161957611618611b38565b5b02179055507f0a97a4ee45751e2abf3e4fc8946939630b11b371ea8ae39ccdc3056e98f5cc3f81835f015f9054906101000a900460ff1660405161165e92919061283c565b60405180910390a15050565b611672611924565b5f60025f60015481526020019081526020015f2090506002600581111561169c5761169b611b38565b5b815f015f9054906101000a900460ff1660058111156116be576116bd611b38565b5b146116fe576040517f08c379a00000000000000000000000000000000000000000000000000000000081526004016116f590612c86565b60405180910390fd5b5f815f015f9054906101000a900460ff1690506003825f015f6101000a81548160ff0219169083600581111561173757611736611b38565b5b02179055507f0a97a4ee45751e2abf3e4fc8946939630b11b371ea8ae39ccdc3056e98f5cc3f81835f015f9054906101000a900460ff1660405161177c92919061283c565b60405180910390a15050565b611790611924565b5f73ffffffffffffffffffffffffffffffffffffffff168173ffffffffffffffffffffffffffffffffffffffff1603611800575f6040517f1e4fbdf70000000000000000000000000000000000000000000000000000000081526004016117f7919061211c565b60405180910390fd5b611809816119ab565b50565b60605f60025f8481526020019081526020015f20905080600201805480602002602001604051908101604052809291908181526020015f905b82821015611918578382905f5260205f2090600302016040518060600160405290815f820154815260200160018201805461187f906121ef565b80601f01602080910402602001604051908101604052809291908181526020018280546118ab906121ef565b80156118f65780601f106118cd576101008083540402835291602001916118f6565b820191905f5260205f20905b8154815290600101906020018083116118d957829003601f168201915b5050505050815260200160028201548152505081526020019060010190611845565b50505050915050919050565b61192c611a6c565b73ffffffffffffffffffffffffffffffffffffffff1661194a611109565b73ffffffffffffffffffffffffffffffffffffffff16146119a95761196d611a6c565b6040517f118cdaa70000000000000000000000000000000000000000000000000000000081526004016119a0919061211c565b60405180910390fd5b565b5f5f5f9054906101000a900473ffffffffffffffffffffffffffffffffffffffff169050815f5f6101000a81548173ffffffffffffffffffffffffffffffffffffffff021916908373ffffffffffffffffffffffffffffffffffffffff1602179055508173ffffffffffffffffffffffffffffffffffffffff168173ffffffffffffffffffffffffffffffffffffffff167f8be0079c531659141344cd1fd0a4f28419497f9722a3daafe3b4186f6b6457e060405160405180910390a35050565b5f33905090565b60405180608001604052805f6005811115611a9157611a90611b38565b5b81526020015f8152602001606081526020015f81525090565b60405180606001604052805f8152602001606081526020015f81525090565b5f604051905090565b5f5ffd5b5f5ffd5b5f819050919050565b611aec81611ada565b8114611af6575f5ffd5b50565b5f81359050611b0781611ae3565b92915050565b5f60208284031215611b2257611b21611ad2565b5b5f611b2f84828501611af9565b91505092915050565b7f4e487b71000000000000000000000000000000000000000000000000000000005f52602160045260245ffd5b60068110611b7657611b75611b38565b5b50565b5f819050611b8682611b65565b919050565b5f611b9582611b79565b9050919050565b611ba581611b8b565b82525050565b611bb481611ada565b82525050565b5f606082019050611bcd5f830186611b9c565b611bda6020830185611bab565b611be76040830184611bab565b949350505050565b611bf881611b8b565b82525050565b611c0781611ada565b82525050565b5f81519050919050565b5f82825260208201905092915050565b5f819050602082019050919050565b5f81519050919050565b5f82825260208201905092915050565b8281835e5f83830152505050565b5f601f19601f8301169050919050565b5f611c7882611c36565b611c828185611c40565b9350611c92818560208601611c50565b611c9b81611c5e565b840191505092915050565b5f606083015f830151611cbb5f860182611bfe565b5060208301518482036020860152611cd38282611c6e565b9150506040830151611ce86040860182611bfe565b508091505092915050565b5f611cfe8383611ca6565b905092915050565b5f602082019050919050565b5f611d1c82611c0d565b611d268185611c17565b935083602082028501611d3885611c27565b805f5b85811015611d735784840389528151611d548582611cf3565b9450611d5f83611d06565b925060208a01995050600181019050611d3b565b50829750879550505050505092915050565b5f608083015f830151611d9a5f860182611bef565b506020830151611dad6020860182611bfe565b5060408301518482036040860152611dc58282611d12565b9150506060830151611dda6060860182611bfe565b508091505092915050565b5f6020820190508181035f830152611dfd8184611d85565b905092915050565b5f73ffffffffffffffffffffffffffffffffffffffff82169050919050565b5f611e2e82611e05565b9050919050565b611e3e81611e24565b8114611e48575f5ffd5b50565b5f81359050611e5981611e35565b92915050565b5f60208284031215611e7457611e73611ad2565b5b5f611e8184828501611e4b565b91505092915050565b5f5ffd5b5f5ffd5b7f4e487b71000000000000000000000000000000000000000000000000000000005f52604160045260245ffd5b611ec882611c5e565b810181811067ffffffffffffffff82111715611ee757611ee6611e92565b5b80604052505050565b5f611ef9611ac9565b9050611f058282611ebf565b919050565b5f67ffffffffffffffff821115611f2457611f23611e92565b5b611f2d82611c5e565b9050602081019050919050565b828183375f83830152505050565b5f611f5a611f5584611f0a565b611ef0565b905082815260208101848484011115611f7657611f75611e8e565b5b611f81848285611f3a565b509392505050565b5f82601f830112611f9d57611f9c611e8a565b5b8135611fad848260208601611f48565b91505092915050565b5f60208284031215611fcb57611fca611ad2565b5b5f82013567ffffffffffffffff811115611fe857611fe7611ad6565b5b611ff484828501611f89565b91505092915050565b5f606083015f8301516120125f860182611bfe565b506020830151848203602086015261202a8282611c6e565b915050604083015161203f6040860182611bfe565b508091505092915050565b5f6020820190508181035f8301526120628184611ffd565b905092915050565b5f82825260208201905092915050565b5f61208482611c0d565b61208e818561206a565b9350836020820285016120a085611c27565b805f5b858110156120db57848403895281516120bc8582611cf3565b94506120c783611d06565b925060208a019950506001810190506120a3565b50829750879550505050505092915050565b5f6020820190508181035f830152612105818461207a565b905092915050565b61211681611e24565b82525050565b5f60208201905061212f5f83018461210d565b92915050565b5f6020820190506121485f830184611bab565b92915050565b7f4e487b71000000000000000000000000000000000000000000000000000000005f52601160045260245ffd5b5f61218582611ada565b91507fffffffffffffffffffffffffffffffffffffffffffffffffffffffffffffffff82036121b7576121b661214e565b5b600182019050919050565b7f4e487b71000000000000000000000000000000000000000000000000000000005f52602260045260245ffd5b5f600282049050600182168061220657607f821691505b602082108103612219576122186121c2565b5b50919050565b5f82825260208201905092915050565b7f526567697374726174696f6e206e6f74207374617274656420666f72207468695f8201527f732073657373696f6e0000000000000000000000000000000000000000000000602082015250565b5f61228960298361221f565b91506122948261222f565b604082019050919050565b5f6020820190508181035f8301526122b68161227d565b9050919050565b7f566f74657220616c7265616479207265676973746572656400000000000000005f82015250565b5f6122f160188361221f565b91506122fc826122bd565b602082019050919050565b5f6020820190508181035f83015261231e816122e5565b9050919050565b7f596f7520617265206e6f742072656769737465726564000000000000000000005f82015250565b5f61235960168361221f565b915061236482612325565b602082019050919050565b5f6020820190508181035f8301526123868161234d565b9050919050565b7f50726f706f73616c206465736372697074696f6e2069732072657175697265645f82015250565b5f6123c160208361221f565b91506123cc8261238d565b602082019050919050565b5f6020820190508181035f8301526123ee816123b5565b9050919050565b7f50726f706f73616c7320726567697374726174696f6e206e6f742073746172745f8201527f6564000000000000000000000000000000000000000000000000000000000000602082015250565b5f61244f60228361221f565b915061245a826123f5565b604082019050919050565b5f6020820190508181035f83015261247c81612443565b9050919050565b5f819050815f5260205f209050919050565b5f6020601f8301049050919050565b5f82821b905092915050565b5f600883026124df7fffffffffffffffffffffffffffffffffffffffffffffffffffffffffffffffff826124a4565b6124e986836124a4565b95508019841693508086168417925050509392505050565b5f819050919050565b5f61252461251f61251a84611ada565b612501565b611ada565b9050919050565b5f819050919050565b61253d8361250a565b6125516125498261252b565b8484546124b0565b825550505050565b5f5f905090565b612568612559565b612573818484612534565b505050565b5b818110156125965761258b5f82612560565b600181019050612579565b5050565b601f8211156125db576125ac81612483565b6125b584612495565b810160208510156125c4578190505b6125d86125d085612495565b830182612578565b50505b505050565b5f82821c905092915050565b5f6125fb5f19846008026125e0565b1980831691505092915050565b5f61261383836125ec565b9150826002028217905092915050565b61262c82611c36565b67ffffffffffffffff81111561264557612644611e92565b5b61264f82546121ef565b61265a82828561259a565b5f60209050601f83116001811461268b575f8415612679578287015190505b6126838582612608565b8655506126ea565b601f19841661269986612483565b5f5b828110156126c05784890151825560018201915060208501945060208101905061269b565b868310156126dd57848901516126d9601f8916826125ec565b8355505b6001600288020188555050505b505050505050565b5f6040820190506127055f830185611bab565b6127126020830184611bab565b9392505050565b7f566f746573206e6f742074616c6c6965642079657400000000000000000000005f82015250565b5f61274d60158361221f565b915061275882612719565b602082019050919050565b5f6020820190508181035f83015261277a81612741565b9050919050565b7f4e487b71000000000000000000000000000000000000000000000000000000005f52603260045260245ffd5b7f50726f706f73616c7320726567697374726174696f6e206e6f742073746172745f8201527f6564206f7220616c726561647920656e64656400000000000000000000000000602082015250565b5f61280860338361221f565b9150612813826127ae565b604082019050919050565b5f6020820190508181035f830152612835816127fc565b9050919050565b5f60408201905061284f5f830185611b9c565b61285c6020830184611b9c565b9392505050565b7f526567697374726174696f6e20706861736520656e6465642c2063616e6e6f745f8201527f20756e7265676973746572000000000000000000000000000000000000000000602082015250565b5f6128bd602b8361221f565b91506128c882612863565b604082019050919050565b5f6020820190508181035f8301526128ea816128b1565b9050919050565b7f566f74657220616c726561647920756e726567697374657265640000000000005f82015250565b5f612925601a8361221f565b9150612930826128f1565b602082019050919050565b5f6020820190508181035f83015261295281612919565b9050919050565b7f566f74696e672073657373696f6e206e6f7420656e64656420796574000000005f82015250565b5f61298d601c8361221f565b915061299882612959565b602082019050919050565b5f6020820190508181035f8301526129ba81612981565b9050919050565b7f4e6f2070726f706f73616c7320666f7220746869732073657373696f6e0000005f82015250565b5f6129f5601d8361221f565b9150612a00826129c1565b602082019050919050565b5f6020820190508181035f830152612a22816129e9565b9050919050565b7f566f74696e672073657373696f6e206e6f7420737461727465640000000000005f82015250565b5f612a5d601a8361221f565b9150612a6882612a29565b602082019050919050565b5f6020820190508181035f830152612a8a81612a51565b9050919050565b7f496e76616c69642070726f706f73616c204964000000000000000000000000005f82015250565b5f612ac560138361221f565b9150612ad082612a91565b602082019050919050565b5f6020820190508181035f830152612af281612ab9565b9050919050565b7f596f75206861766520616c726561647920766f746564207468697320736573735f8201527f696f6e0000000000000000000000000000000000000000000000000000000000602082015250565b5f612b5360238361221f565b9150612b5e82612af9565b604082019050919050565b5f6020820190508181035f830152612b8081612b47565b9050919050565b5f604082019050612b9a5f83018561210d565b612ba76020830184611bab565b9392505050565b7f57726f6e672073746174757320746f2073746172742070726f706f73616c20725f8201527f6567697374726174696f6e000000000000000000000000000000000000000000602082015250565b5f612c08602b8361221f565b9150612c1382612bae565b604082019050919050565b5f6020820190508181035f830152612c3581612bfc565b9050919050565b7f50726f706f73616c7320726567697374726174696f6e206e6f7420656e6465645f82015250565b5f612c7060208361221f565b9150612c7b82612c3c565b602082019050919050565b5f6020820190508181035f830152612c9d81612c64565b905091905056fea26469706673582212204fcfc558c6fc9cfc4f5b8f515a6f04284f7bff41d5fd80bb5a869e27607e18dd64736f6c634300081e0033",
					"opcodes": "PUSH1 0x80 PUSH1 0x40 MSTORE CALLVALUE DUP1 ISZERO PUSH2 0xF JUMPI PUSH0 PUSH0 REVERT JUMPDEST POP CALLER PUSH0 PUSH20 0xFFFFFFFFFFFFFFFFFFFFFFFFFFFFFFFFFFFFFFFF AND DUP2 PUSH20 0xFFFFFFFFFFFFFFFFFFFFFFFFFFFFFFFFFFFFFFFF AND SUB PUSH2 0x81 JUMPI PUSH0 PUSH1 0x40 MLOAD PUSH32 0x1E4FBDF700000000000000000000000000000000000000000000000000000000 DUP2 MSTORE PUSH1 0x4 ADD PUSH2 0x78 SWAP2 SWAP1 PUSH2 0x196 JUMP JUMPDEST PUSH1 0x40 MLOAD DUP1 SWAP2 SUB SWAP1 REVERT JUMPDEST PUSH2 0x90 DUP2 PUSH2 0x96 PUSH1 0x20 SHL PUSH1 0x20 SHR JUMP JUMPDEST POP PUSH2 0x1AF JUMP JUMPDEST PUSH0 PUSH0 PUSH0 SWAP1 SLOAD SWAP1 PUSH2 0x100 EXP SWAP1 DIV PUSH20 0xFFFFFFFFFFFFFFFFFFFFFFFFFFFFFFFFFFFFFFFF AND SWAP1 POP DUP2 PUSH0 PUSH0 PUSH2 0x100 EXP DUP2 SLOAD DUP2 PUSH20 0xFFFFFFFFFFFFFFFFFFFFFFFFFFFFFFFFFFFFFFFF MUL NOT AND SWAP1 DUP4 PUSH20 0xFFFFFFFFFFFFFFFFFFFFFFFFFFFFFFFFFFFFFFFF AND MUL OR SWAP1 SSTORE POP DUP2 PUSH20 0xFFFFFFFFFFFFFFFFFFFFFFFFFFFFFFFFFFFFFFFF AND DUP2 PUSH20 0xFFFFFFFFFFFFFFFFFFFFFFFFFFFFFFFFFFFFFFFF AND PUSH32 0x8BE0079C531659141344CD1FD0A4F28419497F9722A3DAAFE3B4186F6B6457E0 PUSH1 0x40 MLOAD PUSH1 0x40 MLOAD DUP1 SWAP2 SUB SWAP1 LOG3 POP POP JUMP JUMPDEST PUSH0 PUSH20 0xFFFFFFFFFFFFFFFFFFFFFFFFFFFFFFFFFFFFFFFF DUP3 AND SWAP1 POP SWAP2 SWAP1 POP JUMP JUMPDEST PUSH0 PUSH2 0x180 DUP3 PUSH2 0x157 JUMP JUMPDEST SWAP1 POP SWAP2 SWAP1 POP JUMP JUMPDEST PUSH2 0x190 DUP2 PUSH2 0x176 JUMP JUMPDEST DUP3 MSTORE POP POP JUMP JUMPDEST PUSH0 PUSH1 0x20 DUP3 ADD SWAP1 POP PUSH2 0x1A9 PUSH0 DUP4 ADD DUP5 PUSH2 0x187 JUMP JUMPDEST SWAP3 SWAP2 POP POP JUMP JUMPDEST PUSH2 0x2CDA DUP1 PUSH2 0x1BC PUSH0 CODECOPY PUSH0 RETURN INVALID PUSH1 0x80 PUSH1 0x40 MSTORE CALLVALUE DUP1 ISZERO PUSH2 0xF JUMPI PUSH0 PUSH0 REVERT JUMPDEST POP PUSH1 0x4 CALLDATASIZE LT PUSH2 0x11F JUMPI PUSH0 CALLDATALOAD PUSH1 0xE0 SHR DUP1 PUSH4 0x7ED17751 GT PUSH2 0xAB JUMPI DUP1 PUSH4 0xC8F5714E GT PUSH2 0x6F JUMPI DUP1 PUSH4 0xC8F5714E EQ PUSH2 0x283 JUMPI DUP1 PUSH4 0xE09B8C79 EQ PUSH2 0x29F JUMPI DUP1 PUSH4 0xEE74C678 EQ PUSH2 0x2A9 JUMPI DUP1 PUSH4 0xF2FDE38B EQ PUSH2 0x2B3 JUMPI DUP1 PUSH4 0xF38D3AF8 EQ PUSH2 0x2CF JUMPI PUSH2 0x11F JUMP JUMPDEST DUP1 PUSH4 0x7ED17751 EQ PUSH2 0x217 JUMPI DUP1 PUSH4 0x895D0FAF EQ PUSH2 0x233 JUMPI DUP1 PUSH4 0x8DA5CB5B EQ PUSH2 0x23D JUMPI DUP1 PUSH4 0x9BDFEF30 EQ PUSH2 0x25B JUMPI DUP1 PUSH4 0xA7BFAB16 EQ PUSH2 0x279 JUMPI PUSH2 0x11F JUMP JUMPDEST DUP1 PUSH4 0x45BF58FD GT PUSH2 0xF2 JUMPI DUP1 PUSH4 0x45BF58FD EQ PUSH2 0x199 JUMPI DUP1 PUSH4 0x58FB94EC EQ PUSH2 0x1B5 JUMPI DUP1 PUSH4 0x640BE567 EQ PUSH2 0x1E5 JUMPI DUP1 PUSH4 0x6C297445 EQ PUSH2 0x203 JUMPI DUP1 PUSH4 0x715018A6 EQ PUSH2 0x20D JUMPI PUSH2 0x11F JUMP JUMPDEST DUP1 PUSH4 0xA936E3A EQ PUSH2 0x123 JUMPI DUP1 PUSH4 0x1186EB7C EQ PUSH2 0x12D JUMPI DUP1 PUSH4 0x1401795F EQ PUSH2 0x15F JUMPI DUP1 PUSH4 0x38DB6DD3 EQ PUSH2 0x17D JUMPI JUMPDEST PUSH0 PUSH0 REVERT JUMPDEST PUSH2 0x12B PUSH2 0x2FF JUMP JUMPDEST STOP JUMPDEST PUSH2 0x147 PUSH1 0x4 DUP1 CALLDATASIZE SUB DUP2 ADD SWAP1 PUSH2 0x142 SWAP2 SWAP1 PUSH2 0x1B0D JUMP JUMPDEST PUSH2 0x3A3 JUMP JUMPDEST PUSH1 0x40 MLOAD PUSH2 0x156 SWAP4 SWAP3 SWAP2 SWAP1 PUSH2 0x1BBA JUMP JUMPDEST PUSH1 0x40 MLOAD DUP1 SWAP2 SUB SWAP1 RETURN JUMPDEST PUSH2 0x167 PUSH2 0x3D5 JUMP JUMPDEST PUSH1 0x40 MLOAD PUSH2 0x174 SWAP2 SWAP1 PUSH2 0x1DE5 JUMP JUMPDEST PUSH1 0x40 MLOAD DUP1 SWAP2 SUB SWAP1 RETURN JUMPDEST PUSH2 0x197 PUSH1 0x4 DUP1 CALLDATASIZE SUB DUP2 ADD SWAP1 PUSH2 0x192 SWAP2 SWAP1 PUSH2 0x1E5F JUMP JUMPDEST PUSH2 0x54C JUMP JUMPDEST STOP JUMPDEST PUSH2 0x1B3 PUSH1 0x4 DUP1 CALLDATASIZE SUB DUP2 ADD SWAP1 PUSH2 0x1AE SWAP2 SWAP1 PUSH2 0x1FB6 JUMP JUMPDEST PUSH2 0x6FD JUMP JUMPDEST STOP JUMPDEST PUSH2 0x1CF PUSH1 0x4 DUP1 CALLDATASIZE SUB DUP2 ADD SWAP1 PUSH2 0x1CA SWAP2 SWAP1 PUSH2 0x1B0D JUMP JUMPDEST PUSH2 0x98B JUMP JUMPDEST PUSH1 0x40 MLOAD PUSH2 0x1DC SWAP2 SWAP1 PUSH2 0x204A JUMP JUMPDEST PUSH1 0x40 MLOAD DUP1 SWAP2 SUB SWAP1 RETURN JUMPDEST PUSH2 0x1ED PUSH2 0xAF8 JUMP JUMPDEST PUSH1 0x40 MLOAD PUSH2 0x1FA SWAP2 SWAP1 PUSH2 0x20ED JUMP JUMPDEST PUSH1 0x40 MLOAD DUP1 SWAP2 SUB SWAP1 RETURN JUMPDEST PUSH2 0x20B PUSH2 0xC10 JUMP JUMPDEST STOP JUMPDEST PUSH2 0x215 PUSH2 0xD2E JUMP JUMPDEST STOP JUMPDEST PUSH2 0x231 PUSH1 0x4 DUP1 CALLDATASIZE SUB DUP2 ADD SWAP1 PUSH2 0x22C SWAP2 SWAP1 PUSH2 0x1E5F JUMP JUMPDEST PUSH2 0xD41 JUMP JUMPDEST STOP JUMPDEST PUSH2 0x23B PUSH2 0xEF0 JUMP JUMPDEST STOP JUMPDEST PUSH2 0x245 PUSH2 0x1109 JUMP JUMPDEST PUSH1 0x40 MLOAD PUSH2 0x252 SWAP2 SWAP1 PUSH2 0x211C JUMP JUMPDEST PUSH1 0x40 MLOAD DUP1 SWAP2 SUB SWAP1 RETURN JUMPDEST PUSH2 0x263 PUSH2 0x1130 JUMP JUMPDEST PUSH1 0x40 MLOAD PUSH2 0x270 SWAP2 SWAP1 PUSH2 0x2135 JUMP JUMPDEST PUSH1 0x40 MLOAD DUP1 SWAP2 SUB SWAP1 RETURN JUMPDEST PUSH2 0x281 PUSH2 0x1136 JUMP JUMPDEST STOP JUMPDEST PUSH2 0x29D PUSH1 0x4 DUP1 CALLDATASIZE SUB DUP2 ADD SWAP1 PUSH2 0x298 SWAP2 SWAP1 PUSH2 0x1B0D JUMP JUMPDEST PUSH2 0x1254 JUMP JUMPDEST STOP JUMPDEST PUSH2 0x2A7 PUSH2 0x154D JUMP JUMPDEST STOP JUMPDEST PUSH2 0x2B1 PUSH2 0x166A JUMP JUMPDEST STOP JUMPDEST PUSH2 0x2CD PUSH1 0x4 DUP1 CALLDATASIZE SUB DUP2 ADD SWAP1 PUSH2 0x2C8 SWAP2 SWAP1 PUSH2 0x1E5F JUMP JUMPDEST PUSH2 0x1788 JUMP JUMPDEST STOP JUMPDEST PUSH2 0x2E9 PUSH1 0x4 DUP1 CALLDATASIZE SUB DUP2 ADD SWAP1 PUSH2 0x2E4 SWAP2 SWAP1 PUSH2 0x1B0D JUMP JUMPDEST PUSH2 0x180C JUMP JUMPDEST PUSH1 0x40 MLOAD PUSH2 0x2F6 SWAP2 SWAP1 PUSH2 0x20ED JUMP JUMPDEST PUSH1 0x40 MLOAD DUP1 SWAP2 SUB SWAP1 RETURN JUMPDEST PUSH2 0x307 PUSH2 0x1924 JUMP JUMPDEST PUSH1 0x1 PUSH0 DUP2 SLOAD DUP1 SWAP3 SWAP2 SWAP1 PUSH2 0x319 SWAP1 PUSH2 0x217B JUMP JUMPDEST SWAP2 SWAP1 POP SSTORE POP PUSH0 PUSH1 0x2 PUSH0 PUSH1 0x1 SLOAD DUP2 MSTORE PUSH1 0x20 ADD SWAP1 DUP2 MSTORE PUSH1 0x20 ADD PUSH0 KECCAK256 SWAP1 POP PUSH0 DUP2 PUSH0 ADD PUSH0 PUSH2 0x100 EXP DUP2 SLOAD DUP2 PUSH1 0xFF MUL NOT AND SWAP1 DUP4 PUSH1 0x5 DUP2 GT ISZERO PUSH2 0x359 JUMPI PUSH2 0x358 PUSH2 0x1B38 JUMP JUMPDEST JUMPDEST MUL OR SWAP1 SSTORE POP PUSH0 DUP2 PUSH1 0x3 ADD DUP2 SWAP1 SSTORE POP PUSH32 0xBA5B9081592C446FC890C90B94EB1CB2E823C52D85ADAFB0A116860C7549705A PUSH1 0x1 SLOAD PUSH1 0x40 MLOAD PUSH2 0x398 SWAP2 SWAP1 PUSH2 0x2135 JUMP JUMPDEST PUSH1 0x40 MLOAD DUP1 SWAP2 SUB SWAP1 LOG1 POP JUMP JUMPDEST PUSH1 0x2 PUSH1 0x20 MSTORE DUP1 PUSH0 MSTORE PUSH1 0x40 PUSH0 KECCAK256 PUSH0 SWAP2 POP SWAP1 POP DUP1 PUSH0 ADD PUSH0 SWAP1 SLOAD SWAP1 PUSH2 0x100 EXP SWAP1 DIV PUSH1 0xFF AND SWAP1 DUP1 PUSH1 0x1 ADD SLOAD SWAP1 DUP1 PUSH1 0x3 ADD SLOAD SWAP1 POP DUP4 JUMP JUMPDEST PUSH2 0x3DD PUSH2 0x1A73 JUMP JUMPDEST PUSH1 0x2 PUSH0 PUSH1 0x1 SLOAD DUP2 MSTORE PUSH1 0x20 ADD SWAP1 DUP2 MSTORE PUSH1 0x20 ADD PUSH0 KECCAK256 PUSH1 0x40 MLOAD DUP1 PUSH1 0x80 ADD PUSH1 0x40 MSTORE SWAP1 DUP2 PUSH0 DUP3 ADD PUSH0 SWAP1 SLOAD SWAP1 PUSH2 0x100 EXP SWAP1 DIV PUSH1 0xFF AND PUSH1 0x5 DUP2 GT ISZERO PUSH2 0x41E JUMPI PUSH2 0x41D PUSH2 0x1B38 JUMP JUMPDEST JUMPDEST PUSH1 0x5 DUP2 GT ISZERO PUSH2 0x430 JUMPI PUSH2 0x42F PUSH2 0x1B38 JUMP JUMPDEST JUMPDEST DUP2 MSTORE PUSH1 0x20 ADD PUSH1 0x1 DUP3 ADD SLOAD DUP2 MSTORE PUSH1 0x20 ADD PUSH1 0x2 DUP3 ADD DUP1 SLOAD DUP1 PUSH1 0x20 MUL PUSH1 0x20 ADD PUSH1 0x40 MLOAD SWAP1 DUP2 ADD PUSH1 0x40 MSTORE DUP1 SWAP3 SWAP2 SWAP1 DUP2 DUP2 MSTORE PUSH1 0x20 ADD PUSH0 SWAP1 JUMPDEST DUP3 DUP3 LT ISZERO PUSH2 0x535 JUMPI DUP4 DUP3 SWAP1 PUSH0 MSTORE PUSH1 0x20 PUSH0 KECCAK256 SWAP1 PUSH1 0x3 MUL ADD PUSH1 0x40 MLOAD DUP1 PUSH1 0x60 ADD PUSH1 0x40 MSTORE SWAP1 DUP2 PUSH0 DUP3 ADD SLOAD DUP2 MSTORE PUSH1 0x20 ADD PUSH1 0x1 DUP3 ADD DUP1 SLOAD PUSH2 0x49C SWAP1 PUSH2 0x21EF JUMP JUMPDEST DUP1 PUSH1 0x1F ADD PUSH1 0x20 DUP1 SWAP2 DIV MUL PUSH1 0x20 ADD PUSH1 0x40 MLOAD SWAP1 DUP2 ADD PUSH1 0x40 MSTORE DUP1 SWAP3 SWAP2 SWAP1 DUP2 DUP2 MSTORE PUSH1 0x20 ADD DUP3 DUP1 SLOAD PUSH2 0x4C8 SWAP1 PUSH2 0x21EF JUMP JUMPDEST DUP1 ISZERO PUSH2 0x513 JUMPI DUP1 PUSH1 0x1F LT PUSH2 0x4EA JUMPI PUSH2 0x100 DUP1 DUP4 SLOAD DIV MUL DUP4 MSTORE SWAP2 PUSH1 0x20 ADD SWAP2 PUSH2 0x513 JUMP JUMPDEST DUP3 ADD SWAP2 SWAP1 PUSH0 MSTORE PUSH1 0x20 PUSH0 KECCAK256 SWAP1 JUMPDEST DUP2 SLOAD DUP2 MSTORE SWAP1 PUSH1 0x1 ADD SWAP1 PUSH1 0x20 ADD DUP1 DUP4 GT PUSH2 0x4F6 JUMPI DUP3 SWAP1 SUB PUSH1 0x1F AND DUP3 ADD SWAP2 JUMPDEST POP POP POP POP POP DUP2 MSTORE PUSH1 0x20 ADD PUSH1 0x2 DUP3 ADD SLOAD DUP2 MSTORE POP POP DUP2 MSTORE PUSH1 0x20 ADD SWAP1 PUSH1 0x1 ADD SWAP1 PUSH2 0x462 JUMP JUMPDEST POP POP POP POP DUP2 MSTORE PUSH1 0x20 ADD PUSH1 0x3 DUP3 ADD SLOAD DUP2 MSTORE POP POP SWAP1 POP SWAP1 JUMP JUMPDEST PUSH2 0x554 PUSH2 0x1924 JUMP JUMPDEST PUSH0 PUSH1 0x2 PUSH0 PUSH1 0x1 SLOAD DUP2 MSTORE PUSH1 0x20 ADD SWAP1 DUP2 MSTORE PUSH1 0x20 ADD PUSH0 KECCAK256 SWAP1 POP PUSH0 PUSH1 0x5 DUP2 GT ISZERO PUSH2 0x57D JUMPI PUSH2 0x57C PUSH2 0x1B38 JUMP JUMPDEST JUMPDEST DUP2 PUSH0 ADD PUSH0 SWAP1 SLOAD SWAP1 PUSH2 0x100 EXP SWAP1 DIV PUSH1 0xFF AND PUSH1 0x5 DUP2 GT ISZERO PUSH2 0x59F JUMPI PUSH2 0x59E PUSH2 0x1B38 JUMP JUMPDEST JUMPDEST EQ PUSH2 0x5DF JUMPI PUSH1 0x40 MLOAD PUSH32 0x8C379A000000000000000000000000000000000000000000000000000000000 DUP2 MSTORE PUSH1 0x4 ADD PUSH2 0x5D6 SWAP1 PUSH2 0x229F JUMP JUMPDEST PUSH1 0x40 MLOAD DUP1 SWAP2 SUB SWAP1 REVERT JUMPDEST PUSH1 0x3 PUSH0 DUP4 PUSH20 0xFFFFFFFFFFFFFFFFFFFFFFFFFFFFFFFFFFFFFFFF AND PUSH20 0xFFFFFFFFFFFFFFFFFFFFFFFFFFFFFFFFFFFFFFFF AND DUP2 MSTORE PUSH1 0x20 ADD SWAP1 DUP2 MSTORE PUSH1 0x20 ADD PUSH0 KECCAK256 PUSH0 ADD PUSH0 SWAP1 SLOAD SWAP1 PUSH2 0x100 EXP SWAP1 DIV PUSH1 0xFF AND ISZERO PUSH2 0x66B JUMPI PUSH1 0x40 MLOAD PUSH32 0x8C379A000000000000000000000000000000000000000000000000000000000 DUP2 MSTORE PUSH1 0x4 ADD PUSH2 0x662 SWAP1 PUSH2 0x2307 JUMP JUMPDEST PUSH1 0x40 MLOAD DUP1 SWAP2 SUB SWAP1 REVERT JUMPDEST PUSH1 0x1 PUSH1 0x3 PUSH0 DUP5 PUSH20 0xFFFFFFFFFFFFFFFFFFFFFFFFFFFFFFFFFFFFFFFF AND PUSH20 0xFFFFFFFFFFFFFFFFFFFFFFFFFFFFFFFFFFFFFFFF AND DUP2 MSTORE PUSH1 0x20 ADD SWAP1 DUP2 MSTORE PUSH1 0x20 ADD PUSH0 KECCAK256 PUSH0 ADD PUSH0 PUSH2 0x100 EXP DUP2 SLOAD DUP2 PUSH1 0xFF MUL NOT AND SWAP1 DUP4 ISZERO ISZERO MUL OR SWAP1 SSTORE POP PUSH32 0xB6BE2187D059CC2A55FE29E0E503B566E1E0F8C8780096E185429350ACFFD3DD DUP3 PUSH1 0x40 MLOAD PUSH2 0x6F1 SWAP2 SWAP1 PUSH2 0x211C JUMP JUMPDEST PUSH1 0x40 MLOAD DUP1 SWAP2 SUB SWAP1 LOG1 POP POP JUMP JUMPDEST PUSH1 0x3 PUSH0 CALLER PUSH20 0xFFFFFFFFFFFFFFFFFFFFFFFFFFFFFFFFFFFFFFFF AND PUSH20 0xFFFFFFFFFFFFFFFFFFFFFFFFFFFFFFFFFFFFFFFF AND DUP2 MSTORE PUSH1 0x20 ADD SWAP1 DUP2 MSTORE PUSH1 0x20 ADD PUSH0 KECCAK256 PUSH0 ADD PUSH0 SWAP1 SLOAD SWAP1 PUSH2 0x100 EXP SWAP1 DIV PUSH1 0xFF AND PUSH2 0x788 JUMPI PUSH1 0x40 MLOAD PUSH32 0x8C379A000000000000000000000000000000000000000000000000000000000 DUP2 MSTORE PUSH1 0x4 ADD PUSH2 0x77F SWAP1 PUSH2 0x236F JUMP JUMPDEST PUSH1 0x40 MLOAD DUP1 SWAP2 SUB SWAP1 REVERT JUMPDEST PUSH0 DUP2 MLOAD GT PUSH2 0x7CB JUMPI PUSH1 0x40 MLOAD PUSH32 0x8C379A000000000000000000000000000000000000000000000000000000000 DUP2 MSTORE PUSH1 0x4 ADD PUSH2 0x7C2 SWAP1 PUSH2 0x23D7 JUMP JUMPDEST PUSH1 0x40 MLOAD DUP1 SWAP2 SUB SWAP1 REVERT JUMPDEST PUSH0 PUSH1 0x2 PUSH0 PUSH1 0x1 SLOAD DUP2 MSTORE PUSH1 0x20 ADD SWAP1 DUP2 MSTORE PUSH1 0x20 ADD PUSH0 KECCAK256 SWAP1 POP PUSH1 0x1 PUSH1 0x5 DUP2 GT ISZERO PUSH2 0x7F5 JUMPI PUSH2 0x7F4 PUSH2 0x1B38 JUMP JUMPDEST JUMPDEST DUP2 PUSH0 ADD PUSH0 SWAP1 SLOAD SWAP1 PUSH2 0x100 EXP SWAP1 DIV PUSH1 0xFF AND PUSH1 0x5 DUP2 GT ISZERO PUSH2 0x817 JUMPI PUSH2 0x816 PUSH2 0x1B38 JUMP JUMPDEST JUMPDEST EQ PUSH2 0x857 JUMPI PUSH1 0x40 MLOAD PUSH32 0x8C379A000000000000000000000000000000000000000000000000000000000 DUP2 MSTORE PUSH1 0x4 ADD PUSH2 0x84E SWAP1 PUSH2 0x2465 JUMP JUMPDEST PUSH1 0x40 MLOAD DUP1 SWAP2 SUB SWAP1 REVERT JUMPDEST PUSH0 DUP2 PUSH1 0x3 ADD SLOAD SWAP1 POP DUP2 PUSH1 0x2 ADD PUSH1 0x40 MLOAD DUP1 PUSH1 0x60 ADD PUSH1 0x40 MSTORE DUP1 DUP4 DUP2 MSTORE PUSH1 0x20 ADD DUP6 DUP2 MSTORE PUSH1 0x20 ADD PUSH0 DUP2 MSTORE POP SWAP1 DUP1 PUSH1 0x1 DUP2 SLOAD ADD DUP1 DUP3 SSTORE DUP1 SWAP2 POP POP PUSH1 0x1 SWAP1 SUB SWAP1 PUSH0 MSTORE PUSH1 0x20 PUSH0 KECCAK256 SWAP1 PUSH1 0x3 MUL ADD PUSH0 SWAP1 SWAP2 SWAP1 SWAP2 SWAP1 SWAP2 POP PUSH0 DUP3 ADD MLOAD DUP2 PUSH0 ADD SSTORE PUSH1 0x20 DUP3 ADD MLOAD DUP2 PUSH1 0x1 ADD SWAP1 DUP2 PUSH2 0x8C1 SWAP2 SWAP1 PUSH2 0x2623 JUMP JUMPDEST POP PUSH1 0x40 DUP3 ADD MLOAD DUP2 PUSH1 0x2 ADD SSTORE POP POP DUP2 PUSH1 0x3 ADD PUSH0 DUP2 SLOAD DUP1 SWAP3 SWAP2 SWAP1 PUSH2 0x8E2 SWAP1 PUSH2 0x217B JUMP JUMPDEST SWAP2 SWAP1 POP SSTORE POP PUSH1 0x3 PUSH0 CALLER PUSH20 0xFFFFFFFFFFFFFFFFFFFFFFFFFFFFFFFFFFFFFFFF AND PUSH20 0xFFFFFFFFFFFFFFFFFFFFFFFFFFFFFFFFFFFFFFFF AND DUP2 MSTORE PUSH1 0x20 ADD SWAP1 DUP2 MSTORE PUSH1 0x20 ADD PUSH0 KECCAK256 PUSH1 0x3 ADD DUP2 SWAP1 DUP1 PUSH1 0x1 DUP2 SLOAD ADD DUP1 DUP3 SSTORE DUP1 SWAP2 POP POP PUSH1 0x1 SWAP1 SUB SWAP1 PUSH0 MSTORE PUSH1 0x20 PUSH0 KECCAK256 ADD PUSH0 SWAP1 SWAP2 SWAP1 SWAP2 SWAP1 SWAP2 POP SSTORE PUSH32 0xCA195036D7C4D40B171AD51E9C891C830A0AD9A5E114B5B075CDF791317E300C PUSH1 0x1 SLOAD DUP3 PUSH1 0x40 MLOAD PUSH2 0x97E SWAP3 SWAP2 SWAP1 PUSH2 0x26F2 JUMP JUMPDEST PUSH1 0x40 MLOAD DUP1 SWAP2 SUB SWAP1 LOG1 POP POP POP JUMP JUMPDEST PUSH2 0x993 PUSH2 0x1AAA JUMP JUMPDEST PUSH0 PUSH1 0x2 PUSH0 DUP5 DUP2 MSTORE PUSH1 0x20 ADD SWAP1 DUP2 MSTORE PUSH1 0x20 ADD PUSH0 KECCAK256 SWAP1 POP PUSH1 0x5 DUP1 DUP2 GT ISZERO PUSH2 0x9BA JUMPI PUSH2 0x9B9 PUSH2 0x1B38 JUMP JUMPDEST JUMPDEST DUP2 PUSH0 ADD PUSH0 SWAP1 SLOAD SWAP1 PUSH2 0x100 EXP SWAP1 DIV PUSH1 0xFF AND PUSH1 0x5 DUP2 GT ISZERO PUSH2 0x9DC JUMPI PUSH2 0x9DB PUSH2 0x1B38 JUMP JUMPDEST JUMPDEST EQ PUSH2 0xA1C JUMPI PUSH1 0x40 MLOAD PUSH32 0x8C379A000000000000000000000000000000000000000000000000000000000 DUP2 MSTORE PUSH1 0x4 ADD PUSH2 0xA13 SWAP1 PUSH2 0x2763 JUMP JUMPDEST PUSH1 0x40 MLOAD DUP1 SWAP2 SUB SWAP1 REVERT JUMPDEST DUP1 PUSH1 0x2 ADD DUP2 PUSH1 0x1 ADD SLOAD DUP2 SLOAD DUP2 LT PUSH2 0xA36 JUMPI PUSH2 0xA35 PUSH2 0x2781 JUMP JUMPDEST JUMPDEST SWAP1 PUSH0 MSTORE PUSH1 0x20 PUSH0 KECCAK256 SWAP1 PUSH1 0x3 MUL ADD PUSH1 0x40 MLOAD DUP1 PUSH1 0x60 ADD PUSH1 0x40 MSTORE SWAP1 DUP2 PUSH0 DUP3 ADD SLOAD DUP2 MSTORE PUSH1 0x20 ADD PUSH1 0x1 DUP3 ADD DUP1 SLOAD PUSH2 0xA66 SWAP1 PUSH2 0x21EF JUMP JUMPDEST DUP1 PUSH1 0x1F ADD PUSH1 0x20 DUP1 SWAP2 DIV MUL PUSH1 0x20 ADD PUSH1 0x40 MLOAD SWAP1 DUP2 ADD PUSH1 0x40 MSTORE DUP1 SWAP3 SWAP2 SWAP1 DUP2 DUP2 MSTORE PUSH1 0x20 ADD DUP3 DUP1 SLOAD PUSH2 0xA92 SWAP1 PUSH2 0x21EF JUMP JUMPDEST DUP1 ISZERO PUSH2 0xADD JUMPI DUP1 PUSH1 0x1F LT PUSH2 0xAB4 JUMPI PUSH2 0x100 DUP1 DUP4 SLOAD DIV MUL DUP4 MSTORE SWAP2 PUSH1 0x20 ADD SWAP2 PUSH2 0xADD JUMP JUMPDEST DUP3 ADD SWAP2 SWAP1 PUSH0 MSTORE PUSH1 0x20 PUSH0 KECCAK256 SWAP1 JUMPDEST DUP2 SLOAD DUP2 MSTORE SWAP1 PUSH1 0x1 ADD SWAP1 PUSH1 0x20 ADD DUP1 DUP4 GT PUSH2 0xAC0 JUMPI DUP3 SWAP1 SUB PUSH1 0x1F AND DUP3 ADD SWAP2 JUMPDEST POP POP POP POP POP DUP2 MSTORE PUSH1 0x20 ADD PUSH1 0x2 DUP3 ADD SLOAD DUP2 MSTORE POP POP SWAP2 POP POP SWAP2 SWAP1 POP JUMP JUMPDEST PUSH1 0x60 PUSH0 PUSH1 0x2 PUSH0 PUSH1 0x1 SLOAD DUP2 MSTORE PUSH1 0x20 ADD SWAP1 DUP2 MSTORE PUSH1 0x20 ADD PUSH0 KECCAK256 SWAP1 POP DUP1 PUSH1 0x2 ADD DUP1 SLOAD DUP1 PUSH1 0x20 MUL PUSH1 0x20 ADD PUSH1 0x40 MLOAD SWAP1 DUP2 ADD PUSH1 0x40 MSTORE DUP1 SWAP3 SWAP2 SWAP1 DUP2 DUP2 MSTORE PUSH1 0x20 ADD PUSH0 SWAP1 JUMPDEST DUP3 DUP3 LT ISZERO PUSH2 0xC06 JUMPI DUP4 DUP3 SWAP1 PUSH0 MSTORE PUSH1 0x20 PUSH0 KECCAK256 SWAP1 PUSH1 0x3 MUL ADD PUSH1 0x40 MLOAD DUP1 PUSH1 0x60 ADD PUSH1 0x40 MSTORE SWAP1 DUP2 PUSH0 DUP3 ADD SLOAD DUP2 MSTORE PUSH1 0x20 ADD PUSH1 0x1 DUP3 ADD DUP1 SLOAD PUSH2 0xB6D SWAP1 PUSH2 0x21EF JUMP JUMPDEST DUP1 PUSH1 0x1F ADD PUSH1 0x20 DUP1 SWAP2 DIV MUL PUSH1 0x20 ADD PUSH1 0x40 MLOAD SWAP1 DUP2 ADD PUSH1 0x40 MSTORE DUP1 SWAP3 SWAP2 SWAP1 DUP2 DUP2 MSTORE PUSH1 0x20 ADD DUP3 DUP1 SLOAD PUSH2 0xB99 SWAP1 PUSH2 0x21EF JUMP JUMPDEST DUP1 ISZERO PUSH2 0xBE4 JUMPI DUP1 PUSH1 0x1F LT PUSH2 0xBBB JUMPI PUSH2 0x100 DUP1 DUP4 SLOAD DIV MUL DUP4 MSTORE SWAP2 PUSH1 0x20 ADD SWAP2 PUSH2 0xBE4 JUMP JUMPDEST DUP3 ADD SWAP2 SWAP1 PUSH0 MSTORE PUSH1 0x20 PUSH0 KECCAK256 SWAP1 JUMPDEST DUP2 SLOAD DUP2 MSTORE SWAP1 PUSH1 0x1 ADD SWAP1 PUSH1 0x20 ADD DUP1 DUP4 GT PUSH2 0xBC7 JUMPI DUP3 SWAP1 SUB PUSH1 0x1F AND DUP3 ADD SWAP2 JUMPDEST POP POP POP POP POP DUP2 MSTORE PUSH1 0x20 ADD PUSH1 0x2 DUP3 ADD SLOAD DUP2 MSTORE POP POP DUP2 MSTORE PUSH1 0x20 ADD SWAP1 PUSH1 0x1 ADD SWAP1 PUSH2 0xB33 JUMP JUMPDEST POP POP POP POP SWAP2 POP POP SWAP1 JUMP JUMPDEST PUSH2 0xC18 PUSH2 0x1924 JUMP JUMPDEST PUSH0 PUSH1 0x2 PUSH0 PUSH1 0x1 SLOAD DUP2 MSTORE PUSH1 0x20 ADD SWAP1 DUP2 MSTORE PUSH1 0x20 ADD PUSH0 KECCAK256 SWAP1 POP PUSH1 0x1 PUSH1 0x5 DUP2 GT ISZERO PUSH2 0xC42 JUMPI PUSH2 0xC41 PUSH2 0x1B38 JUMP JUMPDEST JUMPDEST DUP2 PUSH0 ADD PUSH0 SWAP1 SLOAD SWAP1 PUSH2 0x100 EXP SWAP1 DIV PUSH1 0xFF AND PUSH1 0x5 DUP2 GT ISZERO PUSH2 0xC64 JUMPI PUSH2 0xC63 PUSH2 0x1B38 JUMP JUMPDEST JUMPDEST EQ PUSH2 0xCA4 JUMPI PUSH1 0x40 MLOAD PUSH32 0x8C379A000000000000000000000000000000000000000000000000000000000 DUP2 MSTORE PUSH1 0x4 ADD PUSH2 0xC9B SWAP1 PUSH2 0x281E JUMP JUMPDEST PUSH1 0x40 MLOAD DUP1 SWAP2 SUB SWAP1 REVERT JUMPDEST PUSH0 DUP2 PUSH0 ADD PUSH0 SWAP1 SLOAD SWAP1 PUSH2 0x100 EXP SWAP1 DIV PUSH1 0xFF AND SWAP1 POP PUSH1 0x2 DUP3 PUSH0 ADD PUSH0 PUSH2 0x100 EXP DUP2 SLOAD DUP2 PUSH1 0xFF MUL NOT AND SWAP1 DUP4 PUSH1 0x5 DUP2 GT ISZERO PUSH2 0xCDD JUMPI PUSH2 0xCDC PUSH2 0x1B38 JUMP JUMPDEST JUMPDEST MUL OR SWAP1 SSTORE POP PUSH32 0xA97A4EE45751E2ABF3E4FC8946939630B11B371EA8AE39CCDC3056E98F5CC3F DUP2 DUP4 PUSH0 ADD PUSH0 SWAP1 SLOAD SWAP1 PUSH2 0x100 EXP SWAP1 DIV PUSH1 0xFF AND PUSH1 0x40 MLOAD PUSH2 0xD22 SWAP3 SWAP2 SWAP1 PUSH2 0x283C JUMP JUMPDEST PUSH1 0x40 MLOAD DUP1 SWAP2 SUB SWAP1 LOG1 POP POP JUMP JUMPDEST PUSH2 0xD36 PUSH2 0x1924 JUMP JUMPDEST PUSH2 0xD3F PUSH0 PUSH2 0x19AB JUMP JUMPDEST JUMP JUMPDEST PUSH2 0xD49 PUSH2 0x1924 JUMP JUMPDEST PUSH0 PUSH1 0x2 PUSH0 PUSH1 0x1 SLOAD DUP2 MSTORE PUSH1 0x20 ADD SWAP1 DUP2 MSTORE PUSH1 0x20 ADD PUSH0 KECCAK256 SWAP1 POP PUSH0 PUSH1 0x5 DUP2 GT ISZERO PUSH2 0xD72 JUMPI PUSH2 0xD71 PUSH2 0x1B38 JUMP JUMPDEST JUMPDEST DUP2 PUSH0 ADD PUSH0 SWAP1 SLOAD SWAP1 PUSH2 0x100 EXP SWAP1 DIV PUSH1 0xFF AND PUSH1 0x5 DUP2 GT ISZERO PUSH2 0xD94 JUMPI PUSH2 0xD93 PUSH2 0x1B38 JUMP JUMPDEST JUMPDEST EQ PUSH2 0xDD4 JUMPI PUSH1 0x40 MLOAD PUSH32 0x8C379A000000000000000000000000000000000000000000000000000000000 DUP2 MSTORE PUSH1 0x4 ADD PUSH2 0xDCB SWAP1 PUSH2 0x28D3 JUMP JUMPDEST PUSH1 0x40 MLOAD DUP1 SWAP2 SUB SWAP1 REVERT JUMPDEST PUSH1 0x3 PUSH0 DUP4 PUSH20 0xFFFFFFFFFFFFFFFFFFFFFFFFFFFFFFFFFFFFFFFF AND PUSH20 0xFFFFFFFFFFFFFFFFFFFFFFFFFFFFFFFFFFFFFFFF AND DUP2 MSTORE PUSH1 0x20 ADD SWAP1 DUP2 MSTORE PUSH1 0x20 ADD PUSH0 KECCAK256 PUSH0 ADD PUSH0 SWAP1 SLOAD SWAP1 PUSH2 0x100 EXP SWAP1 DIV PUSH1 0xFF AND PUSH2 0xE5F JUMPI PUSH1 0x40 MLOAD PUSH32 0x8C379A000000000000000000000000000000000000000000000000000000000 DUP2 MSTORE PUSH1 0x4 ADD PUSH2 0xE56 SWAP1 PUSH2 0x293B JUMP JUMPDEST PUSH1 0x40 MLOAD DUP1 SWAP2 SUB SWAP1 REVERT JUMPDEST PUSH0 PUSH1 0x3 PUSH0 DUP5 PUSH20 0xFFFFFFFFFFFFFFFFFFFFFFFFFFFFFFFFFFFFFFFF AND PUSH20 0xFFFFFFFFFFFFFFFFFFFFFFFFFFFFFFFFFFFFFFFF AND DUP2 MSTORE PUSH1 0x20 ADD SWAP1 DUP2 MSTORE PUSH1 0x20 ADD PUSH0 KECCAK256 PUSH0 ADD PUSH0 PUSH2 0x100 EXP DUP2 SLOAD DUP2 PUSH1 0xFF MUL NOT AND SWAP1 DUP4 ISZERO ISZERO MUL OR SWAP1 SSTORE POP PUSH32 0x25FC2460244A2FFF1D6879302EA1D6F3E684E599D76C012A22E42D5BB61CC5D7 DUP3 PUSH1 0x40 MLOAD PUSH2 0xEE4 SWAP2 SWAP1 PUSH2 0x211C JUMP JUMPDEST PUSH1 0x40 MLOAD DUP1 SWAP2 SUB SWAP1 LOG1 POP POP JUMP JUMPDEST PUSH2 0xEF8 PUSH2 0x1924 JUMP JUMPDEST PUSH0 PUSH1 0x2 PUSH0 PUSH1 0x1 SLOAD DUP2 MSTORE PUSH1 0x20 ADD SWAP1 DUP2 MSTORE PUSH1 0x20 ADD PUSH0 KECCAK256 SWAP1 POP PUSH1 0x4 PUSH1 0x5 DUP2 GT ISZERO PUSH2 0xF22 JUMPI PUSH2 0xF21 PUSH2 0x1B38 JUMP JUMPDEST JUMPDEST DUP2 PUSH0 ADD PUSH0 SWAP1 SLOAD SWAP1 PUSH2 0x100 EXP SWAP1 DIV PUSH1 0xFF AND PUSH1 0x5 DUP2 GT ISZERO PUSH2 0xF44 JUMPI PUSH2 0xF43 PUSH2 0x1B38 JUMP JUMPDEST JUMPDEST EQ PUSH2 0xF84 JUMPI PUSH1 0x40 MLOAD PUSH32 0x8C379A000000000000000000000000000000000000000000000000000000000 DUP2 MSTORE PUSH1 0x4 ADD PUSH2 0xF7B SWAP1 PUSH2 0x29A3 JUMP JUMPDEST PUSH1 0x40 MLOAD DUP1 SWAP2 SUB SWAP1 REVERT JUMPDEST PUSH0 DUP2 PUSH1 0x2 ADD DUP1 SLOAD SWAP1 POP GT PUSH2 0xFCD JUMPI PUSH1 0x40 MLOAD PUSH32 0x8C379A000000000000000000000000000000000000000000000000000000000 DUP2 MSTORE PUSH1 0x4 ADD PUSH2 0xFC4 SWAP1 PUSH2 0x2A0B JUMP JUMPDEST PUSH1 0x40 MLOAD DUP1 SWAP2 SUB SWAP1 REVERT JUMPDEST PUSH0 PUSH0 SWAP1 POP PUSH0 PUSH0 SWAP1 POP PUSH0 PUSH0 SWAP1 POP JUMPDEST DUP4 PUSH1 0x2 ADD DUP1 SLOAD SWAP1 POP DUP2 LT ISZERO PUSH2 0x1073 JUMPI DUP3 DUP5 PUSH1 0x2 ADD DUP3 DUP2 SLOAD DUP2 LT PUSH2 0x1000 JUMPI PUSH2 0xFFF PUSH2 0x2781 JUMP JUMPDEST JUMPDEST SWAP1 PUSH0 MSTORE PUSH1 0x20 PUSH0 KECCAK256 SWAP1 PUSH1 0x3 MUL ADD PUSH1 0x2 ADD SLOAD GT ISZERO PUSH2 0x1066 JUMPI DUP4 PUSH1 0x2 ADD DUP2 DUP2 SLOAD DUP2 LT PUSH2 0x102C JUMPI PUSH2 0x102B PUSH2 0x2781 JUMP JUMPDEST JUMPDEST SWAP1 PUSH0 MSTORE PUSH1 0x20 PUSH0 KECCAK256 SWAP1 PUSH1 0x3 MUL ADD PUSH1 0x2 ADD SLOAD SWAP3 POP DUP4 PUSH1 0x2 ADD DUP2 DUP2 SLOAD DUP2 LT PUSH2 0x1054 JUMPI PUSH2 0x1053 PUSH2 0x2781 JUMP JUMPDEST JUMPDEST SWAP1 PUSH0 MSTORE PUSH1 0x20 PUSH0 KECCAK256 SWAP1 PUSH1 0x3 MUL ADD PUSH0 ADD SLOAD SWAP2 POP JUMPDEST DUP1 DUP1 PUSH1 0x1 ADD SWAP2 POP POP PUSH2 0xFDA JUMP JUMPDEST POP DUP1 DUP4 PUSH1 0x1 ADD DUP2 SWAP1 SSTORE POP PUSH0 DUP4 PUSH0 ADD PUSH0 SWAP1 SLOAD SWAP1 PUSH2 0x100 EXP SWAP1 DIV PUSH1 0xFF AND SWAP1 POP PUSH1 0x5 DUP5 PUSH0 ADD PUSH0 PUSH2 0x100 EXP DUP2 SLOAD DUP2 PUSH1 0xFF MUL NOT AND SWAP1 DUP4 PUSH1 0x5 DUP2 GT ISZERO PUSH2 0x10B6 JUMPI PUSH2 0x10B5 PUSH2 0x1B38 JUMP JUMPDEST JUMPDEST MUL OR SWAP1 SSTORE POP PUSH32 0xA97A4EE45751E2ABF3E4FC8946939630B11B371EA8AE39CCDC3056E98F5CC3F DUP2 DUP6 PUSH0 ADD PUSH0 SWAP1 SLOAD SWAP1 PUSH2 0x100 EXP SWAP1 DIV PUSH1 0xFF AND PUSH1 0x40 MLOAD PUSH2 0x10FB SWAP3 SWAP2 SWAP1 PUSH2 0x283C JUMP JUMPDEST PUSH1 0x40 MLOAD DUP1 SWAP2 SUB SWAP1 LOG1 POP POP POP POP JUMP JUMPDEST PUSH0 PUSH0 PUSH0 SWAP1 SLOAD SWAP1 PUSH2 0x100 EXP SWAP1 DIV PUSH20 0xFFFFFFFFFFFFFFFFFFFFFFFFFFFFFFFFFFFFFFFF AND SWAP1 POP SWAP1 JUMP JUMPDEST PUSH1 0x1 SLOAD DUP2 JUMP JUMPDEST PUSH2 0x113E PUSH2 0x1924 JUMP JUMPDEST PUSH0 PUSH1 0x2 PUSH0 PUSH1 0x1 SLOAD DUP2 MSTORE PUSH1 0x20 ADD SWAP1 DUP2 MSTORE PUSH1 0x20 ADD PUSH0 KECCAK256 SWAP1 POP PUSH1 0x3 PUSH1 0x5 DUP2 GT ISZERO PUSH2 0x1168 JUMPI PUSH2 0x1167 PUSH2 0x1B38 JUMP JUMPDEST JUMPDEST DUP2 PUSH0 ADD PUSH0 SWAP1 SLOAD SWAP1 PUSH2 0x100 EXP SWAP1 DIV PUSH1 0xFF AND PUSH1 0x5 DUP2 GT ISZERO PUSH2 0x118A JUMPI PUSH2 0x1189 PUSH2 0x1B38 JUMP JUMPDEST JUMPDEST EQ PUSH2 0x11CA JUMPI PUSH1 0x40 MLOAD PUSH32 0x8C379A000000000000000000000000000000000000000000000000000000000 DUP2 MSTORE PUSH1 0x4 ADD PUSH2 0x11C1 SWAP1 PUSH2 0x2A73 JUMP JUMPDEST PUSH1 0x40 MLOAD DUP1 SWAP2 SUB SWAP1 REVERT JUMPDEST PUSH0 DUP2 PUSH0 ADD PUSH0 SWAP1 SLOAD SWAP1 PUSH2 0x100 EXP SWAP1 DIV PUSH1 0xFF AND SWAP1 POP PUSH1 0x4 DUP3 PUSH0 ADD PUSH0 PUSH2 0x100 EXP DUP2 SLOAD DUP2 PUSH1 0xFF MUL NOT AND SWAP1 DUP4 PUSH1 0x5 DUP2 GT ISZERO PUSH2 0x1203 JUMPI PUSH2 0x1202 PUSH2 0x1B38 JUMP JUMPDEST JUMPDEST MUL OR SWAP1 SSTORE POP PUSH32 0xA97A4EE45751E2ABF3E4FC8946939630B11B371EA8AE39CCDC3056E98F5CC3F DUP2 DUP4 PUSH0 ADD PUSH0 SWAP1 SLOAD SWAP1 PUSH2 0x100 EXP SWAP1 DIV PUSH1 0xFF AND PUSH1 0x40 MLOAD PUSH2 0x1248 SWAP3 SWAP2 SWAP1 PUSH2 0x283C JUMP JUMPDEST PUSH1 0x40 MLOAD DUP1 SWAP2 SUB SWAP1 LOG1 POP POP JUMP JUMPDEST PUSH1 0x3 PUSH0 CALLER PUSH20 0xFFFFFFFFFFFFFFFFFFFFFFFFFFFFFFFFFFFFFFFF AND PUSH20 0xFFFFFFFFFFFFFFFFFFFFFFFFFFFFFFFFFFFFFFFF AND DUP2 MSTORE PUSH1 0x20 ADD SWAP1 DUP2 MSTORE PUSH1 0x20 ADD PUSH0 KECCAK256 PUSH0 ADD PUSH0 SWAP1 SLOAD SWAP1 PUSH2 0x100 EXP SWAP1 DIV PUSH1 0xFF AND PUSH2 0x12DF JUMPI PUSH1 0x40 MLOAD PUSH32 0x8C379A000000000000000000000000000000000000000000000000000000000 DUP2 MSTORE PUSH1 0x4 ADD PUSH2 0x12D6 SWAP1 PUSH2 0x236F JUMP JUMPDEST PUSH1 0x40 MLOAD DUP1 SWAP2 SUB SWAP1 REVERT JUMPDEST PUSH0 PUSH1 0x2 PUSH0 PUSH1 0x1 SLOAD DUP2 MSTORE PUSH1 0x20 ADD SWAP1 DUP2 MSTORE PUSH1 0x20 ADD PUSH0 KECCAK256 SWAP1 POP PUSH1 0x3 PUSH1 0x5 DUP2 GT ISZERO PUSH2 0x1309 JUMPI PUSH2 0x1308 PUSH2 0x1B38 JUMP JUMPDEST JUMPDEST DUP2 PUSH0 ADD PUSH0 SWAP1 SLOAD SWAP1 PUSH2 0x100 EXP SWAP1 DIV PUSH1 0xFF AND PUSH1 0x5 DUP2 GT ISZERO PUSH2 0x132B JUMPI PUSH2 0x132A PUSH2 0x1B38 JUMP JUMPDEST JUMPDEST EQ PUSH2 0x136B JUMPI PUSH1 0x40 MLOAD PUSH32 0x8C379A000000000000000000000000000000000000000000000000000000000 DUP2 MSTORE PUSH1 0x4 ADD PUSH2 0x1362 SWAP1 PUSH2 0x2A73 JUMP JUMPDEST PUSH1 0x40 MLOAD DUP1 SWAP2 SUB SWAP1 REVERT JUMPDEST DUP1 PUSH1 0x2 ADD DUP1 SLOAD SWAP1 POP DUP3 LT PUSH2 0x13B4 JUMPI PUSH1 0x40 MLOAD PUSH32 0x8C379A000000000000000000000000000000000000000000000000000000000 DUP2 MSTORE PUSH1 0x4 ADD PUSH2 0x13AB SWAP1 PUSH2 0x2ADB JUMP JUMPDEST PUSH1 0x40 MLOAD DUP1 SWAP2 SUB SWAP1 REVERT JUMPDEST PUSH0 PUSH1 0x3 PUSH0 CALLER PUSH20 0xFFFFFFFFFFFFFFFFFFFFFFFFFFFFFFFFFFFFFFFF AND PUSH20 0xFFFFFFFFFFFFFFFFFFFFFFFFFFFFFFFFFFFFFFFF AND DUP2 MSTORE PUSH1 0x20 ADD SWAP1 DUP2 MSTORE PUSH1 0x20 ADD PUSH0 KECCAK256 SWAP1 POP DUP1 PUSH1 0x1 ADD PUSH0 PUSH1 0x1 SLOAD DUP2 MSTORE PUSH1 0x20 ADD SWAP1 DUP2 MSTORE PUSH1 0x20 ADD PUSH0 KECCAK256 PUSH0 SWAP1 SLOAD SWAP1 PUSH2 0x100 EXP SWAP1 DIV PUSH1 0xFF AND ISZERO PUSH2 0x1456 JUMPI PUSH1 0x40 MLOAD PUSH32 0x8C379A000000000000000000000000000000000000000000000000000000000 DUP2 MSTORE PUSH1 0x4 ADD PUSH2 0x144D SWAP1 PUSH2 0x2B69 JUMP JUMPDEST PUSH1 0x40 MLOAD DUP1 SWAP2 SUB SWAP1 REVERT JUMPDEST PUSH1 0x1 DUP2 PUSH1 0x1 ADD PUSH0 PUSH1 0x1 SLOAD DUP2 MSTORE PUSH1 0x20 ADD SWAP1 DUP2 MSTORE PUSH1 0x20 ADD PUSH0 KECCAK256 PUSH0 PUSH2 0x100 EXP DUP2 SLOAD DUP2 PUSH1 0xFF MUL NOT AND SWAP1 DUP4 ISZERO ISZERO MUL OR SWAP1 SSTORE POP DUP1 PUSH1 0x2 ADD PUSH1 0x1 SLOAD SWAP1 DUP1 PUSH1 0x1 DUP2 SLOAD ADD DUP1 DUP3 SSTORE DUP1 SWAP2 POP POP PUSH1 0x1 SWAP1 SUB SWAP1 PUSH0 MSTORE PUSH1 0x20 PUSH0 KECCAK256 ADD PUSH0 SWAP1 SWAP2 SWAP1 SWAP2 SWAP1 SWAP2 POP SSTORE DUP1 PUSH1 0x3 ADD DUP4 SWAP1 DUP1 PUSH1 0x1 DUP2 SLOAD ADD DUP1 DUP3 SSTORE DUP1 SWAP2 POP POP PUSH1 0x1 SWAP1 SUB SWAP1 PUSH0 MSTORE PUSH1 0x20 PUSH0 KECCAK256 ADD PUSH0 SWAP1 SWAP2 SWAP1 SWAP2 SWAP1 SWAP2 POP SSTORE DUP2 PUSH1 0x2 ADD DUP4 DUP2 SLOAD DUP2 LT PUSH2 0x14EB JUMPI PUSH2 0x14EA PUSH2 0x2781 JUMP JUMPDEST JUMPDEST SWAP1 PUSH0 MSTORE PUSH1 0x20 PUSH0 KECCAK256 SWAP1 PUSH1 0x3 MUL ADD PUSH1 0x2 ADD PUSH0 DUP2 SLOAD DUP1 SWAP3 SWAP2 SWAP1 PUSH2 0x150A SWAP1 PUSH2 0x217B JUMP JUMPDEST SWAP2 SWAP1 POP SSTORE POP PUSH32 0x4D99B957A2BC29A30EBD96A7BE8E68FE50A3C701DB28A91436490B7D53870CA4 CALLER DUP5 PUSH1 0x40 MLOAD PUSH2 0x1540 SWAP3 SWAP2 SWAP1 PUSH2 0x2B87 JUMP JUMPDEST PUSH1 0x40 MLOAD DUP1 SWAP2 SUB SWAP1 LOG1 POP POP POP JUMP JUMPDEST PUSH2 0x1555 PUSH2 0x1924 JUMP JUMPDEST PUSH0 PUSH1 0x2 PUSH0 PUSH1 0x1 SLOAD DUP2 MSTORE PUSH1 0x20 ADD SWAP1 DUP2 MSTORE PUSH1 0x20 ADD PUSH0 KECCAK256 SWAP1 POP PUSH0 PUSH1 0x5 DUP2 GT ISZERO PUSH2 0x157E JUMPI PUSH2 0x157D PUSH2 0x1B38 JUMP JUMPDEST JUMPDEST DUP2 PUSH0 ADD PUSH0 SWAP1 SLOAD SWAP1 PUSH2 0x100 EXP SWAP1 DIV PUSH1 0xFF AND PUSH1 0x5 DUP2 GT ISZERO PUSH2 0x15A0 JUMPI PUSH2 0x159F PUSH2 0x1B38 JUMP JUMPDEST JUMPDEST EQ PUSH2 0x15E0 JUMPI PUSH1 0x40 MLOAD PUSH32 0x8C379A000000000000000000000000000000000000000000000000000000000 DUP2 MSTORE PUSH1 0x4 ADD PUSH2 0x15D7 SWAP1 PUSH2 0x2C1E JUMP JUMPDEST PUSH1 0x40 MLOAD DUP1 SWAP2 SUB SWAP1 REVERT JUMPDEST PUSH0 DUP2 PUSH0 ADD PUSH0 SWAP1 SLOAD SWAP1 PUSH2 0x100 EXP SWAP1 DIV PUSH1 0xFF AND SWAP1 POP PUSH1 0x1 DUP3 PUSH0 ADD PUSH0 PUSH2 0x100 EXP DUP2 SLOAD DUP2 PUSH1 0xFF MUL NOT AND SWAP1 DUP4 PUSH1 0x5 DUP2 GT ISZERO PUSH2 0x1619 JUMPI PUSH2 0x1618 PUSH2 0x1B38 JUMP JUMPDEST JUMPDEST MUL OR SWAP1 SSTORE POP PUSH32 0xA97A4EE45751E2ABF3E4FC8946939630B11B371EA8AE39CCDC3056E98F5CC3F DUP2 DUP4 PUSH0 ADD PUSH0 SWAP1 SLOAD SWAP1 PUSH2 0x100 EXP SWAP1 DIV PUSH1 0xFF AND PUSH1 0x40 MLOAD PUSH2 0x165E SWAP3 SWAP2 SWAP1 PUSH2 0x283C JUMP JUMPDEST PUSH1 0x40 MLOAD DUP1 SWAP2 SUB SWAP1 LOG1 POP POP JUMP JUMPDEST PUSH2 0x1672 PUSH2 0x1924 JUMP JUMPDEST PUSH0 PUSH1 0x2 PUSH0 PUSH1 0x1 SLOAD DUP2 MSTORE PUSH1 0x20 ADD SWAP1 DUP2 MSTORE PUSH1 0x20 ADD PUSH0 KECCAK256 SWAP1 POP PUSH1 0x2 PUSH1 0x5 DUP2 GT ISZERO PUSH2 0x169C JUMPI PUSH2 0x169B PUSH2 0x1B38 JUMP JUMPDEST JUMPDEST DUP2 PUSH0 ADD PUSH0 SWAP1 SLOAD SWAP1 PUSH2 0x100 EXP SWAP1 DIV PUSH1 0xFF AND PUSH1 0x5 DUP2 GT ISZERO PUSH2 0x16BE JUMPI PUSH2 0x16BD PUSH2 0x1B38 JUMP JUMPDEST JUMPDEST EQ PUSH2 0x16FE JUMPI PUSH1 0x40 MLOAD PUSH32 0x8C379A000000000000000000000000000000000000000000000000000000000 DUP2 MSTORE PUSH1 0x4 ADD PUSH2 0x16F5 SWAP1 PUSH2 0x2C86 JUMP JUMPDEST PUSH1 0x40 MLOAD DUP1 SWAP2 SUB SWAP1 REVERT JUMPDEST PUSH0 DUP2 PUSH0 ADD PUSH0 SWAP1 SLOAD SWAP1 PUSH2 0x100 EXP SWAP1 DIV PUSH1 0xFF AND SWAP1 POP PUSH1 0x3 DUP3 PUSH0 ADD PUSH0 PUSH2 0x100 EXP DUP2 SLOAD DUP2 PUSH1 0xFF MUL NOT AND SWAP1 DUP4 PUSH1 0x5 DUP2 GT ISZERO PUSH2 0x1737 JUMPI PUSH2 0x1736 PUSH2 0x1B38 JUMP JUMPDEST JUMPDEST MUL OR SWAP1 SSTORE POP PUSH32 0xA97A4EE45751E2ABF3E4FC8946939630B11B371EA8AE39CCDC3056E98F5CC3F DUP2 DUP4 PUSH0 ADD PUSH0 SWAP1 SLOAD SWAP1 PUSH2 0x100 EXP SWAP1 DIV PUSH1 0xFF AND PUSH1 0x40 MLOAD PUSH2 0x177C SWAP3 SWAP2 SWAP1 PUSH2 0x283C JUMP JUMPDEST PUSH1 0x40 MLOAD DUP1 SWAP2 SUB SWAP1 LOG1 POP POP JUMP JUMPDEST PUSH2 0x1790 PUSH2 0x1924 JUMP JUMPDEST PUSH0 PUSH20 0xFFFFFFFFFFFFFFFFFFFFFFFFFFFFFFFFFFFFFFFF AND DUP2 PUSH20 0xFFFFFFFFFFFFFFFFFFFFFFFFFFFFFFFFFFFFFFFF AND SUB PUSH2 0x1800 JUMPI PUSH0 PUSH1 0x40 MLOAD PUSH32 0x1E4FBDF700000000000000000000000000000000000000000000000000000000 DUP2 MSTORE PUSH1 0x4 ADD PUSH2 0x17F7 SWAP2 SWAP1 PUSH2 0x211C JUMP JUMPDEST PUSH1 0x40 MLOAD DUP1 SWAP2 SUB SWAP1 REVERT JUMPDEST PUSH2 0x1809 DUP2 PUSH2 0x19AB JUMP JUMPDEST POP JUMP JUMPDEST PUSH1 0x60 PUSH0 PUSH1 0x2 PUSH0 DUP5 DUP2 MSTORE PUSH1 0x20 ADD SWAP1 DUP2 MSTORE PUSH1 0x20 ADD PUSH0 KECCAK256 SWAP1 POP DUP1 PUSH1 0x2 ADD DUP1 SLOAD DUP1 PUSH1 0x20 MUL PUSH1 0x20 ADD PUSH1 0x40 MLOAD SWAP1 DUP2 ADD PUSH1 0x40 MSTORE DUP1 SWAP3 SWAP2 SWAP1 DUP2 DUP2 MSTORE PUSH1 0x20 ADD PUSH0 SWAP1 JUMPDEST DUP3 DUP3 LT ISZERO PUSH2 0x1918 JUMPI DUP4 DUP3 SWAP1 PUSH0 MSTORE PUSH1 0x20 PUSH0 KECCAK256 SWAP1 PUSH1 0x3 MUL ADD PUSH1 0x40 MLOAD DUP1 PUSH1 0x60 ADD PUSH1 0x40 MSTORE SWAP1 DUP2 PUSH0 DUP3 ADD SLOAD DUP2 MSTORE PUSH1 0x20 ADD PUSH1 0x1 DUP3 ADD DUP1 SLOAD PUSH2 0x187F SWAP1 PUSH2 0x21EF JUMP JUMPDEST DUP1 PUSH1 0x1F ADD PUSH1 0x20 DUP1 SWAP2 DIV MUL PUSH1 0x20 ADD PUSH1 0x40 MLOAD SWAP1 DUP2 ADD PUSH1 0x40 MSTORE DUP1 SWAP3 SWAP2 SWAP1 DUP2 DUP2 MSTORE PUSH1 0x20 ADD DUP3 DUP1 SLOAD PUSH2 0x18AB SWAP1 PUSH2 0x21EF JUMP JUMPDEST DUP1 ISZERO PUSH2 0x18F6 JUMPI DUP1 PUSH1 0x1F LT PUSH2 0x18CD JUMPI PUSH2 0x100 DUP1 DUP4 SLOAD DIV MUL DUP4 MSTORE SWAP2 PUSH1 0x20 ADD SWAP2 PUSH2 0x18F6 JUMP JUMPDEST DUP3 ADD SWAP2 SWAP1 PUSH0 MSTORE PUSH1 0x20 PUSH0 KECCAK256 SWAP1 JUMPDEST DUP2 SLOAD DUP2 MSTORE SWAP1 PUSH1 0x1 ADD SWAP1 PUSH1 0x20 ADD DUP1 DUP4 GT PUSH2 0x18D9 JUMPI DUP3 SWAP1 SUB PUSH1 0x1F AND DUP3 ADD SWAP2 JUMPDEST POP POP POP POP POP DUP2 MSTORE PUSH1 0x20 ADD PUSH1 0x2 DUP3 ADD SLOAD DUP2 MSTORE POP POP DUP2 MSTORE PUSH1 0x20 ADD SWAP1 PUSH1 0x1 ADD SWAP1 PUSH2 0x1845 JUMP JUMPDEST POP POP POP POP SWAP2 POP POP SWAP2 SWAP1 POP JUMP JUMPDEST PUSH2 0x192C PUSH2 0x1A6C JUMP JUMPDEST PUSH20 0xFFFFFFFFFFFFFFFFFFFFFFFFFFFFFFFFFFFFFFFF AND PUSH2 0x194A PUSH2 0x1109 JUMP JUMPDEST PUSH20 0xFFFFFFFFFFFFFFFFFFFFFFFFFFFFFFFFFFFFFFFF AND EQ PUSH2 0x19A9 JUMPI PUSH2 0x196D PUSH2 0x1A6C JUMP JUMPDEST PUSH1 0x40 MLOAD PUSH32 0x118CDAA700000000000000000000000000000000000000000000000000000000 DUP2 MSTORE PUSH1 0x4 ADD PUSH2 0x19A0 SWAP2 SWAP1 PUSH2 0x211C JUMP JUMPDEST PUSH1 0x40 MLOAD DUP1 SWAP2 SUB SWAP1 REVERT JUMPDEST JUMP JUMPDEST PUSH0 PUSH0 PUSH0 SWAP1 SLOAD SWAP1 PUSH2 0x100 EXP SWAP1 DIV PUSH20 0xFFFFFFFFFFFFFFFFFFFFFFFFFFFFFFFFFFFFFFFF AND SWAP1 POP DUP2 PUSH0 PUSH0 PUSH2 0x100 EXP DUP2 SLOAD DUP2 PUSH20 0xFFFFFFFFFFFFFFFFFFFFFFFFFFFFFFFFFFFFFFFF MUL NOT AND SWAP1 DUP4 PUSH20 0xFFFFFFFFFFFFFFFFFFFFFFFFFFFFFFFFFFFFFFFF AND MUL OR SWAP1 SSTORE POP DUP2 PUSH20 0xFFFFFFFFFFFFFFFFFFFFFFFFFFFFFFFFFFFFFFFF AND DUP2 PUSH20 0xFFFFFFFFFFFFFFFFFFFFFFFFFFFFFFFFFFFFFFFF AND PUSH32 0x8BE0079C531659141344CD1FD0A4F28419497F9722A3DAAFE3B4186F6B6457E0 PUSH1 0x40 MLOAD PUSH1 0x40 MLOAD DUP1 SWAP2 SUB SWAP1 LOG3 POP POP JUMP JUMPDEST PUSH0 CALLER SWAP1 POP SWAP1 JUMP JUMPDEST PUSH1 0x40 MLOAD DUP1 PUSH1 0x80 ADD PUSH1 0x40 MSTORE DUP1 PUSH0 PUSH1 0x5 DUP2 GT ISZERO PUSH2 0x1A91 JUMPI PUSH2 0x1A90 PUSH2 0x1B38 JUMP JUMPDEST JUMPDEST DUP2 MSTORE PUSH1 0x20 ADD PUSH0 DUP2 MSTORE PUSH1 0x20 ADD PUSH1 0x60 DUP2 MSTORE PUSH1 0x20 ADD PUSH0 DUP2 MSTORE POP SWAP1 JUMP JUMPDEST PUSH1 0x40 MLOAD DUP1 PUSH1 0x60 ADD PUSH1 0x40 MSTORE DUP1 PUSH0 DUP2 MSTORE PUSH1 0x20 ADD PUSH1 0x60 DUP2 MSTORE PUSH1 0x20 ADD PUSH0 DUP2 MSTORE POP SWAP1 JUMP JUMPDEST PUSH0 PUSH1 0x40 MLOAD SWAP1 POP SWAP1 JUMP JUMPDEST PUSH0 PUSH0 REVERT JUMPDEST PUSH0 PUSH0 REVERT JUMPDEST PUSH0 DUP2 SWAP1 POP SWAP2 SWAP1 POP JUMP JUMPDEST PUSH2 0x1AEC DUP2 PUSH2 0x1ADA JUMP JUMPDEST DUP2 EQ PUSH2 0x1AF6 JUMPI PUSH0 PUSH0 REVERT JUMPDEST POP JUMP JUMPDEST PUSH0 DUP2 CALLDATALOAD SWAP1 POP PUSH2 0x1B07 DUP2 PUSH2 0x1AE3 JUMP JUMPDEST SWAP3 SWAP2 POP POP JUMP JUMPDEST PUSH0 PUSH1 0x20 DUP3 DUP5 SUB SLT ISZERO PUSH2 0x1B22 JUMPI PUSH2 0x1B21 PUSH2 0x1AD2 JUMP JUMPDEST JUMPDEST PUSH0 PUSH2 0x1B2F DUP5 DUP3 DUP6 ADD PUSH2 0x1AF9 JUMP JUMPDEST SWAP2 POP POP SWAP3 SWAP2 POP POP JUMP JUMPDEST PUSH32 0x4E487B7100000000000000000000000000000000000000000000000000000000 PUSH0 MSTORE PUSH1 0x21 PUSH1 0x4 MSTORE PUSH1 0x24 PUSH0 REVERT JUMPDEST PUSH1 0x6 DUP2 LT PUSH2 0x1B76 JUMPI PUSH2 0x1B75 PUSH2 0x1B38 JUMP JUMPDEST JUMPDEST POP JUMP JUMPDEST PUSH0 DUP2 SWAP1 POP PUSH2 0x1B86 DUP3 PUSH2 0x1B65 JUMP JUMPDEST SWAP2 SWAP1 POP JUMP JUMPDEST PUSH0 PUSH2 0x1B95 DUP3 PUSH2 0x1B79 JUMP JUMPDEST SWAP1 POP SWAP2 SWAP1 POP JUMP JUMPDEST PUSH2 0x1BA5 DUP2 PUSH2 0x1B8B JUMP JUMPDEST DUP3 MSTORE POP POP JUMP JUMPDEST PUSH2 0x1BB4 DUP2 PUSH2 0x1ADA JUMP JUMPDEST DUP3 MSTORE POP POP JUMP JUMPDEST PUSH0 PUSH1 0x60 DUP3 ADD SWAP1 POP PUSH2 0x1BCD PUSH0 DUP4 ADD DUP7 PUSH2 0x1B9C JUMP JUMPDEST PUSH2 0x1BDA PUSH1 0x20 DUP4 ADD DUP6 PUSH2 0x1BAB JUMP JUMPDEST PUSH2 0x1BE7 PUSH1 0x40 DUP4 ADD DUP5 PUSH2 0x1BAB JUMP JUMPDEST SWAP5 SWAP4 POP POP POP POP JUMP JUMPDEST PUSH2 0x1BF8 DUP2 PUSH2 0x1B8B JUMP JUMPDEST DUP3 MSTORE POP POP JUMP JUMPDEST PUSH2 0x1C07 DUP2 PUSH2 0x1ADA JUMP JUMPDEST DUP3 MSTORE POP POP JUMP JUMPDEST PUSH0 DUP2 MLOAD SWAP1 POP SWAP2 SWAP1 POP JUMP JUMPDEST PUSH0 DUP3 DUP3 MSTORE PUSH1 0x20 DUP3 ADD SWAP1 POP SWAP3 SWAP2 POP POP JUMP JUMPDEST PUSH0 DUP2 SWAP1 POP PUSH1 0x20 DUP3 ADD SWAP1 POP SWAP2 SWAP1 POP JUMP JUMPDEST PUSH0 DUP2 MLOAD SWAP1 POP SWAP2 SWAP1 POP JUMP JUMPDEST PUSH0 DUP3 DUP3 MSTORE PUSH1 0x20 DUP3 ADD SWAP1 POP SWAP3 SWAP2 POP POP JUMP JUMPDEST DUP3 DUP2 DUP4 MCOPY PUSH0 DUP4 DUP4 ADD MSTORE POP POP POP JUMP JUMPDEST PUSH0 PUSH1 0x1F NOT PUSH1 0x1F DUP4 ADD AND SWAP1 POP SWAP2 SWAP1 POP JUMP JUMPDEST PUSH0 PUSH2 0x1C78 DUP3 PUSH2 0x1C36 JUMP JUMPDEST PUSH2 0x1C82 DUP2 DUP6 PUSH2 0x1C40 JUMP JUMPDEST SWAP4 POP PUSH2 0x1C92 DUP2 DUP6 PUSH1 0x20 DUP7 ADD PUSH2 0x1C50 JUMP JUMPDEST PUSH2 0x1C9B DUP2 PUSH2 0x1C5E JUMP JUMPDEST DUP5 ADD SWAP2 POP POP SWAP3 SWAP2 POP POP JUMP JUMPDEST PUSH0 PUSH1 0x60 DUP4 ADD PUSH0 DUP4 ADD MLOAD PUSH2 0x1CBB PUSH0 DUP7 ADD DUP3 PUSH2 0x1BFE JUMP JUMPDEST POP PUSH1 0x20 DUP4 ADD MLOAD DUP5 DUP3 SUB PUSH1 0x20 DUP7 ADD MSTORE PUSH2 0x1CD3 DUP3 DUP3 PUSH2 0x1C6E JUMP JUMPDEST SWAP2 POP POP PUSH1 0x40 DUP4 ADD MLOAD PUSH2 0x1CE8 PUSH1 0x40 DUP7 ADD DUP3 PUSH2 0x1BFE JUMP JUMPDEST POP DUP1 SWAP2 POP POP SWAP3 SWAP2 POP POP JUMP JUMPDEST PUSH0 PUSH2 0x1CFE DUP4 DUP4 PUSH2 0x1CA6 JUMP JUMPDEST SWAP1 POP SWAP3 SWAP2 POP POP JUMP JUMPDEST PUSH0 PUSH1 0x20 DUP3 ADD SWAP1 POP SWAP2 SWAP1 POP JUMP JUMPDEST PUSH0 PUSH2 0x1D1C DUP3 PUSH2 0x1C0D JUMP JUMPDEST PUSH2 0x1D26 DUP2 DUP6 PUSH2 0x1C17 JUMP JUMPDEST SWAP4 POP DUP4 PUSH1 0x20 DUP3 MUL DUP6 ADD PUSH2 0x1D38 DUP6 PUSH2 0x1C27 JUMP JUMPDEST DUP1 PUSH0 JUMPDEST DUP6 DUP2 LT ISZERO PUSH2 0x1D73 JUMPI DUP5 DUP5 SUB DUP10 MSTORE DUP2 MLOAD PUSH2 0x1D54 DUP6 DUP3 PUSH2 0x1CF3 JUMP JUMPDEST SWAP5 POP PUSH2 0x1D5F DUP4 PUSH2 0x1D06 JUMP JUMPDEST SWAP3 POP PUSH1 0x20 DUP11 ADD SWAP10 POP POP PUSH1 0x1 DUP2 ADD SWAP1 POP PUSH2 0x1D3B JUMP JUMPDEST POP DUP3 SWAP8 POP DUP8 SWAP6 POP POP POP POP POP POP SWAP3 SWAP2 POP POP JUMP JUMPDEST PUSH0 PUSH1 0x80 DUP4 ADD PUSH0 DUP4 ADD MLOAD PUSH2 0x1D9A PUSH0 DUP7 ADD DUP3 PUSH2 0x1BEF JUMP JUMPDEST POP PUSH1 0x20 DUP4 ADD MLOAD PUSH2 0x1DAD PUSH1 0x20 DUP7 ADD DUP3 PUSH2 0x1BFE JUMP JUMPDEST POP PUSH1 0x40 DUP4 ADD MLOAD DUP5 DUP3 SUB PUSH1 0x40 DUP7 ADD MSTORE PUSH2 0x1DC5 DUP3 DUP3 PUSH2 0x1D12 JUMP JUMPDEST SWAP2 POP POP PUSH1 0x60 DUP4 ADD MLOAD PUSH2 0x1DDA PUSH1 0x60 DUP7 ADD DUP3 PUSH2 0x1BFE JUMP JUMPDEST POP DUP1 SWAP2 POP POP SWAP3 SWAP2 POP POP JUMP JUMPDEST PUSH0 PUSH1 0x20 DUP3 ADD SWAP1 POP DUP2 DUP2 SUB PUSH0 DUP4 ADD MSTORE PUSH2 0x1DFD DUP2 DUP5 PUSH2 0x1D85 JUMP JUMPDEST SWAP1 POP SWAP3 SWAP2 POP POP JUMP JUMPDEST PUSH0 PUSH20 0xFFFFFFFFFFFFFFFFFFFFFFFFFFFFFFFFFFFFFFFF DUP3 AND SWAP1 POP SWAP2 SWAP1 POP JUMP JUMPDEST PUSH0 PUSH2 0x1E2E DUP3 PUSH2 0x1E05 JUMP JUMPDEST SWAP1 POP SWAP2 SWAP1 POP JUMP JUMPDEST PUSH2 0x1E3E DUP2 PUSH2 0x1E24 JUMP JUMPDEST DUP2 EQ PUSH2 0x1E48 JUMPI PUSH0 PUSH0 REVERT JUMPDEST POP JUMP JUMPDEST PUSH0 DUP2 CALLDATALOAD SWAP1 POP PUSH2 0x1E59 DUP2 PUSH2 0x1E35 JUMP JUMPDEST SWAP3 SWAP2 POP POP JUMP JUMPDEST PUSH0 PUSH1 0x20 DUP3 DUP5 SUB SLT ISZERO PUSH2 0x1E74 JUMPI PUSH2 0x1E73 PUSH2 0x1AD2 JUMP JUMPDEST JUMPDEST PUSH0 PUSH2 0x1E81 DUP5 DUP3 DUP6 ADD PUSH2 0x1E4B JUMP JUMPDEST SWAP2 POP POP SWAP3 SWAP2 POP POP JUMP JUMPDEST PUSH0 PUSH0 REVERT JUMPDEST PUSH0 PUSH0 REVERT JUMPDEST PUSH32 0x4E487B7100000000000000000000000000000000000000000000000000000000 PUSH0 MSTORE PUSH1 0x41 PUSH1 0x4 MSTORE PUSH1 0x24 PUSH0 REVERT JUMPDEST PUSH2 0x1EC8 DUP3 PUSH2 0x1C5E JUMP JUMPDEST DUP2 ADD DUP2 DUP2 LT PUSH8 0xFFFFFFFFFFFFFFFF DUP3 GT OR ISZERO PUSH2 0x1EE7 JUMPI PUSH2 0x1EE6 PUSH2 0x1E92 JUMP JUMPDEST JUMPDEST DUP1 PUSH1 0x40 MSTORE POP POP POP JUMP JUMPDEST PUSH0 PUSH2 0x1EF9 PUSH2 0x1AC9 JUMP JUMPDEST SWAP1 POP PUSH2 0x1F05 DUP3 DUP3 PUSH2 0x1EBF JUMP JUMPDEST SWAP2 SWAP1 POP JUMP JUMPDEST PUSH0 PUSH8 0xFFFFFFFFFFFFFFFF DUP3 GT ISZERO PUSH2 0x1F24 JUMPI PUSH2 0x1F23 PUSH2 0x1E92 JUMP JUMPDEST JUMPDEST PUSH2 0x1F2D DUP3 PUSH2 0x1C5E JUMP JUMPDEST SWAP1 POP PUSH1 0x20 DUP2 ADD SWAP1 POP SWAP2 SWAP1 POP JUMP JUMPDEST DUP3 DUP2 DUP4 CALLDATACOPY PUSH0 DUP4 DUP4 ADD MSTORE POP POP POP JUMP JUMPDEST PUSH0 PUSH2 0x1F5A PUSH2 0x1F55 DUP5 PUSH2 0x1F0A JUMP JUMPDEST PUSH2 0x1EF0 JUMP JUMPDEST SWAP1 POP DUP3 DUP2 MSTORE PUSH1 0x20 DUP2 ADD DUP5 DUP5 DUP5 ADD GT ISZERO PUSH2 0x1F76 JUMPI PUSH2 0x1F75 PUSH2 0x1E8E JUMP JUMPDEST JUMPDEST PUSH2 0x1F81 DUP5 DUP3 DUP6 PUSH2 0x1F3A JUMP JUMPDEST POP SWAP4 SWAP3 POP POP POP JUMP JUMPDEST PUSH0 DUP3 PUSH1 0x1F DUP4 ADD SLT PUSH2 0x1F9D JUMPI PUSH2 0x1F9C PUSH2 0x1E8A JUMP JUMPDEST JUMPDEST DUP2 CALLDATALOAD PUSH2 0x1FAD DUP5 DUP3 PUSH1 0x20 DUP7 ADD PUSH2 0x1F48 JUMP JUMPDEST SWAP2 POP POP SWAP3 SWAP2 POP POP JUMP JUMPDEST PUSH0 PUSH1 0x20 DUP3 DUP5 SUB SLT ISZERO PUSH2 0x1FCB JUMPI PUSH2 0x1FCA PUSH2 0x1AD2 JUMP JUMPDEST JUMPDEST PUSH0 DUP3 ADD CALLDATALOAD PUSH8 0xFFFFFFFFFFFFFFFF DUP2 GT ISZERO PUSH2 0x1FE8 JUMPI PUSH2 0x1FE7 PUSH2 0x1AD6 JUMP JUMPDEST JUMPDEST PUSH2 0x1FF4 DUP5 DUP3 DUP6 ADD PUSH2 0x1F89 JUMP JUMPDEST SWAP2 POP POP SWAP3 SWAP2 POP POP JUMP JUMPDEST PUSH0 PUSH1 0x60 DUP4 ADD PUSH0 DUP4 ADD MLOAD PUSH2 0x2012 PUSH0 DUP7 ADD DUP3 PUSH2 0x1BFE JUMP JUMPDEST POP PUSH1 0x20 DUP4 ADD MLOAD DUP5 DUP3 SUB PUSH1 0x20 DUP7 ADD MSTORE PUSH2 0x202A DUP3 DUP3 PUSH2 0x1C6E JUMP JUMPDEST SWAP2 POP POP PUSH1 0x40 DUP4 ADD MLOAD PUSH2 0x203F PUSH1 0x40 DUP7 ADD DUP3 PUSH2 0x1BFE JUMP JUMPDEST POP DUP1 SWAP2 POP POP SWAP3 SWAP2 POP POP JUMP JUMPDEST PUSH0 PUSH1 0x20 DUP3 ADD SWAP1 POP DUP2 DUP2 SUB PUSH0 DUP4 ADD MSTORE PUSH2 0x2062 DUP2 DUP5 PUSH2 0x1FFD JUMP JUMPDEST SWAP1 POP SWAP3 SWAP2 POP POP JUMP JUMPDEST PUSH0 DUP3 DUP3 MSTORE PUSH1 0x20 DUP3 ADD SWAP1 POP SWAP3 SWAP2 POP POP JUMP JUMPDEST PUSH0 PUSH2 0x2084 DUP3 PUSH2 0x1C0D JUMP JUMPDEST PUSH2 0x208E DUP2 DUP6 PUSH2 0x206A JUMP JUMPDEST SWAP4 POP DUP4 PUSH1 0x20 DUP3 MUL DUP6 ADD PUSH2 0x20A0 DUP6 PUSH2 0x1C27 JUMP JUMPDEST DUP1 PUSH0 JUMPDEST DUP6 DUP2 LT ISZERO PUSH2 0x20DB JUMPI DUP5 DUP5 SUB DUP10 MSTORE DUP2 MLOAD PUSH2 0x20BC DUP6 DUP3 PUSH2 0x1CF3 JUMP JUMPDEST SWAP5 POP PUSH2 0x20C7 DUP4 PUSH2 0x1D06 JUMP JUMPDEST SWAP3 POP PUSH1 0x20 DUP11 ADD SWAP10 POP POP PUSH1 0x1 DUP2 ADD SWAP1 POP PUSH2 0x20A3 JUMP JUMPDEST POP DUP3 SWAP8 POP DUP8 SWAP6 POP POP POP POP POP POP SWAP3 SWAP2 POP POP JUMP JUMPDEST PUSH0 PUSH1 0x20 DUP3 ADD SWAP1 POP DUP2 DUP2 SUB PUSH0 DUP4 ADD MSTORE PUSH2 0x2105 DUP2 DUP5 PUSH2 0x207A JUMP JUMPDEST SWAP1 POP SWAP3 SWAP2 POP POP JUMP JUMPDEST PUSH2 0x2116 DUP2 PUSH2 0x1E24 JUMP JUMPDEST DUP3 MSTORE POP POP JUMP JUMPDEST PUSH0 PUSH1 0x20 DUP3 ADD SWAP1 POP PUSH2 0x212F PUSH0 DUP4 ADD DUP5 PUSH2 0x210D JUMP JUMPDEST SWAP3 SWAP2 POP POP JUMP JUMPDEST PUSH0 PUSH1 0x20 DUP3 ADD SWAP1 POP PUSH2 0x2148 PUSH0 DUP4 ADD DUP5 PUSH2 0x1BAB JUMP JUMPDEST SWAP3 SWAP2 POP POP JUMP JUMPDEST PUSH32 0x4E487B7100000000000000000000000000000000000000000000000000000000 PUSH0 MSTORE PUSH1 0x11 PUSH1 0x4 MSTORE PUSH1 0x24 PUSH0 REVERT JUMPDEST PUSH0 PUSH2 0x2185 DUP3 PUSH2 0x1ADA JUMP JUMPDEST SWAP2 POP PUSH32 0xFFFFFFFFFFFFFFFFFFFFFFFFFFFFFFFFFFFFFFFFFFFFFFFFFFFFFFFFFFFFFFFF DUP3 SUB PUSH2 0x21B7 JUMPI PUSH2 0x21B6 PUSH2 0x214E JUMP JUMPDEST JUMPDEST PUSH1 0x1 DUP3 ADD SWAP1 POP SWAP2 SWAP1 POP JUMP JUMPDEST PUSH32 0x4E487B7100000000000000000000000000000000000000000000000000000000 PUSH0 MSTORE PUSH1 0x22 PUSH1 0x4 MSTORE PUSH1 0x24 PUSH0 REVERT JUMPDEST PUSH0 PUSH1 0x2 DUP3 DIV SWAP1 POP PUSH1 0x1 DUP3 AND DUP1 PUSH2 0x2206 JUMPI PUSH1 0x7F DUP3 AND SWAP2 POP JUMPDEST PUSH1 0x20 DUP3 LT DUP2 SUB PUSH2 0x2219 JUMPI PUSH2 0x2218 PUSH2 0x21C2 JUMP JUMPDEST JUMPDEST POP SWAP2 SWAP1 POP JUMP JUMPDEST PUSH0 DUP3 DUP3 MSTORE PUSH1 0x20 DUP3 ADD SWAP1 POP SWAP3 SWAP2 POP POP JUMP JUMPDEST PUSH32 0x526567697374726174696F6E206E6F74207374617274656420666F7220746869 PUSH0 DUP3 ADD MSTORE PUSH32 0x732073657373696F6E0000000000000000000000000000000000000000000000 PUSH1 0x20 DUP3 ADD MSTORE POP JUMP JUMPDEST PUSH0 PUSH2 0x2289 PUSH1 0x29 DUP4 PUSH2 0x221F JUMP JUMPDEST SWAP2 POP PUSH2 0x2294 DUP3 PUSH2 0x222F JUMP JUMPDEST PUSH1 0x40 DUP3 ADD SWAP1 POP SWAP2 SWAP1 POP JUMP JUMPDEST PUSH0 PUSH1 0x20 DUP3 ADD SWAP1 POP DUP2 DUP2 SUB PUSH0 DUP4 ADD MSTORE PUSH2 0x22B6 DUP2 PUSH2 0x227D JUMP JUMPDEST SWAP1 POP SWAP2 SWAP1 POP JUMP JUMPDEST PUSH32 0x566F74657220616C726561647920726567697374657265640000000000000000 PUSH0 DUP3 ADD MSTORE POP JUMP JUMPDEST PUSH0 PUSH2 0x22F1 PUSH1 0x18 DUP4 PUSH2 0x221F JUMP JUMPDEST SWAP2 POP PUSH2 0x22FC DUP3 PUSH2 0x22BD JUMP JUMPDEST PUSH1 0x20 DUP3 ADD SWAP1 POP SWAP2 SWAP1 POP JUMP JUMPDEST PUSH0 PUSH1 0x20 DUP3 ADD SWAP1 POP DUP2 DUP2 SUB PUSH0 DUP4 ADD MSTORE PUSH2 0x231E DUP2 PUSH2 0x22E5 JUMP JUMPDEST SWAP1 POP SWAP2 SWAP1 POP JUMP JUMPDEST PUSH32 0x596F7520617265206E6F74207265676973746572656400000000000000000000 PUSH0 DUP3 ADD MSTORE POP JUMP JUMPDEST PUSH0 PUSH2 0x2359 PUSH1 0x16 DUP4 PUSH2 0x221F JUMP JUMPDEST SWAP2 POP PUSH2 0x2364 DUP3 PUSH2 0x2325 JUMP JUMPDEST PUSH1 0x20 DUP3 ADD SWAP1 POP SWAP2 SWAP1 POP JUMP JUMPDEST PUSH0 PUSH1 0x20 DUP3 ADD SWAP1 POP DUP2 DUP2 SUB PUSH0 DUP4 ADD MSTORE PUSH2 0x2386 DUP2 PUSH2 0x234D JUMP JUMPDEST SWAP1 POP SWAP2 SWAP1 POP JUMP JUMPDEST PUSH32 0x50726F706F73616C206465736372697074696F6E206973207265717569726564 PUSH0 DUP3 ADD MSTORE POP JUMP JUMPDEST PUSH0 PUSH2 0x23C1 PUSH1 0x20 DUP4 PUSH2 0x221F JUMP JUMPDEST SWAP2 POP PUSH2 0x23CC DUP3 PUSH2 0x238D JUMP JUMPDEST PUSH1 0x20 DUP3 ADD SWAP1 POP SWAP2 SWAP1 POP JUMP JUMPDEST PUSH0 PUSH1 0x20 DUP3 ADD SWAP1 POP DUP2 DUP2 SUB PUSH0 DUP4 ADD MSTORE PUSH2 0x23EE DUP2 PUSH2 0x23B5 JUMP JUMPDEST SWAP1 POP SWAP2 SWAP1 POP JUMP JUMPDEST PUSH32 0x50726F706F73616C7320726567697374726174696F6E206E6F74207374617274 PUSH0 DUP3 ADD MSTORE PUSH32 0x6564000000000000000000000000000000000000000000000000000000000000 PUSH1 0x20 DUP3 ADD MSTORE POP JUMP JUMPDEST PUSH0 PUSH2 0x244F PUSH1 0x22 DUP4 PUSH2 0x221F JUMP JUMPDEST SWAP2 POP PUSH2 0x245A DUP3 PUSH2 0x23F5 JUMP JUMPDEST PUSH1 0x40 DUP3 ADD SWAP1 POP SWAP2 SWAP1 POP JUMP JUMPDEST PUSH0 PUSH1 0x20 DUP3 ADD SWAP1 POP DUP2 DUP2 SUB PUSH0 DUP4 ADD MSTORE PUSH2 0x247C DUP2 PUSH2 0x2443 JUMP JUMPDEST SWAP1 POP SWAP2 SWAP1 POP JUMP JUMPDEST PUSH0 DUP2 SWAP1 POP DUP2 PUSH0 MSTORE PUSH1 0x20 PUSH0 KECCAK256 SWAP1 POP SWAP2 SWAP1 POP JUMP JUMPDEST PUSH0 PUSH1 0x20 PUSH1 0x1F DUP4 ADD DIV SWAP1 POP SWAP2 SWAP1 POP JUMP JUMPDEST PUSH0 DUP3 DUP3 SHL SWAP1 POP SWAP3 SWAP2 POP POP JUMP JUMPDEST PUSH0 PUSH1 0x8 DUP4 MUL PUSH2 0x24DF PUSH32 0xFFFFFFFFFFFFFFFFFFFFFFFFFFFFFFFFFFFFFFFFFFFFFFFFFFFFFFFFFFFFFFFF DUP3 PUSH2 0x24A4 JUMP JUMPDEST PUSH2 0x24E9 DUP7 DUP4 PUSH2 0x24A4 JUMP JUMPDEST SWAP6 POP DUP1 NOT DUP5 AND SWAP4 POP DUP1 DUP7 AND DUP5 OR SWAP3 POP POP POP SWAP4 SWAP3 POP POP POP JUMP JUMPDEST PUSH0 DUP2 SWAP1 POP SWAP2 SWAP1 POP JUMP JUMPDEST PUSH0 PUSH2 0x2524 PUSH2 0x251F PUSH2 0x251A DUP5 PUSH2 0x1ADA JUMP JUMPDEST PUSH2 0x2501 JUMP JUMPDEST PUSH2 0x1ADA JUMP JUMPDEST SWAP1 POP SWAP2 SWAP1 POP JUMP JUMPDEST PUSH0 DUP2 SWAP1 POP SWAP2 SWAP1 POP JUMP JUMPDEST PUSH2 0x253D DUP4 PUSH2 0x250A JUMP JUMPDEST PUSH2 0x2551 PUSH2 0x2549 DUP3 PUSH2 0x252B JUMP JUMPDEST DUP5 DUP5 SLOAD PUSH2 0x24B0 JUMP JUMPDEST DUP3 SSTORE POP POP POP POP JUMP JUMPDEST PUSH0 PUSH0 SWAP1 POP SWAP1 JUMP JUMPDEST PUSH2 0x2568 PUSH2 0x2559 JUMP JUMPDEST PUSH2 0x2573 DUP2 DUP5 DUP5 PUSH2 0x2534 JUMP JUMPDEST POP POP POP JUMP JUMPDEST JUMPDEST DUP2 DUP2 LT ISZERO PUSH2 0x2596 JUMPI PUSH2 0x258B PUSH0 DUP3 PUSH2 0x2560 JUMP JUMPDEST PUSH1 0x1 DUP2 ADD SWAP1 POP PUSH2 0x2579 JUMP JUMPDEST POP POP JUMP JUMPDEST PUSH1 0x1F DUP3 GT ISZERO PUSH2 0x25DB JUMPI PUSH2 0x25AC DUP2 PUSH2 0x2483 JUMP JUMPDEST PUSH2 0x25B5 DUP5 PUSH2 0x2495 JUMP JUMPDEST DUP2 ADD PUSH1 0x20 DUP6 LT ISZERO PUSH2 0x25C4 JUMPI DUP2 SWAP1 POP JUMPDEST PUSH2 0x25D8 PUSH2 0x25D0 DUP6 PUSH2 0x2495 JUMP JUMPDEST DUP4 ADD DUP3 PUSH2 0x2578 JUMP JUMPDEST POP POP JUMPDEST POP POP POP JUMP JUMPDEST PUSH0 DUP3 DUP3 SHR SWAP1 POP SWAP3 SWAP2 POP POP JUMP JUMPDEST PUSH0 PUSH2 0x25FB PUSH0 NOT DUP5 PUSH1 0x8 MUL PUSH2 0x25E0 JUMP JUMPDEST NOT DUP1 DUP4 AND SWAP2 POP POP SWAP3 SWAP2 POP POP JUMP JUMPDEST PUSH0 PUSH2 0x2613 DUP4 DUP4 PUSH2 0x25EC JUMP JUMPDEST SWAP2 POP DUP3 PUSH1 0x2 MUL DUP3 OR SWAP1 POP SWAP3 SWAP2 POP POP JUMP JUMPDEST PUSH2 0x262C DUP3 PUSH2 0x1C36 JUMP JUMPDEST PUSH8 0xFFFFFFFFFFFFFFFF DUP2 GT ISZERO PUSH2 0x2645 JUMPI PUSH2 0x2644 PUSH2 0x1E92 JUMP JUMPDEST JUMPDEST PUSH2 0x264F DUP3 SLOAD PUSH2 0x21EF JUMP JUMPDEST PUSH2 0x265A DUP3 DUP3 DUP6 PUSH2 0x259A JUMP JUMPDEST PUSH0 PUSH1 0x20 SWAP1 POP PUSH1 0x1F DUP4 GT PUSH1 0x1 DUP2 EQ PUSH2 0x268B JUMPI PUSH0 DUP5 ISZERO PUSH2 0x2679 JUMPI DUP3 DUP8 ADD MLOAD SWAP1 POP JUMPDEST PUSH2 0x2683 DUP6 DUP3 PUSH2 0x2608 JUMP JUMPDEST DUP7 SSTORE POP PUSH2 0x26EA JUMP JUMPDEST PUSH1 0x1F NOT DUP5 AND PUSH2 0x2699 DUP7 PUSH2 0x2483 JUMP JUMPDEST PUSH0 JUMPDEST DUP3 DUP2 LT ISZERO PUSH2 0x26C0 JUMPI DUP5 DUP10 ADD MLOAD DUP3 SSTORE PUSH1 0x1 DUP3 ADD SWAP2 POP PUSH1 0x20 DUP6 ADD SWAP5 POP PUSH1 0x20 DUP2 ADD SWAP1 POP PUSH2 0x269B JUMP JUMPDEST DUP7 DUP4 LT ISZERO PUSH2 0x26DD JUMPI DUP5 DUP10 ADD MLOAD PUSH2 0x26D9 PUSH1 0x1F DUP10 AND DUP3 PUSH2 0x25EC JUMP JUMPDEST DUP4 SSTORE POP JUMPDEST PUSH1 0x1 PUSH1 0x2 DUP9 MUL ADD DUP9 SSTORE POP POP POP JUMPDEST POP POP POP POP POP POP JUMP JUMPDEST PUSH0 PUSH1 0x40 DUP3 ADD SWAP1 POP PUSH2 0x2705 PUSH0 DUP4 ADD DUP6 PUSH2 0x1BAB JUMP JUMPDEST PUSH2 0x2712 PUSH1 0x20 DUP4 ADD DUP5 PUSH2 0x1BAB JUMP JUMPDEST SWAP4 SWAP3 POP POP POP JUMP JUMPDEST PUSH32 0x566F746573206E6F742074616C6C696564207965740000000000000000000000 PUSH0 DUP3 ADD MSTORE POP JUMP JUMPDEST PUSH0 PUSH2 0x274D PUSH1 0x15 DUP4 PUSH2 0x221F JUMP JUMPDEST SWAP2 POP PUSH2 0x2758 DUP3 PUSH2 0x2719 JUMP JUMPDEST PUSH1 0x20 DUP3 ADD SWAP1 POP SWAP2 SWAP1 POP JUMP JUMPDEST PUSH0 PUSH1 0x20 DUP3 ADD SWAP1 POP DUP2 DUP2 SUB PUSH0 DUP4 ADD MSTORE PUSH2 0x277A DUP2 PUSH2 0x2741 JUMP JUMPDEST SWAP1 POP SWAP2 SWAP1 POP JUMP JUMPDEST PUSH32 0x4E487B7100000000000000000000000000000000000000000000000000000000 PUSH0 MSTORE PUSH1 0x32 PUSH1 0x4 MSTORE PUSH1 0x24 PUSH0 REVERT JUMPDEST PUSH32 0x50726F706F73616C7320726567697374726174696F6E206E6F74207374617274 PUSH0 DUP3 ADD MSTORE PUSH32 0x6564206F7220616C726561647920656E64656400000000000000000000000000 PUSH1 0x20 DUP3 ADD MSTORE POP JUMP JUMPDEST PUSH0 PUSH2 0x2808 PUSH1 0x33 DUP4 PUSH2 0x221F JUMP JUMPDEST SWAP2 POP PUSH2 0x2813 DUP3 PUSH2 0x27AE JUMP JUMPDEST PUSH1 0x40 DUP3 ADD SWAP1 POP SWAP2 SWAP1 POP JUMP JUMPDEST PUSH0 PUSH1 0x20 DUP3 ADD SWAP1 POP DUP2 DUP2 SUB PUSH0 DUP4 ADD MSTORE PUSH2 0x2835 DUP2 PUSH2 0x27FC JUMP JUMPDEST SWAP1 POP SWAP2 SWAP1 POP JUMP JUMPDEST PUSH0 PUSH1 0x40 DUP3 ADD SWAP1 POP PUSH2 0x284F PUSH0 DUP4 ADD DUP6 PUSH2 0x1B9C JUMP JUMPDEST PUSH2 0x285C PUSH1 0x20 DUP4 ADD DUP5 PUSH2 0x1B9C JUMP JUMPDEST SWAP4 SWAP3 POP POP POP JUMP JUMPDEST PUSH32 0x526567697374726174696F6E20706861736520656E6465642C2063616E6E6F74 PUSH0 DUP3 ADD MSTORE PUSH32 0x20756E7265676973746572000000000000000000000000000000000000000000 PUSH1 0x20 DUP3 ADD MSTORE POP JUMP JUMPDEST PUSH0 PUSH2 0x28BD PUSH1 0x2B DUP4 PUSH2 0x221F JUMP JUMPDEST SWAP2 POP PUSH2 0x28C8 DUP3 PUSH2 0x2863 JUMP JUMPDEST PUSH1 0x40 DUP3 ADD SWAP1 POP SWAP2 SWAP1 POP JUMP JUMPDEST PUSH0 PUSH1 0x20 DUP3 ADD SWAP1 POP DUP2 DUP2 SUB PUSH0 DUP4 ADD MSTORE PUSH2 0x28EA DUP2 PUSH2 0x28B1 JUMP JUMPDEST SWAP1 POP SWAP2 SWAP1 POP JUMP JUMPDEST PUSH32 0x566F74657220616C726561647920756E72656769737465726564000000000000 PUSH0 DUP3 ADD MSTORE POP JUMP JUMPDEST PUSH0 PUSH2 0x2925 PUSH1 0x1A DUP4 PUSH2 0x221F JUMP JUMPDEST SWAP2 POP PUSH2 0x2930 DUP3 PUSH2 0x28F1 JUMP JUMPDEST PUSH1 0x20 DUP3 ADD SWAP1 POP SWAP2 SWAP1 POP JUMP JUMPDEST PUSH0 PUSH1 0x20 DUP3 ADD SWAP1 POP DUP2 DUP2 SUB PUSH0 DUP4 ADD MSTORE PUSH2 0x2952 DUP2 PUSH2 0x2919 JUMP JUMPDEST SWAP1 POP SWAP2 SWAP1 POP JUMP JUMPDEST PUSH32 0x566F74696E672073657373696F6E206E6F7420656E6465642079657400000000 PUSH0 DUP3 ADD MSTORE POP JUMP JUMPDEST PUSH0 PUSH2 0x298D PUSH1 0x1C DUP4 PUSH2 0x221F JUMP JUMPDEST SWAP2 POP PUSH2 0x2998 DUP3 PUSH2 0x2959 JUMP JUMPDEST PUSH1 0x20 DUP3 ADD SWAP1 POP SWAP2 SWAP1 POP JUMP JUMPDEST PUSH0 PUSH1 0x20 DUP3 ADD SWAP1 POP DUP2 DUP2 SUB PUSH0 DUP4 ADD MSTORE PUSH2 0x29BA DUP2 PUSH2 0x2981 JUMP JUMPDEST SWAP1 POP SWAP2 SWAP1 POP JUMP JUMPDEST PUSH32 0x4E6F2070726F706F73616C7320666F7220746869732073657373696F6E000000 PUSH0 DUP3 ADD MSTORE POP JUMP JUMPDEST PUSH0 PUSH2 0x29F5 PUSH1 0x1D DUP4 PUSH2 0x221F JUMP JUMPDEST SWAP2 POP PUSH2 0x2A00 DUP3 PUSH2 0x29C1 JUMP JUMPDEST PUSH1 0x20 DUP3 ADD SWAP1 POP SWAP2 SWAP1 POP JUMP JUMPDEST PUSH0 PUSH1 0x20 DUP3 ADD SWAP1 POP DUP2 DUP2 SUB PUSH0 DUP4 ADD MSTORE PUSH2 0x2A22 DUP2 PUSH2 0x29E9 JUMP JUMPDEST SWAP1 POP SWAP2 SWAP1 POP JUMP JUMPDEST PUSH32 0x566F74696E672073657373696F6E206E6F742073746172746564000000000000 PUSH0 DUP3 ADD MSTORE POP JUMP JUMPDEST PUSH0 PUSH2 0x2A5D PUSH1 0x1A DUP4 PUSH2 0x221F JUMP JUMPDEST SWAP2 POP PUSH2 0x2A68 DUP3 PUSH2 0x2A29 JUMP JUMPDEST PUSH1 0x20 DUP3 ADD SWAP1 POP SWAP2 SWAP1 POP JUMP JUMPDEST PUSH0 PUSH1 0x20 DUP3 ADD SWAP1 POP DUP2 DUP2 SUB PUSH0 DUP4 ADD MSTORE PUSH2 0x2A8A DUP2 PUSH2 0x2A51 JUMP JUMPDEST SWAP1 POP SWAP2 SWAP1 POP JUMP JUMPDEST PUSH32 0x496E76616C69642070726F706F73616C20496400000000000000000000000000 PUSH0 DUP3 ADD MSTORE POP JUMP JUMPDEST PUSH0 PUSH2 0x2AC5 PUSH1 0x13 DUP4 PUSH2 0x221F JUMP JUMPDEST SWAP2 POP PUSH2 0x2AD0 DUP3 PUSH2 0x2A91 JUMP JUMPDEST PUSH1 0x20 DUP3 ADD SWAP1 POP SWAP2 SWAP1 POP JUMP JUMPDEST PUSH0 PUSH1 0x20 DUP3 ADD SWAP1 POP DUP2 DUP2 SUB PUSH0 DUP4 ADD MSTORE PUSH2 0x2AF2 DUP2 PUSH2 0x2AB9 JUMP JUMPDEST SWAP1 POP SWAP2 SWAP1 POP JUMP JUMPDEST PUSH32 0x596F75206861766520616C726561647920766F74656420746869732073657373 PUSH0 DUP3 ADD MSTORE PUSH32 0x696F6E0000000000000000000000000000000000000000000000000000000000 PUSH1 0x20 DUP3 ADD MSTORE POP JUMP JUMPDEST PUSH0 PUSH2 0x2B53 PUSH1 0x23 DUP4 PUSH2 0x221F JUMP JUMPDEST SWAP2 POP PUSH2 0x2B5E DUP3 PUSH2 0x2AF9 JUMP JUMPDEST PUSH1 0x40 DUP3 ADD SWAP1 POP SWAP2 SWAP1 POP JUMP JUMPDEST PUSH0 PUSH1 0x20 DUP3 ADD SWAP1 POP DUP2 DUP2 SUB PUSH0 DUP4 ADD MSTORE PUSH2 0x2B80 DUP2 PUSH2 0x2B47 JUMP JUMPDEST SWAP1 POP SWAP2 SWAP1 POP JUMP JUMPDEST PUSH0 PUSH1 0x40 DUP3 ADD SWAP1 POP PUSH2 0x2B9A PUSH0 DUP4 ADD DUP6 PUSH2 0x210D JUMP JUMPDEST PUSH2 0x2BA7 PUSH1 0x20 DUP4 ADD DUP5 PUSH2 0x1BAB JUMP JUMPDEST SWAP4 SWAP3 POP POP POP JUMP JUMPDEST PUSH32 0x57726F6E672073746174757320746F2073746172742070726F706F73616C2072 PUSH0 DUP3 ADD MSTORE PUSH32 0x6567697374726174696F6E000000000000000000000000000000000000000000 PUSH1 0x20 DUP3 ADD MSTORE POP JUMP JUMPDEST PUSH0 PUSH2 0x2C08 PUSH1 0x2B DUP4 PUSH2 0x221F JUMP JUMPDEST SWAP2 POP PUSH2 0x2C13 DUP3 PUSH2 0x2BAE JUMP JUMPDEST PUSH1 0x40 DUP3 ADD SWAP1 POP SWAP2 SWAP1 POP JUMP JUMPDEST PUSH0 PUSH1 0x20 DUP3 ADD SWAP1 POP DUP2 DUP2 SUB PUSH0 DUP4 ADD MSTORE PUSH2 0x2C35 DUP2 PUSH2 0x2BFC JUMP JUMPDEST SWAP1 POP SWAP2 SWAP1 POP JUMP JUMPDEST PUSH32 0x50726F706F73616C7320726567697374726174696F6E206E6F7420656E646564 PUSH0 DUP3 ADD MSTORE POP JUMP JUMPDEST PUSH0 PUSH2 0x2C70 PUSH1 0x20 DUP4 PUSH2 0x221F JUMP JUMPDEST SWAP2 POP PUSH2 0x2C7B DUP3 PUSH2 0x2C3C JUMP JUMPDEST PUSH1 0x20 DUP3 ADD SWAP1 POP SWAP2 SWAP1 POP JUMP JUMPDEST PUSH0 PUSH1 0x20 DUP3 ADD SWAP1 POP DUP2 DUP2 SUB PUSH0 DUP4 ADD MSTORE PUSH2 0x2C9D DUP2 PUSH2 0x2C64 JUMP JUMPDEST SWAP1 POP SWAP2 SWAP1 POP JUMP INVALID LOG2 PUSH5 0x6970667358 0x22 SLT KECCAK256 0x4F 0xCF 0xC5 PC 0xC6 0xFC SWAP13 0xFC 0x4F JUMPDEST DUP16 MLOAD GAS PUSH16 0x4284F7BFF41D5FD80BB5A869E27607E XOR 0xDD PUSH5 0x736F6C6343 STOP ADDMOD 0x1E STOP CALLER "
				},
				"gasEstimates": {
					"creation": {
						"codeDepositCost": "2296400",
						"executionCost": "infinite",
						"totalCost": "infinite"
					},
					"external": {
						"computeMostVotedProposal()": "infinite",
						"createVotingSession()": "infinite",
						"currentVotingSessionId()": "2514",
						"endProposalsRegistration()": "infinite",
						"endVotingSession()": "infinite",
						"getAllProposalsBySession(uint256)": "infinite",
						"getAllProposalsFromCurrentSession()": "infinite",
						"getCurrentSession()": "infinite",
						"getWinningProposalBySession(uint256)": "infinite",
						"owner()": "2581",
						"registerVoter(address)": "infinite",
						"renounceOwnership()": "infinite",
						"sendNewProposition(string)": "infinite",
						"sendVote(uint256)": "infinite",
						"startProposalsRegistration()": "infinite",
						"startVotingSession()": "infinite",
						"transferOwnership(address)": "infinite",
						"unregisterVoter(address)": "infinite",
						"votingSessions(uint256)": "infinite"
					}
				},
				"methodIdentifiers": {
					"computeMostVotedProposal()": "895d0faf",
					"createVotingSession()": "0a936e3a",
					"currentVotingSessionId()": "9bdfef30",
					"endProposalsRegistration()": "6c297445",
					"endVotingSession()": "a7bfab16",
					"getAllProposalsBySession(uint256)": "f38d3af8",
					"getAllProposalsFromCurrentSession()": "640be567",
					"getCurrentSession()": "1401795f",
					"getWinningProposalBySession(uint256)": "58fb94ec",
					"owner()": "8da5cb5b",
					"registerVoter(address)": "38db6dd3",
					"renounceOwnership()": "715018a6",
					"sendNewProposition(string)": "45bf58fd",
					"sendVote(uint256)": "c8f5714e",
					"startProposalsRegistration()": "e09b8c79",
					"startVotingSession()": "ee74c678",
					"transferOwnership(address)": "f2fde38b",
					"unregisterVoter(address)": "7ed17751",
					"votingSessions(uint256)": "1186eb7c"
				}
			},
			"storageLayout": {
				"storage": [
					{
						"astId": 744,
						"contract": "contracts/14_VotingV4_withTest.sol:Voting",
						"label": "_owner",
						"offset": 0,
						"slot": "0",
						"type": "t_address"
					},
					{
						"astId": 6,
						"contract": "contracts/14_VotingV4_withTest.sol:Voting",
						"label": "currentVotingSessionId",
						"offset": 0,
						"slot": "1",
						"type": "t_uint256"
					},
					{
						"astId": 50,
						"contract": "contracts/14_VotingV4_withTest.sol:Voting",
						"label": "votingSessions",
						"offset": 0,
						"slot": "2",
						"type": "t_mapping(t_uint256,t_struct(VotingSession)38_storage)"
					},
					{
						"astId": 55,
						"contract": "contracts/14_VotingV4_withTest.sol:Voting",
						"label": "voters",
						"offset": 0,
						"slot": "3",
						"type": "t_mapping(t_address,t_struct(Voter)19_storage)"
					}
				],
				"types": {
					"t_address": {
						"encoding": "inplace",
						"label": "address",
						"numberOfBytes": "20"
					},
					"t_array(t_struct(Proposal)26_storage)dyn_storage": {
						"base": "t_struct(Proposal)26_storage",
						"encoding": "dynamic_array",
						"label": "struct Voting.Proposal[]",
						"numberOfBytes": "32"
					},
					"t_array(t_uint256)dyn_storage": {
						"base": "t_uint256",
						"encoding": "dynamic_array",
						"label": "uint256[]",
						"numberOfBytes": "32"
					},
					"t_bool": {
						"encoding": "inplace",
						"label": "bool",
						"numberOfBytes": "1"
					},
					"t_enum(WorkflowStatus)45": {
						"encoding": "inplace",
						"label": "enum Voting.WorkflowStatus",
						"numberOfBytes": "1"
					},
					"t_mapping(t_address,t_struct(Voter)19_storage)": {
						"encoding": "mapping",
						"key": "t_address",
						"label": "mapping(address => struct Voting.Voter)",
						"numberOfBytes": "32",
						"value": "t_struct(Voter)19_storage"
					},
					"t_mapping(t_uint256,t_bool)": {
						"encoding": "mapping",
						"key": "t_uint256",
						"label": "mapping(uint256 => bool)",
						"numberOfBytes": "32",
						"value": "t_bool"
					},
					"t_mapping(t_uint256,t_struct(VotingSession)38_storage)": {
						"encoding": "mapping",
						"key": "t_uint256",
						"label": "mapping(uint256 => struct Voting.VotingSession)",
						"numberOfBytes": "32",
						"value": "t_struct(VotingSession)38_storage"
					},
					"t_string_storage": {
						"encoding": "bytes",
						"label": "string",
						"numberOfBytes": "32"
					},
					"t_struct(Proposal)26_storage": {
						"encoding": "inplace",
						"label": "struct Voting.Proposal",
						"members": [
							{
								"astId": 21,
								"contract": "contracts/14_VotingV4_withTest.sol:Voting",
								"label": "id",
								"offset": 0,
								"slot": "0",
								"type": "t_uint256"
							},
							{
								"astId": 23,
								"contract": "contracts/14_VotingV4_withTest.sol:Voting",
								"label": "description",
								"offset": 0,
								"slot": "1",
								"type": "t_string_storage"
							},
							{
								"astId": 25,
								"contract": "contracts/14_VotingV4_withTest.sol:Voting",
								"label": "voteCount",
								"offset": 0,
								"slot": "2",
								"type": "t_uint256"
							}
						],
						"numberOfBytes": "96"
					},
					"t_struct(Voter)19_storage": {
						"encoding": "inplace",
						"label": "struct Voting.Voter",
						"members": [
							{
								"astId": 8,
								"contract": "contracts/14_VotingV4_withTest.sol:Voting",
								"label": "isRegistered",
								"offset": 0,
								"slot": "0",
								"type": "t_bool"
							},
							{
								"astId": 12,
								"contract": "contracts/14_VotingV4_withTest.sol:Voting",
								"label": "hasVotedSession",
								"offset": 0,
								"slot": "1",
								"type": "t_mapping(t_uint256,t_bool)"
							},
							{
								"astId": 15,
								"contract": "contracts/14_VotingV4_withTest.sol:Voting",
								"label": "votedSessionIds",
								"offset": 0,
								"slot": "2",
								"type": "t_array(t_uint256)dyn_storage"
							},
							{
								"astId": 18,
								"contract": "contracts/14_VotingV4_withTest.sol:Voting",
								"label": "proposalIds",
								"offset": 0,
								"slot": "3",
								"type": "t_array(t_uint256)dyn_storage"
							}
						],
						"numberOfBytes": "128"
					},
					"t_struct(VotingSession)38_storage": {
						"encoding": "inplace",
						"label": "struct Voting.VotingSession",
						"members": [
							{
								"astId": 29,
								"contract": "contracts/14_VotingV4_withTest.sol:Voting",
								"label": "workflowStatus",
								"offset": 0,
								"slot": "0",
								"type": "t_enum(WorkflowStatus)45"
							},
							{
								"astId": 31,
								"contract": "contracts/14_VotingV4_withTest.sol:Voting",
								"label": "winningProposalId",
								"offset": 0,
								"slot": "1",
								"type": "t_uint256"
							},
							{
								"astId": 35,
								"contract": "contracts/14_VotingV4_withTest.sol:Voting",
								"label": "proposals",
								"offset": 0,
								"slot": "2",
								"type": "t_array(t_struct(Proposal)26_storage)dyn_storage"
							},
							{
								"astId": 37,
								"contract": "contracts/14_VotingV4_withTest.sol:Voting",
								"label": "proposalCount",
								"offset": 0,
								"slot": "3",
								"type": "t_uint256"
							}
						],
						"numberOfBytes": "128"
					},
					"t_uint256": {
						"encoding": "inplace",
						"label": "uint256",
						"numberOfBytes": "32"
					}
				}
			},
			"userdoc": {
				"kind": "user",
				"methods": {},
				"version": 1
			}
		}
	}
}