{
	"contracts/11_Voting.sol": {
		"Voting": {
			"abi": [
				{
					"inputs": [],
					"stateMutability": "nonpayable",
					"type": "constructor"
				},
				{
					"inputs": [
						{
							"internalType": "address",
							"name": "owner",
							"type": "address"
						}
					],
					"name": "OwnableInvalidOwner",
					"type": "error"
				},
				{
					"inputs": [
						{
							"internalType": "address",
							"name": "account",
							"type": "address"
						}
					],
					"name": "OwnableUnauthorizedAccount",
					"type": "error"
				},
				{
					"anonymous": false,
					"inputs": [
						{
							"indexed": true,
							"internalType": "address",
							"name": "previousOwner",
							"type": "address"
						},
						{
							"indexed": true,
							"internalType": "address",
							"name": "newOwner",
							"type": "address"
						}
					],
					"name": "OwnershipTransferred",
					"type": "event"
				},
				{
					"anonymous": false,
					"inputs": [
						{
							"indexed": false,
							"internalType": "uint256",
							"name": "proposalId",
							"type": "uint256"
						}
					],
					"name": "ProposalRegistered",
					"type": "event"
				},
				{
					"anonymous": false,
					"inputs": [
						{
							"indexed": false,
							"internalType": "address",
							"name": "voter",
							"type": "address"
						},
						{
							"indexed": false,
							"internalType": "uint256",
							"name": "proposalId",
							"type": "uint256"
						}
					],
					"name": "Voted",
					"type": "event"
				},
				{
					"anonymous": false,
					"inputs": [
						{
							"indexed": false,
							"internalType": "address",
							"name": "voterAddress",
							"type": "address"
						}
					],
					"name": "VoterRegistered",
					"type": "event"
				},
				{
					"anonymous": false,
					"inputs": [
						{
							"indexed": false,
							"internalType": "enum Voting.WorkflowStatus",
							"name": "previousStatus",
							"type": "uint8"
						},
						{
							"indexed": false,
							"internalType": "enum Voting.WorkflowStatus",
							"name": "newStatus",
							"type": "uint8"
						}
					],
					"name": "WorkflowStatusChange",
					"type": "event"
				},
				{
					"inputs": [
						{
							"internalType": "address",
							"name": "_address",
							"type": "address"
						}
					],
					"name": "addToWhitelist",
					"outputs": [],
					"stateMutability": "nonpayable",
					"type": "function"
				},
				{
					"inputs": [],
					"name": "admin",
					"outputs": [
						{
							"internalType": "address",
							"name": "",
							"type": "address"
						}
					],
					"stateMutability": "view",
					"type": "function"
				},
				{
					"inputs": [],
					"name": "getMostVotedProposal",
					"outputs": [
						{
							"components": [
								{
									"internalType": "uint256",
									"name": "id",
									"type": "uint256"
								},
								{
									"internalType": "string",
									"name": "description",
									"type": "string"
								},
								{
									"internalType": "uint256",
									"name": "voteCount",
									"type": "uint256"
								}
							],
							"internalType": "struct Voting.Proposal",
							"name": "",
							"type": "tuple"
						}
					],
					"stateMutability": "view",
					"type": "function"
				},
				{
					"inputs": [],
					"name": "owner",
					"outputs": [
						{
							"internalType": "address",
							"name": "",
							"type": "address"
						}
					],
					"stateMutability": "view",
					"type": "function"
				},
				{
					"inputs": [
						{
							"internalType": "uint256",
							"name": "",
							"type": "uint256"
						}
					],
					"name": "proposals",
					"outputs": [
						{
							"internalType": "uint256",
							"name": "id",
							"type": "uint256"
						},
						{
							"internalType": "string",
							"name": "description",
							"type": "string"
						},
						{
							"internalType": "uint256",
							"name": "voteCount",
							"type": "uint256"
						}
					],
					"stateMutability": "view",
					"type": "function"
				},
				{
					"inputs": [],
					"name": "registeringVoters",
					"outputs": [],
					"stateMutability": "nonpayable",
					"type": "function"
				},
				{
					"inputs": [],
					"name": "renounceOwnership",
					"outputs": [],
					"stateMutability": "nonpayable",
					"type": "function"
				},
				{
					"inputs": [
						{
							"internalType": "string",
							"name": "_description",
							"type": "string"
						}
					],
					"name": "sendNewProposition",
					"outputs": [],
					"stateMutability": "nonpayable",
					"type": "function"
				},
				{
					"inputs": [
						{
							"internalType": "uint256",
							"name": "_proposalId",
							"type": "uint256"
						}
					],
					"name": "sendVote",
					"outputs": [],
					"stateMutability": "view",
					"type": "function"
				},
				{
					"inputs": [
						{
							"internalType": "address",
							"name": "newOwner",
							"type": "address"
						}
					],
					"name": "transferOwnership",
					"outputs": [],
					"stateMutability": "nonpayable",
					"type": "function"
				},
				{
					"inputs": [
						{
							"internalType": "address",
							"name": "",
							"type": "address"
						}
					],
					"name": "voters",
					"outputs": [
						{
							"internalType": "bool",
							"name": "isRegistered",
							"type": "bool"
						},
						{
							"internalType": "bool",
							"name": "hasVoted",
							"type": "bool"
						},
						{
							"internalType": "uint256",
							"name": "voteProposalId",
							"type": "uint256"
						}
					],
					"stateMutability": "view",
					"type": "function"
				},
				{
					"inputs": [
						{
							"internalType": "address",
							"name": "",
							"type": "address"
						}
					],
					"name": "whitelist",
					"outputs": [
						{
							"internalType": "bool",
							"name": "",
							"type": "bool"
						}
					],
					"stateMutability": "view",
					"type": "function"
				},
				{
					"inputs": [],
					"name": "winningProposalId",
					"outputs": [
						{
							"internalType": "uint256",
							"name": "",
							"type": "uint256"
						}
					],
					"stateMutability": "view",
					"type": "function"
				},
				{
					"inputs": [],
					"name": "workflowStatus",
					"outputs": [
						{
							"internalType": "enum Voting.WorkflowStatus",
							"name": "",
							"type": "uint8"
						}
					],
					"stateMutability": "view",
					"type": "function"
				}
			],
			"devdoc": {
				"errors": {
					"OwnableInvalidOwner(address)": [
						{
							"details": "The owner is not a valid owner account. (eg. `address(0)`)"
						}
					],
					"OwnableUnauthorizedAccount(address)": [
						{
							"details": "The caller account is not authorized to perform an operation."
						}
					]
				},
				"kind": "dev",
				"methods": {
					"owner()": {
						"details": "Returns the address of the current owner."
					},
					"renounceOwnership()": {
						"details": "Leaves the contract without owner. It will not be possible to call `onlyOwner` functions. Can only be called by the current owner. NOTE: Renouncing ownership will leave the contract without an owner, thereby disabling any functionality that is only available to the owner."
					},
					"transferOwnership(address)": {
						"details": "Transfers ownership of the contract to a new account (`newOwner`). Can only be called by the current owner."
					}
				},
				"version": 1
			},
			"evm": {
				"assembly": "    /* \"contracts/11_Voting.sol\":165:3000  contract Voting is Ownable {... */\n  mstore(0x40, 0x80)\n    /* \"contracts/11_Voting.sol\":245:314  constructor() Ownable(msg.sender) {... */\n  callvalue\n  dup1\n  iszero\n  tag_1\n  jumpi\n  revert(0x00, 0x00)\ntag_1:\n  pop\n    /* \"contracts/11_Voting.sol\":267:277  msg.sender */\n  caller\n    /* \"https://github.com/OpenZeppelin/openzeppelin-contracts/blob/master/contracts/access/Ownable.sol\":1297:1298  0 */\n  0x00\n    /* \"https://github.com/OpenZeppelin/openzeppelin-contracts/blob/master/contracts/access/Ownable.sol\":1273:1299  initialOwner == address(0) */\n  0xffffffffffffffffffffffffffffffffffffffff\n  and\n    /* \"https://github.com/OpenZeppelin/openzeppelin-contracts/blob/master/contracts/access/Ownable.sol\":1273:1285  initialOwner */\n  dup2\n    /* \"https://github.com/OpenZeppelin/openzeppelin-contracts/blob/master/contracts/access/Ownable.sol\":1273:1299  initialOwner == address(0) */\n  0xffffffffffffffffffffffffffffffffffffffff\n  and\n  sub\n    /* \"https://github.com/OpenZeppelin/openzeppelin-contracts/blob/master/contracts/access/Ownable.sol\":1269:1364  if (initialOwner == address(0)) {... */\n  tag_5\n  jumpi\n    /* \"https://github.com/OpenZeppelin/openzeppelin-contracts/blob/master/contracts/access/Ownable.sol\":1350:1351  0 */\n  0x00\n    /* \"https://github.com/OpenZeppelin/openzeppelin-contracts/blob/master/contracts/access/Ownable.sol\":1322:1353  OwnableInvalidOwner(address(0)) */\n  mload(0x40)\n  0x1e4fbdf700000000000000000000000000000000000000000000000000000000\n  dup2\n  mstore\n  0x04\n  add\n  tag_6\n  swap2\n  swap1\n  tag_7\n  jump\t// in\ntag_6:\n  mload(0x40)\n  dup1\n  swap2\n  sub\n  swap1\n  revert\n    /* \"https://github.com/OpenZeppelin/openzeppelin-contracts/blob/master/contracts/access/Ownable.sol\":1269:1364  if (initialOwner == address(0)) {... */\ntag_5:\n    /* \"https://github.com/OpenZeppelin/openzeppelin-contracts/blob/master/contracts/access/Ownable.sol\":1373:1405  _transferOwnership(initialOwner) */\n  tag_8\n    /* \"https://github.com/OpenZeppelin/openzeppelin-contracts/blob/master/contracts/access/Ownable.sol\":1392:1404  initialOwner */\n  dup2\n    /* \"https://github.com/OpenZeppelin/openzeppelin-contracts/blob/master/contracts/access/Ownable.sol\":1373:1391  _transferOwnership */\n  shl(0x20, tag_9)\n    /* \"https://github.com/OpenZeppelin/openzeppelin-contracts/blob/master/contracts/access/Ownable.sol\":1373:1405  _transferOwnership(initialOwner) */\n  0x20\n  shr\n  jump\t// in\ntag_8:\n    /* \"https://github.com/OpenZeppelin/openzeppelin-contracts/blob/master/contracts/access/Ownable.sol\":1225:1412  constructor(address initialOwner) {... */\n  pop\n    /* \"contracts/11_Voting.sol\":297:307  msg.sender */\n  caller\n    /* \"contracts/11_Voting.sol\":289:294  admin */\n  0x01\n  0x00\n    /* \"contracts/11_Voting.sol\":289:307  admin = msg.sender */\n  0x0100\n  exp\n  dup2\n  sload\n  dup2\n  0xffffffffffffffffffffffffffffffffffffffff\n  mul\n  not\n  and\n  swap1\n  dup4\n  0xffffffffffffffffffffffffffffffffffffffff\n  and\n  mul\n  or\n  swap1\n  sstore\n  pop\n    /* \"contracts/11_Voting.sol\":165:3000  contract Voting is Ownable {... */\n  jump(tag_11)\n    /* \"https://github.com/OpenZeppelin/openzeppelin-contracts/blob/master/contracts/access/Ownable.sol\":2912:3099  function _transferOwnership(address newOwner) internal virtual {... */\ntag_9:\n    /* \"https://github.com/OpenZeppelin/openzeppelin-contracts/blob/master/contracts/access/Ownable.sol\":2985:3001  address oldOwner */\n  0x00\n    /* \"https://github.com/OpenZeppelin/openzeppelin-contracts/blob/master/contracts/access/Ownable.sol\":3004:3010  _owner */\n  0x00\n  0x00\n  swap1\n  sload\n  swap1\n  0x0100\n  exp\n  swap1\n  div\n  0xffffffffffffffffffffffffffffffffffffffff\n  and\n    /* \"https://github.com/OpenZeppelin/openzeppelin-contracts/blob/master/contracts/access/Ownable.sol\":2985:3010  address oldOwner = _owner */\n  swap1\n  pop\n    /* \"https://github.com/OpenZeppelin/openzeppelin-contracts/blob/master/contracts/access/Ownable.sol\":3029:3037  newOwner */\n  dup2\n    /* \"https://github.com/OpenZeppelin/openzeppelin-contracts/blob/master/contracts/access/Ownable.sol\":3020:3026  _owner */\n  0x00\n  0x00\n    /* \"https://github.com/OpenZeppelin/openzeppelin-contracts/blob/master/contracts/access/Ownable.sol\":3020:3037  _owner = newOwner */\n  0x0100\n  exp\n  dup2\n  sload\n  dup2\n  0xffffffffffffffffffffffffffffffffffffffff\n  mul\n  not\n  and\n  swap1\n  dup4\n  0xffffffffffffffffffffffffffffffffffffffff\n  and\n  mul\n  or\n  swap1\n  sstore\n  pop\n    /* \"https://github.com/OpenZeppelin/openzeppelin-contracts/blob/master/contracts/access/Ownable.sol\":3083:3091  newOwner */\n  dup2\n    /* \"https://github.com/OpenZeppelin/openzeppelin-contracts/blob/master/contracts/access/Ownable.sol\":3052:3092  OwnershipTransferred(oldOwner, newOwner) */\n  0xffffffffffffffffffffffffffffffffffffffff\n  and\n    /* \"https://github.com/OpenZeppelin/openzeppelin-contracts/blob/master/contracts/access/Ownable.sol\":3073:3081  oldOwner */\n  dup2\n    /* \"https://github.com/OpenZeppelin/openzeppelin-contracts/blob/master/contracts/access/Ownable.sol\":3052:3092  OwnershipTransferred(oldOwner, newOwner) */\n  0xffffffffffffffffffffffffffffffffffffffff\n  and\n  0x8be0079c531659141344cd1fd0a4f28419497f9722a3daafe3b4186f6b6457e0\n  mload(0x40)\n  mload(0x40)\n  dup1\n  swap2\n  sub\n  swap1\n  log3\n    /* \"https://github.com/OpenZeppelin/openzeppelin-contracts/blob/master/contracts/access/Ownable.sol\":2975:3099  {... */\n  pop\n    /* \"https://github.com/OpenZeppelin/openzeppelin-contracts/blob/master/contracts/access/Ownable.sol\":2912:3099  function _transferOwnership(address newOwner) internal virtual {... */\n  pop\n  jump\t// out\n    /* \"#utility.yul\":7:133   */\ntag_13:\n    /* \"#utility.yul\":44:51   */\n  0x00\n    /* \"#utility.yul\":84:126   */\n  0xffffffffffffffffffffffffffffffffffffffff\n    /* \"#utility.yul\":77:82   */\n  dup3\n    /* \"#utility.yul\":73:127   */\n  and\n    /* \"#utility.yul\":62:127   */\n  swap1\n  pop\n    /* \"#utility.yul\":7:133   */\n  swap2\n  swap1\n  pop\n  jump\t// out\n    /* \"#utility.yul\":139:235   */\ntag_14:\n    /* \"#utility.yul\":176:183   */\n  0x00\n    /* \"#utility.yul\":205:229   */\n  tag_19\n    /* \"#utility.yul\":223:228   */\n  dup3\n    /* \"#utility.yul\":205:229   */\n  tag_13\n  jump\t// in\ntag_19:\n    /* \"#utility.yul\":194:229   */\n  swap1\n  pop\n    /* \"#utility.yul\":139:235   */\n  swap2\n  swap1\n  pop\n  jump\t// out\n    /* \"#utility.yul\":241:359   */\ntag_15:\n    /* \"#utility.yul\":328:352   */\n  tag_21\n    /* \"#utility.yul\":346:351   */\n  dup2\n    /* \"#utility.yul\":328:352   */\n  tag_14\n  jump\t// in\ntag_21:\n    /* \"#utility.yul\":323:326   */\n  dup3\n    /* \"#utility.yul\":316:353   */\n  mstore\n    /* \"#utility.yul\":241:359   */\n  pop\n  pop\n  jump\t// out\n    /* \"#utility.yul\":365:587   */\ntag_7:\n    /* \"#utility.yul\":458:462   */\n  0x00\n    /* \"#utility.yul\":496:498   */\n  0x20\n    /* \"#utility.yul\":485:494   */\n  dup3\n    /* \"#utility.yul\":481:499   */\n  add\n    /* \"#utility.yul\":473:499   */\n  swap1\n  pop\n    /* \"#utility.yul\":509:580   */\n  tag_23\n    /* \"#utility.yul\":577:578   */\n  0x00\n    /* \"#utility.yul\":566:575   */\n  dup4\n    /* \"#utility.yul\":562:579   */\n  add\n    /* \"#utility.yul\":553:559   */\n  dup5\n    /* \"#utility.yul\":509:580   */\n  tag_15\n  jump\t// in\ntag_23:\n    /* \"#utility.yul\":365:587   */\n  swap3\n  swap2\n  pop\n  pop\n  jump\t// out\n    /* \"contracts/11_Voting.sol\":165:3000  contract Voting is Ownable {... */\ntag_11:\n  dataSize(sub_0)\n  dup1\n  dataOffset(sub_0)\n  0x00\n  codecopy\n  0x00\n  return\nstop\n\nsub_0: assembly {\n        /* \"contracts/11_Voting.sol\":165:3000  contract Voting is Ownable {... */\n      mstore(0x40, 0x80)\n      callvalue\n      dup1\n      iszero\n      tag_1\n      jumpi\n      revert(0x00, 0x00)\n    tag_1:\n      pop\n      jumpi(tag_2, lt(calldatasize, 0x04))\n      shr(0xe0, calldataload(0x00))\n      dup1\n      0xa1edffa2\n      gt\n      tag_17\n      jumpi\n      dup1\n      0xc8f5714e\n      gt\n      tag_18\n      jumpi\n      dup1\n      0xc8f5714e\n      eq\n      tag_13\n      jumpi\n      dup1\n      0xe43252d7\n      eq\n      tag_14\n      jumpi\n      dup1\n      0xf2fde38b\n      eq\n      tag_15\n      jumpi\n      dup1\n      0xf851a440\n      eq\n      tag_16\n      jumpi\n      jump(tag_2)\n    tag_18:\n      dup1\n      0xa1edffa2\n      eq\n      tag_10\n      jumpi\n      dup1\n      0xa3ec138d\n      eq\n      tag_11\n      jumpi\n      dup1\n      0xc64963c5\n      eq\n      tag_12\n      jumpi\n      jump(tag_2)\n    tag_17:\n      dup1\n      0x45bf58fd\n      gt\n      tag_19\n      jumpi\n      dup1\n      0x45bf58fd\n      eq\n      tag_6\n      jumpi\n      dup1\n      0x715018a6\n      eq\n      tag_7\n      jumpi\n      dup1\n      0x8da5cb5b\n      eq\n      tag_8\n      jumpi\n      dup1\n      0x9b19251a\n      eq\n      tag_9\n      jumpi\n      jump(tag_2)\n    tag_19:\n      dup1\n      0x013cf08b\n      eq\n      tag_3\n      jumpi\n      dup1\n      0x18633beb\n      eq\n      tag_4\n      jumpi\n      dup1\n      0x4394ba21\n      eq\n      tag_5\n      jumpi\n    tag_2:\n      revert(0x00, 0x00)\n        /* \"contracts/11_Voting.sol\":449:476  Proposal[] public proposals */\n    tag_3:\n      tag_20\n      0x04\n      dup1\n      calldatasize\n      sub\n      dup2\n      add\n      swap1\n      tag_21\n      swap2\n      swap1\n      tag_22\n      jump\t// in\n    tag_21:\n      tag_23\n      jump\t// in\n    tag_20:\n      mload(0x40)\n      tag_24\n      swap4\n      swap3\n      swap2\n      swap1\n      tag_25\n      jump\t// in\n    tag_24:\n      mload(0x40)\n      dup1\n      swap2\n      sub\n      swap1\n      return\n        /* \"contracts/11_Voting.sol\":2578:2798  function registeringVoters() public {... */\n    tag_4:\n      tag_26\n      tag_27\n      jump\t// in\n    tag_26:\n      stop\n        /* \"contracts/11_Voting.sol\":2090:2412  function getMostVotedProposal() public view returns(Proposal memory) {... */\n    tag_5:\n      tag_28\n      tag_29\n      jump\t// in\n    tag_28:\n      mload(0x40)\n      tag_30\n      swap2\n      swap1\n      tag_31\n      jump\t// in\n    tag_30:\n      mload(0x40)\n      dup1\n      swap2\n      sub\n      swap1\n      return\n        /* \"contracts/11_Voting.sol\":1482:1745  function sendNewProposition(string memory _description) public {... */\n    tag_6:\n      tag_32\n      0x04\n      dup1\n      calldatasize\n      sub\n      dup2\n      add\n      swap1\n      tag_33\n      swap2\n      swap1\n      tag_34\n      jump\t// in\n    tag_33:\n      tag_35\n      jump\t// in\n    tag_32:\n      stop\n        /* \"https://github.com/OpenZeppelin/openzeppelin-contracts/blob/master/contracts/access/Ownable.sol\":2293:2394  function renounceOwnership() public virtual onlyOwner {... */\n    tag_7:\n      tag_36\n      tag_37\n      jump\t// in\n    tag_36:\n      stop\n        /* \"https://github.com/OpenZeppelin/openzeppelin-contracts/blob/master/contracts/access/Ownable.sol\":1638:1723  function owner() public view virtual returns (address) {... */\n    tag_8:\n      tag_38\n      tag_39\n      jump\t// in\n    tag_38:\n      mload(0x40)\n      tag_40\n      swap2\n      swap1\n      tag_41\n      jump\t// in\n    tag_40:\n      mload(0x40)\n      dup1\n      swap2\n      sub\n      swap1\n      return\n        /* \"contracts/11_Voting.sol\":378:419  mapping(address => bool) public whitelist */\n    tag_9:\n      tag_42\n      0x04\n      dup1\n      calldatasize\n      sub\n      dup2\n      add\n      swap1\n      tag_43\n      swap2\n      swap1\n      tag_44\n      jump\t// in\n    tag_43:\n      tag_45\n      jump\t// in\n    tag_42:\n      mload(0x40)\n      tag_46\n      swap2\n      swap1\n      tag_47\n      jump\t// in\n    tag_46:\n      mload(0x40)\n      dup1\n      swap2\n      sub\n      swap1\n      return\n        /* \"contracts/11_Voting.sol\":527:563  WorkflowStatus public workflowStatus */\n    tag_10:\n      tag_48\n      tag_49\n      jump\t// in\n    tag_48:\n      mload(0x40)\n      tag_50\n      swap2\n      swap1\n      tag_51\n      jump\t// in\n    tag_50:\n      mload(0x40)\n      dup1\n      swap2\n      sub\n      swap1\n      return\n        /* \"contracts/11_Voting.sol\":482:521  mapping(address => Voter) public voters */\n    tag_11:\n      tag_52\n      0x04\n      dup1\n      calldatasize\n      sub\n      dup2\n      add\n      swap1\n      tag_53\n      swap2\n      swap1\n      tag_44\n      jump\t// in\n    tag_53:\n      tag_54\n      jump\t// in\n    tag_52:\n      mload(0x40)\n      tag_55\n      swap4\n      swap3\n      swap2\n      swap1\n      tag_56\n      jump\t// in\n    tag_55:\n      mload(0x40)\n      dup1\n      swap2\n      sub\n      swap1\n      return\n        /* \"contracts/11_Voting.sol\":343:372  uint public winningProposalId */\n    tag_12:\n      tag_57\n      tag_58\n      jump\t// in\n    tag_57:\n      mload(0x40)\n      tag_59\n      swap2\n      swap1\n      tag_60\n      jump\t// in\n    tag_59:\n      mload(0x40)\n      dup1\n      swap2\n      sub\n      swap1\n      return\n        /* \"contracts/11_Voting.sol\":1751:2011  function sendVote(uint _proposalId) public view {... */\n    tag_13:\n      tag_61\n      0x04\n      dup1\n      calldatasize\n      sub\n      dup2\n      add\n      swap1\n      tag_62\n      swap2\n      swap1\n      tag_22\n      jump\t// in\n    tag_62:\n      tag_63\n      jump\t// in\n    tag_61:\n      stop\n        /* \"contracts/11_Voting.sol\":2479:2572  function addToWhitelist(address _address) public { ... */\n    tag_14:\n      tag_64\n      0x04\n      dup1\n      calldatasize\n      sub\n      dup2\n      add\n      swap1\n      tag_65\n      swap2\n      swap1\n      tag_44\n      jump\t// in\n    tag_65:\n      tag_66\n      jump\t// in\n    tag_64:\n      stop\n        /* \"https://github.com/OpenZeppelin/openzeppelin-contracts/blob/master/contracts/access/Ownable.sol\":2543:2758  function transferOwnership(address newOwner) public virtual onlyOwner {... */\n    tag_15:\n      tag_67\n      0x04\n      dup1\n      calldatasize\n      sub\n      dup2\n      add\n      swap1\n      tag_68\n      swap2\n      swap1\n      tag_44\n      jump\t// in\n    tag_68:\n      tag_69\n      jump\t// in\n    tag_67:\n      stop\n        /* \"contracts/11_Voting.sol\":219:239  address public admin */\n    tag_16:\n      tag_70\n      tag_71\n      jump\t// in\n    tag_70:\n      mload(0x40)\n      tag_72\n      swap2\n      swap1\n      tag_41\n      jump\t// in\n    tag_72:\n      mload(0x40)\n      dup1\n      swap2\n      sub\n      swap1\n      return\n        /* \"contracts/11_Voting.sol\":449:476  Proposal[] public proposals */\n    tag_23:\n      0x05\n      dup2\n      dup2\n      sload\n      dup2\n      lt\n      tag_73\n      jumpi\n      0x00\n      dup1\n      revert\n    tag_73:\n      swap1\n      0x00\n      mstore\n      keccak256(0x00, 0x20)\n      swap1\n      0x03\n      mul\n      add\n      0x00\n      swap2\n      pop\n      swap1\n      pop\n      dup1\n      0x00\n      add\n      sload\n      swap1\n      dup1\n      0x01\n      add\n      dup1\n      sload\n      tag_75\n      swap1\n      tag_76\n      jump\t// in\n    tag_75:\n      dup1\n      0x1f\n      add\n      0x20\n      dup1\n      swap2\n      div\n      mul\n      0x20\n      add\n      mload(0x40)\n      swap1\n      dup2\n      add\n      0x40\n      mstore\n      dup1\n      swap3\n      swap2\n      swap1\n      dup2\n      dup2\n      mstore\n      0x20\n      add\n      dup3\n      dup1\n      sload\n      tag_77\n      swap1\n      tag_76\n      jump\t// in\n    tag_77:\n      dup1\n      iszero\n      tag_78\n      jumpi\n      dup1\n      0x1f\n      lt\n      tag_79\n      jumpi\n      0x0100\n      dup1\n      dup4\n      sload\n      div\n      mul\n      dup4\n      mstore\n      swap2\n      0x20\n      add\n      swap2\n      jump(tag_78)\n    tag_79:\n      dup3\n      add\n      swap2\n      swap1\n      0x00\n      mstore\n      keccak256(0x00, 0x20)\n      swap1\n    tag_80:\n      dup2\n      sload\n      dup2\n      mstore\n      swap1\n      0x01\n      add\n      swap1\n      0x20\n      add\n      dup1\n      dup4\n      gt\n      tag_80\n      jumpi\n      dup3\n      swap1\n      sub\n      0x1f\n      and\n      dup3\n      add\n      swap2\n    tag_78:\n      pop\n      pop\n      pop\n      pop\n      pop\n      swap1\n      dup1\n      0x02\n      add\n      sload\n      swap1\n      pop\n      dup4\n      jump\t// out\n        /* \"contracts/11_Voting.sol\":2578:2798  function registeringVoters() public {... */\n    tag_27:\n        /* \"contracts/11_Voting.sol\":2646:2651  admin */\n      0x01\n      0x00\n      swap1\n      sload\n      swap1\n      0x0100\n      exp\n      swap1\n      div\n      0xffffffffffffffffffffffffffffffffffffffff\n      and\n        /* \"contracts/11_Voting.sol\":2632:2651  msg.sender == admin */\n      0xffffffffffffffffffffffffffffffffffffffff\n      and\n        /* \"contracts/11_Voting.sol\":2632:2642  msg.sender */\n      caller\n        /* \"contracts/11_Voting.sol\":2632:2651  msg.sender == admin */\n      0xffffffffffffffffffffffffffffffffffffffff\n      and\n      eq\n        /* \"contracts/11_Voting.sol\":2624:2677  require(msg.sender == admin, \"You are not the admin\") */\n      tag_82\n      jumpi\n      mload(0x40)\n      0x08c379a000000000000000000000000000000000000000000000000000000000\n      dup2\n      mstore\n      0x04\n      add\n      tag_83\n      swap1\n      tag_84\n      jump\t// in\n    tag_83:\n      mload(0x40)\n      dup1\n      swap2\n      sub\n      swap1\n      revert\n    tag_82:\n        /* \"contracts/11_Voting.sol\":2692:2791  WorkflowStatusChange(WorkflowStatus.RegisteringVoters, WorkflowStatus.ProposalsRegistrationStarted) */\n      0x0a97a4ee45751e2abf3e4fc8946939630b11b371ea8ae39ccdc3056e98f5cc3f\n        /* \"contracts/11_Voting.sol\":2713:2745  WorkflowStatus.RegisteringVoters */\n      0x00\n        /* \"contracts/11_Voting.sol\":2747:2790  WorkflowStatus.ProposalsRegistrationStarted */\n      0x01\n        /* \"contracts/11_Voting.sol\":2692:2791  WorkflowStatusChange(WorkflowStatus.RegisteringVoters, WorkflowStatus.ProposalsRegistrationStarted) */\n      mload(0x40)\n      tag_85\n      swap3\n      swap2\n      swap1\n      tag_86\n      jump\t// in\n    tag_85:\n      mload(0x40)\n      dup1\n      swap2\n      sub\n      swap1\n      log1\n        /* \"contracts/11_Voting.sol\":2578:2798  function registeringVoters() public {... */\n      jump\t// out\n        /* \"contracts/11_Voting.sol\":2090:2412  function getMostVotedProposal() public view returns(Proposal memory) {... */\n    tag_29:\n        /* \"contracts/11_Voting.sol\":2142:2157  Proposal memory */\n      tag_87\n      tag_88\n      jump\t// in\n    tag_87:\n        /* \"contracts/11_Voting.sol\":2169:2194  Proposal memory mostVoted */\n      0x00\n        /* \"contracts/11_Voting.sol\":2197:2206  proposals */\n      0x05\n        /* \"contracts/11_Voting.sol\":2207:2208  0 */\n      0x00\n        /* \"contracts/11_Voting.sol\":2197:2209  proposals[0] */\n      dup2\n      sload\n      dup2\n      lt\n      tag_90\n      jumpi\n      tag_91\n      tag_92\n      jump\t// in\n    tag_91:\n    tag_90:\n      swap1\n      0x00\n      mstore\n      keccak256(0x00, 0x20)\n      swap1\n      0x03\n      mul\n      add\n        /* \"contracts/11_Voting.sol\":2169:2209  Proposal memory mostVoted = proposals[0] */\n      mload(0x40)\n      dup1\n      0x60\n      add\n      0x40\n      mstore\n      swap1\n      dup2\n      0x00\n      dup3\n      add\n      sload\n      dup2\n      mstore\n      0x20\n      add\n      0x01\n      dup3\n      add\n      dup1\n      sload\n      tag_94\n      swap1\n      tag_76\n      jump\t// in\n    tag_94:\n      dup1\n      0x1f\n      add\n      0x20\n      dup1\n      swap2\n      div\n      mul\n      0x20\n      add\n      mload(0x40)\n      swap1\n      dup2\n      add\n      0x40\n      mstore\n      dup1\n      swap3\n      swap2\n      swap1\n      dup2\n      dup2\n      mstore\n      0x20\n      add\n      dup3\n      dup1\n      sload\n      tag_95\n      swap1\n      tag_76\n      jump\t// in\n    tag_95:\n      dup1\n      iszero\n      tag_96\n      jumpi\n      dup1\n      0x1f\n      lt\n      tag_97\n      jumpi\n      0x0100\n      dup1\n      dup4\n      sload\n      div\n      mul\n      dup4\n      mstore\n      swap2\n      0x20\n      add\n      swap2\n      jump(tag_96)\n    tag_97:\n      dup3\n      add\n      swap2\n      swap1\n      0x00\n      mstore\n      keccak256(0x00, 0x20)\n      swap1\n    tag_98:\n      dup2\n      sload\n      dup2\n      mstore\n      swap1\n      0x01\n      add\n      swap1\n      0x20\n      add\n      dup1\n      dup4\n      gt\n      tag_98\n      jumpi\n      dup3\n      swap1\n      sub\n      0x1f\n      and\n      dup3\n      add\n      swap2\n    tag_96:\n      pop\n      pop\n      pop\n      pop\n      pop\n      dup2\n      mstore\n      0x20\n      add\n      0x02\n      dup3\n      add\n      sload\n      dup2\n      mstore\n      pop\n      pop\n      swap1\n      pop\n        /* \"contracts/11_Voting.sol\":2225:2231  uint i */\n      0x00\n        /* \"contracts/11_Voting.sol\":2234:2235  0 */\n      0x00\n        /* \"contracts/11_Voting.sol\":2225:2235  uint i = 0 */\n      swap1\n      pop\n        /* \"contracts/11_Voting.sol\":2220:2379  for (uint i = 0; i < proposals.length; i++) {... */\n    tag_99:\n        /* \"contracts/11_Voting.sol\":2241:2250  proposals */\n      0x05\n        /* \"contracts/11_Voting.sol\":2241:2257  proposals.length */\n      dup1\n      sload\n      swap1\n      pop\n        /* \"contracts/11_Voting.sol\":2237:2238  i */\n      dup2\n        /* \"contracts/11_Voting.sol\":2237:2257  i < proposals.length */\n      lt\n        /* \"contracts/11_Voting.sol\":2220:2379  for (uint i = 0; i < proposals.length; i++) {... */\n      iszero\n      tag_100\n      jumpi\n        /* \"contracts/11_Voting.sol\":2307:2316  mostVoted */\n      dup2\n        /* \"contracts/11_Voting.sol\":2307:2326  mostVoted.voteCount */\n      0x40\n      add\n      mload\n        /* \"contracts/11_Voting.sol\":2282:2291  proposals */\n      0x05\n        /* \"contracts/11_Voting.sol\":2292:2293  i */\n      dup3\n        /* \"contracts/11_Voting.sol\":2282:2294  proposals[i] */\n      dup2\n      sload\n      dup2\n      lt\n      tag_102\n      jumpi\n      tag_103\n      tag_92\n      jump\t// in\n    tag_103:\n    tag_102:\n      swap1\n      0x00\n      mstore\n      keccak256(0x00, 0x20)\n      swap1\n      0x03\n      mul\n      add\n        /* \"contracts/11_Voting.sol\":2282:2304  proposals[i].voteCount */\n      0x02\n      add\n      sload\n        /* \"contracts/11_Voting.sol\":2282:2326  proposals[i].voteCount > mostVoted.voteCount */\n      gt\n        /* \"contracts/11_Voting.sol\":2278:2368  if (proposals[i].voteCount > mostVoted.voteCount)... */\n      iszero\n      tag_105\n      jumpi\n        /* \"contracts/11_Voting.sol\":2356:2365  proposals */\n      0x05\n        /* \"contracts/11_Voting.sol\":2366:2367  i */\n      dup2\n        /* \"contracts/11_Voting.sol\":2356:2368  proposals[i] */\n      dup2\n      sload\n      dup2\n      lt\n      tag_106\n      jumpi\n      tag_107\n      tag_92\n      jump\t// in\n    tag_107:\n    tag_106:\n      swap1\n      0x00\n      mstore\n      keccak256(0x00, 0x20)\n      swap1\n      0x03\n      mul\n      add\n        /* \"contracts/11_Voting.sol\":2344:2368  mostVoted = proposals[i] */\n      mload(0x40)\n      dup1\n      0x60\n      add\n      0x40\n      mstore\n      swap1\n      dup2\n      0x00\n      dup3\n      add\n      sload\n      dup2\n      mstore\n      0x20\n      add\n      0x01\n      dup3\n      add\n      dup1\n      sload\n      tag_109\n      swap1\n      tag_76\n      jump\t// in\n    tag_109:\n      dup1\n      0x1f\n      add\n      0x20\n      dup1\n      swap2\n      div\n      mul\n      0x20\n      add\n      mload(0x40)\n      swap1\n      dup2\n      add\n      0x40\n      mstore\n      dup1\n      swap3\n      swap2\n      swap1\n      dup2\n      dup2\n      mstore\n      0x20\n      add\n      dup3\n      dup1\n      sload\n      tag_110\n      swap1\n      tag_76\n      jump\t// in\n    tag_110:\n      dup1\n      iszero\n      tag_111\n      jumpi\n      dup1\n      0x1f\n      lt\n      tag_112\n      jumpi\n      0x0100\n      dup1\n      dup4\n      sload\n      div\n      mul\n      dup4\n      mstore\n      swap2\n      0x20\n      add\n      swap2\n      jump(tag_111)\n    tag_112:\n      dup3\n      add\n      swap2\n      swap1\n      0x00\n      mstore\n      keccak256(0x00, 0x20)\n      swap1\n    tag_113:\n      dup2\n      sload\n      dup2\n      mstore\n      swap1\n      0x01\n      add\n      swap1\n      0x20\n      add\n      dup1\n      dup4\n      gt\n      tag_113\n      jumpi\n      dup3\n      swap1\n      sub\n      0x1f\n      and\n      dup3\n      add\n      swap2\n    tag_111:\n      pop\n      pop\n      pop\n      pop\n      pop\n      dup2\n      mstore\n      0x20\n      add\n      0x02\n      dup3\n      add\n      sload\n      dup2\n      mstore\n      pop\n      pop\n      swap2\n      pop\n        /* \"contracts/11_Voting.sol\":2278:2368  if (proposals[i].voteCount > mostVoted.voteCount)... */\n    tag_105:\n        /* \"contracts/11_Voting.sol\":2259:2262  i++ */\n      dup1\n      dup1\n      0x01\n      add\n      swap2\n      pop\n      pop\n        /* \"contracts/11_Voting.sol\":2220:2379  for (uint i = 0; i < proposals.length; i++) {... */\n      jump(tag_99)\n    tag_100:\n      pop\n        /* \"contracts/11_Voting.sol\":2396:2405  mostVoted */\n      dup1\n        /* \"contracts/11_Voting.sol\":2389:2405  return mostVoted */\n      swap2\n      pop\n      pop\n        /* \"contracts/11_Voting.sol\":2090:2412  function getMostVotedProposal() public view returns(Proposal memory) {... */\n      swap1\n      jump\t// out\n        /* \"contracts/11_Voting.sol\":1482:1745  function sendNewProposition(string memory _description) public {... */\n    tag_35:\n        /* \"contracts/11_Voting.sol\":1581:1624  WorkflowStatus.ProposalsRegistrationStarted */\n      0x01\n        /* \"contracts/11_Voting.sol\":1563:1624  workflowStatus == WorkflowStatus.ProposalsRegistrationStarted */\n      0x05\n      dup2\n      gt\n      iszero\n      tag_115\n      jumpi\n      tag_116\n      tag_117\n      jump\t// in\n    tag_116:\n    tag_115:\n        /* \"contracts/11_Voting.sol\":1563:1577  workflowStatus */\n      0x07\n      0x00\n      swap1\n      sload\n      swap1\n      0x0100\n      exp\n      swap1\n      div\n      0xff\n      and\n        /* \"contracts/11_Voting.sol\":1563:1624  workflowStatus == WorkflowStatus.ProposalsRegistrationStarted */\n      0x05\n      dup2\n      gt\n      iszero\n      tag_118\n      jumpi\n      tag_119\n      tag_117\n      jump\t// in\n    tag_119:\n    tag_118:\n      eq\n        /* \"contracts/11_Voting.sol\":1555:1657  require(workflowStatus == WorkflowStatus.ProposalsRegistrationStarted, \"registration did not started\") */\n      tag_120\n      jumpi\n      mload(0x40)\n      0x08c379a000000000000000000000000000000000000000000000000000000000\n      dup2\n      mstore\n      0x04\n      add\n      tag_121\n      swap1\n      tag_122\n      jump\t// in\n    tag_121:\n      mload(0x40)\n      dup1\n      swap2\n      sub\n      swap1\n      revert\n    tag_120:\n        /* \"contracts/11_Voting.sol\":1667:1672  nonce */\n      0x04\n      0x00\n        /* \"contracts/11_Voting.sol\":1667:1674  nonce++ */\n      dup2\n      sload\n      dup1\n      swap3\n      swap2\n      swap1\n      tag_123\n      swap1\n      tag_124\n      jump\t// in\n    tag_123:\n      swap2\n      swap1\n      pop\n      sstore\n      pop\n        /* \"contracts/11_Voting.sol\":1703:1735  Proposal(nonce, _description, 0) */\n      mload(0x40)\n      dup1\n      0x60\n      add\n      0x40\n      mstore\n      dup1\n        /* \"contracts/11_Voting.sol\":1712:1717  nonce */\n      sload(0x04)\n        /* \"contracts/11_Voting.sol\":1703:1735  Proposal(nonce, _description, 0) */\n      dup2\n      mstore\n      0x20\n      add\n        /* \"contracts/11_Voting.sol\":1719:1731  _description */\n      dup3\n        /* \"contracts/11_Voting.sol\":1703:1735  Proposal(nonce, _description, 0) */\n      dup2\n      mstore\n      0x20\n      add\n        /* \"contracts/11_Voting.sol\":1733:1734  0 */\n      0x00\n        /* \"contracts/11_Voting.sol\":1703:1735  Proposal(nonce, _description, 0) */\n      dup2\n      mstore\n      pop\n        /* \"contracts/11_Voting.sol\":1684:1693  proposals */\n      0x05\n        /* \"contracts/11_Voting.sol\":1694:1699  nonce */\n      sload(0x04)\n        /* \"contracts/11_Voting.sol\":1684:1700  proposals[nonce] */\n      dup2\n      sload\n      dup2\n      lt\n      tag_125\n      jumpi\n      tag_126\n      tag_92\n      jump\t// in\n    tag_126:\n    tag_125:\n      swap1\n      0x00\n      mstore\n      keccak256(0x00, 0x20)\n      swap1\n      0x03\n      mul\n      add\n        /* \"contracts/11_Voting.sol\":1684:1735  proposals[nonce] = Proposal(nonce, _description, 0) */\n      0x00\n      dup3\n      add\n      mload\n      dup2\n      0x00\n      add\n      sstore\n      0x20\n      dup3\n      add\n      mload\n      dup2\n      0x01\n      add\n      swap1\n      dup2\n      tag_128\n      swap2\n      swap1\n      tag_129\n      jump\t// in\n    tag_128:\n      pop\n      0x40\n      dup3\n      add\n      mload\n      dup2\n      0x02\n      add\n      sstore\n      swap1\n      pop\n      pop\n        /* \"contracts/11_Voting.sol\":1482:1745  function sendNewProposition(string memory _description) public {... */\n      pop\n      jump\t// out\n        /* \"https://github.com/OpenZeppelin/openzeppelin-contracts/blob/master/contracts/access/Ownable.sol\":2293:2394  function renounceOwnership() public virtual onlyOwner {... */\n    tag_37:\n        /* \"https://github.com/OpenZeppelin/openzeppelin-contracts/blob/master/contracts/access/Ownable.sol\":1531:1544  _checkOwner() */\n      tag_131\n        /* \"https://github.com/OpenZeppelin/openzeppelin-contracts/blob/master/contracts/access/Ownable.sol\":1531:1542  _checkOwner */\n      tag_132\n        /* \"https://github.com/OpenZeppelin/openzeppelin-contracts/blob/master/contracts/access/Ownable.sol\":1531:1544  _checkOwner() */\n      jump\t// in\n    tag_131:\n        /* \"https://github.com/OpenZeppelin/openzeppelin-contracts/blob/master/contracts/access/Ownable.sol\":2357:2387  _transferOwnership(address(0)) */\n      tag_134\n        /* \"https://github.com/OpenZeppelin/openzeppelin-contracts/blob/master/contracts/access/Ownable.sol\":2384:2385  0 */\n      0x00\n        /* \"https://github.com/OpenZeppelin/openzeppelin-contracts/blob/master/contracts/access/Ownable.sol\":2357:2375  _transferOwnership */\n      tag_135\n        /* \"https://github.com/OpenZeppelin/openzeppelin-contracts/blob/master/contracts/access/Ownable.sol\":2357:2387  _transferOwnership(address(0)) */\n      jump\t// in\n    tag_134:\n        /* \"https://github.com/OpenZeppelin/openzeppelin-contracts/blob/master/contracts/access/Ownable.sol\":2293:2394  function renounceOwnership() public virtual onlyOwner {... */\n      jump\t// out\n        /* \"https://github.com/OpenZeppelin/openzeppelin-contracts/blob/master/contracts/access/Ownable.sol\":1638:1723  function owner() public view virtual returns (address) {... */\n    tag_39:\n        /* \"https://github.com/OpenZeppelin/openzeppelin-contracts/blob/master/contracts/access/Ownable.sol\":1684:1691  address */\n      0x00\n        /* \"https://github.com/OpenZeppelin/openzeppelin-contracts/blob/master/contracts/access/Ownable.sol\":1710:1716  _owner */\n      0x00\n      0x00\n      swap1\n      sload\n      swap1\n      0x0100\n      exp\n      swap1\n      div\n      0xffffffffffffffffffffffffffffffffffffffff\n      and\n        /* \"https://github.com/OpenZeppelin/openzeppelin-contracts/blob/master/contracts/access/Ownable.sol\":1703:1716  return _owner */\n      swap1\n      pop\n        /* \"https://github.com/OpenZeppelin/openzeppelin-contracts/blob/master/contracts/access/Ownable.sol\":1638:1723  function owner() public view virtual returns (address) {... */\n      swap1\n      jump\t// out\n        /* \"contracts/11_Voting.sol\":378:419  mapping(address => bool) public whitelist */\n    tag_45:\n      mstore(0x20, 0x03)\n      dup1\n      0x00\n      mstore\n      keccak256(0x00, 0x40)\n      0x00\n      swap2\n      pop\n      sload\n      swap1\n      0x0100\n      exp\n      swap1\n      div\n      0xff\n      and\n      dup2\n      jump\t// out\n        /* \"contracts/11_Voting.sol\":527:563  WorkflowStatus public workflowStatus */\n    tag_49:\n      0x07\n      0x00\n      swap1\n      sload\n      swap1\n      0x0100\n      exp\n      swap1\n      div\n      0xff\n      and\n      dup2\n      jump\t// out\n        /* \"contracts/11_Voting.sol\":482:521  mapping(address => Voter) public voters */\n    tag_54:\n      mstore(0x20, 0x06)\n      dup1\n      0x00\n      mstore\n      keccak256(0x00, 0x40)\n      0x00\n      swap2\n      pop\n      swap1\n      pop\n      dup1\n      0x00\n      add\n      0x00\n      swap1\n      sload\n      swap1\n      0x0100\n      exp\n      swap1\n      div\n      0xff\n      and\n      swap1\n      dup1\n      0x00\n      add\n      0x01\n      swap1\n      sload\n      swap1\n      0x0100\n      exp\n      swap1\n      div\n      0xff\n      and\n      swap1\n      dup1\n      0x01\n      add\n      sload\n      swap1\n      pop\n      dup4\n      jump\t// out\n        /* \"contracts/11_Voting.sol\":343:372  uint public winningProposalId */\n    tag_58:\n      sload(0x02)\n      dup2\n      jump\t// out\n        /* \"contracts/11_Voting.sol\":1751:2011  function sendVote(uint _proposalId) public view {... */\n    tag_63:\n        /* \"contracts/11_Voting.sol\":1809:1823  Voter memory v */\n      0x00\n        /* \"contracts/11_Voting.sol\":1826:1832  voters */\n      0x06\n        /* \"contracts/11_Voting.sol\":1826:1844  voters[msg.sender] */\n      0x00\n        /* \"contracts/11_Voting.sol\":1833:1843  msg.sender */\n      caller\n        /* \"contracts/11_Voting.sol\":1826:1844  voters[msg.sender] */\n      0xffffffffffffffffffffffffffffffffffffffff\n      and\n      0xffffffffffffffffffffffffffffffffffffffff\n      and\n      dup2\n      mstore\n      0x20\n      add\n      swap1\n      dup2\n      mstore\n      0x20\n      add\n      0x00\n      keccak256\n        /* \"contracts/11_Voting.sol\":1809:1844  Voter memory v = voters[msg.sender] */\n      mload(0x40)\n      dup1\n      0x60\n      add\n      0x40\n      mstore\n      swap1\n      dup2\n      0x00\n      dup3\n      add\n      0x00\n      swap1\n      sload\n      swap1\n      0x0100\n      exp\n      swap1\n      div\n      0xff\n      and\n      iszero\n      iszero\n      iszero\n      iszero\n      dup2\n      mstore\n      0x20\n      add\n      0x00\n      dup3\n      add\n      0x01\n      swap1\n      sload\n      swap1\n      0x0100\n      exp\n      swap1\n      div\n      0xff\n      and\n      iszero\n      iszero\n      iszero\n      iszero\n      dup2\n      mstore\n      0x20\n      add\n      0x01\n      dup3\n      add\n      sload\n      dup2\n      mstore\n      pop\n      pop\n      swap1\n      pop\n        /* \"contracts/11_Voting.sol\":1863:1864  v */\n      dup1\n        /* \"contracts/11_Voting.sol\":1863:1873  v.hasVoted */\n      0x20\n      add\n      mload\n        /* \"contracts/11_Voting.sol\":1862:1873  !v.hasVoted */\n      iszero\n        /* \"contracts/11_Voting.sol\":1854:1902  require(!v.hasVoted, \"do you have already vote\") */\n      tag_138\n      jumpi\n      mload(0x40)\n      0x08c379a000000000000000000000000000000000000000000000000000000000\n      dup2\n      mstore\n      0x04\n      add\n      tag_139\n      swap1\n      tag_140\n      jump\t// in\n    tag_139:\n      mload(0x40)\n      dup1\n      swap2\n      sub\n      swap1\n      revert\n    tag_138:\n        /* \"contracts/11_Voting.sol\":1912:1929  Proposal memory p */\n      0x00\n        /* \"contracts/11_Voting.sol\":1932:1941  proposals */\n      0x05\n        /* \"contracts/11_Voting.sol\":1942:1953  _proposalId */\n      dup4\n        /* \"contracts/11_Voting.sol\":1932:1954  proposals[_proposalId] */\n      dup2\n      sload\n      dup2\n      lt\n      tag_141\n      jumpi\n      tag_142\n      tag_92\n      jump\t// in\n    tag_142:\n    tag_141:\n      swap1\n      0x00\n      mstore\n      keccak256(0x00, 0x20)\n      swap1\n      0x03\n      mul\n      add\n        /* \"contracts/11_Voting.sol\":1912:1954  Proposal memory p = proposals[_proposalId] */\n      mload(0x40)\n      dup1\n      0x60\n      add\n      0x40\n      mstore\n      swap1\n      dup2\n      0x00\n      dup3\n      add\n      sload\n      dup2\n      mstore\n      0x20\n      add\n      0x01\n      dup3\n      add\n      dup1\n      sload\n      tag_144\n      swap1\n      tag_76\n      jump\t// in\n    tag_144:\n      dup1\n      0x1f\n      add\n      0x20\n      dup1\n      swap2\n      div\n      mul\n      0x20\n      add\n      mload(0x40)\n      swap1\n      dup2\n      add\n      0x40\n      mstore\n      dup1\n      swap3\n      swap2\n      swap1\n      dup2\n      dup2\n      mstore\n      0x20\n      add\n      dup3\n      dup1\n      sload\n      tag_145\n      swap1\n      tag_76\n      jump\t// in\n    tag_145:\n      dup1\n      iszero\n      tag_146\n      jumpi\n      dup1\n      0x1f\n      lt\n      tag_147\n      jumpi\n      0x0100\n      dup1\n      dup4\n      sload\n      div\n      mul\n      dup4\n      mstore\n      swap2\n      0x20\n      add\n      swap2\n      jump(tag_146)\n    tag_147:\n      dup3\n      add\n      swap2\n      swap1\n      0x00\n      mstore\n      keccak256(0x00, 0x20)\n      swap1\n    tag_148:\n      dup2\n      sload\n      dup2\n      mstore\n      swap1\n      0x01\n      add\n      swap1\n      0x20\n      add\n      dup1\n      dup4\n      gt\n      tag_148\n      jumpi\n      dup3\n      swap1\n      sub\n      0x1f\n      and\n      dup3\n      add\n      swap2\n    tag_146:\n      pop\n      pop\n      pop\n      pop\n      pop\n      dup2\n      mstore\n      0x20\n      add\n      0x02\n      dup3\n      add\n      sload\n      dup2\n      mstore\n      pop\n      pop\n      swap1\n      pop\n        /* \"contracts/11_Voting.sol\":1964:1965  p */\n      dup1\n        /* \"contracts/11_Voting.sol\":1964:1975  p.voteCount */\n      0x40\n      add\n        /* \"contracts/11_Voting.sol\":1964:1977  p.voteCount++ */\n      dup1\n      mload\n      dup1\n      swap2\n      swap1\n      tag_149\n      swap1\n      tag_124\n      jump\t// in\n    tag_149:\n      dup2\n      mstore\n      pop\n      pop\n        /* \"contracts/11_Voting.sol\":2000:2004  true */\n      0x01\n        /* \"contracts/11_Voting.sol\":1987:1988  v */\n      dup3\n        /* \"contracts/11_Voting.sol\":1987:1997  v.hasVoted */\n      0x20\n      add\n        /* \"contracts/11_Voting.sol\":1987:2004  v.hasVoted = true */\n      swap1\n      iszero\n      iszero\n      swap1\n      dup2\n      iszero\n      iszero\n      dup2\n      mstore\n      pop\n      pop\n        /* \"contracts/11_Voting.sol\":1799:2011  {... */\n      pop\n      pop\n        /* \"contracts/11_Voting.sol\":1751:2011  function sendVote(uint _proposalId) public view {... */\n      pop\n      jump\t// out\n        /* \"contracts/11_Voting.sol\":2479:2572  function addToWhitelist(address _address) public { ... */\n    tag_66:\n        /* \"contracts/11_Voting.sol\":2561:2565  true */\n      0x01\n        /* \"contracts/11_Voting.sol\":2539:2548  whitelist */\n      0x03\n        /* \"contracts/11_Voting.sol\":2539:2558  whitelist[_address] */\n      0x00\n        /* \"contracts/11_Voting.sol\":2549:2557  _address */\n      dup4\n        /* \"contracts/11_Voting.sol\":2539:2558  whitelist[_address] */\n      0xffffffffffffffffffffffffffffffffffffffff\n      and\n      0xffffffffffffffffffffffffffffffffffffffff\n      and\n      dup2\n      mstore\n      0x20\n      add\n      swap1\n      dup2\n      mstore\n      0x20\n      add\n      0x00\n      keccak256\n      0x00\n        /* \"contracts/11_Voting.sol\":2539:2565  whitelist[_address] = true */\n      0x0100\n      exp\n      dup2\n      sload\n      dup2\n      0xff\n      mul\n      not\n      and\n      swap1\n      dup4\n      iszero\n      iszero\n      mul\n      or\n      swap1\n      sstore\n      pop\n        /* \"contracts/11_Voting.sol\":2479:2572  function addToWhitelist(address _address) public { ... */\n      pop\n      jump\t// out\n        /* \"https://github.com/OpenZeppelin/openzeppelin-contracts/blob/master/contracts/access/Ownable.sol\":2543:2758  function transferOwnership(address newOwner) public virtual onlyOwner {... */\n    tag_69:\n        /* \"https://github.com/OpenZeppelin/openzeppelin-contracts/blob/master/contracts/access/Ownable.sol\":1531:1544  _checkOwner() */\n      tag_152\n        /* \"https://github.com/OpenZeppelin/openzeppelin-contracts/blob/master/contracts/access/Ownable.sol\":1531:1542  _checkOwner */\n      tag_132\n        /* \"https://github.com/OpenZeppelin/openzeppelin-contracts/blob/master/contracts/access/Ownable.sol\":1531:1544  _checkOwner() */\n      jump\t// in\n    tag_152:\n        /* \"https://github.com/OpenZeppelin/openzeppelin-contracts/blob/master/contracts/access/Ownable.sol\":2647:2648  0 */\n      0x00\n        /* \"https://github.com/OpenZeppelin/openzeppelin-contracts/blob/master/contracts/access/Ownable.sol\":2627:2649  newOwner == address(0) */\n      0xffffffffffffffffffffffffffffffffffffffff\n      and\n        /* \"https://github.com/OpenZeppelin/openzeppelin-contracts/blob/master/contracts/access/Ownable.sol\":2627:2635  newOwner */\n      dup2\n        /* \"https://github.com/OpenZeppelin/openzeppelin-contracts/blob/master/contracts/access/Ownable.sol\":2627:2649  newOwner == address(0) */\n      0xffffffffffffffffffffffffffffffffffffffff\n      and\n      sub\n        /* \"https://github.com/OpenZeppelin/openzeppelin-contracts/blob/master/contracts/access/Ownable.sol\":2623:2714  if (newOwner == address(0)) {... */\n      tag_154\n      jumpi\n        /* \"https://github.com/OpenZeppelin/openzeppelin-contracts/blob/master/contracts/access/Ownable.sol\":2700:2701  0 */\n      0x00\n        /* \"https://github.com/OpenZeppelin/openzeppelin-contracts/blob/master/contracts/access/Ownable.sol\":2672:2703  OwnableInvalidOwner(address(0)) */\n      mload(0x40)\n      0x1e4fbdf700000000000000000000000000000000000000000000000000000000\n      dup2\n      mstore\n      0x04\n      add\n      tag_155\n      swap2\n      swap1\n      tag_41\n      jump\t// in\n    tag_155:\n      mload(0x40)\n      dup1\n      swap2\n      sub\n      swap1\n      revert\n        /* \"https://github.com/OpenZeppelin/openzeppelin-contracts/blob/master/contracts/access/Ownable.sol\":2623:2714  if (newOwner == address(0)) {... */\n    tag_154:\n        /* \"https://github.com/OpenZeppelin/openzeppelin-contracts/blob/master/contracts/access/Ownable.sol\":2723:2751  _transferOwnership(newOwner) */\n      tag_156\n        /* \"https://github.com/OpenZeppelin/openzeppelin-contracts/blob/master/contracts/access/Ownable.sol\":2742:2750  newOwner */\n      dup2\n        /* \"https://github.com/OpenZeppelin/openzeppelin-contracts/blob/master/contracts/access/Ownable.sol\":2723:2741  _transferOwnership */\n      tag_135\n        /* \"https://github.com/OpenZeppelin/openzeppelin-contracts/blob/master/contracts/access/Ownable.sol\":2723:2751  _transferOwnership(newOwner) */\n      jump\t// in\n    tag_156:\n        /* \"https://github.com/OpenZeppelin/openzeppelin-contracts/blob/master/contracts/access/Ownable.sol\":2543:2758  function transferOwnership(address newOwner) public virtual onlyOwner {... */\n      pop\n      jump\t// out\n        /* \"contracts/11_Voting.sol\":219:239  address public admin */\n    tag_71:\n      0x01\n      0x00\n      swap1\n      sload\n      swap1\n      0x0100\n      exp\n      swap1\n      div\n      0xffffffffffffffffffffffffffffffffffffffff\n      and\n      dup2\n      jump\t// out\n        /* \"https://github.com/OpenZeppelin/openzeppelin-contracts/blob/master/contracts/access/Ownable.sol\":1796:1958  function _checkOwner() internal view virtual {... */\n    tag_132:\n        /* \"https://github.com/OpenZeppelin/openzeppelin-contracts/blob/master/contracts/access/Ownable.sol\":1866:1878  _msgSender() */\n      tag_158\n        /* \"https://github.com/OpenZeppelin/openzeppelin-contracts/blob/master/contracts/access/Ownable.sol\":1866:1876  _msgSender */\n      tag_159\n        /* \"https://github.com/OpenZeppelin/openzeppelin-contracts/blob/master/contracts/access/Ownable.sol\":1866:1878  _msgSender() */\n      jump\t// in\n    tag_158:\n        /* \"https://github.com/OpenZeppelin/openzeppelin-contracts/blob/master/contracts/access/Ownable.sol\":1855:1878  owner() != _msgSender() */\n      0xffffffffffffffffffffffffffffffffffffffff\n      and\n        /* \"https://github.com/OpenZeppelin/openzeppelin-contracts/blob/master/contracts/access/Ownable.sol\":1855:1862  owner() */\n      tag_160\n        /* \"https://github.com/OpenZeppelin/openzeppelin-contracts/blob/master/contracts/access/Ownable.sol\":1855:1860  owner */\n      tag_39\n        /* \"https://github.com/OpenZeppelin/openzeppelin-contracts/blob/master/contracts/access/Ownable.sol\":1855:1862  owner() */\n      jump\t// in\n    tag_160:\n        /* \"https://github.com/OpenZeppelin/openzeppelin-contracts/blob/master/contracts/access/Ownable.sol\":1855:1878  owner() != _msgSender() */\n      0xffffffffffffffffffffffffffffffffffffffff\n      and\n      eq\n        /* \"https://github.com/OpenZeppelin/openzeppelin-contracts/blob/master/contracts/access/Ownable.sol\":1851:1952  if (owner() != _msgSender()) {... */\n      tag_161\n      jumpi\n        /* \"https://github.com/OpenZeppelin/openzeppelin-contracts/blob/master/contracts/access/Ownable.sol\":1928:1940  _msgSender() */\n      tag_162\n        /* \"https://github.com/OpenZeppelin/openzeppelin-contracts/blob/master/contracts/access/Ownable.sol\":1928:1938  _msgSender */\n      tag_159\n        /* \"https://github.com/OpenZeppelin/openzeppelin-contracts/blob/master/contracts/access/Ownable.sol\":1928:1940  _msgSender() */\n      jump\t// in\n    tag_162:\n        /* \"https://github.com/OpenZeppelin/openzeppelin-contracts/blob/master/contracts/access/Ownable.sol\":1901:1941  OwnableUnauthorizedAccount(_msgSender()) */\n      mload(0x40)\n      0x118cdaa700000000000000000000000000000000000000000000000000000000\n      dup2\n      mstore\n      0x04\n      add\n      tag_163\n      swap2\n      swap1\n      tag_41\n      jump\t// in\n    tag_163:\n      mload(0x40)\n      dup1\n      swap2\n      sub\n      swap1\n      revert\n        /* \"https://github.com/OpenZeppelin/openzeppelin-contracts/blob/master/contracts/access/Ownable.sol\":1851:1952  if (owner() != _msgSender()) {... */\n    tag_161:\n        /* \"https://github.com/OpenZeppelin/openzeppelin-contracts/blob/master/contracts/access/Ownable.sol\":1796:1958  function _checkOwner() internal view virtual {... */\n      jump\t// out\n        /* \"https://github.com/OpenZeppelin/openzeppelin-contracts/blob/master/contracts/access/Ownable.sol\":2912:3099  function _transferOwnership(address newOwner) internal virtual {... */\n    tag_135:\n        /* \"https://github.com/OpenZeppelin/openzeppelin-contracts/blob/master/contracts/access/Ownable.sol\":2985:3001  address oldOwner */\n      0x00\n        /* \"https://github.com/OpenZeppelin/openzeppelin-contracts/blob/master/contracts/access/Ownable.sol\":3004:3010  _owner */\n      0x00\n      0x00\n      swap1\n      sload\n      swap1\n      0x0100\n      exp\n      swap1\n      div\n      0xffffffffffffffffffffffffffffffffffffffff\n      and\n        /* \"https://github.com/OpenZeppelin/openzeppelin-contracts/blob/master/contracts/access/Ownable.sol\":2985:3010  address oldOwner = _owner */\n      swap1\n      pop\n        /* \"https://github.com/OpenZeppelin/openzeppelin-contracts/blob/master/contracts/access/Ownable.sol\":3029:3037  newOwner */\n      dup2\n        /* \"https://github.com/OpenZeppelin/openzeppelin-contracts/blob/master/contracts/access/Ownable.sol\":3020:3026  _owner */\n      0x00\n      0x00\n        /* \"https://github.com/OpenZeppelin/openzeppelin-contracts/blob/master/contracts/access/Ownable.sol\":3020:3037  _owner = newOwner */\n      0x0100\n      exp\n      dup2\n      sload\n      dup2\n      0xffffffffffffffffffffffffffffffffffffffff\n      mul\n      not\n      and\n      swap1\n      dup4\n      0xffffffffffffffffffffffffffffffffffffffff\n      and\n      mul\n      or\n      swap1\n      sstore\n      pop\n        /* \"https://github.com/OpenZeppelin/openzeppelin-contracts/blob/master/contracts/access/Ownable.sol\":3083:3091  newOwner */\n      dup2\n        /* \"https://github.com/OpenZeppelin/openzeppelin-contracts/blob/master/contracts/access/Ownable.sol\":3052:3092  OwnershipTransferred(oldOwner, newOwner) */\n      0xffffffffffffffffffffffffffffffffffffffff\n      and\n        /* \"https://github.com/OpenZeppelin/openzeppelin-contracts/blob/master/contracts/access/Ownable.sol\":3073:3081  oldOwner */\n      dup2\n        /* \"https://github.com/OpenZeppelin/openzeppelin-contracts/blob/master/contracts/access/Ownable.sol\":3052:3092  OwnershipTransferred(oldOwner, newOwner) */\n      0xffffffffffffffffffffffffffffffffffffffff\n      and\n      0x8be0079c531659141344cd1fd0a4f28419497f9722a3daafe3b4186f6b6457e0\n      mload(0x40)\n      mload(0x40)\n      dup1\n      swap2\n      sub\n      swap1\n      log3\n        /* \"https://github.com/OpenZeppelin/openzeppelin-contracts/blob/master/contracts/access/Ownable.sol\":2975:3099  {... */\n      pop\n        /* \"https://github.com/OpenZeppelin/openzeppelin-contracts/blob/master/contracts/access/Ownable.sol\":2912:3099  function _transferOwnership(address newOwner) internal virtual {... */\n      pop\n      jump\t// out\n        /* \"https://github.com/OpenZeppelin/openzeppelin-contracts/blob/master/contracts/utils/Context.sol\":656:752  function _msgSender() internal view virtual returns (address) {... */\n    tag_159:\n        /* \"https://github.com/OpenZeppelin/openzeppelin-contracts/blob/master/contracts/utils/Context.sol\":709:716  address */\n      0x00\n        /* \"https://github.com/OpenZeppelin/openzeppelin-contracts/blob/master/contracts/utils/Context.sol\":735:745  msg.sender */\n      caller\n        /* \"https://github.com/OpenZeppelin/openzeppelin-contracts/blob/master/contracts/utils/Context.sol\":728:745  return msg.sender */\n      swap1\n      pop\n        /* \"https://github.com/OpenZeppelin/openzeppelin-contracts/blob/master/contracts/utils/Context.sol\":656:752  function _msgSender() internal view virtual returns (address) {... */\n      swap1\n      jump\t// out\n    tag_88:\n      mload(0x40)\n      dup1\n      0x60\n      add\n      0x40\n      mstore\n      dup1\n      0x00\n      dup2\n      mstore\n      0x20\n      add\n      0x60\n      dup2\n      mstore\n      0x20\n      add\n      0x00\n      dup2\n      mstore\n      pop\n      swap1\n      jump\t// out\n        /* \"#utility.yul\":7:82   */\n    tag_166:\n        /* \"#utility.yul\":40:46   */\n      0x00\n        /* \"#utility.yul\":73:75   */\n      0x40\n        /* \"#utility.yul\":67:76   */\n      mload\n        /* \"#utility.yul\":57:76   */\n      swap1\n      pop\n        /* \"#utility.yul\":7:82   */\n      swap1\n      jump\t// out\n        /* \"#utility.yul\":88:205   */\n    tag_167:\n        /* \"#utility.yul\":197:198   */\n      0x00\n        /* \"#utility.yul\":194:195   */\n      0x00\n        /* \"#utility.yul\":187:199   */\n      revert\n        /* \"#utility.yul\":211:328   */\n    tag_168:\n        /* \"#utility.yul\":320:321   */\n      0x00\n        /* \"#utility.yul\":317:318   */\n      0x00\n        /* \"#utility.yul\":310:322   */\n      revert\n        /* \"#utility.yul\":334:411   */\n    tag_169:\n        /* \"#utility.yul\":371:378   */\n      0x00\n        /* \"#utility.yul\":400:405   */\n      dup2\n        /* \"#utility.yul\":389:405   */\n      swap1\n      pop\n        /* \"#utility.yul\":334:411   */\n      swap2\n      swap1\n      pop\n      jump\t// out\n        /* \"#utility.yul\":417:539   */\n    tag_170:\n        /* \"#utility.yul\":490:514   */\n      tag_231\n        /* \"#utility.yul\":508:513   */\n      dup2\n        /* \"#utility.yul\":490:514   */\n      tag_169\n      jump\t// in\n    tag_231:\n        /* \"#utility.yul\":483:488   */\n      dup2\n        /* \"#utility.yul\":480:515   */\n      eq\n        /* \"#utility.yul\":470:533   */\n      tag_232\n      jumpi\n        /* \"#utility.yul\":529:530   */\n      0x00\n        /* \"#utility.yul\":526:527   */\n      0x00\n        /* \"#utility.yul\":519:531   */\n      revert\n        /* \"#utility.yul\":470:533   */\n    tag_232:\n        /* \"#utility.yul\":417:539   */\n      pop\n      jump\t// out\n        /* \"#utility.yul\":545:684   */\n    tag_171:\n        /* \"#utility.yul\":591:596   */\n      0x00\n        /* \"#utility.yul\":629:635   */\n      dup2\n        /* \"#utility.yul\":616:636   */\n      calldataload\n        /* \"#utility.yul\":607:636   */\n      swap1\n      pop\n        /* \"#utility.yul\":645:678   */\n      tag_234\n        /* \"#utility.yul\":672:677   */\n      dup2\n        /* \"#utility.yul\":645:678   */\n      tag_170\n      jump\t// in\n    tag_234:\n        /* \"#utility.yul\":545:684   */\n      swap3\n      swap2\n      pop\n      pop\n      jump\t// out\n        /* \"#utility.yul\":690:1019   */\n    tag_22:\n        /* \"#utility.yul\":749:755   */\n      0x00\n        /* \"#utility.yul\":798:800   */\n      0x20\n        /* \"#utility.yul\":786:795   */\n      dup3\n        /* \"#utility.yul\":777:784   */\n      dup5\n        /* \"#utility.yul\":773:796   */\n      sub\n        /* \"#utility.yul\":769:801   */\n      slt\n        /* \"#utility.yul\":766:885   */\n      iszero\n      tag_236\n      jumpi\n        /* \"#utility.yul\":804:883   */\n      tag_237\n      tag_167\n      jump\t// in\n    tag_237:\n        /* \"#utility.yul\":766:885   */\n    tag_236:\n        /* \"#utility.yul\":924:925   */\n      0x00\n        /* \"#utility.yul\":949:1002   */\n      tag_238\n        /* \"#utility.yul\":994:1001   */\n      dup5\n        /* \"#utility.yul\":985:991   */\n      dup3\n        /* \"#utility.yul\":974:983   */\n      dup6\n        /* \"#utility.yul\":970:992   */\n      add\n        /* \"#utility.yul\":949:1002   */\n      tag_171\n      jump\t// in\n    tag_238:\n        /* \"#utility.yul\":939:1002   */\n      swap2\n      pop\n        /* \"#utility.yul\":895:1012   */\n      pop\n        /* \"#utility.yul\":690:1019   */\n      swap3\n      swap2\n      pop\n      pop\n      jump\t// out\n        /* \"#utility.yul\":1025:1143   */\n    tag_172:\n        /* \"#utility.yul\":1112:1136   */\n      tag_240\n        /* \"#utility.yul\":1130:1135   */\n      dup2\n        /* \"#utility.yul\":1112:1136   */\n      tag_169\n      jump\t// in\n    tag_240:\n        /* \"#utility.yul\":1107:1110   */\n      dup3\n        /* \"#utility.yul\":1100:1137   */\n      mstore\n        /* \"#utility.yul\":1025:1143   */\n      pop\n      pop\n      jump\t// out\n        /* \"#utility.yul\":1149:1248   */\n    tag_173:\n        /* \"#utility.yul\":1201:1207   */\n      0x00\n        /* \"#utility.yul\":1235:1240   */\n      dup2\n        /* \"#utility.yul\":1229:1241   */\n      mload\n        /* \"#utility.yul\":1219:1241   */\n      swap1\n      pop\n        /* \"#utility.yul\":1149:1248   */\n      swap2\n      swap1\n      pop\n      jump\t// out\n        /* \"#utility.yul\":1254:1423   */\n    tag_174:\n        /* \"#utility.yul\":1338:1349   */\n      0x00\n        /* \"#utility.yul\":1372:1378   */\n      dup3\n        /* \"#utility.yul\":1367:1370   */\n      dup3\n        /* \"#utility.yul\":1360:1379   */\n      mstore\n        /* \"#utility.yul\":1412:1416   */\n      0x20\n        /* \"#utility.yul\":1407:1410   */\n      dup3\n        /* \"#utility.yul\":1403:1417   */\n      add\n        /* \"#utility.yul\":1388:1417   */\n      swap1\n      pop\n        /* \"#utility.yul\":1254:1423   */\n      swap3\n      swap2\n      pop\n      pop\n      jump\t// out\n        /* \"#utility.yul\":1429:1568   */\n    tag_175:\n        /* \"#utility.yul\":1518:1524   */\n      dup3\n        /* \"#utility.yul\":1513:1516   */\n      dup2\n        /* \"#utility.yul\":1508:1511   */\n      dup4\n        /* \"#utility.yul\":1502:1525   */\n      mcopy\n        /* \"#utility.yul\":1559:1560   */\n      0x00\n        /* \"#utility.yul\":1550:1556   */\n      dup4\n        /* \"#utility.yul\":1545:1548   */\n      dup4\n        /* \"#utility.yul\":1541:1557   */\n      add\n        /* \"#utility.yul\":1534:1561   */\n      mstore\n        /* \"#utility.yul\":1429:1568   */\n      pop\n      pop\n      pop\n      jump\t// out\n        /* \"#utility.yul\":1574:1676   */\n    tag_176:\n        /* \"#utility.yul\":1615:1621   */\n      0x00\n        /* \"#utility.yul\":1666:1668   */\n      0x1f\n        /* \"#utility.yul\":1662:1669   */\n      not\n        /* \"#utility.yul\":1657:1659   */\n      0x1f\n        /* \"#utility.yul\":1650:1655   */\n      dup4\n        /* \"#utility.yul\":1646:1660   */\n      add\n        /* \"#utility.yul\":1642:1670   */\n      and\n        /* \"#utility.yul\":1632:1670   */\n      swap1\n      pop\n        /* \"#utility.yul\":1574:1676   */\n      swap2\n      swap1\n      pop\n      jump\t// out\n        /* \"#utility.yul\":1682:2059   */\n    tag_177:\n        /* \"#utility.yul\":1770:1773   */\n      0x00\n        /* \"#utility.yul\":1798:1837   */\n      tag_246\n        /* \"#utility.yul\":1831:1836   */\n      dup3\n        /* \"#utility.yul\":1798:1837   */\n      tag_173\n      jump\t// in\n    tag_246:\n        /* \"#utility.yul\":1853:1924   */\n      tag_247\n        /* \"#utility.yul\":1917:1923   */\n      dup2\n        /* \"#utility.yul\":1912:1915   */\n      dup6\n        /* \"#utility.yul\":1853:1924   */\n      tag_174\n      jump\t// in\n    tag_247:\n        /* \"#utility.yul\":1846:1924   */\n      swap4\n      pop\n        /* \"#utility.yul\":1933:1998   */\n      tag_248\n        /* \"#utility.yul\":1991:1997   */\n      dup2\n        /* \"#utility.yul\":1986:1989   */\n      dup6\n        /* \"#utility.yul\":1979:1983   */\n      0x20\n        /* \"#utility.yul\":1972:1977   */\n      dup7\n        /* \"#utility.yul\":1968:1984   */\n      add\n        /* \"#utility.yul\":1933:1998   */\n      tag_175\n      jump\t// in\n    tag_248:\n        /* \"#utility.yul\":2023:2052   */\n      tag_249\n        /* \"#utility.yul\":2045:2051   */\n      dup2\n        /* \"#utility.yul\":2023:2052   */\n      tag_176\n      jump\t// in\n    tag_249:\n        /* \"#utility.yul\":2018:2021   */\n      dup5\n        /* \"#utility.yul\":2014:2053   */\n      add\n        /* \"#utility.yul\":2007:2053   */\n      swap2\n      pop\n        /* \"#utility.yul\":1774:2059   */\n      pop\n        /* \"#utility.yul\":1682:2059   */\n      swap3\n      swap2\n      pop\n      pop\n      jump\t// out\n        /* \"#utility.yul\":2065:2598   */\n    tag_25:\n        /* \"#utility.yul\":2234:2238   */\n      0x00\n        /* \"#utility.yul\":2272:2274   */\n      0x60\n        /* \"#utility.yul\":2261:2270   */\n      dup3\n        /* \"#utility.yul\":2257:2275   */\n      add\n        /* \"#utility.yul\":2249:2275   */\n      swap1\n      pop\n        /* \"#utility.yul\":2285:2356   */\n      tag_251\n        /* \"#utility.yul\":2353:2354   */\n      0x00\n        /* \"#utility.yul\":2342:2351   */\n      dup4\n        /* \"#utility.yul\":2338:2355   */\n      add\n        /* \"#utility.yul\":2329:2335   */\n      dup7\n        /* \"#utility.yul\":2285:2356   */\n      tag_172\n      jump\t// in\n    tag_251:\n        /* \"#utility.yul\":2403:2412   */\n      dup2\n        /* \"#utility.yul\":2397:2401   */\n      dup2\n        /* \"#utility.yul\":2393:2413   */\n      sub\n        /* \"#utility.yul\":2388:2390   */\n      0x20\n        /* \"#utility.yul\":2377:2386   */\n      dup4\n        /* \"#utility.yul\":2373:2391   */\n      add\n        /* \"#utility.yul\":2366:2414   */\n      mstore\n        /* \"#utility.yul\":2431:2509   */\n      tag_252\n        /* \"#utility.yul\":2504:2508   */\n      dup2\n        /* \"#utility.yul\":2495:2501   */\n      dup6\n        /* \"#utility.yul\":2431:2509   */\n      tag_177\n      jump\t// in\n    tag_252:\n        /* \"#utility.yul\":2423:2509   */\n      swap1\n      pop\n        /* \"#utility.yul\":2519:2591   */\n      tag_253\n        /* \"#utility.yul\":2587:2589   */\n      0x40\n        /* \"#utility.yul\":2576:2585   */\n      dup4\n        /* \"#utility.yul\":2572:2590   */\n      add\n        /* \"#utility.yul\":2563:2569   */\n      dup5\n        /* \"#utility.yul\":2519:2591   */\n      tag_172\n      jump\t// in\n    tag_253:\n        /* \"#utility.yul\":2065:2598   */\n      swap5\n      swap4\n      pop\n      pop\n      pop\n      pop\n      jump\t// out\n        /* \"#utility.yul\":2604:2712   */\n    tag_178:\n        /* \"#utility.yul\":2681:2705   */\n      tag_255\n        /* \"#utility.yul\":2699:2704   */\n      dup2\n        /* \"#utility.yul\":2681:2705   */\n      tag_169\n      jump\t// in\n    tag_255:\n        /* \"#utility.yul\":2676:2679   */\n      dup3\n        /* \"#utility.yul\":2669:2706   */\n      mstore\n        /* \"#utility.yul\":2604:2712   */\n      pop\n      pop\n      jump\t// out\n        /* \"#utility.yul\":2718:2877   */\n    tag_179:\n        /* \"#utility.yul\":2792:2803   */\n      0x00\n        /* \"#utility.yul\":2826:2832   */\n      dup3\n        /* \"#utility.yul\":2821:2824   */\n      dup3\n        /* \"#utility.yul\":2814:2833   */\n      mstore\n        /* \"#utility.yul\":2866:2870   */\n      0x20\n        /* \"#utility.yul\":2861:2864   */\n      dup3\n        /* \"#utility.yul\":2857:2871   */\n      add\n        /* \"#utility.yul\":2842:2871   */\n      swap1\n      pop\n        /* \"#utility.yul\":2718:2877   */\n      swap3\n      swap2\n      pop\n      pop\n      jump\t// out\n        /* \"#utility.yul\":2883:3240   */\n    tag_180:\n        /* \"#utility.yul\":2961:2964   */\n      0x00\n        /* \"#utility.yul\":2989:3028   */\n      tag_258\n        /* \"#utility.yul\":3022:3027   */\n      dup3\n        /* \"#utility.yul\":2989:3028   */\n      tag_173\n      jump\t// in\n    tag_258:\n        /* \"#utility.yul\":3044:3105   */\n      tag_259\n        /* \"#utility.yul\":3098:3104   */\n      dup2\n        /* \"#utility.yul\":3093:3096   */\n      dup6\n        /* \"#utility.yul\":3044:3105   */\n      tag_179\n      jump\t// in\n    tag_259:\n        /* \"#utility.yul\":3037:3105   */\n      swap4\n      pop\n        /* \"#utility.yul\":3114:3179   */\n      tag_260\n        /* \"#utility.yul\":3172:3178   */\n      dup2\n        /* \"#utility.yul\":3167:3170   */\n      dup6\n        /* \"#utility.yul\":3160:3164   */\n      0x20\n        /* \"#utility.yul\":3153:3158   */\n      dup7\n        /* \"#utility.yul\":3149:3165   */\n      add\n        /* \"#utility.yul\":3114:3179   */\n      tag_175\n      jump\t// in\n    tag_260:\n        /* \"#utility.yul\":3204:3233   */\n      tag_261\n        /* \"#utility.yul\":3226:3232   */\n      dup2\n        /* \"#utility.yul\":3204:3233   */\n      tag_176\n      jump\t// in\n    tag_261:\n        /* \"#utility.yul\":3199:3202   */\n      dup5\n        /* \"#utility.yul\":3195:3234   */\n      add\n        /* \"#utility.yul\":3188:3234   */\n      swap2\n      pop\n        /* \"#utility.yul\":2965:3240   */\n      pop\n        /* \"#utility.yul\":2883:3240   */\n      swap3\n      swap2\n      pop\n      pop\n      jump\t// out\n        /* \"#utility.yul\":3302:4090   */\n    tag_181:\n        /* \"#utility.yul\":3419:3422   */\n      0x00\n        /* \"#utility.yul\":3455:3459   */\n      0x60\n        /* \"#utility.yul\":3450:3453   */\n      dup4\n        /* \"#utility.yul\":3446:3460   */\n      add\n        /* \"#utility.yul\":3540:3544   */\n      0x00\n        /* \"#utility.yul\":3533:3538   */\n      dup4\n        /* \"#utility.yul\":3529:3545   */\n      add\n        /* \"#utility.yul\":3523:3546   */\n      mload\n        /* \"#utility.yul\":3559:3622   */\n      tag_263\n        /* \"#utility.yul\":3616:3620   */\n      0x00\n        /* \"#utility.yul\":3611:3614   */\n      dup7\n        /* \"#utility.yul\":3607:3621   */\n      add\n        /* \"#utility.yul\":3593:3605   */\n      dup3\n        /* \"#utility.yul\":3559:3622   */\n      tag_178\n      jump\t// in\n    tag_263:\n        /* \"#utility.yul\":3470:3632   */\n      pop\n        /* \"#utility.yul\":3721:3725   */\n      0x20\n        /* \"#utility.yul\":3714:3719   */\n      dup4\n        /* \"#utility.yul\":3710:3726   */\n      add\n        /* \"#utility.yul\":3704:3727   */\n      mload\n        /* \"#utility.yul\":3774:3777   */\n      dup5\n        /* \"#utility.yul\":3768:3772   */\n      dup3\n        /* \"#utility.yul\":3764:3778   */\n      sub\n        /* \"#utility.yul\":3757:3761   */\n      0x20\n        /* \"#utility.yul\":3752:3755   */\n      dup7\n        /* \"#utility.yul\":3748:3762   */\n      add\n        /* \"#utility.yul\":3741:3779   */\n      mstore\n        /* \"#utility.yul\":3800:3873   */\n      tag_264\n        /* \"#utility.yul\":3868:3872   */\n      dup3\n        /* \"#utility.yul\":3854:3866   */\n      dup3\n        /* \"#utility.yul\":3800:3873   */\n      tag_180\n      jump\t// in\n    tag_264:\n        /* \"#utility.yul\":3792:3873   */\n      swap2\n      pop\n        /* \"#utility.yul\":3642:3884   */\n      pop\n        /* \"#utility.yul\":3971:3975   */\n      0x40\n        /* \"#utility.yul\":3964:3969   */\n      dup4\n        /* \"#utility.yul\":3960:3976   */\n      add\n        /* \"#utility.yul\":3954:3977   */\n      mload\n        /* \"#utility.yul\":3990:4053   */\n      tag_265\n        /* \"#utility.yul\":4047:4051   */\n      0x40\n        /* \"#utility.yul\":4042:4045   */\n      dup7\n        /* \"#utility.yul\":4038:4052   */\n      add\n        /* \"#utility.yul\":4024:4036   */\n      dup3\n        /* \"#utility.yul\":3990:4053   */\n      tag_178\n      jump\t// in\n    tag_265:\n        /* \"#utility.yul\":3894:4063   */\n      pop\n        /* \"#utility.yul\":4080:4084   */\n      dup1\n        /* \"#utility.yul\":4073:4084   */\n      swap2\n      pop\n        /* \"#utility.yul\":3424:4090   */\n      pop\n        /* \"#utility.yul\":3302:4090   */\n      swap3\n      swap2\n      pop\n      pop\n      jump\t// out\n        /* \"#utility.yul\":4096:4465   */\n    tag_31:\n        /* \"#utility.yul\":4237:4241   */\n      0x00\n        /* \"#utility.yul\":4275:4277   */\n      0x20\n        /* \"#utility.yul\":4264:4273   */\n      dup3\n        /* \"#utility.yul\":4260:4278   */\n      add\n        /* \"#utility.yul\":4252:4278   */\n      swap1\n      pop\n        /* \"#utility.yul\":4324:4333   */\n      dup2\n        /* \"#utility.yul\":4318:4322   */\n      dup2\n        /* \"#utility.yul\":4314:4334   */\n      sub\n        /* \"#utility.yul\":4310:4311   */\n      0x00\n        /* \"#utility.yul\":4299:4308   */\n      dup4\n        /* \"#utility.yul\":4295:4312   */\n      add\n        /* \"#utility.yul\":4288:4335   */\n      mstore\n        /* \"#utility.yul\":4352:4458   */\n      tag_267\n        /* \"#utility.yul\":4453:4457   */\n      dup2\n        /* \"#utility.yul\":4444:4450   */\n      dup5\n        /* \"#utility.yul\":4352:4458   */\n      tag_181\n      jump\t// in\n    tag_267:\n        /* \"#utility.yul\":4344:4458   */\n      swap1\n      pop\n        /* \"#utility.yul\":4096:4465   */\n      swap3\n      swap2\n      pop\n      pop\n      jump\t// out\n        /* \"#utility.yul\":4471:4588   */\n    tag_182:\n        /* \"#utility.yul\":4580:4581   */\n      0x00\n        /* \"#utility.yul\":4577:4578   */\n      0x00\n        /* \"#utility.yul\":4570:4582   */\n      revert\n        /* \"#utility.yul\":4594:4711   */\n    tag_183:\n        /* \"#utility.yul\":4703:4704   */\n      0x00\n        /* \"#utility.yul\":4700:4701   */\n      0x00\n        /* \"#utility.yul\":4693:4705   */\n      revert\n        /* \"#utility.yul\":4717:4897   */\n    tag_184:\n        /* \"#utility.yul\":4765:4842   */\n      0x4e487b7100000000000000000000000000000000000000000000000000000000\n        /* \"#utility.yul\":4762:4763   */\n      0x00\n        /* \"#utility.yul\":4755:4843   */\n      mstore\n        /* \"#utility.yul\":4862:4866   */\n      0x41\n        /* \"#utility.yul\":4859:4860   */\n      0x04\n        /* \"#utility.yul\":4852:4867   */\n      mstore\n        /* \"#utility.yul\":4886:4890   */\n      0x24\n        /* \"#utility.yul\":4883:4884   */\n      0x00\n        /* \"#utility.yul\":4876:4891   */\n      revert\n        /* \"#utility.yul\":4903:5184   */\n    tag_185:\n        /* \"#utility.yul\":4986:5013   */\n      tag_272\n        /* \"#utility.yul\":5008:5012   */\n      dup3\n        /* \"#utility.yul\":4986:5013   */\n      tag_176\n      jump\t// in\n    tag_272:\n        /* \"#utility.yul\":4978:4984   */\n      dup2\n        /* \"#utility.yul\":4974:5014   */\n      add\n        /* \"#utility.yul\":5116:5122   */\n      dup2\n        /* \"#utility.yul\":5104:5114   */\n      dup2\n        /* \"#utility.yul\":5101:5123   */\n      lt\n        /* \"#utility.yul\":5080:5098   */\n      0xffffffffffffffff\n        /* \"#utility.yul\":5068:5078   */\n      dup3\n        /* \"#utility.yul\":5065:5099   */\n      gt\n        /* \"#utility.yul\":5062:5124   */\n      or\n        /* \"#utility.yul\":5059:5147   */\n      iszero\n      tag_273\n      jumpi\n        /* \"#utility.yul\":5127:5145   */\n      tag_274\n      tag_184\n      jump\t// in\n    tag_274:\n        /* \"#utility.yul\":5059:5147   */\n    tag_273:\n        /* \"#utility.yul\":5167:5177   */\n      dup1\n        /* \"#utility.yul\":5163:5165   */\n      0x40\n        /* \"#utility.yul\":5156:5178   */\n      mstore\n        /* \"#utility.yul\":4946:5184   */\n      pop\n        /* \"#utility.yul\":4903:5184   */\n      pop\n      pop\n      jump\t// out\n        /* \"#utility.yul\":5190:5319   */\n    tag_186:\n        /* \"#utility.yul\":5224:5230   */\n      0x00\n        /* \"#utility.yul\":5251:5271   */\n      tag_276\n      tag_166\n      jump\t// in\n    tag_276:\n        /* \"#utility.yul\":5241:5271   */\n      swap1\n      pop\n        /* \"#utility.yul\":5280:5313   */\n      tag_277\n        /* \"#utility.yul\":5308:5312   */\n      dup3\n        /* \"#utility.yul\":5300:5306   */\n      dup3\n        /* \"#utility.yul\":5280:5313   */\n      tag_185\n      jump\t// in\n    tag_277:\n        /* \"#utility.yul\":5190:5319   */\n      swap2\n      swap1\n      pop\n      jump\t// out\n        /* \"#utility.yul\":5325:5633   */\n    tag_187:\n        /* \"#utility.yul\":5387:5391   */\n      0x00\n        /* \"#utility.yul\":5477:5495   */\n      0xffffffffffffffff\n        /* \"#utility.yul\":5469:5475   */\n      dup3\n        /* \"#utility.yul\":5466:5496   */\n      gt\n        /* \"#utility.yul\":5463:5519   */\n      iszero\n      tag_279\n      jumpi\n        /* \"#utility.yul\":5499:5517   */\n      tag_280\n      tag_184\n      jump\t// in\n    tag_280:\n        /* \"#utility.yul\":5463:5519   */\n    tag_279:\n        /* \"#utility.yul\":5537:5566   */\n      tag_281\n        /* \"#utility.yul\":5559:5565   */\n      dup3\n        /* \"#utility.yul\":5537:5566   */\n      tag_176\n      jump\t// in\n    tag_281:\n        /* \"#utility.yul\":5529:5566   */\n      swap1\n      pop\n        /* \"#utility.yul\":5621:5625   */\n      0x20\n        /* \"#utility.yul\":5615:5619   */\n      dup2\n        /* \"#utility.yul\":5611:5626   */\n      add\n        /* \"#utility.yul\":5603:5626   */\n      swap1\n      pop\n        /* \"#utility.yul\":5325:5633   */\n      swap2\n      swap1\n      pop\n      jump\t// out\n        /* \"#utility.yul\":5639:5787   */\n    tag_188:\n        /* \"#utility.yul\":5737:5743   */\n      dup3\n        /* \"#utility.yul\":5732:5735   */\n      dup2\n        /* \"#utility.yul\":5727:5730   */\n      dup4\n        /* \"#utility.yul\":5714:5744   */\n      calldatacopy\n        /* \"#utility.yul\":5778:5779   */\n      0x00\n        /* \"#utility.yul\":5769:5775   */\n      dup4\n        /* \"#utility.yul\":5764:5767   */\n      dup4\n        /* \"#utility.yul\":5760:5776   */\n      add\n        /* \"#utility.yul\":5753:5780   */\n      mstore\n        /* \"#utility.yul\":5639:5787   */\n      pop\n      pop\n      pop\n      jump\t// out\n        /* \"#utility.yul\":5793:6218   */\n    tag_189:\n        /* \"#utility.yul\":5871:5876   */\n      0x00\n        /* \"#utility.yul\":5896:5962   */\n      tag_284\n        /* \"#utility.yul\":5912:5961   */\n      tag_285\n        /* \"#utility.yul\":5954:5960   */\n      dup5\n        /* \"#utility.yul\":5912:5961   */\n      tag_187\n      jump\t// in\n    tag_285:\n        /* \"#utility.yul\":5896:5962   */\n      tag_186\n      jump\t// in\n    tag_284:\n        /* \"#utility.yul\":5887:5962   */\n      swap1\n      pop\n        /* \"#utility.yul\":5985:5991   */\n      dup3\n        /* \"#utility.yul\":5978:5983   */\n      dup2\n        /* \"#utility.yul\":5971:5992   */\n      mstore\n        /* \"#utility.yul\":6023:6027   */\n      0x20\n        /* \"#utility.yul\":6016:6021   */\n      dup2\n        /* \"#utility.yul\":6012:6028   */\n      add\n        /* \"#utility.yul\":6061:6064   */\n      dup5\n        /* \"#utility.yul\":6052:6058   */\n      dup5\n        /* \"#utility.yul\":6047:6050   */\n      dup5\n        /* \"#utility.yul\":6043:6059   */\n      add\n        /* \"#utility.yul\":6040:6065   */\n      gt\n        /* \"#utility.yul\":6037:6149   */\n      iszero\n      tag_286\n      jumpi\n        /* \"#utility.yul\":6068:6147   */\n      tag_287\n      tag_183\n      jump\t// in\n    tag_287:\n        /* \"#utility.yul\":6037:6149   */\n    tag_286:\n        /* \"#utility.yul\":6158:6212   */\n      tag_288\n        /* \"#utility.yul\":6205:6211   */\n      dup5\n        /* \"#utility.yul\":6200:6203   */\n      dup3\n        /* \"#utility.yul\":6195:6198   */\n      dup6\n        /* \"#utility.yul\":6158:6212   */\n      tag_188\n      jump\t// in\n    tag_288:\n        /* \"#utility.yul\":5877:6218   */\n      pop\n        /* \"#utility.yul\":5793:6218   */\n      swap4\n      swap3\n      pop\n      pop\n      pop\n      jump\t// out\n        /* \"#utility.yul\":6238:6578   */\n    tag_190:\n        /* \"#utility.yul\":6294:6299   */\n      0x00\n        /* \"#utility.yul\":6343:6346   */\n      dup3\n        /* \"#utility.yul\":6336:6340   */\n      0x1f\n        /* \"#utility.yul\":6328:6334   */\n      dup4\n        /* \"#utility.yul\":6324:6341   */\n      add\n        /* \"#utility.yul\":6320:6347   */\n      slt\n        /* \"#utility.yul\":6310:6432   */\n      tag_290\n      jumpi\n        /* \"#utility.yul\":6351:6430   */\n      tag_291\n      tag_182\n      jump\t// in\n    tag_291:\n        /* \"#utility.yul\":6310:6432   */\n    tag_290:\n        /* \"#utility.yul\":6468:6474   */\n      dup2\n        /* \"#utility.yul\":6455:6475   */\n      calldataload\n        /* \"#utility.yul\":6493:6572   */\n      tag_292\n        /* \"#utility.yul\":6568:6571   */\n      dup5\n        /* \"#utility.yul\":6560:6566   */\n      dup3\n        /* \"#utility.yul\":6553:6557   */\n      0x20\n        /* \"#utility.yul\":6545:6551   */\n      dup7\n        /* \"#utility.yul\":6541:6558   */\n      add\n        /* \"#utility.yul\":6493:6572   */\n      tag_189\n      jump\t// in\n    tag_292:\n        /* \"#utility.yul\":6484:6572   */\n      swap2\n      pop\n        /* \"#utility.yul\":6300:6578   */\n      pop\n        /* \"#utility.yul\":6238:6578   */\n      swap3\n      swap2\n      pop\n      pop\n      jump\t// out\n        /* \"#utility.yul\":6584:7093   */\n    tag_34:\n        /* \"#utility.yul\":6653:6659   */\n      0x00\n        /* \"#utility.yul\":6702:6704   */\n      0x20\n        /* \"#utility.yul\":6690:6699   */\n      dup3\n        /* \"#utility.yul\":6681:6688   */\n      dup5\n        /* \"#utility.yul\":6677:6700   */\n      sub\n        /* \"#utility.yul\":6673:6705   */\n      slt\n        /* \"#utility.yul\":6670:6789   */\n      iszero\n      tag_294\n      jumpi\n        /* \"#utility.yul\":6708:6787   */\n      tag_295\n      tag_167\n      jump\t// in\n    tag_295:\n        /* \"#utility.yul\":6670:6789   */\n    tag_294:\n        /* \"#utility.yul\":6856:6857   */\n      0x00\n        /* \"#utility.yul\":6845:6854   */\n      dup3\n        /* \"#utility.yul\":6841:6858   */\n      add\n        /* \"#utility.yul\":6828:6859   */\n      calldataload\n        /* \"#utility.yul\":6886:6904   */\n      0xffffffffffffffff\n        /* \"#utility.yul\":6878:6884   */\n      dup2\n        /* \"#utility.yul\":6875:6905   */\n      gt\n        /* \"#utility.yul\":6872:6989   */\n      iszero\n      tag_296\n      jumpi\n        /* \"#utility.yul\":6908:6987   */\n      tag_297\n      tag_168\n      jump\t// in\n    tag_297:\n        /* \"#utility.yul\":6872:6989   */\n    tag_296:\n        /* \"#utility.yul\":7013:7076   */\n      tag_298\n        /* \"#utility.yul\":7068:7075   */\n      dup5\n        /* \"#utility.yul\":7059:7065   */\n      dup3\n        /* \"#utility.yul\":7048:7057   */\n      dup6\n        /* \"#utility.yul\":7044:7066   */\n      add\n        /* \"#utility.yul\":7013:7076   */\n      tag_190\n      jump\t// in\n    tag_298:\n        /* \"#utility.yul\":7003:7076   */\n      swap2\n      pop\n        /* \"#utility.yul\":6799:7086   */\n      pop\n        /* \"#utility.yul\":6584:7093   */\n      swap3\n      swap2\n      pop\n      pop\n      jump\t// out\n        /* \"#utility.yul\":7099:7225   */\n    tag_191:\n        /* \"#utility.yul\":7136:7143   */\n      0x00\n        /* \"#utility.yul\":7176:7218   */\n      0xffffffffffffffffffffffffffffffffffffffff\n        /* \"#utility.yul\":7169:7174   */\n      dup3\n        /* \"#utility.yul\":7165:7219   */\n      and\n        /* \"#utility.yul\":7154:7219   */\n      swap1\n      pop\n        /* \"#utility.yul\":7099:7225   */\n      swap2\n      swap1\n      pop\n      jump\t// out\n        /* \"#utility.yul\":7231:7327   */\n    tag_192:\n        /* \"#utility.yul\":7268:7275   */\n      0x00\n        /* \"#utility.yul\":7297:7321   */\n      tag_301\n        /* \"#utility.yul\":7315:7320   */\n      dup3\n        /* \"#utility.yul\":7297:7321   */\n      tag_191\n      jump\t// in\n    tag_301:\n        /* \"#utility.yul\":7286:7321   */\n      swap1\n      pop\n        /* \"#utility.yul\":7231:7327   */\n      swap2\n      swap1\n      pop\n      jump\t// out\n        /* \"#utility.yul\":7333:7451   */\n    tag_193:\n        /* \"#utility.yul\":7420:7444   */\n      tag_303\n        /* \"#utility.yul\":7438:7443   */\n      dup2\n        /* \"#utility.yul\":7420:7444   */\n      tag_192\n      jump\t// in\n    tag_303:\n        /* \"#utility.yul\":7415:7418   */\n      dup3\n        /* \"#utility.yul\":7408:7445   */\n      mstore\n        /* \"#utility.yul\":7333:7451   */\n      pop\n      pop\n      jump\t// out\n        /* \"#utility.yul\":7457:7679   */\n    tag_41:\n        /* \"#utility.yul\":7550:7554   */\n      0x00\n        /* \"#utility.yul\":7588:7590   */\n      0x20\n        /* \"#utility.yul\":7577:7586   */\n      dup3\n        /* \"#utility.yul\":7573:7591   */\n      add\n        /* \"#utility.yul\":7565:7591   */\n      swap1\n      pop\n        /* \"#utility.yul\":7601:7672   */\n      tag_305\n        /* \"#utility.yul\":7669:7670   */\n      0x00\n        /* \"#utility.yul\":7658:7667   */\n      dup4\n        /* \"#utility.yul\":7654:7671   */\n      add\n        /* \"#utility.yul\":7645:7651   */\n      dup5\n        /* \"#utility.yul\":7601:7672   */\n      tag_193\n      jump\t// in\n    tag_305:\n        /* \"#utility.yul\":7457:7679   */\n      swap3\n      swap2\n      pop\n      pop\n      jump\t// out\n        /* \"#utility.yul\":7685:7807   */\n    tag_194:\n        /* \"#utility.yul\":7758:7782   */\n      tag_307\n        /* \"#utility.yul\":7776:7781   */\n      dup2\n        /* \"#utility.yul\":7758:7782   */\n      tag_192\n      jump\t// in\n    tag_307:\n        /* \"#utility.yul\":7751:7756   */\n      dup2\n        /* \"#utility.yul\":7748:7783   */\n      eq\n        /* \"#utility.yul\":7738:7801   */\n      tag_308\n      jumpi\n        /* \"#utility.yul\":7797:7798   */\n      0x00\n        /* \"#utility.yul\":7794:7795   */\n      0x00\n        /* \"#utility.yul\":7787:7799   */\n      revert\n        /* \"#utility.yul\":7738:7801   */\n    tag_308:\n        /* \"#utility.yul\":7685:7807   */\n      pop\n      jump\t// out\n        /* \"#utility.yul\":7813:7952   */\n    tag_195:\n        /* \"#utility.yul\":7859:7864   */\n      0x00\n        /* \"#utility.yul\":7897:7903   */\n      dup2\n        /* \"#utility.yul\":7884:7904   */\n      calldataload\n        /* \"#utility.yul\":7875:7904   */\n      swap1\n      pop\n        /* \"#utility.yul\":7913:7946   */\n      tag_310\n        /* \"#utility.yul\":7940:7945   */\n      dup2\n        /* \"#utility.yul\":7913:7946   */\n      tag_194\n      jump\t// in\n    tag_310:\n        /* \"#utility.yul\":7813:7952   */\n      swap3\n      swap2\n      pop\n      pop\n      jump\t// out\n        /* \"#utility.yul\":7958:8287   */\n    tag_44:\n        /* \"#utility.yul\":8017:8023   */\n      0x00\n        /* \"#utility.yul\":8066:8068   */\n      0x20\n        /* \"#utility.yul\":8054:8063   */\n      dup3\n        /* \"#utility.yul\":8045:8052   */\n      dup5\n        /* \"#utility.yul\":8041:8064   */\n      sub\n        /* \"#utility.yul\":8037:8069   */\n      slt\n        /* \"#utility.yul\":8034:8153   */\n      iszero\n      tag_312\n      jumpi\n        /* \"#utility.yul\":8072:8151   */\n      tag_313\n      tag_167\n      jump\t// in\n    tag_313:\n        /* \"#utility.yul\":8034:8153   */\n    tag_312:\n        /* \"#utility.yul\":8192:8193   */\n      0x00\n        /* \"#utility.yul\":8217:8270   */\n      tag_314\n        /* \"#utility.yul\":8262:8269   */\n      dup5\n        /* \"#utility.yul\":8253:8259   */\n      dup3\n        /* \"#utility.yul\":8242:8251   */\n      dup6\n        /* \"#utility.yul\":8238:8260   */\n      add\n        /* \"#utility.yul\":8217:8270   */\n      tag_195\n      jump\t// in\n    tag_314:\n        /* \"#utility.yul\":8207:8270   */\n      swap2\n      pop\n        /* \"#utility.yul\":8163:8280   */\n      pop\n        /* \"#utility.yul\":7958:8287   */\n      swap3\n      swap2\n      pop\n      pop\n      jump\t// out\n        /* \"#utility.yul\":8293:8383   */\n    tag_196:\n        /* \"#utility.yul\":8327:8334   */\n      0x00\n        /* \"#utility.yul\":8370:8375   */\n      dup2\n        /* \"#utility.yul\":8363:8376   */\n      iszero\n        /* \"#utility.yul\":8356:8377   */\n      iszero\n        /* \"#utility.yul\":8345:8377   */\n      swap1\n      pop\n        /* \"#utility.yul\":8293:8383   */\n      swap2\n      swap1\n      pop\n      jump\t// out\n        /* \"#utility.yul\":8389:8498   */\n    tag_197:\n        /* \"#utility.yul\":8470:8491   */\n      tag_317\n        /* \"#utility.yul\":8485:8490   */\n      dup2\n        /* \"#utility.yul\":8470:8491   */\n      tag_196\n      jump\t// in\n    tag_317:\n        /* \"#utility.yul\":8465:8468   */\n      dup3\n        /* \"#utility.yul\":8458:8492   */\n      mstore\n        /* \"#utility.yul\":8389:8498   */\n      pop\n      pop\n      jump\t// out\n        /* \"#utility.yul\":8504:8714   */\n    tag_47:\n        /* \"#utility.yul\":8591:8595   */\n      0x00\n        /* \"#utility.yul\":8629:8631   */\n      0x20\n        /* \"#utility.yul\":8618:8627   */\n      dup3\n        /* \"#utility.yul\":8614:8632   */\n      add\n        /* \"#utility.yul\":8606:8632   */\n      swap1\n      pop\n        /* \"#utility.yul\":8642:8707   */\n      tag_319\n        /* \"#utility.yul\":8704:8705   */\n      0x00\n        /* \"#utility.yul\":8693:8702   */\n      dup4\n        /* \"#utility.yul\":8689:8706   */\n      add\n        /* \"#utility.yul\":8680:8686   */\n      dup5\n        /* \"#utility.yul\":8642:8707   */\n      tag_197\n      jump\t// in\n    tag_319:\n        /* \"#utility.yul\":8504:8714   */\n      swap3\n      swap2\n      pop\n      pop\n      jump\t// out\n        /* \"#utility.yul\":8720:8900   */\n    tag_117:\n        /* \"#utility.yul\":8768:8845   */\n      0x4e487b7100000000000000000000000000000000000000000000000000000000\n        /* \"#utility.yul\":8765:8766   */\n      0x00\n        /* \"#utility.yul\":8758:8846   */\n      mstore\n        /* \"#utility.yul\":8865:8869   */\n      0x21\n        /* \"#utility.yul\":8862:8863   */\n      0x04\n        /* \"#utility.yul\":8855:8870   */\n      mstore\n        /* \"#utility.yul\":8889:8893   */\n      0x24\n        /* \"#utility.yul\":8886:8887   */\n      0x00\n        /* \"#utility.yul\":8879:8894   */\n      revert\n        /* \"#utility.yul\":8906:9028   */\n    tag_198:\n        /* \"#utility.yul\":8996:8997   */\n      0x06\n        /* \"#utility.yul\":8989:8994   */\n      dup2\n        /* \"#utility.yul\":8986:8998   */\n      lt\n        /* \"#utility.yul\":8976:9022   */\n      tag_322\n      jumpi\n        /* \"#utility.yul\":9002:9020   */\n      tag_323\n      tag_117\n      jump\t// in\n    tag_323:\n        /* \"#utility.yul\":8976:9022   */\n    tag_322:\n        /* \"#utility.yul\":8906:9028   */\n      pop\n      jump\t// out\n        /* \"#utility.yul\":9034:9179   */\n    tag_199:\n        /* \"#utility.yul\":9088:9095   */\n      0x00\n        /* \"#utility.yul\":9117:9122   */\n      dup2\n        /* \"#utility.yul\":9106:9122   */\n      swap1\n      pop\n        /* \"#utility.yul\":9123:9173   */\n      tag_325\n        /* \"#utility.yul\":9167:9172   */\n      dup3\n        /* \"#utility.yul\":9123:9173   */\n      tag_198\n      jump\t// in\n    tag_325:\n        /* \"#utility.yul\":9034:9179   */\n      swap2\n      swap1\n      pop\n      jump\t// out\n        /* \"#utility.yul\":9185:9330   */\n    tag_200:\n        /* \"#utility.yul\":9250:9259   */\n      0x00\n        /* \"#utility.yul\":9283:9324   */\n      tag_327\n        /* \"#utility.yul\":9318:9323   */\n      dup3\n        /* \"#utility.yul\":9283:9324   */\n      tag_199\n      jump\t// in\n    tag_327:\n        /* \"#utility.yul\":9270:9324   */\n      swap1\n      pop\n        /* \"#utility.yul\":9185:9330   */\n      swap2\n      swap1\n      pop\n      jump\t// out\n        /* \"#utility.yul\":9336:9497   */\n    tag_201:\n        /* \"#utility.yul\":9438:9490   */\n      tag_329\n        /* \"#utility.yul\":9484:9489   */\n      dup2\n        /* \"#utility.yul\":9438:9490   */\n      tag_200\n      jump\t// in\n    tag_329:\n        /* \"#utility.yul\":9433:9436   */\n      dup3\n        /* \"#utility.yul\":9426:9491   */\n      mstore\n        /* \"#utility.yul\":9336:9497   */\n      pop\n      pop\n      jump\t// out\n        /* \"#utility.yul\":9503:9755   */\n    tag_51:\n        /* \"#utility.yul\":9611:9615   */\n      0x00\n        /* \"#utility.yul\":9649:9651   */\n      0x20\n        /* \"#utility.yul\":9638:9647   */\n      dup3\n        /* \"#utility.yul\":9634:9652   */\n      add\n        /* \"#utility.yul\":9626:9652   */\n      swap1\n      pop\n        /* \"#utility.yul\":9662:9748   */\n      tag_331\n        /* \"#utility.yul\":9745:9746   */\n      0x00\n        /* \"#utility.yul\":9734:9743   */\n      dup4\n        /* \"#utility.yul\":9730:9747   */\n      add\n        /* \"#utility.yul\":9721:9727   */\n      dup5\n        /* \"#utility.yul\":9662:9748   */\n      tag_201\n      jump\t// in\n    tag_331:\n        /* \"#utility.yul\":9503:9755   */\n      swap3\n      swap2\n      pop\n      pop\n      jump\t// out\n        /* \"#utility.yul\":9761:10179   */\n    tag_56:\n        /* \"#utility.yul\":9898:9902   */\n      0x00\n        /* \"#utility.yul\":9936:9938   */\n      0x60\n        /* \"#utility.yul\":9925:9934   */\n      dup3\n        /* \"#utility.yul\":9921:9939   */\n      add\n        /* \"#utility.yul\":9913:9939   */\n      swap1\n      pop\n        /* \"#utility.yul\":9949:10014   */\n      tag_333\n        /* \"#utility.yul\":10011:10012   */\n      0x00\n        /* \"#utility.yul\":10000:10009   */\n      dup4\n        /* \"#utility.yul\":9996:10013   */\n      add\n        /* \"#utility.yul\":9987:9993   */\n      dup7\n        /* \"#utility.yul\":9949:10014   */\n      tag_197\n      jump\t// in\n    tag_333:\n        /* \"#utility.yul\":10024:10090   */\n      tag_334\n        /* \"#utility.yul\":10086:10088   */\n      0x20\n        /* \"#utility.yul\":10075:10084   */\n      dup4\n        /* \"#utility.yul\":10071:10089   */\n      add\n        /* \"#utility.yul\":10062:10068   */\n      dup6\n        /* \"#utility.yul\":10024:10090   */\n      tag_197\n      jump\t// in\n    tag_334:\n        /* \"#utility.yul\":10100:10172   */\n      tag_335\n        /* \"#utility.yul\":10168:10170   */\n      0x40\n        /* \"#utility.yul\":10157:10166   */\n      dup4\n        /* \"#utility.yul\":10153:10171   */\n      add\n        /* \"#utility.yul\":10144:10150   */\n      dup5\n        /* \"#utility.yul\":10100:10172   */\n      tag_172\n      jump\t// in\n    tag_335:\n        /* \"#utility.yul\":9761:10179   */\n      swap5\n      swap4\n      pop\n      pop\n      pop\n      pop\n      jump\t// out\n        /* \"#utility.yul\":10185:10407   */\n    tag_60:\n        /* \"#utility.yul\":10278:10282   */\n      0x00\n        /* \"#utility.yul\":10316:10318   */\n      0x20\n        /* \"#utility.yul\":10305:10314   */\n      dup3\n        /* \"#utility.yul\":10301:10319   */\n      add\n        /* \"#utility.yul\":10293:10319   */\n      swap1\n      pop\n        /* \"#utility.yul\":10329:10400   */\n      tag_337\n        /* \"#utility.yul\":10397:10398   */\n      0x00\n        /* \"#utility.yul\":10386:10395   */\n      dup4\n        /* \"#utility.yul\":10382:10399   */\n      add\n        /* \"#utility.yul\":10373:10379   */\n      dup5\n        /* \"#utility.yul\":10329:10400   */\n      tag_172\n      jump\t// in\n    tag_337:\n        /* \"#utility.yul\":10185:10407   */\n      swap3\n      swap2\n      pop\n      pop\n      jump\t// out\n        /* \"#utility.yul\":10413:10593   */\n    tag_202:\n        /* \"#utility.yul\":10461:10538   */\n      0x4e487b7100000000000000000000000000000000000000000000000000000000\n        /* \"#utility.yul\":10458:10459   */\n      0x00\n        /* \"#utility.yul\":10451:10539   */\n      mstore\n        /* \"#utility.yul\":10558:10562   */\n      0x22\n        /* \"#utility.yul\":10555:10556   */\n      0x04\n        /* \"#utility.yul\":10548:10563   */\n      mstore\n        /* \"#utility.yul\":10582:10586   */\n      0x24\n        /* \"#utility.yul\":10579:10580   */\n      0x00\n        /* \"#utility.yul\":10572:10587   */\n      revert\n        /* \"#utility.yul\":10599:10919   */\n    tag_76:\n        /* \"#utility.yul\":10643:10649   */\n      0x00\n        /* \"#utility.yul\":10680:10681   */\n      0x02\n        /* \"#utility.yul\":10674:10678   */\n      dup3\n        /* \"#utility.yul\":10670:10682   */\n      div\n        /* \"#utility.yul\":10660:10682   */\n      swap1\n      pop\n        /* \"#utility.yul\":10727:10728   */\n      0x01\n        /* \"#utility.yul\":10721:10725   */\n      dup3\n        /* \"#utility.yul\":10717:10729   */\n      and\n        /* \"#utility.yul\":10748:10766   */\n      dup1\n        /* \"#utility.yul\":10738:10819   */\n      tag_340\n      jumpi\n        /* \"#utility.yul\":10804:10808   */\n      0x7f\n        /* \"#utility.yul\":10796:10802   */\n      dup3\n        /* \"#utility.yul\":10792:10809   */\n      and\n        /* \"#utility.yul\":10782:10809   */\n      swap2\n      pop\n        /* \"#utility.yul\":10738:10819   */\n    tag_340:\n        /* \"#utility.yul\":10866:10868   */\n      0x20\n        /* \"#utility.yul\":10858:10864   */\n      dup3\n        /* \"#utility.yul\":10855:10869   */\n      lt\n        /* \"#utility.yul\":10835:10853   */\n      dup2\n        /* \"#utility.yul\":10832:10870   */\n      sub\n        /* \"#utility.yul\":10829:10913   */\n      tag_341\n      jumpi\n        /* \"#utility.yul\":10885:10903   */\n      tag_342\n      tag_202\n      jump\t// in\n    tag_342:\n        /* \"#utility.yul\":10829:10913   */\n    tag_341:\n        /* \"#utility.yul\":10650:10919   */\n      pop\n        /* \"#utility.yul\":10599:10919   */\n      swap2\n      swap1\n      pop\n      jump\t// out\n        /* \"#utility.yul\":10925:11096   */\n    tag_203:\n        /* \"#utility.yul\":11065:11088   */\n      0x596f7520617265206e6f74207468652061646d696e0000000000000000000000\n        /* \"#utility.yul\":11061:11062   */\n      0x00\n        /* \"#utility.yul\":11053:11059   */\n      dup3\n        /* \"#utility.yul\":11049:11063   */\n      add\n        /* \"#utility.yul\":11042:11089   */\n      mstore\n        /* \"#utility.yul\":10925:11096   */\n      pop\n      jump\t// out\n        /* \"#utility.yul\":11102:11468   */\n    tag_204:\n        /* \"#utility.yul\":11244:11247   */\n      0x00\n        /* \"#utility.yul\":11265:11332   */\n      tag_345\n        /* \"#utility.yul\":11329:11331   */\n      0x15\n        /* \"#utility.yul\":11324:11327   */\n      dup4\n        /* \"#utility.yul\":11265:11332   */\n      tag_174\n      jump\t// in\n    tag_345:\n        /* \"#utility.yul\":11258:11332   */\n      swap2\n      pop\n        /* \"#utility.yul\":11341:11434   */\n      tag_346\n        /* \"#utility.yul\":11430:11433   */\n      dup3\n        /* \"#utility.yul\":11341:11434   */\n      tag_203\n      jump\t// in\n    tag_346:\n        /* \"#utility.yul\":11459:11461   */\n      0x20\n        /* \"#utility.yul\":11454:11457   */\n      dup3\n        /* \"#utility.yul\":11450:11462   */\n      add\n        /* \"#utility.yul\":11443:11462   */\n      swap1\n      pop\n        /* \"#utility.yul\":11102:11468   */\n      swap2\n      swap1\n      pop\n      jump\t// out\n        /* \"#utility.yul\":11474:11893   */\n    tag_84:\n        /* \"#utility.yul\":11640:11644   */\n      0x00\n        /* \"#utility.yul\":11678:11680   */\n      0x20\n        /* \"#utility.yul\":11667:11676   */\n      dup3\n        /* \"#utility.yul\":11663:11681   */\n      add\n        /* \"#utility.yul\":11655:11681   */\n      swap1\n      pop\n        /* \"#utility.yul\":11727:11736   */\n      dup2\n        /* \"#utility.yul\":11721:11725   */\n      dup2\n        /* \"#utility.yul\":11717:11737   */\n      sub\n        /* \"#utility.yul\":11713:11714   */\n      0x00\n        /* \"#utility.yul\":11702:11711   */\n      dup4\n        /* \"#utility.yul\":11698:11715   */\n      add\n        /* \"#utility.yul\":11691:11738   */\n      mstore\n        /* \"#utility.yul\":11755:11886   */\n      tag_348\n        /* \"#utility.yul\":11881:11885   */\n      dup2\n        /* \"#utility.yul\":11755:11886   */\n      tag_204\n      jump\t// in\n    tag_348:\n        /* \"#utility.yul\":11747:11886   */\n      swap1\n      pop\n        /* \"#utility.yul\":11474:11893   */\n      swap2\n      swap1\n      pop\n      jump\t// out\n        /* \"#utility.yul\":11899:12291   */\n    tag_86:\n        /* \"#utility.yul\":12050:12054   */\n      0x00\n        /* \"#utility.yul\":12088:12090   */\n      0x40\n        /* \"#utility.yul\":12077:12086   */\n      dup3\n        /* \"#utility.yul\":12073:12091   */\n      add\n        /* \"#utility.yul\":12065:12091   */\n      swap1\n      pop\n        /* \"#utility.yul\":12101:12187   */\n      tag_350\n        /* \"#utility.yul\":12184:12185   */\n      0x00\n        /* \"#utility.yul\":12173:12182   */\n      dup4\n        /* \"#utility.yul\":12169:12186   */\n      add\n        /* \"#utility.yul\":12160:12166   */\n      dup6\n        /* \"#utility.yul\":12101:12187   */\n      tag_201\n      jump\t// in\n    tag_350:\n        /* \"#utility.yul\":12197:12284   */\n      tag_351\n        /* \"#utility.yul\":12280:12282   */\n      0x20\n        /* \"#utility.yul\":12269:12278   */\n      dup4\n        /* \"#utility.yul\":12265:12283   */\n      add\n        /* \"#utility.yul\":12256:12262   */\n      dup5\n        /* \"#utility.yul\":12197:12284   */\n      tag_201\n      jump\t// in\n    tag_351:\n        /* \"#utility.yul\":11899:12291   */\n      swap4\n      swap3\n      pop\n      pop\n      pop\n      jump\t// out\n        /* \"#utility.yul\":12297:12477   */\n    tag_92:\n        /* \"#utility.yul\":12345:12422   */\n      0x4e487b7100000000000000000000000000000000000000000000000000000000\n        /* \"#utility.yul\":12342:12343   */\n      0x00\n        /* \"#utility.yul\":12335:12423   */\n      mstore\n        /* \"#utility.yul\":12442:12446   */\n      0x32\n        /* \"#utility.yul\":12439:12440   */\n      0x04\n        /* \"#utility.yul\":12432:12447   */\n      mstore\n        /* \"#utility.yul\":12466:12470   */\n      0x24\n        /* \"#utility.yul\":12463:12464   */\n      0x00\n        /* \"#utility.yul\":12456:12471   */\n      revert\n        /* \"#utility.yul\":12483:12661   */\n    tag_205:\n        /* \"#utility.yul\":12623:12653   */\n      0x726567697374726174696f6e20646964206e6f74207374617274656400000000\n        /* \"#utility.yul\":12619:12620   */\n      0x00\n        /* \"#utility.yul\":12611:12617   */\n      dup3\n        /* \"#utility.yul\":12607:12621   */\n      add\n        /* \"#utility.yul\":12600:12654   */\n      mstore\n        /* \"#utility.yul\":12483:12661   */\n      pop\n      jump\t// out\n        /* \"#utility.yul\":12667:13033   */\n    tag_206:\n        /* \"#utility.yul\":12809:12812   */\n      0x00\n        /* \"#utility.yul\":12830:12897   */\n      tag_355\n        /* \"#utility.yul\":12894:12896   */\n      0x1c\n        /* \"#utility.yul\":12889:12892   */\n      dup4\n        /* \"#utility.yul\":12830:12897   */\n      tag_174\n      jump\t// in\n    tag_355:\n        /* \"#utility.yul\":12823:12897   */\n      swap2\n      pop\n        /* \"#utility.yul\":12906:12999   */\n      tag_356\n        /* \"#utility.yul\":12995:12998   */\n      dup3\n        /* \"#utility.yul\":12906:12999   */\n      tag_205\n      jump\t// in\n    tag_356:\n        /* \"#utility.yul\":13024:13026   */\n      0x20\n        /* \"#utility.yul\":13019:13022   */\n      dup3\n        /* \"#utility.yul\":13015:13027   */\n      add\n        /* \"#utility.yul\":13008:13027   */\n      swap1\n      pop\n        /* \"#utility.yul\":12667:13033   */\n      swap2\n      swap1\n      pop\n      jump\t// out\n        /* \"#utility.yul\":13039:13458   */\n    tag_122:\n        /* \"#utility.yul\":13205:13209   */\n      0x00\n        /* \"#utility.yul\":13243:13245   */\n      0x20\n        /* \"#utility.yul\":13232:13241   */\n      dup3\n        /* \"#utility.yul\":13228:13246   */\n      add\n        /* \"#utility.yul\":13220:13246   */\n      swap1\n      pop\n        /* \"#utility.yul\":13292:13301   */\n      dup2\n        /* \"#utility.yul\":13286:13290   */\n      dup2\n        /* \"#utility.yul\":13282:13302   */\n      sub\n        /* \"#utility.yul\":13278:13279   */\n      0x00\n        /* \"#utility.yul\":13267:13276   */\n      dup4\n        /* \"#utility.yul\":13263:13280   */\n      add\n        /* \"#utility.yul\":13256:13303   */\n      mstore\n        /* \"#utility.yul\":13320:13451   */\n      tag_358\n        /* \"#utility.yul\":13446:13450   */\n      dup2\n        /* \"#utility.yul\":13320:13451   */\n      tag_206\n      jump\t// in\n    tag_358:\n        /* \"#utility.yul\":13312:13451   */\n      swap1\n      pop\n        /* \"#utility.yul\":13039:13458   */\n      swap2\n      swap1\n      pop\n      jump\t// out\n        /* \"#utility.yul\":13464:13644   */\n    tag_207:\n        /* \"#utility.yul\":13512:13589   */\n      0x4e487b7100000000000000000000000000000000000000000000000000000000\n        /* \"#utility.yul\":13509:13510   */\n      0x00\n        /* \"#utility.yul\":13502:13590   */\n      mstore\n        /* \"#utility.yul\":13609:13613   */\n      0x11\n        /* \"#utility.yul\":13606:13607   */\n      0x04\n        /* \"#utility.yul\":13599:13614   */\n      mstore\n        /* \"#utility.yul\":13633:13637   */\n      0x24\n        /* \"#utility.yul\":13630:13631   */\n      0x00\n        /* \"#utility.yul\":13623:13638   */\n      revert\n        /* \"#utility.yul\":13650:13883   */\n    tag_124:\n        /* \"#utility.yul\":13689:13692   */\n      0x00\n        /* \"#utility.yul\":13712:13736   */\n      tag_361\n        /* \"#utility.yul\":13730:13735   */\n      dup3\n        /* \"#utility.yul\":13712:13736   */\n      tag_169\n      jump\t// in\n    tag_361:\n        /* \"#utility.yul\":13703:13736   */\n      swap2\n      pop\n        /* \"#utility.yul\":13758:13824   */\n      0xffffffffffffffffffffffffffffffffffffffffffffffffffffffffffffffff\n        /* \"#utility.yul\":13751:13756   */\n      dup3\n        /* \"#utility.yul\":13748:13825   */\n      sub\n        /* \"#utility.yul\":13745:13848   */\n      tag_362\n      jumpi\n        /* \"#utility.yul\":13828:13846   */\n      tag_363\n      tag_207\n      jump\t// in\n    tag_363:\n        /* \"#utility.yul\":13745:13848   */\n    tag_362:\n        /* \"#utility.yul\":13875:13876   */\n      0x01\n        /* \"#utility.yul\":13868:13873   */\n      dup3\n        /* \"#utility.yul\":13864:13877   */\n      add\n        /* \"#utility.yul\":13857:13877   */\n      swap1\n      pop\n        /* \"#utility.yul\":13650:13883   */\n      swap2\n      swap1\n      pop\n      jump\t// out\n        /* \"#utility.yul\":13889:14030   */\n    tag_208:\n        /* \"#utility.yul\":13938:13942   */\n      0x00\n        /* \"#utility.yul\":13961:13964   */\n      dup2\n        /* \"#utility.yul\":13953:13964   */\n      swap1\n      pop\n        /* \"#utility.yul\":13984:13987   */\n      dup2\n        /* \"#utility.yul\":13981:13982   */\n      0x00\n        /* \"#utility.yul\":13974:13988   */\n      mstore\n        /* \"#utility.yul\":14018:14022   */\n      0x20\n        /* \"#utility.yul\":14015:14016   */\n      0x00\n        /* \"#utility.yul\":14005:14023   */\n      keccak256\n        /* \"#utility.yul\":13997:14023   */\n      swap1\n      pop\n        /* \"#utility.yul\":13889:14030   */\n      swap2\n      swap1\n      pop\n      jump\t// out\n        /* \"#utility.yul\":14036:14129   */\n    tag_209:\n        /* \"#utility.yul\":14073:14079   */\n      0x00\n        /* \"#utility.yul\":14120:14122   */\n      0x20\n        /* \"#utility.yul\":14115:14117   */\n      0x1f\n        /* \"#utility.yul\":14108:14113   */\n      dup4\n        /* \"#utility.yul\":14104:14118   */\n      add\n        /* \"#utility.yul\":14100:14123   */\n      div\n        /* \"#utility.yul\":14090:14123   */\n      swap1\n      pop\n        /* \"#utility.yul\":14036:14129   */\n      swap2\n      swap1\n      pop\n      jump\t// out\n        /* \"#utility.yul\":14135:14242   */\n    tag_210:\n        /* \"#utility.yul\":14179:14187   */\n      0x00\n        /* \"#utility.yul\":14229:14234   */\n      dup3\n        /* \"#utility.yul\":14223:14227   */\n      dup3\n        /* \"#utility.yul\":14219:14235   */\n      shl\n        /* \"#utility.yul\":14198:14235   */\n      swap1\n      pop\n        /* \"#utility.yul\":14135:14242   */\n      swap3\n      swap2\n      pop\n      pop\n      jump\t// out\n        /* \"#utility.yul\":14248:14641   */\n    tag_211:\n        /* \"#utility.yul\":14317:14323   */\n      0x00\n        /* \"#utility.yul\":14367:14368   */\n      0x08\n        /* \"#utility.yul\":14355:14365   */\n      dup4\n        /* \"#utility.yul\":14351:14369   */\n      mul\n        /* \"#utility.yul\":14390:14487   */\n      tag_368\n        /* \"#utility.yul\":14420:14486   */\n      0xffffffffffffffffffffffffffffffffffffffffffffffffffffffffffffffff\n        /* \"#utility.yul\":14409:14418   */\n      dup3\n        /* \"#utility.yul\":14390:14487   */\n      tag_210\n      jump\t// in\n    tag_368:\n        /* \"#utility.yul\":14508:14547   */\n      tag_369\n        /* \"#utility.yul\":14538:14546   */\n      dup7\n        /* \"#utility.yul\":14527:14536   */\n      dup4\n        /* \"#utility.yul\":14508:14547   */\n      tag_210\n      jump\t// in\n    tag_369:\n        /* \"#utility.yul\":14496:14547   */\n      swap6\n      pop\n        /* \"#utility.yul\":14580:14584   */\n      dup1\n        /* \"#utility.yul\":14576:14585   */\n      not\n        /* \"#utility.yul\":14569:14574   */\n      dup5\n        /* \"#utility.yul\":14565:14586   */\n      and\n        /* \"#utility.yul\":14556:14586   */\n      swap4\n      pop\n        /* \"#utility.yul\":14629:14633   */\n      dup1\n        /* \"#utility.yul\":14619:14627   */\n      dup7\n        /* \"#utility.yul\":14615:14634   */\n      and\n        /* \"#utility.yul\":14608:14613   */\n      dup5\n        /* \"#utility.yul\":14605:14635   */\n      or\n        /* \"#utility.yul\":14595:14635   */\n      swap3\n      pop\n        /* \"#utility.yul\":14324:14641   */\n      pop\n      pop\n        /* \"#utility.yul\":14248:14641   */\n      swap4\n      swap3\n      pop\n      pop\n      pop\n      jump\t// out\n        /* \"#utility.yul\":14647:14707   */\n    tag_212:\n        /* \"#utility.yul\":14675:14678   */\n      0x00\n        /* \"#utility.yul\":14696:14701   */\n      dup2\n        /* \"#utility.yul\":14689:14701   */\n      swap1\n      pop\n        /* \"#utility.yul\":14647:14707   */\n      swap2\n      swap1\n      pop\n      jump\t// out\n        /* \"#utility.yul\":14713:14855   */\n    tag_213:\n        /* \"#utility.yul\":14763:14772   */\n      0x00\n        /* \"#utility.yul\":14796:14849   */\n      tag_372\n        /* \"#utility.yul\":14814:14848   */\n      tag_373\n        /* \"#utility.yul\":14823:14847   */\n      tag_374\n        /* \"#utility.yul\":14841:14846   */\n      dup5\n        /* \"#utility.yul\":14823:14847   */\n      tag_169\n      jump\t// in\n    tag_374:\n        /* \"#utility.yul\":14814:14848   */\n      tag_212\n      jump\t// in\n    tag_373:\n        /* \"#utility.yul\":14796:14849   */\n      tag_169\n      jump\t// in\n    tag_372:\n        /* \"#utility.yul\":14783:14849   */\n      swap1\n      pop\n        /* \"#utility.yul\":14713:14855   */\n      swap2\n      swap1\n      pop\n      jump\t// out\n        /* \"#utility.yul\":14861:14936   */\n    tag_214:\n        /* \"#utility.yul\":14904:14907   */\n      0x00\n        /* \"#utility.yul\":14925:14930   */\n      dup2\n        /* \"#utility.yul\":14918:14930   */\n      swap1\n      pop\n        /* \"#utility.yul\":14861:14936   */\n      swap2\n      swap1\n      pop\n      jump\t// out\n        /* \"#utility.yul\":14942:15211   */\n    tag_215:\n        /* \"#utility.yul\":15052:15091   */\n      tag_377\n        /* \"#utility.yul\":15083:15090   */\n      dup4\n        /* \"#utility.yul\":15052:15091   */\n      tag_213\n      jump\t// in\n    tag_377:\n        /* \"#utility.yul\":15113:15204   */\n      tag_378\n        /* \"#utility.yul\":15162:15203   */\n      tag_379\n        /* \"#utility.yul\":15186:15202   */\n      dup3\n        /* \"#utility.yul\":15162:15203   */\n      tag_214\n      jump\t// in\n    tag_379:\n        /* \"#utility.yul\":15154:15160   */\n      dup5\n        /* \"#utility.yul\":15147:15151   */\n      dup5\n        /* \"#utility.yul\":15141:15152   */\n      sload\n        /* \"#utility.yul\":15113:15204   */\n      tag_211\n      jump\t// in\n    tag_378:\n        /* \"#utility.yul\":15107:15111   */\n      dup3\n        /* \"#utility.yul\":15100:15205   */\n      sstore\n        /* \"#utility.yul\":15018:15211   */\n      pop\n        /* \"#utility.yul\":14942:15211   */\n      pop\n      pop\n      pop\n      jump\t// out\n        /* \"#utility.yul\":15217:15290   */\n    tag_216:\n        /* \"#utility.yul\":15262:15265   */\n      0x00\n        /* \"#utility.yul\":15283:15284   */\n      0x00\n        /* \"#utility.yul\":15276:15284   */\n      swap1\n      pop\n        /* \"#utility.yul\":15217:15290   */\n      swap1\n      jump\t// out\n        /* \"#utility.yul\":15296:15485   */\n    tag_217:\n        /* \"#utility.yul\":15373:15405   */\n      tag_382\n      tag_216\n      jump\t// in\n    tag_382:\n        /* \"#utility.yul\":15414:15479   */\n      tag_383\n        /* \"#utility.yul\":15472:15478   */\n      dup2\n        /* \"#utility.yul\":15464:15470   */\n      dup5\n        /* \"#utility.yul\":15458:15462   */\n      dup5\n        /* \"#utility.yul\":15414:15479   */\n      tag_215\n      jump\t// in\n    tag_383:\n        /* \"#utility.yul\":15349:15485   */\n      pop\n        /* \"#utility.yul\":15296:15485   */\n      pop\n      pop\n      jump\t// out\n        /* \"#utility.yul\":15491:15677   */\n    tag_218:\n        /* \"#utility.yul\":15551:15671   */\n    tag_385:\n        /* \"#utility.yul\":15568:15571   */\n      dup2\n        /* \"#utility.yul\":15561:15566   */\n      dup2\n        /* \"#utility.yul\":15558:15572   */\n      lt\n        /* \"#utility.yul\":15551:15671   */\n      iszero\n      tag_387\n      jumpi\n        /* \"#utility.yul\":15622:15661   */\n      tag_388\n        /* \"#utility.yul\":15659:15660   */\n      0x00\n        /* \"#utility.yul\":15652:15657   */\n      dup3\n        /* \"#utility.yul\":15622:15661   */\n      tag_217\n      jump\t// in\n    tag_388:\n        /* \"#utility.yul\":15595:15596   */\n      0x01\n        /* \"#utility.yul\":15588:15593   */\n      dup2\n        /* \"#utility.yul\":15584:15597   */\n      add\n        /* \"#utility.yul\":15575:15597   */\n      swap1\n      pop\n        /* \"#utility.yul\":15551:15671   */\n      jump(tag_385)\n    tag_387:\n        /* \"#utility.yul\":15491:15677   */\n      pop\n      pop\n      jump\t// out\n        /* \"#utility.yul\":15683:16226   */\n    tag_219:\n        /* \"#utility.yul\":15784:15786   */\n      0x1f\n        /* \"#utility.yul\":15779:15782   */\n      dup3\n        /* \"#utility.yul\":15776:15787   */\n      gt\n        /* \"#utility.yul\":15773:16219   */\n      iszero\n      tag_390\n      jumpi\n        /* \"#utility.yul\":15818:15856   */\n      tag_391\n        /* \"#utility.yul\":15850:15855   */\n      dup2\n        /* \"#utility.yul\":15818:15856   */\n      tag_208\n      jump\t// in\n    tag_391:\n        /* \"#utility.yul\":15902:15931   */\n      tag_392\n        /* \"#utility.yul\":15920:15930   */\n      dup5\n        /* \"#utility.yul\":15902:15931   */\n      tag_209\n      jump\t// in\n    tag_392:\n        /* \"#utility.yul\":15892:15900   */\n      dup2\n        /* \"#utility.yul\":15888:15932   */\n      add\n        /* \"#utility.yul\":16085:16087   */\n      0x20\n        /* \"#utility.yul\":16073:16083   */\n      dup6\n        /* \"#utility.yul\":16070:16088   */\n      lt\n        /* \"#utility.yul\":16067:16116   */\n      iszero\n      tag_393\n      jumpi\n        /* \"#utility.yul\":16106:16114   */\n      dup2\n        /* \"#utility.yul\":16091:16114   */\n      swap1\n      pop\n        /* \"#utility.yul\":16067:16116   */\n    tag_393:\n        /* \"#utility.yul\":16129:16209   */\n      tag_394\n        /* \"#utility.yul\":16185:16207   */\n      tag_395\n        /* \"#utility.yul\":16203:16206   */\n      dup6\n        /* \"#utility.yul\":16185:16207   */\n      tag_209\n      jump\t// in\n    tag_395:\n        /* \"#utility.yul\":16175:16183   */\n      dup4\n        /* \"#utility.yul\":16171:16208   */\n      add\n        /* \"#utility.yul\":16158:16169   */\n      dup3\n        /* \"#utility.yul\":16129:16209   */\n      tag_218\n      jump\t// in\n    tag_394:\n        /* \"#utility.yul\":15788:16219   */\n      pop\n      pop\n        /* \"#utility.yul\":15773:16219   */\n    tag_390:\n        /* \"#utility.yul\":15683:16226   */\n      pop\n      pop\n      pop\n      jump\t// out\n        /* \"#utility.yul\":16232:16349   */\n    tag_220:\n        /* \"#utility.yul\":16286:16294   */\n      0x00\n        /* \"#utility.yul\":16336:16341   */\n      dup3\n        /* \"#utility.yul\":16330:16334   */\n      dup3\n        /* \"#utility.yul\":16326:16342   */\n      shr\n        /* \"#utility.yul\":16305:16342   */\n      swap1\n      pop\n        /* \"#utility.yul\":16232:16349   */\n      swap3\n      swap2\n      pop\n      pop\n      jump\t// out\n        /* \"#utility.yul\":16355:16524   */\n    tag_221:\n        /* \"#utility.yul\":16399:16405   */\n      0x00\n        /* \"#utility.yul\":16432:16483   */\n      tag_398\n        /* \"#utility.yul\":16480:16481   */\n      0x00\n        /* \"#utility.yul\":16476:16482   */\n      not\n        /* \"#utility.yul\":16468:16473   */\n      dup5\n        /* \"#utility.yul\":16465:16466   */\n      0x08\n        /* \"#utility.yul\":16461:16474   */\n      mul\n        /* \"#utility.yul\":16432:16483   */\n      tag_220\n      jump\t// in\n    tag_398:\n        /* \"#utility.yul\":16428:16484   */\n      not\n        /* \"#utility.yul\":16513:16517   */\n      dup1\n        /* \"#utility.yul\":16507:16511   */\n      dup4\n        /* \"#utility.yul\":16503:16518   */\n      and\n        /* \"#utility.yul\":16493:16518   */\n      swap2\n      pop\n        /* \"#utility.yul\":16406:16524   */\n      pop\n        /* \"#utility.yul\":16355:16524   */\n      swap3\n      swap2\n      pop\n      pop\n      jump\t// out\n        /* \"#utility.yul\":16529:16824   */\n    tag_222:\n        /* \"#utility.yul\":16605:16609   */\n      0x00\n        /* \"#utility.yul\":16751:16780   */\n      tag_400\n        /* \"#utility.yul\":16776:16779   */\n      dup4\n        /* \"#utility.yul\":16770:16774   */\n      dup4\n        /* \"#utility.yul\":16751:16780   */\n      tag_221\n      jump\t// in\n    tag_400:\n        /* \"#utility.yul\":16743:16780   */\n      swap2\n      pop\n        /* \"#utility.yul\":16813:16816   */\n      dup3\n        /* \"#utility.yul\":16810:16811   */\n      0x02\n        /* \"#utility.yul\":16806:16817   */\n      mul\n        /* \"#utility.yul\":16800:16804   */\n      dup3\n        /* \"#utility.yul\":16797:16818   */\n      or\n        /* \"#utility.yul\":16789:16818   */\n      swap1\n      pop\n        /* \"#utility.yul\":16529:16824   */\n      swap3\n      swap2\n      pop\n      pop\n      jump\t// out\n        /* \"#utility.yul\":16829:18224   */\n    tag_129:\n        /* \"#utility.yul\":16946:16983   */\n      tag_402\n        /* \"#utility.yul\":16979:16982   */\n      dup3\n        /* \"#utility.yul\":16946:16983   */\n      tag_173\n      jump\t// in\n    tag_402:\n        /* \"#utility.yul\":17048:17066   */\n      0xffffffffffffffff\n        /* \"#utility.yul\":17040:17046   */\n      dup2\n        /* \"#utility.yul\":17037:17067   */\n      gt\n        /* \"#utility.yul\":17034:17090   */\n      iszero\n      tag_403\n      jumpi\n        /* \"#utility.yul\":17070:17088   */\n      tag_404\n      tag_184\n      jump\t// in\n    tag_404:\n        /* \"#utility.yul\":17034:17090   */\n    tag_403:\n        /* \"#utility.yul\":17114:17152   */\n      tag_405\n        /* \"#utility.yul\":17146:17150   */\n      dup3\n        /* \"#utility.yul\":17140:17151   */\n      sload\n        /* \"#utility.yul\":17114:17152   */\n      tag_76\n      jump\t// in\n    tag_405:\n        /* \"#utility.yul\":17199:17266   */\n      tag_406\n        /* \"#utility.yul\":17259:17265   */\n      dup3\n        /* \"#utility.yul\":17251:17257   */\n      dup3\n        /* \"#utility.yul\":17245:17249   */\n      dup6\n        /* \"#utility.yul\":17199:17266   */\n      tag_219\n      jump\t// in\n    tag_406:\n        /* \"#utility.yul\":17293:17294   */\n      0x00\n        /* \"#utility.yul\":17317:17321   */\n      0x20\n        /* \"#utility.yul\":17304:17321   */\n      swap1\n      pop\n        /* \"#utility.yul\":17349:17351   */\n      0x1f\n        /* \"#utility.yul\":17341:17347   */\n      dup4\n        /* \"#utility.yul\":17338:17352   */\n      gt\n        /* \"#utility.yul\":17366:17367   */\n      0x01\n        /* \"#utility.yul\":17361:17979   */\n      dup2\n      eq\n      tag_408\n      jumpi\n        /* \"#utility.yul\":18023:18024   */\n      0x00\n        /* \"#utility.yul\":18040:18046   */\n      dup5\n        /* \"#utility.yul\":18037:18114   */\n      iszero\n      tag_409\n      jumpi\n        /* \"#utility.yul\":18089:18098   */\n      dup3\n        /* \"#utility.yul\":18084:18087   */\n      dup8\n        /* \"#utility.yul\":18080:18099   */\n      add\n        /* \"#utility.yul\":18074:18100   */\n      mload\n        /* \"#utility.yul\":18065:18100   */\n      swap1\n      pop\n        /* \"#utility.yul\":18037:18114   */\n    tag_409:\n        /* \"#utility.yul\":18140:18207   */\n      tag_410\n        /* \"#utility.yul\":18200:18206   */\n      dup6\n        /* \"#utility.yul\":18193:18198   */\n      dup3\n        /* \"#utility.yul\":18140:18207   */\n      tag_222\n      jump\t// in\n    tag_410:\n        /* \"#utility.yul\":18134:18138   */\n      dup7\n        /* \"#utility.yul\":18127:18208   */\n      sstore\n        /* \"#utility.yul\":17996:18218   */\n      pop\n        /* \"#utility.yul\":17331:18218   */\n      jump(tag_407)\n        /* \"#utility.yul\":17361:17979   */\n    tag_408:\n        /* \"#utility.yul\":17413:17417   */\n      0x1f\n        /* \"#utility.yul\":17409:17418   */\n      not\n        /* \"#utility.yul\":17401:17407   */\n      dup5\n        /* \"#utility.yul\":17397:17419   */\n      and\n        /* \"#utility.yul\":17447:17484   */\n      tag_411\n        /* \"#utility.yul\":17479:17483   */\n      dup7\n        /* \"#utility.yul\":17447:17484   */\n      tag_208\n      jump\t// in\n    tag_411:\n        /* \"#utility.yul\":17506:17507   */\n      0x00\n        /* \"#utility.yul\":17520:17728   */\n    tag_412:\n        /* \"#utility.yul\":17534:17541   */\n      dup3\n        /* \"#utility.yul\":17531:17532   */\n      dup2\n        /* \"#utility.yul\":17528:17542   */\n      lt\n        /* \"#utility.yul\":17520:17728   */\n      iszero\n      tag_414\n      jumpi\n        /* \"#utility.yul\":17613:17622   */\n      dup5\n        /* \"#utility.yul\":17608:17611   */\n      dup10\n        /* \"#utility.yul\":17604:17623   */\n      add\n        /* \"#utility.yul\":17598:17624   */\n      mload\n        /* \"#utility.yul\":17590:17596   */\n      dup3\n        /* \"#utility.yul\":17583:17625   */\n      sstore\n        /* \"#utility.yul\":17664:17665   */\n      0x01\n        /* \"#utility.yul\":17656:17662   */\n      dup3\n        /* \"#utility.yul\":17652:17666   */\n      add\n        /* \"#utility.yul\":17642:17666   */\n      swap2\n      pop\n        /* \"#utility.yul\":17711:17713   */\n      0x20\n        /* \"#utility.yul\":17700:17709   */\n      dup6\n        /* \"#utility.yul\":17696:17714   */\n      add\n        /* \"#utility.yul\":17683:17714   */\n      swap5\n      pop\n        /* \"#utility.yul\":17557:17561   */\n      0x20\n        /* \"#utility.yul\":17554:17555   */\n      dup2\n        /* \"#utility.yul\":17550:17562   */\n      add\n        /* \"#utility.yul\":17545:17562   */\n      swap1\n      pop\n        /* \"#utility.yul\":17520:17728   */\n      jump(tag_412)\n    tag_414:\n        /* \"#utility.yul\":17756:17762   */\n      dup7\n        /* \"#utility.yul\":17747:17754   */\n      dup4\n        /* \"#utility.yul\":17744:17763   */\n      lt\n        /* \"#utility.yul\":17741:17920   */\n      iszero\n      tag_415\n      jumpi\n        /* \"#utility.yul\":17814:17823   */\n      dup5\n        /* \"#utility.yul\":17809:17812   */\n      dup10\n        /* \"#utility.yul\":17805:17824   */\n      add\n        /* \"#utility.yul\":17799:17825   */\n      mload\n        /* \"#utility.yul\":17857:17905   */\n      tag_416\n        /* \"#utility.yul\":17899:17903   */\n      0x1f\n        /* \"#utility.yul\":17891:17897   */\n      dup10\n        /* \"#utility.yul\":17887:17904   */\n      and\n        /* \"#utility.yul\":17876:17885   */\n      dup3\n        /* \"#utility.yul\":17857:17905   */\n      tag_221\n      jump\t// in\n    tag_416:\n        /* \"#utility.yul\":17849:17855   */\n      dup4\n        /* \"#utility.yul\":17842:17906   */\n      sstore\n        /* \"#utility.yul\":17764:17920   */\n      pop\n        /* \"#utility.yul\":17741:17920   */\n    tag_415:\n        /* \"#utility.yul\":17966:17967   */\n      0x01\n        /* \"#utility.yul\":17962:17963   */\n      0x02\n        /* \"#utility.yul\":17954:17960   */\n      dup9\n        /* \"#utility.yul\":17950:17964   */\n      mul\n        /* \"#utility.yul\":17946:17968   */\n      add\n        /* \"#utility.yul\":17940:17944   */\n      dup9\n        /* \"#utility.yul\":17933:17969   */\n      sstore\n        /* \"#utility.yul\":17368:17979   */\n      pop\n      pop\n      pop\n        /* \"#utility.yul\":17331:18218   */\n    tag_407:\n      pop\n        /* \"#utility.yul\":16921:18224   */\n      pop\n      pop\n      pop\n        /* \"#utility.yul\":16829:18224   */\n      pop\n      pop\n      jump\t// out\n        /* \"#utility.yul\":18230:18404   */\n    tag_223:\n        /* \"#utility.yul\":18370:18396   */\n      0x646f20796f75206861766520616c726561647920766f74650000000000000000\n        /* \"#utility.yul\":18366:18367   */\n      0x00\n        /* \"#utility.yul\":18358:18364   */\n      dup3\n        /* \"#utility.yul\":18354:18368   */\n      add\n        /* \"#utility.yul\":18347:18397   */\n      mstore\n        /* \"#utility.yul\":18230:18404   */\n      pop\n      jump\t// out\n        /* \"#utility.yul\":18410:18776   */\n    tag_224:\n        /* \"#utility.yul\":18552:18555   */\n      0x00\n        /* \"#utility.yul\":18573:18640   */\n      tag_419\n        /* \"#utility.yul\":18637:18639   */\n      0x18\n        /* \"#utility.yul\":18632:18635   */\n      dup4\n        /* \"#utility.yul\":18573:18640   */\n      tag_174\n      jump\t// in\n    tag_419:\n        /* \"#utility.yul\":18566:18640   */\n      swap2\n      pop\n        /* \"#utility.yul\":18649:18742   */\n      tag_420\n        /* \"#utility.yul\":18738:18741   */\n      dup3\n        /* \"#utility.yul\":18649:18742   */\n      tag_223\n      jump\t// in\n    tag_420:\n        /* \"#utility.yul\":18767:18769   */\n      0x20\n        /* \"#utility.yul\":18762:18765   */\n      dup3\n        /* \"#utility.yul\":18758:18770   */\n      add\n        /* \"#utility.yul\":18751:18770   */\n      swap1\n      pop\n        /* \"#utility.yul\":18410:18776   */\n      swap2\n      swap1\n      pop\n      jump\t// out\n        /* \"#utility.yul\":18782:19201   */\n    tag_140:\n        /* \"#utility.yul\":18948:18952   */\n      0x00\n        /* \"#utility.yul\":18986:18988   */\n      0x20\n        /* \"#utility.yul\":18975:18984   */\n      dup3\n        /* \"#utility.yul\":18971:18989   */\n      add\n        /* \"#utility.yul\":18963:18989   */\n      swap1\n      pop\n        /* \"#utility.yul\":19035:19044   */\n      dup2\n        /* \"#utility.yul\":19029:19033   */\n      dup2\n        /* \"#utility.yul\":19025:19045   */\n      sub\n        /* \"#utility.yul\":19021:19022   */\n      0x00\n        /* \"#utility.yul\":19010:19019   */\n      dup4\n        /* \"#utility.yul\":19006:19023   */\n      add\n        /* \"#utility.yul\":18999:19046   */\n      mstore\n        /* \"#utility.yul\":19063:19194   */\n      tag_422\n        /* \"#utility.yul\":19189:19193   */\n      dup2\n        /* \"#utility.yul\":19063:19194   */\n      tag_224\n      jump\t// in\n    tag_422:\n        /* \"#utility.yul\":19055:19194   */\n      swap1\n      pop\n        /* \"#utility.yul\":18782:19201   */\n      swap2\n      swap1\n      pop\n      jump\t// out\n\n    auxdata: 0xa2646970667358221220daf42868c5e98be40555a91c8e8038bb1aac1c47551e6a23e5d3b3a2cd9636cb64736f6c634300081e0033\n}\n",
				"bytecode": {
					"linkReferences": {},
					"object": "608060405234801561000f575f5ffd5b50335f73ffffffffffffffffffffffffffffffffffffffff168173ffffffffffffffffffffffffffffffffffffffff1603610081575f6040517f1e4fbdf700000000000000000000000000000000000000000000000000000000815260040161007891906101d6565b60405180910390fd5b610090816100d660201b60201c565b503360015f6101000a81548173ffffffffffffffffffffffffffffffffffffffff021916908373ffffffffffffffffffffffffffffffffffffffff1602179055506101ef565b5f5f5f9054906101000a900473ffffffffffffffffffffffffffffffffffffffff169050815f5f6101000a81548173ffffffffffffffffffffffffffffffffffffffff021916908373ffffffffffffffffffffffffffffffffffffffff1602179055508173ffffffffffffffffffffffffffffffffffffffff168173ffffffffffffffffffffffffffffffffffffffff167f8be0079c531659141344cd1fd0a4f28419497f9722a3daafe3b4186f6b6457e060405160405180910390a35050565b5f73ffffffffffffffffffffffffffffffffffffffff82169050919050565b5f6101c082610197565b9050919050565b6101d0816101b6565b82525050565b5f6020820190506101e95f8301846101c7565b92915050565b61161c806101fc5f395ff3fe608060405234801561000f575f5ffd5b50600436106100e8575f3560e01c8063a1edffa21161008a578063c8f5714e11610064578063c8f5714e14610228578063e43252d714610244578063f2fde38b14610260578063f851a4401461027c576100e8565b8063a1edffa2146101ba578063a3ec138d146101d8578063c64963c51461020a576100e8565b806345bf58fd116100c657806345bf58fd14610146578063715018a6146101625780638da5cb5b1461016c5780639b19251a1461018a576100e8565b8063013cf08b146100ec57806318633beb1461011e5780634394ba2114610128575b5f5ffd5b61010660048036038101906101019190610c43565b61029a565b60405161011593929190610ced565b60405180910390f35b610126610355565b005b610130610420565b60405161013d9190610dcd565b60405180910390f35b610160600480360381019061015b9190610f19565b610620565b005b61016a610719565b005b61017461072c565b6040516101819190610f9f565b60405180910390f35b6101a4600480360381019061019f9190610fe2565b610753565b6040516101b19190611027565b60405180910390f35b6101c2610770565b6040516101cf91906110b3565b60405180910390f35b6101f260048036038101906101ed9190610fe2565b610782565b604051610201939291906110cc565b60405180910390f35b6102126107c0565b60405161021f9190611101565b60405180910390f35b610242600480360381019061023d9190610c43565b6107c6565b005b61025e60048036038101906102599190610fe2565b610990565b005b61027a60048036038101906102759190610fe2565b6109e8565b005b610284610a6c565b6040516102919190610f9f565b60405180910390f35b600581815481106102a9575f80fd5b905f5260205f2090600302015f91509050805f0154908060010180546102ce90611147565b80601f01602080910402602001604051908101604052809291908181526020018280546102fa90611147565b80156103455780601f1061031c57610100808354040283529160200191610345565b820191905f5260205f20905b81548152906001019060200180831161032857829003601f168201915b5050505050908060020154905083565b60015f9054906101000a900473ffffffffffffffffffffffffffffffffffffffff1673ffffffffffffffffffffffffffffffffffffffff163373ffffffffffffffffffffffffffffffffffffffff16146103e4576040517f08c379a00000000000000000000000000000000000000000000000000000000081526004016103db906111c1565b60405180910390fd5b7f0a97a4ee45751e2abf3e4fc8946939630b11b371ea8ae39ccdc3056e98f5cc3f5f60016040516104169291906111df565b60405180910390a1565b610428610be0565b5f60055f8154811061043d5761043c611206565b5b905f5260205f2090600302016040518060600160405290815f820154815260200160018201805461046d90611147565b80601f016020809104026020016040519081016040528092919081815260200182805461049990611147565b80156104e45780601f106104bb576101008083540402835291602001916104e4565b820191905f5260205f20905b8154815290600101906020018083116104c757829003601f168201915b5050505050815260200160028201548152505090505f5f90505b6005805490508110156106185781604001516005828154811061052457610523611206565b5b905f5260205f20906003020160020154111561060b576005818154811061054e5761054d611206565b5b905f5260205f2090600302016040518060600160405290815f820154815260200160018201805461057e90611147565b80601f01602080910402602001604051908101604052809291908181526020018280546105aa90611147565b80156105f55780601f106105cc576101008083540402835291602001916105f5565b820191905f5260205f20905b8154815290600101906020018083116105d857829003601f168201915b5050505050815260200160028201548152505091505b80806001019150506104fe565b508091505090565b6001600581111561063457610633611040565b5b60075f9054906101000a900460ff16600581111561065557610654611040565b5b14610695576040517f08c379a000000000000000000000000000000000000000000000000000000000815260040161068c9061127d565b60405180910390fd5b60045f8154809291906106a7906112c8565b9190505550604051806060016040528060045481526020018281526020015f8152506005600454815481106106df576106de611206565b5b905f5260205f2090600302015f820151815f0155602082015181600101908161070891906114af565b506040820151816002015590505050565b610721610a91565b61072a5f610b18565b565b5f5f5f9054906101000a900473ffffffffffffffffffffffffffffffffffffffff16905090565b6003602052805f5260405f205f915054906101000a900460ff1681565b60075f9054906101000a900460ff1681565b6006602052805f5260405f205f91509050805f015f9054906101000a900460ff1690805f0160019054906101000a900460ff16908060010154905083565b60025481565b5f60065f3373ffffffffffffffffffffffffffffffffffffffff1673ffffffffffffffffffffffffffffffffffffffff1681526020019081526020015f206040518060600160405290815f82015f9054906101000a900460ff161515151581526020015f820160019054906101000a900460ff161515151581526020016001820154815250509050806020015115610893576040517f08c379a000000000000000000000000000000000000000000000000000000000815260040161088a906115c8565b60405180910390fd5b5f600583815481106108a8576108a7611206565b5b905f5260205f2090600302016040518060600160405290815f82015481526020016001820180546108d890611147565b80601f016020809104026020016040519081016040528092919081815260200182805461090490611147565b801561094f5780601f106109265761010080835404028352916020019161094f565b820191905f5260205f20905b81548152906001019060200180831161093257829003601f168201915b505050505081526020016002820154815250509050806040018051809190610976906112c8565b815250506001826020019015159081151581525050505050565b600160035f8373ffffffffffffffffffffffffffffffffffffffff1673ffffffffffffffffffffffffffffffffffffffff1681526020019081526020015f205f6101000a81548160ff02191690831515021790555050565b6109f0610a91565b5f73ffffffffffffffffffffffffffffffffffffffff168173ffffffffffffffffffffffffffffffffffffffff1603610a60575f6040517f1e4fbdf7000000000000000000000000000000000000000000000000000000008152600401610a579190610f9f565b60405180910390fd5b610a6981610b18565b50565b60015f9054906101000a900473ffffffffffffffffffffffffffffffffffffffff1681565b610a99610bd9565b73ffffffffffffffffffffffffffffffffffffffff16610ab761072c565b73ffffffffffffffffffffffffffffffffffffffff1614610b1657610ada610bd9565b6040517f118cdaa7000000000000000000000000000000000000000000000000000000008152600401610b0d9190610f9f565b60405180910390fd5b565b5f5f5f9054906101000a900473ffffffffffffffffffffffffffffffffffffffff169050815f5f6101000a81548173ffffffffffffffffffffffffffffffffffffffff021916908373ffffffffffffffffffffffffffffffffffffffff1602179055508173ffffffffffffffffffffffffffffffffffffffff168173ffffffffffffffffffffffffffffffffffffffff167f8be0079c531659141344cd1fd0a4f28419497f9722a3daafe3b4186f6b6457e060405160405180910390a35050565b5f33905090565b60405180606001604052805f8152602001606081526020015f81525090565b5f604051905090565b5f5ffd5b5f5ffd5b5f819050919050565b610c2281610c10565b8114610c2c575f5ffd5b50565b5f81359050610c3d81610c19565b92915050565b5f60208284031215610c5857610c57610c08565b5b5f610c6584828501610c2f565b91505092915050565b610c7781610c10565b82525050565b5f81519050919050565b5f82825260208201905092915050565b8281835e5f83830152505050565b5f601f19601f8301169050919050565b5f610cbf82610c7d565b610cc98185610c87565b9350610cd9818560208601610c97565b610ce281610ca5565b840191505092915050565b5f606082019050610d005f830186610c6e565b8181036020830152610d128185610cb5565b9050610d216040830184610c6e565b949350505050565b610d3281610c10565b82525050565b5f82825260208201905092915050565b5f610d5282610c7d565b610d5c8185610d38565b9350610d6c818560208601610c97565b610d7581610ca5565b840191505092915050565b5f606083015f830151610d955f860182610d29565b5060208301518482036020860152610dad8282610d48565b9150506040830151610dc26040860182610d29565b508091505092915050565b5f6020820190508181035f830152610de58184610d80565b905092915050565b5f5ffd5b5f5ffd5b7f4e487b71000000000000000000000000000000000000000000000000000000005f52604160045260245ffd5b610e2b82610ca5565b810181811067ffffffffffffffff82111715610e4a57610e49610df5565b5b80604052505050565b5f610e5c610bff565b9050610e688282610e22565b919050565b5f67ffffffffffffffff821115610e8757610e86610df5565b5b610e9082610ca5565b9050602081019050919050565b828183375f83830152505050565b5f610ebd610eb884610e6d565b610e53565b905082815260208101848484011115610ed957610ed8610df1565b5b610ee4848285610e9d565b509392505050565b5f82601f830112610f0057610eff610ded565b5b8135610f10848260208601610eab565b91505092915050565b5f60208284031215610f2e57610f2d610c08565b5b5f82013567ffffffffffffffff811115610f4b57610f4a610c0c565b5b610f5784828501610eec565b91505092915050565b5f73ffffffffffffffffffffffffffffffffffffffff82169050919050565b5f610f8982610f60565b9050919050565b610f9981610f7f565b82525050565b5f602082019050610fb25f830184610f90565b92915050565b610fc181610f7f565b8114610fcb575f5ffd5b50565b5f81359050610fdc81610fb8565b92915050565b5f60208284031215610ff757610ff6610c08565b5b5f61100484828501610fce565b91505092915050565b5f8115159050919050565b6110218161100d565b82525050565b5f60208201905061103a5f830184611018565b92915050565b7f4e487b71000000000000000000000000000000000000000000000000000000005f52602160045260245ffd5b6006811061107e5761107d611040565b5b50565b5f81905061108e8261106d565b919050565b5f61109d82611081565b9050919050565b6110ad81611093565b82525050565b5f6020820190506110c65f8301846110a4565b92915050565b5f6060820190506110df5f830186611018565b6110ec6020830185611018565b6110f96040830184610c6e565b949350505050565b5f6020820190506111145f830184610c6e565b92915050565b7f4e487b71000000000000000000000000000000000000000000000000000000005f52602260045260245ffd5b5f600282049050600182168061115e57607f821691505b6020821081036111715761117061111a565b5b50919050565b7f596f7520617265206e6f74207468652061646d696e00000000000000000000005f82015250565b5f6111ab601583610c87565b91506111b682611177565b602082019050919050565b5f6020820190508181035f8301526111d88161119f565b9050919050565b5f6040820190506111f25f8301856110a4565b6111ff60208301846110a4565b9392505050565b7f4e487b71000000000000000000000000000000000000000000000000000000005f52603260045260245ffd5b7f726567697374726174696f6e20646964206e6f742073746172746564000000005f82015250565b5f611267601c83610c87565b915061127282611233565b602082019050919050565b5f6020820190508181035f8301526112948161125b565b9050919050565b7f4e487b71000000000000000000000000000000000000000000000000000000005f52601160045260245ffd5b5f6112d282610c10565b91507fffffffffffffffffffffffffffffffffffffffffffffffffffffffffffffffff82036113045761130361129b565b5b600182019050919050565b5f819050815f5260205f209050919050565b5f6020601f8301049050919050565b5f82821b905092915050565b5f6008830261136b7fffffffffffffffffffffffffffffffffffffffffffffffffffffffffffffffff82611330565b6113758683611330565b95508019841693508086168417925050509392505050565b5f819050919050565b5f6113b06113ab6113a684610c10565b61138d565b610c10565b9050919050565b5f819050919050565b6113c983611396565b6113dd6113d5826113b7565b84845461133c565b825550505050565b5f5f905090565b6113f46113e5565b6113ff8184846113c0565b505050565b5b81811015611422576114175f826113ec565b600181019050611405565b5050565b601f821115611467576114388161130f565b61144184611321565b81016020851015611450578190505b61146461145c85611321565b830182611404565b50505b505050565b5f82821c905092915050565b5f6114875f198460080261146c565b1980831691505092915050565b5f61149f8383611478565b9150826002028217905092915050565b6114b882610c7d565b67ffffffffffffffff8111156114d1576114d0610df5565b5b6114db8254611147565b6114e6828285611426565b5f60209050601f831160018114611517575f8415611505578287015190505b61150f8582611494565b865550611576565b601f1984166115258661130f565b5f5b8281101561154c57848901518255600182019150602085019450602081019050611527565b868310156115695784890151611565601f891682611478565b8355505b6001600288020188555050505b505050505050565b7f646f20796f75206861766520616c726561647920766f746500000000000000005f82015250565b5f6115b2601883610c87565b91506115bd8261157e565b602082019050919050565b5f6020820190508181035f8301526115df816115a6565b905091905056fea2646970667358221220daf42868c5e98be40555a91c8e8038bb1aac1c47551e6a23e5d3b3a2cd9636cb64736f6c634300081e0033",
					"opcodes": "PUSH1 0x80 PUSH1 0x40 MSTORE CALLVALUE DUP1 ISZERO PUSH2 0xF JUMPI PUSH0 PUSH0 REVERT JUMPDEST POP CALLER PUSH0 PUSH20 0xFFFFFFFFFFFFFFFFFFFFFFFFFFFFFFFFFFFFFFFF AND DUP2 PUSH20 0xFFFFFFFFFFFFFFFFFFFFFFFFFFFFFFFFFFFFFFFF AND SUB PUSH2 0x81 JUMPI PUSH0 PUSH1 0x40 MLOAD PUSH32 0x1E4FBDF700000000000000000000000000000000000000000000000000000000 DUP2 MSTORE PUSH1 0x4 ADD PUSH2 0x78 SWAP2 SWAP1 PUSH2 0x1D6 JUMP JUMPDEST PUSH1 0x40 MLOAD DUP1 SWAP2 SUB SWAP1 REVERT JUMPDEST PUSH2 0x90 DUP2 PUSH2 0xD6 PUSH1 0x20 SHL PUSH1 0x20 SHR JUMP JUMPDEST POP CALLER PUSH1 0x1 PUSH0 PUSH2 0x100 EXP DUP2 SLOAD DUP2 PUSH20 0xFFFFFFFFFFFFFFFFFFFFFFFFFFFFFFFFFFFFFFFF MUL NOT AND SWAP1 DUP4 PUSH20 0xFFFFFFFFFFFFFFFFFFFFFFFFFFFFFFFFFFFFFFFF AND MUL OR SWAP1 SSTORE POP PUSH2 0x1EF JUMP JUMPDEST PUSH0 PUSH0 PUSH0 SWAP1 SLOAD SWAP1 PUSH2 0x100 EXP SWAP1 DIV PUSH20 0xFFFFFFFFFFFFFFFFFFFFFFFFFFFFFFFFFFFFFFFF AND SWAP1 POP DUP2 PUSH0 PUSH0 PUSH2 0x100 EXP DUP2 SLOAD DUP2 PUSH20 0xFFFFFFFFFFFFFFFFFFFFFFFFFFFFFFFFFFFFFFFF MUL NOT AND SWAP1 DUP4 PUSH20 0xFFFFFFFFFFFFFFFFFFFFFFFFFFFFFFFFFFFFFFFF AND MUL OR SWAP1 SSTORE POP DUP2 PUSH20 0xFFFFFFFFFFFFFFFFFFFFFFFFFFFFFFFFFFFFFFFF AND DUP2 PUSH20 0xFFFFFFFFFFFFFFFFFFFFFFFFFFFFFFFFFFFFFFFF AND PUSH32 0x8BE0079C531659141344CD1FD0A4F28419497F9722A3DAAFE3B4186F6B6457E0 PUSH1 0x40 MLOAD PUSH1 0x40 MLOAD DUP1 SWAP2 SUB SWAP1 LOG3 POP POP JUMP JUMPDEST PUSH0 PUSH20 0xFFFFFFFFFFFFFFFFFFFFFFFFFFFFFFFFFFFFFFFF DUP3 AND SWAP1 POP SWAP2 SWAP1 POP JUMP JUMPDEST PUSH0 PUSH2 0x1C0 DUP3 PUSH2 0x197 JUMP JUMPDEST SWAP1 POP SWAP2 SWAP1 POP JUMP JUMPDEST PUSH2 0x1D0 DUP2 PUSH2 0x1B6 JUMP JUMPDEST DUP3 MSTORE POP POP JUMP JUMPDEST PUSH0 PUSH1 0x20 DUP3 ADD SWAP1 POP PUSH2 0x1E9 PUSH0 DUP4 ADD DUP5 PUSH2 0x1C7 JUMP JUMPDEST SWAP3 SWAP2 POP POP JUMP JUMPDEST PUSH2 0x161C DUP1 PUSH2 0x1FC PUSH0 CODECOPY PUSH0 RETURN INVALID PUSH1 0x80 PUSH1 0x40 MSTORE CALLVALUE DUP1 ISZERO PUSH2 0xF JUMPI PUSH0 PUSH0 REVERT JUMPDEST POP PUSH1 0x4 CALLDATASIZE LT PUSH2 0xE8 JUMPI PUSH0 CALLDATALOAD PUSH1 0xE0 SHR DUP1 PUSH4 0xA1EDFFA2 GT PUSH2 0x8A JUMPI DUP1 PUSH4 0xC8F5714E GT PUSH2 0x64 JUMPI DUP1 PUSH4 0xC8F5714E EQ PUSH2 0x228 JUMPI DUP1 PUSH4 0xE43252D7 EQ PUSH2 0x244 JUMPI DUP1 PUSH4 0xF2FDE38B EQ PUSH2 0x260 JUMPI DUP1 PUSH4 0xF851A440 EQ PUSH2 0x27C JUMPI PUSH2 0xE8 JUMP JUMPDEST DUP1 PUSH4 0xA1EDFFA2 EQ PUSH2 0x1BA JUMPI DUP1 PUSH4 0xA3EC138D EQ PUSH2 0x1D8 JUMPI DUP1 PUSH4 0xC64963C5 EQ PUSH2 0x20A JUMPI PUSH2 0xE8 JUMP JUMPDEST DUP1 PUSH4 0x45BF58FD GT PUSH2 0xC6 JUMPI DUP1 PUSH4 0x45BF58FD EQ PUSH2 0x146 JUMPI DUP1 PUSH4 0x715018A6 EQ PUSH2 0x162 JUMPI DUP1 PUSH4 0x8DA5CB5B EQ PUSH2 0x16C JUMPI DUP1 PUSH4 0x9B19251A EQ PUSH2 0x18A JUMPI PUSH2 0xE8 JUMP JUMPDEST DUP1 PUSH4 0x13CF08B EQ PUSH2 0xEC JUMPI DUP1 PUSH4 0x18633BEB EQ PUSH2 0x11E JUMPI DUP1 PUSH4 0x4394BA21 EQ PUSH2 0x128 JUMPI JUMPDEST PUSH0 PUSH0 REVERT JUMPDEST PUSH2 0x106 PUSH1 0x4 DUP1 CALLDATASIZE SUB DUP2 ADD SWAP1 PUSH2 0x101 SWAP2 SWAP1 PUSH2 0xC43 JUMP JUMPDEST PUSH2 0x29A JUMP JUMPDEST PUSH1 0x40 MLOAD PUSH2 0x115 SWAP4 SWAP3 SWAP2 SWAP1 PUSH2 0xCED JUMP JUMPDEST PUSH1 0x40 MLOAD DUP1 SWAP2 SUB SWAP1 RETURN JUMPDEST PUSH2 0x126 PUSH2 0x355 JUMP JUMPDEST STOP JUMPDEST PUSH2 0x130 PUSH2 0x420 JUMP JUMPDEST PUSH1 0x40 MLOAD PUSH2 0x13D SWAP2 SWAP1 PUSH2 0xDCD JUMP JUMPDEST PUSH1 0x40 MLOAD DUP1 SWAP2 SUB SWAP1 RETURN JUMPDEST PUSH2 0x160 PUSH1 0x4 DUP1 CALLDATASIZE SUB DUP2 ADD SWAP1 PUSH2 0x15B SWAP2 SWAP1 PUSH2 0xF19 JUMP JUMPDEST PUSH2 0x620 JUMP JUMPDEST STOP JUMPDEST PUSH2 0x16A PUSH2 0x719 JUMP JUMPDEST STOP JUMPDEST PUSH2 0x174 PUSH2 0x72C JUMP JUMPDEST PUSH1 0x40 MLOAD PUSH2 0x181 SWAP2 SWAP1 PUSH2 0xF9F JUMP JUMPDEST PUSH1 0x40 MLOAD DUP1 SWAP2 SUB SWAP1 RETURN JUMPDEST PUSH2 0x1A4 PUSH1 0x4 DUP1 CALLDATASIZE SUB DUP2 ADD SWAP1 PUSH2 0x19F SWAP2 SWAP1 PUSH2 0xFE2 JUMP JUMPDEST PUSH2 0x753 JUMP JUMPDEST PUSH1 0x40 MLOAD PUSH2 0x1B1 SWAP2 SWAP1 PUSH2 0x1027 JUMP JUMPDEST PUSH1 0x40 MLOAD DUP1 SWAP2 SUB SWAP1 RETURN JUMPDEST PUSH2 0x1C2 PUSH2 0x770 JUMP JUMPDEST PUSH1 0x40 MLOAD PUSH2 0x1CF SWAP2 SWAP1 PUSH2 0x10B3 JUMP JUMPDEST PUSH1 0x40 MLOAD DUP1 SWAP2 SUB SWAP1 RETURN JUMPDEST PUSH2 0x1F2 PUSH1 0x4 DUP1 CALLDATASIZE SUB DUP2 ADD SWAP1 PUSH2 0x1ED SWAP2 SWAP1 PUSH2 0xFE2 JUMP JUMPDEST PUSH2 0x782 JUMP JUMPDEST PUSH1 0x40 MLOAD PUSH2 0x201 SWAP4 SWAP3 SWAP2 SWAP1 PUSH2 0x10CC JUMP JUMPDEST PUSH1 0x40 MLOAD DUP1 SWAP2 SUB SWAP1 RETURN JUMPDEST PUSH2 0x212 PUSH2 0x7C0 JUMP JUMPDEST PUSH1 0x40 MLOAD PUSH2 0x21F SWAP2 SWAP1 PUSH2 0x1101 JUMP JUMPDEST PUSH1 0x40 MLOAD DUP1 SWAP2 SUB SWAP1 RETURN JUMPDEST PUSH2 0x242 PUSH1 0x4 DUP1 CALLDATASIZE SUB DUP2 ADD SWAP1 PUSH2 0x23D SWAP2 SWAP1 PUSH2 0xC43 JUMP JUMPDEST PUSH2 0x7C6 JUMP JUMPDEST STOP JUMPDEST PUSH2 0x25E PUSH1 0x4 DUP1 CALLDATASIZE SUB DUP2 ADD SWAP1 PUSH2 0x259 SWAP2 SWAP1 PUSH2 0xFE2 JUMP JUMPDEST PUSH2 0x990 JUMP JUMPDEST STOP JUMPDEST PUSH2 0x27A PUSH1 0x4 DUP1 CALLDATASIZE SUB DUP2 ADD SWAP1 PUSH2 0x275 SWAP2 SWAP1 PUSH2 0xFE2 JUMP JUMPDEST PUSH2 0x9E8 JUMP JUMPDEST STOP JUMPDEST PUSH2 0x284 PUSH2 0xA6C JUMP JUMPDEST PUSH1 0x40 MLOAD PUSH2 0x291 SWAP2 SWAP1 PUSH2 0xF9F JUMP JUMPDEST PUSH1 0x40 MLOAD DUP1 SWAP2 SUB SWAP1 RETURN JUMPDEST PUSH1 0x5 DUP2 DUP2 SLOAD DUP2 LT PUSH2 0x2A9 JUMPI PUSH0 DUP1 REVERT JUMPDEST SWAP1 PUSH0 MSTORE PUSH1 0x20 PUSH0 KECCAK256 SWAP1 PUSH1 0x3 MUL ADD PUSH0 SWAP2 POP SWAP1 POP DUP1 PUSH0 ADD SLOAD SWAP1 DUP1 PUSH1 0x1 ADD DUP1 SLOAD PUSH2 0x2CE SWAP1 PUSH2 0x1147 JUMP JUMPDEST DUP1 PUSH1 0x1F ADD PUSH1 0x20 DUP1 SWAP2 DIV MUL PUSH1 0x20 ADD PUSH1 0x40 MLOAD SWAP1 DUP2 ADD PUSH1 0x40 MSTORE DUP1 SWAP3 SWAP2 SWAP1 DUP2 DUP2 MSTORE PUSH1 0x20 ADD DUP3 DUP1 SLOAD PUSH2 0x2FA SWAP1 PUSH2 0x1147 JUMP JUMPDEST DUP1 ISZERO PUSH2 0x345 JUMPI DUP1 PUSH1 0x1F LT PUSH2 0x31C JUMPI PUSH2 0x100 DUP1 DUP4 SLOAD DIV MUL DUP4 MSTORE SWAP2 PUSH1 0x20 ADD SWAP2 PUSH2 0x345 JUMP JUMPDEST DUP3 ADD SWAP2 SWAP1 PUSH0 MSTORE PUSH1 0x20 PUSH0 KECCAK256 SWAP1 JUMPDEST DUP2 SLOAD DUP2 MSTORE SWAP1 PUSH1 0x1 ADD SWAP1 PUSH1 0x20 ADD DUP1 DUP4 GT PUSH2 0x328 JUMPI DUP3 SWAP1 SUB PUSH1 0x1F AND DUP3 ADD SWAP2 JUMPDEST POP POP POP POP POP SWAP1 DUP1 PUSH1 0x2 ADD SLOAD SWAP1 POP DUP4 JUMP JUMPDEST PUSH1 0x1 PUSH0 SWAP1 SLOAD SWAP1 PUSH2 0x100 EXP SWAP1 DIV PUSH20 0xFFFFFFFFFFFFFFFFFFFFFFFFFFFFFFFFFFFFFFFF AND PUSH20 0xFFFFFFFFFFFFFFFFFFFFFFFFFFFFFFFFFFFFFFFF AND CALLER PUSH20 0xFFFFFFFFFFFFFFFFFFFFFFFFFFFFFFFFFFFFFFFF AND EQ PUSH2 0x3E4 JUMPI PUSH1 0x40 MLOAD PUSH32 0x8C379A000000000000000000000000000000000000000000000000000000000 DUP2 MSTORE PUSH1 0x4 ADD PUSH2 0x3DB SWAP1 PUSH2 0x11C1 JUMP JUMPDEST PUSH1 0x40 MLOAD DUP1 SWAP2 SUB SWAP1 REVERT JUMPDEST PUSH32 0xA97A4EE45751E2ABF3E4FC8946939630B11B371EA8AE39CCDC3056E98F5CC3F PUSH0 PUSH1 0x1 PUSH1 0x40 MLOAD PUSH2 0x416 SWAP3 SWAP2 SWAP1 PUSH2 0x11DF JUMP JUMPDEST PUSH1 0x40 MLOAD DUP1 SWAP2 SUB SWAP1 LOG1 JUMP JUMPDEST PUSH2 0x428 PUSH2 0xBE0 JUMP JUMPDEST PUSH0 PUSH1 0x5 PUSH0 DUP2 SLOAD DUP2 LT PUSH2 0x43D JUMPI PUSH2 0x43C PUSH2 0x1206 JUMP JUMPDEST JUMPDEST SWAP1 PUSH0 MSTORE PUSH1 0x20 PUSH0 KECCAK256 SWAP1 PUSH1 0x3 MUL ADD PUSH1 0x40 MLOAD DUP1 PUSH1 0x60 ADD PUSH1 0x40 MSTORE SWAP1 DUP2 PUSH0 DUP3 ADD SLOAD DUP2 MSTORE PUSH1 0x20 ADD PUSH1 0x1 DUP3 ADD DUP1 SLOAD PUSH2 0x46D SWAP1 PUSH2 0x1147 JUMP JUMPDEST DUP1 PUSH1 0x1F ADD PUSH1 0x20 DUP1 SWAP2 DIV MUL PUSH1 0x20 ADD PUSH1 0x40 MLOAD SWAP1 DUP2 ADD PUSH1 0x40 MSTORE DUP1 SWAP3 SWAP2 SWAP1 DUP2 DUP2 MSTORE PUSH1 0x20 ADD DUP3 DUP1 SLOAD PUSH2 0x499 SWAP1 PUSH2 0x1147 JUMP JUMPDEST DUP1 ISZERO PUSH2 0x4E4 JUMPI DUP1 PUSH1 0x1F LT PUSH2 0x4BB JUMPI PUSH2 0x100 DUP1 DUP4 SLOAD DIV MUL DUP4 MSTORE SWAP2 PUSH1 0x20 ADD SWAP2 PUSH2 0x4E4 JUMP JUMPDEST DUP3 ADD SWAP2 SWAP1 PUSH0 MSTORE PUSH1 0x20 PUSH0 KECCAK256 SWAP1 JUMPDEST DUP2 SLOAD DUP2 MSTORE SWAP1 PUSH1 0x1 ADD SWAP1 PUSH1 0x20 ADD DUP1 DUP4 GT PUSH2 0x4C7 JUMPI DUP3 SWAP1 SUB PUSH1 0x1F AND DUP3 ADD SWAP2 JUMPDEST POP POP POP POP POP DUP2 MSTORE PUSH1 0x20 ADD PUSH1 0x2 DUP3 ADD SLOAD DUP2 MSTORE POP POP SWAP1 POP PUSH0 PUSH0 SWAP1 POP JUMPDEST PUSH1 0x5 DUP1 SLOAD SWAP1 POP DUP2 LT ISZERO PUSH2 0x618 JUMPI DUP2 PUSH1 0x40 ADD MLOAD PUSH1 0x5 DUP3 DUP2 SLOAD DUP2 LT PUSH2 0x524 JUMPI PUSH2 0x523 PUSH2 0x1206 JUMP JUMPDEST JUMPDEST SWAP1 PUSH0 MSTORE PUSH1 0x20 PUSH0 KECCAK256 SWAP1 PUSH1 0x3 MUL ADD PUSH1 0x2 ADD SLOAD GT ISZERO PUSH2 0x60B JUMPI PUSH1 0x5 DUP2 DUP2 SLOAD DUP2 LT PUSH2 0x54E JUMPI PUSH2 0x54D PUSH2 0x1206 JUMP JUMPDEST JUMPDEST SWAP1 PUSH0 MSTORE PUSH1 0x20 PUSH0 KECCAK256 SWAP1 PUSH1 0x3 MUL ADD PUSH1 0x40 MLOAD DUP1 PUSH1 0x60 ADD PUSH1 0x40 MSTORE SWAP1 DUP2 PUSH0 DUP3 ADD SLOAD DUP2 MSTORE PUSH1 0x20 ADD PUSH1 0x1 DUP3 ADD DUP1 SLOAD PUSH2 0x57E SWAP1 PUSH2 0x1147 JUMP JUMPDEST DUP1 PUSH1 0x1F ADD PUSH1 0x20 DUP1 SWAP2 DIV MUL PUSH1 0x20 ADD PUSH1 0x40 MLOAD SWAP1 DUP2 ADD PUSH1 0x40 MSTORE DUP1 SWAP3 SWAP2 SWAP1 DUP2 DUP2 MSTORE PUSH1 0x20 ADD DUP3 DUP1 SLOAD PUSH2 0x5AA SWAP1 PUSH2 0x1147 JUMP JUMPDEST DUP1 ISZERO PUSH2 0x5F5 JUMPI DUP1 PUSH1 0x1F LT PUSH2 0x5CC JUMPI PUSH2 0x100 DUP1 DUP4 SLOAD DIV MUL DUP4 MSTORE SWAP2 PUSH1 0x20 ADD SWAP2 PUSH2 0x5F5 JUMP JUMPDEST DUP3 ADD SWAP2 SWAP1 PUSH0 MSTORE PUSH1 0x20 PUSH0 KECCAK256 SWAP1 JUMPDEST DUP2 SLOAD DUP2 MSTORE SWAP1 PUSH1 0x1 ADD SWAP1 PUSH1 0x20 ADD DUP1 DUP4 GT PUSH2 0x5D8 JUMPI DUP3 SWAP1 SUB PUSH1 0x1F AND DUP3 ADD SWAP2 JUMPDEST POP POP POP POP POP DUP2 MSTORE PUSH1 0x20 ADD PUSH1 0x2 DUP3 ADD SLOAD DUP2 MSTORE POP POP SWAP2 POP JUMPDEST DUP1 DUP1 PUSH1 0x1 ADD SWAP2 POP POP PUSH2 0x4FE JUMP JUMPDEST POP DUP1 SWAP2 POP POP SWAP1 JUMP JUMPDEST PUSH1 0x1 PUSH1 0x5 DUP2 GT ISZERO PUSH2 0x634 JUMPI PUSH2 0x633 PUSH2 0x1040 JUMP JUMPDEST JUMPDEST PUSH1 0x7 PUSH0 SWAP1 SLOAD SWAP1 PUSH2 0x100 EXP SWAP1 DIV PUSH1 0xFF AND PUSH1 0x5 DUP2 GT ISZERO PUSH2 0x655 JUMPI PUSH2 0x654 PUSH2 0x1040 JUMP JUMPDEST JUMPDEST EQ PUSH2 0x695 JUMPI PUSH1 0x40 MLOAD PUSH32 0x8C379A000000000000000000000000000000000000000000000000000000000 DUP2 MSTORE PUSH1 0x4 ADD PUSH2 0x68C SWAP1 PUSH2 0x127D JUMP JUMPDEST PUSH1 0x40 MLOAD DUP1 SWAP2 SUB SWAP1 REVERT JUMPDEST PUSH1 0x4 PUSH0 DUP2 SLOAD DUP1 SWAP3 SWAP2 SWAP1 PUSH2 0x6A7 SWAP1 PUSH2 0x12C8 JUMP JUMPDEST SWAP2 SWAP1 POP SSTORE POP PUSH1 0x40 MLOAD DUP1 PUSH1 0x60 ADD PUSH1 0x40 MSTORE DUP1 PUSH1 0x4 SLOAD DUP2 MSTORE PUSH1 0x20 ADD DUP3 DUP2 MSTORE PUSH1 0x20 ADD PUSH0 DUP2 MSTORE POP PUSH1 0x5 PUSH1 0x4 SLOAD DUP2 SLOAD DUP2 LT PUSH2 0x6DF JUMPI PUSH2 0x6DE PUSH2 0x1206 JUMP JUMPDEST JUMPDEST SWAP1 PUSH0 MSTORE PUSH1 0x20 PUSH0 KECCAK256 SWAP1 PUSH1 0x3 MUL ADD PUSH0 DUP3 ADD MLOAD DUP2 PUSH0 ADD SSTORE PUSH1 0x20 DUP3 ADD MLOAD DUP2 PUSH1 0x1 ADD SWAP1 DUP2 PUSH2 0x708 SWAP2 SWAP1 PUSH2 0x14AF JUMP JUMPDEST POP PUSH1 0x40 DUP3 ADD MLOAD DUP2 PUSH1 0x2 ADD SSTORE SWAP1 POP POP POP JUMP JUMPDEST PUSH2 0x721 PUSH2 0xA91 JUMP JUMPDEST PUSH2 0x72A PUSH0 PUSH2 0xB18 JUMP JUMPDEST JUMP JUMPDEST PUSH0 PUSH0 PUSH0 SWAP1 SLOAD SWAP1 PUSH2 0x100 EXP SWAP1 DIV PUSH20 0xFFFFFFFFFFFFFFFFFFFFFFFFFFFFFFFFFFFFFFFF AND SWAP1 POP SWAP1 JUMP JUMPDEST PUSH1 0x3 PUSH1 0x20 MSTORE DUP1 PUSH0 MSTORE PUSH1 0x40 PUSH0 KECCAK256 PUSH0 SWAP2 POP SLOAD SWAP1 PUSH2 0x100 EXP SWAP1 DIV PUSH1 0xFF AND DUP2 JUMP JUMPDEST PUSH1 0x7 PUSH0 SWAP1 SLOAD SWAP1 PUSH2 0x100 EXP SWAP1 DIV PUSH1 0xFF AND DUP2 JUMP JUMPDEST PUSH1 0x6 PUSH1 0x20 MSTORE DUP1 PUSH0 MSTORE PUSH1 0x40 PUSH0 KECCAK256 PUSH0 SWAP2 POP SWAP1 POP DUP1 PUSH0 ADD PUSH0 SWAP1 SLOAD SWAP1 PUSH2 0x100 EXP SWAP1 DIV PUSH1 0xFF AND SWAP1 DUP1 PUSH0 ADD PUSH1 0x1 SWAP1 SLOAD SWAP1 PUSH2 0x100 EXP SWAP1 DIV PUSH1 0xFF AND SWAP1 DUP1 PUSH1 0x1 ADD SLOAD SWAP1 POP DUP4 JUMP JUMPDEST PUSH1 0x2 SLOAD DUP2 JUMP JUMPDEST PUSH0 PUSH1 0x6 PUSH0 CALLER PUSH20 0xFFFFFFFFFFFFFFFFFFFFFFFFFFFFFFFFFFFFFFFF AND PUSH20 0xFFFFFFFFFFFFFFFFFFFFFFFFFFFFFFFFFFFFFFFF AND DUP2 MSTORE PUSH1 0x20 ADD SWAP1 DUP2 MSTORE PUSH1 0x20 ADD PUSH0 KECCAK256 PUSH1 0x40 MLOAD DUP1 PUSH1 0x60 ADD PUSH1 0x40 MSTORE SWAP1 DUP2 PUSH0 DUP3 ADD PUSH0 SWAP1 SLOAD SWAP1 PUSH2 0x100 EXP SWAP1 DIV PUSH1 0xFF AND ISZERO ISZERO ISZERO ISZERO DUP2 MSTORE PUSH1 0x20 ADD PUSH0 DUP3 ADD PUSH1 0x1 SWAP1 SLOAD SWAP1 PUSH2 0x100 EXP SWAP1 DIV PUSH1 0xFF AND ISZERO ISZERO ISZERO ISZERO DUP2 MSTORE PUSH1 0x20 ADD PUSH1 0x1 DUP3 ADD SLOAD DUP2 MSTORE POP POP SWAP1 POP DUP1 PUSH1 0x20 ADD MLOAD ISZERO PUSH2 0x893 JUMPI PUSH1 0x40 MLOAD PUSH32 0x8C379A000000000000000000000000000000000000000000000000000000000 DUP2 MSTORE PUSH1 0x4 ADD PUSH2 0x88A SWAP1 PUSH2 0x15C8 JUMP JUMPDEST PUSH1 0x40 MLOAD DUP1 SWAP2 SUB SWAP1 REVERT JUMPDEST PUSH0 PUSH1 0x5 DUP4 DUP2 SLOAD DUP2 LT PUSH2 0x8A8 JUMPI PUSH2 0x8A7 PUSH2 0x1206 JUMP JUMPDEST JUMPDEST SWAP1 PUSH0 MSTORE PUSH1 0x20 PUSH0 KECCAK256 SWAP1 PUSH1 0x3 MUL ADD PUSH1 0x40 MLOAD DUP1 PUSH1 0x60 ADD PUSH1 0x40 MSTORE SWAP1 DUP2 PUSH0 DUP3 ADD SLOAD DUP2 MSTORE PUSH1 0x20 ADD PUSH1 0x1 DUP3 ADD DUP1 SLOAD PUSH2 0x8D8 SWAP1 PUSH2 0x1147 JUMP JUMPDEST DUP1 PUSH1 0x1F ADD PUSH1 0x20 DUP1 SWAP2 DIV MUL PUSH1 0x20 ADD PUSH1 0x40 MLOAD SWAP1 DUP2 ADD PUSH1 0x40 MSTORE DUP1 SWAP3 SWAP2 SWAP1 DUP2 DUP2 MSTORE PUSH1 0x20 ADD DUP3 DUP1 SLOAD PUSH2 0x904 SWAP1 PUSH2 0x1147 JUMP JUMPDEST DUP1 ISZERO PUSH2 0x94F JUMPI DUP1 PUSH1 0x1F LT PUSH2 0x926 JUMPI PUSH2 0x100 DUP1 DUP4 SLOAD DIV MUL DUP4 MSTORE SWAP2 PUSH1 0x20 ADD SWAP2 PUSH2 0x94F JUMP JUMPDEST DUP3 ADD SWAP2 SWAP1 PUSH0 MSTORE PUSH1 0x20 PUSH0 KECCAK256 SWAP1 JUMPDEST DUP2 SLOAD DUP2 MSTORE SWAP1 PUSH1 0x1 ADD SWAP1 PUSH1 0x20 ADD DUP1 DUP4 GT PUSH2 0x932 JUMPI DUP3 SWAP1 SUB PUSH1 0x1F AND DUP3 ADD SWAP2 JUMPDEST POP POP POP POP POP DUP2 MSTORE PUSH1 0x20 ADD PUSH1 0x2 DUP3 ADD SLOAD DUP2 MSTORE POP POP SWAP1 POP DUP1 PUSH1 0x40 ADD DUP1 MLOAD DUP1 SWAP2 SWAP1 PUSH2 0x976 SWAP1 PUSH2 0x12C8 JUMP JUMPDEST DUP2 MSTORE POP POP PUSH1 0x1 DUP3 PUSH1 0x20 ADD SWAP1 ISZERO ISZERO SWAP1 DUP2 ISZERO ISZERO DUP2 MSTORE POP POP POP POP POP JUMP JUMPDEST PUSH1 0x1 PUSH1 0x3 PUSH0 DUP4 PUSH20 0xFFFFFFFFFFFFFFFFFFFFFFFFFFFFFFFFFFFFFFFF AND PUSH20 0xFFFFFFFFFFFFFFFFFFFFFFFFFFFFFFFFFFFFFFFF AND DUP2 MSTORE PUSH1 0x20 ADD SWAP1 DUP2 MSTORE PUSH1 0x20 ADD PUSH0 KECCAK256 PUSH0 PUSH2 0x100 EXP DUP2 SLOAD DUP2 PUSH1 0xFF MUL NOT AND SWAP1 DUP4 ISZERO ISZERO MUL OR SWAP1 SSTORE POP POP JUMP JUMPDEST PUSH2 0x9F0 PUSH2 0xA91 JUMP JUMPDEST PUSH0 PUSH20 0xFFFFFFFFFFFFFFFFFFFFFFFFFFFFFFFFFFFFFFFF AND DUP2 PUSH20 0xFFFFFFFFFFFFFFFFFFFFFFFFFFFFFFFFFFFFFFFF AND SUB PUSH2 0xA60 JUMPI PUSH0 PUSH1 0x40 MLOAD PUSH32 0x1E4FBDF700000000000000000000000000000000000000000000000000000000 DUP2 MSTORE PUSH1 0x4 ADD PUSH2 0xA57 SWAP2 SWAP1 PUSH2 0xF9F JUMP JUMPDEST PUSH1 0x40 MLOAD DUP1 SWAP2 SUB SWAP1 REVERT JUMPDEST PUSH2 0xA69 DUP2 PUSH2 0xB18 JUMP JUMPDEST POP JUMP JUMPDEST PUSH1 0x1 PUSH0 SWAP1 SLOAD SWAP1 PUSH2 0x100 EXP SWAP1 DIV PUSH20 0xFFFFFFFFFFFFFFFFFFFFFFFFFFFFFFFFFFFFFFFF AND DUP2 JUMP JUMPDEST PUSH2 0xA99 PUSH2 0xBD9 JUMP JUMPDEST PUSH20 0xFFFFFFFFFFFFFFFFFFFFFFFFFFFFFFFFFFFFFFFF AND PUSH2 0xAB7 PUSH2 0x72C JUMP JUMPDEST PUSH20 0xFFFFFFFFFFFFFFFFFFFFFFFFFFFFFFFFFFFFFFFF AND EQ PUSH2 0xB16 JUMPI PUSH2 0xADA PUSH2 0xBD9 JUMP JUMPDEST PUSH1 0x40 MLOAD PUSH32 0x118CDAA700000000000000000000000000000000000000000000000000000000 DUP2 MSTORE PUSH1 0x4 ADD PUSH2 0xB0D SWAP2 SWAP1 PUSH2 0xF9F JUMP JUMPDEST PUSH1 0x40 MLOAD DUP1 SWAP2 SUB SWAP1 REVERT JUMPDEST JUMP JUMPDEST PUSH0 PUSH0 PUSH0 SWAP1 SLOAD SWAP1 PUSH2 0x100 EXP SWAP1 DIV PUSH20 0xFFFFFFFFFFFFFFFFFFFFFFFFFFFFFFFFFFFFFFFF AND SWAP1 POP DUP2 PUSH0 PUSH0 PUSH2 0x100 EXP DUP2 SLOAD DUP2 PUSH20 0xFFFFFFFFFFFFFFFFFFFFFFFFFFFFFFFFFFFFFFFF MUL NOT AND SWAP1 DUP4 PUSH20 0xFFFFFFFFFFFFFFFFFFFFFFFFFFFFFFFFFFFFFFFF AND MUL OR SWAP1 SSTORE POP DUP2 PUSH20 0xFFFFFFFFFFFFFFFFFFFFFFFFFFFFFFFFFFFFFFFF AND DUP2 PUSH20 0xFFFFFFFFFFFFFFFFFFFFFFFFFFFFFFFFFFFFFFFF AND PUSH32 0x8BE0079C531659141344CD1FD0A4F28419497F9722A3DAAFE3B4186F6B6457E0 PUSH1 0x40 MLOAD PUSH1 0x40 MLOAD DUP1 SWAP2 SUB SWAP1 LOG3 POP POP JUMP JUMPDEST PUSH0 CALLER SWAP1 POP SWAP1 JUMP JUMPDEST PUSH1 0x40 MLOAD DUP1 PUSH1 0x60 ADD PUSH1 0x40 MSTORE DUP1 PUSH0 DUP2 MSTORE PUSH1 0x20 ADD PUSH1 0x60 DUP2 MSTORE PUSH1 0x20 ADD PUSH0 DUP2 MSTORE POP SWAP1 JUMP JUMPDEST PUSH0 PUSH1 0x40 MLOAD SWAP1 POP SWAP1 JUMP JUMPDEST PUSH0 PUSH0 REVERT JUMPDEST PUSH0 PUSH0 REVERT JUMPDEST PUSH0 DUP2 SWAP1 POP SWAP2 SWAP1 POP JUMP JUMPDEST PUSH2 0xC22 DUP2 PUSH2 0xC10 JUMP JUMPDEST DUP2 EQ PUSH2 0xC2C JUMPI PUSH0 PUSH0 REVERT JUMPDEST POP JUMP JUMPDEST PUSH0 DUP2 CALLDATALOAD SWAP1 POP PUSH2 0xC3D DUP2 PUSH2 0xC19 JUMP JUMPDEST SWAP3 SWAP2 POP POP JUMP JUMPDEST PUSH0 PUSH1 0x20 DUP3 DUP5 SUB SLT ISZERO PUSH2 0xC58 JUMPI PUSH2 0xC57 PUSH2 0xC08 JUMP JUMPDEST JUMPDEST PUSH0 PUSH2 0xC65 DUP5 DUP3 DUP6 ADD PUSH2 0xC2F JUMP JUMPDEST SWAP2 POP POP SWAP3 SWAP2 POP POP JUMP JUMPDEST PUSH2 0xC77 DUP2 PUSH2 0xC10 JUMP JUMPDEST DUP3 MSTORE POP POP JUMP JUMPDEST PUSH0 DUP2 MLOAD SWAP1 POP SWAP2 SWAP1 POP JUMP JUMPDEST PUSH0 DUP3 DUP3 MSTORE PUSH1 0x20 DUP3 ADD SWAP1 POP SWAP3 SWAP2 POP POP JUMP JUMPDEST DUP3 DUP2 DUP4 MCOPY PUSH0 DUP4 DUP4 ADD MSTORE POP POP POP JUMP JUMPDEST PUSH0 PUSH1 0x1F NOT PUSH1 0x1F DUP4 ADD AND SWAP1 POP SWAP2 SWAP1 POP JUMP JUMPDEST PUSH0 PUSH2 0xCBF DUP3 PUSH2 0xC7D JUMP JUMPDEST PUSH2 0xCC9 DUP2 DUP6 PUSH2 0xC87 JUMP JUMPDEST SWAP4 POP PUSH2 0xCD9 DUP2 DUP6 PUSH1 0x20 DUP7 ADD PUSH2 0xC97 JUMP JUMPDEST PUSH2 0xCE2 DUP2 PUSH2 0xCA5 JUMP JUMPDEST DUP5 ADD SWAP2 POP POP SWAP3 SWAP2 POP POP JUMP JUMPDEST PUSH0 PUSH1 0x60 DUP3 ADD SWAP1 POP PUSH2 0xD00 PUSH0 DUP4 ADD DUP7 PUSH2 0xC6E JUMP JUMPDEST DUP2 DUP2 SUB PUSH1 0x20 DUP4 ADD MSTORE PUSH2 0xD12 DUP2 DUP6 PUSH2 0xCB5 JUMP JUMPDEST SWAP1 POP PUSH2 0xD21 PUSH1 0x40 DUP4 ADD DUP5 PUSH2 0xC6E JUMP JUMPDEST SWAP5 SWAP4 POP POP POP POP JUMP JUMPDEST PUSH2 0xD32 DUP2 PUSH2 0xC10 JUMP JUMPDEST DUP3 MSTORE POP POP JUMP JUMPDEST PUSH0 DUP3 DUP3 MSTORE PUSH1 0x20 DUP3 ADD SWAP1 POP SWAP3 SWAP2 POP POP JUMP JUMPDEST PUSH0 PUSH2 0xD52 DUP3 PUSH2 0xC7D JUMP JUMPDEST PUSH2 0xD5C DUP2 DUP6 PUSH2 0xD38 JUMP JUMPDEST SWAP4 POP PUSH2 0xD6C DUP2 DUP6 PUSH1 0x20 DUP7 ADD PUSH2 0xC97 JUMP JUMPDEST PUSH2 0xD75 DUP2 PUSH2 0xCA5 JUMP JUMPDEST DUP5 ADD SWAP2 POP POP SWAP3 SWAP2 POP POP JUMP JUMPDEST PUSH0 PUSH1 0x60 DUP4 ADD PUSH0 DUP4 ADD MLOAD PUSH2 0xD95 PUSH0 DUP7 ADD DUP3 PUSH2 0xD29 JUMP JUMPDEST POP PUSH1 0x20 DUP4 ADD MLOAD DUP5 DUP3 SUB PUSH1 0x20 DUP7 ADD MSTORE PUSH2 0xDAD DUP3 DUP3 PUSH2 0xD48 JUMP JUMPDEST SWAP2 POP POP PUSH1 0x40 DUP4 ADD MLOAD PUSH2 0xDC2 PUSH1 0x40 DUP7 ADD DUP3 PUSH2 0xD29 JUMP JUMPDEST POP DUP1 SWAP2 POP POP SWAP3 SWAP2 POP POP JUMP JUMPDEST PUSH0 PUSH1 0x20 DUP3 ADD SWAP1 POP DUP2 DUP2 SUB PUSH0 DUP4 ADD MSTORE PUSH2 0xDE5 DUP2 DUP5 PUSH2 0xD80 JUMP JUMPDEST SWAP1 POP SWAP3 SWAP2 POP POP JUMP JUMPDEST PUSH0 PUSH0 REVERT JUMPDEST PUSH0 PUSH0 REVERT JUMPDEST PUSH32 0x4E487B7100000000000000000000000000000000000000000000000000000000 PUSH0 MSTORE PUSH1 0x41 PUSH1 0x4 MSTORE PUSH1 0x24 PUSH0 REVERT JUMPDEST PUSH2 0xE2B DUP3 PUSH2 0xCA5 JUMP JUMPDEST DUP2 ADD DUP2 DUP2 LT PUSH8 0xFFFFFFFFFFFFFFFF DUP3 GT OR ISZERO PUSH2 0xE4A JUMPI PUSH2 0xE49 PUSH2 0xDF5 JUMP JUMPDEST JUMPDEST DUP1 PUSH1 0x40 MSTORE POP POP POP JUMP JUMPDEST PUSH0 PUSH2 0xE5C PUSH2 0xBFF JUMP JUMPDEST SWAP1 POP PUSH2 0xE68 DUP3 DUP3 PUSH2 0xE22 JUMP JUMPDEST SWAP2 SWAP1 POP JUMP JUMPDEST PUSH0 PUSH8 0xFFFFFFFFFFFFFFFF DUP3 GT ISZERO PUSH2 0xE87 JUMPI PUSH2 0xE86 PUSH2 0xDF5 JUMP JUMPDEST JUMPDEST PUSH2 0xE90 DUP3 PUSH2 0xCA5 JUMP JUMPDEST SWAP1 POP PUSH1 0x20 DUP2 ADD SWAP1 POP SWAP2 SWAP1 POP JUMP JUMPDEST DUP3 DUP2 DUP4 CALLDATACOPY PUSH0 DUP4 DUP4 ADD MSTORE POP POP POP JUMP JUMPDEST PUSH0 PUSH2 0xEBD PUSH2 0xEB8 DUP5 PUSH2 0xE6D JUMP JUMPDEST PUSH2 0xE53 JUMP JUMPDEST SWAP1 POP DUP3 DUP2 MSTORE PUSH1 0x20 DUP2 ADD DUP5 DUP5 DUP5 ADD GT ISZERO PUSH2 0xED9 JUMPI PUSH2 0xED8 PUSH2 0xDF1 JUMP JUMPDEST JUMPDEST PUSH2 0xEE4 DUP5 DUP3 DUP6 PUSH2 0xE9D JUMP JUMPDEST POP SWAP4 SWAP3 POP POP POP JUMP JUMPDEST PUSH0 DUP3 PUSH1 0x1F DUP4 ADD SLT PUSH2 0xF00 JUMPI PUSH2 0xEFF PUSH2 0xDED JUMP JUMPDEST JUMPDEST DUP2 CALLDATALOAD PUSH2 0xF10 DUP5 DUP3 PUSH1 0x20 DUP7 ADD PUSH2 0xEAB JUMP JUMPDEST SWAP2 POP POP SWAP3 SWAP2 POP POP JUMP JUMPDEST PUSH0 PUSH1 0x20 DUP3 DUP5 SUB SLT ISZERO PUSH2 0xF2E JUMPI PUSH2 0xF2D PUSH2 0xC08 JUMP JUMPDEST JUMPDEST PUSH0 DUP3 ADD CALLDATALOAD PUSH8 0xFFFFFFFFFFFFFFFF DUP2 GT ISZERO PUSH2 0xF4B JUMPI PUSH2 0xF4A PUSH2 0xC0C JUMP JUMPDEST JUMPDEST PUSH2 0xF57 DUP5 DUP3 DUP6 ADD PUSH2 0xEEC JUMP JUMPDEST SWAP2 POP POP SWAP3 SWAP2 POP POP JUMP JUMPDEST PUSH0 PUSH20 0xFFFFFFFFFFFFFFFFFFFFFFFFFFFFFFFFFFFFFFFF DUP3 AND SWAP1 POP SWAP2 SWAP1 POP JUMP JUMPDEST PUSH0 PUSH2 0xF89 DUP3 PUSH2 0xF60 JUMP JUMPDEST SWAP1 POP SWAP2 SWAP1 POP JUMP JUMPDEST PUSH2 0xF99 DUP2 PUSH2 0xF7F JUMP JUMPDEST DUP3 MSTORE POP POP JUMP JUMPDEST PUSH0 PUSH1 0x20 DUP3 ADD SWAP1 POP PUSH2 0xFB2 PUSH0 DUP4 ADD DUP5 PUSH2 0xF90 JUMP JUMPDEST SWAP3 SWAP2 POP POP JUMP JUMPDEST PUSH2 0xFC1 DUP2 PUSH2 0xF7F JUMP JUMPDEST DUP2 EQ PUSH2 0xFCB JUMPI PUSH0 PUSH0 REVERT JUMPDEST POP JUMP JUMPDEST PUSH0 DUP2 CALLDATALOAD SWAP1 POP PUSH2 0xFDC DUP2 PUSH2 0xFB8 JUMP JUMPDEST SWAP3 SWAP2 POP POP JUMP JUMPDEST PUSH0 PUSH1 0x20 DUP3 DUP5 SUB SLT ISZERO PUSH2 0xFF7 JUMPI PUSH2 0xFF6 PUSH2 0xC08 JUMP JUMPDEST JUMPDEST PUSH0 PUSH2 0x1004 DUP5 DUP3 DUP6 ADD PUSH2 0xFCE JUMP JUMPDEST SWAP2 POP POP SWAP3 SWAP2 POP POP JUMP JUMPDEST PUSH0 DUP2 ISZERO ISZERO SWAP1 POP SWAP2 SWAP1 POP JUMP JUMPDEST PUSH2 0x1021 DUP2 PUSH2 0x100D JUMP JUMPDEST DUP3 MSTORE POP POP JUMP JUMPDEST PUSH0 PUSH1 0x20 DUP3 ADD SWAP1 POP PUSH2 0x103A PUSH0 DUP4 ADD DUP5 PUSH2 0x1018 JUMP JUMPDEST SWAP3 SWAP2 POP POP JUMP JUMPDEST PUSH32 0x4E487B7100000000000000000000000000000000000000000000000000000000 PUSH0 MSTORE PUSH1 0x21 PUSH1 0x4 MSTORE PUSH1 0x24 PUSH0 REVERT JUMPDEST PUSH1 0x6 DUP2 LT PUSH2 0x107E JUMPI PUSH2 0x107D PUSH2 0x1040 JUMP JUMPDEST JUMPDEST POP JUMP JUMPDEST PUSH0 DUP2 SWAP1 POP PUSH2 0x108E DUP3 PUSH2 0x106D JUMP JUMPDEST SWAP2 SWAP1 POP JUMP JUMPDEST PUSH0 PUSH2 0x109D DUP3 PUSH2 0x1081 JUMP JUMPDEST SWAP1 POP SWAP2 SWAP1 POP JUMP JUMPDEST PUSH2 0x10AD DUP2 PUSH2 0x1093 JUMP JUMPDEST DUP3 MSTORE POP POP JUMP JUMPDEST PUSH0 PUSH1 0x20 DUP3 ADD SWAP1 POP PUSH2 0x10C6 PUSH0 DUP4 ADD DUP5 PUSH2 0x10A4 JUMP JUMPDEST SWAP3 SWAP2 POP POP JUMP JUMPDEST PUSH0 PUSH1 0x60 DUP3 ADD SWAP1 POP PUSH2 0x10DF PUSH0 DUP4 ADD DUP7 PUSH2 0x1018 JUMP JUMPDEST PUSH2 0x10EC PUSH1 0x20 DUP4 ADD DUP6 PUSH2 0x1018 JUMP JUMPDEST PUSH2 0x10F9 PUSH1 0x40 DUP4 ADD DUP5 PUSH2 0xC6E JUMP JUMPDEST SWAP5 SWAP4 POP POP POP POP JUMP JUMPDEST PUSH0 PUSH1 0x20 DUP3 ADD SWAP1 POP PUSH2 0x1114 PUSH0 DUP4 ADD DUP5 PUSH2 0xC6E JUMP JUMPDEST SWAP3 SWAP2 POP POP JUMP JUMPDEST PUSH32 0x4E487B7100000000000000000000000000000000000000000000000000000000 PUSH0 MSTORE PUSH1 0x22 PUSH1 0x4 MSTORE PUSH1 0x24 PUSH0 REVERT JUMPDEST PUSH0 PUSH1 0x2 DUP3 DIV SWAP1 POP PUSH1 0x1 DUP3 AND DUP1 PUSH2 0x115E JUMPI PUSH1 0x7F DUP3 AND SWAP2 POP JUMPDEST PUSH1 0x20 DUP3 LT DUP2 SUB PUSH2 0x1171 JUMPI PUSH2 0x1170 PUSH2 0x111A JUMP JUMPDEST JUMPDEST POP SWAP2 SWAP1 POP JUMP JUMPDEST PUSH32 0x596F7520617265206E6F74207468652061646D696E0000000000000000000000 PUSH0 DUP3 ADD MSTORE POP JUMP JUMPDEST PUSH0 PUSH2 0x11AB PUSH1 0x15 DUP4 PUSH2 0xC87 JUMP JUMPDEST SWAP2 POP PUSH2 0x11B6 DUP3 PUSH2 0x1177 JUMP JUMPDEST PUSH1 0x20 DUP3 ADD SWAP1 POP SWAP2 SWAP1 POP JUMP JUMPDEST PUSH0 PUSH1 0x20 DUP3 ADD SWAP1 POP DUP2 DUP2 SUB PUSH0 DUP4 ADD MSTORE PUSH2 0x11D8 DUP2 PUSH2 0x119F JUMP JUMPDEST SWAP1 POP SWAP2 SWAP1 POP JUMP JUMPDEST PUSH0 PUSH1 0x40 DUP3 ADD SWAP1 POP PUSH2 0x11F2 PUSH0 DUP4 ADD DUP6 PUSH2 0x10A4 JUMP JUMPDEST PUSH2 0x11FF PUSH1 0x20 DUP4 ADD DUP5 PUSH2 0x10A4 JUMP JUMPDEST SWAP4 SWAP3 POP POP POP JUMP JUMPDEST PUSH32 0x4E487B7100000000000000000000000000000000000000000000000000000000 PUSH0 MSTORE PUSH1 0x32 PUSH1 0x4 MSTORE PUSH1 0x24 PUSH0 REVERT JUMPDEST PUSH32 0x726567697374726174696F6E20646964206E6F74207374617274656400000000 PUSH0 DUP3 ADD MSTORE POP JUMP JUMPDEST PUSH0 PUSH2 0x1267 PUSH1 0x1C DUP4 PUSH2 0xC87 JUMP JUMPDEST SWAP2 POP PUSH2 0x1272 DUP3 PUSH2 0x1233 JUMP JUMPDEST PUSH1 0x20 DUP3 ADD SWAP1 POP SWAP2 SWAP1 POP JUMP JUMPDEST PUSH0 PUSH1 0x20 DUP3 ADD SWAP1 POP DUP2 DUP2 SUB PUSH0 DUP4 ADD MSTORE PUSH2 0x1294 DUP2 PUSH2 0x125B JUMP JUMPDEST SWAP1 POP SWAP2 SWAP1 POP JUMP JUMPDEST PUSH32 0x4E487B7100000000000000000000000000000000000000000000000000000000 PUSH0 MSTORE PUSH1 0x11 PUSH1 0x4 MSTORE PUSH1 0x24 PUSH0 REVERT JUMPDEST PUSH0 PUSH2 0x12D2 DUP3 PUSH2 0xC10 JUMP JUMPDEST SWAP2 POP PUSH32 0xFFFFFFFFFFFFFFFFFFFFFFFFFFFFFFFFFFFFFFFFFFFFFFFFFFFFFFFFFFFFFFFF DUP3 SUB PUSH2 0x1304 JUMPI PUSH2 0x1303 PUSH2 0x129B JUMP JUMPDEST JUMPDEST PUSH1 0x1 DUP3 ADD SWAP1 POP SWAP2 SWAP1 POP JUMP JUMPDEST PUSH0 DUP2 SWAP1 POP DUP2 PUSH0 MSTORE PUSH1 0x20 PUSH0 KECCAK256 SWAP1 POP SWAP2 SWAP1 POP JUMP JUMPDEST PUSH0 PUSH1 0x20 PUSH1 0x1F DUP4 ADD DIV SWAP1 POP SWAP2 SWAP1 POP JUMP JUMPDEST PUSH0 DUP3 DUP3 SHL SWAP1 POP SWAP3 SWAP2 POP POP JUMP JUMPDEST PUSH0 PUSH1 0x8 DUP4 MUL PUSH2 0x136B PUSH32 0xFFFFFFFFFFFFFFFFFFFFFFFFFFFFFFFFFFFFFFFFFFFFFFFFFFFFFFFFFFFFFFFF DUP3 PUSH2 0x1330 JUMP JUMPDEST PUSH2 0x1375 DUP7 DUP4 PUSH2 0x1330 JUMP JUMPDEST SWAP6 POP DUP1 NOT DUP5 AND SWAP4 POP DUP1 DUP7 AND DUP5 OR SWAP3 POP POP POP SWAP4 SWAP3 POP POP POP JUMP JUMPDEST PUSH0 DUP2 SWAP1 POP SWAP2 SWAP1 POP JUMP JUMPDEST PUSH0 PUSH2 0x13B0 PUSH2 0x13AB PUSH2 0x13A6 DUP5 PUSH2 0xC10 JUMP JUMPDEST PUSH2 0x138D JUMP JUMPDEST PUSH2 0xC10 JUMP JUMPDEST SWAP1 POP SWAP2 SWAP1 POP JUMP JUMPDEST PUSH0 DUP2 SWAP1 POP SWAP2 SWAP1 POP JUMP JUMPDEST PUSH2 0x13C9 DUP4 PUSH2 0x1396 JUMP JUMPDEST PUSH2 0x13DD PUSH2 0x13D5 DUP3 PUSH2 0x13B7 JUMP JUMPDEST DUP5 DUP5 SLOAD PUSH2 0x133C JUMP JUMPDEST DUP3 SSTORE POP POP POP POP JUMP JUMPDEST PUSH0 PUSH0 SWAP1 POP SWAP1 JUMP JUMPDEST PUSH2 0x13F4 PUSH2 0x13E5 JUMP JUMPDEST PUSH2 0x13FF DUP2 DUP5 DUP5 PUSH2 0x13C0 JUMP JUMPDEST POP POP POP JUMP JUMPDEST JUMPDEST DUP2 DUP2 LT ISZERO PUSH2 0x1422 JUMPI PUSH2 0x1417 PUSH0 DUP3 PUSH2 0x13EC JUMP JUMPDEST PUSH1 0x1 DUP2 ADD SWAP1 POP PUSH2 0x1405 JUMP JUMPDEST POP POP JUMP JUMPDEST PUSH1 0x1F DUP3 GT ISZERO PUSH2 0x1467 JUMPI PUSH2 0x1438 DUP2 PUSH2 0x130F JUMP JUMPDEST PUSH2 0x1441 DUP5 PUSH2 0x1321 JUMP JUMPDEST DUP2 ADD PUSH1 0x20 DUP6 LT ISZERO PUSH2 0x1450 JUMPI DUP2 SWAP1 POP JUMPDEST PUSH2 0x1464 PUSH2 0x145C DUP6 PUSH2 0x1321 JUMP JUMPDEST DUP4 ADD DUP3 PUSH2 0x1404 JUMP JUMPDEST POP POP JUMPDEST POP POP POP JUMP JUMPDEST PUSH0 DUP3 DUP3 SHR SWAP1 POP SWAP3 SWAP2 POP POP JUMP JUMPDEST PUSH0 PUSH2 0x1487 PUSH0 NOT DUP5 PUSH1 0x8 MUL PUSH2 0x146C JUMP JUMPDEST NOT DUP1 DUP4 AND SWAP2 POP POP SWAP3 SWAP2 POP POP JUMP JUMPDEST PUSH0 PUSH2 0x149F DUP4 DUP4 PUSH2 0x1478 JUMP JUMPDEST SWAP2 POP DUP3 PUSH1 0x2 MUL DUP3 OR SWAP1 POP SWAP3 SWAP2 POP POP JUMP JUMPDEST PUSH2 0x14B8 DUP3 PUSH2 0xC7D JUMP JUMPDEST PUSH8 0xFFFFFFFFFFFFFFFF DUP2 GT ISZERO PUSH2 0x14D1 JUMPI PUSH2 0x14D0 PUSH2 0xDF5 JUMP JUMPDEST JUMPDEST PUSH2 0x14DB DUP3 SLOAD PUSH2 0x1147 JUMP JUMPDEST PUSH2 0x14E6 DUP3 DUP3 DUP6 PUSH2 0x1426 JUMP JUMPDEST PUSH0 PUSH1 0x20 SWAP1 POP PUSH1 0x1F DUP4 GT PUSH1 0x1 DUP2 EQ PUSH2 0x1517 JUMPI PUSH0 DUP5 ISZERO PUSH2 0x1505 JUMPI DUP3 DUP8 ADD MLOAD SWAP1 POP JUMPDEST PUSH2 0x150F DUP6 DUP3 PUSH2 0x1494 JUMP JUMPDEST DUP7 SSTORE POP PUSH2 0x1576 JUMP JUMPDEST PUSH1 0x1F NOT DUP5 AND PUSH2 0x1525 DUP7 PUSH2 0x130F JUMP JUMPDEST PUSH0 JUMPDEST DUP3 DUP2 LT ISZERO PUSH2 0x154C JUMPI DUP5 DUP10 ADD MLOAD DUP3 SSTORE PUSH1 0x1 DUP3 ADD SWAP2 POP PUSH1 0x20 DUP6 ADD SWAP5 POP PUSH1 0x20 DUP2 ADD SWAP1 POP PUSH2 0x1527 JUMP JUMPDEST DUP7 DUP4 LT ISZERO PUSH2 0x1569 JUMPI DUP5 DUP10 ADD MLOAD PUSH2 0x1565 PUSH1 0x1F DUP10 AND DUP3 PUSH2 0x1478 JUMP JUMPDEST DUP4 SSTORE POP JUMPDEST PUSH1 0x1 PUSH1 0x2 DUP9 MUL ADD DUP9 SSTORE POP POP POP JUMPDEST POP POP POP POP POP POP JUMP JUMPDEST PUSH32 0x646F20796F75206861766520616C726561647920766F74650000000000000000 PUSH0 DUP3 ADD MSTORE POP JUMP JUMPDEST PUSH0 PUSH2 0x15B2 PUSH1 0x18 DUP4 PUSH2 0xC87 JUMP JUMPDEST SWAP2 POP PUSH2 0x15BD DUP3 PUSH2 0x157E JUMP JUMPDEST PUSH1 0x20 DUP3 ADD SWAP1 POP SWAP2 SWAP1 POP JUMP JUMPDEST PUSH0 PUSH1 0x20 DUP3 ADD SWAP1 POP DUP2 DUP2 SUB PUSH0 DUP4 ADD MSTORE PUSH2 0x15DF DUP2 PUSH2 0x15A6 JUMP JUMPDEST SWAP1 POP SWAP2 SWAP1 POP JUMP INVALID LOG2 PUSH5 0x6970667358 0x22 SLT KECCAK256 0xDA DELEGATECALL 0x28 PUSH9 0xC5E98BE40555A91C8E DUP1 CODESIZE 0xBB BYTE 0xAC SHR SELFBALANCE SSTORE 0x1E PUSH11 0x23E5D3B3A2CD9636CB6473 PUSH16 0x6C634300081E00330000000000000000 "
				},
				"gasEstimates": {
					"creation": {
						"codeDepositCost": "1132000",
						"executionCost": "infinite",
						"totalCost": "infinite"
					},
					"external": {
						"addToWhitelist(address)": "24847",
						"admin()": "2596",
						"getMostVotedProposal()": "infinite",
						"owner()": "2581",
						"proposals(uint256)": "infinite",
						"registeringVoters()": "infinite",
						"renounceOwnership()": "infinite",
						"sendNewProposition(string)": "infinite",
						"sendVote(uint256)": "infinite",
						"transferOwnership(address)": "infinite",
						"voters(address)": "infinite",
						"whitelist(address)": "2922",
						"winningProposalId()": "2492",
						"workflowStatus()": "2577"
					}
				},
				"methodIdentifiers": {
					"addToWhitelist(address)": "e43252d7",
					"admin()": "f851a440",
					"getMostVotedProposal()": "4394ba21",
					"owner()": "8da5cb5b",
					"proposals(uint256)": "013cf08b",
					"registeringVoters()": "18633beb",
					"renounceOwnership()": "715018a6",
					"sendNewProposition(string)": "45bf58fd",
					"sendVote(uint256)": "c8f5714e",
					"transferOwnership(address)": "f2fde38b",
					"voters(address)": "a3ec138d",
					"whitelist(address)": "9b19251a",
					"winningProposalId()": "c64963c5",
					"workflowStatus()": "a1edffa2"
				}
			},
			"storageLayout": {
				"storage": [
					{
						"astId": 232,
						"contract": "contracts/11_Voting.sol:Voting",
						"label": "_owner",
						"offset": 0,
						"slot": "0",
						"type": "t_address"
					},
					{
						"astId": 6,
						"contract": "contracts/11_Voting.sol:Voting",
						"label": "admin",
						"offset": 0,
						"slot": "1",
						"type": "t_address"
					},
					{
						"astId": 21,
						"contract": "contracts/11_Voting.sol:Voting",
						"label": "winningProposalId",
						"offset": 0,
						"slot": "2",
						"type": "t_uint256"
					},
					{
						"astId": 25,
						"contract": "contracts/11_Voting.sol:Voting",
						"label": "whitelist",
						"offset": 0,
						"slot": "3",
						"type": "t_mapping(t_address,t_bool)"
					},
					{
						"astId": 27,
						"contract": "contracts/11_Voting.sol:Voting",
						"label": "nonce",
						"offset": 0,
						"slot": "4",
						"type": "t_uint256"
					},
					{
						"astId": 31,
						"contract": "contracts/11_Voting.sol:Voting",
						"label": "proposals",
						"offset": 0,
						"slot": "5",
						"type": "t_array(t_struct(Proposal)53_storage)dyn_storage"
					},
					{
						"astId": 36,
						"contract": "contracts/11_Voting.sol:Voting",
						"label": "voters",
						"offset": 0,
						"slot": "6",
						"type": "t_mapping(t_address,t_struct(Voter)46_storage)"
					},
					{
						"astId": 39,
						"contract": "contracts/11_Voting.sol:Voting",
						"label": "workflowStatus",
						"offset": 0,
						"slot": "7",
						"type": "t_enum(WorkflowStatus)60"
					}
				],
				"types": {
					"t_address": {
						"encoding": "inplace",
						"label": "address",
						"numberOfBytes": "20"
					},
					"t_array(t_struct(Proposal)53_storage)dyn_storage": {
						"base": "t_struct(Proposal)53_storage",
						"encoding": "dynamic_array",
						"label": "struct Voting.Proposal[]",
						"numberOfBytes": "32"
					},
					"t_bool": {
						"encoding": "inplace",
						"label": "bool",
						"numberOfBytes": "1"
					},
					"t_enum(WorkflowStatus)60": {
						"encoding": "inplace",
						"label": "enum Voting.WorkflowStatus",
						"numberOfBytes": "1"
					},
					"t_mapping(t_address,t_bool)": {
						"encoding": "mapping",
						"key": "t_address",
						"label": "mapping(address => bool)",
						"numberOfBytes": "32",
						"value": "t_bool"
					},
					"t_mapping(t_address,t_struct(Voter)46_storage)": {
						"encoding": "mapping",
						"key": "t_address",
						"label": "mapping(address => struct Voting.Voter)",
						"numberOfBytes": "32",
						"value": "t_struct(Voter)46_storage"
					},
					"t_string_storage": {
						"encoding": "bytes",
						"label": "string",
						"numberOfBytes": "32"
					},
					"t_struct(Proposal)53_storage": {
						"encoding": "inplace",
						"label": "struct Voting.Proposal",
						"members": [
							{
								"astId": 48,
								"contract": "contracts/11_Voting.sol:Voting",
								"label": "id",
								"offset": 0,
								"slot": "0",
								"type": "t_uint256"
							},
							{
								"astId": 50,
								"contract": "contracts/11_Voting.sol:Voting",
								"label": "description",
								"offset": 0,
								"slot": "1",
								"type": "t_string_storage"
							},
							{
								"astId": 52,
								"contract": "contracts/11_Voting.sol:Voting",
								"label": "voteCount",
								"offset": 0,
								"slot": "2",
								"type": "t_uint256"
							}
						],
						"numberOfBytes": "96"
					},
					"t_struct(Voter)46_storage": {
						"encoding": "inplace",
						"label": "struct Voting.Voter",
						"members": [
							{
								"astId": 41,
								"contract": "contracts/11_Voting.sol:Voting",
								"label": "isRegistered",
								"offset": 0,
								"slot": "0",
								"type": "t_bool"
							},
							{
								"astId": 43,
								"contract": "contracts/11_Voting.sol:Voting",
								"label": "hasVoted",
								"offset": 1,
								"slot": "0",
								"type": "t_bool"
							},
							{
								"astId": 45,
								"contract": "contracts/11_Voting.sol:Voting",
								"label": "voteProposalId",
								"offset": 0,
								"slot": "1",
								"type": "t_uint256"
							}
						],
						"numberOfBytes": "64"
					},
					"t_uint256": {
						"encoding": "inplace",
						"label": "uint256",
						"numberOfBytes": "32"
					}
				}
			},
			"userdoc": {
				"kind": "user",
				"methods": {},
				"version": 1
			}
		}
	}
}