{
	"contracts/11_Voting.sol": {
		"Voting": {
			"abi": [
				{
					"inputs": [],
					"stateMutability": "nonpayable",
					"type": "constructor"
				},
				{
					"inputs": [
						{
							"internalType": "address",
							"name": "owner",
							"type": "address"
						}
					],
					"name": "OwnableInvalidOwner",
					"type": "error"
				},
				{
					"inputs": [
						{
							"internalType": "address",
							"name": "account",
							"type": "address"
						}
					],
					"name": "OwnableUnauthorizedAccount",
					"type": "error"
				},
				{
					"anonymous": false,
					"inputs": [
						{
							"indexed": true,
							"internalType": "address",
							"name": "previousOwner",
							"type": "address"
						},
						{
							"indexed": true,
							"internalType": "address",
							"name": "newOwner",
							"type": "address"
						}
					],
					"name": "OwnershipTransferred",
					"type": "event"
				},
				{
					"anonymous": false,
					"inputs": [
						{
							"indexed": false,
							"internalType": "uint256",
							"name": "proposalId",
							"type": "uint256"
						}
					],
					"name": "ProposalRegistered",
					"type": "event"
				},
				{
					"anonymous": false,
					"inputs": [
						{
							"indexed": false,
							"internalType": "address",
							"name": "voter",
							"type": "address"
						},
						{
							"indexed": false,
							"internalType": "uint256",
							"name": "proposalId",
							"type": "uint256"
						}
					],
					"name": "Voted",
					"type": "event"
				},
				{
					"anonymous": false,
					"inputs": [
						{
							"indexed": false,
							"internalType": "address",
							"name": "voterAddress",
							"type": "address"
						}
					],
					"name": "VoterRegistered",
					"type": "event"
				},
				{
					"anonymous": false,
					"inputs": [
						{
							"indexed": false,
							"internalType": "enum Voting.WorkflowStatus",
							"name": "previousStatus",
							"type": "uint8"
						},
						{
							"indexed": false,
							"internalType": "enum Voting.WorkflowStatus",
							"name": "newStatus",
							"type": "uint8"
						}
					],
					"name": "WorkflowStatusChange",
					"type": "event"
				},
				{
					"inputs": [
						{
							"internalType": "address",
							"name": "_address",
							"type": "address"
						}
					],
					"name": "addToWhitelist",
					"outputs": [],
					"stateMutability": "payable",
					"type": "function"
				},
				{
					"inputs": [],
					"name": "admin",
					"outputs": [
						{
							"internalType": "address",
							"name": "",
							"type": "address"
						}
					],
					"stateMutability": "view",
					"type": "function"
				},
				{
					"inputs": [],
					"name": "computeMostVotedproposal",
					"outputs": [],
					"stateMutability": "nonpayable",
					"type": "function"
				},
				{
					"inputs": [],
					"name": "endProposalsRegistration",
					"outputs": [],
					"stateMutability": "nonpayable",
					"type": "function"
				},
				{
					"inputs": [],
					"name": "endVotingSession",
					"outputs": [],
					"stateMutability": "nonpayable",
					"type": "function"
				},
				{
					"inputs": [],
					"name": "getAllProposals",
					"outputs": [
						{
							"components": [
								{
									"internalType": "uint256",
									"name": "id",
									"type": "uint256"
								},
								{
									"internalType": "string",
									"name": "description",
									"type": "string"
								},
								{
									"internalType": "uint256",
									"name": "voteCount",
									"type": "uint256"
								}
							],
							"internalType": "struct Voting.Proposal[]",
							"name": "",
							"type": "tuple[]"
						}
					],
					"stateMutability": "view",
					"type": "function"
				},
				{
					"inputs": [],
					"name": "getMostVotedProposal",
					"outputs": [
						{
							"components": [
								{
									"internalType": "uint256",
									"name": "id",
									"type": "uint256"
								},
								{
									"internalType": "string",
									"name": "description",
									"type": "string"
								},
								{
									"internalType": "uint256",
									"name": "voteCount",
									"type": "uint256"
								}
							],
							"internalType": "struct Voting.Proposal",
							"name": "",
							"type": "tuple"
						}
					],
					"stateMutability": "view",
					"type": "function"
				},
				{
					"inputs": [
						{
							"internalType": "address",
							"name": "_address",
							"type": "address"
						}
					],
					"name": "isWhitelisted",
					"outputs": [
						{
							"internalType": "bool",
							"name": "",
							"type": "bool"
						}
					],
					"stateMutability": "view",
					"type": "function"
				},
				{
					"inputs": [],
					"name": "mostVoted",
					"outputs": [
						{
							"internalType": "uint256",
							"name": "id",
							"type": "uint256"
						},
						{
							"internalType": "string",
							"name": "description",
							"type": "string"
						},
						{
							"internalType": "uint256",
							"name": "voteCount",
							"type": "uint256"
						}
					],
					"stateMutability": "view",
					"type": "function"
				},
				{
					"inputs": [],
					"name": "owner",
					"outputs": [
						{
							"internalType": "address",
							"name": "",
							"type": "address"
						}
					],
					"stateMutability": "view",
					"type": "function"
				},
				{
					"inputs": [
						{
							"internalType": "uint256",
							"name": "",
							"type": "uint256"
						}
					],
					"name": "proposals",
					"outputs": [
						{
							"internalType": "uint256",
							"name": "id",
							"type": "uint256"
						},
						{
							"internalType": "string",
							"name": "description",
							"type": "string"
						},
						{
							"internalType": "uint256",
							"name": "voteCount",
							"type": "uint256"
						}
					],
					"stateMutability": "view",
					"type": "function"
				},
				{
					"inputs": [],
					"name": "renounceOwnership",
					"outputs": [],
					"stateMutability": "nonpayable",
					"type": "function"
				},
				{
					"inputs": [
						{
							"internalType": "string",
							"name": "_description",
							"type": "string"
						}
					],
					"name": "sendNewProposition",
					"outputs": [],
					"stateMutability": "payable",
					"type": "function"
				},
				{
					"inputs": [
						{
							"internalType": "uint256",
							"name": "_proposalId",
							"type": "uint256"
						}
					],
					"name": "sendVote",
					"outputs": [],
					"stateMutability": "payable",
					"type": "function"
				},
				{
					"inputs": [],
					"name": "startProposalsRegistration",
					"outputs": [],
					"stateMutability": "nonpayable",
					"type": "function"
				},
				{
					"inputs": [],
					"name": "startVotingSession",
					"outputs": [],
					"stateMutability": "nonpayable",
					"type": "function"
				},
				{
					"inputs": [
						{
							"internalType": "address",
							"name": "newOwner",
							"type": "address"
						}
					],
					"name": "transferOwnership",
					"outputs": [],
					"stateMutability": "nonpayable",
					"type": "function"
				},
				{
					"inputs": [
						{
							"internalType": "address",
							"name": "",
							"type": "address"
						}
					],
					"name": "voters",
					"outputs": [
						{
							"internalType": "bool",
							"name": "isRegistered",
							"type": "bool"
						},
						{
							"internalType": "bool",
							"name": "hasVoted",
							"type": "bool"
						},
						{
							"internalType": "uint256",
							"name": "voteProposalId",
							"type": "uint256"
						}
					],
					"stateMutability": "view",
					"type": "function"
				},
				{
					"inputs": [
						{
							"internalType": "address",
							"name": "",
							"type": "address"
						}
					],
					"name": "whitelist",
					"outputs": [
						{
							"internalType": "bool",
							"name": "",
							"type": "bool"
						}
					],
					"stateMutability": "view",
					"type": "function"
				},
				{
					"inputs": [],
					"name": "winningProposalId",
					"outputs": [
						{
							"internalType": "uint256",
							"name": "",
							"type": "uint256"
						}
					],
					"stateMutability": "view",
					"type": "function"
				},
				{
					"inputs": [],
					"name": "workflowStatus",
					"outputs": [
						{
							"internalType": "enum Voting.WorkflowStatus",
							"name": "",
							"type": "uint8"
						}
					],
					"stateMutability": "view",
					"type": "function"
				}
			],
			"devdoc": {
				"errors": {
					"OwnableInvalidOwner(address)": [
						{
							"details": "The owner is not a valid owner account. (eg. `address(0)`)"
						}
					],
					"OwnableUnauthorizedAccount(address)": [
						{
							"details": "The caller account is not authorized to perform an operation."
						}
					]
				},
				"kind": "dev",
				"methods": {
					"owner()": {
						"details": "Returns the address of the current owner."
					},
					"renounceOwnership()": {
						"details": "Leaves the contract without owner. It will not be possible to call `onlyOwner` functions. Can only be called by the current owner. NOTE: Renouncing ownership will leave the contract without an owner, thereby disabling any functionality that is only available to the owner."
					},
					"transferOwnership(address)": {
						"details": "Transfers ownership of the contract to a new account (`newOwner`). Can only be called by the current owner."
					}
				},
				"version": 1
			},
			"evm": {
				"assembly": "    /* \"contracts/11_Voting.sol\":165:4294  contract Voting is Ownable {... */\n  mstore(0x40, 0x80)\n    /* \"contracts/11_Voting.sol\":1134:1203  constructor() Ownable(msg.sender) {... */\n  callvalue\n  dup1\n  iszero\n  tag_1\n  jumpi\n  revert(0x00, 0x00)\ntag_1:\n  pop\n    /* \"contracts/11_Voting.sol\":1156:1166  msg.sender */\n  caller\n    /* \"https://github.com/OpenZeppelin/openzeppelin-contracts/blob/master/contracts/access/Ownable.sol\":1297:1298  0 */\n  0x00\n    /* \"https://github.com/OpenZeppelin/openzeppelin-contracts/blob/master/contracts/access/Ownable.sol\":1273:1299  initialOwner == address(0) */\n  0xffffffffffffffffffffffffffffffffffffffff\n  and\n    /* \"https://github.com/OpenZeppelin/openzeppelin-contracts/blob/master/contracts/access/Ownable.sol\":1273:1285  initialOwner */\n  dup2\n    /* \"https://github.com/OpenZeppelin/openzeppelin-contracts/blob/master/contracts/access/Ownable.sol\":1273:1299  initialOwner == address(0) */\n  0xffffffffffffffffffffffffffffffffffffffff\n  and\n  sub\n    /* \"https://github.com/OpenZeppelin/openzeppelin-contracts/blob/master/contracts/access/Ownable.sol\":1269:1364  if (initialOwner == address(0)) {... */\n  tag_5\n  jumpi\n    /* \"https://github.com/OpenZeppelin/openzeppelin-contracts/blob/master/contracts/access/Ownable.sol\":1350:1351  0 */\n  0x00\n    /* \"https://github.com/OpenZeppelin/openzeppelin-contracts/blob/master/contracts/access/Ownable.sol\":1322:1353  OwnableInvalidOwner(address(0)) */\n  mload(0x40)\n  0x1e4fbdf700000000000000000000000000000000000000000000000000000000\n  dup2\n  mstore\n  0x04\n  add\n  tag_6\n  swap2\n  swap1\n  tag_7\n  jump\t// in\ntag_6:\n  mload(0x40)\n  dup1\n  swap2\n  sub\n  swap1\n  revert\n    /* \"https://github.com/OpenZeppelin/openzeppelin-contracts/blob/master/contracts/access/Ownable.sol\":1269:1364  if (initialOwner == address(0)) {... */\ntag_5:\n    /* \"https://github.com/OpenZeppelin/openzeppelin-contracts/blob/master/contracts/access/Ownable.sol\":1373:1405  _transferOwnership(initialOwner) */\n  tag_8\n    /* \"https://github.com/OpenZeppelin/openzeppelin-contracts/blob/master/contracts/access/Ownable.sol\":1392:1404  initialOwner */\n  dup2\n    /* \"https://github.com/OpenZeppelin/openzeppelin-contracts/blob/master/contracts/access/Ownable.sol\":1373:1391  _transferOwnership */\n  shl(0x20, tag_9)\n    /* \"https://github.com/OpenZeppelin/openzeppelin-contracts/blob/master/contracts/access/Ownable.sol\":1373:1405  _transferOwnership(initialOwner) */\n  0x20\n  shr\n  jump\t// in\ntag_8:\n    /* \"https://github.com/OpenZeppelin/openzeppelin-contracts/blob/master/contracts/access/Ownable.sol\":1225:1412  constructor(address initialOwner) {... */\n  pop\n    /* \"contracts/11_Voting.sol\":1186:1196  msg.sender */\n  caller\n    /* \"contracts/11_Voting.sol\":1178:1183  admin */\n  0x01\n  0x00\n    /* \"contracts/11_Voting.sol\":1178:1196  admin = msg.sender */\n  0x0100\n  exp\n  dup2\n  sload\n  dup2\n  0xffffffffffffffffffffffffffffffffffffffff\n  mul\n  not\n  and\n  swap1\n  dup4\n  0xffffffffffffffffffffffffffffffffffffffff\n  and\n  mul\n  or\n  swap1\n  sstore\n  pop\n    /* \"contracts/11_Voting.sol\":165:4294  contract Voting is Ownable {... */\n  jump(tag_11)\n    /* \"https://github.com/OpenZeppelin/openzeppelin-contracts/blob/master/contracts/access/Ownable.sol\":2912:3099  function _transferOwnership(address newOwner) internal virtual {... */\ntag_9:\n    /* \"https://github.com/OpenZeppelin/openzeppelin-contracts/blob/master/contracts/access/Ownable.sol\":2985:3001  address oldOwner */\n  0x00\n    /* \"https://github.com/OpenZeppelin/openzeppelin-contracts/blob/master/contracts/access/Ownable.sol\":3004:3010  _owner */\n  0x00\n  0x00\n  swap1\n  sload\n  swap1\n  0x0100\n  exp\n  swap1\n  div\n  0xffffffffffffffffffffffffffffffffffffffff\n  and\n    /* \"https://github.com/OpenZeppelin/openzeppelin-contracts/blob/master/contracts/access/Ownable.sol\":2985:3010  address oldOwner = _owner */\n  swap1\n  pop\n    /* \"https://github.com/OpenZeppelin/openzeppelin-contracts/blob/master/contracts/access/Ownable.sol\":3029:3037  newOwner */\n  dup2\n    /* \"https://github.com/OpenZeppelin/openzeppelin-contracts/blob/master/contracts/access/Ownable.sol\":3020:3026  _owner */\n  0x00\n  0x00\n    /* \"https://github.com/OpenZeppelin/openzeppelin-contracts/blob/master/contracts/access/Ownable.sol\":3020:3037  _owner = newOwner */\n  0x0100\n  exp\n  dup2\n  sload\n  dup2\n  0xffffffffffffffffffffffffffffffffffffffff\n  mul\n  not\n  and\n  swap1\n  dup4\n  0xffffffffffffffffffffffffffffffffffffffff\n  and\n  mul\n  or\n  swap1\n  sstore\n  pop\n    /* \"https://github.com/OpenZeppelin/openzeppelin-contracts/blob/master/contracts/access/Ownable.sol\":3083:3091  newOwner */\n  dup2\n    /* \"https://github.com/OpenZeppelin/openzeppelin-contracts/blob/master/contracts/access/Ownable.sol\":3052:3092  OwnershipTransferred(oldOwner, newOwner) */\n  0xffffffffffffffffffffffffffffffffffffffff\n  and\n    /* \"https://github.com/OpenZeppelin/openzeppelin-contracts/blob/master/contracts/access/Ownable.sol\":3073:3081  oldOwner */\n  dup2\n    /* \"https://github.com/OpenZeppelin/openzeppelin-contracts/blob/master/contracts/access/Ownable.sol\":3052:3092  OwnershipTransferred(oldOwner, newOwner) */\n  0xffffffffffffffffffffffffffffffffffffffff\n  and\n  0x8be0079c531659141344cd1fd0a4f28419497f9722a3daafe3b4186f6b6457e0\n  mload(0x40)\n  mload(0x40)\n  dup1\n  swap2\n  sub\n  swap1\n  log3\n    /* \"https://github.com/OpenZeppelin/openzeppelin-contracts/blob/master/contracts/access/Ownable.sol\":2975:3099  {... */\n  pop\n    /* \"https://github.com/OpenZeppelin/openzeppelin-contracts/blob/master/contracts/access/Ownable.sol\":2912:3099  function _transferOwnership(address newOwner) internal virtual {... */\n  pop\n  jump\t// out\n    /* \"#utility.yul\":7:133   */\ntag_13:\n    /* \"#utility.yul\":44:51   */\n  0x00\n    /* \"#utility.yul\":84:126   */\n  0xffffffffffffffffffffffffffffffffffffffff\n    /* \"#utility.yul\":77:82   */\n  dup3\n    /* \"#utility.yul\":73:127   */\n  and\n    /* \"#utility.yul\":62:127   */\n  swap1\n  pop\n    /* \"#utility.yul\":7:133   */\n  swap2\n  swap1\n  pop\n  jump\t// out\n    /* \"#utility.yul\":139:235   */\ntag_14:\n    /* \"#utility.yul\":176:183   */\n  0x00\n    /* \"#utility.yul\":205:229   */\n  tag_19\n    /* \"#utility.yul\":223:228   */\n  dup3\n    /* \"#utility.yul\":205:229   */\n  tag_13\n  jump\t// in\ntag_19:\n    /* \"#utility.yul\":194:229   */\n  swap1\n  pop\n    /* \"#utility.yul\":139:235   */\n  swap2\n  swap1\n  pop\n  jump\t// out\n    /* \"#utility.yul\":241:359   */\ntag_15:\n    /* \"#utility.yul\":328:352   */\n  tag_21\n    /* \"#utility.yul\":346:351   */\n  dup2\n    /* \"#utility.yul\":328:352   */\n  tag_14\n  jump\t// in\ntag_21:\n    /* \"#utility.yul\":323:326   */\n  dup3\n    /* \"#utility.yul\":316:353   */\n  mstore\n    /* \"#utility.yul\":241:359   */\n  pop\n  pop\n  jump\t// out\n    /* \"#utility.yul\":365:587   */\ntag_7:\n    /* \"#utility.yul\":458:462   */\n  0x00\n    /* \"#utility.yul\":496:498   */\n  0x20\n    /* \"#utility.yul\":485:494   */\n  dup3\n    /* \"#utility.yul\":481:499   */\n  add\n    /* \"#utility.yul\":473:499   */\n  swap1\n  pop\n    /* \"#utility.yul\":509:580   */\n  tag_23\n    /* \"#utility.yul\":577:578   */\n  0x00\n    /* \"#utility.yul\":566:575   */\n  dup4\n    /* \"#utility.yul\":562:579   */\n  add\n    /* \"#utility.yul\":553:559   */\n  dup5\n    /* \"#utility.yul\":509:580   */\n  tag_15\n  jump\t// in\ntag_23:\n    /* \"#utility.yul\":365:587   */\n  swap3\n  swap2\n  pop\n  pop\n  jump\t// out\n    /* \"contracts/11_Voting.sol\":165:4294  contract Voting is Ownable {... */\ntag_11:\n  dataSize(sub_0)\n  dup1\n  dataOffset(sub_0)\n  0x00\n  codecopy\n  0x00\n  return\nstop\n\nsub_0: assembly {\n        /* \"contracts/11_Voting.sol\":165:4294  contract Voting is Ownable {... */\n      mstore(0x40, 0x80)\n      jumpi(tag_1, lt(calldatasize, 0x04))\n      shr(0xe0, calldataload(0x00))\n      dup1\n      0xa3ec138d\n      gt\n      tag_23\n      jumpi\n      dup1\n      0xcceb68f5\n      gt\n      tag_24\n      jumpi\n      dup1\n      0xcceb68f5\n      eq\n      tag_17\n      jumpi\n      dup1\n      0xe09b8c79\n      eq\n      tag_18\n      jumpi\n      dup1\n      0xe43252d7\n      eq\n      tag_19\n      jumpi\n      dup1\n      0xee74c678\n      eq\n      tag_20\n      jumpi\n      dup1\n      0xf2fde38b\n      eq\n      tag_21\n      jumpi\n      dup1\n      0xf851a440\n      eq\n      tag_22\n      jumpi\n      jump(tag_1)\n    tag_24:\n      dup1\n      0xa3ec138d\n      eq\n      tag_12\n      jumpi\n      dup1\n      0xa7bfab16\n      eq\n      tag_13\n      jumpi\n      dup1\n      0xc64963c5\n      eq\n      tag_14\n      jumpi\n      dup1\n      0xc8f5714e\n      eq\n      tag_15\n      jumpi\n      dup1\n      0xcc5a6668\n      eq\n      tag_16\n      jumpi\n      jump(tag_1)\n    tag_23:\n      dup1\n      0x715018a6\n      gt\n      tag_25\n      jumpi\n      dup1\n      0x715018a6\n      eq\n      tag_7\n      jumpi\n      dup1\n      0x781825d1\n      eq\n      tag_8\n      jumpi\n      dup1\n      0x8da5cb5b\n      eq\n      tag_9\n      jumpi\n      dup1\n      0x9b19251a\n      eq\n      tag_10\n      jumpi\n      dup1\n      0xa1edffa2\n      eq\n      tag_11\n      jumpi\n      jump(tag_1)\n    tag_25:\n      dup1\n      0x013cf08b\n      eq\n      tag_2\n      jumpi\n      dup1\n      0x3af32abf\n      eq\n      tag_3\n      jumpi\n      dup1\n      0x4394ba21\n      eq\n      tag_4\n      jumpi\n      dup1\n      0x45bf58fd\n      eq\n      tag_5\n      jumpi\n      dup1\n      0x6c297445\n      eq\n      tag_6\n      jumpi\n    tag_1:\n      revert(0x00, 0x00)\n        /* \"contracts/11_Voting.sol\":357:384  Proposal[] public proposals */\n    tag_2:\n      callvalue\n      dup1\n      iszero\n      tag_26\n      jumpi\n      revert(0x00, 0x00)\n    tag_26:\n      pop\n      tag_27\n      0x04\n      dup1\n      calldatasize\n      sub\n      dup2\n      add\n      swap1\n      tag_28\n      swap2\n      swap1\n      tag_29\n      jump\t// in\n    tag_28:\n      tag_30\n      jump\t// in\n    tag_27:\n      mload(0x40)\n      tag_31\n      swap4\n      swap3\n      swap2\n      swap1\n      tag_32\n      jump\t// in\n    tag_31:\n      mload(0x40)\n      dup1\n      swap2\n      sub\n      swap1\n      return\n        /* \"contracts/11_Voting.sol\":1422:1533  function isWhitelisted(address _address) public view returns (bool) {... */\n    tag_3:\n      callvalue\n      dup1\n      iszero\n      tag_33\n      jumpi\n      revert(0x00, 0x00)\n    tag_33:\n      pop\n      tag_34\n      0x04\n      dup1\n      calldatasize\n      sub\n      dup2\n      add\n      swap1\n      tag_35\n      swap2\n      swap1\n      tag_36\n      jump\t// in\n    tag_35:\n      tag_37\n      jump\t// in\n    tag_34:\n      mload(0x40)\n      tag_38\n      swap2\n      swap1\n      tag_39\n      jump\t// in\n    tag_38:\n      mload(0x40)\n      dup1\n      swap2\n      sub\n      swap1\n      return\n        /* \"contracts/11_Voting.sol\":4187:4291  function getMostVotedProposal() external view returns(Proposal memory) {... */\n    tag_4:\n      callvalue\n      dup1\n      iszero\n      tag_40\n      jumpi\n      revert(0x00, 0x00)\n    tag_40:\n      pop\n      tag_41\n      tag_42\n      jump\t// in\n    tag_41:\n      mload(0x40)\n      tag_43\n      swap2\n      swap1\n      tag_44\n      jump\t// in\n    tag_43:\n      mload(0x40)\n      dup1\n      swap2\n      sub\n      swap1\n      return\n        /* \"contracts/11_Voting.sol\":1791:2123  function sendNewProposition(string memory _description) public payable {... */\n    tag_5:\n      tag_45\n      0x04\n      dup1\n      calldatasize\n      sub\n      dup2\n      add\n      swap1\n      tag_46\n      swap2\n      swap1\n      tag_47\n      jump\t// in\n    tag_46:\n      tag_48\n      jump\t// in\n    tag_45:\n      stop\n        /* \"contracts/11_Voting.sol\":2240:2611  function endProposalsRegistration() public onlyOwner {... */\n    tag_6:\n      callvalue\n      dup1\n      iszero\n      tag_49\n      jumpi\n      revert(0x00, 0x00)\n    tag_49:\n      pop\n      tag_50\n      tag_51\n      jump\t// in\n    tag_50:\n      stop\n        /* \"https://github.com/OpenZeppelin/openzeppelin-contracts/blob/master/contracts/access/Ownable.sol\":2293:2394  function renounceOwnership() public virtual onlyOwner {... */\n    tag_7:\n      callvalue\n      dup1\n      iszero\n      tag_52\n      jumpi\n      revert(0x00, 0x00)\n    tag_52:\n      pop\n      tag_53\n      tag_54\n      jump\t// in\n    tag_53:\n      stop\n        /* \"contracts/11_Voting.sol\":326:351  Proposal public mostVoted */\n    tag_8:\n      callvalue\n      dup1\n      iszero\n      tag_55\n      jumpi\n      revert(0x00, 0x00)\n    tag_55:\n      pop\n      tag_56\n      tag_57\n      jump\t// in\n    tag_56:\n      mload(0x40)\n      tag_58\n      swap4\n      swap3\n      swap2\n      swap1\n      tag_32\n      jump\t// in\n    tag_58:\n      mload(0x40)\n      dup1\n      swap2\n      sub\n      swap1\n      return\n        /* \"https://github.com/OpenZeppelin/openzeppelin-contracts/blob/master/contracts/access/Ownable.sol\":1638:1723  function owner() public view virtual returns (address) {... */\n    tag_9:\n      callvalue\n      dup1\n      iszero\n      tag_59\n      jumpi\n      revert(0x00, 0x00)\n    tag_59:\n      pop\n      tag_60\n      tag_61\n      jump\t// in\n    tag_60:\n      mload(0x40)\n      tag_62\n      swap2\n      swap1\n      tag_63\n      jump\t// in\n    tag_62:\n      mload(0x40)\n      dup1\n      swap2\n      sub\n      swap1\n      return\n        /* \"contracts/11_Voting.sol\":390:431  mapping(address => bool) public whitelist */\n    tag_10:\n      callvalue\n      dup1\n      iszero\n      tag_64\n      jumpi\n      revert(0x00, 0x00)\n    tag_64:\n      pop\n      tag_65\n      0x04\n      dup1\n      calldatasize\n      sub\n      dup2\n      add\n      swap1\n      tag_66\n      swap2\n      swap1\n      tag_36\n      jump\t// in\n    tag_66:\n      tag_67\n      jump\t// in\n    tag_65:\n      mload(0x40)\n      tag_68\n      swap2\n      swap1\n      tag_39\n      jump\t// in\n    tag_68:\n      mload(0x40)\n      dup1\n      swap2\n      sub\n      swap1\n      return\n        /* \"contracts/11_Voting.sol\":284:320  WorkflowStatus public workflowStatus */\n    tag_11:\n      callvalue\n      dup1\n      iszero\n      tag_69\n      jumpi\n      revert(0x00, 0x00)\n    tag_69:\n      pop\n      tag_70\n      tag_71\n      jump\t// in\n    tag_70:\n      mload(0x40)\n      tag_72\n      swap2\n      swap1\n      tag_73\n      jump\t// in\n    tag_72:\n      mload(0x40)\n      dup1\n      swap2\n      sub\n      swap1\n      return\n        /* \"contracts/11_Voting.sol\":437:476  mapping(address => Voter) public voters */\n    tag_12:\n      callvalue\n      dup1\n      iszero\n      tag_74\n      jumpi\n      revert(0x00, 0x00)\n    tag_74:\n      pop\n      tag_75\n      0x04\n      dup1\n      calldatasize\n      sub\n      dup2\n      add\n      swap1\n      tag_76\n      swap2\n      swap1\n      tag_36\n      jump\t// in\n    tag_76:\n      tag_77\n      jump\t// in\n    tag_75:\n      mload(0x40)\n      tag_78\n      swap4\n      swap3\n      swap2\n      swap1\n      tag_79\n      jump\t// in\n    tag_78:\n      mload(0x40)\n      dup1\n      swap2\n      sub\n      swap1\n      return\n        /* \"contracts/11_Voting.sol\":2966:3287  function endVotingSession() public onlyOwner {... */\n    tag_13:\n      callvalue\n      dup1\n      iszero\n      tag_80\n      jumpi\n      revert(0x00, 0x00)\n    tag_80:\n      pop\n      tag_81\n      tag_82\n      jump\t// in\n    tag_81:\n      stop\n        /* \"contracts/11_Voting.sol\":225:254  uint public winningProposalId */\n    tag_14:\n      callvalue\n      dup1\n      iszero\n      tag_83\n      jumpi\n      revert(0x00, 0x00)\n    tag_83:\n      pop\n      tag_84\n      tag_85\n      jump\t// in\n    tag_84:\n      mload(0x40)\n      tag_86\n      swap2\n      swap1\n      tag_87\n      jump\t// in\n    tag_86:\n      mload(0x40)\n      dup1\n      swap2\n      sub\n      swap1\n      return\n        /* \"contracts/11_Voting.sol\":3297:3706  function sendVote(uint _proposalId) public payable {... */\n    tag_15:\n      tag_88\n      0x04\n      dup1\n      calldatasize\n      sub\n      dup2\n      add\n      swap1\n      tag_89\n      swap2\n      swap1\n      tag_29\n      jump\t// in\n    tag_89:\n      tag_90\n      jump\t// in\n    tag_88:\n      stop\n        /* \"contracts/11_Voting.sol\":3712:4181  function computeMostVotedproposal() public {... */\n    tag_16:\n      callvalue\n      dup1\n      iszero\n      tag_91\n      jumpi\n      revert(0x00, 0x00)\n    tag_91:\n      pop\n      tag_92\n      tag_93\n      jump\t// in\n    tag_92:\n      stop\n        /* \"contracts/11_Voting.sol\":2129:2230  function getAllProposals() external view returns(Proposal[] memory) {... */\n    tag_17:\n      callvalue\n      dup1\n      iszero\n      tag_94\n      jumpi\n      revert(0x00, 0x00)\n    tag_94:\n      pop\n      tag_95\n      tag_96\n      jump\t// in\n    tag_95:\n      mload(0x40)\n      tag_97\n      swap2\n      swap1\n      tag_98\n      jump\t// in\n    tag_97:\n      mload(0x40)\n      dup1\n      swap2\n      sub\n      swap1\n      return\n        /* \"contracts/11_Voting.sol\":1539:1785  function startProposalsRegistration() public onlyOwner {... */\n    tag_18:\n      callvalue\n      dup1\n      iszero\n      tag_99\n      jumpi\n      revert(0x00, 0x00)\n    tag_99:\n      pop\n      tag_100\n      tag_101\n      jump\t// in\n    tag_100:\n      stop\n        /* \"contracts/11_Voting.sol\":1209:1416  function addToWhitelist(address _address) public payable onlyOwner {... */\n    tag_19:\n      tag_102\n      0x04\n      dup1\n      calldatasize\n      sub\n      dup2\n      add\n      swap1\n      tag_103\n      swap2\n      swap1\n      tag_36\n      jump\t// in\n    tag_103:\n      tag_104\n      jump\t// in\n    tag_102:\n      stop\n        /* \"contracts/11_Voting.sol\":2617:2960  function startVotingSession() public onlyOwner {... */\n    tag_20:\n      callvalue\n      dup1\n      iszero\n      tag_105\n      jumpi\n      revert(0x00, 0x00)\n    tag_105:\n      pop\n      tag_106\n      tag_107\n      jump\t// in\n    tag_106:\n      stop\n        /* \"https://github.com/OpenZeppelin/openzeppelin-contracts/blob/master/contracts/access/Ownable.sol\":2543:2758  function transferOwnership(address newOwner) public virtual onlyOwner {... */\n    tag_21:\n      callvalue\n      dup1\n      iszero\n      tag_108\n      jumpi\n      revert(0x00, 0x00)\n    tag_108:\n      pop\n      tag_109\n      0x04\n      dup1\n      calldatasize\n      sub\n      dup2\n      add\n      swap1\n      tag_110\n      swap2\n      swap1\n      tag_36\n      jump\t// in\n    tag_110:\n      tag_111\n      jump\t// in\n    tag_109:\n      stop\n        /* \"contracts/11_Voting.sol\":199:219  address public admin */\n    tag_22:\n      callvalue\n      dup1\n      iszero\n      tag_112\n      jumpi\n      revert(0x00, 0x00)\n    tag_112:\n      pop\n      tag_113\n      tag_114\n      jump\t// in\n    tag_113:\n      mload(0x40)\n      tag_115\n      swap2\n      swap1\n      tag_63\n      jump\t// in\n    tag_115:\n      mload(0x40)\n      dup1\n      swap2\n      sub\n      swap1\n      return\n        /* \"contracts/11_Voting.sol\":357:384  Proposal[] public proposals */\n    tag_30:\n      0x08\n      dup2\n      dup2\n      sload\n      dup2\n      lt\n      tag_116\n      jumpi\n      0x00\n      dup1\n      revert\n    tag_116:\n      swap1\n      0x00\n      mstore\n      keccak256(0x00, 0x20)\n      swap1\n      0x03\n      mul\n      add\n      0x00\n      swap2\n      pop\n      swap1\n      pop\n      dup1\n      0x00\n      add\n      sload\n      swap1\n      dup1\n      0x01\n      add\n      dup1\n      sload\n      tag_118\n      swap1\n      tag_119\n      jump\t// in\n    tag_118:\n      dup1\n      0x1f\n      add\n      0x20\n      dup1\n      swap2\n      div\n      mul\n      0x20\n      add\n      mload(0x40)\n      swap1\n      dup2\n      add\n      0x40\n      mstore\n      dup1\n      swap3\n      swap2\n      swap1\n      dup2\n      dup2\n      mstore\n      0x20\n      add\n      dup3\n      dup1\n      sload\n      tag_120\n      swap1\n      tag_119\n      jump\t// in\n    tag_120:\n      dup1\n      iszero\n      tag_121\n      jumpi\n      dup1\n      0x1f\n      lt\n      tag_122\n      jumpi\n      0x0100\n      dup1\n      dup4\n      sload\n      div\n      mul\n      dup4\n      mstore\n      swap2\n      0x20\n      add\n      swap2\n      jump(tag_121)\n    tag_122:\n      dup3\n      add\n      swap2\n      swap1\n      0x00\n      mstore\n      keccak256(0x00, 0x20)\n      swap1\n    tag_123:\n      dup2\n      sload\n      dup2\n      mstore\n      swap1\n      0x01\n      add\n      swap1\n      0x20\n      add\n      dup1\n      dup4\n      gt\n      tag_123\n      jumpi\n      dup3\n      swap1\n      sub\n      0x1f\n      and\n      dup3\n      add\n      swap2\n    tag_121:\n      pop\n      pop\n      pop\n      pop\n      pop\n      swap1\n      dup1\n      0x02\n      add\n      sload\n      swap1\n      pop\n      dup4\n      jump\t// out\n        /* \"contracts/11_Voting.sol\":1422:1533  function isWhitelisted(address _address) public view returns (bool) {... */\n    tag_37:\n        /* \"contracts/11_Voting.sol\":1484:1488  bool */\n      0x00\n        /* \"contracts/11_Voting.sol\":1507:1516  whitelist */\n      0x09\n        /* \"contracts/11_Voting.sol\":1507:1526  whitelist[_address] */\n      0x00\n        /* \"contracts/11_Voting.sol\":1517:1525  _address */\n      dup4\n        /* \"contracts/11_Voting.sol\":1507:1526  whitelist[_address] */\n      0xffffffffffffffffffffffffffffffffffffffff\n      and\n      0xffffffffffffffffffffffffffffffffffffffff\n      and\n      dup2\n      mstore\n      0x20\n      add\n      swap1\n      dup2\n      mstore\n      0x20\n      add\n      0x00\n      keccak256\n      0x00\n      swap1\n      sload\n      swap1\n      0x0100\n      exp\n      swap1\n      div\n      0xff\n      and\n        /* \"contracts/11_Voting.sol\":1500:1526  return whitelist[_address] */\n      swap1\n      pop\n        /* \"contracts/11_Voting.sol\":1422:1533  function isWhitelisted(address _address) public view returns (bool) {... */\n      swap2\n      swap1\n      pop\n      jump\t// out\n        /* \"contracts/11_Voting.sol\":4187:4291  function getMostVotedProposal() external view returns(Proposal memory) {... */\n    tag_42:\n        /* \"contracts/11_Voting.sol\":4241:4256  Proposal memory */\n      tag_125\n      tag_126\n      jump\t// in\n    tag_125:\n        /* \"contracts/11_Voting.sol\":4275:4284  mostVoted */\n      0x05\n        /* \"contracts/11_Voting.sol\":4268:4284  return mostVoted */\n      mload(0x40)\n      dup1\n      0x60\n      add\n      0x40\n      mstore\n      swap1\n      dup2\n      0x00\n      dup3\n      add\n      sload\n      dup2\n      mstore\n      0x20\n      add\n      0x01\n      dup3\n      add\n      dup1\n      sload\n      tag_128\n      swap1\n      tag_119\n      jump\t// in\n    tag_128:\n      dup1\n      0x1f\n      add\n      0x20\n      dup1\n      swap2\n      div\n      mul\n      0x20\n      add\n      mload(0x40)\n      swap1\n      dup2\n      add\n      0x40\n      mstore\n      dup1\n      swap3\n      swap2\n      swap1\n      dup2\n      dup2\n      mstore\n      0x20\n      add\n      dup3\n      dup1\n      sload\n      tag_129\n      swap1\n      tag_119\n      jump\t// in\n    tag_129:\n      dup1\n      iszero\n      tag_130\n      jumpi\n      dup1\n      0x1f\n      lt\n      tag_131\n      jumpi\n      0x0100\n      dup1\n      dup4\n      sload\n      div\n      mul\n      dup4\n      mstore\n      swap2\n      0x20\n      add\n      swap2\n      jump(tag_130)\n    tag_131:\n      dup3\n      add\n      swap2\n      swap1\n      0x00\n      mstore\n      keccak256(0x00, 0x20)\n      swap1\n    tag_132:\n      dup2\n      sload\n      dup2\n      mstore\n      swap1\n      0x01\n      add\n      swap1\n      0x20\n      add\n      dup1\n      dup4\n      gt\n      tag_132\n      jumpi\n      dup3\n      swap1\n      sub\n      0x1f\n      and\n      dup3\n      add\n      swap2\n    tag_130:\n      pop\n      pop\n      pop\n      pop\n      pop\n      dup2\n      mstore\n      0x20\n      add\n      0x02\n      dup3\n      add\n      sload\n      dup2\n      mstore\n      pop\n      pop\n      swap1\n      pop\n        /* \"contracts/11_Voting.sol\":4187:4291  function getMostVotedProposal() external view returns(Proposal memory) {... */\n      swap1\n      jump\t// out\n        /* \"contracts/11_Voting.sol\":1791:2123  function sendNewProposition(string memory _description) public payable {... */\n    tag_48:\n        /* \"contracts/11_Voting.sol\":1898:1941  WorkflowStatus.ProposalsRegistrationStarted */\n      0x01\n        /* \"contracts/11_Voting.sol\":1880:1941  workflowStatus == WorkflowStatus.ProposalsRegistrationStarted */\n      0x05\n      dup2\n      gt\n      iszero\n      tag_134\n      jumpi\n      tag_135\n      tag_136\n      jump\t// in\n    tag_135:\n    tag_134:\n        /* \"contracts/11_Voting.sol\":1880:1894  workflowStatus */\n      0x04\n      0x00\n      swap1\n      sload\n      swap1\n      0x0100\n      exp\n      swap1\n      div\n      0xff\n      and\n        /* \"contracts/11_Voting.sol\":1880:1941  workflowStatus == WorkflowStatus.ProposalsRegistrationStarted */\n      0x05\n      dup2\n      gt\n      iszero\n      tag_137\n      jumpi\n      tag_138\n      tag_136\n      jump\t// in\n    tag_138:\n    tag_137:\n      eq\n        /* \"contracts/11_Voting.sol\":1872:1974  require(workflowStatus == WorkflowStatus.ProposalsRegistrationStarted, \"registration did not started\") */\n      tag_139\n      jumpi\n      mload(0x40)\n      0x08c379a000000000000000000000000000000000000000000000000000000000\n      dup2\n      mstore\n      0x04\n      add\n      tag_140\n      swap1\n      tag_141\n      jump\t// in\n    tag_140:\n      mload(0x40)\n      dup1\n      swap2\n      sub\n      swap1\n      revert\n    tag_139:\n        /* \"contracts/11_Voting.sol\":1992:2001  whitelist */\n      0x09\n        /* \"contracts/11_Voting.sol\":1992:2013  whitelist[msg.sender] */\n      0x00\n        /* \"contracts/11_Voting.sol\":2002:2012  msg.sender */\n      caller\n        /* \"contracts/11_Voting.sol\":1992:2013  whitelist[msg.sender] */\n      0xffffffffffffffffffffffffffffffffffffffff\n      and\n      0xffffffffffffffffffffffffffffffffffffffff\n      and\n      dup2\n      mstore\n      0x20\n      add\n      swap1\n      dup2\n      mstore\n      0x20\n      add\n      0x00\n      keccak256\n      0x00\n      swap1\n      sload\n      swap1\n      0x0100\n      exp\n      swap1\n      div\n      0xff\n      and\n        /* \"contracts/11_Voting.sol\":1984:2041  require(whitelist[msg.sender], \"You are not whitelisted\") */\n      tag_142\n      jumpi\n      mload(0x40)\n      0x08c379a000000000000000000000000000000000000000000000000000000000\n      dup2\n      mstore\n      0x04\n      add\n      tag_143\n      swap1\n      tag_144\n      jump\t// in\n    tag_143:\n      mload(0x40)\n      dup1\n      swap2\n      sub\n      swap1\n      revert\n    tag_142:\n        /* \"contracts/11_Voting.sol\":2051:2060  proposals */\n      0x08\n        /* \"contracts/11_Voting.sol\":2066:2098  Proposal(nonce, _description, 0) */\n      mload(0x40)\n      dup1\n      0x60\n      add\n      0x40\n      mstore\n      dup1\n        /* \"contracts/11_Voting.sol\":2075:2080  nonce */\n      sload(0x03)\n        /* \"contracts/11_Voting.sol\":2066:2098  Proposal(nonce, _description, 0) */\n      dup2\n      mstore\n      0x20\n      add\n        /* \"contracts/11_Voting.sol\":2082:2094  _description */\n      dup4\n        /* \"contracts/11_Voting.sol\":2066:2098  Proposal(nonce, _description, 0) */\n      dup2\n      mstore\n      0x20\n      add\n        /* \"contracts/11_Voting.sol\":2096:2097  0 */\n      0x00\n        /* \"contracts/11_Voting.sol\":2066:2098  Proposal(nonce, _description, 0) */\n      dup2\n      mstore\n      pop\n        /* \"contracts/11_Voting.sol\":2051:2099  proposals.push(Proposal(nonce, _description, 0)) */\n      swap1\n      dup1\n      0x01\n      dup2\n      sload\n      add\n      dup1\n      dup3\n      sstore\n      dup1\n      swap2\n      pop\n      pop\n      0x01\n      swap1\n      sub\n      swap1\n      0x00\n      mstore\n      keccak256(0x00, 0x20)\n      swap1\n      0x03\n      mul\n      add\n      0x00\n      swap1\n      swap2\n      swap1\n      swap2\n      swap1\n      swap2\n      pop\n      0x00\n      dup3\n      add\n      mload\n      dup2\n      0x00\n      add\n      sstore\n      0x20\n      dup3\n      add\n      mload\n      dup2\n      0x01\n      add\n      swap1\n      dup2\n      tag_146\n      swap2\n      swap1\n      tag_147\n      jump\t// in\n    tag_146:\n      pop\n      0x40\n      dup3\n      add\n      mload\n      dup2\n      0x02\n      add\n      sstore\n      pop\n      pop\n        /* \"contracts/11_Voting.sol\":2109:2114  nonce */\n      0x03\n      0x00\n        /* \"contracts/11_Voting.sol\":2109:2116  nonce++ */\n      dup2\n      sload\n      dup1\n      swap3\n      swap2\n      swap1\n      tag_148\n      swap1\n      tag_149\n      jump\t// in\n    tag_148:\n      swap2\n      swap1\n      pop\n      sstore\n      pop\n        /* \"contracts/11_Voting.sol\":1791:2123  function sendNewProposition(string memory _description) public payable {... */\n      pop\n      jump\t// out\n        /* \"contracts/11_Voting.sol\":2240:2611  function endProposalsRegistration() public onlyOwner {... */\n    tag_51:\n        /* \"https://github.com/OpenZeppelin/openzeppelin-contracts/blob/master/contracts/access/Ownable.sol\":1531:1544  _checkOwner() */\n      tag_151\n        /* \"https://github.com/OpenZeppelin/openzeppelin-contracts/blob/master/contracts/access/Ownable.sol\":1531:1542  _checkOwner */\n      tag_152\n        /* \"https://github.com/OpenZeppelin/openzeppelin-contracts/blob/master/contracts/access/Ownable.sol\":1531:1544  _checkOwner() */\n      jump\t// in\n    tag_151:\n        /* \"contracts/11_Voting.sol\":2330:2373  WorkflowStatus.ProposalsRegistrationStarted */\n      0x01\n        /* \"contracts/11_Voting.sol\":2312:2373  workflowStatus == WorkflowStatus.ProposalsRegistrationStarted */\n      0x05\n      dup2\n      gt\n      iszero\n      tag_154\n      jumpi\n      tag_155\n      tag_136\n      jump\t// in\n    tag_155:\n    tag_154:\n        /* \"contracts/11_Voting.sol\":2312:2326  workflowStatus */\n      0x04\n      0x00\n      swap1\n      sload\n      swap1\n      0x0100\n      exp\n      swap1\n      div\n      0xff\n      and\n        /* \"contracts/11_Voting.sol\":2312:2373  workflowStatus == WorkflowStatus.ProposalsRegistrationStarted */\n      0x05\n      dup2\n      gt\n      iszero\n      tag_156\n      jumpi\n      tag_157\n      tag_136\n      jump\t// in\n    tag_157:\n    tag_156:\n      eq\n        /* \"contracts/11_Voting.sol\":2303:2412  require (workflowStatus == WorkflowStatus.ProposalsRegistrationStarted, \"Proposals registration not started\") */\n      tag_158\n      jumpi\n      mload(0x40)\n      0x08c379a000000000000000000000000000000000000000000000000000000000\n      dup2\n      mstore\n      0x04\n      add\n      tag_159\n      swap1\n      tag_160\n      jump\t// in\n    tag_159:\n      mload(0x40)\n      dup1\n      swap2\n      sub\n      swap1\n      revert\n    tag_158:\n        /* \"contracts/11_Voting.sol\":2439:2480  WorkflowStatus.ProposalsRegistrationEnded */\n      0x02\n        /* \"contracts/11_Voting.sol\":2422:2436  workflowStatus */\n      0x04\n      0x00\n        /* \"contracts/11_Voting.sol\":2422:2480  workflowStatus = WorkflowStatus.ProposalsRegistrationEnded */\n      0x0100\n      exp\n      dup2\n      sload\n      dup2\n      0xff\n      mul\n      not\n      and\n      swap1\n      dup4\n      0x05\n      dup2\n      gt\n      iszero\n      tag_161\n      jumpi\n      tag_162\n      tag_136\n      jump\t// in\n    tag_162:\n    tag_161:\n      mul\n      or\n      swap1\n      sstore\n      pop\n        /* \"contracts/11_Voting.sol\":2495:2603  WorkflowStatusChange(WorkflowStatus.ProposalsRegistrationStarted, WorkflowStatus.ProposalsRegistrationEnded) */\n      0x0a97a4ee45751e2abf3e4fc8946939630b11b371ea8ae39ccdc3056e98f5cc3f\n        /* \"contracts/11_Voting.sol\":2516:2559  WorkflowStatus.ProposalsRegistrationStarted */\n      0x01\n        /* \"contracts/11_Voting.sol\":2561:2602  WorkflowStatus.ProposalsRegistrationEnded */\n      0x02\n        /* \"contracts/11_Voting.sol\":2495:2603  WorkflowStatusChange(WorkflowStatus.ProposalsRegistrationStarted, WorkflowStatus.ProposalsRegistrationEnded) */\n      mload(0x40)\n      tag_163\n      swap3\n      swap2\n      swap1\n      tag_164\n      jump\t// in\n    tag_163:\n      mload(0x40)\n      dup1\n      swap2\n      sub\n      swap1\n      log1\n        /* \"contracts/11_Voting.sol\":2240:2611  function endProposalsRegistration() public onlyOwner {... */\n      jump\t// out\n        /* \"https://github.com/OpenZeppelin/openzeppelin-contracts/blob/master/contracts/access/Ownable.sol\":2293:2394  function renounceOwnership() public virtual onlyOwner {... */\n    tag_54:\n        /* \"https://github.com/OpenZeppelin/openzeppelin-contracts/blob/master/contracts/access/Ownable.sol\":1531:1544  _checkOwner() */\n      tag_166\n        /* \"https://github.com/OpenZeppelin/openzeppelin-contracts/blob/master/contracts/access/Ownable.sol\":1531:1542  _checkOwner */\n      tag_152\n        /* \"https://github.com/OpenZeppelin/openzeppelin-contracts/blob/master/contracts/access/Ownable.sol\":1531:1544  _checkOwner() */\n      jump\t// in\n    tag_166:\n        /* \"https://github.com/OpenZeppelin/openzeppelin-contracts/blob/master/contracts/access/Ownable.sol\":2357:2387  _transferOwnership(address(0)) */\n      tag_168\n        /* \"https://github.com/OpenZeppelin/openzeppelin-contracts/blob/master/contracts/access/Ownable.sol\":2384:2385  0 */\n      0x00\n        /* \"https://github.com/OpenZeppelin/openzeppelin-contracts/blob/master/contracts/access/Ownable.sol\":2357:2375  _transferOwnership */\n      tag_169\n        /* \"https://github.com/OpenZeppelin/openzeppelin-contracts/blob/master/contracts/access/Ownable.sol\":2357:2387  _transferOwnership(address(0)) */\n      jump\t// in\n    tag_168:\n        /* \"https://github.com/OpenZeppelin/openzeppelin-contracts/blob/master/contracts/access/Ownable.sol\":2293:2394  function renounceOwnership() public virtual onlyOwner {... */\n      jump\t// out\n        /* \"contracts/11_Voting.sol\":326:351  Proposal public mostVoted */\n    tag_57:\n      0x05\n      dup1\n      0x00\n      add\n      sload\n      swap1\n      dup1\n      0x01\n      add\n      dup1\n      sload\n      tag_170\n      swap1\n      tag_119\n      jump\t// in\n    tag_170:\n      dup1\n      0x1f\n      add\n      0x20\n      dup1\n      swap2\n      div\n      mul\n      0x20\n      add\n      mload(0x40)\n      swap1\n      dup2\n      add\n      0x40\n      mstore\n      dup1\n      swap3\n      swap2\n      swap1\n      dup2\n      dup2\n      mstore\n      0x20\n      add\n      dup3\n      dup1\n      sload\n      tag_171\n      swap1\n      tag_119\n      jump\t// in\n    tag_171:\n      dup1\n      iszero\n      tag_172\n      jumpi\n      dup1\n      0x1f\n      lt\n      tag_173\n      jumpi\n      0x0100\n      dup1\n      dup4\n      sload\n      div\n      mul\n      dup4\n      mstore\n      swap2\n      0x20\n      add\n      swap2\n      jump(tag_172)\n    tag_173:\n      dup3\n      add\n      swap2\n      swap1\n      0x00\n      mstore\n      keccak256(0x00, 0x20)\n      swap1\n    tag_174:\n      dup2\n      sload\n      dup2\n      mstore\n      swap1\n      0x01\n      add\n      swap1\n      0x20\n      add\n      dup1\n      dup4\n      gt\n      tag_174\n      jumpi\n      dup3\n      swap1\n      sub\n      0x1f\n      and\n      dup3\n      add\n      swap2\n    tag_172:\n      pop\n      pop\n      pop\n      pop\n      pop\n      swap1\n      dup1\n      0x02\n      add\n      sload\n      swap1\n      pop\n      dup4\n      jump\t// out\n        /* \"https://github.com/OpenZeppelin/openzeppelin-contracts/blob/master/contracts/access/Ownable.sol\":1638:1723  function owner() public view virtual returns (address) {... */\n    tag_61:\n        /* \"https://github.com/OpenZeppelin/openzeppelin-contracts/blob/master/contracts/access/Ownable.sol\":1684:1691  address */\n      0x00\n        /* \"https://github.com/OpenZeppelin/openzeppelin-contracts/blob/master/contracts/access/Ownable.sol\":1710:1716  _owner */\n      0x00\n      0x00\n      swap1\n      sload\n      swap1\n      0x0100\n      exp\n      swap1\n      div\n      0xffffffffffffffffffffffffffffffffffffffff\n      and\n        /* \"https://github.com/OpenZeppelin/openzeppelin-contracts/blob/master/contracts/access/Ownable.sol\":1703:1716  return _owner */\n      swap1\n      pop\n        /* \"https://github.com/OpenZeppelin/openzeppelin-contracts/blob/master/contracts/access/Ownable.sol\":1638:1723  function owner() public view virtual returns (address) {... */\n      swap1\n      jump\t// out\n        /* \"contracts/11_Voting.sol\":390:431  mapping(address => bool) public whitelist */\n    tag_67:\n      mstore(0x20, 0x09)\n      dup1\n      0x00\n      mstore\n      keccak256(0x00, 0x40)\n      0x00\n      swap2\n      pop\n      sload\n      swap1\n      0x0100\n      exp\n      swap1\n      div\n      0xff\n      and\n      dup2\n      jump\t// out\n        /* \"contracts/11_Voting.sol\":284:320  WorkflowStatus public workflowStatus */\n    tag_71:\n      0x04\n      0x00\n      swap1\n      sload\n      swap1\n      0x0100\n      exp\n      swap1\n      div\n      0xff\n      and\n      dup2\n      jump\t// out\n        /* \"contracts/11_Voting.sol\":437:476  mapping(address => Voter) public voters */\n    tag_77:\n      mstore(0x20, 0x0a)\n      dup1\n      0x00\n      mstore\n      keccak256(0x00, 0x40)\n      0x00\n      swap2\n      pop\n      swap1\n      pop\n      dup1\n      0x00\n      add\n      0x00\n      swap1\n      sload\n      swap1\n      0x0100\n      exp\n      swap1\n      div\n      0xff\n      and\n      swap1\n      dup1\n      0x00\n      add\n      0x01\n      swap1\n      sload\n      swap1\n      0x0100\n      exp\n      swap1\n      div\n      0xff\n      and\n      swap1\n      dup1\n      0x01\n      add\n      sload\n      swap1\n      pop\n      dup4\n      jump\t// out\n        /* \"contracts/11_Voting.sol\":2966:3287  function endVotingSession() public onlyOwner {... */\n    tag_82:\n        /* \"https://github.com/OpenZeppelin/openzeppelin-contracts/blob/master/contracts/access/Ownable.sol\":1531:1544  _checkOwner() */\n      tag_177\n        /* \"https://github.com/OpenZeppelin/openzeppelin-contracts/blob/master/contracts/access/Ownable.sol\":1531:1542  _checkOwner */\n      tag_152\n        /* \"https://github.com/OpenZeppelin/openzeppelin-contracts/blob/master/contracts/access/Ownable.sol\":1531:1544  _checkOwner() */\n      jump\t// in\n    tag_177:\n        /* \"contracts/11_Voting.sol\":3047:3082  WorkflowStatus.VotingSessionStarted */\n      0x03\n        /* \"contracts/11_Voting.sol\":3029:3082  workflowStatus == WorkflowStatus.VotingSessionStarted */\n      0x05\n      dup2\n      gt\n      iszero\n      tag_179\n      jumpi\n      tag_180\n      tag_136\n      jump\t// in\n    tag_180:\n    tag_179:\n        /* \"contracts/11_Voting.sol\":3029:3043  workflowStatus */\n      0x04\n      0x00\n      swap1\n      sload\n      swap1\n      0x0100\n      exp\n      swap1\n      div\n      0xff\n      and\n        /* \"contracts/11_Voting.sol\":3029:3082  workflowStatus == WorkflowStatus.VotingSessionStarted */\n      0x05\n      dup2\n      gt\n      iszero\n      tag_181\n      jumpi\n      tag_182\n      tag_136\n      jump\t// in\n    tag_182:\n    tag_181:\n      eq\n        /* \"contracts/11_Voting.sol\":3021:3113  require(workflowStatus == WorkflowStatus.VotingSessionStarted, \"Voting session not started\") */\n      tag_183\n      jumpi\n      mload(0x40)\n      0x08c379a000000000000000000000000000000000000000000000000000000000\n      dup2\n      mstore\n      0x04\n      add\n      tag_184\n      swap1\n      tag_185\n      jump\t// in\n    tag_184:\n      mload(0x40)\n      dup1\n      swap2\n      sub\n      swap1\n      revert\n    tag_183:\n        /* \"contracts/11_Voting.sol\":3140:3173  WorkflowStatus.VotingSessionEnded */\n      0x04\n        /* \"contracts/11_Voting.sol\":3123:3137  workflowStatus */\n      dup1\n      0x00\n        /* \"contracts/11_Voting.sol\":3123:3173  workflowStatus = WorkflowStatus.VotingSessionEnded */\n      0x0100\n      exp\n      dup2\n      sload\n      dup2\n      0xff\n      mul\n      not\n      and\n      swap1\n      dup4\n      0x05\n      dup2\n      gt\n      iszero\n      tag_186\n      jumpi\n      tag_187\n      tag_136\n      jump\t// in\n    tag_187:\n    tag_186:\n      mul\n      or\n      swap1\n      sstore\n      pop\n        /* \"contracts/11_Voting.sol\":3188:3280  WorkflowStatusChange(WorkflowStatus.VotingSessionStarted, WorkflowStatus.VotingSessionEnded) */\n      0x0a97a4ee45751e2abf3e4fc8946939630b11b371ea8ae39ccdc3056e98f5cc3f\n        /* \"contracts/11_Voting.sol\":3209:3244  WorkflowStatus.VotingSessionStarted */\n      0x03\n        /* \"contracts/11_Voting.sol\":3246:3279  WorkflowStatus.VotingSessionEnded */\n      0x04\n        /* \"contracts/11_Voting.sol\":3188:3280  WorkflowStatusChange(WorkflowStatus.VotingSessionStarted, WorkflowStatus.VotingSessionEnded) */\n      mload(0x40)\n      tag_188\n      swap3\n      swap2\n      swap1\n      tag_164\n      jump\t// in\n    tag_188:\n      mload(0x40)\n      dup1\n      swap2\n      sub\n      swap1\n      log1\n        /* \"contracts/11_Voting.sol\":2966:3287  function endVotingSession() public onlyOwner {... */\n      jump\t// out\n        /* \"contracts/11_Voting.sol\":225:254  uint public winningProposalId */\n    tag_85:\n      sload(0x02)\n      dup2\n      jump\t// out\n        /* \"contracts/11_Voting.sol\":3297:3706  function sendVote(uint _proposalId) public payable {... */\n    tag_90:\n        /* \"contracts/11_Voting.sol\":3384:3419  WorkflowStatus.VotingSessionStarted */\n      0x03\n        /* \"contracts/11_Voting.sol\":3366:3419  workflowStatus == WorkflowStatus.VotingSessionStarted */\n      0x05\n      dup2\n      gt\n      iszero\n      tag_190\n      jumpi\n      tag_191\n      tag_136\n      jump\t// in\n    tag_191:\n    tag_190:\n        /* \"contracts/11_Voting.sol\":3366:3380  workflowStatus */\n      0x04\n      0x00\n      swap1\n      sload\n      swap1\n      0x0100\n      exp\n      swap1\n      div\n      0xff\n      and\n        /* \"contracts/11_Voting.sol\":3366:3419  workflowStatus == WorkflowStatus.VotingSessionStarted */\n      0x05\n      dup2\n      gt\n      iszero\n      tag_192\n      jumpi\n      tag_193\n      tag_136\n      jump\t// in\n    tag_193:\n    tag_192:\n      eq\n        /* \"contracts/11_Voting.sol\":3358:3452  require(workflowStatus == WorkflowStatus.VotingSessionStarted, \"registration did not started\") */\n      tag_194\n      jumpi\n      mload(0x40)\n      0x08c379a000000000000000000000000000000000000000000000000000000000\n      dup2\n      mstore\n      0x04\n      add\n      tag_195\n      swap1\n      tag_141\n      jump\t// in\n    tag_195:\n      mload(0x40)\n      dup1\n      swap2\n      sub\n      swap1\n      revert\n    tag_194:\n        /* \"contracts/11_Voting.sol\":3462:3477  Voter storage v */\n      0x00\n        /* \"contracts/11_Voting.sol\":3480:3486  voters */\n      0x0a\n        /* \"contracts/11_Voting.sol\":3480:3498  voters[msg.sender] */\n      0x00\n        /* \"contracts/11_Voting.sol\":3487:3497  msg.sender */\n      caller\n        /* \"contracts/11_Voting.sol\":3480:3498  voters[msg.sender] */\n      0xffffffffffffffffffffffffffffffffffffffff\n      and\n      0xffffffffffffffffffffffffffffffffffffffff\n      and\n      dup2\n      mstore\n      0x20\n      add\n      swap1\n      dup2\n      mstore\n      0x20\n      add\n      0x00\n      keccak256\n        /* \"contracts/11_Voting.sol\":3462:3498  Voter storage v = voters[msg.sender] */\n      swap1\n      pop\n        /* \"contracts/11_Voting.sol\":3517:3518  v */\n      dup1\n        /* \"contracts/11_Voting.sol\":3517:3527  v.hasVoted */\n      0x00\n      add\n      0x01\n      swap1\n      sload\n      swap1\n      0x0100\n      exp\n      swap1\n      div\n      0xff\n      and\n        /* \"contracts/11_Voting.sol\":3516:3527  !v.hasVoted */\n      iszero\n        /* \"contracts/11_Voting.sol\":3508:3556  require(!v.hasVoted, \"do you have already vote\") */\n      tag_196\n      jumpi\n      mload(0x40)\n      0x08c379a000000000000000000000000000000000000000000000000000000000\n      dup2\n      mstore\n      0x04\n      add\n      tag_197\n      swap1\n      tag_198\n      jump\t// in\n    tag_197:\n      mload(0x40)\n      dup1\n      swap2\n      sub\n      swap1\n      revert\n    tag_196:\n        /* \"contracts/11_Voting.sol\":3566:3584  Proposal storage p */\n      0x00\n        /* \"contracts/11_Voting.sol\":3587:3596  proposals */\n      0x08\n        /* \"contracts/11_Voting.sol\":3597:3608  _proposalId */\n      dup4\n        /* \"contracts/11_Voting.sol\":3587:3609  proposals[_proposalId] */\n      dup2\n      sload\n      dup2\n      lt\n      tag_199\n      jumpi\n      tag_200\n      tag_201\n      jump\t// in\n    tag_200:\n    tag_199:\n      swap1\n      0x00\n      mstore\n      keccak256(0x00, 0x20)\n      swap1\n      0x03\n      mul\n      add\n        /* \"contracts/11_Voting.sol\":3566:3609  Proposal storage p = proposals[_proposalId] */\n      swap1\n      pop\n        /* \"contracts/11_Voting.sol\":3619:3620  p */\n      dup1\n        /* \"contracts/11_Voting.sol\":3619:3630  p.voteCount */\n      0x02\n      add\n      0x00\n        /* \"contracts/11_Voting.sol\":3619:3632  p.voteCount++ */\n      dup2\n      sload\n      dup1\n      swap3\n      swap2\n      swap1\n      tag_203\n      swap1\n      tag_149\n      jump\t// in\n    tag_203:\n      swap2\n      swap1\n      pop\n      sstore\n      pop\n        /* \"contracts/11_Voting.sol\":3655:3659  true */\n      0x01\n        /* \"contracts/11_Voting.sol\":3642:3643  v */\n      dup3\n        /* \"contracts/11_Voting.sol\":3642:3652  v.hasVoted */\n      0x00\n      add\n      0x01\n        /* \"contracts/11_Voting.sol\":3642:3659  v.hasVoted = true */\n      0x0100\n      exp\n      dup2\n      sload\n      dup2\n      0xff\n      mul\n      not\n      and\n      swap1\n      dup4\n      iszero\n      iszero\n      mul\n      or\n      swap1\n      sstore\n      pop\n        /* \"contracts/11_Voting.sol\":3688:3699  _proposalId */\n      dup3\n        /* \"contracts/11_Voting.sol\":3669:3670  v */\n      dup3\n        /* \"contracts/11_Voting.sol\":3669:3685  v.voteProposalId */\n      0x01\n      add\n        /* \"contracts/11_Voting.sol\":3669:3699  v.voteProposalId = _proposalId */\n      dup2\n      swap1\n      sstore\n      pop\n        /* \"contracts/11_Voting.sol\":3348:3706  {... */\n      pop\n      pop\n        /* \"contracts/11_Voting.sol\":3297:3706  function sendVote(uint _proposalId) public payable {... */\n      pop\n      jump\t// out\n        /* \"contracts/11_Voting.sol\":3712:4181  function computeMostVotedproposal() public {... */\n    tag_93:\n        /* \"contracts/11_Voting.sol\":3791:3824  WorkflowStatus.VotingSessionEnded */\n      0x04\n        /* \"contracts/11_Voting.sol\":3773:3824  workflowStatus == WorkflowStatus.VotingSessionEnded */\n      0x05\n      dup2\n      gt\n      iszero\n      tag_205\n      jumpi\n      tag_206\n      tag_136\n      jump\t// in\n    tag_206:\n    tag_205:\n        /* \"contracts/11_Voting.sol\":3773:3787  workflowStatus */\n      0x04\n      0x00\n      swap1\n      sload\n      swap1\n      0x0100\n      exp\n      swap1\n      div\n      0xff\n      and\n        /* \"contracts/11_Voting.sol\":3773:3824  workflowStatus == WorkflowStatus.VotingSessionEnded */\n      0x05\n      dup2\n      gt\n      iszero\n      tag_207\n      jumpi\n      tag_208\n      tag_136\n      jump\t// in\n    tag_208:\n    tag_207:\n      eq\n        /* \"contracts/11_Voting.sol\":3765:3853  require(workflowStatus == WorkflowStatus.VotingSessionEnded, \"Voting session not ended\") */\n      tag_209\n      jumpi\n      mload(0x40)\n      0x08c379a000000000000000000000000000000000000000000000000000000000\n      dup2\n      mstore\n      0x04\n      add\n      tag_210\n      swap1\n      tag_211\n      jump\t// in\n    tag_210:\n      mload(0x40)\n      dup1\n      swap2\n      sub\n      swap1\n      revert\n    tag_209:\n        /* \"contracts/11_Voting.sol\":3880:3907  WorkflowStatus.VotesTallied */\n      0x05\n        /* \"contracts/11_Voting.sol\":3863:3877  workflowStatus */\n      0x04\n      0x00\n        /* \"contracts/11_Voting.sol\":3863:3907  workflowStatus = WorkflowStatus.VotesTallied */\n      0x0100\n      exp\n      dup2\n      sload\n      dup2\n      0xff\n      mul\n      not\n      and\n      swap1\n      dup4\n      0x05\n      dup2\n      gt\n      iszero\n      tag_212\n      jumpi\n      tag_213\n      tag_136\n      jump\t// in\n    tag_213:\n    tag_212:\n      mul\n      or\n      swap1\n      sstore\n      pop\n        /* \"contracts/11_Voting.sol\":3922:3928  uint i */\n      0x00\n        /* \"contracts/11_Voting.sol\":3931:3932  0 */\n      0x00\n        /* \"contracts/11_Voting.sol\":3922:3932  uint i = 0 */\n      swap1\n      pop\n        /* \"contracts/11_Voting.sol\":3917:4076  for (uint i = 0; i < proposals.length; i++) {... */\n    tag_214:\n        /* \"contracts/11_Voting.sol\":3938:3947  proposals */\n      0x08\n        /* \"contracts/11_Voting.sol\":3938:3954  proposals.length */\n      dup1\n      sload\n      swap1\n      pop\n        /* \"contracts/11_Voting.sol\":3934:3935  i */\n      dup2\n        /* \"contracts/11_Voting.sol\":3934:3954  i < proposals.length */\n      lt\n        /* \"contracts/11_Voting.sol\":3917:4076  for (uint i = 0; i < proposals.length; i++) {... */\n      iszero\n      tag_215\n      jumpi\n        /* \"contracts/11_Voting.sol\":4004:4013  mostVoted */\n      0x05\n        /* \"contracts/11_Voting.sol\":4004:4023  mostVoted.voteCount */\n      0x02\n      add\n      sload\n        /* \"contracts/11_Voting.sol\":3979:3988  proposals */\n      0x08\n        /* \"contracts/11_Voting.sol\":3989:3990  i */\n      dup3\n        /* \"contracts/11_Voting.sol\":3979:3991  proposals[i] */\n      dup2\n      sload\n      dup2\n      lt\n      tag_217\n      jumpi\n      tag_218\n      tag_201\n      jump\t// in\n    tag_218:\n    tag_217:\n      swap1\n      0x00\n      mstore\n      keccak256(0x00, 0x20)\n      swap1\n      0x03\n      mul\n      add\n        /* \"contracts/11_Voting.sol\":3979:4001  proposals[i].voteCount */\n      0x02\n      add\n      sload\n        /* \"contracts/11_Voting.sol\":3979:4023  proposals[i].voteCount > mostVoted.voteCount */\n      gt\n        /* \"contracts/11_Voting.sol\":3975:4065  if (proposals[i].voteCount > mostVoted.voteCount)... */\n      iszero\n      tag_220\n      jumpi\n        /* \"contracts/11_Voting.sol\":4053:4062  proposals */\n      0x08\n        /* \"contracts/11_Voting.sol\":4063:4064  i */\n      dup2\n        /* \"contracts/11_Voting.sol\":4053:4065  proposals[i] */\n      dup2\n      sload\n      dup2\n      lt\n      tag_221\n      jumpi\n      tag_222\n      tag_201\n      jump\t// in\n    tag_222:\n    tag_221:\n      swap1\n      0x00\n      mstore\n      keccak256(0x00, 0x20)\n      swap1\n      0x03\n      mul\n      add\n        /* \"contracts/11_Voting.sol\":4041:4050  mostVoted */\n      0x05\n        /* \"contracts/11_Voting.sol\":4041:4065  mostVoted = proposals[i] */\n      0x00\n      dup3\n      add\n      sload\n      dup2\n      0x00\n      add\n      sstore\n      0x01\n      dup3\n      add\n      dup2\n      0x01\n      add\n      swap1\n      dup2\n      tag_224\n      swap2\n      swap1\n      tag_225\n      jump\t// in\n    tag_224:\n      pop\n      0x02\n      dup3\n      add\n      sload\n      dup2\n      0x02\n      add\n      sstore\n      swap1\n      pop\n      pop\n        /* \"contracts/11_Voting.sol\":3975:4065  if (proposals[i].voteCount > mostVoted.voteCount)... */\n    tag_220:\n        /* \"contracts/11_Voting.sol\":3956:3959  i++ */\n      dup1\n      dup1\n      0x01\n      add\n      swap2\n      pop\n      pop\n        /* \"contracts/11_Voting.sol\":3917:4076  for (uint i = 0; i < proposals.length; i++) {... */\n      jump(tag_214)\n    tag_215:\n      pop\n        /* \"contracts/11_Voting.sol\":4090:4174  WorkflowStatusChange(WorkflowStatus.VotingSessionEnded, WorkflowStatus.VotesTallied) */\n      0x0a97a4ee45751e2abf3e4fc8946939630b11b371ea8ae39ccdc3056e98f5cc3f\n        /* \"contracts/11_Voting.sol\":4111:4144  WorkflowStatus.VotingSessionEnded */\n      0x04\n        /* \"contracts/11_Voting.sol\":4146:4173  WorkflowStatus.VotesTallied */\n      0x05\n        /* \"contracts/11_Voting.sol\":4090:4174  WorkflowStatusChange(WorkflowStatus.VotingSessionEnded, WorkflowStatus.VotesTallied) */\n      mload(0x40)\n      tag_226\n      swap3\n      swap2\n      swap1\n      tag_164\n      jump\t// in\n    tag_226:\n      mload(0x40)\n      dup1\n      swap2\n      sub\n      swap1\n      log1\n        /* \"contracts/11_Voting.sol\":3712:4181  function computeMostVotedproposal() public {... */\n      jump\t// out\n        /* \"contracts/11_Voting.sol\":2129:2230  function getAllProposals() external view returns(Proposal[] memory) {... */\n    tag_96:\n        /* \"contracts/11_Voting.sol\":2178:2195  Proposal[] memory */\n      0x60\n        /* \"contracts/11_Voting.sol\":2214:2223  proposals */\n      0x08\n        /* \"contracts/11_Voting.sol\":2207:2223  return proposals */\n      dup1\n      sload\n      dup1\n      0x20\n      mul\n      0x20\n      add\n      mload(0x40)\n      swap1\n      dup2\n      add\n      0x40\n      mstore\n      dup1\n      swap3\n      swap2\n      swap1\n      dup2\n      dup2\n      mstore\n      0x20\n      add\n      0x00\n      swap1\n    tag_228:\n      dup3\n      dup3\n      lt\n      iszero\n      tag_229\n      jumpi\n      dup4\n      dup3\n      swap1\n      0x00\n      mstore\n      keccak256(0x00, 0x20)\n      swap1\n      0x03\n      mul\n      add\n      mload(0x40)\n      dup1\n      0x60\n      add\n      0x40\n      mstore\n      swap1\n      dup2\n      0x00\n      dup3\n      add\n      sload\n      dup2\n      mstore\n      0x20\n      add\n      0x01\n      dup3\n      add\n      dup1\n      sload\n      tag_231\n      swap1\n      tag_119\n      jump\t// in\n    tag_231:\n      dup1\n      0x1f\n      add\n      0x20\n      dup1\n      swap2\n      div\n      mul\n      0x20\n      add\n      mload(0x40)\n      swap1\n      dup2\n      add\n      0x40\n      mstore\n      dup1\n      swap3\n      swap2\n      swap1\n      dup2\n      dup2\n      mstore\n      0x20\n      add\n      dup3\n      dup1\n      sload\n      tag_232\n      swap1\n      tag_119\n      jump\t// in\n    tag_232:\n      dup1\n      iszero\n      tag_233\n      jumpi\n      dup1\n      0x1f\n      lt\n      tag_234\n      jumpi\n      0x0100\n      dup1\n      dup4\n      sload\n      div\n      mul\n      dup4\n      mstore\n      swap2\n      0x20\n      add\n      swap2\n      jump(tag_233)\n    tag_234:\n      dup3\n      add\n      swap2\n      swap1\n      0x00\n      mstore\n      keccak256(0x00, 0x20)\n      swap1\n    tag_235:\n      dup2\n      sload\n      dup2\n      mstore\n      swap1\n      0x01\n      add\n      swap1\n      0x20\n      add\n      dup1\n      dup4\n      gt\n      tag_235\n      jumpi\n      dup3\n      swap1\n      sub\n      0x1f\n      and\n      dup3\n      add\n      swap2\n    tag_233:\n      pop\n      pop\n      pop\n      pop\n      pop\n      dup2\n      mstore\n      0x20\n      add\n      0x02\n      dup3\n      add\n      sload\n      dup2\n      mstore\n      pop\n      pop\n      dup2\n      mstore\n      0x20\n      add\n      swap1\n      0x01\n      add\n      swap1\n      jump(tag_228)\n    tag_229:\n      pop\n      pop\n      pop\n      pop\n      swap1\n      pop\n        /* \"contracts/11_Voting.sol\":2129:2230  function getAllProposals() external view returns(Proposal[] memory) {... */\n      swap1\n      jump\t// out\n        /* \"contracts/11_Voting.sol\":1539:1785  function startProposalsRegistration() public onlyOwner {... */\n    tag_101:\n        /* \"https://github.com/OpenZeppelin/openzeppelin-contracts/blob/master/contracts/access/Ownable.sol\":1531:1544  _checkOwner() */\n      tag_237\n        /* \"https://github.com/OpenZeppelin/openzeppelin-contracts/blob/master/contracts/access/Ownable.sol\":1531:1542  _checkOwner */\n      tag_152\n        /* \"https://github.com/OpenZeppelin/openzeppelin-contracts/blob/master/contracts/access/Ownable.sol\":1531:1544  _checkOwner() */\n      jump\t// in\n    tag_237:\n        /* \"contracts/11_Voting.sol\":1621:1664  WorkflowStatus.ProposalsRegistrationStarted */\n      0x01\n        /* \"contracts/11_Voting.sol\":1604:1618  workflowStatus */\n      0x04\n      0x00\n        /* \"contracts/11_Voting.sol\":1604:1664  workflowStatus = WorkflowStatus.ProposalsRegistrationStarted */\n      0x0100\n      exp\n      dup2\n      sload\n      dup2\n      0xff\n      mul\n      not\n      and\n      swap1\n      dup4\n      0x05\n      dup2\n      gt\n      iszero\n      tag_239\n      jumpi\n      tag_240\n      tag_136\n      jump\t// in\n    tag_240:\n    tag_239:\n      mul\n      or\n      swap1\n      sstore\n      pop\n        /* \"contracts/11_Voting.sol\":1679:1778  WorkflowStatusChange(WorkflowStatus.RegisteringVoters, WorkflowStatus.ProposalsRegistrationStarted) */\n      0x0a97a4ee45751e2abf3e4fc8946939630b11b371ea8ae39ccdc3056e98f5cc3f\n        /* \"contracts/11_Voting.sol\":1700:1732  WorkflowStatus.RegisteringVoters */\n      0x00\n        /* \"contracts/11_Voting.sol\":1734:1777  WorkflowStatus.ProposalsRegistrationStarted */\n      0x01\n        /* \"contracts/11_Voting.sol\":1679:1778  WorkflowStatusChange(WorkflowStatus.RegisteringVoters, WorkflowStatus.ProposalsRegistrationStarted) */\n      mload(0x40)\n      tag_241\n      swap3\n      swap2\n      swap1\n      tag_164\n      jump\t// in\n    tag_241:\n      mload(0x40)\n      dup1\n      swap2\n      sub\n      swap1\n      log1\n        /* \"contracts/11_Voting.sol\":1539:1785  function startProposalsRegistration() public onlyOwner {... */\n      jump\t// out\n        /* \"contracts/11_Voting.sol\":1209:1416  function addToWhitelist(address _address) public payable onlyOwner {... */\n    tag_104:\n        /* \"https://github.com/OpenZeppelin/openzeppelin-contracts/blob/master/contracts/access/Ownable.sol\":1531:1544  _checkOwner() */\n      tag_243\n        /* \"https://github.com/OpenZeppelin/openzeppelin-contracts/blob/master/contracts/access/Ownable.sol\":1531:1542  _checkOwner */\n      tag_152\n        /* \"https://github.com/OpenZeppelin/openzeppelin-contracts/blob/master/contracts/access/Ownable.sol\":1531:1544  _checkOwner() */\n      jump\t// in\n    tag_243:\n        /* \"contracts/11_Voting.sol\":1312:1344  WorkflowStatus.RegisteringVoters */\n      0x00\n        /* \"contracts/11_Voting.sol\":1294:1344  workflowStatus == WorkflowStatus.RegisteringVoters */\n      0x05\n      dup2\n      gt\n      iszero\n      tag_245\n      jumpi\n      tag_246\n      tag_136\n      jump\t// in\n    tag_246:\n    tag_245:\n        /* \"contracts/11_Voting.sol\":1294:1308  workflowStatus */\n      0x04\n      0x00\n      swap1\n      sload\n      swap1\n      0x0100\n      exp\n      swap1\n      div\n      0xff\n      and\n        /* \"contracts/11_Voting.sol\":1294:1344  workflowStatus == WorkflowStatus.RegisteringVoters */\n      0x05\n      dup2\n      gt\n      iszero\n      tag_247\n      jumpi\n      tag_248\n      tag_136\n      jump\t// in\n    tag_248:\n    tag_247:\n      eq\n        /* \"contracts/11_Voting.sol\":1286:1373  require(workflowStatus == WorkflowStatus.RegisteringVoters, \"Registration not started\") */\n      tag_249\n      jumpi\n      mload(0x40)\n      0x08c379a000000000000000000000000000000000000000000000000000000000\n      dup2\n      mstore\n      0x04\n      add\n      tag_250\n      swap1\n      tag_251\n      jump\t// in\n    tag_250:\n      mload(0x40)\n      dup1\n      swap2\n      sub\n      swap1\n      revert\n    tag_249:\n        /* \"contracts/11_Voting.sol\":1405:1409  true */\n      0x01\n        /* \"contracts/11_Voting.sol\":1383:1392  whitelist */\n      0x09\n        /* \"contracts/11_Voting.sol\":1383:1402  whitelist[_address] */\n      0x00\n        /* \"contracts/11_Voting.sol\":1393:1401  _address */\n      dup4\n        /* \"contracts/11_Voting.sol\":1383:1402  whitelist[_address] */\n      0xffffffffffffffffffffffffffffffffffffffff\n      and\n      0xffffffffffffffffffffffffffffffffffffffff\n      and\n      dup2\n      mstore\n      0x20\n      add\n      swap1\n      dup2\n      mstore\n      0x20\n      add\n      0x00\n      keccak256\n      0x00\n        /* \"contracts/11_Voting.sol\":1383:1409  whitelist[_address] = true */\n      0x0100\n      exp\n      dup2\n      sload\n      dup2\n      0xff\n      mul\n      not\n      and\n      swap1\n      dup4\n      iszero\n      iszero\n      mul\n      or\n      swap1\n      sstore\n      pop\n        /* \"contracts/11_Voting.sol\":1209:1416  function addToWhitelist(address _address) public payable onlyOwner {... */\n      pop\n      jump\t// out\n        /* \"contracts/11_Voting.sol\":2617:2960  function startVotingSession() public onlyOwner {... */\n    tag_107:\n        /* \"https://github.com/OpenZeppelin/openzeppelin-contracts/blob/master/contracts/access/Ownable.sol\":1531:1544  _checkOwner() */\n      tag_253\n        /* \"https://github.com/OpenZeppelin/openzeppelin-contracts/blob/master/contracts/access/Ownable.sol\":1531:1542  _checkOwner */\n      tag_152\n        /* \"https://github.com/OpenZeppelin/openzeppelin-contracts/blob/master/contracts/access/Ownable.sol\":1531:1544  _checkOwner() */\n      jump\t// in\n    tag_253:\n        /* \"contracts/11_Voting.sol\":2699:2740  WorkflowStatus.ProposalsRegistrationEnded */\n      0x02\n        /* \"contracts/11_Voting.sol\":2681:2740  workflowStatus == WorkflowStatus.ProposalsRegistrationEnded */\n      0x05\n      dup2\n      gt\n      iszero\n      tag_255\n      jumpi\n      tag_256\n      tag_136\n      jump\t// in\n    tag_256:\n    tag_255:\n        /* \"contracts/11_Voting.sol\":2681:2695  workflowStatus */\n      0x04\n      0x00\n      swap1\n      sload\n      swap1\n      0x0100\n      exp\n      swap1\n      div\n      0xff\n      and\n        /* \"contracts/11_Voting.sol\":2681:2740  workflowStatus == WorkflowStatus.ProposalsRegistrationEnded */\n      0x05\n      dup2\n      gt\n      iszero\n      tag_257\n      jumpi\n      tag_258\n      tag_136\n      jump\t// in\n    tag_258:\n    tag_257:\n      eq\n        /* \"contracts/11_Voting.sol\":2673:2777  require(workflowStatus == WorkflowStatus.ProposalsRegistrationEnded, \"Proposals registration not ended\") */\n      tag_259\n      jumpi\n      mload(0x40)\n      0x08c379a000000000000000000000000000000000000000000000000000000000\n      dup2\n      mstore\n      0x04\n      add\n      tag_260\n      swap1\n      tag_261\n      jump\t// in\n    tag_260:\n      mload(0x40)\n      dup1\n      swap2\n      sub\n      swap1\n      revert\n    tag_259:\n        /* \"contracts/11_Voting.sol\":2803:2838  WorkflowStatus.VotingSessionStarted */\n      0x03\n        /* \"contracts/11_Voting.sol\":2786:2800  workflowStatus */\n      0x04\n      0x00\n        /* \"contracts/11_Voting.sol\":2786:2838  workflowStatus = WorkflowStatus.VotingSessionStarted */\n      0x0100\n      exp\n      dup2\n      sload\n      dup2\n      0xff\n      mul\n      not\n      and\n      swap1\n      dup4\n      0x05\n      dup2\n      gt\n      iszero\n      tag_262\n      jumpi\n      tag_263\n      tag_136\n      jump\t// in\n    tag_263:\n    tag_262:\n      mul\n      or\n      swap1\n      sstore\n      pop\n        /* \"contracts/11_Voting.sol\":2852:2952  WorkflowStatusChange(WorkflowStatus.ProposalsRegistrationEnded, WorkflowStatus.VotingSessionStarted) */\n      0x0a97a4ee45751e2abf3e4fc8946939630b11b371ea8ae39ccdc3056e98f5cc3f\n        /* \"contracts/11_Voting.sol\":2873:2914  WorkflowStatus.ProposalsRegistrationEnded */\n      0x02\n        /* \"contracts/11_Voting.sol\":2916:2951  WorkflowStatus.VotingSessionStarted */\n      0x03\n        /* \"contracts/11_Voting.sol\":2852:2952  WorkflowStatusChange(WorkflowStatus.ProposalsRegistrationEnded, WorkflowStatus.VotingSessionStarted) */\n      mload(0x40)\n      tag_264\n      swap3\n      swap2\n      swap1\n      tag_164\n      jump\t// in\n    tag_264:\n      mload(0x40)\n      dup1\n      swap2\n      sub\n      swap1\n      log1\n        /* \"contracts/11_Voting.sol\":2617:2960  function startVotingSession() public onlyOwner {... */\n      jump\t// out\n        /* \"https://github.com/OpenZeppelin/openzeppelin-contracts/blob/master/contracts/access/Ownable.sol\":2543:2758  function transferOwnership(address newOwner) public virtual onlyOwner {... */\n    tag_111:\n        /* \"https://github.com/OpenZeppelin/openzeppelin-contracts/blob/master/contracts/access/Ownable.sol\":1531:1544  _checkOwner() */\n      tag_266\n        /* \"https://github.com/OpenZeppelin/openzeppelin-contracts/blob/master/contracts/access/Ownable.sol\":1531:1542  _checkOwner */\n      tag_152\n        /* \"https://github.com/OpenZeppelin/openzeppelin-contracts/blob/master/contracts/access/Ownable.sol\":1531:1544  _checkOwner() */\n      jump\t// in\n    tag_266:\n        /* \"https://github.com/OpenZeppelin/openzeppelin-contracts/blob/master/contracts/access/Ownable.sol\":2647:2648  0 */\n      0x00\n        /* \"https://github.com/OpenZeppelin/openzeppelin-contracts/blob/master/contracts/access/Ownable.sol\":2627:2649  newOwner == address(0) */\n      0xffffffffffffffffffffffffffffffffffffffff\n      and\n        /* \"https://github.com/OpenZeppelin/openzeppelin-contracts/blob/master/contracts/access/Ownable.sol\":2627:2635  newOwner */\n      dup2\n        /* \"https://github.com/OpenZeppelin/openzeppelin-contracts/blob/master/contracts/access/Ownable.sol\":2627:2649  newOwner == address(0) */\n      0xffffffffffffffffffffffffffffffffffffffff\n      and\n      sub\n        /* \"https://github.com/OpenZeppelin/openzeppelin-contracts/blob/master/contracts/access/Ownable.sol\":2623:2714  if (newOwner == address(0)) {... */\n      tag_268\n      jumpi\n        /* \"https://github.com/OpenZeppelin/openzeppelin-contracts/blob/master/contracts/access/Ownable.sol\":2700:2701  0 */\n      0x00\n        /* \"https://github.com/OpenZeppelin/openzeppelin-contracts/blob/master/contracts/access/Ownable.sol\":2672:2703  OwnableInvalidOwner(address(0)) */\n      mload(0x40)\n      0x1e4fbdf700000000000000000000000000000000000000000000000000000000\n      dup2\n      mstore\n      0x04\n      add\n      tag_269\n      swap2\n      swap1\n      tag_63\n      jump\t// in\n    tag_269:\n      mload(0x40)\n      dup1\n      swap2\n      sub\n      swap1\n      revert\n        /* \"https://github.com/OpenZeppelin/openzeppelin-contracts/blob/master/contracts/access/Ownable.sol\":2623:2714  if (newOwner == address(0)) {... */\n    tag_268:\n        /* \"https://github.com/OpenZeppelin/openzeppelin-contracts/blob/master/contracts/access/Ownable.sol\":2723:2751  _transferOwnership(newOwner) */\n      tag_270\n        /* \"https://github.com/OpenZeppelin/openzeppelin-contracts/blob/master/contracts/access/Ownable.sol\":2742:2750  newOwner */\n      dup2\n        /* \"https://github.com/OpenZeppelin/openzeppelin-contracts/blob/master/contracts/access/Ownable.sol\":2723:2741  _transferOwnership */\n      tag_169\n        /* \"https://github.com/OpenZeppelin/openzeppelin-contracts/blob/master/contracts/access/Ownable.sol\":2723:2751  _transferOwnership(newOwner) */\n      jump\t// in\n    tag_270:\n        /* \"https://github.com/OpenZeppelin/openzeppelin-contracts/blob/master/contracts/access/Ownable.sol\":2543:2758  function transferOwnership(address newOwner) public virtual onlyOwner {... */\n      pop\n      jump\t// out\n        /* \"contracts/11_Voting.sol\":199:219  address public admin */\n    tag_114:\n      0x01\n      0x00\n      swap1\n      sload\n      swap1\n      0x0100\n      exp\n      swap1\n      div\n      0xffffffffffffffffffffffffffffffffffffffff\n      and\n      dup2\n      jump\t// out\n        /* \"https://github.com/OpenZeppelin/openzeppelin-contracts/blob/master/contracts/access/Ownable.sol\":1796:1958  function _checkOwner() internal view virtual {... */\n    tag_152:\n        /* \"https://github.com/OpenZeppelin/openzeppelin-contracts/blob/master/contracts/access/Ownable.sol\":1866:1878  _msgSender() */\n      tag_272\n        /* \"https://github.com/OpenZeppelin/openzeppelin-contracts/blob/master/contracts/access/Ownable.sol\":1866:1876  _msgSender */\n      tag_273\n        /* \"https://github.com/OpenZeppelin/openzeppelin-contracts/blob/master/contracts/access/Ownable.sol\":1866:1878  _msgSender() */\n      jump\t// in\n    tag_272:\n        /* \"https://github.com/OpenZeppelin/openzeppelin-contracts/blob/master/contracts/access/Ownable.sol\":1855:1878  owner() != _msgSender() */\n      0xffffffffffffffffffffffffffffffffffffffff\n      and\n        /* \"https://github.com/OpenZeppelin/openzeppelin-contracts/blob/master/contracts/access/Ownable.sol\":1855:1862  owner() */\n      tag_274\n        /* \"https://github.com/OpenZeppelin/openzeppelin-contracts/blob/master/contracts/access/Ownable.sol\":1855:1860  owner */\n      tag_61\n        /* \"https://github.com/OpenZeppelin/openzeppelin-contracts/blob/master/contracts/access/Ownable.sol\":1855:1862  owner() */\n      jump\t// in\n    tag_274:\n        /* \"https://github.com/OpenZeppelin/openzeppelin-contracts/blob/master/contracts/access/Ownable.sol\":1855:1878  owner() != _msgSender() */\n      0xffffffffffffffffffffffffffffffffffffffff\n      and\n      eq\n        /* \"https://github.com/OpenZeppelin/openzeppelin-contracts/blob/master/contracts/access/Ownable.sol\":1851:1952  if (owner() != _msgSender()) {... */\n      tag_275\n      jumpi\n        /* \"https://github.com/OpenZeppelin/openzeppelin-contracts/blob/master/contracts/access/Ownable.sol\":1928:1940  _msgSender() */\n      tag_276\n        /* \"https://github.com/OpenZeppelin/openzeppelin-contracts/blob/master/contracts/access/Ownable.sol\":1928:1938  _msgSender */\n      tag_273\n        /* \"https://github.com/OpenZeppelin/openzeppelin-contracts/blob/master/contracts/access/Ownable.sol\":1928:1940  _msgSender() */\n      jump\t// in\n    tag_276:\n        /* \"https://github.com/OpenZeppelin/openzeppelin-contracts/blob/master/contracts/access/Ownable.sol\":1901:1941  OwnableUnauthorizedAccount(_msgSender()) */\n      mload(0x40)\n      0x118cdaa700000000000000000000000000000000000000000000000000000000\n      dup2\n      mstore\n      0x04\n      add\n      tag_277\n      swap2\n      swap1\n      tag_63\n      jump\t// in\n    tag_277:\n      mload(0x40)\n      dup1\n      swap2\n      sub\n      swap1\n      revert\n        /* \"https://github.com/OpenZeppelin/openzeppelin-contracts/blob/master/contracts/access/Ownable.sol\":1851:1952  if (owner() != _msgSender()) {... */\n    tag_275:\n        /* \"https://github.com/OpenZeppelin/openzeppelin-contracts/blob/master/contracts/access/Ownable.sol\":1796:1958  function _checkOwner() internal view virtual {... */\n      jump\t// out\n        /* \"https://github.com/OpenZeppelin/openzeppelin-contracts/blob/master/contracts/access/Ownable.sol\":2912:3099  function _transferOwnership(address newOwner) internal virtual {... */\n    tag_169:\n        /* \"https://github.com/OpenZeppelin/openzeppelin-contracts/blob/master/contracts/access/Ownable.sol\":2985:3001  address oldOwner */\n      0x00\n        /* \"https://github.com/OpenZeppelin/openzeppelin-contracts/blob/master/contracts/access/Ownable.sol\":3004:3010  _owner */\n      0x00\n      0x00\n      swap1\n      sload\n      swap1\n      0x0100\n      exp\n      swap1\n      div\n      0xffffffffffffffffffffffffffffffffffffffff\n      and\n        /* \"https://github.com/OpenZeppelin/openzeppelin-contracts/blob/master/contracts/access/Ownable.sol\":2985:3010  address oldOwner = _owner */\n      swap1\n      pop\n        /* \"https://github.com/OpenZeppelin/openzeppelin-contracts/blob/master/contracts/access/Ownable.sol\":3029:3037  newOwner */\n      dup2\n        /* \"https://github.com/OpenZeppelin/openzeppelin-contracts/blob/master/contracts/access/Ownable.sol\":3020:3026  _owner */\n      0x00\n      0x00\n        /* \"https://github.com/OpenZeppelin/openzeppelin-contracts/blob/master/contracts/access/Ownable.sol\":3020:3037  _owner = newOwner */\n      0x0100\n      exp\n      dup2\n      sload\n      dup2\n      0xffffffffffffffffffffffffffffffffffffffff\n      mul\n      not\n      and\n      swap1\n      dup4\n      0xffffffffffffffffffffffffffffffffffffffff\n      and\n      mul\n      or\n      swap1\n      sstore\n      pop\n        /* \"https://github.com/OpenZeppelin/openzeppelin-contracts/blob/master/contracts/access/Ownable.sol\":3083:3091  newOwner */\n      dup2\n        /* \"https://github.com/OpenZeppelin/openzeppelin-contracts/blob/master/contracts/access/Ownable.sol\":3052:3092  OwnershipTransferred(oldOwner, newOwner) */\n      0xffffffffffffffffffffffffffffffffffffffff\n      and\n        /* \"https://github.com/OpenZeppelin/openzeppelin-contracts/blob/master/contracts/access/Ownable.sol\":3073:3081  oldOwner */\n      dup2\n        /* \"https://github.com/OpenZeppelin/openzeppelin-contracts/blob/master/contracts/access/Ownable.sol\":3052:3092  OwnershipTransferred(oldOwner, newOwner) */\n      0xffffffffffffffffffffffffffffffffffffffff\n      and\n      0x8be0079c531659141344cd1fd0a4f28419497f9722a3daafe3b4186f6b6457e0\n      mload(0x40)\n      mload(0x40)\n      dup1\n      swap2\n      sub\n      swap1\n      log3\n        /* \"https://github.com/OpenZeppelin/openzeppelin-contracts/blob/master/contracts/access/Ownable.sol\":2975:3099  {... */\n      pop\n        /* \"https://github.com/OpenZeppelin/openzeppelin-contracts/blob/master/contracts/access/Ownable.sol\":2912:3099  function _transferOwnership(address newOwner) internal virtual {... */\n      pop\n      jump\t// out\n        /* \"https://github.com/OpenZeppelin/openzeppelin-contracts/blob/master/contracts/utils/Context.sol\":656:752  function _msgSender() internal view virtual returns (address) {... */\n    tag_273:\n        /* \"https://github.com/OpenZeppelin/openzeppelin-contracts/blob/master/contracts/utils/Context.sol\":709:716  address */\n      0x00\n        /* \"https://github.com/OpenZeppelin/openzeppelin-contracts/blob/master/contracts/utils/Context.sol\":735:745  msg.sender */\n      caller\n        /* \"https://github.com/OpenZeppelin/openzeppelin-contracts/blob/master/contracts/utils/Context.sol\":728:745  return msg.sender */\n      swap1\n      pop\n        /* \"https://github.com/OpenZeppelin/openzeppelin-contracts/blob/master/contracts/utils/Context.sol\":656:752  function _msgSender() internal view virtual returns (address) {... */\n      swap1\n      jump\t// out\n    tag_126:\n      mload(0x40)\n      dup1\n      0x60\n      add\n      0x40\n      mstore\n      dup1\n      0x00\n      dup2\n      mstore\n      0x20\n      add\n      0x60\n      dup2\n      mstore\n      0x20\n      add\n      0x00\n      dup2\n      mstore\n      pop\n      swap1\n      jump\t// out\n        /* \"#utility.yul\":7:82   */\n    tag_280:\n        /* \"#utility.yul\":40:46   */\n      0x00\n        /* \"#utility.yul\":73:75   */\n      0x40\n        /* \"#utility.yul\":67:76   */\n      mload\n        /* \"#utility.yul\":57:76   */\n      swap1\n      pop\n        /* \"#utility.yul\":7:82   */\n      swap1\n      jump\t// out\n        /* \"#utility.yul\":88:205   */\n    tag_281:\n        /* \"#utility.yul\":197:198   */\n      0x00\n        /* \"#utility.yul\":194:195   */\n      0x00\n        /* \"#utility.yul\":187:199   */\n      revert\n        /* \"#utility.yul\":211:328   */\n    tag_282:\n        /* \"#utility.yul\":320:321   */\n      0x00\n        /* \"#utility.yul\":317:318   */\n      0x00\n        /* \"#utility.yul\":310:322   */\n      revert\n        /* \"#utility.yul\":334:411   */\n    tag_283:\n        /* \"#utility.yul\":371:378   */\n      0x00\n        /* \"#utility.yul\":400:405   */\n      dup2\n        /* \"#utility.yul\":389:405   */\n      swap1\n      pop\n        /* \"#utility.yul\":334:411   */\n      swap2\n      swap1\n      pop\n      jump\t// out\n        /* \"#utility.yul\":417:539   */\n    tag_284:\n        /* \"#utility.yul\":490:514   */\n      tag_363\n        /* \"#utility.yul\":508:513   */\n      dup2\n        /* \"#utility.yul\":490:514   */\n      tag_283\n      jump\t// in\n    tag_363:\n        /* \"#utility.yul\":483:488   */\n      dup2\n        /* \"#utility.yul\":480:515   */\n      eq\n        /* \"#utility.yul\":470:533   */\n      tag_364\n      jumpi\n        /* \"#utility.yul\":529:530   */\n      0x00\n        /* \"#utility.yul\":526:527   */\n      0x00\n        /* \"#utility.yul\":519:531   */\n      revert\n        /* \"#utility.yul\":470:533   */\n    tag_364:\n        /* \"#utility.yul\":417:539   */\n      pop\n      jump\t// out\n        /* \"#utility.yul\":545:684   */\n    tag_285:\n        /* \"#utility.yul\":591:596   */\n      0x00\n        /* \"#utility.yul\":629:635   */\n      dup2\n        /* \"#utility.yul\":616:636   */\n      calldataload\n        /* \"#utility.yul\":607:636   */\n      swap1\n      pop\n        /* \"#utility.yul\":645:678   */\n      tag_366\n        /* \"#utility.yul\":672:677   */\n      dup2\n        /* \"#utility.yul\":645:678   */\n      tag_284\n      jump\t// in\n    tag_366:\n        /* \"#utility.yul\":545:684   */\n      swap3\n      swap2\n      pop\n      pop\n      jump\t// out\n        /* \"#utility.yul\":690:1019   */\n    tag_29:\n        /* \"#utility.yul\":749:755   */\n      0x00\n        /* \"#utility.yul\":798:800   */\n      0x20\n        /* \"#utility.yul\":786:795   */\n      dup3\n        /* \"#utility.yul\":777:784   */\n      dup5\n        /* \"#utility.yul\":773:796   */\n      sub\n        /* \"#utility.yul\":769:801   */\n      slt\n        /* \"#utility.yul\":766:885   */\n      iszero\n      tag_368\n      jumpi\n        /* \"#utility.yul\":804:883   */\n      tag_369\n      tag_281\n      jump\t// in\n    tag_369:\n        /* \"#utility.yul\":766:885   */\n    tag_368:\n        /* \"#utility.yul\":924:925   */\n      0x00\n        /* \"#utility.yul\":949:1002   */\n      tag_370\n        /* \"#utility.yul\":994:1001   */\n      dup5\n        /* \"#utility.yul\":985:991   */\n      dup3\n        /* \"#utility.yul\":974:983   */\n      dup6\n        /* \"#utility.yul\":970:992   */\n      add\n        /* \"#utility.yul\":949:1002   */\n      tag_285\n      jump\t// in\n    tag_370:\n        /* \"#utility.yul\":939:1002   */\n      swap2\n      pop\n        /* \"#utility.yul\":895:1012   */\n      pop\n        /* \"#utility.yul\":690:1019   */\n      swap3\n      swap2\n      pop\n      pop\n      jump\t// out\n        /* \"#utility.yul\":1025:1143   */\n    tag_286:\n        /* \"#utility.yul\":1112:1136   */\n      tag_372\n        /* \"#utility.yul\":1130:1135   */\n      dup2\n        /* \"#utility.yul\":1112:1136   */\n      tag_283\n      jump\t// in\n    tag_372:\n        /* \"#utility.yul\":1107:1110   */\n      dup3\n        /* \"#utility.yul\":1100:1137   */\n      mstore\n        /* \"#utility.yul\":1025:1143   */\n      pop\n      pop\n      jump\t// out\n        /* \"#utility.yul\":1149:1248   */\n    tag_287:\n        /* \"#utility.yul\":1201:1207   */\n      0x00\n        /* \"#utility.yul\":1235:1240   */\n      dup2\n        /* \"#utility.yul\":1229:1241   */\n      mload\n        /* \"#utility.yul\":1219:1241   */\n      swap1\n      pop\n        /* \"#utility.yul\":1149:1248   */\n      swap2\n      swap1\n      pop\n      jump\t// out\n        /* \"#utility.yul\":1254:1423   */\n    tag_288:\n        /* \"#utility.yul\":1338:1349   */\n      0x00\n        /* \"#utility.yul\":1372:1378   */\n      dup3\n        /* \"#utility.yul\":1367:1370   */\n      dup3\n        /* \"#utility.yul\":1360:1379   */\n      mstore\n        /* \"#utility.yul\":1412:1416   */\n      0x20\n        /* \"#utility.yul\":1407:1410   */\n      dup3\n        /* \"#utility.yul\":1403:1417   */\n      add\n        /* \"#utility.yul\":1388:1417   */\n      swap1\n      pop\n        /* \"#utility.yul\":1254:1423   */\n      swap3\n      swap2\n      pop\n      pop\n      jump\t// out\n        /* \"#utility.yul\":1429:1568   */\n    tag_289:\n        /* \"#utility.yul\":1518:1524   */\n      dup3\n        /* \"#utility.yul\":1513:1516   */\n      dup2\n        /* \"#utility.yul\":1508:1511   */\n      dup4\n        /* \"#utility.yul\":1502:1525   */\n      mcopy\n        /* \"#utility.yul\":1559:1560   */\n      0x00\n        /* \"#utility.yul\":1550:1556   */\n      dup4\n        /* \"#utility.yul\":1545:1548   */\n      dup4\n        /* \"#utility.yul\":1541:1557   */\n      add\n        /* \"#utility.yul\":1534:1561   */\n      mstore\n        /* \"#utility.yul\":1429:1568   */\n      pop\n      pop\n      pop\n      jump\t// out\n        /* \"#utility.yul\":1574:1676   */\n    tag_290:\n        /* \"#utility.yul\":1615:1621   */\n      0x00\n        /* \"#utility.yul\":1666:1668   */\n      0x1f\n        /* \"#utility.yul\":1662:1669   */\n      not\n        /* \"#utility.yul\":1657:1659   */\n      0x1f\n        /* \"#utility.yul\":1650:1655   */\n      dup4\n        /* \"#utility.yul\":1646:1660   */\n      add\n        /* \"#utility.yul\":1642:1670   */\n      and\n        /* \"#utility.yul\":1632:1670   */\n      swap1\n      pop\n        /* \"#utility.yul\":1574:1676   */\n      swap2\n      swap1\n      pop\n      jump\t// out\n        /* \"#utility.yul\":1682:2059   */\n    tag_291:\n        /* \"#utility.yul\":1770:1773   */\n      0x00\n        /* \"#utility.yul\":1798:1837   */\n      tag_378\n        /* \"#utility.yul\":1831:1836   */\n      dup3\n        /* \"#utility.yul\":1798:1837   */\n      tag_287\n      jump\t// in\n    tag_378:\n        /* \"#utility.yul\":1853:1924   */\n      tag_379\n        /* \"#utility.yul\":1917:1923   */\n      dup2\n        /* \"#utility.yul\":1912:1915   */\n      dup6\n        /* \"#utility.yul\":1853:1924   */\n      tag_288\n      jump\t// in\n    tag_379:\n        /* \"#utility.yul\":1846:1924   */\n      swap4\n      pop\n        /* \"#utility.yul\":1933:1998   */\n      tag_380\n        /* \"#utility.yul\":1991:1997   */\n      dup2\n        /* \"#utility.yul\":1986:1989   */\n      dup6\n        /* \"#utility.yul\":1979:1983   */\n      0x20\n        /* \"#utility.yul\":1972:1977   */\n      dup7\n        /* \"#utility.yul\":1968:1984   */\n      add\n        /* \"#utility.yul\":1933:1998   */\n      tag_289\n      jump\t// in\n    tag_380:\n        /* \"#utility.yul\":2023:2052   */\n      tag_381\n        /* \"#utility.yul\":2045:2051   */\n      dup2\n        /* \"#utility.yul\":2023:2052   */\n      tag_290\n      jump\t// in\n    tag_381:\n        /* \"#utility.yul\":2018:2021   */\n      dup5\n        /* \"#utility.yul\":2014:2053   */\n      add\n        /* \"#utility.yul\":2007:2053   */\n      swap2\n      pop\n        /* \"#utility.yul\":1774:2059   */\n      pop\n        /* \"#utility.yul\":1682:2059   */\n      swap3\n      swap2\n      pop\n      pop\n      jump\t// out\n        /* \"#utility.yul\":2065:2598   */\n    tag_32:\n        /* \"#utility.yul\":2234:2238   */\n      0x00\n        /* \"#utility.yul\":2272:2274   */\n      0x60\n        /* \"#utility.yul\":2261:2270   */\n      dup3\n        /* \"#utility.yul\":2257:2275   */\n      add\n        /* \"#utility.yul\":2249:2275   */\n      swap1\n      pop\n        /* \"#utility.yul\":2285:2356   */\n      tag_383\n        /* \"#utility.yul\":2353:2354   */\n      0x00\n        /* \"#utility.yul\":2342:2351   */\n      dup4\n        /* \"#utility.yul\":2338:2355   */\n      add\n        /* \"#utility.yul\":2329:2335   */\n      dup7\n        /* \"#utility.yul\":2285:2356   */\n      tag_286\n      jump\t// in\n    tag_383:\n        /* \"#utility.yul\":2403:2412   */\n      dup2\n        /* \"#utility.yul\":2397:2401   */\n      dup2\n        /* \"#utility.yul\":2393:2413   */\n      sub\n        /* \"#utility.yul\":2388:2390   */\n      0x20\n        /* \"#utility.yul\":2377:2386   */\n      dup4\n        /* \"#utility.yul\":2373:2391   */\n      add\n        /* \"#utility.yul\":2366:2414   */\n      mstore\n        /* \"#utility.yul\":2431:2509   */\n      tag_384\n        /* \"#utility.yul\":2504:2508   */\n      dup2\n        /* \"#utility.yul\":2495:2501   */\n      dup6\n        /* \"#utility.yul\":2431:2509   */\n      tag_291\n      jump\t// in\n    tag_384:\n        /* \"#utility.yul\":2423:2509   */\n      swap1\n      pop\n        /* \"#utility.yul\":2519:2591   */\n      tag_385\n        /* \"#utility.yul\":2587:2589   */\n      0x40\n        /* \"#utility.yul\":2576:2585   */\n      dup4\n        /* \"#utility.yul\":2572:2590   */\n      add\n        /* \"#utility.yul\":2563:2569   */\n      dup5\n        /* \"#utility.yul\":2519:2591   */\n      tag_286\n      jump\t// in\n    tag_385:\n        /* \"#utility.yul\":2065:2598   */\n      swap5\n      swap4\n      pop\n      pop\n      pop\n      pop\n      jump\t// out\n        /* \"#utility.yul\":2604:2730   */\n    tag_292:\n        /* \"#utility.yul\":2641:2648   */\n      0x00\n        /* \"#utility.yul\":2681:2723   */\n      0xffffffffffffffffffffffffffffffffffffffff\n        /* \"#utility.yul\":2674:2679   */\n      dup3\n        /* \"#utility.yul\":2670:2724   */\n      and\n        /* \"#utility.yul\":2659:2724   */\n      swap1\n      pop\n        /* \"#utility.yul\":2604:2730   */\n      swap2\n      swap1\n      pop\n      jump\t// out\n        /* \"#utility.yul\":2736:2832   */\n    tag_293:\n        /* \"#utility.yul\":2773:2780   */\n      0x00\n        /* \"#utility.yul\":2802:2826   */\n      tag_388\n        /* \"#utility.yul\":2820:2825   */\n      dup3\n        /* \"#utility.yul\":2802:2826   */\n      tag_292\n      jump\t// in\n    tag_388:\n        /* \"#utility.yul\":2791:2826   */\n      swap1\n      pop\n        /* \"#utility.yul\":2736:2832   */\n      swap2\n      swap1\n      pop\n      jump\t// out\n        /* \"#utility.yul\":2838:2960   */\n    tag_294:\n        /* \"#utility.yul\":2911:2935   */\n      tag_390\n        /* \"#utility.yul\":2929:2934   */\n      dup2\n        /* \"#utility.yul\":2911:2935   */\n      tag_293\n      jump\t// in\n    tag_390:\n        /* \"#utility.yul\":2904:2909   */\n      dup2\n        /* \"#utility.yul\":2901:2936   */\n      eq\n        /* \"#utility.yul\":2891:2954   */\n      tag_391\n      jumpi\n        /* \"#utility.yul\":2950:2951   */\n      0x00\n        /* \"#utility.yul\":2947:2948   */\n      0x00\n        /* \"#utility.yul\":2940:2952   */\n      revert\n        /* \"#utility.yul\":2891:2954   */\n    tag_391:\n        /* \"#utility.yul\":2838:2960   */\n      pop\n      jump\t// out\n        /* \"#utility.yul\":2966:3105   */\n    tag_295:\n        /* \"#utility.yul\":3012:3017   */\n      0x00\n        /* \"#utility.yul\":3050:3056   */\n      dup2\n        /* \"#utility.yul\":3037:3057   */\n      calldataload\n        /* \"#utility.yul\":3028:3057   */\n      swap1\n      pop\n        /* \"#utility.yul\":3066:3099   */\n      tag_393\n        /* \"#utility.yul\":3093:3098   */\n      dup2\n        /* \"#utility.yul\":3066:3099   */\n      tag_294\n      jump\t// in\n    tag_393:\n        /* \"#utility.yul\":2966:3105   */\n      swap3\n      swap2\n      pop\n      pop\n      jump\t// out\n        /* \"#utility.yul\":3111:3440   */\n    tag_36:\n        /* \"#utility.yul\":3170:3176   */\n      0x00\n        /* \"#utility.yul\":3219:3221   */\n      0x20\n        /* \"#utility.yul\":3207:3216   */\n      dup3\n        /* \"#utility.yul\":3198:3205   */\n      dup5\n        /* \"#utility.yul\":3194:3217   */\n      sub\n        /* \"#utility.yul\":3190:3222   */\n      slt\n        /* \"#utility.yul\":3187:3306   */\n      iszero\n      tag_395\n      jumpi\n        /* \"#utility.yul\":3225:3304   */\n      tag_396\n      tag_281\n      jump\t// in\n    tag_396:\n        /* \"#utility.yul\":3187:3306   */\n    tag_395:\n        /* \"#utility.yul\":3345:3346   */\n      0x00\n        /* \"#utility.yul\":3370:3423   */\n      tag_397\n        /* \"#utility.yul\":3415:3422   */\n      dup5\n        /* \"#utility.yul\":3406:3412   */\n      dup3\n        /* \"#utility.yul\":3395:3404   */\n      dup6\n        /* \"#utility.yul\":3391:3413   */\n      add\n        /* \"#utility.yul\":3370:3423   */\n      tag_295\n      jump\t// in\n    tag_397:\n        /* \"#utility.yul\":3360:3423   */\n      swap2\n      pop\n        /* \"#utility.yul\":3316:3433   */\n      pop\n        /* \"#utility.yul\":3111:3440   */\n      swap3\n      swap2\n      pop\n      pop\n      jump\t// out\n        /* \"#utility.yul\":3446:3536   */\n    tag_296:\n        /* \"#utility.yul\":3480:3487   */\n      0x00\n        /* \"#utility.yul\":3523:3528   */\n      dup2\n        /* \"#utility.yul\":3516:3529   */\n      iszero\n        /* \"#utility.yul\":3509:3530   */\n      iszero\n        /* \"#utility.yul\":3498:3530   */\n      swap1\n      pop\n        /* \"#utility.yul\":3446:3536   */\n      swap2\n      swap1\n      pop\n      jump\t// out\n        /* \"#utility.yul\":3542:3651   */\n    tag_297:\n        /* \"#utility.yul\":3623:3644   */\n      tag_400\n        /* \"#utility.yul\":3638:3643   */\n      dup2\n        /* \"#utility.yul\":3623:3644   */\n      tag_296\n      jump\t// in\n    tag_400:\n        /* \"#utility.yul\":3618:3621   */\n      dup3\n        /* \"#utility.yul\":3611:3645   */\n      mstore\n        /* \"#utility.yul\":3542:3651   */\n      pop\n      pop\n      jump\t// out\n        /* \"#utility.yul\":3657:3867   */\n    tag_39:\n        /* \"#utility.yul\":3744:3748   */\n      0x00\n        /* \"#utility.yul\":3782:3784   */\n      0x20\n        /* \"#utility.yul\":3771:3780   */\n      dup3\n        /* \"#utility.yul\":3767:3785   */\n      add\n        /* \"#utility.yul\":3759:3785   */\n      swap1\n      pop\n        /* \"#utility.yul\":3795:3860   */\n      tag_402\n        /* \"#utility.yul\":3857:3858   */\n      0x00\n        /* \"#utility.yul\":3846:3855   */\n      dup4\n        /* \"#utility.yul\":3842:3859   */\n      add\n        /* \"#utility.yul\":3833:3839   */\n      dup5\n        /* \"#utility.yul\":3795:3860   */\n      tag_297\n      jump\t// in\n    tag_402:\n        /* \"#utility.yul\":3657:3867   */\n      swap3\n      swap2\n      pop\n      pop\n      jump\t// out\n        /* \"#utility.yul\":3873:3981   */\n    tag_298:\n        /* \"#utility.yul\":3950:3974   */\n      tag_404\n        /* \"#utility.yul\":3968:3973   */\n      dup2\n        /* \"#utility.yul\":3950:3974   */\n      tag_283\n      jump\t// in\n    tag_404:\n        /* \"#utility.yul\":3945:3948   */\n      dup3\n        /* \"#utility.yul\":3938:3975   */\n      mstore\n        /* \"#utility.yul\":3873:3981   */\n      pop\n      pop\n      jump\t// out\n        /* \"#utility.yul\":3987:4146   */\n    tag_299:\n        /* \"#utility.yul\":4061:4072   */\n      0x00\n        /* \"#utility.yul\":4095:4101   */\n      dup3\n        /* \"#utility.yul\":4090:4093   */\n      dup3\n        /* \"#utility.yul\":4083:4102   */\n      mstore\n        /* \"#utility.yul\":4135:4139   */\n      0x20\n        /* \"#utility.yul\":4130:4133   */\n      dup3\n        /* \"#utility.yul\":4126:4140   */\n      add\n        /* \"#utility.yul\":4111:4140   */\n      swap1\n      pop\n        /* \"#utility.yul\":3987:4146   */\n      swap3\n      swap2\n      pop\n      pop\n      jump\t// out\n        /* \"#utility.yul\":4152:4509   */\n    tag_300:\n        /* \"#utility.yul\":4230:4233   */\n      0x00\n        /* \"#utility.yul\":4258:4297   */\n      tag_407\n        /* \"#utility.yul\":4291:4296   */\n      dup3\n        /* \"#utility.yul\":4258:4297   */\n      tag_287\n      jump\t// in\n    tag_407:\n        /* \"#utility.yul\":4313:4374   */\n      tag_408\n        /* \"#utility.yul\":4367:4373   */\n      dup2\n        /* \"#utility.yul\":4362:4365   */\n      dup6\n        /* \"#utility.yul\":4313:4374   */\n      tag_299\n      jump\t// in\n    tag_408:\n        /* \"#utility.yul\":4306:4374   */\n      swap4\n      pop\n        /* \"#utility.yul\":4383:4448   */\n      tag_409\n        /* \"#utility.yul\":4441:4447   */\n      dup2\n        /* \"#utility.yul\":4436:4439   */\n      dup6\n        /* \"#utility.yul\":4429:4433   */\n      0x20\n        /* \"#utility.yul\":4422:4427   */\n      dup7\n        /* \"#utility.yul\":4418:4434   */\n      add\n        /* \"#utility.yul\":4383:4448   */\n      tag_289\n      jump\t// in\n    tag_409:\n        /* \"#utility.yul\":4473:4502   */\n      tag_410\n        /* \"#utility.yul\":4495:4501   */\n      dup2\n        /* \"#utility.yul\":4473:4502   */\n      tag_290\n      jump\t// in\n    tag_410:\n        /* \"#utility.yul\":4468:4471   */\n      dup5\n        /* \"#utility.yul\":4464:4503   */\n      add\n        /* \"#utility.yul\":4457:4503   */\n      swap2\n      pop\n        /* \"#utility.yul\":4234:4509   */\n      pop\n        /* \"#utility.yul\":4152:4509   */\n      swap3\n      swap2\n      pop\n      pop\n      jump\t// out\n        /* \"#utility.yul\":4571:5359   */\n    tag_301:\n        /* \"#utility.yul\":4688:4691   */\n      0x00\n        /* \"#utility.yul\":4724:4728   */\n      0x60\n        /* \"#utility.yul\":4719:4722   */\n      dup4\n        /* \"#utility.yul\":4715:4729   */\n      add\n        /* \"#utility.yul\":4809:4813   */\n      0x00\n        /* \"#utility.yul\":4802:4807   */\n      dup4\n        /* \"#utility.yul\":4798:4814   */\n      add\n        /* \"#utility.yul\":4792:4815   */\n      mload\n        /* \"#utility.yul\":4828:4891   */\n      tag_412\n        /* \"#utility.yul\":4885:4889   */\n      0x00\n        /* \"#utility.yul\":4880:4883   */\n      dup7\n        /* \"#utility.yul\":4876:4890   */\n      add\n        /* \"#utility.yul\":4862:4874   */\n      dup3\n        /* \"#utility.yul\":4828:4891   */\n      tag_298\n      jump\t// in\n    tag_412:\n        /* \"#utility.yul\":4739:4901   */\n      pop\n        /* \"#utility.yul\":4990:4994   */\n      0x20\n        /* \"#utility.yul\":4983:4988   */\n      dup4\n        /* \"#utility.yul\":4979:4995   */\n      add\n        /* \"#utility.yul\":4973:4996   */\n      mload\n        /* \"#utility.yul\":5043:5046   */\n      dup5\n        /* \"#utility.yul\":5037:5041   */\n      dup3\n        /* \"#utility.yul\":5033:5047   */\n      sub\n        /* \"#utility.yul\":5026:5030   */\n      0x20\n        /* \"#utility.yul\":5021:5024   */\n      dup7\n        /* \"#utility.yul\":5017:5031   */\n      add\n        /* \"#utility.yul\":5010:5048   */\n      mstore\n        /* \"#utility.yul\":5069:5142   */\n      tag_413\n        /* \"#utility.yul\":5137:5141   */\n      dup3\n        /* \"#utility.yul\":5123:5135   */\n      dup3\n        /* \"#utility.yul\":5069:5142   */\n      tag_300\n      jump\t// in\n    tag_413:\n        /* \"#utility.yul\":5061:5142   */\n      swap2\n      pop\n        /* \"#utility.yul\":4911:5153   */\n      pop\n        /* \"#utility.yul\":5240:5244   */\n      0x40\n        /* \"#utility.yul\":5233:5238   */\n      dup4\n        /* \"#utility.yul\":5229:5245   */\n      add\n        /* \"#utility.yul\":5223:5246   */\n      mload\n        /* \"#utility.yul\":5259:5322   */\n      tag_414\n        /* \"#utility.yul\":5316:5320   */\n      0x40\n        /* \"#utility.yul\":5311:5314   */\n      dup7\n        /* \"#utility.yul\":5307:5321   */\n      add\n        /* \"#utility.yul\":5293:5305   */\n      dup3\n        /* \"#utility.yul\":5259:5322   */\n      tag_298\n      jump\t// in\n    tag_414:\n        /* \"#utility.yul\":5163:5332   */\n      pop\n        /* \"#utility.yul\":5349:5353   */\n      dup1\n        /* \"#utility.yul\":5342:5353   */\n      swap2\n      pop\n        /* \"#utility.yul\":4693:5359   */\n      pop\n        /* \"#utility.yul\":4571:5359   */\n      swap3\n      swap2\n      pop\n      pop\n      jump\t// out\n        /* \"#utility.yul\":5365:5734   */\n    tag_44:\n        /* \"#utility.yul\":5506:5510   */\n      0x00\n        /* \"#utility.yul\":5544:5546   */\n      0x20\n        /* \"#utility.yul\":5533:5542   */\n      dup3\n        /* \"#utility.yul\":5529:5547   */\n      add\n        /* \"#utility.yul\":5521:5547   */\n      swap1\n      pop\n        /* \"#utility.yul\":5593:5602   */\n      dup2\n        /* \"#utility.yul\":5587:5591   */\n      dup2\n        /* \"#utility.yul\":5583:5603   */\n      sub\n        /* \"#utility.yul\":5579:5580   */\n      0x00\n        /* \"#utility.yul\":5568:5577   */\n      dup4\n        /* \"#utility.yul\":5564:5581   */\n      add\n        /* \"#utility.yul\":5557:5604   */\n      mstore\n        /* \"#utility.yul\":5621:5727   */\n      tag_416\n        /* \"#utility.yul\":5722:5726   */\n      dup2\n        /* \"#utility.yul\":5713:5719   */\n      dup5\n        /* \"#utility.yul\":5621:5727   */\n      tag_301\n      jump\t// in\n    tag_416:\n        /* \"#utility.yul\":5613:5727   */\n      swap1\n      pop\n        /* \"#utility.yul\":5365:5734   */\n      swap3\n      swap2\n      pop\n      pop\n      jump\t// out\n        /* \"#utility.yul\":5740:5857   */\n    tag_302:\n        /* \"#utility.yul\":5849:5850   */\n      0x00\n        /* \"#utility.yul\":5846:5847   */\n      0x00\n        /* \"#utility.yul\":5839:5851   */\n      revert\n        /* \"#utility.yul\":5863:5980   */\n    tag_303:\n        /* \"#utility.yul\":5972:5973   */\n      0x00\n        /* \"#utility.yul\":5969:5970   */\n      0x00\n        /* \"#utility.yul\":5962:5974   */\n      revert\n        /* \"#utility.yul\":5986:6166   */\n    tag_304:\n        /* \"#utility.yul\":6034:6111   */\n      0x4e487b7100000000000000000000000000000000000000000000000000000000\n        /* \"#utility.yul\":6031:6032   */\n      0x00\n        /* \"#utility.yul\":6024:6112   */\n      mstore\n        /* \"#utility.yul\":6131:6135   */\n      0x41\n        /* \"#utility.yul\":6128:6129   */\n      0x04\n        /* \"#utility.yul\":6121:6136   */\n      mstore\n        /* \"#utility.yul\":6155:6159   */\n      0x24\n        /* \"#utility.yul\":6152:6153   */\n      0x00\n        /* \"#utility.yul\":6145:6160   */\n      revert\n        /* \"#utility.yul\":6172:6453   */\n    tag_305:\n        /* \"#utility.yul\":6255:6282   */\n      tag_421\n        /* \"#utility.yul\":6277:6281   */\n      dup3\n        /* \"#utility.yul\":6255:6282   */\n      tag_290\n      jump\t// in\n    tag_421:\n        /* \"#utility.yul\":6247:6253   */\n      dup2\n        /* \"#utility.yul\":6243:6283   */\n      add\n        /* \"#utility.yul\":6385:6391   */\n      dup2\n        /* \"#utility.yul\":6373:6383   */\n      dup2\n        /* \"#utility.yul\":6370:6392   */\n      lt\n        /* \"#utility.yul\":6349:6367   */\n      0xffffffffffffffff\n        /* \"#utility.yul\":6337:6347   */\n      dup3\n        /* \"#utility.yul\":6334:6368   */\n      gt\n        /* \"#utility.yul\":6331:6393   */\n      or\n        /* \"#utility.yul\":6328:6416   */\n      iszero\n      tag_422\n      jumpi\n        /* \"#utility.yul\":6396:6414   */\n      tag_423\n      tag_304\n      jump\t// in\n    tag_423:\n        /* \"#utility.yul\":6328:6416   */\n    tag_422:\n        /* \"#utility.yul\":6436:6446   */\n      dup1\n        /* \"#utility.yul\":6432:6434   */\n      0x40\n        /* \"#utility.yul\":6425:6447   */\n      mstore\n        /* \"#utility.yul\":6215:6453   */\n      pop\n        /* \"#utility.yul\":6172:6453   */\n      pop\n      pop\n      jump\t// out\n        /* \"#utility.yul\":6459:6588   */\n    tag_306:\n        /* \"#utility.yul\":6493:6499   */\n      0x00\n        /* \"#utility.yul\":6520:6540   */\n      tag_425\n      tag_280\n      jump\t// in\n    tag_425:\n        /* \"#utility.yul\":6510:6540   */\n      swap1\n      pop\n        /* \"#utility.yul\":6549:6582   */\n      tag_426\n        /* \"#utility.yul\":6577:6581   */\n      dup3\n        /* \"#utility.yul\":6569:6575   */\n      dup3\n        /* \"#utility.yul\":6549:6582   */\n      tag_305\n      jump\t// in\n    tag_426:\n        /* \"#utility.yul\":6459:6588   */\n      swap2\n      swap1\n      pop\n      jump\t// out\n        /* \"#utility.yul\":6594:6902   */\n    tag_307:\n        /* \"#utility.yul\":6656:6660   */\n      0x00\n        /* \"#utility.yul\":6746:6764   */\n      0xffffffffffffffff\n        /* \"#utility.yul\":6738:6744   */\n      dup3\n        /* \"#utility.yul\":6735:6765   */\n      gt\n        /* \"#utility.yul\":6732:6788   */\n      iszero\n      tag_428\n      jumpi\n        /* \"#utility.yul\":6768:6786   */\n      tag_429\n      tag_304\n      jump\t// in\n    tag_429:\n        /* \"#utility.yul\":6732:6788   */\n    tag_428:\n        /* \"#utility.yul\":6806:6835   */\n      tag_430\n        /* \"#utility.yul\":6828:6834   */\n      dup3\n        /* \"#utility.yul\":6806:6835   */\n      tag_290\n      jump\t// in\n    tag_430:\n        /* \"#utility.yul\":6798:6835   */\n      swap1\n      pop\n        /* \"#utility.yul\":6890:6894   */\n      0x20\n        /* \"#utility.yul\":6884:6888   */\n      dup2\n        /* \"#utility.yul\":6880:6895   */\n      add\n        /* \"#utility.yul\":6872:6895   */\n      swap1\n      pop\n        /* \"#utility.yul\":6594:6902   */\n      swap2\n      swap1\n      pop\n      jump\t// out\n        /* \"#utility.yul\":6908:7056   */\n    tag_308:\n        /* \"#utility.yul\":7006:7012   */\n      dup3\n        /* \"#utility.yul\":7001:7004   */\n      dup2\n        /* \"#utility.yul\":6996:6999   */\n      dup4\n        /* \"#utility.yul\":6983:7013   */\n      calldatacopy\n        /* \"#utility.yul\":7047:7048   */\n      0x00\n        /* \"#utility.yul\":7038:7044   */\n      dup4\n        /* \"#utility.yul\":7033:7036   */\n      dup4\n        /* \"#utility.yul\":7029:7045   */\n      add\n        /* \"#utility.yul\":7022:7049   */\n      mstore\n        /* \"#utility.yul\":6908:7056   */\n      pop\n      pop\n      pop\n      jump\t// out\n        /* \"#utility.yul\":7062:7487   */\n    tag_309:\n        /* \"#utility.yul\":7140:7145   */\n      0x00\n        /* \"#utility.yul\":7165:7231   */\n      tag_433\n        /* \"#utility.yul\":7181:7230   */\n      tag_434\n        /* \"#utility.yul\":7223:7229   */\n      dup5\n        /* \"#utility.yul\":7181:7230   */\n      tag_307\n      jump\t// in\n    tag_434:\n        /* \"#utility.yul\":7165:7231   */\n      tag_306\n      jump\t// in\n    tag_433:\n        /* \"#utility.yul\":7156:7231   */\n      swap1\n      pop\n        /* \"#utility.yul\":7254:7260   */\n      dup3\n        /* \"#utility.yul\":7247:7252   */\n      dup2\n        /* \"#utility.yul\":7240:7261   */\n      mstore\n        /* \"#utility.yul\":7292:7296   */\n      0x20\n        /* \"#utility.yul\":7285:7290   */\n      dup2\n        /* \"#utility.yul\":7281:7297   */\n      add\n        /* \"#utility.yul\":7330:7333   */\n      dup5\n        /* \"#utility.yul\":7321:7327   */\n      dup5\n        /* \"#utility.yul\":7316:7319   */\n      dup5\n        /* \"#utility.yul\":7312:7328   */\n      add\n        /* \"#utility.yul\":7309:7334   */\n      gt\n        /* \"#utility.yul\":7306:7418   */\n      iszero\n      tag_435\n      jumpi\n        /* \"#utility.yul\":7337:7416   */\n      tag_436\n      tag_303\n      jump\t// in\n    tag_436:\n        /* \"#utility.yul\":7306:7418   */\n    tag_435:\n        /* \"#utility.yul\":7427:7481   */\n      tag_437\n        /* \"#utility.yul\":7474:7480   */\n      dup5\n        /* \"#utility.yul\":7469:7472   */\n      dup3\n        /* \"#utility.yul\":7464:7467   */\n      dup6\n        /* \"#utility.yul\":7427:7481   */\n      tag_308\n      jump\t// in\n    tag_437:\n        /* \"#utility.yul\":7146:7487   */\n      pop\n        /* \"#utility.yul\":7062:7487   */\n      swap4\n      swap3\n      pop\n      pop\n      pop\n      jump\t// out\n        /* \"#utility.yul\":7507:7847   */\n    tag_310:\n        /* \"#utility.yul\":7563:7568   */\n      0x00\n        /* \"#utility.yul\":7612:7615   */\n      dup3\n        /* \"#utility.yul\":7605:7609   */\n      0x1f\n        /* \"#utility.yul\":7597:7603   */\n      dup4\n        /* \"#utility.yul\":7593:7610   */\n      add\n        /* \"#utility.yul\":7589:7616   */\n      slt\n        /* \"#utility.yul\":7579:7701   */\n      tag_439\n      jumpi\n        /* \"#utility.yul\":7620:7699   */\n      tag_440\n      tag_302\n      jump\t// in\n    tag_440:\n        /* \"#utility.yul\":7579:7701   */\n    tag_439:\n        /* \"#utility.yul\":7737:7743   */\n      dup2\n        /* \"#utility.yul\":7724:7744   */\n      calldataload\n        /* \"#utility.yul\":7762:7841   */\n      tag_441\n        /* \"#utility.yul\":7837:7840   */\n      dup5\n        /* \"#utility.yul\":7829:7835   */\n      dup3\n        /* \"#utility.yul\":7822:7826   */\n      0x20\n        /* \"#utility.yul\":7814:7820   */\n      dup7\n        /* \"#utility.yul\":7810:7827   */\n      add\n        /* \"#utility.yul\":7762:7841   */\n      tag_309\n      jump\t// in\n    tag_441:\n        /* \"#utility.yul\":7753:7841   */\n      swap2\n      pop\n        /* \"#utility.yul\":7569:7847   */\n      pop\n        /* \"#utility.yul\":7507:7847   */\n      swap3\n      swap2\n      pop\n      pop\n      jump\t// out\n        /* \"#utility.yul\":7853:8362   */\n    tag_47:\n        /* \"#utility.yul\":7922:7928   */\n      0x00\n        /* \"#utility.yul\":7971:7973   */\n      0x20\n        /* \"#utility.yul\":7959:7968   */\n      dup3\n        /* \"#utility.yul\":7950:7957   */\n      dup5\n        /* \"#utility.yul\":7946:7969   */\n      sub\n        /* \"#utility.yul\":7942:7974   */\n      slt\n        /* \"#utility.yul\":7939:8058   */\n      iszero\n      tag_443\n      jumpi\n        /* \"#utility.yul\":7977:8056   */\n      tag_444\n      tag_281\n      jump\t// in\n    tag_444:\n        /* \"#utility.yul\":7939:8058   */\n    tag_443:\n        /* \"#utility.yul\":8125:8126   */\n      0x00\n        /* \"#utility.yul\":8114:8123   */\n      dup3\n        /* \"#utility.yul\":8110:8127   */\n      add\n        /* \"#utility.yul\":8097:8128   */\n      calldataload\n        /* \"#utility.yul\":8155:8173   */\n      0xffffffffffffffff\n        /* \"#utility.yul\":8147:8153   */\n      dup2\n        /* \"#utility.yul\":8144:8174   */\n      gt\n        /* \"#utility.yul\":8141:8258   */\n      iszero\n      tag_445\n      jumpi\n        /* \"#utility.yul\":8177:8256   */\n      tag_446\n      tag_282\n      jump\t// in\n    tag_446:\n        /* \"#utility.yul\":8141:8258   */\n    tag_445:\n        /* \"#utility.yul\":8282:8345   */\n      tag_447\n        /* \"#utility.yul\":8337:8344   */\n      dup5\n        /* \"#utility.yul\":8328:8334   */\n      dup3\n        /* \"#utility.yul\":8317:8326   */\n      dup6\n        /* \"#utility.yul\":8313:8335   */\n      add\n        /* \"#utility.yul\":8282:8345   */\n      tag_310\n      jump\t// in\n    tag_447:\n        /* \"#utility.yul\":8272:8345   */\n      swap2\n      pop\n        /* \"#utility.yul\":8068:8355   */\n      pop\n        /* \"#utility.yul\":7853:8362   */\n      swap3\n      swap2\n      pop\n      pop\n      jump\t// out\n        /* \"#utility.yul\":8368:8486   */\n    tag_311:\n        /* \"#utility.yul\":8455:8479   */\n      tag_449\n        /* \"#utility.yul\":8473:8478   */\n      dup2\n        /* \"#utility.yul\":8455:8479   */\n      tag_293\n      jump\t// in\n    tag_449:\n        /* \"#utility.yul\":8450:8453   */\n      dup3\n        /* \"#utility.yul\":8443:8480   */\n      mstore\n        /* \"#utility.yul\":8368:8486   */\n      pop\n      pop\n      jump\t// out\n        /* \"#utility.yul\":8492:8714   */\n    tag_63:\n        /* \"#utility.yul\":8585:8589   */\n      0x00\n        /* \"#utility.yul\":8623:8625   */\n      0x20\n        /* \"#utility.yul\":8612:8621   */\n      dup3\n        /* \"#utility.yul\":8608:8626   */\n      add\n        /* \"#utility.yul\":8600:8626   */\n      swap1\n      pop\n        /* \"#utility.yul\":8636:8707   */\n      tag_451\n        /* \"#utility.yul\":8704:8705   */\n      0x00\n        /* \"#utility.yul\":8693:8702   */\n      dup4\n        /* \"#utility.yul\":8689:8706   */\n      add\n        /* \"#utility.yul\":8680:8686   */\n      dup5\n        /* \"#utility.yul\":8636:8707   */\n      tag_311\n      jump\t// in\n    tag_451:\n        /* \"#utility.yul\":8492:8714   */\n      swap3\n      swap2\n      pop\n      pop\n      jump\t// out\n        /* \"#utility.yul\":8720:8900   */\n    tag_136:\n        /* \"#utility.yul\":8768:8845   */\n      0x4e487b7100000000000000000000000000000000000000000000000000000000\n        /* \"#utility.yul\":8765:8766   */\n      0x00\n        /* \"#utility.yul\":8758:8846   */\n      mstore\n        /* \"#utility.yul\":8865:8869   */\n      0x21\n        /* \"#utility.yul\":8862:8863   */\n      0x04\n        /* \"#utility.yul\":8855:8870   */\n      mstore\n        /* \"#utility.yul\":8889:8893   */\n      0x24\n        /* \"#utility.yul\":8886:8887   */\n      0x00\n        /* \"#utility.yul\":8879:8894   */\n      revert\n        /* \"#utility.yul\":8906:9028   */\n    tag_312:\n        /* \"#utility.yul\":8996:8997   */\n      0x06\n        /* \"#utility.yul\":8989:8994   */\n      dup2\n        /* \"#utility.yul\":8986:8998   */\n      lt\n        /* \"#utility.yul\":8976:9022   */\n      tag_454\n      jumpi\n        /* \"#utility.yul\":9002:9020   */\n      tag_455\n      tag_136\n      jump\t// in\n    tag_455:\n        /* \"#utility.yul\":8976:9022   */\n    tag_454:\n        /* \"#utility.yul\":8906:9028   */\n      pop\n      jump\t// out\n        /* \"#utility.yul\":9034:9179   */\n    tag_313:\n        /* \"#utility.yul\":9088:9095   */\n      0x00\n        /* \"#utility.yul\":9117:9122   */\n      dup2\n        /* \"#utility.yul\":9106:9122   */\n      swap1\n      pop\n        /* \"#utility.yul\":9123:9173   */\n      tag_457\n        /* \"#utility.yul\":9167:9172   */\n      dup3\n        /* \"#utility.yul\":9123:9173   */\n      tag_312\n      jump\t// in\n    tag_457:\n        /* \"#utility.yul\":9034:9179   */\n      swap2\n      swap1\n      pop\n      jump\t// out\n        /* \"#utility.yul\":9185:9330   */\n    tag_314:\n        /* \"#utility.yul\":9250:9259   */\n      0x00\n        /* \"#utility.yul\":9283:9324   */\n      tag_459\n        /* \"#utility.yul\":9318:9323   */\n      dup3\n        /* \"#utility.yul\":9283:9324   */\n      tag_313\n      jump\t// in\n    tag_459:\n        /* \"#utility.yul\":9270:9324   */\n      swap1\n      pop\n        /* \"#utility.yul\":9185:9330   */\n      swap2\n      swap1\n      pop\n      jump\t// out\n        /* \"#utility.yul\":9336:9497   */\n    tag_315:\n        /* \"#utility.yul\":9438:9490   */\n      tag_461\n        /* \"#utility.yul\":9484:9489   */\n      dup2\n        /* \"#utility.yul\":9438:9490   */\n      tag_314\n      jump\t// in\n    tag_461:\n        /* \"#utility.yul\":9433:9436   */\n      dup3\n        /* \"#utility.yul\":9426:9491   */\n      mstore\n        /* \"#utility.yul\":9336:9497   */\n      pop\n      pop\n      jump\t// out\n        /* \"#utility.yul\":9503:9755   */\n    tag_73:\n        /* \"#utility.yul\":9611:9615   */\n      0x00\n        /* \"#utility.yul\":9649:9651   */\n      0x20\n        /* \"#utility.yul\":9638:9647   */\n      dup3\n        /* \"#utility.yul\":9634:9652   */\n      add\n        /* \"#utility.yul\":9626:9652   */\n      swap1\n      pop\n        /* \"#utility.yul\":9662:9748   */\n      tag_463\n        /* \"#utility.yul\":9745:9746   */\n      0x00\n        /* \"#utility.yul\":9734:9743   */\n      dup4\n        /* \"#utility.yul\":9730:9747   */\n      add\n        /* \"#utility.yul\":9721:9727   */\n      dup5\n        /* \"#utility.yul\":9662:9748   */\n      tag_315\n      jump\t// in\n    tag_463:\n        /* \"#utility.yul\":9503:9755   */\n      swap3\n      swap2\n      pop\n      pop\n      jump\t// out\n        /* \"#utility.yul\":9761:10179   */\n    tag_79:\n        /* \"#utility.yul\":9898:9902   */\n      0x00\n        /* \"#utility.yul\":9936:9938   */\n      0x60\n        /* \"#utility.yul\":9925:9934   */\n      dup3\n        /* \"#utility.yul\":9921:9939   */\n      add\n        /* \"#utility.yul\":9913:9939   */\n      swap1\n      pop\n        /* \"#utility.yul\":9949:10014   */\n      tag_465\n        /* \"#utility.yul\":10011:10012   */\n      0x00\n        /* \"#utility.yul\":10000:10009   */\n      dup4\n        /* \"#utility.yul\":9996:10013   */\n      add\n        /* \"#utility.yul\":9987:9993   */\n      dup7\n        /* \"#utility.yul\":9949:10014   */\n      tag_297\n      jump\t// in\n    tag_465:\n        /* \"#utility.yul\":10024:10090   */\n      tag_466\n        /* \"#utility.yul\":10086:10088   */\n      0x20\n        /* \"#utility.yul\":10075:10084   */\n      dup4\n        /* \"#utility.yul\":10071:10089   */\n      add\n        /* \"#utility.yul\":10062:10068   */\n      dup6\n        /* \"#utility.yul\":10024:10090   */\n      tag_297\n      jump\t// in\n    tag_466:\n        /* \"#utility.yul\":10100:10172   */\n      tag_467\n        /* \"#utility.yul\":10168:10170   */\n      0x40\n        /* \"#utility.yul\":10157:10166   */\n      dup4\n        /* \"#utility.yul\":10153:10171   */\n      add\n        /* \"#utility.yul\":10144:10150   */\n      dup5\n        /* \"#utility.yul\":10100:10172   */\n      tag_286\n      jump\t// in\n    tag_467:\n        /* \"#utility.yul\":9761:10179   */\n      swap5\n      swap4\n      pop\n      pop\n      pop\n      pop\n      jump\t// out\n        /* \"#utility.yul\":10185:10407   */\n    tag_87:\n        /* \"#utility.yul\":10278:10282   */\n      0x00\n        /* \"#utility.yul\":10316:10318   */\n      0x20\n        /* \"#utility.yul\":10305:10314   */\n      dup3\n        /* \"#utility.yul\":10301:10319   */\n      add\n        /* \"#utility.yul\":10293:10319   */\n      swap1\n      pop\n        /* \"#utility.yul\":10329:10400   */\n      tag_469\n        /* \"#utility.yul\":10397:10398   */\n      0x00\n        /* \"#utility.yul\":10386:10395   */\n      dup4\n        /* \"#utility.yul\":10382:10399   */\n      add\n        /* \"#utility.yul\":10373:10379   */\n      dup5\n        /* \"#utility.yul\":10329:10400   */\n      tag_286\n      jump\t// in\n    tag_469:\n        /* \"#utility.yul\":10185:10407   */\n      swap3\n      swap2\n      pop\n      pop\n      jump\t// out\n        /* \"#utility.yul\":10413:10551   */\n    tag_316:\n        /* \"#utility.yul\":10504:10510   */\n      0x00\n        /* \"#utility.yul\":10538:10543   */\n      dup2\n        /* \"#utility.yul\":10532:10544   */\n      mload\n        /* \"#utility.yul\":10522:10544   */\n      swap1\n      pop\n        /* \"#utility.yul\":10413:10551   */\n      swap2\n      swap1\n      pop\n      jump\t// out\n        /* \"#utility.yul\":10557:10765   */\n    tag_317:\n        /* \"#utility.yul\":10680:10691   */\n      0x00\n        /* \"#utility.yul\":10714:10720   */\n      dup3\n        /* \"#utility.yul\":10709:10712   */\n      dup3\n        /* \"#utility.yul\":10702:10721   */\n      mstore\n        /* \"#utility.yul\":10754:10758   */\n      0x20\n        /* \"#utility.yul\":10749:10752   */\n      dup3\n        /* \"#utility.yul\":10745:10759   */\n      add\n        /* \"#utility.yul\":10730:10759   */\n      swap1\n      pop\n        /* \"#utility.yul\":10557:10765   */\n      swap3\n      swap2\n      pop\n      pop\n      jump\t// out\n        /* \"#utility.yul\":10771:10927   */\n    tag_318:\n        /* \"#utility.yul\":10862:10866   */\n      0x00\n        /* \"#utility.yul\":10885:10888   */\n      dup2\n        /* \"#utility.yul\":10877:10888   */\n      swap1\n      pop\n        /* \"#utility.yul\":10915:10919   */\n      0x20\n        /* \"#utility.yul\":10910:10913   */\n      dup3\n        /* \"#utility.yul\":10906:10920   */\n      add\n        /* \"#utility.yul\":10898:10920   */\n      swap1\n      pop\n        /* \"#utility.yul\":10771:10927   */\n      swap2\n      swap1\n      pop\n      jump\t// out\n        /* \"#utility.yul\":10989:11767   */\n    tag_319:\n        /* \"#utility.yul\":11096:11099   */\n      0x00\n        /* \"#utility.yul\":11132:11136   */\n      0x60\n        /* \"#utility.yul\":11127:11130   */\n      dup4\n        /* \"#utility.yul\":11123:11137   */\n      add\n        /* \"#utility.yul\":11217:11221   */\n      0x00\n        /* \"#utility.yul\":11210:11215   */\n      dup4\n        /* \"#utility.yul\":11206:11222   */\n      add\n        /* \"#utility.yul\":11200:11223   */\n      mload\n        /* \"#utility.yul\":11236:11299   */\n      tag_474\n        /* \"#utility.yul\":11293:11297   */\n      0x00\n        /* \"#utility.yul\":11288:11291   */\n      dup7\n        /* \"#utility.yul\":11284:11298   */\n      add\n        /* \"#utility.yul\":11270:11282   */\n      dup3\n        /* \"#utility.yul\":11236:11299   */\n      tag_298\n      jump\t// in\n    tag_474:\n        /* \"#utility.yul\":11147:11309   */\n      pop\n        /* \"#utility.yul\":11398:11402   */\n      0x20\n        /* \"#utility.yul\":11391:11396   */\n      dup4\n        /* \"#utility.yul\":11387:11403   */\n      add\n        /* \"#utility.yul\":11381:11404   */\n      mload\n        /* \"#utility.yul\":11451:11454   */\n      dup5\n        /* \"#utility.yul\":11445:11449   */\n      dup3\n        /* \"#utility.yul\":11441:11455   */\n      sub\n        /* \"#utility.yul\":11434:11438   */\n      0x20\n        /* \"#utility.yul\":11429:11432   */\n      dup7\n        /* \"#utility.yul\":11425:11439   */\n      add\n        /* \"#utility.yul\":11418:11456   */\n      mstore\n        /* \"#utility.yul\":11477:11550   */\n      tag_475\n        /* \"#utility.yul\":11545:11549   */\n      dup3\n        /* \"#utility.yul\":11531:11543   */\n      dup3\n        /* \"#utility.yul\":11477:11550   */\n      tag_300\n      jump\t// in\n    tag_475:\n        /* \"#utility.yul\":11469:11550   */\n      swap2\n      pop\n        /* \"#utility.yul\":11319:11561   */\n      pop\n        /* \"#utility.yul\":11648:11652   */\n      0x40\n        /* \"#utility.yul\":11641:11646   */\n      dup4\n        /* \"#utility.yul\":11637:11653   */\n      add\n        /* \"#utility.yul\":11631:11654   */\n      mload\n        /* \"#utility.yul\":11667:11730   */\n      tag_476\n        /* \"#utility.yul\":11724:11728   */\n      0x40\n        /* \"#utility.yul\":11719:11722   */\n      dup7\n        /* \"#utility.yul\":11715:11729   */\n      add\n        /* \"#utility.yul\":11701:11713   */\n      dup3\n        /* \"#utility.yul\":11667:11730   */\n      tag_298\n      jump\t// in\n    tag_476:\n        /* \"#utility.yul\":11571:11740   */\n      pop\n        /* \"#utility.yul\":11757:11761   */\n      dup1\n        /* \"#utility.yul\":11750:11761   */\n      swap2\n      pop\n        /* \"#utility.yul\":11101:11767   */\n      pop\n        /* \"#utility.yul\":10989:11767   */\n      swap3\n      swap2\n      pop\n      pop\n      jump\t// out\n        /* \"#utility.yul\":11773:12025   */\n    tag_320:\n        /* \"#utility.yul\":11890:11900   */\n      0x00\n        /* \"#utility.yul\":11925:12019   */\n      tag_478\n        /* \"#utility.yul\":12015:12018   */\n      dup4\n        /* \"#utility.yul\":12007:12013   */\n      dup4\n        /* \"#utility.yul\":11925:12019   */\n      tag_319\n      jump\t// in\n    tag_478:\n        /* \"#utility.yul\":11911:12019   */\n      swap1\n      pop\n        /* \"#utility.yul\":11773:12025   */\n      swap3\n      swap2\n      pop\n      pop\n      jump\t// out\n        /* \"#utility.yul\":12031:12168   */\n    tag_321:\n        /* \"#utility.yul\":12125:12129   */\n      0x00\n        /* \"#utility.yul\":12157:12161   */\n      0x20\n        /* \"#utility.yul\":12152:12155   */\n      dup3\n        /* \"#utility.yul\":12148:12162   */\n      add\n        /* \"#utility.yul\":12140:12162   */\n      swap1\n      pop\n        /* \"#utility.yul\":12031:12168   */\n      swap2\n      swap1\n      pop\n      jump\t// out\n        /* \"#utility.yul\":12234:13337   */\n    tag_322:\n        /* \"#utility.yul\":12401:12404   */\n      0x00\n        /* \"#utility.yul\":12430:12508   */\n      tag_481\n        /* \"#utility.yul\":12502:12507   */\n      dup3\n        /* \"#utility.yul\":12430:12508   */\n      tag_316\n      jump\t// in\n    tag_481:\n        /* \"#utility.yul\":12524:12634   */\n      tag_482\n        /* \"#utility.yul\":12627:12633   */\n      dup2\n        /* \"#utility.yul\":12622:12625   */\n      dup6\n        /* \"#utility.yul\":12524:12634   */\n      tag_317\n      jump\t// in\n    tag_482:\n        /* \"#utility.yul\":12517:12634   */\n      swap4\n      pop\n        /* \"#utility.yul\":12660:12663   */\n      dup4\n        /* \"#utility.yul\":12705:12709   */\n      0x20\n        /* \"#utility.yul\":12697:12703   */\n      dup3\n        /* \"#utility.yul\":12693:12710   */\n      mul\n        /* \"#utility.yul\":12688:12691   */\n      dup6\n        /* \"#utility.yul\":12684:12711   */\n      add\n        /* \"#utility.yul\":12735:12815   */\n      tag_483\n        /* \"#utility.yul\":12809:12814   */\n      dup6\n        /* \"#utility.yul\":12735:12815   */\n      tag_318\n      jump\t// in\n    tag_483:\n        /* \"#utility.yul\":12838:12845   */\n      dup1\n        /* \"#utility.yul\":12869:12870   */\n      0x00\n        /* \"#utility.yul\":12854:13292   */\n    tag_484:\n        /* \"#utility.yul\":12879:12885   */\n      dup6\n        /* \"#utility.yul\":12876:12877   */\n      dup2\n        /* \"#utility.yul\":12873:12886   */\n      lt\n        /* \"#utility.yul\":12854:13292   */\n      iszero\n      tag_486\n      jumpi\n        /* \"#utility.yul\":12950:12959   */\n      dup5\n        /* \"#utility.yul\":12944:12948   */\n      dup5\n        /* \"#utility.yul\":12940:12960   */\n      sub\n        /* \"#utility.yul\":12935:12938   */\n      dup10\n        /* \"#utility.yul\":12928:12961   */\n      mstore\n        /* \"#utility.yul\":13001:13007   */\n      dup2\n        /* \"#utility.yul\":12995:13008   */\n      mload\n        /* \"#utility.yul\":13029:13141   */\n      tag_487\n        /* \"#utility.yul\":13136:13140   */\n      dup6\n        /* \"#utility.yul\":13121:13134   */\n      dup3\n        /* \"#utility.yul\":13029:13141   */\n      tag_320\n      jump\t// in\n    tag_487:\n        /* \"#utility.yul\":13021:13141   */\n      swap5\n      pop\n        /* \"#utility.yul\":13164:13248   */\n      tag_488\n        /* \"#utility.yul\":13241:13247   */\n      dup4\n        /* \"#utility.yul\":13164:13248   */\n      tag_321\n      jump\t// in\n    tag_488:\n        /* \"#utility.yul\":13154:13248   */\n      swap3\n      pop\n        /* \"#utility.yul\":13277:13281   */\n      0x20\n        /* \"#utility.yul\":13272:13275   */\n      dup11\n        /* \"#utility.yul\":13268:13282   */\n      add\n        /* \"#utility.yul\":13261:13282   */\n      swap10\n      pop\n        /* \"#utility.yul\":12914:13292   */\n      pop\n        /* \"#utility.yul\":12901:12902   */\n      0x01\n        /* \"#utility.yul\":12898:12899   */\n      dup2\n        /* \"#utility.yul\":12894:12903   */\n      add\n        /* \"#utility.yul\":12889:12903   */\n      swap1\n      pop\n        /* \"#utility.yul\":12854:13292   */\n      jump(tag_484)\n    tag_486:\n        /* \"#utility.yul\":12858:12872   */\n      pop\n        /* \"#utility.yul\":13308:13312   */\n      dup3\n        /* \"#utility.yul\":13301:13312   */\n      swap8\n      pop\n        /* \"#utility.yul\":13328:13331   */\n      dup8\n        /* \"#utility.yul\":13321:13331   */\n      swap6\n      pop\n        /* \"#utility.yul\":12406:13337   */\n      pop\n      pop\n      pop\n      pop\n      pop\n        /* \"#utility.yul\":12234:13337   */\n      swap3\n      swap2\n      pop\n      pop\n      jump\t// out\n        /* \"#utility.yul\":13343:13812   */\n    tag_98:\n        /* \"#utility.yul\":13534:13538   */\n      0x00\n        /* \"#utility.yul\":13572:13574   */\n      0x20\n        /* \"#utility.yul\":13561:13570   */\n      dup3\n        /* \"#utility.yul\":13557:13575   */\n      add\n        /* \"#utility.yul\":13549:13575   */\n      swap1\n      pop\n        /* \"#utility.yul\":13621:13630   */\n      dup2\n        /* \"#utility.yul\":13615:13619   */\n      dup2\n        /* \"#utility.yul\":13611:13631   */\n      sub\n        /* \"#utility.yul\":13607:13608   */\n      0x00\n        /* \"#utility.yul\":13596:13605   */\n      dup4\n        /* \"#utility.yul\":13592:13609   */\n      add\n        /* \"#utility.yul\":13585:13632   */\n      mstore\n        /* \"#utility.yul\":13649:13805   */\n      tag_490\n        /* \"#utility.yul\":13800:13804   */\n      dup2\n        /* \"#utility.yul\":13791:13797   */\n      dup5\n        /* \"#utility.yul\":13649:13805   */\n      tag_322\n      jump\t// in\n    tag_490:\n        /* \"#utility.yul\":13641:13805   */\n      swap1\n      pop\n        /* \"#utility.yul\":13343:13812   */\n      swap3\n      swap2\n      pop\n      pop\n      jump\t// out\n        /* \"#utility.yul\":13818:13998   */\n    tag_323:\n        /* \"#utility.yul\":13866:13943   */\n      0x4e487b7100000000000000000000000000000000000000000000000000000000\n        /* \"#utility.yul\":13863:13864   */\n      0x00\n        /* \"#utility.yul\":13856:13944   */\n      mstore\n        /* \"#utility.yul\":13963:13967   */\n      0x22\n        /* \"#utility.yul\":13960:13961   */\n      0x04\n        /* \"#utility.yul\":13953:13968   */\n      mstore\n        /* \"#utility.yul\":13987:13991   */\n      0x24\n        /* \"#utility.yul\":13984:13985   */\n      0x00\n        /* \"#utility.yul\":13977:13992   */\n      revert\n        /* \"#utility.yul\":14004:14324   */\n    tag_119:\n        /* \"#utility.yul\":14048:14054   */\n      0x00\n        /* \"#utility.yul\":14085:14086   */\n      0x02\n        /* \"#utility.yul\":14079:14083   */\n      dup3\n        /* \"#utility.yul\":14075:14087   */\n      div\n        /* \"#utility.yul\":14065:14087   */\n      swap1\n      pop\n        /* \"#utility.yul\":14132:14133   */\n      0x01\n        /* \"#utility.yul\":14126:14130   */\n      dup3\n        /* \"#utility.yul\":14122:14134   */\n      and\n        /* \"#utility.yul\":14153:14171   */\n      dup1\n        /* \"#utility.yul\":14143:14224   */\n      tag_493\n      jumpi\n        /* \"#utility.yul\":14209:14213   */\n      0x7f\n        /* \"#utility.yul\":14201:14207   */\n      dup3\n        /* \"#utility.yul\":14197:14214   */\n      and\n        /* \"#utility.yul\":14187:14214   */\n      swap2\n      pop\n        /* \"#utility.yul\":14143:14224   */\n    tag_493:\n        /* \"#utility.yul\":14271:14273   */\n      0x20\n        /* \"#utility.yul\":14263:14269   */\n      dup3\n        /* \"#utility.yul\":14260:14274   */\n      lt\n        /* \"#utility.yul\":14240:14258   */\n      dup2\n        /* \"#utility.yul\":14237:14275   */\n      sub\n        /* \"#utility.yul\":14234:14318   */\n      tag_494\n      jumpi\n        /* \"#utility.yul\":14290:14308   */\n      tag_495\n      tag_323\n      jump\t// in\n    tag_495:\n        /* \"#utility.yul\":14234:14318   */\n    tag_494:\n        /* \"#utility.yul\":14055:14324   */\n      pop\n        /* \"#utility.yul\":14004:14324   */\n      swap2\n      swap1\n      pop\n      jump\t// out\n        /* \"#utility.yul\":14330:14508   */\n    tag_324:\n        /* \"#utility.yul\":14470:14500   */\n      0x726567697374726174696f6e20646964206e6f74207374617274656400000000\n        /* \"#utility.yul\":14466:14467   */\n      0x00\n        /* \"#utility.yul\":14458:14464   */\n      dup3\n        /* \"#utility.yul\":14454:14468   */\n      add\n        /* \"#utility.yul\":14447:14501   */\n      mstore\n        /* \"#utility.yul\":14330:14508   */\n      pop\n      jump\t// out\n        /* \"#utility.yul\":14514:14880   */\n    tag_325:\n        /* \"#utility.yul\":14656:14659   */\n      0x00\n        /* \"#utility.yul\":14677:14744   */\n      tag_498\n        /* \"#utility.yul\":14741:14743   */\n      0x1c\n        /* \"#utility.yul\":14736:14739   */\n      dup4\n        /* \"#utility.yul\":14677:14744   */\n      tag_288\n      jump\t// in\n    tag_498:\n        /* \"#utility.yul\":14670:14744   */\n      swap2\n      pop\n        /* \"#utility.yul\":14753:14846   */\n      tag_499\n        /* \"#utility.yul\":14842:14845   */\n      dup3\n        /* \"#utility.yul\":14753:14846   */\n      tag_324\n      jump\t// in\n    tag_499:\n        /* \"#utility.yul\":14871:14873   */\n      0x20\n        /* \"#utility.yul\":14866:14869   */\n      dup3\n        /* \"#utility.yul\":14862:14874   */\n      add\n        /* \"#utility.yul\":14855:14874   */\n      swap1\n      pop\n        /* \"#utility.yul\":14514:14880   */\n      swap2\n      swap1\n      pop\n      jump\t// out\n        /* \"#utility.yul\":14886:15305   */\n    tag_141:\n        /* \"#utility.yul\":15052:15056   */\n      0x00\n        /* \"#utility.yul\":15090:15092   */\n      0x20\n        /* \"#utility.yul\":15079:15088   */\n      dup3\n        /* \"#utility.yul\":15075:15093   */\n      add\n        /* \"#utility.yul\":15067:15093   */\n      swap1\n      pop\n        /* \"#utility.yul\":15139:15148   */\n      dup2\n        /* \"#utility.yul\":15133:15137   */\n      dup2\n        /* \"#utility.yul\":15129:15149   */\n      sub\n        /* \"#utility.yul\":15125:15126   */\n      0x00\n        /* \"#utility.yul\":15114:15123   */\n      dup4\n        /* \"#utility.yul\":15110:15127   */\n      add\n        /* \"#utility.yul\":15103:15150   */\n      mstore\n        /* \"#utility.yul\":15167:15298   */\n      tag_501\n        /* \"#utility.yul\":15293:15297   */\n      dup2\n        /* \"#utility.yul\":15167:15298   */\n      tag_325\n      jump\t// in\n    tag_501:\n        /* \"#utility.yul\":15159:15298   */\n      swap1\n      pop\n        /* \"#utility.yul\":14886:15305   */\n      swap2\n      swap1\n      pop\n      jump\t// out\n        /* \"#utility.yul\":15311:15484   */\n    tag_326:\n        /* \"#utility.yul\":15451:15476   */\n      0x596f7520617265206e6f742077686974656c6973746564000000000000000000\n        /* \"#utility.yul\":15447:15448   */\n      0x00\n        /* \"#utility.yul\":15439:15445   */\n      dup3\n        /* \"#utility.yul\":15435:15449   */\n      add\n        /* \"#utility.yul\":15428:15477   */\n      mstore\n        /* \"#utility.yul\":15311:15484   */\n      pop\n      jump\t// out\n        /* \"#utility.yul\":15490:15856   */\n    tag_327:\n        /* \"#utility.yul\":15632:15635   */\n      0x00\n        /* \"#utility.yul\":15653:15720   */\n      tag_504\n        /* \"#utility.yul\":15717:15719   */\n      0x17\n        /* \"#utility.yul\":15712:15715   */\n      dup4\n        /* \"#utility.yul\":15653:15720   */\n      tag_288\n      jump\t// in\n    tag_504:\n        /* \"#utility.yul\":15646:15720   */\n      swap2\n      pop\n        /* \"#utility.yul\":15729:15822   */\n      tag_505\n        /* \"#utility.yul\":15818:15821   */\n      dup3\n        /* \"#utility.yul\":15729:15822   */\n      tag_326\n      jump\t// in\n    tag_505:\n        /* \"#utility.yul\":15847:15849   */\n      0x20\n        /* \"#utility.yul\":15842:15845   */\n      dup3\n        /* \"#utility.yul\":15838:15850   */\n      add\n        /* \"#utility.yul\":15831:15850   */\n      swap1\n      pop\n        /* \"#utility.yul\":15490:15856   */\n      swap2\n      swap1\n      pop\n      jump\t// out\n        /* \"#utility.yul\":15862:16281   */\n    tag_144:\n        /* \"#utility.yul\":16028:16032   */\n      0x00\n        /* \"#utility.yul\":16066:16068   */\n      0x20\n        /* \"#utility.yul\":16055:16064   */\n      dup3\n        /* \"#utility.yul\":16051:16069   */\n      add\n        /* \"#utility.yul\":16043:16069   */\n      swap1\n      pop\n        /* \"#utility.yul\":16115:16124   */\n      dup2\n        /* \"#utility.yul\":16109:16113   */\n      dup2\n        /* \"#utility.yul\":16105:16125   */\n      sub\n        /* \"#utility.yul\":16101:16102   */\n      0x00\n        /* \"#utility.yul\":16090:16099   */\n      dup4\n        /* \"#utility.yul\":16086:16103   */\n      add\n        /* \"#utility.yul\":16079:16126   */\n      mstore\n        /* \"#utility.yul\":16143:16274   */\n      tag_507\n        /* \"#utility.yul\":16269:16273   */\n      dup2\n        /* \"#utility.yul\":16143:16274   */\n      tag_327\n      jump\t// in\n    tag_507:\n        /* \"#utility.yul\":16135:16274   */\n      swap1\n      pop\n        /* \"#utility.yul\":15862:16281   */\n      swap2\n      swap1\n      pop\n      jump\t// out\n        /* \"#utility.yul\":16287:16428   */\n    tag_328:\n        /* \"#utility.yul\":16336:16340   */\n      0x00\n        /* \"#utility.yul\":16359:16362   */\n      dup2\n        /* \"#utility.yul\":16351:16362   */\n      swap1\n      pop\n        /* \"#utility.yul\":16382:16385   */\n      dup2\n        /* \"#utility.yul\":16379:16380   */\n      0x00\n        /* \"#utility.yul\":16372:16386   */\n      mstore\n        /* \"#utility.yul\":16416:16420   */\n      0x20\n        /* \"#utility.yul\":16413:16414   */\n      0x00\n        /* \"#utility.yul\":16403:16421   */\n      keccak256\n        /* \"#utility.yul\":16395:16421   */\n      swap1\n      pop\n        /* \"#utility.yul\":16287:16428   */\n      swap2\n      swap1\n      pop\n      jump\t// out\n        /* \"#utility.yul\":16434:16527   */\n    tag_329:\n        /* \"#utility.yul\":16471:16477   */\n      0x00\n        /* \"#utility.yul\":16518:16520   */\n      0x20\n        /* \"#utility.yul\":16513:16515   */\n      0x1f\n        /* \"#utility.yul\":16506:16511   */\n      dup4\n        /* \"#utility.yul\":16502:16516   */\n      add\n        /* \"#utility.yul\":16498:16521   */\n      div\n        /* \"#utility.yul\":16488:16521   */\n      swap1\n      pop\n        /* \"#utility.yul\":16434:16527   */\n      swap2\n      swap1\n      pop\n      jump\t// out\n        /* \"#utility.yul\":16533:16640   */\n    tag_330:\n        /* \"#utility.yul\":16577:16585   */\n      0x00\n        /* \"#utility.yul\":16627:16632   */\n      dup3\n        /* \"#utility.yul\":16621:16625   */\n      dup3\n        /* \"#utility.yul\":16617:16633   */\n      shl\n        /* \"#utility.yul\":16596:16633   */\n      swap1\n      pop\n        /* \"#utility.yul\":16533:16640   */\n      swap3\n      swap2\n      pop\n      pop\n      jump\t// out\n        /* \"#utility.yul\":16646:17039   */\n    tag_331:\n        /* \"#utility.yul\":16715:16721   */\n      0x00\n        /* \"#utility.yul\":16765:16766   */\n      0x08\n        /* \"#utility.yul\":16753:16763   */\n      dup4\n        /* \"#utility.yul\":16749:16767   */\n      mul\n        /* \"#utility.yul\":16788:16885   */\n      tag_512\n        /* \"#utility.yul\":16818:16884   */\n      0xffffffffffffffffffffffffffffffffffffffffffffffffffffffffffffffff\n        /* \"#utility.yul\":16807:16816   */\n      dup3\n        /* \"#utility.yul\":16788:16885   */\n      tag_330\n      jump\t// in\n    tag_512:\n        /* \"#utility.yul\":16906:16945   */\n      tag_513\n        /* \"#utility.yul\":16936:16944   */\n      dup7\n        /* \"#utility.yul\":16925:16934   */\n      dup4\n        /* \"#utility.yul\":16906:16945   */\n      tag_330\n      jump\t// in\n    tag_513:\n        /* \"#utility.yul\":16894:16945   */\n      swap6\n      pop\n        /* \"#utility.yul\":16978:16982   */\n      dup1\n        /* \"#utility.yul\":16974:16983   */\n      not\n        /* \"#utility.yul\":16967:16972   */\n      dup5\n        /* \"#utility.yul\":16963:16984   */\n      and\n        /* \"#utility.yul\":16954:16984   */\n      swap4\n      pop\n        /* \"#utility.yul\":17027:17031   */\n      dup1\n        /* \"#utility.yul\":17017:17025   */\n      dup7\n        /* \"#utility.yul\":17013:17032   */\n      and\n        /* \"#utility.yul\":17006:17011   */\n      dup5\n        /* \"#utility.yul\":17003:17033   */\n      or\n        /* \"#utility.yul\":16993:17033   */\n      swap3\n      pop\n        /* \"#utility.yul\":16722:17039   */\n      pop\n      pop\n        /* \"#utility.yul\":16646:17039   */\n      swap4\n      swap3\n      pop\n      pop\n      pop\n      jump\t// out\n        /* \"#utility.yul\":17045:17105   */\n    tag_332:\n        /* \"#utility.yul\":17073:17076   */\n      0x00\n        /* \"#utility.yul\":17094:17099   */\n      dup2\n        /* \"#utility.yul\":17087:17099   */\n      swap1\n      pop\n        /* \"#utility.yul\":17045:17105   */\n      swap2\n      swap1\n      pop\n      jump\t// out\n        /* \"#utility.yul\":17111:17253   */\n    tag_333:\n        /* \"#utility.yul\":17161:17170   */\n      0x00\n        /* \"#utility.yul\":17194:17247   */\n      tag_516\n        /* \"#utility.yul\":17212:17246   */\n      tag_517\n        /* \"#utility.yul\":17221:17245   */\n      tag_518\n        /* \"#utility.yul\":17239:17244   */\n      dup5\n        /* \"#utility.yul\":17221:17245   */\n      tag_283\n      jump\t// in\n    tag_518:\n        /* \"#utility.yul\":17212:17246   */\n      tag_332\n      jump\t// in\n    tag_517:\n        /* \"#utility.yul\":17194:17247   */\n      tag_283\n      jump\t// in\n    tag_516:\n        /* \"#utility.yul\":17181:17247   */\n      swap1\n      pop\n        /* \"#utility.yul\":17111:17253   */\n      swap2\n      swap1\n      pop\n      jump\t// out\n        /* \"#utility.yul\":17259:17334   */\n    tag_334:\n        /* \"#utility.yul\":17302:17305   */\n      0x00\n        /* \"#utility.yul\":17323:17328   */\n      dup2\n        /* \"#utility.yul\":17316:17328   */\n      swap1\n      pop\n        /* \"#utility.yul\":17259:17334   */\n      swap2\n      swap1\n      pop\n      jump\t// out\n        /* \"#utility.yul\":17340:17609   */\n    tag_335:\n        /* \"#utility.yul\":17450:17489   */\n      tag_521\n        /* \"#utility.yul\":17481:17488   */\n      dup4\n        /* \"#utility.yul\":17450:17489   */\n      tag_333\n      jump\t// in\n    tag_521:\n        /* \"#utility.yul\":17511:17602   */\n      tag_522\n        /* \"#utility.yul\":17560:17601   */\n      tag_523\n        /* \"#utility.yul\":17584:17600   */\n      dup3\n        /* \"#utility.yul\":17560:17601   */\n      tag_334\n      jump\t// in\n    tag_523:\n        /* \"#utility.yul\":17552:17558   */\n      dup5\n        /* \"#utility.yul\":17545:17549   */\n      dup5\n        /* \"#utility.yul\":17539:17550   */\n      sload\n        /* \"#utility.yul\":17511:17602   */\n      tag_331\n      jump\t// in\n    tag_522:\n        /* \"#utility.yul\":17505:17509   */\n      dup3\n        /* \"#utility.yul\":17498:17603   */\n      sstore\n        /* \"#utility.yul\":17416:17609   */\n      pop\n        /* \"#utility.yul\":17340:17609   */\n      pop\n      pop\n      pop\n      jump\t// out\n        /* \"#utility.yul\":17615:17688   */\n    tag_336:\n        /* \"#utility.yul\":17660:17663   */\n      0x00\n        /* \"#utility.yul\":17681:17682   */\n      0x00\n        /* \"#utility.yul\":17674:17682   */\n      swap1\n      pop\n        /* \"#utility.yul\":17615:17688   */\n      swap1\n      jump\t// out\n        /* \"#utility.yul\":17694:17883   */\n    tag_337:\n        /* \"#utility.yul\":17771:17803   */\n      tag_526\n      tag_336\n      jump\t// in\n    tag_526:\n        /* \"#utility.yul\":17812:17877   */\n      tag_527\n        /* \"#utility.yul\":17870:17876   */\n      dup2\n        /* \"#utility.yul\":17862:17868   */\n      dup5\n        /* \"#utility.yul\":17856:17860   */\n      dup5\n        /* \"#utility.yul\":17812:17877   */\n      tag_335\n      jump\t// in\n    tag_527:\n        /* \"#utility.yul\":17747:17883   */\n      pop\n        /* \"#utility.yul\":17694:17883   */\n      pop\n      pop\n      jump\t// out\n        /* \"#utility.yul\":17889:18075   */\n    tag_338:\n        /* \"#utility.yul\":17949:18069   */\n    tag_529:\n        /* \"#utility.yul\":17966:17969   */\n      dup2\n        /* \"#utility.yul\":17959:17964   */\n      dup2\n        /* \"#utility.yul\":17956:17970   */\n      lt\n        /* \"#utility.yul\":17949:18069   */\n      iszero\n      tag_531\n      jumpi\n        /* \"#utility.yul\":18020:18059   */\n      tag_532\n        /* \"#utility.yul\":18057:18058   */\n      0x00\n        /* \"#utility.yul\":18050:18055   */\n      dup3\n        /* \"#utility.yul\":18020:18059   */\n      tag_337\n      jump\t// in\n    tag_532:\n        /* \"#utility.yul\":17993:17994   */\n      0x01\n        /* \"#utility.yul\":17986:17991   */\n      dup2\n        /* \"#utility.yul\":17982:17995   */\n      add\n        /* \"#utility.yul\":17973:17995   */\n      swap1\n      pop\n        /* \"#utility.yul\":17949:18069   */\n      jump(tag_529)\n    tag_531:\n        /* \"#utility.yul\":17889:18075   */\n      pop\n      pop\n      jump\t// out\n        /* \"#utility.yul\":18081:18624   */\n    tag_339:\n        /* \"#utility.yul\":18182:18184   */\n      0x1f\n        /* \"#utility.yul\":18177:18180   */\n      dup3\n        /* \"#utility.yul\":18174:18185   */\n      gt\n        /* \"#utility.yul\":18171:18617   */\n      iszero\n      tag_534\n      jumpi\n        /* \"#utility.yul\":18216:18254   */\n      tag_535\n        /* \"#utility.yul\":18248:18253   */\n      dup2\n        /* \"#utility.yul\":18216:18254   */\n      tag_328\n      jump\t// in\n    tag_535:\n        /* \"#utility.yul\":18300:18329   */\n      tag_536\n        /* \"#utility.yul\":18318:18328   */\n      dup5\n        /* \"#utility.yul\":18300:18329   */\n      tag_329\n      jump\t// in\n    tag_536:\n        /* \"#utility.yul\":18290:18298   */\n      dup2\n        /* \"#utility.yul\":18286:18330   */\n      add\n        /* \"#utility.yul\":18483:18485   */\n      0x20\n        /* \"#utility.yul\":18471:18481   */\n      dup6\n        /* \"#utility.yul\":18468:18486   */\n      lt\n        /* \"#utility.yul\":18465:18514   */\n      iszero\n      tag_537\n      jumpi\n        /* \"#utility.yul\":18504:18512   */\n      dup2\n        /* \"#utility.yul\":18489:18512   */\n      swap1\n      pop\n        /* \"#utility.yul\":18465:18514   */\n    tag_537:\n        /* \"#utility.yul\":18527:18607   */\n      tag_538\n        /* \"#utility.yul\":18583:18605   */\n      tag_539\n        /* \"#utility.yul\":18601:18604   */\n      dup6\n        /* \"#utility.yul\":18583:18605   */\n      tag_329\n      jump\t// in\n    tag_539:\n        /* \"#utility.yul\":18573:18581   */\n      dup4\n        /* \"#utility.yul\":18569:18606   */\n      add\n        /* \"#utility.yul\":18556:18567   */\n      dup3\n        /* \"#utility.yul\":18527:18607   */\n      tag_338\n      jump\t// in\n    tag_538:\n        /* \"#utility.yul\":18186:18617   */\n      pop\n      pop\n        /* \"#utility.yul\":18171:18617   */\n    tag_534:\n        /* \"#utility.yul\":18081:18624   */\n      pop\n      pop\n      pop\n      jump\t// out\n        /* \"#utility.yul\":18630:18747   */\n    tag_340:\n        /* \"#utility.yul\":18684:18692   */\n      0x00\n        /* \"#utility.yul\":18734:18739   */\n      dup3\n        /* \"#utility.yul\":18728:18732   */\n      dup3\n        /* \"#utility.yul\":18724:18740   */\n      shr\n        /* \"#utility.yul\":18703:18740   */\n      swap1\n      pop\n        /* \"#utility.yul\":18630:18747   */\n      swap3\n      swap2\n      pop\n      pop\n      jump\t// out\n        /* \"#utility.yul\":18753:18922   */\n    tag_341:\n        /* \"#utility.yul\":18797:18803   */\n      0x00\n        /* \"#utility.yul\":18830:18881   */\n      tag_542\n        /* \"#utility.yul\":18878:18879   */\n      0x00\n        /* \"#utility.yul\":18874:18880   */\n      not\n        /* \"#utility.yul\":18866:18871   */\n      dup5\n        /* \"#utility.yul\":18863:18864   */\n      0x08\n        /* \"#utility.yul\":18859:18872   */\n      mul\n        /* \"#utility.yul\":18830:18881   */\n      tag_340\n      jump\t// in\n    tag_542:\n        /* \"#utility.yul\":18826:18882   */\n      not\n        /* \"#utility.yul\":18911:18915   */\n      dup1\n        /* \"#utility.yul\":18905:18909   */\n      dup4\n        /* \"#utility.yul\":18901:18916   */\n      and\n        /* \"#utility.yul\":18891:18916   */\n      swap2\n      pop\n        /* \"#utility.yul\":18804:18922   */\n      pop\n        /* \"#utility.yul\":18753:18922   */\n      swap3\n      swap2\n      pop\n      pop\n      jump\t// out\n        /* \"#utility.yul\":18927:19222   */\n    tag_342:\n        /* \"#utility.yul\":19003:19007   */\n      0x00\n        /* \"#utility.yul\":19149:19178   */\n      tag_544\n        /* \"#utility.yul\":19174:19177   */\n      dup4\n        /* \"#utility.yul\":19168:19172   */\n      dup4\n        /* \"#utility.yul\":19149:19178   */\n      tag_341\n      jump\t// in\n    tag_544:\n        /* \"#utility.yul\":19141:19178   */\n      swap2\n      pop\n        /* \"#utility.yul\":19211:19214   */\n      dup3\n        /* \"#utility.yul\":19208:19209   */\n      0x02\n        /* \"#utility.yul\":19204:19215   */\n      mul\n        /* \"#utility.yul\":19198:19202   */\n      dup3\n        /* \"#utility.yul\":19195:19216   */\n      or\n        /* \"#utility.yul\":19187:19216   */\n      swap1\n      pop\n        /* \"#utility.yul\":18927:19222   */\n      swap3\n      swap2\n      pop\n      pop\n      jump\t// out\n        /* \"#utility.yul\":19227:20622   */\n    tag_147:\n        /* \"#utility.yul\":19344:19381   */\n      tag_546\n        /* \"#utility.yul\":19377:19380   */\n      dup3\n        /* \"#utility.yul\":19344:19381   */\n      tag_287\n      jump\t// in\n    tag_546:\n        /* \"#utility.yul\":19446:19464   */\n      0xffffffffffffffff\n        /* \"#utility.yul\":19438:19444   */\n      dup2\n        /* \"#utility.yul\":19435:19465   */\n      gt\n        /* \"#utility.yul\":19432:19488   */\n      iszero\n      tag_547\n      jumpi\n        /* \"#utility.yul\":19468:19486   */\n      tag_548\n      tag_304\n      jump\t// in\n    tag_548:\n        /* \"#utility.yul\":19432:19488   */\n    tag_547:\n        /* \"#utility.yul\":19512:19550   */\n      tag_549\n        /* \"#utility.yul\":19544:19548   */\n      dup3\n        /* \"#utility.yul\":19538:19549   */\n      sload\n        /* \"#utility.yul\":19512:19550   */\n      tag_119\n      jump\t// in\n    tag_549:\n        /* \"#utility.yul\":19597:19664   */\n      tag_550\n        /* \"#utility.yul\":19657:19663   */\n      dup3\n        /* \"#utility.yul\":19649:19655   */\n      dup3\n        /* \"#utility.yul\":19643:19647   */\n      dup6\n        /* \"#utility.yul\":19597:19664   */\n      tag_339\n      jump\t// in\n    tag_550:\n        /* \"#utility.yul\":19691:19692   */\n      0x00\n        /* \"#utility.yul\":19715:19719   */\n      0x20\n        /* \"#utility.yul\":19702:19719   */\n      swap1\n      pop\n        /* \"#utility.yul\":19747:19749   */\n      0x1f\n        /* \"#utility.yul\":19739:19745   */\n      dup4\n        /* \"#utility.yul\":19736:19750   */\n      gt\n        /* \"#utility.yul\":19764:19765   */\n      0x01\n        /* \"#utility.yul\":19759:20377   */\n      dup2\n      eq\n      tag_552\n      jumpi\n        /* \"#utility.yul\":20421:20422   */\n      0x00\n        /* \"#utility.yul\":20438:20444   */\n      dup5\n        /* \"#utility.yul\":20435:20512   */\n      iszero\n      tag_553\n      jumpi\n        /* \"#utility.yul\":20487:20496   */\n      dup3\n        /* \"#utility.yul\":20482:20485   */\n      dup8\n        /* \"#utility.yul\":20478:20497   */\n      add\n        /* \"#utility.yul\":20472:20498   */\n      mload\n        /* \"#utility.yul\":20463:20498   */\n      swap1\n      pop\n        /* \"#utility.yul\":20435:20512   */\n    tag_553:\n        /* \"#utility.yul\":20538:20605   */\n      tag_554\n        /* \"#utility.yul\":20598:20604   */\n      dup6\n        /* \"#utility.yul\":20591:20596   */\n      dup3\n        /* \"#utility.yul\":20538:20605   */\n      tag_342\n      jump\t// in\n    tag_554:\n        /* \"#utility.yul\":20532:20536   */\n      dup7\n        /* \"#utility.yul\":20525:20606   */\n      sstore\n        /* \"#utility.yul\":20394:20616   */\n      pop\n        /* \"#utility.yul\":19729:20616   */\n      jump(tag_551)\n        /* \"#utility.yul\":19759:20377   */\n    tag_552:\n        /* \"#utility.yul\":19811:19815   */\n      0x1f\n        /* \"#utility.yul\":19807:19816   */\n      not\n        /* \"#utility.yul\":19799:19805   */\n      dup5\n        /* \"#utility.yul\":19795:19817   */\n      and\n        /* \"#utility.yul\":19845:19882   */\n      tag_555\n        /* \"#utility.yul\":19877:19881   */\n      dup7\n        /* \"#utility.yul\":19845:19882   */\n      tag_328\n      jump\t// in\n    tag_555:\n        /* \"#utility.yul\":19904:19905   */\n      0x00\n        /* \"#utility.yul\":19918:20126   */\n    tag_556:\n        /* \"#utility.yul\":19932:19939   */\n      dup3\n        /* \"#utility.yul\":19929:19930   */\n      dup2\n        /* \"#utility.yul\":19926:19940   */\n      lt\n        /* \"#utility.yul\":19918:20126   */\n      iszero\n      tag_558\n      jumpi\n        /* \"#utility.yul\":20011:20020   */\n      dup5\n        /* \"#utility.yul\":20006:20009   */\n      dup10\n        /* \"#utility.yul\":20002:20021   */\n      add\n        /* \"#utility.yul\":19996:20022   */\n      mload\n        /* \"#utility.yul\":19988:19994   */\n      dup3\n        /* \"#utility.yul\":19981:20023   */\n      sstore\n        /* \"#utility.yul\":20062:20063   */\n      0x01\n        /* \"#utility.yul\":20054:20060   */\n      dup3\n        /* \"#utility.yul\":20050:20064   */\n      add\n        /* \"#utility.yul\":20040:20064   */\n      swap2\n      pop\n        /* \"#utility.yul\":20109:20111   */\n      0x20\n        /* \"#utility.yul\":20098:20107   */\n      dup6\n        /* \"#utility.yul\":20094:20112   */\n      add\n        /* \"#utility.yul\":20081:20112   */\n      swap5\n      pop\n        /* \"#utility.yul\":19955:19959   */\n      0x20\n        /* \"#utility.yul\":19952:19953   */\n      dup2\n        /* \"#utility.yul\":19948:19960   */\n      add\n        /* \"#utility.yul\":19943:19960   */\n      swap1\n      pop\n        /* \"#utility.yul\":19918:20126   */\n      jump(tag_556)\n    tag_558:\n        /* \"#utility.yul\":20154:20160   */\n      dup7\n        /* \"#utility.yul\":20145:20152   */\n      dup4\n        /* \"#utility.yul\":20142:20161   */\n      lt\n        /* \"#utility.yul\":20139:20318   */\n      iszero\n      tag_559\n      jumpi\n        /* \"#utility.yul\":20212:20221   */\n      dup5\n        /* \"#utility.yul\":20207:20210   */\n      dup10\n        /* \"#utility.yul\":20203:20222   */\n      add\n        /* \"#utility.yul\":20197:20223   */\n      mload\n        /* \"#utility.yul\":20255:20303   */\n      tag_560\n        /* \"#utility.yul\":20297:20301   */\n      0x1f\n        /* \"#utility.yul\":20289:20295   */\n      dup10\n        /* \"#utility.yul\":20285:20302   */\n      and\n        /* \"#utility.yul\":20274:20283   */\n      dup3\n        /* \"#utility.yul\":20255:20303   */\n      tag_341\n      jump\t// in\n    tag_560:\n        /* \"#utility.yul\":20247:20253   */\n      dup4\n        /* \"#utility.yul\":20240:20304   */\n      sstore\n        /* \"#utility.yul\":20162:20318   */\n      pop\n        /* \"#utility.yul\":20139:20318   */\n    tag_559:\n        /* \"#utility.yul\":20364:20365   */\n      0x01\n        /* \"#utility.yul\":20360:20361   */\n      0x02\n        /* \"#utility.yul\":20352:20358   */\n      dup9\n        /* \"#utility.yul\":20348:20362   */\n      mul\n        /* \"#utility.yul\":20344:20366   */\n      add\n        /* \"#utility.yul\":20338:20342   */\n      dup9\n        /* \"#utility.yul\":20331:20367   */\n      sstore\n        /* \"#utility.yul\":19766:20377   */\n      pop\n      pop\n      pop\n        /* \"#utility.yul\":19729:20616   */\n    tag_551:\n      pop\n        /* \"#utility.yul\":19319:20622   */\n      pop\n      pop\n      pop\n        /* \"#utility.yul\":19227:20622   */\n      pop\n      pop\n      jump\t// out\n        /* \"#utility.yul\":20628:20808   */\n    tag_343:\n        /* \"#utility.yul\":20676:20753   */\n      0x4e487b7100000000000000000000000000000000000000000000000000000000\n        /* \"#utility.yul\":20673:20674   */\n      0x00\n        /* \"#utility.yul\":20666:20754   */\n      mstore\n        /* \"#utility.yul\":20773:20777   */\n      0x11\n        /* \"#utility.yul\":20770:20771   */\n      0x04\n        /* \"#utility.yul\":20763:20778   */\n      mstore\n        /* \"#utility.yul\":20797:20801   */\n      0x24\n        /* \"#utility.yul\":20794:20795   */\n      0x00\n        /* \"#utility.yul\":20787:20802   */\n      revert\n        /* \"#utility.yul\":20814:21047   */\n    tag_149:\n        /* \"#utility.yul\":20853:20856   */\n      0x00\n        /* \"#utility.yul\":20876:20900   */\n      tag_563\n        /* \"#utility.yul\":20894:20899   */\n      dup3\n        /* \"#utility.yul\":20876:20900   */\n      tag_283\n      jump\t// in\n    tag_563:\n        /* \"#utility.yul\":20867:20900   */\n      swap2\n      pop\n        /* \"#utility.yul\":20922:20988   */\n      0xffffffffffffffffffffffffffffffffffffffffffffffffffffffffffffffff\n        /* \"#utility.yul\":20915:20920   */\n      dup3\n        /* \"#utility.yul\":20912:20989   */\n      sub\n        /* \"#utility.yul\":20909:21012   */\n      tag_564\n      jumpi\n        /* \"#utility.yul\":20992:21010   */\n      tag_565\n      tag_343\n      jump\t// in\n    tag_565:\n        /* \"#utility.yul\":20909:21012   */\n    tag_564:\n        /* \"#utility.yul\":21039:21040   */\n      0x01\n        /* \"#utility.yul\":21032:21037   */\n      dup3\n        /* \"#utility.yul\":21028:21041   */\n      add\n        /* \"#utility.yul\":21021:21041   */\n      swap1\n      pop\n        /* \"#utility.yul\":20814:21047   */\n      swap2\n      swap1\n      pop\n      jump\t// out\n        /* \"#utility.yul\":21053:21274   */\n    tag_344:\n        /* \"#utility.yul\":21193:21227   */\n      0x50726f706f73616c7320726567697374726174696f6e206e6f74207374617274\n        /* \"#utility.yul\":21189:21190   */\n      0x00\n        /* \"#utility.yul\":21181:21187   */\n      dup3\n        /* \"#utility.yul\":21177:21191   */\n      add\n        /* \"#utility.yul\":21170:21228   */\n      mstore\n        /* \"#utility.yul\":21262:21266   */\n      0x6564000000000000000000000000000000000000000000000000000000000000\n        /* \"#utility.yul\":21257:21259   */\n      0x20\n        /* \"#utility.yul\":21249:21255   */\n      dup3\n        /* \"#utility.yul\":21245:21260   */\n      add\n        /* \"#utility.yul\":21238:21267   */\n      mstore\n        /* \"#utility.yul\":21053:21274   */\n      pop\n      jump\t// out\n        /* \"#utility.yul\":21280:21646   */\n    tag_345:\n        /* \"#utility.yul\":21422:21425   */\n      0x00\n        /* \"#utility.yul\":21443:21510   */\n      tag_568\n        /* \"#utility.yul\":21507:21509   */\n      0x22\n        /* \"#utility.yul\":21502:21505   */\n      dup4\n        /* \"#utility.yul\":21443:21510   */\n      tag_288\n      jump\t// in\n    tag_568:\n        /* \"#utility.yul\":21436:21510   */\n      swap2\n      pop\n        /* \"#utility.yul\":21519:21612   */\n      tag_569\n        /* \"#utility.yul\":21608:21611   */\n      dup3\n        /* \"#utility.yul\":21519:21612   */\n      tag_344\n      jump\t// in\n    tag_569:\n        /* \"#utility.yul\":21637:21639   */\n      0x40\n        /* \"#utility.yul\":21632:21635   */\n      dup3\n        /* \"#utility.yul\":21628:21640   */\n      add\n        /* \"#utility.yul\":21621:21640   */\n      swap1\n      pop\n        /* \"#utility.yul\":21280:21646   */\n      swap2\n      swap1\n      pop\n      jump\t// out\n        /* \"#utility.yul\":21652:22071   */\n    tag_160:\n        /* \"#utility.yul\":21818:21822   */\n      0x00\n        /* \"#utility.yul\":21856:21858   */\n      0x20\n        /* \"#utility.yul\":21845:21854   */\n      dup3\n        /* \"#utility.yul\":21841:21859   */\n      add\n        /* \"#utility.yul\":21833:21859   */\n      swap1\n      pop\n        /* \"#utility.yul\":21905:21914   */\n      dup2\n        /* \"#utility.yul\":21899:21903   */\n      dup2\n        /* \"#utility.yul\":21895:21915   */\n      sub\n        /* \"#utility.yul\":21891:21892   */\n      0x00\n        /* \"#utility.yul\":21880:21889   */\n      dup4\n        /* \"#utility.yul\":21876:21893   */\n      add\n        /* \"#utility.yul\":21869:21916   */\n      mstore\n        /* \"#utility.yul\":21933:22064   */\n      tag_571\n        /* \"#utility.yul\":22059:22063   */\n      dup2\n        /* \"#utility.yul\":21933:22064   */\n      tag_345\n      jump\t// in\n    tag_571:\n        /* \"#utility.yul\":21925:22064   */\n      swap1\n      pop\n        /* \"#utility.yul\":21652:22071   */\n      swap2\n      swap1\n      pop\n      jump\t// out\n        /* \"#utility.yul\":22077:22469   */\n    tag_164:\n        /* \"#utility.yul\":22228:22232   */\n      0x00\n        /* \"#utility.yul\":22266:22268   */\n      0x40\n        /* \"#utility.yul\":22255:22264   */\n      dup3\n        /* \"#utility.yul\":22251:22269   */\n      add\n        /* \"#utility.yul\":22243:22269   */\n      swap1\n      pop\n        /* \"#utility.yul\":22279:22365   */\n      tag_573\n        /* \"#utility.yul\":22362:22363   */\n      0x00\n        /* \"#utility.yul\":22351:22360   */\n      dup4\n        /* \"#utility.yul\":22347:22364   */\n      add\n        /* \"#utility.yul\":22338:22344   */\n      dup6\n        /* \"#utility.yul\":22279:22365   */\n      tag_315\n      jump\t// in\n    tag_573:\n        /* \"#utility.yul\":22375:22462   */\n      tag_574\n        /* \"#utility.yul\":22458:22460   */\n      0x20\n        /* \"#utility.yul\":22447:22456   */\n      dup4\n        /* \"#utility.yul\":22443:22461   */\n      add\n        /* \"#utility.yul\":22434:22440   */\n      dup5\n        /* \"#utility.yul\":22375:22462   */\n      tag_315\n      jump\t// in\n    tag_574:\n        /* \"#utility.yul\":22077:22469   */\n      swap4\n      swap3\n      pop\n      pop\n      pop\n      jump\t// out\n        /* \"#utility.yul\":22475:22651   */\n    tag_346:\n        /* \"#utility.yul\":22615:22643   */\n      0x566f74696e672073657373696f6e206e6f742073746172746564000000000000\n        /* \"#utility.yul\":22611:22612   */\n      0x00\n        /* \"#utility.yul\":22603:22609   */\n      dup3\n        /* \"#utility.yul\":22599:22613   */\n      add\n        /* \"#utility.yul\":22592:22644   */\n      mstore\n        /* \"#utility.yul\":22475:22651   */\n      pop\n      jump\t// out\n        /* \"#utility.yul\":22657:23023   */\n    tag_347:\n        /* \"#utility.yul\":22799:22802   */\n      0x00\n        /* \"#utility.yul\":22820:22887   */\n      tag_577\n        /* \"#utility.yul\":22884:22886   */\n      0x1a\n        /* \"#utility.yul\":22879:22882   */\n      dup4\n        /* \"#utility.yul\":22820:22887   */\n      tag_288\n      jump\t// in\n    tag_577:\n        /* \"#utility.yul\":22813:22887   */\n      swap2\n      pop\n        /* \"#utility.yul\":22896:22989   */\n      tag_578\n        /* \"#utility.yul\":22985:22988   */\n      dup3\n        /* \"#utility.yul\":22896:22989   */\n      tag_346\n      jump\t// in\n    tag_578:\n        /* \"#utility.yul\":23014:23016   */\n      0x20\n        /* \"#utility.yul\":23009:23012   */\n      dup3\n        /* \"#utility.yul\":23005:23017   */\n      add\n        /* \"#utility.yul\":22998:23017   */\n      swap1\n      pop\n        /* \"#utility.yul\":22657:23023   */\n      swap2\n      swap1\n      pop\n      jump\t// out\n        /* \"#utility.yul\":23029:23448   */\n    tag_185:\n        /* \"#utility.yul\":23195:23199   */\n      0x00\n        /* \"#utility.yul\":23233:23235   */\n      0x20\n        /* \"#utility.yul\":23222:23231   */\n      dup3\n        /* \"#utility.yul\":23218:23236   */\n      add\n        /* \"#utility.yul\":23210:23236   */\n      swap1\n      pop\n        /* \"#utility.yul\":23282:23291   */\n      dup2\n        /* \"#utility.yul\":23276:23280   */\n      dup2\n        /* \"#utility.yul\":23272:23292   */\n      sub\n        /* \"#utility.yul\":23268:23269   */\n      0x00\n        /* \"#utility.yul\":23257:23266   */\n      dup4\n        /* \"#utility.yul\":23253:23270   */\n      add\n        /* \"#utility.yul\":23246:23293   */\n      mstore\n        /* \"#utility.yul\":23310:23441   */\n      tag_580\n        /* \"#utility.yul\":23436:23440   */\n      dup2\n        /* \"#utility.yul\":23310:23441   */\n      tag_347\n      jump\t// in\n    tag_580:\n        /* \"#utility.yul\":23302:23441   */\n      swap1\n      pop\n        /* \"#utility.yul\":23029:23448   */\n      swap2\n      swap1\n      pop\n      jump\t// out\n        /* \"#utility.yul\":23454:23628   */\n    tag_348:\n        /* \"#utility.yul\":23594:23620   */\n      0x646f20796f75206861766520616c726561647920766f74650000000000000000\n        /* \"#utility.yul\":23590:23591   */\n      0x00\n        /* \"#utility.yul\":23582:23588   */\n      dup3\n        /* \"#utility.yul\":23578:23592   */\n      add\n        /* \"#utility.yul\":23571:23621   */\n      mstore\n        /* \"#utility.yul\":23454:23628   */\n      pop\n      jump\t// out\n        /* \"#utility.yul\":23634:24000   */\n    tag_349:\n        /* \"#utility.yul\":23776:23779   */\n      0x00\n        /* \"#utility.yul\":23797:23864   */\n      tag_583\n        /* \"#utility.yul\":23861:23863   */\n      0x18\n        /* \"#utility.yul\":23856:23859   */\n      dup4\n        /* \"#utility.yul\":23797:23864   */\n      tag_288\n      jump\t// in\n    tag_583:\n        /* \"#utility.yul\":23790:23864   */\n      swap2\n      pop\n        /* \"#utility.yul\":23873:23966   */\n      tag_584\n        /* \"#utility.yul\":23962:23965   */\n      dup3\n        /* \"#utility.yul\":23873:23966   */\n      tag_348\n      jump\t// in\n    tag_584:\n        /* \"#utility.yul\":23991:23993   */\n      0x20\n        /* \"#utility.yul\":23986:23989   */\n      dup3\n        /* \"#utility.yul\":23982:23994   */\n      add\n        /* \"#utility.yul\":23975:23994   */\n      swap1\n      pop\n        /* \"#utility.yul\":23634:24000   */\n      swap2\n      swap1\n      pop\n      jump\t// out\n        /* \"#utility.yul\":24006:24425   */\n    tag_198:\n        /* \"#utility.yul\":24172:24176   */\n      0x00\n        /* \"#utility.yul\":24210:24212   */\n      0x20\n        /* \"#utility.yul\":24199:24208   */\n      dup3\n        /* \"#utility.yul\":24195:24213   */\n      add\n        /* \"#utility.yul\":24187:24213   */\n      swap1\n      pop\n        /* \"#utility.yul\":24259:24268   */\n      dup2\n        /* \"#utility.yul\":24253:24257   */\n      dup2\n        /* \"#utility.yul\":24249:24269   */\n      sub\n        /* \"#utility.yul\":24245:24246   */\n      0x00\n        /* \"#utility.yul\":24234:24243   */\n      dup4\n        /* \"#utility.yul\":24230:24247   */\n      add\n        /* \"#utility.yul\":24223:24270   */\n      mstore\n        /* \"#utility.yul\":24287:24418   */\n      tag_586\n        /* \"#utility.yul\":24413:24417   */\n      dup2\n        /* \"#utility.yul\":24287:24418   */\n      tag_349\n      jump\t// in\n    tag_586:\n        /* \"#utility.yul\":24279:24418   */\n      swap1\n      pop\n        /* \"#utility.yul\":24006:24425   */\n      swap2\n      swap1\n      pop\n      jump\t// out\n        /* \"#utility.yul\":24431:24611   */\n    tag_201:\n        /* \"#utility.yul\":24479:24556   */\n      0x4e487b7100000000000000000000000000000000000000000000000000000000\n        /* \"#utility.yul\":24476:24477   */\n      0x00\n        /* \"#utility.yul\":24469:24557   */\n      mstore\n        /* \"#utility.yul\":24576:24580   */\n      0x32\n        /* \"#utility.yul\":24573:24574   */\n      0x04\n        /* \"#utility.yul\":24566:24581   */\n      mstore\n        /* \"#utility.yul\":24600:24604   */\n      0x24\n        /* \"#utility.yul\":24597:24598   */\n      0x00\n        /* \"#utility.yul\":24590:24605   */\n      revert\n        /* \"#utility.yul\":24617:24791   */\n    tag_350:\n        /* \"#utility.yul\":24757:24783   */\n      0x566f74696e672073657373696f6e206e6f7420656e6465640000000000000000\n        /* \"#utility.yul\":24753:24754   */\n      0x00\n        /* \"#utility.yul\":24745:24751   */\n      dup3\n        /* \"#utility.yul\":24741:24755   */\n      add\n        /* \"#utility.yul\":24734:24784   */\n      mstore\n        /* \"#utility.yul\":24617:24791   */\n      pop\n      jump\t// out\n        /* \"#utility.yul\":24797:25163   */\n    tag_351:\n        /* \"#utility.yul\":24939:24942   */\n      0x00\n        /* \"#utility.yul\":24960:25027   */\n      tag_590\n        /* \"#utility.yul\":25024:25026   */\n      0x18\n        /* \"#utility.yul\":25019:25022   */\n      dup4\n        /* \"#utility.yul\":24960:25027   */\n      tag_288\n      jump\t// in\n    tag_590:\n        /* \"#utility.yul\":24953:25027   */\n      swap2\n      pop\n        /* \"#utility.yul\":25036:25129   */\n      tag_591\n        /* \"#utility.yul\":25125:25128   */\n      dup3\n        /* \"#utility.yul\":25036:25129   */\n      tag_350\n      jump\t// in\n    tag_591:\n        /* \"#utility.yul\":25154:25156   */\n      0x20\n        /* \"#utility.yul\":25149:25152   */\n      dup3\n        /* \"#utility.yul\":25145:25157   */\n      add\n        /* \"#utility.yul\":25138:25157   */\n      swap1\n      pop\n        /* \"#utility.yul\":24797:25163   */\n      swap2\n      swap1\n      pop\n      jump\t// out\n        /* \"#utility.yul\":25169:25588   */\n    tag_211:\n        /* \"#utility.yul\":25335:25339   */\n      0x00\n        /* \"#utility.yul\":25373:25375   */\n      0x20\n        /* \"#utility.yul\":25362:25371   */\n      dup3\n        /* \"#utility.yul\":25358:25376   */\n      add\n        /* \"#utility.yul\":25350:25376   */\n      swap1\n      pop\n        /* \"#utility.yul\":25422:25431   */\n      dup2\n        /* \"#utility.yul\":25416:25420   */\n      dup2\n        /* \"#utility.yul\":25412:25432   */\n      sub\n        /* \"#utility.yul\":25408:25409   */\n      0x00\n        /* \"#utility.yul\":25397:25406   */\n      dup4\n        /* \"#utility.yul\":25393:25410   */\n      add\n        /* \"#utility.yul\":25386:25433   */\n      mstore\n        /* \"#utility.yul\":25450:25581   */\n      tag_593\n        /* \"#utility.yul\":25576:25580   */\n      dup2\n        /* \"#utility.yul\":25450:25581   */\n      tag_351\n      jump\t// in\n    tag_593:\n        /* \"#utility.yul\":25442:25581   */\n      swap1\n      pop\n        /* \"#utility.yul\":25169:25588   */\n      swap2\n      swap1\n      pop\n      jump\t// out\n        /* \"#utility.yul\":25594:25743   */\n    tag_352:\n        /* \"#utility.yul\":25643:25649   */\n      0x00\n        /* \"#utility.yul\":25677:25682   */\n      dup2\n        /* \"#utility.yul\":25671:25683   */\n      sload\n        /* \"#utility.yul\":25661:25683   */\n      swap1\n      pop\n        /* \"#utility.yul\":25703:25736   */\n      tag_595\n        /* \"#utility.yul\":25729:25735   */\n      dup2\n        /* \"#utility.yul\":25703:25736   */\n      tag_119\n      jump\t// in\n    tag_595:\n        /* \"#utility.yul\":25693:25736   */\n      swap1\n      pop\n        /* \"#utility.yul\":25594:25743   */\n      swap2\n      swap1\n      pop\n      jump\t// out\n        /* \"#utility.yul\":25749:27200   */\n    tag_225:\n        /* \"#utility.yul\":25860:25863   */\n      dup2\n        /* \"#utility.yul\":25854:25858   */\n      dup2\n        /* \"#utility.yul\":25851:25864   */\n      sub\n        /* \"#utility.yul\":25848:25874   */\n      tag_597\n      jumpi\n        /* \"#utility.yul\":25867:25872   */\n      pop\n      pop\n      jump(tag_596)\n        /* \"#utility.yul\":25848:25874   */\n    tag_597:\n        /* \"#utility.yul\":25898:25932   */\n      tag_598\n        /* \"#utility.yul\":25928:25931   */\n      dup3\n        /* \"#utility.yul\":25898:25932   */\n      tag_352\n      jump\t// in\n    tag_598:\n        /* \"#utility.yul\":25997:26015   */\n      0xffffffffffffffff\n        /* \"#utility.yul\":25989:25995   */\n      dup2\n        /* \"#utility.yul\":25986:26016   */\n      gt\n        /* \"#utility.yul\":25983:26039   */\n      iszero\n      tag_599\n      jumpi\n        /* \"#utility.yul\":26019:26037   */\n      tag_600\n      tag_304\n      jump\t// in\n    tag_600:\n        /* \"#utility.yul\":25983:26039   */\n    tag_599:\n        /* \"#utility.yul\":26063:26101   */\n      tag_601\n        /* \"#utility.yul\":26095:26099   */\n      dup3\n        /* \"#utility.yul\":26089:26100   */\n      sload\n        /* \"#utility.yul\":26063:26101   */\n      tag_119\n      jump\t// in\n    tag_601:\n        /* \"#utility.yul\":26148:26215   */\n      tag_602\n        /* \"#utility.yul\":26208:26214   */\n      dup3\n        /* \"#utility.yul\":26200:26206   */\n      dup3\n        /* \"#utility.yul\":26194:26198   */\n      dup6\n        /* \"#utility.yul\":26148:26215   */\n      tag_339\n      jump\t// in\n    tag_602:\n        /* \"#utility.yul\":26242:26243   */\n      0x00\n        /* \"#utility.yul\":26271:26273   */\n      0x1f\n        /* \"#utility.yul\":26263:26269   */\n      dup4\n        /* \"#utility.yul\":26260:26274   */\n      gt\n        /* \"#utility.yul\":26288:26289   */\n      0x01\n        /* \"#utility.yul\":26283:26955   */\n      dup2\n      eq\n      tag_604\n      jumpi\n        /* \"#utility.yul\":26999:27000   */\n      0x00\n        /* \"#utility.yul\":27016:27022   */\n      dup5\n        /* \"#utility.yul\":27013:27090   */\n      iszero\n      tag_605\n      jumpi\n        /* \"#utility.yul\":27065:27074   */\n      dup3\n        /* \"#utility.yul\":27060:27063   */\n      dup8\n        /* \"#utility.yul\":27056:27075   */\n      add\n        /* \"#utility.yul\":27050:27076   */\n      sload\n        /* \"#utility.yul\":27041:27076   */\n      swap1\n      pop\n        /* \"#utility.yul\":27013:27090   */\n    tag_605:\n        /* \"#utility.yul\":27116:27183   */\n      tag_606\n        /* \"#utility.yul\":27176:27182   */\n      dup6\n        /* \"#utility.yul\":27169:27174   */\n      dup3\n        /* \"#utility.yul\":27116:27183   */\n      tag_342\n      jump\t// in\n    tag_606:\n        /* \"#utility.yul\":27110:27114   */\n      dup7\n        /* \"#utility.yul\":27103:27184   */\n      sstore\n        /* \"#utility.yul\":26972:27194   */\n      pop\n        /* \"#utility.yul\":26253:27194   */\n      jump(tag_603)\n        /* \"#utility.yul\":26283:26955   */\n    tag_604:\n        /* \"#utility.yul\":26335:26339   */\n      0x1f\n        /* \"#utility.yul\":26331:26340   */\n      not\n        /* \"#utility.yul\":26323:26329   */\n      dup5\n        /* \"#utility.yul\":26319:26341   */\n      and\n        /* \"#utility.yul\":26361:26397   */\n      tag_607\n        /* \"#utility.yul\":26393:26396   */\n      dup8\n        /* \"#utility.yul\":26361:26397   */\n      tag_328\n      jump\t// in\n    tag_607:\n        /* \"#utility.yul\":26354:26397   */\n      swap7\n      pop\n        /* \"#utility.yul\":26424:26461   */\n      tag_608\n        /* \"#utility.yul\":26456:26460   */\n      dup7\n        /* \"#utility.yul\":26424:26461   */\n      tag_328\n      jump\t// in\n    tag_608:\n        /* \"#utility.yul\":26483:26484   */\n      0x00\n        /* \"#utility.yul\":26497:26704   */\n    tag_609:\n        /* \"#utility.yul\":26511:26518   */\n      dup3\n        /* \"#utility.yul\":26508:26509   */\n      dup2\n        /* \"#utility.yul\":26505:26519   */\n      lt\n        /* \"#utility.yul\":26497:26704   */\n      iszero\n      tag_611\n      jumpi\n        /* \"#utility.yul\":26590:26599   */\n      dup5\n        /* \"#utility.yul\":26585:26588   */\n      dup10\n        /* \"#utility.yul\":26581:26600   */\n      add\n        /* \"#utility.yul\":26575:26601   */\n      sload\n        /* \"#utility.yul\":26567:26573   */\n      dup3\n        /* \"#utility.yul\":26560:26602   */\n      sstore\n        /* \"#utility.yul\":26641:26642   */\n      0x01\n        /* \"#utility.yul\":26633:26639   */\n      dup3\n        /* \"#utility.yul\":26629:26643   */\n      add\n        /* \"#utility.yul\":26619:26643   */\n      swap2\n      pop\n        /* \"#utility.yul\":26688:26689   */\n      0x01\n        /* \"#utility.yul\":26677:26686   */\n      dup6\n        /* \"#utility.yul\":26673:26690   */\n      add\n        /* \"#utility.yul\":26660:26690   */\n      swap5\n      pop\n        /* \"#utility.yul\":26534:26538   */\n      0x20\n        /* \"#utility.yul\":26531:26532   */\n      dup2\n        /* \"#utility.yul\":26527:26539   */\n      add\n        /* \"#utility.yul\":26522:26539   */\n      swap1\n      pop\n        /* \"#utility.yul\":26497:26704   */\n      jump(tag_609)\n    tag_611:\n        /* \"#utility.yul\":26732:26738   */\n      dup7\n        /* \"#utility.yul\":26723:26730   */\n      dup4\n        /* \"#utility.yul\":26720:26739   */\n      lt\n        /* \"#utility.yul\":26717:26896   */\n      iszero\n      tag_612\n      jumpi\n        /* \"#utility.yul\":26790:26799   */\n      dup5\n        /* \"#utility.yul\":26785:26788   */\n      dup10\n        /* \"#utility.yul\":26781:26800   */\n      add\n        /* \"#utility.yul\":26775:26801   */\n      sload\n        /* \"#utility.yul\":26833:26881   */\n      tag_613\n        /* \"#utility.yul\":26875:26879   */\n      0x1f\n        /* \"#utility.yul\":26867:26873   */\n      dup10\n        /* \"#utility.yul\":26863:26880   */\n      and\n        /* \"#utility.yul\":26852:26861   */\n      dup3\n        /* \"#utility.yul\":26833:26881   */\n      tag_341\n      jump\t// in\n    tag_613:\n        /* \"#utility.yul\":26825:26831   */\n      dup4\n        /* \"#utility.yul\":26818:26882   */\n      sstore\n        /* \"#utility.yul\":26740:26896   */\n      pop\n        /* \"#utility.yul\":26717:26896   */\n    tag_612:\n        /* \"#utility.yul\":26942:26943   */\n      0x01\n        /* \"#utility.yul\":26938:26939   */\n      0x02\n        /* \"#utility.yul\":26930:26936   */\n      dup9\n        /* \"#utility.yul\":26926:26940   */\n      mul\n        /* \"#utility.yul\":26922:26944   */\n      add\n        /* \"#utility.yul\":26916:26920   */\n      dup9\n        /* \"#utility.yul\":26909:26945   */\n      sstore\n        /* \"#utility.yul\":26290:26955   */\n      pop\n      pop\n      pop\n        /* \"#utility.yul\":26253:27194   */\n    tag_603:\n      pop\n        /* \"#utility.yul\":25838:27200   */\n      pop\n      pop\n      pop\n        /* \"#utility.yul\":25749:27200   */\n      pop\n      pop\n    tag_596:\n      jump\t// out\n        /* \"#utility.yul\":27206:27380   */\n    tag_353:\n        /* \"#utility.yul\":27346:27372   */\n      0x526567697374726174696f6e206e6f7420737461727465640000000000000000\n        /* \"#utility.yul\":27342:27343   */\n      0x00\n        /* \"#utility.yul\":27334:27340   */\n      dup3\n        /* \"#utility.yul\":27330:27344   */\n      add\n        /* \"#utility.yul\":27323:27373   */\n      mstore\n        /* \"#utility.yul\":27206:27380   */\n      pop\n      jump\t// out\n        /* \"#utility.yul\":27386:27752   */\n    tag_354:\n        /* \"#utility.yul\":27528:27531   */\n      0x00\n        /* \"#utility.yul\":27549:27616   */\n      tag_616\n        /* \"#utility.yul\":27613:27615   */\n      0x18\n        /* \"#utility.yul\":27608:27611   */\n      dup4\n        /* \"#utility.yul\":27549:27616   */\n      tag_288\n      jump\t// in\n    tag_616:\n        /* \"#utility.yul\":27542:27616   */\n      swap2\n      pop\n        /* \"#utility.yul\":27625:27718   */\n      tag_617\n        /* \"#utility.yul\":27714:27717   */\n      dup3\n        /* \"#utility.yul\":27625:27718   */\n      tag_353\n      jump\t// in\n    tag_617:\n        /* \"#utility.yul\":27743:27745   */\n      0x20\n        /* \"#utility.yul\":27738:27741   */\n      dup3\n        /* \"#utility.yul\":27734:27746   */\n      add\n        /* \"#utility.yul\":27727:27746   */\n      swap1\n      pop\n        /* \"#utility.yul\":27386:27752   */\n      swap2\n      swap1\n      pop\n      jump\t// out\n        /* \"#utility.yul\":27758:28177   */\n    tag_251:\n        /* \"#utility.yul\":27924:27928   */\n      0x00\n        /* \"#utility.yul\":27962:27964   */\n      0x20\n        /* \"#utility.yul\":27951:27960   */\n      dup3\n        /* \"#utility.yul\":27947:27965   */\n      add\n        /* \"#utility.yul\":27939:27965   */\n      swap1\n      pop\n        /* \"#utility.yul\":28011:28020   */\n      dup2\n        /* \"#utility.yul\":28005:28009   */\n      dup2\n        /* \"#utility.yul\":28001:28021   */\n      sub\n        /* \"#utility.yul\":27997:27998   */\n      0x00\n        /* \"#utility.yul\":27986:27995   */\n      dup4\n        /* \"#utility.yul\":27982:27999   */\n      add\n        /* \"#utility.yul\":27975:28022   */\n      mstore\n        /* \"#utility.yul\":28039:28170   */\n      tag_619\n        /* \"#utility.yul\":28165:28169   */\n      dup2\n        /* \"#utility.yul\":28039:28170   */\n      tag_354\n      jump\t// in\n    tag_619:\n        /* \"#utility.yul\":28031:28170   */\n      swap1\n      pop\n        /* \"#utility.yul\":27758:28177   */\n      swap2\n      swap1\n      pop\n      jump\t// out\n        /* \"#utility.yul\":28183:28365   */\n    tag_355:\n        /* \"#utility.yul\":28323:28357   */\n      0x50726f706f73616c7320726567697374726174696f6e206e6f7420656e646564\n        /* \"#utility.yul\":28319:28320   */\n      0x00\n        /* \"#utility.yul\":28311:28317   */\n      dup3\n        /* \"#utility.yul\":28307:28321   */\n      add\n        /* \"#utility.yul\":28300:28358   */\n      mstore\n        /* \"#utility.yul\":28183:28365   */\n      pop\n      jump\t// out\n        /* \"#utility.yul\":28371:28737   */\n    tag_356:\n        /* \"#utility.yul\":28513:28516   */\n      0x00\n        /* \"#utility.yul\":28534:28601   */\n      tag_622\n        /* \"#utility.yul\":28598:28600   */\n      0x20\n        /* \"#utility.yul\":28593:28596   */\n      dup4\n        /* \"#utility.yul\":28534:28601   */\n      tag_288\n      jump\t// in\n    tag_622:\n        /* \"#utility.yul\":28527:28601   */\n      swap2\n      pop\n        /* \"#utility.yul\":28610:28703   */\n      tag_623\n        /* \"#utility.yul\":28699:28702   */\n      dup3\n        /* \"#utility.yul\":28610:28703   */\n      tag_355\n      jump\t// in\n    tag_623:\n        /* \"#utility.yul\":28728:28730   */\n      0x20\n        /* \"#utility.yul\":28723:28726   */\n      dup3\n        /* \"#utility.yul\":28719:28731   */\n      add\n        /* \"#utility.yul\":28712:28731   */\n      swap1\n      pop\n        /* \"#utility.yul\":28371:28737   */\n      swap2\n      swap1\n      pop\n      jump\t// out\n        /* \"#utility.yul\":28743:29162   */\n    tag_261:\n        /* \"#utility.yul\":28909:28913   */\n      0x00\n        /* \"#utility.yul\":28947:28949   */\n      0x20\n        /* \"#utility.yul\":28936:28945   */\n      dup3\n        /* \"#utility.yul\":28932:28950   */\n      add\n        /* \"#utility.yul\":28924:28950   */\n      swap1\n      pop\n        /* \"#utility.yul\":28996:29005   */\n      dup2\n        /* \"#utility.yul\":28990:28994   */\n      dup2\n        /* \"#utility.yul\":28986:29006   */\n      sub\n        /* \"#utility.yul\":28982:28983   */\n      0x00\n        /* \"#utility.yul\":28971:28980   */\n      dup4\n        /* \"#utility.yul\":28967:28984   */\n      add\n        /* \"#utility.yul\":28960:29007   */\n      mstore\n        /* \"#utility.yul\":29024:29155   */\n      tag_625\n        /* \"#utility.yul\":29150:29154   */\n      dup2\n        /* \"#utility.yul\":29024:29155   */\n      tag_356\n      jump\t// in\n    tag_625:\n        /* \"#utility.yul\":29016:29155   */\n      swap1\n      pop\n        /* \"#utility.yul\":28743:29162   */\n      swap2\n      swap1\n      pop\n      jump\t// out\n\n    auxdata: 0xa264697066735822122073cc26d28370a5c5b718bba7fcb94a80358de97ff8f5e297b19f22ebcae060dc64736f6c634300081e0033\n}\n",
				"bytecode": {
					"linkReferences": {},
					"object": "608060405234801561000f575f5ffd5b50335f73ffffffffffffffffffffffffffffffffffffffff168173ffffffffffffffffffffffffffffffffffffffff1603610081575f6040517f1e4fbdf700000000000000000000000000000000000000000000000000000000815260040161007891906101d6565b60405180910390fd5b610090816100d660201b60201c565b503360015f6101000a81548173ffffffffffffffffffffffffffffffffffffffff021916908373ffffffffffffffffffffffffffffffffffffffff1602179055506101ef565b5f5f5f9054906101000a900473ffffffffffffffffffffffffffffffffffffffff169050815f5f6101000a81548173ffffffffffffffffffffffffffffffffffffffff021916908373ffffffffffffffffffffffffffffffffffffffff1602179055508173ffffffffffffffffffffffffffffffffffffffff168173ffffffffffffffffffffffffffffffffffffffff167f8be0079c531659141344cd1fd0a4f28419497f9722a3daafe3b4186f6b6457e060405160405180910390a35050565b5f73ffffffffffffffffffffffffffffffffffffffff82169050919050565b5f6101c082610197565b9050919050565b6101d0816101b6565b82525050565b5f6020820190506101e95f8301846101c7565b92915050565b612139806101fc5f395ff3fe608060405260043610610129575f3560e01c8063a3ec138d116100aa578063cceb68f51161006e578063cceb68f514610385578063e09b8c79146103af578063e43252d7146103c5578063ee74c678146103e1578063f2fde38b146103f7578063f851a4401461041f57610129565b8063a3ec138d146102d5578063a7bfab1614610313578063c64963c514610329578063c8f5714e14610353578063cc5a66681461036f57610129565b8063715018a6116100f1578063715018a614610203578063781825d1146102195780638da5cb5b146102455780639b19251a1461026f578063a1edffa2146102ab57610129565b8063013cf08b1461012d5780633af32abf1461016b5780634394ba21146101a757806345bf58fd146101d15780636c297445146101ed575b5f5ffd5b348015610138575f5ffd5b50610153600480360381019061014e9190611310565b610449565b604051610162939291906113ba565b60405180910390f35b348015610176575f5ffd5b50610191600480360381019061018c9190611450565b610504565b60405161019e9190611495565b60405180910390f35b3480156101b2575f5ffd5b506101bb610556565b6040516101c89190611552565b60405180910390f35b6101eb60048036038101906101e6919061169e565b610613565b005b3480156101f8575f5ffd5b5061020161079a565b005b34801561020e575f5ffd5b5061021761087e565b005b348015610224575f5ffd5b5061022d610891565b60405161023c939291906113ba565b60405180910390f35b348015610250575f5ffd5b5061025961092e565b60405161026691906116f4565b60405180910390f35b34801561027a575f5ffd5b5061029560048036038101906102909190611450565b610955565b6040516102a29190611495565b60405180910390f35b3480156102b6575f5ffd5b506102bf610972565b6040516102cc9190611780565b60405180910390f35b3480156102e0575f5ffd5b506102fb60048036038101906102f69190611450565b610984565b60405161030a93929190611799565b60405180910390f35b34801561031e575f5ffd5b506103276109c2565b005b348015610334575f5ffd5b5061033d610aa5565b60405161034a91906117ce565b60405180910390f35b61036d60048036038101906103689190611310565b610aab565b005b34801561037a575f5ffd5b50610383610c17565b005b348015610390575f5ffd5b50610399610d90565b6040516103a691906118ef565b60405180910390f35b3480156103ba575f5ffd5b506103c3610e8f565b005b6103df60048036038101906103da9190611450565b610efd565b005b3480156103ec575f5ffd5b506103f5610fd1565b005b348015610402575f5ffd5b5061041d60048036038101906104189190611450565b6110b5565b005b34801561042a575f5ffd5b50610433611139565b60405161044091906116f4565b60405180910390f35b60088181548110610458575f80fd5b905f5260205f2090600302015f91509050805f01549080600101805461047d9061193c565b80601f01602080910402602001604051908101604052809291908181526020018280546104a99061193c565b80156104f45780601f106104cb576101008083540402835291602001916104f4565b820191905f5260205f20905b8154815290600101906020018083116104d757829003601f168201915b5050505050908060020154905083565b5f60095f8373ffffffffffffffffffffffffffffffffffffffff1673ffffffffffffffffffffffffffffffffffffffff1681526020019081526020015f205f9054906101000a900460ff169050919050565b61055e6112ad565b60056040518060600160405290815f82015481526020016001820180546105849061193c565b80601f01602080910402602001604051908101604052809291908181526020018280546105b09061193c565b80156105fb5780601f106105d2576101008083540402835291602001916105fb565b820191905f5260205f20905b8154815290600101906020018083116105de57829003601f168201915b50505050508152602001600282015481525050905090565b600160058111156106275761062661170d565b5b60045f9054906101000a900460ff1660058111156106485761064761170d565b5b14610688576040517f08c379a000000000000000000000000000000000000000000000000000000000815260040161067f906119b6565b60405180910390fd5b60095f3373ffffffffffffffffffffffffffffffffffffffff1673ffffffffffffffffffffffffffffffffffffffff1681526020019081526020015f205f9054906101000a900460ff16610711576040517f08c379a000000000000000000000000000000000000000000000000000000000815260040161070890611a1e565b60405180910390fd5b6008604051806060016040528060035481526020018381526020015f815250908060018154018082558091505060019003905f5260205f2090600302015f909190919091505f820151815f015560208201518160010190816107739190611bdc565b5060408201518160020155505060035f81548092919061079290611cd8565b919050555050565b6107a261115e565b600160058111156107b6576107b561170d565b5b60045f9054906101000a900460ff1660058111156107d7576107d661170d565b5b14610817576040517f08c379a000000000000000000000000000000000000000000000000000000000815260040161080e90611d8f565b60405180910390fd5b600260045f6101000a81548160ff0219169083600581111561083c5761083b61170d565b5b02179055507f0a97a4ee45751e2abf3e4fc8946939630b11b371ea8ae39ccdc3056e98f5cc3f60016002604051610874929190611dad565b60405180910390a1565b61088661115e565b61088f5f6111e5565b565b6005805f0154908060010180546108a79061193c565b80601f01602080910402602001604051908101604052809291908181526020018280546108d39061193c565b801561091e5780601f106108f55761010080835404028352916020019161091e565b820191905f5260205f20905b81548152906001019060200180831161090157829003601f168201915b5050505050908060020154905083565b5f5f5f9054906101000a900473ffffffffffffffffffffffffffffffffffffffff16905090565b6009602052805f5260405f205f915054906101000a900460ff1681565b60045f9054906101000a900460ff1681565b600a602052805f5260405f205f91509050805f015f9054906101000a900460ff1690805f0160019054906101000a900460ff16908060010154905083565b6109ca61115e565b600360058111156109de576109dd61170d565b5b60045f9054906101000a900460ff1660058111156109ff576109fe61170d565b5b14610a3f576040517f08c379a0000000000000000000000000000000000000000000000000000000008152600401610a3690611e1e565b60405180910390fd5b6004805f6101000a81548160ff02191690836005811115610a6357610a6261170d565b5b02179055507f0a97a4ee45751e2abf3e4fc8946939630b11b371ea8ae39ccdc3056e98f5cc3f60036004604051610a9b929190611dad565b60405180910390a1565b60025481565b60036005811115610abf57610abe61170d565b5b60045f9054906101000a900460ff166005811115610ae057610adf61170d565b5b14610b20576040517f08c379a0000000000000000000000000000000000000000000000000000000008152600401610b17906119b6565b60405180910390fd5b5f600a5f3373ffffffffffffffffffffffffffffffffffffffff1673ffffffffffffffffffffffffffffffffffffffff1681526020019081526020015f209050805f0160019054906101000a900460ff1615610bb1576040517f08c379a0000000000000000000000000000000000000000000000000000000008152600401610ba890611e86565b60405180910390fd5b5f60088381548110610bc657610bc5611ea4565b5b905f5260205f2090600302019050806002015f815480929190610be890611cd8565b91905055506001825f0160016101000a81548160ff021916908315150217905550828260010181905550505050565b60046005811115610c2b57610c2a61170d565b5b60045f9054906101000a900460ff166005811115610c4c57610c4b61170d565b5b14610c8c576040517f08c379a0000000000000000000000000000000000000000000000000000000008152600401610c8390611f1b565b60405180910390fd5b600560045f6101000a81548160ff02191690836005811115610cb157610cb061170d565b5b02179055505f5f90505b600880549050811015610d525760056002015460088281548110610ce257610ce1611ea4565b5b905f5260205f209060030201600201541115610d455760088181548110610d0c57610d0b611ea4565b5b905f5260205f20906003020160055f820154815f015560018201816001019081610d369190611f4e565b50600282015481600201559050505b8080600101915050610cbb565b507f0a97a4ee45751e2abf3e4fc8946939630b11b371ea8ae39ccdc3056e98f5cc3f60046005604051610d86929190611dad565b60405180910390a1565b60606008805480602002602001604051908101604052809291908181526020015f905b82821015610e86578382905f5260205f2090600302016040518060600160405290815f8201548152602001600182018054610ded9061193c565b80601f0160208091040260200160405190810160405280929190818152602001828054610e199061193c565b8015610e645780601f10610e3b57610100808354040283529160200191610e64565b820191905f5260205f20905b815481529060010190602001808311610e4757829003601f168201915b5050505050815260200160028201548152505081526020019060010190610db3565b50505050905090565b610e9761115e565b600160045f6101000a81548160ff02191690836005811115610ebc57610ebb61170d565b5b02179055507f0a97a4ee45751e2abf3e4fc8946939630b11b371ea8ae39ccdc3056e98f5cc3f5f6001604051610ef3929190611dad565b60405180910390a1565b610f0561115e565b5f6005811115610f1857610f1761170d565b5b60045f9054906101000a900460ff166005811115610f3957610f3861170d565b5b14610f79576040517f08c379a0000000000000000000000000000000000000000000000000000000008152600401610f709061207d565b60405180910390fd5b600160095f8373ffffffffffffffffffffffffffffffffffffffff1673ffffffffffffffffffffffffffffffffffffffff1681526020019081526020015f205f6101000a81548160ff02191690831515021790555050565b610fd961115e565b60026005811115610fed57610fec61170d565b5b60045f9054906101000a900460ff16600581111561100e5761100d61170d565b5b1461104e576040517f08c379a0000000000000000000000000000000000000000000000000000000008152600401611045906120e5565b60405180910390fd5b600360045f6101000a81548160ff021916908360058111156110735761107261170d565b5b02179055507f0a97a4ee45751e2abf3e4fc8946939630b11b371ea8ae39ccdc3056e98f5cc3f600260036040516110ab929190611dad565b60405180910390a1565b6110bd61115e565b5f73ffffffffffffffffffffffffffffffffffffffff168173ffffffffffffffffffffffffffffffffffffffff160361112d575f6040517f1e4fbdf700000000000000000000000000000000000000000000000000000000815260040161112491906116f4565b60405180910390fd5b611136816111e5565b50565b60015f9054906101000a900473ffffffffffffffffffffffffffffffffffffffff1681565b6111666112a6565b73ffffffffffffffffffffffffffffffffffffffff1661118461092e565b73ffffffffffffffffffffffffffffffffffffffff16146111e3576111a76112a6565b6040517f118cdaa70000000000000000000000000000000000000000000000000000000081526004016111da91906116f4565b60405180910390fd5b565b5f5f5f9054906101000a900473ffffffffffffffffffffffffffffffffffffffff169050815f5f6101000a81548173ffffffffffffffffffffffffffffffffffffffff021916908373ffffffffffffffffffffffffffffffffffffffff1602179055508173ffffffffffffffffffffffffffffffffffffffff168173ffffffffffffffffffffffffffffffffffffffff167f8be0079c531659141344cd1fd0a4f28419497f9722a3daafe3b4186f6b6457e060405160405180910390a35050565b5f33905090565b60405180606001604052805f8152602001606081526020015f81525090565b5f604051905090565b5f5ffd5b5f5ffd5b5f819050919050565b6112ef816112dd565b81146112f9575f5ffd5b50565b5f8135905061130a816112e6565b92915050565b5f60208284031215611325576113246112d5565b5b5f611332848285016112fc565b91505092915050565b611344816112dd565b82525050565b5f81519050919050565b5f82825260208201905092915050565b8281835e5f83830152505050565b5f601f19601f8301169050919050565b5f61138c8261134a565b6113968185611354565b93506113a6818560208601611364565b6113af81611372565b840191505092915050565b5f6060820190506113cd5f83018661133b565b81810360208301526113df8185611382565b90506113ee604083018461133b565b949350505050565b5f73ffffffffffffffffffffffffffffffffffffffff82169050919050565b5f61141f826113f6565b9050919050565b61142f81611415565b8114611439575f5ffd5b50565b5f8135905061144a81611426565b92915050565b5f60208284031215611465576114646112d5565b5b5f6114728482850161143c565b91505092915050565b5f8115159050919050565b61148f8161147b565b82525050565b5f6020820190506114a85f830184611486565b92915050565b6114b7816112dd565b82525050565b5f82825260208201905092915050565b5f6114d78261134a565b6114e181856114bd565b93506114f1818560208601611364565b6114fa81611372565b840191505092915050565b5f606083015f83015161151a5f8601826114ae565b506020830151848203602086015261153282826114cd565b915050604083015161154760408601826114ae565b508091505092915050565b5f6020820190508181035f83015261156a8184611505565b905092915050565b5f5ffd5b5f5ffd5b7f4e487b71000000000000000000000000000000000000000000000000000000005f52604160045260245ffd5b6115b082611372565b810181811067ffffffffffffffff821117156115cf576115ce61157a565b5b80604052505050565b5f6115e16112cc565b90506115ed82826115a7565b919050565b5f67ffffffffffffffff82111561160c5761160b61157a565b5b61161582611372565b9050602081019050919050565b828183375f83830152505050565b5f61164261163d846115f2565b6115d8565b90508281526020810184848401111561165e5761165d611576565b5b611669848285611622565b509392505050565b5f82601f83011261168557611684611572565b5b8135611695848260208601611630565b91505092915050565b5f602082840312156116b3576116b26112d5565b5b5f82013567ffffffffffffffff8111156116d0576116cf6112d9565b5b6116dc84828501611671565b91505092915050565b6116ee81611415565b82525050565b5f6020820190506117075f8301846116e5565b92915050565b7f4e487b71000000000000000000000000000000000000000000000000000000005f52602160045260245ffd5b6006811061174b5761174a61170d565b5b50565b5f81905061175b8261173a565b919050565b5f61176a8261174e565b9050919050565b61177a81611760565b82525050565b5f6020820190506117935f830184611771565b92915050565b5f6060820190506117ac5f830186611486565b6117b96020830185611486565b6117c6604083018461133b565b949350505050565b5f6020820190506117e15f83018461133b565b92915050565b5f81519050919050565b5f82825260208201905092915050565b5f819050602082019050919050565b5f606083015f8301516118255f8601826114ae565b506020830151848203602086015261183d82826114cd565b915050604083015161185260408601826114ae565b508091505092915050565b5f6118688383611810565b905092915050565b5f602082019050919050565b5f611886826117e7565b61189081856117f1565b9350836020820285016118a285611801565b805f5b858110156118dd57848403895281516118be858261185d565b94506118c983611870565b925060208a019950506001810190506118a5565b50829750879550505050505092915050565b5f6020820190508181035f830152611907818461187c565b905092915050565b7f4e487b71000000000000000000000000000000000000000000000000000000005f52602260045260245ffd5b5f600282049050600182168061195357607f821691505b6020821081036119665761196561190f565b5b50919050565b7f726567697374726174696f6e20646964206e6f742073746172746564000000005f82015250565b5f6119a0601c83611354565b91506119ab8261196c565b602082019050919050565b5f6020820190508181035f8301526119cd81611994565b9050919050565b7f596f7520617265206e6f742077686974656c69737465640000000000000000005f82015250565b5f611a08601783611354565b9150611a13826119d4565b602082019050919050565b5f6020820190508181035f830152611a35816119fc565b9050919050565b5f819050815f5260205f209050919050565b5f6020601f8301049050919050565b5f82821b905092915050565b5f60088302611a987fffffffffffffffffffffffffffffffffffffffffffffffffffffffffffffffff82611a5d565b611aa28683611a5d565b95508019841693508086168417925050509392505050565b5f819050919050565b5f611add611ad8611ad3846112dd565b611aba565b6112dd565b9050919050565b5f819050919050565b611af683611ac3565b611b0a611b0282611ae4565b848454611a69565b825550505050565b5f5f905090565b611b21611b12565b611b2c818484611aed565b505050565b5b81811015611b4f57611b445f82611b19565b600181019050611b32565b5050565b601f821115611b9457611b6581611a3c565b611b6e84611a4e565b81016020851015611b7d578190505b611b91611b8985611a4e565b830182611b31565b50505b505050565b5f82821c905092915050565b5f611bb45f1984600802611b99565b1980831691505092915050565b5f611bcc8383611ba5565b9150826002028217905092915050565b611be58261134a565b67ffffffffffffffff811115611bfe57611bfd61157a565b5b611c08825461193c565b611c13828285611b53565b5f60209050601f831160018114611c44575f8415611c32578287015190505b611c3c8582611bc1565b865550611ca3565b601f198416611c5286611a3c565b5f5b82811015611c7957848901518255600182019150602085019450602081019050611c54565b86831015611c965784890151611c92601f891682611ba5565b8355505b6001600288020188555050505b505050505050565b7f4e487b71000000000000000000000000000000000000000000000000000000005f52601160045260245ffd5b5f611ce2826112dd565b91507fffffffffffffffffffffffffffffffffffffffffffffffffffffffffffffffff8203611d1457611d13611cab565b5b600182019050919050565b7f50726f706f73616c7320726567697374726174696f6e206e6f742073746172745f8201527f6564000000000000000000000000000000000000000000000000000000000000602082015250565b5f611d79602283611354565b9150611d8482611d1f565b604082019050919050565b5f6020820190508181035f830152611da681611d6d565b9050919050565b5f604082019050611dc05f830185611771565b611dcd6020830184611771565b9392505050565b7f566f74696e672073657373696f6e206e6f7420737461727465640000000000005f82015250565b5f611e08601a83611354565b9150611e1382611dd4565b602082019050919050565b5f6020820190508181035f830152611e3581611dfc565b9050919050565b7f646f20796f75206861766520616c726561647920766f746500000000000000005f82015250565b5f611e70601883611354565b9150611e7b82611e3c565b602082019050919050565b5f6020820190508181035f830152611e9d81611e64565b9050919050565b7f4e487b71000000000000000000000000000000000000000000000000000000005f52603260045260245ffd5b7f566f74696e672073657373696f6e206e6f7420656e64656400000000000000005f82015250565b5f611f05601883611354565b9150611f1082611ed1565b602082019050919050565b5f6020820190508181035f830152611f3281611ef9565b9050919050565b5f81549050611f478161193c565b9050919050565b818103611f5c575050612031565b611f6582611f39565b67ffffffffffffffff811115611f7e57611f7d61157a565b5b611f88825461193c565b611f93828285611b53565b5f601f831160018114611fc0575f8415611fae578287015490505b611fb88582611bc1565b86555061202a565b601f198416611fce87611a3c565b9650611fd986611a3c565b5f5b8281101561200057848901548255600182019150600185019450602081019050611fdb565b8683101561201d5784890154612019601f891682611ba5565b8355505b6001600288020188555050505b5050505050505b565b7f526567697374726174696f6e206e6f74207374617274656400000000000000005f82015250565b5f612067601883611354565b915061207282612033565b602082019050919050565b5f6020820190508181035f8301526120948161205b565b9050919050565b7f50726f706f73616c7320726567697374726174696f6e206e6f7420656e6465645f82015250565b5f6120cf602083611354565b91506120da8261209b565b602082019050919050565b5f6020820190508181035f8301526120fc816120c3565b905091905056fea264697066735822122073cc26d28370a5c5b718bba7fcb94a80358de97ff8f5e297b19f22ebcae060dc64736f6c634300081e0033",
					"opcodes": "PUSH1 0x80 PUSH1 0x40 MSTORE CALLVALUE DUP1 ISZERO PUSH2 0xF JUMPI PUSH0 PUSH0 REVERT JUMPDEST POP CALLER PUSH0 PUSH20 0xFFFFFFFFFFFFFFFFFFFFFFFFFFFFFFFFFFFFFFFF AND DUP2 PUSH20 0xFFFFFFFFFFFFFFFFFFFFFFFFFFFFFFFFFFFFFFFF AND SUB PUSH2 0x81 JUMPI PUSH0 PUSH1 0x40 MLOAD PUSH32 0x1E4FBDF700000000000000000000000000000000000000000000000000000000 DUP2 MSTORE PUSH1 0x4 ADD PUSH2 0x78 SWAP2 SWAP1 PUSH2 0x1D6 JUMP JUMPDEST PUSH1 0x40 MLOAD DUP1 SWAP2 SUB SWAP1 REVERT JUMPDEST PUSH2 0x90 DUP2 PUSH2 0xD6 PUSH1 0x20 SHL PUSH1 0x20 SHR JUMP JUMPDEST POP CALLER PUSH1 0x1 PUSH0 PUSH2 0x100 EXP DUP2 SLOAD DUP2 PUSH20 0xFFFFFFFFFFFFFFFFFFFFFFFFFFFFFFFFFFFFFFFF MUL NOT AND SWAP1 DUP4 PUSH20 0xFFFFFFFFFFFFFFFFFFFFFFFFFFFFFFFFFFFFFFFF AND MUL OR SWAP1 SSTORE POP PUSH2 0x1EF JUMP JUMPDEST PUSH0 PUSH0 PUSH0 SWAP1 SLOAD SWAP1 PUSH2 0x100 EXP SWAP1 DIV PUSH20 0xFFFFFFFFFFFFFFFFFFFFFFFFFFFFFFFFFFFFFFFF AND SWAP1 POP DUP2 PUSH0 PUSH0 PUSH2 0x100 EXP DUP2 SLOAD DUP2 PUSH20 0xFFFFFFFFFFFFFFFFFFFFFFFFFFFFFFFFFFFFFFFF MUL NOT AND SWAP1 DUP4 PUSH20 0xFFFFFFFFFFFFFFFFFFFFFFFFFFFFFFFFFFFFFFFF AND MUL OR SWAP1 SSTORE POP DUP2 PUSH20 0xFFFFFFFFFFFFFFFFFFFFFFFFFFFFFFFFFFFFFFFF AND DUP2 PUSH20 0xFFFFFFFFFFFFFFFFFFFFFFFFFFFFFFFFFFFFFFFF AND PUSH32 0x8BE0079C531659141344CD1FD0A4F28419497F9722A3DAAFE3B4186F6B6457E0 PUSH1 0x40 MLOAD PUSH1 0x40 MLOAD DUP1 SWAP2 SUB SWAP1 LOG3 POP POP JUMP JUMPDEST PUSH0 PUSH20 0xFFFFFFFFFFFFFFFFFFFFFFFFFFFFFFFFFFFFFFFF DUP3 AND SWAP1 POP SWAP2 SWAP1 POP JUMP JUMPDEST PUSH0 PUSH2 0x1C0 DUP3 PUSH2 0x197 JUMP JUMPDEST SWAP1 POP SWAP2 SWAP1 POP JUMP JUMPDEST PUSH2 0x1D0 DUP2 PUSH2 0x1B6 JUMP JUMPDEST DUP3 MSTORE POP POP JUMP JUMPDEST PUSH0 PUSH1 0x20 DUP3 ADD SWAP1 POP PUSH2 0x1E9 PUSH0 DUP4 ADD DUP5 PUSH2 0x1C7 JUMP JUMPDEST SWAP3 SWAP2 POP POP JUMP JUMPDEST PUSH2 0x2139 DUP1 PUSH2 0x1FC PUSH0 CODECOPY PUSH0 RETURN INVALID PUSH1 0x80 PUSH1 0x40 MSTORE PUSH1 0x4 CALLDATASIZE LT PUSH2 0x129 JUMPI PUSH0 CALLDATALOAD PUSH1 0xE0 SHR DUP1 PUSH4 0xA3EC138D GT PUSH2 0xAA JUMPI DUP1 PUSH4 0xCCEB68F5 GT PUSH2 0x6E JUMPI DUP1 PUSH4 0xCCEB68F5 EQ PUSH2 0x385 JUMPI DUP1 PUSH4 0xE09B8C79 EQ PUSH2 0x3AF JUMPI DUP1 PUSH4 0xE43252D7 EQ PUSH2 0x3C5 JUMPI DUP1 PUSH4 0xEE74C678 EQ PUSH2 0x3E1 JUMPI DUP1 PUSH4 0xF2FDE38B EQ PUSH2 0x3F7 JUMPI DUP1 PUSH4 0xF851A440 EQ PUSH2 0x41F JUMPI PUSH2 0x129 JUMP JUMPDEST DUP1 PUSH4 0xA3EC138D EQ PUSH2 0x2D5 JUMPI DUP1 PUSH4 0xA7BFAB16 EQ PUSH2 0x313 JUMPI DUP1 PUSH4 0xC64963C5 EQ PUSH2 0x329 JUMPI DUP1 PUSH4 0xC8F5714E EQ PUSH2 0x353 JUMPI DUP1 PUSH4 0xCC5A6668 EQ PUSH2 0x36F JUMPI PUSH2 0x129 JUMP JUMPDEST DUP1 PUSH4 0x715018A6 GT PUSH2 0xF1 JUMPI DUP1 PUSH4 0x715018A6 EQ PUSH2 0x203 JUMPI DUP1 PUSH4 0x781825D1 EQ PUSH2 0x219 JUMPI DUP1 PUSH4 0x8DA5CB5B EQ PUSH2 0x245 JUMPI DUP1 PUSH4 0x9B19251A EQ PUSH2 0x26F JUMPI DUP1 PUSH4 0xA1EDFFA2 EQ PUSH2 0x2AB JUMPI PUSH2 0x129 JUMP JUMPDEST DUP1 PUSH4 0x13CF08B EQ PUSH2 0x12D JUMPI DUP1 PUSH4 0x3AF32ABF EQ PUSH2 0x16B JUMPI DUP1 PUSH4 0x4394BA21 EQ PUSH2 0x1A7 JUMPI DUP1 PUSH4 0x45BF58FD EQ PUSH2 0x1D1 JUMPI DUP1 PUSH4 0x6C297445 EQ PUSH2 0x1ED JUMPI JUMPDEST PUSH0 PUSH0 REVERT JUMPDEST CALLVALUE DUP1 ISZERO PUSH2 0x138 JUMPI PUSH0 PUSH0 REVERT JUMPDEST POP PUSH2 0x153 PUSH1 0x4 DUP1 CALLDATASIZE SUB DUP2 ADD SWAP1 PUSH2 0x14E SWAP2 SWAP1 PUSH2 0x1310 JUMP JUMPDEST PUSH2 0x449 JUMP JUMPDEST PUSH1 0x40 MLOAD PUSH2 0x162 SWAP4 SWAP3 SWAP2 SWAP1 PUSH2 0x13BA JUMP JUMPDEST PUSH1 0x40 MLOAD DUP1 SWAP2 SUB SWAP1 RETURN JUMPDEST CALLVALUE DUP1 ISZERO PUSH2 0x176 JUMPI PUSH0 PUSH0 REVERT JUMPDEST POP PUSH2 0x191 PUSH1 0x4 DUP1 CALLDATASIZE SUB DUP2 ADD SWAP1 PUSH2 0x18C SWAP2 SWAP1 PUSH2 0x1450 JUMP JUMPDEST PUSH2 0x504 JUMP JUMPDEST PUSH1 0x40 MLOAD PUSH2 0x19E SWAP2 SWAP1 PUSH2 0x1495 JUMP JUMPDEST PUSH1 0x40 MLOAD DUP1 SWAP2 SUB SWAP1 RETURN JUMPDEST CALLVALUE DUP1 ISZERO PUSH2 0x1B2 JUMPI PUSH0 PUSH0 REVERT JUMPDEST POP PUSH2 0x1BB PUSH2 0x556 JUMP JUMPDEST PUSH1 0x40 MLOAD PUSH2 0x1C8 SWAP2 SWAP1 PUSH2 0x1552 JUMP JUMPDEST PUSH1 0x40 MLOAD DUP1 SWAP2 SUB SWAP1 RETURN JUMPDEST PUSH2 0x1EB PUSH1 0x4 DUP1 CALLDATASIZE SUB DUP2 ADD SWAP1 PUSH2 0x1E6 SWAP2 SWAP1 PUSH2 0x169E JUMP JUMPDEST PUSH2 0x613 JUMP JUMPDEST STOP JUMPDEST CALLVALUE DUP1 ISZERO PUSH2 0x1F8 JUMPI PUSH0 PUSH0 REVERT JUMPDEST POP PUSH2 0x201 PUSH2 0x79A JUMP JUMPDEST STOP JUMPDEST CALLVALUE DUP1 ISZERO PUSH2 0x20E JUMPI PUSH0 PUSH0 REVERT JUMPDEST POP PUSH2 0x217 PUSH2 0x87E JUMP JUMPDEST STOP JUMPDEST CALLVALUE DUP1 ISZERO PUSH2 0x224 JUMPI PUSH0 PUSH0 REVERT JUMPDEST POP PUSH2 0x22D PUSH2 0x891 JUMP JUMPDEST PUSH1 0x40 MLOAD PUSH2 0x23C SWAP4 SWAP3 SWAP2 SWAP1 PUSH2 0x13BA JUMP JUMPDEST PUSH1 0x40 MLOAD DUP1 SWAP2 SUB SWAP1 RETURN JUMPDEST CALLVALUE DUP1 ISZERO PUSH2 0x250 JUMPI PUSH0 PUSH0 REVERT JUMPDEST POP PUSH2 0x259 PUSH2 0x92E JUMP JUMPDEST PUSH1 0x40 MLOAD PUSH2 0x266 SWAP2 SWAP1 PUSH2 0x16F4 JUMP JUMPDEST PUSH1 0x40 MLOAD DUP1 SWAP2 SUB SWAP1 RETURN JUMPDEST CALLVALUE DUP1 ISZERO PUSH2 0x27A JUMPI PUSH0 PUSH0 REVERT JUMPDEST POP PUSH2 0x295 PUSH1 0x4 DUP1 CALLDATASIZE SUB DUP2 ADD SWAP1 PUSH2 0x290 SWAP2 SWAP1 PUSH2 0x1450 JUMP JUMPDEST PUSH2 0x955 JUMP JUMPDEST PUSH1 0x40 MLOAD PUSH2 0x2A2 SWAP2 SWAP1 PUSH2 0x1495 JUMP JUMPDEST PUSH1 0x40 MLOAD DUP1 SWAP2 SUB SWAP1 RETURN JUMPDEST CALLVALUE DUP1 ISZERO PUSH2 0x2B6 JUMPI PUSH0 PUSH0 REVERT JUMPDEST POP PUSH2 0x2BF PUSH2 0x972 JUMP JUMPDEST PUSH1 0x40 MLOAD PUSH2 0x2CC SWAP2 SWAP1 PUSH2 0x1780 JUMP JUMPDEST PUSH1 0x40 MLOAD DUP1 SWAP2 SUB SWAP1 RETURN JUMPDEST CALLVALUE DUP1 ISZERO PUSH2 0x2E0 JUMPI PUSH0 PUSH0 REVERT JUMPDEST POP PUSH2 0x2FB PUSH1 0x4 DUP1 CALLDATASIZE SUB DUP2 ADD SWAP1 PUSH2 0x2F6 SWAP2 SWAP1 PUSH2 0x1450 JUMP JUMPDEST PUSH2 0x984 JUMP JUMPDEST PUSH1 0x40 MLOAD PUSH2 0x30A SWAP4 SWAP3 SWAP2 SWAP1 PUSH2 0x1799 JUMP JUMPDEST PUSH1 0x40 MLOAD DUP1 SWAP2 SUB SWAP1 RETURN JUMPDEST CALLVALUE DUP1 ISZERO PUSH2 0x31E JUMPI PUSH0 PUSH0 REVERT JUMPDEST POP PUSH2 0x327 PUSH2 0x9C2 JUMP JUMPDEST STOP JUMPDEST CALLVALUE DUP1 ISZERO PUSH2 0x334 JUMPI PUSH0 PUSH0 REVERT JUMPDEST POP PUSH2 0x33D PUSH2 0xAA5 JUMP JUMPDEST PUSH1 0x40 MLOAD PUSH2 0x34A SWAP2 SWAP1 PUSH2 0x17CE JUMP JUMPDEST PUSH1 0x40 MLOAD DUP1 SWAP2 SUB SWAP1 RETURN JUMPDEST PUSH2 0x36D PUSH1 0x4 DUP1 CALLDATASIZE SUB DUP2 ADD SWAP1 PUSH2 0x368 SWAP2 SWAP1 PUSH2 0x1310 JUMP JUMPDEST PUSH2 0xAAB JUMP JUMPDEST STOP JUMPDEST CALLVALUE DUP1 ISZERO PUSH2 0x37A JUMPI PUSH0 PUSH0 REVERT JUMPDEST POP PUSH2 0x383 PUSH2 0xC17 JUMP JUMPDEST STOP JUMPDEST CALLVALUE DUP1 ISZERO PUSH2 0x390 JUMPI PUSH0 PUSH0 REVERT JUMPDEST POP PUSH2 0x399 PUSH2 0xD90 JUMP JUMPDEST PUSH1 0x40 MLOAD PUSH2 0x3A6 SWAP2 SWAP1 PUSH2 0x18EF JUMP JUMPDEST PUSH1 0x40 MLOAD DUP1 SWAP2 SUB SWAP1 RETURN JUMPDEST CALLVALUE DUP1 ISZERO PUSH2 0x3BA JUMPI PUSH0 PUSH0 REVERT JUMPDEST POP PUSH2 0x3C3 PUSH2 0xE8F JUMP JUMPDEST STOP JUMPDEST PUSH2 0x3DF PUSH1 0x4 DUP1 CALLDATASIZE SUB DUP2 ADD SWAP1 PUSH2 0x3DA SWAP2 SWAP1 PUSH2 0x1450 JUMP JUMPDEST PUSH2 0xEFD JUMP JUMPDEST STOP JUMPDEST CALLVALUE DUP1 ISZERO PUSH2 0x3EC JUMPI PUSH0 PUSH0 REVERT JUMPDEST POP PUSH2 0x3F5 PUSH2 0xFD1 JUMP JUMPDEST STOP JUMPDEST CALLVALUE DUP1 ISZERO PUSH2 0x402 JUMPI PUSH0 PUSH0 REVERT JUMPDEST POP PUSH2 0x41D PUSH1 0x4 DUP1 CALLDATASIZE SUB DUP2 ADD SWAP1 PUSH2 0x418 SWAP2 SWAP1 PUSH2 0x1450 JUMP JUMPDEST PUSH2 0x10B5 JUMP JUMPDEST STOP JUMPDEST CALLVALUE DUP1 ISZERO PUSH2 0x42A JUMPI PUSH0 PUSH0 REVERT JUMPDEST POP PUSH2 0x433 PUSH2 0x1139 JUMP JUMPDEST PUSH1 0x40 MLOAD PUSH2 0x440 SWAP2 SWAP1 PUSH2 0x16F4 JUMP JUMPDEST PUSH1 0x40 MLOAD DUP1 SWAP2 SUB SWAP1 RETURN JUMPDEST PUSH1 0x8 DUP2 DUP2 SLOAD DUP2 LT PUSH2 0x458 JUMPI PUSH0 DUP1 REVERT JUMPDEST SWAP1 PUSH0 MSTORE PUSH1 0x20 PUSH0 KECCAK256 SWAP1 PUSH1 0x3 MUL ADD PUSH0 SWAP2 POP SWAP1 POP DUP1 PUSH0 ADD SLOAD SWAP1 DUP1 PUSH1 0x1 ADD DUP1 SLOAD PUSH2 0x47D SWAP1 PUSH2 0x193C JUMP JUMPDEST DUP1 PUSH1 0x1F ADD PUSH1 0x20 DUP1 SWAP2 DIV MUL PUSH1 0x20 ADD PUSH1 0x40 MLOAD SWAP1 DUP2 ADD PUSH1 0x40 MSTORE DUP1 SWAP3 SWAP2 SWAP1 DUP2 DUP2 MSTORE PUSH1 0x20 ADD DUP3 DUP1 SLOAD PUSH2 0x4A9 SWAP1 PUSH2 0x193C JUMP JUMPDEST DUP1 ISZERO PUSH2 0x4F4 JUMPI DUP1 PUSH1 0x1F LT PUSH2 0x4CB JUMPI PUSH2 0x100 DUP1 DUP4 SLOAD DIV MUL DUP4 MSTORE SWAP2 PUSH1 0x20 ADD SWAP2 PUSH2 0x4F4 JUMP JUMPDEST DUP3 ADD SWAP2 SWAP1 PUSH0 MSTORE PUSH1 0x20 PUSH0 KECCAK256 SWAP1 JUMPDEST DUP2 SLOAD DUP2 MSTORE SWAP1 PUSH1 0x1 ADD SWAP1 PUSH1 0x20 ADD DUP1 DUP4 GT PUSH2 0x4D7 JUMPI DUP3 SWAP1 SUB PUSH1 0x1F AND DUP3 ADD SWAP2 JUMPDEST POP POP POP POP POP SWAP1 DUP1 PUSH1 0x2 ADD SLOAD SWAP1 POP DUP4 JUMP JUMPDEST PUSH0 PUSH1 0x9 PUSH0 DUP4 PUSH20 0xFFFFFFFFFFFFFFFFFFFFFFFFFFFFFFFFFFFFFFFF AND PUSH20 0xFFFFFFFFFFFFFFFFFFFFFFFFFFFFFFFFFFFFFFFF AND DUP2 MSTORE PUSH1 0x20 ADD SWAP1 DUP2 MSTORE PUSH1 0x20 ADD PUSH0 KECCAK256 PUSH0 SWAP1 SLOAD SWAP1 PUSH2 0x100 EXP SWAP1 DIV PUSH1 0xFF AND SWAP1 POP SWAP2 SWAP1 POP JUMP JUMPDEST PUSH2 0x55E PUSH2 0x12AD JUMP JUMPDEST PUSH1 0x5 PUSH1 0x40 MLOAD DUP1 PUSH1 0x60 ADD PUSH1 0x40 MSTORE SWAP1 DUP2 PUSH0 DUP3 ADD SLOAD DUP2 MSTORE PUSH1 0x20 ADD PUSH1 0x1 DUP3 ADD DUP1 SLOAD PUSH2 0x584 SWAP1 PUSH2 0x193C JUMP JUMPDEST DUP1 PUSH1 0x1F ADD PUSH1 0x20 DUP1 SWAP2 DIV MUL PUSH1 0x20 ADD PUSH1 0x40 MLOAD SWAP1 DUP2 ADD PUSH1 0x40 MSTORE DUP1 SWAP3 SWAP2 SWAP1 DUP2 DUP2 MSTORE PUSH1 0x20 ADD DUP3 DUP1 SLOAD PUSH2 0x5B0 SWAP1 PUSH2 0x193C JUMP JUMPDEST DUP1 ISZERO PUSH2 0x5FB JUMPI DUP1 PUSH1 0x1F LT PUSH2 0x5D2 JUMPI PUSH2 0x100 DUP1 DUP4 SLOAD DIV MUL DUP4 MSTORE SWAP2 PUSH1 0x20 ADD SWAP2 PUSH2 0x5FB JUMP JUMPDEST DUP3 ADD SWAP2 SWAP1 PUSH0 MSTORE PUSH1 0x20 PUSH0 KECCAK256 SWAP1 JUMPDEST DUP2 SLOAD DUP2 MSTORE SWAP1 PUSH1 0x1 ADD SWAP1 PUSH1 0x20 ADD DUP1 DUP4 GT PUSH2 0x5DE JUMPI DUP3 SWAP1 SUB PUSH1 0x1F AND DUP3 ADD SWAP2 JUMPDEST POP POP POP POP POP DUP2 MSTORE PUSH1 0x20 ADD PUSH1 0x2 DUP3 ADD SLOAD DUP2 MSTORE POP POP SWAP1 POP SWAP1 JUMP JUMPDEST PUSH1 0x1 PUSH1 0x5 DUP2 GT ISZERO PUSH2 0x627 JUMPI PUSH2 0x626 PUSH2 0x170D JUMP JUMPDEST JUMPDEST PUSH1 0x4 PUSH0 SWAP1 SLOAD SWAP1 PUSH2 0x100 EXP SWAP1 DIV PUSH1 0xFF AND PUSH1 0x5 DUP2 GT ISZERO PUSH2 0x648 JUMPI PUSH2 0x647 PUSH2 0x170D JUMP JUMPDEST JUMPDEST EQ PUSH2 0x688 JUMPI PUSH1 0x40 MLOAD PUSH32 0x8C379A000000000000000000000000000000000000000000000000000000000 DUP2 MSTORE PUSH1 0x4 ADD PUSH2 0x67F SWAP1 PUSH2 0x19B6 JUMP JUMPDEST PUSH1 0x40 MLOAD DUP1 SWAP2 SUB SWAP1 REVERT JUMPDEST PUSH1 0x9 PUSH0 CALLER PUSH20 0xFFFFFFFFFFFFFFFFFFFFFFFFFFFFFFFFFFFFFFFF AND PUSH20 0xFFFFFFFFFFFFFFFFFFFFFFFFFFFFFFFFFFFFFFFF AND DUP2 MSTORE PUSH1 0x20 ADD SWAP1 DUP2 MSTORE PUSH1 0x20 ADD PUSH0 KECCAK256 PUSH0 SWAP1 SLOAD SWAP1 PUSH2 0x100 EXP SWAP1 DIV PUSH1 0xFF AND PUSH2 0x711 JUMPI PUSH1 0x40 MLOAD PUSH32 0x8C379A000000000000000000000000000000000000000000000000000000000 DUP2 MSTORE PUSH1 0x4 ADD PUSH2 0x708 SWAP1 PUSH2 0x1A1E JUMP JUMPDEST PUSH1 0x40 MLOAD DUP1 SWAP2 SUB SWAP1 REVERT JUMPDEST PUSH1 0x8 PUSH1 0x40 MLOAD DUP1 PUSH1 0x60 ADD PUSH1 0x40 MSTORE DUP1 PUSH1 0x3 SLOAD DUP2 MSTORE PUSH1 0x20 ADD DUP4 DUP2 MSTORE PUSH1 0x20 ADD PUSH0 DUP2 MSTORE POP SWAP1 DUP1 PUSH1 0x1 DUP2 SLOAD ADD DUP1 DUP3 SSTORE DUP1 SWAP2 POP POP PUSH1 0x1 SWAP1 SUB SWAP1 PUSH0 MSTORE PUSH1 0x20 PUSH0 KECCAK256 SWAP1 PUSH1 0x3 MUL ADD PUSH0 SWAP1 SWAP2 SWAP1 SWAP2 SWAP1 SWAP2 POP PUSH0 DUP3 ADD MLOAD DUP2 PUSH0 ADD SSTORE PUSH1 0x20 DUP3 ADD MLOAD DUP2 PUSH1 0x1 ADD SWAP1 DUP2 PUSH2 0x773 SWAP2 SWAP1 PUSH2 0x1BDC JUMP JUMPDEST POP PUSH1 0x40 DUP3 ADD MLOAD DUP2 PUSH1 0x2 ADD SSTORE POP POP PUSH1 0x3 PUSH0 DUP2 SLOAD DUP1 SWAP3 SWAP2 SWAP1 PUSH2 0x792 SWAP1 PUSH2 0x1CD8 JUMP JUMPDEST SWAP2 SWAP1 POP SSTORE POP POP JUMP JUMPDEST PUSH2 0x7A2 PUSH2 0x115E JUMP JUMPDEST PUSH1 0x1 PUSH1 0x5 DUP2 GT ISZERO PUSH2 0x7B6 JUMPI PUSH2 0x7B5 PUSH2 0x170D JUMP JUMPDEST JUMPDEST PUSH1 0x4 PUSH0 SWAP1 SLOAD SWAP1 PUSH2 0x100 EXP SWAP1 DIV PUSH1 0xFF AND PUSH1 0x5 DUP2 GT ISZERO PUSH2 0x7D7 JUMPI PUSH2 0x7D6 PUSH2 0x170D JUMP JUMPDEST JUMPDEST EQ PUSH2 0x817 JUMPI PUSH1 0x40 MLOAD PUSH32 0x8C379A000000000000000000000000000000000000000000000000000000000 DUP2 MSTORE PUSH1 0x4 ADD PUSH2 0x80E SWAP1 PUSH2 0x1D8F JUMP JUMPDEST PUSH1 0x40 MLOAD DUP1 SWAP2 SUB SWAP1 REVERT JUMPDEST PUSH1 0x2 PUSH1 0x4 PUSH0 PUSH2 0x100 EXP DUP2 SLOAD DUP2 PUSH1 0xFF MUL NOT AND SWAP1 DUP4 PUSH1 0x5 DUP2 GT ISZERO PUSH2 0x83C JUMPI PUSH2 0x83B PUSH2 0x170D JUMP JUMPDEST JUMPDEST MUL OR SWAP1 SSTORE POP PUSH32 0xA97A4EE45751E2ABF3E4FC8946939630B11B371EA8AE39CCDC3056E98F5CC3F PUSH1 0x1 PUSH1 0x2 PUSH1 0x40 MLOAD PUSH2 0x874 SWAP3 SWAP2 SWAP1 PUSH2 0x1DAD JUMP JUMPDEST PUSH1 0x40 MLOAD DUP1 SWAP2 SUB SWAP1 LOG1 JUMP JUMPDEST PUSH2 0x886 PUSH2 0x115E JUMP JUMPDEST PUSH2 0x88F PUSH0 PUSH2 0x11E5 JUMP JUMPDEST JUMP JUMPDEST PUSH1 0x5 DUP1 PUSH0 ADD SLOAD SWAP1 DUP1 PUSH1 0x1 ADD DUP1 SLOAD PUSH2 0x8A7 SWAP1 PUSH2 0x193C JUMP JUMPDEST DUP1 PUSH1 0x1F ADD PUSH1 0x20 DUP1 SWAP2 DIV MUL PUSH1 0x20 ADD PUSH1 0x40 MLOAD SWAP1 DUP2 ADD PUSH1 0x40 MSTORE DUP1 SWAP3 SWAP2 SWAP1 DUP2 DUP2 MSTORE PUSH1 0x20 ADD DUP3 DUP1 SLOAD PUSH2 0x8D3 SWAP1 PUSH2 0x193C JUMP JUMPDEST DUP1 ISZERO PUSH2 0x91E JUMPI DUP1 PUSH1 0x1F LT PUSH2 0x8F5 JUMPI PUSH2 0x100 DUP1 DUP4 SLOAD DIV MUL DUP4 MSTORE SWAP2 PUSH1 0x20 ADD SWAP2 PUSH2 0x91E JUMP JUMPDEST DUP3 ADD SWAP2 SWAP1 PUSH0 MSTORE PUSH1 0x20 PUSH0 KECCAK256 SWAP1 JUMPDEST DUP2 SLOAD DUP2 MSTORE SWAP1 PUSH1 0x1 ADD SWAP1 PUSH1 0x20 ADD DUP1 DUP4 GT PUSH2 0x901 JUMPI DUP3 SWAP1 SUB PUSH1 0x1F AND DUP3 ADD SWAP2 JUMPDEST POP POP POP POP POP SWAP1 DUP1 PUSH1 0x2 ADD SLOAD SWAP1 POP DUP4 JUMP JUMPDEST PUSH0 PUSH0 PUSH0 SWAP1 SLOAD SWAP1 PUSH2 0x100 EXP SWAP1 DIV PUSH20 0xFFFFFFFFFFFFFFFFFFFFFFFFFFFFFFFFFFFFFFFF AND SWAP1 POP SWAP1 JUMP JUMPDEST PUSH1 0x9 PUSH1 0x20 MSTORE DUP1 PUSH0 MSTORE PUSH1 0x40 PUSH0 KECCAK256 PUSH0 SWAP2 POP SLOAD SWAP1 PUSH2 0x100 EXP SWAP1 DIV PUSH1 0xFF AND DUP2 JUMP JUMPDEST PUSH1 0x4 PUSH0 SWAP1 SLOAD SWAP1 PUSH2 0x100 EXP SWAP1 DIV PUSH1 0xFF AND DUP2 JUMP JUMPDEST PUSH1 0xA PUSH1 0x20 MSTORE DUP1 PUSH0 MSTORE PUSH1 0x40 PUSH0 KECCAK256 PUSH0 SWAP2 POP SWAP1 POP DUP1 PUSH0 ADD PUSH0 SWAP1 SLOAD SWAP1 PUSH2 0x100 EXP SWAP1 DIV PUSH1 0xFF AND SWAP1 DUP1 PUSH0 ADD PUSH1 0x1 SWAP1 SLOAD SWAP1 PUSH2 0x100 EXP SWAP1 DIV PUSH1 0xFF AND SWAP1 DUP1 PUSH1 0x1 ADD SLOAD SWAP1 POP DUP4 JUMP JUMPDEST PUSH2 0x9CA PUSH2 0x115E JUMP JUMPDEST PUSH1 0x3 PUSH1 0x5 DUP2 GT ISZERO PUSH2 0x9DE JUMPI PUSH2 0x9DD PUSH2 0x170D JUMP JUMPDEST JUMPDEST PUSH1 0x4 PUSH0 SWAP1 SLOAD SWAP1 PUSH2 0x100 EXP SWAP1 DIV PUSH1 0xFF AND PUSH1 0x5 DUP2 GT ISZERO PUSH2 0x9FF JUMPI PUSH2 0x9FE PUSH2 0x170D JUMP JUMPDEST JUMPDEST EQ PUSH2 0xA3F JUMPI PUSH1 0x40 MLOAD PUSH32 0x8C379A000000000000000000000000000000000000000000000000000000000 DUP2 MSTORE PUSH1 0x4 ADD PUSH2 0xA36 SWAP1 PUSH2 0x1E1E JUMP JUMPDEST PUSH1 0x40 MLOAD DUP1 SWAP2 SUB SWAP1 REVERT JUMPDEST PUSH1 0x4 DUP1 PUSH0 PUSH2 0x100 EXP DUP2 SLOAD DUP2 PUSH1 0xFF MUL NOT AND SWAP1 DUP4 PUSH1 0x5 DUP2 GT ISZERO PUSH2 0xA63 JUMPI PUSH2 0xA62 PUSH2 0x170D JUMP JUMPDEST JUMPDEST MUL OR SWAP1 SSTORE POP PUSH32 0xA97A4EE45751E2ABF3E4FC8946939630B11B371EA8AE39CCDC3056E98F5CC3F PUSH1 0x3 PUSH1 0x4 PUSH1 0x40 MLOAD PUSH2 0xA9B SWAP3 SWAP2 SWAP1 PUSH2 0x1DAD JUMP JUMPDEST PUSH1 0x40 MLOAD DUP1 SWAP2 SUB SWAP1 LOG1 JUMP JUMPDEST PUSH1 0x2 SLOAD DUP2 JUMP JUMPDEST PUSH1 0x3 PUSH1 0x5 DUP2 GT ISZERO PUSH2 0xABF JUMPI PUSH2 0xABE PUSH2 0x170D JUMP JUMPDEST JUMPDEST PUSH1 0x4 PUSH0 SWAP1 SLOAD SWAP1 PUSH2 0x100 EXP SWAP1 DIV PUSH1 0xFF AND PUSH1 0x5 DUP2 GT ISZERO PUSH2 0xAE0 JUMPI PUSH2 0xADF PUSH2 0x170D JUMP JUMPDEST JUMPDEST EQ PUSH2 0xB20 JUMPI PUSH1 0x40 MLOAD PUSH32 0x8C379A000000000000000000000000000000000000000000000000000000000 DUP2 MSTORE PUSH1 0x4 ADD PUSH2 0xB17 SWAP1 PUSH2 0x19B6 JUMP JUMPDEST PUSH1 0x40 MLOAD DUP1 SWAP2 SUB SWAP1 REVERT JUMPDEST PUSH0 PUSH1 0xA PUSH0 CALLER PUSH20 0xFFFFFFFFFFFFFFFFFFFFFFFFFFFFFFFFFFFFFFFF AND PUSH20 0xFFFFFFFFFFFFFFFFFFFFFFFFFFFFFFFFFFFFFFFF AND DUP2 MSTORE PUSH1 0x20 ADD SWAP1 DUP2 MSTORE PUSH1 0x20 ADD PUSH0 KECCAK256 SWAP1 POP DUP1 PUSH0 ADD PUSH1 0x1 SWAP1 SLOAD SWAP1 PUSH2 0x100 EXP SWAP1 DIV PUSH1 0xFF AND ISZERO PUSH2 0xBB1 JUMPI PUSH1 0x40 MLOAD PUSH32 0x8C379A000000000000000000000000000000000000000000000000000000000 DUP2 MSTORE PUSH1 0x4 ADD PUSH2 0xBA8 SWAP1 PUSH2 0x1E86 JUMP JUMPDEST PUSH1 0x40 MLOAD DUP1 SWAP2 SUB SWAP1 REVERT JUMPDEST PUSH0 PUSH1 0x8 DUP4 DUP2 SLOAD DUP2 LT PUSH2 0xBC6 JUMPI PUSH2 0xBC5 PUSH2 0x1EA4 JUMP JUMPDEST JUMPDEST SWAP1 PUSH0 MSTORE PUSH1 0x20 PUSH0 KECCAK256 SWAP1 PUSH1 0x3 MUL ADD SWAP1 POP DUP1 PUSH1 0x2 ADD PUSH0 DUP2 SLOAD DUP1 SWAP3 SWAP2 SWAP1 PUSH2 0xBE8 SWAP1 PUSH2 0x1CD8 JUMP JUMPDEST SWAP2 SWAP1 POP SSTORE POP PUSH1 0x1 DUP3 PUSH0 ADD PUSH1 0x1 PUSH2 0x100 EXP DUP2 SLOAD DUP2 PUSH1 0xFF MUL NOT AND SWAP1 DUP4 ISZERO ISZERO MUL OR SWAP1 SSTORE POP DUP3 DUP3 PUSH1 0x1 ADD DUP2 SWAP1 SSTORE POP POP POP POP JUMP JUMPDEST PUSH1 0x4 PUSH1 0x5 DUP2 GT ISZERO PUSH2 0xC2B JUMPI PUSH2 0xC2A PUSH2 0x170D JUMP JUMPDEST JUMPDEST PUSH1 0x4 PUSH0 SWAP1 SLOAD SWAP1 PUSH2 0x100 EXP SWAP1 DIV PUSH1 0xFF AND PUSH1 0x5 DUP2 GT ISZERO PUSH2 0xC4C JUMPI PUSH2 0xC4B PUSH2 0x170D JUMP JUMPDEST JUMPDEST EQ PUSH2 0xC8C JUMPI PUSH1 0x40 MLOAD PUSH32 0x8C379A000000000000000000000000000000000000000000000000000000000 DUP2 MSTORE PUSH1 0x4 ADD PUSH2 0xC83 SWAP1 PUSH2 0x1F1B JUMP JUMPDEST PUSH1 0x40 MLOAD DUP1 SWAP2 SUB SWAP1 REVERT JUMPDEST PUSH1 0x5 PUSH1 0x4 PUSH0 PUSH2 0x100 EXP DUP2 SLOAD DUP2 PUSH1 0xFF MUL NOT AND SWAP1 DUP4 PUSH1 0x5 DUP2 GT ISZERO PUSH2 0xCB1 JUMPI PUSH2 0xCB0 PUSH2 0x170D JUMP JUMPDEST JUMPDEST MUL OR SWAP1 SSTORE POP PUSH0 PUSH0 SWAP1 POP JUMPDEST PUSH1 0x8 DUP1 SLOAD SWAP1 POP DUP2 LT ISZERO PUSH2 0xD52 JUMPI PUSH1 0x5 PUSH1 0x2 ADD SLOAD PUSH1 0x8 DUP3 DUP2 SLOAD DUP2 LT PUSH2 0xCE2 JUMPI PUSH2 0xCE1 PUSH2 0x1EA4 JUMP JUMPDEST JUMPDEST SWAP1 PUSH0 MSTORE PUSH1 0x20 PUSH0 KECCAK256 SWAP1 PUSH1 0x3 MUL ADD PUSH1 0x2 ADD SLOAD GT ISZERO PUSH2 0xD45 JUMPI PUSH1 0x8 DUP2 DUP2 SLOAD DUP2 LT PUSH2 0xD0C JUMPI PUSH2 0xD0B PUSH2 0x1EA4 JUMP JUMPDEST JUMPDEST SWAP1 PUSH0 MSTORE PUSH1 0x20 PUSH0 KECCAK256 SWAP1 PUSH1 0x3 MUL ADD PUSH1 0x5 PUSH0 DUP3 ADD SLOAD DUP2 PUSH0 ADD SSTORE PUSH1 0x1 DUP3 ADD DUP2 PUSH1 0x1 ADD SWAP1 DUP2 PUSH2 0xD36 SWAP2 SWAP1 PUSH2 0x1F4E JUMP JUMPDEST POP PUSH1 0x2 DUP3 ADD SLOAD DUP2 PUSH1 0x2 ADD SSTORE SWAP1 POP POP JUMPDEST DUP1 DUP1 PUSH1 0x1 ADD SWAP2 POP POP PUSH2 0xCBB JUMP JUMPDEST POP PUSH32 0xA97A4EE45751E2ABF3E4FC8946939630B11B371EA8AE39CCDC3056E98F5CC3F PUSH1 0x4 PUSH1 0x5 PUSH1 0x40 MLOAD PUSH2 0xD86 SWAP3 SWAP2 SWAP1 PUSH2 0x1DAD JUMP JUMPDEST PUSH1 0x40 MLOAD DUP1 SWAP2 SUB SWAP1 LOG1 JUMP JUMPDEST PUSH1 0x60 PUSH1 0x8 DUP1 SLOAD DUP1 PUSH1 0x20 MUL PUSH1 0x20 ADD PUSH1 0x40 MLOAD SWAP1 DUP2 ADD PUSH1 0x40 MSTORE DUP1 SWAP3 SWAP2 SWAP1 DUP2 DUP2 MSTORE PUSH1 0x20 ADD PUSH0 SWAP1 JUMPDEST DUP3 DUP3 LT ISZERO PUSH2 0xE86 JUMPI DUP4 DUP3 SWAP1 PUSH0 MSTORE PUSH1 0x20 PUSH0 KECCAK256 SWAP1 PUSH1 0x3 MUL ADD PUSH1 0x40 MLOAD DUP1 PUSH1 0x60 ADD PUSH1 0x40 MSTORE SWAP1 DUP2 PUSH0 DUP3 ADD SLOAD DUP2 MSTORE PUSH1 0x20 ADD PUSH1 0x1 DUP3 ADD DUP1 SLOAD PUSH2 0xDED SWAP1 PUSH2 0x193C JUMP JUMPDEST DUP1 PUSH1 0x1F ADD PUSH1 0x20 DUP1 SWAP2 DIV MUL PUSH1 0x20 ADD PUSH1 0x40 MLOAD SWAP1 DUP2 ADD PUSH1 0x40 MSTORE DUP1 SWAP3 SWAP2 SWAP1 DUP2 DUP2 MSTORE PUSH1 0x20 ADD DUP3 DUP1 SLOAD PUSH2 0xE19 SWAP1 PUSH2 0x193C JUMP JUMPDEST DUP1 ISZERO PUSH2 0xE64 JUMPI DUP1 PUSH1 0x1F LT PUSH2 0xE3B JUMPI PUSH2 0x100 DUP1 DUP4 SLOAD DIV MUL DUP4 MSTORE SWAP2 PUSH1 0x20 ADD SWAP2 PUSH2 0xE64 JUMP JUMPDEST DUP3 ADD SWAP2 SWAP1 PUSH0 MSTORE PUSH1 0x20 PUSH0 KECCAK256 SWAP1 JUMPDEST DUP2 SLOAD DUP2 MSTORE SWAP1 PUSH1 0x1 ADD SWAP1 PUSH1 0x20 ADD DUP1 DUP4 GT PUSH2 0xE47 JUMPI DUP3 SWAP1 SUB PUSH1 0x1F AND DUP3 ADD SWAP2 JUMPDEST POP POP POP POP POP DUP2 MSTORE PUSH1 0x20 ADD PUSH1 0x2 DUP3 ADD SLOAD DUP2 MSTORE POP POP DUP2 MSTORE PUSH1 0x20 ADD SWAP1 PUSH1 0x1 ADD SWAP1 PUSH2 0xDB3 JUMP JUMPDEST POP POP POP POP SWAP1 POP SWAP1 JUMP JUMPDEST PUSH2 0xE97 PUSH2 0x115E JUMP JUMPDEST PUSH1 0x1 PUSH1 0x4 PUSH0 PUSH2 0x100 EXP DUP2 SLOAD DUP2 PUSH1 0xFF MUL NOT AND SWAP1 DUP4 PUSH1 0x5 DUP2 GT ISZERO PUSH2 0xEBC JUMPI PUSH2 0xEBB PUSH2 0x170D JUMP JUMPDEST JUMPDEST MUL OR SWAP1 SSTORE POP PUSH32 0xA97A4EE45751E2ABF3E4FC8946939630B11B371EA8AE39CCDC3056E98F5CC3F PUSH0 PUSH1 0x1 PUSH1 0x40 MLOAD PUSH2 0xEF3 SWAP3 SWAP2 SWAP1 PUSH2 0x1DAD JUMP JUMPDEST PUSH1 0x40 MLOAD DUP1 SWAP2 SUB SWAP1 LOG1 JUMP JUMPDEST PUSH2 0xF05 PUSH2 0x115E JUMP JUMPDEST PUSH0 PUSH1 0x5 DUP2 GT ISZERO PUSH2 0xF18 JUMPI PUSH2 0xF17 PUSH2 0x170D JUMP JUMPDEST JUMPDEST PUSH1 0x4 PUSH0 SWAP1 SLOAD SWAP1 PUSH2 0x100 EXP SWAP1 DIV PUSH1 0xFF AND PUSH1 0x5 DUP2 GT ISZERO PUSH2 0xF39 JUMPI PUSH2 0xF38 PUSH2 0x170D JUMP JUMPDEST JUMPDEST EQ PUSH2 0xF79 JUMPI PUSH1 0x40 MLOAD PUSH32 0x8C379A000000000000000000000000000000000000000000000000000000000 DUP2 MSTORE PUSH1 0x4 ADD PUSH2 0xF70 SWAP1 PUSH2 0x207D JUMP JUMPDEST PUSH1 0x40 MLOAD DUP1 SWAP2 SUB SWAP1 REVERT JUMPDEST PUSH1 0x1 PUSH1 0x9 PUSH0 DUP4 PUSH20 0xFFFFFFFFFFFFFFFFFFFFFFFFFFFFFFFFFFFFFFFF AND PUSH20 0xFFFFFFFFFFFFFFFFFFFFFFFFFFFFFFFFFFFFFFFF AND DUP2 MSTORE PUSH1 0x20 ADD SWAP1 DUP2 MSTORE PUSH1 0x20 ADD PUSH0 KECCAK256 PUSH0 PUSH2 0x100 EXP DUP2 SLOAD DUP2 PUSH1 0xFF MUL NOT AND SWAP1 DUP4 ISZERO ISZERO MUL OR SWAP1 SSTORE POP POP JUMP JUMPDEST PUSH2 0xFD9 PUSH2 0x115E JUMP JUMPDEST PUSH1 0x2 PUSH1 0x5 DUP2 GT ISZERO PUSH2 0xFED JUMPI PUSH2 0xFEC PUSH2 0x170D JUMP JUMPDEST JUMPDEST PUSH1 0x4 PUSH0 SWAP1 SLOAD SWAP1 PUSH2 0x100 EXP SWAP1 DIV PUSH1 0xFF AND PUSH1 0x5 DUP2 GT ISZERO PUSH2 0x100E JUMPI PUSH2 0x100D PUSH2 0x170D JUMP JUMPDEST JUMPDEST EQ PUSH2 0x104E JUMPI PUSH1 0x40 MLOAD PUSH32 0x8C379A000000000000000000000000000000000000000000000000000000000 DUP2 MSTORE PUSH1 0x4 ADD PUSH2 0x1045 SWAP1 PUSH2 0x20E5 JUMP JUMPDEST PUSH1 0x40 MLOAD DUP1 SWAP2 SUB SWAP1 REVERT JUMPDEST PUSH1 0x3 PUSH1 0x4 PUSH0 PUSH2 0x100 EXP DUP2 SLOAD DUP2 PUSH1 0xFF MUL NOT AND SWAP1 DUP4 PUSH1 0x5 DUP2 GT ISZERO PUSH2 0x1073 JUMPI PUSH2 0x1072 PUSH2 0x170D JUMP JUMPDEST JUMPDEST MUL OR SWAP1 SSTORE POP PUSH32 0xA97A4EE45751E2ABF3E4FC8946939630B11B371EA8AE39CCDC3056E98F5CC3F PUSH1 0x2 PUSH1 0x3 PUSH1 0x40 MLOAD PUSH2 0x10AB SWAP3 SWAP2 SWAP1 PUSH2 0x1DAD JUMP JUMPDEST PUSH1 0x40 MLOAD DUP1 SWAP2 SUB SWAP1 LOG1 JUMP JUMPDEST PUSH2 0x10BD PUSH2 0x115E JUMP JUMPDEST PUSH0 PUSH20 0xFFFFFFFFFFFFFFFFFFFFFFFFFFFFFFFFFFFFFFFF AND DUP2 PUSH20 0xFFFFFFFFFFFFFFFFFFFFFFFFFFFFFFFFFFFFFFFF AND SUB PUSH2 0x112D JUMPI PUSH0 PUSH1 0x40 MLOAD PUSH32 0x1E4FBDF700000000000000000000000000000000000000000000000000000000 DUP2 MSTORE PUSH1 0x4 ADD PUSH2 0x1124 SWAP2 SWAP1 PUSH2 0x16F4 JUMP JUMPDEST PUSH1 0x40 MLOAD DUP1 SWAP2 SUB SWAP1 REVERT JUMPDEST PUSH2 0x1136 DUP2 PUSH2 0x11E5 JUMP JUMPDEST POP JUMP JUMPDEST PUSH1 0x1 PUSH0 SWAP1 SLOAD SWAP1 PUSH2 0x100 EXP SWAP1 DIV PUSH20 0xFFFFFFFFFFFFFFFFFFFFFFFFFFFFFFFFFFFFFFFF AND DUP2 JUMP JUMPDEST PUSH2 0x1166 PUSH2 0x12A6 JUMP JUMPDEST PUSH20 0xFFFFFFFFFFFFFFFFFFFFFFFFFFFFFFFFFFFFFFFF AND PUSH2 0x1184 PUSH2 0x92E JUMP JUMPDEST PUSH20 0xFFFFFFFFFFFFFFFFFFFFFFFFFFFFFFFFFFFFFFFF AND EQ PUSH2 0x11E3 JUMPI PUSH2 0x11A7 PUSH2 0x12A6 JUMP JUMPDEST PUSH1 0x40 MLOAD PUSH32 0x118CDAA700000000000000000000000000000000000000000000000000000000 DUP2 MSTORE PUSH1 0x4 ADD PUSH2 0x11DA SWAP2 SWAP1 PUSH2 0x16F4 JUMP JUMPDEST PUSH1 0x40 MLOAD DUP1 SWAP2 SUB SWAP1 REVERT JUMPDEST JUMP JUMPDEST PUSH0 PUSH0 PUSH0 SWAP1 SLOAD SWAP1 PUSH2 0x100 EXP SWAP1 DIV PUSH20 0xFFFFFFFFFFFFFFFFFFFFFFFFFFFFFFFFFFFFFFFF AND SWAP1 POP DUP2 PUSH0 PUSH0 PUSH2 0x100 EXP DUP2 SLOAD DUP2 PUSH20 0xFFFFFFFFFFFFFFFFFFFFFFFFFFFFFFFFFFFFFFFF MUL NOT AND SWAP1 DUP4 PUSH20 0xFFFFFFFFFFFFFFFFFFFFFFFFFFFFFFFFFFFFFFFF AND MUL OR SWAP1 SSTORE POP DUP2 PUSH20 0xFFFFFFFFFFFFFFFFFFFFFFFFFFFFFFFFFFFFFFFF AND DUP2 PUSH20 0xFFFFFFFFFFFFFFFFFFFFFFFFFFFFFFFFFFFFFFFF AND PUSH32 0x8BE0079C531659141344CD1FD0A4F28419497F9722A3DAAFE3B4186F6B6457E0 PUSH1 0x40 MLOAD PUSH1 0x40 MLOAD DUP1 SWAP2 SUB SWAP1 LOG3 POP POP JUMP JUMPDEST PUSH0 CALLER SWAP1 POP SWAP1 JUMP JUMPDEST PUSH1 0x40 MLOAD DUP1 PUSH1 0x60 ADD PUSH1 0x40 MSTORE DUP1 PUSH0 DUP2 MSTORE PUSH1 0x20 ADD PUSH1 0x60 DUP2 MSTORE PUSH1 0x20 ADD PUSH0 DUP2 MSTORE POP SWAP1 JUMP JUMPDEST PUSH0 PUSH1 0x40 MLOAD SWAP1 POP SWAP1 JUMP JUMPDEST PUSH0 PUSH0 REVERT JUMPDEST PUSH0 PUSH0 REVERT JUMPDEST PUSH0 DUP2 SWAP1 POP SWAP2 SWAP1 POP JUMP JUMPDEST PUSH2 0x12EF DUP2 PUSH2 0x12DD JUMP JUMPDEST DUP2 EQ PUSH2 0x12F9 JUMPI PUSH0 PUSH0 REVERT JUMPDEST POP JUMP JUMPDEST PUSH0 DUP2 CALLDATALOAD SWAP1 POP PUSH2 0x130A DUP2 PUSH2 0x12E6 JUMP JUMPDEST SWAP3 SWAP2 POP POP JUMP JUMPDEST PUSH0 PUSH1 0x20 DUP3 DUP5 SUB SLT ISZERO PUSH2 0x1325 JUMPI PUSH2 0x1324 PUSH2 0x12D5 JUMP JUMPDEST JUMPDEST PUSH0 PUSH2 0x1332 DUP5 DUP3 DUP6 ADD PUSH2 0x12FC JUMP JUMPDEST SWAP2 POP POP SWAP3 SWAP2 POP POP JUMP JUMPDEST PUSH2 0x1344 DUP2 PUSH2 0x12DD JUMP JUMPDEST DUP3 MSTORE POP POP JUMP JUMPDEST PUSH0 DUP2 MLOAD SWAP1 POP SWAP2 SWAP1 POP JUMP JUMPDEST PUSH0 DUP3 DUP3 MSTORE PUSH1 0x20 DUP3 ADD SWAP1 POP SWAP3 SWAP2 POP POP JUMP JUMPDEST DUP3 DUP2 DUP4 MCOPY PUSH0 DUP4 DUP4 ADD MSTORE POP POP POP JUMP JUMPDEST PUSH0 PUSH1 0x1F NOT PUSH1 0x1F DUP4 ADD AND SWAP1 POP SWAP2 SWAP1 POP JUMP JUMPDEST PUSH0 PUSH2 0x138C DUP3 PUSH2 0x134A JUMP JUMPDEST PUSH2 0x1396 DUP2 DUP6 PUSH2 0x1354 JUMP JUMPDEST SWAP4 POP PUSH2 0x13A6 DUP2 DUP6 PUSH1 0x20 DUP7 ADD PUSH2 0x1364 JUMP JUMPDEST PUSH2 0x13AF DUP2 PUSH2 0x1372 JUMP JUMPDEST DUP5 ADD SWAP2 POP POP SWAP3 SWAP2 POP POP JUMP JUMPDEST PUSH0 PUSH1 0x60 DUP3 ADD SWAP1 POP PUSH2 0x13CD PUSH0 DUP4 ADD DUP7 PUSH2 0x133B JUMP JUMPDEST DUP2 DUP2 SUB PUSH1 0x20 DUP4 ADD MSTORE PUSH2 0x13DF DUP2 DUP6 PUSH2 0x1382 JUMP JUMPDEST SWAP1 POP PUSH2 0x13EE PUSH1 0x40 DUP4 ADD DUP5 PUSH2 0x133B JUMP JUMPDEST SWAP5 SWAP4 POP POP POP POP JUMP JUMPDEST PUSH0 PUSH20 0xFFFFFFFFFFFFFFFFFFFFFFFFFFFFFFFFFFFFFFFF DUP3 AND SWAP1 POP SWAP2 SWAP1 POP JUMP JUMPDEST PUSH0 PUSH2 0x141F DUP3 PUSH2 0x13F6 JUMP JUMPDEST SWAP1 POP SWAP2 SWAP1 POP JUMP JUMPDEST PUSH2 0x142F DUP2 PUSH2 0x1415 JUMP JUMPDEST DUP2 EQ PUSH2 0x1439 JUMPI PUSH0 PUSH0 REVERT JUMPDEST POP JUMP JUMPDEST PUSH0 DUP2 CALLDATALOAD SWAP1 POP PUSH2 0x144A DUP2 PUSH2 0x1426 JUMP JUMPDEST SWAP3 SWAP2 POP POP JUMP JUMPDEST PUSH0 PUSH1 0x20 DUP3 DUP5 SUB SLT ISZERO PUSH2 0x1465 JUMPI PUSH2 0x1464 PUSH2 0x12D5 JUMP JUMPDEST JUMPDEST PUSH0 PUSH2 0x1472 DUP5 DUP3 DUP6 ADD PUSH2 0x143C JUMP JUMPDEST SWAP2 POP POP SWAP3 SWAP2 POP POP JUMP JUMPDEST PUSH0 DUP2 ISZERO ISZERO SWAP1 POP SWAP2 SWAP1 POP JUMP JUMPDEST PUSH2 0x148F DUP2 PUSH2 0x147B JUMP JUMPDEST DUP3 MSTORE POP POP JUMP JUMPDEST PUSH0 PUSH1 0x20 DUP3 ADD SWAP1 POP PUSH2 0x14A8 PUSH0 DUP4 ADD DUP5 PUSH2 0x1486 JUMP JUMPDEST SWAP3 SWAP2 POP POP JUMP JUMPDEST PUSH2 0x14B7 DUP2 PUSH2 0x12DD JUMP JUMPDEST DUP3 MSTORE POP POP JUMP JUMPDEST PUSH0 DUP3 DUP3 MSTORE PUSH1 0x20 DUP3 ADD SWAP1 POP SWAP3 SWAP2 POP POP JUMP JUMPDEST PUSH0 PUSH2 0x14D7 DUP3 PUSH2 0x134A JUMP JUMPDEST PUSH2 0x14E1 DUP2 DUP6 PUSH2 0x14BD JUMP JUMPDEST SWAP4 POP PUSH2 0x14F1 DUP2 DUP6 PUSH1 0x20 DUP7 ADD PUSH2 0x1364 JUMP JUMPDEST PUSH2 0x14FA DUP2 PUSH2 0x1372 JUMP JUMPDEST DUP5 ADD SWAP2 POP POP SWAP3 SWAP2 POP POP JUMP JUMPDEST PUSH0 PUSH1 0x60 DUP4 ADD PUSH0 DUP4 ADD MLOAD PUSH2 0x151A PUSH0 DUP7 ADD DUP3 PUSH2 0x14AE JUMP JUMPDEST POP PUSH1 0x20 DUP4 ADD MLOAD DUP5 DUP3 SUB PUSH1 0x20 DUP7 ADD MSTORE PUSH2 0x1532 DUP3 DUP3 PUSH2 0x14CD JUMP JUMPDEST SWAP2 POP POP PUSH1 0x40 DUP4 ADD MLOAD PUSH2 0x1547 PUSH1 0x40 DUP7 ADD DUP3 PUSH2 0x14AE JUMP JUMPDEST POP DUP1 SWAP2 POP POP SWAP3 SWAP2 POP POP JUMP JUMPDEST PUSH0 PUSH1 0x20 DUP3 ADD SWAP1 POP DUP2 DUP2 SUB PUSH0 DUP4 ADD MSTORE PUSH2 0x156A DUP2 DUP5 PUSH2 0x1505 JUMP JUMPDEST SWAP1 POP SWAP3 SWAP2 POP POP JUMP JUMPDEST PUSH0 PUSH0 REVERT JUMPDEST PUSH0 PUSH0 REVERT JUMPDEST PUSH32 0x4E487B7100000000000000000000000000000000000000000000000000000000 PUSH0 MSTORE PUSH1 0x41 PUSH1 0x4 MSTORE PUSH1 0x24 PUSH0 REVERT JUMPDEST PUSH2 0x15B0 DUP3 PUSH2 0x1372 JUMP JUMPDEST DUP2 ADD DUP2 DUP2 LT PUSH8 0xFFFFFFFFFFFFFFFF DUP3 GT OR ISZERO PUSH2 0x15CF JUMPI PUSH2 0x15CE PUSH2 0x157A JUMP JUMPDEST JUMPDEST DUP1 PUSH1 0x40 MSTORE POP POP POP JUMP JUMPDEST PUSH0 PUSH2 0x15E1 PUSH2 0x12CC JUMP JUMPDEST SWAP1 POP PUSH2 0x15ED DUP3 DUP3 PUSH2 0x15A7 JUMP JUMPDEST SWAP2 SWAP1 POP JUMP JUMPDEST PUSH0 PUSH8 0xFFFFFFFFFFFFFFFF DUP3 GT ISZERO PUSH2 0x160C JUMPI PUSH2 0x160B PUSH2 0x157A JUMP JUMPDEST JUMPDEST PUSH2 0x1615 DUP3 PUSH2 0x1372 JUMP JUMPDEST SWAP1 POP PUSH1 0x20 DUP2 ADD SWAP1 POP SWAP2 SWAP1 POP JUMP JUMPDEST DUP3 DUP2 DUP4 CALLDATACOPY PUSH0 DUP4 DUP4 ADD MSTORE POP POP POP JUMP JUMPDEST PUSH0 PUSH2 0x1642 PUSH2 0x163D DUP5 PUSH2 0x15F2 JUMP JUMPDEST PUSH2 0x15D8 JUMP JUMPDEST SWAP1 POP DUP3 DUP2 MSTORE PUSH1 0x20 DUP2 ADD DUP5 DUP5 DUP5 ADD GT ISZERO PUSH2 0x165E JUMPI PUSH2 0x165D PUSH2 0x1576 JUMP JUMPDEST JUMPDEST PUSH2 0x1669 DUP5 DUP3 DUP6 PUSH2 0x1622 JUMP JUMPDEST POP SWAP4 SWAP3 POP POP POP JUMP JUMPDEST PUSH0 DUP3 PUSH1 0x1F DUP4 ADD SLT PUSH2 0x1685 JUMPI PUSH2 0x1684 PUSH2 0x1572 JUMP JUMPDEST JUMPDEST DUP2 CALLDATALOAD PUSH2 0x1695 DUP5 DUP3 PUSH1 0x20 DUP7 ADD PUSH2 0x1630 JUMP JUMPDEST SWAP2 POP POP SWAP3 SWAP2 POP POP JUMP JUMPDEST PUSH0 PUSH1 0x20 DUP3 DUP5 SUB SLT ISZERO PUSH2 0x16B3 JUMPI PUSH2 0x16B2 PUSH2 0x12D5 JUMP JUMPDEST JUMPDEST PUSH0 DUP3 ADD CALLDATALOAD PUSH8 0xFFFFFFFFFFFFFFFF DUP2 GT ISZERO PUSH2 0x16D0 JUMPI PUSH2 0x16CF PUSH2 0x12D9 JUMP JUMPDEST JUMPDEST PUSH2 0x16DC DUP5 DUP3 DUP6 ADD PUSH2 0x1671 JUMP JUMPDEST SWAP2 POP POP SWAP3 SWAP2 POP POP JUMP JUMPDEST PUSH2 0x16EE DUP2 PUSH2 0x1415 JUMP JUMPDEST DUP3 MSTORE POP POP JUMP JUMPDEST PUSH0 PUSH1 0x20 DUP3 ADD SWAP1 POP PUSH2 0x1707 PUSH0 DUP4 ADD DUP5 PUSH2 0x16E5 JUMP JUMPDEST SWAP3 SWAP2 POP POP JUMP JUMPDEST PUSH32 0x4E487B7100000000000000000000000000000000000000000000000000000000 PUSH0 MSTORE PUSH1 0x21 PUSH1 0x4 MSTORE PUSH1 0x24 PUSH0 REVERT JUMPDEST PUSH1 0x6 DUP2 LT PUSH2 0x174B JUMPI PUSH2 0x174A PUSH2 0x170D JUMP JUMPDEST JUMPDEST POP JUMP JUMPDEST PUSH0 DUP2 SWAP1 POP PUSH2 0x175B DUP3 PUSH2 0x173A JUMP JUMPDEST SWAP2 SWAP1 POP JUMP JUMPDEST PUSH0 PUSH2 0x176A DUP3 PUSH2 0x174E JUMP JUMPDEST SWAP1 POP SWAP2 SWAP1 POP JUMP JUMPDEST PUSH2 0x177A DUP2 PUSH2 0x1760 JUMP JUMPDEST DUP3 MSTORE POP POP JUMP JUMPDEST PUSH0 PUSH1 0x20 DUP3 ADD SWAP1 POP PUSH2 0x1793 PUSH0 DUP4 ADD DUP5 PUSH2 0x1771 JUMP JUMPDEST SWAP3 SWAP2 POP POP JUMP JUMPDEST PUSH0 PUSH1 0x60 DUP3 ADD SWAP1 POP PUSH2 0x17AC PUSH0 DUP4 ADD DUP7 PUSH2 0x1486 JUMP JUMPDEST PUSH2 0x17B9 PUSH1 0x20 DUP4 ADD DUP6 PUSH2 0x1486 JUMP JUMPDEST PUSH2 0x17C6 PUSH1 0x40 DUP4 ADD DUP5 PUSH2 0x133B JUMP JUMPDEST SWAP5 SWAP4 POP POP POP POP JUMP JUMPDEST PUSH0 PUSH1 0x20 DUP3 ADD SWAP1 POP PUSH2 0x17E1 PUSH0 DUP4 ADD DUP5 PUSH2 0x133B JUMP JUMPDEST SWAP3 SWAP2 POP POP JUMP JUMPDEST PUSH0 DUP2 MLOAD SWAP1 POP SWAP2 SWAP1 POP JUMP JUMPDEST PUSH0 DUP3 DUP3 MSTORE PUSH1 0x20 DUP3 ADD SWAP1 POP SWAP3 SWAP2 POP POP JUMP JUMPDEST PUSH0 DUP2 SWAP1 POP PUSH1 0x20 DUP3 ADD SWAP1 POP SWAP2 SWAP1 POP JUMP JUMPDEST PUSH0 PUSH1 0x60 DUP4 ADD PUSH0 DUP4 ADD MLOAD PUSH2 0x1825 PUSH0 DUP7 ADD DUP3 PUSH2 0x14AE JUMP JUMPDEST POP PUSH1 0x20 DUP4 ADD MLOAD DUP5 DUP3 SUB PUSH1 0x20 DUP7 ADD MSTORE PUSH2 0x183D DUP3 DUP3 PUSH2 0x14CD JUMP JUMPDEST SWAP2 POP POP PUSH1 0x40 DUP4 ADD MLOAD PUSH2 0x1852 PUSH1 0x40 DUP7 ADD DUP3 PUSH2 0x14AE JUMP JUMPDEST POP DUP1 SWAP2 POP POP SWAP3 SWAP2 POP POP JUMP JUMPDEST PUSH0 PUSH2 0x1868 DUP4 DUP4 PUSH2 0x1810 JUMP JUMPDEST SWAP1 POP SWAP3 SWAP2 POP POP JUMP JUMPDEST PUSH0 PUSH1 0x20 DUP3 ADD SWAP1 POP SWAP2 SWAP1 POP JUMP JUMPDEST PUSH0 PUSH2 0x1886 DUP3 PUSH2 0x17E7 JUMP JUMPDEST PUSH2 0x1890 DUP2 DUP6 PUSH2 0x17F1 JUMP JUMPDEST SWAP4 POP DUP4 PUSH1 0x20 DUP3 MUL DUP6 ADD PUSH2 0x18A2 DUP6 PUSH2 0x1801 JUMP JUMPDEST DUP1 PUSH0 JUMPDEST DUP6 DUP2 LT ISZERO PUSH2 0x18DD JUMPI DUP5 DUP5 SUB DUP10 MSTORE DUP2 MLOAD PUSH2 0x18BE DUP6 DUP3 PUSH2 0x185D JUMP JUMPDEST SWAP5 POP PUSH2 0x18C9 DUP4 PUSH2 0x1870 JUMP JUMPDEST SWAP3 POP PUSH1 0x20 DUP11 ADD SWAP10 POP POP PUSH1 0x1 DUP2 ADD SWAP1 POP PUSH2 0x18A5 JUMP JUMPDEST POP DUP3 SWAP8 POP DUP8 SWAP6 POP POP POP POP POP POP SWAP3 SWAP2 POP POP JUMP JUMPDEST PUSH0 PUSH1 0x20 DUP3 ADD SWAP1 POP DUP2 DUP2 SUB PUSH0 DUP4 ADD MSTORE PUSH2 0x1907 DUP2 DUP5 PUSH2 0x187C JUMP JUMPDEST SWAP1 POP SWAP3 SWAP2 POP POP JUMP JUMPDEST PUSH32 0x4E487B7100000000000000000000000000000000000000000000000000000000 PUSH0 MSTORE PUSH1 0x22 PUSH1 0x4 MSTORE PUSH1 0x24 PUSH0 REVERT JUMPDEST PUSH0 PUSH1 0x2 DUP3 DIV SWAP1 POP PUSH1 0x1 DUP3 AND DUP1 PUSH2 0x1953 JUMPI PUSH1 0x7F DUP3 AND SWAP2 POP JUMPDEST PUSH1 0x20 DUP3 LT DUP2 SUB PUSH2 0x1966 JUMPI PUSH2 0x1965 PUSH2 0x190F JUMP JUMPDEST JUMPDEST POP SWAP2 SWAP1 POP JUMP JUMPDEST PUSH32 0x726567697374726174696F6E20646964206E6F74207374617274656400000000 PUSH0 DUP3 ADD MSTORE POP JUMP JUMPDEST PUSH0 PUSH2 0x19A0 PUSH1 0x1C DUP4 PUSH2 0x1354 JUMP JUMPDEST SWAP2 POP PUSH2 0x19AB DUP3 PUSH2 0x196C JUMP JUMPDEST PUSH1 0x20 DUP3 ADD SWAP1 POP SWAP2 SWAP1 POP JUMP JUMPDEST PUSH0 PUSH1 0x20 DUP3 ADD SWAP1 POP DUP2 DUP2 SUB PUSH0 DUP4 ADD MSTORE PUSH2 0x19CD DUP2 PUSH2 0x1994 JUMP JUMPDEST SWAP1 POP SWAP2 SWAP1 POP JUMP JUMPDEST PUSH32 0x596F7520617265206E6F742077686974656C6973746564000000000000000000 PUSH0 DUP3 ADD MSTORE POP JUMP JUMPDEST PUSH0 PUSH2 0x1A08 PUSH1 0x17 DUP4 PUSH2 0x1354 JUMP JUMPDEST SWAP2 POP PUSH2 0x1A13 DUP3 PUSH2 0x19D4 JUMP JUMPDEST PUSH1 0x20 DUP3 ADD SWAP1 POP SWAP2 SWAP1 POP JUMP JUMPDEST PUSH0 PUSH1 0x20 DUP3 ADD SWAP1 POP DUP2 DUP2 SUB PUSH0 DUP4 ADD MSTORE PUSH2 0x1A35 DUP2 PUSH2 0x19FC JUMP JUMPDEST SWAP1 POP SWAP2 SWAP1 POP JUMP JUMPDEST PUSH0 DUP2 SWAP1 POP DUP2 PUSH0 MSTORE PUSH1 0x20 PUSH0 KECCAK256 SWAP1 POP SWAP2 SWAP1 POP JUMP JUMPDEST PUSH0 PUSH1 0x20 PUSH1 0x1F DUP4 ADD DIV SWAP1 POP SWAP2 SWAP1 POP JUMP JUMPDEST PUSH0 DUP3 DUP3 SHL SWAP1 POP SWAP3 SWAP2 POP POP JUMP JUMPDEST PUSH0 PUSH1 0x8 DUP4 MUL PUSH2 0x1A98 PUSH32 0xFFFFFFFFFFFFFFFFFFFFFFFFFFFFFFFFFFFFFFFFFFFFFFFFFFFFFFFFFFFFFFFF DUP3 PUSH2 0x1A5D JUMP JUMPDEST PUSH2 0x1AA2 DUP7 DUP4 PUSH2 0x1A5D JUMP JUMPDEST SWAP6 POP DUP1 NOT DUP5 AND SWAP4 POP DUP1 DUP7 AND DUP5 OR SWAP3 POP POP POP SWAP4 SWAP3 POP POP POP JUMP JUMPDEST PUSH0 DUP2 SWAP1 POP SWAP2 SWAP1 POP JUMP JUMPDEST PUSH0 PUSH2 0x1ADD PUSH2 0x1AD8 PUSH2 0x1AD3 DUP5 PUSH2 0x12DD JUMP JUMPDEST PUSH2 0x1ABA JUMP JUMPDEST PUSH2 0x12DD JUMP JUMPDEST SWAP1 POP SWAP2 SWAP1 POP JUMP JUMPDEST PUSH0 DUP2 SWAP1 POP SWAP2 SWAP1 POP JUMP JUMPDEST PUSH2 0x1AF6 DUP4 PUSH2 0x1AC3 JUMP JUMPDEST PUSH2 0x1B0A PUSH2 0x1B02 DUP3 PUSH2 0x1AE4 JUMP JUMPDEST DUP5 DUP5 SLOAD PUSH2 0x1A69 JUMP JUMPDEST DUP3 SSTORE POP POP POP POP JUMP JUMPDEST PUSH0 PUSH0 SWAP1 POP SWAP1 JUMP JUMPDEST PUSH2 0x1B21 PUSH2 0x1B12 JUMP JUMPDEST PUSH2 0x1B2C DUP2 DUP5 DUP5 PUSH2 0x1AED JUMP JUMPDEST POP POP POP JUMP JUMPDEST JUMPDEST DUP2 DUP2 LT ISZERO PUSH2 0x1B4F JUMPI PUSH2 0x1B44 PUSH0 DUP3 PUSH2 0x1B19 JUMP JUMPDEST PUSH1 0x1 DUP2 ADD SWAP1 POP PUSH2 0x1B32 JUMP JUMPDEST POP POP JUMP JUMPDEST PUSH1 0x1F DUP3 GT ISZERO PUSH2 0x1B94 JUMPI PUSH2 0x1B65 DUP2 PUSH2 0x1A3C JUMP JUMPDEST PUSH2 0x1B6E DUP5 PUSH2 0x1A4E JUMP JUMPDEST DUP2 ADD PUSH1 0x20 DUP6 LT ISZERO PUSH2 0x1B7D JUMPI DUP2 SWAP1 POP JUMPDEST PUSH2 0x1B91 PUSH2 0x1B89 DUP6 PUSH2 0x1A4E JUMP JUMPDEST DUP4 ADD DUP3 PUSH2 0x1B31 JUMP JUMPDEST POP POP JUMPDEST POP POP POP JUMP JUMPDEST PUSH0 DUP3 DUP3 SHR SWAP1 POP SWAP3 SWAP2 POP POP JUMP JUMPDEST PUSH0 PUSH2 0x1BB4 PUSH0 NOT DUP5 PUSH1 0x8 MUL PUSH2 0x1B99 JUMP JUMPDEST NOT DUP1 DUP4 AND SWAP2 POP POP SWAP3 SWAP2 POP POP JUMP JUMPDEST PUSH0 PUSH2 0x1BCC DUP4 DUP4 PUSH2 0x1BA5 JUMP JUMPDEST SWAP2 POP DUP3 PUSH1 0x2 MUL DUP3 OR SWAP1 POP SWAP3 SWAP2 POP POP JUMP JUMPDEST PUSH2 0x1BE5 DUP3 PUSH2 0x134A JUMP JUMPDEST PUSH8 0xFFFFFFFFFFFFFFFF DUP2 GT ISZERO PUSH2 0x1BFE JUMPI PUSH2 0x1BFD PUSH2 0x157A JUMP JUMPDEST JUMPDEST PUSH2 0x1C08 DUP3 SLOAD PUSH2 0x193C JUMP JUMPDEST PUSH2 0x1C13 DUP3 DUP3 DUP6 PUSH2 0x1B53 JUMP JUMPDEST PUSH0 PUSH1 0x20 SWAP1 POP PUSH1 0x1F DUP4 GT PUSH1 0x1 DUP2 EQ PUSH2 0x1C44 JUMPI PUSH0 DUP5 ISZERO PUSH2 0x1C32 JUMPI DUP3 DUP8 ADD MLOAD SWAP1 POP JUMPDEST PUSH2 0x1C3C DUP6 DUP3 PUSH2 0x1BC1 JUMP JUMPDEST DUP7 SSTORE POP PUSH2 0x1CA3 JUMP JUMPDEST PUSH1 0x1F NOT DUP5 AND PUSH2 0x1C52 DUP7 PUSH2 0x1A3C JUMP JUMPDEST PUSH0 JUMPDEST DUP3 DUP2 LT ISZERO PUSH2 0x1C79 JUMPI DUP5 DUP10 ADD MLOAD DUP3 SSTORE PUSH1 0x1 DUP3 ADD SWAP2 POP PUSH1 0x20 DUP6 ADD SWAP5 POP PUSH1 0x20 DUP2 ADD SWAP1 POP PUSH2 0x1C54 JUMP JUMPDEST DUP7 DUP4 LT ISZERO PUSH2 0x1C96 JUMPI DUP5 DUP10 ADD MLOAD PUSH2 0x1C92 PUSH1 0x1F DUP10 AND DUP3 PUSH2 0x1BA5 JUMP JUMPDEST DUP4 SSTORE POP JUMPDEST PUSH1 0x1 PUSH1 0x2 DUP9 MUL ADD DUP9 SSTORE POP POP POP JUMPDEST POP POP POP POP POP POP JUMP JUMPDEST PUSH32 0x4E487B7100000000000000000000000000000000000000000000000000000000 PUSH0 MSTORE PUSH1 0x11 PUSH1 0x4 MSTORE PUSH1 0x24 PUSH0 REVERT JUMPDEST PUSH0 PUSH2 0x1CE2 DUP3 PUSH2 0x12DD JUMP JUMPDEST SWAP2 POP PUSH32 0xFFFFFFFFFFFFFFFFFFFFFFFFFFFFFFFFFFFFFFFFFFFFFFFFFFFFFFFFFFFFFFFF DUP3 SUB PUSH2 0x1D14 JUMPI PUSH2 0x1D13 PUSH2 0x1CAB JUMP JUMPDEST JUMPDEST PUSH1 0x1 DUP3 ADD SWAP1 POP SWAP2 SWAP1 POP JUMP JUMPDEST PUSH32 0x50726F706F73616C7320726567697374726174696F6E206E6F74207374617274 PUSH0 DUP3 ADD MSTORE PUSH32 0x6564000000000000000000000000000000000000000000000000000000000000 PUSH1 0x20 DUP3 ADD MSTORE POP JUMP JUMPDEST PUSH0 PUSH2 0x1D79 PUSH1 0x22 DUP4 PUSH2 0x1354 JUMP JUMPDEST SWAP2 POP PUSH2 0x1D84 DUP3 PUSH2 0x1D1F JUMP JUMPDEST PUSH1 0x40 DUP3 ADD SWAP1 POP SWAP2 SWAP1 POP JUMP JUMPDEST PUSH0 PUSH1 0x20 DUP3 ADD SWAP1 POP DUP2 DUP2 SUB PUSH0 DUP4 ADD MSTORE PUSH2 0x1DA6 DUP2 PUSH2 0x1D6D JUMP JUMPDEST SWAP1 POP SWAP2 SWAP1 POP JUMP JUMPDEST PUSH0 PUSH1 0x40 DUP3 ADD SWAP1 POP PUSH2 0x1DC0 PUSH0 DUP4 ADD DUP6 PUSH2 0x1771 JUMP JUMPDEST PUSH2 0x1DCD PUSH1 0x20 DUP4 ADD DUP5 PUSH2 0x1771 JUMP JUMPDEST SWAP4 SWAP3 POP POP POP JUMP JUMPDEST PUSH32 0x566F74696E672073657373696F6E206E6F742073746172746564000000000000 PUSH0 DUP3 ADD MSTORE POP JUMP JUMPDEST PUSH0 PUSH2 0x1E08 PUSH1 0x1A DUP4 PUSH2 0x1354 JUMP JUMPDEST SWAP2 POP PUSH2 0x1E13 DUP3 PUSH2 0x1DD4 JUMP JUMPDEST PUSH1 0x20 DUP3 ADD SWAP1 POP SWAP2 SWAP1 POP JUMP JUMPDEST PUSH0 PUSH1 0x20 DUP3 ADD SWAP1 POP DUP2 DUP2 SUB PUSH0 DUP4 ADD MSTORE PUSH2 0x1E35 DUP2 PUSH2 0x1DFC JUMP JUMPDEST SWAP1 POP SWAP2 SWAP1 POP JUMP JUMPDEST PUSH32 0x646F20796F75206861766520616C726561647920766F74650000000000000000 PUSH0 DUP3 ADD MSTORE POP JUMP JUMPDEST PUSH0 PUSH2 0x1E70 PUSH1 0x18 DUP4 PUSH2 0x1354 JUMP JUMPDEST SWAP2 POP PUSH2 0x1E7B DUP3 PUSH2 0x1E3C JUMP JUMPDEST PUSH1 0x20 DUP3 ADD SWAP1 POP SWAP2 SWAP1 POP JUMP JUMPDEST PUSH0 PUSH1 0x20 DUP3 ADD SWAP1 POP DUP2 DUP2 SUB PUSH0 DUP4 ADD MSTORE PUSH2 0x1E9D DUP2 PUSH2 0x1E64 JUMP JUMPDEST SWAP1 POP SWAP2 SWAP1 POP JUMP JUMPDEST PUSH32 0x4E487B7100000000000000000000000000000000000000000000000000000000 PUSH0 MSTORE PUSH1 0x32 PUSH1 0x4 MSTORE PUSH1 0x24 PUSH0 REVERT JUMPDEST PUSH32 0x566F74696E672073657373696F6E206E6F7420656E6465640000000000000000 PUSH0 DUP3 ADD MSTORE POP JUMP JUMPDEST PUSH0 PUSH2 0x1F05 PUSH1 0x18 DUP4 PUSH2 0x1354 JUMP JUMPDEST SWAP2 POP PUSH2 0x1F10 DUP3 PUSH2 0x1ED1 JUMP JUMPDEST PUSH1 0x20 DUP3 ADD SWAP1 POP SWAP2 SWAP1 POP JUMP JUMPDEST PUSH0 PUSH1 0x20 DUP3 ADD SWAP1 POP DUP2 DUP2 SUB PUSH0 DUP4 ADD MSTORE PUSH2 0x1F32 DUP2 PUSH2 0x1EF9 JUMP JUMPDEST SWAP1 POP SWAP2 SWAP1 POP JUMP JUMPDEST PUSH0 DUP2 SLOAD SWAP1 POP PUSH2 0x1F47 DUP2 PUSH2 0x193C JUMP JUMPDEST SWAP1 POP SWAP2 SWAP1 POP JUMP JUMPDEST DUP2 DUP2 SUB PUSH2 0x1F5C JUMPI POP POP PUSH2 0x2031 JUMP JUMPDEST PUSH2 0x1F65 DUP3 PUSH2 0x1F39 JUMP JUMPDEST PUSH8 0xFFFFFFFFFFFFFFFF DUP2 GT ISZERO PUSH2 0x1F7E JUMPI PUSH2 0x1F7D PUSH2 0x157A JUMP JUMPDEST JUMPDEST PUSH2 0x1F88 DUP3 SLOAD PUSH2 0x193C JUMP JUMPDEST PUSH2 0x1F93 DUP3 DUP3 DUP6 PUSH2 0x1B53 JUMP JUMPDEST PUSH0 PUSH1 0x1F DUP4 GT PUSH1 0x1 DUP2 EQ PUSH2 0x1FC0 JUMPI PUSH0 DUP5 ISZERO PUSH2 0x1FAE JUMPI DUP3 DUP8 ADD SLOAD SWAP1 POP JUMPDEST PUSH2 0x1FB8 DUP6 DUP3 PUSH2 0x1BC1 JUMP JUMPDEST DUP7 SSTORE POP PUSH2 0x202A JUMP JUMPDEST PUSH1 0x1F NOT DUP5 AND PUSH2 0x1FCE DUP8 PUSH2 0x1A3C JUMP JUMPDEST SWAP7 POP PUSH2 0x1FD9 DUP7 PUSH2 0x1A3C JUMP JUMPDEST PUSH0 JUMPDEST DUP3 DUP2 LT ISZERO PUSH2 0x2000 JUMPI DUP5 DUP10 ADD SLOAD DUP3 SSTORE PUSH1 0x1 DUP3 ADD SWAP2 POP PUSH1 0x1 DUP6 ADD SWAP5 POP PUSH1 0x20 DUP2 ADD SWAP1 POP PUSH2 0x1FDB JUMP JUMPDEST DUP7 DUP4 LT ISZERO PUSH2 0x201D JUMPI DUP5 DUP10 ADD SLOAD PUSH2 0x2019 PUSH1 0x1F DUP10 AND DUP3 PUSH2 0x1BA5 JUMP JUMPDEST DUP4 SSTORE POP JUMPDEST PUSH1 0x1 PUSH1 0x2 DUP9 MUL ADD DUP9 SSTORE POP POP POP JUMPDEST POP POP POP POP POP POP JUMPDEST JUMP JUMPDEST PUSH32 0x526567697374726174696F6E206E6F7420737461727465640000000000000000 PUSH0 DUP3 ADD MSTORE POP JUMP JUMPDEST PUSH0 PUSH2 0x2067 PUSH1 0x18 DUP4 PUSH2 0x1354 JUMP JUMPDEST SWAP2 POP PUSH2 0x2072 DUP3 PUSH2 0x2033 JUMP JUMPDEST PUSH1 0x20 DUP3 ADD SWAP1 POP SWAP2 SWAP1 POP JUMP JUMPDEST PUSH0 PUSH1 0x20 DUP3 ADD SWAP1 POP DUP2 DUP2 SUB PUSH0 DUP4 ADD MSTORE PUSH2 0x2094 DUP2 PUSH2 0x205B JUMP JUMPDEST SWAP1 POP SWAP2 SWAP1 POP JUMP JUMPDEST PUSH32 0x50726F706F73616C7320726567697374726174696F6E206E6F7420656E646564 PUSH0 DUP3 ADD MSTORE POP JUMP JUMPDEST PUSH0 PUSH2 0x20CF PUSH1 0x20 DUP4 PUSH2 0x1354 JUMP JUMPDEST SWAP2 POP PUSH2 0x20DA DUP3 PUSH2 0x209B JUMP JUMPDEST PUSH1 0x20 DUP3 ADD SWAP1 POP SWAP2 SWAP1 POP JUMP JUMPDEST PUSH0 PUSH1 0x20 DUP3 ADD SWAP1 POP DUP2 DUP2 SUB PUSH0 DUP4 ADD MSTORE PUSH2 0x20FC DUP2 PUSH2 0x20C3 JUMP JUMPDEST SWAP1 POP SWAP2 SWAP1 POP JUMP INVALID LOG2 PUSH5 0x6970667358 0x22 SLT KECCAK256 PUSH20 0xCC26D28370A5C5B718BBA7FCB94A80358DE97FF8 CREATE2 0xE2 SWAP8 0xB1 SWAP16 0x22 0xEB 0xCA RJUMP 0x60DC PUSH5 0x736F6C6343 STOP ADDMOD 0x1E STOP CALLER "
				},
				"gasEstimates": {
					"creation": {
						"codeDepositCost": "1701000",
						"executionCost": "infinite",
						"totalCost": "infinite"
					},
					"external": {
						"addToWhitelist(address)": "infinite",
						"admin()": "2640",
						"computeMostVotedproposal()": "infinite",
						"endProposalsRegistration()": "infinite",
						"endVotingSession()": "infinite",
						"getAllProposals()": "infinite",
						"getMostVotedProposal()": "infinite",
						"isWhitelisted(address)": "2916",
						"mostVoted()": "infinite",
						"owner()": "2581",
						"proposals(uint256)": "infinite",
						"renounceOwnership()": "infinite",
						"sendNewProposition(string)": "infinite",
						"sendVote(uint256)": "infinite",
						"startProposalsRegistration()": "infinite",
						"startVotingSession()": "infinite",
						"transferOwnership(address)": "infinite",
						"voters(address)": "infinite",
						"whitelist(address)": "2922",
						"winningProposalId()": "2492",
						"workflowStatus()": "2665"
					}
				},
				"methodIdentifiers": {
					"addToWhitelist(address)": "e43252d7",
					"admin()": "f851a440",
					"computeMostVotedproposal()": "cc5a6668",
					"endProposalsRegistration()": "6c297445",
					"endVotingSession()": "a7bfab16",
					"getAllProposals()": "cceb68f5",
					"getMostVotedProposal()": "4394ba21",
					"isWhitelisted(address)": "3af32abf",
					"mostVoted()": "781825d1",
					"owner()": "8da5cb5b",
					"proposals(uint256)": "013cf08b",
					"renounceOwnership()": "715018a6",
					"sendNewProposition(string)": "45bf58fd",
					"sendVote(uint256)": "c8f5714e",
					"startProposalsRegistration()": "e09b8c79",
					"startVotingSession()": "ee74c678",
					"transferOwnership(address)": "f2fde38b",
					"voters(address)": "a3ec138d",
					"whitelist(address)": "9b19251a",
					"winningProposalId()": "c64963c5",
					"workflowStatus()": "a1edffa2"
				}
			},
			"storageLayout": {
				"storage": [
					{
						"astId": 383,
						"contract": "contracts/11_Voting.sol:Voting",
						"label": "_owner",
						"offset": 0,
						"slot": "0",
						"type": "t_address"
					},
					{
						"astId": 6,
						"contract": "contracts/11_Voting.sol:Voting",
						"label": "admin",
						"offset": 0,
						"slot": "1",
						"type": "t_address"
					},
					{
						"astId": 8,
						"contract": "contracts/11_Voting.sol:Voting",
						"label": "winningProposalId",
						"offset": 0,
						"slot": "2",
						"type": "t_uint256"
					},
					{
						"astId": 10,
						"contract": "contracts/11_Voting.sol:Voting",
						"label": "nonce",
						"offset": 0,
						"slot": "3",
						"type": "t_uint256"
					},
					{
						"astId": 13,
						"contract": "contracts/11_Voting.sol:Voting",
						"label": "workflowStatus",
						"offset": 0,
						"slot": "4",
						"type": "t_enum(WorkflowStatus)50"
					},
					{
						"astId": 16,
						"contract": "contracts/11_Voting.sol:Voting",
						"label": "mostVoted",
						"offset": 0,
						"slot": "5",
						"type": "t_struct(Proposal)43_storage"
					},
					{
						"astId": 20,
						"contract": "contracts/11_Voting.sol:Voting",
						"label": "proposals",
						"offset": 0,
						"slot": "8",
						"type": "t_array(t_struct(Proposal)43_storage)dyn_storage"
					},
					{
						"astId": 24,
						"contract": "contracts/11_Voting.sol:Voting",
						"label": "whitelist",
						"offset": 0,
						"slot": "9",
						"type": "t_mapping(t_address,t_bool)"
					},
					{
						"astId": 29,
						"contract": "contracts/11_Voting.sol:Voting",
						"label": "voters",
						"offset": 0,
						"slot": "10",
						"type": "t_mapping(t_address,t_struct(Voter)36_storage)"
					}
				],
				"types": {
					"t_address": {
						"encoding": "inplace",
						"label": "address",
						"numberOfBytes": "20"
					},
					"t_array(t_struct(Proposal)43_storage)dyn_storage": {
						"base": "t_struct(Proposal)43_storage",
						"encoding": "dynamic_array",
						"label": "struct Voting.Proposal[]",
						"numberOfBytes": "32"
					},
					"t_bool": {
						"encoding": "inplace",
						"label": "bool",
						"numberOfBytes": "1"
					},
					"t_enum(WorkflowStatus)50": {
						"encoding": "inplace",
						"label": "enum Voting.WorkflowStatus",
						"numberOfBytes": "1"
					},
					"t_mapping(t_address,t_bool)": {
						"encoding": "mapping",
						"key": "t_address",
						"label": "mapping(address => bool)",
						"numberOfBytes": "32",
						"value": "t_bool"
					},
					"t_mapping(t_address,t_struct(Voter)36_storage)": {
						"encoding": "mapping",
						"key": "t_address",
						"label": "mapping(address => struct Voting.Voter)",
						"numberOfBytes": "32",
						"value": "t_struct(Voter)36_storage"
					},
					"t_string_storage": {
						"encoding": "bytes",
						"label": "string",
						"numberOfBytes": "32"
					},
					"t_struct(Proposal)43_storage": {
						"encoding": "inplace",
						"label": "struct Voting.Proposal",
						"members": [
							{
								"astId": 38,
								"contract": "contracts/11_Voting.sol:Voting",
								"label": "id",
								"offset": 0,
								"slot": "0",
								"type": "t_uint256"
							},
							{
								"astId": 40,
								"contract": "contracts/11_Voting.sol:Voting",
								"label": "description",
								"offset": 0,
								"slot": "1",
								"type": "t_string_storage"
							},
							{
								"astId": 42,
								"contract": "contracts/11_Voting.sol:Voting",
								"label": "voteCount",
								"offset": 0,
								"slot": "2",
								"type": "t_uint256"
							}
						],
						"numberOfBytes": "96"
					},
					"t_struct(Voter)36_storage": {
						"encoding": "inplace",
						"label": "struct Voting.Voter",
						"members": [
							{
								"astId": 31,
								"contract": "contracts/11_Voting.sol:Voting",
								"label": "isRegistered",
								"offset": 0,
								"slot": "0",
								"type": "t_bool"
							},
							{
								"astId": 33,
								"contract": "contracts/11_Voting.sol:Voting",
								"label": "hasVoted",
								"offset": 1,
								"slot": "0",
								"type": "t_bool"
							},
							{
								"astId": 35,
								"contract": "contracts/11_Voting.sol:Voting",
								"label": "voteProposalId",
								"offset": 0,
								"slot": "1",
								"type": "t_uint256"
							}
						],
						"numberOfBytes": "64"
					},
					"t_uint256": {
						"encoding": "inplace",
						"label": "uint256",
						"numberOfBytes": "32"
					}
				}
			},
			"userdoc": {
				"kind": "user",
				"methods": {},
				"version": 1
			}
		}
	}
}