{
	"contracts/VintingV1.sol": {
		"Voting": {
			"abi": [
				{
					"inputs": [],
					"stateMutability": "nonpayable",
					"type": "constructor"
				},
				{
					"inputs": [
						{
							"internalType": "address",
							"name": "owner",
							"type": "address"
						}
					],
					"name": "OwnableInvalidOwner",
					"type": "error"
				},
				{
					"inputs": [
						{
							"internalType": "address",
							"name": "account",
							"type": "address"
						}
					],
					"name": "OwnableUnauthorizedAccount",
					"type": "error"
				},
				{
					"anonymous": false,
					"inputs": [
						{
							"indexed": false,
							"internalType": "uint256",
							"name": "sessionId",
							"type": "uint256"
						}
					],
					"name": "NewVotingSession",
					"type": "event"
				},
				{
					"anonymous": false,
					"inputs": [
						{
							"indexed": true,
							"internalType": "address",
							"name": "previousOwner",
							"type": "address"
						},
						{
							"indexed": true,
							"internalType": "address",
							"name": "newOwner",
							"type": "address"
						}
					],
					"name": "OwnershipTransferred",
					"type": "event"
				},
				{
					"anonymous": false,
					"inputs": [
						{
							"indexed": false,
							"internalType": "uint256",
							"name": "sessionId",
							"type": "uint256"
						},
						{
							"indexed": false,
							"internalType": "uint256",
							"name": "proposalId",
							"type": "uint256"
						}
					],
					"name": "ProposalRegistered",
					"type": "event"
				},
				{
					"anonymous": false,
					"inputs": [
						{
							"indexed": false,
							"internalType": "uint256",
							"name": "sessionId",
							"type": "uint256"
						}
					],
					"name": "RenewSession",
					"type": "event"
				},
				{
					"anonymous": false,
					"inputs": [
						{
							"indexed": false,
							"internalType": "uint256",
							"name": "sessionId",
							"type": "uint256"
						},
						{
							"indexed": false,
							"internalType": "address",
							"name": "voter",
							"type": "address"
						},
						{
							"indexed": false,
							"internalType": "uint256",
							"name": "proposalId",
							"type": "uint256"
						}
					],
					"name": "Voted",
					"type": "event"
				},
				{
					"anonymous": false,
					"inputs": [
						{
							"indexed": false,
							"internalType": "address",
							"name": "voterAddress",
							"type": "address"
						},
						{
							"indexed": false,
							"internalType": "bool",
							"name": "isWhitelisted",
							"type": "bool"
						}
					],
					"name": "WhitelistUpdated",
					"type": "event"
				},
				{
					"anonymous": false,
					"inputs": [
						{
							"indexed": false,
							"internalType": "uint256",
							"name": "sessionId",
							"type": "uint256"
						},
						{
							"indexed": false,
							"internalType": "uint256",
							"name": "propositionId",
							"type": "uint256"
						}
					],
					"name": "WinningProposition",
					"type": "event"
				},
				{
					"anonymous": false,
					"inputs": [
						{
							"indexed": false,
							"internalType": "uint256",
							"name": "sessionId",
							"type": "uint256"
						},
						{
							"indexed": false,
							"internalType": "enum Voting.WorkflowStatus",
							"name": "previousStatus",
							"type": "uint8"
						},
						{
							"indexed": false,
							"internalType": "enum Voting.WorkflowStatus",
							"name": "newStatus",
							"type": "uint8"
						}
					],
					"name": "WorkflowStatusChange",
					"type": "event"
				},
				{
					"inputs": [
						{
							"internalType": "uint256",
							"name": "sessionId",
							"type": "uint256"
						}
					],
					"name": "computeMostVotedProposal",
					"outputs": [],
					"stateMutability": "nonpayable",
					"type": "function"
				},
				{
					"inputs": [],
					"name": "createSession",
					"outputs": [],
					"stateMutability": "nonpayable",
					"type": "function"
				},
				{
					"inputs": [
						{
							"internalType": "uint256",
							"name": "sessionId",
							"type": "uint256"
						}
					],
					"name": "endProposalsRegistration",
					"outputs": [],
					"stateMutability": "nonpayable",
					"type": "function"
				},
				{
					"inputs": [
						{
							"internalType": "uint256",
							"name": "sessionId",
							"type": "uint256"
						}
					],
					"name": "endVotingSession",
					"outputs": [],
					"stateMutability": "nonpayable",
					"type": "function"
				},
				{
					"inputs": [
						{
							"internalType": "uint256",
							"name": "_sessionId",
							"type": "uint256"
						}
					],
					"name": "getAllProposals",
					"outputs": [
						{
							"components": [
								{
									"internalType": "string",
									"name": "description",
									"type": "string"
								},
								{
									"internalType": "address",
									"name": "submitter",
									"type": "address"
								},
								{
									"internalType": "uint256",
									"name": "voteCount",
									"type": "uint256"
								}
							],
							"internalType": "struct Voting.Proposal[]",
							"name": "",
							"type": "tuple[]"
						}
					],
					"stateMutability": "view",
					"type": "function"
				},
				{
					"inputs": [
						{
							"internalType": "uint256",
							"name": "_sessionId",
							"type": "uint256"
						}
					],
					"name": "getMostVotedProposal",
					"outputs": [
						{
							"components": [
								{
									"internalType": "string",
									"name": "description",
									"type": "string"
								},
								{
									"internalType": "address",
									"name": "submitter",
									"type": "address"
								},
								{
									"internalType": "uint256",
									"name": "voteCount",
									"type": "uint256"
								}
							],
							"internalType": "struct Voting.Proposal",
							"name": "",
							"type": "tuple"
						}
					],
					"stateMutability": "view",
					"type": "function"
				},
				{
					"inputs": [
						{
							"internalType": "uint256",
							"name": "_sessionId",
							"type": "uint256"
						},
						{
							"internalType": "uint256",
							"name": "proposalIndex",
							"type": "uint256"
						}
					],
					"name": "getProposalDetails",
					"outputs": [
						{
							"components": [
								{
									"internalType": "string",
									"name": "description",
									"type": "string"
								},
								{
									"internalType": "address",
									"name": "submitter",
									"type": "address"
								},
								{
									"internalType": "uint256",
									"name": "voteCount",
									"type": "uint256"
								}
							],
							"internalType": "struct Voting.Proposal",
							"name": "",
							"type": "tuple"
						}
					],
					"stateMutability": "view",
					"type": "function"
				},
				{
					"inputs": [
						{
							"internalType": "uint256",
							"name": "sessionId",
							"type": "uint256"
						},
						{
							"internalType": "address",
							"name": "_address",
							"type": "address"
						}
					],
					"name": "hasVoted",
					"outputs": [
						{
							"internalType": "bool",
							"name": "",
							"type": "bool"
						}
					],
					"stateMutability": "view",
					"type": "function"
				},
				{
					"inputs": [
						{
							"internalType": "address",
							"name": "_address",
							"type": "address"
						}
					],
					"name": "isWhitelisted",
					"outputs": [
						{
							"internalType": "bool",
							"name": "",
							"type": "bool"
						}
					],
					"stateMutability": "view",
					"type": "function"
				},
				{
					"inputs": [],
					"name": "owner",
					"outputs": [
						{
							"internalType": "address",
							"name": "",
							"type": "address"
						}
					],
					"stateMutability": "view",
					"type": "function"
				},
				{
					"inputs": [
						{
							"components": [
								{
									"internalType": "string",
									"name": "description",
									"type": "string"
								},
								{
									"internalType": "address",
									"name": "submitter",
									"type": "address"
								},
								{
									"internalType": "uint256",
									"name": "voteCount",
									"type": "uint256"
								}
							],
							"internalType": "struct Voting.Proposal[]",
							"name": "_bestProposals",
							"type": "tuple[]"
						},
						{
							"internalType": "uint256",
							"name": "_parentSessionId",
							"type": "uint256"
						}
					],
					"name": "renewSession",
					"outputs": [],
					"stateMutability": "nonpayable",
					"type": "function"
				},
				{
					"inputs": [],
					"name": "renounceOwnership",
					"outputs": [],
					"stateMutability": "nonpayable",
					"type": "function"
				},
				{
					"inputs": [
						{
							"internalType": "uint256",
							"name": "sessionId",
							"type": "uint256"
						},
						{
							"internalType": "string",
							"name": "_description",
							"type": "string"
						}
					],
					"name": "sendNewProposition",
					"outputs": [],
					"stateMutability": "nonpayable",
					"type": "function"
				},
				{
					"inputs": [
						{
							"internalType": "uint256",
							"name": "sessionId",
							"type": "uint256"
						},
						{
							"internalType": "uint256",
							"name": "_proposalId",
							"type": "uint256"
						}
					],
					"name": "sendVote",
					"outputs": [],
					"stateMutability": "nonpayable",
					"type": "function"
				},
				{
					"inputs": [
						{
							"internalType": "uint256",
							"name": "sessionId",
							"type": "uint256"
						}
					],
					"name": "startProposalsRegistration",
					"outputs": [],
					"stateMutability": "nonpayable",
					"type": "function"
				},
				{
					"inputs": [
						{
							"internalType": "uint256",
							"name": "sessionId",
							"type": "uint256"
						}
					],
					"name": "startVotingSession",
					"outputs": [],
					"stateMutability": "nonpayable",
					"type": "function"
				},
				{
					"inputs": [
						{
							"internalType": "address",
							"name": "newOwner",
							"type": "address"
						}
					],
					"name": "transferOwnership",
					"outputs": [],
					"stateMutability": "nonpayable",
					"type": "function"
				},
				{
					"inputs": [
						{
							"internalType": "address",
							"name": "_address",
							"type": "address"
						},
						{
							"internalType": "bool",
							"name": "_isWhitelisted",
							"type": "bool"
						}
					],
					"name": "updateWhitelist",
					"outputs": [],
					"stateMutability": "nonpayable",
					"type": "function"
				},
				{
					"inputs": [
						{
							"internalType": "address",
							"name": "",
							"type": "address"
						}
					],
					"name": "whitelist",
					"outputs": [
						{
							"internalType": "bool",
							"name": "",
							"type": "bool"
						}
					],
					"stateMutability": "view",
					"type": "function"
				}
			],
			"devdoc": {
				"errors": {
					"OwnableInvalidOwner(address)": [
						{
							"details": "The owner is not a valid owner account. (eg. `address(0)`)"
						}
					],
					"OwnableUnauthorizedAccount(address)": [
						{
							"details": "The caller account is not authorized to perform an operation."
						}
					]
				},
				"kind": "dev",
				"methods": {
					"owner()": {
						"details": "Returns the address of the current owner."
					},
					"renounceOwnership()": {
						"details": "Leaves the contract without owner. It will not be possible to call `onlyOwner` functions. Can only be called by the current owner. NOTE: Renouncing ownership will leave the contract without an owner, thereby disabling any functionality that is only available to the owner."
					},
					"transferOwnership(address)": {
						"details": "Transfers ownership of the contract to a new account (`newOwner`). Can only be called by the current owner."
					}
				},
				"version": 1
			},
			"evm": {
				"assembly": "    /* \"contracts/VintingV1.sol\":165:7916  contract Voting is Ownable {... */\n  mstore(0x40, 0x80)\n    /* \"contracts/VintingV1.sol\":1347:1388  constructor() Ownable(msg.sender) {... */\n  callvalue\n  dup1\n  iszero\n  tag_1\n  jumpi\n  revert(0x00, 0x00)\ntag_1:\n  pop\n    /* \"contracts/VintingV1.sol\":1369:1379  msg.sender */\n  caller\n    /* \"https://github.com/OpenZeppelin/openzeppelin-contracts/blob/master/contracts/access/Ownable.sol\":1297:1298  0 */\n  0x00\n    /* \"https://github.com/OpenZeppelin/openzeppelin-contracts/blob/master/contracts/access/Ownable.sol\":1273:1299  initialOwner == address(0) */\n  0xffffffffffffffffffffffffffffffffffffffff\n  and\n    /* \"https://github.com/OpenZeppelin/openzeppelin-contracts/blob/master/contracts/access/Ownable.sol\":1273:1285  initialOwner */\n  dup2\n    /* \"https://github.com/OpenZeppelin/openzeppelin-contracts/blob/master/contracts/access/Ownable.sol\":1273:1299  initialOwner == address(0) */\n  0xffffffffffffffffffffffffffffffffffffffff\n  and\n  sub\n    /* \"https://github.com/OpenZeppelin/openzeppelin-contracts/blob/master/contracts/access/Ownable.sol\":1269:1364  if (initialOwner == address(0)) {... */\n  tag_5\n  jumpi\n    /* \"https://github.com/OpenZeppelin/openzeppelin-contracts/blob/master/contracts/access/Ownable.sol\":1350:1351  0 */\n  0x00\n    /* \"https://github.com/OpenZeppelin/openzeppelin-contracts/blob/master/contracts/access/Ownable.sol\":1322:1353  OwnableInvalidOwner(address(0)) */\n  mload(0x40)\n  0x1e4fbdf700000000000000000000000000000000000000000000000000000000\n  dup2\n  mstore\n  0x04\n  add\n  tag_6\n  swap2\n  swap1\n  tag_7\n  jump\t// in\ntag_6:\n  mload(0x40)\n  dup1\n  swap2\n  sub\n  swap1\n  revert\n    /* \"https://github.com/OpenZeppelin/openzeppelin-contracts/blob/master/contracts/access/Ownable.sol\":1269:1364  if (initialOwner == address(0)) {... */\ntag_5:\n    /* \"https://github.com/OpenZeppelin/openzeppelin-contracts/blob/master/contracts/access/Ownable.sol\":1373:1405  _transferOwnership(initialOwner) */\n  tag_8\n    /* \"https://github.com/OpenZeppelin/openzeppelin-contracts/blob/master/contracts/access/Ownable.sol\":1392:1404  initialOwner */\n  dup2\n    /* \"https://github.com/OpenZeppelin/openzeppelin-contracts/blob/master/contracts/access/Ownable.sol\":1373:1391  _transferOwnership */\n  shl(0x20, tag_9)\n    /* \"https://github.com/OpenZeppelin/openzeppelin-contracts/blob/master/contracts/access/Ownable.sol\":1373:1405  _transferOwnership(initialOwner) */\n  0x20\n  shr\n  jump\t// in\ntag_8:\n    /* \"https://github.com/OpenZeppelin/openzeppelin-contracts/blob/master/contracts/access/Ownable.sol\":1225:1412  constructor(address initialOwner) {... */\n  pop\n    /* \"contracts/VintingV1.sol\":165:7916  contract Voting is Ownable {... */\n  jump(tag_11)\n    /* \"https://github.com/OpenZeppelin/openzeppelin-contracts/blob/master/contracts/access/Ownable.sol\":2912:3099  function _transferOwnership(address newOwner) internal virtual {... */\ntag_9:\n    /* \"https://github.com/OpenZeppelin/openzeppelin-contracts/blob/master/contracts/access/Ownable.sol\":2985:3001  address oldOwner */\n  0x00\n    /* \"https://github.com/OpenZeppelin/openzeppelin-contracts/blob/master/contracts/access/Ownable.sol\":3004:3010  _owner */\n  0x00\n  0x00\n  swap1\n  sload\n  swap1\n  0x0100\n  exp\n  swap1\n  div\n  0xffffffffffffffffffffffffffffffffffffffff\n  and\n    /* \"https://github.com/OpenZeppelin/openzeppelin-contracts/blob/master/contracts/access/Ownable.sol\":2985:3010  address oldOwner = _owner */\n  swap1\n  pop\n    /* \"https://github.com/OpenZeppelin/openzeppelin-contracts/blob/master/contracts/access/Ownable.sol\":3029:3037  newOwner */\n  dup2\n    /* \"https://github.com/OpenZeppelin/openzeppelin-contracts/blob/master/contracts/access/Ownable.sol\":3020:3026  _owner */\n  0x00\n  0x00\n    /* \"https://github.com/OpenZeppelin/openzeppelin-contracts/blob/master/contracts/access/Ownable.sol\":3020:3037  _owner = newOwner */\n  0x0100\n  exp\n  dup2\n  sload\n  dup2\n  0xffffffffffffffffffffffffffffffffffffffff\n  mul\n  not\n  and\n  swap1\n  dup4\n  0xffffffffffffffffffffffffffffffffffffffff\n  and\n  mul\n  or\n  swap1\n  sstore\n  pop\n    /* \"https://github.com/OpenZeppelin/openzeppelin-contracts/blob/master/contracts/access/Ownable.sol\":3083:3091  newOwner */\n  dup2\n    /* \"https://github.com/OpenZeppelin/openzeppelin-contracts/blob/master/contracts/access/Ownable.sol\":3052:3092  OwnershipTransferred(oldOwner, newOwner) */\n  0xffffffffffffffffffffffffffffffffffffffff\n  and\n    /* \"https://github.com/OpenZeppelin/openzeppelin-contracts/blob/master/contracts/access/Ownable.sol\":3073:3081  oldOwner */\n  dup2\n    /* \"https://github.com/OpenZeppelin/openzeppelin-contracts/blob/master/contracts/access/Ownable.sol\":3052:3092  OwnershipTransferred(oldOwner, newOwner) */\n  0xffffffffffffffffffffffffffffffffffffffff\n  and\n  0x8be0079c531659141344cd1fd0a4f28419497f9722a3daafe3b4186f6b6457e0\n  mload(0x40)\n  mload(0x40)\n  dup1\n  swap2\n  sub\n  swap1\n  log3\n    /* \"https://github.com/OpenZeppelin/openzeppelin-contracts/blob/master/contracts/access/Ownable.sol\":2975:3099  {... */\n  pop\n    /* \"https://github.com/OpenZeppelin/openzeppelin-contracts/blob/master/contracts/access/Ownable.sol\":2912:3099  function _transferOwnership(address newOwner) internal virtual {... */\n  pop\n  jump\t// out\n    /* \"#utility.yul\":7:133   */\ntag_13:\n    /* \"#utility.yul\":44:51   */\n  0x00\n    /* \"#utility.yul\":84:126   */\n  0xffffffffffffffffffffffffffffffffffffffff\n    /* \"#utility.yul\":77:82   */\n  dup3\n    /* \"#utility.yul\":73:127   */\n  and\n    /* \"#utility.yul\":62:127   */\n  swap1\n  pop\n    /* \"#utility.yul\":7:133   */\n  swap2\n  swap1\n  pop\n  jump\t// out\n    /* \"#utility.yul\":139:235   */\ntag_14:\n    /* \"#utility.yul\":176:183   */\n  0x00\n    /* \"#utility.yul\":205:229   */\n  tag_19\n    /* \"#utility.yul\":223:228   */\n  dup3\n    /* \"#utility.yul\":205:229   */\n  tag_13\n  jump\t// in\ntag_19:\n    /* \"#utility.yul\":194:229   */\n  swap1\n  pop\n    /* \"#utility.yul\":139:235   */\n  swap2\n  swap1\n  pop\n  jump\t// out\n    /* \"#utility.yul\":241:359   */\ntag_15:\n    /* \"#utility.yul\":328:352   */\n  tag_21\n    /* \"#utility.yul\":346:351   */\n  dup2\n    /* \"#utility.yul\":328:352   */\n  tag_14\n  jump\t// in\ntag_21:\n    /* \"#utility.yul\":323:326   */\n  dup3\n    /* \"#utility.yul\":316:353   */\n  mstore\n    /* \"#utility.yul\":241:359   */\n  pop\n  pop\n  jump\t// out\n    /* \"#utility.yul\":365:587   */\ntag_7:\n    /* \"#utility.yul\":458:462   */\n  0x00\n    /* \"#utility.yul\":496:498   */\n  0x20\n    /* \"#utility.yul\":485:494   */\n  dup3\n    /* \"#utility.yul\":481:499   */\n  add\n    /* \"#utility.yul\":473:499   */\n  swap1\n  pop\n    /* \"#utility.yul\":509:580   */\n  tag_23\n    /* \"#utility.yul\":577:578   */\n  0x00\n    /* \"#utility.yul\":566:575   */\n  dup4\n    /* \"#utility.yul\":562:579   */\n  add\n    /* \"#utility.yul\":553:559   */\n  dup5\n    /* \"#utility.yul\":509:580   */\n  tag_15\n  jump\t// in\ntag_23:\n    /* \"#utility.yul\":365:587   */\n  swap3\n  swap2\n  pop\n  pop\n  jump\t// out\n    /* \"contracts/VintingV1.sol\":165:7916  contract Voting is Ownable {... */\ntag_11:\n  dataSize(sub_0)\n  dup1\n  dataOffset(sub_0)\n  0x00\n  codecopy\n  0x00\n  return\nstop\n\nsub_0: assembly {\n        /* \"contracts/VintingV1.sol\":165:7916  contract Voting is Ownable {... */\n      mstore(0x40, 0x80)\n      callvalue\n      dup1\n      iszero\n      tag_1\n      jumpi\n      revert(0x00, 0x00)\n    tag_1:\n      pop\n      jumpi(tag_2, lt(calldatasize, 0x04))\n      shr(0xe0, calldataload(0x00))\n      dup1\n      0x89a2f485\n      gt\n      tag_22\n      jumpi\n      dup1\n      0x9b19251a\n      gt\n      tag_23\n      jumpi\n      dup1\n      0x9b19251a\n      eq\n      tag_17\n      jumpi\n      dup1\n      0xbf8ca1aa\n      eq\n      tag_18\n      jumpi\n      dup1\n      0xd1ff7eeb\n      eq\n      tag_19\n      jumpi\n      dup1\n      0xd6a10dcb\n      eq\n      tag_20\n      jumpi\n      dup1\n      0xf2fde38b\n      eq\n      tag_21\n      jumpi\n      jump(tag_2)\n    tag_23:\n      dup1\n      0x89a2f485\n      eq\n      tag_12\n      jumpi\n      dup1\n      0x8bc6a6dd\n      eq\n      tag_13\n      jumpi\n      dup1\n      0x8da5cb5b\n      eq\n      tag_14\n      jumpi\n      dup1\n      0x97decb3f\n      eq\n      tag_15\n      jumpi\n      dup1\n      0x9980a55a\n      eq\n      tag_16\n      jumpi\n      jump(tag_2)\n    tag_22:\n      dup1\n      0x35bb3d30\n      gt\n      tag_24\n      jumpi\n      dup1\n      0x35bb3d30\n      eq\n      tag_7\n      jumpi\n      dup1\n      0x371820e9\n      eq\n      tag_8\n      jumpi\n      dup1\n      0x3af32abf\n      eq\n      tag_9\n      jumpi\n      dup1\n      0x43859632\n      eq\n      tag_10\n      jumpi\n      dup1\n      0x715018a6\n      eq\n      tag_11\n      jumpi\n      jump(tag_2)\n    tag_24:\n      dup1\n      0x0d392cd9\n      eq\n      tag_3\n      jumpi\n      dup1\n      0x19f03af2\n      eq\n      tag_4\n      jumpi\n      dup1\n      0x1cbf1b02\n      eq\n      tag_5\n      jumpi\n      dup1\n      0x291e6777\n      eq\n      tag_6\n      jumpi\n    tag_2:\n      revert(0x00, 0x00)\n        /* \"contracts/VintingV1.sol\":1394:1668  function updateWhitelist(address _address, bool _isWhitelisted) public onlyOwner {... */\n    tag_3:\n      tag_25\n      0x04\n      dup1\n      calldatasize\n      sub\n      dup2\n      add\n      swap1\n      tag_26\n      swap2\n      swap1\n      tag_27\n      jump\t// in\n    tag_26:\n      tag_28\n      jump\t// in\n    tag_25:\n      stop\n        /* \"contracts/VintingV1.sol\":2030:2499  function renewSession(Proposal[] memory _bestProposals, uint _parentSessionId) public onlyOwner {... */\n    tag_4:\n      tag_29\n      0x04\n      dup1\n      calldatasize\n      sub\n      dup2\n      add\n      swap1\n      tag_30\n      swap2\n      swap1\n      tag_31\n      jump\t// in\n    tag_30:\n      tag_32\n      jump\t// in\n    tag_29:\n      stop\n        /* \"contracts/VintingV1.sol\":1791:2024  function createSession() public onlyOwner {... */\n    tag_5:\n      tag_33\n      tag_34\n      jump\t// in\n    tag_33:\n      stop\n        /* \"contracts/VintingV1.sol\":4598:5348  function sendVote(uint sessionId, uint _proposalId) public {... */\n    tag_6:\n      tag_35\n      0x04\n      dup1\n      calldatasize\n      sub\n      dup2\n      add\n      swap1\n      tag_36\n      swap2\n      swap1\n      tag_37\n      jump\t// in\n    tag_36:\n      tag_38\n      jump\t// in\n    tag_35:\n      stop\n        /* \"contracts/VintingV1.sol\":5354:5874  function endVotingSession(uint sessionId) public onlyOwner {... */\n    tag_7:\n      tag_39\n      0x04\n      dup1\n      calldatasize\n      sub\n      dup2\n      add\n      swap1\n      tag_40\n      swap2\n      swap1\n      tag_41\n      jump\t// in\n    tag_40:\n      tag_42\n      jump\t// in\n    tag_39:\n      stop\n        /* \"contracts/VintingV1.sol\":2931:3535  function sendNewProposition(uint sessionId, string memory _description) public {... */\n    tag_8:\n      tag_43\n      0x04\n      dup1\n      calldatasize\n      sub\n      dup2\n      add\n      swap1\n      tag_44\n      swap2\n      swap1\n      tag_45\n      jump\t// in\n    tag_44:\n      tag_46\n      jump\t// in\n    tag_43:\n      stop\n        /* \"contracts/VintingV1.sol\":1674:1785  function isWhitelisted(address _address) public view returns (bool) {... */\n    tag_9:\n      tag_47\n      0x04\n      dup1\n      calldatasize\n      sub\n      dup2\n      add\n      swap1\n      tag_48\n      swap2\n      swap1\n      tag_49\n      jump\t// in\n    tag_48:\n      tag_50\n      jump\t// in\n    tag_47:\n      mload(0x40)\n      tag_51\n      swap2\n      swap1\n      tag_52\n      jump\t// in\n    tag_51:\n      mload(0x40)\n      dup1\n      swap2\n      sub\n      swap1\n      return\n        /* \"contracts/VintingV1.sol\":7686:7827  function hasVoted(uint sessionId, address _address) public view returns(bool) {... */\n    tag_10:\n      tag_53\n      0x04\n      dup1\n      calldatasize\n      sub\n      dup2\n      add\n      swap1\n      tag_54\n      swap2\n      swap1\n      tag_55\n      jump\t// in\n    tag_54:\n      tag_56\n      jump\t// in\n    tag_53:\n      mload(0x40)\n      tag_57\n      swap2\n      swap1\n      tag_52\n      jump\t// in\n    tag_57:\n      mload(0x40)\n      dup1\n      swap2\n      sub\n      swap1\n      return\n        /* \"https://github.com/OpenZeppelin/openzeppelin-contracts/blob/master/contracts/access/Ownable.sol\":2293:2394  function renounceOwnership() public virtual onlyOwner {... */\n    tag_11:\n      tag_58\n      tag_59\n      jump\t// in\n    tag_58:\n      stop\n        /* \"contracts/VintingV1.sol\":7118:7352  function getMostVotedProposal(uint _sessionId) external view returns(Proposal memory) {... */\n    tag_12:\n      tag_60\n      0x04\n      dup1\n      calldatasize\n      sub\n      dup2\n      add\n      swap1\n      tag_61\n      swap2\n      swap1\n      tag_41\n      jump\t// in\n    tag_61:\n      tag_62\n      jump\t// in\n    tag_60:\n      mload(0x40)\n      tag_63\n      swap2\n      swap1\n      tag_64\n      jump\t// in\n    tag_63:\n      mload(0x40)\n      dup1\n      swap2\n      sub\n      swap1\n      return\n        /* \"contracts/VintingV1.sol\":2505:2925  function startProposalsRegistration(uint sessionId) public onlyOwner {... */\n    tag_13:\n      tag_65\n      0x04\n      dup1\n      calldatasize\n      sub\n      dup2\n      add\n      swap1\n      tag_66\n      swap2\n      swap1\n      tag_41\n      jump\t// in\n    tag_66:\n      tag_67\n      jump\t// in\n    tag_65:\n      stop\n        /* \"https://github.com/OpenZeppelin/openzeppelin-contracts/blob/master/contracts/access/Ownable.sol\":1638:1723  function owner() public view virtual returns (address) {... */\n    tag_14:\n      tag_68\n      tag_69\n      jump\t// in\n    tag_68:\n      mload(0x40)\n      tag_70\n      swap2\n      swap1\n      tag_71\n      jump\t// in\n    tag_70:\n      mload(0x40)\n      dup1\n      swap2\n      sub\n      swap1\n      return\n        /* \"contracts/VintingV1.sol\":7501:7676  function getProposalDetails(uint _sessionId, uint proposalIndex) external view returns (Proposal memory ) {... */\n    tag_15:\n      tag_72\n      0x04\n      dup1\n      calldatasize\n      sub\n      dup2\n      add\n      swap1\n      tag_73\n      swap2\n      swap1\n      tag_37\n      jump\t// in\n    tag_73:\n      tag_74\n      jump\t// in\n    tag_72:\n      mload(0x40)\n      tag_75\n      swap2\n      swap1\n      tag_64\n      jump\t// in\n    tag_75:\n      mload(0x40)\n      dup1\n      swap2\n      sub\n      swap1\n      return\n        /* \"contracts/VintingV1.sol\":4125:4588  function startVotingSession(uint sessionId) public onlyOwner {... */\n    tag_16:\n      tag_76\n      0x04\n      dup1\n      calldatasize\n      sub\n      dup2\n      add\n      swap1\n      tag_77\n      swap2\n      swap1\n      tag_41\n      jump\t// in\n    tag_77:\n      tag_78\n      jump\t// in\n    tag_76:\n      stop\n        /* \"contracts/VintingV1.sol\":778:819  mapping(address => bool) public whitelist */\n    tag_17:\n      tag_79\n      0x04\n      dup1\n      calldatasize\n      sub\n      dup2\n      add\n      swap1\n      tag_80\n      swap2\n      swap1\n      tag_49\n      jump\t// in\n    tag_80:\n      tag_81\n      jump\t// in\n    tag_79:\n      mload(0x40)\n      tag_82\n      swap2\n      swap1\n      tag_52\n      jump\t// in\n    tag_82:\n      mload(0x40)\n      dup1\n      swap2\n      sub\n      swap1\n      return\n        /* \"contracts/VintingV1.sol\":7358:7495  function getAllProposals(uint _sessionId) external view returns(Proposal[] memory) {... */\n    tag_18:\n      tag_83\n      0x04\n      dup1\n      calldatasize\n      sub\n      dup2\n      add\n      swap1\n      tag_84\n      swap2\n      swap1\n      tag_41\n      jump\t// in\n    tag_84:\n      tag_85\n      jump\t// in\n    tag_83:\n      mload(0x40)\n      tag_86\n      swap2\n      swap1\n      tag_87\n      jump\t// in\n    tag_86:\n      mload(0x40)\n      dup1\n      swap2\n      sub\n      swap1\n      return\n        /* \"contracts/VintingV1.sol\":3545:4119  function endProposalsRegistration(uint sessionId) public onlyOwner {... */\n    tag_19:\n      tag_88\n      0x04\n      dup1\n      calldatasize\n      sub\n      dup2\n      add\n      swap1\n      tag_89\n      swap2\n      swap1\n      tag_41\n      jump\t// in\n    tag_89:\n      tag_90\n      jump\t// in\n    tag_88:\n      stop\n        /* \"contracts/VintingV1.sol\":5880:7112  function computeMostVotedProposal(uint sessionId) public onlyOwner {   ... */\n    tag_20:\n      tag_91\n      0x04\n      dup1\n      calldatasize\n      sub\n      dup2\n      add\n      swap1\n      tag_92\n      swap2\n      swap1\n      tag_41\n      jump\t// in\n    tag_92:\n      tag_93\n      jump\t// in\n    tag_91:\n      stop\n        /* \"https://github.com/OpenZeppelin/openzeppelin-contracts/blob/master/contracts/access/Ownable.sol\":2543:2758  function transferOwnership(address newOwner) public virtual onlyOwner {... */\n    tag_21:\n      tag_94\n      0x04\n      dup1\n      calldatasize\n      sub\n      dup2\n      add\n      swap1\n      tag_95\n      swap2\n      swap1\n      tag_49\n      jump\t// in\n    tag_95:\n      tag_96\n      jump\t// in\n    tag_94:\n      stop\n        /* \"contracts/VintingV1.sol\":1394:1668  function updateWhitelist(address _address, bool _isWhitelisted) public onlyOwner {... */\n    tag_28:\n        /* \"https://github.com/OpenZeppelin/openzeppelin-contracts/blob/master/contracts/access/Ownable.sol\":1531:1544  _checkOwner() */\n      tag_98\n        /* \"https://github.com/OpenZeppelin/openzeppelin-contracts/blob/master/contracts/access/Ownable.sol\":1531:1542  _checkOwner */\n      tag_99\n        /* \"https://github.com/OpenZeppelin/openzeppelin-contracts/blob/master/contracts/access/Ownable.sol\":1531:1544  _checkOwner() */\n      jump\t// in\n    tag_98:\n        /* \"contracts/VintingV1.sol\":1516:1530  _isWhitelisted */\n      dup1\n        /* \"contracts/VintingV1.sol\":1493:1530  whitelist[_address] != _isWhitelisted */\n      iszero\n      iszero\n        /* \"contracts/VintingV1.sol\":1493:1502  whitelist */\n      0x01\n        /* \"contracts/VintingV1.sol\":1493:1512  whitelist[_address] */\n      0x00\n        /* \"contracts/VintingV1.sol\":1503:1511  _address */\n      dup5\n        /* \"contracts/VintingV1.sol\":1493:1512  whitelist[_address] */\n      0xffffffffffffffffffffffffffffffffffffffff\n      and\n      0xffffffffffffffffffffffffffffffffffffffff\n      and\n      dup2\n      mstore\n      0x20\n      add\n      swap1\n      dup2\n      mstore\n      0x20\n      add\n      0x00\n      keccak256\n      0x00\n      swap1\n      sload\n      swap1\n      0x0100\n      exp\n      swap1\n      div\n      0xff\n      and\n        /* \"contracts/VintingV1.sol\":1493:1530  whitelist[_address] != _isWhitelisted */\n      iszero\n      iszero\n      sub\n        /* \"contracts/VintingV1.sol\":1485:1558  require(whitelist[_address] != _isWhitelisted, \"whitelist is up to date\") */\n      tag_101\n      jumpi\n      mload(0x40)\n      0x08c379a000000000000000000000000000000000000000000000000000000000\n      dup2\n      mstore\n      0x04\n      add\n      tag_102\n      swap1\n      tag_103\n      jump\t// in\n    tag_102:\n      mload(0x40)\n      dup1\n      swap2\n      sub\n      swap1\n      revert\n    tag_101:\n        /* \"contracts/VintingV1.sol\":1590:1604  _isWhitelisted */\n      dup1\n        /* \"contracts/VintingV1.sol\":1568:1577  whitelist */\n      0x01\n        /* \"contracts/VintingV1.sol\":1568:1587  whitelist[_address] */\n      0x00\n        /* \"contracts/VintingV1.sol\":1578:1586  _address */\n      dup5\n        /* \"contracts/VintingV1.sol\":1568:1587  whitelist[_address] */\n      0xffffffffffffffffffffffffffffffffffffffff\n      and\n      0xffffffffffffffffffffffffffffffffffffffff\n      and\n      dup2\n      mstore\n      0x20\n      add\n      swap1\n      dup2\n      mstore\n      0x20\n      add\n      0x00\n      keccak256\n      0x00\n        /* \"contracts/VintingV1.sol\":1568:1604  whitelist[_address] = _isWhitelisted */\n      0x0100\n      exp\n      dup2\n      sload\n      dup2\n      0xff\n      mul\n      not\n      and\n      swap1\n      dup4\n      iszero\n      iszero\n      mul\n      or\n      swap1\n      sstore\n      pop\n        /* \"contracts/VintingV1.sol\":1619:1661  WhitelistUpdated(_address, _isWhitelisted) */\n      0xf93f9a76c1bf3444d22400a00cb9fe990e6abe9dbb333fda48859cfee864543d\n        /* \"contracts/VintingV1.sol\":1636:1644  _address */\n      dup3\n        /* \"contracts/VintingV1.sol\":1646:1660  _isWhitelisted */\n      dup3\n        /* \"contracts/VintingV1.sol\":1619:1661  WhitelistUpdated(_address, _isWhitelisted) */\n      mload(0x40)\n      tag_104\n      swap3\n      swap2\n      swap1\n      tag_105\n      jump\t// in\n    tag_104:\n      mload(0x40)\n      dup1\n      swap2\n      sub\n      swap1\n      log1\n        /* \"contracts/VintingV1.sol\":1394:1668  function updateWhitelist(address _address, bool _isWhitelisted) public onlyOwner {... */\n      pop\n      pop\n      jump\t// out\n        /* \"contracts/VintingV1.sol\":2030:2499  function renewSession(Proposal[] memory _bestProposals, uint _parentSessionId) public onlyOwner {... */\n    tag_32:\n        /* \"https://github.com/OpenZeppelin/openzeppelin-contracts/blob/master/contracts/access/Ownable.sol\":1531:1544  _checkOwner() */\n      tag_107\n        /* \"https://github.com/OpenZeppelin/openzeppelin-contracts/blob/master/contracts/access/Ownable.sol\":1531:1542  _checkOwner */\n      tag_99\n        /* \"https://github.com/OpenZeppelin/openzeppelin-contracts/blob/master/contracts/access/Ownable.sol\":1531:1544  _checkOwner() */\n      jump\t// in\n    tag_107:\n        /* \"contracts/VintingV1.sol\":2136:2152  sessionIdCounter */\n      0x03\n      0x00\n        /* \"contracts/VintingV1.sol\":2136:2154  sessionIdCounter++ */\n      dup2\n      sload\n      dup1\n      swap3\n      swap2\n      swap1\n      tag_109\n      swap1\n      tag_110\n      jump\t// in\n    tag_109:\n      swap2\n      swap1\n      pop\n      sstore\n      pop\n        /* \"contracts/VintingV1.sol\":2164:2190  Session storage newSession */\n      0x00\n        /* \"contracts/VintingV1.sol\":2193:2201  sessions */\n      0x02\n        /* \"contracts/VintingV1.sol\":2193:2219  sessions[sessionIdCounter] */\n      0x00\n        /* \"contracts/VintingV1.sol\":2202:2218  sessionIdCounter */\n      sload(0x03)\n        /* \"contracts/VintingV1.sol\":2193:2219  sessions[sessionIdCounter] */\n      dup2\n      mstore\n      0x20\n      add\n      swap1\n      dup2\n      mstore\n      0x20\n      add\n      0x00\n      keccak256\n        /* \"contracts/VintingV1.sol\":2164:2219  Session storage newSession = sessions[sessionIdCounter] */\n      swap1\n      pop\n        /* \"contracts/VintingV1.sol\":2245:2261  sessionIdCounter */\n      sload(0x03)\n        /* \"contracts/VintingV1.sol\":2229:2239  newSession */\n      dup2\n        /* \"contracts/VintingV1.sol\":2229:2242  newSession.id */\n      0x00\n      add\n        /* \"contracts/VintingV1.sol\":2229:2261  newSession.id = sessionIdCounter */\n      dup2\n      swap1\n      sstore\n      pop\n        /* \"contracts/VintingV1.sol\":2300:2316  _parentSessionId */\n      dup2\n        /* \"contracts/VintingV1.sol\":2271:2281  newSession */\n      dup2\n        /* \"contracts/VintingV1.sol\":2271:2297  newSession.parentSessionId */\n      0x06\n      add\n        /* \"contracts/VintingV1.sol\":2271:2316  newSession.parentSessionId = _parentSessionId */\n      dup2\n      swap1\n      sstore\n      pop\n        /* \"contracts/VintingV1.sol\":2331:2337  uint i */\n      0x00\n        /* \"contracts/VintingV1.sol\":2340:2341  0 */\n      0x00\n        /* \"contracts/VintingV1.sol\":2331:2341  uint i = 0 */\n      swap1\n      pop\n        /* \"contracts/VintingV1.sol\":2326:2444  for (uint i = 0; i < _bestProposals.length; i++) {... */\n    tag_111:\n        /* \"contracts/VintingV1.sol\":2347:2361  _bestProposals */\n      dup4\n        /* \"contracts/VintingV1.sol\":2347:2368  _bestProposals.length */\n      mload\n        /* \"contracts/VintingV1.sol\":2343:2344  i */\n      dup2\n        /* \"contracts/VintingV1.sol\":2343:2368  i < _bestProposals.length */\n      lt\n        /* \"contracts/VintingV1.sol\":2326:2444  for (uint i = 0; i < _bestProposals.length; i++) {... */\n      iszero\n      tag_112\n      jumpi\n        /* \"contracts/VintingV1.sol\":2389:2399  newSession */\n      dup2\n        /* \"contracts/VintingV1.sol\":2389:2409  newSession.proposals */\n      0x04\n      add\n        /* \"contracts/VintingV1.sol\":2415:2429  _bestProposals */\n      dup5\n        /* \"contracts/VintingV1.sol\":2430:2431  i */\n      dup3\n        /* \"contracts/VintingV1.sol\":2415:2432  _bestProposals[i] */\n      dup2\n      mload\n      dup2\n      lt\n      tag_114\n      jumpi\n      tag_115\n      tag_116\n      jump\t// in\n    tag_115:\n    tag_114:\n      0x20\n      mul\n      0x20\n      add\n      add\n      mload\n        /* \"contracts/VintingV1.sol\":2389:2433  newSession.proposals.push(_bestProposals[i]) */\n      swap1\n      dup1\n      0x01\n      dup2\n      sload\n      add\n      dup1\n      dup3\n      sstore\n      dup1\n      swap2\n      pop\n      pop\n      0x01\n      swap1\n      sub\n      swap1\n      0x00\n      mstore\n      keccak256(0x00, 0x20)\n      swap1\n      0x03\n      mul\n      add\n      0x00\n      swap1\n      swap2\n      swap1\n      swap2\n      swap1\n      swap2\n      pop\n      0x00\n      dup3\n      add\n      mload\n      dup2\n      0x00\n      add\n      swap1\n      dup2\n      tag_118\n      swap2\n      swap1\n      tag_119\n      jump\t// in\n    tag_118:\n      pop\n      0x20\n      dup3\n      add\n      mload\n      dup2\n      0x01\n      add\n      exp(0x0100, 0x00)\n      dup2\n      sload\n      dup2\n      0xffffffffffffffffffffffffffffffffffffffff\n      mul\n      not\n      and\n      swap1\n      dup4\n      0xffffffffffffffffffffffffffffffffffffffff\n      and\n      mul\n      or\n      swap1\n      sstore\n      pop\n      0x40\n      dup3\n      add\n      mload\n      dup2\n      0x02\n      add\n      sstore\n      pop\n      pop\n        /* \"contracts/VintingV1.sol\":2370:2373  i++ */\n      dup1\n      dup1\n      0x01\n      add\n      swap2\n      pop\n      pop\n        /* \"contracts/VintingV1.sol\":2326:2444  for (uint i = 0; i < _bestProposals.length; i++) {... */\n      jump(tag_111)\n    tag_112:\n      pop\n        /* \"contracts/VintingV1.sol\":2458:2492  NewVotingSession(sessionIdCounter) */\n      0x4b30851682903261bad80bb108cc1b7cdceda15ecc8cbab440ddc8988e102a85\n        /* \"contracts/VintingV1.sol\":2475:2491  sessionIdCounter */\n      sload(0x03)\n        /* \"contracts/VintingV1.sol\":2458:2492  NewVotingSession(sessionIdCounter) */\n      mload(0x40)\n      tag_120\n      swap2\n      swap1\n      tag_121\n      jump\t// in\n    tag_120:\n      mload(0x40)\n      dup1\n      swap2\n      sub\n      swap1\n      log1\n        /* \"contracts/VintingV1.sol\":2126:2499  {... */\n      pop\n        /* \"contracts/VintingV1.sol\":2030:2499  function renewSession(Proposal[] memory _bestProposals, uint _parentSessionId) public onlyOwner {... */\n      pop\n      pop\n      jump\t// out\n        /* \"contracts/VintingV1.sol\":1791:2024  function createSession() public onlyOwner {... */\n    tag_34:\n        /* \"https://github.com/OpenZeppelin/openzeppelin-contracts/blob/master/contracts/access/Ownable.sol\":1531:1544  _checkOwner() */\n      tag_123\n        /* \"https://github.com/OpenZeppelin/openzeppelin-contracts/blob/master/contracts/access/Ownable.sol\":1531:1542  _checkOwner */\n      tag_99\n        /* \"https://github.com/OpenZeppelin/openzeppelin-contracts/blob/master/contracts/access/Ownable.sol\":1531:1544  _checkOwner() */\n      jump\t// in\n    tag_123:\n        /* \"contracts/VintingV1.sol\":1843:1859  sessionIdCounter */\n      0x03\n      0x00\n        /* \"contracts/VintingV1.sol\":1843:1861  sessionIdCounter++ */\n      dup2\n      sload\n      dup1\n      swap3\n      swap2\n      swap1\n      tag_125\n      swap1\n      tag_110\n      jump\t// in\n    tag_125:\n      swap2\n      swap1\n      pop\n      sstore\n      pop\n        /* \"contracts/VintingV1.sol\":1871:1897  Session storage newSession */\n      0x00\n        /* \"contracts/VintingV1.sol\":1900:1908  sessions */\n      0x02\n        /* \"contracts/VintingV1.sol\":1900:1926  sessions[sessionIdCounter] */\n      0x00\n        /* \"contracts/VintingV1.sol\":1909:1925  sessionIdCounter */\n      sload(0x03)\n        /* \"contracts/VintingV1.sol\":1900:1926  sessions[sessionIdCounter] */\n      dup2\n      mstore\n      0x20\n      add\n      swap1\n      dup2\n      mstore\n      0x20\n      add\n      0x00\n      keccak256\n        /* \"contracts/VintingV1.sol\":1871:1926  Session storage newSession = sessions[sessionIdCounter] */\n      swap1\n      pop\n        /* \"contracts/VintingV1.sol\":1952:1968  sessionIdCounter */\n      sload(0x03)\n        /* \"contracts/VintingV1.sol\":1936:1946  newSession */\n      dup2\n        /* \"contracts/VintingV1.sol\":1936:1949  newSession.id */\n      0x00\n      add\n        /* \"contracts/VintingV1.sol\":1936:1968  newSession.id = sessionIdCounter */\n      dup2\n      swap1\n      sstore\n      pop\n        /* \"contracts/VintingV1.sol\":1983:2017  NewVotingSession(sessionIdCounter) */\n      0x4b30851682903261bad80bb108cc1b7cdceda15ecc8cbab440ddc8988e102a85\n        /* \"contracts/VintingV1.sol\":2000:2016  sessionIdCounter */\n      sload(0x03)\n        /* \"contracts/VintingV1.sol\":1983:2017  NewVotingSession(sessionIdCounter) */\n      mload(0x40)\n      tag_126\n      swap2\n      swap1\n      tag_121\n      jump\t// in\n    tag_126:\n      mload(0x40)\n      dup1\n      swap2\n      sub\n      swap1\n      log1\n        /* \"contracts/VintingV1.sol\":1833:2024  {... */\n      pop\n        /* \"contracts/VintingV1.sol\":1791:2024  function createSession() public onlyOwner {... */\n      jump\t// out\n        /* \"contracts/VintingV1.sol\":4598:5348  function sendVote(uint sessionId, uint _proposalId) public {... */\n    tag_38:\n        /* \"contracts/VintingV1.sol\":4667:4697  Session storage currentSession */\n      0x00\n        /* \"contracts/VintingV1.sol\":4700:4708  sessions */\n      0x02\n        /* \"contracts/VintingV1.sol\":4700:4719  sessions[sessionId] */\n      0x00\n        /* \"contracts/VintingV1.sol\":4709:4718  sessionId */\n      dup5\n        /* \"contracts/VintingV1.sol\":4700:4719  sessions[sessionId] */\n      dup2\n      mstore\n      0x20\n      add\n      swap1\n      dup2\n      mstore\n      0x20\n      add\n      0x00\n      keccak256\n        /* \"contracts/VintingV1.sol\":4667:4719  Session storage currentSession = sessions[sessionId] */\n      swap1\n      pop\n        /* \"contracts/VintingV1.sol\":4770:4805  WorkflowStatus.VotingSessionStarted */\n      0x03\n        /* \"contracts/VintingV1.sol\":4737:4805  currentSession.workflowStatus == WorkflowStatus.VotingSessionStarted */\n      0x05\n      dup2\n      gt\n      iszero\n      tag_128\n      jumpi\n      tag_129\n      tag_130\n      jump\t// in\n    tag_129:\n    tag_128:\n        /* \"contracts/VintingV1.sol\":4737:4751  currentSession */\n      dup2\n        /* \"contracts/VintingV1.sol\":4737:4766  currentSession.workflowStatus */\n      0x01\n      add\n      0x00\n      swap1\n      sload\n      swap1\n      0x0100\n      exp\n      swap1\n      div\n      0xff\n      and\n        /* \"contracts/VintingV1.sol\":4737:4805  currentSession.workflowStatus == WorkflowStatus.VotingSessionStarted */\n      0x05\n      dup2\n      gt\n      iszero\n      tag_131\n      jumpi\n      tag_132\n      tag_130\n      jump\t// in\n    tag_132:\n    tag_131:\n      eq\n        /* \"contracts/VintingV1.sol\":4729:4838  require(currentSession.workflowStatus == WorkflowStatus.VotingSessionStarted, \"registration did not started\") */\n      tag_133\n      jumpi\n      mload(0x40)\n      0x08c379a000000000000000000000000000000000000000000000000000000000\n      dup2\n      mstore\n      0x04\n      add\n      tag_134\n      swap1\n      tag_135\n      jump\t// in\n    tag_134:\n      mload(0x40)\n      dup1\n      swap2\n      sub\n      swap1\n      revert\n    tag_133:\n        /* \"contracts/VintingV1.sol\":4856:4865  whitelist */\n      0x01\n        /* \"contracts/VintingV1.sol\":4856:4877  whitelist[msg.sender] */\n      0x00\n        /* \"contracts/VintingV1.sol\":4866:4876  msg.sender */\n      caller\n        /* \"contracts/VintingV1.sol\":4856:4877  whitelist[msg.sender] */\n      0xffffffffffffffffffffffffffffffffffffffff\n      and\n      0xffffffffffffffffffffffffffffffffffffffff\n      and\n      dup2\n      mstore\n      0x20\n      add\n      swap1\n      dup2\n      mstore\n      0x20\n      add\n      0x00\n      keccak256\n      0x00\n      swap1\n      sload\n      swap1\n      0x0100\n      exp\n      swap1\n      div\n      0xff\n      and\n        /* \"contracts/VintingV1.sol\":4848:4904  require(whitelist[msg.sender], \"You are not registered\") */\n      tag_136\n      jumpi\n      mload(0x40)\n      0x08c379a000000000000000000000000000000000000000000000000000000000\n      dup2\n      mstore\n      0x04\n      add\n      tag_137\n      swap1\n      tag_138\n      jump\t// in\n    tag_137:\n      mload(0x40)\n      dup1\n      swap2\n      sub\n      swap1\n      revert\n    tag_136:\n        /* \"contracts/VintingV1.sol\":4923:4937  currentSession */\n      dup1\n        /* \"contracts/VintingV1.sol\":4923:4946  currentSession.hasVoted */\n      0x05\n      add\n        /* \"contracts/VintingV1.sol\":4923:4958  currentSession.hasVoted[msg.sender] */\n      0x00\n        /* \"contracts/VintingV1.sol\":4947:4957  msg.sender */\n      caller\n        /* \"contracts/VintingV1.sol\":4923:4958  currentSession.hasVoted[msg.sender] */\n      0xffffffffffffffffffffffffffffffffffffffff\n      and\n      0xffffffffffffffffffffffffffffffffffffffff\n      and\n      dup2\n      mstore\n      0x20\n      add\n      swap1\n      dup2\n      mstore\n      0x20\n      add\n      0x00\n      keccak256\n      0x00\n      swap1\n      sload\n      swap1\n      0x0100\n      exp\n      swap1\n      div\n      0xff\n      and\n        /* \"contracts/VintingV1.sol\":4922:4958  !currentSession.hasVoted[msg.sender] */\n      iszero\n        /* \"contracts/VintingV1.sol\":4914:4984  require(!currentSession.hasVoted[msg.sender], \"You have already vote\") */\n      tag_139\n      jumpi\n      mload(0x40)\n      0x08c379a000000000000000000000000000000000000000000000000000000000\n      dup2\n      mstore\n      0x04\n      add\n      tag_140\n      swap1\n      tag_141\n      jump\t// in\n    tag_140:\n      mload(0x40)\n      dup1\n      swap2\n      sub\n      swap1\n      revert\n    tag_139:\n        /* \"contracts/VintingV1.sol\":4994:5019  Proposal storage proposal */\n      0x00\n        /* \"contracts/VintingV1.sol\":5022:5036  currentSession */\n      dup2\n        /* \"contracts/VintingV1.sol\":5022:5046  currentSession.proposals */\n      0x04\n      add\n        /* \"contracts/VintingV1.sol\":5047:5058  _proposalId */\n      dup4\n        /* \"contracts/VintingV1.sol\":5022:5059  currentSession.proposals[_proposalId] */\n      dup2\n      sload\n      dup2\n      lt\n      tag_142\n      jumpi\n      tag_143\n      tag_116\n      jump\t// in\n    tag_143:\n    tag_142:\n      swap1\n      0x00\n      mstore\n      keccak256(0x00, 0x20)\n      swap1\n      0x03\n      mul\n      add\n        /* \"contracts/VintingV1.sol\":4994:5059  Proposal storage proposal = currentSession.proposals[_proposalId] */\n      swap1\n      pop\n        /* \"contracts/VintingV1.sol\":5069:5077  proposal */\n      dup1\n        /* \"contracts/VintingV1.sol\":5069:5087  proposal.voteCount */\n      0x02\n      add\n      0x00\n        /* \"contracts/VintingV1.sol\":5069:5089  proposal.voteCount++ */\n      dup2\n      sload\n      dup1\n      swap3\n      swap2\n      swap1\n      tag_145\n      swap1\n      tag_110\n      jump\t// in\n    tag_145:\n      swap2\n      swap1\n      pop\n      sstore\n      pop\n        /* \"contracts/VintingV1.sol\":5137:5141  true */\n      0x01\n        /* \"contracts/VintingV1.sol\":5099:5113  currentSession */\n      dup3\n        /* \"contracts/VintingV1.sol\":5099:5122  currentSession.hasVoted */\n      0x05\n      add\n        /* \"contracts/VintingV1.sol\":5099:5134  currentSession.hasVoted[msg.sender] */\n      0x00\n        /* \"contracts/VintingV1.sol\":5123:5133  msg.sender */\n      caller\n        /* \"contracts/VintingV1.sol\":5099:5134  currentSession.hasVoted[msg.sender] */\n      0xffffffffffffffffffffffffffffffffffffffff\n      and\n      0xffffffffffffffffffffffffffffffffffffffff\n      and\n      dup2\n      mstore\n      0x20\n      add\n      swap1\n      dup2\n      mstore\n      0x20\n      add\n      0x00\n      keccak256\n      0x00\n        /* \"contracts/VintingV1.sol\":5099:5141  currentSession.hasVoted[msg.sender] = true */\n      0x0100\n      exp\n      dup2\n      sload\n      dup2\n      0xff\n      mul\n      not\n      and\n      swap1\n      dup4\n      iszero\n      iszero\n      mul\n      or\n      swap1\n      sstore\n      pop\n        /* \"contracts/VintingV1.sol\":5175:5189  currentSession */\n      dup2\n        /* \"contracts/VintingV1.sol\":5175:5206  currentSession.highestVoteCount */\n      0x03\n      add\n      sload\n        /* \"contracts/VintingV1.sol\":5154:5162  proposal */\n      dup2\n        /* \"contracts/VintingV1.sol\":5154:5172  proposal.voteCount */\n      0x02\n      add\n      sload\n        /* \"contracts/VintingV1.sol\":5154:5206  proposal.voteCount > currentSession.highestVoteCount */\n      gt\n        /* \"contracts/VintingV1.sol\":5151:5286  if(proposal.voteCount > currentSession.highestVoteCount) { ... */\n      iszero\n      tag_146\n      jumpi\n        /* \"contracts/VintingV1.sol\":5257:5265  proposal */\n      dup1\n        /* \"contracts/VintingV1.sol\":5257:5275  proposal.voteCount */\n      0x02\n      add\n      sload\n        /* \"contracts/VintingV1.sol\":5223:5237  currentSession */\n      dup3\n        /* \"contracts/VintingV1.sol\":5223:5254  currentSession.highestVoteCount */\n      0x03\n      add\n        /* \"contracts/VintingV1.sol\":5223:5275  currentSession.highestVoteCount = proposal.voteCount */\n      dup2\n      swap1\n      sstore\n      pop\n        /* \"contracts/VintingV1.sol\":5151:5286  if(proposal.voteCount > currentSession.highestVoteCount) { ... */\n    tag_146:\n        /* \"contracts/VintingV1.sol\":5300:5341  Voted(sessionId, msg.sender, _proposalId) */\n      0x1abe610cf2bf87e57dcc1181fcf5ac0934e843d8344ab9eed6e86c799f62585e\n        /* \"contracts/VintingV1.sol\":5306:5315  sessionId */\n      dup5\n        /* \"contracts/VintingV1.sol\":5317:5327  msg.sender */\n      caller\n        /* \"contracts/VintingV1.sol\":5329:5340  _proposalId */\n      dup6\n        /* \"contracts/VintingV1.sol\":5300:5341  Voted(sessionId, msg.sender, _proposalId) */\n      mload(0x40)\n      tag_147\n      swap4\n      swap3\n      swap2\n      swap1\n      tag_148\n      jump\t// in\n    tag_147:\n      mload(0x40)\n      dup1\n      swap2\n      sub\n      swap1\n      log1\n        /* \"contracts/VintingV1.sol\":4657:5348  {... */\n      pop\n      pop\n        /* \"contracts/VintingV1.sol\":4598:5348  function sendVote(uint sessionId, uint _proposalId) public {... */\n      pop\n      pop\n      jump\t// out\n        /* \"contracts/VintingV1.sol\":5354:5874  function endVotingSession(uint sessionId) public onlyOwner {... */\n    tag_42:\n        /* \"https://github.com/OpenZeppelin/openzeppelin-contracts/blob/master/contracts/access/Ownable.sol\":1531:1544  _checkOwner() */\n      tag_150\n        /* \"https://github.com/OpenZeppelin/openzeppelin-contracts/blob/master/contracts/access/Ownable.sol\":1531:1542  _checkOwner */\n      tag_99\n        /* \"https://github.com/OpenZeppelin/openzeppelin-contracts/blob/master/contracts/access/Ownable.sol\":1531:1544  _checkOwner() */\n      jump\t// in\n    tag_150:\n        /* \"contracts/VintingV1.sol\":5423:5453  Session storage currentSession */\n      0x00\n        /* \"contracts/VintingV1.sol\":5456:5464  sessions */\n      0x02\n        /* \"contracts/VintingV1.sol\":5456:5475  sessions[sessionId] */\n      0x00\n        /* \"contracts/VintingV1.sol\":5465:5474  sessionId */\n      dup4\n        /* \"contracts/VintingV1.sol\":5456:5475  sessions[sessionId] */\n      dup2\n      mstore\n      0x20\n      add\n      swap1\n      dup2\n      mstore\n      0x20\n      add\n      0x00\n      keccak256\n        /* \"contracts/VintingV1.sol\":5423:5475  Session storage currentSession = sessions[sessionId] */\n      swap1\n      pop\n        /* \"contracts/VintingV1.sol\":5526:5561  WorkflowStatus.VotingSessionStarted */\n      0x03\n        /* \"contracts/VintingV1.sol\":5493:5561  currentSession.workflowStatus == WorkflowStatus.VotingSessionStarted */\n      0x05\n      dup2\n      gt\n      iszero\n      tag_152\n      jumpi\n      tag_153\n      tag_130\n      jump\t// in\n    tag_153:\n    tag_152:\n        /* \"contracts/VintingV1.sol\":5493:5507  currentSession */\n      dup2\n        /* \"contracts/VintingV1.sol\":5493:5522  currentSession.workflowStatus */\n      0x01\n      add\n      0x00\n      swap1\n      sload\n      swap1\n      0x0100\n      exp\n      swap1\n      div\n      0xff\n      and\n        /* \"contracts/VintingV1.sol\":5493:5561  currentSession.workflowStatus == WorkflowStatus.VotingSessionStarted */\n      0x05\n      dup2\n      gt\n      iszero\n      tag_154\n      jumpi\n      tag_155\n      tag_130\n      jump\t// in\n    tag_155:\n    tag_154:\n      eq\n        /* \"contracts/VintingV1.sol\":5485:5592  require(currentSession.workflowStatus == WorkflowStatus.VotingSessionStarted, \"Voting session not started\") */\n      tag_156\n      jumpi\n      mload(0x40)\n      0x08c379a000000000000000000000000000000000000000000000000000000000\n      dup2\n      mstore\n      0x04\n      add\n      tag_157\n      swap1\n      tag_158\n      jump\t// in\n    tag_157:\n      mload(0x40)\n      dup1\n      swap2\n      sub\n      swap1\n      revert\n    tag_156:\n        /* \"contracts/VintingV1.sol\":5644:5645  0 */\n      0x00\n        /* \"contracts/VintingV1.sol\":5610:5624  currentSession */\n      dup2\n        /* \"contracts/VintingV1.sol\":5610:5641  currentSession.highestVoteCount */\n      0x03\n      add\n      sload\n        /* \"contracts/VintingV1.sol\":5610:5645  currentSession.highestVoteCount > 0 */\n      gt\n        /* \"contracts/VintingV1.sol\":5602:5674  require(currentSession.highestVoteCount > 0, \"no votes were registered\") */\n      tag_159\n      jumpi\n      mload(0x40)\n      0x08c379a000000000000000000000000000000000000000000000000000000000\n      dup2\n      mstore\n      0x04\n      add\n      tag_160\n      swap1\n      tag_161\n      jump\t// in\n    tag_160:\n      mload(0x40)\n      dup1\n      swap2\n      sub\n      swap1\n      revert\n    tag_159:\n        /* \"contracts/VintingV1.sol\":5716:5749  WorkflowStatus.VotingSessionEnded */\n      0x04\n        /* \"contracts/VintingV1.sol\":5684:5698  currentSession */\n      dup2\n        /* \"contracts/VintingV1.sol\":5684:5713  currentSession.workflowStatus */\n      0x01\n      add\n      0x00\n        /* \"contracts/VintingV1.sol\":5684:5749  currentSession.workflowStatus = WorkflowStatus.VotingSessionEnded */\n      0x0100\n      exp\n      dup2\n      sload\n      dup2\n      0xff\n      mul\n      not\n      and\n      swap1\n      dup4\n      0x05\n      dup2\n      gt\n      iszero\n      tag_162\n      jumpi\n      tag_163\n      tag_130\n      jump\t// in\n    tag_163:\n    tag_162:\n      mul\n      or\n      swap1\n      sstore\n      pop\n        /* \"contracts/VintingV1.sol\":5764:5867  WorkflowStatusChange(sessionId, WorkflowStatus.VotingSessionStarted, WorkflowStatus.VotingSessionEnded) */\n      0xb067099e10826978a3867510ad1e0dcf4ca5cef8e422fd8df2fc3d679167fe8d\n        /* \"contracts/VintingV1.sol\":5785:5794  sessionId */\n      dup3\n        /* \"contracts/VintingV1.sol\":5796:5831  WorkflowStatus.VotingSessionStarted */\n      0x03\n        /* \"contracts/VintingV1.sol\":5833:5866  WorkflowStatus.VotingSessionEnded */\n      0x04\n        /* \"contracts/VintingV1.sol\":5764:5867  WorkflowStatusChange(sessionId, WorkflowStatus.VotingSessionStarted, WorkflowStatus.VotingSessionEnded) */\n      mload(0x40)\n      tag_164\n      swap4\n      swap3\n      swap2\n      swap1\n      tag_165\n      jump\t// in\n    tag_164:\n      mload(0x40)\n      dup1\n      swap2\n      sub\n      swap1\n      log1\n        /* \"contracts/VintingV1.sol\":5413:5874  {... */\n      pop\n        /* \"contracts/VintingV1.sol\":5354:5874  function endVotingSession(uint sessionId) public onlyOwner {... */\n      pop\n      jump\t// out\n        /* \"contracts/VintingV1.sol\":2931:3535  function sendNewProposition(uint sessionId, string memory _description) public {... */\n    tag_46:\n        /* \"contracts/VintingV1.sol\":3058:3061  512 */\n      0x0200\n        /* \"contracts/VintingV1.sol\":3034:3046  _description */\n      dup2\n        /* \"contracts/VintingV1.sol\":3028:3054  bytes(_description).length */\n      mload\n        /* \"contracts/VintingV1.sol\":3028:3061  bytes(_description).length <= 512 */\n      gt\n      iszero\n        /* \"contracts/VintingV1.sol\":3020:3106  require(bytes(_description).length <= 512, \"Description is too long, limit 512 bytes\") */\n      tag_167\n      jumpi\n      mload(0x40)\n      0x08c379a000000000000000000000000000000000000000000000000000000000\n      dup2\n      mstore\n      0x04\n      add\n      tag_168\n      swap1\n      tag_169\n      jump\t// in\n    tag_168:\n      mload(0x40)\n      dup1\n      swap2\n      sub\n      swap1\n      revert\n    tag_167:\n        /* \"contracts/VintingV1.sol\":3116:3146  Session storage currentSession */\n      0x00\n        /* \"contracts/VintingV1.sol\":3149:3157  sessions */\n      0x02\n        /* \"contracts/VintingV1.sol\":3149:3168  sessions[sessionId] */\n      0x00\n        /* \"contracts/VintingV1.sol\":3158:3167  sessionId */\n      dup5\n        /* \"contracts/VintingV1.sol\":3149:3168  sessions[sessionId] */\n      dup2\n      mstore\n      0x20\n      add\n      swap1\n      dup2\n      mstore\n      0x20\n      add\n      0x00\n      keccak256\n        /* \"contracts/VintingV1.sol\":3116:3168  Session storage currentSession = sessions[sessionId] */\n      swap1\n      pop\n        /* \"contracts/VintingV1.sol\":3219:3262  WorkflowStatus.ProposalsRegistrationStarted */\n      0x01\n        /* \"contracts/VintingV1.sol\":3186:3262  currentSession.workflowStatus == WorkflowStatus.ProposalsRegistrationStarted */\n      0x05\n      dup2\n      gt\n      iszero\n      tag_170\n      jumpi\n      tag_171\n      tag_130\n      jump\t// in\n    tag_171:\n    tag_170:\n        /* \"contracts/VintingV1.sol\":3186:3200  currentSession */\n      dup2\n        /* \"contracts/VintingV1.sol\":3186:3215  currentSession.workflowStatus */\n      0x01\n      add\n      0x00\n      swap1\n      sload\n      swap1\n      0x0100\n      exp\n      swap1\n      div\n      0xff\n      and\n        /* \"contracts/VintingV1.sol\":3186:3262  currentSession.workflowStatus == WorkflowStatus.ProposalsRegistrationStarted */\n      0x05\n      dup2\n      gt\n      iszero\n      tag_172\n      jumpi\n      tag_173\n      tag_130\n      jump\t// in\n    tag_173:\n    tag_172:\n      eq\n        /* \"contracts/VintingV1.sol\":3178:3295  require(currentSession.workflowStatus == WorkflowStatus.ProposalsRegistrationStarted, \"registration did not started\") */\n      tag_174\n      jumpi\n      mload(0x40)\n      0x08c379a000000000000000000000000000000000000000000000000000000000\n      dup2\n      mstore\n      0x04\n      add\n      tag_175\n      swap1\n      tag_135\n      jump\t// in\n    tag_175:\n      mload(0x40)\n      dup1\n      swap2\n      sub\n      swap1\n      revert\n    tag_174:\n        /* \"contracts/VintingV1.sol\":3313:3322  whitelist */\n      0x01\n        /* \"contracts/VintingV1.sol\":3313:3334  whitelist[msg.sender] */\n      0x00\n        /* \"contracts/VintingV1.sol\":3323:3333  msg.sender */\n      caller\n        /* \"contracts/VintingV1.sol\":3313:3334  whitelist[msg.sender] */\n      0xffffffffffffffffffffffffffffffffffffffff\n      and\n      0xffffffffffffffffffffffffffffffffffffffff\n      and\n      dup2\n      mstore\n      0x20\n      add\n      swap1\n      dup2\n      mstore\n      0x20\n      add\n      0x00\n      keccak256\n      0x00\n      swap1\n      sload\n      swap1\n      0x0100\n      exp\n      swap1\n      div\n      0xff\n      and\n        /* \"contracts/VintingV1.sol\":3305:3361  require(whitelist[msg.sender], \"You are not registered\") */\n      tag_176\n      jumpi\n      mload(0x40)\n      0x08c379a000000000000000000000000000000000000000000000000000000000\n      dup2\n      mstore\n      0x04\n      add\n      tag_177\n      swap1\n      tag_138\n      jump\t// in\n    tag_177:\n      mload(0x40)\n      dup1\n      swap2\n      sub\n      swap1\n      revert\n    tag_176:\n        /* \"contracts/VintingV1.sol\":3371:3385  currentSession */\n      dup1\n        /* \"contracts/VintingV1.sol\":3371:3395  currentSession.proposals */\n      0x04\n      add\n        /* \"contracts/VintingV1.sol\":3401:3438  Proposal(_description, msg.sender, 0) */\n      mload(0x40)\n      dup1\n      0x60\n      add\n      0x40\n      mstore\n      dup1\n        /* \"contracts/VintingV1.sol\":3410:3422  _description */\n      dup5\n        /* \"contracts/VintingV1.sol\":3401:3438  Proposal(_description, msg.sender, 0) */\n      dup2\n      mstore\n      0x20\n      add\n        /* \"contracts/VintingV1.sol\":3424:3434  msg.sender */\n      caller\n        /* \"contracts/VintingV1.sol\":3401:3438  Proposal(_description, msg.sender, 0) */\n      0xffffffffffffffffffffffffffffffffffffffff\n      and\n      dup2\n      mstore\n      0x20\n      add\n        /* \"contracts/VintingV1.sol\":3436:3437  0 */\n      0x00\n        /* \"contracts/VintingV1.sol\":3401:3438  Proposal(_description, msg.sender, 0) */\n      dup2\n      mstore\n      pop\n        /* \"contracts/VintingV1.sol\":3371:3439  currentSession.proposals.push(Proposal(_description, msg.sender, 0)) */\n      swap1\n      dup1\n      0x01\n      dup2\n      sload\n      add\n      dup1\n      dup3\n      sstore\n      dup1\n      swap2\n      pop\n      pop\n      0x01\n      swap1\n      sub\n      swap1\n      0x00\n      mstore\n      keccak256(0x00, 0x20)\n      swap1\n      0x03\n      mul\n      add\n      0x00\n      swap1\n      swap2\n      swap1\n      swap2\n      swap1\n      swap2\n      pop\n      0x00\n      dup3\n      add\n      mload\n      dup2\n      0x00\n      add\n      swap1\n      dup2\n      tag_179\n      swap2\n      swap1\n      tag_119\n      jump\t// in\n    tag_179:\n      pop\n      0x20\n      dup3\n      add\n      mload\n      dup2\n      0x01\n      add\n      exp(0x0100, 0x00)\n      dup2\n      sload\n      dup2\n      0xffffffffffffffffffffffffffffffffffffffff\n      mul\n      not\n      and\n      swap1\n      dup4\n      0xffffffffffffffffffffffffffffffffffffffff\n      and\n      mul\n      or\n      swap1\n      sstore\n      pop\n      0x40\n      dup3\n      add\n      mload\n      dup2\n      0x02\n      add\n      sstore\n      pop\n      pop\n        /* \"contracts/VintingV1.sol\":3454:3528  ProposalRegistered(currentSession.id, currentSession.proposals.length - 1) */\n      0xca195036d7c4d40b171ad51e9c891c830a0ad9a5e114b5b075cdf791317e300c\n        /* \"contracts/VintingV1.sol\":3473:3487  currentSession */\n      dup2\n        /* \"contracts/VintingV1.sol\":3473:3490  currentSession.id */\n      0x00\n      add\n      sload\n        /* \"contracts/VintingV1.sol\":3526:3527  1 */\n      0x01\n        /* \"contracts/VintingV1.sol\":3492:3506  currentSession */\n      dup4\n        /* \"contracts/VintingV1.sol\":3492:3516  currentSession.proposals */\n      0x04\n      add\n        /* \"contracts/VintingV1.sol\":3492:3523  currentSession.proposals.length */\n      dup1\n      sload\n      swap1\n      pop\n        /* \"contracts/VintingV1.sol\":3492:3527  currentSession.proposals.length - 1 */\n      tag_180\n      swap2\n      swap1\n      tag_181\n      jump\t// in\n    tag_180:\n        /* \"contracts/VintingV1.sol\":3454:3528  ProposalRegistered(currentSession.id, currentSession.proposals.length - 1) */\n      mload(0x40)\n      tag_182\n      swap3\n      swap2\n      swap1\n      tag_183\n      jump\t// in\n    tag_182:\n      mload(0x40)\n      dup1\n      swap2\n      sub\n      swap1\n      log1\n        /* \"contracts/VintingV1.sol\":3010:3535  {... */\n      pop\n        /* \"contracts/VintingV1.sol\":2931:3535  function sendNewProposition(uint sessionId, string memory _description) public {... */\n      pop\n      pop\n      jump\t// out\n        /* \"contracts/VintingV1.sol\":1674:1785  function isWhitelisted(address _address) public view returns (bool) {... */\n    tag_50:\n        /* \"contracts/VintingV1.sol\":1736:1740  bool */\n      0x00\n        /* \"contracts/VintingV1.sol\":1759:1768  whitelist */\n      0x01\n        /* \"contracts/VintingV1.sol\":1759:1778  whitelist[_address] */\n      0x00\n        /* \"contracts/VintingV1.sol\":1769:1777  _address */\n      dup4\n        /* \"contracts/VintingV1.sol\":1759:1778  whitelist[_address] */\n      0xffffffffffffffffffffffffffffffffffffffff\n      and\n      0xffffffffffffffffffffffffffffffffffffffff\n      and\n      dup2\n      mstore\n      0x20\n      add\n      swap1\n      dup2\n      mstore\n      0x20\n      add\n      0x00\n      keccak256\n      0x00\n      swap1\n      sload\n      swap1\n      0x0100\n      exp\n      swap1\n      div\n      0xff\n      and\n        /* \"contracts/VintingV1.sol\":1752:1778  return whitelist[_address] */\n      swap1\n      pop\n        /* \"contracts/VintingV1.sol\":1674:1785  function isWhitelisted(address _address) public view returns (bool) {... */\n      swap2\n      swap1\n      pop\n      jump\t// out\n        /* \"contracts/VintingV1.sol\":7686:7827  function hasVoted(uint sessionId, address _address) public view returns(bool) {... */\n    tag_56:\n        /* \"contracts/VintingV1.sol\":7758:7762  bool */\n      0x00\n        /* \"contracts/VintingV1.sol\":7782:7790  sessions */\n      0x02\n        /* \"contracts/VintingV1.sol\":7782:7801  sessions[sessionId] */\n      0x00\n        /* \"contracts/VintingV1.sol\":7791:7800  sessionId */\n      dup5\n        /* \"contracts/VintingV1.sol\":7782:7801  sessions[sessionId] */\n      dup2\n      mstore\n      0x20\n      add\n      swap1\n      dup2\n      mstore\n      0x20\n      add\n      0x00\n      keccak256\n        /* \"contracts/VintingV1.sol\":7782:7810  sessions[sessionId].hasVoted */\n      0x05\n      add\n        /* \"contracts/VintingV1.sol\":7782:7820  sessions[sessionId].hasVoted[_address] */\n      0x00\n        /* \"contracts/VintingV1.sol\":7811:7819  _address */\n      dup4\n        /* \"contracts/VintingV1.sol\":7782:7820  sessions[sessionId].hasVoted[_address] */\n      0xffffffffffffffffffffffffffffffffffffffff\n      and\n      0xffffffffffffffffffffffffffffffffffffffff\n      and\n      dup2\n      mstore\n      0x20\n      add\n      swap1\n      dup2\n      mstore\n      0x20\n      add\n      0x00\n      keccak256\n      0x00\n      swap1\n      sload\n      swap1\n      0x0100\n      exp\n      swap1\n      div\n      0xff\n      and\n        /* \"contracts/VintingV1.sol\":7775:7820  return sessions[sessionId].hasVoted[_address] */\n      swap1\n      pop\n        /* \"contracts/VintingV1.sol\":7686:7827  function hasVoted(uint sessionId, address _address) public view returns(bool) {... */\n      swap3\n      swap2\n      pop\n      pop\n      jump\t// out\n        /* \"https://github.com/OpenZeppelin/openzeppelin-contracts/blob/master/contracts/access/Ownable.sol\":2293:2394  function renounceOwnership() public virtual onlyOwner {... */\n    tag_59:\n        /* \"https://github.com/OpenZeppelin/openzeppelin-contracts/blob/master/contracts/access/Ownable.sol\":1531:1544  _checkOwner() */\n      tag_187\n        /* \"https://github.com/OpenZeppelin/openzeppelin-contracts/blob/master/contracts/access/Ownable.sol\":1531:1542  _checkOwner */\n      tag_99\n        /* \"https://github.com/OpenZeppelin/openzeppelin-contracts/blob/master/contracts/access/Ownable.sol\":1531:1544  _checkOwner() */\n      jump\t// in\n    tag_187:\n        /* \"https://github.com/OpenZeppelin/openzeppelin-contracts/blob/master/contracts/access/Ownable.sol\":2357:2387  _transferOwnership(address(0)) */\n      tag_189\n        /* \"https://github.com/OpenZeppelin/openzeppelin-contracts/blob/master/contracts/access/Ownable.sol\":2384:2385  0 */\n      0x00\n        /* \"https://github.com/OpenZeppelin/openzeppelin-contracts/blob/master/contracts/access/Ownable.sol\":2357:2375  _transferOwnership */\n      tag_190\n        /* \"https://github.com/OpenZeppelin/openzeppelin-contracts/blob/master/contracts/access/Ownable.sol\":2357:2387  _transferOwnership(address(0)) */\n      jump\t// in\n    tag_189:\n        /* \"https://github.com/OpenZeppelin/openzeppelin-contracts/blob/master/contracts/access/Ownable.sol\":2293:2394  function renounceOwnership() public virtual onlyOwner {... */\n      jump\t// out\n        /* \"contracts/VintingV1.sol\":7118:7352  function getMostVotedProposal(uint _sessionId) external view returns(Proposal memory) {... */\n    tag_62:\n        /* \"contracts/VintingV1.sol\":7187:7202  Proposal memory */\n      tag_191\n      tag_192\n      jump\t// in\n    tag_191:\n        /* \"contracts/VintingV1.sol\":7214:7244  Session storage currentSession */\n      0x00\n        /* \"contracts/VintingV1.sol\":7247:7255  sessions */\n      0x02\n        /* \"contracts/VintingV1.sol\":7247:7267  sessions[_sessionId] */\n      0x00\n        /* \"contracts/VintingV1.sol\":7256:7266  _sessionId */\n      dup5\n        /* \"contracts/VintingV1.sol\":7247:7267  sessions[_sessionId] */\n      dup2\n      mstore\n      0x20\n      add\n      swap1\n      dup2\n      mstore\n      0x20\n      add\n      0x00\n      keccak256\n        /* \"contracts/VintingV1.sol\":7214:7267  Session storage currentSession = sessions[_sessionId] */\n      swap1\n      pop\n        /* \"contracts/VintingV1.sol\":7284:7298  currentSession */\n      dup1\n        /* \"contracts/VintingV1.sol\":7284:7308  currentSession.proposals */\n      0x04\n      add\n        /* \"contracts/VintingV1.sol\":7309:7323  currentSession */\n      dup2\n        /* \"contracts/VintingV1.sol\":7309:7344  currentSession.winningProposalIndex */\n      0x02\n      add\n      sload\n        /* \"contracts/VintingV1.sol\":7284:7345  currentSession.proposals[currentSession.winningProposalIndex] */\n      dup2\n      sload\n      dup2\n      lt\n      tag_194\n      jumpi\n      tag_195\n      tag_116\n      jump\t// in\n    tag_195:\n    tag_194:\n      swap1\n      0x00\n      mstore\n      keccak256(0x00, 0x20)\n      swap1\n      0x03\n      mul\n      add\n        /* \"contracts/VintingV1.sol\":7277:7345  return currentSession.proposals[currentSession.winningProposalIndex] */\n      mload(0x40)\n      dup1\n      0x60\n      add\n      0x40\n      mstore\n      swap1\n      dup2\n      0x00\n      dup3\n      add\n      dup1\n      sload\n      tag_197\n      swap1\n      tag_198\n      jump\t// in\n    tag_197:\n      dup1\n      0x1f\n      add\n      0x20\n      dup1\n      swap2\n      div\n      mul\n      0x20\n      add\n      mload(0x40)\n      swap1\n      dup2\n      add\n      0x40\n      mstore\n      dup1\n      swap3\n      swap2\n      swap1\n      dup2\n      dup2\n      mstore\n      0x20\n      add\n      dup3\n      dup1\n      sload\n      tag_199\n      swap1\n      tag_198\n      jump\t// in\n    tag_199:\n      dup1\n      iszero\n      tag_200\n      jumpi\n      dup1\n      0x1f\n      lt\n      tag_201\n      jumpi\n      0x0100\n      dup1\n      dup4\n      sload\n      div\n      mul\n      dup4\n      mstore\n      swap2\n      0x20\n      add\n      swap2\n      jump(tag_200)\n    tag_201:\n      dup3\n      add\n      swap2\n      swap1\n      0x00\n      mstore\n      keccak256(0x00, 0x20)\n      swap1\n    tag_202:\n      dup2\n      sload\n      dup2\n      mstore\n      swap1\n      0x01\n      add\n      swap1\n      0x20\n      add\n      dup1\n      dup4\n      gt\n      tag_202\n      jumpi\n      dup3\n      swap1\n      sub\n      0x1f\n      and\n      dup3\n      add\n      swap2\n    tag_200:\n      pop\n      pop\n      pop\n      pop\n      pop\n      dup2\n      mstore\n      0x20\n      add\n      0x01\n      dup3\n      add\n      0x00\n      swap1\n      sload\n      swap1\n      0x0100\n      exp\n      swap1\n      div\n      0xffffffffffffffffffffffffffffffffffffffff\n      and\n      0xffffffffffffffffffffffffffffffffffffffff\n      and\n      0xffffffffffffffffffffffffffffffffffffffff\n      and\n      dup2\n      mstore\n      0x20\n      add\n      0x02\n      dup3\n      add\n      sload\n      dup2\n      mstore\n      pop\n      pop\n      swap2\n      pop\n      pop\n        /* \"contracts/VintingV1.sol\":7118:7352  function getMostVotedProposal(uint _sessionId) external view returns(Proposal memory) {... */\n      swap2\n      swap1\n      pop\n      jump\t// out\n        /* \"contracts/VintingV1.sol\":2505:2925  function startProposalsRegistration(uint sessionId) public onlyOwner {... */\n    tag_67:\n        /* \"https://github.com/OpenZeppelin/openzeppelin-contracts/blob/master/contracts/access/Ownable.sol\":1531:1544  _checkOwner() */\n      tag_204\n        /* \"https://github.com/OpenZeppelin/openzeppelin-contracts/blob/master/contracts/access/Ownable.sol\":1531:1542  _checkOwner */\n      tag_99\n        /* \"https://github.com/OpenZeppelin/openzeppelin-contracts/blob/master/contracts/access/Ownable.sol\":1531:1544  _checkOwner() */\n      jump\t// in\n    tag_204:\n        /* \"contracts/VintingV1.sol\":2584:2610  Session storage newSession */\n      0x00\n        /* \"contracts/VintingV1.sol\":2613:2621  sessions */\n      0x02\n        /* \"contracts/VintingV1.sol\":2613:2632  sessions[sessionId] */\n      0x00\n        /* \"contracts/VintingV1.sol\":2622:2631  sessionId */\n      dup4\n        /* \"contracts/VintingV1.sol\":2613:2632  sessions[sessionId] */\n      dup2\n      mstore\n      0x20\n      add\n      swap1\n      dup2\n      mstore\n      0x20\n      add\n      0x00\n      keccak256\n        /* \"contracts/VintingV1.sol\":2584:2632  Session storage newSession = sessions[sessionId] */\n      swap1\n      pop\n        /* \"contracts/VintingV1.sol\":2679:2711  WorkflowStatus.RegisteringVoters */\n      0x00\n        /* \"contracts/VintingV1.sol\":2650:2711  newSession.workflowStatus == WorkflowStatus.RegisteringVoters */\n      0x05\n      dup2\n      gt\n      iszero\n      tag_206\n      jumpi\n      tag_207\n      tag_130\n      jump\t// in\n    tag_207:\n    tag_206:\n        /* \"contracts/VintingV1.sol\":2650:2660  newSession */\n      dup2\n        /* \"contracts/VintingV1.sol\":2650:2675  newSession.workflowStatus */\n      0x01\n      add\n      0x00\n      swap1\n      sload\n      swap1\n      0x0100\n      exp\n      swap1\n      div\n      0xff\n      and\n        /* \"contracts/VintingV1.sol\":2650:2711  newSession.workflowStatus == WorkflowStatus.RegisteringVoters */\n      0x05\n      dup2\n      gt\n      iszero\n      tag_208\n      jumpi\n      tag_209\n      tag_130\n      jump\t// in\n    tag_209:\n    tag_208:\n      eq\n        /* \"contracts/VintingV1.sol\":2642:2712  require(newSession.workflowStatus == WorkflowStatus.RegisteringVoters) */\n      tag_210\n      jumpi\n      revert(0x00, 0x00)\n    tag_210:\n        /* \"contracts/VintingV1.sol\":2750:2793  WorkflowStatus.ProposalsRegistrationStarted */\n      0x01\n        /* \"contracts/VintingV1.sol\":2722:2732  newSession */\n      dup2\n        /* \"contracts/VintingV1.sol\":2722:2747  newSession.workflowStatus */\n      0x01\n      add\n      0x00\n        /* \"contracts/VintingV1.sol\":2722:2793  newSession.workflowStatus = WorkflowStatus.ProposalsRegistrationStarted */\n      0x0100\n      exp\n      dup2\n      sload\n      dup2\n      0xff\n      mul\n      not\n      and\n      swap1\n      dup4\n      0x05\n      dup2\n      gt\n      iszero\n      tag_211\n      jumpi\n      tag_212\n      tag_130\n      jump\t// in\n    tag_212:\n    tag_211:\n      mul\n      or\n      swap1\n      sstore\n      pop\n        /* \"contracts/VintingV1.sol\":2808:2918  WorkflowStatusChange(sessionId, WorkflowStatus.RegisteringVoters, WorkflowStatus.ProposalsRegistrationStarted) */\n      0xb067099e10826978a3867510ad1e0dcf4ca5cef8e422fd8df2fc3d679167fe8d\n        /* \"contracts/VintingV1.sol\":2829:2838  sessionId */\n      dup3\n        /* \"contracts/VintingV1.sol\":2840:2872  WorkflowStatus.RegisteringVoters */\n      0x00\n        /* \"contracts/VintingV1.sol\":2874:2917  WorkflowStatus.ProposalsRegistrationStarted */\n      0x01\n        /* \"contracts/VintingV1.sol\":2808:2918  WorkflowStatusChange(sessionId, WorkflowStatus.RegisteringVoters, WorkflowStatus.ProposalsRegistrationStarted) */\n      mload(0x40)\n      tag_213\n      swap4\n      swap3\n      swap2\n      swap1\n      tag_165\n      jump\t// in\n    tag_213:\n      mload(0x40)\n      dup1\n      swap2\n      sub\n      swap1\n      log1\n        /* \"contracts/VintingV1.sol\":2574:2925  {... */\n      pop\n        /* \"contracts/VintingV1.sol\":2505:2925  function startProposalsRegistration(uint sessionId) public onlyOwner {... */\n      pop\n      jump\t// out\n        /* \"https://github.com/OpenZeppelin/openzeppelin-contracts/blob/master/contracts/access/Ownable.sol\":1638:1723  function owner() public view virtual returns (address) {... */\n    tag_69:\n        /* \"https://github.com/OpenZeppelin/openzeppelin-contracts/blob/master/contracts/access/Ownable.sol\":1684:1691  address */\n      0x00\n        /* \"https://github.com/OpenZeppelin/openzeppelin-contracts/blob/master/contracts/access/Ownable.sol\":1710:1716  _owner */\n      0x00\n      0x00\n      swap1\n      sload\n      swap1\n      0x0100\n      exp\n      swap1\n      div\n      0xffffffffffffffffffffffffffffffffffffffff\n      and\n        /* \"https://github.com/OpenZeppelin/openzeppelin-contracts/blob/master/contracts/access/Ownable.sol\":1703:1716  return _owner */\n      swap1\n      pop\n        /* \"https://github.com/OpenZeppelin/openzeppelin-contracts/blob/master/contracts/access/Ownable.sol\":1638:1723  function owner() public view virtual returns (address) {... */\n      swap1\n      jump\t// out\n        /* \"contracts/VintingV1.sol\":7501:7676  function getProposalDetails(uint _sessionId, uint proposalIndex) external view returns (Proposal memory ) {... */\n    tag_74:\n        /* \"contracts/VintingV1.sol\":7589:7604  Proposal memory */\n      tag_215\n      tag_192\n      jump\t// in\n    tag_215:\n        /* \"contracts/VintingV1.sol\":7624:7632  sessions */\n      0x02\n        /* \"contracts/VintingV1.sol\":7624:7644  sessions[_sessionId] */\n      0x00\n        /* \"contracts/VintingV1.sol\":7633:7643  _sessionId */\n      dup5\n        /* \"contracts/VintingV1.sol\":7624:7644  sessions[_sessionId] */\n      dup2\n      mstore\n      0x20\n      add\n      swap1\n      dup2\n      mstore\n      0x20\n      add\n      0x00\n      keccak256\n        /* \"contracts/VintingV1.sol\":7624:7654  sessions[_sessionId].proposals */\n      0x04\n      add\n        /* \"contracts/VintingV1.sol\":7655:7668  proposalIndex */\n      dup3\n        /* \"contracts/VintingV1.sol\":7624:7669  sessions[_sessionId].proposals[proposalIndex] */\n      dup2\n      sload\n      dup2\n      lt\n      tag_217\n      jumpi\n      tag_218\n      tag_116\n      jump\t// in\n    tag_218:\n    tag_217:\n      swap1\n      0x00\n      mstore\n      keccak256(0x00, 0x20)\n      swap1\n      0x03\n      mul\n      add\n        /* \"contracts/VintingV1.sol\":7617:7669  return sessions[_sessionId].proposals[proposalIndex] */\n      mload(0x40)\n      dup1\n      0x60\n      add\n      0x40\n      mstore\n      swap1\n      dup2\n      0x00\n      dup3\n      add\n      dup1\n      sload\n      tag_220\n      swap1\n      tag_198\n      jump\t// in\n    tag_220:\n      dup1\n      0x1f\n      add\n      0x20\n      dup1\n      swap2\n      div\n      mul\n      0x20\n      add\n      mload(0x40)\n      swap1\n      dup2\n      add\n      0x40\n      mstore\n      dup1\n      swap3\n      swap2\n      swap1\n      dup2\n      dup2\n      mstore\n      0x20\n      add\n      dup3\n      dup1\n      sload\n      tag_221\n      swap1\n      tag_198\n      jump\t// in\n    tag_221:\n      dup1\n      iszero\n      tag_222\n      jumpi\n      dup1\n      0x1f\n      lt\n      tag_223\n      jumpi\n      0x0100\n      dup1\n      dup4\n      sload\n      div\n      mul\n      dup4\n      mstore\n      swap2\n      0x20\n      add\n      swap2\n      jump(tag_222)\n    tag_223:\n      dup3\n      add\n      swap2\n      swap1\n      0x00\n      mstore\n      keccak256(0x00, 0x20)\n      swap1\n    tag_224:\n      dup2\n      sload\n      dup2\n      mstore\n      swap1\n      0x01\n      add\n      swap1\n      0x20\n      add\n      dup1\n      dup4\n      gt\n      tag_224\n      jumpi\n      dup3\n      swap1\n      sub\n      0x1f\n      and\n      dup3\n      add\n      swap2\n    tag_222:\n      pop\n      pop\n      pop\n      pop\n      pop\n      dup2\n      mstore\n      0x20\n      add\n      0x01\n      dup3\n      add\n      0x00\n      swap1\n      sload\n      swap1\n      0x0100\n      exp\n      swap1\n      div\n      0xffffffffffffffffffffffffffffffffffffffff\n      and\n      0xffffffffffffffffffffffffffffffffffffffff\n      and\n      0xffffffffffffffffffffffffffffffffffffffff\n      and\n      dup2\n      mstore\n      0x20\n      add\n      0x02\n      dup3\n      add\n      sload\n      dup2\n      mstore\n      pop\n      pop\n      swap1\n      pop\n        /* \"contracts/VintingV1.sol\":7501:7676  function getProposalDetails(uint _sessionId, uint proposalIndex) external view returns (Proposal memory ) {... */\n      swap3\n      swap2\n      pop\n      pop\n      jump\t// out\n        /* \"contracts/VintingV1.sol\":4125:4588  function startVotingSession(uint sessionId) public onlyOwner {... */\n    tag_78:\n        /* \"https://github.com/OpenZeppelin/openzeppelin-contracts/blob/master/contracts/access/Ownable.sol\":1531:1544  _checkOwner() */\n      tag_226\n        /* \"https://github.com/OpenZeppelin/openzeppelin-contracts/blob/master/contracts/access/Ownable.sol\":1531:1542  _checkOwner */\n      tag_99\n        /* \"https://github.com/OpenZeppelin/openzeppelin-contracts/blob/master/contracts/access/Ownable.sol\":1531:1544  _checkOwner() */\n      jump\t// in\n    tag_226:\n        /* \"contracts/VintingV1.sol\":4196:4226  Session storage currentSession */\n      0x00\n        /* \"contracts/VintingV1.sol\":4229:4237  sessions */\n      0x02\n        /* \"contracts/VintingV1.sol\":4229:4248  sessions[sessionId] */\n      0x00\n        /* \"contracts/VintingV1.sol\":4238:4247  sessionId */\n      dup4\n        /* \"contracts/VintingV1.sol\":4229:4248  sessions[sessionId] */\n      dup2\n      mstore\n      0x20\n      add\n      swap1\n      dup2\n      mstore\n      0x20\n      add\n      0x00\n      keccak256\n        /* \"contracts/VintingV1.sol\":4196:4248  Session storage currentSession = sessions[sessionId] */\n      swap1\n      pop\n        /* \"contracts/VintingV1.sol\":4299:4340  WorkflowStatus.ProposalsRegistrationEnded */\n      0x02\n        /* \"contracts/VintingV1.sol\":4266:4340  currentSession.workflowStatus == WorkflowStatus.ProposalsRegistrationEnded */\n      0x05\n      dup2\n      gt\n      iszero\n      tag_228\n      jumpi\n      tag_229\n      tag_130\n      jump\t// in\n    tag_229:\n    tag_228:\n        /* \"contracts/VintingV1.sol\":4266:4280  currentSession */\n      dup2\n        /* \"contracts/VintingV1.sol\":4266:4295  currentSession.workflowStatus */\n      0x01\n      add\n      0x00\n      swap1\n      sload\n      swap1\n      0x0100\n      exp\n      swap1\n      div\n      0xff\n      and\n        /* \"contracts/VintingV1.sol\":4266:4340  currentSession.workflowStatus == WorkflowStatus.ProposalsRegistrationEnded */\n      0x05\n      dup2\n      gt\n      iszero\n      tag_230\n      jumpi\n      tag_231\n      tag_130\n      jump\t// in\n    tag_231:\n    tag_230:\n      eq\n        /* \"contracts/VintingV1.sol\":4258:4377  require(currentSession.workflowStatus == WorkflowStatus.ProposalsRegistrationEnded, \"Proposals registration not ended\") */\n      tag_232\n      jumpi\n      mload(0x40)\n      0x08c379a000000000000000000000000000000000000000000000000000000000\n      dup2\n      mstore\n      0x04\n      add\n      tag_233\n      swap1\n      tag_234\n      jump\t// in\n    tag_233:\n      mload(0x40)\n      dup1\n      swap2\n      sub\n      swap1\n      revert\n    tag_232:\n        /* \"contracts/VintingV1.sol\":4419:4454  WorkflowStatus.VotingSessionStarted */\n      0x03\n        /* \"contracts/VintingV1.sol\":4387:4401  currentSession */\n      dup2\n        /* \"contracts/VintingV1.sol\":4387:4416  currentSession.workflowStatus */\n      0x01\n      add\n      0x00\n        /* \"contracts/VintingV1.sol\":4387:4454  currentSession.workflowStatus = WorkflowStatus.VotingSessionStarted */\n      0x0100\n      exp\n      dup2\n      sload\n      dup2\n      0xff\n      mul\n      not\n      and\n      swap1\n      dup4\n      0x05\n      dup2\n      gt\n      iszero\n      tag_235\n      jumpi\n      tag_236\n      tag_130\n      jump\t// in\n    tag_236:\n    tag_235:\n      mul\n      or\n      swap1\n      sstore\n      pop\n        /* \"contracts/VintingV1.sol\":4469:4580  WorkflowStatusChange(sessionId, WorkflowStatus.ProposalsRegistrationEnded, WorkflowStatus.VotingSessionStarted) */\n      0xb067099e10826978a3867510ad1e0dcf4ca5cef8e422fd8df2fc3d679167fe8d\n        /* \"contracts/VintingV1.sol\":4490:4499  sessionId */\n      dup3\n        /* \"contracts/VintingV1.sol\":4501:4542  WorkflowStatus.ProposalsRegistrationEnded */\n      0x02\n        /* \"contracts/VintingV1.sol\":4544:4579  WorkflowStatus.VotingSessionStarted */\n      0x03\n        /* \"contracts/VintingV1.sol\":4469:4580  WorkflowStatusChange(sessionId, WorkflowStatus.ProposalsRegistrationEnded, WorkflowStatus.VotingSessionStarted) */\n      mload(0x40)\n      tag_237\n      swap4\n      swap3\n      swap2\n      swap1\n      tag_165\n      jump\t// in\n    tag_237:\n      mload(0x40)\n      dup1\n      swap2\n      sub\n      swap1\n      log1\n        /* \"contracts/VintingV1.sol\":4186:4588  {... */\n      pop\n        /* \"contracts/VintingV1.sol\":4125:4588  function startVotingSession(uint sessionId) public onlyOwner {... */\n      pop\n      jump\t// out\n        /* \"contracts/VintingV1.sol\":778:819  mapping(address => bool) public whitelist */\n    tag_81:\n      mstore(0x20, 0x01)\n      dup1\n      0x00\n      mstore\n      keccak256(0x00, 0x40)\n      0x00\n      swap2\n      pop\n      sload\n      swap1\n      0x0100\n      exp\n      swap1\n      div\n      0xff\n      and\n      dup2\n      jump\t// out\n        /* \"contracts/VintingV1.sol\":7358:7495  function getAllProposals(uint _sessionId) external view returns(Proposal[] memory) {... */\n    tag_85:\n        /* \"contracts/VintingV1.sol\":7422:7439  Proposal[] memory */\n      0x60\n        /* \"contracts/VintingV1.sol\":7458:7466  sessions */\n      0x02\n        /* \"contracts/VintingV1.sol\":7458:7478  sessions[_sessionId] */\n      0x00\n        /* \"contracts/VintingV1.sol\":7467:7477  _sessionId */\n      dup4\n        /* \"contracts/VintingV1.sol\":7458:7478  sessions[_sessionId] */\n      dup2\n      mstore\n      0x20\n      add\n      swap1\n      dup2\n      mstore\n      0x20\n      add\n      0x00\n      keccak256\n        /* \"contracts/VintingV1.sol\":7458:7488  sessions[_sessionId].proposals */\n      0x04\n      add\n        /* \"contracts/VintingV1.sol\":7451:7488  return sessions[_sessionId].proposals */\n      dup1\n      sload\n      dup1\n      0x20\n      mul\n      0x20\n      add\n      mload(0x40)\n      swap1\n      dup2\n      add\n      0x40\n      mstore\n      dup1\n      swap3\n      swap2\n      swap1\n      dup2\n      dup2\n      mstore\n      0x20\n      add\n      0x00\n      swap1\n    tag_239:\n      dup3\n      dup3\n      lt\n      iszero\n      tag_240\n      jumpi\n      dup4\n      dup3\n      swap1\n      0x00\n      mstore\n      keccak256(0x00, 0x20)\n      swap1\n      0x03\n      mul\n      add\n      mload(0x40)\n      dup1\n      0x60\n      add\n      0x40\n      mstore\n      swap1\n      dup2\n      0x00\n      dup3\n      add\n      dup1\n      sload\n      tag_242\n      swap1\n      tag_198\n      jump\t// in\n    tag_242:\n      dup1\n      0x1f\n      add\n      0x20\n      dup1\n      swap2\n      div\n      mul\n      0x20\n      add\n      mload(0x40)\n      swap1\n      dup2\n      add\n      0x40\n      mstore\n      dup1\n      swap3\n      swap2\n      swap1\n      dup2\n      dup2\n      mstore\n      0x20\n      add\n      dup3\n      dup1\n      sload\n      tag_243\n      swap1\n      tag_198\n      jump\t// in\n    tag_243:\n      dup1\n      iszero\n      tag_244\n      jumpi\n      dup1\n      0x1f\n      lt\n      tag_245\n      jumpi\n      0x0100\n      dup1\n      dup4\n      sload\n      div\n      mul\n      dup4\n      mstore\n      swap2\n      0x20\n      add\n      swap2\n      jump(tag_244)\n    tag_245:\n      dup3\n      add\n      swap2\n      swap1\n      0x00\n      mstore\n      keccak256(0x00, 0x20)\n      swap1\n    tag_246:\n      dup2\n      sload\n      dup2\n      mstore\n      swap1\n      0x01\n      add\n      swap1\n      0x20\n      add\n      dup1\n      dup4\n      gt\n      tag_246\n      jumpi\n      dup3\n      swap1\n      sub\n      0x1f\n      and\n      dup3\n      add\n      swap2\n    tag_244:\n      pop\n      pop\n      pop\n      pop\n      pop\n      dup2\n      mstore\n      0x20\n      add\n      0x01\n      dup3\n      add\n      0x00\n      swap1\n      sload\n      swap1\n      0x0100\n      exp\n      swap1\n      div\n      0xffffffffffffffffffffffffffffffffffffffff\n      and\n      0xffffffffffffffffffffffffffffffffffffffff\n      and\n      0xffffffffffffffffffffffffffffffffffffffff\n      and\n      dup2\n      mstore\n      0x20\n      add\n      0x02\n      dup3\n      add\n      sload\n      dup2\n      mstore\n      pop\n      pop\n      dup2\n      mstore\n      0x20\n      add\n      swap1\n      0x01\n      add\n      swap1\n      jump(tag_239)\n    tag_240:\n      pop\n      pop\n      pop\n      pop\n      swap1\n      pop\n        /* \"contracts/VintingV1.sol\":7358:7495  function getAllProposals(uint _sessionId) external view returns(Proposal[] memory) {... */\n      swap2\n      swap1\n      pop\n      jump\t// out\n        /* \"contracts/VintingV1.sol\":3545:4119  function endProposalsRegistration(uint sessionId) public onlyOwner {... */\n    tag_90:\n        /* \"https://github.com/OpenZeppelin/openzeppelin-contracts/blob/master/contracts/access/Ownable.sol\":1531:1544  _checkOwner() */\n      tag_248\n        /* \"https://github.com/OpenZeppelin/openzeppelin-contracts/blob/master/contracts/access/Ownable.sol\":1531:1542  _checkOwner */\n      tag_99\n        /* \"https://github.com/OpenZeppelin/openzeppelin-contracts/blob/master/contracts/access/Ownable.sol\":1531:1544  _checkOwner() */\n      jump\t// in\n    tag_248:\n        /* \"contracts/VintingV1.sol\":3622:3652  Session storage currentSession */\n      0x00\n        /* \"contracts/VintingV1.sol\":3655:3663  sessions */\n      0x02\n        /* \"contracts/VintingV1.sol\":3655:3674  sessions[sessionId] */\n      0x00\n        /* \"contracts/VintingV1.sol\":3664:3673  sessionId */\n      dup4\n        /* \"contracts/VintingV1.sol\":3655:3674  sessions[sessionId] */\n      dup2\n      mstore\n      0x20\n      add\n      swap1\n      dup2\n      mstore\n      0x20\n      add\n      0x00\n      keccak256\n        /* \"contracts/VintingV1.sol\":3622:3674  Session storage currentSession = sessions[sessionId] */\n      swap1\n      pop\n        /* \"contracts/VintingV1.sol\":3726:3769  WorkflowStatus.ProposalsRegistrationStarted */\n      0x01\n        /* \"contracts/VintingV1.sol\":3693:3769  currentSession.workflowStatus == WorkflowStatus.ProposalsRegistrationStarted */\n      0x05\n      dup2\n      gt\n      iszero\n      tag_250\n      jumpi\n      tag_251\n      tag_130\n      jump\t// in\n    tag_251:\n    tag_250:\n        /* \"contracts/VintingV1.sol\":3693:3707  currentSession */\n      dup2\n        /* \"contracts/VintingV1.sol\":3693:3722  currentSession.workflowStatus */\n      0x01\n      add\n      0x00\n      swap1\n      sload\n      swap1\n      0x0100\n      exp\n      swap1\n      div\n      0xff\n      and\n        /* \"contracts/VintingV1.sol\":3693:3769  currentSession.workflowStatus == WorkflowStatus.ProposalsRegistrationStarted */\n      0x05\n      dup2\n      gt\n      iszero\n      tag_252\n      jumpi\n      tag_253\n      tag_130\n      jump\t// in\n    tag_253:\n    tag_252:\n      eq\n        /* \"contracts/VintingV1.sol\":3684:3808  require (currentSession.workflowStatus == WorkflowStatus.ProposalsRegistrationStarted, \"Proposals registration not started\") */\n      tag_254\n      jumpi\n      mload(0x40)\n      0x08c379a000000000000000000000000000000000000000000000000000000000\n      dup2\n      mstore\n      0x04\n      add\n      tag_255\n      swap1\n      tag_256\n      jump\t// in\n    tag_255:\n      mload(0x40)\n      dup1\n      swap2\n      sub\n      swap1\n      revert\n    tag_254:\n        /* \"contracts/VintingV1.sol\":3860:3861  0 */\n      0x00\n        /* \"contracts/VintingV1.sol\":3826:3840  currentSession */\n      dup2\n        /* \"contracts/VintingV1.sol\":3826:3850  currentSession.proposals */\n      0x04\n      add\n        /* \"contracts/VintingV1.sol\":3826:3857  currentSession.proposals.length */\n      dup1\n      sload\n      swap1\n      pop\n        /* \"contracts/VintingV1.sol\":3826:3861  currentSession.proposals.length > 0 */\n      gt\n        /* \"contracts/VintingV1.sol\":3818:3894  require(currentSession.proposals.length > 0, \"no proposals were registered\") */\n      tag_257\n      jumpi\n      mload(0x40)\n      0x08c379a000000000000000000000000000000000000000000000000000000000\n      dup2\n      mstore\n      0x04\n      add\n      tag_258\n      swap1\n      tag_259\n      jump\t// in\n    tag_258:\n      mload(0x40)\n      dup1\n      swap2\n      sub\n      swap1\n      revert\n    tag_257:\n        /* \"contracts/VintingV1.sol\":3936:3977  WorkflowStatus.ProposalsRegistrationEnded */\n      0x02\n        /* \"contracts/VintingV1.sol\":3904:3918  currentSession */\n      dup2\n        /* \"contracts/VintingV1.sol\":3904:3933  currentSession.workflowStatus */\n      0x01\n      add\n      0x00\n        /* \"contracts/VintingV1.sol\":3904:3977  currentSession.workflowStatus = WorkflowStatus.ProposalsRegistrationEnded */\n      0x0100\n      exp\n      dup2\n      sload\n      dup2\n      0xff\n      mul\n      not\n      and\n      swap1\n      dup4\n      0x05\n      dup2\n      gt\n      iszero\n      tag_260\n      jumpi\n      tag_261\n      tag_130\n      jump\t// in\n    tag_261:\n    tag_260:\n      mul\n      or\n      swap1\n      sstore\n      pop\n        /* \"contracts/VintingV1.sol\":3992:4111  WorkflowStatusChange(sessionId, WorkflowStatus.ProposalsRegistrationStarted, WorkflowStatus.ProposalsRegistrationEnded) */\n      0xb067099e10826978a3867510ad1e0dcf4ca5cef8e422fd8df2fc3d679167fe8d\n        /* \"contracts/VintingV1.sol\":4013:4022  sessionId */\n      dup3\n        /* \"contracts/VintingV1.sol\":4024:4067  WorkflowStatus.ProposalsRegistrationStarted */\n      0x01\n        /* \"contracts/VintingV1.sol\":4069:4110  WorkflowStatus.ProposalsRegistrationEnded */\n      0x02\n        /* \"contracts/VintingV1.sol\":3992:4111  WorkflowStatusChange(sessionId, WorkflowStatus.ProposalsRegistrationStarted, WorkflowStatus.ProposalsRegistrationEnded) */\n      mload(0x40)\n      tag_262\n      swap4\n      swap3\n      swap2\n      swap1\n      tag_165\n      jump\t// in\n    tag_262:\n      mload(0x40)\n      dup1\n      swap2\n      sub\n      swap1\n      log1\n        /* \"contracts/VintingV1.sol\":3612:4119  {... */\n      pop\n        /* \"contracts/VintingV1.sol\":3545:4119  function endProposalsRegistration(uint sessionId) public onlyOwner {... */\n      pop\n      jump\t// out\n        /* \"contracts/VintingV1.sol\":5880:7112  function computeMostVotedProposal(uint sessionId) public onlyOwner {   ... */\n    tag_93:\n        /* \"https://github.com/OpenZeppelin/openzeppelin-contracts/blob/master/contracts/access/Ownable.sol\":1531:1544  _checkOwner() */\n      tag_264\n        /* \"https://github.com/OpenZeppelin/openzeppelin-contracts/blob/master/contracts/access/Ownable.sol\":1531:1542  _checkOwner */\n      tag_99\n        /* \"https://github.com/OpenZeppelin/openzeppelin-contracts/blob/master/contracts/access/Ownable.sol\":1531:1544  _checkOwner() */\n      jump\t// in\n    tag_264:\n        /* \"contracts/VintingV1.sol\":5960:5990  Session storage currentSession */\n      0x00\n        /* \"contracts/VintingV1.sol\":5993:6001  sessions */\n      0x02\n        /* \"contracts/VintingV1.sol\":5993:6012  sessions[sessionId] */\n      0x00\n        /* \"contracts/VintingV1.sol\":6002:6011  sessionId */\n      dup4\n        /* \"contracts/VintingV1.sol\":5993:6012  sessions[sessionId] */\n      dup2\n      mstore\n      0x20\n      add\n      swap1\n      dup2\n      mstore\n      0x20\n      add\n      0x00\n      keccak256\n        /* \"contracts/VintingV1.sol\":5960:6012  Session storage currentSession = sessions[sessionId] */\n      swap1\n      pop\n        /* \"contracts/VintingV1.sol\":6063:6096  WorkflowStatus.VotingSessionEnded */\n      0x04\n        /* \"contracts/VintingV1.sol\":6030:6096  currentSession.workflowStatus == WorkflowStatus.VotingSessionEnded */\n      0x05\n      dup2\n      gt\n      iszero\n      tag_266\n      jumpi\n      tag_267\n      tag_130\n      jump\t// in\n    tag_267:\n    tag_266:\n        /* \"contracts/VintingV1.sol\":6030:6044  currentSession */\n      dup2\n        /* \"contracts/VintingV1.sol\":6030:6059  currentSession.workflowStatus */\n      0x01\n      add\n      0x00\n      swap1\n      sload\n      swap1\n      0x0100\n      exp\n      swap1\n      div\n      0xff\n      and\n        /* \"contracts/VintingV1.sol\":6030:6096  currentSession.workflowStatus == WorkflowStatus.VotingSessionEnded */\n      0x05\n      dup2\n      gt\n      iszero\n      tag_268\n      jumpi\n      tag_269\n      tag_130\n      jump\t// in\n    tag_269:\n    tag_268:\n      eq\n        /* \"contracts/VintingV1.sol\":6022:6127  require(currentSession.workflowStatus == WorkflowStatus.VotingSessionEnded, \"Voting session did not end\") */\n      tag_270\n      jumpi\n      mload(0x40)\n      0x08c379a000000000000000000000000000000000000000000000000000000000\n      dup2\n      mstore\n      0x04\n      add\n      tag_271\n      swap1\n      tag_272\n      jump\t// in\n    tag_271:\n      mload(0x40)\n      dup1\n      swap2\n      sub\n      swap1\n      revert\n    tag_270:\n        /* \"contracts/VintingV1.sol\":6137:6165  Proposal[] storage proposals */\n      0x00\n        /* \"contracts/VintingV1.sol\":6168:6182  currentSession */\n      dup2\n        /* \"contracts/VintingV1.sol\":6168:6192  currentSession.proposals */\n      0x04\n      add\n        /* \"contracts/VintingV1.sol\":6137:6192  Proposal[] storage proposals = currentSession.proposals */\n      swap1\n      pop\n        /* \"contracts/VintingV1.sol\":6202:6227  uint numberOfBestProposal */\n      0x00\n        /* \"contracts/VintingV1.sol\":6242:6248  uint i */\n      0x00\n        /* \"contracts/VintingV1.sol\":6251:6252  0 */\n      0x00\n        /* \"contracts/VintingV1.sol\":6242:6252  uint i = 0 */\n      swap1\n      pop\n        /* \"contracts/VintingV1.sol\":6237:6402  for (uint i = 0; i < proposals.length; i++) {... */\n    tag_273:\n        /* \"contracts/VintingV1.sol\":6258:6267  proposals */\n      dup3\n        /* \"contracts/VintingV1.sol\":6258:6274  proposals.length */\n      dup1\n      sload\n      swap1\n      pop\n        /* \"contracts/VintingV1.sol\":6254:6255  i */\n      dup2\n        /* \"contracts/VintingV1.sol\":6254:6274  i < proposals.length */\n      lt\n        /* \"contracts/VintingV1.sol\":6237:6402  for (uint i = 0; i < proposals.length; i++) {... */\n      iszero\n      tag_274\n      jumpi\n        /* \"contracts/VintingV1.sol\":6324:6338  currentSession */\n      dup4\n        /* \"contracts/VintingV1.sol\":6324:6355  currentSession.highestVoteCount */\n      0x03\n      add\n      sload\n        /* \"contracts/VintingV1.sol\":6298:6307  proposals */\n      dup4\n        /* \"contracts/VintingV1.sol\":6308:6309  i */\n      dup3\n        /* \"contracts/VintingV1.sol\":6298:6310  proposals[i] */\n      dup2\n      sload\n      dup2\n      lt\n      tag_276\n      jumpi\n      tag_277\n      tag_116\n      jump\t// in\n    tag_277:\n    tag_276:\n      swap1\n      0x00\n      mstore\n      keccak256(0x00, 0x20)\n      swap1\n      0x03\n      mul\n      add\n        /* \"contracts/VintingV1.sol\":6298:6320  proposals[i].voteCount */\n      0x02\n      add\n      sload\n        /* \"contracts/VintingV1.sol\":6298:6355  proposals[i].voteCount == currentSession.highestVoteCount */\n      sub\n        /* \"contracts/VintingV1.sol\":6295:6391  if(proposals[i].voteCount == currentSession.highestVoteCount)... */\n      tag_279\n      jumpi\n        /* \"contracts/VintingV1.sol\":6369:6391  numberOfBestProposal++ */\n      dup2\n      dup1\n      tag_280\n      swap1\n      tag_110\n      jump\t// in\n    tag_280:\n      swap3\n      pop\n      pop\n        /* \"contracts/VintingV1.sol\":6295:6391  if(proposals[i].voteCount == currentSession.highestVoteCount)... */\n    tag_279:\n        /* \"contracts/VintingV1.sol\":6276:6279  i++ */\n      dup1\n      dup1\n      0x01\n      add\n      swap2\n      pop\n      pop\n        /* \"contracts/VintingV1.sol\":6237:6402  for (uint i = 0; i < proposals.length; i++) {... */\n      jump(tag_273)\n    tag_274:\n      pop\n        /* \"contracts/VintingV1.sol\":6411:6442  Proposal[] memory bestProposals */\n      0x00\n        /* \"contracts/VintingV1.sol\":6460:6480  numberOfBestProposal */\n      dup2\n        /* \"contracts/VintingV1.sol\":6445:6481  new Proposal[](numberOfBestProposal) */\n      0xffffffffffffffff\n      dup2\n      gt\n      iszero\n      tag_281\n      jumpi\n      tag_282\n      tag_283\n      jump\t// in\n    tag_282:\n    tag_281:\n      mload(0x40)\n      swap1\n      dup1\n      dup3\n      mstore\n      dup1\n      0x20\n      mul\n      0x20\n      add\n      dup3\n      add\n      0x40\n      mstore\n      dup1\n      iszero\n      tag_284\n      jumpi\n      dup2\n      0x20\n      add\n    tag_285:\n      tag_286\n      tag_192\n      jump\t// in\n    tag_286:\n      dup2\n      mstore\n      0x20\n      add\n      swap1\n      0x01\n      swap1\n      sub\n      swap1\n      dup2\n      tag_285\n      jumpi\n      swap1\n      pop\n    tag_284:\n      pop\n        /* \"contracts/VintingV1.sol\":6411:6481  Proposal[] memory bestProposals = new Proposal[](numberOfBestProposal) */\n      swap1\n      pop\n        /* \"contracts/VintingV1.sol\":6491:6501  uint index */\n      0x00\n        /* \"contracts/VintingV1.sol\":6516:6522  uint i */\n      0x00\n        /* \"contracts/VintingV1.sol\":6525:6526  0 */\n      0x00\n        /* \"contracts/VintingV1.sol\":6516:6526  uint i = 0 */\n      swap1\n      pop\n        /* \"contracts/VintingV1.sol\":6511:6791  for (uint i = 0; i < proposals.length; i++) {... */\n    tag_287:\n        /* \"contracts/VintingV1.sol\":6532:6541  proposals */\n      dup5\n        /* \"contracts/VintingV1.sol\":6532:6548  proposals.length */\n      dup1\n      sload\n      swap1\n      pop\n        /* \"contracts/VintingV1.sol\":6528:6529  i */\n      dup2\n        /* \"contracts/VintingV1.sol\":6528:6548  i < proposals.length */\n      lt\n        /* \"contracts/VintingV1.sol\":6511:6791  for (uint i = 0; i < proposals.length; i++) {... */\n      iszero\n      tag_288\n      jumpi\n        /* \"contracts/VintingV1.sol\":6598:6612  currentSession */\n      dup6\n        /* \"contracts/VintingV1.sol\":6598:6629  currentSession.highestVoteCount */\n      0x03\n      add\n      sload\n        /* \"contracts/VintingV1.sol\":6572:6581  proposals */\n      dup6\n        /* \"contracts/VintingV1.sol\":6582:6583  i */\n      dup3\n        /* \"contracts/VintingV1.sol\":6572:6584  proposals[i] */\n      dup2\n      sload\n      dup2\n      lt\n      tag_290\n      jumpi\n      tag_291\n      tag_116\n      jump\t// in\n    tag_291:\n    tag_290:\n      swap1\n      0x00\n      mstore\n      keccak256(0x00, 0x20)\n      swap1\n      0x03\n      mul\n      add\n        /* \"contracts/VintingV1.sol\":6572:6594  proposals[i].voteCount */\n      0x02\n      add\n      sload\n        /* \"contracts/VintingV1.sol\":6572:6629  proposals[i].voteCount == currentSession.highestVoteCount */\n      sub\n        /* \"contracts/VintingV1.sol\":6569:6781  if(proposals[i].voteCount == currentSession.highestVoteCount) {... */\n      tag_293\n      jumpi\n        /* \"contracts/VintingV1.sol\":6672:6681  proposals */\n      dup5\n        /* \"contracts/VintingV1.sol\":6682:6683  i */\n      dup2\n        /* \"contracts/VintingV1.sol\":6672:6684  proposals[i] */\n      dup2\n      sload\n      dup2\n      lt\n      tag_294\n      jumpi\n      tag_295\n      tag_116\n      jump\t// in\n    tag_295:\n    tag_294:\n      swap1\n      0x00\n      mstore\n      keccak256(0x00, 0x20)\n      swap1\n      0x03\n      mul\n      add\n        /* \"contracts/VintingV1.sol\":6649:6684  bestProposals[index] = proposals[i] */\n      mload(0x40)\n      dup1\n      0x60\n      add\n      0x40\n      mstore\n      swap1\n      dup2\n      0x00\n      dup3\n      add\n      dup1\n      sload\n      tag_297\n      swap1\n      tag_198\n      jump\t// in\n    tag_297:\n      dup1\n      0x1f\n      add\n      0x20\n      dup1\n      swap2\n      div\n      mul\n      0x20\n      add\n      mload(0x40)\n      swap1\n      dup2\n      add\n      0x40\n      mstore\n      dup1\n      swap3\n      swap2\n      swap1\n      dup2\n      dup2\n      mstore\n      0x20\n      add\n      dup3\n      dup1\n      sload\n      tag_298\n      swap1\n      tag_198\n      jump\t// in\n    tag_298:\n      dup1\n      iszero\n      tag_299\n      jumpi\n      dup1\n      0x1f\n      lt\n      tag_300\n      jumpi\n      0x0100\n      dup1\n      dup4\n      sload\n      div\n      mul\n      dup4\n      mstore\n      swap2\n      0x20\n      add\n      swap2\n      jump(tag_299)\n    tag_300:\n      dup3\n      add\n      swap2\n      swap1\n      0x00\n      mstore\n      keccak256(0x00, 0x20)\n      swap1\n    tag_301:\n      dup2\n      sload\n      dup2\n      mstore\n      swap1\n      0x01\n      add\n      swap1\n      0x20\n      add\n      dup1\n      dup4\n      gt\n      tag_301\n      jumpi\n      dup3\n      swap1\n      sub\n      0x1f\n      and\n      dup3\n      add\n      swap2\n    tag_299:\n      pop\n      pop\n      pop\n      pop\n      pop\n      dup2\n      mstore\n      0x20\n      add\n      0x01\n      dup3\n      add\n      0x00\n      swap1\n      sload\n      swap1\n      0x0100\n      exp\n      swap1\n      div\n      0xffffffffffffffffffffffffffffffffffffffff\n      and\n      0xffffffffffffffffffffffffffffffffffffffff\n      and\n      0xffffffffffffffffffffffffffffffffffffffff\n      and\n      dup2\n      mstore\n      0x20\n      add\n      0x02\n      dup3\n      add\n      sload\n      dup2\n      mstore\n      pop\n      pop\n        /* \"contracts/VintingV1.sol\":6649:6662  bestProposals */\n      dup4\n        /* \"contracts/VintingV1.sol\":6663:6668  index */\n      dup4\n        /* \"contracts/VintingV1.sol\":6649:6669  bestProposals[index] */\n      dup2\n      mload\n      dup2\n      lt\n      tag_302\n      jumpi\n      tag_303\n      tag_116\n      jump\t// in\n    tag_303:\n    tag_302:\n      0x20\n      mul\n      0x20\n      add\n      add\n        /* \"contracts/VintingV1.sol\":6649:6684  bestProposals[index] = proposals[i] */\n      dup2\n      swap1\n      mstore\n      pop\n        /* \"contracts/VintingV1.sol\":6740:6741  i */\n      dup1\n        /* \"contracts/VintingV1.sol\":6702:6716  currentSession */\n      dup7\n        /* \"contracts/VintingV1.sol\":6702:6737  currentSession.winningProposalIndex */\n      0x02\n      add\n        /* \"contracts/VintingV1.sol\":6702:6741  currentSession.winningProposalIndex = i */\n      dup2\n      swap1\n      sstore\n      pop\n        /* \"contracts/VintingV1.sol\":6759:6766  index++ */\n      dup2\n      dup1\n      tag_304\n      swap1\n      tag_110\n      jump\t// in\n    tag_304:\n      swap3\n      pop\n      pop\n        /* \"contracts/VintingV1.sol\":6569:6781  if(proposals[i].voteCount == currentSession.highestVoteCount) {... */\n    tag_293:\n        /* \"contracts/VintingV1.sol\":6550:6553  i++ */\n      dup1\n      dup1\n      0x01\n      add\n      swap2\n      pop\n      pop\n        /* \"contracts/VintingV1.sol\":6511:6791  for (uint i = 0; i < proposals.length; i++) {... */\n      jump(tag_287)\n    tag_288:\n      pop\n        /* \"contracts/VintingV1.sol\":6827:6828  1 */\n      0x01\n        /* \"contracts/VintingV1.sol\":6803:6816  bestProposals */\n      dup3\n        /* \"contracts/VintingV1.sol\":6803:6823  bestProposals.length */\n      mload\n        /* \"contracts/VintingV1.sol\":6803:6828  bestProposals.length == 1 */\n      sub\n        /* \"contracts/VintingV1.sol\":6800:7106  if(bestProposals.length == 1) {... */\n      tag_305\n      jumpi\n        /* \"contracts/VintingV1.sol\":6849:6915  WinningProposition(sessionId, currentSession.winningProposalIndex) */\n      0xa02a80459fbab98547e0db2cfb6ef274e962836a412718bb60fb14f1e6382e57\n        /* \"contracts/VintingV1.sol\":6868:6877  sessionId */\n      dup7\n        /* \"contracts/VintingV1.sol\":6879:6893  currentSession */\n      dup7\n        /* \"contracts/VintingV1.sol\":6879:6914  currentSession.winningProposalIndex */\n      0x02\n      add\n      sload\n        /* \"contracts/VintingV1.sol\":6849:6915  WinningProposition(sessionId, currentSession.winningProposalIndex) */\n      mload(0x40)\n      tag_306\n      swap3\n      swap2\n      swap1\n      tag_183\n      jump\t// in\n    tag_306:\n      mload(0x40)\n      dup1\n      swap2\n      sub\n      swap1\n      log1\n        /* \"contracts/VintingV1.sol\":6800:7106  if(bestProposals.length == 1) {... */\n      jump(tag_307)\n    tag_305:\n        /* \"contracts/VintingV1.sol\":6992:6993  0 */\n      0x00\n        /* \"contracts/VintingV1.sol\":6954:6968  currentSession */\n      dup6\n        /* \"contracts/VintingV1.sol\":6954:6989  currentSession.winningProposalIndex */\n      0x02\n      add\n        /* \"contracts/VintingV1.sol\":6954:6993  currentSession.winningProposalIndex = 0 */\n      dup2\n      swap1\n      sstore\n      pop\n        /* \"contracts/VintingV1.sol\":7007:7053  renewSession(bestProposals, currentSession.id) */\n      tag_308\n        /* \"contracts/VintingV1.sol\":7020:7033  bestProposals */\n      dup3\n        /* \"contracts/VintingV1.sol\":7035:7049  currentSession */\n      dup7\n        /* \"contracts/VintingV1.sol\":7035:7052  currentSession.id */\n      0x00\n      add\n      sload\n        /* \"contracts/VintingV1.sol\":7007:7019  renewSession */\n      tag_32\n        /* \"contracts/VintingV1.sol\":7007:7053  renewSession(bestProposals, currentSession.id) */\n      jump\t// in\n    tag_308:\n        /* \"contracts/VintingV1.sol\":7072:7095  RenewSession(sessionId) */\n      0x0f647fdccb52741a5ff3d2ef61826fc3fb196e30bf0a07a8a7d46e706d999d54\n        /* \"contracts/VintingV1.sol\":7085:7094  sessionId */\n      dup7\n        /* \"contracts/VintingV1.sol\":7072:7095  RenewSession(sessionId) */\n      mload(0x40)\n      tag_309\n      swap2\n      swap1\n      tag_121\n      jump\t// in\n    tag_309:\n      mload(0x40)\n      dup1\n      swap2\n      sub\n      swap1\n      log1\n        /* \"contracts/VintingV1.sol\":6800:7106  if(bestProposals.length == 1) {... */\n    tag_307:\n        /* \"contracts/VintingV1.sol\":5947:7112  {   ... */\n      pop\n      pop\n      pop\n      pop\n      pop\n        /* \"contracts/VintingV1.sol\":5880:7112  function computeMostVotedProposal(uint sessionId) public onlyOwner {   ... */\n      pop\n      jump\t// out\n        /* \"https://github.com/OpenZeppelin/openzeppelin-contracts/blob/master/contracts/access/Ownable.sol\":2543:2758  function transferOwnership(address newOwner) public virtual onlyOwner {... */\n    tag_96:\n        /* \"https://github.com/OpenZeppelin/openzeppelin-contracts/blob/master/contracts/access/Ownable.sol\":1531:1544  _checkOwner() */\n      tag_311\n        /* \"https://github.com/OpenZeppelin/openzeppelin-contracts/blob/master/contracts/access/Ownable.sol\":1531:1542  _checkOwner */\n      tag_99\n        /* \"https://github.com/OpenZeppelin/openzeppelin-contracts/blob/master/contracts/access/Ownable.sol\":1531:1544  _checkOwner() */\n      jump\t// in\n    tag_311:\n        /* \"https://github.com/OpenZeppelin/openzeppelin-contracts/blob/master/contracts/access/Ownable.sol\":2647:2648  0 */\n      0x00\n        /* \"https://github.com/OpenZeppelin/openzeppelin-contracts/blob/master/contracts/access/Ownable.sol\":2627:2649  newOwner == address(0) */\n      0xffffffffffffffffffffffffffffffffffffffff\n      and\n        /* \"https://github.com/OpenZeppelin/openzeppelin-contracts/blob/master/contracts/access/Ownable.sol\":2627:2635  newOwner */\n      dup2\n        /* \"https://github.com/OpenZeppelin/openzeppelin-contracts/blob/master/contracts/access/Ownable.sol\":2627:2649  newOwner == address(0) */\n      0xffffffffffffffffffffffffffffffffffffffff\n      and\n      sub\n        /* \"https://github.com/OpenZeppelin/openzeppelin-contracts/blob/master/contracts/access/Ownable.sol\":2623:2714  if (newOwner == address(0)) {... */\n      tag_313\n      jumpi\n        /* \"https://github.com/OpenZeppelin/openzeppelin-contracts/blob/master/contracts/access/Ownable.sol\":2700:2701  0 */\n      0x00\n        /* \"https://github.com/OpenZeppelin/openzeppelin-contracts/blob/master/contracts/access/Ownable.sol\":2672:2703  OwnableInvalidOwner(address(0)) */\n      mload(0x40)\n      0x1e4fbdf700000000000000000000000000000000000000000000000000000000\n      dup2\n      mstore\n      0x04\n      add\n      tag_314\n      swap2\n      swap1\n      tag_71\n      jump\t// in\n    tag_314:\n      mload(0x40)\n      dup1\n      swap2\n      sub\n      swap1\n      revert\n        /* \"https://github.com/OpenZeppelin/openzeppelin-contracts/blob/master/contracts/access/Ownable.sol\":2623:2714  if (newOwner == address(0)) {... */\n    tag_313:\n        /* \"https://github.com/OpenZeppelin/openzeppelin-contracts/blob/master/contracts/access/Ownable.sol\":2723:2751  _transferOwnership(newOwner) */\n      tag_315\n        /* \"https://github.com/OpenZeppelin/openzeppelin-contracts/blob/master/contracts/access/Ownable.sol\":2742:2750  newOwner */\n      dup2\n        /* \"https://github.com/OpenZeppelin/openzeppelin-contracts/blob/master/contracts/access/Ownable.sol\":2723:2741  _transferOwnership */\n      tag_190\n        /* \"https://github.com/OpenZeppelin/openzeppelin-contracts/blob/master/contracts/access/Ownable.sol\":2723:2751  _transferOwnership(newOwner) */\n      jump\t// in\n    tag_315:\n        /* \"https://github.com/OpenZeppelin/openzeppelin-contracts/blob/master/contracts/access/Ownable.sol\":2543:2758  function transferOwnership(address newOwner) public virtual onlyOwner {... */\n      pop\n      jump\t// out\n        /* \"https://github.com/OpenZeppelin/openzeppelin-contracts/blob/master/contracts/access/Ownable.sol\":1796:1958  function _checkOwner() internal view virtual {... */\n    tag_99:\n        /* \"https://github.com/OpenZeppelin/openzeppelin-contracts/blob/master/contracts/access/Ownable.sol\":1866:1878  _msgSender() */\n      tag_317\n        /* \"https://github.com/OpenZeppelin/openzeppelin-contracts/blob/master/contracts/access/Ownable.sol\":1866:1876  _msgSender */\n      tag_318\n        /* \"https://github.com/OpenZeppelin/openzeppelin-contracts/blob/master/contracts/access/Ownable.sol\":1866:1878  _msgSender() */\n      jump\t// in\n    tag_317:\n        /* \"https://github.com/OpenZeppelin/openzeppelin-contracts/blob/master/contracts/access/Ownable.sol\":1855:1878  owner() != _msgSender() */\n      0xffffffffffffffffffffffffffffffffffffffff\n      and\n        /* \"https://github.com/OpenZeppelin/openzeppelin-contracts/blob/master/contracts/access/Ownable.sol\":1855:1862  owner() */\n      tag_319\n        /* \"https://github.com/OpenZeppelin/openzeppelin-contracts/blob/master/contracts/access/Ownable.sol\":1855:1860  owner */\n      tag_69\n        /* \"https://github.com/OpenZeppelin/openzeppelin-contracts/blob/master/contracts/access/Ownable.sol\":1855:1862  owner() */\n      jump\t// in\n    tag_319:\n        /* \"https://github.com/OpenZeppelin/openzeppelin-contracts/blob/master/contracts/access/Ownable.sol\":1855:1878  owner() != _msgSender() */\n      0xffffffffffffffffffffffffffffffffffffffff\n      and\n      eq\n        /* \"https://github.com/OpenZeppelin/openzeppelin-contracts/blob/master/contracts/access/Ownable.sol\":1851:1952  if (owner() != _msgSender()) {... */\n      tag_320\n      jumpi\n        /* \"https://github.com/OpenZeppelin/openzeppelin-contracts/blob/master/contracts/access/Ownable.sol\":1928:1940  _msgSender() */\n      tag_321\n        /* \"https://github.com/OpenZeppelin/openzeppelin-contracts/blob/master/contracts/access/Ownable.sol\":1928:1938  _msgSender */\n      tag_318\n        /* \"https://github.com/OpenZeppelin/openzeppelin-contracts/blob/master/contracts/access/Ownable.sol\":1928:1940  _msgSender() */\n      jump\t// in\n    tag_321:\n        /* \"https://github.com/OpenZeppelin/openzeppelin-contracts/blob/master/contracts/access/Ownable.sol\":1901:1941  OwnableUnauthorizedAccount(_msgSender()) */\n      mload(0x40)\n      0x118cdaa700000000000000000000000000000000000000000000000000000000\n      dup2\n      mstore\n      0x04\n      add\n      tag_322\n      swap2\n      swap1\n      tag_71\n      jump\t// in\n    tag_322:\n      mload(0x40)\n      dup1\n      swap2\n      sub\n      swap1\n      revert\n        /* \"https://github.com/OpenZeppelin/openzeppelin-contracts/blob/master/contracts/access/Ownable.sol\":1851:1952  if (owner() != _msgSender()) {... */\n    tag_320:\n        /* \"https://github.com/OpenZeppelin/openzeppelin-contracts/blob/master/contracts/access/Ownable.sol\":1796:1958  function _checkOwner() internal view virtual {... */\n      jump\t// out\n        /* \"https://github.com/OpenZeppelin/openzeppelin-contracts/blob/master/contracts/access/Ownable.sol\":2912:3099  function _transferOwnership(address newOwner) internal virtual {... */\n    tag_190:\n        /* \"https://github.com/OpenZeppelin/openzeppelin-contracts/blob/master/contracts/access/Ownable.sol\":2985:3001  address oldOwner */\n      0x00\n        /* \"https://github.com/OpenZeppelin/openzeppelin-contracts/blob/master/contracts/access/Ownable.sol\":3004:3010  _owner */\n      0x00\n      0x00\n      swap1\n      sload\n      swap1\n      0x0100\n      exp\n      swap1\n      div\n      0xffffffffffffffffffffffffffffffffffffffff\n      and\n        /* \"https://github.com/OpenZeppelin/openzeppelin-contracts/blob/master/contracts/access/Ownable.sol\":2985:3010  address oldOwner = _owner */\n      swap1\n      pop\n        /* \"https://github.com/OpenZeppelin/openzeppelin-contracts/blob/master/contracts/access/Ownable.sol\":3029:3037  newOwner */\n      dup2\n        /* \"https://github.com/OpenZeppelin/openzeppelin-contracts/blob/master/contracts/access/Ownable.sol\":3020:3026  _owner */\n      0x00\n      0x00\n        /* \"https://github.com/OpenZeppelin/openzeppelin-contracts/blob/master/contracts/access/Ownable.sol\":3020:3037  _owner = newOwner */\n      0x0100\n      exp\n      dup2\n      sload\n      dup2\n      0xffffffffffffffffffffffffffffffffffffffff\n      mul\n      not\n      and\n      swap1\n      dup4\n      0xffffffffffffffffffffffffffffffffffffffff\n      and\n      mul\n      or\n      swap1\n      sstore\n      pop\n        /* \"https://github.com/OpenZeppelin/openzeppelin-contracts/blob/master/contracts/access/Ownable.sol\":3083:3091  newOwner */\n      dup2\n        /* \"https://github.com/OpenZeppelin/openzeppelin-contracts/blob/master/contracts/access/Ownable.sol\":3052:3092  OwnershipTransferred(oldOwner, newOwner) */\n      0xffffffffffffffffffffffffffffffffffffffff\n      and\n        /* \"https://github.com/OpenZeppelin/openzeppelin-contracts/blob/master/contracts/access/Ownable.sol\":3073:3081  oldOwner */\n      dup2\n        /* \"https://github.com/OpenZeppelin/openzeppelin-contracts/blob/master/contracts/access/Ownable.sol\":3052:3092  OwnershipTransferred(oldOwner, newOwner) */\n      0xffffffffffffffffffffffffffffffffffffffff\n      and\n      0x8be0079c531659141344cd1fd0a4f28419497f9722a3daafe3b4186f6b6457e0\n      mload(0x40)\n      mload(0x40)\n      dup1\n      swap2\n      sub\n      swap1\n      log3\n        /* \"https://github.com/OpenZeppelin/openzeppelin-contracts/blob/master/contracts/access/Ownable.sol\":2975:3099  {... */\n      pop\n        /* \"https://github.com/OpenZeppelin/openzeppelin-contracts/blob/master/contracts/access/Ownable.sol\":2912:3099  function _transferOwnership(address newOwner) internal virtual {... */\n      pop\n      jump\t// out\n        /* \"https://github.com/OpenZeppelin/openzeppelin-contracts/blob/master/contracts/utils/Context.sol\":656:752  function _msgSender() internal view virtual returns (address) {... */\n    tag_318:\n        /* \"https://github.com/OpenZeppelin/openzeppelin-contracts/blob/master/contracts/utils/Context.sol\":709:716  address */\n      0x00\n        /* \"https://github.com/OpenZeppelin/openzeppelin-contracts/blob/master/contracts/utils/Context.sol\":735:745  msg.sender */\n      caller\n        /* \"https://github.com/OpenZeppelin/openzeppelin-contracts/blob/master/contracts/utils/Context.sol\":728:745  return msg.sender */\n      swap1\n      pop\n        /* \"https://github.com/OpenZeppelin/openzeppelin-contracts/blob/master/contracts/utils/Context.sol\":656:752  function _msgSender() internal view virtual returns (address) {... */\n      swap1\n      jump\t// out\n    tag_192:\n      mload(0x40)\n      dup1\n      0x60\n      add\n      0x40\n      mstore\n      dup1\n      0x60\n      dup2\n      mstore\n      0x20\n      add\n      and(0xffffffffffffffffffffffffffffffffffffffff, 0x00)\n      dup2\n      mstore\n      0x20\n      add\n      0x00\n      dup2\n      mstore\n      pop\n      swap1\n      jump\t// out\n        /* \"#utility.yul\":7:82   */\n    tag_325:\n        /* \"#utility.yul\":40:46   */\n      0x00\n        /* \"#utility.yul\":73:75   */\n      0x40\n        /* \"#utility.yul\":67:76   */\n      mload\n        /* \"#utility.yul\":57:76   */\n      swap1\n      pop\n        /* \"#utility.yul\":7:82   */\n      swap1\n      jump\t// out\n        /* \"#utility.yul\":88:205   */\n    tag_326:\n        /* \"#utility.yul\":197:198   */\n      0x00\n        /* \"#utility.yul\":194:195   */\n      0x00\n        /* \"#utility.yul\":187:199   */\n      revert\n        /* \"#utility.yul\":211:328   */\n    tag_327:\n        /* \"#utility.yul\":320:321   */\n      0x00\n        /* \"#utility.yul\":317:318   */\n      0x00\n        /* \"#utility.yul\":310:322   */\n      revert\n        /* \"#utility.yul\":334:460   */\n    tag_328:\n        /* \"#utility.yul\":371:378   */\n      0x00\n        /* \"#utility.yul\":411:453   */\n      0xffffffffffffffffffffffffffffffffffffffff\n        /* \"#utility.yul\":404:409   */\n      dup3\n        /* \"#utility.yul\":400:454   */\n      and\n        /* \"#utility.yul\":389:454   */\n      swap1\n      pop\n        /* \"#utility.yul\":334:460   */\n      swap2\n      swap1\n      pop\n      jump\t// out\n        /* \"#utility.yul\":466:562   */\n    tag_329:\n        /* \"#utility.yul\":503:510   */\n      0x00\n        /* \"#utility.yul\":532:556   */\n      tag_421\n        /* \"#utility.yul\":550:555   */\n      dup3\n        /* \"#utility.yul\":532:556   */\n      tag_328\n      jump\t// in\n    tag_421:\n        /* \"#utility.yul\":521:556   */\n      swap1\n      pop\n        /* \"#utility.yul\":466:562   */\n      swap2\n      swap1\n      pop\n      jump\t// out\n        /* \"#utility.yul\":568:690   */\n    tag_330:\n        /* \"#utility.yul\":641:665   */\n      tag_423\n        /* \"#utility.yul\":659:664   */\n      dup2\n        /* \"#utility.yul\":641:665   */\n      tag_329\n      jump\t// in\n    tag_423:\n        /* \"#utility.yul\":634:639   */\n      dup2\n        /* \"#utility.yul\":631:666   */\n      eq\n        /* \"#utility.yul\":621:684   */\n      tag_424\n      jumpi\n        /* \"#utility.yul\":680:681   */\n      0x00\n        /* \"#utility.yul\":677:678   */\n      0x00\n        /* \"#utility.yul\":670:682   */\n      revert\n        /* \"#utility.yul\":621:684   */\n    tag_424:\n        /* \"#utility.yul\":568:690   */\n      pop\n      jump\t// out\n        /* \"#utility.yul\":696:835   */\n    tag_331:\n        /* \"#utility.yul\":742:747   */\n      0x00\n        /* \"#utility.yul\":780:786   */\n      dup2\n        /* \"#utility.yul\":767:787   */\n      calldataload\n        /* \"#utility.yul\":758:787   */\n      swap1\n      pop\n        /* \"#utility.yul\":796:829   */\n      tag_426\n        /* \"#utility.yul\":823:828   */\n      dup2\n        /* \"#utility.yul\":796:829   */\n      tag_330\n      jump\t// in\n    tag_426:\n        /* \"#utility.yul\":696:835   */\n      swap3\n      swap2\n      pop\n      pop\n      jump\t// out\n        /* \"#utility.yul\":841:931   */\n    tag_332:\n        /* \"#utility.yul\":875:882   */\n      0x00\n        /* \"#utility.yul\":918:923   */\n      dup2\n        /* \"#utility.yul\":911:924   */\n      iszero\n        /* \"#utility.yul\":904:925   */\n      iszero\n        /* \"#utility.yul\":893:925   */\n      swap1\n      pop\n        /* \"#utility.yul\":841:931   */\n      swap2\n      swap1\n      pop\n      jump\t// out\n        /* \"#utility.yul\":937:1053   */\n    tag_333:\n        /* \"#utility.yul\":1007:1028   */\n      tag_429\n        /* \"#utility.yul\":1022:1027   */\n      dup2\n        /* \"#utility.yul\":1007:1028   */\n      tag_332\n      jump\t// in\n    tag_429:\n        /* \"#utility.yul\":1000:1005   */\n      dup2\n        /* \"#utility.yul\":997:1029   */\n      eq\n        /* \"#utility.yul\":987:1047   */\n      tag_430\n      jumpi\n        /* \"#utility.yul\":1043:1044   */\n      0x00\n        /* \"#utility.yul\":1040:1041   */\n      0x00\n        /* \"#utility.yul\":1033:1045   */\n      revert\n        /* \"#utility.yul\":987:1047   */\n    tag_430:\n        /* \"#utility.yul\":937:1053   */\n      pop\n      jump\t// out\n        /* \"#utility.yul\":1059:1192   */\n    tag_334:\n        /* \"#utility.yul\":1102:1107   */\n      0x00\n        /* \"#utility.yul\":1140:1146   */\n      dup2\n        /* \"#utility.yul\":1127:1147   */\n      calldataload\n        /* \"#utility.yul\":1118:1147   */\n      swap1\n      pop\n        /* \"#utility.yul\":1156:1186   */\n      tag_432\n        /* \"#utility.yul\":1180:1185   */\n      dup2\n        /* \"#utility.yul\":1156:1186   */\n      tag_333\n      jump\t// in\n    tag_432:\n        /* \"#utility.yul\":1059:1192   */\n      swap3\n      swap2\n      pop\n      pop\n      jump\t// out\n        /* \"#utility.yul\":1198:1666   */\n    tag_27:\n        /* \"#utility.yul\":1263:1269   */\n      0x00\n        /* \"#utility.yul\":1271:1277   */\n      0x00\n        /* \"#utility.yul\":1320:1322   */\n      0x40\n        /* \"#utility.yul\":1308:1317   */\n      dup4\n        /* \"#utility.yul\":1299:1306   */\n      dup6\n        /* \"#utility.yul\":1295:1318   */\n      sub\n        /* \"#utility.yul\":1291:1323   */\n      slt\n        /* \"#utility.yul\":1288:1407   */\n      iszero\n      tag_434\n      jumpi\n        /* \"#utility.yul\":1326:1405   */\n      tag_435\n      tag_326\n      jump\t// in\n    tag_435:\n        /* \"#utility.yul\":1288:1407   */\n    tag_434:\n        /* \"#utility.yul\":1446:1447   */\n      0x00\n        /* \"#utility.yul\":1471:1524   */\n      tag_436\n        /* \"#utility.yul\":1516:1523   */\n      dup6\n        /* \"#utility.yul\":1507:1513   */\n      dup3\n        /* \"#utility.yul\":1496:1505   */\n      dup7\n        /* \"#utility.yul\":1492:1514   */\n      add\n        /* \"#utility.yul\":1471:1524   */\n      tag_331\n      jump\t// in\n    tag_436:\n        /* \"#utility.yul\":1461:1524   */\n      swap3\n      pop\n        /* \"#utility.yul\":1417:1534   */\n      pop\n        /* \"#utility.yul\":1573:1575   */\n      0x20\n        /* \"#utility.yul\":1599:1649   */\n      tag_437\n        /* \"#utility.yul\":1641:1648   */\n      dup6\n        /* \"#utility.yul\":1632:1638   */\n      dup3\n        /* \"#utility.yul\":1621:1630   */\n      dup7\n        /* \"#utility.yul\":1617:1639   */\n      add\n        /* \"#utility.yul\":1599:1649   */\n      tag_334\n      jump\t// in\n    tag_437:\n        /* \"#utility.yul\":1589:1649   */\n      swap2\n      pop\n        /* \"#utility.yul\":1544:1659   */\n      pop\n        /* \"#utility.yul\":1198:1666   */\n      swap3\n      pop\n      swap3\n      swap1\n      pop\n      jump\t// out\n        /* \"#utility.yul\":1672:1789   */\n    tag_335:\n        /* \"#utility.yul\":1781:1782   */\n      0x00\n        /* \"#utility.yul\":1778:1779   */\n      0x00\n        /* \"#utility.yul\":1771:1783   */\n      revert\n        /* \"#utility.yul\":1795:1897   */\n    tag_336:\n        /* \"#utility.yul\":1836:1842   */\n      0x00\n        /* \"#utility.yul\":1887:1889   */\n      0x1f\n        /* \"#utility.yul\":1883:1890   */\n      not\n        /* \"#utility.yul\":1878:1880   */\n      0x1f\n        /* \"#utility.yul\":1871:1876   */\n      dup4\n        /* \"#utility.yul\":1867:1881   */\n      add\n        /* \"#utility.yul\":1863:1891   */\n      and\n        /* \"#utility.yul\":1853:1891   */\n      swap1\n      pop\n        /* \"#utility.yul\":1795:1897   */\n      swap2\n      swap1\n      pop\n      jump\t// out\n        /* \"#utility.yul\":1903:2083   */\n    tag_283:\n        /* \"#utility.yul\":1951:2028   */\n      0x4e487b7100000000000000000000000000000000000000000000000000000000\n        /* \"#utility.yul\":1948:1949   */\n      0x00\n        /* \"#utility.yul\":1941:2029   */\n      mstore\n        /* \"#utility.yul\":2048:2052   */\n      0x41\n        /* \"#utility.yul\":2045:2046   */\n      0x04\n        /* \"#utility.yul\":2038:2053   */\n      mstore\n        /* \"#utility.yul\":2072:2076   */\n      0x24\n        /* \"#utility.yul\":2069:2070   */\n      0x00\n        /* \"#utility.yul\":2062:2077   */\n      revert\n        /* \"#utility.yul\":2089:2370   */\n    tag_337:\n        /* \"#utility.yul\":2172:2199   */\n      tag_442\n        /* \"#utility.yul\":2194:2198   */\n      dup3\n        /* \"#utility.yul\":2172:2199   */\n      tag_336\n      jump\t// in\n    tag_442:\n        /* \"#utility.yul\":2164:2170   */\n      dup2\n        /* \"#utility.yul\":2160:2200   */\n      add\n        /* \"#utility.yul\":2302:2308   */\n      dup2\n        /* \"#utility.yul\":2290:2300   */\n      dup2\n        /* \"#utility.yul\":2287:2309   */\n      lt\n        /* \"#utility.yul\":2266:2284   */\n      0xffffffffffffffff\n        /* \"#utility.yul\":2254:2264   */\n      dup3\n        /* \"#utility.yul\":2251:2285   */\n      gt\n        /* \"#utility.yul\":2248:2310   */\n      or\n        /* \"#utility.yul\":2245:2333   */\n      iszero\n      tag_443\n      jumpi\n        /* \"#utility.yul\":2313:2331   */\n      tag_444\n      tag_283\n      jump\t// in\n    tag_444:\n        /* \"#utility.yul\":2245:2333   */\n    tag_443:\n        /* \"#utility.yul\":2353:2363   */\n      dup1\n        /* \"#utility.yul\":2349:2351   */\n      0x40\n        /* \"#utility.yul\":2342:2364   */\n      mstore\n        /* \"#utility.yul\":2132:2370   */\n      pop\n        /* \"#utility.yul\":2089:2370   */\n      pop\n      pop\n      jump\t// out\n        /* \"#utility.yul\":2376:2505   */\n    tag_338:\n        /* \"#utility.yul\":2410:2416   */\n      0x00\n        /* \"#utility.yul\":2437:2457   */\n      tag_446\n      tag_325\n      jump\t// in\n    tag_446:\n        /* \"#utility.yul\":2427:2457   */\n      swap1\n      pop\n        /* \"#utility.yul\":2466:2499   */\n      tag_447\n        /* \"#utility.yul\":2494:2498   */\n      dup3\n        /* \"#utility.yul\":2486:2492   */\n      dup3\n        /* \"#utility.yul\":2466:2499   */\n      tag_337\n      jump\t// in\n    tag_447:\n        /* \"#utility.yul\":2376:2505   */\n      swap2\n      swap1\n      pop\n      jump\t// out\n        /* \"#utility.yul\":2511:2846   */\n    tag_339:\n        /* \"#utility.yul\":2612:2616   */\n      0x00\n        /* \"#utility.yul\":2702:2720   */\n      0xffffffffffffffff\n        /* \"#utility.yul\":2694:2700   */\n      dup3\n        /* \"#utility.yul\":2691:2721   */\n      gt\n        /* \"#utility.yul\":2688:2744   */\n      iszero\n      tag_449\n      jumpi\n        /* \"#utility.yul\":2724:2742   */\n      tag_450\n      tag_283\n      jump\t// in\n    tag_450:\n        /* \"#utility.yul\":2688:2744   */\n    tag_449:\n        /* \"#utility.yul\":2774:2778   */\n      0x20\n        /* \"#utility.yul\":2766:2772   */\n      dup3\n        /* \"#utility.yul\":2762:2779   */\n      mul\n        /* \"#utility.yul\":2754:2779   */\n      swap1\n      pop\n        /* \"#utility.yul\":2834:2838   */\n      0x20\n        /* \"#utility.yul\":2828:2832   */\n      dup2\n        /* \"#utility.yul\":2824:2839   */\n      add\n        /* \"#utility.yul\":2816:2839   */\n      swap1\n      pop\n        /* \"#utility.yul\":2511:2846   */\n      swap2\n      swap1\n      pop\n      jump\t// out\n        /* \"#utility.yul\":2852:2969   */\n    tag_340:\n        /* \"#utility.yul\":2961:2962   */\n      0x00\n        /* \"#utility.yul\":2958:2959   */\n      0x00\n        /* \"#utility.yul\":2951:2963   */\n      revert\n        /* \"#utility.yul\":2975:3092   */\n    tag_341:\n        /* \"#utility.yul\":3084:3085   */\n      0x00\n        /* \"#utility.yul\":3081:3082   */\n      0x00\n        /* \"#utility.yul\":3074:3086   */\n      revert\n        /* \"#utility.yul\":3098:3215   */\n    tag_342:\n        /* \"#utility.yul\":3207:3208   */\n      0x00\n        /* \"#utility.yul\":3204:3205   */\n      0x00\n        /* \"#utility.yul\":3197:3209   */\n      revert\n        /* \"#utility.yul\":3221:3338   */\n    tag_343:\n        /* \"#utility.yul\":3330:3331   */\n      0x00\n        /* \"#utility.yul\":3327:3328   */\n      0x00\n        /* \"#utility.yul\":3320:3332   */\n      revert\n        /* \"#utility.yul\":3344:3652   */\n    tag_344:\n        /* \"#utility.yul\":3406:3410   */\n      0x00\n        /* \"#utility.yul\":3496:3514   */\n      0xffffffffffffffff\n        /* \"#utility.yul\":3488:3494   */\n      dup3\n        /* \"#utility.yul\":3485:3515   */\n      gt\n        /* \"#utility.yul\":3482:3538   */\n      iszero\n      tag_456\n      jumpi\n        /* \"#utility.yul\":3518:3536   */\n      tag_457\n      tag_283\n      jump\t// in\n    tag_457:\n        /* \"#utility.yul\":3482:3538   */\n    tag_456:\n        /* \"#utility.yul\":3556:3585   */\n      tag_458\n        /* \"#utility.yul\":3578:3584   */\n      dup3\n        /* \"#utility.yul\":3556:3585   */\n      tag_336\n      jump\t// in\n    tag_458:\n        /* \"#utility.yul\":3548:3585   */\n      swap1\n      pop\n        /* \"#utility.yul\":3640:3644   */\n      0x20\n        /* \"#utility.yul\":3634:3638   */\n      dup2\n        /* \"#utility.yul\":3630:3645   */\n      add\n        /* \"#utility.yul\":3622:3645   */\n      swap1\n      pop\n        /* \"#utility.yul\":3344:3652   */\n      swap2\n      swap1\n      pop\n      jump\t// out\n        /* \"#utility.yul\":3658:3806   */\n    tag_345:\n        /* \"#utility.yul\":3756:3762   */\n      dup3\n        /* \"#utility.yul\":3751:3754   */\n      dup2\n        /* \"#utility.yul\":3746:3749   */\n      dup4\n        /* \"#utility.yul\":3733:3763   */\n      calldatacopy\n        /* \"#utility.yul\":3797:3798   */\n      0x00\n        /* \"#utility.yul\":3788:3794   */\n      dup4\n        /* \"#utility.yul\":3783:3786   */\n      dup4\n        /* \"#utility.yul\":3779:3795   */\n      add\n        /* \"#utility.yul\":3772:3799   */\n      mstore\n        /* \"#utility.yul\":3658:3806   */\n      pop\n      pop\n      pop\n      jump\t// out\n        /* \"#utility.yul\":3812:4237   */\n    tag_346:\n        /* \"#utility.yul\":3890:3895   */\n      0x00\n        /* \"#utility.yul\":3915:3981   */\n      tag_461\n        /* \"#utility.yul\":3931:3980   */\n      tag_462\n        /* \"#utility.yul\":3973:3979   */\n      dup5\n        /* \"#utility.yul\":3931:3980   */\n      tag_344\n      jump\t// in\n    tag_462:\n        /* \"#utility.yul\":3915:3981   */\n      tag_338\n      jump\t// in\n    tag_461:\n        /* \"#utility.yul\":3906:3981   */\n      swap1\n      pop\n        /* \"#utility.yul\":4004:4010   */\n      dup3\n        /* \"#utility.yul\":3997:4002   */\n      dup2\n        /* \"#utility.yul\":3990:4011   */\n      mstore\n        /* \"#utility.yul\":4042:4046   */\n      0x20\n        /* \"#utility.yul\":4035:4040   */\n      dup2\n        /* \"#utility.yul\":4031:4047   */\n      add\n        /* \"#utility.yul\":4080:4083   */\n      dup5\n        /* \"#utility.yul\":4071:4077   */\n      dup5\n        /* \"#utility.yul\":4066:4069   */\n      dup5\n        /* \"#utility.yul\":4062:4078   */\n      add\n        /* \"#utility.yul\":4059:4084   */\n      gt\n        /* \"#utility.yul\":4056:4168   */\n      iszero\n      tag_463\n      jumpi\n        /* \"#utility.yul\":4087:4166   */\n      tag_464\n      tag_343\n      jump\t// in\n    tag_464:\n        /* \"#utility.yul\":4056:4168   */\n    tag_463:\n        /* \"#utility.yul\":4177:4231   */\n      tag_465\n        /* \"#utility.yul\":4224:4230   */\n      dup5\n        /* \"#utility.yul\":4219:4222   */\n      dup3\n        /* \"#utility.yul\":4214:4217   */\n      dup6\n        /* \"#utility.yul\":4177:4231   */\n      tag_345\n      jump\t// in\n    tag_465:\n        /* \"#utility.yul\":3896:4237   */\n      pop\n        /* \"#utility.yul\":3812:4237   */\n      swap4\n      swap3\n      pop\n      pop\n      pop\n      jump\t// out\n        /* \"#utility.yul\":4257:4597   */\n    tag_347:\n        /* \"#utility.yul\":4313:4318   */\n      0x00\n        /* \"#utility.yul\":4362:4365   */\n      dup3\n        /* \"#utility.yul\":4355:4359   */\n      0x1f\n        /* \"#utility.yul\":4347:4353   */\n      dup4\n        /* \"#utility.yul\":4343:4360   */\n      add\n        /* \"#utility.yul\":4339:4366   */\n      slt\n        /* \"#utility.yul\":4329:4451   */\n      tag_467\n      jumpi\n        /* \"#utility.yul\":4370:4449   */\n      tag_468\n      tag_335\n      jump\t// in\n    tag_468:\n        /* \"#utility.yul\":4329:4451   */\n    tag_467:\n        /* \"#utility.yul\":4487:4493   */\n      dup2\n        /* \"#utility.yul\":4474:4494   */\n      calldataload\n        /* \"#utility.yul\":4512:4591   */\n      tag_469\n        /* \"#utility.yul\":4587:4590   */\n      dup5\n        /* \"#utility.yul\":4579:4585   */\n      dup3\n        /* \"#utility.yul\":4572:4576   */\n      0x20\n        /* \"#utility.yul\":4564:4570   */\n      dup7\n        /* \"#utility.yul\":4560:4577   */\n      add\n        /* \"#utility.yul\":4512:4591   */\n      tag_346\n      jump\t// in\n    tag_469:\n        /* \"#utility.yul\":4503:4591   */\n      swap2\n      pop\n        /* \"#utility.yul\":4319:4597   */\n      pop\n        /* \"#utility.yul\":4257:4597   */\n      swap3\n      swap2\n      pop\n      pop\n      jump\t// out\n        /* \"#utility.yul\":4603:4680   */\n    tag_348:\n        /* \"#utility.yul\":4640:4647   */\n      0x00\n        /* \"#utility.yul\":4669:4674   */\n      dup2\n        /* \"#utility.yul\":4658:4674   */\n      swap1\n      pop\n        /* \"#utility.yul\":4603:4680   */\n      swap2\n      swap1\n      pop\n      jump\t// out\n        /* \"#utility.yul\":4686:4808   */\n    tag_349:\n        /* \"#utility.yul\":4759:4783   */\n      tag_472\n        /* \"#utility.yul\":4777:4782   */\n      dup2\n        /* \"#utility.yul\":4759:4783   */\n      tag_348\n      jump\t// in\n    tag_472:\n        /* \"#utility.yul\":4752:4757   */\n      dup2\n        /* \"#utility.yul\":4749:4784   */\n      eq\n        /* \"#utility.yul\":4739:4802   */\n      tag_473\n      jumpi\n        /* \"#utility.yul\":4798:4799   */\n      0x00\n        /* \"#utility.yul\":4795:4796   */\n      0x00\n        /* \"#utility.yul\":4788:4800   */\n      revert\n        /* \"#utility.yul\":4739:4802   */\n    tag_473:\n        /* \"#utility.yul\":4686:4808   */\n      pop\n      jump\t// out\n        /* \"#utility.yul\":4814:4953   */\n    tag_350:\n        /* \"#utility.yul\":4860:4865   */\n      0x00\n        /* \"#utility.yul\":4898:4904   */\n      dup2\n        /* \"#utility.yul\":4885:4905   */\n      calldataload\n        /* \"#utility.yul\":4876:4905   */\n      swap1\n      pop\n        /* \"#utility.yul\":4914:4947   */\n      tag_475\n        /* \"#utility.yul\":4941:4946   */\n      dup2\n        /* \"#utility.yul\":4914:4947   */\n      tag_349\n      jump\t// in\n    tag_475:\n        /* \"#utility.yul\":4814:4953   */\n      swap3\n      swap2\n      pop\n      pop\n      jump\t// out\n        /* \"#utility.yul\":4989:5910   */\n    tag_351:\n        /* \"#utility.yul\":5062:5067   */\n      0x00\n        /* \"#utility.yul\":5106:5110   */\n      0x60\n        /* \"#utility.yul\":5094:5103   */\n      dup3\n        /* \"#utility.yul\":5089:5092   */\n      dup5\n        /* \"#utility.yul\":5085:5104   */\n      sub\n        /* \"#utility.yul\":5081:5111   */\n      slt\n        /* \"#utility.yul\":5078:5195   */\n      iszero\n      tag_477\n      jumpi\n        /* \"#utility.yul\":5114:5193   */\n      tag_478\n      tag_341\n      jump\t// in\n    tag_478:\n        /* \"#utility.yul\":5078:5195   */\n    tag_477:\n        /* \"#utility.yul\":5213:5234   */\n      tag_479\n        /* \"#utility.yul\":5229:5233   */\n      0x60\n        /* \"#utility.yul\":5213:5234   */\n      tag_338\n      jump\t// in\n    tag_479:\n        /* \"#utility.yul\":5204:5234   */\n      swap1\n      pop\n        /* \"#utility.yul\":5328:5329   */\n      0x00\n        /* \"#utility.yul\":5317:5326   */\n      dup3\n        /* \"#utility.yul\":5313:5330   */\n      add\n        /* \"#utility.yul\":5300:5331   */\n      calldataload\n        /* \"#utility.yul\":5358:5376   */\n      0xffffffffffffffff\n        /* \"#utility.yul\":5350:5356   */\n      dup2\n        /* \"#utility.yul\":5347:5377   */\n      gt\n        /* \"#utility.yul\":5344:5461   */\n      iszero\n      tag_480\n      jumpi\n        /* \"#utility.yul\":5380:5459   */\n      tag_481\n      tag_342\n      jump\t// in\n    tag_481:\n        /* \"#utility.yul\":5344:5461   */\n    tag_480:\n        /* \"#utility.yul\":5500:5559   */\n      tag_482\n        /* \"#utility.yul\":5555:5558   */\n      dup5\n        /* \"#utility.yul\":5546:5552   */\n      dup3\n        /* \"#utility.yul\":5535:5544   */\n      dup6\n        /* \"#utility.yul\":5531:5553   */\n      add\n        /* \"#utility.yul\":5500:5559   */\n      tag_347\n      jump\t// in\n    tag_482:\n        /* \"#utility.yul\":5493:5497   */\n      0x00\n        /* \"#utility.yul\":5486:5491   */\n      dup4\n        /* \"#utility.yul\":5482:5498   */\n      add\n        /* \"#utility.yul\":5475:5560   */\n      mstore\n        /* \"#utility.yul\":5244:5571   */\n      pop\n        /* \"#utility.yul\":5635:5637   */\n      0x20\n        /* \"#utility.yul\":5676:5725   */\n      tag_483\n        /* \"#utility.yul\":5721:5724   */\n      dup5\n        /* \"#utility.yul\":5712:5718   */\n      dup3\n        /* \"#utility.yul\":5701:5710   */\n      dup6\n        /* \"#utility.yul\":5697:5719   */\n      add\n        /* \"#utility.yul\":5676:5725   */\n      tag_331\n      jump\t// in\n    tag_483:\n        /* \"#utility.yul\":5669:5673   */\n      0x20\n        /* \"#utility.yul\":5662:5667   */\n      dup4\n        /* \"#utility.yul\":5658:5674   */\n      add\n        /* \"#utility.yul\":5651:5726   */\n      mstore\n        /* \"#utility.yul\":5581:5737   */\n      pop\n        /* \"#utility.yul\":5801:5803   */\n      0x40\n        /* \"#utility.yul\":5842:5891   */\n      tag_484\n        /* \"#utility.yul\":5887:5890   */\n      dup5\n        /* \"#utility.yul\":5878:5884   */\n      dup3\n        /* \"#utility.yul\":5867:5876   */\n      dup6\n        /* \"#utility.yul\":5863:5885   */\n      add\n        /* \"#utility.yul\":5842:5891   */\n      tag_350\n      jump\t// in\n    tag_484:\n        /* \"#utility.yul\":5835:5839   */\n      0x40\n        /* \"#utility.yul\":5828:5833   */\n      dup4\n        /* \"#utility.yul\":5824:5840   */\n      add\n        /* \"#utility.yul\":5817:5892   */\n      mstore\n        /* \"#utility.yul\":5747:5903   */\n      pop\n        /* \"#utility.yul\":4989:5910   */\n      swap3\n      swap2\n      pop\n      pop\n      jump\t// out\n        /* \"#utility.yul\":5948:6935   */\n    tag_352:\n        /* \"#utility.yul\":6068:6073   */\n      0x00\n        /* \"#utility.yul\":6093:6198   */\n      tag_486\n        /* \"#utility.yul\":6109:6197   */\n      tag_487\n        /* \"#utility.yul\":6190:6196   */\n      dup5\n        /* \"#utility.yul\":6109:6197   */\n      tag_339\n      jump\t// in\n    tag_487:\n        /* \"#utility.yul\":6093:6198   */\n      tag_338\n      jump\t// in\n    tag_486:\n        /* \"#utility.yul\":6084:6198   */\n      swap1\n      pop\n        /* \"#utility.yul\":6218:6223   */\n      dup1\n        /* \"#utility.yul\":6247:6253   */\n      dup4\n        /* \"#utility.yul\":6240:6245   */\n      dup3\n        /* \"#utility.yul\":6233:6254   */\n      mstore\n        /* \"#utility.yul\":6281:6285   */\n      0x20\n        /* \"#utility.yul\":6274:6279   */\n      dup3\n        /* \"#utility.yul\":6270:6286   */\n      add\n        /* \"#utility.yul\":6263:6286   */\n      swap1\n      pop\n        /* \"#utility.yul\":6334:6338   */\n      0x20\n        /* \"#utility.yul\":6326:6332   */\n      dup5\n        /* \"#utility.yul\":6322:6339   */\n      mul\n        /* \"#utility.yul\":6314:6320   */\n      dup4\n        /* \"#utility.yul\":6310:6340   */\n      add\n        /* \"#utility.yul\":6363:6366   */\n      dup6\n        /* \"#utility.yul\":6355:6361   */\n      dup2\n        /* \"#utility.yul\":6352:6367   */\n      gt\n        /* \"#utility.yul\":6349:6471   */\n      iszero\n      tag_488\n      jumpi\n        /* \"#utility.yul\":6382:6461   */\n      tag_489\n      tag_340\n      jump\t// in\n    tag_489:\n        /* \"#utility.yul\":6349:6471   */\n    tag_488:\n        /* \"#utility.yul\":6497:6503   */\n      dup4\n        /* \"#utility.yul\":6480:6929   */\n    tag_490:\n        /* \"#utility.yul\":6514:6520   */\n      dup2\n        /* \"#utility.yul\":6509:6512   */\n      dup2\n        /* \"#utility.yul\":6506:6521   */\n      lt\n        /* \"#utility.yul\":6480:6929   */\n      iszero\n      tag_492\n      jumpi\n        /* \"#utility.yul\":6603:6606   */\n      dup1\n        /* \"#utility.yul\":6590:6607   */\n      calldataload\n        /* \"#utility.yul\":6639:6657   */\n      0xffffffffffffffff\n        /* \"#utility.yul\":6626:6637   */\n      dup2\n        /* \"#utility.yul\":6623:6658   */\n      gt\n        /* \"#utility.yul\":6620:6742   */\n      iszero\n      tag_493\n      jumpi\n        /* \"#utility.yul\":6661:6740   */\n      tag_494\n      tag_335\n      jump\t// in\n    tag_494:\n        /* \"#utility.yul\":6620:6742   */\n    tag_493:\n        /* \"#utility.yul\":6785:6796   */\n      dup1\n        /* \"#utility.yul\":6777:6783   */\n      dup7\n        /* \"#utility.yul\":6773:6797   */\n      add\n        /* \"#utility.yul\":6823:6884   */\n      tag_495\n        /* \"#utility.yul\":6880:6883   */\n      dup10\n        /* \"#utility.yul\":6868:6878   */\n      dup3\n        /* \"#utility.yul\":6823:6884   */\n      tag_351\n      jump\t// in\n    tag_495:\n        /* \"#utility.yul\":6818:6821   */\n      dup6\n        /* \"#utility.yul\":6811:6885   */\n      mstore\n        /* \"#utility.yul\":6914:6918   */\n      0x20\n        /* \"#utility.yul\":6909:6912   */\n      dup6\n        /* \"#utility.yul\":6905:6919   */\n      add\n        /* \"#utility.yul\":6898:6919   */\n      swap5\n      pop\n        /* \"#utility.yul\":6556:6929   */\n      pop\n      pop\n        /* \"#utility.yul\":6540:6544   */\n      0x20\n        /* \"#utility.yul\":6535:6538   */\n      dup2\n        /* \"#utility.yul\":6531:6545   */\n      add\n        /* \"#utility.yul\":6524:6545   */\n      swap1\n      pop\n        /* \"#utility.yul\":6480:6929   */\n      jump(tag_490)\n    tag_492:\n        /* \"#utility.yul\":6484:6505   */\n      pop\n        /* \"#utility.yul\":6074:6935   */\n      pop\n      pop\n        /* \"#utility.yul\":5948:6935   */\n      swap4\n      swap3\n      pop\n      pop\n      pop\n      jump\t// out\n        /* \"#utility.yul\":6973:7391   */\n    tag_353:\n        /* \"#utility.yul\":7068:7073   */\n      0x00\n        /* \"#utility.yul\":7117:7120   */\n      dup3\n        /* \"#utility.yul\":7110:7114   */\n      0x1f\n        /* \"#utility.yul\":7102:7108   */\n      dup4\n        /* \"#utility.yul\":7098:7115   */\n      add\n        /* \"#utility.yul\":7094:7121   */\n      slt\n        /* \"#utility.yul\":7084:7206   */\n      tag_497\n      jumpi\n        /* \"#utility.yul\":7125:7204   */\n      tag_498\n      tag_335\n      jump\t// in\n    tag_498:\n        /* \"#utility.yul\":7084:7206   */\n    tag_497:\n        /* \"#utility.yul\":7242:7248   */\n      dup2\n        /* \"#utility.yul\":7229:7249   */\n      calldataload\n        /* \"#utility.yul\":7267:7385   */\n      tag_499\n        /* \"#utility.yul\":7381:7384   */\n      dup5\n        /* \"#utility.yul\":7373:7379   */\n      dup3\n        /* \"#utility.yul\":7366:7370   */\n      0x20\n        /* \"#utility.yul\":7358:7364   */\n      dup7\n        /* \"#utility.yul\":7354:7371   */\n      add\n        /* \"#utility.yul\":7267:7385   */\n      tag_352\n      jump\t// in\n    tag_499:\n        /* \"#utility.yul\":7258:7385   */\n      swap2\n      pop\n        /* \"#utility.yul\":7074:7391   */\n      pop\n        /* \"#utility.yul\":6973:7391   */\n      swap3\n      swap2\n      pop\n      pop\n      jump\t// out\n        /* \"#utility.yul\":7397:8129   */\n    tag_31:\n        /* \"#utility.yul\":7514:7520   */\n      0x00\n        /* \"#utility.yul\":7522:7528   */\n      0x00\n        /* \"#utility.yul\":7571:7573   */\n      0x40\n        /* \"#utility.yul\":7559:7568   */\n      dup4\n        /* \"#utility.yul\":7550:7557   */\n      dup6\n        /* \"#utility.yul\":7546:7569   */\n      sub\n        /* \"#utility.yul\":7542:7574   */\n      slt\n        /* \"#utility.yul\":7539:7658   */\n      iszero\n      tag_501\n      jumpi\n        /* \"#utility.yul\":7577:7656   */\n      tag_502\n      tag_326\n      jump\t// in\n    tag_502:\n        /* \"#utility.yul\":7539:7658   */\n    tag_501:\n        /* \"#utility.yul\":7725:7726   */\n      0x00\n        /* \"#utility.yul\":7714:7723   */\n      dup4\n        /* \"#utility.yul\":7710:7727   */\n      add\n        /* \"#utility.yul\":7697:7728   */\n      calldataload\n        /* \"#utility.yul\":7755:7773   */\n      0xffffffffffffffff\n        /* \"#utility.yul\":7747:7753   */\n      dup2\n        /* \"#utility.yul\":7744:7774   */\n      gt\n        /* \"#utility.yul\":7741:7858   */\n      iszero\n      tag_503\n      jumpi\n        /* \"#utility.yul\":7777:7856   */\n      tag_504\n      tag_327\n      jump\t// in\n    tag_504:\n        /* \"#utility.yul\":7741:7858   */\n    tag_503:\n        /* \"#utility.yul\":7882:7984   */\n      tag_505\n        /* \"#utility.yul\":7976:7983   */\n      dup6\n        /* \"#utility.yul\":7967:7973   */\n      dup3\n        /* \"#utility.yul\":7956:7965   */\n      dup7\n        /* \"#utility.yul\":7952:7974   */\n      add\n        /* \"#utility.yul\":7882:7984   */\n      tag_353\n      jump\t// in\n    tag_505:\n        /* \"#utility.yul\":7872:7984   */\n      swap3\n      pop\n        /* \"#utility.yul\":7668:7994   */\n      pop\n        /* \"#utility.yul\":8033:8035   */\n      0x20\n        /* \"#utility.yul\":8059:8112   */\n      tag_506\n        /* \"#utility.yul\":8104:8111   */\n      dup6\n        /* \"#utility.yul\":8095:8101   */\n      dup3\n        /* \"#utility.yul\":8084:8093   */\n      dup7\n        /* \"#utility.yul\":8080:8102   */\n      add\n        /* \"#utility.yul\":8059:8112   */\n      tag_350\n      jump\t// in\n    tag_506:\n        /* \"#utility.yul\":8049:8112   */\n      swap2\n      pop\n        /* \"#utility.yul\":8004:8122   */\n      pop\n        /* \"#utility.yul\":7397:8129   */\n      swap3\n      pop\n      swap3\n      swap1\n      pop\n      jump\t// out\n        /* \"#utility.yul\":8135:8609   */\n    tag_37:\n        /* \"#utility.yul\":8203:8209   */\n      0x00\n        /* \"#utility.yul\":8211:8217   */\n      0x00\n        /* \"#utility.yul\":8260:8262   */\n      0x40\n        /* \"#utility.yul\":8248:8257   */\n      dup4\n        /* \"#utility.yul\":8239:8246   */\n      dup6\n        /* \"#utility.yul\":8235:8258   */\n      sub\n        /* \"#utility.yul\":8231:8263   */\n      slt\n        /* \"#utility.yul\":8228:8347   */\n      iszero\n      tag_508\n      jumpi\n        /* \"#utility.yul\":8266:8345   */\n      tag_509\n      tag_326\n      jump\t// in\n    tag_509:\n        /* \"#utility.yul\":8228:8347   */\n    tag_508:\n        /* \"#utility.yul\":8386:8387   */\n      0x00\n        /* \"#utility.yul\":8411:8464   */\n      tag_510\n        /* \"#utility.yul\":8456:8463   */\n      dup6\n        /* \"#utility.yul\":8447:8453   */\n      dup3\n        /* \"#utility.yul\":8436:8445   */\n      dup7\n        /* \"#utility.yul\":8432:8454   */\n      add\n        /* \"#utility.yul\":8411:8464   */\n      tag_350\n      jump\t// in\n    tag_510:\n        /* \"#utility.yul\":8401:8464   */\n      swap3\n      pop\n        /* \"#utility.yul\":8357:8474   */\n      pop\n        /* \"#utility.yul\":8513:8515   */\n      0x20\n        /* \"#utility.yul\":8539:8592   */\n      tag_511\n        /* \"#utility.yul\":8584:8591   */\n      dup6\n        /* \"#utility.yul\":8575:8581   */\n      dup3\n        /* \"#utility.yul\":8564:8573   */\n      dup7\n        /* \"#utility.yul\":8560:8582   */\n      add\n        /* \"#utility.yul\":8539:8592   */\n      tag_350\n      jump\t// in\n    tag_511:\n        /* \"#utility.yul\":8529:8592   */\n      swap2\n      pop\n        /* \"#utility.yul\":8484:8602   */\n      pop\n        /* \"#utility.yul\":8135:8609   */\n      swap3\n      pop\n      swap3\n      swap1\n      pop\n      jump\t// out\n        /* \"#utility.yul\":8615:8944   */\n    tag_41:\n        /* \"#utility.yul\":8674:8680   */\n      0x00\n        /* \"#utility.yul\":8723:8725   */\n      0x20\n        /* \"#utility.yul\":8711:8720   */\n      dup3\n        /* \"#utility.yul\":8702:8709   */\n      dup5\n        /* \"#utility.yul\":8698:8721   */\n      sub\n        /* \"#utility.yul\":8694:8726   */\n      slt\n        /* \"#utility.yul\":8691:8810   */\n      iszero\n      tag_513\n      jumpi\n        /* \"#utility.yul\":8729:8808   */\n      tag_514\n      tag_326\n      jump\t// in\n    tag_514:\n        /* \"#utility.yul\":8691:8810   */\n    tag_513:\n        /* \"#utility.yul\":8849:8850   */\n      0x00\n        /* \"#utility.yul\":8874:8927   */\n      tag_515\n        /* \"#utility.yul\":8919:8926   */\n      dup5\n        /* \"#utility.yul\":8910:8916   */\n      dup3\n        /* \"#utility.yul\":8899:8908   */\n      dup6\n        /* \"#utility.yul\":8895:8917   */\n      add\n        /* \"#utility.yul\":8874:8927   */\n      tag_350\n      jump\t// in\n    tag_515:\n        /* \"#utility.yul\":8864:8927   */\n      swap2\n      pop\n        /* \"#utility.yul\":8820:8937   */\n      pop\n        /* \"#utility.yul\":8615:8944   */\n      swap3\n      swap2\n      pop\n      pop\n      jump\t// out\n        /* \"#utility.yul\":8950:9604   */\n    tag_45:\n        /* \"#utility.yul\":9028:9034   */\n      0x00\n        /* \"#utility.yul\":9036:9042   */\n      0x00\n        /* \"#utility.yul\":9085:9087   */\n      0x40\n        /* \"#utility.yul\":9073:9082   */\n      dup4\n        /* \"#utility.yul\":9064:9071   */\n      dup6\n        /* \"#utility.yul\":9060:9083   */\n      sub\n        /* \"#utility.yul\":9056:9088   */\n      slt\n        /* \"#utility.yul\":9053:9172   */\n      iszero\n      tag_517\n      jumpi\n        /* \"#utility.yul\":9091:9170   */\n      tag_518\n      tag_326\n      jump\t// in\n    tag_518:\n        /* \"#utility.yul\":9053:9172   */\n    tag_517:\n        /* \"#utility.yul\":9211:9212   */\n      0x00\n        /* \"#utility.yul\":9236:9289   */\n      tag_519\n        /* \"#utility.yul\":9281:9288   */\n      dup6\n        /* \"#utility.yul\":9272:9278   */\n      dup3\n        /* \"#utility.yul\":9261:9270   */\n      dup7\n        /* \"#utility.yul\":9257:9279   */\n      add\n        /* \"#utility.yul\":9236:9289   */\n      tag_350\n      jump\t// in\n    tag_519:\n        /* \"#utility.yul\":9226:9289   */\n      swap3\n      pop\n        /* \"#utility.yul\":9182:9299   */\n      pop\n        /* \"#utility.yul\":9366:9368   */\n      0x20\n        /* \"#utility.yul\":9355:9364   */\n      dup4\n        /* \"#utility.yul\":9351:9369   */\n      add\n        /* \"#utility.yul\":9338:9370   */\n      calldataload\n        /* \"#utility.yul\":9397:9415   */\n      0xffffffffffffffff\n        /* \"#utility.yul\":9389:9395   */\n      dup2\n        /* \"#utility.yul\":9386:9416   */\n      gt\n        /* \"#utility.yul\":9383:9500   */\n      iszero\n      tag_520\n      jumpi\n        /* \"#utility.yul\":9419:9498   */\n      tag_521\n      tag_327\n      jump\t// in\n    tag_521:\n        /* \"#utility.yul\":9383:9500   */\n    tag_520:\n        /* \"#utility.yul\":9524:9587   */\n      tag_522\n        /* \"#utility.yul\":9579:9586   */\n      dup6\n        /* \"#utility.yul\":9570:9576   */\n      dup3\n        /* \"#utility.yul\":9559:9568   */\n      dup7\n        /* \"#utility.yul\":9555:9577   */\n      add\n        /* \"#utility.yul\":9524:9587   */\n      tag_347\n      jump\t// in\n    tag_522:\n        /* \"#utility.yul\":9514:9587   */\n      swap2\n      pop\n        /* \"#utility.yul\":9309:9597   */\n      pop\n        /* \"#utility.yul\":8950:9604   */\n      swap3\n      pop\n      swap3\n      swap1\n      pop\n      jump\t// out\n        /* \"#utility.yul\":9610:9939   */\n    tag_49:\n        /* \"#utility.yul\":9669:9675   */\n      0x00\n        /* \"#utility.yul\":9718:9720   */\n      0x20\n        /* \"#utility.yul\":9706:9715   */\n      dup3\n        /* \"#utility.yul\":9697:9704   */\n      dup5\n        /* \"#utility.yul\":9693:9716   */\n      sub\n        /* \"#utility.yul\":9689:9721   */\n      slt\n        /* \"#utility.yul\":9686:9805   */\n      iszero\n      tag_524\n      jumpi\n        /* \"#utility.yul\":9724:9803   */\n      tag_525\n      tag_326\n      jump\t// in\n    tag_525:\n        /* \"#utility.yul\":9686:9805   */\n    tag_524:\n        /* \"#utility.yul\":9844:9845   */\n      0x00\n        /* \"#utility.yul\":9869:9922   */\n      tag_526\n        /* \"#utility.yul\":9914:9921   */\n      dup5\n        /* \"#utility.yul\":9905:9911   */\n      dup3\n        /* \"#utility.yul\":9894:9903   */\n      dup6\n        /* \"#utility.yul\":9890:9912   */\n      add\n        /* \"#utility.yul\":9869:9922   */\n      tag_331\n      jump\t// in\n    tag_526:\n        /* \"#utility.yul\":9859:9922   */\n      swap2\n      pop\n        /* \"#utility.yul\":9815:9932   */\n      pop\n        /* \"#utility.yul\":9610:9939   */\n      swap3\n      swap2\n      pop\n      pop\n      jump\t// out\n        /* \"#utility.yul\":9945:10054   */\n    tag_354:\n        /* \"#utility.yul\":10026:10047   */\n      tag_528\n        /* \"#utility.yul\":10041:10046   */\n      dup2\n        /* \"#utility.yul\":10026:10047   */\n      tag_332\n      jump\t// in\n    tag_528:\n        /* \"#utility.yul\":10021:10024   */\n      dup3\n        /* \"#utility.yul\":10014:10048   */\n      mstore\n        /* \"#utility.yul\":9945:10054   */\n      pop\n      pop\n      jump\t// out\n        /* \"#utility.yul\":10060:10270   */\n    tag_52:\n        /* \"#utility.yul\":10147:10151   */\n      0x00\n        /* \"#utility.yul\":10185:10187   */\n      0x20\n        /* \"#utility.yul\":10174:10183   */\n      dup3\n        /* \"#utility.yul\":10170:10188   */\n      add\n        /* \"#utility.yul\":10162:10188   */\n      swap1\n      pop\n        /* \"#utility.yul\":10198:10263   */\n      tag_530\n        /* \"#utility.yul\":10260:10261   */\n      0x00\n        /* \"#utility.yul\":10249:10258   */\n      dup4\n        /* \"#utility.yul\":10245:10262   */\n      add\n        /* \"#utility.yul\":10236:10242   */\n      dup5\n        /* \"#utility.yul\":10198:10263   */\n      tag_354\n      jump\t// in\n    tag_530:\n        /* \"#utility.yul\":10060:10270   */\n      swap3\n      swap2\n      pop\n      pop\n      jump\t// out\n        /* \"#utility.yul\":10276:10750   */\n    tag_55:\n        /* \"#utility.yul\":10344:10350   */\n      0x00\n        /* \"#utility.yul\":10352:10358   */\n      0x00\n        /* \"#utility.yul\":10401:10403   */\n      0x40\n        /* \"#utility.yul\":10389:10398   */\n      dup4\n        /* \"#utility.yul\":10380:10387   */\n      dup6\n        /* \"#utility.yul\":10376:10399   */\n      sub\n        /* \"#utility.yul\":10372:10404   */\n      slt\n        /* \"#utility.yul\":10369:10488   */\n      iszero\n      tag_532\n      jumpi\n        /* \"#utility.yul\":10407:10486   */\n      tag_533\n      tag_326\n      jump\t// in\n    tag_533:\n        /* \"#utility.yul\":10369:10488   */\n    tag_532:\n        /* \"#utility.yul\":10527:10528   */\n      0x00\n        /* \"#utility.yul\":10552:10605   */\n      tag_534\n        /* \"#utility.yul\":10597:10604   */\n      dup6\n        /* \"#utility.yul\":10588:10594   */\n      dup3\n        /* \"#utility.yul\":10577:10586   */\n      dup7\n        /* \"#utility.yul\":10573:10595   */\n      add\n        /* \"#utility.yul\":10552:10605   */\n      tag_350\n      jump\t// in\n    tag_534:\n        /* \"#utility.yul\":10542:10605   */\n      swap3\n      pop\n        /* \"#utility.yul\":10498:10615   */\n      pop\n        /* \"#utility.yul\":10654:10656   */\n      0x20\n        /* \"#utility.yul\":10680:10733   */\n      tag_535\n        /* \"#utility.yul\":10725:10732   */\n      dup6\n        /* \"#utility.yul\":10716:10722   */\n      dup3\n        /* \"#utility.yul\":10705:10714   */\n      dup7\n        /* \"#utility.yul\":10701:10723   */\n      add\n        /* \"#utility.yul\":10680:10733   */\n      tag_331\n      jump\t// in\n    tag_535:\n        /* \"#utility.yul\":10670:10733   */\n      swap2\n      pop\n        /* \"#utility.yul\":10625:10743   */\n      pop\n        /* \"#utility.yul\":10276:10750   */\n      swap3\n      pop\n      swap3\n      swap1\n      pop\n      jump\t// out\n        /* \"#utility.yul\":10756:10855   */\n    tag_355:\n        /* \"#utility.yul\":10808:10814   */\n      0x00\n        /* \"#utility.yul\":10842:10847   */\n      dup2\n        /* \"#utility.yul\":10836:10848   */\n      mload\n        /* \"#utility.yul\":10826:10848   */\n      swap1\n      pop\n        /* \"#utility.yul\":10756:10855   */\n      swap2\n      swap1\n      pop\n      jump\t// out\n        /* \"#utility.yul\":10861:11020   */\n    tag_356:\n        /* \"#utility.yul\":10935:10946   */\n      0x00\n        /* \"#utility.yul\":10969:10975   */\n      dup3\n        /* \"#utility.yul\":10964:10967   */\n      dup3\n        /* \"#utility.yul\":10957:10976   */\n      mstore\n        /* \"#utility.yul\":11009:11013   */\n      0x20\n        /* \"#utility.yul\":11004:11007   */\n      dup3\n        /* \"#utility.yul\":11000:11014   */\n      add\n        /* \"#utility.yul\":10985:11014   */\n      swap1\n      pop\n        /* \"#utility.yul\":10861:11020   */\n      swap3\n      swap2\n      pop\n      pop\n      jump\t// out\n        /* \"#utility.yul\":11026:11165   */\n    tag_357:\n        /* \"#utility.yul\":11115:11121   */\n      dup3\n        /* \"#utility.yul\":11110:11113   */\n      dup2\n        /* \"#utility.yul\":11105:11108   */\n      dup4\n        /* \"#utility.yul\":11099:11122   */\n      mcopy\n        /* \"#utility.yul\":11156:11157   */\n      0x00\n        /* \"#utility.yul\":11147:11153   */\n      dup4\n        /* \"#utility.yul\":11142:11145   */\n      dup4\n        /* \"#utility.yul\":11138:11154   */\n      add\n        /* \"#utility.yul\":11131:11158   */\n      mstore\n        /* \"#utility.yul\":11026:11165   */\n      pop\n      pop\n      pop\n      jump\t// out\n        /* \"#utility.yul\":11171:11528   */\n    tag_358:\n        /* \"#utility.yul\":11249:11252   */\n      0x00\n        /* \"#utility.yul\":11277:11316   */\n      tag_540\n        /* \"#utility.yul\":11310:11315   */\n      dup3\n        /* \"#utility.yul\":11277:11316   */\n      tag_355\n      jump\t// in\n    tag_540:\n        /* \"#utility.yul\":11332:11393   */\n      tag_541\n        /* \"#utility.yul\":11386:11392   */\n      dup2\n        /* \"#utility.yul\":11381:11384   */\n      dup6\n        /* \"#utility.yul\":11332:11393   */\n      tag_356\n      jump\t// in\n    tag_541:\n        /* \"#utility.yul\":11325:11393   */\n      swap4\n      pop\n        /* \"#utility.yul\":11402:11467   */\n      tag_542\n        /* \"#utility.yul\":11460:11466   */\n      dup2\n        /* \"#utility.yul\":11455:11458   */\n      dup6\n        /* \"#utility.yul\":11448:11452   */\n      0x20\n        /* \"#utility.yul\":11441:11446   */\n      dup7\n        /* \"#utility.yul\":11437:11453   */\n      add\n        /* \"#utility.yul\":11402:11467   */\n      tag_357\n      jump\t// in\n    tag_542:\n        /* \"#utility.yul\":11492:11521   */\n      tag_543\n        /* \"#utility.yul\":11514:11520   */\n      dup2\n        /* \"#utility.yul\":11492:11521   */\n      tag_336\n      jump\t// in\n    tag_543:\n        /* \"#utility.yul\":11487:11490   */\n      dup5\n        /* \"#utility.yul\":11483:11522   */\n      add\n        /* \"#utility.yul\":11476:11522   */\n      swap2\n      pop\n        /* \"#utility.yul\":11253:11528   */\n      pop\n        /* \"#utility.yul\":11171:11528   */\n      swap3\n      swap2\n      pop\n      pop\n      jump\t// out\n        /* \"#utility.yul\":11534:11642   */\n    tag_359:\n        /* \"#utility.yul\":11611:11635   */\n      tag_545\n        /* \"#utility.yul\":11629:11634   */\n      dup2\n        /* \"#utility.yul\":11611:11635   */\n      tag_329\n      jump\t// in\n    tag_545:\n        /* \"#utility.yul\":11606:11609   */\n      dup3\n        /* \"#utility.yul\":11599:11636   */\n      mstore\n        /* \"#utility.yul\":11534:11642   */\n      pop\n      pop\n      jump\t// out\n        /* \"#utility.yul\":11648:11756   */\n    tag_360:\n        /* \"#utility.yul\":11725:11749   */\n      tag_547\n        /* \"#utility.yul\":11743:11748   */\n      dup2\n        /* \"#utility.yul\":11725:11749   */\n      tag_348\n      jump\t// in\n    tag_547:\n        /* \"#utility.yul\":11720:11723   */\n      dup3\n        /* \"#utility.yul\":11713:11750   */\n      mstore\n        /* \"#utility.yul\":11648:11756   */\n      pop\n      pop\n      jump\t// out\n        /* \"#utility.yul\":11818:12613   */\n    tag_361:\n        /* \"#utility.yul\":11935:11938   */\n      0x00\n        /* \"#utility.yul\":11971:11975   */\n      0x60\n        /* \"#utility.yul\":11966:11969   */\n      dup4\n        /* \"#utility.yul\":11962:11976   */\n      add\n        /* \"#utility.yul\":12065:12069   */\n      0x00\n        /* \"#utility.yul\":12058:12063   */\n      dup4\n        /* \"#utility.yul\":12054:12070   */\n      add\n        /* \"#utility.yul\":12048:12071   */\n      mload\n        /* \"#utility.yul\":12118:12121   */\n      dup5\n        /* \"#utility.yul\":12112:12116   */\n      dup3\n        /* \"#utility.yul\":12108:12122   */\n      sub\n        /* \"#utility.yul\":12101:12105   */\n      0x00\n        /* \"#utility.yul\":12096:12099   */\n      dup7\n        /* \"#utility.yul\":12092:12106   */\n      add\n        /* \"#utility.yul\":12085:12123   */\n      mstore\n        /* \"#utility.yul\":12144:12217   */\n      tag_549\n        /* \"#utility.yul\":12212:12216   */\n      dup3\n        /* \"#utility.yul\":12198:12210   */\n      dup3\n        /* \"#utility.yul\":12144:12217   */\n      tag_358\n      jump\t// in\n    tag_549:\n        /* \"#utility.yul\":12136:12217   */\n      swap2\n      pop\n        /* \"#utility.yul\":11986:12228   */\n      pop\n        /* \"#utility.yul\":12315:12319   */\n      0x20\n        /* \"#utility.yul\":12308:12313   */\n      dup4\n        /* \"#utility.yul\":12304:12320   */\n      add\n        /* \"#utility.yul\":12298:12321   */\n      mload\n        /* \"#utility.yul\":12334:12397   */\n      tag_550\n        /* \"#utility.yul\":12391:12395   */\n      0x20\n        /* \"#utility.yul\":12386:12389   */\n      dup7\n        /* \"#utility.yul\":12382:12396   */\n      add\n        /* \"#utility.yul\":12368:12380   */\n      dup3\n        /* \"#utility.yul\":12334:12397   */\n      tag_359\n      jump\t// in\n    tag_550:\n        /* \"#utility.yul\":12238:12407   */\n      pop\n        /* \"#utility.yul\":12494:12498   */\n      0x40\n        /* \"#utility.yul\":12487:12492   */\n      dup4\n        /* \"#utility.yul\":12483:12499   */\n      add\n        /* \"#utility.yul\":12477:12500   */\n      mload\n        /* \"#utility.yul\":12513:12576   */\n      tag_551\n        /* \"#utility.yul\":12570:12574   */\n      0x40\n        /* \"#utility.yul\":12565:12568   */\n      dup7\n        /* \"#utility.yul\":12561:12575   */\n      add\n        /* \"#utility.yul\":12547:12559   */\n      dup3\n        /* \"#utility.yul\":12513:12576   */\n      tag_360\n      jump\t// in\n    tag_551:\n        /* \"#utility.yul\":12417:12586   */\n      pop\n        /* \"#utility.yul\":12603:12607   */\n      dup1\n        /* \"#utility.yul\":12596:12607   */\n      swap2\n      pop\n        /* \"#utility.yul\":11940:12613   */\n      pop\n        /* \"#utility.yul\":11818:12613   */\n      swap3\n      swap2\n      pop\n      pop\n      jump\t// out\n        /* \"#utility.yul\":12619:12988   */\n    tag_64:\n        /* \"#utility.yul\":12760:12764   */\n      0x00\n        /* \"#utility.yul\":12798:12800   */\n      0x20\n        /* \"#utility.yul\":12787:12796   */\n      dup3\n        /* \"#utility.yul\":12783:12801   */\n      add\n        /* \"#utility.yul\":12775:12801   */\n      swap1\n      pop\n        /* \"#utility.yul\":12847:12856   */\n      dup2\n        /* \"#utility.yul\":12841:12845   */\n      dup2\n        /* \"#utility.yul\":12837:12857   */\n      sub\n        /* \"#utility.yul\":12833:12834   */\n      0x00\n        /* \"#utility.yul\":12822:12831   */\n      dup4\n        /* \"#utility.yul\":12818:12835   */\n      add\n        /* \"#utility.yul\":12811:12858   */\n      mstore\n        /* \"#utility.yul\":12875:12981   */\n      tag_553\n        /* \"#utility.yul\":12976:12980   */\n      dup2\n        /* \"#utility.yul\":12967:12973   */\n      dup5\n        /* \"#utility.yul\":12875:12981   */\n      tag_361\n      jump\t// in\n    tag_553:\n        /* \"#utility.yul\":12867:12981   */\n      swap1\n      pop\n        /* \"#utility.yul\":12619:12988   */\n      swap3\n      swap2\n      pop\n      pop\n      jump\t// out\n        /* \"#utility.yul\":12994:13112   */\n    tag_362:\n        /* \"#utility.yul\":13081:13105   */\n      tag_555\n        /* \"#utility.yul\":13099:13104   */\n      dup2\n        /* \"#utility.yul\":13081:13105   */\n      tag_329\n      jump\t// in\n    tag_555:\n        /* \"#utility.yul\":13076:13079   */\n      dup3\n        /* \"#utility.yul\":13069:13106   */\n      mstore\n        /* \"#utility.yul\":12994:13112   */\n      pop\n      pop\n      jump\t// out\n        /* \"#utility.yul\":13118:13340   */\n    tag_71:\n        /* \"#utility.yul\":13211:13215   */\n      0x00\n        /* \"#utility.yul\":13249:13251   */\n      0x20\n        /* \"#utility.yul\":13238:13247   */\n      dup3\n        /* \"#utility.yul\":13234:13252   */\n      add\n        /* \"#utility.yul\":13226:13252   */\n      swap1\n      pop\n        /* \"#utility.yul\":13262:13333   */\n      tag_557\n        /* \"#utility.yul\":13330:13331   */\n      0x00\n        /* \"#utility.yul\":13319:13328   */\n      dup4\n        /* \"#utility.yul\":13315:13332   */\n      add\n        /* \"#utility.yul\":13306:13312   */\n      dup5\n        /* \"#utility.yul\":13262:13333   */\n      tag_362\n      jump\t// in\n    tag_557:\n        /* \"#utility.yul\":13118:13340   */\n      swap3\n      swap2\n      pop\n      pop\n      jump\t// out\n        /* \"#utility.yul\":13346:13484   */\n    tag_363:\n        /* \"#utility.yul\":13437:13443   */\n      0x00\n        /* \"#utility.yul\":13471:13476   */\n      dup2\n        /* \"#utility.yul\":13465:13477   */\n      mload\n        /* \"#utility.yul\":13455:13477   */\n      swap1\n      pop\n        /* \"#utility.yul\":13346:13484   */\n      swap2\n      swap1\n      pop\n      jump\t// out\n        /* \"#utility.yul\":13490:13698   */\n    tag_364:\n        /* \"#utility.yul\":13613:13624   */\n      0x00\n        /* \"#utility.yul\":13647:13653   */\n      dup3\n        /* \"#utility.yul\":13642:13645   */\n      dup3\n        /* \"#utility.yul\":13635:13654   */\n      mstore\n        /* \"#utility.yul\":13687:13691   */\n      0x20\n        /* \"#utility.yul\":13682:13685   */\n      dup3\n        /* \"#utility.yul\":13678:13692   */\n      add\n        /* \"#utility.yul\":13663:13692   */\n      swap1\n      pop\n        /* \"#utility.yul\":13490:13698   */\n      swap3\n      swap2\n      pop\n      pop\n      jump\t// out\n        /* \"#utility.yul\":13704:13860   */\n    tag_365:\n        /* \"#utility.yul\":13795:13799   */\n      0x00\n        /* \"#utility.yul\":13818:13821   */\n      dup2\n        /* \"#utility.yul\":13810:13821   */\n      swap1\n      pop\n        /* \"#utility.yul\":13848:13852   */\n      0x20\n        /* \"#utility.yul\":13843:13846   */\n      dup3\n        /* \"#utility.yul\":13839:13853   */\n      add\n        /* \"#utility.yul\":13831:13853   */\n      swap1\n      pop\n        /* \"#utility.yul\":13704:13860   */\n      swap2\n      swap1\n      pop\n      jump\t// out\n        /* \"#utility.yul\":13922:14707   */\n    tag_366:\n        /* \"#utility.yul\":14029:14032   */\n      0x00\n        /* \"#utility.yul\":14065:14069   */\n      0x60\n        /* \"#utility.yul\":14060:14063   */\n      dup4\n        /* \"#utility.yul\":14056:14070   */\n      add\n        /* \"#utility.yul\":14159:14163   */\n      0x00\n        /* \"#utility.yul\":14152:14157   */\n      dup4\n        /* \"#utility.yul\":14148:14164   */\n      add\n        /* \"#utility.yul\":14142:14165   */\n      mload\n        /* \"#utility.yul\":14212:14215   */\n      dup5\n        /* \"#utility.yul\":14206:14210   */\n      dup3\n        /* \"#utility.yul\":14202:14216   */\n      sub\n        /* \"#utility.yul\":14195:14199   */\n      0x00\n        /* \"#utility.yul\":14190:14193   */\n      dup7\n        /* \"#utility.yul\":14186:14200   */\n      add\n        /* \"#utility.yul\":14179:14217   */\n      mstore\n        /* \"#utility.yul\":14238:14311   */\n      tag_562\n        /* \"#utility.yul\":14306:14310   */\n      dup3\n        /* \"#utility.yul\":14292:14304   */\n      dup3\n        /* \"#utility.yul\":14238:14311   */\n      tag_358\n      jump\t// in\n    tag_562:\n        /* \"#utility.yul\":14230:14311   */\n      swap2\n      pop\n        /* \"#utility.yul\":14080:14322   */\n      pop\n        /* \"#utility.yul\":14409:14413   */\n      0x20\n        /* \"#utility.yul\":14402:14407   */\n      dup4\n        /* \"#utility.yul\":14398:14414   */\n      add\n        /* \"#utility.yul\":14392:14415   */\n      mload\n        /* \"#utility.yul\":14428:14491   */\n      tag_563\n        /* \"#utility.yul\":14485:14489   */\n      0x20\n        /* \"#utility.yul\":14480:14483   */\n      dup7\n        /* \"#utility.yul\":14476:14490   */\n      add\n        /* \"#utility.yul\":14462:14474   */\n      dup3\n        /* \"#utility.yul\":14428:14491   */\n      tag_359\n      jump\t// in\n    tag_563:\n        /* \"#utility.yul\":14332:14501   */\n      pop\n        /* \"#utility.yul\":14588:14592   */\n      0x40\n        /* \"#utility.yul\":14581:14586   */\n      dup4\n        /* \"#utility.yul\":14577:14593   */\n      add\n        /* \"#utility.yul\":14571:14594   */\n      mload\n        /* \"#utility.yul\":14607:14670   */\n      tag_564\n        /* \"#utility.yul\":14664:14668   */\n      0x40\n        /* \"#utility.yul\":14659:14662   */\n      dup7\n        /* \"#utility.yul\":14655:14669   */\n      add\n        /* \"#utility.yul\":14641:14653   */\n      dup3\n        /* \"#utility.yul\":14607:14670   */\n      tag_360\n      jump\t// in\n    tag_564:\n        /* \"#utility.yul\":14511:14680   */\n      pop\n        /* \"#utility.yul\":14697:14701   */\n      dup1\n        /* \"#utility.yul\":14690:14701   */\n      swap2\n      pop\n        /* \"#utility.yul\":14034:14707   */\n      pop\n        /* \"#utility.yul\":13922:14707   */\n      swap3\n      swap2\n      pop\n      pop\n      jump\t// out\n        /* \"#utility.yul\":14713:14965   */\n    tag_367:\n        /* \"#utility.yul\":14830:14840   */\n      0x00\n        /* \"#utility.yul\":14865:14959   */\n      tag_566\n        /* \"#utility.yul\":14955:14958   */\n      dup4\n        /* \"#utility.yul\":14947:14953   */\n      dup4\n        /* \"#utility.yul\":14865:14959   */\n      tag_366\n      jump\t// in\n    tag_566:\n        /* \"#utility.yul\":14851:14959   */\n      swap1\n      pop\n        /* \"#utility.yul\":14713:14965   */\n      swap3\n      swap2\n      pop\n      pop\n      jump\t// out\n        /* \"#utility.yul\":14971:15108   */\n    tag_368:\n        /* \"#utility.yul\":15065:15069   */\n      0x00\n        /* \"#utility.yul\":15097:15101   */\n      0x20\n        /* \"#utility.yul\":15092:15095   */\n      dup3\n        /* \"#utility.yul\":15088:15102   */\n      add\n        /* \"#utility.yul\":15080:15102   */\n      swap1\n      pop\n        /* \"#utility.yul\":14971:15108   */\n      swap2\n      swap1\n      pop\n      jump\t// out\n        /* \"#utility.yul\":15174:16277   */\n    tag_369:\n        /* \"#utility.yul\":15341:15344   */\n      0x00\n        /* \"#utility.yul\":15370:15448   */\n      tag_569\n        /* \"#utility.yul\":15442:15447   */\n      dup3\n        /* \"#utility.yul\":15370:15448   */\n      tag_363\n      jump\t// in\n    tag_569:\n        /* \"#utility.yul\":15464:15574   */\n      tag_570\n        /* \"#utility.yul\":15567:15573   */\n      dup2\n        /* \"#utility.yul\":15562:15565   */\n      dup6\n        /* \"#utility.yul\":15464:15574   */\n      tag_364\n      jump\t// in\n    tag_570:\n        /* \"#utility.yul\":15457:15574   */\n      swap4\n      pop\n        /* \"#utility.yul\":15600:15603   */\n      dup4\n        /* \"#utility.yul\":15645:15649   */\n      0x20\n        /* \"#utility.yul\":15637:15643   */\n      dup3\n        /* \"#utility.yul\":15633:15650   */\n      mul\n        /* \"#utility.yul\":15628:15631   */\n      dup6\n        /* \"#utility.yul\":15624:15651   */\n      add\n        /* \"#utility.yul\":15675:15755   */\n      tag_571\n        /* \"#utility.yul\":15749:15754   */\n      dup6\n        /* \"#utility.yul\":15675:15755   */\n      tag_365\n      jump\t// in\n    tag_571:\n        /* \"#utility.yul\":15778:15785   */\n      dup1\n        /* \"#utility.yul\":15809:15810   */\n      0x00\n        /* \"#utility.yul\":15794:16232   */\n    tag_572:\n        /* \"#utility.yul\":15819:15825   */\n      dup6\n        /* \"#utility.yul\":15816:15817   */\n      dup2\n        /* \"#utility.yul\":15813:15826   */\n      lt\n        /* \"#utility.yul\":15794:16232   */\n      iszero\n      tag_574\n      jumpi\n        /* \"#utility.yul\":15890:15899   */\n      dup5\n        /* \"#utility.yul\":15884:15888   */\n      dup5\n        /* \"#utility.yul\":15880:15900   */\n      sub\n        /* \"#utility.yul\":15875:15878   */\n      dup10\n        /* \"#utility.yul\":15868:15901   */\n      mstore\n        /* \"#utility.yul\":15941:15947   */\n      dup2\n        /* \"#utility.yul\":15935:15948   */\n      mload\n        /* \"#utility.yul\":15969:16081   */\n      tag_575\n        /* \"#utility.yul\":16076:16080   */\n      dup6\n        /* \"#utility.yul\":16061:16074   */\n      dup3\n        /* \"#utility.yul\":15969:16081   */\n      tag_367\n      jump\t// in\n    tag_575:\n        /* \"#utility.yul\":15961:16081   */\n      swap5\n      pop\n        /* \"#utility.yul\":16104:16188   */\n      tag_576\n        /* \"#utility.yul\":16181:16187   */\n      dup4\n        /* \"#utility.yul\":16104:16188   */\n      tag_368\n      jump\t// in\n    tag_576:\n        /* \"#utility.yul\":16094:16188   */\n      swap3\n      pop\n        /* \"#utility.yul\":16217:16221   */\n      0x20\n        /* \"#utility.yul\":16212:16215   */\n      dup11\n        /* \"#utility.yul\":16208:16222   */\n      add\n        /* \"#utility.yul\":16201:16222   */\n      swap10\n      pop\n        /* \"#utility.yul\":15854:16232   */\n      pop\n        /* \"#utility.yul\":15841:15842   */\n      0x01\n        /* \"#utility.yul\":15838:15839   */\n      dup2\n        /* \"#utility.yul\":15834:15843   */\n      add\n        /* \"#utility.yul\":15829:15843   */\n      swap1\n      pop\n        /* \"#utility.yul\":15794:16232   */\n      jump(tag_572)\n    tag_574:\n        /* \"#utility.yul\":15798:15812   */\n      pop\n        /* \"#utility.yul\":16248:16252   */\n      dup3\n        /* \"#utility.yul\":16241:16252   */\n      swap8\n      pop\n        /* \"#utility.yul\":16268:16271   */\n      dup8\n        /* \"#utility.yul\":16261:16271   */\n      swap6\n      pop\n        /* \"#utility.yul\":15346:16277   */\n      pop\n      pop\n      pop\n      pop\n      pop\n        /* \"#utility.yul\":15174:16277   */\n      swap3\n      swap2\n      pop\n      pop\n      jump\t// out\n        /* \"#utility.yul\":16283:16752   */\n    tag_87:\n        /* \"#utility.yul\":16474:16478   */\n      0x00\n        /* \"#utility.yul\":16512:16514   */\n      0x20\n        /* \"#utility.yul\":16501:16510   */\n      dup3\n        /* \"#utility.yul\":16497:16515   */\n      add\n        /* \"#utility.yul\":16489:16515   */\n      swap1\n      pop\n        /* \"#utility.yul\":16561:16570   */\n      dup2\n        /* \"#utility.yul\":16555:16559   */\n      dup2\n        /* \"#utility.yul\":16551:16571   */\n      sub\n        /* \"#utility.yul\":16547:16548   */\n      0x00\n        /* \"#utility.yul\":16536:16545   */\n      dup4\n        /* \"#utility.yul\":16532:16549   */\n      add\n        /* \"#utility.yul\":16525:16572   */\n      mstore\n        /* \"#utility.yul\":16589:16745   */\n      tag_578\n        /* \"#utility.yul\":16740:16744   */\n      dup2\n        /* \"#utility.yul\":16731:16737   */\n      dup5\n        /* \"#utility.yul\":16589:16745   */\n      tag_369\n      jump\t// in\n    tag_578:\n        /* \"#utility.yul\":16581:16745   */\n      swap1\n      pop\n        /* \"#utility.yul\":16283:16752   */\n      swap3\n      swap2\n      pop\n      pop\n      jump\t// out\n        /* \"#utility.yul\":16758:16927   */\n    tag_370:\n        /* \"#utility.yul\":16842:16853   */\n      0x00\n        /* \"#utility.yul\":16876:16882   */\n      dup3\n        /* \"#utility.yul\":16871:16874   */\n      dup3\n        /* \"#utility.yul\":16864:16883   */\n      mstore\n        /* \"#utility.yul\":16916:16920   */\n      0x20\n        /* \"#utility.yul\":16911:16914   */\n      dup3\n        /* \"#utility.yul\":16907:16921   */\n      add\n        /* \"#utility.yul\":16892:16921   */\n      swap1\n      pop\n        /* \"#utility.yul\":16758:16927   */\n      swap3\n      swap2\n      pop\n      pop\n      jump\t// out\n        /* \"#utility.yul\":16933:17106   */\n    tag_371:\n        /* \"#utility.yul\":17073:17098   */\n      0x77686974656c69737420697320757020746f2064617465000000000000000000\n        /* \"#utility.yul\":17069:17070   */\n      0x00\n        /* \"#utility.yul\":17061:17067   */\n      dup3\n        /* \"#utility.yul\":17057:17071   */\n      add\n        /* \"#utility.yul\":17050:17099   */\n      mstore\n        /* \"#utility.yul\":16933:17106   */\n      pop\n      jump\t// out\n        /* \"#utility.yul\":17112:17478   */\n    tag_372:\n        /* \"#utility.yul\":17254:17257   */\n      0x00\n        /* \"#utility.yul\":17275:17342   */\n      tag_582\n        /* \"#utility.yul\":17339:17341   */\n      0x17\n        /* \"#utility.yul\":17334:17337   */\n      dup4\n        /* \"#utility.yul\":17275:17342   */\n      tag_370\n      jump\t// in\n    tag_582:\n        /* \"#utility.yul\":17268:17342   */\n      swap2\n      pop\n        /* \"#utility.yul\":17351:17444   */\n      tag_583\n        /* \"#utility.yul\":17440:17443   */\n      dup3\n        /* \"#utility.yul\":17351:17444   */\n      tag_371\n      jump\t// in\n    tag_583:\n        /* \"#utility.yul\":17469:17471   */\n      0x20\n        /* \"#utility.yul\":17464:17467   */\n      dup3\n        /* \"#utility.yul\":17460:17472   */\n      add\n        /* \"#utility.yul\":17453:17472   */\n      swap1\n      pop\n        /* \"#utility.yul\":17112:17478   */\n      swap2\n      swap1\n      pop\n      jump\t// out\n        /* \"#utility.yul\":17484:17903   */\n    tag_103:\n        /* \"#utility.yul\":17650:17654   */\n      0x00\n        /* \"#utility.yul\":17688:17690   */\n      0x20\n        /* \"#utility.yul\":17677:17686   */\n      dup3\n        /* \"#utility.yul\":17673:17691   */\n      add\n        /* \"#utility.yul\":17665:17691   */\n      swap1\n      pop\n        /* \"#utility.yul\":17737:17746   */\n      dup2\n        /* \"#utility.yul\":17731:17735   */\n      dup2\n        /* \"#utility.yul\":17727:17747   */\n      sub\n        /* \"#utility.yul\":17723:17724   */\n      0x00\n        /* \"#utility.yul\":17712:17721   */\n      dup4\n        /* \"#utility.yul\":17708:17725   */\n      add\n        /* \"#utility.yul\":17701:17748   */\n      mstore\n        /* \"#utility.yul\":17765:17896   */\n      tag_585\n        /* \"#utility.yul\":17891:17895   */\n      dup2\n        /* \"#utility.yul\":17765:17896   */\n      tag_372\n      jump\t// in\n    tag_585:\n        /* \"#utility.yul\":17757:17896   */\n      swap1\n      pop\n        /* \"#utility.yul\":17484:17903   */\n      swap2\n      swap1\n      pop\n      jump\t// out\n        /* \"#utility.yul\":17909:18229   */\n    tag_105:\n        /* \"#utility.yul\":18024:18028   */\n      0x00\n        /* \"#utility.yul\":18062:18064   */\n      0x40\n        /* \"#utility.yul\":18051:18060   */\n      dup3\n        /* \"#utility.yul\":18047:18065   */\n      add\n        /* \"#utility.yul\":18039:18065   */\n      swap1\n      pop\n        /* \"#utility.yul\":18075:18146   */\n      tag_587\n        /* \"#utility.yul\":18143:18144   */\n      0x00\n        /* \"#utility.yul\":18132:18141   */\n      dup4\n        /* \"#utility.yul\":18128:18145   */\n      add\n        /* \"#utility.yul\":18119:18125   */\n      dup6\n        /* \"#utility.yul\":18075:18146   */\n      tag_362\n      jump\t// in\n    tag_587:\n        /* \"#utility.yul\":18156:18222   */\n      tag_588\n        /* \"#utility.yul\":18218:18220   */\n      0x20\n        /* \"#utility.yul\":18207:18216   */\n      dup4\n        /* \"#utility.yul\":18203:18221   */\n      add\n        /* \"#utility.yul\":18194:18200   */\n      dup5\n        /* \"#utility.yul\":18156:18222   */\n      tag_354\n      jump\t// in\n    tag_588:\n        /* \"#utility.yul\":17909:18229   */\n      swap4\n      swap3\n      pop\n      pop\n      pop\n      jump\t// out\n        /* \"#utility.yul\":18235:18415   */\n    tag_373:\n        /* \"#utility.yul\":18283:18360   */\n      0x4e487b7100000000000000000000000000000000000000000000000000000000\n        /* \"#utility.yul\":18280:18281   */\n      0x00\n        /* \"#utility.yul\":18273:18361   */\n      mstore\n        /* \"#utility.yul\":18380:18384   */\n      0x11\n        /* \"#utility.yul\":18377:18378   */\n      0x04\n        /* \"#utility.yul\":18370:18385   */\n      mstore\n        /* \"#utility.yul\":18404:18408   */\n      0x24\n        /* \"#utility.yul\":18401:18402   */\n      0x00\n        /* \"#utility.yul\":18394:18409   */\n      revert\n        /* \"#utility.yul\":18421:18654   */\n    tag_110:\n        /* \"#utility.yul\":18460:18463   */\n      0x00\n        /* \"#utility.yul\":18483:18507   */\n      tag_591\n        /* \"#utility.yul\":18501:18506   */\n      dup3\n        /* \"#utility.yul\":18483:18507   */\n      tag_348\n      jump\t// in\n    tag_591:\n        /* \"#utility.yul\":18474:18507   */\n      swap2\n      pop\n        /* \"#utility.yul\":18529:18595   */\n      0xffffffffffffffffffffffffffffffffffffffffffffffffffffffffffffffff\n        /* \"#utility.yul\":18522:18527   */\n      dup3\n        /* \"#utility.yul\":18519:18596   */\n      sub\n        /* \"#utility.yul\":18516:18619   */\n      tag_592\n      jumpi\n        /* \"#utility.yul\":18599:18617   */\n      tag_593\n      tag_373\n      jump\t// in\n    tag_593:\n        /* \"#utility.yul\":18516:18619   */\n    tag_592:\n        /* \"#utility.yul\":18646:18647   */\n      0x01\n        /* \"#utility.yul\":18639:18644   */\n      dup3\n        /* \"#utility.yul\":18635:18648   */\n      add\n        /* \"#utility.yul\":18628:18648   */\n      swap1\n      pop\n        /* \"#utility.yul\":18421:18654   */\n      swap2\n      swap1\n      pop\n      jump\t// out\n        /* \"#utility.yul\":18660:18840   */\n    tag_116:\n        /* \"#utility.yul\":18708:18785   */\n      0x4e487b7100000000000000000000000000000000000000000000000000000000\n        /* \"#utility.yul\":18705:18706   */\n      0x00\n        /* \"#utility.yul\":18698:18786   */\n      mstore\n        /* \"#utility.yul\":18805:18809   */\n      0x32\n        /* \"#utility.yul\":18802:18803   */\n      0x04\n        /* \"#utility.yul\":18795:18810   */\n      mstore\n        /* \"#utility.yul\":18829:18833   */\n      0x24\n        /* \"#utility.yul\":18826:18827   */\n      0x00\n        /* \"#utility.yul\":18819:18834   */\n      revert\n        /* \"#utility.yul\":18846:19026   */\n    tag_374:\n        /* \"#utility.yul\":18894:18971   */\n      0x4e487b7100000000000000000000000000000000000000000000000000000000\n        /* \"#utility.yul\":18891:18892   */\n      0x00\n        /* \"#utility.yul\":18884:18972   */\n      mstore\n        /* \"#utility.yul\":18991:18995   */\n      0x22\n        /* \"#utility.yul\":18988:18989   */\n      0x04\n        /* \"#utility.yul\":18981:18996   */\n      mstore\n        /* \"#utility.yul\":19015:19019   */\n      0x24\n        /* \"#utility.yul\":19012:19013   */\n      0x00\n        /* \"#utility.yul\":19005:19020   */\n      revert\n        /* \"#utility.yul\":19032:19352   */\n    tag_198:\n        /* \"#utility.yul\":19076:19082   */\n      0x00\n        /* \"#utility.yul\":19113:19114   */\n      0x02\n        /* \"#utility.yul\":19107:19111   */\n      dup3\n        /* \"#utility.yul\":19103:19115   */\n      div\n        /* \"#utility.yul\":19093:19115   */\n      swap1\n      pop\n        /* \"#utility.yul\":19160:19161   */\n      0x01\n        /* \"#utility.yul\":19154:19158   */\n      dup3\n        /* \"#utility.yul\":19150:19162   */\n      and\n        /* \"#utility.yul\":19181:19199   */\n      dup1\n        /* \"#utility.yul\":19171:19252   */\n      tag_597\n      jumpi\n        /* \"#utility.yul\":19237:19241   */\n      0x7f\n        /* \"#utility.yul\":19229:19235   */\n      dup3\n        /* \"#utility.yul\":19225:19242   */\n      and\n        /* \"#utility.yul\":19215:19242   */\n      swap2\n      pop\n        /* \"#utility.yul\":19171:19252   */\n    tag_597:\n        /* \"#utility.yul\":19299:19301   */\n      0x20\n        /* \"#utility.yul\":19291:19297   */\n      dup3\n        /* \"#utility.yul\":19288:19302   */\n      lt\n        /* \"#utility.yul\":19268:19286   */\n      dup2\n        /* \"#utility.yul\":19265:19303   */\n      sub\n        /* \"#utility.yul\":19262:19346   */\n      tag_598\n      jumpi\n        /* \"#utility.yul\":19318:19336   */\n      tag_599\n      tag_374\n      jump\t// in\n    tag_599:\n        /* \"#utility.yul\":19262:19346   */\n    tag_598:\n        /* \"#utility.yul\":19083:19352   */\n      pop\n        /* \"#utility.yul\":19032:19352   */\n      swap2\n      swap1\n      pop\n      jump\t// out\n        /* \"#utility.yul\":19358:19499   */\n    tag_375:\n        /* \"#utility.yul\":19407:19411   */\n      0x00\n        /* \"#utility.yul\":19430:19433   */\n      dup2\n        /* \"#utility.yul\":19422:19433   */\n      swap1\n      pop\n        /* \"#utility.yul\":19453:19456   */\n      dup2\n        /* \"#utility.yul\":19450:19451   */\n      0x00\n        /* \"#utility.yul\":19443:19457   */\n      mstore\n        /* \"#utility.yul\":19487:19491   */\n      0x20\n        /* \"#utility.yul\":19484:19485   */\n      0x00\n        /* \"#utility.yul\":19474:19492   */\n      keccak256\n        /* \"#utility.yul\":19466:19492   */\n      swap1\n      pop\n        /* \"#utility.yul\":19358:19499   */\n      swap2\n      swap1\n      pop\n      jump\t// out\n        /* \"#utility.yul\":19505:19598   */\n    tag_376:\n        /* \"#utility.yul\":19542:19548   */\n      0x00\n        /* \"#utility.yul\":19589:19591   */\n      0x20\n        /* \"#utility.yul\":19584:19586   */\n      0x1f\n        /* \"#utility.yul\":19577:19582   */\n      dup4\n        /* \"#utility.yul\":19573:19587   */\n      add\n        /* \"#utility.yul\":19569:19592   */\n      div\n        /* \"#utility.yul\":19559:19592   */\n      swap1\n      pop\n        /* \"#utility.yul\":19505:19598   */\n      swap2\n      swap1\n      pop\n      jump\t// out\n        /* \"#utility.yul\":19604:19711   */\n    tag_377:\n        /* \"#utility.yul\":19648:19656   */\n      0x00\n        /* \"#utility.yul\":19698:19703   */\n      dup3\n        /* \"#utility.yul\":19692:19696   */\n      dup3\n        /* \"#utility.yul\":19688:19704   */\n      shl\n        /* \"#utility.yul\":19667:19704   */\n      swap1\n      pop\n        /* \"#utility.yul\":19604:19711   */\n      swap3\n      swap2\n      pop\n      pop\n      jump\t// out\n        /* \"#utility.yul\":19717:20110   */\n    tag_378:\n        /* \"#utility.yul\":19786:19792   */\n      0x00\n        /* \"#utility.yul\":19836:19837   */\n      0x08\n        /* \"#utility.yul\":19824:19834   */\n      dup4\n        /* \"#utility.yul\":19820:19838   */\n      mul\n        /* \"#utility.yul\":19859:19956   */\n      tag_604\n        /* \"#utility.yul\":19889:19955   */\n      0xffffffffffffffffffffffffffffffffffffffffffffffffffffffffffffffff\n        /* \"#utility.yul\":19878:19887   */\n      dup3\n        /* \"#utility.yul\":19859:19956   */\n      tag_377\n      jump\t// in\n    tag_604:\n        /* \"#utility.yul\":19977:20016   */\n      tag_605\n        /* \"#utility.yul\":20007:20015   */\n      dup7\n        /* \"#utility.yul\":19996:20005   */\n      dup4\n        /* \"#utility.yul\":19977:20016   */\n      tag_377\n      jump\t// in\n    tag_605:\n        /* \"#utility.yul\":19965:20016   */\n      swap6\n      pop\n        /* \"#utility.yul\":20049:20053   */\n      dup1\n        /* \"#utility.yul\":20045:20054   */\n      not\n        /* \"#utility.yul\":20038:20043   */\n      dup5\n        /* \"#utility.yul\":20034:20055   */\n      and\n        /* \"#utility.yul\":20025:20055   */\n      swap4\n      pop\n        /* \"#utility.yul\":20098:20102   */\n      dup1\n        /* \"#utility.yul\":20088:20096   */\n      dup7\n        /* \"#utility.yul\":20084:20103   */\n      and\n        /* \"#utility.yul\":20077:20082   */\n      dup5\n        /* \"#utility.yul\":20074:20104   */\n      or\n        /* \"#utility.yul\":20064:20104   */\n      swap3\n      pop\n        /* \"#utility.yul\":19793:20110   */\n      pop\n      pop\n        /* \"#utility.yul\":19717:20110   */\n      swap4\n      swap3\n      pop\n      pop\n      pop\n      jump\t// out\n        /* \"#utility.yul\":20116:20176   */\n    tag_379:\n        /* \"#utility.yul\":20144:20147   */\n      0x00\n        /* \"#utility.yul\":20165:20170   */\n      dup2\n        /* \"#utility.yul\":20158:20170   */\n      swap1\n      pop\n        /* \"#utility.yul\":20116:20176   */\n      swap2\n      swap1\n      pop\n      jump\t// out\n        /* \"#utility.yul\":20182:20324   */\n    tag_380:\n        /* \"#utility.yul\":20232:20241   */\n      0x00\n        /* \"#utility.yul\":20265:20318   */\n      tag_608\n        /* \"#utility.yul\":20283:20317   */\n      tag_609\n        /* \"#utility.yul\":20292:20316   */\n      tag_610\n        /* \"#utility.yul\":20310:20315   */\n      dup5\n        /* \"#utility.yul\":20292:20316   */\n      tag_348\n      jump\t// in\n    tag_610:\n        /* \"#utility.yul\":20283:20317   */\n      tag_379\n      jump\t// in\n    tag_609:\n        /* \"#utility.yul\":20265:20318   */\n      tag_348\n      jump\t// in\n    tag_608:\n        /* \"#utility.yul\":20252:20318   */\n      swap1\n      pop\n        /* \"#utility.yul\":20182:20324   */\n      swap2\n      swap1\n      pop\n      jump\t// out\n        /* \"#utility.yul\":20330:20405   */\n    tag_381:\n        /* \"#utility.yul\":20373:20376   */\n      0x00\n        /* \"#utility.yul\":20394:20399   */\n      dup2\n        /* \"#utility.yul\":20387:20399   */\n      swap1\n      pop\n        /* \"#utility.yul\":20330:20405   */\n      swap2\n      swap1\n      pop\n      jump\t// out\n        /* \"#utility.yul\":20411:20680   */\n    tag_382:\n        /* \"#utility.yul\":20521:20560   */\n      tag_613\n        /* \"#utility.yul\":20552:20559   */\n      dup4\n        /* \"#utility.yul\":20521:20560   */\n      tag_380\n      jump\t// in\n    tag_613:\n        /* \"#utility.yul\":20582:20673   */\n      tag_614\n        /* \"#utility.yul\":20631:20672   */\n      tag_615\n        /* \"#utility.yul\":20655:20671   */\n      dup3\n        /* \"#utility.yul\":20631:20672   */\n      tag_381\n      jump\t// in\n    tag_615:\n        /* \"#utility.yul\":20623:20629   */\n      dup5\n        /* \"#utility.yul\":20616:20620   */\n      dup5\n        /* \"#utility.yul\":20610:20621   */\n      sload\n        /* \"#utility.yul\":20582:20673   */\n      tag_378\n      jump\t// in\n    tag_614:\n        /* \"#utility.yul\":20576:20580   */\n      dup3\n        /* \"#utility.yul\":20569:20674   */\n      sstore\n        /* \"#utility.yul\":20487:20680   */\n      pop\n        /* \"#utility.yul\":20411:20680   */\n      pop\n      pop\n      pop\n      jump\t// out\n        /* \"#utility.yul\":20686:20759   */\n    tag_383:\n        /* \"#utility.yul\":20731:20734   */\n      0x00\n        /* \"#utility.yul\":20752:20753   */\n      0x00\n        /* \"#utility.yul\":20745:20753   */\n      swap1\n      pop\n        /* \"#utility.yul\":20686:20759   */\n      swap1\n      jump\t// out\n        /* \"#utility.yul\":20765:20954   */\n    tag_384:\n        /* \"#utility.yul\":20842:20874   */\n      tag_618\n      tag_383\n      jump\t// in\n    tag_618:\n        /* \"#utility.yul\":20883:20948   */\n      tag_619\n        /* \"#utility.yul\":20941:20947   */\n      dup2\n        /* \"#utility.yul\":20933:20939   */\n      dup5\n        /* \"#utility.yul\":20927:20931   */\n      dup5\n        /* \"#utility.yul\":20883:20948   */\n      tag_382\n      jump\t// in\n    tag_619:\n        /* \"#utility.yul\":20818:20954   */\n      pop\n        /* \"#utility.yul\":20765:20954   */\n      pop\n      pop\n      jump\t// out\n        /* \"#utility.yul\":20960:21146   */\n    tag_385:\n        /* \"#utility.yul\":21020:21140   */\n    tag_621:\n        /* \"#utility.yul\":21037:21040   */\n      dup2\n        /* \"#utility.yul\":21030:21035   */\n      dup2\n        /* \"#utility.yul\":21027:21041   */\n      lt\n        /* \"#utility.yul\":21020:21140   */\n      iszero\n      tag_623\n      jumpi\n        /* \"#utility.yul\":21091:21130   */\n      tag_624\n        /* \"#utility.yul\":21128:21129   */\n      0x00\n        /* \"#utility.yul\":21121:21126   */\n      dup3\n        /* \"#utility.yul\":21091:21130   */\n      tag_384\n      jump\t// in\n    tag_624:\n        /* \"#utility.yul\":21064:21065   */\n      0x01\n        /* \"#utility.yul\":21057:21062   */\n      dup2\n        /* \"#utility.yul\":21053:21066   */\n      add\n        /* \"#utility.yul\":21044:21066   */\n      swap1\n      pop\n        /* \"#utility.yul\":21020:21140   */\n      jump(tag_621)\n    tag_623:\n        /* \"#utility.yul\":20960:21146   */\n      pop\n      pop\n      jump\t// out\n        /* \"#utility.yul\":21152:21695   */\n    tag_386:\n        /* \"#utility.yul\":21253:21255   */\n      0x1f\n        /* \"#utility.yul\":21248:21251   */\n      dup3\n        /* \"#utility.yul\":21245:21256   */\n      gt\n        /* \"#utility.yul\":21242:21688   */\n      iszero\n      tag_626\n      jumpi\n        /* \"#utility.yul\":21287:21325   */\n      tag_627\n        /* \"#utility.yul\":21319:21324   */\n      dup2\n        /* \"#utility.yul\":21287:21325   */\n      tag_375\n      jump\t// in\n    tag_627:\n        /* \"#utility.yul\":21371:21400   */\n      tag_628\n        /* \"#utility.yul\":21389:21399   */\n      dup5\n        /* \"#utility.yul\":21371:21400   */\n      tag_376\n      jump\t// in\n    tag_628:\n        /* \"#utility.yul\":21361:21369   */\n      dup2\n        /* \"#utility.yul\":21357:21401   */\n      add\n        /* \"#utility.yul\":21554:21556   */\n      0x20\n        /* \"#utility.yul\":21542:21552   */\n      dup6\n        /* \"#utility.yul\":21539:21557   */\n      lt\n        /* \"#utility.yul\":21536:21585   */\n      iszero\n      tag_629\n      jumpi\n        /* \"#utility.yul\":21575:21583   */\n      dup2\n        /* \"#utility.yul\":21560:21583   */\n      swap1\n      pop\n        /* \"#utility.yul\":21536:21585   */\n    tag_629:\n        /* \"#utility.yul\":21598:21678   */\n      tag_630\n        /* \"#utility.yul\":21654:21676   */\n      tag_631\n        /* \"#utility.yul\":21672:21675   */\n      dup6\n        /* \"#utility.yul\":21654:21676   */\n      tag_376\n      jump\t// in\n    tag_631:\n        /* \"#utility.yul\":21644:21652   */\n      dup4\n        /* \"#utility.yul\":21640:21677   */\n      add\n        /* \"#utility.yul\":21627:21638   */\n      dup3\n        /* \"#utility.yul\":21598:21678   */\n      tag_385\n      jump\t// in\n    tag_630:\n        /* \"#utility.yul\":21257:21688   */\n      pop\n      pop\n        /* \"#utility.yul\":21242:21688   */\n    tag_626:\n        /* \"#utility.yul\":21152:21695   */\n      pop\n      pop\n      pop\n      jump\t// out\n        /* \"#utility.yul\":21701:21818   */\n    tag_387:\n        /* \"#utility.yul\":21755:21763   */\n      0x00\n        /* \"#utility.yul\":21805:21810   */\n      dup3\n        /* \"#utility.yul\":21799:21803   */\n      dup3\n        /* \"#utility.yul\":21795:21811   */\n      shr\n        /* \"#utility.yul\":21774:21811   */\n      swap1\n      pop\n        /* \"#utility.yul\":21701:21818   */\n      swap3\n      swap2\n      pop\n      pop\n      jump\t// out\n        /* \"#utility.yul\":21824:21993   */\n    tag_388:\n        /* \"#utility.yul\":21868:21874   */\n      0x00\n        /* \"#utility.yul\":21901:21952   */\n      tag_634\n        /* \"#utility.yul\":21949:21950   */\n      0x00\n        /* \"#utility.yul\":21945:21951   */\n      not\n        /* \"#utility.yul\":21937:21942   */\n      dup5\n        /* \"#utility.yul\":21934:21935   */\n      0x08\n        /* \"#utility.yul\":21930:21943   */\n      mul\n        /* \"#utility.yul\":21901:21952   */\n      tag_387\n      jump\t// in\n    tag_634:\n        /* \"#utility.yul\":21897:21953   */\n      not\n        /* \"#utility.yul\":21982:21986   */\n      dup1\n        /* \"#utility.yul\":21976:21980   */\n      dup4\n        /* \"#utility.yul\":21972:21987   */\n      and\n        /* \"#utility.yul\":21962:21987   */\n      swap2\n      pop\n        /* \"#utility.yul\":21875:21993   */\n      pop\n        /* \"#utility.yul\":21824:21993   */\n      swap3\n      swap2\n      pop\n      pop\n      jump\t// out\n        /* \"#utility.yul\":21998:22293   */\n    tag_389:\n        /* \"#utility.yul\":22074:22078   */\n      0x00\n        /* \"#utility.yul\":22220:22249   */\n      tag_636\n        /* \"#utility.yul\":22245:22248   */\n      dup4\n        /* \"#utility.yul\":22239:22243   */\n      dup4\n        /* \"#utility.yul\":22220:22249   */\n      tag_388\n      jump\t// in\n    tag_636:\n        /* \"#utility.yul\":22212:22249   */\n      swap2\n      pop\n        /* \"#utility.yul\":22282:22285   */\n      dup3\n        /* \"#utility.yul\":22279:22280   */\n      0x02\n        /* \"#utility.yul\":22275:22286   */\n      mul\n        /* \"#utility.yul\":22269:22273   */\n      dup3\n        /* \"#utility.yul\":22266:22287   */\n      or\n        /* \"#utility.yul\":22258:22287   */\n      swap1\n      pop\n        /* \"#utility.yul\":21998:22293   */\n      swap3\n      swap2\n      pop\n      pop\n      jump\t// out\n        /* \"#utility.yul\":22298:23693   */\n    tag_119:\n        /* \"#utility.yul\":22415:22452   */\n      tag_638\n        /* \"#utility.yul\":22448:22451   */\n      dup3\n        /* \"#utility.yul\":22415:22452   */\n      tag_355\n      jump\t// in\n    tag_638:\n        /* \"#utility.yul\":22517:22535   */\n      0xffffffffffffffff\n        /* \"#utility.yul\":22509:22515   */\n      dup2\n        /* \"#utility.yul\":22506:22536   */\n      gt\n        /* \"#utility.yul\":22503:22559   */\n      iszero\n      tag_639\n      jumpi\n        /* \"#utility.yul\":22539:22557   */\n      tag_640\n      tag_283\n      jump\t// in\n    tag_640:\n        /* \"#utility.yul\":22503:22559   */\n    tag_639:\n        /* \"#utility.yul\":22583:22621   */\n      tag_641\n        /* \"#utility.yul\":22615:22619   */\n      dup3\n        /* \"#utility.yul\":22609:22620   */\n      sload\n        /* \"#utility.yul\":22583:22621   */\n      tag_198\n      jump\t// in\n    tag_641:\n        /* \"#utility.yul\":22668:22735   */\n      tag_642\n        /* \"#utility.yul\":22728:22734   */\n      dup3\n        /* \"#utility.yul\":22720:22726   */\n      dup3\n        /* \"#utility.yul\":22714:22718   */\n      dup6\n        /* \"#utility.yul\":22668:22735   */\n      tag_386\n      jump\t// in\n    tag_642:\n        /* \"#utility.yul\":22762:22763   */\n      0x00\n        /* \"#utility.yul\":22786:22790   */\n      0x20\n        /* \"#utility.yul\":22773:22790   */\n      swap1\n      pop\n        /* \"#utility.yul\":22818:22820   */\n      0x1f\n        /* \"#utility.yul\":22810:22816   */\n      dup4\n        /* \"#utility.yul\":22807:22821   */\n      gt\n        /* \"#utility.yul\":22835:22836   */\n      0x01\n        /* \"#utility.yul\":22830:23448   */\n      dup2\n      eq\n      tag_644\n      jumpi\n        /* \"#utility.yul\":23492:23493   */\n      0x00\n        /* \"#utility.yul\":23509:23515   */\n      dup5\n        /* \"#utility.yul\":23506:23583   */\n      iszero\n      tag_645\n      jumpi\n        /* \"#utility.yul\":23558:23567   */\n      dup3\n        /* \"#utility.yul\":23553:23556   */\n      dup8\n        /* \"#utility.yul\":23549:23568   */\n      add\n        /* \"#utility.yul\":23543:23569   */\n      mload\n        /* \"#utility.yul\":23534:23569   */\n      swap1\n      pop\n        /* \"#utility.yul\":23506:23583   */\n    tag_645:\n        /* \"#utility.yul\":23609:23676   */\n      tag_646\n        /* \"#utility.yul\":23669:23675   */\n      dup6\n        /* \"#utility.yul\":23662:23667   */\n      dup3\n        /* \"#utility.yul\":23609:23676   */\n      tag_389\n      jump\t// in\n    tag_646:\n        /* \"#utility.yul\":23603:23607   */\n      dup7\n        /* \"#utility.yul\":23596:23677   */\n      sstore\n        /* \"#utility.yul\":23465:23687   */\n      pop\n        /* \"#utility.yul\":22800:23687   */\n      jump(tag_643)\n        /* \"#utility.yul\":22830:23448   */\n    tag_644:\n        /* \"#utility.yul\":22882:22886   */\n      0x1f\n        /* \"#utility.yul\":22878:22887   */\n      not\n        /* \"#utility.yul\":22870:22876   */\n      dup5\n        /* \"#utility.yul\":22866:22888   */\n      and\n        /* \"#utility.yul\":22916:22953   */\n      tag_647\n        /* \"#utility.yul\":22948:22952   */\n      dup7\n        /* \"#utility.yul\":22916:22953   */\n      tag_375\n      jump\t// in\n    tag_647:\n        /* \"#utility.yul\":22975:22976   */\n      0x00\n        /* \"#utility.yul\":22989:23197   */\n    tag_648:\n        /* \"#utility.yul\":23003:23010   */\n      dup3\n        /* \"#utility.yul\":23000:23001   */\n      dup2\n        /* \"#utility.yul\":22997:23011   */\n      lt\n        /* \"#utility.yul\":22989:23197   */\n      iszero\n      tag_650\n      jumpi\n        /* \"#utility.yul\":23082:23091   */\n      dup5\n        /* \"#utility.yul\":23077:23080   */\n      dup10\n        /* \"#utility.yul\":23073:23092   */\n      add\n        /* \"#utility.yul\":23067:23093   */\n      mload\n        /* \"#utility.yul\":23059:23065   */\n      dup3\n        /* \"#utility.yul\":23052:23094   */\n      sstore\n        /* \"#utility.yul\":23133:23134   */\n      0x01\n        /* \"#utility.yul\":23125:23131   */\n      dup3\n        /* \"#utility.yul\":23121:23135   */\n      add\n        /* \"#utility.yul\":23111:23135   */\n      swap2\n      pop\n        /* \"#utility.yul\":23180:23182   */\n      0x20\n        /* \"#utility.yul\":23169:23178   */\n      dup6\n        /* \"#utility.yul\":23165:23183   */\n      add\n        /* \"#utility.yul\":23152:23183   */\n      swap5\n      pop\n        /* \"#utility.yul\":23026:23030   */\n      0x20\n        /* \"#utility.yul\":23023:23024   */\n      dup2\n        /* \"#utility.yul\":23019:23031   */\n      add\n        /* \"#utility.yul\":23014:23031   */\n      swap1\n      pop\n        /* \"#utility.yul\":22989:23197   */\n      jump(tag_648)\n    tag_650:\n        /* \"#utility.yul\":23225:23231   */\n      dup7\n        /* \"#utility.yul\":23216:23223   */\n      dup4\n        /* \"#utility.yul\":23213:23232   */\n      lt\n        /* \"#utility.yul\":23210:23389   */\n      iszero\n      tag_651\n      jumpi\n        /* \"#utility.yul\":23283:23292   */\n      dup5\n        /* \"#utility.yul\":23278:23281   */\n      dup10\n        /* \"#utility.yul\":23274:23293   */\n      add\n        /* \"#utility.yul\":23268:23294   */\n      mload\n        /* \"#utility.yul\":23326:23374   */\n      tag_652\n        /* \"#utility.yul\":23368:23372   */\n      0x1f\n        /* \"#utility.yul\":23360:23366   */\n      dup10\n        /* \"#utility.yul\":23356:23373   */\n      and\n        /* \"#utility.yul\":23345:23354   */\n      dup3\n        /* \"#utility.yul\":23326:23374   */\n      tag_388\n      jump\t// in\n    tag_652:\n        /* \"#utility.yul\":23318:23324   */\n      dup4\n        /* \"#utility.yul\":23311:23375   */\n      sstore\n        /* \"#utility.yul\":23233:23389   */\n      pop\n        /* \"#utility.yul\":23210:23389   */\n    tag_651:\n        /* \"#utility.yul\":23435:23436   */\n      0x01\n        /* \"#utility.yul\":23431:23432   */\n      0x02\n        /* \"#utility.yul\":23423:23429   */\n      dup9\n        /* \"#utility.yul\":23419:23433   */\n      mul\n        /* \"#utility.yul\":23415:23437   */\n      add\n        /* \"#utility.yul\":23409:23413   */\n      dup9\n        /* \"#utility.yul\":23402:23438   */\n      sstore\n        /* \"#utility.yul\":22837:23448   */\n      pop\n      pop\n      pop\n        /* \"#utility.yul\":22800:23687   */\n    tag_643:\n      pop\n        /* \"#utility.yul\":22390:23693   */\n      pop\n      pop\n      pop\n        /* \"#utility.yul\":22298:23693   */\n      pop\n      pop\n      jump\t// out\n        /* \"#utility.yul\":23699:23817   */\n    tag_390:\n        /* \"#utility.yul\":23786:23810   */\n      tag_654\n        /* \"#utility.yul\":23804:23809   */\n      dup2\n        /* \"#utility.yul\":23786:23810   */\n      tag_348\n      jump\t// in\n    tag_654:\n        /* \"#utility.yul\":23781:23784   */\n      dup3\n        /* \"#utility.yul\":23774:23811   */\n      mstore\n        /* \"#utility.yul\":23699:23817   */\n      pop\n      pop\n      jump\t// out\n        /* \"#utility.yul\":23823:24045   */\n    tag_121:\n        /* \"#utility.yul\":23916:23920   */\n      0x00\n        /* \"#utility.yul\":23954:23956   */\n      0x20\n        /* \"#utility.yul\":23943:23952   */\n      dup3\n        /* \"#utility.yul\":23939:23957   */\n      add\n        /* \"#utility.yul\":23931:23957   */\n      swap1\n      pop\n        /* \"#utility.yul\":23967:24038   */\n      tag_656\n        /* \"#utility.yul\":24035:24036   */\n      0x00\n        /* \"#utility.yul\":24024:24033   */\n      dup4\n        /* \"#utility.yul\":24020:24037   */\n      add\n        /* \"#utility.yul\":24011:24017   */\n      dup5\n        /* \"#utility.yul\":23967:24038   */\n      tag_390\n      jump\t// in\n    tag_656:\n        /* \"#utility.yul\":23823:24045   */\n      swap3\n      swap2\n      pop\n      pop\n      jump\t// out\n        /* \"#utility.yul\":24051:24231   */\n    tag_130:\n        /* \"#utility.yul\":24099:24176   */\n      0x4e487b7100000000000000000000000000000000000000000000000000000000\n        /* \"#utility.yul\":24096:24097   */\n      0x00\n        /* \"#utility.yul\":24089:24177   */\n      mstore\n        /* \"#utility.yul\":24196:24200   */\n      0x21\n        /* \"#utility.yul\":24193:24194   */\n      0x04\n        /* \"#utility.yul\":24186:24201   */\n      mstore\n        /* \"#utility.yul\":24220:24224   */\n      0x24\n        /* \"#utility.yul\":24217:24218   */\n      0x00\n        /* \"#utility.yul\":24210:24225   */\n      revert\n        /* \"#utility.yul\":24237:24415   */\n    tag_391:\n        /* \"#utility.yul\":24377:24407   */\n      0x726567697374726174696f6e20646964206e6f74207374617274656400000000\n        /* \"#utility.yul\":24373:24374   */\n      0x00\n        /* \"#utility.yul\":24365:24371   */\n      dup3\n        /* \"#utility.yul\":24361:24375   */\n      add\n        /* \"#utility.yul\":24354:24408   */\n      mstore\n        /* \"#utility.yul\":24237:24415   */\n      pop\n      jump\t// out\n        /* \"#utility.yul\":24421:24787   */\n    tag_392:\n        /* \"#utility.yul\":24563:24566   */\n      0x00\n        /* \"#utility.yul\":24584:24651   */\n      tag_660\n        /* \"#utility.yul\":24648:24650   */\n      0x1c\n        /* \"#utility.yul\":24643:24646   */\n      dup4\n        /* \"#utility.yul\":24584:24651   */\n      tag_370\n      jump\t// in\n    tag_660:\n        /* \"#utility.yul\":24577:24651   */\n      swap2\n      pop\n        /* \"#utility.yul\":24660:24753   */\n      tag_661\n        /* \"#utility.yul\":24749:24752   */\n      dup3\n        /* \"#utility.yul\":24660:24753   */\n      tag_391\n      jump\t// in\n    tag_661:\n        /* \"#utility.yul\":24778:24780   */\n      0x20\n        /* \"#utility.yul\":24773:24776   */\n      dup3\n        /* \"#utility.yul\":24769:24781   */\n      add\n        /* \"#utility.yul\":24762:24781   */\n      swap1\n      pop\n        /* \"#utility.yul\":24421:24787   */\n      swap2\n      swap1\n      pop\n      jump\t// out\n        /* \"#utility.yul\":24793:25212   */\n    tag_135:\n        /* \"#utility.yul\":24959:24963   */\n      0x00\n        /* \"#utility.yul\":24997:24999   */\n      0x20\n        /* \"#utility.yul\":24986:24995   */\n      dup3\n        /* \"#utility.yul\":24982:25000   */\n      add\n        /* \"#utility.yul\":24974:25000   */\n      swap1\n      pop\n        /* \"#utility.yul\":25046:25055   */\n      dup2\n        /* \"#utility.yul\":25040:25044   */\n      dup2\n        /* \"#utility.yul\":25036:25056   */\n      sub\n        /* \"#utility.yul\":25032:25033   */\n      0x00\n        /* \"#utility.yul\":25021:25030   */\n      dup4\n        /* \"#utility.yul\":25017:25034   */\n      add\n        /* \"#utility.yul\":25010:25057   */\n      mstore\n        /* \"#utility.yul\":25074:25205   */\n      tag_663\n        /* \"#utility.yul\":25200:25204   */\n      dup2\n        /* \"#utility.yul\":25074:25205   */\n      tag_392\n      jump\t// in\n    tag_663:\n        /* \"#utility.yul\":25066:25205   */\n      swap1\n      pop\n        /* \"#utility.yul\":24793:25212   */\n      swap2\n      swap1\n      pop\n      jump\t// out\n        /* \"#utility.yul\":25218:25390   */\n    tag_393:\n        /* \"#utility.yul\":25358:25382   */\n      0x596f7520617265206e6f74207265676973746572656400000000000000000000\n        /* \"#utility.yul\":25354:25355   */\n      0x00\n        /* \"#utility.yul\":25346:25352   */\n      dup3\n        /* \"#utility.yul\":25342:25356   */\n      add\n        /* \"#utility.yul\":25335:25383   */\n      mstore\n        /* \"#utility.yul\":25218:25390   */\n      pop\n      jump\t// out\n        /* \"#utility.yul\":25396:25762   */\n    tag_394:\n        /* \"#utility.yul\":25538:25541   */\n      0x00\n        /* \"#utility.yul\":25559:25626   */\n      tag_666\n        /* \"#utility.yul\":25623:25625   */\n      0x16\n        /* \"#utility.yul\":25618:25621   */\n      dup4\n        /* \"#utility.yul\":25559:25626   */\n      tag_370\n      jump\t// in\n    tag_666:\n        /* \"#utility.yul\":25552:25626   */\n      swap2\n      pop\n        /* \"#utility.yul\":25635:25728   */\n      tag_667\n        /* \"#utility.yul\":25724:25727   */\n      dup3\n        /* \"#utility.yul\":25635:25728   */\n      tag_393\n      jump\t// in\n    tag_667:\n        /* \"#utility.yul\":25753:25755   */\n      0x20\n        /* \"#utility.yul\":25748:25751   */\n      dup3\n        /* \"#utility.yul\":25744:25756   */\n      add\n        /* \"#utility.yul\":25737:25756   */\n      swap1\n      pop\n        /* \"#utility.yul\":25396:25762   */\n      swap2\n      swap1\n      pop\n      jump\t// out\n        /* \"#utility.yul\":25768:26187   */\n    tag_138:\n        /* \"#utility.yul\":25934:25938   */\n      0x00\n        /* \"#utility.yul\":25972:25974   */\n      0x20\n        /* \"#utility.yul\":25961:25970   */\n      dup3\n        /* \"#utility.yul\":25957:25975   */\n      add\n        /* \"#utility.yul\":25949:25975   */\n      swap1\n      pop\n        /* \"#utility.yul\":26021:26030   */\n      dup2\n        /* \"#utility.yul\":26015:26019   */\n      dup2\n        /* \"#utility.yul\":26011:26031   */\n      sub\n        /* \"#utility.yul\":26007:26008   */\n      0x00\n        /* \"#utility.yul\":25996:26005   */\n      dup4\n        /* \"#utility.yul\":25992:26009   */\n      add\n        /* \"#utility.yul\":25985:26032   */\n      mstore\n        /* \"#utility.yul\":26049:26180   */\n      tag_669\n        /* \"#utility.yul\":26175:26179   */\n      dup2\n        /* \"#utility.yul\":26049:26180   */\n      tag_394\n      jump\t// in\n    tag_669:\n        /* \"#utility.yul\":26041:26180   */\n      swap1\n      pop\n        /* \"#utility.yul\":25768:26187   */\n      swap2\n      swap1\n      pop\n      jump\t// out\n        /* \"#utility.yul\":26193:26364   */\n    tag_395:\n        /* \"#utility.yul\":26333:26356   */\n      0x596f75206861766520616c726561647920766f74650000000000000000000000\n        /* \"#utility.yul\":26329:26330   */\n      0x00\n        /* \"#utility.yul\":26321:26327   */\n      dup3\n        /* \"#utility.yul\":26317:26331   */\n      add\n        /* \"#utility.yul\":26310:26357   */\n      mstore\n        /* \"#utility.yul\":26193:26364   */\n      pop\n      jump\t// out\n        /* \"#utility.yul\":26370:26736   */\n    tag_396:\n        /* \"#utility.yul\":26512:26515   */\n      0x00\n        /* \"#utility.yul\":26533:26600   */\n      tag_672\n        /* \"#utility.yul\":26597:26599   */\n      0x15\n        /* \"#utility.yul\":26592:26595   */\n      dup4\n        /* \"#utility.yul\":26533:26600   */\n      tag_370\n      jump\t// in\n    tag_672:\n        /* \"#utility.yul\":26526:26600   */\n      swap2\n      pop\n        /* \"#utility.yul\":26609:26702   */\n      tag_673\n        /* \"#utility.yul\":26698:26701   */\n      dup3\n        /* \"#utility.yul\":26609:26702   */\n      tag_395\n      jump\t// in\n    tag_673:\n        /* \"#utility.yul\":26727:26729   */\n      0x20\n        /* \"#utility.yul\":26722:26725   */\n      dup3\n        /* \"#utility.yul\":26718:26730   */\n      add\n        /* \"#utility.yul\":26711:26730   */\n      swap1\n      pop\n        /* \"#utility.yul\":26370:26736   */\n      swap2\n      swap1\n      pop\n      jump\t// out\n        /* \"#utility.yul\":26742:27161   */\n    tag_141:\n        /* \"#utility.yul\":26908:26912   */\n      0x00\n        /* \"#utility.yul\":26946:26948   */\n      0x20\n        /* \"#utility.yul\":26935:26944   */\n      dup3\n        /* \"#utility.yul\":26931:26949   */\n      add\n        /* \"#utility.yul\":26923:26949   */\n      swap1\n      pop\n        /* \"#utility.yul\":26995:27004   */\n      dup2\n        /* \"#utility.yul\":26989:26993   */\n      dup2\n        /* \"#utility.yul\":26985:27005   */\n      sub\n        /* \"#utility.yul\":26981:26982   */\n      0x00\n        /* \"#utility.yul\":26970:26979   */\n      dup4\n        /* \"#utility.yul\":26966:26983   */\n      add\n        /* \"#utility.yul\":26959:27006   */\n      mstore\n        /* \"#utility.yul\":27023:27154   */\n      tag_675\n        /* \"#utility.yul\":27149:27153   */\n      dup2\n        /* \"#utility.yul\":27023:27154   */\n      tag_396\n      jump\t// in\n    tag_675:\n        /* \"#utility.yul\":27015:27154   */\n      swap1\n      pop\n        /* \"#utility.yul\":26742:27161   */\n      swap2\n      swap1\n      pop\n      jump\t// out\n        /* \"#utility.yul\":27167:27609   */\n    tag_148:\n        /* \"#utility.yul\":27316:27320   */\n      0x00\n        /* \"#utility.yul\":27354:27356   */\n      0x60\n        /* \"#utility.yul\":27343:27352   */\n      dup3\n        /* \"#utility.yul\":27339:27357   */\n      add\n        /* \"#utility.yul\":27331:27357   */\n      swap1\n      pop\n        /* \"#utility.yul\":27367:27438   */\n      tag_677\n        /* \"#utility.yul\":27435:27436   */\n      0x00\n        /* \"#utility.yul\":27424:27433   */\n      dup4\n        /* \"#utility.yul\":27420:27437   */\n      add\n        /* \"#utility.yul\":27411:27417   */\n      dup7\n        /* \"#utility.yul\":27367:27438   */\n      tag_390\n      jump\t// in\n    tag_677:\n        /* \"#utility.yul\":27448:27520   */\n      tag_678\n        /* \"#utility.yul\":27516:27518   */\n      0x20\n        /* \"#utility.yul\":27505:27514   */\n      dup4\n        /* \"#utility.yul\":27501:27519   */\n      add\n        /* \"#utility.yul\":27492:27498   */\n      dup6\n        /* \"#utility.yul\":27448:27520   */\n      tag_362\n      jump\t// in\n    tag_678:\n        /* \"#utility.yul\":27530:27602   */\n      tag_679\n        /* \"#utility.yul\":27598:27600   */\n      0x40\n        /* \"#utility.yul\":27587:27596   */\n      dup4\n        /* \"#utility.yul\":27583:27601   */\n      add\n        /* \"#utility.yul\":27574:27580   */\n      dup5\n        /* \"#utility.yul\":27530:27602   */\n      tag_390\n      jump\t// in\n    tag_679:\n        /* \"#utility.yul\":27167:27609   */\n      swap5\n      swap4\n      pop\n      pop\n      pop\n      pop\n      jump\t// out\n        /* \"#utility.yul\":27615:27791   */\n    tag_397:\n        /* \"#utility.yul\":27755:27783   */\n      0x566f74696e672073657373696f6e206e6f742073746172746564000000000000\n        /* \"#utility.yul\":27751:27752   */\n      0x00\n        /* \"#utility.yul\":27743:27749   */\n      dup3\n        /* \"#utility.yul\":27739:27753   */\n      add\n        /* \"#utility.yul\":27732:27784   */\n      mstore\n        /* \"#utility.yul\":27615:27791   */\n      pop\n      jump\t// out\n        /* \"#utility.yul\":27797:28163   */\n    tag_398:\n        /* \"#utility.yul\":27939:27942   */\n      0x00\n        /* \"#utility.yul\":27960:28027   */\n      tag_682\n        /* \"#utility.yul\":28024:28026   */\n      0x1a\n        /* \"#utility.yul\":28019:28022   */\n      dup4\n        /* \"#utility.yul\":27960:28027   */\n      tag_370\n      jump\t// in\n    tag_682:\n        /* \"#utility.yul\":27953:28027   */\n      swap2\n      pop\n        /* \"#utility.yul\":28036:28129   */\n      tag_683\n        /* \"#utility.yul\":28125:28128   */\n      dup3\n        /* \"#utility.yul\":28036:28129   */\n      tag_397\n      jump\t// in\n    tag_683:\n        /* \"#utility.yul\":28154:28156   */\n      0x20\n        /* \"#utility.yul\":28149:28152   */\n      dup3\n        /* \"#utility.yul\":28145:28157   */\n      add\n        /* \"#utility.yul\":28138:28157   */\n      swap1\n      pop\n        /* \"#utility.yul\":27797:28163   */\n      swap2\n      swap1\n      pop\n      jump\t// out\n        /* \"#utility.yul\":28169:28588   */\n    tag_158:\n        /* \"#utility.yul\":28335:28339   */\n      0x00\n        /* \"#utility.yul\":28373:28375   */\n      0x20\n        /* \"#utility.yul\":28362:28371   */\n      dup3\n        /* \"#utility.yul\":28358:28376   */\n      add\n        /* \"#utility.yul\":28350:28376   */\n      swap1\n      pop\n        /* \"#utility.yul\":28422:28431   */\n      dup2\n        /* \"#utility.yul\":28416:28420   */\n      dup2\n        /* \"#utility.yul\":28412:28432   */\n      sub\n        /* \"#utility.yul\":28408:28409   */\n      0x00\n        /* \"#utility.yul\":28397:28406   */\n      dup4\n        /* \"#utility.yul\":28393:28410   */\n      add\n        /* \"#utility.yul\":28386:28433   */\n      mstore\n        /* \"#utility.yul\":28450:28581   */\n      tag_685\n        /* \"#utility.yul\":28576:28580   */\n      dup2\n        /* \"#utility.yul\":28450:28581   */\n      tag_398\n      jump\t// in\n    tag_685:\n        /* \"#utility.yul\":28442:28581   */\n      swap1\n      pop\n        /* \"#utility.yul\":28169:28588   */\n      swap2\n      swap1\n      pop\n      jump\t// out\n        /* \"#utility.yul\":28594:28768   */\n    tag_399:\n        /* \"#utility.yul\":28734:28760   */\n      0x6e6f20766f746573207765726520726567697374657265640000000000000000\n        /* \"#utility.yul\":28730:28731   */\n      0x00\n        /* \"#utility.yul\":28722:28728   */\n      dup3\n        /* \"#utility.yul\":28718:28732   */\n      add\n        /* \"#utility.yul\":28711:28761   */\n      mstore\n        /* \"#utility.yul\":28594:28768   */\n      pop\n      jump\t// out\n        /* \"#utility.yul\":28774:29140   */\n    tag_400:\n        /* \"#utility.yul\":28916:28919   */\n      0x00\n        /* \"#utility.yul\":28937:29004   */\n      tag_688\n        /* \"#utility.yul\":29001:29003   */\n      0x18\n        /* \"#utility.yul\":28996:28999   */\n      dup4\n        /* \"#utility.yul\":28937:29004   */\n      tag_370\n      jump\t// in\n    tag_688:\n        /* \"#utility.yul\":28930:29004   */\n      swap2\n      pop\n        /* \"#utility.yul\":29013:29106   */\n      tag_689\n        /* \"#utility.yul\":29102:29105   */\n      dup3\n        /* \"#utility.yul\":29013:29106   */\n      tag_399\n      jump\t// in\n    tag_689:\n        /* \"#utility.yul\":29131:29133   */\n      0x20\n        /* \"#utility.yul\":29126:29129   */\n      dup3\n        /* \"#utility.yul\":29122:29134   */\n      add\n        /* \"#utility.yul\":29115:29134   */\n      swap1\n      pop\n        /* \"#utility.yul\":28774:29140   */\n      swap2\n      swap1\n      pop\n      jump\t// out\n        /* \"#utility.yul\":29146:29565   */\n    tag_161:\n        /* \"#utility.yul\":29312:29316   */\n      0x00\n        /* \"#utility.yul\":29350:29352   */\n      0x20\n        /* \"#utility.yul\":29339:29348   */\n      dup3\n        /* \"#utility.yul\":29335:29353   */\n      add\n        /* \"#utility.yul\":29327:29353   */\n      swap1\n      pop\n        /* \"#utility.yul\":29399:29408   */\n      dup2\n        /* \"#utility.yul\":29393:29397   */\n      dup2\n        /* \"#utility.yul\":29389:29409   */\n      sub\n        /* \"#utility.yul\":29385:29386   */\n      0x00\n        /* \"#utility.yul\":29374:29383   */\n      dup4\n        /* \"#utility.yul\":29370:29387   */\n      add\n        /* \"#utility.yul\":29363:29410   */\n      mstore\n        /* \"#utility.yul\":29427:29558   */\n      tag_691\n        /* \"#utility.yul\":29553:29557   */\n      dup2\n        /* \"#utility.yul\":29427:29558   */\n      tag_400\n      jump\t// in\n    tag_691:\n        /* \"#utility.yul\":29419:29558   */\n      swap1\n      pop\n        /* \"#utility.yul\":29146:29565   */\n      swap2\n      swap1\n      pop\n      jump\t// out\n        /* \"#utility.yul\":29571:29693   */\n    tag_401:\n        /* \"#utility.yul\":29661:29662   */\n      0x06\n        /* \"#utility.yul\":29654:29659   */\n      dup2\n        /* \"#utility.yul\":29651:29663   */\n      lt\n        /* \"#utility.yul\":29641:29687   */\n      tag_693\n      jumpi\n        /* \"#utility.yul\":29667:29685   */\n      tag_694\n      tag_130\n      jump\t// in\n    tag_694:\n        /* \"#utility.yul\":29641:29687   */\n    tag_693:\n        /* \"#utility.yul\":29571:29693   */\n      pop\n      jump\t// out\n        /* \"#utility.yul\":29699:29844   */\n    tag_402:\n        /* \"#utility.yul\":29753:29760   */\n      0x00\n        /* \"#utility.yul\":29782:29787   */\n      dup2\n        /* \"#utility.yul\":29771:29787   */\n      swap1\n      pop\n        /* \"#utility.yul\":29788:29838   */\n      tag_696\n        /* \"#utility.yul\":29832:29837   */\n      dup3\n        /* \"#utility.yul\":29788:29838   */\n      tag_401\n      jump\t// in\n    tag_696:\n        /* \"#utility.yul\":29699:29844   */\n      swap2\n      swap1\n      pop\n      jump\t// out\n        /* \"#utility.yul\":29850:29995   */\n    tag_403:\n        /* \"#utility.yul\":29915:29924   */\n      0x00\n        /* \"#utility.yul\":29948:29989   */\n      tag_698\n        /* \"#utility.yul\":29983:29988   */\n      dup3\n        /* \"#utility.yul\":29948:29989   */\n      tag_402\n      jump\t// in\n    tag_698:\n        /* \"#utility.yul\":29935:29989   */\n      swap1\n      pop\n        /* \"#utility.yul\":29850:29995   */\n      swap2\n      swap1\n      pop\n      jump\t// out\n        /* \"#utility.yul\":30001:30162   */\n    tag_404:\n        /* \"#utility.yul\":30103:30155   */\n      tag_700\n        /* \"#utility.yul\":30149:30154   */\n      dup2\n        /* \"#utility.yul\":30103:30155   */\n      tag_403\n      jump\t// in\n    tag_700:\n        /* \"#utility.yul\":30098:30101   */\n      dup3\n        /* \"#utility.yul\":30091:30156   */\n      mstore\n        /* \"#utility.yul\":30001:30162   */\n      pop\n      pop\n      jump\t// out\n        /* \"#utility.yul\":30168:30670   */\n    tag_165:\n        /* \"#utility.yul\":30347:30351   */\n      0x00\n        /* \"#utility.yul\":30385:30387   */\n      0x60\n        /* \"#utility.yul\":30374:30383   */\n      dup3\n        /* \"#utility.yul\":30370:30388   */\n      add\n        /* \"#utility.yul\":30362:30388   */\n      swap1\n      pop\n        /* \"#utility.yul\":30398:30469   */\n      tag_702\n        /* \"#utility.yul\":30466:30467   */\n      0x00\n        /* \"#utility.yul\":30455:30464   */\n      dup4\n        /* \"#utility.yul\":30451:30468   */\n      add\n        /* \"#utility.yul\":30442:30448   */\n      dup7\n        /* \"#utility.yul\":30398:30469   */\n      tag_390\n      jump\t// in\n    tag_702:\n        /* \"#utility.yul\":30479:30566   */\n      tag_703\n        /* \"#utility.yul\":30562:30564   */\n      0x20\n        /* \"#utility.yul\":30551:30560   */\n      dup4\n        /* \"#utility.yul\":30547:30565   */\n      add\n        /* \"#utility.yul\":30538:30544   */\n      dup6\n        /* \"#utility.yul\":30479:30566   */\n      tag_404\n      jump\t// in\n    tag_703:\n        /* \"#utility.yul\":30576:30663   */\n      tag_704\n        /* \"#utility.yul\":30659:30661   */\n      0x40\n        /* \"#utility.yul\":30648:30657   */\n      dup4\n        /* \"#utility.yul\":30644:30662   */\n      add\n        /* \"#utility.yul\":30635:30641   */\n      dup5\n        /* \"#utility.yul\":30576:30663   */\n      tag_404\n      jump\t// in\n    tag_704:\n        /* \"#utility.yul\":30168:30670   */\n      swap5\n      swap4\n      pop\n      pop\n      pop\n      pop\n      jump\t// out\n        /* \"#utility.yul\":30676:30903   */\n    tag_405:\n        /* \"#utility.yul\":30816:30850   */\n      0x4465736372697074696f6e20697320746f6f206c6f6e672c206c696d69742035\n        /* \"#utility.yul\":30812:30813   */\n      0x00\n        /* \"#utility.yul\":30804:30810   */\n      dup3\n        /* \"#utility.yul\":30800:30814   */\n      add\n        /* \"#utility.yul\":30793:30851   */\n      mstore\n        /* \"#utility.yul\":30885:30895   */\n      0x3132206279746573000000000000000000000000000000000000000000000000\n        /* \"#utility.yul\":30880:30882   */\n      0x20\n        /* \"#utility.yul\":30872:30878   */\n      dup3\n        /* \"#utility.yul\":30868:30883   */\n      add\n        /* \"#utility.yul\":30861:30896   */\n      mstore\n        /* \"#utility.yul\":30676:30903   */\n      pop\n      jump\t// out\n        /* \"#utility.yul\":30909:31275   */\n    tag_406:\n        /* \"#utility.yul\":31051:31054   */\n      0x00\n        /* \"#utility.yul\":31072:31139   */\n      tag_707\n        /* \"#utility.yul\":31136:31138   */\n      0x28\n        /* \"#utility.yul\":31131:31134   */\n      dup4\n        /* \"#utility.yul\":31072:31139   */\n      tag_370\n      jump\t// in\n    tag_707:\n        /* \"#utility.yul\":31065:31139   */\n      swap2\n      pop\n        /* \"#utility.yul\":31148:31241   */\n      tag_708\n        /* \"#utility.yul\":31237:31240   */\n      dup3\n        /* \"#utility.yul\":31148:31241   */\n      tag_405\n      jump\t// in\n    tag_708:\n        /* \"#utility.yul\":31266:31268   */\n      0x40\n        /* \"#utility.yul\":31261:31264   */\n      dup3\n        /* \"#utility.yul\":31257:31269   */\n      add\n        /* \"#utility.yul\":31250:31269   */\n      swap1\n      pop\n        /* \"#utility.yul\":30909:31275   */\n      swap2\n      swap1\n      pop\n      jump\t// out\n        /* \"#utility.yul\":31281:31700   */\n    tag_169:\n        /* \"#utility.yul\":31447:31451   */\n      0x00\n        /* \"#utility.yul\":31485:31487   */\n      0x20\n        /* \"#utility.yul\":31474:31483   */\n      dup3\n        /* \"#utility.yul\":31470:31488   */\n      add\n        /* \"#utility.yul\":31462:31488   */\n      swap1\n      pop\n        /* \"#utility.yul\":31534:31543   */\n      dup2\n        /* \"#utility.yul\":31528:31532   */\n      dup2\n        /* \"#utility.yul\":31524:31544   */\n      sub\n        /* \"#utility.yul\":31520:31521   */\n      0x00\n        /* \"#utility.yul\":31509:31518   */\n      dup4\n        /* \"#utility.yul\":31505:31522   */\n      add\n        /* \"#utility.yul\":31498:31545   */\n      mstore\n        /* \"#utility.yul\":31562:31693   */\n      tag_710\n        /* \"#utility.yul\":31688:31692   */\n      dup2\n        /* \"#utility.yul\":31562:31693   */\n      tag_406\n      jump\t// in\n    tag_710:\n        /* \"#utility.yul\":31554:31693   */\n      swap1\n      pop\n        /* \"#utility.yul\":31281:31700   */\n      swap2\n      swap1\n      pop\n      jump\t// out\n        /* \"#utility.yul\":31706:31900   */\n    tag_181:\n        /* \"#utility.yul\":31746:31750   */\n      0x00\n        /* \"#utility.yul\":31766:31786   */\n      tag_712\n        /* \"#utility.yul\":31784:31785   */\n      dup3\n        /* \"#utility.yul\":31766:31786   */\n      tag_348\n      jump\t// in\n    tag_712:\n        /* \"#utility.yul\":31761:31786   */\n      swap2\n      pop\n        /* \"#utility.yul\":31800:31820   */\n      tag_713\n        /* \"#utility.yul\":31818:31819   */\n      dup4\n        /* \"#utility.yul\":31800:31820   */\n      tag_348\n      jump\t// in\n    tag_713:\n        /* \"#utility.yul\":31795:31820   */\n      swap3\n      pop\n        /* \"#utility.yul\":31844:31845   */\n      dup3\n        /* \"#utility.yul\":31841:31842   */\n      dup3\n        /* \"#utility.yul\":31837:31846   */\n      sub\n        /* \"#utility.yul\":31829:31846   */\n      swap1\n      pop\n        /* \"#utility.yul\":31868:31869   */\n      dup2\n        /* \"#utility.yul\":31862:31866   */\n      dup2\n        /* \"#utility.yul\":31859:31870   */\n      gt\n        /* \"#utility.yul\":31856:31893   */\n      iszero\n      tag_714\n      jumpi\n        /* \"#utility.yul\":31873:31891   */\n      tag_715\n      tag_373\n      jump\t// in\n    tag_715:\n        /* \"#utility.yul\":31856:31893   */\n    tag_714:\n        /* \"#utility.yul\":31706:31900   */\n      swap3\n      swap2\n      pop\n      pop\n      jump\t// out\n        /* \"#utility.yul\":31906:32238   */\n    tag_183:\n        /* \"#utility.yul\":32027:32031   */\n      0x00\n        /* \"#utility.yul\":32065:32067   */\n      0x40\n        /* \"#utility.yul\":32054:32063   */\n      dup3\n        /* \"#utility.yul\":32050:32068   */\n      add\n        /* \"#utility.yul\":32042:32068   */\n      swap1\n      pop\n        /* \"#utility.yul\":32078:32149   */\n      tag_717\n        /* \"#utility.yul\":32146:32147   */\n      0x00\n        /* \"#utility.yul\":32135:32144   */\n      dup4\n        /* \"#utility.yul\":32131:32148   */\n      add\n        /* \"#utility.yul\":32122:32128   */\n      dup6\n        /* \"#utility.yul\":32078:32149   */\n      tag_390\n      jump\t// in\n    tag_717:\n        /* \"#utility.yul\":32159:32231   */\n      tag_718\n        /* \"#utility.yul\":32227:32229   */\n      0x20\n        /* \"#utility.yul\":32216:32225   */\n      dup4\n        /* \"#utility.yul\":32212:32230   */\n      add\n        /* \"#utility.yul\":32203:32209   */\n      dup5\n        /* \"#utility.yul\":32159:32231   */\n      tag_390\n      jump\t// in\n    tag_718:\n        /* \"#utility.yul\":31906:32238   */\n      swap4\n      swap3\n      pop\n      pop\n      pop\n      jump\t// out\n        /* \"#utility.yul\":32244:32426   */\n    tag_407:\n        /* \"#utility.yul\":32384:32418   */\n      0x50726f706f73616c7320726567697374726174696f6e206e6f7420656e646564\n        /* \"#utility.yul\":32380:32381   */\n      0x00\n        /* \"#utility.yul\":32372:32378   */\n      dup3\n        /* \"#utility.yul\":32368:32382   */\n      add\n        /* \"#utility.yul\":32361:32419   */\n      mstore\n        /* \"#utility.yul\":32244:32426   */\n      pop\n      jump\t// out\n        /* \"#utility.yul\":32432:32798   */\n    tag_408:\n        /* \"#utility.yul\":32574:32577   */\n      0x00\n        /* \"#utility.yul\":32595:32662   */\n      tag_721\n        /* \"#utility.yul\":32659:32661   */\n      0x20\n        /* \"#utility.yul\":32654:32657   */\n      dup4\n        /* \"#utility.yul\":32595:32662   */\n      tag_370\n      jump\t// in\n    tag_721:\n        /* \"#utility.yul\":32588:32662   */\n      swap2\n      pop\n        /* \"#utility.yul\":32671:32764   */\n      tag_722\n        /* \"#utility.yul\":32760:32763   */\n      dup3\n        /* \"#utility.yul\":32671:32764   */\n      tag_407\n      jump\t// in\n    tag_722:\n        /* \"#utility.yul\":32789:32791   */\n      0x20\n        /* \"#utility.yul\":32784:32787   */\n      dup3\n        /* \"#utility.yul\":32780:32792   */\n      add\n        /* \"#utility.yul\":32773:32792   */\n      swap1\n      pop\n        /* \"#utility.yul\":32432:32798   */\n      swap2\n      swap1\n      pop\n      jump\t// out\n        /* \"#utility.yul\":32804:33223   */\n    tag_234:\n        /* \"#utility.yul\":32970:32974   */\n      0x00\n        /* \"#utility.yul\":33008:33010   */\n      0x20\n        /* \"#utility.yul\":32997:33006   */\n      dup3\n        /* \"#utility.yul\":32993:33011   */\n      add\n        /* \"#utility.yul\":32985:33011   */\n      swap1\n      pop\n        /* \"#utility.yul\":33057:33066   */\n      dup2\n        /* \"#utility.yul\":33051:33055   */\n      dup2\n        /* \"#utility.yul\":33047:33067   */\n      sub\n        /* \"#utility.yul\":33043:33044   */\n      0x00\n        /* \"#utility.yul\":33032:33041   */\n      dup4\n        /* \"#utility.yul\":33028:33045   */\n      add\n        /* \"#utility.yul\":33021:33068   */\n      mstore\n        /* \"#utility.yul\":33085:33216   */\n      tag_724\n        /* \"#utility.yul\":33211:33215   */\n      dup2\n        /* \"#utility.yul\":33085:33216   */\n      tag_408\n      jump\t// in\n    tag_724:\n        /* \"#utility.yul\":33077:33216   */\n      swap1\n      pop\n        /* \"#utility.yul\":32804:33223   */\n      swap2\n      swap1\n      pop\n      jump\t// out\n        /* \"#utility.yul\":33229:33450   */\n    tag_409:\n        /* \"#utility.yul\":33369:33403   */\n      0x50726f706f73616c7320726567697374726174696f6e206e6f74207374617274\n        /* \"#utility.yul\":33365:33366   */\n      0x00\n        /* \"#utility.yul\":33357:33363   */\n      dup3\n        /* \"#utility.yul\":33353:33367   */\n      add\n        /* \"#utility.yul\":33346:33404   */\n      mstore\n        /* \"#utility.yul\":33438:33442   */\n      0x6564000000000000000000000000000000000000000000000000000000000000\n        /* \"#utility.yul\":33433:33435   */\n      0x20\n        /* \"#utility.yul\":33425:33431   */\n      dup3\n        /* \"#utility.yul\":33421:33436   */\n      add\n        /* \"#utility.yul\":33414:33443   */\n      mstore\n        /* \"#utility.yul\":33229:33450   */\n      pop\n      jump\t// out\n        /* \"#utility.yul\":33456:33822   */\n    tag_410:\n        /* \"#utility.yul\":33598:33601   */\n      0x00\n        /* \"#utility.yul\":33619:33686   */\n      tag_727\n        /* \"#utility.yul\":33683:33685   */\n      0x22\n        /* \"#utility.yul\":33678:33681   */\n      dup4\n        /* \"#utility.yul\":33619:33686   */\n      tag_370\n      jump\t// in\n    tag_727:\n        /* \"#utility.yul\":33612:33686   */\n      swap2\n      pop\n        /* \"#utility.yul\":33695:33788   */\n      tag_728\n        /* \"#utility.yul\":33784:33787   */\n      dup3\n        /* \"#utility.yul\":33695:33788   */\n      tag_409\n      jump\t// in\n    tag_728:\n        /* \"#utility.yul\":33813:33815   */\n      0x40\n        /* \"#utility.yul\":33808:33811   */\n      dup3\n        /* \"#utility.yul\":33804:33816   */\n      add\n        /* \"#utility.yul\":33797:33816   */\n      swap1\n      pop\n        /* \"#utility.yul\":33456:33822   */\n      swap2\n      swap1\n      pop\n      jump\t// out\n        /* \"#utility.yul\":33828:34247   */\n    tag_256:\n        /* \"#utility.yul\":33994:33998   */\n      0x00\n        /* \"#utility.yul\":34032:34034   */\n      0x20\n        /* \"#utility.yul\":34021:34030   */\n      dup3\n        /* \"#utility.yul\":34017:34035   */\n      add\n        /* \"#utility.yul\":34009:34035   */\n      swap1\n      pop\n        /* \"#utility.yul\":34081:34090   */\n      dup2\n        /* \"#utility.yul\":34075:34079   */\n      dup2\n        /* \"#utility.yul\":34071:34091   */\n      sub\n        /* \"#utility.yul\":34067:34068   */\n      0x00\n        /* \"#utility.yul\":34056:34065   */\n      dup4\n        /* \"#utility.yul\":34052:34069   */\n      add\n        /* \"#utility.yul\":34045:34092   */\n      mstore\n        /* \"#utility.yul\":34109:34240   */\n      tag_730\n        /* \"#utility.yul\":34235:34239   */\n      dup2\n        /* \"#utility.yul\":34109:34240   */\n      tag_410\n      jump\t// in\n    tag_730:\n        /* \"#utility.yul\":34101:34240   */\n      swap1\n      pop\n        /* \"#utility.yul\":33828:34247   */\n      swap2\n      swap1\n      pop\n      jump\t// out\n        /* \"#utility.yul\":34253:34431   */\n    tag_411:\n        /* \"#utility.yul\":34393:34423   */\n      0x6e6f2070726f706f73616c732077657265207265676973746572656400000000\n        /* \"#utility.yul\":34389:34390   */\n      0x00\n        /* \"#utility.yul\":34381:34387   */\n      dup3\n        /* \"#utility.yul\":34377:34391   */\n      add\n        /* \"#utility.yul\":34370:34424   */\n      mstore\n        /* \"#utility.yul\":34253:34431   */\n      pop\n      jump\t// out\n        /* \"#utility.yul\":34437:34803   */\n    tag_412:\n        /* \"#utility.yul\":34579:34582   */\n      0x00\n        /* \"#utility.yul\":34600:34667   */\n      tag_733\n        /* \"#utility.yul\":34664:34666   */\n      0x1c\n        /* \"#utility.yul\":34659:34662   */\n      dup4\n        /* \"#utility.yul\":34600:34667   */\n      tag_370\n      jump\t// in\n    tag_733:\n        /* \"#utility.yul\":34593:34667   */\n      swap2\n      pop\n        /* \"#utility.yul\":34676:34769   */\n      tag_734\n        /* \"#utility.yul\":34765:34768   */\n      dup3\n        /* \"#utility.yul\":34676:34769   */\n      tag_411\n      jump\t// in\n    tag_734:\n        /* \"#utility.yul\":34794:34796   */\n      0x20\n        /* \"#utility.yul\":34789:34792   */\n      dup3\n        /* \"#utility.yul\":34785:34797   */\n      add\n        /* \"#utility.yul\":34778:34797   */\n      swap1\n      pop\n        /* \"#utility.yul\":34437:34803   */\n      swap2\n      swap1\n      pop\n      jump\t// out\n        /* \"#utility.yul\":34809:35228   */\n    tag_259:\n        /* \"#utility.yul\":34975:34979   */\n      0x00\n        /* \"#utility.yul\":35013:35015   */\n      0x20\n        /* \"#utility.yul\":35002:35011   */\n      dup3\n        /* \"#utility.yul\":34998:35016   */\n      add\n        /* \"#utility.yul\":34990:35016   */\n      swap1\n      pop\n        /* \"#utility.yul\":35062:35071   */\n      dup2\n        /* \"#utility.yul\":35056:35060   */\n      dup2\n        /* \"#utility.yul\":35052:35072   */\n      sub\n        /* \"#utility.yul\":35048:35049   */\n      0x00\n        /* \"#utility.yul\":35037:35046   */\n      dup4\n        /* \"#utility.yul\":35033:35050   */\n      add\n        /* \"#utility.yul\":35026:35073   */\n      mstore\n        /* \"#utility.yul\":35090:35221   */\n      tag_736\n        /* \"#utility.yul\":35216:35220   */\n      dup2\n        /* \"#utility.yul\":35090:35221   */\n      tag_412\n      jump\t// in\n    tag_736:\n        /* \"#utility.yul\":35082:35221   */\n      swap1\n      pop\n        /* \"#utility.yul\":34809:35228   */\n      swap2\n      swap1\n      pop\n      jump\t// out\n        /* \"#utility.yul\":35234:35410   */\n    tag_413:\n        /* \"#utility.yul\":35374:35402   */\n      0x566f74696e672073657373696f6e20646964206e6f7420656e64000000000000\n        /* \"#utility.yul\":35370:35371   */\n      0x00\n        /* \"#utility.yul\":35362:35368   */\n      dup3\n        /* \"#utility.yul\":35358:35372   */\n      add\n        /* \"#utility.yul\":35351:35403   */\n      mstore\n        /* \"#utility.yul\":35234:35410   */\n      pop\n      jump\t// out\n        /* \"#utility.yul\":35416:35782   */\n    tag_414:\n        /* \"#utility.yul\":35558:35561   */\n      0x00\n        /* \"#utility.yul\":35579:35646   */\n      tag_739\n        /* \"#utility.yul\":35643:35645   */\n      0x1a\n        /* \"#utility.yul\":35638:35641   */\n      dup4\n        /* \"#utility.yul\":35579:35646   */\n      tag_370\n      jump\t// in\n    tag_739:\n        /* \"#utility.yul\":35572:35646   */\n      swap2\n      pop\n        /* \"#utility.yul\":35655:35748   */\n      tag_740\n        /* \"#utility.yul\":35744:35747   */\n      dup3\n        /* \"#utility.yul\":35655:35748   */\n      tag_413\n      jump\t// in\n    tag_740:\n        /* \"#utility.yul\":35773:35775   */\n      0x20\n        /* \"#utility.yul\":35768:35771   */\n      dup3\n        /* \"#utility.yul\":35764:35776   */\n      add\n        /* \"#utility.yul\":35757:35776   */\n      swap1\n      pop\n        /* \"#utility.yul\":35416:35782   */\n      swap2\n      swap1\n      pop\n      jump\t// out\n        /* \"#utility.yul\":35788:36207   */\n    tag_272:\n        /* \"#utility.yul\":35954:35958   */\n      0x00\n        /* \"#utility.yul\":35992:35994   */\n      0x20\n        /* \"#utility.yul\":35981:35990   */\n      dup3\n        /* \"#utility.yul\":35977:35995   */\n      add\n        /* \"#utility.yul\":35969:35995   */\n      swap1\n      pop\n        /* \"#utility.yul\":36041:36050   */\n      dup2\n        /* \"#utility.yul\":36035:36039   */\n      dup2\n        /* \"#utility.yul\":36031:36051   */\n      sub\n        /* \"#utility.yul\":36027:36028   */\n      0x00\n        /* \"#utility.yul\":36016:36025   */\n      dup4\n        /* \"#utility.yul\":36012:36029   */\n      add\n        /* \"#utility.yul\":36005:36052   */\n      mstore\n        /* \"#utility.yul\":36069:36200   */\n      tag_742\n        /* \"#utility.yul\":36195:36199   */\n      dup2\n        /* \"#utility.yul\":36069:36200   */\n      tag_414\n      jump\t// in\n    tag_742:\n        /* \"#utility.yul\":36061:36200   */\n      swap1\n      pop\n        /* \"#utility.yul\":35788:36207   */\n      swap2\n      swap1\n      pop\n      jump\t// out\n\n    auxdata: 0xa264697066735822122090cea5c0f5bd1605a6e9b2a1d20cdefcd8252641feb6afecbc997dd02e0fb25564736f6c634300081e0033\n}\n",
				"bytecode": {
					"linkReferences": {},
					"object": "608060405234801561000f575f5ffd5b50335f73ffffffffffffffffffffffffffffffffffffffff168173ffffffffffffffffffffffffffffffffffffffff1603610081575f6040517f1e4fbdf70000000000000000000000000000000000000000000000000000000081526004016100789190610196565b60405180910390fd5b6100908161009660201b60201c565b506101af565b5f5f5f9054906101000a900473ffffffffffffffffffffffffffffffffffffffff169050815f5f6101000a81548173ffffffffffffffffffffffffffffffffffffffff021916908373ffffffffffffffffffffffffffffffffffffffff1602179055508173ffffffffffffffffffffffffffffffffffffffff168173ffffffffffffffffffffffffffffffffffffffff167f8be0079c531659141344cd1fd0a4f28419497f9722a3daafe3b4186f6b6457e060405160405180910390a35050565b5f73ffffffffffffffffffffffffffffffffffffffff82169050919050565b5f61018082610157565b9050919050565b61019081610176565b82525050565b5f6020820190506101a95f830184610187565b92915050565b612beb806101bc5f395ff3fe608060405234801561000f575f5ffd5b506004361061011f575f3560e01c806389a2f485116100ab5780639b19251a1161006f5780639b19251a146102d9578063bf8ca1aa14610309578063d1ff7eeb14610339578063d6a10dcb14610355578063f2fde38b146103715761011f565b806389a2f485146102235780638bc6a6dd146102535780638da5cb5b1461026f57806397decb3f1461028d5780639980a55a146102bd5761011f565b806335bb3d30116100f257806335bb3d3014610181578063371820e91461019d5780633af32abf146101b957806343859632146101e9578063715018a6146102195761011f565b80630d392cd91461012357806319f03af21461013f5780631cbf1b021461015b578063291e677714610165575b5f5ffd5b61013d60048036038101906101389190611af1565b61038d565b005b61015960048036038101906101549190611e05565b6104b5565b005b610163610602565b005b61017f600480360381019061017a9190611e5f565b61067d565b005b61019b60048036038101906101969190611e9d565b610911565b005b6101b760048036038101906101b29190611ec8565b610a57565b005b6101d360048036038101906101ce9190611f22565b610cc6565b6040516101e09190611f5c565b60405180910390f35b61020360048036038101906101fe9190611f75565b610d18565b6040516102109190611f5c565b60405180910390f35b610221610d7d565b005b61023d60048036038101906102389190611e9d565b610d90565b60405161024a919061207e565b60405180910390f35b61026d60048036038101906102689190611e9d565b610ed3565b005b610277610f9a565b60405161028491906120ad565b60405180910390f35b6102a760048036038101906102a29190611e5f565b610fc1565b6040516102b4919061207e565b60405180910390f35b6102d760048036038101906102d29190611e9d565b6110fc565b005b6102f360048036038101906102ee9190611f22565b6111fc565b6040516103009190611f5c565b60405180910390f35b610323600480360381019061031e9190611e9d565b611219565b60405161033091906121ce565b60405180910390f35b610353600480360381019061034e9190611e9d565b611377565b005b61036f600480360381019061036a9190611e9d565b6114c0565b005b61038b60048036038101906103869190611f22565b611849565b005b6103956118cd565b80151560015f8473ffffffffffffffffffffffffffffffffffffffff1673ffffffffffffffffffffffffffffffffffffffff1681526020019081526020015f205f9054906101000a900460ff16151503610424576040517f08c379a000000000000000000000000000000000000000000000000000000000815260040161041b90612248565b60405180910390fd5b8060015f8473ffffffffffffffffffffffffffffffffffffffff1673ffffffffffffffffffffffffffffffffffffffff1681526020019081526020015f205f6101000a81548160ff0219169083151502179055507ff93f9a76c1bf3444d22400a00cb9fe990e6abe9dbb333fda48859cfee864543d82826040516104a9929190612266565b60405180910390a15050565b6104bd6118cd565b60035f8154809291906104cf906122ba565b91905055505f60025f60035481526020019081526020015f209050600354815f01819055508181600601819055505f5f90505b83518110156105c3578160040184828151811061052257610521612301565b5b6020026020010151908060018154018082558091505060019003905f5260205f2090600302015f909190919091505f820151815f019081610563919061252b565b506020820151816001015f6101000a81548173ffffffffffffffffffffffffffffffffffffffff021916908373ffffffffffffffffffffffffffffffffffffffff1602179055506040820151816002015550508080600101915050610502565b507f4b30851682903261bad80bb108cc1b7cdceda15ecc8cbab440ddc8988e102a856003546040516105f59190612609565b60405180910390a1505050565b61060a6118cd565b60035f81548092919061061c906122ba565b91905055505f60025f60035481526020019081526020015f209050600354815f01819055507f4b30851682903261bad80bb108cc1b7cdceda15ecc8cbab440ddc8988e102a856003546040516106729190612609565b60405180910390a150565b5f60025f8481526020019081526020015f209050600360058111156106a5576106a4612622565b5b816001015f9054906101000a900460ff1660058111156106c8576106c7612622565b5b14610708576040517f08c379a00000000000000000000000000000000000000000000000000000000081526004016106ff90612699565b60405180910390fd5b60015f3373ffffffffffffffffffffffffffffffffffffffff1673ffffffffffffffffffffffffffffffffffffffff1681526020019081526020015f205f9054906101000a900460ff16610791576040517f08c379a000000000000000000000000000000000000000000000000000000000815260040161078890612701565b60405180910390fd5b806005015f3373ffffffffffffffffffffffffffffffffffffffff1673ffffffffffffffffffffffffffffffffffffffff1681526020019081526020015f205f9054906101000a900460ff161561081d576040517f08c379a000000000000000000000000000000000000000000000000000000000815260040161081490612769565b60405180910390fd5b5f81600401838154811061083457610833612301565b5b905f5260205f2090600302019050806002015f815480929190610856906122ba565b91905055506001826005015f3373ffffffffffffffffffffffffffffffffffffffff1673ffffffffffffffffffffffffffffffffffffffff1681526020019081526020015f205f6101000a81548160ff0219169083151502179055508160030154816002015411156108d057806002015482600301819055505b7f1abe610cf2bf87e57dcc1181fcf5ac0934e843d8344ab9eed6e86c799f62585e84338560405161090393929190612787565b60405180910390a150505050565b6109196118cd565b5f60025f8381526020019081526020015f2090506003600581111561094157610940612622565b5b816001015f9054906101000a900460ff16600581111561096457610963612622565b5b146109a4576040517f08c379a000000000000000000000000000000000000000000000000000000000815260040161099b90612806565b60405180910390fd5b5f8160030154116109ea576040517f08c379a00000000000000000000000000000000000000000000000000000000081526004016109e19061286e565b60405180910390fd5b6004816001015f6101000a81548160ff02191690836005811115610a1157610a10612622565b5b02179055507fb067099e10826978a3867510ad1e0dcf4ca5cef8e422fd8df2fc3d679167fe8d8260036004604051610a4b939291906128d2565b60405180910390a15050565b61020081511115610a9d576040517f08c379a0000000000000000000000000000000000000000000000000000000008152600401610a9490612977565b60405180910390fd5b5f60025f8481526020019081526020015f20905060016005811115610ac557610ac4612622565b5b816001015f9054906101000a900460ff166005811115610ae857610ae7612622565b5b14610b28576040517f08c379a0000000000000000000000000000000000000000000000000000000008152600401610b1f90612699565b60405180910390fd5b60015f3373ffffffffffffffffffffffffffffffffffffffff1673ffffffffffffffffffffffffffffffffffffffff1681526020019081526020015f205f9054906101000a900460ff16610bb1576040517f08c379a0000000000000000000000000000000000000000000000000000000008152600401610ba890612701565b60405180910390fd5b8060040160405180606001604052808481526020013373ffffffffffffffffffffffffffffffffffffffff1681526020015f815250908060018154018082558091505060019003905f5260205f2090600302015f909190919091505f820151815f019081610c1f919061252b565b506020820151816001015f6101000a81548173ffffffffffffffffffffffffffffffffffffffff021916908373ffffffffffffffffffffffffffffffffffffffff1602179055506040820151816002015550507fca195036d7c4d40b171ad51e9c891c830a0ad9a5e114b5b075cdf791317e300c815f015460018360040180549050610cab9190612995565b604051610cb99291906129c8565b60405180910390a1505050565b5f60015f8373ffffffffffffffffffffffffffffffffffffffff1673ffffffffffffffffffffffffffffffffffffffff1681526020019081526020015f205f9054906101000a900460ff169050919050565b5f60025f8481526020019081526020015f206005015f8373ffffffffffffffffffffffffffffffffffffffff1673ffffffffffffffffffffffffffffffffffffffff1681526020019081526020015f205f9054906101000a900460ff16905092915050565b610d856118cd565b610d8e5f611954565b565b610d98611a1c565b5f60025f8481526020019081526020015f20905080600401816002015481548110610dc657610dc5612301565b5b905f5260205f2090600302016040518060600160405290815f82018054610dec9061235b565b80601f0160208091040260200160405190810160405280929190818152602001828054610e189061235b565b8015610e635780601f10610e3a57610100808354040283529160200191610e63565b820191905f5260205f20905b815481529060010190602001808311610e4657829003601f168201915b50505050508152602001600182015f9054906101000a900473ffffffffffffffffffffffffffffffffffffffff1673ffffffffffffffffffffffffffffffffffffffff1673ffffffffffffffffffffffffffffffffffffffff168152602001600282015481525050915050919050565b610edb6118cd565b5f60025f8381526020019081526020015f2090505f6005811115610f0257610f01612622565b5b816001015f9054906101000a900460ff166005811115610f2557610f24612622565b5b14610f2e575f5ffd5b6001816001015f6101000a81548160ff02191690836005811115610f5557610f54612622565b5b02179055507fb067099e10826978a3867510ad1e0dcf4ca5cef8e422fd8df2fc3d679167fe8d825f6001604051610f8e939291906128d2565b60405180910390a15050565b5f5f5f9054906101000a900473ffffffffffffffffffffffffffffffffffffffff16905090565b610fc9611a1c565b60025f8481526020019081526020015f206004018281548110610fef57610fee612301565b5b905f5260205f2090600302016040518060600160405290815f820180546110159061235b565b80601f01602080910402602001604051908101604052809291908181526020018280546110419061235b565b801561108c5780601f106110635761010080835404028352916020019161108c565b820191905f5260205f20905b81548152906001019060200180831161106f57829003601f168201915b50505050508152602001600182015f9054906101000a900473ffffffffffffffffffffffffffffffffffffffff1673ffffffffffffffffffffffffffffffffffffffff1673ffffffffffffffffffffffffffffffffffffffff168152602001600282015481525050905092915050565b6111046118cd565b5f60025f8381526020019081526020015f2090506002600581111561112c5761112b612622565b5b816001015f9054906101000a900460ff16600581111561114f5761114e612622565b5b1461118f576040517f08c379a000000000000000000000000000000000000000000000000000000000815260040161118690612a39565b60405180910390fd5b6003816001015f6101000a81548160ff021916908360058111156111b6576111b5612622565b5b02179055507fb067099e10826978a3867510ad1e0dcf4ca5cef8e422fd8df2fc3d679167fe8d82600260036040516111f0939291906128d2565b60405180910390a15050565b6001602052805f5260405f205f915054906101000a900460ff1681565b606060025f8381526020019081526020015f20600401805480602002602001604051908101604052809291908181526020015f905b8282101561136c578382905f5260205f2090600302016040518060600160405290815f8201805461127e9061235b565b80601f01602080910402602001604051908101604052809291908181526020018280546112aa9061235b565b80156112f55780601f106112cc576101008083540402835291602001916112f5565b820191905f5260205f20905b8154815290600101906020018083116112d857829003601f168201915b50505050508152602001600182015f9054906101000a900473ffffffffffffffffffffffffffffffffffffffff1673ffffffffffffffffffffffffffffffffffffffff1673ffffffffffffffffffffffffffffffffffffffff1681526020016002820154815250508152602001906001019061124e565b505050509050919050565b61137f6118cd565b5f60025f8381526020019081526020015f209050600160058111156113a7576113a6612622565b5b816001015f9054906101000a900460ff1660058111156113ca576113c9612622565b5b1461140a576040517f08c379a000000000000000000000000000000000000000000000000000000000815260040161140190612ac7565b60405180910390fd5b5f816004018054905011611453576040517f08c379a000000000000000000000000000000000000000000000000000000000815260040161144a90612b2f565b60405180910390fd5b6002816001015f6101000a81548160ff0219169083600581111561147a57611479612622565b5b02179055507fb067099e10826978a3867510ad1e0dcf4ca5cef8e422fd8df2fc3d679167fe8d82600160026040516114b4939291906128d2565b60405180910390a15050565b6114c86118cd565b5f60025f8381526020019081526020015f209050600460058111156114f0576114ef612622565b5b816001015f9054906101000a900460ff16600581111561151357611512612622565b5b14611553576040517f08c379a000000000000000000000000000000000000000000000000000000000815260040161154a90612b97565b60405180910390fd5b5f8160040190505f5f5f90505b82805490508110156115b557836003015483828154811061158457611583612301565b5b905f5260205f20906003020160020154036115a85781806115a4906122ba565b9250505b8080600101915050611560565b505f8167ffffffffffffffff8111156115d1576115d0611b43565b5b60405190808252806020026020018201604052801561160a57816020015b6115f7611a1c565b8152602001906001900390816115ef5790505b5090505f5f5f90505b84805490508110156117a757856003015485828154811061163757611636612301565b5b905f5260205f209060030201600201540361179a5784818154811061165f5761165e612301565b5b905f5260205f2090600302016040518060600160405290815f820180546116859061235b565b80601f01602080910402602001604051908101604052809291908181526020018280546116b19061235b565b80156116fc5780601f106116d3576101008083540402835291602001916116fc565b820191905f5260205f20905b8154815290600101906020018083116116df57829003601f168201915b50505050508152602001600182015f9054906101000a900473ffffffffffffffffffffffffffffffffffffffff1673ffffffffffffffffffffffffffffffffffffffff1673ffffffffffffffffffffffffffffffffffffffff16815260200160028201548152505083838151811061177757611776612301565b5b60200260200101819052508086600201819055508180611796906122ba565b9250505b8080600101915050611613565b5060018251036117f3577fa02a80459fbab98547e0db2cfb6ef274e962836a412718bb60fb14f1e6382e578686600201546040516117e69291906129c8565b60405180910390a1611841565b5f856002018190555061180982865f01546104b5565b7f0f647fdccb52741a5ff3d2ef61826fc3fb196e30bf0a07a8a7d46e706d999d54866040516118389190612609565b60405180910390a15b505050505050565b6118516118cd565b5f73ffffffffffffffffffffffffffffffffffffffff168173ffffffffffffffffffffffffffffffffffffffff16036118c1575f6040517f1e4fbdf70000000000000000000000000000000000000000000000000000000081526004016118b891906120ad565b60405180910390fd5b6118ca81611954565b50565b6118d5611a15565b73ffffffffffffffffffffffffffffffffffffffff166118f3610f9a565b73ffffffffffffffffffffffffffffffffffffffff161461195257611916611a15565b6040517f118cdaa700000000000000000000000000000000000000000000000000000000815260040161194991906120ad565b60405180910390fd5b565b5f5f5f9054906101000a900473ffffffffffffffffffffffffffffffffffffffff169050815f5f6101000a81548173ffffffffffffffffffffffffffffffffffffffff021916908373ffffffffffffffffffffffffffffffffffffffff1602179055508173ffffffffffffffffffffffffffffffffffffffff168173ffffffffffffffffffffffffffffffffffffffff167f8be0079c531659141344cd1fd0a4f28419497f9722a3daafe3b4186f6b6457e060405160405180910390a35050565b5f33905090565b6040518060600160405280606081526020015f73ffffffffffffffffffffffffffffffffffffffff1681526020015f81525090565b5f604051905090565b5f5ffd5b5f5ffd5b5f73ffffffffffffffffffffffffffffffffffffffff82169050919050565b5f611a8b82611a62565b9050919050565b611a9b81611a81565b8114611aa5575f5ffd5b50565b5f81359050611ab681611a92565b92915050565b5f8115159050919050565b611ad081611abc565b8114611ada575f5ffd5b50565b5f81359050611aeb81611ac7565b92915050565b5f5f60408385031215611b0757611b06611a5a565b5b5f611b1485828601611aa8565b9250506020611b2585828601611add565b9150509250929050565b5f5ffd5b5f601f19601f8301169050919050565b7f4e487b71000000000000000000000000000000000000000000000000000000005f52604160045260245ffd5b611b7982611b33565b810181811067ffffffffffffffff82111715611b9857611b97611b43565b5b80604052505050565b5f611baa611a51565b9050611bb68282611b70565b919050565b5f67ffffffffffffffff821115611bd557611bd4611b43565b5b602082029050602081019050919050565b5f5ffd5b5f5ffd5b5f5ffd5b5f5ffd5b5f67ffffffffffffffff821115611c1057611c0f611b43565b5b611c1982611b33565b9050602081019050919050565b828183375f83830152505050565b5f611c46611c4184611bf6565b611ba1565b905082815260208101848484011115611c6257611c61611bf2565b5b611c6d848285611c26565b509392505050565b5f82601f830112611c8957611c88611b2f565b5b8135611c99848260208601611c34565b91505092915050565b5f819050919050565b611cb481611ca2565b8114611cbe575f5ffd5b50565b5f81359050611ccf81611cab565b92915050565b5f60608284031215611cea57611ce9611bea565b5b611cf46060611ba1565b90505f82013567ffffffffffffffff811115611d1357611d12611bee565b5b611d1f84828501611c75565b5f830152506020611d3284828501611aa8565b6020830152506040611d4684828501611cc1565b60408301525092915050565b5f611d64611d5f84611bbb565b611ba1565b90508083825260208201905060208402830185811115611d8757611d86611be6565b5b835b81811015611dce57803567ffffffffffffffff811115611dac57611dab611b2f565b5b808601611db98982611cd5565b85526020850194505050602081019050611d89565b5050509392505050565b5f82601f830112611dec57611deb611b2f565b5b8135611dfc848260208601611d52565b91505092915050565b5f5f60408385031215611e1b57611e1a611a5a565b5b5f83013567ffffffffffffffff811115611e3857611e37611a5e565b5b611e4485828601611dd8565b9250506020611e5585828601611cc1565b9150509250929050565b5f5f60408385031215611e7557611e74611a5a565b5b5f611e8285828601611cc1565b9250506020611e9385828601611cc1565b9150509250929050565b5f60208284031215611eb257611eb1611a5a565b5b5f611ebf84828501611cc1565b91505092915050565b5f5f60408385031215611ede57611edd611a5a565b5b5f611eeb85828601611cc1565b925050602083013567ffffffffffffffff811115611f0c57611f0b611a5e565b5b611f1885828601611c75565b9150509250929050565b5f60208284031215611f3757611f36611a5a565b5b5f611f4484828501611aa8565b91505092915050565b611f5681611abc565b82525050565b5f602082019050611f6f5f830184611f4d565b92915050565b5f5f60408385031215611f8b57611f8a611a5a565b5b5f611f9885828601611cc1565b9250506020611fa985828601611aa8565b9150509250929050565b5f81519050919050565b5f82825260208201905092915050565b8281835e5f83830152505050565b5f611fe582611fb3565b611fef8185611fbd565b9350611fff818560208601611fcd565b61200881611b33565b840191505092915050565b61201c81611a81565b82525050565b61202b81611ca2565b82525050565b5f606083015f8301518482035f86015261204b8282611fdb565b91505060208301516120606020860182612013565b5060408301516120736040860182612022565b508091505092915050565b5f6020820190508181035f8301526120968184612031565b905092915050565b6120a781611a81565b82525050565b5f6020820190506120c05f83018461209e565b92915050565b5f81519050919050565b5f82825260208201905092915050565b5f819050602082019050919050565b5f606083015f8301518482035f8601526121098282611fdb565b915050602083015161211e6020860182612013565b5060408301516121316040860182612022565b508091505092915050565b5f61214783836120ef565b905092915050565b5f602082019050919050565b5f612165826120c6565b61216f81856120d0565b935083602082028501612181856120e0565b805f5b858110156121bc578484038952815161219d858261213c565b94506121a88361214f565b925060208a01995050600181019050612184565b50829750879550505050505092915050565b5f6020820190508181035f8301526121e6818461215b565b905092915050565b5f82825260208201905092915050565b7f77686974656c69737420697320757020746f20646174650000000000000000005f82015250565b5f6122326017836121ee565b915061223d826121fe565b602082019050919050565b5f6020820190508181035f83015261225f81612226565b9050919050565b5f6040820190506122795f83018561209e565b6122866020830184611f4d565b9392505050565b7f4e487b71000000000000000000000000000000000000000000000000000000005f52601160045260245ffd5b5f6122c482611ca2565b91507fffffffffffffffffffffffffffffffffffffffffffffffffffffffffffffffff82036122f6576122f561228d565b5b600182019050919050565b7f4e487b71000000000000000000000000000000000000000000000000000000005f52603260045260245ffd5b7f4e487b71000000000000000000000000000000000000000000000000000000005f52602260045260245ffd5b5f600282049050600182168061237257607f821691505b6020821081036123855761238461232e565b5b50919050565b5f819050815f5260205f209050919050565b5f6020601f8301049050919050565b5f82821b905092915050565b5f600883026123e77fffffffffffffffffffffffffffffffffffffffffffffffffffffffffffffffff826123ac565b6123f186836123ac565b95508019841693508086168417925050509392505050565b5f819050919050565b5f61242c61242761242284611ca2565b612409565b611ca2565b9050919050565b5f819050919050565b61244583612412565b61245961245182612433565b8484546123b8565b825550505050565b5f5f905090565b612470612461565b61247b81848461243c565b505050565b5b8181101561249e576124935f82612468565b600181019050612481565b5050565b601f8211156124e3576124b48161238b565b6124bd8461239d565b810160208510156124cc578190505b6124e06124d88561239d565b830182612480565b50505b505050565b5f82821c905092915050565b5f6125035f19846008026124e8565b1980831691505092915050565b5f61251b83836124f4565b9150826002028217905092915050565b61253482611fb3565b67ffffffffffffffff81111561254d5761254c611b43565b5b612557825461235b565b6125628282856124a2565b5f60209050601f831160018114612593575f8415612581578287015190505b61258b8582612510565b8655506125f2565b601f1984166125a18661238b565b5f5b828110156125c8578489015182556001820191506020850194506020810190506125a3565b868310156125e557848901516125e1601f8916826124f4565b8355505b6001600288020188555050505b505050505050565b61260381611ca2565b82525050565b5f60208201905061261c5f8301846125fa565b92915050565b7f4e487b71000000000000000000000000000000000000000000000000000000005f52602160045260245ffd5b7f726567697374726174696f6e20646964206e6f742073746172746564000000005f82015250565b5f612683601c836121ee565b915061268e8261264f565b602082019050919050565b5f6020820190508181035f8301526126b081612677565b9050919050565b7f596f7520617265206e6f742072656769737465726564000000000000000000005f82015250565b5f6126eb6016836121ee565b91506126f6826126b7565b602082019050919050565b5f6020820190508181035f830152612718816126df565b9050919050565b7f596f75206861766520616c726561647920766f746500000000000000000000005f82015250565b5f6127536015836121ee565b915061275e8261271f565b602082019050919050565b5f6020820190508181035f83015261278081612747565b9050919050565b5f60608201905061279a5f8301866125fa565b6127a7602083018561209e565b6127b460408301846125fa565b949350505050565b7f566f74696e672073657373696f6e206e6f7420737461727465640000000000005f82015250565b5f6127f0601a836121ee565b91506127fb826127bc565b602082019050919050565b5f6020820190508181035f83015261281d816127e4565b9050919050565b7f6e6f20766f7465732077657265207265676973746572656400000000000000005f82015250565b5f6128586018836121ee565b915061286382612824565b602082019050919050565b5f6020820190508181035f8301526128858161284c565b9050919050565b6006811061289d5761289c612622565b5b50565b5f8190506128ad8261288c565b919050565b5f6128bc826128a0565b9050919050565b6128cc816128b2565b82525050565b5f6060820190506128e55f8301866125fa565b6128f260208301856128c3565b6128ff60408301846128c3565b949350505050565b7f4465736372697074696f6e20697320746f6f206c6f6e672c206c696d697420355f8201527f3132206279746573000000000000000000000000000000000000000000000000602082015250565b5f6129616028836121ee565b915061296c82612907565b604082019050919050565b5f6020820190508181035f83015261298e81612955565b9050919050565b5f61299f82611ca2565b91506129aa83611ca2565b92508282039050818111156129c2576129c161228d565b5b92915050565b5f6040820190506129db5f8301856125fa565b6129e860208301846125fa565b9392505050565b7f50726f706f73616c7320726567697374726174696f6e206e6f7420656e6465645f82015250565b5f612a236020836121ee565b9150612a2e826129ef565b602082019050919050565b5f6020820190508181035f830152612a5081612a17565b9050919050565b7f50726f706f73616c7320726567697374726174696f6e206e6f742073746172745f8201527f6564000000000000000000000000000000000000000000000000000000000000602082015250565b5f612ab16022836121ee565b9150612abc82612a57565b604082019050919050565b5f6020820190508181035f830152612ade81612aa5565b9050919050565b7f6e6f2070726f706f73616c7320776572652072656769737465726564000000005f82015250565b5f612b19601c836121ee565b9150612b2482612ae5565b602082019050919050565b5f6020820190508181035f830152612b4681612b0d565b9050919050565b7f566f74696e672073657373696f6e20646964206e6f7420656e640000000000005f82015250565b5f612b81601a836121ee565b9150612b8c82612b4d565b602082019050919050565b5f6020820190508181035f830152612bae81612b75565b905091905056fea264697066735822122090cea5c0f5bd1605a6e9b2a1d20cdefcd8252641feb6afecbc997dd02e0fb25564736f6c634300081e0033",
					"opcodes": "PUSH1 0x80 PUSH1 0x40 MSTORE CALLVALUE DUP1 ISZERO PUSH2 0xF JUMPI PUSH0 PUSH0 REVERT JUMPDEST POP CALLER PUSH0 PUSH20 0xFFFFFFFFFFFFFFFFFFFFFFFFFFFFFFFFFFFFFFFF AND DUP2 PUSH20 0xFFFFFFFFFFFFFFFFFFFFFFFFFFFFFFFFFFFFFFFF AND SUB PUSH2 0x81 JUMPI PUSH0 PUSH1 0x40 MLOAD PUSH32 0x1E4FBDF700000000000000000000000000000000000000000000000000000000 DUP2 MSTORE PUSH1 0x4 ADD PUSH2 0x78 SWAP2 SWAP1 PUSH2 0x196 JUMP JUMPDEST PUSH1 0x40 MLOAD DUP1 SWAP2 SUB SWAP1 REVERT JUMPDEST PUSH2 0x90 DUP2 PUSH2 0x96 PUSH1 0x20 SHL PUSH1 0x20 SHR JUMP JUMPDEST POP PUSH2 0x1AF JUMP JUMPDEST PUSH0 PUSH0 PUSH0 SWAP1 SLOAD SWAP1 PUSH2 0x100 EXP SWAP1 DIV PUSH20 0xFFFFFFFFFFFFFFFFFFFFFFFFFFFFFFFFFFFFFFFF AND SWAP1 POP DUP2 PUSH0 PUSH0 PUSH2 0x100 EXP DUP2 SLOAD DUP2 PUSH20 0xFFFFFFFFFFFFFFFFFFFFFFFFFFFFFFFFFFFFFFFF MUL NOT AND SWAP1 DUP4 PUSH20 0xFFFFFFFFFFFFFFFFFFFFFFFFFFFFFFFFFFFFFFFF AND MUL OR SWAP1 SSTORE POP DUP2 PUSH20 0xFFFFFFFFFFFFFFFFFFFFFFFFFFFFFFFFFFFFFFFF AND DUP2 PUSH20 0xFFFFFFFFFFFFFFFFFFFFFFFFFFFFFFFFFFFFFFFF AND PUSH32 0x8BE0079C531659141344CD1FD0A4F28419497F9722A3DAAFE3B4186F6B6457E0 PUSH1 0x40 MLOAD PUSH1 0x40 MLOAD DUP1 SWAP2 SUB SWAP1 LOG3 POP POP JUMP JUMPDEST PUSH0 PUSH20 0xFFFFFFFFFFFFFFFFFFFFFFFFFFFFFFFFFFFFFFFF DUP3 AND SWAP1 POP SWAP2 SWAP1 POP JUMP JUMPDEST PUSH0 PUSH2 0x180 DUP3 PUSH2 0x157 JUMP JUMPDEST SWAP1 POP SWAP2 SWAP1 POP JUMP JUMPDEST PUSH2 0x190 DUP2 PUSH2 0x176 JUMP JUMPDEST DUP3 MSTORE POP POP JUMP JUMPDEST PUSH0 PUSH1 0x20 DUP3 ADD SWAP1 POP PUSH2 0x1A9 PUSH0 DUP4 ADD DUP5 PUSH2 0x187 JUMP JUMPDEST SWAP3 SWAP2 POP POP JUMP JUMPDEST PUSH2 0x2BEB DUP1 PUSH2 0x1BC PUSH0 CODECOPY PUSH0 RETURN INVALID PUSH1 0x80 PUSH1 0x40 MSTORE CALLVALUE DUP1 ISZERO PUSH2 0xF JUMPI PUSH0 PUSH0 REVERT JUMPDEST POP PUSH1 0x4 CALLDATASIZE LT PUSH2 0x11F JUMPI PUSH0 CALLDATALOAD PUSH1 0xE0 SHR DUP1 PUSH4 0x89A2F485 GT PUSH2 0xAB JUMPI DUP1 PUSH4 0x9B19251A GT PUSH2 0x6F JUMPI DUP1 PUSH4 0x9B19251A EQ PUSH2 0x2D9 JUMPI DUP1 PUSH4 0xBF8CA1AA EQ PUSH2 0x309 JUMPI DUP1 PUSH4 0xD1FF7EEB EQ PUSH2 0x339 JUMPI DUP1 PUSH4 0xD6A10DCB EQ PUSH2 0x355 JUMPI DUP1 PUSH4 0xF2FDE38B EQ PUSH2 0x371 JUMPI PUSH2 0x11F JUMP JUMPDEST DUP1 PUSH4 0x89A2F485 EQ PUSH2 0x223 JUMPI DUP1 PUSH4 0x8BC6A6DD EQ PUSH2 0x253 JUMPI DUP1 PUSH4 0x8DA5CB5B EQ PUSH2 0x26F JUMPI DUP1 PUSH4 0x97DECB3F EQ PUSH2 0x28D JUMPI DUP1 PUSH4 0x9980A55A EQ PUSH2 0x2BD JUMPI PUSH2 0x11F JUMP JUMPDEST DUP1 PUSH4 0x35BB3D30 GT PUSH2 0xF2 JUMPI DUP1 PUSH4 0x35BB3D30 EQ PUSH2 0x181 JUMPI DUP1 PUSH4 0x371820E9 EQ PUSH2 0x19D JUMPI DUP1 PUSH4 0x3AF32ABF EQ PUSH2 0x1B9 JUMPI DUP1 PUSH4 0x43859632 EQ PUSH2 0x1E9 JUMPI DUP1 PUSH4 0x715018A6 EQ PUSH2 0x219 JUMPI PUSH2 0x11F JUMP JUMPDEST DUP1 PUSH4 0xD392CD9 EQ PUSH2 0x123 JUMPI DUP1 PUSH4 0x19F03AF2 EQ PUSH2 0x13F JUMPI DUP1 PUSH4 0x1CBF1B02 EQ PUSH2 0x15B JUMPI DUP1 PUSH4 0x291E6777 EQ PUSH2 0x165 JUMPI JUMPDEST PUSH0 PUSH0 REVERT JUMPDEST PUSH2 0x13D PUSH1 0x4 DUP1 CALLDATASIZE SUB DUP2 ADD SWAP1 PUSH2 0x138 SWAP2 SWAP1 PUSH2 0x1AF1 JUMP JUMPDEST PUSH2 0x38D JUMP JUMPDEST STOP JUMPDEST PUSH2 0x159 PUSH1 0x4 DUP1 CALLDATASIZE SUB DUP2 ADD SWAP1 PUSH2 0x154 SWAP2 SWAP1 PUSH2 0x1E05 JUMP JUMPDEST PUSH2 0x4B5 JUMP JUMPDEST STOP JUMPDEST PUSH2 0x163 PUSH2 0x602 JUMP JUMPDEST STOP JUMPDEST PUSH2 0x17F PUSH1 0x4 DUP1 CALLDATASIZE SUB DUP2 ADD SWAP1 PUSH2 0x17A SWAP2 SWAP1 PUSH2 0x1E5F JUMP JUMPDEST PUSH2 0x67D JUMP JUMPDEST STOP JUMPDEST PUSH2 0x19B PUSH1 0x4 DUP1 CALLDATASIZE SUB DUP2 ADD SWAP1 PUSH2 0x196 SWAP2 SWAP1 PUSH2 0x1E9D JUMP JUMPDEST PUSH2 0x911 JUMP JUMPDEST STOP JUMPDEST PUSH2 0x1B7 PUSH1 0x4 DUP1 CALLDATASIZE SUB DUP2 ADD SWAP1 PUSH2 0x1B2 SWAP2 SWAP1 PUSH2 0x1EC8 JUMP JUMPDEST PUSH2 0xA57 JUMP JUMPDEST STOP JUMPDEST PUSH2 0x1D3 PUSH1 0x4 DUP1 CALLDATASIZE SUB DUP2 ADD SWAP1 PUSH2 0x1CE SWAP2 SWAP1 PUSH2 0x1F22 JUMP JUMPDEST PUSH2 0xCC6 JUMP JUMPDEST PUSH1 0x40 MLOAD PUSH2 0x1E0 SWAP2 SWAP1 PUSH2 0x1F5C JUMP JUMPDEST PUSH1 0x40 MLOAD DUP1 SWAP2 SUB SWAP1 RETURN JUMPDEST PUSH2 0x203 PUSH1 0x4 DUP1 CALLDATASIZE SUB DUP2 ADD SWAP1 PUSH2 0x1FE SWAP2 SWAP1 PUSH2 0x1F75 JUMP JUMPDEST PUSH2 0xD18 JUMP JUMPDEST PUSH1 0x40 MLOAD PUSH2 0x210 SWAP2 SWAP1 PUSH2 0x1F5C JUMP JUMPDEST PUSH1 0x40 MLOAD DUP1 SWAP2 SUB SWAP1 RETURN JUMPDEST PUSH2 0x221 PUSH2 0xD7D JUMP JUMPDEST STOP JUMPDEST PUSH2 0x23D PUSH1 0x4 DUP1 CALLDATASIZE SUB DUP2 ADD SWAP1 PUSH2 0x238 SWAP2 SWAP1 PUSH2 0x1E9D JUMP JUMPDEST PUSH2 0xD90 JUMP JUMPDEST PUSH1 0x40 MLOAD PUSH2 0x24A SWAP2 SWAP1 PUSH2 0x207E JUMP JUMPDEST PUSH1 0x40 MLOAD DUP1 SWAP2 SUB SWAP1 RETURN JUMPDEST PUSH2 0x26D PUSH1 0x4 DUP1 CALLDATASIZE SUB DUP2 ADD SWAP1 PUSH2 0x268 SWAP2 SWAP1 PUSH2 0x1E9D JUMP JUMPDEST PUSH2 0xED3 JUMP JUMPDEST STOP JUMPDEST PUSH2 0x277 PUSH2 0xF9A JUMP JUMPDEST PUSH1 0x40 MLOAD PUSH2 0x284 SWAP2 SWAP1 PUSH2 0x20AD JUMP JUMPDEST PUSH1 0x40 MLOAD DUP1 SWAP2 SUB SWAP1 RETURN JUMPDEST PUSH2 0x2A7 PUSH1 0x4 DUP1 CALLDATASIZE SUB DUP2 ADD SWAP1 PUSH2 0x2A2 SWAP2 SWAP1 PUSH2 0x1E5F JUMP JUMPDEST PUSH2 0xFC1 JUMP JUMPDEST PUSH1 0x40 MLOAD PUSH2 0x2B4 SWAP2 SWAP1 PUSH2 0x207E JUMP JUMPDEST PUSH1 0x40 MLOAD DUP1 SWAP2 SUB SWAP1 RETURN JUMPDEST PUSH2 0x2D7 PUSH1 0x4 DUP1 CALLDATASIZE SUB DUP2 ADD SWAP1 PUSH2 0x2D2 SWAP2 SWAP1 PUSH2 0x1E9D JUMP JUMPDEST PUSH2 0x10FC JUMP JUMPDEST STOP JUMPDEST PUSH2 0x2F3 PUSH1 0x4 DUP1 CALLDATASIZE SUB DUP2 ADD SWAP1 PUSH2 0x2EE SWAP2 SWAP1 PUSH2 0x1F22 JUMP JUMPDEST PUSH2 0x11FC JUMP JUMPDEST PUSH1 0x40 MLOAD PUSH2 0x300 SWAP2 SWAP1 PUSH2 0x1F5C JUMP JUMPDEST PUSH1 0x40 MLOAD DUP1 SWAP2 SUB SWAP1 RETURN JUMPDEST PUSH2 0x323 PUSH1 0x4 DUP1 CALLDATASIZE SUB DUP2 ADD SWAP1 PUSH2 0x31E SWAP2 SWAP1 PUSH2 0x1E9D JUMP JUMPDEST PUSH2 0x1219 JUMP JUMPDEST PUSH1 0x40 MLOAD PUSH2 0x330 SWAP2 SWAP1 PUSH2 0x21CE JUMP JUMPDEST PUSH1 0x40 MLOAD DUP1 SWAP2 SUB SWAP1 RETURN JUMPDEST PUSH2 0x353 PUSH1 0x4 DUP1 CALLDATASIZE SUB DUP2 ADD SWAP1 PUSH2 0x34E SWAP2 SWAP1 PUSH2 0x1E9D JUMP JUMPDEST PUSH2 0x1377 JUMP JUMPDEST STOP JUMPDEST PUSH2 0x36F PUSH1 0x4 DUP1 CALLDATASIZE SUB DUP2 ADD SWAP1 PUSH2 0x36A SWAP2 SWAP1 PUSH2 0x1E9D JUMP JUMPDEST PUSH2 0x14C0 JUMP JUMPDEST STOP JUMPDEST PUSH2 0x38B PUSH1 0x4 DUP1 CALLDATASIZE SUB DUP2 ADD SWAP1 PUSH2 0x386 SWAP2 SWAP1 PUSH2 0x1F22 JUMP JUMPDEST PUSH2 0x1849 JUMP JUMPDEST STOP JUMPDEST PUSH2 0x395 PUSH2 0x18CD JUMP JUMPDEST DUP1 ISZERO ISZERO PUSH1 0x1 PUSH0 DUP5 PUSH20 0xFFFFFFFFFFFFFFFFFFFFFFFFFFFFFFFFFFFFFFFF AND PUSH20 0xFFFFFFFFFFFFFFFFFFFFFFFFFFFFFFFFFFFFFFFF AND DUP2 MSTORE PUSH1 0x20 ADD SWAP1 DUP2 MSTORE PUSH1 0x20 ADD PUSH0 KECCAK256 PUSH0 SWAP1 SLOAD SWAP1 PUSH2 0x100 EXP SWAP1 DIV PUSH1 0xFF AND ISZERO ISZERO SUB PUSH2 0x424 JUMPI PUSH1 0x40 MLOAD PUSH32 0x8C379A000000000000000000000000000000000000000000000000000000000 DUP2 MSTORE PUSH1 0x4 ADD PUSH2 0x41B SWAP1 PUSH2 0x2248 JUMP JUMPDEST PUSH1 0x40 MLOAD DUP1 SWAP2 SUB SWAP1 REVERT JUMPDEST DUP1 PUSH1 0x1 PUSH0 DUP5 PUSH20 0xFFFFFFFFFFFFFFFFFFFFFFFFFFFFFFFFFFFFFFFF AND PUSH20 0xFFFFFFFFFFFFFFFFFFFFFFFFFFFFFFFFFFFFFFFF AND DUP2 MSTORE PUSH1 0x20 ADD SWAP1 DUP2 MSTORE PUSH1 0x20 ADD PUSH0 KECCAK256 PUSH0 PUSH2 0x100 EXP DUP2 SLOAD DUP2 PUSH1 0xFF MUL NOT AND SWAP1 DUP4 ISZERO ISZERO MUL OR SWAP1 SSTORE POP PUSH32 0xF93F9A76C1BF3444D22400A00CB9FE990E6ABE9DBB333FDA48859CFEE864543D DUP3 DUP3 PUSH1 0x40 MLOAD PUSH2 0x4A9 SWAP3 SWAP2 SWAP1 PUSH2 0x2266 JUMP JUMPDEST PUSH1 0x40 MLOAD DUP1 SWAP2 SUB SWAP1 LOG1 POP POP JUMP JUMPDEST PUSH2 0x4BD PUSH2 0x18CD JUMP JUMPDEST PUSH1 0x3 PUSH0 DUP2 SLOAD DUP1 SWAP3 SWAP2 SWAP1 PUSH2 0x4CF SWAP1 PUSH2 0x22BA JUMP JUMPDEST SWAP2 SWAP1 POP SSTORE POP PUSH0 PUSH1 0x2 PUSH0 PUSH1 0x3 SLOAD DUP2 MSTORE PUSH1 0x20 ADD SWAP1 DUP2 MSTORE PUSH1 0x20 ADD PUSH0 KECCAK256 SWAP1 POP PUSH1 0x3 SLOAD DUP2 PUSH0 ADD DUP2 SWAP1 SSTORE POP DUP2 DUP2 PUSH1 0x6 ADD DUP2 SWAP1 SSTORE POP PUSH0 PUSH0 SWAP1 POP JUMPDEST DUP4 MLOAD DUP2 LT ISZERO PUSH2 0x5C3 JUMPI DUP2 PUSH1 0x4 ADD DUP5 DUP3 DUP2 MLOAD DUP2 LT PUSH2 0x522 JUMPI PUSH2 0x521 PUSH2 0x2301 JUMP JUMPDEST JUMPDEST PUSH1 0x20 MUL PUSH1 0x20 ADD ADD MLOAD SWAP1 DUP1 PUSH1 0x1 DUP2 SLOAD ADD DUP1 DUP3 SSTORE DUP1 SWAP2 POP POP PUSH1 0x1 SWAP1 SUB SWAP1 PUSH0 MSTORE PUSH1 0x20 PUSH0 KECCAK256 SWAP1 PUSH1 0x3 MUL ADD PUSH0 SWAP1 SWAP2 SWAP1 SWAP2 SWAP1 SWAP2 POP PUSH0 DUP3 ADD MLOAD DUP2 PUSH0 ADD SWAP1 DUP2 PUSH2 0x563 SWAP2 SWAP1 PUSH2 0x252B JUMP JUMPDEST POP PUSH1 0x20 DUP3 ADD MLOAD DUP2 PUSH1 0x1 ADD PUSH0 PUSH2 0x100 EXP DUP2 SLOAD DUP2 PUSH20 0xFFFFFFFFFFFFFFFFFFFFFFFFFFFFFFFFFFFFFFFF MUL NOT AND SWAP1 DUP4 PUSH20 0xFFFFFFFFFFFFFFFFFFFFFFFFFFFFFFFFFFFFFFFF AND MUL OR SWAP1 SSTORE POP PUSH1 0x40 DUP3 ADD MLOAD DUP2 PUSH1 0x2 ADD SSTORE POP POP DUP1 DUP1 PUSH1 0x1 ADD SWAP2 POP POP PUSH2 0x502 JUMP JUMPDEST POP PUSH32 0x4B30851682903261BAD80BB108CC1B7CDCEDA15ECC8CBAB440DDC8988E102A85 PUSH1 0x3 SLOAD PUSH1 0x40 MLOAD PUSH2 0x5F5 SWAP2 SWAP1 PUSH2 0x2609 JUMP JUMPDEST PUSH1 0x40 MLOAD DUP1 SWAP2 SUB SWAP1 LOG1 POP POP POP JUMP JUMPDEST PUSH2 0x60A PUSH2 0x18CD JUMP JUMPDEST PUSH1 0x3 PUSH0 DUP2 SLOAD DUP1 SWAP3 SWAP2 SWAP1 PUSH2 0x61C SWAP1 PUSH2 0x22BA JUMP JUMPDEST SWAP2 SWAP1 POP SSTORE POP PUSH0 PUSH1 0x2 PUSH0 PUSH1 0x3 SLOAD DUP2 MSTORE PUSH1 0x20 ADD SWAP1 DUP2 MSTORE PUSH1 0x20 ADD PUSH0 KECCAK256 SWAP1 POP PUSH1 0x3 SLOAD DUP2 PUSH0 ADD DUP2 SWAP1 SSTORE POP PUSH32 0x4B30851682903261BAD80BB108CC1B7CDCEDA15ECC8CBAB440DDC8988E102A85 PUSH1 0x3 SLOAD PUSH1 0x40 MLOAD PUSH2 0x672 SWAP2 SWAP1 PUSH2 0x2609 JUMP JUMPDEST PUSH1 0x40 MLOAD DUP1 SWAP2 SUB SWAP1 LOG1 POP JUMP JUMPDEST PUSH0 PUSH1 0x2 PUSH0 DUP5 DUP2 MSTORE PUSH1 0x20 ADD SWAP1 DUP2 MSTORE PUSH1 0x20 ADD PUSH0 KECCAK256 SWAP1 POP PUSH1 0x3 PUSH1 0x5 DUP2 GT ISZERO PUSH2 0x6A5 JUMPI PUSH2 0x6A4 PUSH2 0x2622 JUMP JUMPDEST JUMPDEST DUP2 PUSH1 0x1 ADD PUSH0 SWAP1 SLOAD SWAP1 PUSH2 0x100 EXP SWAP1 DIV PUSH1 0xFF AND PUSH1 0x5 DUP2 GT ISZERO PUSH2 0x6C8 JUMPI PUSH2 0x6C7 PUSH2 0x2622 JUMP JUMPDEST JUMPDEST EQ PUSH2 0x708 JUMPI PUSH1 0x40 MLOAD PUSH32 0x8C379A000000000000000000000000000000000000000000000000000000000 DUP2 MSTORE PUSH1 0x4 ADD PUSH2 0x6FF SWAP1 PUSH2 0x2699 JUMP JUMPDEST PUSH1 0x40 MLOAD DUP1 SWAP2 SUB SWAP1 REVERT JUMPDEST PUSH1 0x1 PUSH0 CALLER PUSH20 0xFFFFFFFFFFFFFFFFFFFFFFFFFFFFFFFFFFFFFFFF AND PUSH20 0xFFFFFFFFFFFFFFFFFFFFFFFFFFFFFFFFFFFFFFFF AND DUP2 MSTORE PUSH1 0x20 ADD SWAP1 DUP2 MSTORE PUSH1 0x20 ADD PUSH0 KECCAK256 PUSH0 SWAP1 SLOAD SWAP1 PUSH2 0x100 EXP SWAP1 DIV PUSH1 0xFF AND PUSH2 0x791 JUMPI PUSH1 0x40 MLOAD PUSH32 0x8C379A000000000000000000000000000000000000000000000000000000000 DUP2 MSTORE PUSH1 0x4 ADD PUSH2 0x788 SWAP1 PUSH2 0x2701 JUMP JUMPDEST PUSH1 0x40 MLOAD DUP1 SWAP2 SUB SWAP1 REVERT JUMPDEST DUP1 PUSH1 0x5 ADD PUSH0 CALLER PUSH20 0xFFFFFFFFFFFFFFFFFFFFFFFFFFFFFFFFFFFFFFFF AND PUSH20 0xFFFFFFFFFFFFFFFFFFFFFFFFFFFFFFFFFFFFFFFF AND DUP2 MSTORE PUSH1 0x20 ADD SWAP1 DUP2 MSTORE PUSH1 0x20 ADD PUSH0 KECCAK256 PUSH0 SWAP1 SLOAD SWAP1 PUSH2 0x100 EXP SWAP1 DIV PUSH1 0xFF AND ISZERO PUSH2 0x81D JUMPI PUSH1 0x40 MLOAD PUSH32 0x8C379A000000000000000000000000000000000000000000000000000000000 DUP2 MSTORE PUSH1 0x4 ADD PUSH2 0x814 SWAP1 PUSH2 0x2769 JUMP JUMPDEST PUSH1 0x40 MLOAD DUP1 SWAP2 SUB SWAP1 REVERT JUMPDEST PUSH0 DUP2 PUSH1 0x4 ADD DUP4 DUP2 SLOAD DUP2 LT PUSH2 0x834 JUMPI PUSH2 0x833 PUSH2 0x2301 JUMP JUMPDEST JUMPDEST SWAP1 PUSH0 MSTORE PUSH1 0x20 PUSH0 KECCAK256 SWAP1 PUSH1 0x3 MUL ADD SWAP1 POP DUP1 PUSH1 0x2 ADD PUSH0 DUP2 SLOAD DUP1 SWAP3 SWAP2 SWAP1 PUSH2 0x856 SWAP1 PUSH2 0x22BA JUMP JUMPDEST SWAP2 SWAP1 POP SSTORE POP PUSH1 0x1 DUP3 PUSH1 0x5 ADD PUSH0 CALLER PUSH20 0xFFFFFFFFFFFFFFFFFFFFFFFFFFFFFFFFFFFFFFFF AND PUSH20 0xFFFFFFFFFFFFFFFFFFFFFFFFFFFFFFFFFFFFFFFF AND DUP2 MSTORE PUSH1 0x20 ADD SWAP1 DUP2 MSTORE PUSH1 0x20 ADD PUSH0 KECCAK256 PUSH0 PUSH2 0x100 EXP DUP2 SLOAD DUP2 PUSH1 0xFF MUL NOT AND SWAP1 DUP4 ISZERO ISZERO MUL OR SWAP1 SSTORE POP DUP2 PUSH1 0x3 ADD SLOAD DUP2 PUSH1 0x2 ADD SLOAD GT ISZERO PUSH2 0x8D0 JUMPI DUP1 PUSH1 0x2 ADD SLOAD DUP3 PUSH1 0x3 ADD DUP2 SWAP1 SSTORE POP JUMPDEST PUSH32 0x1ABE610CF2BF87E57DCC1181FCF5AC0934E843D8344AB9EED6E86C799F62585E DUP5 CALLER DUP6 PUSH1 0x40 MLOAD PUSH2 0x903 SWAP4 SWAP3 SWAP2 SWAP1 PUSH2 0x2787 JUMP JUMPDEST PUSH1 0x40 MLOAD DUP1 SWAP2 SUB SWAP1 LOG1 POP POP POP POP JUMP JUMPDEST PUSH2 0x919 PUSH2 0x18CD JUMP JUMPDEST PUSH0 PUSH1 0x2 PUSH0 DUP4 DUP2 MSTORE PUSH1 0x20 ADD SWAP1 DUP2 MSTORE PUSH1 0x20 ADD PUSH0 KECCAK256 SWAP1 POP PUSH1 0x3 PUSH1 0x5 DUP2 GT ISZERO PUSH2 0x941 JUMPI PUSH2 0x940 PUSH2 0x2622 JUMP JUMPDEST JUMPDEST DUP2 PUSH1 0x1 ADD PUSH0 SWAP1 SLOAD SWAP1 PUSH2 0x100 EXP SWAP1 DIV PUSH1 0xFF AND PUSH1 0x5 DUP2 GT ISZERO PUSH2 0x964 JUMPI PUSH2 0x963 PUSH2 0x2622 JUMP JUMPDEST JUMPDEST EQ PUSH2 0x9A4 JUMPI PUSH1 0x40 MLOAD PUSH32 0x8C379A000000000000000000000000000000000000000000000000000000000 DUP2 MSTORE PUSH1 0x4 ADD PUSH2 0x99B SWAP1 PUSH2 0x2806 JUMP JUMPDEST PUSH1 0x40 MLOAD DUP1 SWAP2 SUB SWAP1 REVERT JUMPDEST PUSH0 DUP2 PUSH1 0x3 ADD SLOAD GT PUSH2 0x9EA JUMPI PUSH1 0x40 MLOAD PUSH32 0x8C379A000000000000000000000000000000000000000000000000000000000 DUP2 MSTORE PUSH1 0x4 ADD PUSH2 0x9E1 SWAP1 PUSH2 0x286E JUMP JUMPDEST PUSH1 0x40 MLOAD DUP1 SWAP2 SUB SWAP1 REVERT JUMPDEST PUSH1 0x4 DUP2 PUSH1 0x1 ADD PUSH0 PUSH2 0x100 EXP DUP2 SLOAD DUP2 PUSH1 0xFF MUL NOT AND SWAP1 DUP4 PUSH1 0x5 DUP2 GT ISZERO PUSH2 0xA11 JUMPI PUSH2 0xA10 PUSH2 0x2622 JUMP JUMPDEST JUMPDEST MUL OR SWAP1 SSTORE POP PUSH32 0xB067099E10826978A3867510AD1E0DCF4CA5CEF8E422FD8DF2FC3D679167FE8D DUP3 PUSH1 0x3 PUSH1 0x4 PUSH1 0x40 MLOAD PUSH2 0xA4B SWAP4 SWAP3 SWAP2 SWAP1 PUSH2 0x28D2 JUMP JUMPDEST PUSH1 0x40 MLOAD DUP1 SWAP2 SUB SWAP1 LOG1 POP POP JUMP JUMPDEST PUSH2 0x200 DUP2 MLOAD GT ISZERO PUSH2 0xA9D JUMPI PUSH1 0x40 MLOAD PUSH32 0x8C379A000000000000000000000000000000000000000000000000000000000 DUP2 MSTORE PUSH1 0x4 ADD PUSH2 0xA94 SWAP1 PUSH2 0x2977 JUMP JUMPDEST PUSH1 0x40 MLOAD DUP1 SWAP2 SUB SWAP1 REVERT JUMPDEST PUSH0 PUSH1 0x2 PUSH0 DUP5 DUP2 MSTORE PUSH1 0x20 ADD SWAP1 DUP2 MSTORE PUSH1 0x20 ADD PUSH0 KECCAK256 SWAP1 POP PUSH1 0x1 PUSH1 0x5 DUP2 GT ISZERO PUSH2 0xAC5 JUMPI PUSH2 0xAC4 PUSH2 0x2622 JUMP JUMPDEST JUMPDEST DUP2 PUSH1 0x1 ADD PUSH0 SWAP1 SLOAD SWAP1 PUSH2 0x100 EXP SWAP1 DIV PUSH1 0xFF AND PUSH1 0x5 DUP2 GT ISZERO PUSH2 0xAE8 JUMPI PUSH2 0xAE7 PUSH2 0x2622 JUMP JUMPDEST JUMPDEST EQ PUSH2 0xB28 JUMPI PUSH1 0x40 MLOAD PUSH32 0x8C379A000000000000000000000000000000000000000000000000000000000 DUP2 MSTORE PUSH1 0x4 ADD PUSH2 0xB1F SWAP1 PUSH2 0x2699 JUMP JUMPDEST PUSH1 0x40 MLOAD DUP1 SWAP2 SUB SWAP1 REVERT JUMPDEST PUSH1 0x1 PUSH0 CALLER PUSH20 0xFFFFFFFFFFFFFFFFFFFFFFFFFFFFFFFFFFFFFFFF AND PUSH20 0xFFFFFFFFFFFFFFFFFFFFFFFFFFFFFFFFFFFFFFFF AND DUP2 MSTORE PUSH1 0x20 ADD SWAP1 DUP2 MSTORE PUSH1 0x20 ADD PUSH0 KECCAK256 PUSH0 SWAP1 SLOAD SWAP1 PUSH2 0x100 EXP SWAP1 DIV PUSH1 0xFF AND PUSH2 0xBB1 JUMPI PUSH1 0x40 MLOAD PUSH32 0x8C379A000000000000000000000000000000000000000000000000000000000 DUP2 MSTORE PUSH1 0x4 ADD PUSH2 0xBA8 SWAP1 PUSH2 0x2701 JUMP JUMPDEST PUSH1 0x40 MLOAD DUP1 SWAP2 SUB SWAP1 REVERT JUMPDEST DUP1 PUSH1 0x4 ADD PUSH1 0x40 MLOAD DUP1 PUSH1 0x60 ADD PUSH1 0x40 MSTORE DUP1 DUP5 DUP2 MSTORE PUSH1 0x20 ADD CALLER PUSH20 0xFFFFFFFFFFFFFFFFFFFFFFFFFFFFFFFFFFFFFFFF AND DUP2 MSTORE PUSH1 0x20 ADD PUSH0 DUP2 MSTORE POP SWAP1 DUP1 PUSH1 0x1 DUP2 SLOAD ADD DUP1 DUP3 SSTORE DUP1 SWAP2 POP POP PUSH1 0x1 SWAP1 SUB SWAP1 PUSH0 MSTORE PUSH1 0x20 PUSH0 KECCAK256 SWAP1 PUSH1 0x3 MUL ADD PUSH0 SWAP1 SWAP2 SWAP1 SWAP2 SWAP1 SWAP2 POP PUSH0 DUP3 ADD MLOAD DUP2 PUSH0 ADD SWAP1 DUP2 PUSH2 0xC1F SWAP2 SWAP1 PUSH2 0x252B JUMP JUMPDEST POP PUSH1 0x20 DUP3 ADD MLOAD DUP2 PUSH1 0x1 ADD PUSH0 PUSH2 0x100 EXP DUP2 SLOAD DUP2 PUSH20 0xFFFFFFFFFFFFFFFFFFFFFFFFFFFFFFFFFFFFFFFF MUL NOT AND SWAP1 DUP4 PUSH20 0xFFFFFFFFFFFFFFFFFFFFFFFFFFFFFFFFFFFFFFFF AND MUL OR SWAP1 SSTORE POP PUSH1 0x40 DUP3 ADD MLOAD DUP2 PUSH1 0x2 ADD SSTORE POP POP PUSH32 0xCA195036D7C4D40B171AD51E9C891C830A0AD9A5E114B5B075CDF791317E300C DUP2 PUSH0 ADD SLOAD PUSH1 0x1 DUP4 PUSH1 0x4 ADD DUP1 SLOAD SWAP1 POP PUSH2 0xCAB SWAP2 SWAP1 PUSH2 0x2995 JUMP JUMPDEST PUSH1 0x40 MLOAD PUSH2 0xCB9 SWAP3 SWAP2 SWAP1 PUSH2 0x29C8 JUMP JUMPDEST PUSH1 0x40 MLOAD DUP1 SWAP2 SUB SWAP1 LOG1 POP POP POP JUMP JUMPDEST PUSH0 PUSH1 0x1 PUSH0 DUP4 PUSH20 0xFFFFFFFFFFFFFFFFFFFFFFFFFFFFFFFFFFFFFFFF AND PUSH20 0xFFFFFFFFFFFFFFFFFFFFFFFFFFFFFFFFFFFFFFFF AND DUP2 MSTORE PUSH1 0x20 ADD SWAP1 DUP2 MSTORE PUSH1 0x20 ADD PUSH0 KECCAK256 PUSH0 SWAP1 SLOAD SWAP1 PUSH2 0x100 EXP SWAP1 DIV PUSH1 0xFF AND SWAP1 POP SWAP2 SWAP1 POP JUMP JUMPDEST PUSH0 PUSH1 0x2 PUSH0 DUP5 DUP2 MSTORE PUSH1 0x20 ADD SWAP1 DUP2 MSTORE PUSH1 0x20 ADD PUSH0 KECCAK256 PUSH1 0x5 ADD PUSH0 DUP4 PUSH20 0xFFFFFFFFFFFFFFFFFFFFFFFFFFFFFFFFFFFFFFFF AND PUSH20 0xFFFFFFFFFFFFFFFFFFFFFFFFFFFFFFFFFFFFFFFF AND DUP2 MSTORE PUSH1 0x20 ADD SWAP1 DUP2 MSTORE PUSH1 0x20 ADD PUSH0 KECCAK256 PUSH0 SWAP1 SLOAD SWAP1 PUSH2 0x100 EXP SWAP1 DIV PUSH1 0xFF AND SWAP1 POP SWAP3 SWAP2 POP POP JUMP JUMPDEST PUSH2 0xD85 PUSH2 0x18CD JUMP JUMPDEST PUSH2 0xD8E PUSH0 PUSH2 0x1954 JUMP JUMPDEST JUMP JUMPDEST PUSH2 0xD98 PUSH2 0x1A1C JUMP JUMPDEST PUSH0 PUSH1 0x2 PUSH0 DUP5 DUP2 MSTORE PUSH1 0x20 ADD SWAP1 DUP2 MSTORE PUSH1 0x20 ADD PUSH0 KECCAK256 SWAP1 POP DUP1 PUSH1 0x4 ADD DUP2 PUSH1 0x2 ADD SLOAD DUP2 SLOAD DUP2 LT PUSH2 0xDC6 JUMPI PUSH2 0xDC5 PUSH2 0x2301 JUMP JUMPDEST JUMPDEST SWAP1 PUSH0 MSTORE PUSH1 0x20 PUSH0 KECCAK256 SWAP1 PUSH1 0x3 MUL ADD PUSH1 0x40 MLOAD DUP1 PUSH1 0x60 ADD PUSH1 0x40 MSTORE SWAP1 DUP2 PUSH0 DUP3 ADD DUP1 SLOAD PUSH2 0xDEC SWAP1 PUSH2 0x235B JUMP JUMPDEST DUP1 PUSH1 0x1F ADD PUSH1 0x20 DUP1 SWAP2 DIV MUL PUSH1 0x20 ADD PUSH1 0x40 MLOAD SWAP1 DUP2 ADD PUSH1 0x40 MSTORE DUP1 SWAP3 SWAP2 SWAP1 DUP2 DUP2 MSTORE PUSH1 0x20 ADD DUP3 DUP1 SLOAD PUSH2 0xE18 SWAP1 PUSH2 0x235B JUMP JUMPDEST DUP1 ISZERO PUSH2 0xE63 JUMPI DUP1 PUSH1 0x1F LT PUSH2 0xE3A JUMPI PUSH2 0x100 DUP1 DUP4 SLOAD DIV MUL DUP4 MSTORE SWAP2 PUSH1 0x20 ADD SWAP2 PUSH2 0xE63 JUMP JUMPDEST DUP3 ADD SWAP2 SWAP1 PUSH0 MSTORE PUSH1 0x20 PUSH0 KECCAK256 SWAP1 JUMPDEST DUP2 SLOAD DUP2 MSTORE SWAP1 PUSH1 0x1 ADD SWAP1 PUSH1 0x20 ADD DUP1 DUP4 GT PUSH2 0xE46 JUMPI DUP3 SWAP1 SUB PUSH1 0x1F AND DUP3 ADD SWAP2 JUMPDEST POP POP POP POP POP DUP2 MSTORE PUSH1 0x20 ADD PUSH1 0x1 DUP3 ADD PUSH0 SWAP1 SLOAD SWAP1 PUSH2 0x100 EXP SWAP1 DIV PUSH20 0xFFFFFFFFFFFFFFFFFFFFFFFFFFFFFFFFFFFFFFFF AND PUSH20 0xFFFFFFFFFFFFFFFFFFFFFFFFFFFFFFFFFFFFFFFF AND PUSH20 0xFFFFFFFFFFFFFFFFFFFFFFFFFFFFFFFFFFFFFFFF AND DUP2 MSTORE PUSH1 0x20 ADD PUSH1 0x2 DUP3 ADD SLOAD DUP2 MSTORE POP POP SWAP2 POP POP SWAP2 SWAP1 POP JUMP JUMPDEST PUSH2 0xEDB PUSH2 0x18CD JUMP JUMPDEST PUSH0 PUSH1 0x2 PUSH0 DUP4 DUP2 MSTORE PUSH1 0x20 ADD SWAP1 DUP2 MSTORE PUSH1 0x20 ADD PUSH0 KECCAK256 SWAP1 POP PUSH0 PUSH1 0x5 DUP2 GT ISZERO PUSH2 0xF02 JUMPI PUSH2 0xF01 PUSH2 0x2622 JUMP JUMPDEST JUMPDEST DUP2 PUSH1 0x1 ADD PUSH0 SWAP1 SLOAD SWAP1 PUSH2 0x100 EXP SWAP1 DIV PUSH1 0xFF AND PUSH1 0x5 DUP2 GT ISZERO PUSH2 0xF25 JUMPI PUSH2 0xF24 PUSH2 0x2622 JUMP JUMPDEST JUMPDEST EQ PUSH2 0xF2E JUMPI PUSH0 PUSH0 REVERT JUMPDEST PUSH1 0x1 DUP2 PUSH1 0x1 ADD PUSH0 PUSH2 0x100 EXP DUP2 SLOAD DUP2 PUSH1 0xFF MUL NOT AND SWAP1 DUP4 PUSH1 0x5 DUP2 GT ISZERO PUSH2 0xF55 JUMPI PUSH2 0xF54 PUSH2 0x2622 JUMP JUMPDEST JUMPDEST MUL OR SWAP1 SSTORE POP PUSH32 0xB067099E10826978A3867510AD1E0DCF4CA5CEF8E422FD8DF2FC3D679167FE8D DUP3 PUSH0 PUSH1 0x1 PUSH1 0x40 MLOAD PUSH2 0xF8E SWAP4 SWAP3 SWAP2 SWAP1 PUSH2 0x28D2 JUMP JUMPDEST PUSH1 0x40 MLOAD DUP1 SWAP2 SUB SWAP1 LOG1 POP POP JUMP JUMPDEST PUSH0 PUSH0 PUSH0 SWAP1 SLOAD SWAP1 PUSH2 0x100 EXP SWAP1 DIV PUSH20 0xFFFFFFFFFFFFFFFFFFFFFFFFFFFFFFFFFFFFFFFF AND SWAP1 POP SWAP1 JUMP JUMPDEST PUSH2 0xFC9 PUSH2 0x1A1C JUMP JUMPDEST PUSH1 0x2 PUSH0 DUP5 DUP2 MSTORE PUSH1 0x20 ADD SWAP1 DUP2 MSTORE PUSH1 0x20 ADD PUSH0 KECCAK256 PUSH1 0x4 ADD DUP3 DUP2 SLOAD DUP2 LT PUSH2 0xFEF JUMPI PUSH2 0xFEE PUSH2 0x2301 JUMP JUMPDEST JUMPDEST SWAP1 PUSH0 MSTORE PUSH1 0x20 PUSH0 KECCAK256 SWAP1 PUSH1 0x3 MUL ADD PUSH1 0x40 MLOAD DUP1 PUSH1 0x60 ADD PUSH1 0x40 MSTORE SWAP1 DUP2 PUSH0 DUP3 ADD DUP1 SLOAD PUSH2 0x1015 SWAP1 PUSH2 0x235B JUMP JUMPDEST DUP1 PUSH1 0x1F ADD PUSH1 0x20 DUP1 SWAP2 DIV MUL PUSH1 0x20 ADD PUSH1 0x40 MLOAD SWAP1 DUP2 ADD PUSH1 0x40 MSTORE DUP1 SWAP3 SWAP2 SWAP1 DUP2 DUP2 MSTORE PUSH1 0x20 ADD DUP3 DUP1 SLOAD PUSH2 0x1041 SWAP1 PUSH2 0x235B JUMP JUMPDEST DUP1 ISZERO PUSH2 0x108C JUMPI DUP1 PUSH1 0x1F LT PUSH2 0x1063 JUMPI PUSH2 0x100 DUP1 DUP4 SLOAD DIV MUL DUP4 MSTORE SWAP2 PUSH1 0x20 ADD SWAP2 PUSH2 0x108C JUMP JUMPDEST DUP3 ADD SWAP2 SWAP1 PUSH0 MSTORE PUSH1 0x20 PUSH0 KECCAK256 SWAP1 JUMPDEST DUP2 SLOAD DUP2 MSTORE SWAP1 PUSH1 0x1 ADD SWAP1 PUSH1 0x20 ADD DUP1 DUP4 GT PUSH2 0x106F JUMPI DUP3 SWAP1 SUB PUSH1 0x1F AND DUP3 ADD SWAP2 JUMPDEST POP POP POP POP POP DUP2 MSTORE PUSH1 0x20 ADD PUSH1 0x1 DUP3 ADD PUSH0 SWAP1 SLOAD SWAP1 PUSH2 0x100 EXP SWAP1 DIV PUSH20 0xFFFFFFFFFFFFFFFFFFFFFFFFFFFFFFFFFFFFFFFF AND PUSH20 0xFFFFFFFFFFFFFFFFFFFFFFFFFFFFFFFFFFFFFFFF AND PUSH20 0xFFFFFFFFFFFFFFFFFFFFFFFFFFFFFFFFFFFFFFFF AND DUP2 MSTORE PUSH1 0x20 ADD PUSH1 0x2 DUP3 ADD SLOAD DUP2 MSTORE POP POP SWAP1 POP SWAP3 SWAP2 POP POP JUMP JUMPDEST PUSH2 0x1104 PUSH2 0x18CD JUMP JUMPDEST PUSH0 PUSH1 0x2 PUSH0 DUP4 DUP2 MSTORE PUSH1 0x20 ADD SWAP1 DUP2 MSTORE PUSH1 0x20 ADD PUSH0 KECCAK256 SWAP1 POP PUSH1 0x2 PUSH1 0x5 DUP2 GT ISZERO PUSH2 0x112C JUMPI PUSH2 0x112B PUSH2 0x2622 JUMP JUMPDEST JUMPDEST DUP2 PUSH1 0x1 ADD PUSH0 SWAP1 SLOAD SWAP1 PUSH2 0x100 EXP SWAP1 DIV PUSH1 0xFF AND PUSH1 0x5 DUP2 GT ISZERO PUSH2 0x114F JUMPI PUSH2 0x114E PUSH2 0x2622 JUMP JUMPDEST JUMPDEST EQ PUSH2 0x118F JUMPI PUSH1 0x40 MLOAD PUSH32 0x8C379A000000000000000000000000000000000000000000000000000000000 DUP2 MSTORE PUSH1 0x4 ADD PUSH2 0x1186 SWAP1 PUSH2 0x2A39 JUMP JUMPDEST PUSH1 0x40 MLOAD DUP1 SWAP2 SUB SWAP1 REVERT JUMPDEST PUSH1 0x3 DUP2 PUSH1 0x1 ADD PUSH0 PUSH2 0x100 EXP DUP2 SLOAD DUP2 PUSH1 0xFF MUL NOT AND SWAP1 DUP4 PUSH1 0x5 DUP2 GT ISZERO PUSH2 0x11B6 JUMPI PUSH2 0x11B5 PUSH2 0x2622 JUMP JUMPDEST JUMPDEST MUL OR SWAP1 SSTORE POP PUSH32 0xB067099E10826978A3867510AD1E0DCF4CA5CEF8E422FD8DF2FC3D679167FE8D DUP3 PUSH1 0x2 PUSH1 0x3 PUSH1 0x40 MLOAD PUSH2 0x11F0 SWAP4 SWAP3 SWAP2 SWAP1 PUSH2 0x28D2 JUMP JUMPDEST PUSH1 0x40 MLOAD DUP1 SWAP2 SUB SWAP1 LOG1 POP POP JUMP JUMPDEST PUSH1 0x1 PUSH1 0x20 MSTORE DUP1 PUSH0 MSTORE PUSH1 0x40 PUSH0 KECCAK256 PUSH0 SWAP2 POP SLOAD SWAP1 PUSH2 0x100 EXP SWAP1 DIV PUSH1 0xFF AND DUP2 JUMP JUMPDEST PUSH1 0x60 PUSH1 0x2 PUSH0 DUP4 DUP2 MSTORE PUSH1 0x20 ADD SWAP1 DUP2 MSTORE PUSH1 0x20 ADD PUSH0 KECCAK256 PUSH1 0x4 ADD DUP1 SLOAD DUP1 PUSH1 0x20 MUL PUSH1 0x20 ADD PUSH1 0x40 MLOAD SWAP1 DUP2 ADD PUSH1 0x40 MSTORE DUP1 SWAP3 SWAP2 SWAP1 DUP2 DUP2 MSTORE PUSH1 0x20 ADD PUSH0 SWAP1 JUMPDEST DUP3 DUP3 LT ISZERO PUSH2 0x136C JUMPI DUP4 DUP3 SWAP1 PUSH0 MSTORE PUSH1 0x20 PUSH0 KECCAK256 SWAP1 PUSH1 0x3 MUL ADD PUSH1 0x40 MLOAD DUP1 PUSH1 0x60 ADD PUSH1 0x40 MSTORE SWAP1 DUP2 PUSH0 DUP3 ADD DUP1 SLOAD PUSH2 0x127E SWAP1 PUSH2 0x235B JUMP JUMPDEST DUP1 PUSH1 0x1F ADD PUSH1 0x20 DUP1 SWAP2 DIV MUL PUSH1 0x20 ADD PUSH1 0x40 MLOAD SWAP1 DUP2 ADD PUSH1 0x40 MSTORE DUP1 SWAP3 SWAP2 SWAP1 DUP2 DUP2 MSTORE PUSH1 0x20 ADD DUP3 DUP1 SLOAD PUSH2 0x12AA SWAP1 PUSH2 0x235B JUMP JUMPDEST DUP1 ISZERO PUSH2 0x12F5 JUMPI DUP1 PUSH1 0x1F LT PUSH2 0x12CC JUMPI PUSH2 0x100 DUP1 DUP4 SLOAD DIV MUL DUP4 MSTORE SWAP2 PUSH1 0x20 ADD SWAP2 PUSH2 0x12F5 JUMP JUMPDEST DUP3 ADD SWAP2 SWAP1 PUSH0 MSTORE PUSH1 0x20 PUSH0 KECCAK256 SWAP1 JUMPDEST DUP2 SLOAD DUP2 MSTORE SWAP1 PUSH1 0x1 ADD SWAP1 PUSH1 0x20 ADD DUP1 DUP4 GT PUSH2 0x12D8 JUMPI DUP3 SWAP1 SUB PUSH1 0x1F AND DUP3 ADD SWAP2 JUMPDEST POP POP POP POP POP DUP2 MSTORE PUSH1 0x20 ADD PUSH1 0x1 DUP3 ADD PUSH0 SWAP1 SLOAD SWAP1 PUSH2 0x100 EXP SWAP1 DIV PUSH20 0xFFFFFFFFFFFFFFFFFFFFFFFFFFFFFFFFFFFFFFFF AND PUSH20 0xFFFFFFFFFFFFFFFFFFFFFFFFFFFFFFFFFFFFFFFF AND PUSH20 0xFFFFFFFFFFFFFFFFFFFFFFFFFFFFFFFFFFFFFFFF AND DUP2 MSTORE PUSH1 0x20 ADD PUSH1 0x2 DUP3 ADD SLOAD DUP2 MSTORE POP POP DUP2 MSTORE PUSH1 0x20 ADD SWAP1 PUSH1 0x1 ADD SWAP1 PUSH2 0x124E JUMP JUMPDEST POP POP POP POP SWAP1 POP SWAP2 SWAP1 POP JUMP JUMPDEST PUSH2 0x137F PUSH2 0x18CD JUMP JUMPDEST PUSH0 PUSH1 0x2 PUSH0 DUP4 DUP2 MSTORE PUSH1 0x20 ADD SWAP1 DUP2 MSTORE PUSH1 0x20 ADD PUSH0 KECCAK256 SWAP1 POP PUSH1 0x1 PUSH1 0x5 DUP2 GT ISZERO PUSH2 0x13A7 JUMPI PUSH2 0x13A6 PUSH2 0x2622 JUMP JUMPDEST JUMPDEST DUP2 PUSH1 0x1 ADD PUSH0 SWAP1 SLOAD SWAP1 PUSH2 0x100 EXP SWAP1 DIV PUSH1 0xFF AND PUSH1 0x5 DUP2 GT ISZERO PUSH2 0x13CA JUMPI PUSH2 0x13C9 PUSH2 0x2622 JUMP JUMPDEST JUMPDEST EQ PUSH2 0x140A JUMPI PUSH1 0x40 MLOAD PUSH32 0x8C379A000000000000000000000000000000000000000000000000000000000 DUP2 MSTORE PUSH1 0x4 ADD PUSH2 0x1401 SWAP1 PUSH2 0x2AC7 JUMP JUMPDEST PUSH1 0x40 MLOAD DUP1 SWAP2 SUB SWAP1 REVERT JUMPDEST PUSH0 DUP2 PUSH1 0x4 ADD DUP1 SLOAD SWAP1 POP GT PUSH2 0x1453 JUMPI PUSH1 0x40 MLOAD PUSH32 0x8C379A000000000000000000000000000000000000000000000000000000000 DUP2 MSTORE PUSH1 0x4 ADD PUSH2 0x144A SWAP1 PUSH2 0x2B2F JUMP JUMPDEST PUSH1 0x40 MLOAD DUP1 SWAP2 SUB SWAP1 REVERT JUMPDEST PUSH1 0x2 DUP2 PUSH1 0x1 ADD PUSH0 PUSH2 0x100 EXP DUP2 SLOAD DUP2 PUSH1 0xFF MUL NOT AND SWAP1 DUP4 PUSH1 0x5 DUP2 GT ISZERO PUSH2 0x147A JUMPI PUSH2 0x1479 PUSH2 0x2622 JUMP JUMPDEST JUMPDEST MUL OR SWAP1 SSTORE POP PUSH32 0xB067099E10826978A3867510AD1E0DCF4CA5CEF8E422FD8DF2FC3D679167FE8D DUP3 PUSH1 0x1 PUSH1 0x2 PUSH1 0x40 MLOAD PUSH2 0x14B4 SWAP4 SWAP3 SWAP2 SWAP1 PUSH2 0x28D2 JUMP JUMPDEST PUSH1 0x40 MLOAD DUP1 SWAP2 SUB SWAP1 LOG1 POP POP JUMP JUMPDEST PUSH2 0x14C8 PUSH2 0x18CD JUMP JUMPDEST PUSH0 PUSH1 0x2 PUSH0 DUP4 DUP2 MSTORE PUSH1 0x20 ADD SWAP1 DUP2 MSTORE PUSH1 0x20 ADD PUSH0 KECCAK256 SWAP1 POP PUSH1 0x4 PUSH1 0x5 DUP2 GT ISZERO PUSH2 0x14F0 JUMPI PUSH2 0x14EF PUSH2 0x2622 JUMP JUMPDEST JUMPDEST DUP2 PUSH1 0x1 ADD PUSH0 SWAP1 SLOAD SWAP1 PUSH2 0x100 EXP SWAP1 DIV PUSH1 0xFF AND PUSH1 0x5 DUP2 GT ISZERO PUSH2 0x1513 JUMPI PUSH2 0x1512 PUSH2 0x2622 JUMP JUMPDEST JUMPDEST EQ PUSH2 0x1553 JUMPI PUSH1 0x40 MLOAD PUSH32 0x8C379A000000000000000000000000000000000000000000000000000000000 DUP2 MSTORE PUSH1 0x4 ADD PUSH2 0x154A SWAP1 PUSH2 0x2B97 JUMP JUMPDEST PUSH1 0x40 MLOAD DUP1 SWAP2 SUB SWAP1 REVERT JUMPDEST PUSH0 DUP2 PUSH1 0x4 ADD SWAP1 POP PUSH0 PUSH0 PUSH0 SWAP1 POP JUMPDEST DUP3 DUP1 SLOAD SWAP1 POP DUP2 LT ISZERO PUSH2 0x15B5 JUMPI DUP4 PUSH1 0x3 ADD SLOAD DUP4 DUP3 DUP2 SLOAD DUP2 LT PUSH2 0x1584 JUMPI PUSH2 0x1583 PUSH2 0x2301 JUMP JUMPDEST JUMPDEST SWAP1 PUSH0 MSTORE PUSH1 0x20 PUSH0 KECCAK256 SWAP1 PUSH1 0x3 MUL ADD PUSH1 0x2 ADD SLOAD SUB PUSH2 0x15A8 JUMPI DUP2 DUP1 PUSH2 0x15A4 SWAP1 PUSH2 0x22BA JUMP JUMPDEST SWAP3 POP POP JUMPDEST DUP1 DUP1 PUSH1 0x1 ADD SWAP2 POP POP PUSH2 0x1560 JUMP JUMPDEST POP PUSH0 DUP2 PUSH8 0xFFFFFFFFFFFFFFFF DUP2 GT ISZERO PUSH2 0x15D1 JUMPI PUSH2 0x15D0 PUSH2 0x1B43 JUMP JUMPDEST JUMPDEST PUSH1 0x40 MLOAD SWAP1 DUP1 DUP3 MSTORE DUP1 PUSH1 0x20 MUL PUSH1 0x20 ADD DUP3 ADD PUSH1 0x40 MSTORE DUP1 ISZERO PUSH2 0x160A JUMPI DUP2 PUSH1 0x20 ADD JUMPDEST PUSH2 0x15F7 PUSH2 0x1A1C JUMP JUMPDEST DUP2 MSTORE PUSH1 0x20 ADD SWAP1 PUSH1 0x1 SWAP1 SUB SWAP1 DUP2 PUSH2 0x15EF JUMPI SWAP1 POP JUMPDEST POP SWAP1 POP PUSH0 PUSH0 PUSH0 SWAP1 POP JUMPDEST DUP5 DUP1 SLOAD SWAP1 POP DUP2 LT ISZERO PUSH2 0x17A7 JUMPI DUP6 PUSH1 0x3 ADD SLOAD DUP6 DUP3 DUP2 SLOAD DUP2 LT PUSH2 0x1637 JUMPI PUSH2 0x1636 PUSH2 0x2301 JUMP JUMPDEST JUMPDEST SWAP1 PUSH0 MSTORE PUSH1 0x20 PUSH0 KECCAK256 SWAP1 PUSH1 0x3 MUL ADD PUSH1 0x2 ADD SLOAD SUB PUSH2 0x179A JUMPI DUP5 DUP2 DUP2 SLOAD DUP2 LT PUSH2 0x165F JUMPI PUSH2 0x165E PUSH2 0x2301 JUMP JUMPDEST JUMPDEST SWAP1 PUSH0 MSTORE PUSH1 0x20 PUSH0 KECCAK256 SWAP1 PUSH1 0x3 MUL ADD PUSH1 0x40 MLOAD DUP1 PUSH1 0x60 ADD PUSH1 0x40 MSTORE SWAP1 DUP2 PUSH0 DUP3 ADD DUP1 SLOAD PUSH2 0x1685 SWAP1 PUSH2 0x235B JUMP JUMPDEST DUP1 PUSH1 0x1F ADD PUSH1 0x20 DUP1 SWAP2 DIV MUL PUSH1 0x20 ADD PUSH1 0x40 MLOAD SWAP1 DUP2 ADD PUSH1 0x40 MSTORE DUP1 SWAP3 SWAP2 SWAP1 DUP2 DUP2 MSTORE PUSH1 0x20 ADD DUP3 DUP1 SLOAD PUSH2 0x16B1 SWAP1 PUSH2 0x235B JUMP JUMPDEST DUP1 ISZERO PUSH2 0x16FC JUMPI DUP1 PUSH1 0x1F LT PUSH2 0x16D3 JUMPI PUSH2 0x100 DUP1 DUP4 SLOAD DIV MUL DUP4 MSTORE SWAP2 PUSH1 0x20 ADD SWAP2 PUSH2 0x16FC JUMP JUMPDEST DUP3 ADD SWAP2 SWAP1 PUSH0 MSTORE PUSH1 0x20 PUSH0 KECCAK256 SWAP1 JUMPDEST DUP2 SLOAD DUP2 MSTORE SWAP1 PUSH1 0x1 ADD SWAP1 PUSH1 0x20 ADD DUP1 DUP4 GT PUSH2 0x16DF JUMPI DUP3 SWAP1 SUB PUSH1 0x1F AND DUP3 ADD SWAP2 JUMPDEST POP POP POP POP POP DUP2 MSTORE PUSH1 0x20 ADD PUSH1 0x1 DUP3 ADD PUSH0 SWAP1 SLOAD SWAP1 PUSH2 0x100 EXP SWAP1 DIV PUSH20 0xFFFFFFFFFFFFFFFFFFFFFFFFFFFFFFFFFFFFFFFF AND PUSH20 0xFFFFFFFFFFFFFFFFFFFFFFFFFFFFFFFFFFFFFFFF AND PUSH20 0xFFFFFFFFFFFFFFFFFFFFFFFFFFFFFFFFFFFFFFFF AND DUP2 MSTORE PUSH1 0x20 ADD PUSH1 0x2 DUP3 ADD SLOAD DUP2 MSTORE POP POP DUP4 DUP4 DUP2 MLOAD DUP2 LT PUSH2 0x1777 JUMPI PUSH2 0x1776 PUSH2 0x2301 JUMP JUMPDEST JUMPDEST PUSH1 0x20 MUL PUSH1 0x20 ADD ADD DUP2 SWAP1 MSTORE POP DUP1 DUP7 PUSH1 0x2 ADD DUP2 SWAP1 SSTORE POP DUP2 DUP1 PUSH2 0x1796 SWAP1 PUSH2 0x22BA JUMP JUMPDEST SWAP3 POP POP JUMPDEST DUP1 DUP1 PUSH1 0x1 ADD SWAP2 POP POP PUSH2 0x1613 JUMP JUMPDEST POP PUSH1 0x1 DUP3 MLOAD SUB PUSH2 0x17F3 JUMPI PUSH32 0xA02A80459FBAB98547E0DB2CFB6EF274E962836A412718BB60FB14F1E6382E57 DUP7 DUP7 PUSH1 0x2 ADD SLOAD PUSH1 0x40 MLOAD PUSH2 0x17E6 SWAP3 SWAP2 SWAP1 PUSH2 0x29C8 JUMP JUMPDEST PUSH1 0x40 MLOAD DUP1 SWAP2 SUB SWAP1 LOG1 PUSH2 0x1841 JUMP JUMPDEST PUSH0 DUP6 PUSH1 0x2 ADD DUP2 SWAP1 SSTORE POP PUSH2 0x1809 DUP3 DUP7 PUSH0 ADD SLOAD PUSH2 0x4B5 JUMP JUMPDEST PUSH32 0xF647FDCCB52741A5FF3D2EF61826FC3FB196E30BF0A07A8A7D46E706D999D54 DUP7 PUSH1 0x40 MLOAD PUSH2 0x1838 SWAP2 SWAP1 PUSH2 0x2609 JUMP JUMPDEST PUSH1 0x40 MLOAD DUP1 SWAP2 SUB SWAP1 LOG1 JUMPDEST POP POP POP POP POP POP JUMP JUMPDEST PUSH2 0x1851 PUSH2 0x18CD JUMP JUMPDEST PUSH0 PUSH20 0xFFFFFFFFFFFFFFFFFFFFFFFFFFFFFFFFFFFFFFFF AND DUP2 PUSH20 0xFFFFFFFFFFFFFFFFFFFFFFFFFFFFFFFFFFFFFFFF AND SUB PUSH2 0x18C1 JUMPI PUSH0 PUSH1 0x40 MLOAD PUSH32 0x1E4FBDF700000000000000000000000000000000000000000000000000000000 DUP2 MSTORE PUSH1 0x4 ADD PUSH2 0x18B8 SWAP2 SWAP1 PUSH2 0x20AD JUMP JUMPDEST PUSH1 0x40 MLOAD DUP1 SWAP2 SUB SWAP1 REVERT JUMPDEST PUSH2 0x18CA DUP2 PUSH2 0x1954 JUMP JUMPDEST POP JUMP JUMPDEST PUSH2 0x18D5 PUSH2 0x1A15 JUMP JUMPDEST PUSH20 0xFFFFFFFFFFFFFFFFFFFFFFFFFFFFFFFFFFFFFFFF AND PUSH2 0x18F3 PUSH2 0xF9A JUMP JUMPDEST PUSH20 0xFFFFFFFFFFFFFFFFFFFFFFFFFFFFFFFFFFFFFFFF AND EQ PUSH2 0x1952 JUMPI PUSH2 0x1916 PUSH2 0x1A15 JUMP JUMPDEST PUSH1 0x40 MLOAD PUSH32 0x118CDAA700000000000000000000000000000000000000000000000000000000 DUP2 MSTORE PUSH1 0x4 ADD PUSH2 0x1949 SWAP2 SWAP1 PUSH2 0x20AD JUMP JUMPDEST PUSH1 0x40 MLOAD DUP1 SWAP2 SUB SWAP1 REVERT JUMPDEST JUMP JUMPDEST PUSH0 PUSH0 PUSH0 SWAP1 SLOAD SWAP1 PUSH2 0x100 EXP SWAP1 DIV PUSH20 0xFFFFFFFFFFFFFFFFFFFFFFFFFFFFFFFFFFFFFFFF AND SWAP1 POP DUP2 PUSH0 PUSH0 PUSH2 0x100 EXP DUP2 SLOAD DUP2 PUSH20 0xFFFFFFFFFFFFFFFFFFFFFFFFFFFFFFFFFFFFFFFF MUL NOT AND SWAP1 DUP4 PUSH20 0xFFFFFFFFFFFFFFFFFFFFFFFFFFFFFFFFFFFFFFFF AND MUL OR SWAP1 SSTORE POP DUP2 PUSH20 0xFFFFFFFFFFFFFFFFFFFFFFFFFFFFFFFFFFFFFFFF AND DUP2 PUSH20 0xFFFFFFFFFFFFFFFFFFFFFFFFFFFFFFFFFFFFFFFF AND PUSH32 0x8BE0079C531659141344CD1FD0A4F28419497F9722A3DAAFE3B4186F6B6457E0 PUSH1 0x40 MLOAD PUSH1 0x40 MLOAD DUP1 SWAP2 SUB SWAP1 LOG3 POP POP JUMP JUMPDEST PUSH0 CALLER SWAP1 POP SWAP1 JUMP JUMPDEST PUSH1 0x40 MLOAD DUP1 PUSH1 0x60 ADD PUSH1 0x40 MSTORE DUP1 PUSH1 0x60 DUP2 MSTORE PUSH1 0x20 ADD PUSH0 PUSH20 0xFFFFFFFFFFFFFFFFFFFFFFFFFFFFFFFFFFFFFFFF AND DUP2 MSTORE PUSH1 0x20 ADD PUSH0 DUP2 MSTORE POP SWAP1 JUMP JUMPDEST PUSH0 PUSH1 0x40 MLOAD SWAP1 POP SWAP1 JUMP JUMPDEST PUSH0 PUSH0 REVERT JUMPDEST PUSH0 PUSH0 REVERT JUMPDEST PUSH0 PUSH20 0xFFFFFFFFFFFFFFFFFFFFFFFFFFFFFFFFFFFFFFFF DUP3 AND SWAP1 POP SWAP2 SWAP1 POP JUMP JUMPDEST PUSH0 PUSH2 0x1A8B DUP3 PUSH2 0x1A62 JUMP JUMPDEST SWAP1 POP SWAP2 SWAP1 POP JUMP JUMPDEST PUSH2 0x1A9B DUP2 PUSH2 0x1A81 JUMP JUMPDEST DUP2 EQ PUSH2 0x1AA5 JUMPI PUSH0 PUSH0 REVERT JUMPDEST POP JUMP JUMPDEST PUSH0 DUP2 CALLDATALOAD SWAP1 POP PUSH2 0x1AB6 DUP2 PUSH2 0x1A92 JUMP JUMPDEST SWAP3 SWAP2 POP POP JUMP JUMPDEST PUSH0 DUP2 ISZERO ISZERO SWAP1 POP SWAP2 SWAP1 POP JUMP JUMPDEST PUSH2 0x1AD0 DUP2 PUSH2 0x1ABC JUMP JUMPDEST DUP2 EQ PUSH2 0x1ADA JUMPI PUSH0 PUSH0 REVERT JUMPDEST POP JUMP JUMPDEST PUSH0 DUP2 CALLDATALOAD SWAP1 POP PUSH2 0x1AEB DUP2 PUSH2 0x1AC7 JUMP JUMPDEST SWAP3 SWAP2 POP POP JUMP JUMPDEST PUSH0 PUSH0 PUSH1 0x40 DUP4 DUP6 SUB SLT ISZERO PUSH2 0x1B07 JUMPI PUSH2 0x1B06 PUSH2 0x1A5A JUMP JUMPDEST JUMPDEST PUSH0 PUSH2 0x1B14 DUP6 DUP3 DUP7 ADD PUSH2 0x1AA8 JUMP JUMPDEST SWAP3 POP POP PUSH1 0x20 PUSH2 0x1B25 DUP6 DUP3 DUP7 ADD PUSH2 0x1ADD JUMP JUMPDEST SWAP2 POP POP SWAP3 POP SWAP3 SWAP1 POP JUMP JUMPDEST PUSH0 PUSH0 REVERT JUMPDEST PUSH0 PUSH1 0x1F NOT PUSH1 0x1F DUP4 ADD AND SWAP1 POP SWAP2 SWAP1 POP JUMP JUMPDEST PUSH32 0x4E487B7100000000000000000000000000000000000000000000000000000000 PUSH0 MSTORE PUSH1 0x41 PUSH1 0x4 MSTORE PUSH1 0x24 PUSH0 REVERT JUMPDEST PUSH2 0x1B79 DUP3 PUSH2 0x1B33 JUMP JUMPDEST DUP2 ADD DUP2 DUP2 LT PUSH8 0xFFFFFFFFFFFFFFFF DUP3 GT OR ISZERO PUSH2 0x1B98 JUMPI PUSH2 0x1B97 PUSH2 0x1B43 JUMP JUMPDEST JUMPDEST DUP1 PUSH1 0x40 MSTORE POP POP POP JUMP JUMPDEST PUSH0 PUSH2 0x1BAA PUSH2 0x1A51 JUMP JUMPDEST SWAP1 POP PUSH2 0x1BB6 DUP3 DUP3 PUSH2 0x1B70 JUMP JUMPDEST SWAP2 SWAP1 POP JUMP JUMPDEST PUSH0 PUSH8 0xFFFFFFFFFFFFFFFF DUP3 GT ISZERO PUSH2 0x1BD5 JUMPI PUSH2 0x1BD4 PUSH2 0x1B43 JUMP JUMPDEST JUMPDEST PUSH1 0x20 DUP3 MUL SWAP1 POP PUSH1 0x20 DUP2 ADD SWAP1 POP SWAP2 SWAP1 POP JUMP JUMPDEST PUSH0 PUSH0 REVERT JUMPDEST PUSH0 PUSH0 REVERT JUMPDEST PUSH0 PUSH0 REVERT JUMPDEST PUSH0 PUSH0 REVERT JUMPDEST PUSH0 PUSH8 0xFFFFFFFFFFFFFFFF DUP3 GT ISZERO PUSH2 0x1C10 JUMPI PUSH2 0x1C0F PUSH2 0x1B43 JUMP JUMPDEST JUMPDEST PUSH2 0x1C19 DUP3 PUSH2 0x1B33 JUMP JUMPDEST SWAP1 POP PUSH1 0x20 DUP2 ADD SWAP1 POP SWAP2 SWAP1 POP JUMP JUMPDEST DUP3 DUP2 DUP4 CALLDATACOPY PUSH0 DUP4 DUP4 ADD MSTORE POP POP POP JUMP JUMPDEST PUSH0 PUSH2 0x1C46 PUSH2 0x1C41 DUP5 PUSH2 0x1BF6 JUMP JUMPDEST PUSH2 0x1BA1 JUMP JUMPDEST SWAP1 POP DUP3 DUP2 MSTORE PUSH1 0x20 DUP2 ADD DUP5 DUP5 DUP5 ADD GT ISZERO PUSH2 0x1C62 JUMPI PUSH2 0x1C61 PUSH2 0x1BF2 JUMP JUMPDEST JUMPDEST PUSH2 0x1C6D DUP5 DUP3 DUP6 PUSH2 0x1C26 JUMP JUMPDEST POP SWAP4 SWAP3 POP POP POP JUMP JUMPDEST PUSH0 DUP3 PUSH1 0x1F DUP4 ADD SLT PUSH2 0x1C89 JUMPI PUSH2 0x1C88 PUSH2 0x1B2F JUMP JUMPDEST JUMPDEST DUP2 CALLDATALOAD PUSH2 0x1C99 DUP5 DUP3 PUSH1 0x20 DUP7 ADD PUSH2 0x1C34 JUMP JUMPDEST SWAP2 POP POP SWAP3 SWAP2 POP POP JUMP JUMPDEST PUSH0 DUP2 SWAP1 POP SWAP2 SWAP1 POP JUMP JUMPDEST PUSH2 0x1CB4 DUP2 PUSH2 0x1CA2 JUMP JUMPDEST DUP2 EQ PUSH2 0x1CBE JUMPI PUSH0 PUSH0 REVERT JUMPDEST POP JUMP JUMPDEST PUSH0 DUP2 CALLDATALOAD SWAP1 POP PUSH2 0x1CCF DUP2 PUSH2 0x1CAB JUMP JUMPDEST SWAP3 SWAP2 POP POP JUMP JUMPDEST PUSH0 PUSH1 0x60 DUP3 DUP5 SUB SLT ISZERO PUSH2 0x1CEA JUMPI PUSH2 0x1CE9 PUSH2 0x1BEA JUMP JUMPDEST JUMPDEST PUSH2 0x1CF4 PUSH1 0x60 PUSH2 0x1BA1 JUMP JUMPDEST SWAP1 POP PUSH0 DUP3 ADD CALLDATALOAD PUSH8 0xFFFFFFFFFFFFFFFF DUP2 GT ISZERO PUSH2 0x1D13 JUMPI PUSH2 0x1D12 PUSH2 0x1BEE JUMP JUMPDEST JUMPDEST PUSH2 0x1D1F DUP5 DUP3 DUP6 ADD PUSH2 0x1C75 JUMP JUMPDEST PUSH0 DUP4 ADD MSTORE POP PUSH1 0x20 PUSH2 0x1D32 DUP5 DUP3 DUP6 ADD PUSH2 0x1AA8 JUMP JUMPDEST PUSH1 0x20 DUP4 ADD MSTORE POP PUSH1 0x40 PUSH2 0x1D46 DUP5 DUP3 DUP6 ADD PUSH2 0x1CC1 JUMP JUMPDEST PUSH1 0x40 DUP4 ADD MSTORE POP SWAP3 SWAP2 POP POP JUMP JUMPDEST PUSH0 PUSH2 0x1D64 PUSH2 0x1D5F DUP5 PUSH2 0x1BBB JUMP JUMPDEST PUSH2 0x1BA1 JUMP JUMPDEST SWAP1 POP DUP1 DUP4 DUP3 MSTORE PUSH1 0x20 DUP3 ADD SWAP1 POP PUSH1 0x20 DUP5 MUL DUP4 ADD DUP6 DUP2 GT ISZERO PUSH2 0x1D87 JUMPI PUSH2 0x1D86 PUSH2 0x1BE6 JUMP JUMPDEST JUMPDEST DUP4 JUMPDEST DUP2 DUP2 LT ISZERO PUSH2 0x1DCE JUMPI DUP1 CALLDATALOAD PUSH8 0xFFFFFFFFFFFFFFFF DUP2 GT ISZERO PUSH2 0x1DAC JUMPI PUSH2 0x1DAB PUSH2 0x1B2F JUMP JUMPDEST JUMPDEST DUP1 DUP7 ADD PUSH2 0x1DB9 DUP10 DUP3 PUSH2 0x1CD5 JUMP JUMPDEST DUP6 MSTORE PUSH1 0x20 DUP6 ADD SWAP5 POP POP POP PUSH1 0x20 DUP2 ADD SWAP1 POP PUSH2 0x1D89 JUMP JUMPDEST POP POP POP SWAP4 SWAP3 POP POP POP JUMP JUMPDEST PUSH0 DUP3 PUSH1 0x1F DUP4 ADD SLT PUSH2 0x1DEC JUMPI PUSH2 0x1DEB PUSH2 0x1B2F JUMP JUMPDEST JUMPDEST DUP2 CALLDATALOAD PUSH2 0x1DFC DUP5 DUP3 PUSH1 0x20 DUP7 ADD PUSH2 0x1D52 JUMP JUMPDEST SWAP2 POP POP SWAP3 SWAP2 POP POP JUMP JUMPDEST PUSH0 PUSH0 PUSH1 0x40 DUP4 DUP6 SUB SLT ISZERO PUSH2 0x1E1B JUMPI PUSH2 0x1E1A PUSH2 0x1A5A JUMP JUMPDEST JUMPDEST PUSH0 DUP4 ADD CALLDATALOAD PUSH8 0xFFFFFFFFFFFFFFFF DUP2 GT ISZERO PUSH2 0x1E38 JUMPI PUSH2 0x1E37 PUSH2 0x1A5E JUMP JUMPDEST JUMPDEST PUSH2 0x1E44 DUP6 DUP3 DUP7 ADD PUSH2 0x1DD8 JUMP JUMPDEST SWAP3 POP POP PUSH1 0x20 PUSH2 0x1E55 DUP6 DUP3 DUP7 ADD PUSH2 0x1CC1 JUMP JUMPDEST SWAP2 POP POP SWAP3 POP SWAP3 SWAP1 POP JUMP JUMPDEST PUSH0 PUSH0 PUSH1 0x40 DUP4 DUP6 SUB SLT ISZERO PUSH2 0x1E75 JUMPI PUSH2 0x1E74 PUSH2 0x1A5A JUMP JUMPDEST JUMPDEST PUSH0 PUSH2 0x1E82 DUP6 DUP3 DUP7 ADD PUSH2 0x1CC1 JUMP JUMPDEST SWAP3 POP POP PUSH1 0x20 PUSH2 0x1E93 DUP6 DUP3 DUP7 ADD PUSH2 0x1CC1 JUMP JUMPDEST SWAP2 POP POP SWAP3 POP SWAP3 SWAP1 POP JUMP JUMPDEST PUSH0 PUSH1 0x20 DUP3 DUP5 SUB SLT ISZERO PUSH2 0x1EB2 JUMPI PUSH2 0x1EB1 PUSH2 0x1A5A JUMP JUMPDEST JUMPDEST PUSH0 PUSH2 0x1EBF DUP5 DUP3 DUP6 ADD PUSH2 0x1CC1 JUMP JUMPDEST SWAP2 POP POP SWAP3 SWAP2 POP POP JUMP JUMPDEST PUSH0 PUSH0 PUSH1 0x40 DUP4 DUP6 SUB SLT ISZERO PUSH2 0x1EDE JUMPI PUSH2 0x1EDD PUSH2 0x1A5A JUMP JUMPDEST JUMPDEST PUSH0 PUSH2 0x1EEB DUP6 DUP3 DUP7 ADD PUSH2 0x1CC1 JUMP JUMPDEST SWAP3 POP POP PUSH1 0x20 DUP4 ADD CALLDATALOAD PUSH8 0xFFFFFFFFFFFFFFFF DUP2 GT ISZERO PUSH2 0x1F0C JUMPI PUSH2 0x1F0B PUSH2 0x1A5E JUMP JUMPDEST JUMPDEST PUSH2 0x1F18 DUP6 DUP3 DUP7 ADD PUSH2 0x1C75 JUMP JUMPDEST SWAP2 POP POP SWAP3 POP SWAP3 SWAP1 POP JUMP JUMPDEST PUSH0 PUSH1 0x20 DUP3 DUP5 SUB SLT ISZERO PUSH2 0x1F37 JUMPI PUSH2 0x1F36 PUSH2 0x1A5A JUMP JUMPDEST JUMPDEST PUSH0 PUSH2 0x1F44 DUP5 DUP3 DUP6 ADD PUSH2 0x1AA8 JUMP JUMPDEST SWAP2 POP POP SWAP3 SWAP2 POP POP JUMP JUMPDEST PUSH2 0x1F56 DUP2 PUSH2 0x1ABC JUMP JUMPDEST DUP3 MSTORE POP POP JUMP JUMPDEST PUSH0 PUSH1 0x20 DUP3 ADD SWAP1 POP PUSH2 0x1F6F PUSH0 DUP4 ADD DUP5 PUSH2 0x1F4D JUMP JUMPDEST SWAP3 SWAP2 POP POP JUMP JUMPDEST PUSH0 PUSH0 PUSH1 0x40 DUP4 DUP6 SUB SLT ISZERO PUSH2 0x1F8B JUMPI PUSH2 0x1F8A PUSH2 0x1A5A JUMP JUMPDEST JUMPDEST PUSH0 PUSH2 0x1F98 DUP6 DUP3 DUP7 ADD PUSH2 0x1CC1 JUMP JUMPDEST SWAP3 POP POP PUSH1 0x20 PUSH2 0x1FA9 DUP6 DUP3 DUP7 ADD PUSH2 0x1AA8 JUMP JUMPDEST SWAP2 POP POP SWAP3 POP SWAP3 SWAP1 POP JUMP JUMPDEST PUSH0 DUP2 MLOAD SWAP1 POP SWAP2 SWAP1 POP JUMP JUMPDEST PUSH0 DUP3 DUP3 MSTORE PUSH1 0x20 DUP3 ADD SWAP1 POP SWAP3 SWAP2 POP POP JUMP JUMPDEST DUP3 DUP2 DUP4 MCOPY PUSH0 DUP4 DUP4 ADD MSTORE POP POP POP JUMP JUMPDEST PUSH0 PUSH2 0x1FE5 DUP3 PUSH2 0x1FB3 JUMP JUMPDEST PUSH2 0x1FEF DUP2 DUP6 PUSH2 0x1FBD JUMP JUMPDEST SWAP4 POP PUSH2 0x1FFF DUP2 DUP6 PUSH1 0x20 DUP7 ADD PUSH2 0x1FCD JUMP JUMPDEST PUSH2 0x2008 DUP2 PUSH2 0x1B33 JUMP JUMPDEST DUP5 ADD SWAP2 POP POP SWAP3 SWAP2 POP POP JUMP JUMPDEST PUSH2 0x201C DUP2 PUSH2 0x1A81 JUMP JUMPDEST DUP3 MSTORE POP POP JUMP JUMPDEST PUSH2 0x202B DUP2 PUSH2 0x1CA2 JUMP JUMPDEST DUP3 MSTORE POP POP JUMP JUMPDEST PUSH0 PUSH1 0x60 DUP4 ADD PUSH0 DUP4 ADD MLOAD DUP5 DUP3 SUB PUSH0 DUP7 ADD MSTORE PUSH2 0x204B DUP3 DUP3 PUSH2 0x1FDB JUMP JUMPDEST SWAP2 POP POP PUSH1 0x20 DUP4 ADD MLOAD PUSH2 0x2060 PUSH1 0x20 DUP7 ADD DUP3 PUSH2 0x2013 JUMP JUMPDEST POP PUSH1 0x40 DUP4 ADD MLOAD PUSH2 0x2073 PUSH1 0x40 DUP7 ADD DUP3 PUSH2 0x2022 JUMP JUMPDEST POP DUP1 SWAP2 POP POP SWAP3 SWAP2 POP POP JUMP JUMPDEST PUSH0 PUSH1 0x20 DUP3 ADD SWAP1 POP DUP2 DUP2 SUB PUSH0 DUP4 ADD MSTORE PUSH2 0x2096 DUP2 DUP5 PUSH2 0x2031 JUMP JUMPDEST SWAP1 POP SWAP3 SWAP2 POP POP JUMP JUMPDEST PUSH2 0x20A7 DUP2 PUSH2 0x1A81 JUMP JUMPDEST DUP3 MSTORE POP POP JUMP JUMPDEST PUSH0 PUSH1 0x20 DUP3 ADD SWAP1 POP PUSH2 0x20C0 PUSH0 DUP4 ADD DUP5 PUSH2 0x209E JUMP JUMPDEST SWAP3 SWAP2 POP POP JUMP JUMPDEST PUSH0 DUP2 MLOAD SWAP1 POP SWAP2 SWAP1 POP JUMP JUMPDEST PUSH0 DUP3 DUP3 MSTORE PUSH1 0x20 DUP3 ADD SWAP1 POP SWAP3 SWAP2 POP POP JUMP JUMPDEST PUSH0 DUP2 SWAP1 POP PUSH1 0x20 DUP3 ADD SWAP1 POP SWAP2 SWAP1 POP JUMP JUMPDEST PUSH0 PUSH1 0x60 DUP4 ADD PUSH0 DUP4 ADD MLOAD DUP5 DUP3 SUB PUSH0 DUP7 ADD MSTORE PUSH2 0x2109 DUP3 DUP3 PUSH2 0x1FDB JUMP JUMPDEST SWAP2 POP POP PUSH1 0x20 DUP4 ADD MLOAD PUSH2 0x211E PUSH1 0x20 DUP7 ADD DUP3 PUSH2 0x2013 JUMP JUMPDEST POP PUSH1 0x40 DUP4 ADD MLOAD PUSH2 0x2131 PUSH1 0x40 DUP7 ADD DUP3 PUSH2 0x2022 JUMP JUMPDEST POP DUP1 SWAP2 POP POP SWAP3 SWAP2 POP POP JUMP JUMPDEST PUSH0 PUSH2 0x2147 DUP4 DUP4 PUSH2 0x20EF JUMP JUMPDEST SWAP1 POP SWAP3 SWAP2 POP POP JUMP JUMPDEST PUSH0 PUSH1 0x20 DUP3 ADD SWAP1 POP SWAP2 SWAP1 POP JUMP JUMPDEST PUSH0 PUSH2 0x2165 DUP3 PUSH2 0x20C6 JUMP JUMPDEST PUSH2 0x216F DUP2 DUP6 PUSH2 0x20D0 JUMP JUMPDEST SWAP4 POP DUP4 PUSH1 0x20 DUP3 MUL DUP6 ADD PUSH2 0x2181 DUP6 PUSH2 0x20E0 JUMP JUMPDEST DUP1 PUSH0 JUMPDEST DUP6 DUP2 LT ISZERO PUSH2 0x21BC JUMPI DUP5 DUP5 SUB DUP10 MSTORE DUP2 MLOAD PUSH2 0x219D DUP6 DUP3 PUSH2 0x213C JUMP JUMPDEST SWAP5 POP PUSH2 0x21A8 DUP4 PUSH2 0x214F JUMP JUMPDEST SWAP3 POP PUSH1 0x20 DUP11 ADD SWAP10 POP POP PUSH1 0x1 DUP2 ADD SWAP1 POP PUSH2 0x2184 JUMP JUMPDEST POP DUP3 SWAP8 POP DUP8 SWAP6 POP POP POP POP POP POP SWAP3 SWAP2 POP POP JUMP JUMPDEST PUSH0 PUSH1 0x20 DUP3 ADD SWAP1 POP DUP2 DUP2 SUB PUSH0 DUP4 ADD MSTORE PUSH2 0x21E6 DUP2 DUP5 PUSH2 0x215B JUMP JUMPDEST SWAP1 POP SWAP3 SWAP2 POP POP JUMP JUMPDEST PUSH0 DUP3 DUP3 MSTORE PUSH1 0x20 DUP3 ADD SWAP1 POP SWAP3 SWAP2 POP POP JUMP JUMPDEST PUSH32 0x77686974656C69737420697320757020746F2064617465000000000000000000 PUSH0 DUP3 ADD MSTORE POP JUMP JUMPDEST PUSH0 PUSH2 0x2232 PUSH1 0x17 DUP4 PUSH2 0x21EE JUMP JUMPDEST SWAP2 POP PUSH2 0x223D DUP3 PUSH2 0x21FE JUMP JUMPDEST PUSH1 0x20 DUP3 ADD SWAP1 POP SWAP2 SWAP1 POP JUMP JUMPDEST PUSH0 PUSH1 0x20 DUP3 ADD SWAP1 POP DUP2 DUP2 SUB PUSH0 DUP4 ADD MSTORE PUSH2 0x225F DUP2 PUSH2 0x2226 JUMP JUMPDEST SWAP1 POP SWAP2 SWAP1 POP JUMP JUMPDEST PUSH0 PUSH1 0x40 DUP3 ADD SWAP1 POP PUSH2 0x2279 PUSH0 DUP4 ADD DUP6 PUSH2 0x209E JUMP JUMPDEST PUSH2 0x2286 PUSH1 0x20 DUP4 ADD DUP5 PUSH2 0x1F4D JUMP JUMPDEST SWAP4 SWAP3 POP POP POP JUMP JUMPDEST PUSH32 0x4E487B7100000000000000000000000000000000000000000000000000000000 PUSH0 MSTORE PUSH1 0x11 PUSH1 0x4 MSTORE PUSH1 0x24 PUSH0 REVERT JUMPDEST PUSH0 PUSH2 0x22C4 DUP3 PUSH2 0x1CA2 JUMP JUMPDEST SWAP2 POP PUSH32 0xFFFFFFFFFFFFFFFFFFFFFFFFFFFFFFFFFFFFFFFFFFFFFFFFFFFFFFFFFFFFFFFF DUP3 SUB PUSH2 0x22F6 JUMPI PUSH2 0x22F5 PUSH2 0x228D JUMP JUMPDEST JUMPDEST PUSH1 0x1 DUP3 ADD SWAP1 POP SWAP2 SWAP1 POP JUMP JUMPDEST PUSH32 0x4E487B7100000000000000000000000000000000000000000000000000000000 PUSH0 MSTORE PUSH1 0x32 PUSH1 0x4 MSTORE PUSH1 0x24 PUSH0 REVERT JUMPDEST PUSH32 0x4E487B7100000000000000000000000000000000000000000000000000000000 PUSH0 MSTORE PUSH1 0x22 PUSH1 0x4 MSTORE PUSH1 0x24 PUSH0 REVERT JUMPDEST PUSH0 PUSH1 0x2 DUP3 DIV SWAP1 POP PUSH1 0x1 DUP3 AND DUP1 PUSH2 0x2372 JUMPI PUSH1 0x7F DUP3 AND SWAP2 POP JUMPDEST PUSH1 0x20 DUP3 LT DUP2 SUB PUSH2 0x2385 JUMPI PUSH2 0x2384 PUSH2 0x232E JUMP JUMPDEST JUMPDEST POP SWAP2 SWAP1 POP JUMP JUMPDEST PUSH0 DUP2 SWAP1 POP DUP2 PUSH0 MSTORE PUSH1 0x20 PUSH0 KECCAK256 SWAP1 POP SWAP2 SWAP1 POP JUMP JUMPDEST PUSH0 PUSH1 0x20 PUSH1 0x1F DUP4 ADD DIV SWAP1 POP SWAP2 SWAP1 POP JUMP JUMPDEST PUSH0 DUP3 DUP3 SHL SWAP1 POP SWAP3 SWAP2 POP POP JUMP JUMPDEST PUSH0 PUSH1 0x8 DUP4 MUL PUSH2 0x23E7 PUSH32 0xFFFFFFFFFFFFFFFFFFFFFFFFFFFFFFFFFFFFFFFFFFFFFFFFFFFFFFFFFFFFFFFF DUP3 PUSH2 0x23AC JUMP JUMPDEST PUSH2 0x23F1 DUP7 DUP4 PUSH2 0x23AC JUMP JUMPDEST SWAP6 POP DUP1 NOT DUP5 AND SWAP4 POP DUP1 DUP7 AND DUP5 OR SWAP3 POP POP POP SWAP4 SWAP3 POP POP POP JUMP JUMPDEST PUSH0 DUP2 SWAP1 POP SWAP2 SWAP1 POP JUMP JUMPDEST PUSH0 PUSH2 0x242C PUSH2 0x2427 PUSH2 0x2422 DUP5 PUSH2 0x1CA2 JUMP JUMPDEST PUSH2 0x2409 JUMP JUMPDEST PUSH2 0x1CA2 JUMP JUMPDEST SWAP1 POP SWAP2 SWAP1 POP JUMP JUMPDEST PUSH0 DUP2 SWAP1 POP SWAP2 SWAP1 POP JUMP JUMPDEST PUSH2 0x2445 DUP4 PUSH2 0x2412 JUMP JUMPDEST PUSH2 0x2459 PUSH2 0x2451 DUP3 PUSH2 0x2433 JUMP JUMPDEST DUP5 DUP5 SLOAD PUSH2 0x23B8 JUMP JUMPDEST DUP3 SSTORE POP POP POP POP JUMP JUMPDEST PUSH0 PUSH0 SWAP1 POP SWAP1 JUMP JUMPDEST PUSH2 0x2470 PUSH2 0x2461 JUMP JUMPDEST PUSH2 0x247B DUP2 DUP5 DUP5 PUSH2 0x243C JUMP JUMPDEST POP POP POP JUMP JUMPDEST JUMPDEST DUP2 DUP2 LT ISZERO PUSH2 0x249E JUMPI PUSH2 0x2493 PUSH0 DUP3 PUSH2 0x2468 JUMP JUMPDEST PUSH1 0x1 DUP2 ADD SWAP1 POP PUSH2 0x2481 JUMP JUMPDEST POP POP JUMP JUMPDEST PUSH1 0x1F DUP3 GT ISZERO PUSH2 0x24E3 JUMPI PUSH2 0x24B4 DUP2 PUSH2 0x238B JUMP JUMPDEST PUSH2 0x24BD DUP5 PUSH2 0x239D JUMP JUMPDEST DUP2 ADD PUSH1 0x20 DUP6 LT ISZERO PUSH2 0x24CC JUMPI DUP2 SWAP1 POP JUMPDEST PUSH2 0x24E0 PUSH2 0x24D8 DUP6 PUSH2 0x239D JUMP JUMPDEST DUP4 ADD DUP3 PUSH2 0x2480 JUMP JUMPDEST POP POP JUMPDEST POP POP POP JUMP JUMPDEST PUSH0 DUP3 DUP3 SHR SWAP1 POP SWAP3 SWAP2 POP POP JUMP JUMPDEST PUSH0 PUSH2 0x2503 PUSH0 NOT DUP5 PUSH1 0x8 MUL PUSH2 0x24E8 JUMP JUMPDEST NOT DUP1 DUP4 AND SWAP2 POP POP SWAP3 SWAP2 POP POP JUMP JUMPDEST PUSH0 PUSH2 0x251B DUP4 DUP4 PUSH2 0x24F4 JUMP JUMPDEST SWAP2 POP DUP3 PUSH1 0x2 MUL DUP3 OR SWAP1 POP SWAP3 SWAP2 POP POP JUMP JUMPDEST PUSH2 0x2534 DUP3 PUSH2 0x1FB3 JUMP JUMPDEST PUSH8 0xFFFFFFFFFFFFFFFF DUP2 GT ISZERO PUSH2 0x254D JUMPI PUSH2 0x254C PUSH2 0x1B43 JUMP JUMPDEST JUMPDEST PUSH2 0x2557 DUP3 SLOAD PUSH2 0x235B JUMP JUMPDEST PUSH2 0x2562 DUP3 DUP3 DUP6 PUSH2 0x24A2 JUMP JUMPDEST PUSH0 PUSH1 0x20 SWAP1 POP PUSH1 0x1F DUP4 GT PUSH1 0x1 DUP2 EQ PUSH2 0x2593 JUMPI PUSH0 DUP5 ISZERO PUSH2 0x2581 JUMPI DUP3 DUP8 ADD MLOAD SWAP1 POP JUMPDEST PUSH2 0x258B DUP6 DUP3 PUSH2 0x2510 JUMP JUMPDEST DUP7 SSTORE POP PUSH2 0x25F2 JUMP JUMPDEST PUSH1 0x1F NOT DUP5 AND PUSH2 0x25A1 DUP7 PUSH2 0x238B JUMP JUMPDEST PUSH0 JUMPDEST DUP3 DUP2 LT ISZERO PUSH2 0x25C8 JUMPI DUP5 DUP10 ADD MLOAD DUP3 SSTORE PUSH1 0x1 DUP3 ADD SWAP2 POP PUSH1 0x20 DUP6 ADD SWAP5 POP PUSH1 0x20 DUP2 ADD SWAP1 POP PUSH2 0x25A3 JUMP JUMPDEST DUP7 DUP4 LT ISZERO PUSH2 0x25E5 JUMPI DUP5 DUP10 ADD MLOAD PUSH2 0x25E1 PUSH1 0x1F DUP10 AND DUP3 PUSH2 0x24F4 JUMP JUMPDEST DUP4 SSTORE POP JUMPDEST PUSH1 0x1 PUSH1 0x2 DUP9 MUL ADD DUP9 SSTORE POP POP POP JUMPDEST POP POP POP POP POP POP JUMP JUMPDEST PUSH2 0x2603 DUP2 PUSH2 0x1CA2 JUMP JUMPDEST DUP3 MSTORE POP POP JUMP JUMPDEST PUSH0 PUSH1 0x20 DUP3 ADD SWAP1 POP PUSH2 0x261C PUSH0 DUP4 ADD DUP5 PUSH2 0x25FA JUMP JUMPDEST SWAP3 SWAP2 POP POP JUMP JUMPDEST PUSH32 0x4E487B7100000000000000000000000000000000000000000000000000000000 PUSH0 MSTORE PUSH1 0x21 PUSH1 0x4 MSTORE PUSH1 0x24 PUSH0 REVERT JUMPDEST PUSH32 0x726567697374726174696F6E20646964206E6F74207374617274656400000000 PUSH0 DUP3 ADD MSTORE POP JUMP JUMPDEST PUSH0 PUSH2 0x2683 PUSH1 0x1C DUP4 PUSH2 0x21EE JUMP JUMPDEST SWAP2 POP PUSH2 0x268E DUP3 PUSH2 0x264F JUMP JUMPDEST PUSH1 0x20 DUP3 ADD SWAP1 POP SWAP2 SWAP1 POP JUMP JUMPDEST PUSH0 PUSH1 0x20 DUP3 ADD SWAP1 POP DUP2 DUP2 SUB PUSH0 DUP4 ADD MSTORE PUSH2 0x26B0 DUP2 PUSH2 0x2677 JUMP JUMPDEST SWAP1 POP SWAP2 SWAP1 POP JUMP JUMPDEST PUSH32 0x596F7520617265206E6F74207265676973746572656400000000000000000000 PUSH0 DUP3 ADD MSTORE POP JUMP JUMPDEST PUSH0 PUSH2 0x26EB PUSH1 0x16 DUP4 PUSH2 0x21EE JUMP JUMPDEST SWAP2 POP PUSH2 0x26F6 DUP3 PUSH2 0x26B7 JUMP JUMPDEST PUSH1 0x20 DUP3 ADD SWAP1 POP SWAP2 SWAP1 POP JUMP JUMPDEST PUSH0 PUSH1 0x20 DUP3 ADD SWAP1 POP DUP2 DUP2 SUB PUSH0 DUP4 ADD MSTORE PUSH2 0x2718 DUP2 PUSH2 0x26DF JUMP JUMPDEST SWAP1 POP SWAP2 SWAP1 POP JUMP JUMPDEST PUSH32 0x596F75206861766520616C726561647920766F74650000000000000000000000 PUSH0 DUP3 ADD MSTORE POP JUMP JUMPDEST PUSH0 PUSH2 0x2753 PUSH1 0x15 DUP4 PUSH2 0x21EE JUMP JUMPDEST SWAP2 POP PUSH2 0x275E DUP3 PUSH2 0x271F JUMP JUMPDEST PUSH1 0x20 DUP3 ADD SWAP1 POP SWAP2 SWAP1 POP JUMP JUMPDEST PUSH0 PUSH1 0x20 DUP3 ADD SWAP1 POP DUP2 DUP2 SUB PUSH0 DUP4 ADD MSTORE PUSH2 0x2780 DUP2 PUSH2 0x2747 JUMP JUMPDEST SWAP1 POP SWAP2 SWAP1 POP JUMP JUMPDEST PUSH0 PUSH1 0x60 DUP3 ADD SWAP1 POP PUSH2 0x279A PUSH0 DUP4 ADD DUP7 PUSH2 0x25FA JUMP JUMPDEST PUSH2 0x27A7 PUSH1 0x20 DUP4 ADD DUP6 PUSH2 0x209E JUMP JUMPDEST PUSH2 0x27B4 PUSH1 0x40 DUP4 ADD DUP5 PUSH2 0x25FA JUMP JUMPDEST SWAP5 SWAP4 POP POP POP POP JUMP JUMPDEST PUSH32 0x566F74696E672073657373696F6E206E6F742073746172746564000000000000 PUSH0 DUP3 ADD MSTORE POP JUMP JUMPDEST PUSH0 PUSH2 0x27F0 PUSH1 0x1A DUP4 PUSH2 0x21EE JUMP JUMPDEST SWAP2 POP PUSH2 0x27FB DUP3 PUSH2 0x27BC JUMP JUMPDEST PUSH1 0x20 DUP3 ADD SWAP1 POP SWAP2 SWAP1 POP JUMP JUMPDEST PUSH0 PUSH1 0x20 DUP3 ADD SWAP1 POP DUP2 DUP2 SUB PUSH0 DUP4 ADD MSTORE PUSH2 0x281D DUP2 PUSH2 0x27E4 JUMP JUMPDEST SWAP1 POP SWAP2 SWAP1 POP JUMP JUMPDEST PUSH32 0x6E6F20766F746573207765726520726567697374657265640000000000000000 PUSH0 DUP3 ADD MSTORE POP JUMP JUMPDEST PUSH0 PUSH2 0x2858 PUSH1 0x18 DUP4 PUSH2 0x21EE JUMP JUMPDEST SWAP2 POP PUSH2 0x2863 DUP3 PUSH2 0x2824 JUMP JUMPDEST PUSH1 0x20 DUP3 ADD SWAP1 POP SWAP2 SWAP1 POP JUMP JUMPDEST PUSH0 PUSH1 0x20 DUP3 ADD SWAP1 POP DUP2 DUP2 SUB PUSH0 DUP4 ADD MSTORE PUSH2 0x2885 DUP2 PUSH2 0x284C JUMP JUMPDEST SWAP1 POP SWAP2 SWAP1 POP JUMP JUMPDEST PUSH1 0x6 DUP2 LT PUSH2 0x289D JUMPI PUSH2 0x289C PUSH2 0x2622 JUMP JUMPDEST JUMPDEST POP JUMP JUMPDEST PUSH0 DUP2 SWAP1 POP PUSH2 0x28AD DUP3 PUSH2 0x288C JUMP JUMPDEST SWAP2 SWAP1 POP JUMP JUMPDEST PUSH0 PUSH2 0x28BC DUP3 PUSH2 0x28A0 JUMP JUMPDEST SWAP1 POP SWAP2 SWAP1 POP JUMP JUMPDEST PUSH2 0x28CC DUP2 PUSH2 0x28B2 JUMP JUMPDEST DUP3 MSTORE POP POP JUMP JUMPDEST PUSH0 PUSH1 0x60 DUP3 ADD SWAP1 POP PUSH2 0x28E5 PUSH0 DUP4 ADD DUP7 PUSH2 0x25FA JUMP JUMPDEST PUSH2 0x28F2 PUSH1 0x20 DUP4 ADD DUP6 PUSH2 0x28C3 JUMP JUMPDEST PUSH2 0x28FF PUSH1 0x40 DUP4 ADD DUP5 PUSH2 0x28C3 JUMP JUMPDEST SWAP5 SWAP4 POP POP POP POP JUMP JUMPDEST PUSH32 0x4465736372697074696F6E20697320746F6F206C6F6E672C206C696D69742035 PUSH0 DUP3 ADD MSTORE PUSH32 0x3132206279746573000000000000000000000000000000000000000000000000 PUSH1 0x20 DUP3 ADD MSTORE POP JUMP JUMPDEST PUSH0 PUSH2 0x2961 PUSH1 0x28 DUP4 PUSH2 0x21EE JUMP JUMPDEST SWAP2 POP PUSH2 0x296C DUP3 PUSH2 0x2907 JUMP JUMPDEST PUSH1 0x40 DUP3 ADD SWAP1 POP SWAP2 SWAP1 POP JUMP JUMPDEST PUSH0 PUSH1 0x20 DUP3 ADD SWAP1 POP DUP2 DUP2 SUB PUSH0 DUP4 ADD MSTORE PUSH2 0x298E DUP2 PUSH2 0x2955 JUMP JUMPDEST SWAP1 POP SWAP2 SWAP1 POP JUMP JUMPDEST PUSH0 PUSH2 0x299F DUP3 PUSH2 0x1CA2 JUMP JUMPDEST SWAP2 POP PUSH2 0x29AA DUP4 PUSH2 0x1CA2 JUMP JUMPDEST SWAP3 POP DUP3 DUP3 SUB SWAP1 POP DUP2 DUP2 GT ISZERO PUSH2 0x29C2 JUMPI PUSH2 0x29C1 PUSH2 0x228D JUMP JUMPDEST JUMPDEST SWAP3 SWAP2 POP POP JUMP JUMPDEST PUSH0 PUSH1 0x40 DUP3 ADD SWAP1 POP PUSH2 0x29DB PUSH0 DUP4 ADD DUP6 PUSH2 0x25FA JUMP JUMPDEST PUSH2 0x29E8 PUSH1 0x20 DUP4 ADD DUP5 PUSH2 0x25FA JUMP JUMPDEST SWAP4 SWAP3 POP POP POP JUMP JUMPDEST PUSH32 0x50726F706F73616C7320726567697374726174696F6E206E6F7420656E646564 PUSH0 DUP3 ADD MSTORE POP JUMP JUMPDEST PUSH0 PUSH2 0x2A23 PUSH1 0x20 DUP4 PUSH2 0x21EE JUMP JUMPDEST SWAP2 POP PUSH2 0x2A2E DUP3 PUSH2 0x29EF JUMP JUMPDEST PUSH1 0x20 DUP3 ADD SWAP1 POP SWAP2 SWAP1 POP JUMP JUMPDEST PUSH0 PUSH1 0x20 DUP3 ADD SWAP1 POP DUP2 DUP2 SUB PUSH0 DUP4 ADD MSTORE PUSH2 0x2A50 DUP2 PUSH2 0x2A17 JUMP JUMPDEST SWAP1 POP SWAP2 SWAP1 POP JUMP JUMPDEST PUSH32 0x50726F706F73616C7320726567697374726174696F6E206E6F74207374617274 PUSH0 DUP3 ADD MSTORE PUSH32 0x6564000000000000000000000000000000000000000000000000000000000000 PUSH1 0x20 DUP3 ADD MSTORE POP JUMP JUMPDEST PUSH0 PUSH2 0x2AB1 PUSH1 0x22 DUP4 PUSH2 0x21EE JUMP JUMPDEST SWAP2 POP PUSH2 0x2ABC DUP3 PUSH2 0x2A57 JUMP JUMPDEST PUSH1 0x40 DUP3 ADD SWAP1 POP SWAP2 SWAP1 POP JUMP JUMPDEST PUSH0 PUSH1 0x20 DUP3 ADD SWAP1 POP DUP2 DUP2 SUB PUSH0 DUP4 ADD MSTORE PUSH2 0x2ADE DUP2 PUSH2 0x2AA5 JUMP JUMPDEST SWAP1 POP SWAP2 SWAP1 POP JUMP JUMPDEST PUSH32 0x6E6F2070726F706F73616C732077657265207265676973746572656400000000 PUSH0 DUP3 ADD MSTORE POP JUMP JUMPDEST PUSH0 PUSH2 0x2B19 PUSH1 0x1C DUP4 PUSH2 0x21EE JUMP JUMPDEST SWAP2 POP PUSH2 0x2B24 DUP3 PUSH2 0x2AE5 JUMP JUMPDEST PUSH1 0x20 DUP3 ADD SWAP1 POP SWAP2 SWAP1 POP JUMP JUMPDEST PUSH0 PUSH1 0x20 DUP3 ADD SWAP1 POP DUP2 DUP2 SUB PUSH0 DUP4 ADD MSTORE PUSH2 0x2B46 DUP2 PUSH2 0x2B0D JUMP JUMPDEST SWAP1 POP SWAP2 SWAP1 POP JUMP JUMPDEST PUSH32 0x566F74696E672073657373696F6E20646964206E6F7420656E64000000000000 PUSH0 DUP3 ADD MSTORE POP JUMP JUMPDEST PUSH0 PUSH2 0x2B81 PUSH1 0x1A DUP4 PUSH2 0x21EE JUMP JUMPDEST SWAP2 POP PUSH2 0x2B8C DUP3 PUSH2 0x2B4D JUMP JUMPDEST PUSH1 0x20 DUP3 ADD SWAP1 POP SWAP2 SWAP1 POP JUMP JUMPDEST PUSH0 PUSH1 0x20 DUP3 ADD SWAP1 POP DUP2 DUP2 SUB PUSH0 DUP4 ADD MSTORE PUSH2 0x2BAE DUP2 PUSH2 0x2B75 JUMP JUMPDEST SWAP1 POP SWAP2 SWAP1 POP JUMP INVALID LOG2 PUSH5 0x6970667358 0x22 SLT KECCAK256 SWAP1 0xCE 0xA5 0xC0 CREATE2 0xBD AND SDIV 0xA6 0xE9 0xB2 LOG1 0xD2 0xC 0xDE 0xFC 0xD8 0x25 0x26 COINBASE INVALID 0xB6 0xAF EOFCREATE 0xBC SWAP10 PUSH30 0xD02E0FB25564736F6C634300081E00330000000000000000000000000000 "
				},
				"gasEstimates": {
					"creation": {
						"codeDepositCost": "2248600",
						"executionCost": "infinite",
						"totalCost": "infinite"
					},
					"external": {
						"computeMostVotedProposal(uint256)": "infinite",
						"createSession()": "infinite",
						"endProposalsRegistration(uint256)": "infinite",
						"endVotingSession(uint256)": "infinite",
						"getAllProposals(uint256)": "infinite",
						"getMostVotedProposal(uint256)": "infinite",
						"getProposalDetails(uint256,uint256)": "infinite",
						"hasVoted(uint256,address)": "3211",
						"isWhitelisted(address)": "2937",
						"owner()": "2581",
						"renewSession((string,address,uint256)[],uint256)": "infinite",
						"renounceOwnership()": "infinite",
						"sendNewProposition(uint256,string)": "infinite",
						"sendVote(uint256,uint256)": "infinite",
						"startProposalsRegistration(uint256)": "infinite",
						"startVotingSession(uint256)": "infinite",
						"transferOwnership(address)": "infinite",
						"updateWhitelist(address,bool)": "infinite",
						"whitelist(address)": "2855"
					}
				},
				"methodIdentifiers": {
					"computeMostVotedProposal(uint256)": "d6a10dcb",
					"createSession()": "1cbf1b02",
					"endProposalsRegistration(uint256)": "d1ff7eeb",
					"endVotingSession(uint256)": "35bb3d30",
					"getAllProposals(uint256)": "bf8ca1aa",
					"getMostVotedProposal(uint256)": "89a2f485",
					"getProposalDetails(uint256,uint256)": "97decb3f",
					"hasVoted(uint256,address)": "43859632",
					"isWhitelisted(address)": "3af32abf",
					"owner()": "8da5cb5b",
					"renewSession((string,address,uint256)[],uint256)": "19f03af2",
					"renounceOwnership()": "715018a6",
					"sendNewProposition(uint256,string)": "371820e9",
					"sendVote(uint256,uint256)": "291e6777",
					"startProposalsRegistration(uint256)": "8bc6a6dd",
					"startVotingSession(uint256)": "9980a55a",
					"transferOwnership(address)": "f2fde38b",
					"updateWhitelist(address,bool)": "0d392cd9",
					"whitelist(address)": "9b19251a"
				}
			},
			"storageLayout": {
				"storage": [
					{
						"astId": 777,
						"contract": "contracts/VintingV1.sol:Voting",
						"label": "_owner",
						"offset": 0,
						"slot": "0",
						"type": "t_address"
					},
					{
						"astId": 42,
						"contract": "contracts/VintingV1.sol:Voting",
						"label": "whitelist",
						"offset": 0,
						"slot": "1",
						"type": "t_mapping(t_address,t_bool)"
					},
					{
						"astId": 47,
						"contract": "contracts/VintingV1.sol:Voting",
						"label": "sessions",
						"offset": 0,
						"slot": "2",
						"type": "t_mapping(t_uint256,t_struct(Session)38_storage)"
					},
					{
						"astId": 49,
						"contract": "contracts/VintingV1.sol:Voting",
						"label": "sessionIdCounter",
						"offset": 0,
						"slot": "3",
						"type": "t_uint256"
					}
				],
				"types": {
					"t_address": {
						"encoding": "inplace",
						"label": "address",
						"numberOfBytes": "20"
					},
					"t_array(t_struct(Proposal)18_storage)dyn_storage": {
						"base": "t_struct(Proposal)18_storage",
						"encoding": "dynamic_array",
						"label": "struct Voting.Proposal[]",
						"numberOfBytes": "32"
					},
					"t_bool": {
						"encoding": "inplace",
						"label": "bool",
						"numberOfBytes": "1"
					},
					"t_enum(WorkflowStatus)11": {
						"encoding": "inplace",
						"label": "enum Voting.WorkflowStatus",
						"numberOfBytes": "1"
					},
					"t_mapping(t_address,t_bool)": {
						"encoding": "mapping",
						"key": "t_address",
						"label": "mapping(address => bool)",
						"numberOfBytes": "32",
						"value": "t_bool"
					},
					"t_mapping(t_uint256,t_struct(Session)38_storage)": {
						"encoding": "mapping",
						"key": "t_uint256",
						"label": "mapping(uint256 => struct Voting.Session)",
						"numberOfBytes": "32",
						"value": "t_struct(Session)38_storage"
					},
					"t_string_storage": {
						"encoding": "bytes",
						"label": "string",
						"numberOfBytes": "32"
					},
					"t_struct(Proposal)18_storage": {
						"encoding": "inplace",
						"label": "struct Voting.Proposal",
						"members": [
							{
								"astId": 13,
								"contract": "contracts/VintingV1.sol:Voting",
								"label": "description",
								"offset": 0,
								"slot": "0",
								"type": "t_string_storage"
							},
							{
								"astId": 15,
								"contract": "contracts/VintingV1.sol:Voting",
								"label": "submitter",
								"offset": 0,
								"slot": "1",
								"type": "t_address"
							},
							{
								"astId": 17,
								"contract": "contracts/VintingV1.sol:Voting",
								"label": "voteCount",
								"offset": 0,
								"slot": "2",
								"type": "t_uint256"
							}
						],
						"numberOfBytes": "96"
					},
					"t_struct(Session)38_storage": {
						"encoding": "inplace",
						"label": "struct Voting.Session",
						"members": [
							{
								"astId": 20,
								"contract": "contracts/VintingV1.sol:Voting",
								"label": "id",
								"offset": 0,
								"slot": "0",
								"type": "t_uint256"
							},
							{
								"astId": 23,
								"contract": "contracts/VintingV1.sol:Voting",
								"label": "workflowStatus",
								"offset": 0,
								"slot": "1",
								"type": "t_enum(WorkflowStatus)11"
							},
							{
								"astId": 25,
								"contract": "contracts/VintingV1.sol:Voting",
								"label": "winningProposalIndex",
								"offset": 0,
								"slot": "2",
								"type": "t_uint256"
							},
							{
								"astId": 27,
								"contract": "contracts/VintingV1.sol:Voting",
								"label": "highestVoteCount",
								"offset": 0,
								"slot": "3",
								"type": "t_uint256"
							},
							{
								"astId": 31,
								"contract": "contracts/VintingV1.sol:Voting",
								"label": "proposals",
								"offset": 0,
								"slot": "4",
								"type": "t_array(t_struct(Proposal)18_storage)dyn_storage"
							},
							{
								"astId": 35,
								"contract": "contracts/VintingV1.sol:Voting",
								"label": "hasVoted",
								"offset": 0,
								"slot": "5",
								"type": "t_mapping(t_address,t_bool)"
							},
							{
								"astId": 37,
								"contract": "contracts/VintingV1.sol:Voting",
								"label": "parentSessionId",
								"offset": 0,
								"slot": "6",
								"type": "t_uint256"
							}
						],
						"numberOfBytes": "224"
					},
					"t_uint256": {
						"encoding": "inplace",
						"label": "uint256",
						"numberOfBytes": "32"
					}
				}
			},
			"userdoc": {
				"kind": "user",
				"methods": {},
				"version": 1
			}
		}
	}
}