{
	"contracts/VotingSessions.sol": {
		"Voting": {
			"abi": [
				{
					"inputs": [],
					"stateMutability": "nonpayable",
					"type": "constructor"
				},
				{
					"inputs": [
						{
							"internalType": "address",
							"name": "owner",
							"type": "address"
						}
					],
					"name": "OwnableInvalidOwner",
					"type": "error"
				},
				{
					"inputs": [
						{
							"internalType": "address",
							"name": "account",
							"type": "address"
						}
					],
					"name": "OwnableUnauthorizedAccount",
					"type": "error"
				},
				{
					"anonymous": false,
					"inputs": [
						{
							"indexed": false,
							"internalType": "uint256",
							"name": "sessionId",
							"type": "uint256"
						}
					],
					"name": "NewVotingSession",
					"type": "event"
				},
				{
					"anonymous": false,
					"inputs": [
						{
							"indexed": true,
							"internalType": "address",
							"name": "previousOwner",
							"type": "address"
						},
						{
							"indexed": true,
							"internalType": "address",
							"name": "newOwner",
							"type": "address"
						}
					],
					"name": "OwnershipTransferred",
					"type": "event"
				},
				{
					"anonymous": false,
					"inputs": [
						{
							"indexed": false,
							"internalType": "uint256",
							"name": "sessionId",
							"type": "uint256"
						},
						{
							"indexed": false,
							"internalType": "uint256",
							"name": "proposalId",
							"type": "uint256"
						}
					],
					"name": "ProposalRegistered",
					"type": "event"
				},
				{
					"anonymous": false,
					"inputs": [
						{
							"indexed": false,
							"internalType": "uint256",
							"name": "sessionId",
							"type": "uint256"
						}
					],
					"name": "RenewSession",
					"type": "event"
				},
				{
					"anonymous": false,
					"inputs": [
						{
							"indexed": false,
							"internalType": "uint256",
							"name": "sessionId",
							"type": "uint256"
						},
						{
							"indexed": false,
							"internalType": "address",
							"name": "voter",
							"type": "address"
						},
						{
							"indexed": false,
							"internalType": "uint256",
							"name": "proposalId",
							"type": "uint256"
						}
					],
					"name": "Voted",
					"type": "event"
				},
				{
					"anonymous": false,
					"inputs": [
						{
							"indexed": false,
							"internalType": "address",
							"name": "voterAddress",
							"type": "address"
						},
						{
							"indexed": false,
							"internalType": "bool",
							"name": "isWhitelisted",
							"type": "bool"
						}
					],
					"name": "WhitelistUpdated",
					"type": "event"
				},
				{
					"anonymous": false,
					"inputs": [
						{
							"indexed": false,
							"internalType": "uint256",
							"name": "sessionId",
							"type": "uint256"
						},
						{
							"indexed": false,
							"internalType": "uint256",
							"name": "propositionId",
							"type": "uint256"
						}
					],
					"name": "WinningProposition",
					"type": "event"
				},
				{
					"anonymous": false,
					"inputs": [
						{
							"indexed": false,
							"internalType": "uint256",
							"name": "sessionId",
							"type": "uint256"
						},
						{
							"indexed": false,
							"internalType": "enum Voting.WorkflowStatus",
							"name": "previousStatus",
							"type": "uint8"
						},
						{
							"indexed": false,
							"internalType": "enum Voting.WorkflowStatus",
							"name": "newStatus",
							"type": "uint8"
						}
					],
					"name": "WorkflowStatusChange",
					"type": "event"
				},
				{
					"inputs": [
						{
							"internalType": "uint256",
							"name": "sessionId",
							"type": "uint256"
						}
					],
					"name": "computeMostVotedProposal",
					"outputs": [],
					"stateMutability": "nonpayable",
					"type": "function"
				},
				{
					"inputs": [],
					"name": "createSession",
					"outputs": [],
					"stateMutability": "nonpayable",
					"type": "function"
				},
				{
					"inputs": [
						{
							"internalType": "uint256",
							"name": "sessionId",
							"type": "uint256"
						}
					],
					"name": "endProposalsRegistration",
					"outputs": [],
					"stateMutability": "nonpayable",
					"type": "function"
				},
				{
					"inputs": [
						{
							"internalType": "uint256",
							"name": "sessionId",
							"type": "uint256"
						}
					],
					"name": "endVotingSession",
					"outputs": [],
					"stateMutability": "nonpayable",
					"type": "function"
				},
				{
					"inputs": [
						{
							"internalType": "uint256",
							"name": "_sessionId",
							"type": "uint256"
						}
					],
					"name": "getAllProposalsBySession",
					"outputs": [
						{
							"components": [
								{
									"internalType": "string",
									"name": "description",
									"type": "string"
								},
								{
									"internalType": "address",
									"name": "submitter",
									"type": "address"
								},
								{
									"internalType": "uint256",
									"name": "voteCount",
									"type": "uint256"
								}
							],
							"internalType": "struct Voting.Proposal[]",
							"name": "",
							"type": "tuple[]"
						}
					],
					"stateMutability": "view",
					"type": "function"
				},
				{
					"inputs": [
						{
							"internalType": "address",
							"name": "_address",
							"type": "address"
						}
					],
					"name": "isWhitelisted",
					"outputs": [
						{
							"internalType": "bool",
							"name": "",
							"type": "bool"
						}
					],
					"stateMutability": "view",
					"type": "function"
				},
				{
					"inputs": [],
					"name": "owner",
					"outputs": [
						{
							"internalType": "address",
							"name": "",
							"type": "address"
						}
					],
					"stateMutability": "view",
					"type": "function"
				},
				{
					"inputs": [
						{
							"components": [
								{
									"internalType": "string",
									"name": "description",
									"type": "string"
								},
								{
									"internalType": "address",
									"name": "submitter",
									"type": "address"
								},
								{
									"internalType": "uint256",
									"name": "voteCount",
									"type": "uint256"
								}
							],
							"internalType": "struct Voting.Proposal[]",
							"name": "bestProposals",
							"type": "tuple[]"
						}
					],
					"name": "renewSession",
					"outputs": [],
					"stateMutability": "nonpayable",
					"type": "function"
				},
				{
					"inputs": [],
					"name": "renounceOwnership",
					"outputs": [],
					"stateMutability": "nonpayable",
					"type": "function"
				},
				{
					"inputs": [
						{
							"internalType": "uint256",
							"name": "sessionId",
							"type": "uint256"
						},
						{
							"internalType": "string",
							"name": "_description",
							"type": "string"
						}
					],
					"name": "sendNewProposition",
					"outputs": [],
					"stateMutability": "nonpayable",
					"type": "function"
				},
				{
					"inputs": [
						{
							"internalType": "uint256",
							"name": "sessionId",
							"type": "uint256"
						},
						{
							"internalType": "uint256",
							"name": "_proposalId",
							"type": "uint256"
						}
					],
					"name": "sendVote",
					"outputs": [],
					"stateMutability": "nonpayable",
					"type": "function"
				},
				{
					"inputs": [
						{
							"internalType": "uint256",
							"name": "sessionId",
							"type": "uint256"
						}
					],
					"name": "startProposalsRegistration",
					"outputs": [],
					"stateMutability": "nonpayable",
					"type": "function"
				},
				{
					"inputs": [
						{
							"internalType": "uint256",
							"name": "sessionId",
							"type": "uint256"
						}
					],
					"name": "startVotingSession",
					"outputs": [],
					"stateMutability": "nonpayable",
					"type": "function"
				},
				{
					"inputs": [
						{
							"internalType": "address",
							"name": "newOwner",
							"type": "address"
						}
					],
					"name": "transferOwnership",
					"outputs": [],
					"stateMutability": "nonpayable",
					"type": "function"
				},
				{
					"inputs": [
						{
							"internalType": "address",
							"name": "_address",
							"type": "address"
						},
						{
							"internalType": "bool",
							"name": "_isWhitelisted",
							"type": "bool"
						}
					],
					"name": "updateWhitelist",
					"outputs": [],
					"stateMutability": "nonpayable",
					"type": "function"
				},
				{
					"inputs": [
						{
							"internalType": "address",
							"name": "",
							"type": "address"
						}
					],
					"name": "whitelist",
					"outputs": [
						{
							"internalType": "bool",
							"name": "",
							"type": "bool"
						}
					],
					"stateMutability": "view",
					"type": "function"
				}
			],
			"devdoc": {
				"errors": {
					"OwnableInvalidOwner(address)": [
						{
							"details": "The owner is not a valid owner account. (eg. `address(0)`)"
						}
					],
					"OwnableUnauthorizedAccount(address)": [
						{
							"details": "The caller account is not authorized to perform an operation."
						}
					]
				},
				"kind": "dev",
				"methods": {
					"owner()": {
						"details": "Returns the address of the current owner."
					},
					"renounceOwnership()": {
						"details": "Leaves the contract without owner. It will not be possible to call `onlyOwner` functions. Can only be called by the current owner. NOTE: Renouncing ownership will leave the contract without an owner, thereby disabling any functionality that is only available to the owner."
					},
					"transferOwnership(address)": {
						"details": "Transfers ownership of the contract to a new account (`newOwner`). Can only be called by the current owner."
					}
				},
				"version": 1
			},
			"evm": {
				"assembly": "    /* \"contracts/VotingSessions.sol\":165:6987  contract Voting is Ownable {... */\n  mstore(0x40, 0x80)\n    /* \"contracts/VotingSessions.sol\":1317:1358  constructor() Ownable(msg.sender) {... */\n  callvalue\n  dup1\n  iszero\n  tag_1\n  jumpi\n  revert(0x00, 0x00)\ntag_1:\n  pop\n    /* \"contracts/VotingSessions.sol\":1339:1349  msg.sender */\n  caller\n    /* \"https://github.com/OpenZeppelin/openzeppelin-contracts/blob/master/contracts/access/Ownable.sol\":1297:1298  0 */\n  0x00\n    /* \"https://github.com/OpenZeppelin/openzeppelin-contracts/blob/master/contracts/access/Ownable.sol\":1273:1299  initialOwner == address(0) */\n  0xffffffffffffffffffffffffffffffffffffffff\n  and\n    /* \"https://github.com/OpenZeppelin/openzeppelin-contracts/blob/master/contracts/access/Ownable.sol\":1273:1285  initialOwner */\n  dup2\n    /* \"https://github.com/OpenZeppelin/openzeppelin-contracts/blob/master/contracts/access/Ownable.sol\":1273:1299  initialOwner == address(0) */\n  0xffffffffffffffffffffffffffffffffffffffff\n  and\n  sub\n    /* \"https://github.com/OpenZeppelin/openzeppelin-contracts/blob/master/contracts/access/Ownable.sol\":1269:1364  if (initialOwner == address(0)) {... */\n  tag_5\n  jumpi\n    /* \"https://github.com/OpenZeppelin/openzeppelin-contracts/blob/master/contracts/access/Ownable.sol\":1350:1351  0 */\n  0x00\n    /* \"https://github.com/OpenZeppelin/openzeppelin-contracts/blob/master/contracts/access/Ownable.sol\":1322:1353  OwnableInvalidOwner(address(0)) */\n  mload(0x40)\n  0x1e4fbdf700000000000000000000000000000000000000000000000000000000\n  dup2\n  mstore\n  0x04\n  add\n  tag_6\n  swap2\n  swap1\n  tag_7\n  jump\t// in\ntag_6:\n  mload(0x40)\n  dup1\n  swap2\n  sub\n  swap1\n  revert\n    /* \"https://github.com/OpenZeppelin/openzeppelin-contracts/blob/master/contracts/access/Ownable.sol\":1269:1364  if (initialOwner == address(0)) {... */\ntag_5:\n    /* \"https://github.com/OpenZeppelin/openzeppelin-contracts/blob/master/contracts/access/Ownable.sol\":1373:1405  _transferOwnership(initialOwner) */\n  tag_8\n    /* \"https://github.com/OpenZeppelin/openzeppelin-contracts/blob/master/contracts/access/Ownable.sol\":1392:1404  initialOwner */\n  dup2\n    /* \"https://github.com/OpenZeppelin/openzeppelin-contracts/blob/master/contracts/access/Ownable.sol\":1373:1391  _transferOwnership */\n  shl(0x20, tag_9)\n    /* \"https://github.com/OpenZeppelin/openzeppelin-contracts/blob/master/contracts/access/Ownable.sol\":1373:1405  _transferOwnership(initialOwner) */\n  0x20\n  shr\n  jump\t// in\ntag_8:\n    /* \"https://github.com/OpenZeppelin/openzeppelin-contracts/blob/master/contracts/access/Ownable.sol\":1225:1412  constructor(address initialOwner) {... */\n  pop\n    /* \"contracts/VotingSessions.sol\":165:6987  contract Voting is Ownable {... */\n  jump(tag_11)\n    /* \"https://github.com/OpenZeppelin/openzeppelin-contracts/blob/master/contracts/access/Ownable.sol\":2912:3099  function _transferOwnership(address newOwner) internal virtual {... */\ntag_9:\n    /* \"https://github.com/OpenZeppelin/openzeppelin-contracts/blob/master/contracts/access/Ownable.sol\":2985:3001  address oldOwner */\n  0x00\n    /* \"https://github.com/OpenZeppelin/openzeppelin-contracts/blob/master/contracts/access/Ownable.sol\":3004:3010  _owner */\n  0x00\n  0x00\n  swap1\n  sload\n  swap1\n  0x0100\n  exp\n  swap1\n  div\n  0xffffffffffffffffffffffffffffffffffffffff\n  and\n    /* \"https://github.com/OpenZeppelin/openzeppelin-contracts/blob/master/contracts/access/Ownable.sol\":2985:3010  address oldOwner = _owner */\n  swap1\n  pop\n    /* \"https://github.com/OpenZeppelin/openzeppelin-contracts/blob/master/contracts/access/Ownable.sol\":3029:3037  newOwner */\n  dup2\n    /* \"https://github.com/OpenZeppelin/openzeppelin-contracts/blob/master/contracts/access/Ownable.sol\":3020:3026  _owner */\n  0x00\n  0x00\n    /* \"https://github.com/OpenZeppelin/openzeppelin-contracts/blob/master/contracts/access/Ownable.sol\":3020:3037  _owner = newOwner */\n  0x0100\n  exp\n  dup2\n  sload\n  dup2\n  0xffffffffffffffffffffffffffffffffffffffff\n  mul\n  not\n  and\n  swap1\n  dup4\n  0xffffffffffffffffffffffffffffffffffffffff\n  and\n  mul\n  or\n  swap1\n  sstore\n  pop\n    /* \"https://github.com/OpenZeppelin/openzeppelin-contracts/blob/master/contracts/access/Ownable.sol\":3083:3091  newOwner */\n  dup2\n    /* \"https://github.com/OpenZeppelin/openzeppelin-contracts/blob/master/contracts/access/Ownable.sol\":3052:3092  OwnershipTransferred(oldOwner, newOwner) */\n  0xffffffffffffffffffffffffffffffffffffffff\n  and\n    /* \"https://github.com/OpenZeppelin/openzeppelin-contracts/blob/master/contracts/access/Ownable.sol\":3073:3081  oldOwner */\n  dup2\n    /* \"https://github.com/OpenZeppelin/openzeppelin-contracts/blob/master/contracts/access/Ownable.sol\":3052:3092  OwnershipTransferred(oldOwner, newOwner) */\n  0xffffffffffffffffffffffffffffffffffffffff\n  and\n  0x8be0079c531659141344cd1fd0a4f28419497f9722a3daafe3b4186f6b6457e0\n  mload(0x40)\n  mload(0x40)\n  dup1\n  swap2\n  sub\n  swap1\n  log3\n    /* \"https://github.com/OpenZeppelin/openzeppelin-contracts/blob/master/contracts/access/Ownable.sol\":2975:3099  {... */\n  pop\n    /* \"https://github.com/OpenZeppelin/openzeppelin-contracts/blob/master/contracts/access/Ownable.sol\":2912:3099  function _transferOwnership(address newOwner) internal virtual {... */\n  pop\n  jump\t// out\n    /* \"#utility.yul\":7:133   */\ntag_13:\n    /* \"#utility.yul\":44:51   */\n  0x00\n    /* \"#utility.yul\":84:126   */\n  0xffffffffffffffffffffffffffffffffffffffff\n    /* \"#utility.yul\":77:82   */\n  dup3\n    /* \"#utility.yul\":73:127   */\n  and\n    /* \"#utility.yul\":62:127   */\n  swap1\n  pop\n    /* \"#utility.yul\":7:133   */\n  swap2\n  swap1\n  pop\n  jump\t// out\n    /* \"#utility.yul\":139:235   */\ntag_14:\n    /* \"#utility.yul\":176:183   */\n  0x00\n    /* \"#utility.yul\":205:229   */\n  tag_19\n    /* \"#utility.yul\":223:228   */\n  dup3\n    /* \"#utility.yul\":205:229   */\n  tag_13\n  jump\t// in\ntag_19:\n    /* \"#utility.yul\":194:229   */\n  swap1\n  pop\n    /* \"#utility.yul\":139:235   */\n  swap2\n  swap1\n  pop\n  jump\t// out\n    /* \"#utility.yul\":241:359   */\ntag_15:\n    /* \"#utility.yul\":328:352   */\n  tag_21\n    /* \"#utility.yul\":346:351   */\n  dup2\n    /* \"#utility.yul\":328:352   */\n  tag_14\n  jump\t// in\ntag_21:\n    /* \"#utility.yul\":323:326   */\n  dup3\n    /* \"#utility.yul\":316:353   */\n  mstore\n    /* \"#utility.yul\":241:359   */\n  pop\n  pop\n  jump\t// out\n    /* \"#utility.yul\":365:587   */\ntag_7:\n    /* \"#utility.yul\":458:462   */\n  0x00\n    /* \"#utility.yul\":496:498   */\n  0x20\n    /* \"#utility.yul\":485:494   */\n  dup3\n    /* \"#utility.yul\":481:499   */\n  add\n    /* \"#utility.yul\":473:499   */\n  swap1\n  pop\n    /* \"#utility.yul\":509:580   */\n  tag_23\n    /* \"#utility.yul\":577:578   */\n  0x00\n    /* \"#utility.yul\":566:575   */\n  dup4\n    /* \"#utility.yul\":562:579   */\n  add\n    /* \"#utility.yul\":553:559   */\n  dup5\n    /* \"#utility.yul\":509:580   */\n  tag_15\n  jump\t// in\ntag_23:\n    /* \"#utility.yul\":365:587   */\n  swap3\n  swap2\n  pop\n  pop\n  jump\t// out\n    /* \"contracts/VotingSessions.sol\":165:6987  contract Voting is Ownable {... */\ntag_11:\n  dataSize(sub_0)\n  dup1\n  dataOffset(sub_0)\n  0x00\n  codecopy\n  0x00\n  return\nstop\n\nsub_0: assembly {\n        /* \"contracts/VotingSessions.sol\":165:6987  contract Voting is Ownable {... */\n      mstore(0x40, 0x80)\n      callvalue\n      dup1\n      iszero\n      tag_1\n      jumpi\n      revert(0x00, 0x00)\n    tag_1:\n      pop\n      jumpi(tag_2, lt(calldatasize, 0x04))\n      shr(0xe0, calldataload(0x00))\n      dup1\n      0x8da5cb5b\n      gt\n      tag_19\n      jumpi\n      dup1\n      0xd1ff7eeb\n      gt\n      tag_20\n      jumpi\n      dup1\n      0xd1ff7eeb\n      eq\n      tag_15\n      jumpi\n      dup1\n      0xd6a10dcb\n      eq\n      tag_16\n      jumpi\n      dup1\n      0xf2fde38b\n      eq\n      tag_17\n      jumpi\n      dup1\n      0xf38d3af8\n      eq\n      tag_18\n      jumpi\n      jump(tag_2)\n    tag_20:\n      dup1\n      0x8da5cb5b\n      eq\n      tag_11\n      jumpi\n      dup1\n      0x9980a55a\n      eq\n      tag_12\n      jumpi\n      dup1\n      0x9b19251a\n      eq\n      tag_13\n      jumpi\n      dup1\n      0xb9ea5dee\n      eq\n      tag_14\n      jumpi\n      jump(tag_2)\n    tag_19:\n      dup1\n      0x371820e9\n      gt\n      tag_21\n      jumpi\n      dup1\n      0x371820e9\n      eq\n      tag_7\n      jumpi\n      dup1\n      0x3af32abf\n      eq\n      tag_8\n      jumpi\n      dup1\n      0x715018a6\n      eq\n      tag_9\n      jumpi\n      dup1\n      0x8bc6a6dd\n      eq\n      tag_10\n      jumpi\n      jump(tag_2)\n    tag_21:\n      dup1\n      0x0d392cd9\n      eq\n      tag_3\n      jumpi\n      dup1\n      0x1cbf1b02\n      eq\n      tag_4\n      jumpi\n      dup1\n      0x291e6777\n      eq\n      tag_5\n      jumpi\n      dup1\n      0x35bb3d30\n      eq\n      tag_6\n      jumpi\n    tag_2:\n      revert(0x00, 0x00)\n        /* \"contracts/VotingSessions.sol\":1364:1638  function updateWhitelist(address _address, bool _isWhitelisted) public onlyOwner {... */\n    tag_3:\n      tag_22\n      0x04\n      dup1\n      calldatasize\n      sub\n      dup2\n      add\n      swap1\n      tag_23\n      swap2\n      swap1\n      tag_24\n      jump\t// in\n    tag_23:\n      tag_25\n      jump\t// in\n    tag_22:\n      stop\n        /* \"contracts/VotingSessions.sol\":1761:1994  function createSession() public onlyOwner {... */\n    tag_4:\n      tag_26\n      tag_27\n      jump\t// in\n    tag_26:\n      stop\n        /* \"contracts/VotingSessions.sol\":4543:5293  function sendVote(uint sessionId, uint _proposalId) public {... */\n    tag_5:\n      tag_28\n      0x04\n      dup1\n      calldatasize\n      sub\n      dup2\n      add\n      swap1\n      tag_29\n      swap2\n      swap1\n      tag_30\n      jump\t// in\n    tag_29:\n      tag_31\n      jump\t// in\n    tag_28:\n      stop\n        /* \"contracts/VotingSessions.sol\":5299:5819  function endVotingSession(uint sessionId) public onlyOwner {... */\n    tag_6:\n      tag_32\n      0x04\n      dup1\n      calldatasize\n      sub\n      dup2\n      add\n      swap1\n      tag_33\n      swap2\n      swap1\n      tag_34\n      jump\t// in\n    tag_33:\n      tag_35\n      jump\t// in\n    tag_32:\n      stop\n        /* \"contracts/VotingSessions.sol\":2820:3328  function sendNewProposition(uint sessionId, string memory _description) public {... */\n    tag_7:\n      tag_36\n      0x04\n      dup1\n      calldatasize\n      sub\n      dup2\n      add\n      swap1\n      tag_37\n      swap2\n      swap1\n      tag_38\n      jump\t// in\n    tag_37:\n      tag_39\n      jump\t// in\n    tag_36:\n      stop\n        /* \"contracts/VotingSessions.sol\":1644:1755  function isWhitelisted(address _address) public view returns (bool) {... */\n    tag_8:\n      tag_40\n      0x04\n      dup1\n      calldatasize\n      sub\n      dup2\n      add\n      swap1\n      tag_41\n      swap2\n      swap1\n      tag_42\n      jump\t// in\n    tag_41:\n      tag_43\n      jump\t// in\n    tag_40:\n      mload(0x40)\n      tag_44\n      swap2\n      swap1\n      tag_45\n      jump\t// in\n    tag_44:\n      mload(0x40)\n      dup1\n      swap2\n      sub\n      swap1\n      return\n        /* \"https://github.com/OpenZeppelin/openzeppelin-contracts/blob/master/contracts/access/Ownable.sol\":2293:2394  function renounceOwnership() public virtual onlyOwner {... */\n    tag_9:\n      tag_46\n      tag_47\n      jump\t// in\n    tag_46:\n      stop\n        /* \"contracts/VotingSessions.sol\":2394:2814  function startProposalsRegistration(uint sessionId) public onlyOwner {... */\n    tag_10:\n      tag_48\n      0x04\n      dup1\n      calldatasize\n      sub\n      dup2\n      add\n      swap1\n      tag_49\n      swap2\n      swap1\n      tag_34\n      jump\t// in\n    tag_49:\n      tag_50\n      jump\t// in\n    tag_48:\n      stop\n        /* \"https://github.com/OpenZeppelin/openzeppelin-contracts/blob/master/contracts/access/Ownable.sol\":1638:1723  function owner() public view virtual returns (address) {... */\n    tag_11:\n      tag_51\n      tag_52\n      jump\t// in\n    tag_51:\n      mload(0x40)\n      tag_53\n      swap2\n      swap1\n      tag_54\n      jump\t// in\n    tag_53:\n      mload(0x40)\n      dup1\n      swap2\n      sub\n      swap1\n      return\n        /* \"contracts/VotingSessions.sol\":4070:4533  function startVotingSession(uint sessionId) public onlyOwner {... */\n    tag_12:\n      tag_55\n      0x04\n      dup1\n      calldatasize\n      sub\n      dup2\n      add\n      swap1\n      tag_56\n      swap2\n      swap1\n      tag_34\n      jump\t// in\n    tag_56:\n      tag_57\n      jump\t// in\n    tag_55:\n      stop\n        /* \"contracts/VotingSessions.sol\":748:789  mapping(address => bool) public whitelist */\n    tag_13:\n      tag_58\n      0x04\n      dup1\n      calldatasize\n      sub\n      dup2\n      add\n      swap1\n      tag_59\n      swap2\n      swap1\n      tag_42\n      jump\t// in\n    tag_59:\n      tag_60\n      jump\t// in\n    tag_58:\n      mload(0x40)\n      tag_61\n      swap2\n      swap1\n      tag_45\n      jump\t// in\n    tag_61:\n      mload(0x40)\n      dup1\n      swap2\n      sub\n      swap1\n      return\n        /* \"contracts/VotingSessions.sol\":2000:2388  function renewSession(Proposal[] memory bestProposals) public onlyOwner {... */\n    tag_14:\n      tag_62\n      0x04\n      dup1\n      calldatasize\n      sub\n      dup2\n      add\n      swap1\n      tag_63\n      swap2\n      swap1\n      tag_64\n      jump\t// in\n    tag_63:\n      tag_65\n      jump\t// in\n    tag_62:\n      stop\n        /* \"contracts/VotingSessions.sol\":3490:4064  function endProposalsRegistration(uint sessionId) public onlyOwner {... */\n    tag_15:\n      tag_66\n      0x04\n      dup1\n      calldatasize\n      sub\n      dup2\n      add\n      swap1\n      tag_67\n      swap2\n      swap1\n      tag_34\n      jump\t// in\n    tag_67:\n      tag_68\n      jump\t// in\n    tag_66:\n      stop\n        /* \"contracts/VotingSessions.sol\":5825:6985  function computeMostVotedProposal(uint sessionId) public onlyOwner {   ... */\n    tag_16:\n      tag_69\n      0x04\n      dup1\n      calldatasize\n      sub\n      dup2\n      add\n      swap1\n      tag_70\n      swap2\n      swap1\n      tag_34\n      jump\t// in\n    tag_70:\n      tag_71\n      jump\t// in\n    tag_69:\n      stop\n        /* \"https://github.com/OpenZeppelin/openzeppelin-contracts/blob/master/contracts/access/Ownable.sol\":2543:2758  function transferOwnership(address newOwner) public virtual onlyOwner {... */\n    tag_17:\n      tag_72\n      0x04\n      dup1\n      calldatasize\n      sub\n      dup2\n      add\n      swap1\n      tag_73\n      swap2\n      swap1\n      tag_42\n      jump\t// in\n    tag_73:\n      tag_74\n      jump\t// in\n    tag_72:\n      stop\n        /* \"contracts/VotingSessions.sol\":3334:3480  function getAllProposalsBySession(uint _sessionId) external view returns(Proposal[] memory) {... */\n    tag_18:\n      tag_75\n      0x04\n      dup1\n      calldatasize\n      sub\n      dup2\n      add\n      swap1\n      tag_76\n      swap2\n      swap1\n      tag_34\n      jump\t// in\n    tag_76:\n      tag_77\n      jump\t// in\n    tag_75:\n      mload(0x40)\n      tag_78\n      swap2\n      swap1\n      tag_79\n      jump\t// in\n    tag_78:\n      mload(0x40)\n      dup1\n      swap2\n      sub\n      swap1\n      return\n        /* \"contracts/VotingSessions.sol\":1364:1638  function updateWhitelist(address _address, bool _isWhitelisted) public onlyOwner {... */\n    tag_25:\n        /* \"https://github.com/OpenZeppelin/openzeppelin-contracts/blob/master/contracts/access/Ownable.sol\":1531:1544  _checkOwner() */\n      tag_81\n        /* \"https://github.com/OpenZeppelin/openzeppelin-contracts/blob/master/contracts/access/Ownable.sol\":1531:1542  _checkOwner */\n      tag_82\n        /* \"https://github.com/OpenZeppelin/openzeppelin-contracts/blob/master/contracts/access/Ownable.sol\":1531:1544  _checkOwner() */\n      jump\t// in\n    tag_81:\n        /* \"contracts/VotingSessions.sol\":1486:1500  _isWhitelisted */\n      dup1\n        /* \"contracts/VotingSessions.sol\":1463:1500  whitelist[_address] != _isWhitelisted */\n      iszero\n      iszero\n        /* \"contracts/VotingSessions.sol\":1463:1472  whitelist */\n      0x01\n        /* \"contracts/VotingSessions.sol\":1463:1482  whitelist[_address] */\n      0x00\n        /* \"contracts/VotingSessions.sol\":1473:1481  _address */\n      dup5\n        /* \"contracts/VotingSessions.sol\":1463:1482  whitelist[_address] */\n      0xffffffffffffffffffffffffffffffffffffffff\n      and\n      0xffffffffffffffffffffffffffffffffffffffff\n      and\n      dup2\n      mstore\n      0x20\n      add\n      swap1\n      dup2\n      mstore\n      0x20\n      add\n      0x00\n      keccak256\n      0x00\n      swap1\n      sload\n      swap1\n      0x0100\n      exp\n      swap1\n      div\n      0xff\n      and\n        /* \"contracts/VotingSessions.sol\":1463:1500  whitelist[_address] != _isWhitelisted */\n      iszero\n      iszero\n      sub\n        /* \"contracts/VotingSessions.sol\":1455:1528  require(whitelist[_address] != _isWhitelisted, \"whitelist is up to date\") */\n      tag_84\n      jumpi\n      mload(0x40)\n      0x08c379a000000000000000000000000000000000000000000000000000000000\n      dup2\n      mstore\n      0x04\n      add\n      tag_85\n      swap1\n      tag_86\n      jump\t// in\n    tag_85:\n      mload(0x40)\n      dup1\n      swap2\n      sub\n      swap1\n      revert\n    tag_84:\n        /* \"contracts/VotingSessions.sol\":1560:1574  _isWhitelisted */\n      dup1\n        /* \"contracts/VotingSessions.sol\":1538:1547  whitelist */\n      0x01\n        /* \"contracts/VotingSessions.sol\":1538:1557  whitelist[_address] */\n      0x00\n        /* \"contracts/VotingSessions.sol\":1548:1556  _address */\n      dup5\n        /* \"contracts/VotingSessions.sol\":1538:1557  whitelist[_address] */\n      0xffffffffffffffffffffffffffffffffffffffff\n      and\n      0xffffffffffffffffffffffffffffffffffffffff\n      and\n      dup2\n      mstore\n      0x20\n      add\n      swap1\n      dup2\n      mstore\n      0x20\n      add\n      0x00\n      keccak256\n      0x00\n        /* \"contracts/VotingSessions.sol\":1538:1574  whitelist[_address] = _isWhitelisted */\n      0x0100\n      exp\n      dup2\n      sload\n      dup2\n      0xff\n      mul\n      not\n      and\n      swap1\n      dup4\n      iszero\n      iszero\n      mul\n      or\n      swap1\n      sstore\n      pop\n        /* \"contracts/VotingSessions.sol\":1589:1631  WhitelistUpdated(_address, _isWhitelisted) */\n      0xf93f9a76c1bf3444d22400a00cb9fe990e6abe9dbb333fda48859cfee864543d\n        /* \"contracts/VotingSessions.sol\":1606:1614  _address */\n      dup3\n        /* \"contracts/VotingSessions.sol\":1616:1630  _isWhitelisted */\n      dup3\n        /* \"contracts/VotingSessions.sol\":1589:1631  WhitelistUpdated(_address, _isWhitelisted) */\n      mload(0x40)\n      tag_87\n      swap3\n      swap2\n      swap1\n      tag_88\n      jump\t// in\n    tag_87:\n      mload(0x40)\n      dup1\n      swap2\n      sub\n      swap1\n      log1\n        /* \"contracts/VotingSessions.sol\":1364:1638  function updateWhitelist(address _address, bool _isWhitelisted) public onlyOwner {... */\n      pop\n      pop\n      jump\t// out\n        /* \"contracts/VotingSessions.sol\":1761:1994  function createSession() public onlyOwner {... */\n    tag_27:\n        /* \"https://github.com/OpenZeppelin/openzeppelin-contracts/blob/master/contracts/access/Ownable.sol\":1531:1544  _checkOwner() */\n      tag_90\n        /* \"https://github.com/OpenZeppelin/openzeppelin-contracts/blob/master/contracts/access/Ownable.sol\":1531:1542  _checkOwner */\n      tag_82\n        /* \"https://github.com/OpenZeppelin/openzeppelin-contracts/blob/master/contracts/access/Ownable.sol\":1531:1544  _checkOwner() */\n      jump\t// in\n    tag_90:\n        /* \"contracts/VotingSessions.sol\":1813:1829  sessionIdCounter */\n      0x03\n      0x00\n        /* \"contracts/VotingSessions.sol\":1813:1831  sessionIdCounter++ */\n      dup2\n      sload\n      dup1\n      swap3\n      swap2\n      swap1\n      tag_92\n      swap1\n      tag_93\n      jump\t// in\n    tag_92:\n      swap2\n      swap1\n      pop\n      sstore\n      pop\n        /* \"contracts/VotingSessions.sol\":1841:1867  Session storage newSession */\n      0x00\n        /* \"contracts/VotingSessions.sol\":1870:1878  sessions */\n      0x02\n        /* \"contracts/VotingSessions.sol\":1870:1896  sessions[sessionIdCounter] */\n      0x00\n        /* \"contracts/VotingSessions.sol\":1879:1895  sessionIdCounter */\n      sload(0x03)\n        /* \"contracts/VotingSessions.sol\":1870:1896  sessions[sessionIdCounter] */\n      dup2\n      mstore\n      0x20\n      add\n      swap1\n      dup2\n      mstore\n      0x20\n      add\n      0x00\n      keccak256\n        /* \"contracts/VotingSessions.sol\":1841:1896  Session storage newSession = sessions[sessionIdCounter] */\n      swap1\n      pop\n        /* \"contracts/VotingSessions.sol\":1922:1938  sessionIdCounter */\n      sload(0x03)\n        /* \"contracts/VotingSessions.sol\":1906:1916  newSession */\n      dup2\n        /* \"contracts/VotingSessions.sol\":1906:1919  newSession.id */\n      0x00\n      add\n        /* \"contracts/VotingSessions.sol\":1906:1938  newSession.id = sessionIdCounter */\n      dup2\n      swap1\n      sstore\n      pop\n        /* \"contracts/VotingSessions.sol\":1953:1987  NewVotingSession(sessionIdCounter) */\n      0x4b30851682903261bad80bb108cc1b7cdceda15ecc8cbab440ddc8988e102a85\n        /* \"contracts/VotingSessions.sol\":1970:1986  sessionIdCounter */\n      sload(0x03)\n        /* \"contracts/VotingSessions.sol\":1953:1987  NewVotingSession(sessionIdCounter) */\n      mload(0x40)\n      tag_94\n      swap2\n      swap1\n      tag_95\n      jump\t// in\n    tag_94:\n      mload(0x40)\n      dup1\n      swap2\n      sub\n      swap1\n      log1\n        /* \"contracts/VotingSessions.sol\":1803:1994  {... */\n      pop\n        /* \"contracts/VotingSessions.sol\":1761:1994  function createSession() public onlyOwner {... */\n      jump\t// out\n        /* \"contracts/VotingSessions.sol\":4543:5293  function sendVote(uint sessionId, uint _proposalId) public {... */\n    tag_31:\n        /* \"contracts/VotingSessions.sol\":4612:4642  Session storage currentSession */\n      0x00\n        /* \"contracts/VotingSessions.sol\":4645:4653  sessions */\n      0x02\n        /* \"contracts/VotingSessions.sol\":4645:4664  sessions[sessionId] */\n      0x00\n        /* \"contracts/VotingSessions.sol\":4654:4663  sessionId */\n      dup5\n        /* \"contracts/VotingSessions.sol\":4645:4664  sessions[sessionId] */\n      dup2\n      mstore\n      0x20\n      add\n      swap1\n      dup2\n      mstore\n      0x20\n      add\n      0x00\n      keccak256\n        /* \"contracts/VotingSessions.sol\":4612:4664  Session storage currentSession = sessions[sessionId] */\n      swap1\n      pop\n        /* \"contracts/VotingSessions.sol\":4715:4750  WorkflowStatus.VotingSessionStarted */\n      0x03\n        /* \"contracts/VotingSessions.sol\":4682:4750  currentSession.workflowStatus == WorkflowStatus.VotingSessionStarted */\n      0x05\n      dup2\n      gt\n      iszero\n      tag_97\n      jumpi\n      tag_98\n      tag_99\n      jump\t// in\n    tag_98:\n    tag_97:\n        /* \"contracts/VotingSessions.sol\":4682:4696  currentSession */\n      dup2\n        /* \"contracts/VotingSessions.sol\":4682:4711  currentSession.workflowStatus */\n      0x01\n      add\n      0x00\n      swap1\n      sload\n      swap1\n      0x0100\n      exp\n      swap1\n      div\n      0xff\n      and\n        /* \"contracts/VotingSessions.sol\":4682:4750  currentSession.workflowStatus == WorkflowStatus.VotingSessionStarted */\n      0x05\n      dup2\n      gt\n      iszero\n      tag_100\n      jumpi\n      tag_101\n      tag_99\n      jump\t// in\n    tag_101:\n    tag_100:\n      eq\n        /* \"contracts/VotingSessions.sol\":4674:4783  require(currentSession.workflowStatus == WorkflowStatus.VotingSessionStarted, \"registration did not started\") */\n      tag_102\n      jumpi\n      mload(0x40)\n      0x08c379a000000000000000000000000000000000000000000000000000000000\n      dup2\n      mstore\n      0x04\n      add\n      tag_103\n      swap1\n      tag_104\n      jump\t// in\n    tag_103:\n      mload(0x40)\n      dup1\n      swap2\n      sub\n      swap1\n      revert\n    tag_102:\n        /* \"contracts/VotingSessions.sol\":4801:4810  whitelist */\n      0x01\n        /* \"contracts/VotingSessions.sol\":4801:4822  whitelist[msg.sender] */\n      0x00\n        /* \"contracts/VotingSessions.sol\":4811:4821  msg.sender */\n      caller\n        /* \"contracts/VotingSessions.sol\":4801:4822  whitelist[msg.sender] */\n      0xffffffffffffffffffffffffffffffffffffffff\n      and\n      0xffffffffffffffffffffffffffffffffffffffff\n      and\n      dup2\n      mstore\n      0x20\n      add\n      swap1\n      dup2\n      mstore\n      0x20\n      add\n      0x00\n      keccak256\n      0x00\n      swap1\n      sload\n      swap1\n      0x0100\n      exp\n      swap1\n      div\n      0xff\n      and\n        /* \"contracts/VotingSessions.sol\":4793:4849  require(whitelist[msg.sender], \"You are not registered\") */\n      tag_105\n      jumpi\n      mload(0x40)\n      0x08c379a000000000000000000000000000000000000000000000000000000000\n      dup2\n      mstore\n      0x04\n      add\n      tag_106\n      swap1\n      tag_107\n      jump\t// in\n    tag_106:\n      mload(0x40)\n      dup1\n      swap2\n      sub\n      swap1\n      revert\n    tag_105:\n        /* \"contracts/VotingSessions.sol\":4868:4882  currentSession */\n      dup1\n        /* \"contracts/VotingSessions.sol\":4868:4891  currentSession.hasVoted */\n      0x05\n      add\n        /* \"contracts/VotingSessions.sol\":4868:4903  currentSession.hasVoted[msg.sender] */\n      0x00\n        /* \"contracts/VotingSessions.sol\":4892:4902  msg.sender */\n      caller\n        /* \"contracts/VotingSessions.sol\":4868:4903  currentSession.hasVoted[msg.sender] */\n      0xffffffffffffffffffffffffffffffffffffffff\n      and\n      0xffffffffffffffffffffffffffffffffffffffff\n      and\n      dup2\n      mstore\n      0x20\n      add\n      swap1\n      dup2\n      mstore\n      0x20\n      add\n      0x00\n      keccak256\n      0x00\n      swap1\n      sload\n      swap1\n      0x0100\n      exp\n      swap1\n      div\n      0xff\n      and\n        /* \"contracts/VotingSessions.sol\":4867:4903  !currentSession.hasVoted[msg.sender] */\n      iszero\n        /* \"contracts/VotingSessions.sol\":4859:4929  require(!currentSession.hasVoted[msg.sender], \"You have already vote\") */\n      tag_108\n      jumpi\n      mload(0x40)\n      0x08c379a000000000000000000000000000000000000000000000000000000000\n      dup2\n      mstore\n      0x04\n      add\n      tag_109\n      swap1\n      tag_110\n      jump\t// in\n    tag_109:\n      mload(0x40)\n      dup1\n      swap2\n      sub\n      swap1\n      revert\n    tag_108:\n        /* \"contracts/VotingSessions.sol\":4939:4964  Proposal storage proposal */\n      0x00\n        /* \"contracts/VotingSessions.sol\":4967:4981  currentSession */\n      dup2\n        /* \"contracts/VotingSessions.sol\":4967:4991  currentSession.proposals */\n      0x04\n      add\n        /* \"contracts/VotingSessions.sol\":4992:5003  _proposalId */\n      dup4\n        /* \"contracts/VotingSessions.sol\":4967:5004  currentSession.proposals[_proposalId] */\n      dup2\n      sload\n      dup2\n      lt\n      tag_111\n      jumpi\n      tag_112\n      tag_113\n      jump\t// in\n    tag_112:\n    tag_111:\n      swap1\n      0x00\n      mstore\n      keccak256(0x00, 0x20)\n      swap1\n      0x03\n      mul\n      add\n        /* \"contracts/VotingSessions.sol\":4939:5004  Proposal storage proposal = currentSession.proposals[_proposalId] */\n      swap1\n      pop\n        /* \"contracts/VotingSessions.sol\":5014:5022  proposal */\n      dup1\n        /* \"contracts/VotingSessions.sol\":5014:5032  proposal.voteCount */\n      0x02\n      add\n      0x00\n        /* \"contracts/VotingSessions.sol\":5014:5034  proposal.voteCount++ */\n      dup2\n      sload\n      dup1\n      swap3\n      swap2\n      swap1\n      tag_115\n      swap1\n      tag_93\n      jump\t// in\n    tag_115:\n      swap2\n      swap1\n      pop\n      sstore\n      pop\n        /* \"contracts/VotingSessions.sol\":5082:5086  true */\n      0x01\n        /* \"contracts/VotingSessions.sol\":5044:5058  currentSession */\n      dup3\n        /* \"contracts/VotingSessions.sol\":5044:5067  currentSession.hasVoted */\n      0x05\n      add\n        /* \"contracts/VotingSessions.sol\":5044:5079  currentSession.hasVoted[msg.sender] */\n      0x00\n        /* \"contracts/VotingSessions.sol\":5068:5078  msg.sender */\n      caller\n        /* \"contracts/VotingSessions.sol\":5044:5079  currentSession.hasVoted[msg.sender] */\n      0xffffffffffffffffffffffffffffffffffffffff\n      and\n      0xffffffffffffffffffffffffffffffffffffffff\n      and\n      dup2\n      mstore\n      0x20\n      add\n      swap1\n      dup2\n      mstore\n      0x20\n      add\n      0x00\n      keccak256\n      0x00\n        /* \"contracts/VotingSessions.sol\":5044:5086  currentSession.hasVoted[msg.sender] = true */\n      0x0100\n      exp\n      dup2\n      sload\n      dup2\n      0xff\n      mul\n      not\n      and\n      swap1\n      dup4\n      iszero\n      iszero\n      mul\n      or\n      swap1\n      sstore\n      pop\n        /* \"contracts/VotingSessions.sol\":5120:5134  currentSession */\n      dup2\n        /* \"contracts/VotingSessions.sol\":5120:5151  currentSession.highestVoteCount */\n      0x03\n      add\n      sload\n        /* \"contracts/VotingSessions.sol\":5099:5107  proposal */\n      dup2\n        /* \"contracts/VotingSessions.sol\":5099:5117  proposal.voteCount */\n      0x02\n      add\n      sload\n        /* \"contracts/VotingSessions.sol\":5099:5151  proposal.voteCount > currentSession.highestVoteCount */\n      gt\n        /* \"contracts/VotingSessions.sol\":5096:5231  if(proposal.voteCount > currentSession.highestVoteCount) { ... */\n      iszero\n      tag_116\n      jumpi\n        /* \"contracts/VotingSessions.sol\":5202:5210  proposal */\n      dup1\n        /* \"contracts/VotingSessions.sol\":5202:5220  proposal.voteCount */\n      0x02\n      add\n      sload\n        /* \"contracts/VotingSessions.sol\":5168:5182  currentSession */\n      dup3\n        /* \"contracts/VotingSessions.sol\":5168:5199  currentSession.highestVoteCount */\n      0x03\n      add\n        /* \"contracts/VotingSessions.sol\":5168:5220  currentSession.highestVoteCount = proposal.voteCount */\n      dup2\n      swap1\n      sstore\n      pop\n        /* \"contracts/VotingSessions.sol\":5096:5231  if(proposal.voteCount > currentSession.highestVoteCount) { ... */\n    tag_116:\n        /* \"contracts/VotingSessions.sol\":5245:5286  Voted(sessionId, msg.sender, _proposalId) */\n      0x1abe610cf2bf87e57dcc1181fcf5ac0934e843d8344ab9eed6e86c799f62585e\n        /* \"contracts/VotingSessions.sol\":5251:5260  sessionId */\n      dup5\n        /* \"contracts/VotingSessions.sol\":5262:5272  msg.sender */\n      caller\n        /* \"contracts/VotingSessions.sol\":5274:5285  _proposalId */\n      dup6\n        /* \"contracts/VotingSessions.sol\":5245:5286  Voted(sessionId, msg.sender, _proposalId) */\n      mload(0x40)\n      tag_117\n      swap4\n      swap3\n      swap2\n      swap1\n      tag_118\n      jump\t// in\n    tag_117:\n      mload(0x40)\n      dup1\n      swap2\n      sub\n      swap1\n      log1\n        /* \"contracts/VotingSessions.sol\":4602:5293  {... */\n      pop\n      pop\n        /* \"contracts/VotingSessions.sol\":4543:5293  function sendVote(uint sessionId, uint _proposalId) public {... */\n      pop\n      pop\n      jump\t// out\n        /* \"contracts/VotingSessions.sol\":5299:5819  function endVotingSession(uint sessionId) public onlyOwner {... */\n    tag_35:\n        /* \"https://github.com/OpenZeppelin/openzeppelin-contracts/blob/master/contracts/access/Ownable.sol\":1531:1544  _checkOwner() */\n      tag_120\n        /* \"https://github.com/OpenZeppelin/openzeppelin-contracts/blob/master/contracts/access/Ownable.sol\":1531:1542  _checkOwner */\n      tag_82\n        /* \"https://github.com/OpenZeppelin/openzeppelin-contracts/blob/master/contracts/access/Ownable.sol\":1531:1544  _checkOwner() */\n      jump\t// in\n    tag_120:\n        /* \"contracts/VotingSessions.sol\":5368:5398  Session storage currentSession */\n      0x00\n        /* \"contracts/VotingSessions.sol\":5401:5409  sessions */\n      0x02\n        /* \"contracts/VotingSessions.sol\":5401:5420  sessions[sessionId] */\n      0x00\n        /* \"contracts/VotingSessions.sol\":5410:5419  sessionId */\n      dup4\n        /* \"contracts/VotingSessions.sol\":5401:5420  sessions[sessionId] */\n      dup2\n      mstore\n      0x20\n      add\n      swap1\n      dup2\n      mstore\n      0x20\n      add\n      0x00\n      keccak256\n        /* \"contracts/VotingSessions.sol\":5368:5420  Session storage currentSession = sessions[sessionId] */\n      swap1\n      pop\n        /* \"contracts/VotingSessions.sol\":5471:5506  WorkflowStatus.VotingSessionStarted */\n      0x03\n        /* \"contracts/VotingSessions.sol\":5438:5506  currentSession.workflowStatus == WorkflowStatus.VotingSessionStarted */\n      0x05\n      dup2\n      gt\n      iszero\n      tag_122\n      jumpi\n      tag_123\n      tag_99\n      jump\t// in\n    tag_123:\n    tag_122:\n        /* \"contracts/VotingSessions.sol\":5438:5452  currentSession */\n      dup2\n        /* \"contracts/VotingSessions.sol\":5438:5467  currentSession.workflowStatus */\n      0x01\n      add\n      0x00\n      swap1\n      sload\n      swap1\n      0x0100\n      exp\n      swap1\n      div\n      0xff\n      and\n        /* \"contracts/VotingSessions.sol\":5438:5506  currentSession.workflowStatus == WorkflowStatus.VotingSessionStarted */\n      0x05\n      dup2\n      gt\n      iszero\n      tag_124\n      jumpi\n      tag_125\n      tag_99\n      jump\t// in\n    tag_125:\n    tag_124:\n      eq\n        /* \"contracts/VotingSessions.sol\":5430:5537  require(currentSession.workflowStatus == WorkflowStatus.VotingSessionStarted, \"Voting session not started\") */\n      tag_126\n      jumpi\n      mload(0x40)\n      0x08c379a000000000000000000000000000000000000000000000000000000000\n      dup2\n      mstore\n      0x04\n      add\n      tag_127\n      swap1\n      tag_128\n      jump\t// in\n    tag_127:\n      mload(0x40)\n      dup1\n      swap2\n      sub\n      swap1\n      revert\n    tag_126:\n        /* \"contracts/VotingSessions.sol\":5589:5590  0 */\n      0x00\n        /* \"contracts/VotingSessions.sol\":5555:5569  currentSession */\n      dup2\n        /* \"contracts/VotingSessions.sol\":5555:5586  currentSession.highestVoteCount */\n      0x03\n      add\n      sload\n        /* \"contracts/VotingSessions.sol\":5555:5590  currentSession.highestVoteCount > 0 */\n      gt\n        /* \"contracts/VotingSessions.sol\":5547:5619  require(currentSession.highestVoteCount > 0, \"no votes were registered\") */\n      tag_129\n      jumpi\n      mload(0x40)\n      0x08c379a000000000000000000000000000000000000000000000000000000000\n      dup2\n      mstore\n      0x04\n      add\n      tag_130\n      swap1\n      tag_131\n      jump\t// in\n    tag_130:\n      mload(0x40)\n      dup1\n      swap2\n      sub\n      swap1\n      revert\n    tag_129:\n        /* \"contracts/VotingSessions.sol\":5661:5694  WorkflowStatus.VotingSessionEnded */\n      0x04\n        /* \"contracts/VotingSessions.sol\":5629:5643  currentSession */\n      dup2\n        /* \"contracts/VotingSessions.sol\":5629:5658  currentSession.workflowStatus */\n      0x01\n      add\n      0x00\n        /* \"contracts/VotingSessions.sol\":5629:5694  currentSession.workflowStatus = WorkflowStatus.VotingSessionEnded */\n      0x0100\n      exp\n      dup2\n      sload\n      dup2\n      0xff\n      mul\n      not\n      and\n      swap1\n      dup4\n      0x05\n      dup2\n      gt\n      iszero\n      tag_132\n      jumpi\n      tag_133\n      tag_99\n      jump\t// in\n    tag_133:\n    tag_132:\n      mul\n      or\n      swap1\n      sstore\n      pop\n        /* \"contracts/VotingSessions.sol\":5709:5812  WorkflowStatusChange(sessionId, WorkflowStatus.VotingSessionStarted, WorkflowStatus.VotingSessionEnded) */\n      0xb067099e10826978a3867510ad1e0dcf4ca5cef8e422fd8df2fc3d679167fe8d\n        /* \"contracts/VotingSessions.sol\":5730:5739  sessionId */\n      dup3\n        /* \"contracts/VotingSessions.sol\":5741:5776  WorkflowStatus.VotingSessionStarted */\n      0x03\n        /* \"contracts/VotingSessions.sol\":5778:5811  WorkflowStatus.VotingSessionEnded */\n      0x04\n        /* \"contracts/VotingSessions.sol\":5709:5812  WorkflowStatusChange(sessionId, WorkflowStatus.VotingSessionStarted, WorkflowStatus.VotingSessionEnded) */\n      mload(0x40)\n      tag_134\n      swap4\n      swap3\n      swap2\n      swap1\n      tag_135\n      jump\t// in\n    tag_134:\n      mload(0x40)\n      dup1\n      swap2\n      sub\n      swap1\n      log1\n        /* \"contracts/VotingSessions.sol\":5358:5819  {... */\n      pop\n        /* \"contracts/VotingSessions.sol\":5299:5819  function endVotingSession(uint sessionId) public onlyOwner {... */\n      pop\n      jump\t// out\n        /* \"contracts/VotingSessions.sol\":2820:3328  function sendNewProposition(uint sessionId, string memory _description) public {... */\n    tag_39:\n        /* \"contracts/VotingSessions.sol\":2909:2939  Session storage currentSession */\n      0x00\n        /* \"contracts/VotingSessions.sol\":2942:2950  sessions */\n      0x02\n        /* \"contracts/VotingSessions.sol\":2942:2961  sessions[sessionId] */\n      0x00\n        /* \"contracts/VotingSessions.sol\":2951:2960  sessionId */\n      dup5\n        /* \"contracts/VotingSessions.sol\":2942:2961  sessions[sessionId] */\n      dup2\n      mstore\n      0x20\n      add\n      swap1\n      dup2\n      mstore\n      0x20\n      add\n      0x00\n      keccak256\n        /* \"contracts/VotingSessions.sol\":2909:2961  Session storage currentSession = sessions[sessionId] */\n      swap1\n      pop\n        /* \"contracts/VotingSessions.sol\":3012:3055  WorkflowStatus.ProposalsRegistrationStarted */\n      0x01\n        /* \"contracts/VotingSessions.sol\":2979:3055  currentSession.workflowStatus == WorkflowStatus.ProposalsRegistrationStarted */\n      0x05\n      dup2\n      gt\n      iszero\n      tag_137\n      jumpi\n      tag_138\n      tag_99\n      jump\t// in\n    tag_138:\n    tag_137:\n        /* \"contracts/VotingSessions.sol\":2979:2993  currentSession */\n      dup2\n        /* \"contracts/VotingSessions.sol\":2979:3008  currentSession.workflowStatus */\n      0x01\n      add\n      0x00\n      swap1\n      sload\n      swap1\n      0x0100\n      exp\n      swap1\n      div\n      0xff\n      and\n        /* \"contracts/VotingSessions.sol\":2979:3055  currentSession.workflowStatus == WorkflowStatus.ProposalsRegistrationStarted */\n      0x05\n      dup2\n      gt\n      iszero\n      tag_139\n      jumpi\n      tag_140\n      tag_99\n      jump\t// in\n    tag_140:\n    tag_139:\n      eq\n        /* \"contracts/VotingSessions.sol\":2971:3088  require(currentSession.workflowStatus == WorkflowStatus.ProposalsRegistrationStarted, \"registration did not started\") */\n      tag_141\n      jumpi\n      mload(0x40)\n      0x08c379a000000000000000000000000000000000000000000000000000000000\n      dup2\n      mstore\n      0x04\n      add\n      tag_142\n      swap1\n      tag_104\n      jump\t// in\n    tag_142:\n      mload(0x40)\n      dup1\n      swap2\n      sub\n      swap1\n      revert\n    tag_141:\n        /* \"contracts/VotingSessions.sol\":3106:3115  whitelist */\n      0x01\n        /* \"contracts/VotingSessions.sol\":3106:3127  whitelist[msg.sender] */\n      0x00\n        /* \"contracts/VotingSessions.sol\":3116:3126  msg.sender */\n      caller\n        /* \"contracts/VotingSessions.sol\":3106:3127  whitelist[msg.sender] */\n      0xffffffffffffffffffffffffffffffffffffffff\n      and\n      0xffffffffffffffffffffffffffffffffffffffff\n      and\n      dup2\n      mstore\n      0x20\n      add\n      swap1\n      dup2\n      mstore\n      0x20\n      add\n      0x00\n      keccak256\n      0x00\n      swap1\n      sload\n      swap1\n      0x0100\n      exp\n      swap1\n      div\n      0xff\n      and\n        /* \"contracts/VotingSessions.sol\":3098:3154  require(whitelist[msg.sender], \"You are not registered\") */\n      tag_143\n      jumpi\n      mload(0x40)\n      0x08c379a000000000000000000000000000000000000000000000000000000000\n      dup2\n      mstore\n      0x04\n      add\n      tag_144\n      swap1\n      tag_107\n      jump\t// in\n    tag_144:\n      mload(0x40)\n      dup1\n      swap2\n      sub\n      swap1\n      revert\n    tag_143:\n        /* \"contracts/VotingSessions.sol\":3164:3178  currentSession */\n      dup1\n        /* \"contracts/VotingSessions.sol\":3164:3188  currentSession.proposals */\n      0x04\n      add\n        /* \"contracts/VotingSessions.sol\":3194:3231  Proposal(_description, msg.sender, 0) */\n      mload(0x40)\n      dup1\n      0x60\n      add\n      0x40\n      mstore\n      dup1\n        /* \"contracts/VotingSessions.sol\":3203:3215  _description */\n      dup5\n        /* \"contracts/VotingSessions.sol\":3194:3231  Proposal(_description, msg.sender, 0) */\n      dup2\n      mstore\n      0x20\n      add\n        /* \"contracts/VotingSessions.sol\":3217:3227  msg.sender */\n      caller\n        /* \"contracts/VotingSessions.sol\":3194:3231  Proposal(_description, msg.sender, 0) */\n      0xffffffffffffffffffffffffffffffffffffffff\n      and\n      dup2\n      mstore\n      0x20\n      add\n        /* \"contracts/VotingSessions.sol\":3229:3230  0 */\n      0x00\n        /* \"contracts/VotingSessions.sol\":3194:3231  Proposal(_description, msg.sender, 0) */\n      dup2\n      mstore\n      pop\n        /* \"contracts/VotingSessions.sol\":3164:3232  currentSession.proposals.push(Proposal(_description, msg.sender, 0)) */\n      swap1\n      dup1\n      0x01\n      dup2\n      sload\n      add\n      dup1\n      dup3\n      sstore\n      dup1\n      swap2\n      pop\n      pop\n      0x01\n      swap1\n      sub\n      swap1\n      0x00\n      mstore\n      keccak256(0x00, 0x20)\n      swap1\n      0x03\n      mul\n      add\n      0x00\n      swap1\n      swap2\n      swap1\n      swap2\n      swap1\n      swap2\n      pop\n      0x00\n      dup3\n      add\n      mload\n      dup2\n      0x00\n      add\n      swap1\n      dup2\n      tag_146\n      swap2\n      swap1\n      tag_147\n      jump\t// in\n    tag_146:\n      pop\n      0x20\n      dup3\n      add\n      mload\n      dup2\n      0x01\n      add\n      exp(0x0100, 0x00)\n      dup2\n      sload\n      dup2\n      0xffffffffffffffffffffffffffffffffffffffff\n      mul\n      not\n      and\n      swap1\n      dup4\n      0xffffffffffffffffffffffffffffffffffffffff\n      and\n      mul\n      or\n      swap1\n      sstore\n      pop\n      0x40\n      dup3\n      add\n      mload\n      dup2\n      0x02\n      add\n      sstore\n      pop\n      pop\n        /* \"contracts/VotingSessions.sol\":3247:3321  ProposalRegistered(currentSession.id, currentSession.proposals.length - 1) */\n      0xca195036d7c4d40b171ad51e9c891c830a0ad9a5e114b5b075cdf791317e300c\n        /* \"contracts/VotingSessions.sol\":3266:3280  currentSession */\n      dup2\n        /* \"contracts/VotingSessions.sol\":3266:3283  currentSession.id */\n      0x00\n      add\n      sload\n        /* \"contracts/VotingSessions.sol\":3319:3320  1 */\n      0x01\n        /* \"contracts/VotingSessions.sol\":3285:3299  currentSession */\n      dup4\n        /* \"contracts/VotingSessions.sol\":3285:3309  currentSession.proposals */\n      0x04\n      add\n        /* \"contracts/VotingSessions.sol\":3285:3316  currentSession.proposals.length */\n      dup1\n      sload\n      swap1\n      pop\n        /* \"contracts/VotingSessions.sol\":3285:3320  currentSession.proposals.length - 1 */\n      tag_148\n      swap2\n      swap1\n      tag_149\n      jump\t// in\n    tag_148:\n        /* \"contracts/VotingSessions.sol\":3247:3321  ProposalRegistered(currentSession.id, currentSession.proposals.length - 1) */\n      mload(0x40)\n      tag_150\n      swap3\n      swap2\n      swap1\n      tag_151\n      jump\t// in\n    tag_150:\n      mload(0x40)\n      dup1\n      swap2\n      sub\n      swap1\n      log1\n        /* \"contracts/VotingSessions.sol\":2899:3328  {... */\n      pop\n        /* \"contracts/VotingSessions.sol\":2820:3328  function sendNewProposition(uint sessionId, string memory _description) public {... */\n      pop\n      pop\n      jump\t// out\n        /* \"contracts/VotingSessions.sol\":1644:1755  function isWhitelisted(address _address) public view returns (bool) {... */\n    tag_43:\n        /* \"contracts/VotingSessions.sol\":1706:1710  bool */\n      0x00\n        /* \"contracts/VotingSessions.sol\":1729:1738  whitelist */\n      0x01\n        /* \"contracts/VotingSessions.sol\":1729:1748  whitelist[_address] */\n      0x00\n        /* \"contracts/VotingSessions.sol\":1739:1747  _address */\n      dup4\n        /* \"contracts/VotingSessions.sol\":1729:1748  whitelist[_address] */\n      0xffffffffffffffffffffffffffffffffffffffff\n      and\n      0xffffffffffffffffffffffffffffffffffffffff\n      and\n      dup2\n      mstore\n      0x20\n      add\n      swap1\n      dup2\n      mstore\n      0x20\n      add\n      0x00\n      keccak256\n      0x00\n      swap1\n      sload\n      swap1\n      0x0100\n      exp\n      swap1\n      div\n      0xff\n      and\n        /* \"contracts/VotingSessions.sol\":1722:1748  return whitelist[_address] */\n      swap1\n      pop\n        /* \"contracts/VotingSessions.sol\":1644:1755  function isWhitelisted(address _address) public view returns (bool) {... */\n      swap2\n      swap1\n      pop\n      jump\t// out\n        /* \"https://github.com/OpenZeppelin/openzeppelin-contracts/blob/master/contracts/access/Ownable.sol\":2293:2394  function renounceOwnership() public virtual onlyOwner {... */\n    tag_47:\n        /* \"https://github.com/OpenZeppelin/openzeppelin-contracts/blob/master/contracts/access/Ownable.sol\":1531:1544  _checkOwner() */\n      tag_154\n        /* \"https://github.com/OpenZeppelin/openzeppelin-contracts/blob/master/contracts/access/Ownable.sol\":1531:1542  _checkOwner */\n      tag_82\n        /* \"https://github.com/OpenZeppelin/openzeppelin-contracts/blob/master/contracts/access/Ownable.sol\":1531:1544  _checkOwner() */\n      jump\t// in\n    tag_154:\n        /* \"https://github.com/OpenZeppelin/openzeppelin-contracts/blob/master/contracts/access/Ownable.sol\":2357:2387  _transferOwnership(address(0)) */\n      tag_156\n        /* \"https://github.com/OpenZeppelin/openzeppelin-contracts/blob/master/contracts/access/Ownable.sol\":2384:2385  0 */\n      0x00\n        /* \"https://github.com/OpenZeppelin/openzeppelin-contracts/blob/master/contracts/access/Ownable.sol\":2357:2375  _transferOwnership */\n      tag_157\n        /* \"https://github.com/OpenZeppelin/openzeppelin-contracts/blob/master/contracts/access/Ownable.sol\":2357:2387  _transferOwnership(address(0)) */\n      jump\t// in\n    tag_156:\n        /* \"https://github.com/OpenZeppelin/openzeppelin-contracts/blob/master/contracts/access/Ownable.sol\":2293:2394  function renounceOwnership() public virtual onlyOwner {... */\n      jump\t// out\n        /* \"contracts/VotingSessions.sol\":2394:2814  function startProposalsRegistration(uint sessionId) public onlyOwner {... */\n    tag_50:\n        /* \"https://github.com/OpenZeppelin/openzeppelin-contracts/blob/master/contracts/access/Ownable.sol\":1531:1544  _checkOwner() */\n      tag_159\n        /* \"https://github.com/OpenZeppelin/openzeppelin-contracts/blob/master/contracts/access/Ownable.sol\":1531:1542  _checkOwner */\n      tag_82\n        /* \"https://github.com/OpenZeppelin/openzeppelin-contracts/blob/master/contracts/access/Ownable.sol\":1531:1544  _checkOwner() */\n      jump\t// in\n    tag_159:\n        /* \"contracts/VotingSessions.sol\":2473:2499  Session storage newSession */\n      0x00\n        /* \"contracts/VotingSessions.sol\":2502:2510  sessions */\n      0x02\n        /* \"contracts/VotingSessions.sol\":2502:2521  sessions[sessionId] */\n      0x00\n        /* \"contracts/VotingSessions.sol\":2511:2520  sessionId */\n      dup4\n        /* \"contracts/VotingSessions.sol\":2502:2521  sessions[sessionId] */\n      dup2\n      mstore\n      0x20\n      add\n      swap1\n      dup2\n      mstore\n      0x20\n      add\n      0x00\n      keccak256\n        /* \"contracts/VotingSessions.sol\":2473:2521  Session storage newSession = sessions[sessionId] */\n      swap1\n      pop\n        /* \"contracts/VotingSessions.sol\":2568:2600  WorkflowStatus.RegisteringVoters */\n      0x00\n        /* \"contracts/VotingSessions.sol\":2539:2600  newSession.workflowStatus == WorkflowStatus.RegisteringVoters */\n      0x05\n      dup2\n      gt\n      iszero\n      tag_161\n      jumpi\n      tag_162\n      tag_99\n      jump\t// in\n    tag_162:\n    tag_161:\n        /* \"contracts/VotingSessions.sol\":2539:2549  newSession */\n      dup2\n        /* \"contracts/VotingSessions.sol\":2539:2564  newSession.workflowStatus */\n      0x01\n      add\n      0x00\n      swap1\n      sload\n      swap1\n      0x0100\n      exp\n      swap1\n      div\n      0xff\n      and\n        /* \"contracts/VotingSessions.sol\":2539:2600  newSession.workflowStatus == WorkflowStatus.RegisteringVoters */\n      0x05\n      dup2\n      gt\n      iszero\n      tag_163\n      jumpi\n      tag_164\n      tag_99\n      jump\t// in\n    tag_164:\n    tag_163:\n      eq\n        /* \"contracts/VotingSessions.sol\":2531:2601  require(newSession.workflowStatus == WorkflowStatus.RegisteringVoters) */\n      tag_165\n      jumpi\n      revert(0x00, 0x00)\n    tag_165:\n        /* \"contracts/VotingSessions.sol\":2639:2682  WorkflowStatus.ProposalsRegistrationStarted */\n      0x01\n        /* \"contracts/VotingSessions.sol\":2611:2621  newSession */\n      dup2\n        /* \"contracts/VotingSessions.sol\":2611:2636  newSession.workflowStatus */\n      0x01\n      add\n      0x00\n        /* \"contracts/VotingSessions.sol\":2611:2682  newSession.workflowStatus = WorkflowStatus.ProposalsRegistrationStarted */\n      0x0100\n      exp\n      dup2\n      sload\n      dup2\n      0xff\n      mul\n      not\n      and\n      swap1\n      dup4\n      0x05\n      dup2\n      gt\n      iszero\n      tag_166\n      jumpi\n      tag_167\n      tag_99\n      jump\t// in\n    tag_167:\n    tag_166:\n      mul\n      or\n      swap1\n      sstore\n      pop\n        /* \"contracts/VotingSessions.sol\":2697:2807  WorkflowStatusChange(sessionId, WorkflowStatus.RegisteringVoters, WorkflowStatus.ProposalsRegistrationStarted) */\n      0xb067099e10826978a3867510ad1e0dcf4ca5cef8e422fd8df2fc3d679167fe8d\n        /* \"contracts/VotingSessions.sol\":2718:2727  sessionId */\n      dup3\n        /* \"contracts/VotingSessions.sol\":2729:2761  WorkflowStatus.RegisteringVoters */\n      0x00\n        /* \"contracts/VotingSessions.sol\":2763:2806  WorkflowStatus.ProposalsRegistrationStarted */\n      0x01\n        /* \"contracts/VotingSessions.sol\":2697:2807  WorkflowStatusChange(sessionId, WorkflowStatus.RegisteringVoters, WorkflowStatus.ProposalsRegistrationStarted) */\n      mload(0x40)\n      tag_168\n      swap4\n      swap3\n      swap2\n      swap1\n      tag_135\n      jump\t// in\n    tag_168:\n      mload(0x40)\n      dup1\n      swap2\n      sub\n      swap1\n      log1\n        /* \"contracts/VotingSessions.sol\":2463:2814  {... */\n      pop\n        /* \"contracts/VotingSessions.sol\":2394:2814  function startProposalsRegistration(uint sessionId) public onlyOwner {... */\n      pop\n      jump\t// out\n        /* \"https://github.com/OpenZeppelin/openzeppelin-contracts/blob/master/contracts/access/Ownable.sol\":1638:1723  function owner() public view virtual returns (address) {... */\n    tag_52:\n        /* \"https://github.com/OpenZeppelin/openzeppelin-contracts/blob/master/contracts/access/Ownable.sol\":1684:1691  address */\n      0x00\n        /* \"https://github.com/OpenZeppelin/openzeppelin-contracts/blob/master/contracts/access/Ownable.sol\":1710:1716  _owner */\n      0x00\n      0x00\n      swap1\n      sload\n      swap1\n      0x0100\n      exp\n      swap1\n      div\n      0xffffffffffffffffffffffffffffffffffffffff\n      and\n        /* \"https://github.com/OpenZeppelin/openzeppelin-contracts/blob/master/contracts/access/Ownable.sol\":1703:1716  return _owner */\n      swap1\n      pop\n        /* \"https://github.com/OpenZeppelin/openzeppelin-contracts/blob/master/contracts/access/Ownable.sol\":1638:1723  function owner() public view virtual returns (address) {... */\n      swap1\n      jump\t// out\n        /* \"contracts/VotingSessions.sol\":4070:4533  function startVotingSession(uint sessionId) public onlyOwner {... */\n    tag_57:\n        /* \"https://github.com/OpenZeppelin/openzeppelin-contracts/blob/master/contracts/access/Ownable.sol\":1531:1544  _checkOwner() */\n      tag_171\n        /* \"https://github.com/OpenZeppelin/openzeppelin-contracts/blob/master/contracts/access/Ownable.sol\":1531:1542  _checkOwner */\n      tag_82\n        /* \"https://github.com/OpenZeppelin/openzeppelin-contracts/blob/master/contracts/access/Ownable.sol\":1531:1544  _checkOwner() */\n      jump\t// in\n    tag_171:\n        /* \"contracts/VotingSessions.sol\":4141:4171  Session storage currentSession */\n      0x00\n        /* \"contracts/VotingSessions.sol\":4174:4182  sessions */\n      0x02\n        /* \"contracts/VotingSessions.sol\":4174:4193  sessions[sessionId] */\n      0x00\n        /* \"contracts/VotingSessions.sol\":4183:4192  sessionId */\n      dup4\n        /* \"contracts/VotingSessions.sol\":4174:4193  sessions[sessionId] */\n      dup2\n      mstore\n      0x20\n      add\n      swap1\n      dup2\n      mstore\n      0x20\n      add\n      0x00\n      keccak256\n        /* \"contracts/VotingSessions.sol\":4141:4193  Session storage currentSession = sessions[sessionId] */\n      swap1\n      pop\n        /* \"contracts/VotingSessions.sol\":4244:4285  WorkflowStatus.ProposalsRegistrationEnded */\n      0x02\n        /* \"contracts/VotingSessions.sol\":4211:4285  currentSession.workflowStatus == WorkflowStatus.ProposalsRegistrationEnded */\n      0x05\n      dup2\n      gt\n      iszero\n      tag_173\n      jumpi\n      tag_174\n      tag_99\n      jump\t// in\n    tag_174:\n    tag_173:\n        /* \"contracts/VotingSessions.sol\":4211:4225  currentSession */\n      dup2\n        /* \"contracts/VotingSessions.sol\":4211:4240  currentSession.workflowStatus */\n      0x01\n      add\n      0x00\n      swap1\n      sload\n      swap1\n      0x0100\n      exp\n      swap1\n      div\n      0xff\n      and\n        /* \"contracts/VotingSessions.sol\":4211:4285  currentSession.workflowStatus == WorkflowStatus.ProposalsRegistrationEnded */\n      0x05\n      dup2\n      gt\n      iszero\n      tag_175\n      jumpi\n      tag_176\n      tag_99\n      jump\t// in\n    tag_176:\n    tag_175:\n      eq\n        /* \"contracts/VotingSessions.sol\":4203:4322  require(currentSession.workflowStatus == WorkflowStatus.ProposalsRegistrationEnded, \"Proposals registration not ended\") */\n      tag_177\n      jumpi\n      mload(0x40)\n      0x08c379a000000000000000000000000000000000000000000000000000000000\n      dup2\n      mstore\n      0x04\n      add\n      tag_178\n      swap1\n      tag_179\n      jump\t// in\n    tag_178:\n      mload(0x40)\n      dup1\n      swap2\n      sub\n      swap1\n      revert\n    tag_177:\n        /* \"contracts/VotingSessions.sol\":4364:4399  WorkflowStatus.VotingSessionStarted */\n      0x03\n        /* \"contracts/VotingSessions.sol\":4332:4346  currentSession */\n      dup2\n        /* \"contracts/VotingSessions.sol\":4332:4361  currentSession.workflowStatus */\n      0x01\n      add\n      0x00\n        /* \"contracts/VotingSessions.sol\":4332:4399  currentSession.workflowStatus = WorkflowStatus.VotingSessionStarted */\n      0x0100\n      exp\n      dup2\n      sload\n      dup2\n      0xff\n      mul\n      not\n      and\n      swap1\n      dup4\n      0x05\n      dup2\n      gt\n      iszero\n      tag_180\n      jumpi\n      tag_181\n      tag_99\n      jump\t// in\n    tag_181:\n    tag_180:\n      mul\n      or\n      swap1\n      sstore\n      pop\n        /* \"contracts/VotingSessions.sol\":4414:4525  WorkflowStatusChange(sessionId, WorkflowStatus.ProposalsRegistrationEnded, WorkflowStatus.VotingSessionStarted) */\n      0xb067099e10826978a3867510ad1e0dcf4ca5cef8e422fd8df2fc3d679167fe8d\n        /* \"contracts/VotingSessions.sol\":4435:4444  sessionId */\n      dup3\n        /* \"contracts/VotingSessions.sol\":4446:4487  WorkflowStatus.ProposalsRegistrationEnded */\n      0x02\n        /* \"contracts/VotingSessions.sol\":4489:4524  WorkflowStatus.VotingSessionStarted */\n      0x03\n        /* \"contracts/VotingSessions.sol\":4414:4525  WorkflowStatusChange(sessionId, WorkflowStatus.ProposalsRegistrationEnded, WorkflowStatus.VotingSessionStarted) */\n      mload(0x40)\n      tag_182\n      swap4\n      swap3\n      swap2\n      swap1\n      tag_135\n      jump\t// in\n    tag_182:\n      mload(0x40)\n      dup1\n      swap2\n      sub\n      swap1\n      log1\n        /* \"contracts/VotingSessions.sol\":4131:4533  {... */\n      pop\n        /* \"contracts/VotingSessions.sol\":4070:4533  function startVotingSession(uint sessionId) public onlyOwner {... */\n      pop\n      jump\t// out\n        /* \"contracts/VotingSessions.sol\":748:789  mapping(address => bool) public whitelist */\n    tag_60:\n      mstore(0x20, 0x01)\n      dup1\n      0x00\n      mstore\n      keccak256(0x00, 0x40)\n      0x00\n      swap2\n      pop\n      sload\n      swap1\n      0x0100\n      exp\n      swap1\n      div\n      0xff\n      and\n      dup2\n      jump\t// out\n        /* \"contracts/VotingSessions.sol\":2000:2388  function renewSession(Proposal[] memory bestProposals) public onlyOwner {... */\n    tag_65:\n        /* \"https://github.com/OpenZeppelin/openzeppelin-contracts/blob/master/contracts/access/Ownable.sol\":1531:1544  _checkOwner() */\n      tag_184\n        /* \"https://github.com/OpenZeppelin/openzeppelin-contracts/blob/master/contracts/access/Ownable.sol\":1531:1542  _checkOwner */\n      tag_82\n        /* \"https://github.com/OpenZeppelin/openzeppelin-contracts/blob/master/contracts/access/Ownable.sol\":1531:1544  _checkOwner() */\n      jump\t// in\n    tag_184:\n        /* \"contracts/VotingSessions.sol\":2082:2098  sessionIdCounter */\n      0x03\n      0x00\n        /* \"contracts/VotingSessions.sol\":2082:2100  sessionIdCounter++ */\n      dup2\n      sload\n      dup1\n      swap3\n      swap2\n      swap1\n      tag_186\n      swap1\n      tag_93\n      jump\t// in\n    tag_186:\n      swap2\n      swap1\n      pop\n      sstore\n      pop\n        /* \"contracts/VotingSessions.sol\":2110:2136  Session storage newSession */\n      0x00\n        /* \"contracts/VotingSessions.sol\":2139:2147  sessions */\n      0x02\n        /* \"contracts/VotingSessions.sol\":2139:2165  sessions[sessionIdCounter] */\n      0x00\n        /* \"contracts/VotingSessions.sol\":2148:2164  sessionIdCounter */\n      sload(0x03)\n        /* \"contracts/VotingSessions.sol\":2139:2165  sessions[sessionIdCounter] */\n      dup2\n      mstore\n      0x20\n      add\n      swap1\n      dup2\n      mstore\n      0x20\n      add\n      0x00\n      keccak256\n        /* \"contracts/VotingSessions.sol\":2110:2165  Session storage newSession = sessions[sessionIdCounter] */\n      swap1\n      pop\n        /* \"contracts/VotingSessions.sol\":2191:2207  sessionIdCounter */\n      sload(0x03)\n        /* \"contracts/VotingSessions.sol\":2175:2185  newSession */\n      dup2\n        /* \"contracts/VotingSessions.sol\":2175:2188  newSession.id */\n      0x00\n      add\n        /* \"contracts/VotingSessions.sol\":2175:2207  newSession.id = sessionIdCounter */\n      dup2\n      swap1\n      sstore\n      pop\n        /* \"contracts/VotingSessions.sol\":2222:2228  uint i */\n      0x00\n        /* \"contracts/VotingSessions.sol\":2231:2232  0 */\n      0x00\n        /* \"contracts/VotingSessions.sol\":2222:2232  uint i = 0 */\n      swap1\n      pop\n        /* \"contracts/VotingSessions.sol\":2217:2333  for (uint i = 0; i < bestProposals.length; i++) {... */\n    tag_187:\n        /* \"contracts/VotingSessions.sol\":2238:2251  bestProposals */\n      dup3\n        /* \"contracts/VotingSessions.sol\":2238:2258  bestProposals.length */\n      mload\n        /* \"contracts/VotingSessions.sol\":2234:2235  i */\n      dup2\n        /* \"contracts/VotingSessions.sol\":2234:2258  i < bestProposals.length */\n      lt\n        /* \"contracts/VotingSessions.sol\":2217:2333  for (uint i = 0; i < bestProposals.length; i++) {... */\n      iszero\n      tag_188\n      jumpi\n        /* \"contracts/VotingSessions.sol\":2279:2289  newSession */\n      dup2\n        /* \"contracts/VotingSessions.sol\":2279:2299  newSession.proposals */\n      0x04\n      add\n        /* \"contracts/VotingSessions.sol\":2305:2318  bestProposals */\n      dup4\n        /* \"contracts/VotingSessions.sol\":2319:2320  i */\n      dup3\n        /* \"contracts/VotingSessions.sol\":2305:2321  bestProposals[i] */\n      dup2\n      mload\n      dup2\n      lt\n      tag_190\n      jumpi\n      tag_191\n      tag_113\n      jump\t// in\n    tag_191:\n    tag_190:\n      0x20\n      mul\n      0x20\n      add\n      add\n      mload\n        /* \"contracts/VotingSessions.sol\":2279:2322  newSession.proposals.push(bestProposals[i]) */\n      swap1\n      dup1\n      0x01\n      dup2\n      sload\n      add\n      dup1\n      dup3\n      sstore\n      dup1\n      swap2\n      pop\n      pop\n      0x01\n      swap1\n      sub\n      swap1\n      0x00\n      mstore\n      keccak256(0x00, 0x20)\n      swap1\n      0x03\n      mul\n      add\n      0x00\n      swap1\n      swap2\n      swap1\n      swap2\n      swap1\n      swap2\n      pop\n      0x00\n      dup3\n      add\n      mload\n      dup2\n      0x00\n      add\n      swap1\n      dup2\n      tag_193\n      swap2\n      swap1\n      tag_147\n      jump\t// in\n    tag_193:\n      pop\n      0x20\n      dup3\n      add\n      mload\n      dup2\n      0x01\n      add\n      exp(0x0100, 0x00)\n      dup2\n      sload\n      dup2\n      0xffffffffffffffffffffffffffffffffffffffff\n      mul\n      not\n      and\n      swap1\n      dup4\n      0xffffffffffffffffffffffffffffffffffffffff\n      and\n      mul\n      or\n      swap1\n      sstore\n      pop\n      0x40\n      dup3\n      add\n      mload\n      dup2\n      0x02\n      add\n      sstore\n      pop\n      pop\n        /* \"contracts/VotingSessions.sol\":2260:2263  i++ */\n      dup1\n      dup1\n      0x01\n      add\n      swap2\n      pop\n      pop\n        /* \"contracts/VotingSessions.sol\":2217:2333  for (uint i = 0; i < bestProposals.length; i++) {... */\n      jump(tag_187)\n    tag_188:\n      pop\n        /* \"contracts/VotingSessions.sol\":2347:2381  NewVotingSession(sessionIdCounter) */\n      0x4b30851682903261bad80bb108cc1b7cdceda15ecc8cbab440ddc8988e102a85\n        /* \"contracts/VotingSessions.sol\":2364:2380  sessionIdCounter */\n      sload(0x03)\n        /* \"contracts/VotingSessions.sol\":2347:2381  NewVotingSession(sessionIdCounter) */\n      mload(0x40)\n      tag_194\n      swap2\n      swap1\n      tag_95\n      jump\t// in\n    tag_194:\n      mload(0x40)\n      dup1\n      swap2\n      sub\n      swap1\n      log1\n        /* \"contracts/VotingSessions.sol\":2072:2388  {... */\n      pop\n        /* \"contracts/VotingSessions.sol\":2000:2388  function renewSession(Proposal[] memory bestProposals) public onlyOwner {... */\n      pop\n      jump\t// out\n        /* \"contracts/VotingSessions.sol\":3490:4064  function endProposalsRegistration(uint sessionId) public onlyOwner {... */\n    tag_68:\n        /* \"https://github.com/OpenZeppelin/openzeppelin-contracts/blob/master/contracts/access/Ownable.sol\":1531:1544  _checkOwner() */\n      tag_196\n        /* \"https://github.com/OpenZeppelin/openzeppelin-contracts/blob/master/contracts/access/Ownable.sol\":1531:1542  _checkOwner */\n      tag_82\n        /* \"https://github.com/OpenZeppelin/openzeppelin-contracts/blob/master/contracts/access/Ownable.sol\":1531:1544  _checkOwner() */\n      jump\t// in\n    tag_196:\n        /* \"contracts/VotingSessions.sol\":3567:3597  Session storage currentSession */\n      0x00\n        /* \"contracts/VotingSessions.sol\":3600:3608  sessions */\n      0x02\n        /* \"contracts/VotingSessions.sol\":3600:3619  sessions[sessionId] */\n      0x00\n        /* \"contracts/VotingSessions.sol\":3609:3618  sessionId */\n      dup4\n        /* \"contracts/VotingSessions.sol\":3600:3619  sessions[sessionId] */\n      dup2\n      mstore\n      0x20\n      add\n      swap1\n      dup2\n      mstore\n      0x20\n      add\n      0x00\n      keccak256\n        /* \"contracts/VotingSessions.sol\":3567:3619  Session storage currentSession = sessions[sessionId] */\n      swap1\n      pop\n        /* \"contracts/VotingSessions.sol\":3671:3714  WorkflowStatus.ProposalsRegistrationStarted */\n      0x01\n        /* \"contracts/VotingSessions.sol\":3638:3714  currentSession.workflowStatus == WorkflowStatus.ProposalsRegistrationStarted */\n      0x05\n      dup2\n      gt\n      iszero\n      tag_198\n      jumpi\n      tag_199\n      tag_99\n      jump\t// in\n    tag_199:\n    tag_198:\n        /* \"contracts/VotingSessions.sol\":3638:3652  currentSession */\n      dup2\n        /* \"contracts/VotingSessions.sol\":3638:3667  currentSession.workflowStatus */\n      0x01\n      add\n      0x00\n      swap1\n      sload\n      swap1\n      0x0100\n      exp\n      swap1\n      div\n      0xff\n      and\n        /* \"contracts/VotingSessions.sol\":3638:3714  currentSession.workflowStatus == WorkflowStatus.ProposalsRegistrationStarted */\n      0x05\n      dup2\n      gt\n      iszero\n      tag_200\n      jumpi\n      tag_201\n      tag_99\n      jump\t// in\n    tag_201:\n    tag_200:\n      eq\n        /* \"contracts/VotingSessions.sol\":3629:3753  require (currentSession.workflowStatus == WorkflowStatus.ProposalsRegistrationStarted, \"Proposals registration not started\") */\n      tag_202\n      jumpi\n      mload(0x40)\n      0x08c379a000000000000000000000000000000000000000000000000000000000\n      dup2\n      mstore\n      0x04\n      add\n      tag_203\n      swap1\n      tag_204\n      jump\t// in\n    tag_203:\n      mload(0x40)\n      dup1\n      swap2\n      sub\n      swap1\n      revert\n    tag_202:\n        /* \"contracts/VotingSessions.sol\":3805:3806  0 */\n      0x00\n        /* \"contracts/VotingSessions.sol\":3771:3785  currentSession */\n      dup2\n        /* \"contracts/VotingSessions.sol\":3771:3795  currentSession.proposals */\n      0x04\n      add\n        /* \"contracts/VotingSessions.sol\":3771:3802  currentSession.proposals.length */\n      dup1\n      sload\n      swap1\n      pop\n        /* \"contracts/VotingSessions.sol\":3771:3806  currentSession.proposals.length > 0 */\n      gt\n        /* \"contracts/VotingSessions.sol\":3763:3839  require(currentSession.proposals.length > 0, \"no proposals were registered\") */\n      tag_205\n      jumpi\n      mload(0x40)\n      0x08c379a000000000000000000000000000000000000000000000000000000000\n      dup2\n      mstore\n      0x04\n      add\n      tag_206\n      swap1\n      tag_207\n      jump\t// in\n    tag_206:\n      mload(0x40)\n      dup1\n      swap2\n      sub\n      swap1\n      revert\n    tag_205:\n        /* \"contracts/VotingSessions.sol\":3881:3922  WorkflowStatus.ProposalsRegistrationEnded */\n      0x02\n        /* \"contracts/VotingSessions.sol\":3849:3863  currentSession */\n      dup2\n        /* \"contracts/VotingSessions.sol\":3849:3878  currentSession.workflowStatus */\n      0x01\n      add\n      0x00\n        /* \"contracts/VotingSessions.sol\":3849:3922  currentSession.workflowStatus = WorkflowStatus.ProposalsRegistrationEnded */\n      0x0100\n      exp\n      dup2\n      sload\n      dup2\n      0xff\n      mul\n      not\n      and\n      swap1\n      dup4\n      0x05\n      dup2\n      gt\n      iszero\n      tag_208\n      jumpi\n      tag_209\n      tag_99\n      jump\t// in\n    tag_209:\n    tag_208:\n      mul\n      or\n      swap1\n      sstore\n      pop\n        /* \"contracts/VotingSessions.sol\":3937:4056  WorkflowStatusChange(sessionId, WorkflowStatus.ProposalsRegistrationStarted, WorkflowStatus.ProposalsRegistrationEnded) */\n      0xb067099e10826978a3867510ad1e0dcf4ca5cef8e422fd8df2fc3d679167fe8d\n        /* \"contracts/VotingSessions.sol\":3958:3967  sessionId */\n      dup3\n        /* \"contracts/VotingSessions.sol\":3969:4012  WorkflowStatus.ProposalsRegistrationStarted */\n      0x01\n        /* \"contracts/VotingSessions.sol\":4014:4055  WorkflowStatus.ProposalsRegistrationEnded */\n      0x02\n        /* \"contracts/VotingSessions.sol\":3937:4056  WorkflowStatusChange(sessionId, WorkflowStatus.ProposalsRegistrationStarted, WorkflowStatus.ProposalsRegistrationEnded) */\n      mload(0x40)\n      tag_210\n      swap4\n      swap3\n      swap2\n      swap1\n      tag_135\n      jump\t// in\n    tag_210:\n      mload(0x40)\n      dup1\n      swap2\n      sub\n      swap1\n      log1\n        /* \"contracts/VotingSessions.sol\":3557:4064  {... */\n      pop\n        /* \"contracts/VotingSessions.sol\":3490:4064  function endProposalsRegistration(uint sessionId) public onlyOwner {... */\n      pop\n      jump\t// out\n        /* \"contracts/VotingSessions.sol\":5825:6985  function computeMostVotedProposal(uint sessionId) public onlyOwner {   ... */\n    tag_71:\n        /* \"https://github.com/OpenZeppelin/openzeppelin-contracts/blob/master/contracts/access/Ownable.sol\":1531:1544  _checkOwner() */\n      tag_212\n        /* \"https://github.com/OpenZeppelin/openzeppelin-contracts/blob/master/contracts/access/Ownable.sol\":1531:1542  _checkOwner */\n      tag_82\n        /* \"https://github.com/OpenZeppelin/openzeppelin-contracts/blob/master/contracts/access/Ownable.sol\":1531:1544  _checkOwner() */\n      jump\t// in\n    tag_212:\n        /* \"contracts/VotingSessions.sol\":5905:5935  Session storage currentSession */\n      0x00\n        /* \"contracts/VotingSessions.sol\":5938:5946  sessions */\n      0x02\n        /* \"contracts/VotingSessions.sol\":5938:5957  sessions[sessionId] */\n      0x00\n        /* \"contracts/VotingSessions.sol\":5947:5956  sessionId */\n      dup4\n        /* \"contracts/VotingSessions.sol\":5938:5957  sessions[sessionId] */\n      dup2\n      mstore\n      0x20\n      add\n      swap1\n      dup2\n      mstore\n      0x20\n      add\n      0x00\n      keccak256\n        /* \"contracts/VotingSessions.sol\":5905:5957  Session storage currentSession = sessions[sessionId] */\n      swap1\n      pop\n        /* \"contracts/VotingSessions.sol\":6008:6041  WorkflowStatus.VotingSessionEnded */\n      0x04\n        /* \"contracts/VotingSessions.sol\":5975:6041  currentSession.workflowStatus == WorkflowStatus.VotingSessionEnded */\n      0x05\n      dup2\n      gt\n      iszero\n      tag_214\n      jumpi\n      tag_215\n      tag_99\n      jump\t// in\n    tag_215:\n    tag_214:\n        /* \"contracts/VotingSessions.sol\":5975:5989  currentSession */\n      dup2\n        /* \"contracts/VotingSessions.sol\":5975:6004  currentSession.workflowStatus */\n      0x01\n      add\n      0x00\n      swap1\n      sload\n      swap1\n      0x0100\n      exp\n      swap1\n      div\n      0xff\n      and\n        /* \"contracts/VotingSessions.sol\":5975:6041  currentSession.workflowStatus == WorkflowStatus.VotingSessionEnded */\n      0x05\n      dup2\n      gt\n      iszero\n      tag_216\n      jumpi\n      tag_217\n      tag_99\n      jump\t// in\n    tag_217:\n    tag_216:\n      eq\n        /* \"contracts/VotingSessions.sol\":5967:6072  require(currentSession.workflowStatus == WorkflowStatus.VotingSessionEnded, \"Voting session did not end\") */\n      tag_218\n      jumpi\n      mload(0x40)\n      0x08c379a000000000000000000000000000000000000000000000000000000000\n      dup2\n      mstore\n      0x04\n      add\n      tag_219\n      swap1\n      tag_220\n      jump\t// in\n    tag_219:\n      mload(0x40)\n      dup1\n      swap2\n      sub\n      swap1\n      revert\n    tag_218:\n        /* \"contracts/VotingSessions.sol\":6082:6110  Proposal[] storage proposals */\n      0x00\n        /* \"contracts/VotingSessions.sol\":6113:6127  currentSession */\n      dup2\n        /* \"contracts/VotingSessions.sol\":6113:6137  currentSession.proposals */\n      0x04\n      add\n        /* \"contracts/VotingSessions.sol\":6082:6137  Proposal[] storage proposals = currentSession.proposals */\n      swap1\n      pop\n        /* \"contracts/VotingSessions.sol\":6147:6172  uint numberOfBestProposal */\n      0x00\n        /* \"contracts/VotingSessions.sol\":6187:6193  uint i */\n      0x00\n        /* \"contracts/VotingSessions.sol\":6196:6197  0 */\n      0x00\n        /* \"contracts/VotingSessions.sol\":6187:6197  uint i = 0 */\n      swap1\n      pop\n        /* \"contracts/VotingSessions.sol\":6182:6347  for (uint i = 0; i < proposals.length; i++) {... */\n    tag_221:\n        /* \"contracts/VotingSessions.sol\":6203:6212  proposals */\n      dup3\n        /* \"contracts/VotingSessions.sol\":6203:6219  proposals.length */\n      dup1\n      sload\n      swap1\n      pop\n        /* \"contracts/VotingSessions.sol\":6199:6200  i */\n      dup2\n        /* \"contracts/VotingSessions.sol\":6199:6219  i < proposals.length */\n      lt\n        /* \"contracts/VotingSessions.sol\":6182:6347  for (uint i = 0; i < proposals.length; i++) {... */\n      iszero\n      tag_222\n      jumpi\n        /* \"contracts/VotingSessions.sol\":6269:6283  currentSession */\n      dup4\n        /* \"contracts/VotingSessions.sol\":6269:6300  currentSession.highestVoteCount */\n      0x03\n      add\n      sload\n        /* \"contracts/VotingSessions.sol\":6243:6252  proposals */\n      dup4\n        /* \"contracts/VotingSessions.sol\":6253:6254  i */\n      dup3\n        /* \"contracts/VotingSessions.sol\":6243:6255  proposals[i] */\n      dup2\n      sload\n      dup2\n      lt\n      tag_224\n      jumpi\n      tag_225\n      tag_113\n      jump\t// in\n    tag_225:\n    tag_224:\n      swap1\n      0x00\n      mstore\n      keccak256(0x00, 0x20)\n      swap1\n      0x03\n      mul\n      add\n        /* \"contracts/VotingSessions.sol\":6243:6265  proposals[i].voteCount */\n      0x02\n      add\n      sload\n        /* \"contracts/VotingSessions.sol\":6243:6300  proposals[i].voteCount == currentSession.highestVoteCount */\n      sub\n        /* \"contracts/VotingSessions.sol\":6240:6336  if(proposals[i].voteCount == currentSession.highestVoteCount)... */\n      tag_227\n      jumpi\n        /* \"contracts/VotingSessions.sol\":6314:6336  numberOfBestProposal++ */\n      dup2\n      dup1\n      tag_228\n      swap1\n      tag_93\n      jump\t// in\n    tag_228:\n      swap3\n      pop\n      pop\n        /* \"contracts/VotingSessions.sol\":6240:6336  if(proposals[i].voteCount == currentSession.highestVoteCount)... */\n    tag_227:\n        /* \"contracts/VotingSessions.sol\":6221:6224  i++ */\n      dup1\n      dup1\n      0x01\n      add\n      swap2\n      pop\n      pop\n        /* \"contracts/VotingSessions.sol\":6182:6347  for (uint i = 0; i < proposals.length; i++) {... */\n      jump(tag_221)\n    tag_222:\n      pop\n        /* \"contracts/VotingSessions.sol\":6356:6387  Proposal[] memory bestProposals */\n      0x00\n        /* \"contracts/VotingSessions.sol\":6405:6425  numberOfBestProposal */\n      dup2\n        /* \"contracts/VotingSessions.sol\":6390:6426  new Proposal[](numberOfBestProposal) */\n      0xffffffffffffffff\n      dup2\n      gt\n      iszero\n      tag_229\n      jumpi\n      tag_230\n      tag_231\n      jump\t// in\n    tag_230:\n    tag_229:\n      mload(0x40)\n      swap1\n      dup1\n      dup3\n      mstore\n      dup1\n      0x20\n      mul\n      0x20\n      add\n      dup3\n      add\n      0x40\n      mstore\n      dup1\n      iszero\n      tag_232\n      jumpi\n      dup2\n      0x20\n      add\n    tag_233:\n      tag_234\n      tag_235\n      jump\t// in\n    tag_234:\n      dup2\n      mstore\n      0x20\n      add\n      swap1\n      0x01\n      swap1\n      sub\n      swap1\n      dup2\n      tag_233\n      jumpi\n      swap1\n      pop\n    tag_232:\n      pop\n        /* \"contracts/VotingSessions.sol\":6356:6426  Proposal[] memory bestProposals = new Proposal[](numberOfBestProposal) */\n      swap1\n      pop\n        /* \"contracts/VotingSessions.sol\":6436:6446  uint index */\n      0x00\n        /* \"contracts/VotingSessions.sol\":6461:6467  uint i */\n      0x00\n        /* \"contracts/VotingSessions.sol\":6470:6471  0 */\n      0x00\n        /* \"contracts/VotingSessions.sol\":6461:6471  uint i = 0 */\n      swap1\n      pop\n        /* \"contracts/VotingSessions.sol\":6456:6736  for (uint i = 0; i < proposals.length; i++) {... */\n    tag_236:\n        /* \"contracts/VotingSessions.sol\":6477:6486  proposals */\n      dup5\n        /* \"contracts/VotingSessions.sol\":6477:6493  proposals.length */\n      dup1\n      sload\n      swap1\n      pop\n        /* \"contracts/VotingSessions.sol\":6473:6474  i */\n      dup2\n        /* \"contracts/VotingSessions.sol\":6473:6493  i < proposals.length */\n      lt\n        /* \"contracts/VotingSessions.sol\":6456:6736  for (uint i = 0; i < proposals.length; i++) {... */\n      iszero\n      tag_237\n      jumpi\n        /* \"contracts/VotingSessions.sol\":6543:6557  currentSession */\n      dup6\n        /* \"contracts/VotingSessions.sol\":6543:6574  currentSession.highestVoteCount */\n      0x03\n      add\n      sload\n        /* \"contracts/VotingSessions.sol\":6517:6526  proposals */\n      dup6\n        /* \"contracts/VotingSessions.sol\":6527:6528  i */\n      dup3\n        /* \"contracts/VotingSessions.sol\":6517:6529  proposals[i] */\n      dup2\n      sload\n      dup2\n      lt\n      tag_239\n      jumpi\n      tag_240\n      tag_113\n      jump\t// in\n    tag_240:\n    tag_239:\n      swap1\n      0x00\n      mstore\n      keccak256(0x00, 0x20)\n      swap1\n      0x03\n      mul\n      add\n        /* \"contracts/VotingSessions.sol\":6517:6539  proposals[i].voteCount */\n      0x02\n      add\n      sload\n        /* \"contracts/VotingSessions.sol\":6517:6574  proposals[i].voteCount == currentSession.highestVoteCount */\n      sub\n        /* \"contracts/VotingSessions.sol\":6514:6726  if(proposals[i].voteCount == currentSession.highestVoteCount) {... */\n      tag_242\n      jumpi\n        /* \"contracts/VotingSessions.sol\":6617:6626  proposals */\n      dup5\n        /* \"contracts/VotingSessions.sol\":6627:6628  i */\n      dup2\n        /* \"contracts/VotingSessions.sol\":6617:6629  proposals[i] */\n      dup2\n      sload\n      dup2\n      lt\n      tag_243\n      jumpi\n      tag_244\n      tag_113\n      jump\t// in\n    tag_244:\n    tag_243:\n      swap1\n      0x00\n      mstore\n      keccak256(0x00, 0x20)\n      swap1\n      0x03\n      mul\n      add\n        /* \"contracts/VotingSessions.sol\":6594:6629  bestProposals[index] = proposals[i] */\n      mload(0x40)\n      dup1\n      0x60\n      add\n      0x40\n      mstore\n      swap1\n      dup2\n      0x00\n      dup3\n      add\n      dup1\n      sload\n      tag_246\n      swap1\n      tag_247\n      jump\t// in\n    tag_246:\n      dup1\n      0x1f\n      add\n      0x20\n      dup1\n      swap2\n      div\n      mul\n      0x20\n      add\n      mload(0x40)\n      swap1\n      dup2\n      add\n      0x40\n      mstore\n      dup1\n      swap3\n      swap2\n      swap1\n      dup2\n      dup2\n      mstore\n      0x20\n      add\n      dup3\n      dup1\n      sload\n      tag_248\n      swap1\n      tag_247\n      jump\t// in\n    tag_248:\n      dup1\n      iszero\n      tag_249\n      jumpi\n      dup1\n      0x1f\n      lt\n      tag_250\n      jumpi\n      0x0100\n      dup1\n      dup4\n      sload\n      div\n      mul\n      dup4\n      mstore\n      swap2\n      0x20\n      add\n      swap2\n      jump(tag_249)\n    tag_250:\n      dup3\n      add\n      swap2\n      swap1\n      0x00\n      mstore\n      keccak256(0x00, 0x20)\n      swap1\n    tag_251:\n      dup2\n      sload\n      dup2\n      mstore\n      swap1\n      0x01\n      add\n      swap1\n      0x20\n      add\n      dup1\n      dup4\n      gt\n      tag_251\n      jumpi\n      dup3\n      swap1\n      sub\n      0x1f\n      and\n      dup3\n      add\n      swap2\n    tag_249:\n      pop\n      pop\n      pop\n      pop\n      pop\n      dup2\n      mstore\n      0x20\n      add\n      0x01\n      dup3\n      add\n      0x00\n      swap1\n      sload\n      swap1\n      0x0100\n      exp\n      swap1\n      div\n      0xffffffffffffffffffffffffffffffffffffffff\n      and\n      0xffffffffffffffffffffffffffffffffffffffff\n      and\n      0xffffffffffffffffffffffffffffffffffffffff\n      and\n      dup2\n      mstore\n      0x20\n      add\n      0x02\n      dup3\n      add\n      sload\n      dup2\n      mstore\n      pop\n      pop\n        /* \"contracts/VotingSessions.sol\":6594:6607  bestProposals */\n      dup4\n        /* \"contracts/VotingSessions.sol\":6608:6613  index */\n      dup4\n        /* \"contracts/VotingSessions.sol\":6594:6614  bestProposals[index] */\n      dup2\n      mload\n      dup2\n      lt\n      tag_252\n      jumpi\n      tag_253\n      tag_113\n      jump\t// in\n    tag_253:\n    tag_252:\n      0x20\n      mul\n      0x20\n      add\n      add\n        /* \"contracts/VotingSessions.sol\":6594:6629  bestProposals[index] = proposals[i] */\n      dup2\n      swap1\n      mstore\n      pop\n        /* \"contracts/VotingSessions.sol\":6685:6686  i */\n      dup1\n        /* \"contracts/VotingSessions.sol\":6647:6661  currentSession */\n      dup7\n        /* \"contracts/VotingSessions.sol\":6647:6682  currentSession.winningProposalIndex */\n      0x02\n      add\n        /* \"contracts/VotingSessions.sol\":6647:6686  currentSession.winningProposalIndex = i */\n      dup2\n      swap1\n      sstore\n      pop\n        /* \"contracts/VotingSessions.sol\":6704:6711  index++ */\n      dup2\n      dup1\n      tag_254\n      swap1\n      tag_93\n      jump\t// in\n    tag_254:\n      swap3\n      pop\n      pop\n        /* \"contracts/VotingSessions.sol\":6514:6726  if(proposals[i].voteCount == currentSession.highestVoteCount) {... */\n    tag_242:\n        /* \"contracts/VotingSessions.sol\":6495:6498  i++ */\n      dup1\n      dup1\n      0x01\n      add\n      swap2\n      pop\n      pop\n        /* \"contracts/VotingSessions.sol\":6456:6736  for (uint i = 0; i < proposals.length; i++) {... */\n      jump(tag_236)\n    tag_237:\n      pop\n        /* \"contracts/VotingSessions.sol\":6772:6773  1 */\n      0x01\n        /* \"contracts/VotingSessions.sol\":6748:6761  bestProposals */\n      dup3\n        /* \"contracts/VotingSessions.sol\":6748:6768  bestProposals.length */\n      mload\n        /* \"contracts/VotingSessions.sol\":6748:6773  bestProposals.length == 1 */\n      sub\n        /* \"contracts/VotingSessions.sol\":6745:6979  if(bestProposals.length == 1) {... */\n      tag_255\n      jumpi\n        /* \"contracts/VotingSessions.sol\":6794:6860  WinningProposition(sessionId, currentSession.winningProposalIndex) */\n      0xa02a80459fbab98547e0db2cfb6ef274e962836a412718bb60fb14f1e6382e57\n        /* \"contracts/VotingSessions.sol\":6813:6822  sessionId */\n      dup7\n        /* \"contracts/VotingSessions.sol\":6824:6838  currentSession */\n      dup7\n        /* \"contracts/VotingSessions.sol\":6824:6859  currentSession.winningProposalIndex */\n      0x02\n      add\n      sload\n        /* \"contracts/VotingSessions.sol\":6794:6860  WinningProposition(sessionId, currentSession.winningProposalIndex) */\n      mload(0x40)\n      tag_256\n      swap3\n      swap2\n      swap1\n      tag_151\n      jump\t// in\n    tag_256:\n      mload(0x40)\n      dup1\n      swap2\n      sub\n      swap1\n      log1\n        /* \"contracts/VotingSessions.sol\":6745:6979  if(bestProposals.length == 1) {... */\n      jump(tag_257)\n    tag_255:\n        /* \"contracts/VotingSessions.sol\":6899:6926  renewSession(bestProposals) */\n      tag_258\n        /* \"contracts/VotingSessions.sol\":6912:6925  bestProposals */\n      dup3\n        /* \"contracts/VotingSessions.sol\":6899:6911  renewSession */\n      tag_65\n        /* \"contracts/VotingSessions.sol\":6899:6926  renewSession(bestProposals) */\n      jump\t// in\n    tag_258:\n        /* \"contracts/VotingSessions.sol\":6945:6968  RenewSession(sessionId) */\n      0x0f647fdccb52741a5ff3d2ef61826fc3fb196e30bf0a07a8a7d46e706d999d54\n        /* \"contracts/VotingSessions.sol\":6958:6967  sessionId */\n      dup7\n        /* \"contracts/VotingSessions.sol\":6945:6968  RenewSession(sessionId) */\n      mload(0x40)\n      tag_259\n      swap2\n      swap1\n      tag_95\n      jump\t// in\n    tag_259:\n      mload(0x40)\n      dup1\n      swap2\n      sub\n      swap1\n      log1\n        /* \"contracts/VotingSessions.sol\":6745:6979  if(bestProposals.length == 1) {... */\n    tag_257:\n        /* \"contracts/VotingSessions.sol\":5892:6985  {   ... */\n      pop\n      pop\n      pop\n      pop\n      pop\n        /* \"contracts/VotingSessions.sol\":5825:6985  function computeMostVotedProposal(uint sessionId) public onlyOwner {   ... */\n      pop\n      jump\t// out\n        /* \"https://github.com/OpenZeppelin/openzeppelin-contracts/blob/master/contracts/access/Ownable.sol\":2543:2758  function transferOwnership(address newOwner) public virtual onlyOwner {... */\n    tag_74:\n        /* \"https://github.com/OpenZeppelin/openzeppelin-contracts/blob/master/contracts/access/Ownable.sol\":1531:1544  _checkOwner() */\n      tag_261\n        /* \"https://github.com/OpenZeppelin/openzeppelin-contracts/blob/master/contracts/access/Ownable.sol\":1531:1542  _checkOwner */\n      tag_82\n        /* \"https://github.com/OpenZeppelin/openzeppelin-contracts/blob/master/contracts/access/Ownable.sol\":1531:1544  _checkOwner() */\n      jump\t// in\n    tag_261:\n        /* \"https://github.com/OpenZeppelin/openzeppelin-contracts/blob/master/contracts/access/Ownable.sol\":2647:2648  0 */\n      0x00\n        /* \"https://github.com/OpenZeppelin/openzeppelin-contracts/blob/master/contracts/access/Ownable.sol\":2627:2649  newOwner == address(0) */\n      0xffffffffffffffffffffffffffffffffffffffff\n      and\n        /* \"https://github.com/OpenZeppelin/openzeppelin-contracts/blob/master/contracts/access/Ownable.sol\":2627:2635  newOwner */\n      dup2\n        /* \"https://github.com/OpenZeppelin/openzeppelin-contracts/blob/master/contracts/access/Ownable.sol\":2627:2649  newOwner == address(0) */\n      0xffffffffffffffffffffffffffffffffffffffff\n      and\n      sub\n        /* \"https://github.com/OpenZeppelin/openzeppelin-contracts/blob/master/contracts/access/Ownable.sol\":2623:2714  if (newOwner == address(0)) {... */\n      tag_263\n      jumpi\n        /* \"https://github.com/OpenZeppelin/openzeppelin-contracts/blob/master/contracts/access/Ownable.sol\":2700:2701  0 */\n      0x00\n        /* \"https://github.com/OpenZeppelin/openzeppelin-contracts/blob/master/contracts/access/Ownable.sol\":2672:2703  OwnableInvalidOwner(address(0)) */\n      mload(0x40)\n      0x1e4fbdf700000000000000000000000000000000000000000000000000000000\n      dup2\n      mstore\n      0x04\n      add\n      tag_264\n      swap2\n      swap1\n      tag_54\n      jump\t// in\n    tag_264:\n      mload(0x40)\n      dup1\n      swap2\n      sub\n      swap1\n      revert\n        /* \"https://github.com/OpenZeppelin/openzeppelin-contracts/blob/master/contracts/access/Ownable.sol\":2623:2714  if (newOwner == address(0)) {... */\n    tag_263:\n        /* \"https://github.com/OpenZeppelin/openzeppelin-contracts/blob/master/contracts/access/Ownable.sol\":2723:2751  _transferOwnership(newOwner) */\n      tag_265\n        /* \"https://github.com/OpenZeppelin/openzeppelin-contracts/blob/master/contracts/access/Ownable.sol\":2742:2750  newOwner */\n      dup2\n        /* \"https://github.com/OpenZeppelin/openzeppelin-contracts/blob/master/contracts/access/Ownable.sol\":2723:2741  _transferOwnership */\n      tag_157\n        /* \"https://github.com/OpenZeppelin/openzeppelin-contracts/blob/master/contracts/access/Ownable.sol\":2723:2751  _transferOwnership(newOwner) */\n      jump\t// in\n    tag_265:\n        /* \"https://github.com/OpenZeppelin/openzeppelin-contracts/blob/master/contracts/access/Ownable.sol\":2543:2758  function transferOwnership(address newOwner) public virtual onlyOwner {... */\n      pop\n      jump\t// out\n        /* \"contracts/VotingSessions.sol\":3334:3480  function getAllProposalsBySession(uint _sessionId) external view returns(Proposal[] memory) {... */\n    tag_77:\n        /* \"contracts/VotingSessions.sol\":3407:3424  Proposal[] memory */\n      0x60\n        /* \"contracts/VotingSessions.sol\":3443:3451  sessions */\n      0x02\n        /* \"contracts/VotingSessions.sol\":3443:3463  sessions[_sessionId] */\n      0x00\n        /* \"contracts/VotingSessions.sol\":3452:3462  _sessionId */\n      dup4\n        /* \"contracts/VotingSessions.sol\":3443:3463  sessions[_sessionId] */\n      dup2\n      mstore\n      0x20\n      add\n      swap1\n      dup2\n      mstore\n      0x20\n      add\n      0x00\n      keccak256\n        /* \"contracts/VotingSessions.sol\":3443:3473  sessions[_sessionId].proposals */\n      0x04\n      add\n        /* \"contracts/VotingSessions.sol\":3436:3473  return sessions[_sessionId].proposals */\n      dup1\n      sload\n      dup1\n      0x20\n      mul\n      0x20\n      add\n      mload(0x40)\n      swap1\n      dup2\n      add\n      0x40\n      mstore\n      dup1\n      swap3\n      swap2\n      swap1\n      dup2\n      dup2\n      mstore\n      0x20\n      add\n      0x00\n      swap1\n    tag_267:\n      dup3\n      dup3\n      lt\n      iszero\n      tag_268\n      jumpi\n      dup4\n      dup3\n      swap1\n      0x00\n      mstore\n      keccak256(0x00, 0x20)\n      swap1\n      0x03\n      mul\n      add\n      mload(0x40)\n      dup1\n      0x60\n      add\n      0x40\n      mstore\n      swap1\n      dup2\n      0x00\n      dup3\n      add\n      dup1\n      sload\n      tag_270\n      swap1\n      tag_247\n      jump\t// in\n    tag_270:\n      dup1\n      0x1f\n      add\n      0x20\n      dup1\n      swap2\n      div\n      mul\n      0x20\n      add\n      mload(0x40)\n      swap1\n      dup2\n      add\n      0x40\n      mstore\n      dup1\n      swap3\n      swap2\n      swap1\n      dup2\n      dup2\n      mstore\n      0x20\n      add\n      dup3\n      dup1\n      sload\n      tag_271\n      swap1\n      tag_247\n      jump\t// in\n    tag_271:\n      dup1\n      iszero\n      tag_272\n      jumpi\n      dup1\n      0x1f\n      lt\n      tag_273\n      jumpi\n      0x0100\n      dup1\n      dup4\n      sload\n      div\n      mul\n      dup4\n      mstore\n      swap2\n      0x20\n      add\n      swap2\n      jump(tag_272)\n    tag_273:\n      dup3\n      add\n      swap2\n      swap1\n      0x00\n      mstore\n      keccak256(0x00, 0x20)\n      swap1\n    tag_274:\n      dup2\n      sload\n      dup2\n      mstore\n      swap1\n      0x01\n      add\n      swap1\n      0x20\n      add\n      dup1\n      dup4\n      gt\n      tag_274\n      jumpi\n      dup3\n      swap1\n      sub\n      0x1f\n      and\n      dup3\n      add\n      swap2\n    tag_272:\n      pop\n      pop\n      pop\n      pop\n      pop\n      dup2\n      mstore\n      0x20\n      add\n      0x01\n      dup3\n      add\n      0x00\n      swap1\n      sload\n      swap1\n      0x0100\n      exp\n      swap1\n      div\n      0xffffffffffffffffffffffffffffffffffffffff\n      and\n      0xffffffffffffffffffffffffffffffffffffffff\n      and\n      0xffffffffffffffffffffffffffffffffffffffff\n      and\n      dup2\n      mstore\n      0x20\n      add\n      0x02\n      dup3\n      add\n      sload\n      dup2\n      mstore\n      pop\n      pop\n      dup2\n      mstore\n      0x20\n      add\n      swap1\n      0x01\n      add\n      swap1\n      jump(tag_267)\n    tag_268:\n      pop\n      pop\n      pop\n      pop\n      swap1\n      pop\n        /* \"contracts/VotingSessions.sol\":3334:3480  function getAllProposalsBySession(uint _sessionId) external view returns(Proposal[] memory) {... */\n      swap2\n      swap1\n      pop\n      jump\t// out\n        /* \"https://github.com/OpenZeppelin/openzeppelin-contracts/blob/master/contracts/access/Ownable.sol\":1796:1958  function _checkOwner() internal view virtual {... */\n    tag_82:\n        /* \"https://github.com/OpenZeppelin/openzeppelin-contracts/blob/master/contracts/access/Ownable.sol\":1866:1878  _msgSender() */\n      tag_276\n        /* \"https://github.com/OpenZeppelin/openzeppelin-contracts/blob/master/contracts/access/Ownable.sol\":1866:1876  _msgSender */\n      tag_277\n        /* \"https://github.com/OpenZeppelin/openzeppelin-contracts/blob/master/contracts/access/Ownable.sol\":1866:1878  _msgSender() */\n      jump\t// in\n    tag_276:\n        /* \"https://github.com/OpenZeppelin/openzeppelin-contracts/blob/master/contracts/access/Ownable.sol\":1855:1878  owner() != _msgSender() */\n      0xffffffffffffffffffffffffffffffffffffffff\n      and\n        /* \"https://github.com/OpenZeppelin/openzeppelin-contracts/blob/master/contracts/access/Ownable.sol\":1855:1862  owner() */\n      tag_278\n        /* \"https://github.com/OpenZeppelin/openzeppelin-contracts/blob/master/contracts/access/Ownable.sol\":1855:1860  owner */\n      tag_52\n        /* \"https://github.com/OpenZeppelin/openzeppelin-contracts/blob/master/contracts/access/Ownable.sol\":1855:1862  owner() */\n      jump\t// in\n    tag_278:\n        /* \"https://github.com/OpenZeppelin/openzeppelin-contracts/blob/master/contracts/access/Ownable.sol\":1855:1878  owner() != _msgSender() */\n      0xffffffffffffffffffffffffffffffffffffffff\n      and\n      eq\n        /* \"https://github.com/OpenZeppelin/openzeppelin-contracts/blob/master/contracts/access/Ownable.sol\":1851:1952  if (owner() != _msgSender()) {... */\n      tag_279\n      jumpi\n        /* \"https://github.com/OpenZeppelin/openzeppelin-contracts/blob/master/contracts/access/Ownable.sol\":1928:1940  _msgSender() */\n      tag_280\n        /* \"https://github.com/OpenZeppelin/openzeppelin-contracts/blob/master/contracts/access/Ownable.sol\":1928:1938  _msgSender */\n      tag_277\n        /* \"https://github.com/OpenZeppelin/openzeppelin-contracts/blob/master/contracts/access/Ownable.sol\":1928:1940  _msgSender() */\n      jump\t// in\n    tag_280:\n        /* \"https://github.com/OpenZeppelin/openzeppelin-contracts/blob/master/contracts/access/Ownable.sol\":1901:1941  OwnableUnauthorizedAccount(_msgSender()) */\n      mload(0x40)\n      0x118cdaa700000000000000000000000000000000000000000000000000000000\n      dup2\n      mstore\n      0x04\n      add\n      tag_281\n      swap2\n      swap1\n      tag_54\n      jump\t// in\n    tag_281:\n      mload(0x40)\n      dup1\n      swap2\n      sub\n      swap1\n      revert\n        /* \"https://github.com/OpenZeppelin/openzeppelin-contracts/blob/master/contracts/access/Ownable.sol\":1851:1952  if (owner() != _msgSender()) {... */\n    tag_279:\n        /* \"https://github.com/OpenZeppelin/openzeppelin-contracts/blob/master/contracts/access/Ownable.sol\":1796:1958  function _checkOwner() internal view virtual {... */\n      jump\t// out\n        /* \"https://github.com/OpenZeppelin/openzeppelin-contracts/blob/master/contracts/access/Ownable.sol\":2912:3099  function _transferOwnership(address newOwner) internal virtual {... */\n    tag_157:\n        /* \"https://github.com/OpenZeppelin/openzeppelin-contracts/blob/master/contracts/access/Ownable.sol\":2985:3001  address oldOwner */\n      0x00\n        /* \"https://github.com/OpenZeppelin/openzeppelin-contracts/blob/master/contracts/access/Ownable.sol\":3004:3010  _owner */\n      0x00\n      0x00\n      swap1\n      sload\n      swap1\n      0x0100\n      exp\n      swap1\n      div\n      0xffffffffffffffffffffffffffffffffffffffff\n      and\n        /* \"https://github.com/OpenZeppelin/openzeppelin-contracts/blob/master/contracts/access/Ownable.sol\":2985:3010  address oldOwner = _owner */\n      swap1\n      pop\n        /* \"https://github.com/OpenZeppelin/openzeppelin-contracts/blob/master/contracts/access/Ownable.sol\":3029:3037  newOwner */\n      dup2\n        /* \"https://github.com/OpenZeppelin/openzeppelin-contracts/blob/master/contracts/access/Ownable.sol\":3020:3026  _owner */\n      0x00\n      0x00\n        /* \"https://github.com/OpenZeppelin/openzeppelin-contracts/blob/master/contracts/access/Ownable.sol\":3020:3037  _owner = newOwner */\n      0x0100\n      exp\n      dup2\n      sload\n      dup2\n      0xffffffffffffffffffffffffffffffffffffffff\n      mul\n      not\n      and\n      swap1\n      dup4\n      0xffffffffffffffffffffffffffffffffffffffff\n      and\n      mul\n      or\n      swap1\n      sstore\n      pop\n        /* \"https://github.com/OpenZeppelin/openzeppelin-contracts/blob/master/contracts/access/Ownable.sol\":3083:3091  newOwner */\n      dup2\n        /* \"https://github.com/OpenZeppelin/openzeppelin-contracts/blob/master/contracts/access/Ownable.sol\":3052:3092  OwnershipTransferred(oldOwner, newOwner) */\n      0xffffffffffffffffffffffffffffffffffffffff\n      and\n        /* \"https://github.com/OpenZeppelin/openzeppelin-contracts/blob/master/contracts/access/Ownable.sol\":3073:3081  oldOwner */\n      dup2\n        /* \"https://github.com/OpenZeppelin/openzeppelin-contracts/blob/master/contracts/access/Ownable.sol\":3052:3092  OwnershipTransferred(oldOwner, newOwner) */\n      0xffffffffffffffffffffffffffffffffffffffff\n      and\n      0x8be0079c531659141344cd1fd0a4f28419497f9722a3daafe3b4186f6b6457e0\n      mload(0x40)\n      mload(0x40)\n      dup1\n      swap2\n      sub\n      swap1\n      log3\n        /* \"https://github.com/OpenZeppelin/openzeppelin-contracts/blob/master/contracts/access/Ownable.sol\":2975:3099  {... */\n      pop\n        /* \"https://github.com/OpenZeppelin/openzeppelin-contracts/blob/master/contracts/access/Ownable.sol\":2912:3099  function _transferOwnership(address newOwner) internal virtual {... */\n      pop\n      jump\t// out\n        /* \"https://github.com/OpenZeppelin/openzeppelin-contracts/blob/master/contracts/utils/Context.sol\":656:752  function _msgSender() internal view virtual returns (address) {... */\n    tag_277:\n        /* \"https://github.com/OpenZeppelin/openzeppelin-contracts/blob/master/contracts/utils/Context.sol\":709:716  address */\n      0x00\n        /* \"https://github.com/OpenZeppelin/openzeppelin-contracts/blob/master/contracts/utils/Context.sol\":735:745  msg.sender */\n      caller\n        /* \"https://github.com/OpenZeppelin/openzeppelin-contracts/blob/master/contracts/utils/Context.sol\":728:745  return msg.sender */\n      swap1\n      pop\n        /* \"https://github.com/OpenZeppelin/openzeppelin-contracts/blob/master/contracts/utils/Context.sol\":656:752  function _msgSender() internal view virtual returns (address) {... */\n      swap1\n      jump\t// out\n    tag_235:\n      mload(0x40)\n      dup1\n      0x60\n      add\n      0x40\n      mstore\n      dup1\n      0x60\n      dup2\n      mstore\n      0x20\n      add\n      and(0xffffffffffffffffffffffffffffffffffffffff, 0x00)\n      dup2\n      mstore\n      0x20\n      add\n      0x00\n      dup2\n      mstore\n      pop\n      swap1\n      jump\t// out\n        /* \"#utility.yul\":7:82   */\n    tag_284:\n        /* \"#utility.yul\":40:46   */\n      0x00\n        /* \"#utility.yul\":73:75   */\n      0x40\n        /* \"#utility.yul\":67:76   */\n      mload\n        /* \"#utility.yul\":57:76   */\n      swap1\n      pop\n        /* \"#utility.yul\":7:82   */\n      swap1\n      jump\t// out\n        /* \"#utility.yul\":88:205   */\n    tag_285:\n        /* \"#utility.yul\":197:198   */\n      0x00\n        /* \"#utility.yul\":194:195   */\n      0x00\n        /* \"#utility.yul\":187:199   */\n      revert\n        /* \"#utility.yul\":211:328   */\n    tag_286:\n        /* \"#utility.yul\":320:321   */\n      0x00\n        /* \"#utility.yul\":317:318   */\n      0x00\n        /* \"#utility.yul\":310:322   */\n      revert\n        /* \"#utility.yul\":334:460   */\n    tag_287:\n        /* \"#utility.yul\":371:378   */\n      0x00\n        /* \"#utility.yul\":411:453   */\n      0xffffffffffffffffffffffffffffffffffffffff\n        /* \"#utility.yul\":404:409   */\n      dup3\n        /* \"#utility.yul\":400:454   */\n      and\n        /* \"#utility.yul\":389:454   */\n      swap1\n      pop\n        /* \"#utility.yul\":334:460   */\n      swap2\n      swap1\n      pop\n      jump\t// out\n        /* \"#utility.yul\":466:562   */\n    tag_288:\n        /* \"#utility.yul\":503:510   */\n      0x00\n        /* \"#utility.yul\":532:556   */\n      tag_377\n        /* \"#utility.yul\":550:555   */\n      dup3\n        /* \"#utility.yul\":532:556   */\n      tag_287\n      jump\t// in\n    tag_377:\n        /* \"#utility.yul\":521:556   */\n      swap1\n      pop\n        /* \"#utility.yul\":466:562   */\n      swap2\n      swap1\n      pop\n      jump\t// out\n        /* \"#utility.yul\":568:690   */\n    tag_289:\n        /* \"#utility.yul\":641:665   */\n      tag_379\n        /* \"#utility.yul\":659:664   */\n      dup2\n        /* \"#utility.yul\":641:665   */\n      tag_288\n      jump\t// in\n    tag_379:\n        /* \"#utility.yul\":634:639   */\n      dup2\n        /* \"#utility.yul\":631:666   */\n      eq\n        /* \"#utility.yul\":621:684   */\n      tag_380\n      jumpi\n        /* \"#utility.yul\":680:681   */\n      0x00\n        /* \"#utility.yul\":677:678   */\n      0x00\n        /* \"#utility.yul\":670:682   */\n      revert\n        /* \"#utility.yul\":621:684   */\n    tag_380:\n        /* \"#utility.yul\":568:690   */\n      pop\n      jump\t// out\n        /* \"#utility.yul\":696:835   */\n    tag_290:\n        /* \"#utility.yul\":742:747   */\n      0x00\n        /* \"#utility.yul\":780:786   */\n      dup2\n        /* \"#utility.yul\":767:787   */\n      calldataload\n        /* \"#utility.yul\":758:787   */\n      swap1\n      pop\n        /* \"#utility.yul\":796:829   */\n      tag_382\n        /* \"#utility.yul\":823:828   */\n      dup2\n        /* \"#utility.yul\":796:829   */\n      tag_289\n      jump\t// in\n    tag_382:\n        /* \"#utility.yul\":696:835   */\n      swap3\n      swap2\n      pop\n      pop\n      jump\t// out\n        /* \"#utility.yul\":841:931   */\n    tag_291:\n        /* \"#utility.yul\":875:882   */\n      0x00\n        /* \"#utility.yul\":918:923   */\n      dup2\n        /* \"#utility.yul\":911:924   */\n      iszero\n        /* \"#utility.yul\":904:925   */\n      iszero\n        /* \"#utility.yul\":893:925   */\n      swap1\n      pop\n        /* \"#utility.yul\":841:931   */\n      swap2\n      swap1\n      pop\n      jump\t// out\n        /* \"#utility.yul\":937:1053   */\n    tag_292:\n        /* \"#utility.yul\":1007:1028   */\n      tag_385\n        /* \"#utility.yul\":1022:1027   */\n      dup2\n        /* \"#utility.yul\":1007:1028   */\n      tag_291\n      jump\t// in\n    tag_385:\n        /* \"#utility.yul\":1000:1005   */\n      dup2\n        /* \"#utility.yul\":997:1029   */\n      eq\n        /* \"#utility.yul\":987:1047   */\n      tag_386\n      jumpi\n        /* \"#utility.yul\":1043:1044   */\n      0x00\n        /* \"#utility.yul\":1040:1041   */\n      0x00\n        /* \"#utility.yul\":1033:1045   */\n      revert\n        /* \"#utility.yul\":987:1047   */\n    tag_386:\n        /* \"#utility.yul\":937:1053   */\n      pop\n      jump\t// out\n        /* \"#utility.yul\":1059:1192   */\n    tag_293:\n        /* \"#utility.yul\":1102:1107   */\n      0x00\n        /* \"#utility.yul\":1140:1146   */\n      dup2\n        /* \"#utility.yul\":1127:1147   */\n      calldataload\n        /* \"#utility.yul\":1118:1147   */\n      swap1\n      pop\n        /* \"#utility.yul\":1156:1186   */\n      tag_388\n        /* \"#utility.yul\":1180:1185   */\n      dup2\n        /* \"#utility.yul\":1156:1186   */\n      tag_292\n      jump\t// in\n    tag_388:\n        /* \"#utility.yul\":1059:1192   */\n      swap3\n      swap2\n      pop\n      pop\n      jump\t// out\n        /* \"#utility.yul\":1198:1666   */\n    tag_24:\n        /* \"#utility.yul\":1263:1269   */\n      0x00\n        /* \"#utility.yul\":1271:1277   */\n      0x00\n        /* \"#utility.yul\":1320:1322   */\n      0x40\n        /* \"#utility.yul\":1308:1317   */\n      dup4\n        /* \"#utility.yul\":1299:1306   */\n      dup6\n        /* \"#utility.yul\":1295:1318   */\n      sub\n        /* \"#utility.yul\":1291:1323   */\n      slt\n        /* \"#utility.yul\":1288:1407   */\n      iszero\n      tag_390\n      jumpi\n        /* \"#utility.yul\":1326:1405   */\n      tag_391\n      tag_285\n      jump\t// in\n    tag_391:\n        /* \"#utility.yul\":1288:1407   */\n    tag_390:\n        /* \"#utility.yul\":1446:1447   */\n      0x00\n        /* \"#utility.yul\":1471:1524   */\n      tag_392\n        /* \"#utility.yul\":1516:1523   */\n      dup6\n        /* \"#utility.yul\":1507:1513   */\n      dup3\n        /* \"#utility.yul\":1496:1505   */\n      dup7\n        /* \"#utility.yul\":1492:1514   */\n      add\n        /* \"#utility.yul\":1471:1524   */\n      tag_290\n      jump\t// in\n    tag_392:\n        /* \"#utility.yul\":1461:1524   */\n      swap3\n      pop\n        /* \"#utility.yul\":1417:1534   */\n      pop\n        /* \"#utility.yul\":1573:1575   */\n      0x20\n        /* \"#utility.yul\":1599:1649   */\n      tag_393\n        /* \"#utility.yul\":1641:1648   */\n      dup6\n        /* \"#utility.yul\":1632:1638   */\n      dup3\n        /* \"#utility.yul\":1621:1630   */\n      dup7\n        /* \"#utility.yul\":1617:1639   */\n      add\n        /* \"#utility.yul\":1599:1649   */\n      tag_293\n      jump\t// in\n    tag_393:\n        /* \"#utility.yul\":1589:1649   */\n      swap2\n      pop\n        /* \"#utility.yul\":1544:1659   */\n      pop\n        /* \"#utility.yul\":1198:1666   */\n      swap3\n      pop\n      swap3\n      swap1\n      pop\n      jump\t// out\n        /* \"#utility.yul\":1672:1749   */\n    tag_294:\n        /* \"#utility.yul\":1709:1716   */\n      0x00\n        /* \"#utility.yul\":1738:1743   */\n      dup2\n        /* \"#utility.yul\":1727:1743   */\n      swap1\n      pop\n        /* \"#utility.yul\":1672:1749   */\n      swap2\n      swap1\n      pop\n      jump\t// out\n        /* \"#utility.yul\":1755:1877   */\n    tag_295:\n        /* \"#utility.yul\":1828:1852   */\n      tag_396\n        /* \"#utility.yul\":1846:1851   */\n      dup2\n        /* \"#utility.yul\":1828:1852   */\n      tag_294\n      jump\t// in\n    tag_396:\n        /* \"#utility.yul\":1821:1826   */\n      dup2\n        /* \"#utility.yul\":1818:1853   */\n      eq\n        /* \"#utility.yul\":1808:1871   */\n      tag_397\n      jumpi\n        /* \"#utility.yul\":1867:1868   */\n      0x00\n        /* \"#utility.yul\":1864:1865   */\n      0x00\n        /* \"#utility.yul\":1857:1869   */\n      revert\n        /* \"#utility.yul\":1808:1871   */\n    tag_397:\n        /* \"#utility.yul\":1755:1877   */\n      pop\n      jump\t// out\n        /* \"#utility.yul\":1883:2022   */\n    tag_296:\n        /* \"#utility.yul\":1929:1934   */\n      0x00\n        /* \"#utility.yul\":1967:1973   */\n      dup2\n        /* \"#utility.yul\":1954:1974   */\n      calldataload\n        /* \"#utility.yul\":1945:1974   */\n      swap1\n      pop\n        /* \"#utility.yul\":1983:2016   */\n      tag_399\n        /* \"#utility.yul\":2010:2015   */\n      dup2\n        /* \"#utility.yul\":1983:2016   */\n      tag_295\n      jump\t// in\n    tag_399:\n        /* \"#utility.yul\":1883:2022   */\n      swap3\n      swap2\n      pop\n      pop\n      jump\t// out\n        /* \"#utility.yul\":2028:2502   */\n    tag_30:\n        /* \"#utility.yul\":2096:2102   */\n      0x00\n        /* \"#utility.yul\":2104:2110   */\n      0x00\n        /* \"#utility.yul\":2153:2155   */\n      0x40\n        /* \"#utility.yul\":2141:2150   */\n      dup4\n        /* \"#utility.yul\":2132:2139   */\n      dup6\n        /* \"#utility.yul\":2128:2151   */\n      sub\n        /* \"#utility.yul\":2124:2156   */\n      slt\n        /* \"#utility.yul\":2121:2240   */\n      iszero\n      tag_401\n      jumpi\n        /* \"#utility.yul\":2159:2238   */\n      tag_402\n      tag_285\n      jump\t// in\n    tag_402:\n        /* \"#utility.yul\":2121:2240   */\n    tag_401:\n        /* \"#utility.yul\":2279:2280   */\n      0x00\n        /* \"#utility.yul\":2304:2357   */\n      tag_403\n        /* \"#utility.yul\":2349:2356   */\n      dup6\n        /* \"#utility.yul\":2340:2346   */\n      dup3\n        /* \"#utility.yul\":2329:2338   */\n      dup7\n        /* \"#utility.yul\":2325:2347   */\n      add\n        /* \"#utility.yul\":2304:2357   */\n      tag_296\n      jump\t// in\n    tag_403:\n        /* \"#utility.yul\":2294:2357   */\n      swap3\n      pop\n        /* \"#utility.yul\":2250:2367   */\n      pop\n        /* \"#utility.yul\":2406:2408   */\n      0x20\n        /* \"#utility.yul\":2432:2485   */\n      tag_404\n        /* \"#utility.yul\":2477:2484   */\n      dup6\n        /* \"#utility.yul\":2468:2474   */\n      dup3\n        /* \"#utility.yul\":2457:2466   */\n      dup7\n        /* \"#utility.yul\":2453:2475   */\n      add\n        /* \"#utility.yul\":2432:2485   */\n      tag_296\n      jump\t// in\n    tag_404:\n        /* \"#utility.yul\":2422:2485   */\n      swap2\n      pop\n        /* \"#utility.yul\":2377:2495   */\n      pop\n        /* \"#utility.yul\":2028:2502   */\n      swap3\n      pop\n      swap3\n      swap1\n      pop\n      jump\t// out\n        /* \"#utility.yul\":2508:2837   */\n    tag_34:\n        /* \"#utility.yul\":2567:2573   */\n      0x00\n        /* \"#utility.yul\":2616:2618   */\n      0x20\n        /* \"#utility.yul\":2604:2613   */\n      dup3\n        /* \"#utility.yul\":2595:2602   */\n      dup5\n        /* \"#utility.yul\":2591:2614   */\n      sub\n        /* \"#utility.yul\":2587:2619   */\n      slt\n        /* \"#utility.yul\":2584:2703   */\n      iszero\n      tag_406\n      jumpi\n        /* \"#utility.yul\":2622:2701   */\n      tag_407\n      tag_285\n      jump\t// in\n    tag_407:\n        /* \"#utility.yul\":2584:2703   */\n    tag_406:\n        /* \"#utility.yul\":2742:2743   */\n      0x00\n        /* \"#utility.yul\":2767:2820   */\n      tag_408\n        /* \"#utility.yul\":2812:2819   */\n      dup5\n        /* \"#utility.yul\":2803:2809   */\n      dup3\n        /* \"#utility.yul\":2792:2801   */\n      dup6\n        /* \"#utility.yul\":2788:2810   */\n      add\n        /* \"#utility.yul\":2767:2820   */\n      tag_296\n      jump\t// in\n    tag_408:\n        /* \"#utility.yul\":2757:2820   */\n      swap2\n      pop\n        /* \"#utility.yul\":2713:2830   */\n      pop\n        /* \"#utility.yul\":2508:2837   */\n      swap3\n      swap2\n      pop\n      pop\n      jump\t// out\n        /* \"#utility.yul\":2843:2960   */\n    tag_297:\n        /* \"#utility.yul\":2952:2953   */\n      0x00\n        /* \"#utility.yul\":2949:2950   */\n      0x00\n        /* \"#utility.yul\":2942:2954   */\n      revert\n        /* \"#utility.yul\":2966:3083   */\n    tag_298:\n        /* \"#utility.yul\":3075:3076   */\n      0x00\n        /* \"#utility.yul\":3072:3073   */\n      0x00\n        /* \"#utility.yul\":3065:3077   */\n      revert\n        /* \"#utility.yul\":3089:3191   */\n    tag_299:\n        /* \"#utility.yul\":3130:3136   */\n      0x00\n        /* \"#utility.yul\":3181:3183   */\n      0x1f\n        /* \"#utility.yul\":3177:3184   */\n      not\n        /* \"#utility.yul\":3172:3174   */\n      0x1f\n        /* \"#utility.yul\":3165:3170   */\n      dup4\n        /* \"#utility.yul\":3161:3175   */\n      add\n        /* \"#utility.yul\":3157:3185   */\n      and\n        /* \"#utility.yul\":3147:3185   */\n      swap1\n      pop\n        /* \"#utility.yul\":3089:3191   */\n      swap2\n      swap1\n      pop\n      jump\t// out\n        /* \"#utility.yul\":3197:3377   */\n    tag_231:\n        /* \"#utility.yul\":3245:3322   */\n      0x4e487b7100000000000000000000000000000000000000000000000000000000\n        /* \"#utility.yul\":3242:3243   */\n      0x00\n        /* \"#utility.yul\":3235:3323   */\n      mstore\n        /* \"#utility.yul\":3342:3346   */\n      0x41\n        /* \"#utility.yul\":3339:3340   */\n      0x04\n        /* \"#utility.yul\":3332:3347   */\n      mstore\n        /* \"#utility.yul\":3366:3370   */\n      0x24\n        /* \"#utility.yul\":3363:3364   */\n      0x00\n        /* \"#utility.yul\":3356:3371   */\n      revert\n        /* \"#utility.yul\":3383:3664   */\n    tag_300:\n        /* \"#utility.yul\":3466:3493   */\n      tag_414\n        /* \"#utility.yul\":3488:3492   */\n      dup3\n        /* \"#utility.yul\":3466:3493   */\n      tag_299\n      jump\t// in\n    tag_414:\n        /* \"#utility.yul\":3458:3464   */\n      dup2\n        /* \"#utility.yul\":3454:3494   */\n      add\n        /* \"#utility.yul\":3596:3602   */\n      dup2\n        /* \"#utility.yul\":3584:3594   */\n      dup2\n        /* \"#utility.yul\":3581:3603   */\n      lt\n        /* \"#utility.yul\":3560:3578   */\n      0xffffffffffffffff\n        /* \"#utility.yul\":3548:3558   */\n      dup3\n        /* \"#utility.yul\":3545:3579   */\n      gt\n        /* \"#utility.yul\":3542:3604   */\n      or\n        /* \"#utility.yul\":3539:3627   */\n      iszero\n      tag_415\n      jumpi\n        /* \"#utility.yul\":3607:3625   */\n      tag_416\n      tag_231\n      jump\t// in\n    tag_416:\n        /* \"#utility.yul\":3539:3627   */\n    tag_415:\n        /* \"#utility.yul\":3647:3657   */\n      dup1\n        /* \"#utility.yul\":3643:3645   */\n      0x40\n        /* \"#utility.yul\":3636:3658   */\n      mstore\n        /* \"#utility.yul\":3426:3664   */\n      pop\n        /* \"#utility.yul\":3383:3664   */\n      pop\n      pop\n      jump\t// out\n        /* \"#utility.yul\":3670:3799   */\n    tag_301:\n        /* \"#utility.yul\":3704:3710   */\n      0x00\n        /* \"#utility.yul\":3731:3751   */\n      tag_418\n      tag_284\n      jump\t// in\n    tag_418:\n        /* \"#utility.yul\":3721:3751   */\n      swap1\n      pop\n        /* \"#utility.yul\":3760:3793   */\n      tag_419\n        /* \"#utility.yul\":3788:3792   */\n      dup3\n        /* \"#utility.yul\":3780:3786   */\n      dup3\n        /* \"#utility.yul\":3760:3793   */\n      tag_300\n      jump\t// in\n    tag_419:\n        /* \"#utility.yul\":3670:3799   */\n      swap2\n      swap1\n      pop\n      jump\t// out\n        /* \"#utility.yul\":3805:4113   */\n    tag_302:\n        /* \"#utility.yul\":3867:3871   */\n      0x00\n        /* \"#utility.yul\":3957:3975   */\n      0xffffffffffffffff\n        /* \"#utility.yul\":3949:3955   */\n      dup3\n        /* \"#utility.yul\":3946:3976   */\n      gt\n        /* \"#utility.yul\":3943:3999   */\n      iszero\n      tag_421\n      jumpi\n        /* \"#utility.yul\":3979:3997   */\n      tag_422\n      tag_231\n      jump\t// in\n    tag_422:\n        /* \"#utility.yul\":3943:3999   */\n    tag_421:\n        /* \"#utility.yul\":4017:4046   */\n      tag_423\n        /* \"#utility.yul\":4039:4045   */\n      dup3\n        /* \"#utility.yul\":4017:4046   */\n      tag_299\n      jump\t// in\n    tag_423:\n        /* \"#utility.yul\":4009:4046   */\n      swap1\n      pop\n        /* \"#utility.yul\":4101:4105   */\n      0x20\n        /* \"#utility.yul\":4095:4099   */\n      dup2\n        /* \"#utility.yul\":4091:4106   */\n      add\n        /* \"#utility.yul\":4083:4106   */\n      swap1\n      pop\n        /* \"#utility.yul\":3805:4113   */\n      swap2\n      swap1\n      pop\n      jump\t// out\n        /* \"#utility.yul\":4119:4267   */\n    tag_303:\n        /* \"#utility.yul\":4217:4223   */\n      dup3\n        /* \"#utility.yul\":4212:4215   */\n      dup2\n        /* \"#utility.yul\":4207:4210   */\n      dup4\n        /* \"#utility.yul\":4194:4224   */\n      calldatacopy\n        /* \"#utility.yul\":4258:4259   */\n      0x00\n        /* \"#utility.yul\":4249:4255   */\n      dup4\n        /* \"#utility.yul\":4244:4247   */\n      dup4\n        /* \"#utility.yul\":4240:4256   */\n      add\n        /* \"#utility.yul\":4233:4260   */\n      mstore\n        /* \"#utility.yul\":4119:4267   */\n      pop\n      pop\n      pop\n      jump\t// out\n        /* \"#utility.yul\":4273:4698   */\n    tag_304:\n        /* \"#utility.yul\":4351:4356   */\n      0x00\n        /* \"#utility.yul\":4376:4442   */\n      tag_426\n        /* \"#utility.yul\":4392:4441   */\n      tag_427\n        /* \"#utility.yul\":4434:4440   */\n      dup5\n        /* \"#utility.yul\":4392:4441   */\n      tag_302\n      jump\t// in\n    tag_427:\n        /* \"#utility.yul\":4376:4442   */\n      tag_301\n      jump\t// in\n    tag_426:\n        /* \"#utility.yul\":4367:4442   */\n      swap1\n      pop\n        /* \"#utility.yul\":4465:4471   */\n      dup3\n        /* \"#utility.yul\":4458:4463   */\n      dup2\n        /* \"#utility.yul\":4451:4472   */\n      mstore\n        /* \"#utility.yul\":4503:4507   */\n      0x20\n        /* \"#utility.yul\":4496:4501   */\n      dup2\n        /* \"#utility.yul\":4492:4508   */\n      add\n        /* \"#utility.yul\":4541:4544   */\n      dup5\n        /* \"#utility.yul\":4532:4538   */\n      dup5\n        /* \"#utility.yul\":4527:4530   */\n      dup5\n        /* \"#utility.yul\":4523:4539   */\n      add\n        /* \"#utility.yul\":4520:4545   */\n      gt\n        /* \"#utility.yul\":4517:4629   */\n      iszero\n      tag_428\n      jumpi\n        /* \"#utility.yul\":4548:4627   */\n      tag_429\n      tag_298\n      jump\t// in\n    tag_429:\n        /* \"#utility.yul\":4517:4629   */\n    tag_428:\n        /* \"#utility.yul\":4638:4692   */\n      tag_430\n        /* \"#utility.yul\":4685:4691   */\n      dup5\n        /* \"#utility.yul\":4680:4683   */\n      dup3\n        /* \"#utility.yul\":4675:4678   */\n      dup6\n        /* \"#utility.yul\":4638:4692   */\n      tag_303\n      jump\t// in\n    tag_430:\n        /* \"#utility.yul\":4357:4698   */\n      pop\n        /* \"#utility.yul\":4273:4698   */\n      swap4\n      swap3\n      pop\n      pop\n      pop\n      jump\t// out\n        /* \"#utility.yul\":4718:5058   */\n    tag_305:\n        /* \"#utility.yul\":4774:4779   */\n      0x00\n        /* \"#utility.yul\":4823:4826   */\n      dup3\n        /* \"#utility.yul\":4816:4820   */\n      0x1f\n        /* \"#utility.yul\":4808:4814   */\n      dup4\n        /* \"#utility.yul\":4804:4821   */\n      add\n        /* \"#utility.yul\":4800:4827   */\n      slt\n        /* \"#utility.yul\":4790:4912   */\n      tag_432\n      jumpi\n        /* \"#utility.yul\":4831:4910   */\n      tag_433\n      tag_297\n      jump\t// in\n    tag_433:\n        /* \"#utility.yul\":4790:4912   */\n    tag_432:\n        /* \"#utility.yul\":4948:4954   */\n      dup2\n        /* \"#utility.yul\":4935:4955   */\n      calldataload\n        /* \"#utility.yul\":4973:5052   */\n      tag_434\n        /* \"#utility.yul\":5048:5051   */\n      dup5\n        /* \"#utility.yul\":5040:5046   */\n      dup3\n        /* \"#utility.yul\":5033:5037   */\n      0x20\n        /* \"#utility.yul\":5025:5031   */\n      dup7\n        /* \"#utility.yul\":5021:5038   */\n      add\n        /* \"#utility.yul\":4973:5052   */\n      tag_304\n      jump\t// in\n    tag_434:\n        /* \"#utility.yul\":4964:5052   */\n      swap2\n      pop\n        /* \"#utility.yul\":4780:5058   */\n      pop\n        /* \"#utility.yul\":4718:5058   */\n      swap3\n      swap2\n      pop\n      pop\n      jump\t// out\n        /* \"#utility.yul\":5064:5718   */\n    tag_38:\n        /* \"#utility.yul\":5142:5148   */\n      0x00\n        /* \"#utility.yul\":5150:5156   */\n      0x00\n        /* \"#utility.yul\":5199:5201   */\n      0x40\n        /* \"#utility.yul\":5187:5196   */\n      dup4\n        /* \"#utility.yul\":5178:5185   */\n      dup6\n        /* \"#utility.yul\":5174:5197   */\n      sub\n        /* \"#utility.yul\":5170:5202   */\n      slt\n        /* \"#utility.yul\":5167:5286   */\n      iszero\n      tag_436\n      jumpi\n        /* \"#utility.yul\":5205:5284   */\n      tag_437\n      tag_285\n      jump\t// in\n    tag_437:\n        /* \"#utility.yul\":5167:5286   */\n    tag_436:\n        /* \"#utility.yul\":5325:5326   */\n      0x00\n        /* \"#utility.yul\":5350:5403   */\n      tag_438\n        /* \"#utility.yul\":5395:5402   */\n      dup6\n        /* \"#utility.yul\":5386:5392   */\n      dup3\n        /* \"#utility.yul\":5375:5384   */\n      dup7\n        /* \"#utility.yul\":5371:5393   */\n      add\n        /* \"#utility.yul\":5350:5403   */\n      tag_296\n      jump\t// in\n    tag_438:\n        /* \"#utility.yul\":5340:5403   */\n      swap3\n      pop\n        /* \"#utility.yul\":5296:5413   */\n      pop\n        /* \"#utility.yul\":5480:5482   */\n      0x20\n        /* \"#utility.yul\":5469:5478   */\n      dup4\n        /* \"#utility.yul\":5465:5483   */\n      add\n        /* \"#utility.yul\":5452:5484   */\n      calldataload\n        /* \"#utility.yul\":5511:5529   */\n      0xffffffffffffffff\n        /* \"#utility.yul\":5503:5509   */\n      dup2\n        /* \"#utility.yul\":5500:5530   */\n      gt\n        /* \"#utility.yul\":5497:5614   */\n      iszero\n      tag_439\n      jumpi\n        /* \"#utility.yul\":5533:5612   */\n      tag_440\n      tag_286\n      jump\t// in\n    tag_440:\n        /* \"#utility.yul\":5497:5614   */\n    tag_439:\n        /* \"#utility.yul\":5638:5701   */\n      tag_441\n        /* \"#utility.yul\":5693:5700   */\n      dup6\n        /* \"#utility.yul\":5684:5690   */\n      dup3\n        /* \"#utility.yul\":5673:5682   */\n      dup7\n        /* \"#utility.yul\":5669:5691   */\n      add\n        /* \"#utility.yul\":5638:5701   */\n      tag_305\n      jump\t// in\n    tag_441:\n        /* \"#utility.yul\":5628:5701   */\n      swap2\n      pop\n        /* \"#utility.yul\":5423:5711   */\n      pop\n        /* \"#utility.yul\":5064:5718   */\n      swap3\n      pop\n      swap3\n      swap1\n      pop\n      jump\t// out\n        /* \"#utility.yul\":5724:6053   */\n    tag_42:\n        /* \"#utility.yul\":5783:5789   */\n      0x00\n        /* \"#utility.yul\":5832:5834   */\n      0x20\n        /* \"#utility.yul\":5820:5829   */\n      dup3\n        /* \"#utility.yul\":5811:5818   */\n      dup5\n        /* \"#utility.yul\":5807:5830   */\n      sub\n        /* \"#utility.yul\":5803:5835   */\n      slt\n        /* \"#utility.yul\":5800:5919   */\n      iszero\n      tag_443\n      jumpi\n        /* \"#utility.yul\":5838:5917   */\n      tag_444\n      tag_285\n      jump\t// in\n    tag_444:\n        /* \"#utility.yul\":5800:5919   */\n    tag_443:\n        /* \"#utility.yul\":5958:5959   */\n      0x00\n        /* \"#utility.yul\":5983:6036   */\n      tag_445\n        /* \"#utility.yul\":6028:6035   */\n      dup5\n        /* \"#utility.yul\":6019:6025   */\n      dup3\n        /* \"#utility.yul\":6008:6017   */\n      dup6\n        /* \"#utility.yul\":6004:6026   */\n      add\n        /* \"#utility.yul\":5983:6036   */\n      tag_290\n      jump\t// in\n    tag_445:\n        /* \"#utility.yul\":5973:6036   */\n      swap2\n      pop\n        /* \"#utility.yul\":5929:6046   */\n      pop\n        /* \"#utility.yul\":5724:6053   */\n      swap3\n      swap2\n      pop\n      pop\n      jump\t// out\n        /* \"#utility.yul\":6059:6168   */\n    tag_306:\n        /* \"#utility.yul\":6140:6161   */\n      tag_447\n        /* \"#utility.yul\":6155:6160   */\n      dup2\n        /* \"#utility.yul\":6140:6161   */\n      tag_291\n      jump\t// in\n    tag_447:\n        /* \"#utility.yul\":6135:6138   */\n      dup3\n        /* \"#utility.yul\":6128:6162   */\n      mstore\n        /* \"#utility.yul\":6059:6168   */\n      pop\n      pop\n      jump\t// out\n        /* \"#utility.yul\":6174:6384   */\n    tag_45:\n        /* \"#utility.yul\":6261:6265   */\n      0x00\n        /* \"#utility.yul\":6299:6301   */\n      0x20\n        /* \"#utility.yul\":6288:6297   */\n      dup3\n        /* \"#utility.yul\":6284:6302   */\n      add\n        /* \"#utility.yul\":6276:6302   */\n      swap1\n      pop\n        /* \"#utility.yul\":6312:6377   */\n      tag_449\n        /* \"#utility.yul\":6374:6375   */\n      0x00\n        /* \"#utility.yul\":6363:6372   */\n      dup4\n        /* \"#utility.yul\":6359:6376   */\n      add\n        /* \"#utility.yul\":6350:6356   */\n      dup5\n        /* \"#utility.yul\":6312:6377   */\n      tag_306\n      jump\t// in\n    tag_449:\n        /* \"#utility.yul\":6174:6384   */\n      swap3\n      swap2\n      pop\n      pop\n      jump\t// out\n        /* \"#utility.yul\":6390:6508   */\n    tag_307:\n        /* \"#utility.yul\":6477:6501   */\n      tag_451\n        /* \"#utility.yul\":6495:6500   */\n      dup2\n        /* \"#utility.yul\":6477:6501   */\n      tag_288\n      jump\t// in\n    tag_451:\n        /* \"#utility.yul\":6472:6475   */\n      dup3\n        /* \"#utility.yul\":6465:6502   */\n      mstore\n        /* \"#utility.yul\":6390:6508   */\n      pop\n      pop\n      jump\t// out\n        /* \"#utility.yul\":6514:6736   */\n    tag_54:\n        /* \"#utility.yul\":6607:6611   */\n      0x00\n        /* \"#utility.yul\":6645:6647   */\n      0x20\n        /* \"#utility.yul\":6634:6643   */\n      dup3\n        /* \"#utility.yul\":6630:6648   */\n      add\n        /* \"#utility.yul\":6622:6648   */\n      swap1\n      pop\n        /* \"#utility.yul\":6658:6729   */\n      tag_453\n        /* \"#utility.yul\":6726:6727   */\n      0x00\n        /* \"#utility.yul\":6715:6724   */\n      dup4\n        /* \"#utility.yul\":6711:6728   */\n      add\n        /* \"#utility.yul\":6702:6708   */\n      dup5\n        /* \"#utility.yul\":6658:6729   */\n      tag_307\n      jump\t// in\n    tag_453:\n        /* \"#utility.yul\":6514:6736   */\n      swap3\n      swap2\n      pop\n      pop\n      jump\t// out\n        /* \"#utility.yul\":6742:7077   */\n    tag_308:\n        /* \"#utility.yul\":6843:6847   */\n      0x00\n        /* \"#utility.yul\":6933:6951   */\n      0xffffffffffffffff\n        /* \"#utility.yul\":6925:6931   */\n      dup3\n        /* \"#utility.yul\":6922:6952   */\n      gt\n        /* \"#utility.yul\":6919:6975   */\n      iszero\n      tag_455\n      jumpi\n        /* \"#utility.yul\":6955:6973   */\n      tag_456\n      tag_231\n      jump\t// in\n    tag_456:\n        /* \"#utility.yul\":6919:6975   */\n    tag_455:\n        /* \"#utility.yul\":7005:7009   */\n      0x20\n        /* \"#utility.yul\":6997:7003   */\n      dup3\n        /* \"#utility.yul\":6993:7010   */\n      mul\n        /* \"#utility.yul\":6985:7010   */\n      swap1\n      pop\n        /* \"#utility.yul\":7065:7069   */\n      0x20\n        /* \"#utility.yul\":7059:7063   */\n      dup2\n        /* \"#utility.yul\":7055:7070   */\n      add\n        /* \"#utility.yul\":7047:7070   */\n      swap1\n      pop\n        /* \"#utility.yul\":6742:7077   */\n      swap2\n      swap1\n      pop\n      jump\t// out\n        /* \"#utility.yul\":7083:7200   */\n    tag_309:\n        /* \"#utility.yul\":7192:7193   */\n      0x00\n        /* \"#utility.yul\":7189:7190   */\n      0x00\n        /* \"#utility.yul\":7182:7194   */\n      revert\n        /* \"#utility.yul\":7206:7323   */\n    tag_310:\n        /* \"#utility.yul\":7315:7316   */\n      0x00\n        /* \"#utility.yul\":7312:7313   */\n      0x00\n        /* \"#utility.yul\":7305:7317   */\n      revert\n        /* \"#utility.yul\":7329:7446   */\n    tag_311:\n        /* \"#utility.yul\":7438:7439   */\n      0x00\n        /* \"#utility.yul\":7435:7436   */\n      0x00\n        /* \"#utility.yul\":7428:7440   */\n      revert\n        /* \"#utility.yul\":7482:8403   */\n    tag_312:\n        /* \"#utility.yul\":7555:7560   */\n      0x00\n        /* \"#utility.yul\":7599:7603   */\n      0x60\n        /* \"#utility.yul\":7587:7596   */\n      dup3\n        /* \"#utility.yul\":7582:7585   */\n      dup5\n        /* \"#utility.yul\":7578:7597   */\n      sub\n        /* \"#utility.yul\":7574:7604   */\n      slt\n        /* \"#utility.yul\":7571:7688   */\n      iszero\n      tag_461\n      jumpi\n        /* \"#utility.yul\":7607:7686   */\n      tag_462\n      tag_310\n      jump\t// in\n    tag_462:\n        /* \"#utility.yul\":7571:7688   */\n    tag_461:\n        /* \"#utility.yul\":7706:7727   */\n      tag_463\n        /* \"#utility.yul\":7722:7726   */\n      0x60\n        /* \"#utility.yul\":7706:7727   */\n      tag_301\n      jump\t// in\n    tag_463:\n        /* \"#utility.yul\":7697:7727   */\n      swap1\n      pop\n        /* \"#utility.yul\":7821:7822   */\n      0x00\n        /* \"#utility.yul\":7810:7819   */\n      dup3\n        /* \"#utility.yul\":7806:7823   */\n      add\n        /* \"#utility.yul\":7793:7824   */\n      calldataload\n        /* \"#utility.yul\":7851:7869   */\n      0xffffffffffffffff\n        /* \"#utility.yul\":7843:7849   */\n      dup2\n        /* \"#utility.yul\":7840:7870   */\n      gt\n        /* \"#utility.yul\":7837:7954   */\n      iszero\n      tag_464\n      jumpi\n        /* \"#utility.yul\":7873:7952   */\n      tag_465\n      tag_311\n      jump\t// in\n    tag_465:\n        /* \"#utility.yul\":7837:7954   */\n    tag_464:\n        /* \"#utility.yul\":7993:8052   */\n      tag_466\n        /* \"#utility.yul\":8048:8051   */\n      dup5\n        /* \"#utility.yul\":8039:8045   */\n      dup3\n        /* \"#utility.yul\":8028:8037   */\n      dup6\n        /* \"#utility.yul\":8024:8046   */\n      add\n        /* \"#utility.yul\":7993:8052   */\n      tag_305\n      jump\t// in\n    tag_466:\n        /* \"#utility.yul\":7986:7990   */\n      0x00\n        /* \"#utility.yul\":7979:7984   */\n      dup4\n        /* \"#utility.yul\":7975:7991   */\n      add\n        /* \"#utility.yul\":7968:8053   */\n      mstore\n        /* \"#utility.yul\":7737:8064   */\n      pop\n        /* \"#utility.yul\":8128:8130   */\n      0x20\n        /* \"#utility.yul\":8169:8218   */\n      tag_467\n        /* \"#utility.yul\":8214:8217   */\n      dup5\n        /* \"#utility.yul\":8205:8211   */\n      dup3\n        /* \"#utility.yul\":8194:8203   */\n      dup6\n        /* \"#utility.yul\":8190:8212   */\n      add\n        /* \"#utility.yul\":8169:8218   */\n      tag_290\n      jump\t// in\n    tag_467:\n        /* \"#utility.yul\":8162:8166   */\n      0x20\n        /* \"#utility.yul\":8155:8160   */\n      dup4\n        /* \"#utility.yul\":8151:8167   */\n      add\n        /* \"#utility.yul\":8144:8219   */\n      mstore\n        /* \"#utility.yul\":8074:8230   */\n      pop\n        /* \"#utility.yul\":8294:8296   */\n      0x40\n        /* \"#utility.yul\":8335:8384   */\n      tag_468\n        /* \"#utility.yul\":8380:8383   */\n      dup5\n        /* \"#utility.yul\":8371:8377   */\n      dup3\n        /* \"#utility.yul\":8360:8369   */\n      dup6\n        /* \"#utility.yul\":8356:8378   */\n      add\n        /* \"#utility.yul\":8335:8384   */\n      tag_296\n      jump\t// in\n    tag_468:\n        /* \"#utility.yul\":8328:8332   */\n      0x40\n        /* \"#utility.yul\":8321:8326   */\n      dup4\n        /* \"#utility.yul\":8317:8333   */\n      add\n        /* \"#utility.yul\":8310:8385   */\n      mstore\n        /* \"#utility.yul\":8240:8396   */\n      pop\n        /* \"#utility.yul\":7482:8403   */\n      swap3\n      swap2\n      pop\n      pop\n      jump\t// out\n        /* \"#utility.yul\":8441:9428   */\n    tag_313:\n        /* \"#utility.yul\":8561:8566   */\n      0x00\n        /* \"#utility.yul\":8586:8691   */\n      tag_470\n        /* \"#utility.yul\":8602:8690   */\n      tag_471\n        /* \"#utility.yul\":8683:8689   */\n      dup5\n        /* \"#utility.yul\":8602:8690   */\n      tag_308\n      jump\t// in\n    tag_471:\n        /* \"#utility.yul\":8586:8691   */\n      tag_301\n      jump\t// in\n    tag_470:\n        /* \"#utility.yul\":8577:8691   */\n      swap1\n      pop\n        /* \"#utility.yul\":8711:8716   */\n      dup1\n        /* \"#utility.yul\":8740:8746   */\n      dup4\n        /* \"#utility.yul\":8733:8738   */\n      dup3\n        /* \"#utility.yul\":8726:8747   */\n      mstore\n        /* \"#utility.yul\":8774:8778   */\n      0x20\n        /* \"#utility.yul\":8767:8772   */\n      dup3\n        /* \"#utility.yul\":8763:8779   */\n      add\n        /* \"#utility.yul\":8756:8779   */\n      swap1\n      pop\n        /* \"#utility.yul\":8827:8831   */\n      0x20\n        /* \"#utility.yul\":8819:8825   */\n      dup5\n        /* \"#utility.yul\":8815:8832   */\n      mul\n        /* \"#utility.yul\":8807:8813   */\n      dup4\n        /* \"#utility.yul\":8803:8833   */\n      add\n        /* \"#utility.yul\":8856:8859   */\n      dup6\n        /* \"#utility.yul\":8848:8854   */\n      dup2\n        /* \"#utility.yul\":8845:8860   */\n      gt\n        /* \"#utility.yul\":8842:8964   */\n      iszero\n      tag_472\n      jumpi\n        /* \"#utility.yul\":8875:8954   */\n      tag_473\n      tag_309\n      jump\t// in\n    tag_473:\n        /* \"#utility.yul\":8842:8964   */\n    tag_472:\n        /* \"#utility.yul\":8990:8996   */\n      dup4\n        /* \"#utility.yul\":8973:9422   */\n    tag_474:\n        /* \"#utility.yul\":9007:9013   */\n      dup2\n        /* \"#utility.yul\":9002:9005   */\n      dup2\n        /* \"#utility.yul\":8999:9014   */\n      lt\n        /* \"#utility.yul\":8973:9422   */\n      iszero\n      tag_476\n      jumpi\n        /* \"#utility.yul\":9096:9099   */\n      dup1\n        /* \"#utility.yul\":9083:9100   */\n      calldataload\n        /* \"#utility.yul\":9132:9150   */\n      0xffffffffffffffff\n        /* \"#utility.yul\":9119:9130   */\n      dup2\n        /* \"#utility.yul\":9116:9151   */\n      gt\n        /* \"#utility.yul\":9113:9235   */\n      iszero\n      tag_477\n      jumpi\n        /* \"#utility.yul\":9154:9233   */\n      tag_478\n      tag_297\n      jump\t// in\n    tag_478:\n        /* \"#utility.yul\":9113:9235   */\n    tag_477:\n        /* \"#utility.yul\":9278:9289   */\n      dup1\n        /* \"#utility.yul\":9270:9276   */\n      dup7\n        /* \"#utility.yul\":9266:9290   */\n      add\n        /* \"#utility.yul\":9316:9377   */\n      tag_479\n        /* \"#utility.yul\":9373:9376   */\n      dup10\n        /* \"#utility.yul\":9361:9371   */\n      dup3\n        /* \"#utility.yul\":9316:9377   */\n      tag_312\n      jump\t// in\n    tag_479:\n        /* \"#utility.yul\":9311:9314   */\n      dup6\n        /* \"#utility.yul\":9304:9378   */\n      mstore\n        /* \"#utility.yul\":9407:9411   */\n      0x20\n        /* \"#utility.yul\":9402:9405   */\n      dup6\n        /* \"#utility.yul\":9398:9412   */\n      add\n        /* \"#utility.yul\":9391:9412   */\n      swap5\n      pop\n        /* \"#utility.yul\":9049:9422   */\n      pop\n      pop\n        /* \"#utility.yul\":9033:9037   */\n      0x20\n        /* \"#utility.yul\":9028:9031   */\n      dup2\n        /* \"#utility.yul\":9024:9038   */\n      add\n        /* \"#utility.yul\":9017:9038   */\n      swap1\n      pop\n        /* \"#utility.yul\":8973:9422   */\n      jump(tag_474)\n    tag_476:\n        /* \"#utility.yul\":8977:8998   */\n      pop\n        /* \"#utility.yul\":8567:9428   */\n      pop\n      pop\n        /* \"#utility.yul\":8441:9428   */\n      swap4\n      swap3\n      pop\n      pop\n      pop\n      jump\t// out\n        /* \"#utility.yul\":9466:9884   */\n    tag_314:\n        /* \"#utility.yul\":9561:9566   */\n      0x00\n        /* \"#utility.yul\":9610:9613   */\n      dup3\n        /* \"#utility.yul\":9603:9607   */\n      0x1f\n        /* \"#utility.yul\":9595:9601   */\n      dup4\n        /* \"#utility.yul\":9591:9608   */\n      add\n        /* \"#utility.yul\":9587:9614   */\n      slt\n        /* \"#utility.yul\":9577:9699   */\n      tag_481\n      jumpi\n        /* \"#utility.yul\":9618:9697   */\n      tag_482\n      tag_297\n      jump\t// in\n    tag_482:\n        /* \"#utility.yul\":9577:9699   */\n    tag_481:\n        /* \"#utility.yul\":9735:9741   */\n      dup2\n        /* \"#utility.yul\":9722:9742   */\n      calldataload\n        /* \"#utility.yul\":9760:9878   */\n      tag_483\n        /* \"#utility.yul\":9874:9877   */\n      dup5\n        /* \"#utility.yul\":9866:9872   */\n      dup3\n        /* \"#utility.yul\":9859:9863   */\n      0x20\n        /* \"#utility.yul\":9851:9857   */\n      dup7\n        /* \"#utility.yul\":9847:9864   */\n      add\n        /* \"#utility.yul\":9760:9878   */\n      tag_313\n      jump\t// in\n    tag_483:\n        /* \"#utility.yul\":9751:9878   */\n      swap2\n      pop\n        /* \"#utility.yul\":9567:9884   */\n      pop\n        /* \"#utility.yul\":9466:9884   */\n      swap3\n      swap2\n      pop\n      pop\n      jump\t// out\n        /* \"#utility.yul\":9890:10477   */\n    tag_64:\n        /* \"#utility.yul\":9998:10004   */\n      0x00\n        /* \"#utility.yul\":10047:10049   */\n      0x20\n        /* \"#utility.yul\":10035:10044   */\n      dup3\n        /* \"#utility.yul\":10026:10033   */\n      dup5\n        /* \"#utility.yul\":10022:10045   */\n      sub\n        /* \"#utility.yul\":10018:10050   */\n      slt\n        /* \"#utility.yul\":10015:10134   */\n      iszero\n      tag_485\n      jumpi\n        /* \"#utility.yul\":10053:10132   */\n      tag_486\n      tag_285\n      jump\t// in\n    tag_486:\n        /* \"#utility.yul\":10015:10134   */\n    tag_485:\n        /* \"#utility.yul\":10201:10202   */\n      0x00\n        /* \"#utility.yul\":10190:10199   */\n      dup3\n        /* \"#utility.yul\":10186:10203   */\n      add\n        /* \"#utility.yul\":10173:10204   */\n      calldataload\n        /* \"#utility.yul\":10231:10249   */\n      0xffffffffffffffff\n        /* \"#utility.yul\":10223:10229   */\n      dup2\n        /* \"#utility.yul\":10220:10250   */\n      gt\n        /* \"#utility.yul\":10217:10334   */\n      iszero\n      tag_487\n      jumpi\n        /* \"#utility.yul\":10253:10332   */\n      tag_488\n      tag_286\n      jump\t// in\n    tag_488:\n        /* \"#utility.yul\":10217:10334   */\n    tag_487:\n        /* \"#utility.yul\":10358:10460   */\n      tag_489\n        /* \"#utility.yul\":10452:10459   */\n      dup5\n        /* \"#utility.yul\":10443:10449   */\n      dup3\n        /* \"#utility.yul\":10432:10441   */\n      dup6\n        /* \"#utility.yul\":10428:10450   */\n      add\n        /* \"#utility.yul\":10358:10460   */\n      tag_314\n      jump\t// in\n    tag_489:\n        /* \"#utility.yul\":10348:10460   */\n      swap2\n      pop\n        /* \"#utility.yul\":10144:10470   */\n      pop\n        /* \"#utility.yul\":9890:10477   */\n      swap3\n      swap2\n      pop\n      pop\n      jump\t// out\n        /* \"#utility.yul\":10483:10621   */\n    tag_315:\n        /* \"#utility.yul\":10574:10580   */\n      0x00\n        /* \"#utility.yul\":10608:10613   */\n      dup2\n        /* \"#utility.yul\":10602:10614   */\n      mload\n        /* \"#utility.yul\":10592:10614   */\n      swap1\n      pop\n        /* \"#utility.yul\":10483:10621   */\n      swap2\n      swap1\n      pop\n      jump\t// out\n        /* \"#utility.yul\":10627:10835   */\n    tag_316:\n        /* \"#utility.yul\":10750:10761   */\n      0x00\n        /* \"#utility.yul\":10784:10790   */\n      dup3\n        /* \"#utility.yul\":10779:10782   */\n      dup3\n        /* \"#utility.yul\":10772:10791   */\n      mstore\n        /* \"#utility.yul\":10824:10828   */\n      0x20\n        /* \"#utility.yul\":10819:10822   */\n      dup3\n        /* \"#utility.yul\":10815:10829   */\n      add\n        /* \"#utility.yul\":10800:10829   */\n      swap1\n      pop\n        /* \"#utility.yul\":10627:10835   */\n      swap3\n      swap2\n      pop\n      pop\n      jump\t// out\n        /* \"#utility.yul\":10841:10997   */\n    tag_317:\n        /* \"#utility.yul\":10932:10936   */\n      0x00\n        /* \"#utility.yul\":10955:10958   */\n      dup2\n        /* \"#utility.yul\":10947:10958   */\n      swap1\n      pop\n        /* \"#utility.yul\":10985:10989   */\n      0x20\n        /* \"#utility.yul\":10980:10983   */\n      dup3\n        /* \"#utility.yul\":10976:10990   */\n      add\n        /* \"#utility.yul\":10968:10990   */\n      swap1\n      pop\n        /* \"#utility.yul\":10841:10997   */\n      swap2\n      swap1\n      pop\n      jump\t// out\n        /* \"#utility.yul\":11003:11102   */\n    tag_318:\n        /* \"#utility.yul\":11055:11061   */\n      0x00\n        /* \"#utility.yul\":11089:11094   */\n      dup2\n        /* \"#utility.yul\":11083:11095   */\n      mload\n        /* \"#utility.yul\":11073:11095   */\n      swap1\n      pop\n        /* \"#utility.yul\":11003:11102   */\n      swap2\n      swap1\n      pop\n      jump\t// out\n        /* \"#utility.yul\":11108:11267   */\n    tag_319:\n        /* \"#utility.yul\":11182:11193   */\n      0x00\n        /* \"#utility.yul\":11216:11222   */\n      dup3\n        /* \"#utility.yul\":11211:11214   */\n      dup3\n        /* \"#utility.yul\":11204:11223   */\n      mstore\n        /* \"#utility.yul\":11256:11260   */\n      0x20\n        /* \"#utility.yul\":11251:11254   */\n      dup3\n        /* \"#utility.yul\":11247:11261   */\n      add\n        /* \"#utility.yul\":11232:11261   */\n      swap1\n      pop\n        /* \"#utility.yul\":11108:11267   */\n      swap3\n      swap2\n      pop\n      pop\n      jump\t// out\n        /* \"#utility.yul\":11273:11412   */\n    tag_320:\n        /* \"#utility.yul\":11362:11368   */\n      dup3\n        /* \"#utility.yul\":11357:11360   */\n      dup2\n        /* \"#utility.yul\":11352:11355   */\n      dup4\n        /* \"#utility.yul\":11346:11369   */\n      mcopy\n        /* \"#utility.yul\":11403:11404   */\n      0x00\n        /* \"#utility.yul\":11394:11400   */\n      dup4\n        /* \"#utility.yul\":11389:11392   */\n      dup4\n        /* \"#utility.yul\":11385:11401   */\n      add\n        /* \"#utility.yul\":11378:11405   */\n      mstore\n        /* \"#utility.yul\":11273:11412   */\n      pop\n      pop\n      pop\n      jump\t// out\n        /* \"#utility.yul\":11418:11775   */\n    tag_321:\n        /* \"#utility.yul\":11496:11499   */\n      0x00\n        /* \"#utility.yul\":11524:11563   */\n      tag_497\n        /* \"#utility.yul\":11557:11562   */\n      dup3\n        /* \"#utility.yul\":11524:11563   */\n      tag_318\n      jump\t// in\n    tag_497:\n        /* \"#utility.yul\":11579:11640   */\n      tag_498\n        /* \"#utility.yul\":11633:11639   */\n      dup2\n        /* \"#utility.yul\":11628:11631   */\n      dup6\n        /* \"#utility.yul\":11579:11640   */\n      tag_319\n      jump\t// in\n    tag_498:\n        /* \"#utility.yul\":11572:11640   */\n      swap4\n      pop\n        /* \"#utility.yul\":11649:11714   */\n      tag_499\n        /* \"#utility.yul\":11707:11713   */\n      dup2\n        /* \"#utility.yul\":11702:11705   */\n      dup6\n        /* \"#utility.yul\":11695:11699   */\n      0x20\n        /* \"#utility.yul\":11688:11693   */\n      dup7\n        /* \"#utility.yul\":11684:11700   */\n      add\n        /* \"#utility.yul\":11649:11714   */\n      tag_320\n      jump\t// in\n    tag_499:\n        /* \"#utility.yul\":11739:11768   */\n      tag_500\n        /* \"#utility.yul\":11761:11767   */\n      dup2\n        /* \"#utility.yul\":11739:11768   */\n      tag_299\n      jump\t// in\n    tag_500:\n        /* \"#utility.yul\":11734:11737   */\n      dup5\n        /* \"#utility.yul\":11730:11769   */\n      add\n        /* \"#utility.yul\":11723:11769   */\n      swap2\n      pop\n        /* \"#utility.yul\":11500:11775   */\n      pop\n        /* \"#utility.yul\":11418:11775   */\n      swap3\n      swap2\n      pop\n      pop\n      jump\t// out\n        /* \"#utility.yul\":11781:11889   */\n    tag_322:\n        /* \"#utility.yul\":11858:11882   */\n      tag_502\n        /* \"#utility.yul\":11876:11881   */\n      dup2\n        /* \"#utility.yul\":11858:11882   */\n      tag_288\n      jump\t// in\n    tag_502:\n        /* \"#utility.yul\":11853:11856   */\n      dup3\n        /* \"#utility.yul\":11846:11883   */\n      mstore\n        /* \"#utility.yul\":11781:11889   */\n      pop\n      pop\n      jump\t// out\n        /* \"#utility.yul\":11895:12003   */\n    tag_323:\n        /* \"#utility.yul\":11972:11996   */\n      tag_504\n        /* \"#utility.yul\":11990:11995   */\n      dup2\n        /* \"#utility.yul\":11972:11996   */\n      tag_294\n      jump\t// in\n    tag_504:\n        /* \"#utility.yul\":11967:11970   */\n      dup3\n        /* \"#utility.yul\":11960:11997   */\n      mstore\n        /* \"#utility.yul\":11895:12003   */\n      pop\n      pop\n      jump\t// out\n        /* \"#utility.yul\":12065:12850   */\n    tag_324:\n        /* \"#utility.yul\":12172:12175   */\n      0x00\n        /* \"#utility.yul\":12208:12212   */\n      0x60\n        /* \"#utility.yul\":12203:12206   */\n      dup4\n        /* \"#utility.yul\":12199:12213   */\n      add\n        /* \"#utility.yul\":12302:12306   */\n      0x00\n        /* \"#utility.yul\":12295:12300   */\n      dup4\n        /* \"#utility.yul\":12291:12307   */\n      add\n        /* \"#utility.yul\":12285:12308   */\n      mload\n        /* \"#utility.yul\":12355:12358   */\n      dup5\n        /* \"#utility.yul\":12349:12353   */\n      dup3\n        /* \"#utility.yul\":12345:12359   */\n      sub\n        /* \"#utility.yul\":12338:12342   */\n      0x00\n        /* \"#utility.yul\":12333:12336   */\n      dup7\n        /* \"#utility.yul\":12329:12343   */\n      add\n        /* \"#utility.yul\":12322:12360   */\n      mstore\n        /* \"#utility.yul\":12381:12454   */\n      tag_506\n        /* \"#utility.yul\":12449:12453   */\n      dup3\n        /* \"#utility.yul\":12435:12447   */\n      dup3\n        /* \"#utility.yul\":12381:12454   */\n      tag_321\n      jump\t// in\n    tag_506:\n        /* \"#utility.yul\":12373:12454   */\n      swap2\n      pop\n        /* \"#utility.yul\":12223:12465   */\n      pop\n        /* \"#utility.yul\":12552:12556   */\n      0x20\n        /* \"#utility.yul\":12545:12550   */\n      dup4\n        /* \"#utility.yul\":12541:12557   */\n      add\n        /* \"#utility.yul\":12535:12558   */\n      mload\n        /* \"#utility.yul\":12571:12634   */\n      tag_507\n        /* \"#utility.yul\":12628:12632   */\n      0x20\n        /* \"#utility.yul\":12623:12626   */\n      dup7\n        /* \"#utility.yul\":12619:12633   */\n      add\n        /* \"#utility.yul\":12605:12617   */\n      dup3\n        /* \"#utility.yul\":12571:12634   */\n      tag_322\n      jump\t// in\n    tag_507:\n        /* \"#utility.yul\":12475:12644   */\n      pop\n        /* \"#utility.yul\":12731:12735   */\n      0x40\n        /* \"#utility.yul\":12724:12729   */\n      dup4\n        /* \"#utility.yul\":12720:12736   */\n      add\n        /* \"#utility.yul\":12714:12737   */\n      mload\n        /* \"#utility.yul\":12750:12813   */\n      tag_508\n        /* \"#utility.yul\":12807:12811   */\n      0x40\n        /* \"#utility.yul\":12802:12805   */\n      dup7\n        /* \"#utility.yul\":12798:12812   */\n      add\n        /* \"#utility.yul\":12784:12796   */\n      dup3\n        /* \"#utility.yul\":12750:12813   */\n      tag_323\n      jump\t// in\n    tag_508:\n        /* \"#utility.yul\":12654:12823   */\n      pop\n        /* \"#utility.yul\":12840:12844   */\n      dup1\n        /* \"#utility.yul\":12833:12844   */\n      swap2\n      pop\n        /* \"#utility.yul\":12177:12850   */\n      pop\n        /* \"#utility.yul\":12065:12850   */\n      swap3\n      swap2\n      pop\n      pop\n      jump\t// out\n        /* \"#utility.yul\":12856:13108   */\n    tag_325:\n        /* \"#utility.yul\":12973:12983   */\n      0x00\n        /* \"#utility.yul\":13008:13102   */\n      tag_510\n        /* \"#utility.yul\":13098:13101   */\n      dup4\n        /* \"#utility.yul\":13090:13096   */\n      dup4\n        /* \"#utility.yul\":13008:13102   */\n      tag_324\n      jump\t// in\n    tag_510:\n        /* \"#utility.yul\":12994:13102   */\n      swap1\n      pop\n        /* \"#utility.yul\":12856:13108   */\n      swap3\n      swap2\n      pop\n      pop\n      jump\t// out\n        /* \"#utility.yul\":13114:13251   */\n    tag_326:\n        /* \"#utility.yul\":13208:13212   */\n      0x00\n        /* \"#utility.yul\":13240:13244   */\n      0x20\n        /* \"#utility.yul\":13235:13238   */\n      dup3\n        /* \"#utility.yul\":13231:13245   */\n      add\n        /* \"#utility.yul\":13223:13245   */\n      swap1\n      pop\n        /* \"#utility.yul\":13114:13251   */\n      swap2\n      swap1\n      pop\n      jump\t// out\n        /* \"#utility.yul\":13317:14420   */\n    tag_327:\n        /* \"#utility.yul\":13484:13487   */\n      0x00\n        /* \"#utility.yul\":13513:13591   */\n      tag_513\n        /* \"#utility.yul\":13585:13590   */\n      dup3\n        /* \"#utility.yul\":13513:13591   */\n      tag_315\n      jump\t// in\n    tag_513:\n        /* \"#utility.yul\":13607:13717   */\n      tag_514\n        /* \"#utility.yul\":13710:13716   */\n      dup2\n        /* \"#utility.yul\":13705:13708   */\n      dup6\n        /* \"#utility.yul\":13607:13717   */\n      tag_316\n      jump\t// in\n    tag_514:\n        /* \"#utility.yul\":13600:13717   */\n      swap4\n      pop\n        /* \"#utility.yul\":13743:13746   */\n      dup4\n        /* \"#utility.yul\":13788:13792   */\n      0x20\n        /* \"#utility.yul\":13780:13786   */\n      dup3\n        /* \"#utility.yul\":13776:13793   */\n      mul\n        /* \"#utility.yul\":13771:13774   */\n      dup6\n        /* \"#utility.yul\":13767:13794   */\n      add\n        /* \"#utility.yul\":13818:13898   */\n      tag_515\n        /* \"#utility.yul\":13892:13897   */\n      dup6\n        /* \"#utility.yul\":13818:13898   */\n      tag_317\n      jump\t// in\n    tag_515:\n        /* \"#utility.yul\":13921:13928   */\n      dup1\n        /* \"#utility.yul\":13952:13953   */\n      0x00\n        /* \"#utility.yul\":13937:14375   */\n    tag_516:\n        /* \"#utility.yul\":13962:13968   */\n      dup6\n        /* \"#utility.yul\":13959:13960   */\n      dup2\n        /* \"#utility.yul\":13956:13969   */\n      lt\n        /* \"#utility.yul\":13937:14375   */\n      iszero\n      tag_518\n      jumpi\n        /* \"#utility.yul\":14033:14042   */\n      dup5\n        /* \"#utility.yul\":14027:14031   */\n      dup5\n        /* \"#utility.yul\":14023:14043   */\n      sub\n        /* \"#utility.yul\":14018:14021   */\n      dup10\n        /* \"#utility.yul\":14011:14044   */\n      mstore\n        /* \"#utility.yul\":14084:14090   */\n      dup2\n        /* \"#utility.yul\":14078:14091   */\n      mload\n        /* \"#utility.yul\":14112:14224   */\n      tag_519\n        /* \"#utility.yul\":14219:14223   */\n      dup6\n        /* \"#utility.yul\":14204:14217   */\n      dup3\n        /* \"#utility.yul\":14112:14224   */\n      tag_325\n      jump\t// in\n    tag_519:\n        /* \"#utility.yul\":14104:14224   */\n      swap5\n      pop\n        /* \"#utility.yul\":14247:14331   */\n      tag_520\n        /* \"#utility.yul\":14324:14330   */\n      dup4\n        /* \"#utility.yul\":14247:14331   */\n      tag_326\n      jump\t// in\n    tag_520:\n        /* \"#utility.yul\":14237:14331   */\n      swap3\n      pop\n        /* \"#utility.yul\":14360:14364   */\n      0x20\n        /* \"#utility.yul\":14355:14358   */\n      dup11\n        /* \"#utility.yul\":14351:14365   */\n      add\n        /* \"#utility.yul\":14344:14365   */\n      swap10\n      pop\n        /* \"#utility.yul\":13997:14375   */\n      pop\n        /* \"#utility.yul\":13984:13985   */\n      0x01\n        /* \"#utility.yul\":13981:13982   */\n      dup2\n        /* \"#utility.yul\":13977:13986   */\n      add\n        /* \"#utility.yul\":13972:13986   */\n      swap1\n      pop\n        /* \"#utility.yul\":13937:14375   */\n      jump(tag_516)\n    tag_518:\n        /* \"#utility.yul\":13941:13955   */\n      pop\n        /* \"#utility.yul\":14391:14395   */\n      dup3\n        /* \"#utility.yul\":14384:14395   */\n      swap8\n      pop\n        /* \"#utility.yul\":14411:14414   */\n      dup8\n        /* \"#utility.yul\":14404:14414   */\n      swap6\n      pop\n        /* \"#utility.yul\":13489:14420   */\n      pop\n      pop\n      pop\n      pop\n      pop\n        /* \"#utility.yul\":13317:14420   */\n      swap3\n      swap2\n      pop\n      pop\n      jump\t// out\n        /* \"#utility.yul\":14426:14895   */\n    tag_79:\n        /* \"#utility.yul\":14617:14621   */\n      0x00\n        /* \"#utility.yul\":14655:14657   */\n      0x20\n        /* \"#utility.yul\":14644:14653   */\n      dup3\n        /* \"#utility.yul\":14640:14658   */\n      add\n        /* \"#utility.yul\":14632:14658   */\n      swap1\n      pop\n        /* \"#utility.yul\":14704:14713   */\n      dup2\n        /* \"#utility.yul\":14698:14702   */\n      dup2\n        /* \"#utility.yul\":14694:14714   */\n      sub\n        /* \"#utility.yul\":14690:14691   */\n      0x00\n        /* \"#utility.yul\":14679:14688   */\n      dup4\n        /* \"#utility.yul\":14675:14692   */\n      add\n        /* \"#utility.yul\":14668:14715   */\n      mstore\n        /* \"#utility.yul\":14732:14888   */\n      tag_522\n        /* \"#utility.yul\":14883:14887   */\n      dup2\n        /* \"#utility.yul\":14874:14880   */\n      dup5\n        /* \"#utility.yul\":14732:14888   */\n      tag_327\n      jump\t// in\n    tag_522:\n        /* \"#utility.yul\":14724:14888   */\n      swap1\n      pop\n        /* \"#utility.yul\":14426:14895   */\n      swap3\n      swap2\n      pop\n      pop\n      jump\t// out\n        /* \"#utility.yul\":14901:15070   */\n    tag_328:\n        /* \"#utility.yul\":14985:14996   */\n      0x00\n        /* \"#utility.yul\":15019:15025   */\n      dup3\n        /* \"#utility.yul\":15014:15017   */\n      dup3\n        /* \"#utility.yul\":15007:15026   */\n      mstore\n        /* \"#utility.yul\":15059:15063   */\n      0x20\n        /* \"#utility.yul\":15054:15057   */\n      dup3\n        /* \"#utility.yul\":15050:15064   */\n      add\n        /* \"#utility.yul\":15035:15064   */\n      swap1\n      pop\n        /* \"#utility.yul\":14901:15070   */\n      swap3\n      swap2\n      pop\n      pop\n      jump\t// out\n        /* \"#utility.yul\":15076:15249   */\n    tag_329:\n        /* \"#utility.yul\":15216:15241   */\n      0x77686974656c69737420697320757020746f2064617465000000000000000000\n        /* \"#utility.yul\":15212:15213   */\n      0x00\n        /* \"#utility.yul\":15204:15210   */\n      dup3\n        /* \"#utility.yul\":15200:15214   */\n      add\n        /* \"#utility.yul\":15193:15242   */\n      mstore\n        /* \"#utility.yul\":15076:15249   */\n      pop\n      jump\t// out\n        /* \"#utility.yul\":15255:15621   */\n    tag_330:\n        /* \"#utility.yul\":15397:15400   */\n      0x00\n        /* \"#utility.yul\":15418:15485   */\n      tag_526\n        /* \"#utility.yul\":15482:15484   */\n      0x17\n        /* \"#utility.yul\":15477:15480   */\n      dup4\n        /* \"#utility.yul\":15418:15485   */\n      tag_328\n      jump\t// in\n    tag_526:\n        /* \"#utility.yul\":15411:15485   */\n      swap2\n      pop\n        /* \"#utility.yul\":15494:15587   */\n      tag_527\n        /* \"#utility.yul\":15583:15586   */\n      dup3\n        /* \"#utility.yul\":15494:15587   */\n      tag_329\n      jump\t// in\n    tag_527:\n        /* \"#utility.yul\":15612:15614   */\n      0x20\n        /* \"#utility.yul\":15607:15610   */\n      dup3\n        /* \"#utility.yul\":15603:15615   */\n      add\n        /* \"#utility.yul\":15596:15615   */\n      swap1\n      pop\n        /* \"#utility.yul\":15255:15621   */\n      swap2\n      swap1\n      pop\n      jump\t// out\n        /* \"#utility.yul\":15627:16046   */\n    tag_86:\n        /* \"#utility.yul\":15793:15797   */\n      0x00\n        /* \"#utility.yul\":15831:15833   */\n      0x20\n        /* \"#utility.yul\":15820:15829   */\n      dup3\n        /* \"#utility.yul\":15816:15834   */\n      add\n        /* \"#utility.yul\":15808:15834   */\n      swap1\n      pop\n        /* \"#utility.yul\":15880:15889   */\n      dup2\n        /* \"#utility.yul\":15874:15878   */\n      dup2\n        /* \"#utility.yul\":15870:15890   */\n      sub\n        /* \"#utility.yul\":15866:15867   */\n      0x00\n        /* \"#utility.yul\":15855:15864   */\n      dup4\n        /* \"#utility.yul\":15851:15868   */\n      add\n        /* \"#utility.yul\":15844:15891   */\n      mstore\n        /* \"#utility.yul\":15908:16039   */\n      tag_529\n        /* \"#utility.yul\":16034:16038   */\n      dup2\n        /* \"#utility.yul\":15908:16039   */\n      tag_330\n      jump\t// in\n    tag_529:\n        /* \"#utility.yul\":15900:16039   */\n      swap1\n      pop\n        /* \"#utility.yul\":15627:16046   */\n      swap2\n      swap1\n      pop\n      jump\t// out\n        /* \"#utility.yul\":16052:16372   */\n    tag_88:\n        /* \"#utility.yul\":16167:16171   */\n      0x00\n        /* \"#utility.yul\":16205:16207   */\n      0x40\n        /* \"#utility.yul\":16194:16203   */\n      dup3\n        /* \"#utility.yul\":16190:16208   */\n      add\n        /* \"#utility.yul\":16182:16208   */\n      swap1\n      pop\n        /* \"#utility.yul\":16218:16289   */\n      tag_531\n        /* \"#utility.yul\":16286:16287   */\n      0x00\n        /* \"#utility.yul\":16275:16284   */\n      dup4\n        /* \"#utility.yul\":16271:16288   */\n      add\n        /* \"#utility.yul\":16262:16268   */\n      dup6\n        /* \"#utility.yul\":16218:16289   */\n      tag_307\n      jump\t// in\n    tag_531:\n        /* \"#utility.yul\":16299:16365   */\n      tag_532\n        /* \"#utility.yul\":16361:16363   */\n      0x20\n        /* \"#utility.yul\":16350:16359   */\n      dup4\n        /* \"#utility.yul\":16346:16364   */\n      add\n        /* \"#utility.yul\":16337:16343   */\n      dup5\n        /* \"#utility.yul\":16299:16365   */\n      tag_306\n      jump\t// in\n    tag_532:\n        /* \"#utility.yul\":16052:16372   */\n      swap4\n      swap3\n      pop\n      pop\n      pop\n      jump\t// out\n        /* \"#utility.yul\":16378:16558   */\n    tag_331:\n        /* \"#utility.yul\":16426:16503   */\n      0x4e487b7100000000000000000000000000000000000000000000000000000000\n        /* \"#utility.yul\":16423:16424   */\n      0x00\n        /* \"#utility.yul\":16416:16504   */\n      mstore\n        /* \"#utility.yul\":16523:16527   */\n      0x11\n        /* \"#utility.yul\":16520:16521   */\n      0x04\n        /* \"#utility.yul\":16513:16528   */\n      mstore\n        /* \"#utility.yul\":16547:16551   */\n      0x24\n        /* \"#utility.yul\":16544:16545   */\n      0x00\n        /* \"#utility.yul\":16537:16552   */\n      revert\n        /* \"#utility.yul\":16564:16797   */\n    tag_93:\n        /* \"#utility.yul\":16603:16606   */\n      0x00\n        /* \"#utility.yul\":16626:16650   */\n      tag_535\n        /* \"#utility.yul\":16644:16649   */\n      dup3\n        /* \"#utility.yul\":16626:16650   */\n      tag_294\n      jump\t// in\n    tag_535:\n        /* \"#utility.yul\":16617:16650   */\n      swap2\n      pop\n        /* \"#utility.yul\":16672:16738   */\n      0xffffffffffffffffffffffffffffffffffffffffffffffffffffffffffffffff\n        /* \"#utility.yul\":16665:16670   */\n      dup3\n        /* \"#utility.yul\":16662:16739   */\n      sub\n        /* \"#utility.yul\":16659:16762   */\n      tag_536\n      jumpi\n        /* \"#utility.yul\":16742:16760   */\n      tag_537\n      tag_331\n      jump\t// in\n    tag_537:\n        /* \"#utility.yul\":16659:16762   */\n    tag_536:\n        /* \"#utility.yul\":16789:16790   */\n      0x01\n        /* \"#utility.yul\":16782:16787   */\n      dup3\n        /* \"#utility.yul\":16778:16791   */\n      add\n        /* \"#utility.yul\":16771:16791   */\n      swap1\n      pop\n        /* \"#utility.yul\":16564:16797   */\n      swap2\n      swap1\n      pop\n      jump\t// out\n        /* \"#utility.yul\":16803:16921   */\n    tag_332:\n        /* \"#utility.yul\":16890:16914   */\n      tag_539\n        /* \"#utility.yul\":16908:16913   */\n      dup2\n        /* \"#utility.yul\":16890:16914   */\n      tag_294\n      jump\t// in\n    tag_539:\n        /* \"#utility.yul\":16885:16888   */\n      dup3\n        /* \"#utility.yul\":16878:16915   */\n      mstore\n        /* \"#utility.yul\":16803:16921   */\n      pop\n      pop\n      jump\t// out\n        /* \"#utility.yul\":16927:17149   */\n    tag_95:\n        /* \"#utility.yul\":17020:17024   */\n      0x00\n        /* \"#utility.yul\":17058:17060   */\n      0x20\n        /* \"#utility.yul\":17047:17056   */\n      dup3\n        /* \"#utility.yul\":17043:17061   */\n      add\n        /* \"#utility.yul\":17035:17061   */\n      swap1\n      pop\n        /* \"#utility.yul\":17071:17142   */\n      tag_541\n        /* \"#utility.yul\":17139:17140   */\n      0x00\n        /* \"#utility.yul\":17128:17137   */\n      dup4\n        /* \"#utility.yul\":17124:17141   */\n      add\n        /* \"#utility.yul\":17115:17121   */\n      dup5\n        /* \"#utility.yul\":17071:17142   */\n      tag_332\n      jump\t// in\n    tag_541:\n        /* \"#utility.yul\":16927:17149   */\n      swap3\n      swap2\n      pop\n      pop\n      jump\t// out\n        /* \"#utility.yul\":17155:17335   */\n    tag_99:\n        /* \"#utility.yul\":17203:17280   */\n      0x4e487b7100000000000000000000000000000000000000000000000000000000\n        /* \"#utility.yul\":17200:17201   */\n      0x00\n        /* \"#utility.yul\":17193:17281   */\n      mstore\n        /* \"#utility.yul\":17300:17304   */\n      0x21\n        /* \"#utility.yul\":17297:17298   */\n      0x04\n        /* \"#utility.yul\":17290:17305   */\n      mstore\n        /* \"#utility.yul\":17324:17328   */\n      0x24\n        /* \"#utility.yul\":17321:17322   */\n      0x00\n        /* \"#utility.yul\":17314:17329   */\n      revert\n        /* \"#utility.yul\":17341:17519   */\n    tag_333:\n        /* \"#utility.yul\":17481:17511   */\n      0x726567697374726174696f6e20646964206e6f74207374617274656400000000\n        /* \"#utility.yul\":17477:17478   */\n      0x00\n        /* \"#utility.yul\":17469:17475   */\n      dup3\n        /* \"#utility.yul\":17465:17479   */\n      add\n        /* \"#utility.yul\":17458:17512   */\n      mstore\n        /* \"#utility.yul\":17341:17519   */\n      pop\n      jump\t// out\n        /* \"#utility.yul\":17525:17891   */\n    tag_334:\n        /* \"#utility.yul\":17667:17670   */\n      0x00\n        /* \"#utility.yul\":17688:17755   */\n      tag_545\n        /* \"#utility.yul\":17752:17754   */\n      0x1c\n        /* \"#utility.yul\":17747:17750   */\n      dup4\n        /* \"#utility.yul\":17688:17755   */\n      tag_328\n      jump\t// in\n    tag_545:\n        /* \"#utility.yul\":17681:17755   */\n      swap2\n      pop\n        /* \"#utility.yul\":17764:17857   */\n      tag_546\n        /* \"#utility.yul\":17853:17856   */\n      dup3\n        /* \"#utility.yul\":17764:17857   */\n      tag_333\n      jump\t// in\n    tag_546:\n        /* \"#utility.yul\":17882:17884   */\n      0x20\n        /* \"#utility.yul\":17877:17880   */\n      dup3\n        /* \"#utility.yul\":17873:17885   */\n      add\n        /* \"#utility.yul\":17866:17885   */\n      swap1\n      pop\n        /* \"#utility.yul\":17525:17891   */\n      swap2\n      swap1\n      pop\n      jump\t// out\n        /* \"#utility.yul\":17897:18316   */\n    tag_104:\n        /* \"#utility.yul\":18063:18067   */\n      0x00\n        /* \"#utility.yul\":18101:18103   */\n      0x20\n        /* \"#utility.yul\":18090:18099   */\n      dup3\n        /* \"#utility.yul\":18086:18104   */\n      add\n        /* \"#utility.yul\":18078:18104   */\n      swap1\n      pop\n        /* \"#utility.yul\":18150:18159   */\n      dup2\n        /* \"#utility.yul\":18144:18148   */\n      dup2\n        /* \"#utility.yul\":18140:18160   */\n      sub\n        /* \"#utility.yul\":18136:18137   */\n      0x00\n        /* \"#utility.yul\":18125:18134   */\n      dup4\n        /* \"#utility.yul\":18121:18138   */\n      add\n        /* \"#utility.yul\":18114:18161   */\n      mstore\n        /* \"#utility.yul\":18178:18309   */\n      tag_548\n        /* \"#utility.yul\":18304:18308   */\n      dup2\n        /* \"#utility.yul\":18178:18309   */\n      tag_334\n      jump\t// in\n    tag_548:\n        /* \"#utility.yul\":18170:18309   */\n      swap1\n      pop\n        /* \"#utility.yul\":17897:18316   */\n      swap2\n      swap1\n      pop\n      jump\t// out\n        /* \"#utility.yul\":18322:18494   */\n    tag_335:\n        /* \"#utility.yul\":18462:18486   */\n      0x596f7520617265206e6f74207265676973746572656400000000000000000000\n        /* \"#utility.yul\":18458:18459   */\n      0x00\n        /* \"#utility.yul\":18450:18456   */\n      dup3\n        /* \"#utility.yul\":18446:18460   */\n      add\n        /* \"#utility.yul\":18439:18487   */\n      mstore\n        /* \"#utility.yul\":18322:18494   */\n      pop\n      jump\t// out\n        /* \"#utility.yul\":18500:18866   */\n    tag_336:\n        /* \"#utility.yul\":18642:18645   */\n      0x00\n        /* \"#utility.yul\":18663:18730   */\n      tag_551\n        /* \"#utility.yul\":18727:18729   */\n      0x16\n        /* \"#utility.yul\":18722:18725   */\n      dup4\n        /* \"#utility.yul\":18663:18730   */\n      tag_328\n      jump\t// in\n    tag_551:\n        /* \"#utility.yul\":18656:18730   */\n      swap2\n      pop\n        /* \"#utility.yul\":18739:18832   */\n      tag_552\n        /* \"#utility.yul\":18828:18831   */\n      dup3\n        /* \"#utility.yul\":18739:18832   */\n      tag_335\n      jump\t// in\n    tag_552:\n        /* \"#utility.yul\":18857:18859   */\n      0x20\n        /* \"#utility.yul\":18852:18855   */\n      dup3\n        /* \"#utility.yul\":18848:18860   */\n      add\n        /* \"#utility.yul\":18841:18860   */\n      swap1\n      pop\n        /* \"#utility.yul\":18500:18866   */\n      swap2\n      swap1\n      pop\n      jump\t// out\n        /* \"#utility.yul\":18872:19291   */\n    tag_107:\n        /* \"#utility.yul\":19038:19042   */\n      0x00\n        /* \"#utility.yul\":19076:19078   */\n      0x20\n        /* \"#utility.yul\":19065:19074   */\n      dup3\n        /* \"#utility.yul\":19061:19079   */\n      add\n        /* \"#utility.yul\":19053:19079   */\n      swap1\n      pop\n        /* \"#utility.yul\":19125:19134   */\n      dup2\n        /* \"#utility.yul\":19119:19123   */\n      dup2\n        /* \"#utility.yul\":19115:19135   */\n      sub\n        /* \"#utility.yul\":19111:19112   */\n      0x00\n        /* \"#utility.yul\":19100:19109   */\n      dup4\n        /* \"#utility.yul\":19096:19113   */\n      add\n        /* \"#utility.yul\":19089:19136   */\n      mstore\n        /* \"#utility.yul\":19153:19284   */\n      tag_554\n        /* \"#utility.yul\":19279:19283   */\n      dup2\n        /* \"#utility.yul\":19153:19284   */\n      tag_336\n      jump\t// in\n    tag_554:\n        /* \"#utility.yul\":19145:19284   */\n      swap1\n      pop\n        /* \"#utility.yul\":18872:19291   */\n      swap2\n      swap1\n      pop\n      jump\t// out\n        /* \"#utility.yul\":19297:19468   */\n    tag_337:\n        /* \"#utility.yul\":19437:19460   */\n      0x596f75206861766520616c726561647920766f74650000000000000000000000\n        /* \"#utility.yul\":19433:19434   */\n      0x00\n        /* \"#utility.yul\":19425:19431   */\n      dup3\n        /* \"#utility.yul\":19421:19435   */\n      add\n        /* \"#utility.yul\":19414:19461   */\n      mstore\n        /* \"#utility.yul\":19297:19468   */\n      pop\n      jump\t// out\n        /* \"#utility.yul\":19474:19840   */\n    tag_338:\n        /* \"#utility.yul\":19616:19619   */\n      0x00\n        /* \"#utility.yul\":19637:19704   */\n      tag_557\n        /* \"#utility.yul\":19701:19703   */\n      0x15\n        /* \"#utility.yul\":19696:19699   */\n      dup4\n        /* \"#utility.yul\":19637:19704   */\n      tag_328\n      jump\t// in\n    tag_557:\n        /* \"#utility.yul\":19630:19704   */\n      swap2\n      pop\n        /* \"#utility.yul\":19713:19806   */\n      tag_558\n        /* \"#utility.yul\":19802:19805   */\n      dup3\n        /* \"#utility.yul\":19713:19806   */\n      tag_337\n      jump\t// in\n    tag_558:\n        /* \"#utility.yul\":19831:19833   */\n      0x20\n        /* \"#utility.yul\":19826:19829   */\n      dup3\n        /* \"#utility.yul\":19822:19834   */\n      add\n        /* \"#utility.yul\":19815:19834   */\n      swap1\n      pop\n        /* \"#utility.yul\":19474:19840   */\n      swap2\n      swap1\n      pop\n      jump\t// out\n        /* \"#utility.yul\":19846:20265   */\n    tag_110:\n        /* \"#utility.yul\":20012:20016   */\n      0x00\n        /* \"#utility.yul\":20050:20052   */\n      0x20\n        /* \"#utility.yul\":20039:20048   */\n      dup3\n        /* \"#utility.yul\":20035:20053   */\n      add\n        /* \"#utility.yul\":20027:20053   */\n      swap1\n      pop\n        /* \"#utility.yul\":20099:20108   */\n      dup2\n        /* \"#utility.yul\":20093:20097   */\n      dup2\n        /* \"#utility.yul\":20089:20109   */\n      sub\n        /* \"#utility.yul\":20085:20086   */\n      0x00\n        /* \"#utility.yul\":20074:20083   */\n      dup4\n        /* \"#utility.yul\":20070:20087   */\n      add\n        /* \"#utility.yul\":20063:20110   */\n      mstore\n        /* \"#utility.yul\":20127:20258   */\n      tag_560\n        /* \"#utility.yul\":20253:20257   */\n      dup2\n        /* \"#utility.yul\":20127:20258   */\n      tag_338\n      jump\t// in\n    tag_560:\n        /* \"#utility.yul\":20119:20258   */\n      swap1\n      pop\n        /* \"#utility.yul\":19846:20265   */\n      swap2\n      swap1\n      pop\n      jump\t// out\n        /* \"#utility.yul\":20271:20451   */\n    tag_113:\n        /* \"#utility.yul\":20319:20396   */\n      0x4e487b7100000000000000000000000000000000000000000000000000000000\n        /* \"#utility.yul\":20316:20317   */\n      0x00\n        /* \"#utility.yul\":20309:20397   */\n      mstore\n        /* \"#utility.yul\":20416:20420   */\n      0x32\n        /* \"#utility.yul\":20413:20414   */\n      0x04\n        /* \"#utility.yul\":20406:20421   */\n      mstore\n        /* \"#utility.yul\":20440:20444   */\n      0x24\n        /* \"#utility.yul\":20437:20438   */\n      0x00\n        /* \"#utility.yul\":20430:20445   */\n      revert\n        /* \"#utility.yul\":20457:20899   */\n    tag_118:\n        /* \"#utility.yul\":20606:20610   */\n      0x00\n        /* \"#utility.yul\":20644:20646   */\n      0x60\n        /* \"#utility.yul\":20633:20642   */\n      dup3\n        /* \"#utility.yul\":20629:20647   */\n      add\n        /* \"#utility.yul\":20621:20647   */\n      swap1\n      pop\n        /* \"#utility.yul\":20657:20728   */\n      tag_563\n        /* \"#utility.yul\":20725:20726   */\n      0x00\n        /* \"#utility.yul\":20714:20723   */\n      dup4\n        /* \"#utility.yul\":20710:20727   */\n      add\n        /* \"#utility.yul\":20701:20707   */\n      dup7\n        /* \"#utility.yul\":20657:20728   */\n      tag_332\n      jump\t// in\n    tag_563:\n        /* \"#utility.yul\":20738:20810   */\n      tag_564\n        /* \"#utility.yul\":20806:20808   */\n      0x20\n        /* \"#utility.yul\":20795:20804   */\n      dup4\n        /* \"#utility.yul\":20791:20809   */\n      add\n        /* \"#utility.yul\":20782:20788   */\n      dup6\n        /* \"#utility.yul\":20738:20810   */\n      tag_307\n      jump\t// in\n    tag_564:\n        /* \"#utility.yul\":20820:20892   */\n      tag_565\n        /* \"#utility.yul\":20888:20890   */\n      0x40\n        /* \"#utility.yul\":20877:20886   */\n      dup4\n        /* \"#utility.yul\":20873:20891   */\n      add\n        /* \"#utility.yul\":20864:20870   */\n      dup5\n        /* \"#utility.yul\":20820:20892   */\n      tag_332\n      jump\t// in\n    tag_565:\n        /* \"#utility.yul\":20457:20899   */\n      swap5\n      swap4\n      pop\n      pop\n      pop\n      pop\n      jump\t// out\n        /* \"#utility.yul\":20905:21081   */\n    tag_339:\n        /* \"#utility.yul\":21045:21073   */\n      0x566f74696e672073657373696f6e206e6f742073746172746564000000000000\n        /* \"#utility.yul\":21041:21042   */\n      0x00\n        /* \"#utility.yul\":21033:21039   */\n      dup3\n        /* \"#utility.yul\":21029:21043   */\n      add\n        /* \"#utility.yul\":21022:21074   */\n      mstore\n        /* \"#utility.yul\":20905:21081   */\n      pop\n      jump\t// out\n        /* \"#utility.yul\":21087:21453   */\n    tag_340:\n        /* \"#utility.yul\":21229:21232   */\n      0x00\n        /* \"#utility.yul\":21250:21317   */\n      tag_568\n        /* \"#utility.yul\":21314:21316   */\n      0x1a\n        /* \"#utility.yul\":21309:21312   */\n      dup4\n        /* \"#utility.yul\":21250:21317   */\n      tag_328\n      jump\t// in\n    tag_568:\n        /* \"#utility.yul\":21243:21317   */\n      swap2\n      pop\n        /* \"#utility.yul\":21326:21419   */\n      tag_569\n        /* \"#utility.yul\":21415:21418   */\n      dup3\n        /* \"#utility.yul\":21326:21419   */\n      tag_339\n      jump\t// in\n    tag_569:\n        /* \"#utility.yul\":21444:21446   */\n      0x20\n        /* \"#utility.yul\":21439:21442   */\n      dup3\n        /* \"#utility.yul\":21435:21447   */\n      add\n        /* \"#utility.yul\":21428:21447   */\n      swap1\n      pop\n        /* \"#utility.yul\":21087:21453   */\n      swap2\n      swap1\n      pop\n      jump\t// out\n        /* \"#utility.yul\":21459:21878   */\n    tag_128:\n        /* \"#utility.yul\":21625:21629   */\n      0x00\n        /* \"#utility.yul\":21663:21665   */\n      0x20\n        /* \"#utility.yul\":21652:21661   */\n      dup3\n        /* \"#utility.yul\":21648:21666   */\n      add\n        /* \"#utility.yul\":21640:21666   */\n      swap1\n      pop\n        /* \"#utility.yul\":21712:21721   */\n      dup2\n        /* \"#utility.yul\":21706:21710   */\n      dup2\n        /* \"#utility.yul\":21702:21722   */\n      sub\n        /* \"#utility.yul\":21698:21699   */\n      0x00\n        /* \"#utility.yul\":21687:21696   */\n      dup4\n        /* \"#utility.yul\":21683:21700   */\n      add\n        /* \"#utility.yul\":21676:21723   */\n      mstore\n        /* \"#utility.yul\":21740:21871   */\n      tag_571\n        /* \"#utility.yul\":21866:21870   */\n      dup2\n        /* \"#utility.yul\":21740:21871   */\n      tag_340\n      jump\t// in\n    tag_571:\n        /* \"#utility.yul\":21732:21871   */\n      swap1\n      pop\n        /* \"#utility.yul\":21459:21878   */\n      swap2\n      swap1\n      pop\n      jump\t// out\n        /* \"#utility.yul\":21884:22058   */\n    tag_341:\n        /* \"#utility.yul\":22024:22050   */\n      0x6e6f20766f746573207765726520726567697374657265640000000000000000\n        /* \"#utility.yul\":22020:22021   */\n      0x00\n        /* \"#utility.yul\":22012:22018   */\n      dup3\n        /* \"#utility.yul\":22008:22022   */\n      add\n        /* \"#utility.yul\":22001:22051   */\n      mstore\n        /* \"#utility.yul\":21884:22058   */\n      pop\n      jump\t// out\n        /* \"#utility.yul\":22064:22430   */\n    tag_342:\n        /* \"#utility.yul\":22206:22209   */\n      0x00\n        /* \"#utility.yul\":22227:22294   */\n      tag_574\n        /* \"#utility.yul\":22291:22293   */\n      0x18\n        /* \"#utility.yul\":22286:22289   */\n      dup4\n        /* \"#utility.yul\":22227:22294   */\n      tag_328\n      jump\t// in\n    tag_574:\n        /* \"#utility.yul\":22220:22294   */\n      swap2\n      pop\n        /* \"#utility.yul\":22303:22396   */\n      tag_575\n        /* \"#utility.yul\":22392:22395   */\n      dup3\n        /* \"#utility.yul\":22303:22396   */\n      tag_341\n      jump\t// in\n    tag_575:\n        /* \"#utility.yul\":22421:22423   */\n      0x20\n        /* \"#utility.yul\":22416:22419   */\n      dup3\n        /* \"#utility.yul\":22412:22424   */\n      add\n        /* \"#utility.yul\":22405:22424   */\n      swap1\n      pop\n        /* \"#utility.yul\":22064:22430   */\n      swap2\n      swap1\n      pop\n      jump\t// out\n        /* \"#utility.yul\":22436:22855   */\n    tag_131:\n        /* \"#utility.yul\":22602:22606   */\n      0x00\n        /* \"#utility.yul\":22640:22642   */\n      0x20\n        /* \"#utility.yul\":22629:22638   */\n      dup3\n        /* \"#utility.yul\":22625:22643   */\n      add\n        /* \"#utility.yul\":22617:22643   */\n      swap1\n      pop\n        /* \"#utility.yul\":22689:22698   */\n      dup2\n        /* \"#utility.yul\":22683:22687   */\n      dup2\n        /* \"#utility.yul\":22679:22699   */\n      sub\n        /* \"#utility.yul\":22675:22676   */\n      0x00\n        /* \"#utility.yul\":22664:22673   */\n      dup4\n        /* \"#utility.yul\":22660:22677   */\n      add\n        /* \"#utility.yul\":22653:22700   */\n      mstore\n        /* \"#utility.yul\":22717:22848   */\n      tag_577\n        /* \"#utility.yul\":22843:22847   */\n      dup2\n        /* \"#utility.yul\":22717:22848   */\n      tag_342\n      jump\t// in\n    tag_577:\n        /* \"#utility.yul\":22709:22848   */\n      swap1\n      pop\n        /* \"#utility.yul\":22436:22855   */\n      swap2\n      swap1\n      pop\n      jump\t// out\n        /* \"#utility.yul\":22861:22983   */\n    tag_343:\n        /* \"#utility.yul\":22951:22952   */\n      0x06\n        /* \"#utility.yul\":22944:22949   */\n      dup2\n        /* \"#utility.yul\":22941:22953   */\n      lt\n        /* \"#utility.yul\":22931:22977   */\n      tag_579\n      jumpi\n        /* \"#utility.yul\":22957:22975   */\n      tag_580\n      tag_99\n      jump\t// in\n    tag_580:\n        /* \"#utility.yul\":22931:22977   */\n    tag_579:\n        /* \"#utility.yul\":22861:22983   */\n      pop\n      jump\t// out\n        /* \"#utility.yul\":22989:23134   */\n    tag_344:\n        /* \"#utility.yul\":23043:23050   */\n      0x00\n        /* \"#utility.yul\":23072:23077   */\n      dup2\n        /* \"#utility.yul\":23061:23077   */\n      swap1\n      pop\n        /* \"#utility.yul\":23078:23128   */\n      tag_582\n        /* \"#utility.yul\":23122:23127   */\n      dup3\n        /* \"#utility.yul\":23078:23128   */\n      tag_343\n      jump\t// in\n    tag_582:\n        /* \"#utility.yul\":22989:23134   */\n      swap2\n      swap1\n      pop\n      jump\t// out\n        /* \"#utility.yul\":23140:23285   */\n    tag_345:\n        /* \"#utility.yul\":23205:23214   */\n      0x00\n        /* \"#utility.yul\":23238:23279   */\n      tag_584\n        /* \"#utility.yul\":23273:23278   */\n      dup3\n        /* \"#utility.yul\":23238:23279   */\n      tag_344\n      jump\t// in\n    tag_584:\n        /* \"#utility.yul\":23225:23279   */\n      swap1\n      pop\n        /* \"#utility.yul\":23140:23285   */\n      swap2\n      swap1\n      pop\n      jump\t// out\n        /* \"#utility.yul\":23291:23452   */\n    tag_346:\n        /* \"#utility.yul\":23393:23445   */\n      tag_586\n        /* \"#utility.yul\":23439:23444   */\n      dup2\n        /* \"#utility.yul\":23393:23445   */\n      tag_345\n      jump\t// in\n    tag_586:\n        /* \"#utility.yul\":23388:23391   */\n      dup3\n        /* \"#utility.yul\":23381:23446   */\n      mstore\n        /* \"#utility.yul\":23291:23452   */\n      pop\n      pop\n      jump\t// out\n        /* \"#utility.yul\":23458:23960   */\n    tag_135:\n        /* \"#utility.yul\":23637:23641   */\n      0x00\n        /* \"#utility.yul\":23675:23677   */\n      0x60\n        /* \"#utility.yul\":23664:23673   */\n      dup3\n        /* \"#utility.yul\":23660:23678   */\n      add\n        /* \"#utility.yul\":23652:23678   */\n      swap1\n      pop\n        /* \"#utility.yul\":23688:23759   */\n      tag_588\n        /* \"#utility.yul\":23756:23757   */\n      0x00\n        /* \"#utility.yul\":23745:23754   */\n      dup4\n        /* \"#utility.yul\":23741:23758   */\n      add\n        /* \"#utility.yul\":23732:23738   */\n      dup7\n        /* \"#utility.yul\":23688:23759   */\n      tag_332\n      jump\t// in\n    tag_588:\n        /* \"#utility.yul\":23769:23856   */\n      tag_589\n        /* \"#utility.yul\":23852:23854   */\n      0x20\n        /* \"#utility.yul\":23841:23850   */\n      dup4\n        /* \"#utility.yul\":23837:23855   */\n      add\n        /* \"#utility.yul\":23828:23834   */\n      dup6\n        /* \"#utility.yul\":23769:23856   */\n      tag_346\n      jump\t// in\n    tag_589:\n        /* \"#utility.yul\":23866:23953   */\n      tag_590\n        /* \"#utility.yul\":23949:23951   */\n      0x40\n        /* \"#utility.yul\":23938:23947   */\n      dup4\n        /* \"#utility.yul\":23934:23952   */\n      add\n        /* \"#utility.yul\":23925:23931   */\n      dup5\n        /* \"#utility.yul\":23866:23953   */\n      tag_346\n      jump\t// in\n    tag_590:\n        /* \"#utility.yul\":23458:23960   */\n      swap5\n      swap4\n      pop\n      pop\n      pop\n      pop\n      jump\t// out\n        /* \"#utility.yul\":23966:24146   */\n    tag_347:\n        /* \"#utility.yul\":24014:24091   */\n      0x4e487b7100000000000000000000000000000000000000000000000000000000\n        /* \"#utility.yul\":24011:24012   */\n      0x00\n        /* \"#utility.yul\":24004:24092   */\n      mstore\n        /* \"#utility.yul\":24111:24115   */\n      0x22\n        /* \"#utility.yul\":24108:24109   */\n      0x04\n        /* \"#utility.yul\":24101:24116   */\n      mstore\n        /* \"#utility.yul\":24135:24139   */\n      0x24\n        /* \"#utility.yul\":24132:24133   */\n      0x00\n        /* \"#utility.yul\":24125:24140   */\n      revert\n        /* \"#utility.yul\":24152:24472   */\n    tag_247:\n        /* \"#utility.yul\":24196:24202   */\n      0x00\n        /* \"#utility.yul\":24233:24234   */\n      0x02\n        /* \"#utility.yul\":24227:24231   */\n      dup3\n        /* \"#utility.yul\":24223:24235   */\n      div\n        /* \"#utility.yul\":24213:24235   */\n      swap1\n      pop\n        /* \"#utility.yul\":24280:24281   */\n      0x01\n        /* \"#utility.yul\":24274:24278   */\n      dup3\n        /* \"#utility.yul\":24270:24282   */\n      and\n        /* \"#utility.yul\":24301:24319   */\n      dup1\n        /* \"#utility.yul\":24291:24372   */\n      tag_593\n      jumpi\n        /* \"#utility.yul\":24357:24361   */\n      0x7f\n        /* \"#utility.yul\":24349:24355   */\n      dup3\n        /* \"#utility.yul\":24345:24362   */\n      and\n        /* \"#utility.yul\":24335:24362   */\n      swap2\n      pop\n        /* \"#utility.yul\":24291:24372   */\n    tag_593:\n        /* \"#utility.yul\":24419:24421   */\n      0x20\n        /* \"#utility.yul\":24411:24417   */\n      dup3\n        /* \"#utility.yul\":24408:24422   */\n      lt\n        /* \"#utility.yul\":24388:24406   */\n      dup2\n        /* \"#utility.yul\":24385:24423   */\n      sub\n        /* \"#utility.yul\":24382:24466   */\n      tag_594\n      jumpi\n        /* \"#utility.yul\":24438:24456   */\n      tag_595\n      tag_347\n      jump\t// in\n    tag_595:\n        /* \"#utility.yul\":24382:24466   */\n    tag_594:\n        /* \"#utility.yul\":24203:24472   */\n      pop\n        /* \"#utility.yul\":24152:24472   */\n      swap2\n      swap1\n      pop\n      jump\t// out\n        /* \"#utility.yul\":24478:24619   */\n    tag_348:\n        /* \"#utility.yul\":24527:24531   */\n      0x00\n        /* \"#utility.yul\":24550:24553   */\n      dup2\n        /* \"#utility.yul\":24542:24553   */\n      swap1\n      pop\n        /* \"#utility.yul\":24573:24576   */\n      dup2\n        /* \"#utility.yul\":24570:24571   */\n      0x00\n        /* \"#utility.yul\":24563:24577   */\n      mstore\n        /* \"#utility.yul\":24607:24611   */\n      0x20\n        /* \"#utility.yul\":24604:24605   */\n      0x00\n        /* \"#utility.yul\":24594:24612   */\n      keccak256\n        /* \"#utility.yul\":24586:24612   */\n      swap1\n      pop\n        /* \"#utility.yul\":24478:24619   */\n      swap2\n      swap1\n      pop\n      jump\t// out\n        /* \"#utility.yul\":24625:24718   */\n    tag_349:\n        /* \"#utility.yul\":24662:24668   */\n      0x00\n        /* \"#utility.yul\":24709:24711   */\n      0x20\n        /* \"#utility.yul\":24704:24706   */\n      0x1f\n        /* \"#utility.yul\":24697:24702   */\n      dup4\n        /* \"#utility.yul\":24693:24707   */\n      add\n        /* \"#utility.yul\":24689:24712   */\n      div\n        /* \"#utility.yul\":24679:24712   */\n      swap1\n      pop\n        /* \"#utility.yul\":24625:24718   */\n      swap2\n      swap1\n      pop\n      jump\t// out\n        /* \"#utility.yul\":24724:24831   */\n    tag_350:\n        /* \"#utility.yul\":24768:24776   */\n      0x00\n        /* \"#utility.yul\":24818:24823   */\n      dup3\n        /* \"#utility.yul\":24812:24816   */\n      dup3\n        /* \"#utility.yul\":24808:24824   */\n      shl\n        /* \"#utility.yul\":24787:24824   */\n      swap1\n      pop\n        /* \"#utility.yul\":24724:24831   */\n      swap3\n      swap2\n      pop\n      pop\n      jump\t// out\n        /* \"#utility.yul\":24837:25230   */\n    tag_351:\n        /* \"#utility.yul\":24906:24912   */\n      0x00\n        /* \"#utility.yul\":24956:24957   */\n      0x08\n        /* \"#utility.yul\":24944:24954   */\n      dup4\n        /* \"#utility.yul\":24940:24958   */\n      mul\n        /* \"#utility.yul\":24979:25076   */\n      tag_600\n        /* \"#utility.yul\":25009:25075   */\n      0xffffffffffffffffffffffffffffffffffffffffffffffffffffffffffffffff\n        /* \"#utility.yul\":24998:25007   */\n      dup3\n        /* \"#utility.yul\":24979:25076   */\n      tag_350\n      jump\t// in\n    tag_600:\n        /* \"#utility.yul\":25097:25136   */\n      tag_601\n        /* \"#utility.yul\":25127:25135   */\n      dup7\n        /* \"#utility.yul\":25116:25125   */\n      dup4\n        /* \"#utility.yul\":25097:25136   */\n      tag_350\n      jump\t// in\n    tag_601:\n        /* \"#utility.yul\":25085:25136   */\n      swap6\n      pop\n        /* \"#utility.yul\":25169:25173   */\n      dup1\n        /* \"#utility.yul\":25165:25174   */\n      not\n        /* \"#utility.yul\":25158:25163   */\n      dup5\n        /* \"#utility.yul\":25154:25175   */\n      and\n        /* \"#utility.yul\":25145:25175   */\n      swap4\n      pop\n        /* \"#utility.yul\":25218:25222   */\n      dup1\n        /* \"#utility.yul\":25208:25216   */\n      dup7\n        /* \"#utility.yul\":25204:25223   */\n      and\n        /* \"#utility.yul\":25197:25202   */\n      dup5\n        /* \"#utility.yul\":25194:25224   */\n      or\n        /* \"#utility.yul\":25184:25224   */\n      swap3\n      pop\n        /* \"#utility.yul\":24913:25230   */\n      pop\n      pop\n        /* \"#utility.yul\":24837:25230   */\n      swap4\n      swap3\n      pop\n      pop\n      pop\n      jump\t// out\n        /* \"#utility.yul\":25236:25296   */\n    tag_352:\n        /* \"#utility.yul\":25264:25267   */\n      0x00\n        /* \"#utility.yul\":25285:25290   */\n      dup2\n        /* \"#utility.yul\":25278:25290   */\n      swap1\n      pop\n        /* \"#utility.yul\":25236:25296   */\n      swap2\n      swap1\n      pop\n      jump\t// out\n        /* \"#utility.yul\":25302:25444   */\n    tag_353:\n        /* \"#utility.yul\":25352:25361   */\n      0x00\n        /* \"#utility.yul\":25385:25438   */\n      tag_604\n        /* \"#utility.yul\":25403:25437   */\n      tag_605\n        /* \"#utility.yul\":25412:25436   */\n      tag_606\n        /* \"#utility.yul\":25430:25435   */\n      dup5\n        /* \"#utility.yul\":25412:25436   */\n      tag_294\n      jump\t// in\n    tag_606:\n        /* \"#utility.yul\":25403:25437   */\n      tag_352\n      jump\t// in\n    tag_605:\n        /* \"#utility.yul\":25385:25438   */\n      tag_294\n      jump\t// in\n    tag_604:\n        /* \"#utility.yul\":25372:25438   */\n      swap1\n      pop\n        /* \"#utility.yul\":25302:25444   */\n      swap2\n      swap1\n      pop\n      jump\t// out\n        /* \"#utility.yul\":25450:25525   */\n    tag_354:\n        /* \"#utility.yul\":25493:25496   */\n      0x00\n        /* \"#utility.yul\":25514:25519   */\n      dup2\n        /* \"#utility.yul\":25507:25519   */\n      swap1\n      pop\n        /* \"#utility.yul\":25450:25525   */\n      swap2\n      swap1\n      pop\n      jump\t// out\n        /* \"#utility.yul\":25531:25800   */\n    tag_355:\n        /* \"#utility.yul\":25641:25680   */\n      tag_609\n        /* \"#utility.yul\":25672:25679   */\n      dup4\n        /* \"#utility.yul\":25641:25680   */\n      tag_353\n      jump\t// in\n    tag_609:\n        /* \"#utility.yul\":25702:25793   */\n      tag_610\n        /* \"#utility.yul\":25751:25792   */\n      tag_611\n        /* \"#utility.yul\":25775:25791   */\n      dup3\n        /* \"#utility.yul\":25751:25792   */\n      tag_354\n      jump\t// in\n    tag_611:\n        /* \"#utility.yul\":25743:25749   */\n      dup5\n        /* \"#utility.yul\":25736:25740   */\n      dup5\n        /* \"#utility.yul\":25730:25741   */\n      sload\n        /* \"#utility.yul\":25702:25793   */\n      tag_351\n      jump\t// in\n    tag_610:\n        /* \"#utility.yul\":25696:25700   */\n      dup3\n        /* \"#utility.yul\":25689:25794   */\n      sstore\n        /* \"#utility.yul\":25607:25800   */\n      pop\n        /* \"#utility.yul\":25531:25800   */\n      pop\n      pop\n      pop\n      jump\t// out\n        /* \"#utility.yul\":25806:25879   */\n    tag_356:\n        /* \"#utility.yul\":25851:25854   */\n      0x00\n        /* \"#utility.yul\":25872:25873   */\n      0x00\n        /* \"#utility.yul\":25865:25873   */\n      swap1\n      pop\n        /* \"#utility.yul\":25806:25879   */\n      swap1\n      jump\t// out\n        /* \"#utility.yul\":25885:26074   */\n    tag_357:\n        /* \"#utility.yul\":25962:25994   */\n      tag_614\n      tag_356\n      jump\t// in\n    tag_614:\n        /* \"#utility.yul\":26003:26068   */\n      tag_615\n        /* \"#utility.yul\":26061:26067   */\n      dup2\n        /* \"#utility.yul\":26053:26059   */\n      dup5\n        /* \"#utility.yul\":26047:26051   */\n      dup5\n        /* \"#utility.yul\":26003:26068   */\n      tag_355\n      jump\t// in\n    tag_615:\n        /* \"#utility.yul\":25938:26074   */\n      pop\n        /* \"#utility.yul\":25885:26074   */\n      pop\n      pop\n      jump\t// out\n        /* \"#utility.yul\":26080:26266   */\n    tag_358:\n        /* \"#utility.yul\":26140:26260   */\n    tag_617:\n        /* \"#utility.yul\":26157:26160   */\n      dup2\n        /* \"#utility.yul\":26150:26155   */\n      dup2\n        /* \"#utility.yul\":26147:26161   */\n      lt\n        /* \"#utility.yul\":26140:26260   */\n      iszero\n      tag_619\n      jumpi\n        /* \"#utility.yul\":26211:26250   */\n      tag_620\n        /* \"#utility.yul\":26248:26249   */\n      0x00\n        /* \"#utility.yul\":26241:26246   */\n      dup3\n        /* \"#utility.yul\":26211:26250   */\n      tag_357\n      jump\t// in\n    tag_620:\n        /* \"#utility.yul\":26184:26185   */\n      0x01\n        /* \"#utility.yul\":26177:26182   */\n      dup2\n        /* \"#utility.yul\":26173:26186   */\n      add\n        /* \"#utility.yul\":26164:26186   */\n      swap1\n      pop\n        /* \"#utility.yul\":26140:26260   */\n      jump(tag_617)\n    tag_619:\n        /* \"#utility.yul\":26080:26266   */\n      pop\n      pop\n      jump\t// out\n        /* \"#utility.yul\":26272:26815   */\n    tag_359:\n        /* \"#utility.yul\":26373:26375   */\n      0x1f\n        /* \"#utility.yul\":26368:26371   */\n      dup3\n        /* \"#utility.yul\":26365:26376   */\n      gt\n        /* \"#utility.yul\":26362:26808   */\n      iszero\n      tag_622\n      jumpi\n        /* \"#utility.yul\":26407:26445   */\n      tag_623\n        /* \"#utility.yul\":26439:26444   */\n      dup2\n        /* \"#utility.yul\":26407:26445   */\n      tag_348\n      jump\t// in\n    tag_623:\n        /* \"#utility.yul\":26491:26520   */\n      tag_624\n        /* \"#utility.yul\":26509:26519   */\n      dup5\n        /* \"#utility.yul\":26491:26520   */\n      tag_349\n      jump\t// in\n    tag_624:\n        /* \"#utility.yul\":26481:26489   */\n      dup2\n        /* \"#utility.yul\":26477:26521   */\n      add\n        /* \"#utility.yul\":26674:26676   */\n      0x20\n        /* \"#utility.yul\":26662:26672   */\n      dup6\n        /* \"#utility.yul\":26659:26677   */\n      lt\n        /* \"#utility.yul\":26656:26705   */\n      iszero\n      tag_625\n      jumpi\n        /* \"#utility.yul\":26695:26703   */\n      dup2\n        /* \"#utility.yul\":26680:26703   */\n      swap1\n      pop\n        /* \"#utility.yul\":26656:26705   */\n    tag_625:\n        /* \"#utility.yul\":26718:26798   */\n      tag_626\n        /* \"#utility.yul\":26774:26796   */\n      tag_627\n        /* \"#utility.yul\":26792:26795   */\n      dup6\n        /* \"#utility.yul\":26774:26796   */\n      tag_349\n      jump\t// in\n    tag_627:\n        /* \"#utility.yul\":26764:26772   */\n      dup4\n        /* \"#utility.yul\":26760:26797   */\n      add\n        /* \"#utility.yul\":26747:26758   */\n      dup3\n        /* \"#utility.yul\":26718:26798   */\n      tag_358\n      jump\t// in\n    tag_626:\n        /* \"#utility.yul\":26377:26808   */\n      pop\n      pop\n        /* \"#utility.yul\":26362:26808   */\n    tag_622:\n        /* \"#utility.yul\":26272:26815   */\n      pop\n      pop\n      pop\n      jump\t// out\n        /* \"#utility.yul\":26821:26938   */\n    tag_360:\n        /* \"#utility.yul\":26875:26883   */\n      0x00\n        /* \"#utility.yul\":26925:26930   */\n      dup3\n        /* \"#utility.yul\":26919:26923   */\n      dup3\n        /* \"#utility.yul\":26915:26931   */\n      shr\n        /* \"#utility.yul\":26894:26931   */\n      swap1\n      pop\n        /* \"#utility.yul\":26821:26938   */\n      swap3\n      swap2\n      pop\n      pop\n      jump\t// out\n        /* \"#utility.yul\":26944:27113   */\n    tag_361:\n        /* \"#utility.yul\":26988:26994   */\n      0x00\n        /* \"#utility.yul\":27021:27072   */\n      tag_630\n        /* \"#utility.yul\":27069:27070   */\n      0x00\n        /* \"#utility.yul\":27065:27071   */\n      not\n        /* \"#utility.yul\":27057:27062   */\n      dup5\n        /* \"#utility.yul\":27054:27055   */\n      0x08\n        /* \"#utility.yul\":27050:27063   */\n      mul\n        /* \"#utility.yul\":27021:27072   */\n      tag_360\n      jump\t// in\n    tag_630:\n        /* \"#utility.yul\":27017:27073   */\n      not\n        /* \"#utility.yul\":27102:27106   */\n      dup1\n        /* \"#utility.yul\":27096:27100   */\n      dup4\n        /* \"#utility.yul\":27092:27107   */\n      and\n        /* \"#utility.yul\":27082:27107   */\n      swap2\n      pop\n        /* \"#utility.yul\":26995:27113   */\n      pop\n        /* \"#utility.yul\":26944:27113   */\n      swap3\n      swap2\n      pop\n      pop\n      jump\t// out\n        /* \"#utility.yul\":27118:27413   */\n    tag_362:\n        /* \"#utility.yul\":27194:27198   */\n      0x00\n        /* \"#utility.yul\":27340:27369   */\n      tag_632\n        /* \"#utility.yul\":27365:27368   */\n      dup4\n        /* \"#utility.yul\":27359:27363   */\n      dup4\n        /* \"#utility.yul\":27340:27369   */\n      tag_361\n      jump\t// in\n    tag_632:\n        /* \"#utility.yul\":27332:27369   */\n      swap2\n      pop\n        /* \"#utility.yul\":27402:27405   */\n      dup3\n        /* \"#utility.yul\":27399:27400   */\n      0x02\n        /* \"#utility.yul\":27395:27406   */\n      mul\n        /* \"#utility.yul\":27389:27393   */\n      dup3\n        /* \"#utility.yul\":27386:27407   */\n      or\n        /* \"#utility.yul\":27378:27407   */\n      swap1\n      pop\n        /* \"#utility.yul\":27118:27413   */\n      swap3\n      swap2\n      pop\n      pop\n      jump\t// out\n        /* \"#utility.yul\":27418:28813   */\n    tag_147:\n        /* \"#utility.yul\":27535:27572   */\n      tag_634\n        /* \"#utility.yul\":27568:27571   */\n      dup3\n        /* \"#utility.yul\":27535:27572   */\n      tag_318\n      jump\t// in\n    tag_634:\n        /* \"#utility.yul\":27637:27655   */\n      0xffffffffffffffff\n        /* \"#utility.yul\":27629:27635   */\n      dup2\n        /* \"#utility.yul\":27626:27656   */\n      gt\n        /* \"#utility.yul\":27623:27679   */\n      iszero\n      tag_635\n      jumpi\n        /* \"#utility.yul\":27659:27677   */\n      tag_636\n      tag_231\n      jump\t// in\n    tag_636:\n        /* \"#utility.yul\":27623:27679   */\n    tag_635:\n        /* \"#utility.yul\":27703:27741   */\n      tag_637\n        /* \"#utility.yul\":27735:27739   */\n      dup3\n        /* \"#utility.yul\":27729:27740   */\n      sload\n        /* \"#utility.yul\":27703:27741   */\n      tag_247\n      jump\t// in\n    tag_637:\n        /* \"#utility.yul\":27788:27855   */\n      tag_638\n        /* \"#utility.yul\":27848:27854   */\n      dup3\n        /* \"#utility.yul\":27840:27846   */\n      dup3\n        /* \"#utility.yul\":27834:27838   */\n      dup6\n        /* \"#utility.yul\":27788:27855   */\n      tag_359\n      jump\t// in\n    tag_638:\n        /* \"#utility.yul\":27882:27883   */\n      0x00\n        /* \"#utility.yul\":27906:27910   */\n      0x20\n        /* \"#utility.yul\":27893:27910   */\n      swap1\n      pop\n        /* \"#utility.yul\":27938:27940   */\n      0x1f\n        /* \"#utility.yul\":27930:27936   */\n      dup4\n        /* \"#utility.yul\":27927:27941   */\n      gt\n        /* \"#utility.yul\":27955:27956   */\n      0x01\n        /* \"#utility.yul\":27950:28568   */\n      dup2\n      eq\n      tag_640\n      jumpi\n        /* \"#utility.yul\":28612:28613   */\n      0x00\n        /* \"#utility.yul\":28629:28635   */\n      dup5\n        /* \"#utility.yul\":28626:28703   */\n      iszero\n      tag_641\n      jumpi\n        /* \"#utility.yul\":28678:28687   */\n      dup3\n        /* \"#utility.yul\":28673:28676   */\n      dup8\n        /* \"#utility.yul\":28669:28688   */\n      add\n        /* \"#utility.yul\":28663:28689   */\n      mload\n        /* \"#utility.yul\":28654:28689   */\n      swap1\n      pop\n        /* \"#utility.yul\":28626:28703   */\n    tag_641:\n        /* \"#utility.yul\":28729:28796   */\n      tag_642\n        /* \"#utility.yul\":28789:28795   */\n      dup6\n        /* \"#utility.yul\":28782:28787   */\n      dup3\n        /* \"#utility.yul\":28729:28796   */\n      tag_362\n      jump\t// in\n    tag_642:\n        /* \"#utility.yul\":28723:28727   */\n      dup7\n        /* \"#utility.yul\":28716:28797   */\n      sstore\n        /* \"#utility.yul\":28585:28807   */\n      pop\n        /* \"#utility.yul\":27920:28807   */\n      jump(tag_639)\n        /* \"#utility.yul\":27950:28568   */\n    tag_640:\n        /* \"#utility.yul\":28002:28006   */\n      0x1f\n        /* \"#utility.yul\":27998:28007   */\n      not\n        /* \"#utility.yul\":27990:27996   */\n      dup5\n        /* \"#utility.yul\":27986:28008   */\n      and\n        /* \"#utility.yul\":28036:28073   */\n      tag_643\n        /* \"#utility.yul\":28068:28072   */\n      dup7\n        /* \"#utility.yul\":28036:28073   */\n      tag_348\n      jump\t// in\n    tag_643:\n        /* \"#utility.yul\":28095:28096   */\n      0x00\n        /* \"#utility.yul\":28109:28317   */\n    tag_644:\n        /* \"#utility.yul\":28123:28130   */\n      dup3\n        /* \"#utility.yul\":28120:28121   */\n      dup2\n        /* \"#utility.yul\":28117:28131   */\n      lt\n        /* \"#utility.yul\":28109:28317   */\n      iszero\n      tag_646\n      jumpi\n        /* \"#utility.yul\":28202:28211   */\n      dup5\n        /* \"#utility.yul\":28197:28200   */\n      dup10\n        /* \"#utility.yul\":28193:28212   */\n      add\n        /* \"#utility.yul\":28187:28213   */\n      mload\n        /* \"#utility.yul\":28179:28185   */\n      dup3\n        /* \"#utility.yul\":28172:28214   */\n      sstore\n        /* \"#utility.yul\":28253:28254   */\n      0x01\n        /* \"#utility.yul\":28245:28251   */\n      dup3\n        /* \"#utility.yul\":28241:28255   */\n      add\n        /* \"#utility.yul\":28231:28255   */\n      swap2\n      pop\n        /* \"#utility.yul\":28300:28302   */\n      0x20\n        /* \"#utility.yul\":28289:28298   */\n      dup6\n        /* \"#utility.yul\":28285:28303   */\n      add\n        /* \"#utility.yul\":28272:28303   */\n      swap5\n      pop\n        /* \"#utility.yul\":28146:28150   */\n      0x20\n        /* \"#utility.yul\":28143:28144   */\n      dup2\n        /* \"#utility.yul\":28139:28151   */\n      add\n        /* \"#utility.yul\":28134:28151   */\n      swap1\n      pop\n        /* \"#utility.yul\":28109:28317   */\n      jump(tag_644)\n    tag_646:\n        /* \"#utility.yul\":28345:28351   */\n      dup7\n        /* \"#utility.yul\":28336:28343   */\n      dup4\n        /* \"#utility.yul\":28333:28352   */\n      lt\n        /* \"#utility.yul\":28330:28509   */\n      iszero\n      tag_647\n      jumpi\n        /* \"#utility.yul\":28403:28412   */\n      dup5\n        /* \"#utility.yul\":28398:28401   */\n      dup10\n        /* \"#utility.yul\":28394:28413   */\n      add\n        /* \"#utility.yul\":28388:28414   */\n      mload\n        /* \"#utility.yul\":28446:28494   */\n      tag_648\n        /* \"#utility.yul\":28488:28492   */\n      0x1f\n        /* \"#utility.yul\":28480:28486   */\n      dup10\n        /* \"#utility.yul\":28476:28493   */\n      and\n        /* \"#utility.yul\":28465:28474   */\n      dup3\n        /* \"#utility.yul\":28446:28494   */\n      tag_361\n      jump\t// in\n    tag_648:\n        /* \"#utility.yul\":28438:28444   */\n      dup4\n        /* \"#utility.yul\":28431:28495   */\n      sstore\n        /* \"#utility.yul\":28353:28509   */\n      pop\n        /* \"#utility.yul\":28330:28509   */\n    tag_647:\n        /* \"#utility.yul\":28555:28556   */\n      0x01\n        /* \"#utility.yul\":28551:28552   */\n      0x02\n        /* \"#utility.yul\":28543:28549   */\n      dup9\n        /* \"#utility.yul\":28539:28553   */\n      mul\n        /* \"#utility.yul\":28535:28557   */\n      add\n        /* \"#utility.yul\":28529:28533   */\n      dup9\n        /* \"#utility.yul\":28522:28558   */\n      sstore\n        /* \"#utility.yul\":27957:28568   */\n      pop\n      pop\n      pop\n        /* \"#utility.yul\":27920:28807   */\n    tag_639:\n      pop\n        /* \"#utility.yul\":27510:28813   */\n      pop\n      pop\n      pop\n        /* \"#utility.yul\":27418:28813   */\n      pop\n      pop\n      jump\t// out\n        /* \"#utility.yul\":28819:29013   */\n    tag_149:\n        /* \"#utility.yul\":28859:28863   */\n      0x00\n        /* \"#utility.yul\":28879:28899   */\n      tag_650\n        /* \"#utility.yul\":28897:28898   */\n      dup3\n        /* \"#utility.yul\":28879:28899   */\n      tag_294\n      jump\t// in\n    tag_650:\n        /* \"#utility.yul\":28874:28899   */\n      swap2\n      pop\n        /* \"#utility.yul\":28913:28933   */\n      tag_651\n        /* \"#utility.yul\":28931:28932   */\n      dup4\n        /* \"#utility.yul\":28913:28933   */\n      tag_294\n      jump\t// in\n    tag_651:\n        /* \"#utility.yul\":28908:28933   */\n      swap3\n      pop\n        /* \"#utility.yul\":28957:28958   */\n      dup3\n        /* \"#utility.yul\":28954:28955   */\n      dup3\n        /* \"#utility.yul\":28950:28959   */\n      sub\n        /* \"#utility.yul\":28942:28959   */\n      swap1\n      pop\n        /* \"#utility.yul\":28981:28982   */\n      dup2\n        /* \"#utility.yul\":28975:28979   */\n      dup2\n        /* \"#utility.yul\":28972:28983   */\n      gt\n        /* \"#utility.yul\":28969:29006   */\n      iszero\n      tag_652\n      jumpi\n        /* \"#utility.yul\":28986:29004   */\n      tag_653\n      tag_331\n      jump\t// in\n    tag_653:\n        /* \"#utility.yul\":28969:29006   */\n    tag_652:\n        /* \"#utility.yul\":28819:29013   */\n      swap3\n      swap2\n      pop\n      pop\n      jump\t// out\n        /* \"#utility.yul\":29019:29351   */\n    tag_151:\n        /* \"#utility.yul\":29140:29144   */\n      0x00\n        /* \"#utility.yul\":29178:29180   */\n      0x40\n        /* \"#utility.yul\":29167:29176   */\n      dup3\n        /* \"#utility.yul\":29163:29181   */\n      add\n        /* \"#utility.yul\":29155:29181   */\n      swap1\n      pop\n        /* \"#utility.yul\":29191:29262   */\n      tag_655\n        /* \"#utility.yul\":29259:29260   */\n      0x00\n        /* \"#utility.yul\":29248:29257   */\n      dup4\n        /* \"#utility.yul\":29244:29261   */\n      add\n        /* \"#utility.yul\":29235:29241   */\n      dup6\n        /* \"#utility.yul\":29191:29262   */\n      tag_332\n      jump\t// in\n    tag_655:\n        /* \"#utility.yul\":29272:29344   */\n      tag_656\n        /* \"#utility.yul\":29340:29342   */\n      0x20\n        /* \"#utility.yul\":29329:29338   */\n      dup4\n        /* \"#utility.yul\":29325:29343   */\n      add\n        /* \"#utility.yul\":29316:29322   */\n      dup5\n        /* \"#utility.yul\":29272:29344   */\n      tag_332\n      jump\t// in\n    tag_656:\n        /* \"#utility.yul\":29019:29351   */\n      swap4\n      swap3\n      pop\n      pop\n      pop\n      jump\t// out\n        /* \"#utility.yul\":29357:29539   */\n    tag_363:\n        /* \"#utility.yul\":29497:29531   */\n      0x50726f706f73616c7320726567697374726174696f6e206e6f7420656e646564\n        /* \"#utility.yul\":29493:29494   */\n      0x00\n        /* \"#utility.yul\":29485:29491   */\n      dup3\n        /* \"#utility.yul\":29481:29495   */\n      add\n        /* \"#utility.yul\":29474:29532   */\n      mstore\n        /* \"#utility.yul\":29357:29539   */\n      pop\n      jump\t// out\n        /* \"#utility.yul\":29545:29911   */\n    tag_364:\n        /* \"#utility.yul\":29687:29690   */\n      0x00\n        /* \"#utility.yul\":29708:29775   */\n      tag_659\n        /* \"#utility.yul\":29772:29774   */\n      0x20\n        /* \"#utility.yul\":29767:29770   */\n      dup4\n        /* \"#utility.yul\":29708:29775   */\n      tag_328\n      jump\t// in\n    tag_659:\n        /* \"#utility.yul\":29701:29775   */\n      swap2\n      pop\n        /* \"#utility.yul\":29784:29877   */\n      tag_660\n        /* \"#utility.yul\":29873:29876   */\n      dup3\n        /* \"#utility.yul\":29784:29877   */\n      tag_363\n      jump\t// in\n    tag_660:\n        /* \"#utility.yul\":29902:29904   */\n      0x20\n        /* \"#utility.yul\":29897:29900   */\n      dup3\n        /* \"#utility.yul\":29893:29905   */\n      add\n        /* \"#utility.yul\":29886:29905   */\n      swap1\n      pop\n        /* \"#utility.yul\":29545:29911   */\n      swap2\n      swap1\n      pop\n      jump\t// out\n        /* \"#utility.yul\":29917:30336   */\n    tag_179:\n        /* \"#utility.yul\":30083:30087   */\n      0x00\n        /* \"#utility.yul\":30121:30123   */\n      0x20\n        /* \"#utility.yul\":30110:30119   */\n      dup3\n        /* \"#utility.yul\":30106:30124   */\n      add\n        /* \"#utility.yul\":30098:30124   */\n      swap1\n      pop\n        /* \"#utility.yul\":30170:30179   */\n      dup2\n        /* \"#utility.yul\":30164:30168   */\n      dup2\n        /* \"#utility.yul\":30160:30180   */\n      sub\n        /* \"#utility.yul\":30156:30157   */\n      0x00\n        /* \"#utility.yul\":30145:30154   */\n      dup4\n        /* \"#utility.yul\":30141:30158   */\n      add\n        /* \"#utility.yul\":30134:30181   */\n      mstore\n        /* \"#utility.yul\":30198:30329   */\n      tag_662\n        /* \"#utility.yul\":30324:30328   */\n      dup2\n        /* \"#utility.yul\":30198:30329   */\n      tag_364\n      jump\t// in\n    tag_662:\n        /* \"#utility.yul\":30190:30329   */\n      swap1\n      pop\n        /* \"#utility.yul\":29917:30336   */\n      swap2\n      swap1\n      pop\n      jump\t// out\n        /* \"#utility.yul\":30342:30563   */\n    tag_365:\n        /* \"#utility.yul\":30482:30516   */\n      0x50726f706f73616c7320726567697374726174696f6e206e6f74207374617274\n        /* \"#utility.yul\":30478:30479   */\n      0x00\n        /* \"#utility.yul\":30470:30476   */\n      dup3\n        /* \"#utility.yul\":30466:30480   */\n      add\n        /* \"#utility.yul\":30459:30517   */\n      mstore\n        /* \"#utility.yul\":30551:30555   */\n      0x6564000000000000000000000000000000000000000000000000000000000000\n        /* \"#utility.yul\":30546:30548   */\n      0x20\n        /* \"#utility.yul\":30538:30544   */\n      dup3\n        /* \"#utility.yul\":30534:30549   */\n      add\n        /* \"#utility.yul\":30527:30556   */\n      mstore\n        /* \"#utility.yul\":30342:30563   */\n      pop\n      jump\t// out\n        /* \"#utility.yul\":30569:30935   */\n    tag_366:\n        /* \"#utility.yul\":30711:30714   */\n      0x00\n        /* \"#utility.yul\":30732:30799   */\n      tag_665\n        /* \"#utility.yul\":30796:30798   */\n      0x22\n        /* \"#utility.yul\":30791:30794   */\n      dup4\n        /* \"#utility.yul\":30732:30799   */\n      tag_328\n      jump\t// in\n    tag_665:\n        /* \"#utility.yul\":30725:30799   */\n      swap2\n      pop\n        /* \"#utility.yul\":30808:30901   */\n      tag_666\n        /* \"#utility.yul\":30897:30900   */\n      dup3\n        /* \"#utility.yul\":30808:30901   */\n      tag_365\n      jump\t// in\n    tag_666:\n        /* \"#utility.yul\":30926:30928   */\n      0x40\n        /* \"#utility.yul\":30921:30924   */\n      dup3\n        /* \"#utility.yul\":30917:30929   */\n      add\n        /* \"#utility.yul\":30910:30929   */\n      swap1\n      pop\n        /* \"#utility.yul\":30569:30935   */\n      swap2\n      swap1\n      pop\n      jump\t// out\n        /* \"#utility.yul\":30941:31360   */\n    tag_204:\n        /* \"#utility.yul\":31107:31111   */\n      0x00\n        /* \"#utility.yul\":31145:31147   */\n      0x20\n        /* \"#utility.yul\":31134:31143   */\n      dup3\n        /* \"#utility.yul\":31130:31148   */\n      add\n        /* \"#utility.yul\":31122:31148   */\n      swap1\n      pop\n        /* \"#utility.yul\":31194:31203   */\n      dup2\n        /* \"#utility.yul\":31188:31192   */\n      dup2\n        /* \"#utility.yul\":31184:31204   */\n      sub\n        /* \"#utility.yul\":31180:31181   */\n      0x00\n        /* \"#utility.yul\":31169:31178   */\n      dup4\n        /* \"#utility.yul\":31165:31182   */\n      add\n        /* \"#utility.yul\":31158:31205   */\n      mstore\n        /* \"#utility.yul\":31222:31353   */\n      tag_668\n        /* \"#utility.yul\":31348:31352   */\n      dup2\n        /* \"#utility.yul\":31222:31353   */\n      tag_366\n      jump\t// in\n    tag_668:\n        /* \"#utility.yul\":31214:31353   */\n      swap1\n      pop\n        /* \"#utility.yul\":30941:31360   */\n      swap2\n      swap1\n      pop\n      jump\t// out\n        /* \"#utility.yul\":31366:31544   */\n    tag_367:\n        /* \"#utility.yul\":31506:31536   */\n      0x6e6f2070726f706f73616c732077657265207265676973746572656400000000\n        /* \"#utility.yul\":31502:31503   */\n      0x00\n        /* \"#utility.yul\":31494:31500   */\n      dup3\n        /* \"#utility.yul\":31490:31504   */\n      add\n        /* \"#utility.yul\":31483:31537   */\n      mstore\n        /* \"#utility.yul\":31366:31544   */\n      pop\n      jump\t// out\n        /* \"#utility.yul\":31550:31916   */\n    tag_368:\n        /* \"#utility.yul\":31692:31695   */\n      0x00\n        /* \"#utility.yul\":31713:31780   */\n      tag_671\n        /* \"#utility.yul\":31777:31779   */\n      0x1c\n        /* \"#utility.yul\":31772:31775   */\n      dup4\n        /* \"#utility.yul\":31713:31780   */\n      tag_328\n      jump\t// in\n    tag_671:\n        /* \"#utility.yul\":31706:31780   */\n      swap2\n      pop\n        /* \"#utility.yul\":31789:31882   */\n      tag_672\n        /* \"#utility.yul\":31878:31881   */\n      dup3\n        /* \"#utility.yul\":31789:31882   */\n      tag_367\n      jump\t// in\n    tag_672:\n        /* \"#utility.yul\":31907:31909   */\n      0x20\n        /* \"#utility.yul\":31902:31905   */\n      dup3\n        /* \"#utility.yul\":31898:31910   */\n      add\n        /* \"#utility.yul\":31891:31910   */\n      swap1\n      pop\n        /* \"#utility.yul\":31550:31916   */\n      swap2\n      swap1\n      pop\n      jump\t// out\n        /* \"#utility.yul\":31922:32341   */\n    tag_207:\n        /* \"#utility.yul\":32088:32092   */\n      0x00\n        /* \"#utility.yul\":32126:32128   */\n      0x20\n        /* \"#utility.yul\":32115:32124   */\n      dup3\n        /* \"#utility.yul\":32111:32129   */\n      add\n        /* \"#utility.yul\":32103:32129   */\n      swap1\n      pop\n        /* \"#utility.yul\":32175:32184   */\n      dup2\n        /* \"#utility.yul\":32169:32173   */\n      dup2\n        /* \"#utility.yul\":32165:32185   */\n      sub\n        /* \"#utility.yul\":32161:32162   */\n      0x00\n        /* \"#utility.yul\":32150:32159   */\n      dup4\n        /* \"#utility.yul\":32146:32163   */\n      add\n        /* \"#utility.yul\":32139:32186   */\n      mstore\n        /* \"#utility.yul\":32203:32334   */\n      tag_674\n        /* \"#utility.yul\":32329:32333   */\n      dup2\n        /* \"#utility.yul\":32203:32334   */\n      tag_368\n      jump\t// in\n    tag_674:\n        /* \"#utility.yul\":32195:32334   */\n      swap1\n      pop\n        /* \"#utility.yul\":31922:32341   */\n      swap2\n      swap1\n      pop\n      jump\t// out\n        /* \"#utility.yul\":32347:32523   */\n    tag_369:\n        /* \"#utility.yul\":32487:32515   */\n      0x566f74696e672073657373696f6e20646964206e6f7420656e64000000000000\n        /* \"#utility.yul\":32483:32484   */\n      0x00\n        /* \"#utility.yul\":32475:32481   */\n      dup3\n        /* \"#utility.yul\":32471:32485   */\n      add\n        /* \"#utility.yul\":32464:32516   */\n      mstore\n        /* \"#utility.yul\":32347:32523   */\n      pop\n      jump\t// out\n        /* \"#utility.yul\":32529:32895   */\n    tag_370:\n        /* \"#utility.yul\":32671:32674   */\n      0x00\n        /* \"#utility.yul\":32692:32759   */\n      tag_677\n        /* \"#utility.yul\":32756:32758   */\n      0x1a\n        /* \"#utility.yul\":32751:32754   */\n      dup4\n        /* \"#utility.yul\":32692:32759   */\n      tag_328\n      jump\t// in\n    tag_677:\n        /* \"#utility.yul\":32685:32759   */\n      swap2\n      pop\n        /* \"#utility.yul\":32768:32861   */\n      tag_678\n        /* \"#utility.yul\":32857:32860   */\n      dup3\n        /* \"#utility.yul\":32768:32861   */\n      tag_369\n      jump\t// in\n    tag_678:\n        /* \"#utility.yul\":32886:32888   */\n      0x20\n        /* \"#utility.yul\":32881:32884   */\n      dup3\n        /* \"#utility.yul\":32877:32889   */\n      add\n        /* \"#utility.yul\":32870:32889   */\n      swap1\n      pop\n        /* \"#utility.yul\":32529:32895   */\n      swap2\n      swap1\n      pop\n      jump\t// out\n        /* \"#utility.yul\":32901:33320   */\n    tag_220:\n        /* \"#utility.yul\":33067:33071   */\n      0x00\n        /* \"#utility.yul\":33105:33107   */\n      0x20\n        /* \"#utility.yul\":33094:33103   */\n      dup3\n        /* \"#utility.yul\":33090:33108   */\n      add\n        /* \"#utility.yul\":33082:33108   */\n      swap1\n      pop\n        /* \"#utility.yul\":33154:33163   */\n      dup2\n        /* \"#utility.yul\":33148:33152   */\n      dup2\n        /* \"#utility.yul\":33144:33164   */\n      sub\n        /* \"#utility.yul\":33140:33141   */\n      0x00\n        /* \"#utility.yul\":33129:33138   */\n      dup4\n        /* \"#utility.yul\":33125:33142   */\n      add\n        /* \"#utility.yul\":33118:33165   */\n      mstore\n        /* \"#utility.yul\":33182:33313   */\n      tag_680\n        /* \"#utility.yul\":33308:33312   */\n      dup2\n        /* \"#utility.yul\":33182:33313   */\n      tag_370\n      jump\t// in\n    tag_680:\n        /* \"#utility.yul\":33174:33313   */\n      swap1\n      pop\n        /* \"#utility.yul\":32901:33320   */\n      swap2\n      swap1\n      pop\n      jump\t// out\n\n    auxdata: 0xa2646970667358221220ea30cb28432e60c02a6822f0b623dad603b5d74578358d5dcd20396767276a6864736f6c634300081e0033\n}\n",
				"bytecode": {
					"linkReferences": {},
					"object": "608060405234801561000f575f5ffd5b50335f73ffffffffffffffffffffffffffffffffffffffff168173ffffffffffffffffffffffffffffffffffffffff1603610081575f6040517f1e4fbdf70000000000000000000000000000000000000000000000000000000081526004016100789190610196565b60405180910390fd5b6100908161009660201b60201c565b506101af565b5f5f5f9054906101000a900473ffffffffffffffffffffffffffffffffffffffff169050815f5f6101000a81548173ffffffffffffffffffffffffffffffffffffffff021916908373ffffffffffffffffffffffffffffffffffffffff1602179055508173ffffffffffffffffffffffffffffffffffffffff168173ffffffffffffffffffffffffffffffffffffffff167f8be0079c531659141344cd1fd0a4f28419497f9722a3daafe3b4186f6b6457e060405160405180910390a35050565b5f73ffffffffffffffffffffffffffffffffffffffff82169050919050565b5f61018082610157565b9050919050565b61019081610176565b82525050565b5f6020820190506101a95f830184610187565b92915050565b6126ae806101bc5f395ff3fe608060405234801561000f575f5ffd5b50600436106100fe575f3560e01c80638da5cb5b11610095578063d1ff7eeb11610064578063d1ff7eeb14610258578063d6a10dcb14610274578063f2fde38b14610290578063f38d3af8146102ac576100fe565b80638da5cb5b146101d25780639980a55a146101f05780639b19251a1461020c578063b9ea5dee1461023c576100fe565b8063371820e9116100d1578063371820e9146101605780633af32abf1461017c578063715018a6146101ac5780638bc6a6dd146101b6576100fe565b80630d392cd9146101025780631cbf1b021461011e578063291e67771461012857806335bb3d3014610144575b5f5ffd5b61011c60048036038101906101179190611700565b6102dc565b005b610126610404565b005b610142600480360381019061013d9190611771565b61047f565b005b61015e600480360381019061015991906117af565b610713565b005b61017a60048036038101906101759190611916565b610859565b005b61019660048036038101906101919190611970565b610a82565b6040516101a391906119aa565b60405180910390f35b6101b4610ad4565b005b6101d060048036038101906101cb91906117af565b610ae7565b005b6101da610bae565b6040516101e791906119d2565b60405180910390f35b61020a600480360381019061020591906117af565b610bd5565b005b61022660048036038101906102219190611970565b610cd5565b60405161023391906119aa565b60405180910390f35b61025660048036038101906102519190611b52565b610cf2565b005b610272600480360381019061026d91906117af565b610e35565b005b61028e600480360381019061028991906117af565b610f7e565b005b6102aa60048036038101906102a59190611970565b6112fa565b005b6102c660048036038101906102c191906117af565b61137e565b6040516102d39190611d1f565b60405180910390f35b6102e46114dc565b80151560015f8473ffffffffffffffffffffffffffffffffffffffff1673ffffffffffffffffffffffffffffffffffffffff1681526020019081526020015f205f9054906101000a900460ff16151503610373576040517f08c379a000000000000000000000000000000000000000000000000000000000815260040161036a90611d99565b60405180910390fd5b8060015f8473ffffffffffffffffffffffffffffffffffffffff1673ffffffffffffffffffffffffffffffffffffffff1681526020019081526020015f205f6101000a81548160ff0219169083151502179055507ff93f9a76c1bf3444d22400a00cb9fe990e6abe9dbb333fda48859cfee864543d82826040516103f8929190611db7565b60405180910390a15050565b61040c6114dc565b60035f81548092919061041e90611e0b565b91905055505f60025f60035481526020019081526020015f209050600354815f01819055507f4b30851682903261bad80bb108cc1b7cdceda15ecc8cbab440ddc8988e102a856003546040516104749190611e61565b60405180910390a150565b5f60025f8481526020019081526020015f209050600360058111156104a7576104a6611e7a565b5b816001015f9054906101000a900460ff1660058111156104ca576104c9611e7a565b5b1461050a576040517f08c379a000000000000000000000000000000000000000000000000000000000815260040161050190611ef1565b60405180910390fd5b60015f3373ffffffffffffffffffffffffffffffffffffffff1673ffffffffffffffffffffffffffffffffffffffff1681526020019081526020015f205f9054906101000a900460ff16610593576040517f08c379a000000000000000000000000000000000000000000000000000000000815260040161058a90611f59565b60405180910390fd5b806005015f3373ffffffffffffffffffffffffffffffffffffffff1673ffffffffffffffffffffffffffffffffffffffff1681526020019081526020015f205f9054906101000a900460ff161561061f576040517f08c379a000000000000000000000000000000000000000000000000000000000815260040161061690611fc1565b60405180910390fd5b5f81600401838154811061063657610635611fdf565b5b905f5260205f2090600302019050806002015f81548092919061065890611e0b565b91905055506001826005015f3373ffffffffffffffffffffffffffffffffffffffff1673ffffffffffffffffffffffffffffffffffffffff1681526020019081526020015f205f6101000a81548160ff0219169083151502179055508160030154816002015411156106d257806002015482600301819055505b7f1abe610cf2bf87e57dcc1181fcf5ac0934e843d8344ab9eed6e86c799f62585e8433856040516107059392919061200c565b60405180910390a150505050565b61071b6114dc565b5f60025f8381526020019081526020015f2090506003600581111561074357610742611e7a565b5b816001015f9054906101000a900460ff16600581111561076657610765611e7a565b5b146107a6576040517f08c379a000000000000000000000000000000000000000000000000000000000815260040161079d9061208b565b60405180910390fd5b5f8160030154116107ec576040517f08c379a00000000000000000000000000000000000000000000000000000000081526004016107e3906120f3565b60405180910390fd5b6004816001015f6101000a81548160ff0219169083600581111561081357610812611e7a565b5b02179055507fb067099e10826978a3867510ad1e0dcf4ca5cef8e422fd8df2fc3d679167fe8d826003600460405161084d93929190612157565b60405180910390a15050565b5f60025f8481526020019081526020015f2090506001600581111561088157610880611e7a565b5b816001015f9054906101000a900460ff1660058111156108a4576108a3611e7a565b5b146108e4576040517f08c379a00000000000000000000000000000000000000000000000000000000081526004016108db90611ef1565b60405180910390fd5b60015f3373ffffffffffffffffffffffffffffffffffffffff1673ffffffffffffffffffffffffffffffffffffffff1681526020019081526020015f205f9054906101000a900460ff1661096d576040517f08c379a000000000000000000000000000000000000000000000000000000000815260040161096490611f59565b60405180910390fd5b8060040160405180606001604052808481526020013373ffffffffffffffffffffffffffffffffffffffff1681526020015f815250908060018154018082558091505060019003905f5260205f2090600302015f909190919091505f820151815f0190816109db9190612389565b506020820151816001015f6101000a81548173ffffffffffffffffffffffffffffffffffffffff021916908373ffffffffffffffffffffffffffffffffffffffff1602179055506040820151816002015550507fca195036d7c4d40b171ad51e9c891c830a0ad9a5e114b5b075cdf791317e300c815f015460018360040180549050610a679190612458565b604051610a7592919061248b565b60405180910390a1505050565b5f60015f8373ffffffffffffffffffffffffffffffffffffffff1673ffffffffffffffffffffffffffffffffffffffff1681526020019081526020015f205f9054906101000a900460ff169050919050565b610adc6114dc565b610ae55f611563565b565b610aef6114dc565b5f60025f8381526020019081526020015f2090505f6005811115610b1657610b15611e7a565b5b816001015f9054906101000a900460ff166005811115610b3957610b38611e7a565b5b14610b42575f5ffd5b6001816001015f6101000a81548160ff02191690836005811115610b6957610b68611e7a565b5b02179055507fb067099e10826978a3867510ad1e0dcf4ca5cef8e422fd8df2fc3d679167fe8d825f6001604051610ba293929190612157565b60405180910390a15050565b5f5f5f9054906101000a900473ffffffffffffffffffffffffffffffffffffffff16905090565b610bdd6114dc565b5f60025f8381526020019081526020015f20905060026005811115610c0557610c04611e7a565b5b816001015f9054906101000a900460ff166005811115610c2857610c27611e7a565b5b14610c68576040517f08c379a0000000000000000000000000000000000000000000000000000000008152600401610c5f906124fc565b60405180910390fd5b6003816001015f6101000a81548160ff02191690836005811115610c8f57610c8e611e7a565b5b02179055507fb067099e10826978a3867510ad1e0dcf4ca5cef8e422fd8df2fc3d679167fe8d8260026003604051610cc993929190612157565b60405180910390a15050565b6001602052805f5260405f205f915054906101000a900460ff1681565b610cfa6114dc565b60035f815480929190610d0c90611e0b565b91905055505f60025f60035481526020019081526020015f209050600354815f01819055505f5f90505b8251811015610df75781600401838281518110610d5657610d55611fdf565b5b6020026020010151908060018154018082558091505060019003905f5260205f2090600302015f909190919091505f820151815f019081610d979190612389565b506020820151816001015f6101000a81548173ffffffffffffffffffffffffffffffffffffffff021916908373ffffffffffffffffffffffffffffffffffffffff1602179055506040820151816002015550508080600101915050610d36565b507f4b30851682903261bad80bb108cc1b7cdceda15ecc8cbab440ddc8988e102a85600354604051610e299190611e61565b60405180910390a15050565b610e3d6114dc565b5f60025f8381526020019081526020015f20905060016005811115610e6557610e64611e7a565b5b816001015f9054906101000a900460ff166005811115610e8857610e87611e7a565b5b14610ec8576040517f08c379a0000000000000000000000000000000000000000000000000000000008152600401610ebf9061258a565b60405180910390fd5b5f816004018054905011610f11576040517f08c379a0000000000000000000000000000000000000000000000000000000008152600401610f08906125f2565b60405180910390fd5b6002816001015f6101000a81548160ff02191690836005811115610f3857610f37611e7a565b5b02179055507fb067099e10826978a3867510ad1e0dcf4ca5cef8e422fd8df2fc3d679167fe8d8260016002604051610f7293929190612157565b60405180910390a15050565b610f866114dc565b5f60025f8381526020019081526020015f20905060046005811115610fae57610fad611e7a565b5b816001015f9054906101000a900460ff166005811115610fd157610fd0611e7a565b5b14611011576040517f08c379a00000000000000000000000000000000000000000000000000000000081526004016110089061265a565b60405180910390fd5b5f8160040190505f5f5f90505b828054905081101561107357836003015483828154811061104257611041611fdf565b5b905f5260205f209060030201600201540361106657818061106290611e0b565b9250505b808060010191505061101e565b505f8167ffffffffffffffff81111561108f5761108e6117f2565b5b6040519080825280602002602001820160405280156110c857816020015b6110b561162b565b8152602001906001900390816110ad5790505b5090505f5f5f90505b84805490508110156112655785600301548582815481106110f5576110f4611fdf565b5b905f5260205f20906003020160020154036112585784818154811061111d5761111c611fdf565b5b905f5260205f2090600302016040518060600160405290815f82018054611143906121b9565b80601f016020809104026020016040519081016040528092919081815260200182805461116f906121b9565b80156111ba5780601f10611191576101008083540402835291602001916111ba565b820191905f5260205f20905b81548152906001019060200180831161119d57829003601f168201915b50505050508152602001600182015f9054906101000a900473ffffffffffffffffffffffffffffffffffffffff1673ffffffffffffffffffffffffffffffffffffffff1673ffffffffffffffffffffffffffffffffffffffff16815260200160028201548152505083838151811061123557611234611fdf565b5b6020026020010181905250808660020181905550818061125490611e0b565b9250505b80806001019150506110d1565b5060018251036112b1577fa02a80459fbab98547e0db2cfb6ef274e962836a412718bb60fb14f1e6382e578686600201546040516112a492919061248b565b60405180910390a16112f2565b6112ba82610cf2565b7f0f647fdccb52741a5ff3d2ef61826fc3fb196e30bf0a07a8a7d46e706d999d54866040516112e99190611e61565b60405180910390a15b505050505050565b6113026114dc565b5f73ffffffffffffffffffffffffffffffffffffffff168173ffffffffffffffffffffffffffffffffffffffff1603611372575f6040517f1e4fbdf700000000000000000000000000000000000000000000000000000000815260040161136991906119d2565b60405180910390fd5b61137b81611563565b50565b606060025f8381526020019081526020015f20600401805480602002602001604051908101604052809291908181526020015f905b828210156114d1578382905f5260205f2090600302016040518060600160405290815f820180546113e3906121b9565b80601f016020809104026020016040519081016040528092919081815260200182805461140f906121b9565b801561145a5780601f106114315761010080835404028352916020019161145a565b820191905f5260205f20905b81548152906001019060200180831161143d57829003601f168201915b50505050508152602001600182015f9054906101000a900473ffffffffffffffffffffffffffffffffffffffff1673ffffffffffffffffffffffffffffffffffffffff1673ffffffffffffffffffffffffffffffffffffffff168152602001600282015481525050815260200190600101906113b3565b505050509050919050565b6114e4611624565b73ffffffffffffffffffffffffffffffffffffffff16611502610bae565b73ffffffffffffffffffffffffffffffffffffffff161461156157611525611624565b6040517f118cdaa700000000000000000000000000000000000000000000000000000000815260040161155891906119d2565b60405180910390fd5b565b5f5f5f9054906101000a900473ffffffffffffffffffffffffffffffffffffffff169050815f5f6101000a81548173ffffffffffffffffffffffffffffffffffffffff021916908373ffffffffffffffffffffffffffffffffffffffff1602179055508173ffffffffffffffffffffffffffffffffffffffff168173ffffffffffffffffffffffffffffffffffffffff167f8be0079c531659141344cd1fd0a4f28419497f9722a3daafe3b4186f6b6457e060405160405180910390a35050565b5f33905090565b6040518060600160405280606081526020015f73ffffffffffffffffffffffffffffffffffffffff1681526020015f81525090565b5f604051905090565b5f5ffd5b5f5ffd5b5f73ffffffffffffffffffffffffffffffffffffffff82169050919050565b5f61169a82611671565b9050919050565b6116aa81611690565b81146116b4575f5ffd5b50565b5f813590506116c5816116a1565b92915050565b5f8115159050919050565b6116df816116cb565b81146116e9575f5ffd5b50565b5f813590506116fa816116d6565b92915050565b5f5f6040838503121561171657611715611669565b5b5f611723858286016116b7565b9250506020611734858286016116ec565b9150509250929050565b5f819050919050565b6117508161173e565b811461175a575f5ffd5b50565b5f8135905061176b81611747565b92915050565b5f5f6040838503121561178757611786611669565b5b5f6117948582860161175d565b92505060206117a58582860161175d565b9150509250929050565b5f602082840312156117c4576117c3611669565b5b5f6117d18482850161175d565b91505092915050565b5f5ffd5b5f5ffd5b5f601f19601f8301169050919050565b7f4e487b71000000000000000000000000000000000000000000000000000000005f52604160045260245ffd5b611828826117e2565b810181811067ffffffffffffffff82111715611847576118466117f2565b5b80604052505050565b5f611859611660565b9050611865828261181f565b919050565b5f67ffffffffffffffff821115611884576118836117f2565b5b61188d826117e2565b9050602081019050919050565b828183375f83830152505050565b5f6118ba6118b58461186a565b611850565b9050828152602081018484840111156118d6576118d56117de565b5b6118e184828561189a565b509392505050565b5f82601f8301126118fd576118fc6117da565b5b813561190d8482602086016118a8565b91505092915050565b5f5f6040838503121561192c5761192b611669565b5b5f6119398582860161175d565b925050602083013567ffffffffffffffff81111561195a5761195961166d565b5b611966858286016118e9565b9150509250929050565b5f6020828403121561198557611984611669565b5b5f611992848285016116b7565b91505092915050565b6119a4816116cb565b82525050565b5f6020820190506119bd5f83018461199b565b92915050565b6119cc81611690565b82525050565b5f6020820190506119e55f8301846119c3565b92915050565b5f67ffffffffffffffff821115611a0557611a046117f2565b5b602082029050602081019050919050565b5f5ffd5b5f5ffd5b5f5ffd5b5f60608284031215611a3757611a36611a1a565b5b611a416060611850565b90505f82013567ffffffffffffffff811115611a6057611a5f611a1e565b5b611a6c848285016118e9565b5f830152506020611a7f848285016116b7565b6020830152506040611a938482850161175d565b60408301525092915050565b5f611ab1611aac846119eb565b611850565b90508083825260208201905060208402830185811115611ad457611ad3611a16565b5b835b81811015611b1b57803567ffffffffffffffff811115611af957611af86117da565b5b808601611b068982611a22565b85526020850194505050602081019050611ad6565b5050509392505050565b5f82601f830112611b3957611b386117da565b5b8135611b49848260208601611a9f565b91505092915050565b5f60208284031215611b6757611b66611669565b5b5f82013567ffffffffffffffff811115611b8457611b8361166d565b5b611b9084828501611b25565b91505092915050565b5f81519050919050565b5f82825260208201905092915050565b5f819050602082019050919050565b5f81519050919050565b5f82825260208201905092915050565b8281835e5f83830152505050565b5f611bf482611bc2565b611bfe8185611bcc565b9350611c0e818560208601611bdc565b611c17816117e2565b840191505092915050565b611c2b81611690565b82525050565b611c3a8161173e565b82525050565b5f606083015f8301518482035f860152611c5a8282611bea565b9150506020830151611c6f6020860182611c22565b506040830151611c826040860182611c31565b508091505092915050565b5f611c988383611c40565b905092915050565b5f602082019050919050565b5f611cb682611b99565b611cc08185611ba3565b935083602082028501611cd285611bb3565b805f5b85811015611d0d5784840389528151611cee8582611c8d565b9450611cf983611ca0565b925060208a01995050600181019050611cd5565b50829750879550505050505092915050565b5f6020820190508181035f830152611d378184611cac565b905092915050565b5f82825260208201905092915050565b7f77686974656c69737420697320757020746f20646174650000000000000000005f82015250565b5f611d83601783611d3f565b9150611d8e82611d4f565b602082019050919050565b5f6020820190508181035f830152611db081611d77565b9050919050565b5f604082019050611dca5f8301856119c3565b611dd7602083018461199b565b9392505050565b7f4e487b71000000000000000000000000000000000000000000000000000000005f52601160045260245ffd5b5f611e158261173e565b91507fffffffffffffffffffffffffffffffffffffffffffffffffffffffffffffffff8203611e4757611e46611dde565b5b600182019050919050565b611e5b8161173e565b82525050565b5f602082019050611e745f830184611e52565b92915050565b7f4e487b71000000000000000000000000000000000000000000000000000000005f52602160045260245ffd5b7f726567697374726174696f6e20646964206e6f742073746172746564000000005f82015250565b5f611edb601c83611d3f565b9150611ee682611ea7565b602082019050919050565b5f6020820190508181035f830152611f0881611ecf565b9050919050565b7f596f7520617265206e6f742072656769737465726564000000000000000000005f82015250565b5f611f43601683611d3f565b9150611f4e82611f0f565b602082019050919050565b5f6020820190508181035f830152611f7081611f37565b9050919050565b7f596f75206861766520616c726561647920766f746500000000000000000000005f82015250565b5f611fab601583611d3f565b9150611fb682611f77565b602082019050919050565b5f6020820190508181035f830152611fd881611f9f565b9050919050565b7f4e487b71000000000000000000000000000000000000000000000000000000005f52603260045260245ffd5b5f60608201905061201f5f830186611e52565b61202c60208301856119c3565b6120396040830184611e52565b949350505050565b7f566f74696e672073657373696f6e206e6f7420737461727465640000000000005f82015250565b5f612075601a83611d3f565b915061208082612041565b602082019050919050565b5f6020820190508181035f8301526120a281612069565b9050919050565b7f6e6f20766f7465732077657265207265676973746572656400000000000000005f82015250565b5f6120dd601883611d3f565b91506120e8826120a9565b602082019050919050565b5f6020820190508181035f83015261210a816120d1565b9050919050565b6006811061212257612121611e7a565b5b50565b5f81905061213282612111565b919050565b5f61214182612125565b9050919050565b61215181612137565b82525050565b5f60608201905061216a5f830186611e52565b6121776020830185612148565b6121846040830184612148565b949350505050565b7f4e487b71000000000000000000000000000000000000000000000000000000005f52602260045260245ffd5b5f60028204905060018216806121d057607f821691505b6020821081036121e3576121e261218c565b5b50919050565b5f819050815f5260205f209050919050565b5f6020601f8301049050919050565b5f82821b905092915050565b5f600883026122457fffffffffffffffffffffffffffffffffffffffffffffffffffffffffffffffff8261220a565b61224f868361220a565b95508019841693508086168417925050509392505050565b5f819050919050565b5f61228a6122856122808461173e565b612267565b61173e565b9050919050565b5f819050919050565b6122a383612270565b6122b76122af82612291565b848454612216565b825550505050565b5f5f905090565b6122ce6122bf565b6122d981848461229a565b505050565b5b818110156122fc576122f15f826122c6565b6001810190506122df565b5050565b601f82111561234157612312816121e9565b61231b846121fb565b8101602085101561232a578190505b61233e612336856121fb565b8301826122de565b50505b505050565b5f82821c905092915050565b5f6123615f1984600802612346565b1980831691505092915050565b5f6123798383612352565b9150826002028217905092915050565b61239282611bc2565b67ffffffffffffffff8111156123ab576123aa6117f2565b5b6123b582546121b9565b6123c0828285612300565b5f60209050601f8311600181146123f1575f84156123df578287015190505b6123e9858261236e565b865550612450565b601f1984166123ff866121e9565b5f5b8281101561242657848901518255600182019150602085019450602081019050612401565b86831015612443578489015161243f601f891682612352565b8355505b6001600288020188555050505b505050505050565b5f6124628261173e565b915061246d8361173e565b925082820390508181111561248557612484611dde565b5b92915050565b5f60408201905061249e5f830185611e52565b6124ab6020830184611e52565b9392505050565b7f50726f706f73616c7320726567697374726174696f6e206e6f7420656e6465645f82015250565b5f6124e6602083611d3f565b91506124f1826124b2565b602082019050919050565b5f6020820190508181035f830152612513816124da565b9050919050565b7f50726f706f73616c7320726567697374726174696f6e206e6f742073746172745f8201527f6564000000000000000000000000000000000000000000000000000000000000602082015250565b5f612574602283611d3f565b915061257f8261251a565b604082019050919050565b5f6020820190508181035f8301526125a181612568565b9050919050565b7f6e6f2070726f706f73616c7320776572652072656769737465726564000000005f82015250565b5f6125dc601c83611d3f565b91506125e7826125a8565b602082019050919050565b5f6020820190508181035f830152612609816125d0565b9050919050565b7f566f74696e672073657373696f6e20646964206e6f7420656e640000000000005f82015250565b5f612644601a83611d3f565b915061264f82612610565b602082019050919050565b5f6020820190508181035f83015261267181612638565b905091905056fea2646970667358221220ea30cb28432e60c02a6822f0b623dad603b5d74578358d5dcd20396767276a6864736f6c634300081e0033",
					"opcodes": "PUSH1 0x80 PUSH1 0x40 MSTORE CALLVALUE DUP1 ISZERO PUSH2 0xF JUMPI PUSH0 PUSH0 REVERT JUMPDEST POP CALLER PUSH0 PUSH20 0xFFFFFFFFFFFFFFFFFFFFFFFFFFFFFFFFFFFFFFFF AND DUP2 PUSH20 0xFFFFFFFFFFFFFFFFFFFFFFFFFFFFFFFFFFFFFFFF AND SUB PUSH2 0x81 JUMPI PUSH0 PUSH1 0x40 MLOAD PUSH32 0x1E4FBDF700000000000000000000000000000000000000000000000000000000 DUP2 MSTORE PUSH1 0x4 ADD PUSH2 0x78 SWAP2 SWAP1 PUSH2 0x196 JUMP JUMPDEST PUSH1 0x40 MLOAD DUP1 SWAP2 SUB SWAP1 REVERT JUMPDEST PUSH2 0x90 DUP2 PUSH2 0x96 PUSH1 0x20 SHL PUSH1 0x20 SHR JUMP JUMPDEST POP PUSH2 0x1AF JUMP JUMPDEST PUSH0 PUSH0 PUSH0 SWAP1 SLOAD SWAP1 PUSH2 0x100 EXP SWAP1 DIV PUSH20 0xFFFFFFFFFFFFFFFFFFFFFFFFFFFFFFFFFFFFFFFF AND SWAP1 POP DUP2 PUSH0 PUSH0 PUSH2 0x100 EXP DUP2 SLOAD DUP2 PUSH20 0xFFFFFFFFFFFFFFFFFFFFFFFFFFFFFFFFFFFFFFFF MUL NOT AND SWAP1 DUP4 PUSH20 0xFFFFFFFFFFFFFFFFFFFFFFFFFFFFFFFFFFFFFFFF AND MUL OR SWAP1 SSTORE POP DUP2 PUSH20 0xFFFFFFFFFFFFFFFFFFFFFFFFFFFFFFFFFFFFFFFF AND DUP2 PUSH20 0xFFFFFFFFFFFFFFFFFFFFFFFFFFFFFFFFFFFFFFFF AND PUSH32 0x8BE0079C531659141344CD1FD0A4F28419497F9722A3DAAFE3B4186F6B6457E0 PUSH1 0x40 MLOAD PUSH1 0x40 MLOAD DUP1 SWAP2 SUB SWAP1 LOG3 POP POP JUMP JUMPDEST PUSH0 PUSH20 0xFFFFFFFFFFFFFFFFFFFFFFFFFFFFFFFFFFFFFFFF DUP3 AND SWAP1 POP SWAP2 SWAP1 POP JUMP JUMPDEST PUSH0 PUSH2 0x180 DUP3 PUSH2 0x157 JUMP JUMPDEST SWAP1 POP SWAP2 SWAP1 POP JUMP JUMPDEST PUSH2 0x190 DUP2 PUSH2 0x176 JUMP JUMPDEST DUP3 MSTORE POP POP JUMP JUMPDEST PUSH0 PUSH1 0x20 DUP3 ADD SWAP1 POP PUSH2 0x1A9 PUSH0 DUP4 ADD DUP5 PUSH2 0x187 JUMP JUMPDEST SWAP3 SWAP2 POP POP JUMP JUMPDEST PUSH2 0x26AE DUP1 PUSH2 0x1BC PUSH0 CODECOPY PUSH0 RETURN INVALID PUSH1 0x80 PUSH1 0x40 MSTORE CALLVALUE DUP1 ISZERO PUSH2 0xF JUMPI PUSH0 PUSH0 REVERT JUMPDEST POP PUSH1 0x4 CALLDATASIZE LT PUSH2 0xFE JUMPI PUSH0 CALLDATALOAD PUSH1 0xE0 SHR DUP1 PUSH4 0x8DA5CB5B GT PUSH2 0x95 JUMPI DUP1 PUSH4 0xD1FF7EEB GT PUSH2 0x64 JUMPI DUP1 PUSH4 0xD1FF7EEB EQ PUSH2 0x258 JUMPI DUP1 PUSH4 0xD6A10DCB EQ PUSH2 0x274 JUMPI DUP1 PUSH4 0xF2FDE38B EQ PUSH2 0x290 JUMPI DUP1 PUSH4 0xF38D3AF8 EQ PUSH2 0x2AC JUMPI PUSH2 0xFE JUMP JUMPDEST DUP1 PUSH4 0x8DA5CB5B EQ PUSH2 0x1D2 JUMPI DUP1 PUSH4 0x9980A55A EQ PUSH2 0x1F0 JUMPI DUP1 PUSH4 0x9B19251A EQ PUSH2 0x20C JUMPI DUP1 PUSH4 0xB9EA5DEE EQ PUSH2 0x23C JUMPI PUSH2 0xFE JUMP JUMPDEST DUP1 PUSH4 0x371820E9 GT PUSH2 0xD1 JUMPI DUP1 PUSH4 0x371820E9 EQ PUSH2 0x160 JUMPI DUP1 PUSH4 0x3AF32ABF EQ PUSH2 0x17C JUMPI DUP1 PUSH4 0x715018A6 EQ PUSH2 0x1AC JUMPI DUP1 PUSH4 0x8BC6A6DD EQ PUSH2 0x1B6 JUMPI PUSH2 0xFE JUMP JUMPDEST DUP1 PUSH4 0xD392CD9 EQ PUSH2 0x102 JUMPI DUP1 PUSH4 0x1CBF1B02 EQ PUSH2 0x11E JUMPI DUP1 PUSH4 0x291E6777 EQ PUSH2 0x128 JUMPI DUP1 PUSH4 0x35BB3D30 EQ PUSH2 0x144 JUMPI JUMPDEST PUSH0 PUSH0 REVERT JUMPDEST PUSH2 0x11C PUSH1 0x4 DUP1 CALLDATASIZE SUB DUP2 ADD SWAP1 PUSH2 0x117 SWAP2 SWAP1 PUSH2 0x1700 JUMP JUMPDEST PUSH2 0x2DC JUMP JUMPDEST STOP JUMPDEST PUSH2 0x126 PUSH2 0x404 JUMP JUMPDEST STOP JUMPDEST PUSH2 0x142 PUSH1 0x4 DUP1 CALLDATASIZE SUB DUP2 ADD SWAP1 PUSH2 0x13D SWAP2 SWAP1 PUSH2 0x1771 JUMP JUMPDEST PUSH2 0x47F JUMP JUMPDEST STOP JUMPDEST PUSH2 0x15E PUSH1 0x4 DUP1 CALLDATASIZE SUB DUP2 ADD SWAP1 PUSH2 0x159 SWAP2 SWAP1 PUSH2 0x17AF JUMP JUMPDEST PUSH2 0x713 JUMP JUMPDEST STOP JUMPDEST PUSH2 0x17A PUSH1 0x4 DUP1 CALLDATASIZE SUB DUP2 ADD SWAP1 PUSH2 0x175 SWAP2 SWAP1 PUSH2 0x1916 JUMP JUMPDEST PUSH2 0x859 JUMP JUMPDEST STOP JUMPDEST PUSH2 0x196 PUSH1 0x4 DUP1 CALLDATASIZE SUB DUP2 ADD SWAP1 PUSH2 0x191 SWAP2 SWAP1 PUSH2 0x1970 JUMP JUMPDEST PUSH2 0xA82 JUMP JUMPDEST PUSH1 0x40 MLOAD PUSH2 0x1A3 SWAP2 SWAP1 PUSH2 0x19AA JUMP JUMPDEST PUSH1 0x40 MLOAD DUP1 SWAP2 SUB SWAP1 RETURN JUMPDEST PUSH2 0x1B4 PUSH2 0xAD4 JUMP JUMPDEST STOP JUMPDEST PUSH2 0x1D0 PUSH1 0x4 DUP1 CALLDATASIZE SUB DUP2 ADD SWAP1 PUSH2 0x1CB SWAP2 SWAP1 PUSH2 0x17AF JUMP JUMPDEST PUSH2 0xAE7 JUMP JUMPDEST STOP JUMPDEST PUSH2 0x1DA PUSH2 0xBAE JUMP JUMPDEST PUSH1 0x40 MLOAD PUSH2 0x1E7 SWAP2 SWAP1 PUSH2 0x19D2 JUMP JUMPDEST PUSH1 0x40 MLOAD DUP1 SWAP2 SUB SWAP1 RETURN JUMPDEST PUSH2 0x20A PUSH1 0x4 DUP1 CALLDATASIZE SUB DUP2 ADD SWAP1 PUSH2 0x205 SWAP2 SWAP1 PUSH2 0x17AF JUMP JUMPDEST PUSH2 0xBD5 JUMP JUMPDEST STOP JUMPDEST PUSH2 0x226 PUSH1 0x4 DUP1 CALLDATASIZE SUB DUP2 ADD SWAP1 PUSH2 0x221 SWAP2 SWAP1 PUSH2 0x1970 JUMP JUMPDEST PUSH2 0xCD5 JUMP JUMPDEST PUSH1 0x40 MLOAD PUSH2 0x233 SWAP2 SWAP1 PUSH2 0x19AA JUMP JUMPDEST PUSH1 0x40 MLOAD DUP1 SWAP2 SUB SWAP1 RETURN JUMPDEST PUSH2 0x256 PUSH1 0x4 DUP1 CALLDATASIZE SUB DUP2 ADD SWAP1 PUSH2 0x251 SWAP2 SWAP1 PUSH2 0x1B52 JUMP JUMPDEST PUSH2 0xCF2 JUMP JUMPDEST STOP JUMPDEST PUSH2 0x272 PUSH1 0x4 DUP1 CALLDATASIZE SUB DUP2 ADD SWAP1 PUSH2 0x26D SWAP2 SWAP1 PUSH2 0x17AF JUMP JUMPDEST PUSH2 0xE35 JUMP JUMPDEST STOP JUMPDEST PUSH2 0x28E PUSH1 0x4 DUP1 CALLDATASIZE SUB DUP2 ADD SWAP1 PUSH2 0x289 SWAP2 SWAP1 PUSH2 0x17AF JUMP JUMPDEST PUSH2 0xF7E JUMP JUMPDEST STOP JUMPDEST PUSH2 0x2AA PUSH1 0x4 DUP1 CALLDATASIZE SUB DUP2 ADD SWAP1 PUSH2 0x2A5 SWAP2 SWAP1 PUSH2 0x1970 JUMP JUMPDEST PUSH2 0x12FA JUMP JUMPDEST STOP JUMPDEST PUSH2 0x2C6 PUSH1 0x4 DUP1 CALLDATASIZE SUB DUP2 ADD SWAP1 PUSH2 0x2C1 SWAP2 SWAP1 PUSH2 0x17AF JUMP JUMPDEST PUSH2 0x137E JUMP JUMPDEST PUSH1 0x40 MLOAD PUSH2 0x2D3 SWAP2 SWAP1 PUSH2 0x1D1F JUMP JUMPDEST PUSH1 0x40 MLOAD DUP1 SWAP2 SUB SWAP1 RETURN JUMPDEST PUSH2 0x2E4 PUSH2 0x14DC JUMP JUMPDEST DUP1 ISZERO ISZERO PUSH1 0x1 PUSH0 DUP5 PUSH20 0xFFFFFFFFFFFFFFFFFFFFFFFFFFFFFFFFFFFFFFFF AND PUSH20 0xFFFFFFFFFFFFFFFFFFFFFFFFFFFFFFFFFFFFFFFF AND DUP2 MSTORE PUSH1 0x20 ADD SWAP1 DUP2 MSTORE PUSH1 0x20 ADD PUSH0 KECCAK256 PUSH0 SWAP1 SLOAD SWAP1 PUSH2 0x100 EXP SWAP1 DIV PUSH1 0xFF AND ISZERO ISZERO SUB PUSH2 0x373 JUMPI PUSH1 0x40 MLOAD PUSH32 0x8C379A000000000000000000000000000000000000000000000000000000000 DUP2 MSTORE PUSH1 0x4 ADD PUSH2 0x36A SWAP1 PUSH2 0x1D99 JUMP JUMPDEST PUSH1 0x40 MLOAD DUP1 SWAP2 SUB SWAP1 REVERT JUMPDEST DUP1 PUSH1 0x1 PUSH0 DUP5 PUSH20 0xFFFFFFFFFFFFFFFFFFFFFFFFFFFFFFFFFFFFFFFF AND PUSH20 0xFFFFFFFFFFFFFFFFFFFFFFFFFFFFFFFFFFFFFFFF AND DUP2 MSTORE PUSH1 0x20 ADD SWAP1 DUP2 MSTORE PUSH1 0x20 ADD PUSH0 KECCAK256 PUSH0 PUSH2 0x100 EXP DUP2 SLOAD DUP2 PUSH1 0xFF MUL NOT AND SWAP1 DUP4 ISZERO ISZERO MUL OR SWAP1 SSTORE POP PUSH32 0xF93F9A76C1BF3444D22400A00CB9FE990E6ABE9DBB333FDA48859CFEE864543D DUP3 DUP3 PUSH1 0x40 MLOAD PUSH2 0x3F8 SWAP3 SWAP2 SWAP1 PUSH2 0x1DB7 JUMP JUMPDEST PUSH1 0x40 MLOAD DUP1 SWAP2 SUB SWAP1 LOG1 POP POP JUMP JUMPDEST PUSH2 0x40C PUSH2 0x14DC JUMP JUMPDEST PUSH1 0x3 PUSH0 DUP2 SLOAD DUP1 SWAP3 SWAP2 SWAP1 PUSH2 0x41E SWAP1 PUSH2 0x1E0B JUMP JUMPDEST SWAP2 SWAP1 POP SSTORE POP PUSH0 PUSH1 0x2 PUSH0 PUSH1 0x3 SLOAD DUP2 MSTORE PUSH1 0x20 ADD SWAP1 DUP2 MSTORE PUSH1 0x20 ADD PUSH0 KECCAK256 SWAP1 POP PUSH1 0x3 SLOAD DUP2 PUSH0 ADD DUP2 SWAP1 SSTORE POP PUSH32 0x4B30851682903261BAD80BB108CC1B7CDCEDA15ECC8CBAB440DDC8988E102A85 PUSH1 0x3 SLOAD PUSH1 0x40 MLOAD PUSH2 0x474 SWAP2 SWAP1 PUSH2 0x1E61 JUMP JUMPDEST PUSH1 0x40 MLOAD DUP1 SWAP2 SUB SWAP1 LOG1 POP JUMP JUMPDEST PUSH0 PUSH1 0x2 PUSH0 DUP5 DUP2 MSTORE PUSH1 0x20 ADD SWAP1 DUP2 MSTORE PUSH1 0x20 ADD PUSH0 KECCAK256 SWAP1 POP PUSH1 0x3 PUSH1 0x5 DUP2 GT ISZERO PUSH2 0x4A7 JUMPI PUSH2 0x4A6 PUSH2 0x1E7A JUMP JUMPDEST JUMPDEST DUP2 PUSH1 0x1 ADD PUSH0 SWAP1 SLOAD SWAP1 PUSH2 0x100 EXP SWAP1 DIV PUSH1 0xFF AND PUSH1 0x5 DUP2 GT ISZERO PUSH2 0x4CA JUMPI PUSH2 0x4C9 PUSH2 0x1E7A JUMP JUMPDEST JUMPDEST EQ PUSH2 0x50A JUMPI PUSH1 0x40 MLOAD PUSH32 0x8C379A000000000000000000000000000000000000000000000000000000000 DUP2 MSTORE PUSH1 0x4 ADD PUSH2 0x501 SWAP1 PUSH2 0x1EF1 JUMP JUMPDEST PUSH1 0x40 MLOAD DUP1 SWAP2 SUB SWAP1 REVERT JUMPDEST PUSH1 0x1 PUSH0 CALLER PUSH20 0xFFFFFFFFFFFFFFFFFFFFFFFFFFFFFFFFFFFFFFFF AND PUSH20 0xFFFFFFFFFFFFFFFFFFFFFFFFFFFFFFFFFFFFFFFF AND DUP2 MSTORE PUSH1 0x20 ADD SWAP1 DUP2 MSTORE PUSH1 0x20 ADD PUSH0 KECCAK256 PUSH0 SWAP1 SLOAD SWAP1 PUSH2 0x100 EXP SWAP1 DIV PUSH1 0xFF AND PUSH2 0x593 JUMPI PUSH1 0x40 MLOAD PUSH32 0x8C379A000000000000000000000000000000000000000000000000000000000 DUP2 MSTORE PUSH1 0x4 ADD PUSH2 0x58A SWAP1 PUSH2 0x1F59 JUMP JUMPDEST PUSH1 0x40 MLOAD DUP1 SWAP2 SUB SWAP1 REVERT JUMPDEST DUP1 PUSH1 0x5 ADD PUSH0 CALLER PUSH20 0xFFFFFFFFFFFFFFFFFFFFFFFFFFFFFFFFFFFFFFFF AND PUSH20 0xFFFFFFFFFFFFFFFFFFFFFFFFFFFFFFFFFFFFFFFF AND DUP2 MSTORE PUSH1 0x20 ADD SWAP1 DUP2 MSTORE PUSH1 0x20 ADD PUSH0 KECCAK256 PUSH0 SWAP1 SLOAD SWAP1 PUSH2 0x100 EXP SWAP1 DIV PUSH1 0xFF AND ISZERO PUSH2 0x61F JUMPI PUSH1 0x40 MLOAD PUSH32 0x8C379A000000000000000000000000000000000000000000000000000000000 DUP2 MSTORE PUSH1 0x4 ADD PUSH2 0x616 SWAP1 PUSH2 0x1FC1 JUMP JUMPDEST PUSH1 0x40 MLOAD DUP1 SWAP2 SUB SWAP1 REVERT JUMPDEST PUSH0 DUP2 PUSH1 0x4 ADD DUP4 DUP2 SLOAD DUP2 LT PUSH2 0x636 JUMPI PUSH2 0x635 PUSH2 0x1FDF JUMP JUMPDEST JUMPDEST SWAP1 PUSH0 MSTORE PUSH1 0x20 PUSH0 KECCAK256 SWAP1 PUSH1 0x3 MUL ADD SWAP1 POP DUP1 PUSH1 0x2 ADD PUSH0 DUP2 SLOAD DUP1 SWAP3 SWAP2 SWAP1 PUSH2 0x658 SWAP1 PUSH2 0x1E0B JUMP JUMPDEST SWAP2 SWAP1 POP SSTORE POP PUSH1 0x1 DUP3 PUSH1 0x5 ADD PUSH0 CALLER PUSH20 0xFFFFFFFFFFFFFFFFFFFFFFFFFFFFFFFFFFFFFFFF AND PUSH20 0xFFFFFFFFFFFFFFFFFFFFFFFFFFFFFFFFFFFFFFFF AND DUP2 MSTORE PUSH1 0x20 ADD SWAP1 DUP2 MSTORE PUSH1 0x20 ADD PUSH0 KECCAK256 PUSH0 PUSH2 0x100 EXP DUP2 SLOAD DUP2 PUSH1 0xFF MUL NOT AND SWAP1 DUP4 ISZERO ISZERO MUL OR SWAP1 SSTORE POP DUP2 PUSH1 0x3 ADD SLOAD DUP2 PUSH1 0x2 ADD SLOAD GT ISZERO PUSH2 0x6D2 JUMPI DUP1 PUSH1 0x2 ADD SLOAD DUP3 PUSH1 0x3 ADD DUP2 SWAP1 SSTORE POP JUMPDEST PUSH32 0x1ABE610CF2BF87E57DCC1181FCF5AC0934E843D8344AB9EED6E86C799F62585E DUP5 CALLER DUP6 PUSH1 0x40 MLOAD PUSH2 0x705 SWAP4 SWAP3 SWAP2 SWAP1 PUSH2 0x200C JUMP JUMPDEST PUSH1 0x40 MLOAD DUP1 SWAP2 SUB SWAP1 LOG1 POP POP POP POP JUMP JUMPDEST PUSH2 0x71B PUSH2 0x14DC JUMP JUMPDEST PUSH0 PUSH1 0x2 PUSH0 DUP4 DUP2 MSTORE PUSH1 0x20 ADD SWAP1 DUP2 MSTORE PUSH1 0x20 ADD PUSH0 KECCAK256 SWAP1 POP PUSH1 0x3 PUSH1 0x5 DUP2 GT ISZERO PUSH2 0x743 JUMPI PUSH2 0x742 PUSH2 0x1E7A JUMP JUMPDEST JUMPDEST DUP2 PUSH1 0x1 ADD PUSH0 SWAP1 SLOAD SWAP1 PUSH2 0x100 EXP SWAP1 DIV PUSH1 0xFF AND PUSH1 0x5 DUP2 GT ISZERO PUSH2 0x766 JUMPI PUSH2 0x765 PUSH2 0x1E7A JUMP JUMPDEST JUMPDEST EQ PUSH2 0x7A6 JUMPI PUSH1 0x40 MLOAD PUSH32 0x8C379A000000000000000000000000000000000000000000000000000000000 DUP2 MSTORE PUSH1 0x4 ADD PUSH2 0x79D SWAP1 PUSH2 0x208B JUMP JUMPDEST PUSH1 0x40 MLOAD DUP1 SWAP2 SUB SWAP1 REVERT JUMPDEST PUSH0 DUP2 PUSH1 0x3 ADD SLOAD GT PUSH2 0x7EC JUMPI PUSH1 0x40 MLOAD PUSH32 0x8C379A000000000000000000000000000000000000000000000000000000000 DUP2 MSTORE PUSH1 0x4 ADD PUSH2 0x7E3 SWAP1 PUSH2 0x20F3 JUMP JUMPDEST PUSH1 0x40 MLOAD DUP1 SWAP2 SUB SWAP1 REVERT JUMPDEST PUSH1 0x4 DUP2 PUSH1 0x1 ADD PUSH0 PUSH2 0x100 EXP DUP2 SLOAD DUP2 PUSH1 0xFF MUL NOT AND SWAP1 DUP4 PUSH1 0x5 DUP2 GT ISZERO PUSH2 0x813 JUMPI PUSH2 0x812 PUSH2 0x1E7A JUMP JUMPDEST JUMPDEST MUL OR SWAP1 SSTORE POP PUSH32 0xB067099E10826978A3867510AD1E0DCF4CA5CEF8E422FD8DF2FC3D679167FE8D DUP3 PUSH1 0x3 PUSH1 0x4 PUSH1 0x40 MLOAD PUSH2 0x84D SWAP4 SWAP3 SWAP2 SWAP1 PUSH2 0x2157 JUMP JUMPDEST PUSH1 0x40 MLOAD DUP1 SWAP2 SUB SWAP1 LOG1 POP POP JUMP JUMPDEST PUSH0 PUSH1 0x2 PUSH0 DUP5 DUP2 MSTORE PUSH1 0x20 ADD SWAP1 DUP2 MSTORE PUSH1 0x20 ADD PUSH0 KECCAK256 SWAP1 POP PUSH1 0x1 PUSH1 0x5 DUP2 GT ISZERO PUSH2 0x881 JUMPI PUSH2 0x880 PUSH2 0x1E7A JUMP JUMPDEST JUMPDEST DUP2 PUSH1 0x1 ADD PUSH0 SWAP1 SLOAD SWAP1 PUSH2 0x100 EXP SWAP1 DIV PUSH1 0xFF AND PUSH1 0x5 DUP2 GT ISZERO PUSH2 0x8A4 JUMPI PUSH2 0x8A3 PUSH2 0x1E7A JUMP JUMPDEST JUMPDEST EQ PUSH2 0x8E4 JUMPI PUSH1 0x40 MLOAD PUSH32 0x8C379A000000000000000000000000000000000000000000000000000000000 DUP2 MSTORE PUSH1 0x4 ADD PUSH2 0x8DB SWAP1 PUSH2 0x1EF1 JUMP JUMPDEST PUSH1 0x40 MLOAD DUP1 SWAP2 SUB SWAP1 REVERT JUMPDEST PUSH1 0x1 PUSH0 CALLER PUSH20 0xFFFFFFFFFFFFFFFFFFFFFFFFFFFFFFFFFFFFFFFF AND PUSH20 0xFFFFFFFFFFFFFFFFFFFFFFFFFFFFFFFFFFFFFFFF AND DUP2 MSTORE PUSH1 0x20 ADD SWAP1 DUP2 MSTORE PUSH1 0x20 ADD PUSH0 KECCAK256 PUSH0 SWAP1 SLOAD SWAP1 PUSH2 0x100 EXP SWAP1 DIV PUSH1 0xFF AND PUSH2 0x96D JUMPI PUSH1 0x40 MLOAD PUSH32 0x8C379A000000000000000000000000000000000000000000000000000000000 DUP2 MSTORE PUSH1 0x4 ADD PUSH2 0x964 SWAP1 PUSH2 0x1F59 JUMP JUMPDEST PUSH1 0x40 MLOAD DUP1 SWAP2 SUB SWAP1 REVERT JUMPDEST DUP1 PUSH1 0x4 ADD PUSH1 0x40 MLOAD DUP1 PUSH1 0x60 ADD PUSH1 0x40 MSTORE DUP1 DUP5 DUP2 MSTORE PUSH1 0x20 ADD CALLER PUSH20 0xFFFFFFFFFFFFFFFFFFFFFFFFFFFFFFFFFFFFFFFF AND DUP2 MSTORE PUSH1 0x20 ADD PUSH0 DUP2 MSTORE POP SWAP1 DUP1 PUSH1 0x1 DUP2 SLOAD ADD DUP1 DUP3 SSTORE DUP1 SWAP2 POP POP PUSH1 0x1 SWAP1 SUB SWAP1 PUSH0 MSTORE PUSH1 0x20 PUSH0 KECCAK256 SWAP1 PUSH1 0x3 MUL ADD PUSH0 SWAP1 SWAP2 SWAP1 SWAP2 SWAP1 SWAP2 POP PUSH0 DUP3 ADD MLOAD DUP2 PUSH0 ADD SWAP1 DUP2 PUSH2 0x9DB SWAP2 SWAP1 PUSH2 0x2389 JUMP JUMPDEST POP PUSH1 0x20 DUP3 ADD MLOAD DUP2 PUSH1 0x1 ADD PUSH0 PUSH2 0x100 EXP DUP2 SLOAD DUP2 PUSH20 0xFFFFFFFFFFFFFFFFFFFFFFFFFFFFFFFFFFFFFFFF MUL NOT AND SWAP1 DUP4 PUSH20 0xFFFFFFFFFFFFFFFFFFFFFFFFFFFFFFFFFFFFFFFF AND MUL OR SWAP1 SSTORE POP PUSH1 0x40 DUP3 ADD MLOAD DUP2 PUSH1 0x2 ADD SSTORE POP POP PUSH32 0xCA195036D7C4D40B171AD51E9C891C830A0AD9A5E114B5B075CDF791317E300C DUP2 PUSH0 ADD SLOAD PUSH1 0x1 DUP4 PUSH1 0x4 ADD DUP1 SLOAD SWAP1 POP PUSH2 0xA67 SWAP2 SWAP1 PUSH2 0x2458 JUMP JUMPDEST PUSH1 0x40 MLOAD PUSH2 0xA75 SWAP3 SWAP2 SWAP1 PUSH2 0x248B JUMP JUMPDEST PUSH1 0x40 MLOAD DUP1 SWAP2 SUB SWAP1 LOG1 POP POP POP JUMP JUMPDEST PUSH0 PUSH1 0x1 PUSH0 DUP4 PUSH20 0xFFFFFFFFFFFFFFFFFFFFFFFFFFFFFFFFFFFFFFFF AND PUSH20 0xFFFFFFFFFFFFFFFFFFFFFFFFFFFFFFFFFFFFFFFF AND DUP2 MSTORE PUSH1 0x20 ADD SWAP1 DUP2 MSTORE PUSH1 0x20 ADD PUSH0 KECCAK256 PUSH0 SWAP1 SLOAD SWAP1 PUSH2 0x100 EXP SWAP1 DIV PUSH1 0xFF AND SWAP1 POP SWAP2 SWAP1 POP JUMP JUMPDEST PUSH2 0xADC PUSH2 0x14DC JUMP JUMPDEST PUSH2 0xAE5 PUSH0 PUSH2 0x1563 JUMP JUMPDEST JUMP JUMPDEST PUSH2 0xAEF PUSH2 0x14DC JUMP JUMPDEST PUSH0 PUSH1 0x2 PUSH0 DUP4 DUP2 MSTORE PUSH1 0x20 ADD SWAP1 DUP2 MSTORE PUSH1 0x20 ADD PUSH0 KECCAK256 SWAP1 POP PUSH0 PUSH1 0x5 DUP2 GT ISZERO PUSH2 0xB16 JUMPI PUSH2 0xB15 PUSH2 0x1E7A JUMP JUMPDEST JUMPDEST DUP2 PUSH1 0x1 ADD PUSH0 SWAP1 SLOAD SWAP1 PUSH2 0x100 EXP SWAP1 DIV PUSH1 0xFF AND PUSH1 0x5 DUP2 GT ISZERO PUSH2 0xB39 JUMPI PUSH2 0xB38 PUSH2 0x1E7A JUMP JUMPDEST JUMPDEST EQ PUSH2 0xB42 JUMPI PUSH0 PUSH0 REVERT JUMPDEST PUSH1 0x1 DUP2 PUSH1 0x1 ADD PUSH0 PUSH2 0x100 EXP DUP2 SLOAD DUP2 PUSH1 0xFF MUL NOT AND SWAP1 DUP4 PUSH1 0x5 DUP2 GT ISZERO PUSH2 0xB69 JUMPI PUSH2 0xB68 PUSH2 0x1E7A JUMP JUMPDEST JUMPDEST MUL OR SWAP1 SSTORE POP PUSH32 0xB067099E10826978A3867510AD1E0DCF4CA5CEF8E422FD8DF2FC3D679167FE8D DUP3 PUSH0 PUSH1 0x1 PUSH1 0x40 MLOAD PUSH2 0xBA2 SWAP4 SWAP3 SWAP2 SWAP1 PUSH2 0x2157 JUMP JUMPDEST PUSH1 0x40 MLOAD DUP1 SWAP2 SUB SWAP1 LOG1 POP POP JUMP JUMPDEST PUSH0 PUSH0 PUSH0 SWAP1 SLOAD SWAP1 PUSH2 0x100 EXP SWAP1 DIV PUSH20 0xFFFFFFFFFFFFFFFFFFFFFFFFFFFFFFFFFFFFFFFF AND SWAP1 POP SWAP1 JUMP JUMPDEST PUSH2 0xBDD PUSH2 0x14DC JUMP JUMPDEST PUSH0 PUSH1 0x2 PUSH0 DUP4 DUP2 MSTORE PUSH1 0x20 ADD SWAP1 DUP2 MSTORE PUSH1 0x20 ADD PUSH0 KECCAK256 SWAP1 POP PUSH1 0x2 PUSH1 0x5 DUP2 GT ISZERO PUSH2 0xC05 JUMPI PUSH2 0xC04 PUSH2 0x1E7A JUMP JUMPDEST JUMPDEST DUP2 PUSH1 0x1 ADD PUSH0 SWAP1 SLOAD SWAP1 PUSH2 0x100 EXP SWAP1 DIV PUSH1 0xFF AND PUSH1 0x5 DUP2 GT ISZERO PUSH2 0xC28 JUMPI PUSH2 0xC27 PUSH2 0x1E7A JUMP JUMPDEST JUMPDEST EQ PUSH2 0xC68 JUMPI PUSH1 0x40 MLOAD PUSH32 0x8C379A000000000000000000000000000000000000000000000000000000000 DUP2 MSTORE PUSH1 0x4 ADD PUSH2 0xC5F SWAP1 PUSH2 0x24FC JUMP JUMPDEST PUSH1 0x40 MLOAD DUP1 SWAP2 SUB SWAP1 REVERT JUMPDEST PUSH1 0x3 DUP2 PUSH1 0x1 ADD PUSH0 PUSH2 0x100 EXP DUP2 SLOAD DUP2 PUSH1 0xFF MUL NOT AND SWAP1 DUP4 PUSH1 0x5 DUP2 GT ISZERO PUSH2 0xC8F JUMPI PUSH2 0xC8E PUSH2 0x1E7A JUMP JUMPDEST JUMPDEST MUL OR SWAP1 SSTORE POP PUSH32 0xB067099E10826978A3867510AD1E0DCF4CA5CEF8E422FD8DF2FC3D679167FE8D DUP3 PUSH1 0x2 PUSH1 0x3 PUSH1 0x40 MLOAD PUSH2 0xCC9 SWAP4 SWAP3 SWAP2 SWAP1 PUSH2 0x2157 JUMP JUMPDEST PUSH1 0x40 MLOAD DUP1 SWAP2 SUB SWAP1 LOG1 POP POP JUMP JUMPDEST PUSH1 0x1 PUSH1 0x20 MSTORE DUP1 PUSH0 MSTORE PUSH1 0x40 PUSH0 KECCAK256 PUSH0 SWAP2 POP SLOAD SWAP1 PUSH2 0x100 EXP SWAP1 DIV PUSH1 0xFF AND DUP2 JUMP JUMPDEST PUSH2 0xCFA PUSH2 0x14DC JUMP JUMPDEST PUSH1 0x3 PUSH0 DUP2 SLOAD DUP1 SWAP3 SWAP2 SWAP1 PUSH2 0xD0C SWAP1 PUSH2 0x1E0B JUMP JUMPDEST SWAP2 SWAP1 POP SSTORE POP PUSH0 PUSH1 0x2 PUSH0 PUSH1 0x3 SLOAD DUP2 MSTORE PUSH1 0x20 ADD SWAP1 DUP2 MSTORE PUSH1 0x20 ADD PUSH0 KECCAK256 SWAP1 POP PUSH1 0x3 SLOAD DUP2 PUSH0 ADD DUP2 SWAP1 SSTORE POP PUSH0 PUSH0 SWAP1 POP JUMPDEST DUP3 MLOAD DUP2 LT ISZERO PUSH2 0xDF7 JUMPI DUP2 PUSH1 0x4 ADD DUP4 DUP3 DUP2 MLOAD DUP2 LT PUSH2 0xD56 JUMPI PUSH2 0xD55 PUSH2 0x1FDF JUMP JUMPDEST JUMPDEST PUSH1 0x20 MUL PUSH1 0x20 ADD ADD MLOAD SWAP1 DUP1 PUSH1 0x1 DUP2 SLOAD ADD DUP1 DUP3 SSTORE DUP1 SWAP2 POP POP PUSH1 0x1 SWAP1 SUB SWAP1 PUSH0 MSTORE PUSH1 0x20 PUSH0 KECCAK256 SWAP1 PUSH1 0x3 MUL ADD PUSH0 SWAP1 SWAP2 SWAP1 SWAP2 SWAP1 SWAP2 POP PUSH0 DUP3 ADD MLOAD DUP2 PUSH0 ADD SWAP1 DUP2 PUSH2 0xD97 SWAP2 SWAP1 PUSH2 0x2389 JUMP JUMPDEST POP PUSH1 0x20 DUP3 ADD MLOAD DUP2 PUSH1 0x1 ADD PUSH0 PUSH2 0x100 EXP DUP2 SLOAD DUP2 PUSH20 0xFFFFFFFFFFFFFFFFFFFFFFFFFFFFFFFFFFFFFFFF MUL NOT AND SWAP1 DUP4 PUSH20 0xFFFFFFFFFFFFFFFFFFFFFFFFFFFFFFFFFFFFFFFF AND MUL OR SWAP1 SSTORE POP PUSH1 0x40 DUP3 ADD MLOAD DUP2 PUSH1 0x2 ADD SSTORE POP POP DUP1 DUP1 PUSH1 0x1 ADD SWAP2 POP POP PUSH2 0xD36 JUMP JUMPDEST POP PUSH32 0x4B30851682903261BAD80BB108CC1B7CDCEDA15ECC8CBAB440DDC8988E102A85 PUSH1 0x3 SLOAD PUSH1 0x40 MLOAD PUSH2 0xE29 SWAP2 SWAP1 PUSH2 0x1E61 JUMP JUMPDEST PUSH1 0x40 MLOAD DUP1 SWAP2 SUB SWAP1 LOG1 POP POP JUMP JUMPDEST PUSH2 0xE3D PUSH2 0x14DC JUMP JUMPDEST PUSH0 PUSH1 0x2 PUSH0 DUP4 DUP2 MSTORE PUSH1 0x20 ADD SWAP1 DUP2 MSTORE PUSH1 0x20 ADD PUSH0 KECCAK256 SWAP1 POP PUSH1 0x1 PUSH1 0x5 DUP2 GT ISZERO PUSH2 0xE65 JUMPI PUSH2 0xE64 PUSH2 0x1E7A JUMP JUMPDEST JUMPDEST DUP2 PUSH1 0x1 ADD PUSH0 SWAP1 SLOAD SWAP1 PUSH2 0x100 EXP SWAP1 DIV PUSH1 0xFF AND PUSH1 0x5 DUP2 GT ISZERO PUSH2 0xE88 JUMPI PUSH2 0xE87 PUSH2 0x1E7A JUMP JUMPDEST JUMPDEST EQ PUSH2 0xEC8 JUMPI PUSH1 0x40 MLOAD PUSH32 0x8C379A000000000000000000000000000000000000000000000000000000000 DUP2 MSTORE PUSH1 0x4 ADD PUSH2 0xEBF SWAP1 PUSH2 0x258A JUMP JUMPDEST PUSH1 0x40 MLOAD DUP1 SWAP2 SUB SWAP1 REVERT JUMPDEST PUSH0 DUP2 PUSH1 0x4 ADD DUP1 SLOAD SWAP1 POP GT PUSH2 0xF11 JUMPI PUSH1 0x40 MLOAD PUSH32 0x8C379A000000000000000000000000000000000000000000000000000000000 DUP2 MSTORE PUSH1 0x4 ADD PUSH2 0xF08 SWAP1 PUSH2 0x25F2 JUMP JUMPDEST PUSH1 0x40 MLOAD DUP1 SWAP2 SUB SWAP1 REVERT JUMPDEST PUSH1 0x2 DUP2 PUSH1 0x1 ADD PUSH0 PUSH2 0x100 EXP DUP2 SLOAD DUP2 PUSH1 0xFF MUL NOT AND SWAP1 DUP4 PUSH1 0x5 DUP2 GT ISZERO PUSH2 0xF38 JUMPI PUSH2 0xF37 PUSH2 0x1E7A JUMP JUMPDEST JUMPDEST MUL OR SWAP1 SSTORE POP PUSH32 0xB067099E10826978A3867510AD1E0DCF4CA5CEF8E422FD8DF2FC3D679167FE8D DUP3 PUSH1 0x1 PUSH1 0x2 PUSH1 0x40 MLOAD PUSH2 0xF72 SWAP4 SWAP3 SWAP2 SWAP1 PUSH2 0x2157 JUMP JUMPDEST PUSH1 0x40 MLOAD DUP1 SWAP2 SUB SWAP1 LOG1 POP POP JUMP JUMPDEST PUSH2 0xF86 PUSH2 0x14DC JUMP JUMPDEST PUSH0 PUSH1 0x2 PUSH0 DUP4 DUP2 MSTORE PUSH1 0x20 ADD SWAP1 DUP2 MSTORE PUSH1 0x20 ADD PUSH0 KECCAK256 SWAP1 POP PUSH1 0x4 PUSH1 0x5 DUP2 GT ISZERO PUSH2 0xFAE JUMPI PUSH2 0xFAD PUSH2 0x1E7A JUMP JUMPDEST JUMPDEST DUP2 PUSH1 0x1 ADD PUSH0 SWAP1 SLOAD SWAP1 PUSH2 0x100 EXP SWAP1 DIV PUSH1 0xFF AND PUSH1 0x5 DUP2 GT ISZERO PUSH2 0xFD1 JUMPI PUSH2 0xFD0 PUSH2 0x1E7A JUMP JUMPDEST JUMPDEST EQ PUSH2 0x1011 JUMPI PUSH1 0x40 MLOAD PUSH32 0x8C379A000000000000000000000000000000000000000000000000000000000 DUP2 MSTORE PUSH1 0x4 ADD PUSH2 0x1008 SWAP1 PUSH2 0x265A JUMP JUMPDEST PUSH1 0x40 MLOAD DUP1 SWAP2 SUB SWAP1 REVERT JUMPDEST PUSH0 DUP2 PUSH1 0x4 ADD SWAP1 POP PUSH0 PUSH0 PUSH0 SWAP1 POP JUMPDEST DUP3 DUP1 SLOAD SWAP1 POP DUP2 LT ISZERO PUSH2 0x1073 JUMPI DUP4 PUSH1 0x3 ADD SLOAD DUP4 DUP3 DUP2 SLOAD DUP2 LT PUSH2 0x1042 JUMPI PUSH2 0x1041 PUSH2 0x1FDF JUMP JUMPDEST JUMPDEST SWAP1 PUSH0 MSTORE PUSH1 0x20 PUSH0 KECCAK256 SWAP1 PUSH1 0x3 MUL ADD PUSH1 0x2 ADD SLOAD SUB PUSH2 0x1066 JUMPI DUP2 DUP1 PUSH2 0x1062 SWAP1 PUSH2 0x1E0B JUMP JUMPDEST SWAP3 POP POP JUMPDEST DUP1 DUP1 PUSH1 0x1 ADD SWAP2 POP POP PUSH2 0x101E JUMP JUMPDEST POP PUSH0 DUP2 PUSH8 0xFFFFFFFFFFFFFFFF DUP2 GT ISZERO PUSH2 0x108F JUMPI PUSH2 0x108E PUSH2 0x17F2 JUMP JUMPDEST JUMPDEST PUSH1 0x40 MLOAD SWAP1 DUP1 DUP3 MSTORE DUP1 PUSH1 0x20 MUL PUSH1 0x20 ADD DUP3 ADD PUSH1 0x40 MSTORE DUP1 ISZERO PUSH2 0x10C8 JUMPI DUP2 PUSH1 0x20 ADD JUMPDEST PUSH2 0x10B5 PUSH2 0x162B JUMP JUMPDEST DUP2 MSTORE PUSH1 0x20 ADD SWAP1 PUSH1 0x1 SWAP1 SUB SWAP1 DUP2 PUSH2 0x10AD JUMPI SWAP1 POP JUMPDEST POP SWAP1 POP PUSH0 PUSH0 PUSH0 SWAP1 POP JUMPDEST DUP5 DUP1 SLOAD SWAP1 POP DUP2 LT ISZERO PUSH2 0x1265 JUMPI DUP6 PUSH1 0x3 ADD SLOAD DUP6 DUP3 DUP2 SLOAD DUP2 LT PUSH2 0x10F5 JUMPI PUSH2 0x10F4 PUSH2 0x1FDF JUMP JUMPDEST JUMPDEST SWAP1 PUSH0 MSTORE PUSH1 0x20 PUSH0 KECCAK256 SWAP1 PUSH1 0x3 MUL ADD PUSH1 0x2 ADD SLOAD SUB PUSH2 0x1258 JUMPI DUP5 DUP2 DUP2 SLOAD DUP2 LT PUSH2 0x111D JUMPI PUSH2 0x111C PUSH2 0x1FDF JUMP JUMPDEST JUMPDEST SWAP1 PUSH0 MSTORE PUSH1 0x20 PUSH0 KECCAK256 SWAP1 PUSH1 0x3 MUL ADD PUSH1 0x40 MLOAD DUP1 PUSH1 0x60 ADD PUSH1 0x40 MSTORE SWAP1 DUP2 PUSH0 DUP3 ADD DUP1 SLOAD PUSH2 0x1143 SWAP1 PUSH2 0x21B9 JUMP JUMPDEST DUP1 PUSH1 0x1F ADD PUSH1 0x20 DUP1 SWAP2 DIV MUL PUSH1 0x20 ADD PUSH1 0x40 MLOAD SWAP1 DUP2 ADD PUSH1 0x40 MSTORE DUP1 SWAP3 SWAP2 SWAP1 DUP2 DUP2 MSTORE PUSH1 0x20 ADD DUP3 DUP1 SLOAD PUSH2 0x116F SWAP1 PUSH2 0x21B9 JUMP JUMPDEST DUP1 ISZERO PUSH2 0x11BA JUMPI DUP1 PUSH1 0x1F LT PUSH2 0x1191 JUMPI PUSH2 0x100 DUP1 DUP4 SLOAD DIV MUL DUP4 MSTORE SWAP2 PUSH1 0x20 ADD SWAP2 PUSH2 0x11BA JUMP JUMPDEST DUP3 ADD SWAP2 SWAP1 PUSH0 MSTORE PUSH1 0x20 PUSH0 KECCAK256 SWAP1 JUMPDEST DUP2 SLOAD DUP2 MSTORE SWAP1 PUSH1 0x1 ADD SWAP1 PUSH1 0x20 ADD DUP1 DUP4 GT PUSH2 0x119D JUMPI DUP3 SWAP1 SUB PUSH1 0x1F AND DUP3 ADD SWAP2 JUMPDEST POP POP POP POP POP DUP2 MSTORE PUSH1 0x20 ADD PUSH1 0x1 DUP3 ADD PUSH0 SWAP1 SLOAD SWAP1 PUSH2 0x100 EXP SWAP1 DIV PUSH20 0xFFFFFFFFFFFFFFFFFFFFFFFFFFFFFFFFFFFFFFFF AND PUSH20 0xFFFFFFFFFFFFFFFFFFFFFFFFFFFFFFFFFFFFFFFF AND PUSH20 0xFFFFFFFFFFFFFFFFFFFFFFFFFFFFFFFFFFFFFFFF AND DUP2 MSTORE PUSH1 0x20 ADD PUSH1 0x2 DUP3 ADD SLOAD DUP2 MSTORE POP POP DUP4 DUP4 DUP2 MLOAD DUP2 LT PUSH2 0x1235 JUMPI PUSH2 0x1234 PUSH2 0x1FDF JUMP JUMPDEST JUMPDEST PUSH1 0x20 MUL PUSH1 0x20 ADD ADD DUP2 SWAP1 MSTORE POP DUP1 DUP7 PUSH1 0x2 ADD DUP2 SWAP1 SSTORE POP DUP2 DUP1 PUSH2 0x1254 SWAP1 PUSH2 0x1E0B JUMP JUMPDEST SWAP3 POP POP JUMPDEST DUP1 DUP1 PUSH1 0x1 ADD SWAP2 POP POP PUSH2 0x10D1 JUMP JUMPDEST POP PUSH1 0x1 DUP3 MLOAD SUB PUSH2 0x12B1 JUMPI PUSH32 0xA02A80459FBAB98547E0DB2CFB6EF274E962836A412718BB60FB14F1E6382E57 DUP7 DUP7 PUSH1 0x2 ADD SLOAD PUSH1 0x40 MLOAD PUSH2 0x12A4 SWAP3 SWAP2 SWAP1 PUSH2 0x248B JUMP JUMPDEST PUSH1 0x40 MLOAD DUP1 SWAP2 SUB SWAP1 LOG1 PUSH2 0x12F2 JUMP JUMPDEST PUSH2 0x12BA DUP3 PUSH2 0xCF2 JUMP JUMPDEST PUSH32 0xF647FDCCB52741A5FF3D2EF61826FC3FB196E30BF0A07A8A7D46E706D999D54 DUP7 PUSH1 0x40 MLOAD PUSH2 0x12E9 SWAP2 SWAP1 PUSH2 0x1E61 JUMP JUMPDEST PUSH1 0x40 MLOAD DUP1 SWAP2 SUB SWAP1 LOG1 JUMPDEST POP POP POP POP POP POP JUMP JUMPDEST PUSH2 0x1302 PUSH2 0x14DC JUMP JUMPDEST PUSH0 PUSH20 0xFFFFFFFFFFFFFFFFFFFFFFFFFFFFFFFFFFFFFFFF AND DUP2 PUSH20 0xFFFFFFFFFFFFFFFFFFFFFFFFFFFFFFFFFFFFFFFF AND SUB PUSH2 0x1372 JUMPI PUSH0 PUSH1 0x40 MLOAD PUSH32 0x1E4FBDF700000000000000000000000000000000000000000000000000000000 DUP2 MSTORE PUSH1 0x4 ADD PUSH2 0x1369 SWAP2 SWAP1 PUSH2 0x19D2 JUMP JUMPDEST PUSH1 0x40 MLOAD DUP1 SWAP2 SUB SWAP1 REVERT JUMPDEST PUSH2 0x137B DUP2 PUSH2 0x1563 JUMP JUMPDEST POP JUMP JUMPDEST PUSH1 0x60 PUSH1 0x2 PUSH0 DUP4 DUP2 MSTORE PUSH1 0x20 ADD SWAP1 DUP2 MSTORE PUSH1 0x20 ADD PUSH0 KECCAK256 PUSH1 0x4 ADD DUP1 SLOAD DUP1 PUSH1 0x20 MUL PUSH1 0x20 ADD PUSH1 0x40 MLOAD SWAP1 DUP2 ADD PUSH1 0x40 MSTORE DUP1 SWAP3 SWAP2 SWAP1 DUP2 DUP2 MSTORE PUSH1 0x20 ADD PUSH0 SWAP1 JUMPDEST DUP3 DUP3 LT ISZERO PUSH2 0x14D1 JUMPI DUP4 DUP3 SWAP1 PUSH0 MSTORE PUSH1 0x20 PUSH0 KECCAK256 SWAP1 PUSH1 0x3 MUL ADD PUSH1 0x40 MLOAD DUP1 PUSH1 0x60 ADD PUSH1 0x40 MSTORE SWAP1 DUP2 PUSH0 DUP3 ADD DUP1 SLOAD PUSH2 0x13E3 SWAP1 PUSH2 0x21B9 JUMP JUMPDEST DUP1 PUSH1 0x1F ADD PUSH1 0x20 DUP1 SWAP2 DIV MUL PUSH1 0x20 ADD PUSH1 0x40 MLOAD SWAP1 DUP2 ADD PUSH1 0x40 MSTORE DUP1 SWAP3 SWAP2 SWAP1 DUP2 DUP2 MSTORE PUSH1 0x20 ADD DUP3 DUP1 SLOAD PUSH2 0x140F SWAP1 PUSH2 0x21B9 JUMP JUMPDEST DUP1 ISZERO PUSH2 0x145A JUMPI DUP1 PUSH1 0x1F LT PUSH2 0x1431 JUMPI PUSH2 0x100 DUP1 DUP4 SLOAD DIV MUL DUP4 MSTORE SWAP2 PUSH1 0x20 ADD SWAP2 PUSH2 0x145A JUMP JUMPDEST DUP3 ADD SWAP2 SWAP1 PUSH0 MSTORE PUSH1 0x20 PUSH0 KECCAK256 SWAP1 JUMPDEST DUP2 SLOAD DUP2 MSTORE SWAP1 PUSH1 0x1 ADD SWAP1 PUSH1 0x20 ADD DUP1 DUP4 GT PUSH2 0x143D JUMPI DUP3 SWAP1 SUB PUSH1 0x1F AND DUP3 ADD SWAP2 JUMPDEST POP POP POP POP POP DUP2 MSTORE PUSH1 0x20 ADD PUSH1 0x1 DUP3 ADD PUSH0 SWAP1 SLOAD SWAP1 PUSH2 0x100 EXP SWAP1 DIV PUSH20 0xFFFFFFFFFFFFFFFFFFFFFFFFFFFFFFFFFFFFFFFF AND PUSH20 0xFFFFFFFFFFFFFFFFFFFFFFFFFFFFFFFFFFFFFFFF AND PUSH20 0xFFFFFFFFFFFFFFFFFFFFFFFFFFFFFFFFFFFFFFFF AND DUP2 MSTORE PUSH1 0x20 ADD PUSH1 0x2 DUP3 ADD SLOAD DUP2 MSTORE POP POP DUP2 MSTORE PUSH1 0x20 ADD SWAP1 PUSH1 0x1 ADD SWAP1 PUSH2 0x13B3 JUMP JUMPDEST POP POP POP POP SWAP1 POP SWAP2 SWAP1 POP JUMP JUMPDEST PUSH2 0x14E4 PUSH2 0x1624 JUMP JUMPDEST PUSH20 0xFFFFFFFFFFFFFFFFFFFFFFFFFFFFFFFFFFFFFFFF AND PUSH2 0x1502 PUSH2 0xBAE JUMP JUMPDEST PUSH20 0xFFFFFFFFFFFFFFFFFFFFFFFFFFFFFFFFFFFFFFFF AND EQ PUSH2 0x1561 JUMPI PUSH2 0x1525 PUSH2 0x1624 JUMP JUMPDEST PUSH1 0x40 MLOAD PUSH32 0x118CDAA700000000000000000000000000000000000000000000000000000000 DUP2 MSTORE PUSH1 0x4 ADD PUSH2 0x1558 SWAP2 SWAP1 PUSH2 0x19D2 JUMP JUMPDEST PUSH1 0x40 MLOAD DUP1 SWAP2 SUB SWAP1 REVERT JUMPDEST JUMP JUMPDEST PUSH0 PUSH0 PUSH0 SWAP1 SLOAD SWAP1 PUSH2 0x100 EXP SWAP1 DIV PUSH20 0xFFFFFFFFFFFFFFFFFFFFFFFFFFFFFFFFFFFFFFFF AND SWAP1 POP DUP2 PUSH0 PUSH0 PUSH2 0x100 EXP DUP2 SLOAD DUP2 PUSH20 0xFFFFFFFFFFFFFFFFFFFFFFFFFFFFFFFFFFFFFFFF MUL NOT AND SWAP1 DUP4 PUSH20 0xFFFFFFFFFFFFFFFFFFFFFFFFFFFFFFFFFFFFFFFF AND MUL OR SWAP1 SSTORE POP DUP2 PUSH20 0xFFFFFFFFFFFFFFFFFFFFFFFFFFFFFFFFFFFFFFFF AND DUP2 PUSH20 0xFFFFFFFFFFFFFFFFFFFFFFFFFFFFFFFFFFFFFFFF AND PUSH32 0x8BE0079C531659141344CD1FD0A4F28419497F9722A3DAAFE3B4186F6B6457E0 PUSH1 0x40 MLOAD PUSH1 0x40 MLOAD DUP1 SWAP2 SUB SWAP1 LOG3 POP POP JUMP JUMPDEST PUSH0 CALLER SWAP1 POP SWAP1 JUMP JUMPDEST PUSH1 0x40 MLOAD DUP1 PUSH1 0x60 ADD PUSH1 0x40 MSTORE DUP1 PUSH1 0x60 DUP2 MSTORE PUSH1 0x20 ADD PUSH0 PUSH20 0xFFFFFFFFFFFFFFFFFFFFFFFFFFFFFFFFFFFFFFFF AND DUP2 MSTORE PUSH1 0x20 ADD PUSH0 DUP2 MSTORE POP SWAP1 JUMP JUMPDEST PUSH0 PUSH1 0x40 MLOAD SWAP1 POP SWAP1 JUMP JUMPDEST PUSH0 PUSH0 REVERT JUMPDEST PUSH0 PUSH0 REVERT JUMPDEST PUSH0 PUSH20 0xFFFFFFFFFFFFFFFFFFFFFFFFFFFFFFFFFFFFFFFF DUP3 AND SWAP1 POP SWAP2 SWAP1 POP JUMP JUMPDEST PUSH0 PUSH2 0x169A DUP3 PUSH2 0x1671 JUMP JUMPDEST SWAP1 POP SWAP2 SWAP1 POP JUMP JUMPDEST PUSH2 0x16AA DUP2 PUSH2 0x1690 JUMP JUMPDEST DUP2 EQ PUSH2 0x16B4 JUMPI PUSH0 PUSH0 REVERT JUMPDEST POP JUMP JUMPDEST PUSH0 DUP2 CALLDATALOAD SWAP1 POP PUSH2 0x16C5 DUP2 PUSH2 0x16A1 JUMP JUMPDEST SWAP3 SWAP2 POP POP JUMP JUMPDEST PUSH0 DUP2 ISZERO ISZERO SWAP1 POP SWAP2 SWAP1 POP JUMP JUMPDEST PUSH2 0x16DF DUP2 PUSH2 0x16CB JUMP JUMPDEST DUP2 EQ PUSH2 0x16E9 JUMPI PUSH0 PUSH0 REVERT JUMPDEST POP JUMP JUMPDEST PUSH0 DUP2 CALLDATALOAD SWAP1 POP PUSH2 0x16FA DUP2 PUSH2 0x16D6 JUMP JUMPDEST SWAP3 SWAP2 POP POP JUMP JUMPDEST PUSH0 PUSH0 PUSH1 0x40 DUP4 DUP6 SUB SLT ISZERO PUSH2 0x1716 JUMPI PUSH2 0x1715 PUSH2 0x1669 JUMP JUMPDEST JUMPDEST PUSH0 PUSH2 0x1723 DUP6 DUP3 DUP7 ADD PUSH2 0x16B7 JUMP JUMPDEST SWAP3 POP POP PUSH1 0x20 PUSH2 0x1734 DUP6 DUP3 DUP7 ADD PUSH2 0x16EC JUMP JUMPDEST SWAP2 POP POP SWAP3 POP SWAP3 SWAP1 POP JUMP JUMPDEST PUSH0 DUP2 SWAP1 POP SWAP2 SWAP1 POP JUMP JUMPDEST PUSH2 0x1750 DUP2 PUSH2 0x173E JUMP JUMPDEST DUP2 EQ PUSH2 0x175A JUMPI PUSH0 PUSH0 REVERT JUMPDEST POP JUMP JUMPDEST PUSH0 DUP2 CALLDATALOAD SWAP1 POP PUSH2 0x176B DUP2 PUSH2 0x1747 JUMP JUMPDEST SWAP3 SWAP2 POP POP JUMP JUMPDEST PUSH0 PUSH0 PUSH1 0x40 DUP4 DUP6 SUB SLT ISZERO PUSH2 0x1787 JUMPI PUSH2 0x1786 PUSH2 0x1669 JUMP JUMPDEST JUMPDEST PUSH0 PUSH2 0x1794 DUP6 DUP3 DUP7 ADD PUSH2 0x175D JUMP JUMPDEST SWAP3 POP POP PUSH1 0x20 PUSH2 0x17A5 DUP6 DUP3 DUP7 ADD PUSH2 0x175D JUMP JUMPDEST SWAP2 POP POP SWAP3 POP SWAP3 SWAP1 POP JUMP JUMPDEST PUSH0 PUSH1 0x20 DUP3 DUP5 SUB SLT ISZERO PUSH2 0x17C4 JUMPI PUSH2 0x17C3 PUSH2 0x1669 JUMP JUMPDEST JUMPDEST PUSH0 PUSH2 0x17D1 DUP5 DUP3 DUP6 ADD PUSH2 0x175D JUMP JUMPDEST SWAP2 POP POP SWAP3 SWAP2 POP POP JUMP JUMPDEST PUSH0 PUSH0 REVERT JUMPDEST PUSH0 PUSH0 REVERT JUMPDEST PUSH0 PUSH1 0x1F NOT PUSH1 0x1F DUP4 ADD AND SWAP1 POP SWAP2 SWAP1 POP JUMP JUMPDEST PUSH32 0x4E487B7100000000000000000000000000000000000000000000000000000000 PUSH0 MSTORE PUSH1 0x41 PUSH1 0x4 MSTORE PUSH1 0x24 PUSH0 REVERT JUMPDEST PUSH2 0x1828 DUP3 PUSH2 0x17E2 JUMP JUMPDEST DUP2 ADD DUP2 DUP2 LT PUSH8 0xFFFFFFFFFFFFFFFF DUP3 GT OR ISZERO PUSH2 0x1847 JUMPI PUSH2 0x1846 PUSH2 0x17F2 JUMP JUMPDEST JUMPDEST DUP1 PUSH1 0x40 MSTORE POP POP POP JUMP JUMPDEST PUSH0 PUSH2 0x1859 PUSH2 0x1660 JUMP JUMPDEST SWAP1 POP PUSH2 0x1865 DUP3 DUP3 PUSH2 0x181F JUMP JUMPDEST SWAP2 SWAP1 POP JUMP JUMPDEST PUSH0 PUSH8 0xFFFFFFFFFFFFFFFF DUP3 GT ISZERO PUSH2 0x1884 JUMPI PUSH2 0x1883 PUSH2 0x17F2 JUMP JUMPDEST JUMPDEST PUSH2 0x188D DUP3 PUSH2 0x17E2 JUMP JUMPDEST SWAP1 POP PUSH1 0x20 DUP2 ADD SWAP1 POP SWAP2 SWAP1 POP JUMP JUMPDEST DUP3 DUP2 DUP4 CALLDATACOPY PUSH0 DUP4 DUP4 ADD MSTORE POP POP POP JUMP JUMPDEST PUSH0 PUSH2 0x18BA PUSH2 0x18B5 DUP5 PUSH2 0x186A JUMP JUMPDEST PUSH2 0x1850 JUMP JUMPDEST SWAP1 POP DUP3 DUP2 MSTORE PUSH1 0x20 DUP2 ADD DUP5 DUP5 DUP5 ADD GT ISZERO PUSH2 0x18D6 JUMPI PUSH2 0x18D5 PUSH2 0x17DE JUMP JUMPDEST JUMPDEST PUSH2 0x18E1 DUP5 DUP3 DUP6 PUSH2 0x189A JUMP JUMPDEST POP SWAP4 SWAP3 POP POP POP JUMP JUMPDEST PUSH0 DUP3 PUSH1 0x1F DUP4 ADD SLT PUSH2 0x18FD JUMPI PUSH2 0x18FC PUSH2 0x17DA JUMP JUMPDEST JUMPDEST DUP2 CALLDATALOAD PUSH2 0x190D DUP5 DUP3 PUSH1 0x20 DUP7 ADD PUSH2 0x18A8 JUMP JUMPDEST SWAP2 POP POP SWAP3 SWAP2 POP POP JUMP JUMPDEST PUSH0 PUSH0 PUSH1 0x40 DUP4 DUP6 SUB SLT ISZERO PUSH2 0x192C JUMPI PUSH2 0x192B PUSH2 0x1669 JUMP JUMPDEST JUMPDEST PUSH0 PUSH2 0x1939 DUP6 DUP3 DUP7 ADD PUSH2 0x175D JUMP JUMPDEST SWAP3 POP POP PUSH1 0x20 DUP4 ADD CALLDATALOAD PUSH8 0xFFFFFFFFFFFFFFFF DUP2 GT ISZERO PUSH2 0x195A JUMPI PUSH2 0x1959 PUSH2 0x166D JUMP JUMPDEST JUMPDEST PUSH2 0x1966 DUP6 DUP3 DUP7 ADD PUSH2 0x18E9 JUMP JUMPDEST SWAP2 POP POP SWAP3 POP SWAP3 SWAP1 POP JUMP JUMPDEST PUSH0 PUSH1 0x20 DUP3 DUP5 SUB SLT ISZERO PUSH2 0x1985 JUMPI PUSH2 0x1984 PUSH2 0x1669 JUMP JUMPDEST JUMPDEST PUSH0 PUSH2 0x1992 DUP5 DUP3 DUP6 ADD PUSH2 0x16B7 JUMP JUMPDEST SWAP2 POP POP SWAP3 SWAP2 POP POP JUMP JUMPDEST PUSH2 0x19A4 DUP2 PUSH2 0x16CB JUMP JUMPDEST DUP3 MSTORE POP POP JUMP JUMPDEST PUSH0 PUSH1 0x20 DUP3 ADD SWAP1 POP PUSH2 0x19BD PUSH0 DUP4 ADD DUP5 PUSH2 0x199B JUMP JUMPDEST SWAP3 SWAP2 POP POP JUMP JUMPDEST PUSH2 0x19CC DUP2 PUSH2 0x1690 JUMP JUMPDEST DUP3 MSTORE POP POP JUMP JUMPDEST PUSH0 PUSH1 0x20 DUP3 ADD SWAP1 POP PUSH2 0x19E5 PUSH0 DUP4 ADD DUP5 PUSH2 0x19C3 JUMP JUMPDEST SWAP3 SWAP2 POP POP JUMP JUMPDEST PUSH0 PUSH8 0xFFFFFFFFFFFFFFFF DUP3 GT ISZERO PUSH2 0x1A05 JUMPI PUSH2 0x1A04 PUSH2 0x17F2 JUMP JUMPDEST JUMPDEST PUSH1 0x20 DUP3 MUL SWAP1 POP PUSH1 0x20 DUP2 ADD SWAP1 POP SWAP2 SWAP1 POP JUMP JUMPDEST PUSH0 PUSH0 REVERT JUMPDEST PUSH0 PUSH0 REVERT JUMPDEST PUSH0 PUSH0 REVERT JUMPDEST PUSH0 PUSH1 0x60 DUP3 DUP5 SUB SLT ISZERO PUSH2 0x1A37 JUMPI PUSH2 0x1A36 PUSH2 0x1A1A JUMP JUMPDEST JUMPDEST PUSH2 0x1A41 PUSH1 0x60 PUSH2 0x1850 JUMP JUMPDEST SWAP1 POP PUSH0 DUP3 ADD CALLDATALOAD PUSH8 0xFFFFFFFFFFFFFFFF DUP2 GT ISZERO PUSH2 0x1A60 JUMPI PUSH2 0x1A5F PUSH2 0x1A1E JUMP JUMPDEST JUMPDEST PUSH2 0x1A6C DUP5 DUP3 DUP6 ADD PUSH2 0x18E9 JUMP JUMPDEST PUSH0 DUP4 ADD MSTORE POP PUSH1 0x20 PUSH2 0x1A7F DUP5 DUP3 DUP6 ADD PUSH2 0x16B7 JUMP JUMPDEST PUSH1 0x20 DUP4 ADD MSTORE POP PUSH1 0x40 PUSH2 0x1A93 DUP5 DUP3 DUP6 ADD PUSH2 0x175D JUMP JUMPDEST PUSH1 0x40 DUP4 ADD MSTORE POP SWAP3 SWAP2 POP POP JUMP JUMPDEST PUSH0 PUSH2 0x1AB1 PUSH2 0x1AAC DUP5 PUSH2 0x19EB JUMP JUMPDEST PUSH2 0x1850 JUMP JUMPDEST SWAP1 POP DUP1 DUP4 DUP3 MSTORE PUSH1 0x20 DUP3 ADD SWAP1 POP PUSH1 0x20 DUP5 MUL DUP4 ADD DUP6 DUP2 GT ISZERO PUSH2 0x1AD4 JUMPI PUSH2 0x1AD3 PUSH2 0x1A16 JUMP JUMPDEST JUMPDEST DUP4 JUMPDEST DUP2 DUP2 LT ISZERO PUSH2 0x1B1B JUMPI DUP1 CALLDATALOAD PUSH8 0xFFFFFFFFFFFFFFFF DUP2 GT ISZERO PUSH2 0x1AF9 JUMPI PUSH2 0x1AF8 PUSH2 0x17DA JUMP JUMPDEST JUMPDEST DUP1 DUP7 ADD PUSH2 0x1B06 DUP10 DUP3 PUSH2 0x1A22 JUMP JUMPDEST DUP6 MSTORE PUSH1 0x20 DUP6 ADD SWAP5 POP POP POP PUSH1 0x20 DUP2 ADD SWAP1 POP PUSH2 0x1AD6 JUMP JUMPDEST POP POP POP SWAP4 SWAP3 POP POP POP JUMP JUMPDEST PUSH0 DUP3 PUSH1 0x1F DUP4 ADD SLT PUSH2 0x1B39 JUMPI PUSH2 0x1B38 PUSH2 0x17DA JUMP JUMPDEST JUMPDEST DUP2 CALLDATALOAD PUSH2 0x1B49 DUP5 DUP3 PUSH1 0x20 DUP7 ADD PUSH2 0x1A9F JUMP JUMPDEST SWAP2 POP POP SWAP3 SWAP2 POP POP JUMP JUMPDEST PUSH0 PUSH1 0x20 DUP3 DUP5 SUB SLT ISZERO PUSH2 0x1B67 JUMPI PUSH2 0x1B66 PUSH2 0x1669 JUMP JUMPDEST JUMPDEST PUSH0 DUP3 ADD CALLDATALOAD PUSH8 0xFFFFFFFFFFFFFFFF DUP2 GT ISZERO PUSH2 0x1B84 JUMPI PUSH2 0x1B83 PUSH2 0x166D JUMP JUMPDEST JUMPDEST PUSH2 0x1B90 DUP5 DUP3 DUP6 ADD PUSH2 0x1B25 JUMP JUMPDEST SWAP2 POP POP SWAP3 SWAP2 POP POP JUMP JUMPDEST PUSH0 DUP2 MLOAD SWAP1 POP SWAP2 SWAP1 POP JUMP JUMPDEST PUSH0 DUP3 DUP3 MSTORE PUSH1 0x20 DUP3 ADD SWAP1 POP SWAP3 SWAP2 POP POP JUMP JUMPDEST PUSH0 DUP2 SWAP1 POP PUSH1 0x20 DUP3 ADD SWAP1 POP SWAP2 SWAP1 POP JUMP JUMPDEST PUSH0 DUP2 MLOAD SWAP1 POP SWAP2 SWAP1 POP JUMP JUMPDEST PUSH0 DUP3 DUP3 MSTORE PUSH1 0x20 DUP3 ADD SWAP1 POP SWAP3 SWAP2 POP POP JUMP JUMPDEST DUP3 DUP2 DUP4 MCOPY PUSH0 DUP4 DUP4 ADD MSTORE POP POP POP JUMP JUMPDEST PUSH0 PUSH2 0x1BF4 DUP3 PUSH2 0x1BC2 JUMP JUMPDEST PUSH2 0x1BFE DUP2 DUP6 PUSH2 0x1BCC JUMP JUMPDEST SWAP4 POP PUSH2 0x1C0E DUP2 DUP6 PUSH1 0x20 DUP7 ADD PUSH2 0x1BDC JUMP JUMPDEST PUSH2 0x1C17 DUP2 PUSH2 0x17E2 JUMP JUMPDEST DUP5 ADD SWAP2 POP POP SWAP3 SWAP2 POP POP JUMP JUMPDEST PUSH2 0x1C2B DUP2 PUSH2 0x1690 JUMP JUMPDEST DUP3 MSTORE POP POP JUMP JUMPDEST PUSH2 0x1C3A DUP2 PUSH2 0x173E JUMP JUMPDEST DUP3 MSTORE POP POP JUMP JUMPDEST PUSH0 PUSH1 0x60 DUP4 ADD PUSH0 DUP4 ADD MLOAD DUP5 DUP3 SUB PUSH0 DUP7 ADD MSTORE PUSH2 0x1C5A DUP3 DUP3 PUSH2 0x1BEA JUMP JUMPDEST SWAP2 POP POP PUSH1 0x20 DUP4 ADD MLOAD PUSH2 0x1C6F PUSH1 0x20 DUP7 ADD DUP3 PUSH2 0x1C22 JUMP JUMPDEST POP PUSH1 0x40 DUP4 ADD MLOAD PUSH2 0x1C82 PUSH1 0x40 DUP7 ADD DUP3 PUSH2 0x1C31 JUMP JUMPDEST POP DUP1 SWAP2 POP POP SWAP3 SWAP2 POP POP JUMP JUMPDEST PUSH0 PUSH2 0x1C98 DUP4 DUP4 PUSH2 0x1C40 JUMP JUMPDEST SWAP1 POP SWAP3 SWAP2 POP POP JUMP JUMPDEST PUSH0 PUSH1 0x20 DUP3 ADD SWAP1 POP SWAP2 SWAP1 POP JUMP JUMPDEST PUSH0 PUSH2 0x1CB6 DUP3 PUSH2 0x1B99 JUMP JUMPDEST PUSH2 0x1CC0 DUP2 DUP6 PUSH2 0x1BA3 JUMP JUMPDEST SWAP4 POP DUP4 PUSH1 0x20 DUP3 MUL DUP6 ADD PUSH2 0x1CD2 DUP6 PUSH2 0x1BB3 JUMP JUMPDEST DUP1 PUSH0 JUMPDEST DUP6 DUP2 LT ISZERO PUSH2 0x1D0D JUMPI DUP5 DUP5 SUB DUP10 MSTORE DUP2 MLOAD PUSH2 0x1CEE DUP6 DUP3 PUSH2 0x1C8D JUMP JUMPDEST SWAP5 POP PUSH2 0x1CF9 DUP4 PUSH2 0x1CA0 JUMP JUMPDEST SWAP3 POP PUSH1 0x20 DUP11 ADD SWAP10 POP POP PUSH1 0x1 DUP2 ADD SWAP1 POP PUSH2 0x1CD5 JUMP JUMPDEST POP DUP3 SWAP8 POP DUP8 SWAP6 POP POP POP POP POP POP SWAP3 SWAP2 POP POP JUMP JUMPDEST PUSH0 PUSH1 0x20 DUP3 ADD SWAP1 POP DUP2 DUP2 SUB PUSH0 DUP4 ADD MSTORE PUSH2 0x1D37 DUP2 DUP5 PUSH2 0x1CAC JUMP JUMPDEST SWAP1 POP SWAP3 SWAP2 POP POP JUMP JUMPDEST PUSH0 DUP3 DUP3 MSTORE PUSH1 0x20 DUP3 ADD SWAP1 POP SWAP3 SWAP2 POP POP JUMP JUMPDEST PUSH32 0x77686974656C69737420697320757020746F2064617465000000000000000000 PUSH0 DUP3 ADD MSTORE POP JUMP JUMPDEST PUSH0 PUSH2 0x1D83 PUSH1 0x17 DUP4 PUSH2 0x1D3F JUMP JUMPDEST SWAP2 POP PUSH2 0x1D8E DUP3 PUSH2 0x1D4F JUMP JUMPDEST PUSH1 0x20 DUP3 ADD SWAP1 POP SWAP2 SWAP1 POP JUMP JUMPDEST PUSH0 PUSH1 0x20 DUP3 ADD SWAP1 POP DUP2 DUP2 SUB PUSH0 DUP4 ADD MSTORE PUSH2 0x1DB0 DUP2 PUSH2 0x1D77 JUMP JUMPDEST SWAP1 POP SWAP2 SWAP1 POP JUMP JUMPDEST PUSH0 PUSH1 0x40 DUP3 ADD SWAP1 POP PUSH2 0x1DCA PUSH0 DUP4 ADD DUP6 PUSH2 0x19C3 JUMP JUMPDEST PUSH2 0x1DD7 PUSH1 0x20 DUP4 ADD DUP5 PUSH2 0x199B JUMP JUMPDEST SWAP4 SWAP3 POP POP POP JUMP JUMPDEST PUSH32 0x4E487B7100000000000000000000000000000000000000000000000000000000 PUSH0 MSTORE PUSH1 0x11 PUSH1 0x4 MSTORE PUSH1 0x24 PUSH0 REVERT JUMPDEST PUSH0 PUSH2 0x1E15 DUP3 PUSH2 0x173E JUMP JUMPDEST SWAP2 POP PUSH32 0xFFFFFFFFFFFFFFFFFFFFFFFFFFFFFFFFFFFFFFFFFFFFFFFFFFFFFFFFFFFFFFFF DUP3 SUB PUSH2 0x1E47 JUMPI PUSH2 0x1E46 PUSH2 0x1DDE JUMP JUMPDEST JUMPDEST PUSH1 0x1 DUP3 ADD SWAP1 POP SWAP2 SWAP1 POP JUMP JUMPDEST PUSH2 0x1E5B DUP2 PUSH2 0x173E JUMP JUMPDEST DUP3 MSTORE POP POP JUMP JUMPDEST PUSH0 PUSH1 0x20 DUP3 ADD SWAP1 POP PUSH2 0x1E74 PUSH0 DUP4 ADD DUP5 PUSH2 0x1E52 JUMP JUMPDEST SWAP3 SWAP2 POP POP JUMP JUMPDEST PUSH32 0x4E487B7100000000000000000000000000000000000000000000000000000000 PUSH0 MSTORE PUSH1 0x21 PUSH1 0x4 MSTORE PUSH1 0x24 PUSH0 REVERT JUMPDEST PUSH32 0x726567697374726174696F6E20646964206E6F74207374617274656400000000 PUSH0 DUP3 ADD MSTORE POP JUMP JUMPDEST PUSH0 PUSH2 0x1EDB PUSH1 0x1C DUP4 PUSH2 0x1D3F JUMP JUMPDEST SWAP2 POP PUSH2 0x1EE6 DUP3 PUSH2 0x1EA7 JUMP JUMPDEST PUSH1 0x20 DUP3 ADD SWAP1 POP SWAP2 SWAP1 POP JUMP JUMPDEST PUSH0 PUSH1 0x20 DUP3 ADD SWAP1 POP DUP2 DUP2 SUB PUSH0 DUP4 ADD MSTORE PUSH2 0x1F08 DUP2 PUSH2 0x1ECF JUMP JUMPDEST SWAP1 POP SWAP2 SWAP1 POP JUMP JUMPDEST PUSH32 0x596F7520617265206E6F74207265676973746572656400000000000000000000 PUSH0 DUP3 ADD MSTORE POP JUMP JUMPDEST PUSH0 PUSH2 0x1F43 PUSH1 0x16 DUP4 PUSH2 0x1D3F JUMP JUMPDEST SWAP2 POP PUSH2 0x1F4E DUP3 PUSH2 0x1F0F JUMP JUMPDEST PUSH1 0x20 DUP3 ADD SWAP1 POP SWAP2 SWAP1 POP JUMP JUMPDEST PUSH0 PUSH1 0x20 DUP3 ADD SWAP1 POP DUP2 DUP2 SUB PUSH0 DUP4 ADD MSTORE PUSH2 0x1F70 DUP2 PUSH2 0x1F37 JUMP JUMPDEST SWAP1 POP SWAP2 SWAP1 POP JUMP JUMPDEST PUSH32 0x596F75206861766520616C726561647920766F74650000000000000000000000 PUSH0 DUP3 ADD MSTORE POP JUMP JUMPDEST PUSH0 PUSH2 0x1FAB PUSH1 0x15 DUP4 PUSH2 0x1D3F JUMP JUMPDEST SWAP2 POP PUSH2 0x1FB6 DUP3 PUSH2 0x1F77 JUMP JUMPDEST PUSH1 0x20 DUP3 ADD SWAP1 POP SWAP2 SWAP1 POP JUMP JUMPDEST PUSH0 PUSH1 0x20 DUP3 ADD SWAP1 POP DUP2 DUP2 SUB PUSH0 DUP4 ADD MSTORE PUSH2 0x1FD8 DUP2 PUSH2 0x1F9F JUMP JUMPDEST SWAP1 POP SWAP2 SWAP1 POP JUMP JUMPDEST PUSH32 0x4E487B7100000000000000000000000000000000000000000000000000000000 PUSH0 MSTORE PUSH1 0x32 PUSH1 0x4 MSTORE PUSH1 0x24 PUSH0 REVERT JUMPDEST PUSH0 PUSH1 0x60 DUP3 ADD SWAP1 POP PUSH2 0x201F PUSH0 DUP4 ADD DUP7 PUSH2 0x1E52 JUMP JUMPDEST PUSH2 0x202C PUSH1 0x20 DUP4 ADD DUP6 PUSH2 0x19C3 JUMP JUMPDEST PUSH2 0x2039 PUSH1 0x40 DUP4 ADD DUP5 PUSH2 0x1E52 JUMP JUMPDEST SWAP5 SWAP4 POP POP POP POP JUMP JUMPDEST PUSH32 0x566F74696E672073657373696F6E206E6F742073746172746564000000000000 PUSH0 DUP3 ADD MSTORE POP JUMP JUMPDEST PUSH0 PUSH2 0x2075 PUSH1 0x1A DUP4 PUSH2 0x1D3F JUMP JUMPDEST SWAP2 POP PUSH2 0x2080 DUP3 PUSH2 0x2041 JUMP JUMPDEST PUSH1 0x20 DUP3 ADD SWAP1 POP SWAP2 SWAP1 POP JUMP JUMPDEST PUSH0 PUSH1 0x20 DUP3 ADD SWAP1 POP DUP2 DUP2 SUB PUSH0 DUP4 ADD MSTORE PUSH2 0x20A2 DUP2 PUSH2 0x2069 JUMP JUMPDEST SWAP1 POP SWAP2 SWAP1 POP JUMP JUMPDEST PUSH32 0x6E6F20766F746573207765726520726567697374657265640000000000000000 PUSH0 DUP3 ADD MSTORE POP JUMP JUMPDEST PUSH0 PUSH2 0x20DD PUSH1 0x18 DUP4 PUSH2 0x1D3F JUMP JUMPDEST SWAP2 POP PUSH2 0x20E8 DUP3 PUSH2 0x20A9 JUMP JUMPDEST PUSH1 0x20 DUP3 ADD SWAP1 POP SWAP2 SWAP1 POP JUMP JUMPDEST PUSH0 PUSH1 0x20 DUP3 ADD SWAP1 POP DUP2 DUP2 SUB PUSH0 DUP4 ADD MSTORE PUSH2 0x210A DUP2 PUSH2 0x20D1 JUMP JUMPDEST SWAP1 POP SWAP2 SWAP1 POP JUMP JUMPDEST PUSH1 0x6 DUP2 LT PUSH2 0x2122 JUMPI PUSH2 0x2121 PUSH2 0x1E7A JUMP JUMPDEST JUMPDEST POP JUMP JUMPDEST PUSH0 DUP2 SWAP1 POP PUSH2 0x2132 DUP3 PUSH2 0x2111 JUMP JUMPDEST SWAP2 SWAP1 POP JUMP JUMPDEST PUSH0 PUSH2 0x2141 DUP3 PUSH2 0x2125 JUMP JUMPDEST SWAP1 POP SWAP2 SWAP1 POP JUMP JUMPDEST PUSH2 0x2151 DUP2 PUSH2 0x2137 JUMP JUMPDEST DUP3 MSTORE POP POP JUMP JUMPDEST PUSH0 PUSH1 0x60 DUP3 ADD SWAP1 POP PUSH2 0x216A PUSH0 DUP4 ADD DUP7 PUSH2 0x1E52 JUMP JUMPDEST PUSH2 0x2177 PUSH1 0x20 DUP4 ADD DUP6 PUSH2 0x2148 JUMP JUMPDEST PUSH2 0x2184 PUSH1 0x40 DUP4 ADD DUP5 PUSH2 0x2148 JUMP JUMPDEST SWAP5 SWAP4 POP POP POP POP JUMP JUMPDEST PUSH32 0x4E487B7100000000000000000000000000000000000000000000000000000000 PUSH0 MSTORE PUSH1 0x22 PUSH1 0x4 MSTORE PUSH1 0x24 PUSH0 REVERT JUMPDEST PUSH0 PUSH1 0x2 DUP3 DIV SWAP1 POP PUSH1 0x1 DUP3 AND DUP1 PUSH2 0x21D0 JUMPI PUSH1 0x7F DUP3 AND SWAP2 POP JUMPDEST PUSH1 0x20 DUP3 LT DUP2 SUB PUSH2 0x21E3 JUMPI PUSH2 0x21E2 PUSH2 0x218C JUMP JUMPDEST JUMPDEST POP SWAP2 SWAP1 POP JUMP JUMPDEST PUSH0 DUP2 SWAP1 POP DUP2 PUSH0 MSTORE PUSH1 0x20 PUSH0 KECCAK256 SWAP1 POP SWAP2 SWAP1 POP JUMP JUMPDEST PUSH0 PUSH1 0x20 PUSH1 0x1F DUP4 ADD DIV SWAP1 POP SWAP2 SWAP1 POP JUMP JUMPDEST PUSH0 DUP3 DUP3 SHL SWAP1 POP SWAP3 SWAP2 POP POP JUMP JUMPDEST PUSH0 PUSH1 0x8 DUP4 MUL PUSH2 0x2245 PUSH32 0xFFFFFFFFFFFFFFFFFFFFFFFFFFFFFFFFFFFFFFFFFFFFFFFFFFFFFFFFFFFFFFFF DUP3 PUSH2 0x220A JUMP JUMPDEST PUSH2 0x224F DUP7 DUP4 PUSH2 0x220A JUMP JUMPDEST SWAP6 POP DUP1 NOT DUP5 AND SWAP4 POP DUP1 DUP7 AND DUP5 OR SWAP3 POP POP POP SWAP4 SWAP3 POP POP POP JUMP JUMPDEST PUSH0 DUP2 SWAP1 POP SWAP2 SWAP1 POP JUMP JUMPDEST PUSH0 PUSH2 0x228A PUSH2 0x2285 PUSH2 0x2280 DUP5 PUSH2 0x173E JUMP JUMPDEST PUSH2 0x2267 JUMP JUMPDEST PUSH2 0x173E JUMP JUMPDEST SWAP1 POP SWAP2 SWAP1 POP JUMP JUMPDEST PUSH0 DUP2 SWAP1 POP SWAP2 SWAP1 POP JUMP JUMPDEST PUSH2 0x22A3 DUP4 PUSH2 0x2270 JUMP JUMPDEST PUSH2 0x22B7 PUSH2 0x22AF DUP3 PUSH2 0x2291 JUMP JUMPDEST DUP5 DUP5 SLOAD PUSH2 0x2216 JUMP JUMPDEST DUP3 SSTORE POP POP POP POP JUMP JUMPDEST PUSH0 PUSH0 SWAP1 POP SWAP1 JUMP JUMPDEST PUSH2 0x22CE PUSH2 0x22BF JUMP JUMPDEST PUSH2 0x22D9 DUP2 DUP5 DUP5 PUSH2 0x229A JUMP JUMPDEST POP POP POP JUMP JUMPDEST JUMPDEST DUP2 DUP2 LT ISZERO PUSH2 0x22FC JUMPI PUSH2 0x22F1 PUSH0 DUP3 PUSH2 0x22C6 JUMP JUMPDEST PUSH1 0x1 DUP2 ADD SWAP1 POP PUSH2 0x22DF JUMP JUMPDEST POP POP JUMP JUMPDEST PUSH1 0x1F DUP3 GT ISZERO PUSH2 0x2341 JUMPI PUSH2 0x2312 DUP2 PUSH2 0x21E9 JUMP JUMPDEST PUSH2 0x231B DUP5 PUSH2 0x21FB JUMP JUMPDEST DUP2 ADD PUSH1 0x20 DUP6 LT ISZERO PUSH2 0x232A JUMPI DUP2 SWAP1 POP JUMPDEST PUSH2 0x233E PUSH2 0x2336 DUP6 PUSH2 0x21FB JUMP JUMPDEST DUP4 ADD DUP3 PUSH2 0x22DE JUMP JUMPDEST POP POP JUMPDEST POP POP POP JUMP JUMPDEST PUSH0 DUP3 DUP3 SHR SWAP1 POP SWAP3 SWAP2 POP POP JUMP JUMPDEST PUSH0 PUSH2 0x2361 PUSH0 NOT DUP5 PUSH1 0x8 MUL PUSH2 0x2346 JUMP JUMPDEST NOT DUP1 DUP4 AND SWAP2 POP POP SWAP3 SWAP2 POP POP JUMP JUMPDEST PUSH0 PUSH2 0x2379 DUP4 DUP4 PUSH2 0x2352 JUMP JUMPDEST SWAP2 POP DUP3 PUSH1 0x2 MUL DUP3 OR SWAP1 POP SWAP3 SWAP2 POP POP JUMP JUMPDEST PUSH2 0x2392 DUP3 PUSH2 0x1BC2 JUMP JUMPDEST PUSH8 0xFFFFFFFFFFFFFFFF DUP2 GT ISZERO PUSH2 0x23AB JUMPI PUSH2 0x23AA PUSH2 0x17F2 JUMP JUMPDEST JUMPDEST PUSH2 0x23B5 DUP3 SLOAD PUSH2 0x21B9 JUMP JUMPDEST PUSH2 0x23C0 DUP3 DUP3 DUP6 PUSH2 0x2300 JUMP JUMPDEST PUSH0 PUSH1 0x20 SWAP1 POP PUSH1 0x1F DUP4 GT PUSH1 0x1 DUP2 EQ PUSH2 0x23F1 JUMPI PUSH0 DUP5 ISZERO PUSH2 0x23DF JUMPI DUP3 DUP8 ADD MLOAD SWAP1 POP JUMPDEST PUSH2 0x23E9 DUP6 DUP3 PUSH2 0x236E JUMP JUMPDEST DUP7 SSTORE POP PUSH2 0x2450 JUMP JUMPDEST PUSH1 0x1F NOT DUP5 AND PUSH2 0x23FF DUP7 PUSH2 0x21E9 JUMP JUMPDEST PUSH0 JUMPDEST DUP3 DUP2 LT ISZERO PUSH2 0x2426 JUMPI DUP5 DUP10 ADD MLOAD DUP3 SSTORE PUSH1 0x1 DUP3 ADD SWAP2 POP PUSH1 0x20 DUP6 ADD SWAP5 POP PUSH1 0x20 DUP2 ADD SWAP1 POP PUSH2 0x2401 JUMP JUMPDEST DUP7 DUP4 LT ISZERO PUSH2 0x2443 JUMPI DUP5 DUP10 ADD MLOAD PUSH2 0x243F PUSH1 0x1F DUP10 AND DUP3 PUSH2 0x2352 JUMP JUMPDEST DUP4 SSTORE POP JUMPDEST PUSH1 0x1 PUSH1 0x2 DUP9 MUL ADD DUP9 SSTORE POP POP POP JUMPDEST POP POP POP POP POP POP JUMP JUMPDEST PUSH0 PUSH2 0x2462 DUP3 PUSH2 0x173E JUMP JUMPDEST SWAP2 POP PUSH2 0x246D DUP4 PUSH2 0x173E JUMP JUMPDEST SWAP3 POP DUP3 DUP3 SUB SWAP1 POP DUP2 DUP2 GT ISZERO PUSH2 0x2485 JUMPI PUSH2 0x2484 PUSH2 0x1DDE JUMP JUMPDEST JUMPDEST SWAP3 SWAP2 POP POP JUMP JUMPDEST PUSH0 PUSH1 0x40 DUP3 ADD SWAP1 POP PUSH2 0x249E PUSH0 DUP4 ADD DUP6 PUSH2 0x1E52 JUMP JUMPDEST PUSH2 0x24AB PUSH1 0x20 DUP4 ADD DUP5 PUSH2 0x1E52 JUMP JUMPDEST SWAP4 SWAP3 POP POP POP JUMP JUMPDEST PUSH32 0x50726F706F73616C7320726567697374726174696F6E206E6F7420656E646564 PUSH0 DUP3 ADD MSTORE POP JUMP JUMPDEST PUSH0 PUSH2 0x24E6 PUSH1 0x20 DUP4 PUSH2 0x1D3F JUMP JUMPDEST SWAP2 POP PUSH2 0x24F1 DUP3 PUSH2 0x24B2 JUMP JUMPDEST PUSH1 0x20 DUP3 ADD SWAP1 POP SWAP2 SWAP1 POP JUMP JUMPDEST PUSH0 PUSH1 0x20 DUP3 ADD SWAP1 POP DUP2 DUP2 SUB PUSH0 DUP4 ADD MSTORE PUSH2 0x2513 DUP2 PUSH2 0x24DA JUMP JUMPDEST SWAP1 POP SWAP2 SWAP1 POP JUMP JUMPDEST PUSH32 0x50726F706F73616C7320726567697374726174696F6E206E6F74207374617274 PUSH0 DUP3 ADD MSTORE PUSH32 0x6564000000000000000000000000000000000000000000000000000000000000 PUSH1 0x20 DUP3 ADD MSTORE POP JUMP JUMPDEST PUSH0 PUSH2 0x2574 PUSH1 0x22 DUP4 PUSH2 0x1D3F JUMP JUMPDEST SWAP2 POP PUSH2 0x257F DUP3 PUSH2 0x251A JUMP JUMPDEST PUSH1 0x40 DUP3 ADD SWAP1 POP SWAP2 SWAP1 POP JUMP JUMPDEST PUSH0 PUSH1 0x20 DUP3 ADD SWAP1 POP DUP2 DUP2 SUB PUSH0 DUP4 ADD MSTORE PUSH2 0x25A1 DUP2 PUSH2 0x2568 JUMP JUMPDEST SWAP1 POP SWAP2 SWAP1 POP JUMP JUMPDEST PUSH32 0x6E6F2070726F706F73616C732077657265207265676973746572656400000000 PUSH0 DUP3 ADD MSTORE POP JUMP JUMPDEST PUSH0 PUSH2 0x25DC PUSH1 0x1C DUP4 PUSH2 0x1D3F JUMP JUMPDEST SWAP2 POP PUSH2 0x25E7 DUP3 PUSH2 0x25A8 JUMP JUMPDEST PUSH1 0x20 DUP3 ADD SWAP1 POP SWAP2 SWAP1 POP JUMP JUMPDEST PUSH0 PUSH1 0x20 DUP3 ADD SWAP1 POP DUP2 DUP2 SUB PUSH0 DUP4 ADD MSTORE PUSH2 0x2609 DUP2 PUSH2 0x25D0 JUMP JUMPDEST SWAP1 POP SWAP2 SWAP1 POP JUMP JUMPDEST PUSH32 0x566F74696E672073657373696F6E20646964206E6F7420656E64000000000000 PUSH0 DUP3 ADD MSTORE POP JUMP JUMPDEST PUSH0 PUSH2 0x2644 PUSH1 0x1A DUP4 PUSH2 0x1D3F JUMP JUMPDEST SWAP2 POP PUSH2 0x264F DUP3 PUSH2 0x2610 JUMP JUMPDEST PUSH1 0x20 DUP3 ADD SWAP1 POP SWAP2 SWAP1 POP JUMP JUMPDEST PUSH0 PUSH1 0x20 DUP3 ADD SWAP1 POP DUP2 DUP2 SUB PUSH0 DUP4 ADD MSTORE PUSH2 0x2671 DUP2 PUSH2 0x2638 JUMP JUMPDEST SWAP1 POP SWAP2 SWAP1 POP JUMP INVALID LOG2 PUSH5 0x6970667358 0x22 SLT KECCAK256 0xEA ADDRESS 0xCB 0x28 NUMBER 0x2E PUSH1 0xC0 0x2A PUSH9 0x22F0B623DAD603B5D7 GASLIMIT PUSH25 0x358D5DCD20396767276A6864736F6C634300081E0033000000 "
				},
				"gasEstimates": {
					"creation": {
						"codeDepositCost": "1980400",
						"executionCost": "infinite",
						"totalCost": "infinite"
					},
					"external": {
						"computeMostVotedProposal(uint256)": "infinite",
						"createSession()": "infinite",
						"endProposalsRegistration(uint256)": "infinite",
						"endVotingSession(uint256)": "infinite",
						"getAllProposalsBySession(uint256)": "infinite",
						"isWhitelisted(address)": "2915",
						"owner()": "2537",
						"renewSession((string,address,uint256)[])": "infinite",
						"renounceOwnership()": "infinite",
						"sendNewProposition(uint256,string)": "infinite",
						"sendVote(uint256,uint256)": "infinite",
						"startProposalsRegistration(uint256)": "infinite",
						"startVotingSession(uint256)": "infinite",
						"transferOwnership(address)": "infinite",
						"updateWhitelist(address,bool)": "infinite",
						"whitelist(address)": "2900"
					}
				},
				"methodIdentifiers": {
					"computeMostVotedProposal(uint256)": "d6a10dcb",
					"createSession()": "1cbf1b02",
					"endProposalsRegistration(uint256)": "d1ff7eeb",
					"endVotingSession(uint256)": "35bb3d30",
					"getAllProposalsBySession(uint256)": "f38d3af8",
					"isWhitelisted(address)": "3af32abf",
					"owner()": "8da5cb5b",
					"renewSession((string,address,uint256)[])": "b9ea5dee",
					"renounceOwnership()": "715018a6",
					"sendNewProposition(uint256,string)": "371820e9",
					"sendVote(uint256,uint256)": "291e6777",
					"startProposalsRegistration(uint256)": "8bc6a6dd",
					"startVotingSession(uint256)": "9980a55a",
					"transferOwnership(address)": "f2fde38b",
					"updateWhitelist(address,bool)": "0d392cd9",
					"whitelist(address)": "9b19251a"
				}
			},
			"storageLayout": {
				"storage": [
					{
						"astId": 691,
						"contract": "contracts/VotingSessions.sol:Voting",
						"label": "_owner",
						"offset": 0,
						"slot": "0",
						"type": "t_address"
					},
					{
						"astId": 40,
						"contract": "contracts/VotingSessions.sol:Voting",
						"label": "whitelist",
						"offset": 0,
						"slot": "1",
						"type": "t_mapping(t_address,t_bool)"
					},
					{
						"astId": 45,
						"contract": "contracts/VotingSessions.sol:Voting",
						"label": "sessions",
						"offset": 0,
						"slot": "2",
						"type": "t_mapping(t_uint256,t_struct(Session)36_storage)"
					},
					{
						"astId": 47,
						"contract": "contracts/VotingSessions.sol:Voting",
						"label": "sessionIdCounter",
						"offset": 0,
						"slot": "3",
						"type": "t_uint256"
					}
				],
				"types": {
					"t_address": {
						"encoding": "inplace",
						"label": "address",
						"numberOfBytes": "20"
					},
					"t_array(t_struct(Proposal)18_storage)dyn_storage": {
						"base": "t_struct(Proposal)18_storage",
						"encoding": "dynamic_array",
						"label": "struct Voting.Proposal[]",
						"numberOfBytes": "32"
					},
					"t_bool": {
						"encoding": "inplace",
						"label": "bool",
						"numberOfBytes": "1"
					},
					"t_enum(WorkflowStatus)11": {
						"encoding": "inplace",
						"label": "enum Voting.WorkflowStatus",
						"numberOfBytes": "1"
					},
					"t_mapping(t_address,t_bool)": {
						"encoding": "mapping",
						"key": "t_address",
						"label": "mapping(address => bool)",
						"numberOfBytes": "32",
						"value": "t_bool"
					},
					"t_mapping(t_uint256,t_struct(Session)36_storage)": {
						"encoding": "mapping",
						"key": "t_uint256",
						"label": "mapping(uint256 => struct Voting.Session)",
						"numberOfBytes": "32",
						"value": "t_struct(Session)36_storage"
					},
					"t_string_storage": {
						"encoding": "bytes",
						"label": "string",
						"numberOfBytes": "32"
					},
					"t_struct(Proposal)18_storage": {
						"encoding": "inplace",
						"label": "struct Voting.Proposal",
						"members": [
							{
								"astId": 13,
								"contract": "contracts/VotingSessions.sol:Voting",
								"label": "description",
								"offset": 0,
								"slot": "0",
								"type": "t_string_storage"
							},
							{
								"astId": 15,
								"contract": "contracts/VotingSessions.sol:Voting",
								"label": "submitter",
								"offset": 0,
								"slot": "1",
								"type": "t_address"
							},
							{
								"astId": 17,
								"contract": "contracts/VotingSessions.sol:Voting",
								"label": "voteCount",
								"offset": 0,
								"slot": "2",
								"type": "t_uint256"
							}
						],
						"numberOfBytes": "96"
					},
					"t_struct(Session)36_storage": {
						"encoding": "inplace",
						"label": "struct Voting.Session",
						"members": [
							{
								"astId": 20,
								"contract": "contracts/VotingSessions.sol:Voting",
								"label": "id",
								"offset": 0,
								"slot": "0",
								"type": "t_uint256"
							},
							{
								"astId": 23,
								"contract": "contracts/VotingSessions.sol:Voting",
								"label": "workflowStatus",
								"offset": 0,
								"slot": "1",
								"type": "t_enum(WorkflowStatus)11"
							},
							{
								"astId": 25,
								"contract": "contracts/VotingSessions.sol:Voting",
								"label": "winningProposalIndex",
								"offset": 0,
								"slot": "2",
								"type": "t_uint256"
							},
							{
								"astId": 27,
								"contract": "contracts/VotingSessions.sol:Voting",
								"label": "highestVoteCount",
								"offset": 0,
								"slot": "3",
								"type": "t_uint256"
							},
							{
								"astId": 31,
								"contract": "contracts/VotingSessions.sol:Voting",
								"label": "proposals",
								"offset": 0,
								"slot": "4",
								"type": "t_array(t_struct(Proposal)18_storage)dyn_storage"
							},
							{
								"astId": 35,
								"contract": "contracts/VotingSessions.sol:Voting",
								"label": "hasVoted",
								"offset": 0,
								"slot": "5",
								"type": "t_mapping(t_address,t_bool)"
							}
						],
						"numberOfBytes": "192"
					},
					"t_uint256": {
						"encoding": "inplace",
						"label": "uint256",
						"numberOfBytes": "32"
					}
				}
			},
			"userdoc": {
				"kind": "user",
				"methods": {},
				"version": 1
			}
		}
	}
}