{
	"contracts/12_VotingV2.sol": {
		"Voting": {
			"abi": [
				{
					"inputs": [],
					"stateMutability": "nonpayable",
					"type": "constructor"
				},
				{
					"inputs": [
						{
							"internalType": "address",
							"name": "owner",
							"type": "address"
						}
					],
					"name": "OwnableInvalidOwner",
					"type": "error"
				},
				{
					"inputs": [
						{
							"internalType": "address",
							"name": "account",
							"type": "address"
						}
					],
					"name": "OwnableUnauthorizedAccount",
					"type": "error"
				},
				{
					"anonymous": false,
					"inputs": [
						{
							"indexed": true,
							"internalType": "address",
							"name": "previousOwner",
							"type": "address"
						},
						{
							"indexed": true,
							"internalType": "address",
							"name": "newOwner",
							"type": "address"
						}
					],
					"name": "OwnershipTransferred",
					"type": "event"
				},
				{
					"anonymous": false,
					"inputs": [
						{
							"indexed": false,
							"internalType": "uint256",
							"name": "proposalId",
							"type": "uint256"
						}
					],
					"name": "ProposalRegistered",
					"type": "event"
				},
				{
					"anonymous": false,
					"inputs": [
						{
							"indexed": false,
							"internalType": "uint256",
							"name": "sessionId",
							"type": "uint256"
						}
					],
					"name": "SessionCreated",
					"type": "event"
				},
				{
					"anonymous": false,
					"inputs": [
						{
							"indexed": false,
							"internalType": "address",
							"name": "voter",
							"type": "address"
						},
						{
							"indexed": false,
							"internalType": "uint256",
							"name": "proposalId",
							"type": "uint256"
						}
					],
					"name": "Voted",
					"type": "event"
				},
				{
					"anonymous": false,
					"inputs": [
						{
							"indexed": false,
							"internalType": "address",
							"name": "voterAddress",
							"type": "address"
						}
					],
					"name": "VoterRegistered",
					"type": "event"
				},
				{
					"anonymous": false,
					"inputs": [
						{
							"indexed": false,
							"internalType": "address",
							"name": "voterAddress",
							"type": "address"
						}
					],
					"name": "VoterUnregistered",
					"type": "event"
				},
				{
					"anonymous": false,
					"inputs": [
						{
							"indexed": false,
							"internalType": "enum Voting.WorkflowStatus",
							"name": "previousStatus",
							"type": "uint8"
						},
						{
							"indexed": false,
							"internalType": "enum Voting.WorkflowStatus",
							"name": "newStatus",
							"type": "uint8"
						}
					],
					"name": "WorkflowStatusChange",
					"type": "event"
				},
				{
					"inputs": [],
					"name": "computeMostVotedProposal",
					"outputs": [],
					"stateMutability": "nonpayable",
					"type": "function"
				},
				{
					"inputs": [],
					"name": "createVotingSession",
					"outputs": [],
					"stateMutability": "nonpayable",
					"type": "function"
				},
				{
					"inputs": [],
					"name": "currentVotingSessionId",
					"outputs": [
						{
							"internalType": "uint256",
							"name": "",
							"type": "uint256"
						}
					],
					"stateMutability": "view",
					"type": "function"
				},
				{
					"inputs": [],
					"name": "endProposalsRegistration",
					"outputs": [],
					"stateMutability": "nonpayable",
					"type": "function"
				},
				{
					"inputs": [],
					"name": "endVotingSession",
					"outputs": [],
					"stateMutability": "nonpayable",
					"type": "function"
				},
				{
					"inputs": [
						{
							"internalType": "uint256",
							"name": "_sessiondId",
							"type": "uint256"
						}
					],
					"name": "getAllProposalsBySession",
					"outputs": [
						{
							"components": [
								{
									"internalType": "uint256",
									"name": "id",
									"type": "uint256"
								},
								{
									"internalType": "string",
									"name": "description",
									"type": "string"
								},
								{
									"internalType": "uint256",
									"name": "voteCount",
									"type": "uint256"
								}
							],
							"internalType": "struct Voting.Proposal[]",
							"name": "",
							"type": "tuple[]"
						}
					],
					"stateMutability": "view",
					"type": "function"
				},
				{
					"inputs": [],
					"name": "getAllProposalsFromCurrentSession",
					"outputs": [
						{
							"components": [
								{
									"internalType": "uint256",
									"name": "id",
									"type": "uint256"
								},
								{
									"internalType": "string",
									"name": "description",
									"type": "string"
								},
								{
									"internalType": "uint256",
									"name": "voteCount",
									"type": "uint256"
								}
							],
							"internalType": "struct Voting.Proposal[]",
							"name": "",
							"type": "tuple[]"
						}
					],
					"stateMutability": "view",
					"type": "function"
				},
				{
					"inputs": [],
					"name": "getCurrentSession",
					"outputs": [
						{
							"components": [
								{
									"internalType": "enum Voting.WorkflowStatus",
									"name": "workflowStatus",
									"type": "uint8"
								},
								{
									"internalType": "uint256",
									"name": "winningProposalId",
									"type": "uint256"
								},
								{
									"components": [
										{
											"internalType": "uint256",
											"name": "id",
											"type": "uint256"
										},
										{
											"internalType": "string",
											"name": "description",
											"type": "string"
										},
										{
											"internalType": "uint256",
											"name": "voteCount",
											"type": "uint256"
										}
									],
									"internalType": "struct Voting.Proposal[]",
									"name": "proposals",
									"type": "tuple[]"
								}
							],
							"internalType": "struct Voting.VotingSession",
							"name": "",
							"type": "tuple"
						}
					],
					"stateMutability": "view",
					"type": "function"
				},
				{
					"inputs": [
						{
							"internalType": "uint256",
							"name": "_sessionId",
							"type": "uint256"
						}
					],
					"name": "getWinningProposalBySession",
					"outputs": [
						{
							"components": [
								{
									"internalType": "enum Voting.WorkflowStatus",
									"name": "workflowStatus",
									"type": "uint8"
								},
								{
									"internalType": "uint256",
									"name": "winningProposalId",
									"type": "uint256"
								},
								{
									"components": [
										{
											"internalType": "uint256",
											"name": "id",
											"type": "uint256"
										},
										{
											"internalType": "string",
											"name": "description",
											"type": "string"
										},
										{
											"internalType": "uint256",
											"name": "voteCount",
											"type": "uint256"
										}
									],
									"internalType": "struct Voting.Proposal[]",
									"name": "proposals",
									"type": "tuple[]"
								}
							],
							"internalType": "struct Voting.VotingSession",
							"name": "",
							"type": "tuple"
						}
					],
					"stateMutability": "view",
					"type": "function"
				},
				{
					"inputs": [],
					"name": "owner",
					"outputs": [
						{
							"internalType": "address",
							"name": "",
							"type": "address"
						}
					],
					"stateMutability": "view",
					"type": "function"
				},
				{
					"inputs": [
						{
							"internalType": "address",
							"name": "_address",
							"type": "address"
						}
					],
					"name": "registerVoter",
					"outputs": [],
					"stateMutability": "nonpayable",
					"type": "function"
				},
				{
					"inputs": [],
					"name": "renounceOwnership",
					"outputs": [],
					"stateMutability": "nonpayable",
					"type": "function"
				},
				{
					"inputs": [
						{
							"internalType": "string",
							"name": "_description",
							"type": "string"
						}
					],
					"name": "sendNewProposition",
					"outputs": [],
					"stateMutability": "nonpayable",
					"type": "function"
				},
				{
					"inputs": [
						{
							"internalType": "uint256",
							"name": "_proposalId",
							"type": "uint256"
						}
					],
					"name": "sendVote",
					"outputs": [],
					"stateMutability": "nonpayable",
					"type": "function"
				},
				{
					"inputs": [],
					"name": "startProposalsRegistration",
					"outputs": [],
					"stateMutability": "nonpayable",
					"type": "function"
				},
				{
					"inputs": [],
					"name": "startVotingSession",
					"outputs": [],
					"stateMutability": "nonpayable",
					"type": "function"
				},
				{
					"inputs": [
						{
							"internalType": "address",
							"name": "newOwner",
							"type": "address"
						}
					],
					"name": "transferOwnership",
					"outputs": [],
					"stateMutability": "nonpayable",
					"type": "function"
				},
				{
					"inputs": [
						{
							"internalType": "address",
							"name": "_address",
							"type": "address"
						}
					],
					"name": "unregisterVoter",
					"outputs": [],
					"stateMutability": "nonpayable",
					"type": "function"
				},
				{
					"inputs": [
						{
							"internalType": "address",
							"name": "",
							"type": "address"
						}
					],
					"name": "voters",
					"outputs": [
						{
							"internalType": "bool",
							"name": "isRegistered",
							"type": "bool"
						}
					],
					"stateMutability": "view",
					"type": "function"
				},
				{
					"inputs": [
						{
							"internalType": "uint256",
							"name": "",
							"type": "uint256"
						}
					],
					"name": "votingSessions",
					"outputs": [
						{
							"internalType": "enum Voting.WorkflowStatus",
							"name": "workflowStatus",
							"type": "uint8"
						},
						{
							"internalType": "uint256",
							"name": "winningProposalId",
							"type": "uint256"
						}
					],
					"stateMutability": "view",
					"type": "function"
				}
			],
			"devdoc": {
				"errors": {
					"OwnableInvalidOwner(address)": [
						{
							"details": "The owner is not a valid owner account. (eg. `address(0)`)"
						}
					],
					"OwnableUnauthorizedAccount(address)": [
						{
							"details": "The caller account is not authorized to perform an operation."
						}
					]
				},
				"kind": "dev",
				"methods": {
					"owner()": {
						"details": "Returns the address of the current owner."
					},
					"renounceOwnership()": {
						"details": "Leaves the contract without owner. It will not be possible to call `onlyOwner` functions. Can only be called by the current owner. NOTE: Renouncing ownership will leave the contract without an owner, thereby disabling any functionality that is only available to the owner."
					},
					"transferOwnership(address)": {
						"details": "Transfers ownership of the contract to a new account (`newOwner`). Can only be called by the current owner."
					}
				},
				"version": 1
			},
			"evm": {
				"assembly": "    /* \"contracts/12_VotingV2.sol\":165:7145  contract Voting is Ownable {... */\n  mstore(0x40, 0x80)\n    /* \"contracts/12_VotingV2.sol\":1254:1294  constructor() Ownable(msg.sender){... */\n  callvalue\n  dup1\n  iszero\n  tag_1\n  jumpi\n  revert(0x00, 0x00)\ntag_1:\n  pop\n    /* \"contracts/12_VotingV2.sol\":1276:1286  msg.sender */\n  caller\n    /* \"https://github.com/OpenZeppelin/openzeppelin-contracts/blob/master/contracts/access/Ownable.sol\":1297:1298  0 */\n  0x00\n    /* \"https://github.com/OpenZeppelin/openzeppelin-contracts/blob/master/contracts/access/Ownable.sol\":1273:1299  initialOwner == address(0) */\n  0xffffffffffffffffffffffffffffffffffffffff\n  and\n    /* \"https://github.com/OpenZeppelin/openzeppelin-contracts/blob/master/contracts/access/Ownable.sol\":1273:1285  initialOwner */\n  dup2\n    /* \"https://github.com/OpenZeppelin/openzeppelin-contracts/blob/master/contracts/access/Ownable.sol\":1273:1299  initialOwner == address(0) */\n  0xffffffffffffffffffffffffffffffffffffffff\n  and\n  sub\n    /* \"https://github.com/OpenZeppelin/openzeppelin-contracts/blob/master/contracts/access/Ownable.sol\":1269:1364  if (initialOwner == address(0)) {... */\n  tag_5\n  jumpi\n    /* \"https://github.com/OpenZeppelin/openzeppelin-contracts/blob/master/contracts/access/Ownable.sol\":1350:1351  0 */\n  0x00\n    /* \"https://github.com/OpenZeppelin/openzeppelin-contracts/blob/master/contracts/access/Ownable.sol\":1322:1353  OwnableInvalidOwner(address(0)) */\n  mload(0x40)\n  0x1e4fbdf700000000000000000000000000000000000000000000000000000000\n  dup2\n  mstore\n  0x04\n  add\n  tag_6\n  swap2\n  swap1\n  tag_7\n  jump\t// in\ntag_6:\n  mload(0x40)\n  dup1\n  swap2\n  sub\n  swap1\n  revert\n    /* \"https://github.com/OpenZeppelin/openzeppelin-contracts/blob/master/contracts/access/Ownable.sol\":1269:1364  if (initialOwner == address(0)) {... */\ntag_5:\n    /* \"https://github.com/OpenZeppelin/openzeppelin-contracts/blob/master/contracts/access/Ownable.sol\":1373:1405  _transferOwnership(initialOwner) */\n  tag_8\n    /* \"https://github.com/OpenZeppelin/openzeppelin-contracts/blob/master/contracts/access/Ownable.sol\":1392:1404  initialOwner */\n  dup2\n    /* \"https://github.com/OpenZeppelin/openzeppelin-contracts/blob/master/contracts/access/Ownable.sol\":1373:1391  _transferOwnership */\n  shl(0x20, tag_9)\n    /* \"https://github.com/OpenZeppelin/openzeppelin-contracts/blob/master/contracts/access/Ownable.sol\":1373:1405  _transferOwnership(initialOwner) */\n  0x20\n  shr\n  jump\t// in\ntag_8:\n    /* \"https://github.com/OpenZeppelin/openzeppelin-contracts/blob/master/contracts/access/Ownable.sol\":1225:1412  constructor(address initialOwner) {... */\n  pop\n    /* \"contracts/12_VotingV2.sol\":165:7145  contract Voting is Ownable {... */\n  jump(tag_11)\n    /* \"https://github.com/OpenZeppelin/openzeppelin-contracts/blob/master/contracts/access/Ownable.sol\":2912:3099  function _transferOwnership(address newOwner) internal virtual {... */\ntag_9:\n    /* \"https://github.com/OpenZeppelin/openzeppelin-contracts/blob/master/contracts/access/Ownable.sol\":2985:3001  address oldOwner */\n  0x00\n    /* \"https://github.com/OpenZeppelin/openzeppelin-contracts/blob/master/contracts/access/Ownable.sol\":3004:3010  _owner */\n  0x00\n  0x00\n  swap1\n  sload\n  swap1\n  0x0100\n  exp\n  swap1\n  div\n  0xffffffffffffffffffffffffffffffffffffffff\n  and\n    /* \"https://github.com/OpenZeppelin/openzeppelin-contracts/blob/master/contracts/access/Ownable.sol\":2985:3010  address oldOwner = _owner */\n  swap1\n  pop\n    /* \"https://github.com/OpenZeppelin/openzeppelin-contracts/blob/master/contracts/access/Ownable.sol\":3029:3037  newOwner */\n  dup2\n    /* \"https://github.com/OpenZeppelin/openzeppelin-contracts/blob/master/contracts/access/Ownable.sol\":3020:3026  _owner */\n  0x00\n  0x00\n    /* \"https://github.com/OpenZeppelin/openzeppelin-contracts/blob/master/contracts/access/Ownable.sol\":3020:3037  _owner = newOwner */\n  0x0100\n  exp\n  dup2\n  sload\n  dup2\n  0xffffffffffffffffffffffffffffffffffffffff\n  mul\n  not\n  and\n  swap1\n  dup4\n  0xffffffffffffffffffffffffffffffffffffffff\n  and\n  mul\n  or\n  swap1\n  sstore\n  pop\n    /* \"https://github.com/OpenZeppelin/openzeppelin-contracts/blob/master/contracts/access/Ownable.sol\":3083:3091  newOwner */\n  dup2\n    /* \"https://github.com/OpenZeppelin/openzeppelin-contracts/blob/master/contracts/access/Ownable.sol\":3052:3092  OwnershipTransferred(oldOwner, newOwner) */\n  0xffffffffffffffffffffffffffffffffffffffff\n  and\n    /* \"https://github.com/OpenZeppelin/openzeppelin-contracts/blob/master/contracts/access/Ownable.sol\":3073:3081  oldOwner */\n  dup2\n    /* \"https://github.com/OpenZeppelin/openzeppelin-contracts/blob/master/contracts/access/Ownable.sol\":3052:3092  OwnershipTransferred(oldOwner, newOwner) */\n  0xffffffffffffffffffffffffffffffffffffffff\n  and\n  0x8be0079c531659141344cd1fd0a4f28419497f9722a3daafe3b4186f6b6457e0\n  mload(0x40)\n  mload(0x40)\n  dup1\n  swap2\n  sub\n  swap1\n  log3\n    /* \"https://github.com/OpenZeppelin/openzeppelin-contracts/blob/master/contracts/access/Ownable.sol\":2975:3099  {... */\n  pop\n    /* \"https://github.com/OpenZeppelin/openzeppelin-contracts/blob/master/contracts/access/Ownable.sol\":2912:3099  function _transferOwnership(address newOwner) internal virtual {... */\n  pop\n  jump\t// out\n    /* \"#utility.yul\":7:133   */\ntag_13:\n    /* \"#utility.yul\":44:51   */\n  0x00\n    /* \"#utility.yul\":84:126   */\n  0xffffffffffffffffffffffffffffffffffffffff\n    /* \"#utility.yul\":77:82   */\n  dup3\n    /* \"#utility.yul\":73:127   */\n  and\n    /* \"#utility.yul\":62:127   */\n  swap1\n  pop\n    /* \"#utility.yul\":7:133   */\n  swap2\n  swap1\n  pop\n  jump\t// out\n    /* \"#utility.yul\":139:235   */\ntag_14:\n    /* \"#utility.yul\":176:183   */\n  0x00\n    /* \"#utility.yul\":205:229   */\n  tag_19\n    /* \"#utility.yul\":223:228   */\n  dup3\n    /* \"#utility.yul\":205:229   */\n  tag_13\n  jump\t// in\ntag_19:\n    /* \"#utility.yul\":194:229   */\n  swap1\n  pop\n    /* \"#utility.yul\":139:235   */\n  swap2\n  swap1\n  pop\n  jump\t// out\n    /* \"#utility.yul\":241:359   */\ntag_15:\n    /* \"#utility.yul\":328:352   */\n  tag_21\n    /* \"#utility.yul\":346:351   */\n  dup2\n    /* \"#utility.yul\":328:352   */\n  tag_14\n  jump\t// in\ntag_21:\n    /* \"#utility.yul\":323:326   */\n  dup3\n    /* \"#utility.yul\":316:353   */\n  mstore\n    /* \"#utility.yul\":241:359   */\n  pop\n  pop\n  jump\t// out\n    /* \"#utility.yul\":365:587   */\ntag_7:\n    /* \"#utility.yul\":458:462   */\n  0x00\n    /* \"#utility.yul\":496:498   */\n  0x20\n    /* \"#utility.yul\":485:494   */\n  dup3\n    /* \"#utility.yul\":481:499   */\n  add\n    /* \"#utility.yul\":473:499   */\n  swap1\n  pop\n    /* \"#utility.yul\":509:580   */\n  tag_23\n    /* \"#utility.yul\":577:578   */\n  0x00\n    /* \"#utility.yul\":566:575   */\n  dup4\n    /* \"#utility.yul\":562:579   */\n  add\n    /* \"#utility.yul\":553:559   */\n  dup5\n    /* \"#utility.yul\":509:580   */\n  tag_15\n  jump\t// in\ntag_23:\n    /* \"#utility.yul\":365:587   */\n  swap3\n  swap2\n  pop\n  pop\n  jump\t// out\n    /* \"contracts/12_VotingV2.sol\":165:7145  contract Voting is Ownable {... */\ntag_11:\n  dataSize(sub_0)\n  dup1\n  dataOffset(sub_0)\n  0x00\n  codecopy\n  0x00\n  return\nstop\n\nsub_0: assembly {\n        /* \"contracts/12_VotingV2.sol\":165:7145  contract Voting is Ownable {... */\n      mstore(0x40, 0x80)\n      callvalue\n      dup1\n      iszero\n      tag_1\n      jumpi\n      revert(0x00, 0x00)\n    tag_1:\n      pop\n      jumpi(tag_2, lt(calldatasize, 0x04))\n      shr(0xe0, calldataload(0x00))\n      dup1\n      0x895d0faf\n      gt\n      tag_23\n      jumpi\n      dup1\n      0xc8f5714e\n      gt\n      tag_24\n      jumpi\n      dup1\n      0xc8f5714e\n      eq\n      tag_18\n      jumpi\n      dup1\n      0xe09b8c79\n      eq\n      tag_19\n      jumpi\n      dup1\n      0xee74c678\n      eq\n      tag_20\n      jumpi\n      dup1\n      0xf2fde38b\n      eq\n      tag_21\n      jumpi\n      dup1\n      0xf38d3af8\n      eq\n      tag_22\n      jumpi\n      jump(tag_2)\n    tag_24:\n      dup1\n      0x895d0faf\n      eq\n      tag_13\n      jumpi\n      dup1\n      0x8da5cb5b\n      eq\n      tag_14\n      jumpi\n      dup1\n      0x9bdfef30\n      eq\n      tag_15\n      jumpi\n      dup1\n      0xa3ec138d\n      eq\n      tag_16\n      jumpi\n      dup1\n      0xa7bfab16\n      eq\n      tag_17\n      jumpi\n      jump(tag_2)\n    tag_23:\n      dup1\n      0x58fb94ec\n      gt\n      tag_25\n      jumpi\n      dup1\n      0x58fb94ec\n      eq\n      tag_8\n      jumpi\n      dup1\n      0x640be567\n      eq\n      tag_9\n      jumpi\n      dup1\n      0x6c297445\n      eq\n      tag_10\n      jumpi\n      dup1\n      0x715018a6\n      eq\n      tag_11\n      jumpi\n      dup1\n      0x7ed17751\n      eq\n      tag_12\n      jumpi\n      jump(tag_2)\n    tag_25:\n      dup1\n      0x0a936e3a\n      eq\n      tag_3\n      jumpi\n      dup1\n      0x1186eb7c\n      eq\n      tag_4\n      jumpi\n      dup1\n      0x1401795f\n      eq\n      tag_5\n      jumpi\n      dup1\n      0x38db6dd3\n      eq\n      tag_6\n      jumpi\n      dup1\n      0x45bf58fd\n      eq\n      tag_7\n      jumpi\n    tag_2:\n      revert(0x00, 0x00)\n        /* \"contracts/12_VotingV2.sol\":1569:1809  function createVotingSession() public onlyOwner {... */\n    tag_3:\n      tag_26\n      tag_27\n      jump\t// in\n    tag_26:\n      stop\n        /* \"contracts/12_VotingV2.sol\":263:315  mapping(uint => VotingSession) public votingSessions */\n    tag_4:\n      tag_28\n      0x04\n      dup1\n      calldatasize\n      sub\n      dup2\n      add\n      swap1\n      tag_29\n      swap2\n      swap1\n      tag_30\n      jump\t// in\n    tag_29:\n      tag_31\n      jump\t// in\n    tag_28:\n      mload(0x40)\n      tag_32\n      swap3\n      swap2\n      swap1\n      tag_33\n      jump\t// in\n    tag_32:\n      mload(0x40)\n      dup1\n      swap2\n      sub\n      swap1\n      return\n        /* \"contracts/12_VotingV2.sol\":1429:1563  function getCurrentSession() public view returns (VotingSession memory) {... */\n    tag_5:\n      tag_34\n      tag_35\n      jump\t// in\n    tag_34:\n      mload(0x40)\n      tag_36\n      swap2\n      swap1\n      tag_37\n      jump\t// in\n    tag_36:\n      mload(0x40)\n      dup1\n      swap2\n      sub\n      swap1\n      return\n        /* \"contracts/12_VotingV2.sol\":1815:2242  function registerVoter(address _address) public onlyOwner {... */\n    tag_6:\n      tag_38\n      0x04\n      dup1\n      calldatasize\n      sub\n      dup2\n      add\n      swap1\n      tag_39\n      swap2\n      swap1\n      tag_40\n      jump\t// in\n    tag_39:\n      tag_41\n      jump\t// in\n    tag_38:\n      stop\n        /* \"contracts/12_VotingV2.sol\":3147:3846  function sendNewProposition(string memory _description) public onlyIfRegistered {... */\n    tag_7:\n      tag_42\n      0x04\n      dup1\n      calldatasize\n      sub\n      dup2\n      add\n      swap1\n      tag_43\n      swap2\n      swap1\n      tag_44\n      jump\t// in\n    tag_43:\n      tag_45\n      jump\t// in\n    tag_42:\n      stop\n        /* \"contracts/12_VotingV2.sol\":6652:6800  function getWinningProposalBySession(uint _sessionId) external view returns(VotingSession memory) {... */\n    tag_8:\n      tag_46\n      0x04\n      dup1\n      calldatasize\n      sub\n      dup2\n      add\n      swap1\n      tag_47\n      swap2\n      swap1\n      tag_30\n      jump\t// in\n    tag_47:\n      tag_48\n      jump\t// in\n    tag_46:\n      mload(0x40)\n      tag_49\n      swap2\n      swap1\n      tag_37\n      jump\t// in\n    tag_49:\n      mload(0x40)\n      dup1\n      swap2\n      sub\n      swap1\n      return\n        /* \"contracts/12_VotingV2.sol\":6967:7143  function getAllProposalsFromCurrentSession() public view returns (Proposal[] memory) {... */\n    tag_9:\n      tag_50\n      tag_51\n      jump\t// in\n    tag_50:\n      mload(0x40)\n      tag_52\n      swap2\n      swap1\n      tag_53\n      jump\t// in\n    tag_52:\n      mload(0x40)\n      dup1\n      swap2\n      sub\n      swap1\n      return\n        /* \"contracts/12_VotingV2.sol\":3852:4336  function endProposalsRegistration() public onlyOwner {... */\n    tag_10:\n      tag_54\n      tag_55\n      jump\t// in\n    tag_54:\n      stop\n        /* \"https://github.com/OpenZeppelin/openzeppelin-contracts/blob/master/contracts/access/Ownable.sol\":2293:2394  function renounceOwnership() public virtual onlyOwner {... */\n    tag_11:\n      tag_56\n      tag_57\n      jump\t// in\n    tag_56:\n      stop\n        /* \"contracts/12_VotingV2.sol\":2248:2681  function unregisterVoter(address _address) public onlyOwner {... */\n    tag_12:\n      tag_58\n      0x04\n      dup1\n      calldatasize\n      sub\n      dup2\n      add\n      swap1\n      tag_59\n      swap2\n      swap1\n      tag_40\n      jump\t// in\n    tag_59:\n      tag_60\n      jump\t// in\n    tag_58:\n      stop\n        /* \"contracts/12_VotingV2.sol\":5873:6646  function computeMostVotedProposal() public {... */\n    tag_13:\n      tag_61\n      tag_62\n      jump\t// in\n    tag_61:\n      stop\n        /* \"https://github.com/OpenZeppelin/openzeppelin-contracts/blob/master/contracts/access/Ownable.sol\":1638:1723  function owner() public view virtual returns (address) {... */\n    tag_14:\n      tag_63\n      tag_64\n      jump\t// in\n    tag_63:\n      mload(0x40)\n      tag_65\n      swap2\n      swap1\n      tag_66\n      jump\t// in\n    tag_65:\n      mload(0x40)\n      dup1\n      swap2\n      sub\n      swap1\n      return\n        /* \"contracts/12_VotingV2.sol\":198:232  uint public currentVotingSessionId */\n    tag_15:\n      tag_67\n      tag_68\n      jump\t// in\n    tag_67:\n      mload(0x40)\n      tag_69\n      swap2\n      swap1\n      tag_70\n      jump\t// in\n    tag_69:\n      mload(0x40)\n      dup1\n      swap2\n      sub\n      swap1\n      return\n        /* \"contracts/12_VotingV2.sol\":321:360  mapping(address => Voter) public voters */\n    tag_16:\n      tag_71\n      0x04\n      dup1\n      calldatasize\n      sub\n      dup2\n      add\n      swap1\n      tag_72\n      swap2\n      swap1\n      tag_40\n      jump\t// in\n    tag_72:\n      tag_73\n      jump\t// in\n    tag_71:\n      mload(0x40)\n      tag_74\n      swap2\n      swap1\n      tag_75\n      jump\t// in\n    tag_74:\n      mload(0x40)\n      dup1\n      swap2\n      sub\n      swap1\n      return\n        /* \"contracts/12_VotingV2.sol\":5485:5867  function endVotingSession() public onlyOwner {... */\n    tag_17:\n      tag_76\n      tag_77\n      jump\t// in\n    tag_76:\n      stop\n        /* \"contracts/12_VotingV2.sol\":4754:5479  function sendVote(uint _proposalId) public onlyIfRegistered {... */\n    tag_18:\n      tag_78\n      0x04\n      dup1\n      calldatasize\n      sub\n      dup2\n      add\n      swap1\n      tag_79\n      swap2\n      swap1\n      tag_30\n      jump\t// in\n    tag_79:\n      tag_80\n      jump\t// in\n    tag_78:\n      stop\n        /* \"contracts/12_VotingV2.sol\":2687:3141  function startProposalsRegistration() public onlyOwner {... */\n    tag_19:\n      tag_81\n      tag_82\n      jump\t// in\n    tag_81:\n      stop\n        /* \"contracts/12_VotingV2.sol\":4342:4748  function startVotingSession() public onlyOwner {... */\n    tag_20:\n      tag_83\n      tag_84\n      jump\t// in\n    tag_83:\n      stop\n        /* \"https://github.com/OpenZeppelin/openzeppelin-contracts/blob/master/contracts/access/Ownable.sol\":2543:2758  function transferOwnership(address newOwner) public virtual onlyOwner {... */\n    tag_21:\n      tag_85\n      0x04\n      dup1\n      calldatasize\n      sub\n      dup2\n      add\n      swap1\n      tag_86\n      swap2\n      swap1\n      tag_40\n      jump\t// in\n    tag_86:\n      tag_87\n      jump\t// in\n    tag_85:\n      stop\n        /* \"contracts/12_VotingV2.sol\":6806:6961  function getAllProposalsBySession(uint _sessiondId) external view returns (Proposal[] memory) {... */\n    tag_22:\n      tag_88\n      0x04\n      dup1\n      calldatasize\n      sub\n      dup2\n      add\n      swap1\n      tag_89\n      swap2\n      swap1\n      tag_30\n      jump\t// in\n    tag_89:\n      tag_90\n      jump\t// in\n    tag_88:\n      mload(0x40)\n      tag_91\n      swap2\n      swap1\n      tag_53\n      jump\t// in\n    tag_91:\n      mload(0x40)\n      dup1\n      swap2\n      sub\n      swap1\n      return\n        /* \"contracts/12_VotingV2.sol\":1569:1809  function createVotingSession() public onlyOwner {... */\n    tag_27:\n        /* \"https://github.com/OpenZeppelin/openzeppelin-contracts/blob/master/contracts/access/Ownable.sol\":1531:1544  _checkOwner() */\n      tag_93\n        /* \"https://github.com/OpenZeppelin/openzeppelin-contracts/blob/master/contracts/access/Ownable.sol\":1531:1542  _checkOwner */\n      tag_94\n        /* \"https://github.com/OpenZeppelin/openzeppelin-contracts/blob/master/contracts/access/Ownable.sol\":1531:1544  _checkOwner() */\n      jump\t// in\n    tag_93:\n        /* \"contracts/12_VotingV2.sol\":1627:1649  currentVotingSessionId */\n      0x01\n      0x00\n        /* \"contracts/12_VotingV2.sol\":1627:1651  currentVotingSessionId++ */\n      dup2\n      sload\n      dup1\n      swap3\n      swap2\n      swap1\n      tag_96\n      swap1\n      tag_97\n      jump\t// in\n    tag_96:\n      swap2\n      swap1\n      pop\n      sstore\n      pop\n        /* \"contracts/12_VotingV2.sol\":1717:1749  WorkflowStatus.RegisteringVoters */\n      0x00\n        /* \"contracts/12_VotingV2.sol\":1661:1675  votingSessions */\n      0x03\n        /* \"contracts/12_VotingV2.sol\":1661:1699  votingSessions[currentVotingSessionId] */\n      0x00\n        /* \"contracts/12_VotingV2.sol\":1676:1698  currentVotingSessionId */\n      sload(0x01)\n        /* \"contracts/12_VotingV2.sol\":1661:1699  votingSessions[currentVotingSessionId] */\n      dup2\n      mstore\n      0x20\n      add\n      swap1\n      dup2\n      mstore\n      0x20\n      add\n      0x00\n      keccak256\n        /* \"contracts/12_VotingV2.sol\":1661:1714  votingSessions[currentVotingSessionId].workflowStatus */\n      0x00\n      add\n      0x00\n        /* \"contracts/12_VotingV2.sol\":1661:1749  votingSessions[currentVotingSessionId].workflowStatus = WorkflowStatus.RegisteringVoters */\n      0x0100\n      exp\n      dup2\n      sload\n      dup2\n      0xff\n      mul\n      not\n      and\n      swap1\n      dup4\n      0x05\n      dup2\n      gt\n      iszero\n      tag_98\n      jumpi\n      tag_99\n      tag_100\n      jump\t// in\n    tag_99:\n    tag_98:\n      mul\n      or\n      swap1\n      sstore\n      pop\n        /* \"contracts/12_VotingV2.sol\":1764:1802  SessionCreated(currentVotingSessionId) */\n      0xba5b9081592c446fc890c90b94eb1cb2e823c52d85adafb0a116860c7549705a\n        /* \"contracts/12_VotingV2.sol\":1779:1801  currentVotingSessionId */\n      sload(0x01)\n        /* \"contracts/12_VotingV2.sol\":1764:1802  SessionCreated(currentVotingSessionId) */\n      mload(0x40)\n      tag_101\n      swap2\n      swap1\n      tag_70\n      jump\t// in\n    tag_101:\n      mload(0x40)\n      dup1\n      swap2\n      sub\n      swap1\n      log1\n        /* \"contracts/12_VotingV2.sol\":1569:1809  function createVotingSession() public onlyOwner {... */\n      jump\t// out\n        /* \"contracts/12_VotingV2.sol\":263:315  mapping(uint => VotingSession) public votingSessions */\n    tag_31:\n      mstore(0x20, 0x03)\n      dup1\n      0x00\n      mstore\n      keccak256(0x00, 0x40)\n      0x00\n      swap2\n      pop\n      swap1\n      pop\n      dup1\n      0x00\n      add\n      0x00\n      swap1\n      sload\n      swap1\n      0x0100\n      exp\n      swap1\n      div\n      0xff\n      and\n      swap1\n      dup1\n      0x01\n      add\n      sload\n      swap1\n      pop\n      dup3\n      jump\t// out\n        /* \"contracts/12_VotingV2.sol\":1429:1563  function getCurrentSession() public view returns (VotingSession memory) {... */\n    tag_35:\n        /* \"contracts/12_VotingV2.sol\":1479:1499  VotingSession memory */\n      tag_102\n      tag_103\n      jump\t// in\n    tag_102:\n        /* \"contracts/12_VotingV2.sol\":1518:1532  votingSessions */\n      0x03\n        /* \"contracts/12_VotingV2.sol\":1518:1556  votingSessions[currentVotingSessionId] */\n      0x00\n        /* \"contracts/12_VotingV2.sol\":1533:1555  currentVotingSessionId */\n      sload(0x01)\n        /* \"contracts/12_VotingV2.sol\":1518:1556  votingSessions[currentVotingSessionId] */\n      dup2\n      mstore\n      0x20\n      add\n      swap1\n      dup2\n      mstore\n      0x20\n      add\n      0x00\n      keccak256\n        /* \"contracts/12_VotingV2.sol\":1511:1556  return votingSessions[currentVotingSessionId] */\n      mload(0x40)\n      dup1\n      0x60\n      add\n      0x40\n      mstore\n      swap1\n      dup2\n      0x00\n      dup3\n      add\n      0x00\n      swap1\n      sload\n      swap1\n      0x0100\n      exp\n      swap1\n      div\n      0xff\n      and\n      0x05\n      dup2\n      gt\n      iszero\n      tag_105\n      jumpi\n      tag_106\n      tag_100\n      jump\t// in\n    tag_106:\n    tag_105:\n      0x05\n      dup2\n      gt\n      iszero\n      tag_107\n      jumpi\n      tag_108\n      tag_100\n      jump\t// in\n    tag_108:\n    tag_107:\n      dup2\n      mstore\n      0x20\n      add\n      0x01\n      dup3\n      add\n      sload\n      dup2\n      mstore\n      0x20\n      add\n      0x02\n      dup3\n      add\n      dup1\n      sload\n      dup1\n      0x20\n      mul\n      0x20\n      add\n      mload(0x40)\n      swap1\n      dup2\n      add\n      0x40\n      mstore\n      dup1\n      swap3\n      swap2\n      swap1\n      dup2\n      dup2\n      mstore\n      0x20\n      add\n      0x00\n      swap1\n    tag_109:\n      dup3\n      dup3\n      lt\n      iszero\n      tag_110\n      jumpi\n      dup4\n      dup3\n      swap1\n      0x00\n      mstore\n      keccak256(0x00, 0x20)\n      swap1\n      0x03\n      mul\n      add\n      mload(0x40)\n      dup1\n      0x60\n      add\n      0x40\n      mstore\n      swap1\n      dup2\n      0x00\n      dup3\n      add\n      sload\n      dup2\n      mstore\n      0x20\n      add\n      0x01\n      dup3\n      add\n      dup1\n      sload\n      tag_112\n      swap1\n      tag_113\n      jump\t// in\n    tag_112:\n      dup1\n      0x1f\n      add\n      0x20\n      dup1\n      swap2\n      div\n      mul\n      0x20\n      add\n      mload(0x40)\n      swap1\n      dup2\n      add\n      0x40\n      mstore\n      dup1\n      swap3\n      swap2\n      swap1\n      dup2\n      dup2\n      mstore\n      0x20\n      add\n      dup3\n      dup1\n      sload\n      tag_114\n      swap1\n      tag_113\n      jump\t// in\n    tag_114:\n      dup1\n      iszero\n      tag_115\n      jumpi\n      dup1\n      0x1f\n      lt\n      tag_116\n      jumpi\n      0x0100\n      dup1\n      dup4\n      sload\n      div\n      mul\n      dup4\n      mstore\n      swap2\n      0x20\n      add\n      swap2\n      jump(tag_115)\n    tag_116:\n      dup3\n      add\n      swap2\n      swap1\n      0x00\n      mstore\n      keccak256(0x00, 0x20)\n      swap1\n    tag_117:\n      dup2\n      sload\n      dup2\n      mstore\n      swap1\n      0x01\n      add\n      swap1\n      0x20\n      add\n      dup1\n      dup4\n      gt\n      tag_117\n      jumpi\n      dup3\n      swap1\n      sub\n      0x1f\n      and\n      dup3\n      add\n      swap2\n    tag_115:\n      pop\n      pop\n      pop\n      pop\n      pop\n      dup2\n      mstore\n      0x20\n      add\n      0x02\n      dup3\n      add\n      sload\n      dup2\n      mstore\n      pop\n      pop\n      dup2\n      mstore\n      0x20\n      add\n      swap1\n      0x01\n      add\n      swap1\n      jump(tag_109)\n    tag_110:\n      pop\n      pop\n      pop\n      pop\n      dup2\n      mstore\n      pop\n      pop\n      swap1\n      pop\n        /* \"contracts/12_VotingV2.sol\":1429:1563  function getCurrentSession() public view returns (VotingSession memory) {... */\n      swap1\n      jump\t// out\n        /* \"contracts/12_VotingV2.sol\":1815:2242  function registerVoter(address _address) public onlyOwner {... */\n    tag_41:\n        /* \"https://github.com/OpenZeppelin/openzeppelin-contracts/blob/master/contracts/access/Ownable.sol\":1531:1544  _checkOwner() */\n      tag_119\n        /* \"https://github.com/OpenZeppelin/openzeppelin-contracts/blob/master/contracts/access/Ownable.sol\":1531:1542  _checkOwner */\n      tag_94\n        /* \"https://github.com/OpenZeppelin/openzeppelin-contracts/blob/master/contracts/access/Ownable.sol\":1531:1544  _checkOwner() */\n      jump\t// in\n    tag_119:\n        /* \"contracts/12_VotingV2.sol\":1883:1918  VotingSession memory currentSession */\n      0x00\n        /* \"contracts/12_VotingV2.sol\":1921:1940  getCurrentSession() */\n      tag_121\n        /* \"contracts/12_VotingV2.sol\":1921:1938  getCurrentSession */\n      tag_35\n        /* \"contracts/12_VotingV2.sol\":1921:1940  getCurrentSession() */\n      jump\t// in\n    tag_121:\n        /* \"contracts/12_VotingV2.sol\":1883:1940  VotingSession memory currentSession = getCurrentSession() */\n      swap1\n      pop\n        /* \"contracts/12_VotingV2.sol\":1991:2023  WorkflowStatus.RegisteringVoters */\n      0x00\n        /* \"contracts/12_VotingV2.sol\":1958:2023  currentSession.workflowStatus == WorkflowStatus.RegisteringVoters */\n      0x05\n      dup2\n      gt\n      iszero\n      tag_122\n      jumpi\n      tag_123\n      tag_100\n      jump\t// in\n    tag_123:\n    tag_122:\n        /* \"contracts/12_VotingV2.sol\":1958:1972  currentSession */\n      dup2\n        /* \"contracts/12_VotingV2.sol\":1958:1987  currentSession.workflowStatus */\n      0x00\n      add\n      mload\n        /* \"contracts/12_VotingV2.sol\":1958:2023  currentSession.workflowStatus == WorkflowStatus.RegisteringVoters */\n      0x05\n      dup2\n      gt\n      iszero\n      tag_124\n      jumpi\n      tag_125\n      tag_100\n      jump\t// in\n    tag_125:\n    tag_124:\n      eq\n        /* \"contracts/12_VotingV2.sol\":1950:2069  require(currentSession.workflowStatus == WorkflowStatus.RegisteringVoters, \"Registration not started for this session\") */\n      tag_126\n      jumpi\n      mload(0x40)\n      0x08c379a000000000000000000000000000000000000000000000000000000000\n      dup2\n      mstore\n      0x04\n      add\n      tag_127\n      swap1\n      tag_128\n      jump\t// in\n    tag_127:\n      mload(0x40)\n      dup1\n      swap2\n      sub\n      swap1\n      revert\n    tag_126:\n        /* \"contracts/12_VotingV2.sol\":2088:2094  voters */\n      0x04\n        /* \"contracts/12_VotingV2.sol\":2088:2104  voters[_address] */\n      0x00\n        /* \"contracts/12_VotingV2.sol\":2095:2103  _address */\n      dup4\n        /* \"contracts/12_VotingV2.sol\":2088:2104  voters[_address] */\n      0xffffffffffffffffffffffffffffffffffffffff\n      and\n      0xffffffffffffffffffffffffffffffffffffffff\n      and\n      dup2\n      mstore\n      0x20\n      add\n      swap1\n      dup2\n      mstore\n      0x20\n      add\n      0x00\n      keccak256\n        /* \"contracts/12_VotingV2.sol\":2088:2117  voters[_address].isRegistered */\n      0x00\n      add\n      0x00\n      swap1\n      sload\n      swap1\n      0x0100\n      exp\n      swap1\n      div\n      0xff\n      and\n        /* \"contracts/12_VotingV2.sol\":2087:2117  !voters[_address].isRegistered */\n      iszero\n        /* \"contracts/12_VotingV2.sol\":2079:2149  require(!voters[_address].isRegistered, \"Voter is already registered\") */\n      tag_129\n      jumpi\n      mload(0x40)\n      0x08c379a000000000000000000000000000000000000000000000000000000000\n      dup2\n      mstore\n      0x04\n      add\n      tag_130\n      swap1\n      tag_131\n      jump\t// in\n    tag_130:\n      mload(0x40)\n      dup1\n      swap2\n      sub\n      swap1\n      revert\n    tag_129:\n        /* \"contracts/12_VotingV2.sol\":2191:2195  true */\n      0x01\n        /* \"contracts/12_VotingV2.sol\":2159:2165  voters */\n      0x04\n        /* \"contracts/12_VotingV2.sol\":2159:2175  voters[_address] */\n      0x00\n        /* \"contracts/12_VotingV2.sol\":2166:2174  _address */\n      dup5\n        /* \"contracts/12_VotingV2.sol\":2159:2175  voters[_address] */\n      0xffffffffffffffffffffffffffffffffffffffff\n      and\n      0xffffffffffffffffffffffffffffffffffffffff\n      and\n      dup2\n      mstore\n      0x20\n      add\n      swap1\n      dup2\n      mstore\n      0x20\n      add\n      0x00\n      keccak256\n        /* \"contracts/12_VotingV2.sol\":2159:2188  voters[_address].isRegistered */\n      0x00\n      add\n      0x00\n        /* \"contracts/12_VotingV2.sol\":2159:2195  voters[_address].isRegistered = true */\n      0x0100\n      exp\n      dup2\n      sload\n      dup2\n      0xff\n      mul\n      not\n      and\n      swap1\n      dup4\n      iszero\n      iszero\n      mul\n      or\n      swap1\n      sstore\n      pop\n        /* \"contracts/12_VotingV2.sol\":2210:2235  VoterRegistered(_address) */\n      0xb6be2187d059cc2a55fe29e0e503b566e1e0f8c8780096e185429350acffd3dd\n        /* \"contracts/12_VotingV2.sol\":2226:2234  _address */\n      dup3\n        /* \"contracts/12_VotingV2.sol\":2210:2235  VoterRegistered(_address) */\n      mload(0x40)\n      tag_132\n      swap2\n      swap1\n      tag_66\n      jump\t// in\n    tag_132:\n      mload(0x40)\n      dup1\n      swap2\n      sub\n      swap1\n      log1\n        /* \"contracts/12_VotingV2.sol\":1873:2242  {... */\n      pop\n        /* \"contracts/12_VotingV2.sol\":1815:2242  function registerVoter(address _address) public onlyOwner {... */\n      pop\n      jump\t// out\n        /* \"contracts/12_VotingV2.sol\":3147:3846  function sendNewProposition(string memory _description) public onlyIfRegistered {... */\n    tag_45:\n        /* \"contracts/12_VotingV2.sol\":1346:1352  voters */\n      0x04\n        /* \"contracts/12_VotingV2.sol\":1346:1364  voters[msg.sender] */\n      0x00\n        /* \"contracts/12_VotingV2.sol\":1353:1363  msg.sender */\n      caller\n        /* \"contracts/12_VotingV2.sol\":1346:1364  voters[msg.sender] */\n      0xffffffffffffffffffffffffffffffffffffffff\n      and\n      0xffffffffffffffffffffffffffffffffffffffff\n      and\n      dup2\n      mstore\n      0x20\n      add\n      swap1\n      dup2\n      mstore\n      0x20\n      add\n      0x00\n      keccak256\n        /* \"contracts/12_VotingV2.sol\":1346:1377  voters[msg.sender].isRegistered */\n      0x00\n      add\n      0x00\n      swap1\n      sload\n      swap1\n      0x0100\n      exp\n      swap1\n      div\n      0xff\n      and\n        /* \"contracts/12_VotingV2.sol\":1338:1404  require(voters[msg.sender].isRegistered, \"You are not registered\") */\n      tag_134\n      jumpi\n      mload(0x40)\n      0x08c379a000000000000000000000000000000000000000000000000000000000\n      dup2\n      mstore\n      0x04\n      add\n      tag_135\n      swap1\n      tag_136\n      jump\t// in\n    tag_135:\n      mload(0x40)\n      dup1\n      swap2\n      sub\n      swap1\n      revert\n    tag_134:\n        /* \"contracts/12_VotingV2.sol\":3274:3275  0 */\n      0x00\n        /* \"contracts/12_VotingV2.sol\":3251:3263  _description */\n      dup2\n        /* \"contracts/12_VotingV2.sol\":3245:3271  bytes(_description).length */\n      mload\n        /* \"contracts/12_VotingV2.sol\":3245:3275  bytes(_description).length > 0 */\n      gt\n        /* \"contracts/12_VotingV2.sol\":3237:3312  require(bytes(_description).length > 0, \"Proposal description is required\") */\n      tag_138\n      jumpi\n      mload(0x40)\n      0x08c379a000000000000000000000000000000000000000000000000000000000\n      dup2\n      mstore\n      0x04\n      add\n      tag_139\n      swap1\n      tag_140\n      jump\t// in\n    tag_139:\n      mload(0x40)\n      dup1\n      swap2\n      sub\n      swap1\n      revert\n    tag_138:\n        /* \"contracts/12_VotingV2.sol\":3330:3336  voters */\n      0x04\n        /* \"contracts/12_VotingV2.sol\":3330:3348  voters[msg.sender] */\n      0x00\n        /* \"contracts/12_VotingV2.sol\":3337:3347  msg.sender */\n      caller\n        /* \"contracts/12_VotingV2.sol\":3330:3348  voters[msg.sender] */\n      0xffffffffffffffffffffffffffffffffffffffff\n      and\n      0xffffffffffffffffffffffffffffffffffffffff\n      and\n      dup2\n      mstore\n      0x20\n      add\n      swap1\n      dup2\n      mstore\n      0x20\n      add\n      0x00\n      keccak256\n        /* \"contracts/12_VotingV2.sol\":3330:3361  voters[msg.sender].isRegistered */\n      0x00\n      add\n      0x00\n      swap1\n      sload\n      swap1\n      0x0100\n      exp\n      swap1\n      div\n      0xff\n      and\n        /* \"contracts/12_VotingV2.sol\":3322:3388  require(voters[msg.sender].isRegistered, \"You are not registered\") */\n      tag_141\n      jumpi\n      mload(0x40)\n      0x08c379a000000000000000000000000000000000000000000000000000000000\n      dup2\n      mstore\n      0x04\n      add\n      tag_142\n      swap1\n      tag_136\n      jump\t// in\n    tag_142:\n      mload(0x40)\n      dup1\n      swap2\n      sub\n      swap1\n      revert\n    tag_141:\n        /* \"contracts/12_VotingV2.sol\":3398:3434  VotingSession storage currentSession */\n      0x00\n        /* \"contracts/12_VotingV2.sol\":3437:3451  votingSessions */\n      0x03\n        /* \"contracts/12_VotingV2.sol\":3437:3475  votingSessions[currentVotingSessionId] */\n      0x00\n        /* \"contracts/12_VotingV2.sol\":3452:3474  currentVotingSessionId */\n      sload(0x01)\n        /* \"contracts/12_VotingV2.sol\":3437:3475  votingSessions[currentVotingSessionId] */\n      dup2\n      mstore\n      0x20\n      add\n      swap1\n      dup2\n      mstore\n      0x20\n      add\n      0x00\n      keccak256\n        /* \"contracts/12_VotingV2.sol\":3398:3475  VotingSession storage currentSession = votingSessions[currentVotingSessionId] */\n      swap1\n      pop\n        /* \"contracts/12_VotingV2.sol\":3526:3569  WorkflowStatus.ProposalsRegistrationStarted */\n      0x01\n        /* \"contracts/12_VotingV2.sol\":3493:3569  currentSession.workflowStatus == WorkflowStatus.ProposalsRegistrationStarted */\n      0x05\n      dup2\n      gt\n      iszero\n      tag_143\n      jumpi\n      tag_144\n      tag_100\n      jump\t// in\n    tag_144:\n    tag_143:\n        /* \"contracts/12_VotingV2.sol\":3493:3507  currentSession */\n      dup2\n        /* \"contracts/12_VotingV2.sol\":3493:3522  currentSession.workflowStatus */\n      0x00\n      add\n      0x00\n      swap1\n      sload\n      swap1\n      0x0100\n      exp\n      swap1\n      div\n      0xff\n      and\n        /* \"contracts/12_VotingV2.sol\":3493:3569  currentSession.workflowStatus == WorkflowStatus.ProposalsRegistrationStarted */\n      0x05\n      dup2\n      gt\n      iszero\n      tag_145\n      jumpi\n      tag_146\n      tag_100\n      jump\t// in\n    tag_146:\n    tag_145:\n      eq\n        /* \"contracts/12_VotingV2.sol\":3485:3612  require(currentSession.workflowStatus == WorkflowStatus.ProposalsRegistrationStarted, \"Proposals not started for this session\") */\n      tag_147\n      jumpi\n      mload(0x40)\n      0x08c379a000000000000000000000000000000000000000000000000000000000\n      dup2\n      mstore\n      0x04\n      add\n      tag_148\n      swap1\n      tag_149\n      jump\t// in\n    tag_148:\n      mload(0x40)\n      dup1\n      swap2\n      sub\n      swap1\n      revert\n    tag_147:\n        /* \"contracts/12_VotingV2.sol\":3631:3645  currentSession */\n      dup1\n        /* \"contracts/12_VotingV2.sol\":3631:3655  currentSession.proposals */\n      0x02\n      add\n        /* \"contracts/12_VotingV2.sol\":3661:3781  Proposal({... */\n      mload(0x40)\n      dup1\n      0x60\n      add\n      0x40\n      mstore\n      dup1\n        /* \"contracts/12_VotingV2.sol\":3692:3697  nonce */\n      sload(0x02)\n        /* \"contracts/12_VotingV2.sol\":3661:3781  Proposal({... */\n      dup2\n      mstore\n      0x20\n      add\n        /* \"contracts/12_VotingV2.sol\":3728:3740  _description */\n      dup5\n        /* \"contracts/12_VotingV2.sol\":3661:3781  Proposal({... */\n      dup2\n      mstore\n      0x20\n      add\n        /* \"contracts/12_VotingV2.sol\":3769:3770  0 */\n      0x00\n        /* \"contracts/12_VotingV2.sol\":3661:3781  Proposal({... */\n      dup2\n      mstore\n      pop\n        /* \"contracts/12_VotingV2.sol\":3631:3782  currentSession.proposals.push(Proposal({... */\n      swap1\n      dup1\n      0x01\n      dup2\n      sload\n      add\n      dup1\n      dup3\n      sstore\n      dup1\n      swap2\n      pop\n      pop\n      0x01\n      swap1\n      sub\n      swap1\n      0x00\n      mstore\n      keccak256(0x00, 0x20)\n      swap1\n      0x03\n      mul\n      add\n      0x00\n      swap1\n      swap2\n      swap1\n      swap2\n      swap1\n      swap2\n      pop\n      0x00\n      dup3\n      add\n      mload\n      dup2\n      0x00\n      add\n      sstore\n      0x20\n      dup3\n      add\n      mload\n      dup2\n      0x01\n      add\n      swap1\n      dup2\n      tag_151\n      swap2\n      swap1\n      tag_152\n      jump\t// in\n    tag_151:\n      pop\n      0x40\n      dup3\n      add\n      mload\n      dup2\n      0x02\n      add\n      sstore\n      pop\n      pop\n        /* \"contracts/12_VotingV2.sol\":3797:3822  ProposalRegistered(nonce) */\n      0x92e393e9b54e2f801d3ea4beb0c5e71a21cc34a5d34b77d0fb8a3aa1650dc18f\n        /* \"contracts/12_VotingV2.sol\":3816:3821  nonce */\n      sload(0x02)\n        /* \"contracts/12_VotingV2.sol\":3797:3822  ProposalRegistered(nonce) */\n      mload(0x40)\n      tag_153\n      swap2\n      swap1\n      tag_70\n      jump\t// in\n    tag_153:\n      mload(0x40)\n      dup1\n      swap2\n      sub\n      swap1\n      log1\n        /* \"contracts/12_VotingV2.sol\":3832:3837  nonce */\n      0x02\n      0x00\n        /* \"contracts/12_VotingV2.sol\":3832:3839  nonce++ */\n      dup2\n      sload\n      dup1\n      swap3\n      swap2\n      swap1\n      tag_154\n      swap1\n      tag_97\n      jump\t// in\n    tag_154:\n      swap2\n      swap1\n      pop\n      sstore\n      pop\n        /* \"contracts/12_VotingV2.sol\":3227:3846  {... */\n      pop\n        /* \"contracts/12_VotingV2.sol\":3147:3846  function sendNewProposition(string memory _description) public onlyIfRegistered {... */\n      pop\n      jump\t// out\n        /* \"contracts/12_VotingV2.sol\":6652:6800  function getWinningProposalBySession(uint _sessionId) external view returns(VotingSession memory) {... */\n    tag_48:\n        /* \"contracts/12_VotingV2.sol\":6728:6748  VotingSession memory */\n      tag_155\n      tag_103\n      jump\t// in\n    tag_155:\n        /* \"contracts/12_VotingV2.sol\":6767:6781  votingSessions */\n      0x03\n        /* \"contracts/12_VotingV2.sol\":6767:6793  votingSessions[_sessionId] */\n      0x00\n        /* \"contracts/12_VotingV2.sol\":6782:6792  _sessionId */\n      dup4\n        /* \"contracts/12_VotingV2.sol\":6767:6793  votingSessions[_sessionId] */\n      dup2\n      mstore\n      0x20\n      add\n      swap1\n      dup2\n      mstore\n      0x20\n      add\n      0x00\n      keccak256\n        /* \"contracts/12_VotingV2.sol\":6760:6793  return votingSessions[_sessionId] */\n      mload(0x40)\n      dup1\n      0x60\n      add\n      0x40\n      mstore\n      swap1\n      dup2\n      0x00\n      dup3\n      add\n      0x00\n      swap1\n      sload\n      swap1\n      0x0100\n      exp\n      swap1\n      div\n      0xff\n      and\n      0x05\n      dup2\n      gt\n      iszero\n      tag_157\n      jumpi\n      tag_158\n      tag_100\n      jump\t// in\n    tag_158:\n    tag_157:\n      0x05\n      dup2\n      gt\n      iszero\n      tag_159\n      jumpi\n      tag_160\n      tag_100\n      jump\t// in\n    tag_160:\n    tag_159:\n      dup2\n      mstore\n      0x20\n      add\n      0x01\n      dup3\n      add\n      sload\n      dup2\n      mstore\n      0x20\n      add\n      0x02\n      dup3\n      add\n      dup1\n      sload\n      dup1\n      0x20\n      mul\n      0x20\n      add\n      mload(0x40)\n      swap1\n      dup2\n      add\n      0x40\n      mstore\n      dup1\n      swap3\n      swap2\n      swap1\n      dup2\n      dup2\n      mstore\n      0x20\n      add\n      0x00\n      swap1\n    tag_161:\n      dup3\n      dup3\n      lt\n      iszero\n      tag_162\n      jumpi\n      dup4\n      dup3\n      swap1\n      0x00\n      mstore\n      keccak256(0x00, 0x20)\n      swap1\n      0x03\n      mul\n      add\n      mload(0x40)\n      dup1\n      0x60\n      add\n      0x40\n      mstore\n      swap1\n      dup2\n      0x00\n      dup3\n      add\n      sload\n      dup2\n      mstore\n      0x20\n      add\n      0x01\n      dup3\n      add\n      dup1\n      sload\n      tag_164\n      swap1\n      tag_113\n      jump\t// in\n    tag_164:\n      dup1\n      0x1f\n      add\n      0x20\n      dup1\n      swap2\n      div\n      mul\n      0x20\n      add\n      mload(0x40)\n      swap1\n      dup2\n      add\n      0x40\n      mstore\n      dup1\n      swap3\n      swap2\n      swap1\n      dup2\n      dup2\n      mstore\n      0x20\n      add\n      dup3\n      dup1\n      sload\n      tag_165\n      swap1\n      tag_113\n      jump\t// in\n    tag_165:\n      dup1\n      iszero\n      tag_166\n      jumpi\n      dup1\n      0x1f\n      lt\n      tag_167\n      jumpi\n      0x0100\n      dup1\n      dup4\n      sload\n      div\n      mul\n      dup4\n      mstore\n      swap2\n      0x20\n      add\n      swap2\n      jump(tag_166)\n    tag_167:\n      dup3\n      add\n      swap2\n      swap1\n      0x00\n      mstore\n      keccak256(0x00, 0x20)\n      swap1\n    tag_168:\n      dup2\n      sload\n      dup2\n      mstore\n      swap1\n      0x01\n      add\n      swap1\n      0x20\n      add\n      dup1\n      dup4\n      gt\n      tag_168\n      jumpi\n      dup3\n      swap1\n      sub\n      0x1f\n      and\n      dup3\n      add\n      swap2\n    tag_166:\n      pop\n      pop\n      pop\n      pop\n      pop\n      dup2\n      mstore\n      0x20\n      add\n      0x02\n      dup3\n      add\n      sload\n      dup2\n      mstore\n      pop\n      pop\n      dup2\n      mstore\n      0x20\n      add\n      swap1\n      0x01\n      add\n      swap1\n      jump(tag_161)\n    tag_162:\n      pop\n      pop\n      pop\n      pop\n      dup2\n      mstore\n      pop\n      pop\n      swap1\n      pop\n        /* \"contracts/12_VotingV2.sol\":6652:6800  function getWinningProposalBySession(uint _sessionId) external view returns(VotingSession memory) {... */\n      swap2\n      swap1\n      pop\n      jump\t// out\n        /* \"contracts/12_VotingV2.sol\":6967:7143  function getAllProposalsFromCurrentSession() public view returns (Proposal[] memory) {... */\n    tag_51:\n        /* \"contracts/12_VotingV2.sol\":7033:7050  Proposal[] memory */\n      0x60\n        /* \"contracts/12_VotingV2.sol\":7062:7085  VotingSession memory cs */\n      0x00\n        /* \"contracts/12_VotingV2.sol\":7088:7107  getCurrentSession() */\n      tag_170\n        /* \"contracts/12_VotingV2.sol\":7088:7105  getCurrentSession */\n      tag_35\n        /* \"contracts/12_VotingV2.sol\":7088:7107  getCurrentSession() */\n      jump\t// in\n    tag_170:\n        /* \"contracts/12_VotingV2.sol\":7062:7107  VotingSession memory cs = getCurrentSession() */\n      swap1\n      pop\n        /* \"contracts/12_VotingV2.sol\":7124:7126  cs */\n      dup1\n        /* \"contracts/12_VotingV2.sol\":7124:7136  cs.proposals */\n      0x40\n      add\n      mload\n        /* \"contracts/12_VotingV2.sol\":7117:7136  return cs.proposals */\n      swap2\n      pop\n      pop\n        /* \"contracts/12_VotingV2.sol\":6967:7143  function getAllProposalsFromCurrentSession() public view returns (Proposal[] memory) {... */\n      swap1\n      jump\t// out\n        /* \"contracts/12_VotingV2.sol\":3852:4336  function endProposalsRegistration() public onlyOwner {... */\n    tag_55:\n        /* \"https://github.com/OpenZeppelin/openzeppelin-contracts/blob/master/contracts/access/Ownable.sol\":1531:1544  _checkOwner() */\n      tag_172\n        /* \"https://github.com/OpenZeppelin/openzeppelin-contracts/blob/master/contracts/access/Ownable.sol\":1531:1542  _checkOwner */\n      tag_94\n        /* \"https://github.com/OpenZeppelin/openzeppelin-contracts/blob/master/contracts/access/Ownable.sol\":1531:1544  _checkOwner() */\n      jump\t// in\n    tag_172:\n        /* \"contracts/12_VotingV2.sol\":3915:3950  VotingSession memory currentSession */\n      0x00\n        /* \"contracts/12_VotingV2.sol\":3953:3972  getCurrentSession() */\n      tag_174\n        /* \"contracts/12_VotingV2.sol\":3953:3970  getCurrentSession */\n      tag_35\n        /* \"contracts/12_VotingV2.sol\":3953:3972  getCurrentSession() */\n      jump\t// in\n    tag_174:\n        /* \"contracts/12_VotingV2.sol\":3915:3972  VotingSession memory currentSession = getCurrentSession() */\n      swap1\n      pop\n        /* \"contracts/12_VotingV2.sol\":4023:4066  WorkflowStatus.ProposalsRegistrationStarted */\n      0x01\n        /* \"contracts/12_VotingV2.sol\":3990:4066  currentSession.workflowStatus == WorkflowStatus.ProposalsRegistrationStarted */\n      0x05\n      dup2\n      gt\n      iszero\n      tag_175\n      jumpi\n      tag_176\n      tag_100\n      jump\t// in\n    tag_176:\n    tag_175:\n        /* \"contracts/12_VotingV2.sol\":3990:4004  currentSession */\n      dup2\n        /* \"contracts/12_VotingV2.sol\":3990:4019  currentSession.workflowStatus */\n      0x00\n      add\n      mload\n        /* \"contracts/12_VotingV2.sol\":3990:4066  currentSession.workflowStatus == WorkflowStatus.ProposalsRegistrationStarted */\n      0x05\n      dup2\n      gt\n      iszero\n      tag_177\n      jumpi\n      tag_178\n      tag_100\n      jump\t// in\n    tag_178:\n    tag_177:\n      eq\n        /* \"contracts/12_VotingV2.sol\":3982:4122  require(currentSession.workflowStatus == WorkflowStatus.ProposalsRegistrationStarted, \"Proposals registration not started for this session\") */\n      tag_179\n      jumpi\n      mload(0x40)\n      0x08c379a000000000000000000000000000000000000000000000000000000000\n      dup2\n      mstore\n      0x04\n      add\n      tag_180\n      swap1\n      tag_181\n      jump\t// in\n    tag_180:\n      mload(0x40)\n      dup1\n      swap2\n      sub\n      swap1\n      revert\n    tag_179:\n        /* \"contracts/12_VotingV2.sol\":4164:4205  WorkflowStatus.ProposalsRegistrationEnded */\n      0x02\n        /* \"contracts/12_VotingV2.sol\":4132:4146  currentSession */\n      dup2\n        /* \"contracts/12_VotingV2.sol\":4132:4161  currentSession.workflowStatus */\n      0x00\n      add\n        /* \"contracts/12_VotingV2.sol\":4132:4205  currentSession.workflowStatus = WorkflowStatus.ProposalsRegistrationEnded */\n      swap1\n      0x05\n      dup2\n      gt\n      iszero\n      tag_182\n      jumpi\n      tag_183\n      tag_100\n      jump\t// in\n    tag_183:\n    tag_182:\n      swap1\n      dup2\n      0x05\n      dup2\n      gt\n      iszero\n      tag_184\n      jumpi\n      tag_185\n      tag_100\n      jump\t// in\n    tag_185:\n    tag_184:\n      dup2\n      mstore\n      pop\n      pop\n        /* \"contracts/12_VotingV2.sol\":4220:4328  WorkflowStatusChange(WorkflowStatus.ProposalsRegistrationStarted, WorkflowStatus.ProposalsRegistrationEnded) */\n      0x0a97a4ee45751e2abf3e4fc8946939630b11b371ea8ae39ccdc3056e98f5cc3f\n        /* \"contracts/12_VotingV2.sol\":4241:4284  WorkflowStatus.ProposalsRegistrationStarted */\n      0x01\n        /* \"contracts/12_VotingV2.sol\":4286:4327  WorkflowStatus.ProposalsRegistrationEnded */\n      0x02\n        /* \"contracts/12_VotingV2.sol\":4220:4328  WorkflowStatusChange(WorkflowStatus.ProposalsRegistrationStarted, WorkflowStatus.ProposalsRegistrationEnded) */\n      mload(0x40)\n      tag_186\n      swap3\n      swap2\n      swap1\n      tag_187\n      jump\t// in\n    tag_186:\n      mload(0x40)\n      dup1\n      swap2\n      sub\n      swap1\n      log1\n        /* \"contracts/12_VotingV2.sol\":3905:4336  {... */\n      pop\n        /* \"contracts/12_VotingV2.sol\":3852:4336  function endProposalsRegistration() public onlyOwner {... */\n      jump\t// out\n        /* \"https://github.com/OpenZeppelin/openzeppelin-contracts/blob/master/contracts/access/Ownable.sol\":2293:2394  function renounceOwnership() public virtual onlyOwner {... */\n    tag_57:\n        /* \"https://github.com/OpenZeppelin/openzeppelin-contracts/blob/master/contracts/access/Ownable.sol\":1531:1544  _checkOwner() */\n      tag_189\n        /* \"https://github.com/OpenZeppelin/openzeppelin-contracts/blob/master/contracts/access/Ownable.sol\":1531:1542  _checkOwner */\n      tag_94\n        /* \"https://github.com/OpenZeppelin/openzeppelin-contracts/blob/master/contracts/access/Ownable.sol\":1531:1544  _checkOwner() */\n      jump\t// in\n    tag_189:\n        /* \"https://github.com/OpenZeppelin/openzeppelin-contracts/blob/master/contracts/access/Ownable.sol\":2357:2387  _transferOwnership(address(0)) */\n      tag_191\n        /* \"https://github.com/OpenZeppelin/openzeppelin-contracts/blob/master/contracts/access/Ownable.sol\":2384:2385  0 */\n      0x00\n        /* \"https://github.com/OpenZeppelin/openzeppelin-contracts/blob/master/contracts/access/Ownable.sol\":2357:2375  _transferOwnership */\n      tag_192\n        /* \"https://github.com/OpenZeppelin/openzeppelin-contracts/blob/master/contracts/access/Ownable.sol\":2357:2387  _transferOwnership(address(0)) */\n      jump\t// in\n    tag_191:\n        /* \"https://github.com/OpenZeppelin/openzeppelin-contracts/blob/master/contracts/access/Ownable.sol\":2293:2394  function renounceOwnership() public virtual onlyOwner {... */\n      jump\t// out\n        /* \"contracts/12_VotingV2.sol\":2248:2681  function unregisterVoter(address _address) public onlyOwner {... */\n    tag_60:\n        /* \"https://github.com/OpenZeppelin/openzeppelin-contracts/blob/master/contracts/access/Ownable.sol\":1531:1544  _checkOwner() */\n      tag_194\n        /* \"https://github.com/OpenZeppelin/openzeppelin-contracts/blob/master/contracts/access/Ownable.sol\":1531:1542  _checkOwner */\n      tag_94\n        /* \"https://github.com/OpenZeppelin/openzeppelin-contracts/blob/master/contracts/access/Ownable.sol\":1531:1544  _checkOwner() */\n      jump\t// in\n    tag_194:\n        /* \"contracts/12_VotingV2.sol\":2318:2353  VotingSession memory currentSession */\n      0x00\n        /* \"contracts/12_VotingV2.sol\":2356:2375  getCurrentSession() */\n      tag_196\n        /* \"contracts/12_VotingV2.sol\":2356:2373  getCurrentSession */\n      tag_35\n        /* \"contracts/12_VotingV2.sol\":2356:2375  getCurrentSession() */\n      jump\t// in\n    tag_196:\n        /* \"contracts/12_VotingV2.sol\":2318:2375  VotingSession memory currentSession = getCurrentSession() */\n      swap1\n      pop\n        /* \"contracts/12_VotingV2.sol\":2426:2458  WorkflowStatus.RegisteringVoters */\n      0x00\n        /* \"contracts/12_VotingV2.sol\":2393:2458  currentSession.workflowStatus == WorkflowStatus.RegisteringVoters */\n      0x05\n      dup2\n      gt\n      iszero\n      tag_197\n      jumpi\n      tag_198\n      tag_100\n      jump\t// in\n    tag_198:\n    tag_197:\n        /* \"contracts/12_VotingV2.sol\":2393:2407  currentSession */\n      dup2\n        /* \"contracts/12_VotingV2.sol\":2393:2422  currentSession.workflowStatus */\n      0x00\n      add\n      mload\n        /* \"contracts/12_VotingV2.sol\":2393:2458  currentSession.workflowStatus == WorkflowStatus.RegisteringVoters */\n      0x05\n      dup2\n      gt\n      iszero\n      tag_199\n      jumpi\n      tag_200\n      tag_100\n      jump\t// in\n    tag_200:\n    tag_199:\n      eq\n        /* \"contracts/12_VotingV2.sol\":2385:2504  require(currentSession.workflowStatus == WorkflowStatus.RegisteringVoters, \"Registration not started for this session\") */\n      tag_201\n      jumpi\n      mload(0x40)\n      0x08c379a000000000000000000000000000000000000000000000000000000000\n      dup2\n      mstore\n      0x04\n      add\n      tag_202\n      swap1\n      tag_128\n      jump\t// in\n    tag_202:\n      mload(0x40)\n      dup1\n      swap2\n      sub\n      swap1\n      revert\n    tag_201:\n        /* \"contracts/12_VotingV2.sol\":2522:2528  voters */\n      0x04\n        /* \"contracts/12_VotingV2.sol\":2522:2538  voters[_address] */\n      0x00\n        /* \"contracts/12_VotingV2.sol\":2529:2537  _address */\n      dup4\n        /* \"contracts/12_VotingV2.sol\":2522:2538  voters[_address] */\n      0xffffffffffffffffffffffffffffffffffffffff\n      and\n      0xffffffffffffffffffffffffffffffffffffffff\n      and\n      dup2\n      mstore\n      0x20\n      add\n      swap1\n      dup2\n      mstore\n      0x20\n      add\n      0x00\n      keccak256\n        /* \"contracts/12_VotingV2.sol\":2522:2551  voters[_address].isRegistered */\n      0x00\n      add\n      0x00\n      swap1\n      sload\n      swap1\n      0x0100\n      exp\n      swap1\n      div\n      0xff\n      and\n        /* \"contracts/12_VotingV2.sol\":2514:2585  require(voters[_address].isRegistered, \"Voter is already unregistered\") */\n      tag_203\n      jumpi\n      mload(0x40)\n      0x08c379a000000000000000000000000000000000000000000000000000000000\n      dup2\n      mstore\n      0x04\n      add\n      tag_204\n      swap1\n      tag_205\n      jump\t// in\n    tag_204:\n      mload(0x40)\n      dup1\n      swap2\n      sub\n      swap1\n      revert\n    tag_203:\n        /* \"contracts/12_VotingV2.sol\":2627:2632  false */\n      0x00\n        /* \"contracts/12_VotingV2.sol\":2595:2601  voters */\n      0x04\n        /* \"contracts/12_VotingV2.sol\":2595:2611  voters[_address] */\n      0x00\n        /* \"contracts/12_VotingV2.sol\":2602:2610  _address */\n      dup5\n        /* \"contracts/12_VotingV2.sol\":2595:2611  voters[_address] */\n      0xffffffffffffffffffffffffffffffffffffffff\n      and\n      0xffffffffffffffffffffffffffffffffffffffff\n      and\n      dup2\n      mstore\n      0x20\n      add\n      swap1\n      dup2\n      mstore\n      0x20\n      add\n      0x00\n      keccak256\n        /* \"contracts/12_VotingV2.sol\":2595:2624  voters[_address].isRegistered */\n      0x00\n      add\n      0x00\n        /* \"contracts/12_VotingV2.sol\":2595:2632  voters[_address].isRegistered = false */\n      0x0100\n      exp\n      dup2\n      sload\n      dup2\n      0xff\n      mul\n      not\n      and\n      swap1\n      dup4\n      iszero\n      iszero\n      mul\n      or\n      swap1\n      sstore\n      pop\n        /* \"contracts/12_VotingV2.sol\":2647:2674  VoterUnregistered(_address) */\n      0x25fc2460244a2fff1d6879302ea1d6f3e684e599d76c012a22e42d5bb61cc5d7\n        /* \"contracts/12_VotingV2.sol\":2665:2673  _address */\n      dup3\n        /* \"contracts/12_VotingV2.sol\":2647:2674  VoterUnregistered(_address) */\n      mload(0x40)\n      tag_206\n      swap2\n      swap1\n      tag_66\n      jump\t// in\n    tag_206:\n      mload(0x40)\n      dup1\n      swap2\n      sub\n      swap1\n      log1\n        /* \"contracts/12_VotingV2.sol\":2308:2681  {... */\n      pop\n        /* \"contracts/12_VotingV2.sol\":2248:2681  function unregisterVoter(address _address) public onlyOwner {... */\n      pop\n      jump\t// out\n        /* \"contracts/12_VotingV2.sol\":5873:6646  function computeMostVotedProposal() public {... */\n    tag_62:\n        /* \"contracts/12_VotingV2.sol\":5926:5949  VotingSession memory cs */\n      0x00\n        /* \"contracts/12_VotingV2.sol\":5952:5971  getCurrentSession() */\n      tag_208\n        /* \"contracts/12_VotingV2.sol\":5952:5969  getCurrentSession */\n      tag_35\n        /* \"contracts/12_VotingV2.sol\":5952:5971  getCurrentSession() */\n      jump\t// in\n    tag_208:\n        /* \"contracts/12_VotingV2.sol\":5926:5971  VotingSession memory cs = getCurrentSession() */\n      swap1\n      pop\n        /* \"contracts/12_VotingV2.sol\":6010:6043  WorkflowStatus.VotingSessionEnded */\n      0x04\n        /* \"contracts/12_VotingV2.sol\":5989:6043  cs.workflowStatus == WorkflowStatus.VotingSessionEnded */\n      0x05\n      dup2\n      gt\n      iszero\n      tag_209\n      jumpi\n      tag_210\n      tag_100\n      jump\t// in\n    tag_210:\n    tag_209:\n        /* \"contracts/12_VotingV2.sol\":5989:5991  cs */\n      dup2\n        /* \"contracts/12_VotingV2.sol\":5989:6006  cs.workflowStatus */\n      0x00\n      add\n      mload\n        /* \"contracts/12_VotingV2.sol\":5989:6043  cs.workflowStatus == WorkflowStatus.VotingSessionEnded */\n      0x05\n      dup2\n      gt\n      iszero\n      tag_211\n      jumpi\n      tag_212\n      tag_100\n      jump\t// in\n    tag_212:\n    tag_211:\n      eq\n        /* \"contracts/12_VotingV2.sol\":5981:6072  require(cs.workflowStatus == WorkflowStatus.VotingSessionEnded, \"Voting session not ended\") */\n      tag_213\n      jumpi\n      mload(0x40)\n      0x08c379a000000000000000000000000000000000000000000000000000000000\n      dup2\n      mstore\n      0x04\n      add\n      tag_214\n      swap1\n      tag_215\n      jump\t// in\n    tag_214:\n      mload(0x40)\n      dup1\n      swap2\n      sub\n      swap1\n      revert\n    tag_213:\n        /* \"contracts/12_VotingV2.sol\":6112:6113  0 */\n      0x00\n        /* \"contracts/12_VotingV2.sol\":6090:6092  cs */\n      dup2\n        /* \"contracts/12_VotingV2.sol\":6090:6102  cs.proposals */\n      0x40\n      add\n      mload\n        /* \"contracts/12_VotingV2.sol\":6090:6109  cs.proposals.length */\n      mload\n        /* \"contracts/12_VotingV2.sol\":6090:6113  cs.proposals.length > 0 */\n      gt\n        /* \"contracts/12_VotingV2.sol\":6082:6147  require(cs.proposals.length > 0, \"This session has no proposals\") */\n      tag_216\n      jumpi\n      mload(0x40)\n      0x08c379a000000000000000000000000000000000000000000000000000000000\n      dup2\n      mstore\n      0x04\n      add\n      tag_217\n      swap1\n      tag_218\n      jump\t// in\n    tag_217:\n      mload(0x40)\n      dup1\n      swap2\n      sub\n      swap1\n      revert\n    tag_216:\n        /* \"contracts/12_VotingV2.sol\":6158:6191  Proposal memory mostVotedProposal */\n      tag_219\n      tag_220\n      jump\t// in\n    tag_219:\n        /* \"contracts/12_VotingV2.sol\":6201:6228  Proposal[] memory proposals */\n      0x00\n        /* \"contracts/12_VotingV2.sol\":6231:6233  cs */\n      dup3\n        /* \"contracts/12_VotingV2.sol\":6231:6243  cs.proposals */\n      0x40\n      add\n      mload\n        /* \"contracts/12_VotingV2.sol\":6201:6243  Proposal[] memory proposals = cs.proposals */\n      swap1\n      pop\n        /* \"contracts/12_VotingV2.sol\":6260:6266  uint i */\n      0x00\n        /* \"contracts/12_VotingV2.sol\":6269:6270  0 */\n      0x00\n        /* \"contracts/12_VotingV2.sol\":6260:6270  uint i = 0 */\n      swap1\n      pop\n        /* \"contracts/12_VotingV2.sol\":6255:6430  for (uint i = 0; i < proposals.length; i++) {... */\n    tag_221:\n        /* \"contracts/12_VotingV2.sol\":6276:6285  proposals */\n      dup2\n        /* \"contracts/12_VotingV2.sol\":6276:6292  proposals.length */\n      mload\n        /* \"contracts/12_VotingV2.sol\":6272:6273  i */\n      dup2\n        /* \"contracts/12_VotingV2.sol\":6272:6292  i < proposals.length */\n      lt\n        /* \"contracts/12_VotingV2.sol\":6255:6430  for (uint i = 0; i < proposals.length; i++) {... */\n      iszero\n      tag_222\n      jumpi\n        /* \"contracts/12_VotingV2.sol\":6342:6359  mostVotedProposal */\n      dup3\n        /* \"contracts/12_VotingV2.sol\":6342:6369  mostVotedProposal.voteCount */\n      0x40\n      add\n      mload\n        /* \"contracts/12_VotingV2.sol\":6317:6326  proposals */\n      dup3\n        /* \"contracts/12_VotingV2.sol\":6327:6328  i */\n      dup3\n        /* \"contracts/12_VotingV2.sol\":6317:6329  proposals[i] */\n      dup2\n      mload\n      dup2\n      lt\n      tag_224\n      jumpi\n      tag_225\n      tag_226\n      jump\t// in\n    tag_225:\n    tag_224:\n      0x20\n      mul\n      0x20\n      add\n      add\n      mload\n        /* \"contracts/12_VotingV2.sol\":6317:6339  proposals[i].voteCount */\n      0x40\n      add\n      mload\n        /* \"contracts/12_VotingV2.sol\":6317:6369  proposals[i].voteCount > mostVotedProposal.voteCount */\n      gt\n        /* \"contracts/12_VotingV2.sol\":6313:6419  if (proposals[i].voteCount > mostVotedProposal.voteCount)... */\n      iszero\n      tag_227\n      jumpi\n        /* \"contracts/12_VotingV2.sol\":6407:6416  proposals */\n      dup2\n        /* \"contracts/12_VotingV2.sol\":6417:6418  i */\n      dup2\n        /* \"contracts/12_VotingV2.sol\":6407:6419  proposals[i] */\n      dup2\n      mload\n      dup2\n      lt\n      tag_228\n      jumpi\n      tag_229\n      tag_226\n      jump\t// in\n    tag_229:\n    tag_228:\n      0x20\n      mul\n      0x20\n      add\n      add\n      mload\n        /* \"contracts/12_VotingV2.sol\":6387:6419  mostVotedProposal = proposals[i] */\n      swap3\n      pop\n        /* \"contracts/12_VotingV2.sol\":6313:6419  if (proposals[i].voteCount > mostVotedProposal.voteCount)... */\n    tag_227:\n        /* \"contracts/12_VotingV2.sol\":6294:6297  i++ */\n      dup1\n      dup1\n      0x01\n      add\n      swap2\n      pop\n      pop\n        /* \"contracts/12_VotingV2.sol\":6255:6430  for (uint i = 0; i < proposals.length; i++) {... */\n      jump(tag_221)\n    tag_222:\n      pop\n        /* \"contracts/12_VotingV2.sol\":6463:6480  mostVotedProposal */\n      dup2\n        /* \"contracts/12_VotingV2.sol\":6463:6483  mostVotedProposal.id */\n      0x00\n      add\n      mload\n        /* \"contracts/12_VotingV2.sol\":6440:6442  cs */\n      dup4\n        /* \"contracts/12_VotingV2.sol\":6440:6460  cs.winningProposalId */\n      0x20\n      add\n        /* \"contracts/12_VotingV2.sol\":6440:6483  cs.winningProposalId = mostVotedProposal.id */\n      dup2\n      dup2\n      mstore\n      pop\n      pop\n        /* \"contracts/12_VotingV2.sol\":6513:6540  WorkflowStatus.VotesTallied */\n      0x05\n        /* \"contracts/12_VotingV2.sol\":6493:6495  cs */\n      dup4\n        /* \"contracts/12_VotingV2.sol\":6493:6510  cs.workflowStatus */\n      0x00\n      add\n        /* \"contracts/12_VotingV2.sol\":6493:6540  cs.workflowStatus = WorkflowStatus.VotesTallied */\n      swap1\n      0x05\n      dup2\n      gt\n      iszero\n      tag_230\n      jumpi\n      tag_231\n      tag_100\n      jump\t// in\n    tag_231:\n    tag_230:\n      swap1\n      dup2\n      0x05\n      dup2\n      gt\n      iszero\n      tag_232\n      jumpi\n      tag_233\n      tag_100\n      jump\t// in\n    tag_233:\n    tag_232:\n      dup2\n      mstore\n      pop\n      pop\n        /* \"contracts/12_VotingV2.sol\":6555:6639  WorkflowStatusChange(WorkflowStatus.VotingSessionEnded, WorkflowStatus.VotesTallied) */\n      0x0a97a4ee45751e2abf3e4fc8946939630b11b371ea8ae39ccdc3056e98f5cc3f\n        /* \"contracts/12_VotingV2.sol\":6576:6609  WorkflowStatus.VotingSessionEnded */\n      0x04\n        /* \"contracts/12_VotingV2.sol\":6611:6638  WorkflowStatus.VotesTallied */\n      0x05\n        /* \"contracts/12_VotingV2.sol\":6555:6639  WorkflowStatusChange(WorkflowStatus.VotingSessionEnded, WorkflowStatus.VotesTallied) */\n      mload(0x40)\n      tag_234\n      swap3\n      swap2\n      swap1\n      tag_187\n      jump\t// in\n    tag_234:\n      mload(0x40)\n      dup1\n      swap2\n      sub\n      swap1\n      log1\n        /* \"contracts/12_VotingV2.sol\":5916:6646  {... */\n      pop\n      pop\n      pop\n        /* \"contracts/12_VotingV2.sol\":5873:6646  function computeMostVotedProposal() public {... */\n      jump\t// out\n        /* \"https://github.com/OpenZeppelin/openzeppelin-contracts/blob/master/contracts/access/Ownable.sol\":1638:1723  function owner() public view virtual returns (address) {... */\n    tag_64:\n        /* \"https://github.com/OpenZeppelin/openzeppelin-contracts/blob/master/contracts/access/Ownable.sol\":1684:1691  address */\n      0x00\n        /* \"https://github.com/OpenZeppelin/openzeppelin-contracts/blob/master/contracts/access/Ownable.sol\":1710:1716  _owner */\n      0x00\n      0x00\n      swap1\n      sload\n      swap1\n      0x0100\n      exp\n      swap1\n      div\n      0xffffffffffffffffffffffffffffffffffffffff\n      and\n        /* \"https://github.com/OpenZeppelin/openzeppelin-contracts/blob/master/contracts/access/Ownable.sol\":1703:1716  return _owner */\n      swap1\n      pop\n        /* \"https://github.com/OpenZeppelin/openzeppelin-contracts/blob/master/contracts/access/Ownable.sol\":1638:1723  function owner() public view virtual returns (address) {... */\n      swap1\n      jump\t// out\n        /* \"contracts/12_VotingV2.sol\":198:232  uint public currentVotingSessionId */\n    tag_68:\n      sload(0x01)\n      dup2\n      jump\t// out\n        /* \"contracts/12_VotingV2.sol\":321:360  mapping(address => Voter) public voters */\n    tag_73:\n      mstore(0x20, 0x04)\n      dup1\n      0x00\n      mstore\n      keccak256(0x00, 0x40)\n      0x00\n      swap2\n      pop\n      swap1\n      pop\n      dup1\n      0x00\n      add\n      0x00\n      swap1\n      sload\n      swap1\n      0x0100\n      exp\n      swap1\n      div\n      0xff\n      and\n      swap1\n      pop\n      dup2\n      jump\t// out\n        /* \"contracts/12_VotingV2.sol\":5485:5867  function endVotingSession() public onlyOwner {... */\n    tag_77:\n        /* \"https://github.com/OpenZeppelin/openzeppelin-contracts/blob/master/contracts/access/Ownable.sol\":1531:1544  _checkOwner() */\n      tag_237\n        /* \"https://github.com/OpenZeppelin/openzeppelin-contracts/blob/master/contracts/access/Ownable.sol\":1531:1542  _checkOwner */\n      tag_94\n        /* \"https://github.com/OpenZeppelin/openzeppelin-contracts/blob/master/contracts/access/Ownable.sol\":1531:1544  _checkOwner() */\n      jump\t// in\n    tag_237:\n        /* \"contracts/12_VotingV2.sol\":5540:5563  VotingSession memory cs */\n      0x00\n        /* \"contracts/12_VotingV2.sol\":5566:5585  getCurrentSession() */\n      tag_239\n        /* \"contracts/12_VotingV2.sol\":5566:5583  getCurrentSession */\n      tag_35\n        /* \"contracts/12_VotingV2.sol\":5566:5585  getCurrentSession() */\n      jump\t// in\n    tag_239:\n        /* \"contracts/12_VotingV2.sol\":5540:5585  VotingSession memory cs = getCurrentSession() */\n      swap1\n      pop\n        /* \"contracts/12_VotingV2.sol\":5624:5659  WorkflowStatus.VotingSessionStarted */\n      0x03\n        /* \"contracts/12_VotingV2.sol\":5603:5659  cs.workflowStatus == WorkflowStatus.VotingSessionStarted */\n      0x05\n      dup2\n      gt\n      iszero\n      tag_240\n      jumpi\n      tag_241\n      tag_100\n      jump\t// in\n    tag_241:\n    tag_240:\n        /* \"contracts/12_VotingV2.sol\":5603:5605  cs */\n      dup2\n        /* \"contracts/12_VotingV2.sol\":5603:5620  cs.workflowStatus */\n      0x00\n      add\n      mload\n        /* \"contracts/12_VotingV2.sol\":5603:5659  cs.workflowStatus == WorkflowStatus.VotingSessionStarted */\n      0x05\n      dup2\n      gt\n      iszero\n      tag_242\n      jumpi\n      tag_243\n      tag_100\n      jump\t// in\n    tag_243:\n    tag_242:\n      eq\n        /* \"contracts/12_VotingV2.sol\":5595:5690  require(cs.workflowStatus == WorkflowStatus.VotingSessionStarted, \"Voting session not started\") */\n      tag_244\n      jumpi\n      mload(0x40)\n      0x08c379a000000000000000000000000000000000000000000000000000000000\n      dup2\n      mstore\n      0x04\n      add\n      tag_245\n      swap1\n      tag_246\n      jump\t// in\n    tag_245:\n      mload(0x40)\n      dup1\n      swap2\n      sub\n      swap1\n      revert\n    tag_244:\n        /* \"contracts/12_VotingV2.sol\":5720:5753  WorkflowStatus.VotingSessionEnded */\n      0x04\n        /* \"contracts/12_VotingV2.sol\":5700:5702  cs */\n      dup2\n        /* \"contracts/12_VotingV2.sol\":5700:5717  cs.workflowStatus */\n      0x00\n      add\n        /* \"contracts/12_VotingV2.sol\":5700:5753  cs.workflowStatus = WorkflowStatus.VotingSessionEnded */\n      swap1\n      0x05\n      dup2\n      gt\n      iszero\n      tag_247\n      jumpi\n      tag_248\n      tag_100\n      jump\t// in\n    tag_248:\n    tag_247:\n      swap1\n      dup2\n      0x05\n      dup2\n      gt\n      iszero\n      tag_249\n      jumpi\n      tag_250\n      tag_100\n      jump\t// in\n    tag_250:\n    tag_249:\n      dup2\n      mstore\n      pop\n      pop\n        /* \"contracts/12_VotingV2.sol\":5768:5860  WorkflowStatusChange(WorkflowStatus.VotingSessionStarted, WorkflowStatus.VotingSessionEnded) */\n      0x0a97a4ee45751e2abf3e4fc8946939630b11b371ea8ae39ccdc3056e98f5cc3f\n        /* \"contracts/12_VotingV2.sol\":5789:5824  WorkflowStatus.VotingSessionStarted */\n      0x03\n        /* \"contracts/12_VotingV2.sol\":5826:5859  WorkflowStatus.VotingSessionEnded */\n      0x04\n        /* \"contracts/12_VotingV2.sol\":5768:5860  WorkflowStatusChange(WorkflowStatus.VotingSessionStarted, WorkflowStatus.VotingSessionEnded) */\n      mload(0x40)\n      tag_251\n      swap3\n      swap2\n      swap1\n      tag_187\n      jump\t// in\n    tag_251:\n      mload(0x40)\n      dup1\n      swap2\n      sub\n      swap1\n      log1\n        /* \"contracts/12_VotingV2.sol\":5530:5867  {... */\n      pop\n        /* \"contracts/12_VotingV2.sol\":5485:5867  function endVotingSession() public onlyOwner {... */\n      jump\t// out\n        /* \"contracts/12_VotingV2.sol\":4754:5479  function sendVote(uint _proposalId) public onlyIfRegistered {... */\n    tag_80:\n        /* \"contracts/12_VotingV2.sol\":1346:1352  voters */\n      0x04\n        /* \"contracts/12_VotingV2.sol\":1346:1364  voters[msg.sender] */\n      0x00\n        /* \"contracts/12_VotingV2.sol\":1353:1363  msg.sender */\n      caller\n        /* \"contracts/12_VotingV2.sol\":1346:1364  voters[msg.sender] */\n      0xffffffffffffffffffffffffffffffffffffffff\n      and\n      0xffffffffffffffffffffffffffffffffffffffff\n      and\n      dup2\n      mstore\n      0x20\n      add\n      swap1\n      dup2\n      mstore\n      0x20\n      add\n      0x00\n      keccak256\n        /* \"contracts/12_VotingV2.sol\":1346:1377  voters[msg.sender].isRegistered */\n      0x00\n      add\n      0x00\n      swap1\n      sload\n      swap1\n      0x0100\n      exp\n      swap1\n      div\n      0xff\n      and\n        /* \"contracts/12_VotingV2.sol\":1338:1404  require(voters[msg.sender].isRegistered, \"You are not registered\") */\n      tag_253\n      jumpi\n      mload(0x40)\n      0x08c379a000000000000000000000000000000000000000000000000000000000\n      dup2\n      mstore\n      0x04\n      add\n      tag_254\n      swap1\n      tag_136\n      jump\t// in\n    tag_254:\n      mload(0x40)\n      dup1\n      swap2\n      sub\n      swap1\n      revert\n    tag_253:\n        /* \"contracts/12_VotingV2.sol\":4824:4848  VotingSession storage cs */\n      0x00\n        /* \"contracts/12_VotingV2.sol\":4851:4865  votingSessions */\n      0x03\n        /* \"contracts/12_VotingV2.sol\":4851:4889  votingSessions[currentVotingSessionId] */\n      0x00\n        /* \"contracts/12_VotingV2.sol\":4866:4888  currentVotingSessionId */\n      sload(0x01)\n        /* \"contracts/12_VotingV2.sol\":4851:4889  votingSessions[currentVotingSessionId] */\n      dup2\n      mstore\n      0x20\n      add\n      swap1\n      dup2\n      mstore\n      0x20\n      add\n      0x00\n      keccak256\n        /* \"contracts/12_VotingV2.sol\":4824:4889  VotingSession storage cs = votingSessions[currentVotingSessionId] */\n      swap1\n      pop\n        /* \"contracts/12_VotingV2.sol\":4928:4963  WorkflowStatus.VotingSessionStarted */\n      0x03\n        /* \"contracts/12_VotingV2.sol\":4907:4963  cs.workflowStatus == WorkflowStatus.VotingSessionStarted */\n      0x05\n      dup2\n      gt\n      iszero\n      tag_256\n      jumpi\n      tag_257\n      tag_100\n      jump\t// in\n    tag_257:\n    tag_256:\n        /* \"contracts/12_VotingV2.sol\":4907:4909  cs */\n      dup2\n        /* \"contracts/12_VotingV2.sol\":4907:4924  cs.workflowStatus */\n      0x00\n      add\n      0x00\n      swap1\n      sload\n      swap1\n      0x0100\n      exp\n      swap1\n      div\n      0xff\n      and\n        /* \"contracts/12_VotingV2.sol\":4907:4963  cs.workflowStatus == WorkflowStatus.VotingSessionStarted */\n      0x05\n      dup2\n      gt\n      iszero\n      tag_258\n      jumpi\n      tag_259\n      tag_100\n      jump\t// in\n    tag_259:\n    tag_258:\n      eq\n        /* \"contracts/12_VotingV2.sol\":4899:4996  require(cs.workflowStatus == WorkflowStatus.VotingSessionStarted, \"registration did not started\") */\n      tag_260\n      jumpi\n      mload(0x40)\n      0x08c379a000000000000000000000000000000000000000000000000000000000\n      dup2\n      mstore\n      0x04\n      add\n      tag_261\n      swap1\n      tag_262\n      jump\t// in\n    tag_261:\n      mload(0x40)\n      dup1\n      swap2\n      sub\n      swap1\n      revert\n    tag_260:\n        /* \"contracts/12_VotingV2.sol\":5028:5030  cs */\n      dup1\n        /* \"contracts/12_VotingV2.sol\":5028:5040  cs.proposals */\n      0x02\n      add\n        /* \"contracts/12_VotingV2.sol\":5028:5047  cs.proposals.length */\n      dup1\n      sload\n      swap1\n      pop\n        /* \"contracts/12_VotingV2.sol\":5014:5025  _proposalId */\n      dup3\n        /* \"contracts/12_VotingV2.sol\":5014:5047  _proposalId < cs.proposals.length */\n      lt\n        /* \"contracts/12_VotingV2.sol\":5006:5071  require(_proposalId < cs.proposals.length, \"Invalid proposal Id\") */\n      tag_263\n      jumpi\n      mload(0x40)\n      0x08c379a000000000000000000000000000000000000000000000000000000000\n      dup2\n      mstore\n      0x04\n      add\n      tag_264\n      swap1\n      tag_265\n      jump\t// in\n    tag_264:\n      mload(0x40)\n      dup1\n      swap2\n      sub\n      swap1\n      revert\n    tag_263:\n        /* \"contracts/12_VotingV2.sol\":5082:5097  Voter storage v */\n      0x00\n        /* \"contracts/12_VotingV2.sol\":5100:5106  voters */\n      0x04\n        /* \"contracts/12_VotingV2.sol\":5100:5118  voters[msg.sender] */\n      0x00\n        /* \"contracts/12_VotingV2.sol\":5107:5117  msg.sender */\n      caller\n        /* \"contracts/12_VotingV2.sol\":5100:5118  voters[msg.sender] */\n      0xffffffffffffffffffffffffffffffffffffffff\n      and\n      0xffffffffffffffffffffffffffffffffffffffff\n      and\n      dup2\n      mstore\n      0x20\n      add\n      swap1\n      dup2\n      mstore\n      0x20\n      add\n      0x00\n      keccak256\n        /* \"contracts/12_VotingV2.sol\":5082:5118  Voter storage v = voters[msg.sender] */\n      swap1\n      pop\n        /* \"contracts/12_VotingV2.sol\":5137:5138  v */\n      dup1\n        /* \"contracts/12_VotingV2.sol\":5137:5151  v.isRegistered */\n      0x00\n      add\n      0x00\n      swap1\n      sload\n      swap1\n      0x0100\n      exp\n      swap1\n      div\n      0xff\n      and\n        /* \"contracts/12_VotingV2.sol\":5129:5203  require(v.isRegistered, \"You are not registered to vote for this session\") */\n      tag_266\n      jumpi\n      mload(0x40)\n      0x08c379a000000000000000000000000000000000000000000000000000000000\n      dup2\n      mstore\n      0x04\n      add\n      tag_267\n      swap1\n      tag_268\n      jump\t// in\n    tag_267:\n      mload(0x40)\n      dup1\n      swap2\n      sub\n      swap1\n      revert\n    tag_266:\n        /* \"contracts/12_VotingV2.sol\":5272:5294  currentVotingSessionId */\n      sload(0x01)\n        /* \"contracts/12_VotingV2.sol\":5221:5222  v */\n      dup2\n        /* \"contracts/12_VotingV2.sol\":5221:5238  v.votedSessionIds */\n      0x01\n      add\n        /* \"contracts/12_VotingV2.sol\":5266:5267  1 */\n      0x01\n        /* \"contracts/12_VotingV2.sol\":5239:5240  v */\n      dup4\n        /* \"contracts/12_VotingV2.sol\":5239:5256  v.votedSessionIds */\n      0x01\n      add\n        /* \"contracts/12_VotingV2.sol\":5239:5263  v.votedSessionIds.length */\n      dup1\n      sload\n      swap1\n      pop\n        /* \"contracts/12_VotingV2.sol\":5239:5267  v.votedSessionIds.length - 1 */\n      tag_269\n      swap2\n      swap1\n      tag_270\n      jump\t// in\n    tag_269:\n        /* \"contracts/12_VotingV2.sol\":5221:5268  v.votedSessionIds[v.votedSessionIds.length - 1] */\n      dup2\n      sload\n      dup2\n      lt\n      tag_271\n      jumpi\n      tag_272\n      tag_226\n      jump\t// in\n    tag_272:\n    tag_271:\n      swap1\n      0x00\n      mstore\n      keccak256(0x00, 0x20)\n      add\n      sload\n        /* \"contracts/12_VotingV2.sol\":5221:5294  v.votedSessionIds[v.votedSessionIds.length - 1] != currentVotingSessionId */\n      sub\n        /* \"contracts/12_VotingV2.sol\":5213:5338  require(v.votedSessionIds[v.votedSessionIds.length - 1] != currentVotingSessionId, \"You have already voted for this session\") */\n      tag_274\n      jumpi\n      mload(0x40)\n      0x08c379a000000000000000000000000000000000000000000000000000000000\n      dup2\n      mstore\n      0x04\n      add\n      tag_275\n      swap1\n      tag_276\n      jump\t// in\n    tag_275:\n      mload(0x40)\n      dup1\n      swap2\n      sub\n      swap1\n      revert\n    tag_274:\n        /* \"contracts/12_VotingV2.sol\":5348:5349  v */\n      dup1\n        /* \"contracts/12_VotingV2.sol\":5348:5361  v.proposalIds */\n      0x02\n      add\n        /* \"contracts/12_VotingV2.sol\":5367:5378  _proposalId */\n      dup4\n        /* \"contracts/12_VotingV2.sol\":5348:5379  v.proposalIds.push(_proposalId) */\n      swap1\n      dup1\n      0x01\n      dup2\n      sload\n      add\n      dup1\n      dup3\n      sstore\n      dup1\n      swap2\n      pop\n      pop\n      0x01\n      swap1\n      sub\n      swap1\n      0x00\n      mstore\n      keccak256(0x00, 0x20)\n      add\n      0x00\n      swap1\n      swap2\n      swap1\n      swap2\n      swap1\n      swap2\n      pop\n      sstore\n        /* \"contracts/12_VotingV2.sol\":5390:5392  cs */\n      dup2\n        /* \"contracts/12_VotingV2.sol\":5390:5402  cs.proposals */\n      0x02\n      add\n        /* \"contracts/12_VotingV2.sol\":5403:5414  _proposalId */\n      dup4\n        /* \"contracts/12_VotingV2.sol\":5390:5415  cs.proposals[_proposalId] */\n      dup2\n      sload\n      dup2\n      lt\n      tag_278\n      jumpi\n      tag_279\n      tag_226\n      jump\t// in\n    tag_279:\n    tag_278:\n      swap1\n      0x00\n      mstore\n      keccak256(0x00, 0x20)\n      swap1\n      0x03\n      mul\n      add\n        /* \"contracts/12_VotingV2.sol\":5390:5425  cs.proposals[_proposalId].voteCount */\n      0x02\n      add\n      0x00\n        /* \"contracts/12_VotingV2.sol\":5390:5427  cs.proposals[_proposalId].voteCount++ */\n      dup2\n      sload\n      dup1\n      swap3\n      swap2\n      swap1\n      tag_281\n      swap1\n      tag_97\n      jump\t// in\n    tag_281:\n      swap2\n      swap1\n      pop\n      sstore\n      pop\n        /* \"contracts/12_VotingV2.sol\":5442:5472  Voted(msg.sender, _proposalId) */\n      0x4d99b957a2bc29a30ebd96a7be8e68fe50a3c701db28a91436490b7d53870ca4\n        /* \"contracts/12_VotingV2.sol\":5448:5458  msg.sender */\n      caller\n        /* \"contracts/12_VotingV2.sol\":5460:5471  _proposalId */\n      dup5\n        /* \"contracts/12_VotingV2.sol\":5442:5472  Voted(msg.sender, _proposalId) */\n      mload(0x40)\n      tag_282\n      swap3\n      swap2\n      swap1\n      tag_283\n      jump\t// in\n    tag_282:\n      mload(0x40)\n      dup1\n      swap2\n      sub\n      swap1\n      log1\n        /* \"contracts/12_VotingV2.sol\":4814:5479  {... */\n      pop\n      pop\n        /* \"contracts/12_VotingV2.sol\":4754:5479  function sendVote(uint _proposalId) public onlyIfRegistered {... */\n      pop\n      jump\t// out\n        /* \"contracts/12_VotingV2.sol\":2687:3141  function startProposalsRegistration() public onlyOwner {... */\n    tag_82:\n        /* \"https://github.com/OpenZeppelin/openzeppelin-contracts/blob/master/contracts/access/Ownable.sol\":1531:1544  _checkOwner() */\n      tag_285\n        /* \"https://github.com/OpenZeppelin/openzeppelin-contracts/blob/master/contracts/access/Ownable.sol\":1531:1542  _checkOwner */\n      tag_94\n        /* \"https://github.com/OpenZeppelin/openzeppelin-contracts/blob/master/contracts/access/Ownable.sol\":1531:1544  _checkOwner() */\n      jump\t// in\n    tag_285:\n        /* \"contracts/12_VotingV2.sol\":2752:2787  VotingSession memory currentSession */\n      0x00\n        /* \"contracts/12_VotingV2.sol\":2790:2809  getCurrentSession() */\n      tag_287\n        /* \"contracts/12_VotingV2.sol\":2790:2807  getCurrentSession */\n      tag_35\n        /* \"contracts/12_VotingV2.sol\":2790:2809  getCurrentSession() */\n      jump\t// in\n    tag_287:\n        /* \"contracts/12_VotingV2.sol\":2752:2809  VotingSession memory currentSession = getCurrentSession() */\n      swap1\n      pop\n        /* \"contracts/12_VotingV2.sol\":2860:2892  WorkflowStatus.RegisteringVoters */\n      0x00\n        /* \"contracts/12_VotingV2.sol\":2827:2892  currentSession.workflowStatus == WorkflowStatus.RegisteringVoters */\n      0x05\n      dup2\n      gt\n      iszero\n      tag_288\n      jumpi\n      tag_289\n      tag_100\n      jump\t// in\n    tag_289:\n    tag_288:\n        /* \"contracts/12_VotingV2.sol\":2827:2841  currentSession */\n      dup2\n        /* \"contracts/12_VotingV2.sol\":2827:2856  currentSession.workflowStatus */\n      0x00\n      add\n      mload\n        /* \"contracts/12_VotingV2.sol\":2827:2892  currentSession.workflowStatus == WorkflowStatus.RegisteringVoters */\n      0x05\n      dup2\n      gt\n      iszero\n      tag_290\n      jumpi\n      tag_291\n      tag_100\n      jump\t// in\n    tag_291:\n    tag_290:\n      eq\n        /* \"contracts/12_VotingV2.sol\":2819:2935  require(currentSession.workflowStatus == WorkflowStatus.RegisteringVoters, \"Proposals not started for this session\") */\n      tag_292\n      jumpi\n      mload(0x40)\n      0x08c379a000000000000000000000000000000000000000000000000000000000\n      dup2\n      mstore\n      0x04\n      add\n      tag_293\n      swap1\n      tag_149\n      jump\t// in\n    tag_293:\n      mload(0x40)\n      dup1\n      swap2\n      sub\n      swap1\n      revert\n    tag_292:\n        /* \"contracts/12_VotingV2.sol\":2977:3020  WorkflowStatus.ProposalsRegistrationStarted */\n      0x01\n        /* \"contracts/12_VotingV2.sol\":2945:2959  currentSession */\n      dup2\n        /* \"contracts/12_VotingV2.sol\":2945:2974  currentSession.workflowStatus */\n      0x00\n      add\n        /* \"contracts/12_VotingV2.sol\":2945:3020  currentSession.workflowStatus = WorkflowStatus.ProposalsRegistrationStarted */\n      swap1\n      0x05\n      dup2\n      gt\n      iszero\n      tag_294\n      jumpi\n      tag_295\n      tag_100\n      jump\t// in\n    tag_295:\n    tag_294:\n      swap1\n      dup2\n      0x05\n      dup2\n      gt\n      iszero\n      tag_296\n      jumpi\n      tag_297\n      tag_100\n      jump\t// in\n    tag_297:\n    tag_296:\n      dup2\n      mstore\n      pop\n      pop\n        /* \"contracts/12_VotingV2.sol\":3035:3134  WorkflowStatusChange(WorkflowStatus.RegisteringVoters, WorkflowStatus.ProposalsRegistrationStarted) */\n      0x0a97a4ee45751e2abf3e4fc8946939630b11b371ea8ae39ccdc3056e98f5cc3f\n        /* \"contracts/12_VotingV2.sol\":3056:3088  WorkflowStatus.RegisteringVoters */\n      0x00\n        /* \"contracts/12_VotingV2.sol\":3090:3133  WorkflowStatus.ProposalsRegistrationStarted */\n      0x01\n        /* \"contracts/12_VotingV2.sol\":3035:3134  WorkflowStatusChange(WorkflowStatus.RegisteringVoters, WorkflowStatus.ProposalsRegistrationStarted) */\n      mload(0x40)\n      tag_298\n      swap3\n      swap2\n      swap1\n      tag_187\n      jump\t// in\n    tag_298:\n      mload(0x40)\n      dup1\n      swap2\n      sub\n      swap1\n      log1\n        /* \"contracts/12_VotingV2.sol\":2742:3141  {... */\n      pop\n        /* \"contracts/12_VotingV2.sol\":2687:3141  function startProposalsRegistration() public onlyOwner {... */\n      jump\t// out\n        /* \"contracts/12_VotingV2.sol\":4342:4748  function startVotingSession() public onlyOwner {... */\n    tag_84:\n        /* \"https://github.com/OpenZeppelin/openzeppelin-contracts/blob/master/contracts/access/Ownable.sol\":1531:1544  _checkOwner() */\n      tag_300\n        /* \"https://github.com/OpenZeppelin/openzeppelin-contracts/blob/master/contracts/access/Ownable.sol\":1531:1542  _checkOwner */\n      tag_94\n        /* \"https://github.com/OpenZeppelin/openzeppelin-contracts/blob/master/contracts/access/Ownable.sol\":1531:1544  _checkOwner() */\n      jump\t// in\n    tag_300:\n        /* \"contracts/12_VotingV2.sol\":4399:4422  VotingSession memory cs */\n      0x00\n        /* \"contracts/12_VotingV2.sol\":4425:4444  getCurrentSession() */\n      tag_302\n        /* \"contracts/12_VotingV2.sol\":4425:4442  getCurrentSession */\n      tag_35\n        /* \"contracts/12_VotingV2.sol\":4425:4444  getCurrentSession() */\n      jump\t// in\n    tag_302:\n        /* \"contracts/12_VotingV2.sol\":4399:4444  VotingSession memory cs = getCurrentSession() */\n      swap1\n      pop\n        /* \"contracts/12_VotingV2.sol\":4483:4524  WorkflowStatus.ProposalsRegistrationEnded */\n      0x02\n        /* \"contracts/12_VotingV2.sol\":4462:4524  cs.workflowStatus == WorkflowStatus.ProposalsRegistrationEnded */\n      0x05\n      dup2\n      gt\n      iszero\n      tag_303\n      jumpi\n      tag_304\n      tag_100\n      jump\t// in\n    tag_304:\n    tag_303:\n        /* \"contracts/12_VotingV2.sol\":4462:4464  cs */\n      dup2\n        /* \"contracts/12_VotingV2.sol\":4462:4479  cs.workflowStatus */\n      0x00\n      add\n      mload\n        /* \"contracts/12_VotingV2.sol\":4462:4524  cs.workflowStatus == WorkflowStatus.ProposalsRegistrationEnded */\n      0x05\n      dup2\n      gt\n      iszero\n      tag_305\n      jumpi\n      tag_306\n      tag_100\n      jump\t// in\n    tag_306:\n    tag_305:\n      eq\n        /* \"contracts/12_VotingV2.sol\":4454:4561  require(cs.workflowStatus == WorkflowStatus.ProposalsRegistrationEnded, \"Proposals registration not ended\") */\n      tag_307\n      jumpi\n      mload(0x40)\n      0x08c379a000000000000000000000000000000000000000000000000000000000\n      dup2\n      mstore\n      0x04\n      add\n      tag_308\n      swap1\n      tag_309\n      jump\t// in\n    tag_308:\n      mload(0x40)\n      dup1\n      swap2\n      sub\n      swap1\n      revert\n    tag_307:\n        /* \"contracts/12_VotingV2.sol\":4591:4626  WorkflowStatus.VotingSessionStarted */\n      0x03\n        /* \"contracts/12_VotingV2.sol\":4571:4573  cs */\n      dup2\n        /* \"contracts/12_VotingV2.sol\":4571:4588  cs.workflowStatus */\n      0x00\n      add\n        /* \"contracts/12_VotingV2.sol\":4571:4626  cs.workflowStatus = WorkflowStatus.VotingSessionStarted */\n      swap1\n      0x05\n      dup2\n      gt\n      iszero\n      tag_310\n      jumpi\n      tag_311\n      tag_100\n      jump\t// in\n    tag_311:\n    tag_310:\n      swap1\n      dup2\n      0x05\n      dup2\n      gt\n      iszero\n      tag_312\n      jumpi\n      tag_313\n      tag_100\n      jump\t// in\n    tag_313:\n    tag_312:\n      dup2\n      mstore\n      pop\n      pop\n        /* \"contracts/12_VotingV2.sol\":4641:4741  WorkflowStatusChange(WorkflowStatus.ProposalsRegistrationEnded, WorkflowStatus.VotingSessionStarted) */\n      0x0a97a4ee45751e2abf3e4fc8946939630b11b371ea8ae39ccdc3056e98f5cc3f\n        /* \"contracts/12_VotingV2.sol\":4662:4703  WorkflowStatus.ProposalsRegistrationEnded */\n      0x02\n        /* \"contracts/12_VotingV2.sol\":4705:4740  WorkflowStatus.VotingSessionStarted */\n      0x03\n        /* \"contracts/12_VotingV2.sol\":4641:4741  WorkflowStatusChange(WorkflowStatus.ProposalsRegistrationEnded, WorkflowStatus.VotingSessionStarted) */\n      mload(0x40)\n      tag_314\n      swap3\n      swap2\n      swap1\n      tag_187\n      jump\t// in\n    tag_314:\n      mload(0x40)\n      dup1\n      swap2\n      sub\n      swap1\n      log1\n        /* \"contracts/12_VotingV2.sol\":4389:4748  {... */\n      pop\n        /* \"contracts/12_VotingV2.sol\":4342:4748  function startVotingSession() public onlyOwner {... */\n      jump\t// out\n        /* \"https://github.com/OpenZeppelin/openzeppelin-contracts/blob/master/contracts/access/Ownable.sol\":2543:2758  function transferOwnership(address newOwner) public virtual onlyOwner {... */\n    tag_87:\n        /* \"https://github.com/OpenZeppelin/openzeppelin-contracts/blob/master/contracts/access/Ownable.sol\":1531:1544  _checkOwner() */\n      tag_316\n        /* \"https://github.com/OpenZeppelin/openzeppelin-contracts/blob/master/contracts/access/Ownable.sol\":1531:1542  _checkOwner */\n      tag_94\n        /* \"https://github.com/OpenZeppelin/openzeppelin-contracts/blob/master/contracts/access/Ownable.sol\":1531:1544  _checkOwner() */\n      jump\t// in\n    tag_316:\n        /* \"https://github.com/OpenZeppelin/openzeppelin-contracts/blob/master/contracts/access/Ownable.sol\":2647:2648  0 */\n      0x00\n        /* \"https://github.com/OpenZeppelin/openzeppelin-contracts/blob/master/contracts/access/Ownable.sol\":2627:2649  newOwner == address(0) */\n      0xffffffffffffffffffffffffffffffffffffffff\n      and\n        /* \"https://github.com/OpenZeppelin/openzeppelin-contracts/blob/master/contracts/access/Ownable.sol\":2627:2635  newOwner */\n      dup2\n        /* \"https://github.com/OpenZeppelin/openzeppelin-contracts/blob/master/contracts/access/Ownable.sol\":2627:2649  newOwner == address(0) */\n      0xffffffffffffffffffffffffffffffffffffffff\n      and\n      sub\n        /* \"https://github.com/OpenZeppelin/openzeppelin-contracts/blob/master/contracts/access/Ownable.sol\":2623:2714  if (newOwner == address(0)) {... */\n      tag_318\n      jumpi\n        /* \"https://github.com/OpenZeppelin/openzeppelin-contracts/blob/master/contracts/access/Ownable.sol\":2700:2701  0 */\n      0x00\n        /* \"https://github.com/OpenZeppelin/openzeppelin-contracts/blob/master/contracts/access/Ownable.sol\":2672:2703  OwnableInvalidOwner(address(0)) */\n      mload(0x40)\n      0x1e4fbdf700000000000000000000000000000000000000000000000000000000\n      dup2\n      mstore\n      0x04\n      add\n      tag_319\n      swap2\n      swap1\n      tag_66\n      jump\t// in\n    tag_319:\n      mload(0x40)\n      dup1\n      swap2\n      sub\n      swap1\n      revert\n        /* \"https://github.com/OpenZeppelin/openzeppelin-contracts/blob/master/contracts/access/Ownable.sol\":2623:2714  if (newOwner == address(0)) {... */\n    tag_318:\n        /* \"https://github.com/OpenZeppelin/openzeppelin-contracts/blob/master/contracts/access/Ownable.sol\":2723:2751  _transferOwnership(newOwner) */\n      tag_320\n        /* \"https://github.com/OpenZeppelin/openzeppelin-contracts/blob/master/contracts/access/Ownable.sol\":2742:2750  newOwner */\n      dup2\n        /* \"https://github.com/OpenZeppelin/openzeppelin-contracts/blob/master/contracts/access/Ownable.sol\":2723:2741  _transferOwnership */\n      tag_192\n        /* \"https://github.com/OpenZeppelin/openzeppelin-contracts/blob/master/contracts/access/Ownable.sol\":2723:2751  _transferOwnership(newOwner) */\n      jump\t// in\n    tag_320:\n        /* \"https://github.com/OpenZeppelin/openzeppelin-contracts/blob/master/contracts/access/Ownable.sol\":2543:2758  function transferOwnership(address newOwner) public virtual onlyOwner {... */\n      pop\n      jump\t// out\n        /* \"contracts/12_VotingV2.sol\":6806:6961  function getAllProposalsBySession(uint _sessiondId) external view returns (Proposal[] memory) {... */\n    tag_90:\n        /* \"contracts/12_VotingV2.sol\":6881:6898  Proposal[] memory */\n      0x60\n        /* \"contracts/12_VotingV2.sol\":6917:6931  votingSessions */\n      0x03\n        /* \"contracts/12_VotingV2.sol\":6917:6944  votingSessions[_sessiondId] */\n      0x00\n        /* \"contracts/12_VotingV2.sol\":6932:6943  _sessiondId */\n      dup4\n        /* \"contracts/12_VotingV2.sol\":6917:6944  votingSessions[_sessiondId] */\n      dup2\n      mstore\n      0x20\n      add\n      swap1\n      dup2\n      mstore\n      0x20\n      add\n      0x00\n      keccak256\n        /* \"contracts/12_VotingV2.sol\":6917:6954  votingSessions[_sessiondId].proposals */\n      0x02\n      add\n        /* \"contracts/12_VotingV2.sol\":6910:6954  return votingSessions[_sessiondId].proposals */\n      dup1\n      sload\n      dup1\n      0x20\n      mul\n      0x20\n      add\n      mload(0x40)\n      swap1\n      dup2\n      add\n      0x40\n      mstore\n      dup1\n      swap3\n      swap2\n      swap1\n      dup2\n      dup2\n      mstore\n      0x20\n      add\n      0x00\n      swap1\n    tag_322:\n      dup3\n      dup3\n      lt\n      iszero\n      tag_323\n      jumpi\n      dup4\n      dup3\n      swap1\n      0x00\n      mstore\n      keccak256(0x00, 0x20)\n      swap1\n      0x03\n      mul\n      add\n      mload(0x40)\n      dup1\n      0x60\n      add\n      0x40\n      mstore\n      swap1\n      dup2\n      0x00\n      dup3\n      add\n      sload\n      dup2\n      mstore\n      0x20\n      add\n      0x01\n      dup3\n      add\n      dup1\n      sload\n      tag_325\n      swap1\n      tag_113\n      jump\t// in\n    tag_325:\n      dup1\n      0x1f\n      add\n      0x20\n      dup1\n      swap2\n      div\n      mul\n      0x20\n      add\n      mload(0x40)\n      swap1\n      dup2\n      add\n      0x40\n      mstore\n      dup1\n      swap3\n      swap2\n      swap1\n      dup2\n      dup2\n      mstore\n      0x20\n      add\n      dup3\n      dup1\n      sload\n      tag_326\n      swap1\n      tag_113\n      jump\t// in\n    tag_326:\n      dup1\n      iszero\n      tag_327\n      jumpi\n      dup1\n      0x1f\n      lt\n      tag_328\n      jumpi\n      0x0100\n      dup1\n      dup4\n      sload\n      div\n      mul\n      dup4\n      mstore\n      swap2\n      0x20\n      add\n      swap2\n      jump(tag_327)\n    tag_328:\n      dup3\n      add\n      swap2\n      swap1\n      0x00\n      mstore\n      keccak256(0x00, 0x20)\n      swap1\n    tag_329:\n      dup2\n      sload\n      dup2\n      mstore\n      swap1\n      0x01\n      add\n      swap1\n      0x20\n      add\n      dup1\n      dup4\n      gt\n      tag_329\n      jumpi\n      dup3\n      swap1\n      sub\n      0x1f\n      and\n      dup3\n      add\n      swap2\n    tag_327:\n      pop\n      pop\n      pop\n      pop\n      pop\n      dup2\n      mstore\n      0x20\n      add\n      0x02\n      dup3\n      add\n      sload\n      dup2\n      mstore\n      pop\n      pop\n      dup2\n      mstore\n      0x20\n      add\n      swap1\n      0x01\n      add\n      swap1\n      jump(tag_322)\n    tag_323:\n      pop\n      pop\n      pop\n      pop\n      swap1\n      pop\n        /* \"contracts/12_VotingV2.sol\":6806:6961  function getAllProposalsBySession(uint _sessiondId) external view returns (Proposal[] memory) {... */\n      swap2\n      swap1\n      pop\n      jump\t// out\n        /* \"https://github.com/OpenZeppelin/openzeppelin-contracts/blob/master/contracts/access/Ownable.sol\":1796:1958  function _checkOwner() internal view virtual {... */\n    tag_94:\n        /* \"https://github.com/OpenZeppelin/openzeppelin-contracts/blob/master/contracts/access/Ownable.sol\":1866:1878  _msgSender() */\n      tag_331\n        /* \"https://github.com/OpenZeppelin/openzeppelin-contracts/blob/master/contracts/access/Ownable.sol\":1866:1876  _msgSender */\n      tag_332\n        /* \"https://github.com/OpenZeppelin/openzeppelin-contracts/blob/master/contracts/access/Ownable.sol\":1866:1878  _msgSender() */\n      jump\t// in\n    tag_331:\n        /* \"https://github.com/OpenZeppelin/openzeppelin-contracts/blob/master/contracts/access/Ownable.sol\":1855:1878  owner() != _msgSender() */\n      0xffffffffffffffffffffffffffffffffffffffff\n      and\n        /* \"https://github.com/OpenZeppelin/openzeppelin-contracts/blob/master/contracts/access/Ownable.sol\":1855:1862  owner() */\n      tag_333\n        /* \"https://github.com/OpenZeppelin/openzeppelin-contracts/blob/master/contracts/access/Ownable.sol\":1855:1860  owner */\n      tag_64\n        /* \"https://github.com/OpenZeppelin/openzeppelin-contracts/blob/master/contracts/access/Ownable.sol\":1855:1862  owner() */\n      jump\t// in\n    tag_333:\n        /* \"https://github.com/OpenZeppelin/openzeppelin-contracts/blob/master/contracts/access/Ownable.sol\":1855:1878  owner() != _msgSender() */\n      0xffffffffffffffffffffffffffffffffffffffff\n      and\n      eq\n        /* \"https://github.com/OpenZeppelin/openzeppelin-contracts/blob/master/contracts/access/Ownable.sol\":1851:1952  if (owner() != _msgSender()) {... */\n      tag_334\n      jumpi\n        /* \"https://github.com/OpenZeppelin/openzeppelin-contracts/blob/master/contracts/access/Ownable.sol\":1928:1940  _msgSender() */\n      tag_335\n        /* \"https://github.com/OpenZeppelin/openzeppelin-contracts/blob/master/contracts/access/Ownable.sol\":1928:1938  _msgSender */\n      tag_332\n        /* \"https://github.com/OpenZeppelin/openzeppelin-contracts/blob/master/contracts/access/Ownable.sol\":1928:1940  _msgSender() */\n      jump\t// in\n    tag_335:\n        /* \"https://github.com/OpenZeppelin/openzeppelin-contracts/blob/master/contracts/access/Ownable.sol\":1901:1941  OwnableUnauthorizedAccount(_msgSender()) */\n      mload(0x40)\n      0x118cdaa700000000000000000000000000000000000000000000000000000000\n      dup2\n      mstore\n      0x04\n      add\n      tag_336\n      swap2\n      swap1\n      tag_66\n      jump\t// in\n    tag_336:\n      mload(0x40)\n      dup1\n      swap2\n      sub\n      swap1\n      revert\n        /* \"https://github.com/OpenZeppelin/openzeppelin-contracts/blob/master/contracts/access/Ownable.sol\":1851:1952  if (owner() != _msgSender()) {... */\n    tag_334:\n        /* \"https://github.com/OpenZeppelin/openzeppelin-contracts/blob/master/contracts/access/Ownable.sol\":1796:1958  function _checkOwner() internal view virtual {... */\n      jump\t// out\n        /* \"https://github.com/OpenZeppelin/openzeppelin-contracts/blob/master/contracts/access/Ownable.sol\":2912:3099  function _transferOwnership(address newOwner) internal virtual {... */\n    tag_192:\n        /* \"https://github.com/OpenZeppelin/openzeppelin-contracts/blob/master/contracts/access/Ownable.sol\":2985:3001  address oldOwner */\n      0x00\n        /* \"https://github.com/OpenZeppelin/openzeppelin-contracts/blob/master/contracts/access/Ownable.sol\":3004:3010  _owner */\n      0x00\n      0x00\n      swap1\n      sload\n      swap1\n      0x0100\n      exp\n      swap1\n      div\n      0xffffffffffffffffffffffffffffffffffffffff\n      and\n        /* \"https://github.com/OpenZeppelin/openzeppelin-contracts/blob/master/contracts/access/Ownable.sol\":2985:3010  address oldOwner = _owner */\n      swap1\n      pop\n        /* \"https://github.com/OpenZeppelin/openzeppelin-contracts/blob/master/contracts/access/Ownable.sol\":3029:3037  newOwner */\n      dup2\n        /* \"https://github.com/OpenZeppelin/openzeppelin-contracts/blob/master/contracts/access/Ownable.sol\":3020:3026  _owner */\n      0x00\n      0x00\n        /* \"https://github.com/OpenZeppelin/openzeppelin-contracts/blob/master/contracts/access/Ownable.sol\":3020:3037  _owner = newOwner */\n      0x0100\n      exp\n      dup2\n      sload\n      dup2\n      0xffffffffffffffffffffffffffffffffffffffff\n      mul\n      not\n      and\n      swap1\n      dup4\n      0xffffffffffffffffffffffffffffffffffffffff\n      and\n      mul\n      or\n      swap1\n      sstore\n      pop\n        /* \"https://github.com/OpenZeppelin/openzeppelin-contracts/blob/master/contracts/access/Ownable.sol\":3083:3091  newOwner */\n      dup2\n        /* \"https://github.com/OpenZeppelin/openzeppelin-contracts/blob/master/contracts/access/Ownable.sol\":3052:3092  OwnershipTransferred(oldOwner, newOwner) */\n      0xffffffffffffffffffffffffffffffffffffffff\n      and\n        /* \"https://github.com/OpenZeppelin/openzeppelin-contracts/blob/master/contracts/access/Ownable.sol\":3073:3081  oldOwner */\n      dup2\n        /* \"https://github.com/OpenZeppelin/openzeppelin-contracts/blob/master/contracts/access/Ownable.sol\":3052:3092  OwnershipTransferred(oldOwner, newOwner) */\n      0xffffffffffffffffffffffffffffffffffffffff\n      and\n      0x8be0079c531659141344cd1fd0a4f28419497f9722a3daafe3b4186f6b6457e0\n      mload(0x40)\n      mload(0x40)\n      dup1\n      swap2\n      sub\n      swap1\n      log3\n        /* \"https://github.com/OpenZeppelin/openzeppelin-contracts/blob/master/contracts/access/Ownable.sol\":2975:3099  {... */\n      pop\n        /* \"https://github.com/OpenZeppelin/openzeppelin-contracts/blob/master/contracts/access/Ownable.sol\":2912:3099  function _transferOwnership(address newOwner) internal virtual {... */\n      pop\n      jump\t// out\n        /* \"https://github.com/OpenZeppelin/openzeppelin-contracts/blob/master/contracts/utils/Context.sol\":656:752  function _msgSender() internal view virtual returns (address) {... */\n    tag_332:\n        /* \"https://github.com/OpenZeppelin/openzeppelin-contracts/blob/master/contracts/utils/Context.sol\":709:716  address */\n      0x00\n        /* \"https://github.com/OpenZeppelin/openzeppelin-contracts/blob/master/contracts/utils/Context.sol\":735:745  msg.sender */\n      caller\n        /* \"https://github.com/OpenZeppelin/openzeppelin-contracts/blob/master/contracts/utils/Context.sol\":728:745  return msg.sender */\n      swap1\n      pop\n        /* \"https://github.com/OpenZeppelin/openzeppelin-contracts/blob/master/contracts/utils/Context.sol\":656:752  function _msgSender() internal view virtual returns (address) {... */\n      swap1\n      jump\t// out\n    tag_103:\n      mload(0x40)\n      dup1\n      0x60\n      add\n      0x40\n      mstore\n      dup1\n      0x00\n      0x05\n      dup2\n      gt\n      iszero\n      tag_339\n      jumpi\n      tag_340\n      tag_100\n      jump\t// in\n    tag_340:\n    tag_339:\n      dup2\n      mstore\n      0x20\n      add\n      0x00\n      dup2\n      mstore\n      0x20\n      add\n      0x60\n      dup2\n      mstore\n      pop\n      swap1\n      jump\t// out\n    tag_220:\n      mload(0x40)\n      dup1\n      0x60\n      add\n      0x40\n      mstore\n      dup1\n      0x00\n      dup2\n      mstore\n      0x20\n      add\n      0x60\n      dup2\n      mstore\n      0x20\n      add\n      0x00\n      dup2\n      mstore\n      pop\n      swap1\n      jump\t// out\n        /* \"#utility.yul\":7:82   */\n    tag_341:\n        /* \"#utility.yul\":40:46   */\n      0x00\n        /* \"#utility.yul\":73:75   */\n      0x40\n        /* \"#utility.yul\":67:76   */\n      mload\n        /* \"#utility.yul\":57:76   */\n      swap1\n      pop\n        /* \"#utility.yul\":7:82   */\n      swap1\n      jump\t// out\n        /* \"#utility.yul\":88:205   */\n    tag_342:\n        /* \"#utility.yul\":197:198   */\n      0x00\n        /* \"#utility.yul\":194:195   */\n      0x00\n        /* \"#utility.yul\":187:199   */\n      revert\n        /* \"#utility.yul\":211:328   */\n    tag_343:\n        /* \"#utility.yul\":320:321   */\n      0x00\n        /* \"#utility.yul\":317:318   */\n      0x00\n        /* \"#utility.yul\":310:322   */\n      revert\n        /* \"#utility.yul\":334:411   */\n    tag_344:\n        /* \"#utility.yul\":371:378   */\n      0x00\n        /* \"#utility.yul\":400:405   */\n      dup2\n        /* \"#utility.yul\":389:405   */\n      swap1\n      pop\n        /* \"#utility.yul\":334:411   */\n      swap2\n      swap1\n      pop\n      jump\t// out\n        /* \"#utility.yul\":417:539   */\n    tag_345:\n        /* \"#utility.yul\":490:514   */\n      tag_439\n        /* \"#utility.yul\":508:513   */\n      dup2\n        /* \"#utility.yul\":490:514   */\n      tag_344\n      jump\t// in\n    tag_439:\n        /* \"#utility.yul\":483:488   */\n      dup2\n        /* \"#utility.yul\":480:515   */\n      eq\n        /* \"#utility.yul\":470:533   */\n      tag_440\n      jumpi\n        /* \"#utility.yul\":529:530   */\n      0x00\n        /* \"#utility.yul\":526:527   */\n      0x00\n        /* \"#utility.yul\":519:531   */\n      revert\n        /* \"#utility.yul\":470:533   */\n    tag_440:\n        /* \"#utility.yul\":417:539   */\n      pop\n      jump\t// out\n        /* \"#utility.yul\":545:684   */\n    tag_346:\n        /* \"#utility.yul\":591:596   */\n      0x00\n        /* \"#utility.yul\":629:635   */\n      dup2\n        /* \"#utility.yul\":616:636   */\n      calldataload\n        /* \"#utility.yul\":607:636   */\n      swap1\n      pop\n        /* \"#utility.yul\":645:678   */\n      tag_442\n        /* \"#utility.yul\":672:677   */\n      dup2\n        /* \"#utility.yul\":645:678   */\n      tag_345\n      jump\t// in\n    tag_442:\n        /* \"#utility.yul\":545:684   */\n      swap3\n      swap2\n      pop\n      pop\n      jump\t// out\n        /* \"#utility.yul\":690:1019   */\n    tag_30:\n        /* \"#utility.yul\":749:755   */\n      0x00\n        /* \"#utility.yul\":798:800   */\n      0x20\n        /* \"#utility.yul\":786:795   */\n      dup3\n        /* \"#utility.yul\":777:784   */\n      dup5\n        /* \"#utility.yul\":773:796   */\n      sub\n        /* \"#utility.yul\":769:801   */\n      slt\n        /* \"#utility.yul\":766:885   */\n      iszero\n      tag_444\n      jumpi\n        /* \"#utility.yul\":804:883   */\n      tag_445\n      tag_342\n      jump\t// in\n    tag_445:\n        /* \"#utility.yul\":766:885   */\n    tag_444:\n        /* \"#utility.yul\":924:925   */\n      0x00\n        /* \"#utility.yul\":949:1002   */\n      tag_446\n        /* \"#utility.yul\":994:1001   */\n      dup5\n        /* \"#utility.yul\":985:991   */\n      dup3\n        /* \"#utility.yul\":974:983   */\n      dup6\n        /* \"#utility.yul\":970:992   */\n      add\n        /* \"#utility.yul\":949:1002   */\n      tag_346\n      jump\t// in\n    tag_446:\n        /* \"#utility.yul\":939:1002   */\n      swap2\n      pop\n        /* \"#utility.yul\":895:1012   */\n      pop\n        /* \"#utility.yul\":690:1019   */\n      swap3\n      swap2\n      pop\n      pop\n      jump\t// out\n        /* \"#utility.yul\":1025:1205   */\n    tag_100:\n        /* \"#utility.yul\":1073:1150   */\n      0x4e487b7100000000000000000000000000000000000000000000000000000000\n        /* \"#utility.yul\":1070:1071   */\n      0x00\n        /* \"#utility.yul\":1063:1151   */\n      mstore\n        /* \"#utility.yul\":1170:1174   */\n      0x21\n        /* \"#utility.yul\":1167:1168   */\n      0x04\n        /* \"#utility.yul\":1160:1175   */\n      mstore\n        /* \"#utility.yul\":1194:1198   */\n      0x24\n        /* \"#utility.yul\":1191:1192   */\n      0x00\n        /* \"#utility.yul\":1184:1199   */\n      revert\n        /* \"#utility.yul\":1211:1333   */\n    tag_347:\n        /* \"#utility.yul\":1301:1302   */\n      0x06\n        /* \"#utility.yul\":1294:1299   */\n      dup2\n        /* \"#utility.yul\":1291:1303   */\n      lt\n        /* \"#utility.yul\":1281:1327   */\n      tag_449\n      jumpi\n        /* \"#utility.yul\":1307:1325   */\n      tag_450\n      tag_100\n      jump\t// in\n    tag_450:\n        /* \"#utility.yul\":1281:1327   */\n    tag_449:\n        /* \"#utility.yul\":1211:1333   */\n      pop\n      jump\t// out\n        /* \"#utility.yul\":1339:1484   */\n    tag_348:\n        /* \"#utility.yul\":1393:1400   */\n      0x00\n        /* \"#utility.yul\":1422:1427   */\n      dup2\n        /* \"#utility.yul\":1411:1427   */\n      swap1\n      pop\n        /* \"#utility.yul\":1428:1478   */\n      tag_452\n        /* \"#utility.yul\":1472:1477   */\n      dup3\n        /* \"#utility.yul\":1428:1478   */\n      tag_347\n      jump\t// in\n    tag_452:\n        /* \"#utility.yul\":1339:1484   */\n      swap2\n      swap1\n      pop\n      jump\t// out\n        /* \"#utility.yul\":1490:1635   */\n    tag_349:\n        /* \"#utility.yul\":1555:1564   */\n      0x00\n        /* \"#utility.yul\":1588:1629   */\n      tag_454\n        /* \"#utility.yul\":1623:1628   */\n      dup3\n        /* \"#utility.yul\":1588:1629   */\n      tag_348\n      jump\t// in\n    tag_454:\n        /* \"#utility.yul\":1575:1629   */\n      swap1\n      pop\n        /* \"#utility.yul\":1490:1635   */\n      swap2\n      swap1\n      pop\n      jump\t// out\n        /* \"#utility.yul\":1641:1802   */\n    tag_350:\n        /* \"#utility.yul\":1743:1795   */\n      tag_456\n        /* \"#utility.yul\":1789:1794   */\n      dup2\n        /* \"#utility.yul\":1743:1795   */\n      tag_349\n      jump\t// in\n    tag_456:\n        /* \"#utility.yul\":1738:1741   */\n      dup3\n        /* \"#utility.yul\":1731:1796   */\n      mstore\n        /* \"#utility.yul\":1641:1802   */\n      pop\n      pop\n      jump\t// out\n        /* \"#utility.yul\":1808:1926   */\n    tag_351:\n        /* \"#utility.yul\":1895:1919   */\n      tag_458\n        /* \"#utility.yul\":1913:1918   */\n      dup2\n        /* \"#utility.yul\":1895:1919   */\n      tag_344\n      jump\t// in\n    tag_458:\n        /* \"#utility.yul\":1890:1893   */\n      dup3\n        /* \"#utility.yul\":1883:1920   */\n      mstore\n        /* \"#utility.yul\":1808:1926   */\n      pop\n      pop\n      jump\t// out\n        /* \"#utility.yul\":1932:2294   */\n    tag_33:\n        /* \"#utility.yul\":2068:2072   */\n      0x00\n        /* \"#utility.yul\":2106:2108   */\n      0x40\n        /* \"#utility.yul\":2095:2104   */\n      dup3\n        /* \"#utility.yul\":2091:2109   */\n      add\n        /* \"#utility.yul\":2083:2109   */\n      swap1\n      pop\n        /* \"#utility.yul\":2119:2205   */\n      tag_460\n        /* \"#utility.yul\":2202:2203   */\n      0x00\n        /* \"#utility.yul\":2191:2200   */\n      dup4\n        /* \"#utility.yul\":2187:2204   */\n      add\n        /* \"#utility.yul\":2178:2184   */\n      dup6\n        /* \"#utility.yul\":2119:2205   */\n      tag_350\n      jump\t// in\n    tag_460:\n        /* \"#utility.yul\":2215:2287   */\n      tag_461\n        /* \"#utility.yul\":2283:2285   */\n      0x20\n        /* \"#utility.yul\":2272:2281   */\n      dup4\n        /* \"#utility.yul\":2268:2286   */\n      add\n        /* \"#utility.yul\":2259:2265   */\n      dup5\n        /* \"#utility.yul\":2215:2287   */\n      tag_351\n      jump\t// in\n    tag_461:\n        /* \"#utility.yul\":1932:2294   */\n      swap4\n      swap3\n      pop\n      pop\n      pop\n      jump\t// out\n        /* \"#utility.yul\":2300:2451   */\n    tag_352:\n        /* \"#utility.yul\":2392:2444   */\n      tag_463\n        /* \"#utility.yul\":2438:2443   */\n      dup2\n        /* \"#utility.yul\":2392:2444   */\n      tag_349\n      jump\t// in\n    tag_463:\n        /* \"#utility.yul\":2387:2390   */\n      dup3\n        /* \"#utility.yul\":2380:2445   */\n      mstore\n        /* \"#utility.yul\":2300:2451   */\n      pop\n      pop\n      jump\t// out\n        /* \"#utility.yul\":2457:2565   */\n    tag_353:\n        /* \"#utility.yul\":2534:2558   */\n      tag_465\n        /* \"#utility.yul\":2552:2557   */\n      dup2\n        /* \"#utility.yul\":2534:2558   */\n      tag_344\n      jump\t// in\n    tag_465:\n        /* \"#utility.yul\":2529:2532   */\n      dup3\n        /* \"#utility.yul\":2522:2559   */\n      mstore\n        /* \"#utility.yul\":2457:2565   */\n      pop\n      pop\n      jump\t// out\n        /* \"#utility.yul\":2571:2709   */\n    tag_354:\n        /* \"#utility.yul\":2662:2668   */\n      0x00\n        /* \"#utility.yul\":2696:2701   */\n      dup2\n        /* \"#utility.yul\":2690:2702   */\n      mload\n        /* \"#utility.yul\":2680:2702   */\n      swap1\n      pop\n        /* \"#utility.yul\":2571:2709   */\n      swap2\n      swap1\n      pop\n      jump\t// out\n        /* \"#utility.yul\":2715:2913   */\n    tag_355:\n        /* \"#utility.yul\":2828:2839   */\n      0x00\n        /* \"#utility.yul\":2862:2868   */\n      dup3\n        /* \"#utility.yul\":2857:2860   */\n      dup3\n        /* \"#utility.yul\":2850:2869   */\n      mstore\n        /* \"#utility.yul\":2902:2906   */\n      0x20\n        /* \"#utility.yul\":2897:2900   */\n      dup3\n        /* \"#utility.yul\":2893:2907   */\n      add\n        /* \"#utility.yul\":2878:2907   */\n      swap1\n      pop\n        /* \"#utility.yul\":2715:2913   */\n      swap3\n      swap2\n      pop\n      pop\n      jump\t// out\n        /* \"#utility.yul\":2919:3075   */\n    tag_356:\n        /* \"#utility.yul\":3010:3014   */\n      0x00\n        /* \"#utility.yul\":3033:3036   */\n      dup2\n        /* \"#utility.yul\":3025:3036   */\n      swap1\n      pop\n        /* \"#utility.yul\":3063:3067   */\n      0x20\n        /* \"#utility.yul\":3058:3061   */\n      dup3\n        /* \"#utility.yul\":3054:3068   */\n      add\n        /* \"#utility.yul\":3046:3068   */\n      swap1\n      pop\n        /* \"#utility.yul\":2919:3075   */\n      swap2\n      swap1\n      pop\n      jump\t// out\n        /* \"#utility.yul\":3081:3180   */\n    tag_357:\n        /* \"#utility.yul\":3133:3139   */\n      0x00\n        /* \"#utility.yul\":3167:3172   */\n      dup2\n        /* \"#utility.yul\":3161:3173   */\n      mload\n        /* \"#utility.yul\":3151:3173   */\n      swap1\n      pop\n        /* \"#utility.yul\":3081:3180   */\n      swap2\n      swap1\n      pop\n      jump\t// out\n        /* \"#utility.yul\":3186:3345   */\n    tag_358:\n        /* \"#utility.yul\":3260:3271   */\n      0x00\n        /* \"#utility.yul\":3294:3300   */\n      dup3\n        /* \"#utility.yul\":3289:3292   */\n      dup3\n        /* \"#utility.yul\":3282:3301   */\n      mstore\n        /* \"#utility.yul\":3334:3338   */\n      0x20\n        /* \"#utility.yul\":3329:3332   */\n      dup3\n        /* \"#utility.yul\":3325:3339   */\n      add\n        /* \"#utility.yul\":3310:3339   */\n      swap1\n      pop\n        /* \"#utility.yul\":3186:3345   */\n      swap3\n      swap2\n      pop\n      pop\n      jump\t// out\n        /* \"#utility.yul\":3351:3490   */\n    tag_359:\n        /* \"#utility.yul\":3440:3446   */\n      dup3\n        /* \"#utility.yul\":3435:3438   */\n      dup2\n        /* \"#utility.yul\":3430:3433   */\n      dup4\n        /* \"#utility.yul\":3424:3447   */\n      mcopy\n        /* \"#utility.yul\":3481:3482   */\n      0x00\n        /* \"#utility.yul\":3472:3478   */\n      dup4\n        /* \"#utility.yul\":3467:3470   */\n      dup4\n        /* \"#utility.yul\":3463:3479   */\n      add\n        /* \"#utility.yul\":3456:3483   */\n      mstore\n        /* \"#utility.yul\":3351:3490   */\n      pop\n      pop\n      pop\n      jump\t// out\n        /* \"#utility.yul\":3496:3598   */\n    tag_360:\n        /* \"#utility.yul\":3537:3543   */\n      0x00\n        /* \"#utility.yul\":3588:3590   */\n      0x1f\n        /* \"#utility.yul\":3584:3591   */\n      not\n        /* \"#utility.yul\":3579:3581   */\n      0x1f\n        /* \"#utility.yul\":3572:3577   */\n      dup4\n        /* \"#utility.yul\":3568:3582   */\n      add\n        /* \"#utility.yul\":3564:3592   */\n      and\n        /* \"#utility.yul\":3554:3592   */\n      swap1\n      pop\n        /* \"#utility.yul\":3496:3598   */\n      swap2\n      swap1\n      pop\n      jump\t// out\n        /* \"#utility.yul\":3604:3961   */\n    tag_361:\n        /* \"#utility.yul\":3682:3685   */\n      0x00\n        /* \"#utility.yul\":3710:3749   */\n      tag_474\n        /* \"#utility.yul\":3743:3748   */\n      dup3\n        /* \"#utility.yul\":3710:3749   */\n      tag_357\n      jump\t// in\n    tag_474:\n        /* \"#utility.yul\":3765:3826   */\n      tag_475\n        /* \"#utility.yul\":3819:3825   */\n      dup2\n        /* \"#utility.yul\":3814:3817   */\n      dup6\n        /* \"#utility.yul\":3765:3826   */\n      tag_358\n      jump\t// in\n    tag_475:\n        /* \"#utility.yul\":3758:3826   */\n      swap4\n      pop\n        /* \"#utility.yul\":3835:3900   */\n      tag_476\n        /* \"#utility.yul\":3893:3899   */\n      dup2\n        /* \"#utility.yul\":3888:3891   */\n      dup6\n        /* \"#utility.yul\":3881:3885   */\n      0x20\n        /* \"#utility.yul\":3874:3879   */\n      dup7\n        /* \"#utility.yul\":3870:3886   */\n      add\n        /* \"#utility.yul\":3835:3900   */\n      tag_359\n      jump\t// in\n    tag_476:\n        /* \"#utility.yul\":3925:3954   */\n      tag_477\n        /* \"#utility.yul\":3947:3953   */\n      dup2\n        /* \"#utility.yul\":3925:3954   */\n      tag_360\n      jump\t// in\n    tag_477:\n        /* \"#utility.yul\":3920:3923   */\n      dup5\n        /* \"#utility.yul\":3916:3955   */\n      add\n        /* \"#utility.yul\":3909:3955   */\n      swap2\n      pop\n        /* \"#utility.yul\":3686:3961   */\n      pop\n        /* \"#utility.yul\":3604:3961   */\n      swap3\n      swap2\n      pop\n      pop\n      jump\t// out\n        /* \"#utility.yul\":4023:4801   */\n    tag_362:\n        /* \"#utility.yul\":4130:4133   */\n      0x00\n        /* \"#utility.yul\":4166:4170   */\n      0x60\n        /* \"#utility.yul\":4161:4164   */\n      dup4\n        /* \"#utility.yul\":4157:4171   */\n      add\n        /* \"#utility.yul\":4251:4255   */\n      0x00\n        /* \"#utility.yul\":4244:4249   */\n      dup4\n        /* \"#utility.yul\":4240:4256   */\n      add\n        /* \"#utility.yul\":4234:4257   */\n      mload\n        /* \"#utility.yul\":4270:4333   */\n      tag_479\n        /* \"#utility.yul\":4327:4331   */\n      0x00\n        /* \"#utility.yul\":4322:4325   */\n      dup7\n        /* \"#utility.yul\":4318:4332   */\n      add\n        /* \"#utility.yul\":4304:4316   */\n      dup3\n        /* \"#utility.yul\":4270:4333   */\n      tag_353\n      jump\t// in\n    tag_479:\n        /* \"#utility.yul\":4181:4343   */\n      pop\n        /* \"#utility.yul\":4432:4436   */\n      0x20\n        /* \"#utility.yul\":4425:4430   */\n      dup4\n        /* \"#utility.yul\":4421:4437   */\n      add\n        /* \"#utility.yul\":4415:4438   */\n      mload\n        /* \"#utility.yul\":4485:4488   */\n      dup5\n        /* \"#utility.yul\":4479:4483   */\n      dup3\n        /* \"#utility.yul\":4475:4489   */\n      sub\n        /* \"#utility.yul\":4468:4472   */\n      0x20\n        /* \"#utility.yul\":4463:4466   */\n      dup7\n        /* \"#utility.yul\":4459:4473   */\n      add\n        /* \"#utility.yul\":4452:4490   */\n      mstore\n        /* \"#utility.yul\":4511:4584   */\n      tag_480\n        /* \"#utility.yul\":4579:4583   */\n      dup3\n        /* \"#utility.yul\":4565:4577   */\n      dup3\n        /* \"#utility.yul\":4511:4584   */\n      tag_361\n      jump\t// in\n    tag_480:\n        /* \"#utility.yul\":4503:4584   */\n      swap2\n      pop\n        /* \"#utility.yul\":4353:4595   */\n      pop\n        /* \"#utility.yul\":4682:4686   */\n      0x40\n        /* \"#utility.yul\":4675:4680   */\n      dup4\n        /* \"#utility.yul\":4671:4687   */\n      add\n        /* \"#utility.yul\":4665:4688   */\n      mload\n        /* \"#utility.yul\":4701:4764   */\n      tag_481\n        /* \"#utility.yul\":4758:4762   */\n      0x40\n        /* \"#utility.yul\":4753:4756   */\n      dup7\n        /* \"#utility.yul\":4749:4763   */\n      add\n        /* \"#utility.yul\":4735:4747   */\n      dup3\n        /* \"#utility.yul\":4701:4764   */\n      tag_353\n      jump\t// in\n    tag_481:\n        /* \"#utility.yul\":4605:4774   */\n      pop\n        /* \"#utility.yul\":4791:4795   */\n      dup1\n        /* \"#utility.yul\":4784:4795   */\n      swap2\n      pop\n        /* \"#utility.yul\":4135:4801   */\n      pop\n        /* \"#utility.yul\":4023:4801   */\n      swap3\n      swap2\n      pop\n      pop\n      jump\t// out\n        /* \"#utility.yul\":4807:5059   */\n    tag_363:\n        /* \"#utility.yul\":4924:4934   */\n      0x00\n        /* \"#utility.yul\":4959:5053   */\n      tag_483\n        /* \"#utility.yul\":5049:5052   */\n      dup4\n        /* \"#utility.yul\":5041:5047   */\n      dup4\n        /* \"#utility.yul\":4959:5053   */\n      tag_362\n      jump\t// in\n    tag_483:\n        /* \"#utility.yul\":4945:5053   */\n      swap1\n      pop\n        /* \"#utility.yul\":4807:5059   */\n      swap3\n      swap2\n      pop\n      pop\n      jump\t// out\n        /* \"#utility.yul\":5065:5202   */\n    tag_364:\n        /* \"#utility.yul\":5159:5163   */\n      0x00\n        /* \"#utility.yul\":5191:5195   */\n      0x20\n        /* \"#utility.yul\":5186:5189   */\n      dup3\n        /* \"#utility.yul\":5182:5196   */\n      add\n        /* \"#utility.yul\":5174:5196   */\n      swap1\n      pop\n        /* \"#utility.yul\":5065:5202   */\n      swap2\n      swap1\n      pop\n      jump\t// out\n        /* \"#utility.yul\":5268:6351   */\n    tag_365:\n        /* \"#utility.yul\":5425:5428   */\n      0x00\n        /* \"#utility.yul\":5454:5532   */\n      tag_486\n        /* \"#utility.yul\":5526:5531   */\n      dup3\n        /* \"#utility.yul\":5454:5532   */\n      tag_354\n      jump\t// in\n    tag_486:\n        /* \"#utility.yul\":5548:5648   */\n      tag_487\n        /* \"#utility.yul\":5641:5647   */\n      dup2\n        /* \"#utility.yul\":5636:5639   */\n      dup6\n        /* \"#utility.yul\":5548:5648   */\n      tag_355\n      jump\t// in\n    tag_487:\n        /* \"#utility.yul\":5541:5648   */\n      swap4\n      pop\n        /* \"#utility.yul\":5674:5677   */\n      dup4\n        /* \"#utility.yul\":5719:5723   */\n      0x20\n        /* \"#utility.yul\":5711:5717   */\n      dup3\n        /* \"#utility.yul\":5707:5724   */\n      mul\n        /* \"#utility.yul\":5702:5705   */\n      dup6\n        /* \"#utility.yul\":5698:5725   */\n      add\n        /* \"#utility.yul\":5749:5829   */\n      tag_488\n        /* \"#utility.yul\":5823:5828   */\n      dup6\n        /* \"#utility.yul\":5749:5829   */\n      tag_356\n      jump\t// in\n    tag_488:\n        /* \"#utility.yul\":5852:5859   */\n      dup1\n        /* \"#utility.yul\":5883:5884   */\n      0x00\n        /* \"#utility.yul\":5868:6306   */\n    tag_489:\n        /* \"#utility.yul\":5893:5899   */\n      dup6\n        /* \"#utility.yul\":5890:5891   */\n      dup2\n        /* \"#utility.yul\":5887:5900   */\n      lt\n        /* \"#utility.yul\":5868:6306   */\n      iszero\n      tag_491\n      jumpi\n        /* \"#utility.yul\":5964:5973   */\n      dup5\n        /* \"#utility.yul\":5958:5962   */\n      dup5\n        /* \"#utility.yul\":5954:5974   */\n      sub\n        /* \"#utility.yul\":5949:5952   */\n      dup10\n        /* \"#utility.yul\":5942:5975   */\n      mstore\n        /* \"#utility.yul\":6015:6021   */\n      dup2\n        /* \"#utility.yul\":6009:6022   */\n      mload\n        /* \"#utility.yul\":6043:6155   */\n      tag_492\n        /* \"#utility.yul\":6150:6154   */\n      dup6\n        /* \"#utility.yul\":6135:6148   */\n      dup3\n        /* \"#utility.yul\":6043:6155   */\n      tag_363\n      jump\t// in\n    tag_492:\n        /* \"#utility.yul\":6035:6155   */\n      swap5\n      pop\n        /* \"#utility.yul\":6178:6262   */\n      tag_493\n        /* \"#utility.yul\":6255:6261   */\n      dup4\n        /* \"#utility.yul\":6178:6262   */\n      tag_364\n      jump\t// in\n    tag_493:\n        /* \"#utility.yul\":6168:6262   */\n      swap3\n      pop\n        /* \"#utility.yul\":6291:6295   */\n      0x20\n        /* \"#utility.yul\":6286:6289   */\n      dup11\n        /* \"#utility.yul\":6282:6296   */\n      add\n        /* \"#utility.yul\":6275:6296   */\n      swap10\n      pop\n        /* \"#utility.yul\":5928:6306   */\n      pop\n        /* \"#utility.yul\":5915:5916   */\n      0x01\n        /* \"#utility.yul\":5912:5913   */\n      dup2\n        /* \"#utility.yul\":5908:5917   */\n      add\n        /* \"#utility.yul\":5903:5917   */\n      swap1\n      pop\n        /* \"#utility.yul\":5868:6306   */\n      jump(tag_489)\n    tag_491:\n        /* \"#utility.yul\":5872:5886   */\n      pop\n        /* \"#utility.yul\":6322:6326   */\n      dup3\n        /* \"#utility.yul\":6315:6326   */\n      swap8\n      pop\n        /* \"#utility.yul\":6342:6345   */\n      dup8\n        /* \"#utility.yul\":6335:6345   */\n      swap6\n      pop\n        /* \"#utility.yul\":5430:6351   */\n      pop\n      pop\n      pop\n      pop\n      pop\n        /* \"#utility.yul\":5268:6351   */\n      swap3\n      swap2\n      pop\n      pop\n      jump\t// out\n        /* \"#utility.yul\":6423:7332   */\n    tag_366:\n        /* \"#utility.yul\":6550:6553   */\n      0x00\n        /* \"#utility.yul\":6586:6590   */\n      0x60\n        /* \"#utility.yul\":6581:6584   */\n      dup4\n        /* \"#utility.yul\":6577:6591   */\n      add\n        /* \"#utility.yul\":6683:6687   */\n      0x00\n        /* \"#utility.yul\":6676:6681   */\n      dup4\n        /* \"#utility.yul\":6672:6688   */\n      add\n        /* \"#utility.yul\":6666:6689   */\n      mload\n        /* \"#utility.yul\":6702:6780   */\n      tag_495\n        /* \"#utility.yul\":6774:6778   */\n      0x00\n        /* \"#utility.yul\":6769:6772   */\n      dup7\n        /* \"#utility.yul\":6765:6779   */\n      add\n        /* \"#utility.yul\":6751:6763   */\n      dup3\n        /* \"#utility.yul\":6702:6780   */\n      tag_352\n      jump\t// in\n    tag_495:\n        /* \"#utility.yul\":6601:6790   */\n      pop\n        /* \"#utility.yul\":6885:6889   */\n      0x20\n        /* \"#utility.yul\":6878:6883   */\n      dup4\n        /* \"#utility.yul\":6874:6890   */\n      add\n        /* \"#utility.yul\":6868:6891   */\n      mload\n        /* \"#utility.yul\":6904:6967   */\n      tag_496\n        /* \"#utility.yul\":6961:6965   */\n      0x20\n        /* \"#utility.yul\":6956:6959   */\n      dup7\n        /* \"#utility.yul\":6952:6966   */\n      add\n        /* \"#utility.yul\":6938:6950   */\n      dup3\n        /* \"#utility.yul\":6904:6967   */\n      tag_353\n      jump\t// in\n    tag_496:\n        /* \"#utility.yul\":6800:6977   */\n      pop\n        /* \"#utility.yul\":7064:7068   */\n      0x40\n        /* \"#utility.yul\":7057:7062   */\n      dup4\n        /* \"#utility.yul\":7053:7069   */\n      add\n        /* \"#utility.yul\":7047:7070   */\n      mload\n        /* \"#utility.yul\":7117:7120   */\n      dup5\n        /* \"#utility.yul\":7111:7115   */\n      dup3\n        /* \"#utility.yul\":7107:7121   */\n      sub\n        /* \"#utility.yul\":7100:7104   */\n      0x40\n        /* \"#utility.yul\":7095:7098   */\n      dup7\n        /* \"#utility.yul\":7091:7105   */\n      add\n        /* \"#utility.yul\":7084:7122   */\n      mstore\n        /* \"#utility.yul\":7143:7294   */\n      tag_497\n        /* \"#utility.yul\":7289:7293   */\n      dup3\n        /* \"#utility.yul\":7275:7287   */\n      dup3\n        /* \"#utility.yul\":7143:7294   */\n      tag_365\n      jump\t// in\n    tag_497:\n        /* \"#utility.yul\":7135:7294   */\n      swap2\n      pop\n        /* \"#utility.yul\":6987:7305   */\n      pop\n        /* \"#utility.yul\":7322:7326   */\n      dup1\n        /* \"#utility.yul\":7315:7326   */\n      swap2\n      pop\n        /* \"#utility.yul\":6555:7332   */\n      pop\n        /* \"#utility.yul\":6423:7332   */\n      swap3\n      swap2\n      pop\n      pop\n      jump\t// out\n        /* \"#utility.yul\":7338:7727   */\n    tag_37:\n        /* \"#utility.yul\":7489:7493   */\n      0x00\n        /* \"#utility.yul\":7527:7529   */\n      0x20\n        /* \"#utility.yul\":7516:7525   */\n      dup3\n        /* \"#utility.yul\":7512:7530   */\n      add\n        /* \"#utility.yul\":7504:7530   */\n      swap1\n      pop\n        /* \"#utility.yul\":7576:7585   */\n      dup2\n        /* \"#utility.yul\":7570:7574   */\n      dup2\n        /* \"#utility.yul\":7566:7586   */\n      sub\n        /* \"#utility.yul\":7562:7563   */\n      0x00\n        /* \"#utility.yul\":7551:7560   */\n      dup4\n        /* \"#utility.yul\":7547:7564   */\n      add\n        /* \"#utility.yul\":7540:7587   */\n      mstore\n        /* \"#utility.yul\":7604:7720   */\n      tag_499\n        /* \"#utility.yul\":7715:7719   */\n      dup2\n        /* \"#utility.yul\":7706:7712   */\n      dup5\n        /* \"#utility.yul\":7604:7720   */\n      tag_366\n      jump\t// in\n    tag_499:\n        /* \"#utility.yul\":7596:7720   */\n      swap1\n      pop\n        /* \"#utility.yul\":7338:7727   */\n      swap3\n      swap2\n      pop\n      pop\n      jump\t// out\n        /* \"#utility.yul\":7733:7859   */\n    tag_367:\n        /* \"#utility.yul\":7770:7777   */\n      0x00\n        /* \"#utility.yul\":7810:7852   */\n      0xffffffffffffffffffffffffffffffffffffffff\n        /* \"#utility.yul\":7803:7808   */\n      dup3\n        /* \"#utility.yul\":7799:7853   */\n      and\n        /* \"#utility.yul\":7788:7853   */\n      swap1\n      pop\n        /* \"#utility.yul\":7733:7859   */\n      swap2\n      swap1\n      pop\n      jump\t// out\n        /* \"#utility.yul\":7865:7961   */\n    tag_368:\n        /* \"#utility.yul\":7902:7909   */\n      0x00\n        /* \"#utility.yul\":7931:7955   */\n      tag_502\n        /* \"#utility.yul\":7949:7954   */\n      dup3\n        /* \"#utility.yul\":7931:7955   */\n      tag_367\n      jump\t// in\n    tag_502:\n        /* \"#utility.yul\":7920:7955   */\n      swap1\n      pop\n        /* \"#utility.yul\":7865:7961   */\n      swap2\n      swap1\n      pop\n      jump\t// out\n        /* \"#utility.yul\":7967:8089   */\n    tag_369:\n        /* \"#utility.yul\":8040:8064   */\n      tag_504\n        /* \"#utility.yul\":8058:8063   */\n      dup2\n        /* \"#utility.yul\":8040:8064   */\n      tag_368\n      jump\t// in\n    tag_504:\n        /* \"#utility.yul\":8033:8038   */\n      dup2\n        /* \"#utility.yul\":8030:8065   */\n      eq\n        /* \"#utility.yul\":8020:8083   */\n      tag_505\n      jumpi\n        /* \"#utility.yul\":8079:8080   */\n      0x00\n        /* \"#utility.yul\":8076:8077   */\n      0x00\n        /* \"#utility.yul\":8069:8081   */\n      revert\n        /* \"#utility.yul\":8020:8083   */\n    tag_505:\n        /* \"#utility.yul\":7967:8089   */\n      pop\n      jump\t// out\n        /* \"#utility.yul\":8095:8234   */\n    tag_370:\n        /* \"#utility.yul\":8141:8146   */\n      0x00\n        /* \"#utility.yul\":8179:8185   */\n      dup2\n        /* \"#utility.yul\":8166:8186   */\n      calldataload\n        /* \"#utility.yul\":8157:8186   */\n      swap1\n      pop\n        /* \"#utility.yul\":8195:8228   */\n      tag_507\n        /* \"#utility.yul\":8222:8227   */\n      dup2\n        /* \"#utility.yul\":8195:8228   */\n      tag_369\n      jump\t// in\n    tag_507:\n        /* \"#utility.yul\":8095:8234   */\n      swap3\n      swap2\n      pop\n      pop\n      jump\t// out\n        /* \"#utility.yul\":8240:8569   */\n    tag_40:\n        /* \"#utility.yul\":8299:8305   */\n      0x00\n        /* \"#utility.yul\":8348:8350   */\n      0x20\n        /* \"#utility.yul\":8336:8345   */\n      dup3\n        /* \"#utility.yul\":8327:8334   */\n      dup5\n        /* \"#utility.yul\":8323:8346   */\n      sub\n        /* \"#utility.yul\":8319:8351   */\n      slt\n        /* \"#utility.yul\":8316:8435   */\n      iszero\n      tag_509\n      jumpi\n        /* \"#utility.yul\":8354:8433   */\n      tag_510\n      tag_342\n      jump\t// in\n    tag_510:\n        /* \"#utility.yul\":8316:8435   */\n    tag_509:\n        /* \"#utility.yul\":8474:8475   */\n      0x00\n        /* \"#utility.yul\":8499:8552   */\n      tag_511\n        /* \"#utility.yul\":8544:8551   */\n      dup5\n        /* \"#utility.yul\":8535:8541   */\n      dup3\n        /* \"#utility.yul\":8524:8533   */\n      dup6\n        /* \"#utility.yul\":8520:8542   */\n      add\n        /* \"#utility.yul\":8499:8552   */\n      tag_370\n      jump\t// in\n    tag_511:\n        /* \"#utility.yul\":8489:8552   */\n      swap2\n      pop\n        /* \"#utility.yul\":8445:8562   */\n      pop\n        /* \"#utility.yul\":8240:8569   */\n      swap3\n      swap2\n      pop\n      pop\n      jump\t// out\n        /* \"#utility.yul\":8575:8692   */\n    tag_371:\n        /* \"#utility.yul\":8684:8685   */\n      0x00\n        /* \"#utility.yul\":8681:8682   */\n      0x00\n        /* \"#utility.yul\":8674:8686   */\n      revert\n        /* \"#utility.yul\":8698:8815   */\n    tag_372:\n        /* \"#utility.yul\":8807:8808   */\n      0x00\n        /* \"#utility.yul\":8804:8805   */\n      0x00\n        /* \"#utility.yul\":8797:8809   */\n      revert\n        /* \"#utility.yul\":8821:9001   */\n    tag_373:\n        /* \"#utility.yul\":8869:8946   */\n      0x4e487b7100000000000000000000000000000000000000000000000000000000\n        /* \"#utility.yul\":8866:8867   */\n      0x00\n        /* \"#utility.yul\":8859:8947   */\n      mstore\n        /* \"#utility.yul\":8966:8970   */\n      0x41\n        /* \"#utility.yul\":8963:8964   */\n      0x04\n        /* \"#utility.yul\":8956:8971   */\n      mstore\n        /* \"#utility.yul\":8990:8994   */\n      0x24\n        /* \"#utility.yul\":8987:8988   */\n      0x00\n        /* \"#utility.yul\":8980:8995   */\n      revert\n        /* \"#utility.yul\":9007:9288   */\n    tag_374:\n        /* \"#utility.yul\":9090:9117   */\n      tag_516\n        /* \"#utility.yul\":9112:9116   */\n      dup3\n        /* \"#utility.yul\":9090:9117   */\n      tag_360\n      jump\t// in\n    tag_516:\n        /* \"#utility.yul\":9082:9088   */\n      dup2\n        /* \"#utility.yul\":9078:9118   */\n      add\n        /* \"#utility.yul\":9220:9226   */\n      dup2\n        /* \"#utility.yul\":9208:9218   */\n      dup2\n        /* \"#utility.yul\":9205:9227   */\n      lt\n        /* \"#utility.yul\":9184:9202   */\n      0xffffffffffffffff\n        /* \"#utility.yul\":9172:9182   */\n      dup3\n        /* \"#utility.yul\":9169:9203   */\n      gt\n        /* \"#utility.yul\":9166:9228   */\n      or\n        /* \"#utility.yul\":9163:9251   */\n      iszero\n      tag_517\n      jumpi\n        /* \"#utility.yul\":9231:9249   */\n      tag_518\n      tag_373\n      jump\t// in\n    tag_518:\n        /* \"#utility.yul\":9163:9251   */\n    tag_517:\n        /* \"#utility.yul\":9271:9281   */\n      dup1\n        /* \"#utility.yul\":9267:9269   */\n      0x40\n        /* \"#utility.yul\":9260:9282   */\n      mstore\n        /* \"#utility.yul\":9050:9288   */\n      pop\n        /* \"#utility.yul\":9007:9288   */\n      pop\n      pop\n      jump\t// out\n        /* \"#utility.yul\":9294:9423   */\n    tag_375:\n        /* \"#utility.yul\":9328:9334   */\n      0x00\n        /* \"#utility.yul\":9355:9375   */\n      tag_520\n      tag_341\n      jump\t// in\n    tag_520:\n        /* \"#utility.yul\":9345:9375   */\n      swap1\n      pop\n        /* \"#utility.yul\":9384:9417   */\n      tag_521\n        /* \"#utility.yul\":9412:9416   */\n      dup3\n        /* \"#utility.yul\":9404:9410   */\n      dup3\n        /* \"#utility.yul\":9384:9417   */\n      tag_374\n      jump\t// in\n    tag_521:\n        /* \"#utility.yul\":9294:9423   */\n      swap2\n      swap1\n      pop\n      jump\t// out\n        /* \"#utility.yul\":9429:9737   */\n    tag_376:\n        /* \"#utility.yul\":9491:9495   */\n      0x00\n        /* \"#utility.yul\":9581:9599   */\n      0xffffffffffffffff\n        /* \"#utility.yul\":9573:9579   */\n      dup3\n        /* \"#utility.yul\":9570:9600   */\n      gt\n        /* \"#utility.yul\":9567:9623   */\n      iszero\n      tag_523\n      jumpi\n        /* \"#utility.yul\":9603:9621   */\n      tag_524\n      tag_373\n      jump\t// in\n    tag_524:\n        /* \"#utility.yul\":9567:9623   */\n    tag_523:\n        /* \"#utility.yul\":9641:9670   */\n      tag_525\n        /* \"#utility.yul\":9663:9669   */\n      dup3\n        /* \"#utility.yul\":9641:9670   */\n      tag_360\n      jump\t// in\n    tag_525:\n        /* \"#utility.yul\":9633:9670   */\n      swap1\n      pop\n        /* \"#utility.yul\":9725:9729   */\n      0x20\n        /* \"#utility.yul\":9719:9723   */\n      dup2\n        /* \"#utility.yul\":9715:9730   */\n      add\n        /* \"#utility.yul\":9707:9730   */\n      swap1\n      pop\n        /* \"#utility.yul\":9429:9737   */\n      swap2\n      swap1\n      pop\n      jump\t// out\n        /* \"#utility.yul\":9743:9891   */\n    tag_377:\n        /* \"#utility.yul\":9841:9847   */\n      dup3\n        /* \"#utility.yul\":9836:9839   */\n      dup2\n        /* \"#utility.yul\":9831:9834   */\n      dup4\n        /* \"#utility.yul\":9818:9848   */\n      calldatacopy\n        /* \"#utility.yul\":9882:9883   */\n      0x00\n        /* \"#utility.yul\":9873:9879   */\n      dup4\n        /* \"#utility.yul\":9868:9871   */\n      dup4\n        /* \"#utility.yul\":9864:9880   */\n      add\n        /* \"#utility.yul\":9857:9884   */\n      mstore\n        /* \"#utility.yul\":9743:9891   */\n      pop\n      pop\n      pop\n      jump\t// out\n        /* \"#utility.yul\":9897:10322   */\n    tag_378:\n        /* \"#utility.yul\":9975:9980   */\n      0x00\n        /* \"#utility.yul\":10000:10066   */\n      tag_528\n        /* \"#utility.yul\":10016:10065   */\n      tag_529\n        /* \"#utility.yul\":10058:10064   */\n      dup5\n        /* \"#utility.yul\":10016:10065   */\n      tag_376\n      jump\t// in\n    tag_529:\n        /* \"#utility.yul\":10000:10066   */\n      tag_375\n      jump\t// in\n    tag_528:\n        /* \"#utility.yul\":9991:10066   */\n      swap1\n      pop\n        /* \"#utility.yul\":10089:10095   */\n      dup3\n        /* \"#utility.yul\":10082:10087   */\n      dup2\n        /* \"#utility.yul\":10075:10096   */\n      mstore\n        /* \"#utility.yul\":10127:10131   */\n      0x20\n        /* \"#utility.yul\":10120:10125   */\n      dup2\n        /* \"#utility.yul\":10116:10132   */\n      add\n        /* \"#utility.yul\":10165:10168   */\n      dup5\n        /* \"#utility.yul\":10156:10162   */\n      dup5\n        /* \"#utility.yul\":10151:10154   */\n      dup5\n        /* \"#utility.yul\":10147:10163   */\n      add\n        /* \"#utility.yul\":10144:10169   */\n      gt\n        /* \"#utility.yul\":10141:10253   */\n      iszero\n      tag_530\n      jumpi\n        /* \"#utility.yul\":10172:10251   */\n      tag_531\n      tag_372\n      jump\t// in\n    tag_531:\n        /* \"#utility.yul\":10141:10253   */\n    tag_530:\n        /* \"#utility.yul\":10262:10316   */\n      tag_532\n        /* \"#utility.yul\":10309:10315   */\n      dup5\n        /* \"#utility.yul\":10304:10307   */\n      dup3\n        /* \"#utility.yul\":10299:10302   */\n      dup6\n        /* \"#utility.yul\":10262:10316   */\n      tag_377\n      jump\t// in\n    tag_532:\n        /* \"#utility.yul\":9981:10322   */\n      pop\n        /* \"#utility.yul\":9897:10322   */\n      swap4\n      swap3\n      pop\n      pop\n      pop\n      jump\t// out\n        /* \"#utility.yul\":10342:10682   */\n    tag_379:\n        /* \"#utility.yul\":10398:10403   */\n      0x00\n        /* \"#utility.yul\":10447:10450   */\n      dup3\n        /* \"#utility.yul\":10440:10444   */\n      0x1f\n        /* \"#utility.yul\":10432:10438   */\n      dup4\n        /* \"#utility.yul\":10428:10445   */\n      add\n        /* \"#utility.yul\":10424:10451   */\n      slt\n        /* \"#utility.yul\":10414:10536   */\n      tag_534\n      jumpi\n        /* \"#utility.yul\":10455:10534   */\n      tag_535\n      tag_371\n      jump\t// in\n    tag_535:\n        /* \"#utility.yul\":10414:10536   */\n    tag_534:\n        /* \"#utility.yul\":10572:10578   */\n      dup2\n        /* \"#utility.yul\":10559:10579   */\n      calldataload\n        /* \"#utility.yul\":10597:10676   */\n      tag_536\n        /* \"#utility.yul\":10672:10675   */\n      dup5\n        /* \"#utility.yul\":10664:10670   */\n      dup3\n        /* \"#utility.yul\":10657:10661   */\n      0x20\n        /* \"#utility.yul\":10649:10655   */\n      dup7\n        /* \"#utility.yul\":10645:10662   */\n      add\n        /* \"#utility.yul\":10597:10676   */\n      tag_378\n      jump\t// in\n    tag_536:\n        /* \"#utility.yul\":10588:10676   */\n      swap2\n      pop\n        /* \"#utility.yul\":10404:10682   */\n      pop\n        /* \"#utility.yul\":10342:10682   */\n      swap3\n      swap2\n      pop\n      pop\n      jump\t// out\n        /* \"#utility.yul\":10688:11197   */\n    tag_44:\n        /* \"#utility.yul\":10757:10763   */\n      0x00\n        /* \"#utility.yul\":10806:10808   */\n      0x20\n        /* \"#utility.yul\":10794:10803   */\n      dup3\n        /* \"#utility.yul\":10785:10792   */\n      dup5\n        /* \"#utility.yul\":10781:10804   */\n      sub\n        /* \"#utility.yul\":10777:10809   */\n      slt\n        /* \"#utility.yul\":10774:10893   */\n      iszero\n      tag_538\n      jumpi\n        /* \"#utility.yul\":10812:10891   */\n      tag_539\n      tag_342\n      jump\t// in\n    tag_539:\n        /* \"#utility.yul\":10774:10893   */\n    tag_538:\n        /* \"#utility.yul\":10960:10961   */\n      0x00\n        /* \"#utility.yul\":10949:10958   */\n      dup3\n        /* \"#utility.yul\":10945:10962   */\n      add\n        /* \"#utility.yul\":10932:10963   */\n      calldataload\n        /* \"#utility.yul\":10990:11008   */\n      0xffffffffffffffff\n        /* \"#utility.yul\":10982:10988   */\n      dup2\n        /* \"#utility.yul\":10979:11009   */\n      gt\n        /* \"#utility.yul\":10976:11093   */\n      iszero\n      tag_540\n      jumpi\n        /* \"#utility.yul\":11012:11091   */\n      tag_541\n      tag_343\n      jump\t// in\n    tag_541:\n        /* \"#utility.yul\":10976:11093   */\n    tag_540:\n        /* \"#utility.yul\":11117:11180   */\n      tag_542\n        /* \"#utility.yul\":11172:11179   */\n      dup5\n        /* \"#utility.yul\":11163:11169   */\n      dup3\n        /* \"#utility.yul\":11152:11161   */\n      dup6\n        /* \"#utility.yul\":11148:11170   */\n      add\n        /* \"#utility.yul\":11117:11180   */\n      tag_379\n      jump\t// in\n    tag_542:\n        /* \"#utility.yul\":11107:11180   */\n      swap2\n      pop\n        /* \"#utility.yul\":10903:11190   */\n      pop\n        /* \"#utility.yul\":10688:11197   */\n      swap3\n      swap2\n      pop\n      pop\n      jump\t// out\n        /* \"#utility.yul\":11203:11411   */\n    tag_380:\n        /* \"#utility.yul\":11326:11337   */\n      0x00\n        /* \"#utility.yul\":11360:11366   */\n      dup3\n        /* \"#utility.yul\":11355:11358   */\n      dup3\n        /* \"#utility.yul\":11348:11367   */\n      mstore\n        /* \"#utility.yul\":11400:11404   */\n      0x20\n        /* \"#utility.yul\":11395:11398   */\n      dup3\n        /* \"#utility.yul\":11391:11405   */\n      add\n        /* \"#utility.yul\":11376:11405   */\n      swap1\n      pop\n        /* \"#utility.yul\":11203:11411   */\n      swap3\n      swap2\n      pop\n      pop\n      jump\t// out\n        /* \"#utility.yul\":11477:12580   */\n    tag_381:\n        /* \"#utility.yul\":11644:11647   */\n      0x00\n        /* \"#utility.yul\":11673:11751   */\n      tag_545\n        /* \"#utility.yul\":11745:11750   */\n      dup3\n        /* \"#utility.yul\":11673:11751   */\n      tag_354\n      jump\t// in\n    tag_545:\n        /* \"#utility.yul\":11767:11877   */\n      tag_546\n        /* \"#utility.yul\":11870:11876   */\n      dup2\n        /* \"#utility.yul\":11865:11868   */\n      dup6\n        /* \"#utility.yul\":11767:11877   */\n      tag_380\n      jump\t// in\n    tag_546:\n        /* \"#utility.yul\":11760:11877   */\n      swap4\n      pop\n        /* \"#utility.yul\":11903:11906   */\n      dup4\n        /* \"#utility.yul\":11948:11952   */\n      0x20\n        /* \"#utility.yul\":11940:11946   */\n      dup3\n        /* \"#utility.yul\":11936:11953   */\n      mul\n        /* \"#utility.yul\":11931:11934   */\n      dup6\n        /* \"#utility.yul\":11927:11954   */\n      add\n        /* \"#utility.yul\":11978:12058   */\n      tag_547\n        /* \"#utility.yul\":12052:12057   */\n      dup6\n        /* \"#utility.yul\":11978:12058   */\n      tag_356\n      jump\t// in\n    tag_547:\n        /* \"#utility.yul\":12081:12088   */\n      dup1\n        /* \"#utility.yul\":12112:12113   */\n      0x00\n        /* \"#utility.yul\":12097:12535   */\n    tag_548:\n        /* \"#utility.yul\":12122:12128   */\n      dup6\n        /* \"#utility.yul\":12119:12120   */\n      dup2\n        /* \"#utility.yul\":12116:12129   */\n      lt\n        /* \"#utility.yul\":12097:12535   */\n      iszero\n      tag_550\n      jumpi\n        /* \"#utility.yul\":12193:12202   */\n      dup5\n        /* \"#utility.yul\":12187:12191   */\n      dup5\n        /* \"#utility.yul\":12183:12203   */\n      sub\n        /* \"#utility.yul\":12178:12181   */\n      dup10\n        /* \"#utility.yul\":12171:12204   */\n      mstore\n        /* \"#utility.yul\":12244:12250   */\n      dup2\n        /* \"#utility.yul\":12238:12251   */\n      mload\n        /* \"#utility.yul\":12272:12384   */\n      tag_551\n        /* \"#utility.yul\":12379:12383   */\n      dup6\n        /* \"#utility.yul\":12364:12377   */\n      dup3\n        /* \"#utility.yul\":12272:12384   */\n      tag_363\n      jump\t// in\n    tag_551:\n        /* \"#utility.yul\":12264:12384   */\n      swap5\n      pop\n        /* \"#utility.yul\":12407:12491   */\n      tag_552\n        /* \"#utility.yul\":12484:12490   */\n      dup4\n        /* \"#utility.yul\":12407:12491   */\n      tag_364\n      jump\t// in\n    tag_552:\n        /* \"#utility.yul\":12397:12491   */\n      swap3\n      pop\n        /* \"#utility.yul\":12520:12524   */\n      0x20\n        /* \"#utility.yul\":12515:12518   */\n      dup11\n        /* \"#utility.yul\":12511:12525   */\n      add\n        /* \"#utility.yul\":12504:12525   */\n      swap10\n      pop\n        /* \"#utility.yul\":12157:12535   */\n      pop\n        /* \"#utility.yul\":12144:12145   */\n      0x01\n        /* \"#utility.yul\":12141:12142   */\n      dup2\n        /* \"#utility.yul\":12137:12146   */\n      add\n        /* \"#utility.yul\":12132:12146   */\n      swap1\n      pop\n        /* \"#utility.yul\":12097:12535   */\n      jump(tag_548)\n    tag_550:\n        /* \"#utility.yul\":12101:12115   */\n      pop\n        /* \"#utility.yul\":12551:12555   */\n      dup3\n        /* \"#utility.yul\":12544:12555   */\n      swap8\n      pop\n        /* \"#utility.yul\":12571:12574   */\n      dup8\n        /* \"#utility.yul\":12564:12574   */\n      swap6\n      pop\n        /* \"#utility.yul\":11649:12580   */\n      pop\n      pop\n      pop\n      pop\n      pop\n        /* \"#utility.yul\":11477:12580   */\n      swap3\n      swap2\n      pop\n      pop\n      jump\t// out\n        /* \"#utility.yul\":12586:13055   */\n    tag_53:\n        /* \"#utility.yul\":12777:12781   */\n      0x00\n        /* \"#utility.yul\":12815:12817   */\n      0x20\n        /* \"#utility.yul\":12804:12813   */\n      dup3\n        /* \"#utility.yul\":12800:12818   */\n      add\n        /* \"#utility.yul\":12792:12818   */\n      swap1\n      pop\n        /* \"#utility.yul\":12864:12873   */\n      dup2\n        /* \"#utility.yul\":12858:12862   */\n      dup2\n        /* \"#utility.yul\":12854:12874   */\n      sub\n        /* \"#utility.yul\":12850:12851   */\n      0x00\n        /* \"#utility.yul\":12839:12848   */\n      dup4\n        /* \"#utility.yul\":12835:12852   */\n      add\n        /* \"#utility.yul\":12828:12875   */\n      mstore\n        /* \"#utility.yul\":12892:13048   */\n      tag_554\n        /* \"#utility.yul\":13043:13047   */\n      dup2\n        /* \"#utility.yul\":13034:13040   */\n      dup5\n        /* \"#utility.yul\":12892:13048   */\n      tag_381\n      jump\t// in\n    tag_554:\n        /* \"#utility.yul\":12884:13048   */\n      swap1\n      pop\n        /* \"#utility.yul\":12586:13055   */\n      swap3\n      swap2\n      pop\n      pop\n      jump\t// out\n        /* \"#utility.yul\":13061:13179   */\n    tag_382:\n        /* \"#utility.yul\":13148:13172   */\n      tag_556\n        /* \"#utility.yul\":13166:13171   */\n      dup2\n        /* \"#utility.yul\":13148:13172   */\n      tag_368\n      jump\t// in\n    tag_556:\n        /* \"#utility.yul\":13143:13146   */\n      dup3\n        /* \"#utility.yul\":13136:13173   */\n      mstore\n        /* \"#utility.yul\":13061:13179   */\n      pop\n      pop\n      jump\t// out\n        /* \"#utility.yul\":13185:13407   */\n    tag_66:\n        /* \"#utility.yul\":13278:13282   */\n      0x00\n        /* \"#utility.yul\":13316:13318   */\n      0x20\n        /* \"#utility.yul\":13305:13314   */\n      dup3\n        /* \"#utility.yul\":13301:13319   */\n      add\n        /* \"#utility.yul\":13293:13319   */\n      swap1\n      pop\n        /* \"#utility.yul\":13329:13400   */\n      tag_558\n        /* \"#utility.yul\":13397:13398   */\n      0x00\n        /* \"#utility.yul\":13386:13395   */\n      dup4\n        /* \"#utility.yul\":13382:13399   */\n      add\n        /* \"#utility.yul\":13373:13379   */\n      dup5\n        /* \"#utility.yul\":13329:13400   */\n      tag_382\n      jump\t// in\n    tag_558:\n        /* \"#utility.yul\":13185:13407   */\n      swap3\n      swap2\n      pop\n      pop\n      jump\t// out\n        /* \"#utility.yul\":13413:13635   */\n    tag_70:\n        /* \"#utility.yul\":13506:13510   */\n      0x00\n        /* \"#utility.yul\":13544:13546   */\n      0x20\n        /* \"#utility.yul\":13533:13542   */\n      dup3\n        /* \"#utility.yul\":13529:13547   */\n      add\n        /* \"#utility.yul\":13521:13547   */\n      swap1\n      pop\n        /* \"#utility.yul\":13557:13628   */\n      tag_560\n        /* \"#utility.yul\":13625:13626   */\n      0x00\n        /* \"#utility.yul\":13614:13623   */\n      dup4\n        /* \"#utility.yul\":13610:13627   */\n      add\n        /* \"#utility.yul\":13601:13607   */\n      dup5\n        /* \"#utility.yul\":13557:13628   */\n      tag_351\n      jump\t// in\n    tag_560:\n        /* \"#utility.yul\":13413:13635   */\n      swap3\n      swap2\n      pop\n      pop\n      jump\t// out\n        /* \"#utility.yul\":13641:13731   */\n    tag_383:\n        /* \"#utility.yul\":13675:13682   */\n      0x00\n        /* \"#utility.yul\":13718:13723   */\n      dup2\n        /* \"#utility.yul\":13711:13724   */\n      iszero\n        /* \"#utility.yul\":13704:13725   */\n      iszero\n        /* \"#utility.yul\":13693:13725   */\n      swap1\n      pop\n        /* \"#utility.yul\":13641:13731   */\n      swap2\n      swap1\n      pop\n      jump\t// out\n        /* \"#utility.yul\":13737:13846   */\n    tag_384:\n        /* \"#utility.yul\":13818:13839   */\n      tag_563\n        /* \"#utility.yul\":13833:13838   */\n      dup2\n        /* \"#utility.yul\":13818:13839   */\n      tag_383\n      jump\t// in\n    tag_563:\n        /* \"#utility.yul\":13813:13816   */\n      dup3\n        /* \"#utility.yul\":13806:13840   */\n      mstore\n        /* \"#utility.yul\":13737:13846   */\n      pop\n      pop\n      jump\t// out\n        /* \"#utility.yul\":13852:14062   */\n    tag_75:\n        /* \"#utility.yul\":13939:13943   */\n      0x00\n        /* \"#utility.yul\":13977:13979   */\n      0x20\n        /* \"#utility.yul\":13966:13975   */\n      dup3\n        /* \"#utility.yul\":13962:13980   */\n      add\n        /* \"#utility.yul\":13954:13980   */\n      swap1\n      pop\n        /* \"#utility.yul\":13990:14055   */\n      tag_565\n        /* \"#utility.yul\":14052:14053   */\n      0x00\n        /* \"#utility.yul\":14041:14050   */\n      dup4\n        /* \"#utility.yul\":14037:14054   */\n      add\n        /* \"#utility.yul\":14028:14034   */\n      dup5\n        /* \"#utility.yul\":13990:14055   */\n      tag_384\n      jump\t// in\n    tag_565:\n        /* \"#utility.yul\":13852:14062   */\n      swap3\n      swap2\n      pop\n      pop\n      jump\t// out\n        /* \"#utility.yul\":14068:14248   */\n    tag_385:\n        /* \"#utility.yul\":14116:14193   */\n      0x4e487b7100000000000000000000000000000000000000000000000000000000\n        /* \"#utility.yul\":14113:14114   */\n      0x00\n        /* \"#utility.yul\":14106:14194   */\n      mstore\n        /* \"#utility.yul\":14213:14217   */\n      0x11\n        /* \"#utility.yul\":14210:14211   */\n      0x04\n        /* \"#utility.yul\":14203:14218   */\n      mstore\n        /* \"#utility.yul\":14237:14241   */\n      0x24\n        /* \"#utility.yul\":14234:14235   */\n      0x00\n        /* \"#utility.yul\":14227:14242   */\n      revert\n        /* \"#utility.yul\":14254:14487   */\n    tag_97:\n        /* \"#utility.yul\":14293:14296   */\n      0x00\n        /* \"#utility.yul\":14316:14340   */\n      tag_568\n        /* \"#utility.yul\":14334:14339   */\n      dup3\n        /* \"#utility.yul\":14316:14340   */\n      tag_344\n      jump\t// in\n    tag_568:\n        /* \"#utility.yul\":14307:14340   */\n      swap2\n      pop\n        /* \"#utility.yul\":14362:14428   */\n      0xffffffffffffffffffffffffffffffffffffffffffffffffffffffffffffffff\n        /* \"#utility.yul\":14355:14360   */\n      dup3\n        /* \"#utility.yul\":14352:14429   */\n      sub\n        /* \"#utility.yul\":14349:14452   */\n      tag_569\n      jumpi\n        /* \"#utility.yul\":14432:14450   */\n      tag_570\n      tag_385\n      jump\t// in\n    tag_570:\n        /* \"#utility.yul\":14349:14452   */\n    tag_569:\n        /* \"#utility.yul\":14479:14480   */\n      0x01\n        /* \"#utility.yul\":14472:14477   */\n      dup3\n        /* \"#utility.yul\":14468:14481   */\n      add\n        /* \"#utility.yul\":14461:14481   */\n      swap1\n      pop\n        /* \"#utility.yul\":14254:14487   */\n      swap2\n      swap1\n      pop\n      jump\t// out\n        /* \"#utility.yul\":14493:14673   */\n    tag_386:\n        /* \"#utility.yul\":14541:14618   */\n      0x4e487b7100000000000000000000000000000000000000000000000000000000\n        /* \"#utility.yul\":14538:14539   */\n      0x00\n        /* \"#utility.yul\":14531:14619   */\n      mstore\n        /* \"#utility.yul\":14638:14642   */\n      0x22\n        /* \"#utility.yul\":14635:14636   */\n      0x04\n        /* \"#utility.yul\":14628:14643   */\n      mstore\n        /* \"#utility.yul\":14662:14666   */\n      0x24\n        /* \"#utility.yul\":14659:14660   */\n      0x00\n        /* \"#utility.yul\":14652:14667   */\n      revert\n        /* \"#utility.yul\":14679:14999   */\n    tag_113:\n        /* \"#utility.yul\":14723:14729   */\n      0x00\n        /* \"#utility.yul\":14760:14761   */\n      0x02\n        /* \"#utility.yul\":14754:14758   */\n      dup3\n        /* \"#utility.yul\":14750:14762   */\n      div\n        /* \"#utility.yul\":14740:14762   */\n      swap1\n      pop\n        /* \"#utility.yul\":14807:14808   */\n      0x01\n        /* \"#utility.yul\":14801:14805   */\n      dup3\n        /* \"#utility.yul\":14797:14809   */\n      and\n        /* \"#utility.yul\":14828:14846   */\n      dup1\n        /* \"#utility.yul\":14818:14899   */\n      tag_573\n      jumpi\n        /* \"#utility.yul\":14884:14888   */\n      0x7f\n        /* \"#utility.yul\":14876:14882   */\n      dup3\n        /* \"#utility.yul\":14872:14889   */\n      and\n        /* \"#utility.yul\":14862:14889   */\n      swap2\n      pop\n        /* \"#utility.yul\":14818:14899   */\n    tag_573:\n        /* \"#utility.yul\":14946:14948   */\n      0x20\n        /* \"#utility.yul\":14938:14944   */\n      dup3\n        /* \"#utility.yul\":14935:14949   */\n      lt\n        /* \"#utility.yul\":14915:14933   */\n      dup2\n        /* \"#utility.yul\":14912:14950   */\n      sub\n        /* \"#utility.yul\":14909:14993   */\n      tag_574\n      jumpi\n        /* \"#utility.yul\":14965:14983   */\n      tag_575\n      tag_386\n      jump\t// in\n    tag_575:\n        /* \"#utility.yul\":14909:14993   */\n    tag_574:\n        /* \"#utility.yul\":14730:14999   */\n      pop\n        /* \"#utility.yul\":14679:14999   */\n      swap2\n      swap1\n      pop\n      jump\t// out\n        /* \"#utility.yul\":15005:15174   */\n    tag_387:\n        /* \"#utility.yul\":15089:15100   */\n      0x00\n        /* \"#utility.yul\":15123:15129   */\n      dup3\n        /* \"#utility.yul\":15118:15121   */\n      dup3\n        /* \"#utility.yul\":15111:15130   */\n      mstore\n        /* \"#utility.yul\":15163:15167   */\n      0x20\n        /* \"#utility.yul\":15158:15161   */\n      dup3\n        /* \"#utility.yul\":15154:15168   */\n      add\n        /* \"#utility.yul\":15139:15168   */\n      swap1\n      pop\n        /* \"#utility.yul\":15005:15174   */\n      swap3\n      swap2\n      pop\n      pop\n      jump\t// out\n        /* \"#utility.yul\":15180:15408   */\n    tag_388:\n        /* \"#utility.yul\":15320:15354   */\n      0x526567697374726174696f6e206e6f74207374617274656420666f7220746869\n        /* \"#utility.yul\":15316:15317   */\n      0x00\n        /* \"#utility.yul\":15308:15314   */\n      dup3\n        /* \"#utility.yul\":15304:15318   */\n      add\n        /* \"#utility.yul\":15297:15355   */\n      mstore\n        /* \"#utility.yul\":15389:15400   */\n      0x732073657373696f6e0000000000000000000000000000000000000000000000\n        /* \"#utility.yul\":15384:15386   */\n      0x20\n        /* \"#utility.yul\":15376:15382   */\n      dup3\n        /* \"#utility.yul\":15372:15387   */\n      add\n        /* \"#utility.yul\":15365:15401   */\n      mstore\n        /* \"#utility.yul\":15180:15408   */\n      pop\n      jump\t// out\n        /* \"#utility.yul\":15414:15780   */\n    tag_389:\n        /* \"#utility.yul\":15556:15559   */\n      0x00\n        /* \"#utility.yul\":15577:15644   */\n      tag_579\n        /* \"#utility.yul\":15641:15643   */\n      0x29\n        /* \"#utility.yul\":15636:15639   */\n      dup4\n        /* \"#utility.yul\":15577:15644   */\n      tag_387\n      jump\t// in\n    tag_579:\n        /* \"#utility.yul\":15570:15644   */\n      swap2\n      pop\n        /* \"#utility.yul\":15653:15746   */\n      tag_580\n        /* \"#utility.yul\":15742:15745   */\n      dup3\n        /* \"#utility.yul\":15653:15746   */\n      tag_388\n      jump\t// in\n    tag_580:\n        /* \"#utility.yul\":15771:15773   */\n      0x40\n        /* \"#utility.yul\":15766:15769   */\n      dup3\n        /* \"#utility.yul\":15762:15774   */\n      add\n        /* \"#utility.yul\":15755:15774   */\n      swap1\n      pop\n        /* \"#utility.yul\":15414:15780   */\n      swap2\n      swap1\n      pop\n      jump\t// out\n        /* \"#utility.yul\":15786:16205   */\n    tag_128:\n        /* \"#utility.yul\":15952:15956   */\n      0x00\n        /* \"#utility.yul\":15990:15992   */\n      0x20\n        /* \"#utility.yul\":15979:15988   */\n      dup3\n        /* \"#utility.yul\":15975:15993   */\n      add\n        /* \"#utility.yul\":15967:15993   */\n      swap1\n      pop\n        /* \"#utility.yul\":16039:16048   */\n      dup2\n        /* \"#utility.yul\":16033:16037   */\n      dup2\n        /* \"#utility.yul\":16029:16049   */\n      sub\n        /* \"#utility.yul\":16025:16026   */\n      0x00\n        /* \"#utility.yul\":16014:16023   */\n      dup4\n        /* \"#utility.yul\":16010:16027   */\n      add\n        /* \"#utility.yul\":16003:16050   */\n      mstore\n        /* \"#utility.yul\":16067:16198   */\n      tag_582\n        /* \"#utility.yul\":16193:16197   */\n      dup2\n        /* \"#utility.yul\":16067:16198   */\n      tag_389\n      jump\t// in\n    tag_582:\n        /* \"#utility.yul\":16059:16198   */\n      swap1\n      pop\n        /* \"#utility.yul\":15786:16205   */\n      swap2\n      swap1\n      pop\n      jump\t// out\n        /* \"#utility.yul\":16211:16388   */\n    tag_390:\n        /* \"#utility.yul\":16351:16380   */\n      0x566f74657220697320616c726561647920726567697374657265640000000000\n        /* \"#utility.yul\":16347:16348   */\n      0x00\n        /* \"#utility.yul\":16339:16345   */\n      dup3\n        /* \"#utility.yul\":16335:16349   */\n      add\n        /* \"#utility.yul\":16328:16381   */\n      mstore\n        /* \"#utility.yul\":16211:16388   */\n      pop\n      jump\t// out\n        /* \"#utility.yul\":16394:16760   */\n    tag_391:\n        /* \"#utility.yul\":16536:16539   */\n      0x00\n        /* \"#utility.yul\":16557:16624   */\n      tag_585\n        /* \"#utility.yul\":16621:16623   */\n      0x1b\n        /* \"#utility.yul\":16616:16619   */\n      dup4\n        /* \"#utility.yul\":16557:16624   */\n      tag_387\n      jump\t// in\n    tag_585:\n        /* \"#utility.yul\":16550:16624   */\n      swap2\n      pop\n        /* \"#utility.yul\":16633:16726   */\n      tag_586\n        /* \"#utility.yul\":16722:16725   */\n      dup3\n        /* \"#utility.yul\":16633:16726   */\n      tag_390\n      jump\t// in\n    tag_586:\n        /* \"#utility.yul\":16751:16753   */\n      0x20\n        /* \"#utility.yul\":16746:16749   */\n      dup3\n        /* \"#utility.yul\":16742:16754   */\n      add\n        /* \"#utility.yul\":16735:16754   */\n      swap1\n      pop\n        /* \"#utility.yul\":16394:16760   */\n      swap2\n      swap1\n      pop\n      jump\t// out\n        /* \"#utility.yul\":16766:17185   */\n    tag_131:\n        /* \"#utility.yul\":16932:16936   */\n      0x00\n        /* \"#utility.yul\":16970:16972   */\n      0x20\n        /* \"#utility.yul\":16959:16968   */\n      dup3\n        /* \"#utility.yul\":16955:16973   */\n      add\n        /* \"#utility.yul\":16947:16973   */\n      swap1\n      pop\n        /* \"#utility.yul\":17019:17028   */\n      dup2\n        /* \"#utility.yul\":17013:17017   */\n      dup2\n        /* \"#utility.yul\":17009:17029   */\n      sub\n        /* \"#utility.yul\":17005:17006   */\n      0x00\n        /* \"#utility.yul\":16994:17003   */\n      dup4\n        /* \"#utility.yul\":16990:17007   */\n      add\n        /* \"#utility.yul\":16983:17030   */\n      mstore\n        /* \"#utility.yul\":17047:17178   */\n      tag_588\n        /* \"#utility.yul\":17173:17177   */\n      dup2\n        /* \"#utility.yul\":17047:17178   */\n      tag_391\n      jump\t// in\n    tag_588:\n        /* \"#utility.yul\":17039:17178   */\n      swap1\n      pop\n        /* \"#utility.yul\":16766:17185   */\n      swap2\n      swap1\n      pop\n      jump\t// out\n        /* \"#utility.yul\":17191:17363   */\n    tag_392:\n        /* \"#utility.yul\":17331:17355   */\n      0x596f7520617265206e6f74207265676973746572656400000000000000000000\n        /* \"#utility.yul\":17327:17328   */\n      0x00\n        /* \"#utility.yul\":17319:17325   */\n      dup3\n        /* \"#utility.yul\":17315:17329   */\n      add\n        /* \"#utility.yul\":17308:17356   */\n      mstore\n        /* \"#utility.yul\":17191:17363   */\n      pop\n      jump\t// out\n        /* \"#utility.yul\":17369:17735   */\n    tag_393:\n        /* \"#utility.yul\":17511:17514   */\n      0x00\n        /* \"#utility.yul\":17532:17599   */\n      tag_591\n        /* \"#utility.yul\":17596:17598   */\n      0x16\n        /* \"#utility.yul\":17591:17594   */\n      dup4\n        /* \"#utility.yul\":17532:17599   */\n      tag_387\n      jump\t// in\n    tag_591:\n        /* \"#utility.yul\":17525:17599   */\n      swap2\n      pop\n        /* \"#utility.yul\":17608:17701   */\n      tag_592\n        /* \"#utility.yul\":17697:17700   */\n      dup3\n        /* \"#utility.yul\":17608:17701   */\n      tag_392\n      jump\t// in\n    tag_592:\n        /* \"#utility.yul\":17726:17728   */\n      0x20\n        /* \"#utility.yul\":17721:17724   */\n      dup3\n        /* \"#utility.yul\":17717:17729   */\n      add\n        /* \"#utility.yul\":17710:17729   */\n      swap1\n      pop\n        /* \"#utility.yul\":17369:17735   */\n      swap2\n      swap1\n      pop\n      jump\t// out\n        /* \"#utility.yul\":17741:18160   */\n    tag_136:\n        /* \"#utility.yul\":17907:17911   */\n      0x00\n        /* \"#utility.yul\":17945:17947   */\n      0x20\n        /* \"#utility.yul\":17934:17943   */\n      dup3\n        /* \"#utility.yul\":17930:17948   */\n      add\n        /* \"#utility.yul\":17922:17948   */\n      swap1\n      pop\n        /* \"#utility.yul\":17994:18003   */\n      dup2\n        /* \"#utility.yul\":17988:17992   */\n      dup2\n        /* \"#utility.yul\":17984:18004   */\n      sub\n        /* \"#utility.yul\":17980:17981   */\n      0x00\n        /* \"#utility.yul\":17969:17978   */\n      dup4\n        /* \"#utility.yul\":17965:17982   */\n      add\n        /* \"#utility.yul\":17958:18005   */\n      mstore\n        /* \"#utility.yul\":18022:18153   */\n      tag_594\n        /* \"#utility.yul\":18148:18152   */\n      dup2\n        /* \"#utility.yul\":18022:18153   */\n      tag_393\n      jump\t// in\n    tag_594:\n        /* \"#utility.yul\":18014:18153   */\n      swap1\n      pop\n        /* \"#utility.yul\":17741:18160   */\n      swap2\n      swap1\n      pop\n      jump\t// out\n        /* \"#utility.yul\":18166:18348   */\n    tag_394:\n        /* \"#utility.yul\":18306:18340   */\n      0x50726f706f73616c206465736372697074696f6e206973207265717569726564\n        /* \"#utility.yul\":18302:18303   */\n      0x00\n        /* \"#utility.yul\":18294:18300   */\n      dup3\n        /* \"#utility.yul\":18290:18304   */\n      add\n        /* \"#utility.yul\":18283:18341   */\n      mstore\n        /* \"#utility.yul\":18166:18348   */\n      pop\n      jump\t// out\n        /* \"#utility.yul\":18354:18720   */\n    tag_395:\n        /* \"#utility.yul\":18496:18499   */\n      0x00\n        /* \"#utility.yul\":18517:18584   */\n      tag_597\n        /* \"#utility.yul\":18581:18583   */\n      0x20\n        /* \"#utility.yul\":18576:18579   */\n      dup4\n        /* \"#utility.yul\":18517:18584   */\n      tag_387\n      jump\t// in\n    tag_597:\n        /* \"#utility.yul\":18510:18584   */\n      swap2\n      pop\n        /* \"#utility.yul\":18593:18686   */\n      tag_598\n        /* \"#utility.yul\":18682:18685   */\n      dup3\n        /* \"#utility.yul\":18593:18686   */\n      tag_394\n      jump\t// in\n    tag_598:\n        /* \"#utility.yul\":18711:18713   */\n      0x20\n        /* \"#utility.yul\":18706:18709   */\n      dup3\n        /* \"#utility.yul\":18702:18714   */\n      add\n        /* \"#utility.yul\":18695:18714   */\n      swap1\n      pop\n        /* \"#utility.yul\":18354:18720   */\n      swap2\n      swap1\n      pop\n      jump\t// out\n        /* \"#utility.yul\":18726:19145   */\n    tag_140:\n        /* \"#utility.yul\":18892:18896   */\n      0x00\n        /* \"#utility.yul\":18930:18932   */\n      0x20\n        /* \"#utility.yul\":18919:18928   */\n      dup3\n        /* \"#utility.yul\":18915:18933   */\n      add\n        /* \"#utility.yul\":18907:18933   */\n      swap1\n      pop\n        /* \"#utility.yul\":18979:18988   */\n      dup2\n        /* \"#utility.yul\":18973:18977   */\n      dup2\n        /* \"#utility.yul\":18969:18989   */\n      sub\n        /* \"#utility.yul\":18965:18966   */\n      0x00\n        /* \"#utility.yul\":18954:18963   */\n      dup4\n        /* \"#utility.yul\":18950:18967   */\n      add\n        /* \"#utility.yul\":18943:18990   */\n      mstore\n        /* \"#utility.yul\":19007:19138   */\n      tag_600\n        /* \"#utility.yul\":19133:19137   */\n      dup2\n        /* \"#utility.yul\":19007:19138   */\n      tag_395\n      jump\t// in\n    tag_600:\n        /* \"#utility.yul\":18999:19138   */\n      swap1\n      pop\n        /* \"#utility.yul\":18726:19145   */\n      swap2\n      swap1\n      pop\n      jump\t// out\n        /* \"#utility.yul\":19151:19376   */\n    tag_396:\n        /* \"#utility.yul\":19291:19325   */\n      0x50726f706f73616c73206e6f74207374617274656420666f7220746869732073\n        /* \"#utility.yul\":19287:19288   */\n      0x00\n        /* \"#utility.yul\":19279:19285   */\n      dup3\n        /* \"#utility.yul\":19275:19289   */\n      add\n        /* \"#utility.yul\":19268:19326   */\n      mstore\n        /* \"#utility.yul\":19360:19368   */\n      0x657373696f6e0000000000000000000000000000000000000000000000000000\n        /* \"#utility.yul\":19355:19357   */\n      0x20\n        /* \"#utility.yul\":19347:19353   */\n      dup3\n        /* \"#utility.yul\":19343:19358   */\n      add\n        /* \"#utility.yul\":19336:19369   */\n      mstore\n        /* \"#utility.yul\":19151:19376   */\n      pop\n      jump\t// out\n        /* \"#utility.yul\":19382:19748   */\n    tag_397:\n        /* \"#utility.yul\":19524:19527   */\n      0x00\n        /* \"#utility.yul\":19545:19612   */\n      tag_603\n        /* \"#utility.yul\":19609:19611   */\n      0x26\n        /* \"#utility.yul\":19604:19607   */\n      dup4\n        /* \"#utility.yul\":19545:19612   */\n      tag_387\n      jump\t// in\n    tag_603:\n        /* \"#utility.yul\":19538:19612   */\n      swap2\n      pop\n        /* \"#utility.yul\":19621:19714   */\n      tag_604\n        /* \"#utility.yul\":19710:19713   */\n      dup3\n        /* \"#utility.yul\":19621:19714   */\n      tag_396\n      jump\t// in\n    tag_604:\n        /* \"#utility.yul\":19739:19741   */\n      0x40\n        /* \"#utility.yul\":19734:19737   */\n      dup3\n        /* \"#utility.yul\":19730:19742   */\n      add\n        /* \"#utility.yul\":19723:19742   */\n      swap1\n      pop\n        /* \"#utility.yul\":19382:19748   */\n      swap2\n      swap1\n      pop\n      jump\t// out\n        /* \"#utility.yul\":19754:20173   */\n    tag_149:\n        /* \"#utility.yul\":19920:19924   */\n      0x00\n        /* \"#utility.yul\":19958:19960   */\n      0x20\n        /* \"#utility.yul\":19947:19956   */\n      dup3\n        /* \"#utility.yul\":19943:19961   */\n      add\n        /* \"#utility.yul\":19935:19961   */\n      swap1\n      pop\n        /* \"#utility.yul\":20007:20016   */\n      dup2\n        /* \"#utility.yul\":20001:20005   */\n      dup2\n        /* \"#utility.yul\":19997:20017   */\n      sub\n        /* \"#utility.yul\":19993:19994   */\n      0x00\n        /* \"#utility.yul\":19982:19991   */\n      dup4\n        /* \"#utility.yul\":19978:19995   */\n      add\n        /* \"#utility.yul\":19971:20018   */\n      mstore\n        /* \"#utility.yul\":20035:20166   */\n      tag_606\n        /* \"#utility.yul\":20161:20165   */\n      dup2\n        /* \"#utility.yul\":20035:20166   */\n      tag_397\n      jump\t// in\n    tag_606:\n        /* \"#utility.yul\":20027:20166   */\n      swap1\n      pop\n        /* \"#utility.yul\":19754:20173   */\n      swap2\n      swap1\n      pop\n      jump\t// out\n        /* \"#utility.yul\":20179:20320   */\n    tag_398:\n        /* \"#utility.yul\":20228:20232   */\n      0x00\n        /* \"#utility.yul\":20251:20254   */\n      dup2\n        /* \"#utility.yul\":20243:20254   */\n      swap1\n      pop\n        /* \"#utility.yul\":20274:20277   */\n      dup2\n        /* \"#utility.yul\":20271:20272   */\n      0x00\n        /* \"#utility.yul\":20264:20278   */\n      mstore\n        /* \"#utility.yul\":20308:20312   */\n      0x20\n        /* \"#utility.yul\":20305:20306   */\n      0x00\n        /* \"#utility.yul\":20295:20313   */\n      keccak256\n        /* \"#utility.yul\":20287:20313   */\n      swap1\n      pop\n        /* \"#utility.yul\":20179:20320   */\n      swap2\n      swap1\n      pop\n      jump\t// out\n        /* \"#utility.yul\":20326:20419   */\n    tag_399:\n        /* \"#utility.yul\":20363:20369   */\n      0x00\n        /* \"#utility.yul\":20410:20412   */\n      0x20\n        /* \"#utility.yul\":20405:20407   */\n      0x1f\n        /* \"#utility.yul\":20398:20403   */\n      dup4\n        /* \"#utility.yul\":20394:20408   */\n      add\n        /* \"#utility.yul\":20390:20413   */\n      div\n        /* \"#utility.yul\":20380:20413   */\n      swap1\n      pop\n        /* \"#utility.yul\":20326:20419   */\n      swap2\n      swap1\n      pop\n      jump\t// out\n        /* \"#utility.yul\":20425:20532   */\n    tag_400:\n        /* \"#utility.yul\":20469:20477   */\n      0x00\n        /* \"#utility.yul\":20519:20524   */\n      dup3\n        /* \"#utility.yul\":20513:20517   */\n      dup3\n        /* \"#utility.yul\":20509:20525   */\n      shl\n        /* \"#utility.yul\":20488:20525   */\n      swap1\n      pop\n        /* \"#utility.yul\":20425:20532   */\n      swap3\n      swap2\n      pop\n      pop\n      jump\t// out\n        /* \"#utility.yul\":20538:20931   */\n    tag_401:\n        /* \"#utility.yul\":20607:20613   */\n      0x00\n        /* \"#utility.yul\":20657:20658   */\n      0x08\n        /* \"#utility.yul\":20645:20655   */\n      dup4\n        /* \"#utility.yul\":20641:20659   */\n      mul\n        /* \"#utility.yul\":20680:20777   */\n      tag_611\n        /* \"#utility.yul\":20710:20776   */\n      0xffffffffffffffffffffffffffffffffffffffffffffffffffffffffffffffff\n        /* \"#utility.yul\":20699:20708   */\n      dup3\n        /* \"#utility.yul\":20680:20777   */\n      tag_400\n      jump\t// in\n    tag_611:\n        /* \"#utility.yul\":20798:20837   */\n      tag_612\n        /* \"#utility.yul\":20828:20836   */\n      dup7\n        /* \"#utility.yul\":20817:20826   */\n      dup4\n        /* \"#utility.yul\":20798:20837   */\n      tag_400\n      jump\t// in\n    tag_612:\n        /* \"#utility.yul\":20786:20837   */\n      swap6\n      pop\n        /* \"#utility.yul\":20870:20874   */\n      dup1\n        /* \"#utility.yul\":20866:20875   */\n      not\n        /* \"#utility.yul\":20859:20864   */\n      dup5\n        /* \"#utility.yul\":20855:20876   */\n      and\n        /* \"#utility.yul\":20846:20876   */\n      swap4\n      pop\n        /* \"#utility.yul\":20919:20923   */\n      dup1\n        /* \"#utility.yul\":20909:20917   */\n      dup7\n        /* \"#utility.yul\":20905:20924   */\n      and\n        /* \"#utility.yul\":20898:20903   */\n      dup5\n        /* \"#utility.yul\":20895:20925   */\n      or\n        /* \"#utility.yul\":20885:20925   */\n      swap3\n      pop\n        /* \"#utility.yul\":20614:20931   */\n      pop\n      pop\n        /* \"#utility.yul\":20538:20931   */\n      swap4\n      swap3\n      pop\n      pop\n      pop\n      jump\t// out\n        /* \"#utility.yul\":20937:20997   */\n    tag_402:\n        /* \"#utility.yul\":20965:20968   */\n      0x00\n        /* \"#utility.yul\":20986:20991   */\n      dup2\n        /* \"#utility.yul\":20979:20991   */\n      swap1\n      pop\n        /* \"#utility.yul\":20937:20997   */\n      swap2\n      swap1\n      pop\n      jump\t// out\n        /* \"#utility.yul\":21003:21145   */\n    tag_403:\n        /* \"#utility.yul\":21053:21062   */\n      0x00\n        /* \"#utility.yul\":21086:21139   */\n      tag_615\n        /* \"#utility.yul\":21104:21138   */\n      tag_616\n        /* \"#utility.yul\":21113:21137   */\n      tag_617\n        /* \"#utility.yul\":21131:21136   */\n      dup5\n        /* \"#utility.yul\":21113:21137   */\n      tag_344\n      jump\t// in\n    tag_617:\n        /* \"#utility.yul\":21104:21138   */\n      tag_402\n      jump\t// in\n    tag_616:\n        /* \"#utility.yul\":21086:21139   */\n      tag_344\n      jump\t// in\n    tag_615:\n        /* \"#utility.yul\":21073:21139   */\n      swap1\n      pop\n        /* \"#utility.yul\":21003:21145   */\n      swap2\n      swap1\n      pop\n      jump\t// out\n        /* \"#utility.yul\":21151:21226   */\n    tag_404:\n        /* \"#utility.yul\":21194:21197   */\n      0x00\n        /* \"#utility.yul\":21215:21220   */\n      dup2\n        /* \"#utility.yul\":21208:21220   */\n      swap1\n      pop\n        /* \"#utility.yul\":21151:21226   */\n      swap2\n      swap1\n      pop\n      jump\t// out\n        /* \"#utility.yul\":21232:21501   */\n    tag_405:\n        /* \"#utility.yul\":21342:21381   */\n      tag_620\n        /* \"#utility.yul\":21373:21380   */\n      dup4\n        /* \"#utility.yul\":21342:21381   */\n      tag_403\n      jump\t// in\n    tag_620:\n        /* \"#utility.yul\":21403:21494   */\n      tag_621\n        /* \"#utility.yul\":21452:21493   */\n      tag_622\n        /* \"#utility.yul\":21476:21492   */\n      dup3\n        /* \"#utility.yul\":21452:21493   */\n      tag_404\n      jump\t// in\n    tag_622:\n        /* \"#utility.yul\":21444:21450   */\n      dup5\n        /* \"#utility.yul\":21437:21441   */\n      dup5\n        /* \"#utility.yul\":21431:21442   */\n      sload\n        /* \"#utility.yul\":21403:21494   */\n      tag_401\n      jump\t// in\n    tag_621:\n        /* \"#utility.yul\":21397:21401   */\n      dup3\n        /* \"#utility.yul\":21390:21495   */\n      sstore\n        /* \"#utility.yul\":21308:21501   */\n      pop\n        /* \"#utility.yul\":21232:21501   */\n      pop\n      pop\n      pop\n      jump\t// out\n        /* \"#utility.yul\":21507:21580   */\n    tag_406:\n        /* \"#utility.yul\":21552:21555   */\n      0x00\n        /* \"#utility.yul\":21573:21574   */\n      0x00\n        /* \"#utility.yul\":21566:21574   */\n      swap1\n      pop\n        /* \"#utility.yul\":21507:21580   */\n      swap1\n      jump\t// out\n        /* \"#utility.yul\":21586:21775   */\n    tag_407:\n        /* \"#utility.yul\":21663:21695   */\n      tag_625\n      tag_406\n      jump\t// in\n    tag_625:\n        /* \"#utility.yul\":21704:21769   */\n      tag_626\n        /* \"#utility.yul\":21762:21768   */\n      dup2\n        /* \"#utility.yul\":21754:21760   */\n      dup5\n        /* \"#utility.yul\":21748:21752   */\n      dup5\n        /* \"#utility.yul\":21704:21769   */\n      tag_405\n      jump\t// in\n    tag_626:\n        /* \"#utility.yul\":21639:21775   */\n      pop\n        /* \"#utility.yul\":21586:21775   */\n      pop\n      pop\n      jump\t// out\n        /* \"#utility.yul\":21781:21967   */\n    tag_408:\n        /* \"#utility.yul\":21841:21961   */\n    tag_628:\n        /* \"#utility.yul\":21858:21861   */\n      dup2\n        /* \"#utility.yul\":21851:21856   */\n      dup2\n        /* \"#utility.yul\":21848:21862   */\n      lt\n        /* \"#utility.yul\":21841:21961   */\n      iszero\n      tag_630\n      jumpi\n        /* \"#utility.yul\":21912:21951   */\n      tag_631\n        /* \"#utility.yul\":21949:21950   */\n      0x00\n        /* \"#utility.yul\":21942:21947   */\n      dup3\n        /* \"#utility.yul\":21912:21951   */\n      tag_407\n      jump\t// in\n    tag_631:\n        /* \"#utility.yul\":21885:21886   */\n      0x01\n        /* \"#utility.yul\":21878:21883   */\n      dup2\n        /* \"#utility.yul\":21874:21887   */\n      add\n        /* \"#utility.yul\":21865:21887   */\n      swap1\n      pop\n        /* \"#utility.yul\":21841:21961   */\n      jump(tag_628)\n    tag_630:\n        /* \"#utility.yul\":21781:21967   */\n      pop\n      pop\n      jump\t// out\n        /* \"#utility.yul\":21973:22516   */\n    tag_409:\n        /* \"#utility.yul\":22074:22076   */\n      0x1f\n        /* \"#utility.yul\":22069:22072   */\n      dup3\n        /* \"#utility.yul\":22066:22077   */\n      gt\n        /* \"#utility.yul\":22063:22509   */\n      iszero\n      tag_633\n      jumpi\n        /* \"#utility.yul\":22108:22146   */\n      tag_634\n        /* \"#utility.yul\":22140:22145   */\n      dup2\n        /* \"#utility.yul\":22108:22146   */\n      tag_398\n      jump\t// in\n    tag_634:\n        /* \"#utility.yul\":22192:22221   */\n      tag_635\n        /* \"#utility.yul\":22210:22220   */\n      dup5\n        /* \"#utility.yul\":22192:22221   */\n      tag_399\n      jump\t// in\n    tag_635:\n        /* \"#utility.yul\":22182:22190   */\n      dup2\n        /* \"#utility.yul\":22178:22222   */\n      add\n        /* \"#utility.yul\":22375:22377   */\n      0x20\n        /* \"#utility.yul\":22363:22373   */\n      dup6\n        /* \"#utility.yul\":22360:22378   */\n      lt\n        /* \"#utility.yul\":22357:22406   */\n      iszero\n      tag_636\n      jumpi\n        /* \"#utility.yul\":22396:22404   */\n      dup2\n        /* \"#utility.yul\":22381:22404   */\n      swap1\n      pop\n        /* \"#utility.yul\":22357:22406   */\n    tag_636:\n        /* \"#utility.yul\":22419:22499   */\n      tag_637\n        /* \"#utility.yul\":22475:22497   */\n      tag_638\n        /* \"#utility.yul\":22493:22496   */\n      dup6\n        /* \"#utility.yul\":22475:22497   */\n      tag_399\n      jump\t// in\n    tag_638:\n        /* \"#utility.yul\":22465:22473   */\n      dup4\n        /* \"#utility.yul\":22461:22498   */\n      add\n        /* \"#utility.yul\":22448:22459   */\n      dup3\n        /* \"#utility.yul\":22419:22499   */\n      tag_408\n      jump\t// in\n    tag_637:\n        /* \"#utility.yul\":22078:22509   */\n      pop\n      pop\n        /* \"#utility.yul\":22063:22509   */\n    tag_633:\n        /* \"#utility.yul\":21973:22516   */\n      pop\n      pop\n      pop\n      jump\t// out\n        /* \"#utility.yul\":22522:22639   */\n    tag_410:\n        /* \"#utility.yul\":22576:22584   */\n      0x00\n        /* \"#utility.yul\":22626:22631   */\n      dup3\n        /* \"#utility.yul\":22620:22624   */\n      dup3\n        /* \"#utility.yul\":22616:22632   */\n      shr\n        /* \"#utility.yul\":22595:22632   */\n      swap1\n      pop\n        /* \"#utility.yul\":22522:22639   */\n      swap3\n      swap2\n      pop\n      pop\n      jump\t// out\n        /* \"#utility.yul\":22645:22814   */\n    tag_411:\n        /* \"#utility.yul\":22689:22695   */\n      0x00\n        /* \"#utility.yul\":22722:22773   */\n      tag_641\n        /* \"#utility.yul\":22770:22771   */\n      0x00\n        /* \"#utility.yul\":22766:22772   */\n      not\n        /* \"#utility.yul\":22758:22763   */\n      dup5\n        /* \"#utility.yul\":22755:22756   */\n      0x08\n        /* \"#utility.yul\":22751:22764   */\n      mul\n        /* \"#utility.yul\":22722:22773   */\n      tag_410\n      jump\t// in\n    tag_641:\n        /* \"#utility.yul\":22718:22774   */\n      not\n        /* \"#utility.yul\":22803:22807   */\n      dup1\n        /* \"#utility.yul\":22797:22801   */\n      dup4\n        /* \"#utility.yul\":22793:22808   */\n      and\n        /* \"#utility.yul\":22783:22808   */\n      swap2\n      pop\n        /* \"#utility.yul\":22696:22814   */\n      pop\n        /* \"#utility.yul\":22645:22814   */\n      swap3\n      swap2\n      pop\n      pop\n      jump\t// out\n        /* \"#utility.yul\":22819:23114   */\n    tag_412:\n        /* \"#utility.yul\":22895:22899   */\n      0x00\n        /* \"#utility.yul\":23041:23070   */\n      tag_643\n        /* \"#utility.yul\":23066:23069   */\n      dup4\n        /* \"#utility.yul\":23060:23064   */\n      dup4\n        /* \"#utility.yul\":23041:23070   */\n      tag_411\n      jump\t// in\n    tag_643:\n        /* \"#utility.yul\":23033:23070   */\n      swap2\n      pop\n        /* \"#utility.yul\":23103:23106   */\n      dup3\n        /* \"#utility.yul\":23100:23101   */\n      0x02\n        /* \"#utility.yul\":23096:23107   */\n      mul\n        /* \"#utility.yul\":23090:23094   */\n      dup3\n        /* \"#utility.yul\":23087:23108   */\n      or\n        /* \"#utility.yul\":23079:23108   */\n      swap1\n      pop\n        /* \"#utility.yul\":22819:23114   */\n      swap3\n      swap2\n      pop\n      pop\n      jump\t// out\n        /* \"#utility.yul\":23119:24514   */\n    tag_152:\n        /* \"#utility.yul\":23236:23273   */\n      tag_645\n        /* \"#utility.yul\":23269:23272   */\n      dup3\n        /* \"#utility.yul\":23236:23273   */\n      tag_357\n      jump\t// in\n    tag_645:\n        /* \"#utility.yul\":23338:23356   */\n      0xffffffffffffffff\n        /* \"#utility.yul\":23330:23336   */\n      dup2\n        /* \"#utility.yul\":23327:23357   */\n      gt\n        /* \"#utility.yul\":23324:23380   */\n      iszero\n      tag_646\n      jumpi\n        /* \"#utility.yul\":23360:23378   */\n      tag_647\n      tag_373\n      jump\t// in\n    tag_647:\n        /* \"#utility.yul\":23324:23380   */\n    tag_646:\n        /* \"#utility.yul\":23404:23442   */\n      tag_648\n        /* \"#utility.yul\":23436:23440   */\n      dup3\n        /* \"#utility.yul\":23430:23441   */\n      sload\n        /* \"#utility.yul\":23404:23442   */\n      tag_113\n      jump\t// in\n    tag_648:\n        /* \"#utility.yul\":23489:23556   */\n      tag_649\n        /* \"#utility.yul\":23549:23555   */\n      dup3\n        /* \"#utility.yul\":23541:23547   */\n      dup3\n        /* \"#utility.yul\":23535:23539   */\n      dup6\n        /* \"#utility.yul\":23489:23556   */\n      tag_409\n      jump\t// in\n    tag_649:\n        /* \"#utility.yul\":23583:23584   */\n      0x00\n        /* \"#utility.yul\":23607:23611   */\n      0x20\n        /* \"#utility.yul\":23594:23611   */\n      swap1\n      pop\n        /* \"#utility.yul\":23639:23641   */\n      0x1f\n        /* \"#utility.yul\":23631:23637   */\n      dup4\n        /* \"#utility.yul\":23628:23642   */\n      gt\n        /* \"#utility.yul\":23656:23657   */\n      0x01\n        /* \"#utility.yul\":23651:24269   */\n      dup2\n      eq\n      tag_651\n      jumpi\n        /* \"#utility.yul\":24313:24314   */\n      0x00\n        /* \"#utility.yul\":24330:24336   */\n      dup5\n        /* \"#utility.yul\":24327:24404   */\n      iszero\n      tag_652\n      jumpi\n        /* \"#utility.yul\":24379:24388   */\n      dup3\n        /* \"#utility.yul\":24374:24377   */\n      dup8\n        /* \"#utility.yul\":24370:24389   */\n      add\n        /* \"#utility.yul\":24364:24390   */\n      mload\n        /* \"#utility.yul\":24355:24390   */\n      swap1\n      pop\n        /* \"#utility.yul\":24327:24404   */\n    tag_652:\n        /* \"#utility.yul\":24430:24497   */\n      tag_653\n        /* \"#utility.yul\":24490:24496   */\n      dup6\n        /* \"#utility.yul\":24483:24488   */\n      dup3\n        /* \"#utility.yul\":24430:24497   */\n      tag_412\n      jump\t// in\n    tag_653:\n        /* \"#utility.yul\":24424:24428   */\n      dup7\n        /* \"#utility.yul\":24417:24498   */\n      sstore\n        /* \"#utility.yul\":24286:24508   */\n      pop\n        /* \"#utility.yul\":23621:24508   */\n      jump(tag_650)\n        /* \"#utility.yul\":23651:24269   */\n    tag_651:\n        /* \"#utility.yul\":23703:23707   */\n      0x1f\n        /* \"#utility.yul\":23699:23708   */\n      not\n        /* \"#utility.yul\":23691:23697   */\n      dup5\n        /* \"#utility.yul\":23687:23709   */\n      and\n        /* \"#utility.yul\":23737:23774   */\n      tag_654\n        /* \"#utility.yul\":23769:23773   */\n      dup7\n        /* \"#utility.yul\":23737:23774   */\n      tag_398\n      jump\t// in\n    tag_654:\n        /* \"#utility.yul\":23796:23797   */\n      0x00\n        /* \"#utility.yul\":23810:24018   */\n    tag_655:\n        /* \"#utility.yul\":23824:23831   */\n      dup3\n        /* \"#utility.yul\":23821:23822   */\n      dup2\n        /* \"#utility.yul\":23818:23832   */\n      lt\n        /* \"#utility.yul\":23810:24018   */\n      iszero\n      tag_657\n      jumpi\n        /* \"#utility.yul\":23903:23912   */\n      dup5\n        /* \"#utility.yul\":23898:23901   */\n      dup10\n        /* \"#utility.yul\":23894:23913   */\n      add\n        /* \"#utility.yul\":23888:23914   */\n      mload\n        /* \"#utility.yul\":23880:23886   */\n      dup3\n        /* \"#utility.yul\":23873:23915   */\n      sstore\n        /* \"#utility.yul\":23954:23955   */\n      0x01\n        /* \"#utility.yul\":23946:23952   */\n      dup3\n        /* \"#utility.yul\":23942:23956   */\n      add\n        /* \"#utility.yul\":23932:23956   */\n      swap2\n      pop\n        /* \"#utility.yul\":24001:24003   */\n      0x20\n        /* \"#utility.yul\":23990:23999   */\n      dup6\n        /* \"#utility.yul\":23986:24004   */\n      add\n        /* \"#utility.yul\":23973:24004   */\n      swap5\n      pop\n        /* \"#utility.yul\":23847:23851   */\n      0x20\n        /* \"#utility.yul\":23844:23845   */\n      dup2\n        /* \"#utility.yul\":23840:23852   */\n      add\n        /* \"#utility.yul\":23835:23852   */\n      swap1\n      pop\n        /* \"#utility.yul\":23810:24018   */\n      jump(tag_655)\n    tag_657:\n        /* \"#utility.yul\":24046:24052   */\n      dup7\n        /* \"#utility.yul\":24037:24044   */\n      dup4\n        /* \"#utility.yul\":24034:24053   */\n      lt\n        /* \"#utility.yul\":24031:24210   */\n      iszero\n      tag_658\n      jumpi\n        /* \"#utility.yul\":24104:24113   */\n      dup5\n        /* \"#utility.yul\":24099:24102   */\n      dup10\n        /* \"#utility.yul\":24095:24114   */\n      add\n        /* \"#utility.yul\":24089:24115   */\n      mload\n        /* \"#utility.yul\":24147:24195   */\n      tag_659\n        /* \"#utility.yul\":24189:24193   */\n      0x1f\n        /* \"#utility.yul\":24181:24187   */\n      dup10\n        /* \"#utility.yul\":24177:24194   */\n      and\n        /* \"#utility.yul\":24166:24175   */\n      dup3\n        /* \"#utility.yul\":24147:24195   */\n      tag_411\n      jump\t// in\n    tag_659:\n        /* \"#utility.yul\":24139:24145   */\n      dup4\n        /* \"#utility.yul\":24132:24196   */\n      sstore\n        /* \"#utility.yul\":24054:24210   */\n      pop\n        /* \"#utility.yul\":24031:24210   */\n    tag_658:\n        /* \"#utility.yul\":24256:24257   */\n      0x01\n        /* \"#utility.yul\":24252:24253   */\n      0x02\n        /* \"#utility.yul\":24244:24250   */\n      dup9\n        /* \"#utility.yul\":24240:24254   */\n      mul\n        /* \"#utility.yul\":24236:24258   */\n      add\n        /* \"#utility.yul\":24230:24234   */\n      dup9\n        /* \"#utility.yul\":24223:24259   */\n      sstore\n        /* \"#utility.yul\":23658:24269   */\n      pop\n      pop\n      pop\n        /* \"#utility.yul\":23621:24508   */\n    tag_650:\n      pop\n        /* \"#utility.yul\":23211:24514   */\n      pop\n      pop\n      pop\n        /* \"#utility.yul\":23119:24514   */\n      pop\n      pop\n      jump\t// out\n        /* \"#utility.yul\":24520:24758   */\n    tag_413:\n        /* \"#utility.yul\":24660:24694   */\n      0x50726f706f73616c7320726567697374726174696f6e206e6f74207374617274\n        /* \"#utility.yul\":24656:24657   */\n      0x00\n        /* \"#utility.yul\":24648:24654   */\n      dup3\n        /* \"#utility.yul\":24644:24658   */\n      add\n        /* \"#utility.yul\":24637:24695   */\n      mstore\n        /* \"#utility.yul\":24729:24750   */\n      0x656420666f7220746869732073657373696f6e00000000000000000000000000\n        /* \"#utility.yul\":24724:24726   */\n      0x20\n        /* \"#utility.yul\":24716:24722   */\n      dup3\n        /* \"#utility.yul\":24712:24727   */\n      add\n        /* \"#utility.yul\":24705:24751   */\n      mstore\n        /* \"#utility.yul\":24520:24758   */\n      pop\n      jump\t// out\n        /* \"#utility.yul\":24764:25130   */\n    tag_414:\n        /* \"#utility.yul\":24906:24909   */\n      0x00\n        /* \"#utility.yul\":24927:24994   */\n      tag_662\n        /* \"#utility.yul\":24991:24993   */\n      0x33\n        /* \"#utility.yul\":24986:24989   */\n      dup4\n        /* \"#utility.yul\":24927:24994   */\n      tag_387\n      jump\t// in\n    tag_662:\n        /* \"#utility.yul\":24920:24994   */\n      swap2\n      pop\n        /* \"#utility.yul\":25003:25096   */\n      tag_663\n        /* \"#utility.yul\":25092:25095   */\n      dup3\n        /* \"#utility.yul\":25003:25096   */\n      tag_413\n      jump\t// in\n    tag_663:\n        /* \"#utility.yul\":25121:25123   */\n      0x40\n        /* \"#utility.yul\":25116:25119   */\n      dup3\n        /* \"#utility.yul\":25112:25124   */\n      add\n        /* \"#utility.yul\":25105:25124   */\n      swap1\n      pop\n        /* \"#utility.yul\":24764:25130   */\n      swap2\n      swap1\n      pop\n      jump\t// out\n        /* \"#utility.yul\":25136:25555   */\n    tag_181:\n        /* \"#utility.yul\":25302:25306   */\n      0x00\n        /* \"#utility.yul\":25340:25342   */\n      0x20\n        /* \"#utility.yul\":25329:25338   */\n      dup3\n        /* \"#utility.yul\":25325:25343   */\n      add\n        /* \"#utility.yul\":25317:25343   */\n      swap1\n      pop\n        /* \"#utility.yul\":25389:25398   */\n      dup2\n        /* \"#utility.yul\":25383:25387   */\n      dup2\n        /* \"#utility.yul\":25379:25399   */\n      sub\n        /* \"#utility.yul\":25375:25376   */\n      0x00\n        /* \"#utility.yul\":25364:25373   */\n      dup4\n        /* \"#utility.yul\":25360:25377   */\n      add\n        /* \"#utility.yul\":25353:25400   */\n      mstore\n        /* \"#utility.yul\":25417:25548   */\n      tag_665\n        /* \"#utility.yul\":25543:25547   */\n      dup2\n        /* \"#utility.yul\":25417:25548   */\n      tag_414\n      jump\t// in\n    tag_665:\n        /* \"#utility.yul\":25409:25548   */\n      swap1\n      pop\n        /* \"#utility.yul\":25136:25555   */\n      swap2\n      swap1\n      pop\n      jump\t// out\n        /* \"#utility.yul\":25561:25953   */\n    tag_187:\n        /* \"#utility.yul\":25712:25716   */\n      0x00\n        /* \"#utility.yul\":25750:25752   */\n      0x40\n        /* \"#utility.yul\":25739:25748   */\n      dup3\n        /* \"#utility.yul\":25735:25753   */\n      add\n        /* \"#utility.yul\":25727:25753   */\n      swap1\n      pop\n        /* \"#utility.yul\":25763:25849   */\n      tag_667\n        /* \"#utility.yul\":25846:25847   */\n      0x00\n        /* \"#utility.yul\":25835:25844   */\n      dup4\n        /* \"#utility.yul\":25831:25848   */\n      add\n        /* \"#utility.yul\":25822:25828   */\n      dup6\n        /* \"#utility.yul\":25763:25849   */\n      tag_350\n      jump\t// in\n    tag_667:\n        /* \"#utility.yul\":25859:25946   */\n      tag_668\n        /* \"#utility.yul\":25942:25944   */\n      0x20\n        /* \"#utility.yul\":25931:25940   */\n      dup4\n        /* \"#utility.yul\":25927:25945   */\n      add\n        /* \"#utility.yul\":25918:25924   */\n      dup5\n        /* \"#utility.yul\":25859:25946   */\n      tag_350\n      jump\t// in\n    tag_668:\n        /* \"#utility.yul\":25561:25953   */\n      swap4\n      swap3\n      pop\n      pop\n      pop\n      jump\t// out\n        /* \"#utility.yul\":25959:26138   */\n    tag_415:\n        /* \"#utility.yul\":26099:26130   */\n      0x566f74657220697320616c726561647920756e72656769737465726564000000\n        /* \"#utility.yul\":26095:26096   */\n      0x00\n        /* \"#utility.yul\":26087:26093   */\n      dup3\n        /* \"#utility.yul\":26083:26097   */\n      add\n        /* \"#utility.yul\":26076:26131   */\n      mstore\n        /* \"#utility.yul\":25959:26138   */\n      pop\n      jump\t// out\n        /* \"#utility.yul\":26144:26510   */\n    tag_416:\n        /* \"#utility.yul\":26286:26289   */\n      0x00\n        /* \"#utility.yul\":26307:26374   */\n      tag_671\n        /* \"#utility.yul\":26371:26373   */\n      0x1d\n        /* \"#utility.yul\":26366:26369   */\n      dup4\n        /* \"#utility.yul\":26307:26374   */\n      tag_387\n      jump\t// in\n    tag_671:\n        /* \"#utility.yul\":26300:26374   */\n      swap2\n      pop\n        /* \"#utility.yul\":26383:26476   */\n      tag_672\n        /* \"#utility.yul\":26472:26475   */\n      dup3\n        /* \"#utility.yul\":26383:26476   */\n      tag_415\n      jump\t// in\n    tag_672:\n        /* \"#utility.yul\":26501:26503   */\n      0x20\n        /* \"#utility.yul\":26496:26499   */\n      dup3\n        /* \"#utility.yul\":26492:26504   */\n      add\n        /* \"#utility.yul\":26485:26504   */\n      swap1\n      pop\n        /* \"#utility.yul\":26144:26510   */\n      swap2\n      swap1\n      pop\n      jump\t// out\n        /* \"#utility.yul\":26516:26935   */\n    tag_205:\n        /* \"#utility.yul\":26682:26686   */\n      0x00\n        /* \"#utility.yul\":26720:26722   */\n      0x20\n        /* \"#utility.yul\":26709:26718   */\n      dup3\n        /* \"#utility.yul\":26705:26723   */\n      add\n        /* \"#utility.yul\":26697:26723   */\n      swap1\n      pop\n        /* \"#utility.yul\":26769:26778   */\n      dup2\n        /* \"#utility.yul\":26763:26767   */\n      dup2\n        /* \"#utility.yul\":26759:26779   */\n      sub\n        /* \"#utility.yul\":26755:26756   */\n      0x00\n        /* \"#utility.yul\":26744:26753   */\n      dup4\n        /* \"#utility.yul\":26740:26757   */\n      add\n        /* \"#utility.yul\":26733:26780   */\n      mstore\n        /* \"#utility.yul\":26797:26928   */\n      tag_674\n        /* \"#utility.yul\":26923:26927   */\n      dup2\n        /* \"#utility.yul\":26797:26928   */\n      tag_416\n      jump\t// in\n    tag_674:\n        /* \"#utility.yul\":26789:26928   */\n      swap1\n      pop\n        /* \"#utility.yul\":26516:26935   */\n      swap2\n      swap1\n      pop\n      jump\t// out\n        /* \"#utility.yul\":26941:27115   */\n    tag_417:\n        /* \"#utility.yul\":27081:27107   */\n      0x566f74696e672073657373696f6e206e6f7420656e6465640000000000000000\n        /* \"#utility.yul\":27077:27078   */\n      0x00\n        /* \"#utility.yul\":27069:27075   */\n      dup3\n        /* \"#utility.yul\":27065:27079   */\n      add\n        /* \"#utility.yul\":27058:27108   */\n      mstore\n        /* \"#utility.yul\":26941:27115   */\n      pop\n      jump\t// out\n        /* \"#utility.yul\":27121:27487   */\n    tag_418:\n        /* \"#utility.yul\":27263:27266   */\n      0x00\n        /* \"#utility.yul\":27284:27351   */\n      tag_677\n        /* \"#utility.yul\":27348:27350   */\n      0x18\n        /* \"#utility.yul\":27343:27346   */\n      dup4\n        /* \"#utility.yul\":27284:27351   */\n      tag_387\n      jump\t// in\n    tag_677:\n        /* \"#utility.yul\":27277:27351   */\n      swap2\n      pop\n        /* \"#utility.yul\":27360:27453   */\n      tag_678\n        /* \"#utility.yul\":27449:27452   */\n      dup3\n        /* \"#utility.yul\":27360:27453   */\n      tag_417\n      jump\t// in\n    tag_678:\n        /* \"#utility.yul\":27478:27480   */\n      0x20\n        /* \"#utility.yul\":27473:27476   */\n      dup3\n        /* \"#utility.yul\":27469:27481   */\n      add\n        /* \"#utility.yul\":27462:27481   */\n      swap1\n      pop\n        /* \"#utility.yul\":27121:27487   */\n      swap2\n      swap1\n      pop\n      jump\t// out\n        /* \"#utility.yul\":27493:27912   */\n    tag_215:\n        /* \"#utility.yul\":27659:27663   */\n      0x00\n        /* \"#utility.yul\":27697:27699   */\n      0x20\n        /* \"#utility.yul\":27686:27695   */\n      dup3\n        /* \"#utility.yul\":27682:27700   */\n      add\n        /* \"#utility.yul\":27674:27700   */\n      swap1\n      pop\n        /* \"#utility.yul\":27746:27755   */\n      dup2\n        /* \"#utility.yul\":27740:27744   */\n      dup2\n        /* \"#utility.yul\":27736:27756   */\n      sub\n        /* \"#utility.yul\":27732:27733   */\n      0x00\n        /* \"#utility.yul\":27721:27730   */\n      dup4\n        /* \"#utility.yul\":27717:27734   */\n      add\n        /* \"#utility.yul\":27710:27757   */\n      mstore\n        /* \"#utility.yul\":27774:27905   */\n      tag_680\n        /* \"#utility.yul\":27900:27904   */\n      dup2\n        /* \"#utility.yul\":27774:27905   */\n      tag_418\n      jump\t// in\n    tag_680:\n        /* \"#utility.yul\":27766:27905   */\n      swap1\n      pop\n        /* \"#utility.yul\":27493:27912   */\n      swap2\n      swap1\n      pop\n      jump\t// out\n        /* \"#utility.yul\":27918:28097   */\n    tag_419:\n        /* \"#utility.yul\":28058:28089   */\n      0x546869732073657373696f6e20686173206e6f2070726f706f73616c73000000\n        /* \"#utility.yul\":28054:28055   */\n      0x00\n        /* \"#utility.yul\":28046:28052   */\n      dup3\n        /* \"#utility.yul\":28042:28056   */\n      add\n        /* \"#utility.yul\":28035:28090   */\n      mstore\n        /* \"#utility.yul\":27918:28097   */\n      pop\n      jump\t// out\n        /* \"#utility.yul\":28103:28469   */\n    tag_420:\n        /* \"#utility.yul\":28245:28248   */\n      0x00\n        /* \"#utility.yul\":28266:28333   */\n      tag_683\n        /* \"#utility.yul\":28330:28332   */\n      0x1d\n        /* \"#utility.yul\":28325:28328   */\n      dup4\n        /* \"#utility.yul\":28266:28333   */\n      tag_387\n      jump\t// in\n    tag_683:\n        /* \"#utility.yul\":28259:28333   */\n      swap2\n      pop\n        /* \"#utility.yul\":28342:28435   */\n      tag_684\n        /* \"#utility.yul\":28431:28434   */\n      dup3\n        /* \"#utility.yul\":28342:28435   */\n      tag_419\n      jump\t// in\n    tag_684:\n        /* \"#utility.yul\":28460:28462   */\n      0x20\n        /* \"#utility.yul\":28455:28458   */\n      dup3\n        /* \"#utility.yul\":28451:28463   */\n      add\n        /* \"#utility.yul\":28444:28463   */\n      swap1\n      pop\n        /* \"#utility.yul\":28103:28469   */\n      swap2\n      swap1\n      pop\n      jump\t// out\n        /* \"#utility.yul\":28475:28894   */\n    tag_218:\n        /* \"#utility.yul\":28641:28645   */\n      0x00\n        /* \"#utility.yul\":28679:28681   */\n      0x20\n        /* \"#utility.yul\":28668:28677   */\n      dup3\n        /* \"#utility.yul\":28664:28682   */\n      add\n        /* \"#utility.yul\":28656:28682   */\n      swap1\n      pop\n        /* \"#utility.yul\":28728:28737   */\n      dup2\n        /* \"#utility.yul\":28722:28726   */\n      dup2\n        /* \"#utility.yul\":28718:28738   */\n      sub\n        /* \"#utility.yul\":28714:28715   */\n      0x00\n        /* \"#utility.yul\":28703:28712   */\n      dup4\n        /* \"#utility.yul\":28699:28716   */\n      add\n        /* \"#utility.yul\":28692:28739   */\n      mstore\n        /* \"#utility.yul\":28756:28887   */\n      tag_686\n        /* \"#utility.yul\":28882:28886   */\n      dup2\n        /* \"#utility.yul\":28756:28887   */\n      tag_420\n      jump\t// in\n    tag_686:\n        /* \"#utility.yul\":28748:28887   */\n      swap1\n      pop\n        /* \"#utility.yul\":28475:28894   */\n      swap2\n      swap1\n      pop\n      jump\t// out\n        /* \"#utility.yul\":28900:29080   */\n    tag_226:\n        /* \"#utility.yul\":28948:29025   */\n      0x4e487b7100000000000000000000000000000000000000000000000000000000\n        /* \"#utility.yul\":28945:28946   */\n      0x00\n        /* \"#utility.yul\":28938:29026   */\n      mstore\n        /* \"#utility.yul\":29045:29049   */\n      0x32\n        /* \"#utility.yul\":29042:29043   */\n      0x04\n        /* \"#utility.yul\":29035:29050   */\n      mstore\n        /* \"#utility.yul\":29069:29073   */\n      0x24\n        /* \"#utility.yul\":29066:29067   */\n      0x00\n        /* \"#utility.yul\":29059:29074   */\n      revert\n        /* \"#utility.yul\":29086:29262   */\n    tag_421:\n        /* \"#utility.yul\":29226:29254   */\n      0x566f74696e672073657373696f6e206e6f742073746172746564000000000000\n        /* \"#utility.yul\":29222:29223   */\n      0x00\n        /* \"#utility.yul\":29214:29220   */\n      dup3\n        /* \"#utility.yul\":29210:29224   */\n      add\n        /* \"#utility.yul\":29203:29255   */\n      mstore\n        /* \"#utility.yul\":29086:29262   */\n      pop\n      jump\t// out\n        /* \"#utility.yul\":29268:29634   */\n    tag_422:\n        /* \"#utility.yul\":29410:29413   */\n      0x00\n        /* \"#utility.yul\":29431:29498   */\n      tag_690\n        /* \"#utility.yul\":29495:29497   */\n      0x1a\n        /* \"#utility.yul\":29490:29493   */\n      dup4\n        /* \"#utility.yul\":29431:29498   */\n      tag_387\n      jump\t// in\n    tag_690:\n        /* \"#utility.yul\":29424:29498   */\n      swap2\n      pop\n        /* \"#utility.yul\":29507:29600   */\n      tag_691\n        /* \"#utility.yul\":29596:29599   */\n      dup3\n        /* \"#utility.yul\":29507:29600   */\n      tag_421\n      jump\t// in\n    tag_691:\n        /* \"#utility.yul\":29625:29627   */\n      0x20\n        /* \"#utility.yul\":29620:29623   */\n      dup3\n        /* \"#utility.yul\":29616:29628   */\n      add\n        /* \"#utility.yul\":29609:29628   */\n      swap1\n      pop\n        /* \"#utility.yul\":29268:29634   */\n      swap2\n      swap1\n      pop\n      jump\t// out\n        /* \"#utility.yul\":29640:30059   */\n    tag_246:\n        /* \"#utility.yul\":29806:29810   */\n      0x00\n        /* \"#utility.yul\":29844:29846   */\n      0x20\n        /* \"#utility.yul\":29833:29842   */\n      dup3\n        /* \"#utility.yul\":29829:29847   */\n      add\n        /* \"#utility.yul\":29821:29847   */\n      swap1\n      pop\n        /* \"#utility.yul\":29893:29902   */\n      dup2\n        /* \"#utility.yul\":29887:29891   */\n      dup2\n        /* \"#utility.yul\":29883:29903   */\n      sub\n        /* \"#utility.yul\":29879:29880   */\n      0x00\n        /* \"#utility.yul\":29868:29877   */\n      dup4\n        /* \"#utility.yul\":29864:29881   */\n      add\n        /* \"#utility.yul\":29857:29904   */\n      mstore\n        /* \"#utility.yul\":29921:30052   */\n      tag_693\n        /* \"#utility.yul\":30047:30051   */\n      dup2\n        /* \"#utility.yul\":29921:30052   */\n      tag_422\n      jump\t// in\n    tag_693:\n        /* \"#utility.yul\":29913:30052   */\n      swap1\n      pop\n        /* \"#utility.yul\":29640:30059   */\n      swap2\n      swap1\n      pop\n      jump\t// out\n        /* \"#utility.yul\":30065:30243   */\n    tag_423:\n        /* \"#utility.yul\":30205:30235   */\n      0x726567697374726174696f6e20646964206e6f74207374617274656400000000\n        /* \"#utility.yul\":30201:30202   */\n      0x00\n        /* \"#utility.yul\":30193:30199   */\n      dup3\n        /* \"#utility.yul\":30189:30203   */\n      add\n        /* \"#utility.yul\":30182:30236   */\n      mstore\n        /* \"#utility.yul\":30065:30243   */\n      pop\n      jump\t// out\n        /* \"#utility.yul\":30249:30615   */\n    tag_424:\n        /* \"#utility.yul\":30391:30394   */\n      0x00\n        /* \"#utility.yul\":30412:30479   */\n      tag_696\n        /* \"#utility.yul\":30476:30478   */\n      0x1c\n        /* \"#utility.yul\":30471:30474   */\n      dup4\n        /* \"#utility.yul\":30412:30479   */\n      tag_387\n      jump\t// in\n    tag_696:\n        /* \"#utility.yul\":30405:30479   */\n      swap2\n      pop\n        /* \"#utility.yul\":30488:30581   */\n      tag_697\n        /* \"#utility.yul\":30577:30580   */\n      dup3\n        /* \"#utility.yul\":30488:30581   */\n      tag_423\n      jump\t// in\n    tag_697:\n        /* \"#utility.yul\":30606:30608   */\n      0x20\n        /* \"#utility.yul\":30601:30604   */\n      dup3\n        /* \"#utility.yul\":30597:30609   */\n      add\n        /* \"#utility.yul\":30590:30609   */\n      swap1\n      pop\n        /* \"#utility.yul\":30249:30615   */\n      swap2\n      swap1\n      pop\n      jump\t// out\n        /* \"#utility.yul\":30621:31040   */\n    tag_262:\n        /* \"#utility.yul\":30787:30791   */\n      0x00\n        /* \"#utility.yul\":30825:30827   */\n      0x20\n        /* \"#utility.yul\":30814:30823   */\n      dup3\n        /* \"#utility.yul\":30810:30828   */\n      add\n        /* \"#utility.yul\":30802:30828   */\n      swap1\n      pop\n        /* \"#utility.yul\":30874:30883   */\n      dup2\n        /* \"#utility.yul\":30868:30872   */\n      dup2\n        /* \"#utility.yul\":30864:30884   */\n      sub\n        /* \"#utility.yul\":30860:30861   */\n      0x00\n        /* \"#utility.yul\":30849:30858   */\n      dup4\n        /* \"#utility.yul\":30845:30862   */\n      add\n        /* \"#utility.yul\":30838:30885   */\n      mstore\n        /* \"#utility.yul\":30902:31033   */\n      tag_699\n        /* \"#utility.yul\":31028:31032   */\n      dup2\n        /* \"#utility.yul\":30902:31033   */\n      tag_424\n      jump\t// in\n    tag_699:\n        /* \"#utility.yul\":30894:31033   */\n      swap1\n      pop\n        /* \"#utility.yul\":30621:31040   */\n      swap2\n      swap1\n      pop\n      jump\t// out\n        /* \"#utility.yul\":31046:31215   */\n    tag_425:\n        /* \"#utility.yul\":31186:31207   */\n      0x496e76616c69642070726f706f73616c20496400000000000000000000000000\n        /* \"#utility.yul\":31182:31183   */\n      0x00\n        /* \"#utility.yul\":31174:31180   */\n      dup3\n        /* \"#utility.yul\":31170:31184   */\n      add\n        /* \"#utility.yul\":31163:31208   */\n      mstore\n        /* \"#utility.yul\":31046:31215   */\n      pop\n      jump\t// out\n        /* \"#utility.yul\":31221:31587   */\n    tag_426:\n        /* \"#utility.yul\":31363:31366   */\n      0x00\n        /* \"#utility.yul\":31384:31451   */\n      tag_702\n        /* \"#utility.yul\":31448:31450   */\n      0x13\n        /* \"#utility.yul\":31443:31446   */\n      dup4\n        /* \"#utility.yul\":31384:31451   */\n      tag_387\n      jump\t// in\n    tag_702:\n        /* \"#utility.yul\":31377:31451   */\n      swap2\n      pop\n        /* \"#utility.yul\":31460:31553   */\n      tag_703\n        /* \"#utility.yul\":31549:31552   */\n      dup3\n        /* \"#utility.yul\":31460:31553   */\n      tag_425\n      jump\t// in\n    tag_703:\n        /* \"#utility.yul\":31578:31580   */\n      0x20\n        /* \"#utility.yul\":31573:31576   */\n      dup3\n        /* \"#utility.yul\":31569:31581   */\n      add\n        /* \"#utility.yul\":31562:31581   */\n      swap1\n      pop\n        /* \"#utility.yul\":31221:31587   */\n      swap2\n      swap1\n      pop\n      jump\t// out\n        /* \"#utility.yul\":31593:32012   */\n    tag_265:\n        /* \"#utility.yul\":31759:31763   */\n      0x00\n        /* \"#utility.yul\":31797:31799   */\n      0x20\n        /* \"#utility.yul\":31786:31795   */\n      dup3\n        /* \"#utility.yul\":31782:31800   */\n      add\n        /* \"#utility.yul\":31774:31800   */\n      swap1\n      pop\n        /* \"#utility.yul\":31846:31855   */\n      dup2\n        /* \"#utility.yul\":31840:31844   */\n      dup2\n        /* \"#utility.yul\":31836:31856   */\n      sub\n        /* \"#utility.yul\":31832:31833   */\n      0x00\n        /* \"#utility.yul\":31821:31830   */\n      dup4\n        /* \"#utility.yul\":31817:31834   */\n      add\n        /* \"#utility.yul\":31810:31857   */\n      mstore\n        /* \"#utility.yul\":31874:32005   */\n      tag_705\n        /* \"#utility.yul\":32000:32004   */\n      dup2\n        /* \"#utility.yul\":31874:32005   */\n      tag_426\n      jump\t// in\n    tag_705:\n        /* \"#utility.yul\":31866:32005   */\n      swap1\n      pop\n        /* \"#utility.yul\":31593:32012   */\n      swap2\n      swap1\n      pop\n      jump\t// out\n        /* \"#utility.yul\":32018:32252   */\n    tag_427:\n        /* \"#utility.yul\":32158:32192   */\n      0x596f7520617265206e6f74207265676973746572656420746f20766f74652066\n        /* \"#utility.yul\":32154:32155   */\n      0x00\n        /* \"#utility.yul\":32146:32152   */\n      dup3\n        /* \"#utility.yul\":32142:32156   */\n      add\n        /* \"#utility.yul\":32135:32193   */\n      mstore\n        /* \"#utility.yul\":32227:32244   */\n      0x6f7220746869732073657373696f6e0000000000000000000000000000000000\n        /* \"#utility.yul\":32222:32224   */\n      0x20\n        /* \"#utility.yul\":32214:32220   */\n      dup3\n        /* \"#utility.yul\":32210:32225   */\n      add\n        /* \"#utility.yul\":32203:32245   */\n      mstore\n        /* \"#utility.yul\":32018:32252   */\n      pop\n      jump\t// out\n        /* \"#utility.yul\":32258:32624   */\n    tag_428:\n        /* \"#utility.yul\":32400:32403   */\n      0x00\n        /* \"#utility.yul\":32421:32488   */\n      tag_708\n        /* \"#utility.yul\":32485:32487   */\n      0x2f\n        /* \"#utility.yul\":32480:32483   */\n      dup4\n        /* \"#utility.yul\":32421:32488   */\n      tag_387\n      jump\t// in\n    tag_708:\n        /* \"#utility.yul\":32414:32488   */\n      swap2\n      pop\n        /* \"#utility.yul\":32497:32590   */\n      tag_709\n        /* \"#utility.yul\":32586:32589   */\n      dup3\n        /* \"#utility.yul\":32497:32590   */\n      tag_427\n      jump\t// in\n    tag_709:\n        /* \"#utility.yul\":32615:32617   */\n      0x40\n        /* \"#utility.yul\":32610:32613   */\n      dup3\n        /* \"#utility.yul\":32606:32618   */\n      add\n        /* \"#utility.yul\":32599:32618   */\n      swap1\n      pop\n        /* \"#utility.yul\":32258:32624   */\n      swap2\n      swap1\n      pop\n      jump\t// out\n        /* \"#utility.yul\":32630:33049   */\n    tag_268:\n        /* \"#utility.yul\":32796:32800   */\n      0x00\n        /* \"#utility.yul\":32834:32836   */\n      0x20\n        /* \"#utility.yul\":32823:32832   */\n      dup3\n        /* \"#utility.yul\":32819:32837   */\n      add\n        /* \"#utility.yul\":32811:32837   */\n      swap1\n      pop\n        /* \"#utility.yul\":32883:32892   */\n      dup2\n        /* \"#utility.yul\":32877:32881   */\n      dup2\n        /* \"#utility.yul\":32873:32893   */\n      sub\n        /* \"#utility.yul\":32869:32870   */\n      0x00\n        /* \"#utility.yul\":32858:32867   */\n      dup4\n        /* \"#utility.yul\":32854:32871   */\n      add\n        /* \"#utility.yul\":32847:32894   */\n      mstore\n        /* \"#utility.yul\":32911:33042   */\n      tag_711\n        /* \"#utility.yul\":33037:33041   */\n      dup2\n        /* \"#utility.yul\":32911:33042   */\n      tag_428\n      jump\t// in\n    tag_711:\n        /* \"#utility.yul\":32903:33042   */\n      swap1\n      pop\n        /* \"#utility.yul\":32630:33049   */\n      swap2\n      swap1\n      pop\n      jump\t// out\n        /* \"#utility.yul\":33055:33249   */\n    tag_270:\n        /* \"#utility.yul\":33095:33099   */\n      0x00\n        /* \"#utility.yul\":33115:33135   */\n      tag_713\n        /* \"#utility.yul\":33133:33134   */\n      dup3\n        /* \"#utility.yul\":33115:33135   */\n      tag_344\n      jump\t// in\n    tag_713:\n        /* \"#utility.yul\":33110:33135   */\n      swap2\n      pop\n        /* \"#utility.yul\":33149:33169   */\n      tag_714\n        /* \"#utility.yul\":33167:33168   */\n      dup4\n        /* \"#utility.yul\":33149:33169   */\n      tag_344\n      jump\t// in\n    tag_714:\n        /* \"#utility.yul\":33144:33169   */\n      swap3\n      pop\n        /* \"#utility.yul\":33193:33194   */\n      dup3\n        /* \"#utility.yul\":33190:33191   */\n      dup3\n        /* \"#utility.yul\":33186:33195   */\n      sub\n        /* \"#utility.yul\":33178:33195   */\n      swap1\n      pop\n        /* \"#utility.yul\":33217:33218   */\n      dup2\n        /* \"#utility.yul\":33211:33215   */\n      dup2\n        /* \"#utility.yul\":33208:33219   */\n      gt\n        /* \"#utility.yul\":33205:33242   */\n      iszero\n      tag_715\n      jumpi\n        /* \"#utility.yul\":33222:33240   */\n      tag_716\n      tag_385\n      jump\t// in\n    tag_716:\n        /* \"#utility.yul\":33205:33242   */\n    tag_715:\n        /* \"#utility.yul\":33055:33249   */\n      swap3\n      swap2\n      pop\n      pop\n      jump\t// out\n        /* \"#utility.yul\":33255:33481   */\n    tag_429:\n        /* \"#utility.yul\":33395:33429   */\n      0x596f75206861766520616c726561647920766f74656420666f72207468697320\n        /* \"#utility.yul\":33391:33392   */\n      0x00\n        /* \"#utility.yul\":33383:33389   */\n      dup3\n        /* \"#utility.yul\":33379:33393   */\n      add\n        /* \"#utility.yul\":33372:33430   */\n      mstore\n        /* \"#utility.yul\":33464:33473   */\n      0x73657373696f6e00000000000000000000000000000000000000000000000000\n        /* \"#utility.yul\":33459:33461   */\n      0x20\n        /* \"#utility.yul\":33451:33457   */\n      dup3\n        /* \"#utility.yul\":33447:33462   */\n      add\n        /* \"#utility.yul\":33440:33474   */\n      mstore\n        /* \"#utility.yul\":33255:33481   */\n      pop\n      jump\t// out\n        /* \"#utility.yul\":33487:33853   */\n    tag_430:\n        /* \"#utility.yul\":33629:33632   */\n      0x00\n        /* \"#utility.yul\":33650:33717   */\n      tag_719\n        /* \"#utility.yul\":33714:33716   */\n      0x27\n        /* \"#utility.yul\":33709:33712   */\n      dup4\n        /* \"#utility.yul\":33650:33717   */\n      tag_387\n      jump\t// in\n    tag_719:\n        /* \"#utility.yul\":33643:33717   */\n      swap2\n      pop\n        /* \"#utility.yul\":33726:33819   */\n      tag_720\n        /* \"#utility.yul\":33815:33818   */\n      dup3\n        /* \"#utility.yul\":33726:33819   */\n      tag_429\n      jump\t// in\n    tag_720:\n        /* \"#utility.yul\":33844:33846   */\n      0x40\n        /* \"#utility.yul\":33839:33842   */\n      dup3\n        /* \"#utility.yul\":33835:33847   */\n      add\n        /* \"#utility.yul\":33828:33847   */\n      swap1\n      pop\n        /* \"#utility.yul\":33487:33853   */\n      swap2\n      swap1\n      pop\n      jump\t// out\n        /* \"#utility.yul\":33859:34278   */\n    tag_276:\n        /* \"#utility.yul\":34025:34029   */\n      0x00\n        /* \"#utility.yul\":34063:34065   */\n      0x20\n        /* \"#utility.yul\":34052:34061   */\n      dup3\n        /* \"#utility.yul\":34048:34066   */\n      add\n        /* \"#utility.yul\":34040:34066   */\n      swap1\n      pop\n        /* \"#utility.yul\":34112:34121   */\n      dup2\n        /* \"#utility.yul\":34106:34110   */\n      dup2\n        /* \"#utility.yul\":34102:34122   */\n      sub\n        /* \"#utility.yul\":34098:34099   */\n      0x00\n        /* \"#utility.yul\":34087:34096   */\n      dup4\n        /* \"#utility.yul\":34083:34100   */\n      add\n        /* \"#utility.yul\":34076:34123   */\n      mstore\n        /* \"#utility.yul\":34140:34271   */\n      tag_722\n        /* \"#utility.yul\":34266:34270   */\n      dup2\n        /* \"#utility.yul\":34140:34271   */\n      tag_430\n      jump\t// in\n    tag_722:\n        /* \"#utility.yul\":34132:34271   */\n      swap1\n      pop\n        /* \"#utility.yul\":33859:34278   */\n      swap2\n      swap1\n      pop\n      jump\t// out\n        /* \"#utility.yul\":34284:34616   */\n    tag_283:\n        /* \"#utility.yul\":34405:34409   */\n      0x00\n        /* \"#utility.yul\":34443:34445   */\n      0x40\n        /* \"#utility.yul\":34432:34441   */\n      dup3\n        /* \"#utility.yul\":34428:34446   */\n      add\n        /* \"#utility.yul\":34420:34446   */\n      swap1\n      pop\n        /* \"#utility.yul\":34456:34527   */\n      tag_724\n        /* \"#utility.yul\":34524:34525   */\n      0x00\n        /* \"#utility.yul\":34513:34522   */\n      dup4\n        /* \"#utility.yul\":34509:34526   */\n      add\n        /* \"#utility.yul\":34500:34506   */\n      dup6\n        /* \"#utility.yul\":34456:34527   */\n      tag_382\n      jump\t// in\n    tag_724:\n        /* \"#utility.yul\":34537:34609   */\n      tag_725\n        /* \"#utility.yul\":34605:34607   */\n      0x20\n        /* \"#utility.yul\":34594:34603   */\n      dup4\n        /* \"#utility.yul\":34590:34608   */\n      add\n        /* \"#utility.yul\":34581:34587   */\n      dup5\n        /* \"#utility.yul\":34537:34609   */\n      tag_351\n      jump\t// in\n    tag_725:\n        /* \"#utility.yul\":34284:34616   */\n      swap4\n      swap3\n      pop\n      pop\n      pop\n      jump\t// out\n        /* \"#utility.yul\":34622:34804   */\n    tag_431:\n        /* \"#utility.yul\":34762:34796   */\n      0x50726f706f73616c7320726567697374726174696f6e206e6f7420656e646564\n        /* \"#utility.yul\":34758:34759   */\n      0x00\n        /* \"#utility.yul\":34750:34756   */\n      dup3\n        /* \"#utility.yul\":34746:34760   */\n      add\n        /* \"#utility.yul\":34739:34797   */\n      mstore\n        /* \"#utility.yul\":34622:34804   */\n      pop\n      jump\t// out\n        /* \"#utility.yul\":34810:35176   */\n    tag_432:\n        /* \"#utility.yul\":34952:34955   */\n      0x00\n        /* \"#utility.yul\":34973:35040   */\n      tag_728\n        /* \"#utility.yul\":35037:35039   */\n      0x20\n        /* \"#utility.yul\":35032:35035   */\n      dup4\n        /* \"#utility.yul\":34973:35040   */\n      tag_387\n      jump\t// in\n    tag_728:\n        /* \"#utility.yul\":34966:35040   */\n      swap2\n      pop\n        /* \"#utility.yul\":35049:35142   */\n      tag_729\n        /* \"#utility.yul\":35138:35141   */\n      dup3\n        /* \"#utility.yul\":35049:35142   */\n      tag_431\n      jump\t// in\n    tag_729:\n        /* \"#utility.yul\":35167:35169   */\n      0x20\n        /* \"#utility.yul\":35162:35165   */\n      dup3\n        /* \"#utility.yul\":35158:35170   */\n      add\n        /* \"#utility.yul\":35151:35170   */\n      swap1\n      pop\n        /* \"#utility.yul\":34810:35176   */\n      swap2\n      swap1\n      pop\n      jump\t// out\n        /* \"#utility.yul\":35182:35601   */\n    tag_309:\n        /* \"#utility.yul\":35348:35352   */\n      0x00\n        /* \"#utility.yul\":35386:35388   */\n      0x20\n        /* \"#utility.yul\":35375:35384   */\n      dup3\n        /* \"#utility.yul\":35371:35389   */\n      add\n        /* \"#utility.yul\":35363:35389   */\n      swap1\n      pop\n        /* \"#utility.yul\":35435:35444   */\n      dup2\n        /* \"#utility.yul\":35429:35433   */\n      dup2\n        /* \"#utility.yul\":35425:35445   */\n      sub\n        /* \"#utility.yul\":35421:35422   */\n      0x00\n        /* \"#utility.yul\":35410:35419   */\n      dup4\n        /* \"#utility.yul\":35406:35423   */\n      add\n        /* \"#utility.yul\":35399:35446   */\n      mstore\n        /* \"#utility.yul\":35463:35594   */\n      tag_731\n        /* \"#utility.yul\":35589:35593   */\n      dup2\n        /* \"#utility.yul\":35463:35594   */\n      tag_432\n      jump\t// in\n    tag_731:\n        /* \"#utility.yul\":35455:35594   */\n      swap1\n      pop\n        /* \"#utility.yul\":35182:35601   */\n      swap2\n      swap1\n      pop\n      jump\t// out\n\n    auxdata: 0xa264697066735822122095fb0835339c583febd2777302696e3b74bd0652d183c0fb7448568e7604513f64736f6c634300081e0033\n}\n",
				"bytecode": {
					"linkReferences": {},
					"object": "608060405234801561000f575f5ffd5b50335f73ffffffffffffffffffffffffffffffffffffffff168173ffffffffffffffffffffffffffffffffffffffff1603610081575f6040517f1e4fbdf70000000000000000000000000000000000000000000000000000000081526004016100789190610196565b60405180910390fd5b6100908161009660201b60201c565b506101af565b5f5f5f9054906101000a900473ffffffffffffffffffffffffffffffffffffffff169050815f5f6101000a81548173ffffffffffffffffffffffffffffffffffffffff021916908373ffffffffffffffffffffffffffffffffffffffff1602179055508173ffffffffffffffffffffffffffffffffffffffff168173ffffffffffffffffffffffffffffffffffffffff167f8be0079c531659141344cd1fd0a4f28419497f9722a3daafe3b4186f6b6457e060405160405180910390a35050565b5f73ffffffffffffffffffffffffffffffffffffffff82169050919050565b5f61018082610157565b9050919050565b61019081610176565b82525050565b5f6020820190506101a95f830184610187565b92915050565b6129f4806101bc5f395ff3fe608060405234801561000f575f5ffd5b506004361061012a575f3560e01c8063895d0faf116100ab578063c8f5714e1161006f578063c8f5714e146102bd578063e09b8c79146102d9578063ee74c678146102e3578063f2fde38b146102ed578063f38d3af8146103095761012a565b8063895d0faf1461023d5780638da5cb5b146102475780639bdfef3014610265578063a3ec138d14610283578063a7bfab16146102b35761012a565b806358fb94ec116100f257806358fb94ec146101bf578063640be567146101ef5780636c2974451461020d578063715018a6146102175780637ed17751146102215761012a565b80630a936e3a1461012e5780631186eb7c146101385780631401795f1461016957806338db6dd31461018757806345bf58fd146101a3575b5f5ffd5b610136610339565b005b610152600480360381019061014d9190611904565b6103cf565b6040516101609291906119b1565b60405180910390f35b6101716103fb565b60405161017e9190611bbb565b60405180910390f35b6101a1600480360381019061019c9190611c35565b610568565b005b6101bd60048036038101906101b89190611d8c565b610702565b005b6101d960048036038101906101d49190611904565b6109ac565b6040516101e69190611bbb565b60405180910390f35b6101f7610b19565b6040516102049190611e56565b60405180910390f35b610215610b31565b005b61021f610c1c565b005b61023b60048036038101906102369190611c35565b610c2f565b005b610245610dc7565b005b61024f610f74565b60405161025c9190611e85565b60405180910390f35b61026d610f9b565b60405161027a9190611e9e565b60405180910390f35b61029d60048036038101906102989190611c35565b610fa1565b6040516102aa9190611ed1565b60405180910390f35b6102bb610fc7565b005b6102d760048036038101906102d29190611904565b6110b2565b005b6102e16113b6565b005b6102eb61149f565b005b61030760048036038101906103029190611c35565b61158a565b005b610323600480360381019061031e9190611904565b61160e565b6040516103309190611e56565b60405180910390f35b610341611721565b60015f81548092919061035390611f17565b91905055505f60035f60015481526020019081526020015f205f015f6101000a81548160ff0219169083600581111561038f5761038e61192f565b5b02179055507fba5b9081592c446fc890c90b94eb1cb2e823c52d85adafb0a116860c7549705a6001546040516103c59190611e9e565b60405180910390a1565b6003602052805f5260405f205f91509050805f015f9054906101000a900460ff16908060010154905082565b610403611870565b60035f60015481526020019081526020015f206040518060600160405290815f82015f9054906101000a900460ff1660058111156104445761044361192f565b5b60058111156104565761045561192f565b5b81526020016001820154815260200160028201805480602002602001604051908101604052809291908181526020015f905b8282101561055b578382905f5260205f2090600302016040518060600160405290815f82015481526020016001820180546104c290611f8b565b80601f01602080910402602001604051908101604052809291908181526020018280546104ee90611f8b565b80156105395780601f1061051057610100808354040283529160200191610539565b820191905f5260205f20905b81548152906001019060200180831161051c57829003601f168201915b5050505050815260200160028201548152505081526020019060010190610488565b5050505081525050905090565b610570611721565b5f6105796103fb565b90505f600581111561058e5761058d61192f565b5b815f015160058111156105a4576105a361192f565b5b146105e4576040517f08c379a00000000000000000000000000000000000000000000000000000000081526004016105db9061203b565b60405180910390fd5b60045f8373ffffffffffffffffffffffffffffffffffffffff1673ffffffffffffffffffffffffffffffffffffffff1681526020019081526020015f205f015f9054906101000a900460ff1615610670576040517f08c379a0000000000000000000000000000000000000000000000000000000008152600401610667906120a3565b60405180910390fd5b600160045f8473ffffffffffffffffffffffffffffffffffffffff1673ffffffffffffffffffffffffffffffffffffffff1681526020019081526020015f205f015f6101000a81548160ff0219169083151502179055507fb6be2187d059cc2a55fe29e0e503b566e1e0f8c8780096e185429350acffd3dd826040516106f69190611e85565b60405180910390a15050565b60045f3373ffffffffffffffffffffffffffffffffffffffff1673ffffffffffffffffffffffffffffffffffffffff1681526020019081526020015f205f015f9054906101000a900460ff1661078d576040517f08c379a00000000000000000000000000000000000000000000000000000000081526004016107849061210b565b60405180910390fd5b5f8151116107d0576040517f08c379a00000000000000000000000000000000000000000000000000000000081526004016107c790612173565b60405180910390fd5b60045f3373ffffffffffffffffffffffffffffffffffffffff1673ffffffffffffffffffffffffffffffffffffffff1681526020019081526020015f205f015f9054906101000a900460ff1661085b576040517f08c379a00000000000000000000000000000000000000000000000000000000081526004016108529061210b565b60405180910390fd5b5f60035f60015481526020019081526020015f209050600160058111156108855761088461192f565b5b815f015f9054906101000a900460ff1660058111156108a7576108a661192f565b5b146108e7576040517f08c379a00000000000000000000000000000000000000000000000000000000081526004016108de90612201565b60405180910390fd5b80600201604051806060016040528060025481526020018481526020015f815250908060018154018082558091505060019003905f5260205f2090600302015f909190919091505f820151815f0155602082015181600101908161094b91906123bf565b506040820151816002015550507f92e393e9b54e2f801d3ea4beb0c5e71a21cc34a5d34b77d0fb8a3aa1650dc18f6002546040516109899190611e9e565b60405180910390a160025f8154809291906109a390611f17565b91905055505050565b6109b4611870565b60035f8381526020019081526020015f206040518060600160405290815f82015f9054906101000a900460ff1660058111156109f3576109f261192f565b5b6005811115610a0557610a0461192f565b5b81526020016001820154815260200160028201805480602002602001604051908101604052809291908181526020015f905b82821015610b0a578382905f5260205f2090600302016040518060600160405290815f8201548152602001600182018054610a7190611f8b565b80601f0160208091040260200160405190810160405280929190818152602001828054610a9d90611f8b565b8015610ae85780601f10610abf57610100808354040283529160200191610ae8565b820191905f5260205f20905b815481529060010190602001808311610acb57829003601f168201915b5050505050815260200160028201548152505081526020019060010190610a37565b50505050815250509050919050565b60605f610b246103fb565b9050806040015191505090565b610b39611721565b5f610b426103fb565b905060016005811115610b5857610b5761192f565b5b815f01516005811115610b6e57610b6d61192f565b5b14610bae576040517f08c379a0000000000000000000000000000000000000000000000000000000008152600401610ba5906124fe565b60405180910390fd5b6002815f01906005811115610bc657610bc561192f565b5b90816005811115610bda57610bd961192f565b5b815250507f0a97a4ee45751e2abf3e4fc8946939630b11b371ea8ae39ccdc3056e98f5cc3f60016002604051610c1192919061251c565b60405180910390a150565b610c24611721565b610c2d5f6117a8565b565b610c37611721565b5f610c406103fb565b90505f6005811115610c5557610c5461192f565b5b815f01516005811115610c6b57610c6a61192f565b5b14610cab576040517f08c379a0000000000000000000000000000000000000000000000000000000008152600401610ca29061203b565b60405180910390fd5b60045f8373ffffffffffffffffffffffffffffffffffffffff1673ffffffffffffffffffffffffffffffffffffffff1681526020019081526020015f205f015f9054906101000a900460ff16610d36576040517f08c379a0000000000000000000000000000000000000000000000000000000008152600401610d2d9061258d565b60405180910390fd5b5f60045f8473ffffffffffffffffffffffffffffffffffffffff1673ffffffffffffffffffffffffffffffffffffffff1681526020019081526020015f205f015f6101000a81548160ff0219169083151502179055507f25fc2460244a2fff1d6879302ea1d6f3e684e599d76c012a22e42d5bb61cc5d782604051610dbb9190611e85565b60405180910390a15050565b5f610dd06103fb565b905060046005811115610de657610de561192f565b5b815f01516005811115610dfc57610dfb61192f565b5b14610e3c576040517f08c379a0000000000000000000000000000000000000000000000000000000008152600401610e33906125f5565b60405180910390fd5b5f81604001515111610e83576040517f08c379a0000000000000000000000000000000000000000000000000000000008152600401610e7a9061265d565b60405180910390fd5b610e8b6118a1565b5f826040015190505f5f90505b8151811015610ef6578260400151828281518110610eb957610eb861267b565b5b6020026020010151604001511115610ee957818181518110610ede57610edd61267b565b5b602002602001015192505b8080600101915050610e98565b50815f01518360200181815250506005835f01906005811115610f1c57610f1b61192f565b5b90816005811115610f3057610f2f61192f565b5b815250507f0a97a4ee45751e2abf3e4fc8946939630b11b371ea8ae39ccdc3056e98f5cc3f60046005604051610f6792919061251c565b60405180910390a1505050565b5f5f5f9054906101000a900473ffffffffffffffffffffffffffffffffffffffff16905090565b60015481565b6004602052805f5260405f205f91509050805f015f9054906101000a900460ff16905081565b610fcf611721565b5f610fd86103fb565b905060036005811115610fee57610fed61192f565b5b815f015160058111156110045761100361192f565b5b14611044576040517f08c379a000000000000000000000000000000000000000000000000000000000815260040161103b906126f2565b60405180910390fd5b6004815f0190600581111561105c5761105b61192f565b5b908160058111156110705761106f61192f565b5b815250507f0a97a4ee45751e2abf3e4fc8946939630b11b371ea8ae39ccdc3056e98f5cc3f600360046040516110a792919061251c565b60405180910390a150565b60045f3373ffffffffffffffffffffffffffffffffffffffff1673ffffffffffffffffffffffffffffffffffffffff1681526020019081526020015f205f015f9054906101000a900460ff1661113d576040517f08c379a00000000000000000000000000000000000000000000000000000000081526004016111349061210b565b60405180910390fd5b5f60035f60015481526020019081526020015f209050600360058111156111675761116661192f565b5b815f015f9054906101000a900460ff1660058111156111895761118861192f565b5b146111c9576040517f08c379a00000000000000000000000000000000000000000000000000000000081526004016111c09061275a565b60405180910390fd5b80600201805490508210611212576040517f08c379a0000000000000000000000000000000000000000000000000000000008152600401611209906127c2565b60405180910390fd5b5f60045f3373ffffffffffffffffffffffffffffffffffffffff1673ffffffffffffffffffffffffffffffffffffffff1681526020019081526020015f209050805f015f9054906101000a900460ff166112a1576040517f08c379a000000000000000000000000000000000000000000000000000000000815260040161129890612850565b60405180910390fd5b60015481600101600183600101805490506112bc919061286e565b815481106112cd576112cc61267b565b5b905f5260205f20015403611316576040517f08c379a000000000000000000000000000000000000000000000000000000000815260040161130d90612911565b60405180910390fd5b8060020183908060018154018082558091505060019003905f5260205f20015f90919091909150558160020183815481106113545761135361267b565b5b905f5260205f2090600302016002015f81548092919061137390611f17565b91905055507f4d99b957a2bc29a30ebd96a7be8e68fe50a3c701db28a91436490b7d53870ca433846040516113a992919061292f565b60405180910390a1505050565b6113be611721565b5f6113c76103fb565b90505f60058111156113dc576113db61192f565b5b815f015160058111156113f2576113f161192f565b5b14611432576040517f08c379a000000000000000000000000000000000000000000000000000000000815260040161142990612201565b60405180910390fd5b6001815f0190600581111561144a5761144961192f565b5b9081600581111561145e5761145d61192f565b5b815250507f0a97a4ee45751e2abf3e4fc8946939630b11b371ea8ae39ccdc3056e98f5cc3f5f600160405161149492919061251c565b60405180910390a150565b6114a7611721565b5f6114b06103fb565b9050600260058111156114c6576114c561192f565b5b815f015160058111156114dc576114db61192f565b5b1461151c576040517f08c379a0000000000000000000000000000000000000000000000000000000008152600401611513906129a0565b60405180910390fd5b6003815f019060058111156115345761153361192f565b5b908160058111156115485761154761192f565b5b815250507f0a97a4ee45751e2abf3e4fc8946939630b11b371ea8ae39ccdc3056e98f5cc3f6002600360405161157f92919061251c565b60405180910390a150565b611592611721565b5f73ffffffffffffffffffffffffffffffffffffffff168173ffffffffffffffffffffffffffffffffffffffff1603611602575f6040517f1e4fbdf70000000000000000000000000000000000000000000000000000000081526004016115f99190611e85565b60405180910390fd5b61160b816117a8565b50565b606060035f8381526020019081526020015f20600201805480602002602001604051908101604052809291908181526020015f905b82821015611716578382905f5260205f2090600302016040518060600160405290815f820154815260200160018201805461167d90611f8b565b80601f01602080910402602001604051908101604052809291908181526020018280546116a990611f8b565b80156116f45780601f106116cb576101008083540402835291602001916116f4565b820191905f5260205f20905b8154815290600101906020018083116116d757829003601f168201915b5050505050815260200160028201548152505081526020019060010190611643565b505050509050919050565b611729611869565b73ffffffffffffffffffffffffffffffffffffffff16611747610f74565b73ffffffffffffffffffffffffffffffffffffffff16146117a65761176a611869565b6040517f118cdaa700000000000000000000000000000000000000000000000000000000815260040161179d9190611e85565b60405180910390fd5b565b5f5f5f9054906101000a900473ffffffffffffffffffffffffffffffffffffffff169050815f5f6101000a81548173ffffffffffffffffffffffffffffffffffffffff021916908373ffffffffffffffffffffffffffffffffffffffff1602179055508173ffffffffffffffffffffffffffffffffffffffff168173ffffffffffffffffffffffffffffffffffffffff167f8be0079c531659141344cd1fd0a4f28419497f9722a3daafe3b4186f6b6457e060405160405180910390a35050565b5f33905090565b60405180606001604052805f600581111561188e5761188d61192f565b5b81526020015f8152602001606081525090565b60405180606001604052805f8152602001606081526020015f81525090565b5f604051905090565b5f5ffd5b5f5ffd5b5f819050919050565b6118e3816118d1565b81146118ed575f5ffd5b50565b5f813590506118fe816118da565b92915050565b5f60208284031215611919576119186118c9565b5b5f611926848285016118f0565b91505092915050565b7f4e487b71000000000000000000000000000000000000000000000000000000005f52602160045260245ffd5b6006811061196d5761196c61192f565b5b50565b5f81905061197d8261195c565b919050565b5f61198c82611970565b9050919050565b61199c81611982565b82525050565b6119ab816118d1565b82525050565b5f6040820190506119c45f830185611993565b6119d160208301846119a2565b9392505050565b6119e181611982565b82525050565b6119f0816118d1565b82525050565b5f81519050919050565b5f82825260208201905092915050565b5f819050602082019050919050565b5f81519050919050565b5f82825260208201905092915050565b8281835e5f83830152505050565b5f601f19601f8301169050919050565b5f611a6182611a1f565b611a6b8185611a29565b9350611a7b818560208601611a39565b611a8481611a47565b840191505092915050565b5f606083015f830151611aa45f8601826119e7565b5060208301518482036020860152611abc8282611a57565b9150506040830151611ad160408601826119e7565b508091505092915050565b5f611ae78383611a8f565b905092915050565b5f602082019050919050565b5f611b05826119f6565b611b0f8185611a00565b935083602082028501611b2185611a10565b805f5b85811015611b5c5784840389528151611b3d8582611adc565b9450611b4883611aef565b925060208a01995050600181019050611b24565b50829750879550505050505092915050565b5f606083015f830151611b835f8601826119d8565b506020830151611b9660208601826119e7565b5060408301518482036040860152611bae8282611afb565b9150508091505092915050565b5f6020820190508181035f830152611bd38184611b6e565b905092915050565b5f73ffffffffffffffffffffffffffffffffffffffff82169050919050565b5f611c0482611bdb565b9050919050565b611c1481611bfa565b8114611c1e575f5ffd5b50565b5f81359050611c2f81611c0b565b92915050565b5f60208284031215611c4a57611c496118c9565b5b5f611c5784828501611c21565b91505092915050565b5f5ffd5b5f5ffd5b7f4e487b71000000000000000000000000000000000000000000000000000000005f52604160045260245ffd5b611c9e82611a47565b810181811067ffffffffffffffff82111715611cbd57611cbc611c68565b5b80604052505050565b5f611ccf6118c0565b9050611cdb8282611c95565b919050565b5f67ffffffffffffffff821115611cfa57611cf9611c68565b5b611d0382611a47565b9050602081019050919050565b828183375f83830152505050565b5f611d30611d2b84611ce0565b611cc6565b905082815260208101848484011115611d4c57611d4b611c64565b5b611d57848285611d10565b509392505050565b5f82601f830112611d7357611d72611c60565b5b8135611d83848260208601611d1e565b91505092915050565b5f60208284031215611da157611da06118c9565b5b5f82013567ffffffffffffffff811115611dbe57611dbd6118cd565b5b611dca84828501611d5f565b91505092915050565b5f82825260208201905092915050565b5f611ded826119f6565b611df78185611dd3565b935083602082028501611e0985611a10565b805f5b85811015611e445784840389528151611e258582611adc565b9450611e3083611aef565b925060208a01995050600181019050611e0c565b50829750879550505050505092915050565b5f6020820190508181035f830152611e6e8184611de3565b905092915050565b611e7f81611bfa565b82525050565b5f602082019050611e985f830184611e76565b92915050565b5f602082019050611eb15f8301846119a2565b92915050565b5f8115159050919050565b611ecb81611eb7565b82525050565b5f602082019050611ee45f830184611ec2565b92915050565b7f4e487b71000000000000000000000000000000000000000000000000000000005f52601160045260245ffd5b5f611f21826118d1565b91507fffffffffffffffffffffffffffffffffffffffffffffffffffffffffffffffff8203611f5357611f52611eea565b5b600182019050919050565b7f4e487b71000000000000000000000000000000000000000000000000000000005f52602260045260245ffd5b5f6002820490506001821680611fa257607f821691505b602082108103611fb557611fb4611f5e565b5b50919050565b5f82825260208201905092915050565b7f526567697374726174696f6e206e6f74207374617274656420666f72207468695f8201527f732073657373696f6e0000000000000000000000000000000000000000000000602082015250565b5f612025602983611fbb565b915061203082611fcb565b604082019050919050565b5f6020820190508181035f83015261205281612019565b9050919050565b7f566f74657220697320616c7265616479207265676973746572656400000000005f82015250565b5f61208d601b83611fbb565b915061209882612059565b602082019050919050565b5f6020820190508181035f8301526120ba81612081565b9050919050565b7f596f7520617265206e6f742072656769737465726564000000000000000000005f82015250565b5f6120f5601683611fbb565b9150612100826120c1565b602082019050919050565b5f6020820190508181035f830152612122816120e9565b9050919050565b7f50726f706f73616c206465736372697074696f6e2069732072657175697265645f82015250565b5f61215d602083611fbb565b915061216882612129565b602082019050919050565b5f6020820190508181035f83015261218a81612151565b9050919050565b7f50726f706f73616c73206e6f74207374617274656420666f72207468697320735f8201527f657373696f6e0000000000000000000000000000000000000000000000000000602082015250565b5f6121eb602683611fbb565b91506121f682612191565b604082019050919050565b5f6020820190508181035f830152612218816121df565b9050919050565b5f819050815f5260205f209050919050565b5f6020601f8301049050919050565b5f82821b905092915050565b5f6008830261227b7fffffffffffffffffffffffffffffffffffffffffffffffffffffffffffffffff82612240565b6122858683612240565b95508019841693508086168417925050509392505050565b5f819050919050565b5f6122c06122bb6122b6846118d1565b61229d565b6118d1565b9050919050565b5f819050919050565b6122d9836122a6565b6122ed6122e5826122c7565b84845461224c565b825550505050565b5f5f905090565b6123046122f5565b61230f8184846122d0565b505050565b5b81811015612332576123275f826122fc565b600181019050612315565b5050565b601f821115612377576123488161221f565b61235184612231565b81016020851015612360578190505b61237461236c85612231565b830182612314565b50505b505050565b5f82821c905092915050565b5f6123975f198460080261237c565b1980831691505092915050565b5f6123af8383612388565b9150826002028217905092915050565b6123c882611a1f565b67ffffffffffffffff8111156123e1576123e0611c68565b5b6123eb8254611f8b565b6123f6828285612336565b5f60209050601f831160018114612427575f8415612415578287015190505b61241f85826123a4565b865550612486565b601f1984166124358661221f565b5f5b8281101561245c57848901518255600182019150602085019450602081019050612437565b868310156124795784890151612475601f891682612388565b8355505b6001600288020188555050505b505050505050565b7f50726f706f73616c7320726567697374726174696f6e206e6f742073746172745f8201527f656420666f7220746869732073657373696f6e00000000000000000000000000602082015250565b5f6124e8603383611fbb565b91506124f38261248e565b604082019050919050565b5f6020820190508181035f830152612515816124dc565b9050919050565b5f60408201905061252f5f830185611993565b61253c6020830184611993565b9392505050565b7f566f74657220697320616c726561647920756e726567697374657265640000005f82015250565b5f612577601d83611fbb565b915061258282612543565b602082019050919050565b5f6020820190508181035f8301526125a48161256b565b9050919050565b7f566f74696e672073657373696f6e206e6f7420656e64656400000000000000005f82015250565b5f6125df601883611fbb565b91506125ea826125ab565b602082019050919050565b5f6020820190508181035f83015261260c816125d3565b9050919050565b7f546869732073657373696f6e20686173206e6f2070726f706f73616c730000005f82015250565b5f612647601d83611fbb565b915061265282612613565b602082019050919050565b5f6020820190508181035f8301526126748161263b565b9050919050565b7f4e487b71000000000000000000000000000000000000000000000000000000005f52603260045260245ffd5b7f566f74696e672073657373696f6e206e6f7420737461727465640000000000005f82015250565b5f6126dc601a83611fbb565b91506126e7826126a8565b602082019050919050565b5f6020820190508181035f830152612709816126d0565b9050919050565b7f726567697374726174696f6e20646964206e6f742073746172746564000000005f82015250565b5f612744601c83611fbb565b915061274f82612710565b602082019050919050565b5f6020820190508181035f83015261277181612738565b9050919050565b7f496e76616c69642070726f706f73616c204964000000000000000000000000005f82015250565b5f6127ac601383611fbb565b91506127b782612778565b602082019050919050565b5f6020820190508181035f8301526127d9816127a0565b9050919050565b7f596f7520617265206e6f74207265676973746572656420746f20766f746520665f8201527f6f7220746869732073657373696f6e0000000000000000000000000000000000602082015250565b5f61283a602f83611fbb565b9150612845826127e0565b604082019050919050565b5f6020820190508181035f8301526128678161282e565b9050919050565b5f612878826118d1565b9150612883836118d1565b925082820390508181111561289b5761289a611eea565b5b92915050565b7f596f75206861766520616c726561647920766f74656420666f722074686973205f8201527f73657373696f6e00000000000000000000000000000000000000000000000000602082015250565b5f6128fb602783611fbb565b9150612906826128a1565b604082019050919050565b5f6020820190508181035f830152612928816128ef565b9050919050565b5f6040820190506129425f830185611e76565b61294f60208301846119a2565b9392505050565b7f50726f706f73616c7320726567697374726174696f6e206e6f7420656e6465645f82015250565b5f61298a602083611fbb565b915061299582612956565b602082019050919050565b5f6020820190508181035f8301526129b78161297e565b905091905056fea264697066735822122095fb0835339c583febd2777302696e3b74bd0652d183c0fb7448568e7604513f64736f6c634300081e0033",
					"opcodes": "PUSH1 0x80 PUSH1 0x40 MSTORE CALLVALUE DUP1 ISZERO PUSH2 0xF JUMPI PUSH0 PUSH0 REVERT JUMPDEST POP CALLER PUSH0 PUSH20 0xFFFFFFFFFFFFFFFFFFFFFFFFFFFFFFFFFFFFFFFF AND DUP2 PUSH20 0xFFFFFFFFFFFFFFFFFFFFFFFFFFFFFFFFFFFFFFFF AND SUB PUSH2 0x81 JUMPI PUSH0 PUSH1 0x40 MLOAD PUSH32 0x1E4FBDF700000000000000000000000000000000000000000000000000000000 DUP2 MSTORE PUSH1 0x4 ADD PUSH2 0x78 SWAP2 SWAP1 PUSH2 0x196 JUMP JUMPDEST PUSH1 0x40 MLOAD DUP1 SWAP2 SUB SWAP1 REVERT JUMPDEST PUSH2 0x90 DUP2 PUSH2 0x96 PUSH1 0x20 SHL PUSH1 0x20 SHR JUMP JUMPDEST POP PUSH2 0x1AF JUMP JUMPDEST PUSH0 PUSH0 PUSH0 SWAP1 SLOAD SWAP1 PUSH2 0x100 EXP SWAP1 DIV PUSH20 0xFFFFFFFFFFFFFFFFFFFFFFFFFFFFFFFFFFFFFFFF AND SWAP1 POP DUP2 PUSH0 PUSH0 PUSH2 0x100 EXP DUP2 SLOAD DUP2 PUSH20 0xFFFFFFFFFFFFFFFFFFFFFFFFFFFFFFFFFFFFFFFF MUL NOT AND SWAP1 DUP4 PUSH20 0xFFFFFFFFFFFFFFFFFFFFFFFFFFFFFFFFFFFFFFFF AND MUL OR SWAP1 SSTORE POP DUP2 PUSH20 0xFFFFFFFFFFFFFFFFFFFFFFFFFFFFFFFFFFFFFFFF AND DUP2 PUSH20 0xFFFFFFFFFFFFFFFFFFFFFFFFFFFFFFFFFFFFFFFF AND PUSH32 0x8BE0079C531659141344CD1FD0A4F28419497F9722A3DAAFE3B4186F6B6457E0 PUSH1 0x40 MLOAD PUSH1 0x40 MLOAD DUP1 SWAP2 SUB SWAP1 LOG3 POP POP JUMP JUMPDEST PUSH0 PUSH20 0xFFFFFFFFFFFFFFFFFFFFFFFFFFFFFFFFFFFFFFFF DUP3 AND SWAP1 POP SWAP2 SWAP1 POP JUMP JUMPDEST PUSH0 PUSH2 0x180 DUP3 PUSH2 0x157 JUMP JUMPDEST SWAP1 POP SWAP2 SWAP1 POP JUMP JUMPDEST PUSH2 0x190 DUP2 PUSH2 0x176 JUMP JUMPDEST DUP3 MSTORE POP POP JUMP JUMPDEST PUSH0 PUSH1 0x20 DUP3 ADD SWAP1 POP PUSH2 0x1A9 PUSH0 DUP4 ADD DUP5 PUSH2 0x187 JUMP JUMPDEST SWAP3 SWAP2 POP POP JUMP JUMPDEST PUSH2 0x29F4 DUP1 PUSH2 0x1BC PUSH0 CODECOPY PUSH0 RETURN INVALID PUSH1 0x80 PUSH1 0x40 MSTORE CALLVALUE DUP1 ISZERO PUSH2 0xF JUMPI PUSH0 PUSH0 REVERT JUMPDEST POP PUSH1 0x4 CALLDATASIZE LT PUSH2 0x12A JUMPI PUSH0 CALLDATALOAD PUSH1 0xE0 SHR DUP1 PUSH4 0x895D0FAF GT PUSH2 0xAB JUMPI DUP1 PUSH4 0xC8F5714E GT PUSH2 0x6F JUMPI DUP1 PUSH4 0xC8F5714E EQ PUSH2 0x2BD JUMPI DUP1 PUSH4 0xE09B8C79 EQ PUSH2 0x2D9 JUMPI DUP1 PUSH4 0xEE74C678 EQ PUSH2 0x2E3 JUMPI DUP1 PUSH4 0xF2FDE38B EQ PUSH2 0x2ED JUMPI DUP1 PUSH4 0xF38D3AF8 EQ PUSH2 0x309 JUMPI PUSH2 0x12A JUMP JUMPDEST DUP1 PUSH4 0x895D0FAF EQ PUSH2 0x23D JUMPI DUP1 PUSH4 0x8DA5CB5B EQ PUSH2 0x247 JUMPI DUP1 PUSH4 0x9BDFEF30 EQ PUSH2 0x265 JUMPI DUP1 PUSH4 0xA3EC138D EQ PUSH2 0x283 JUMPI DUP1 PUSH4 0xA7BFAB16 EQ PUSH2 0x2B3 JUMPI PUSH2 0x12A JUMP JUMPDEST DUP1 PUSH4 0x58FB94EC GT PUSH2 0xF2 JUMPI DUP1 PUSH4 0x58FB94EC EQ PUSH2 0x1BF JUMPI DUP1 PUSH4 0x640BE567 EQ PUSH2 0x1EF JUMPI DUP1 PUSH4 0x6C297445 EQ PUSH2 0x20D JUMPI DUP1 PUSH4 0x715018A6 EQ PUSH2 0x217 JUMPI DUP1 PUSH4 0x7ED17751 EQ PUSH2 0x221 JUMPI PUSH2 0x12A JUMP JUMPDEST DUP1 PUSH4 0xA936E3A EQ PUSH2 0x12E JUMPI DUP1 PUSH4 0x1186EB7C EQ PUSH2 0x138 JUMPI DUP1 PUSH4 0x1401795F EQ PUSH2 0x169 JUMPI DUP1 PUSH4 0x38DB6DD3 EQ PUSH2 0x187 JUMPI DUP1 PUSH4 0x45BF58FD EQ PUSH2 0x1A3 JUMPI JUMPDEST PUSH0 PUSH0 REVERT JUMPDEST PUSH2 0x136 PUSH2 0x339 JUMP JUMPDEST STOP JUMPDEST PUSH2 0x152 PUSH1 0x4 DUP1 CALLDATASIZE SUB DUP2 ADD SWAP1 PUSH2 0x14D SWAP2 SWAP1 PUSH2 0x1904 JUMP JUMPDEST PUSH2 0x3CF JUMP JUMPDEST PUSH1 0x40 MLOAD PUSH2 0x160 SWAP3 SWAP2 SWAP1 PUSH2 0x19B1 JUMP JUMPDEST PUSH1 0x40 MLOAD DUP1 SWAP2 SUB SWAP1 RETURN JUMPDEST PUSH2 0x171 PUSH2 0x3FB JUMP JUMPDEST PUSH1 0x40 MLOAD PUSH2 0x17E SWAP2 SWAP1 PUSH2 0x1BBB JUMP JUMPDEST PUSH1 0x40 MLOAD DUP1 SWAP2 SUB SWAP1 RETURN JUMPDEST PUSH2 0x1A1 PUSH1 0x4 DUP1 CALLDATASIZE SUB DUP2 ADD SWAP1 PUSH2 0x19C SWAP2 SWAP1 PUSH2 0x1C35 JUMP JUMPDEST PUSH2 0x568 JUMP JUMPDEST STOP JUMPDEST PUSH2 0x1BD PUSH1 0x4 DUP1 CALLDATASIZE SUB DUP2 ADD SWAP1 PUSH2 0x1B8 SWAP2 SWAP1 PUSH2 0x1D8C JUMP JUMPDEST PUSH2 0x702 JUMP JUMPDEST STOP JUMPDEST PUSH2 0x1D9 PUSH1 0x4 DUP1 CALLDATASIZE SUB DUP2 ADD SWAP1 PUSH2 0x1D4 SWAP2 SWAP1 PUSH2 0x1904 JUMP JUMPDEST PUSH2 0x9AC JUMP JUMPDEST PUSH1 0x40 MLOAD PUSH2 0x1E6 SWAP2 SWAP1 PUSH2 0x1BBB JUMP JUMPDEST PUSH1 0x40 MLOAD DUP1 SWAP2 SUB SWAP1 RETURN JUMPDEST PUSH2 0x1F7 PUSH2 0xB19 JUMP JUMPDEST PUSH1 0x40 MLOAD PUSH2 0x204 SWAP2 SWAP1 PUSH2 0x1E56 JUMP JUMPDEST PUSH1 0x40 MLOAD DUP1 SWAP2 SUB SWAP1 RETURN JUMPDEST PUSH2 0x215 PUSH2 0xB31 JUMP JUMPDEST STOP JUMPDEST PUSH2 0x21F PUSH2 0xC1C JUMP JUMPDEST STOP JUMPDEST PUSH2 0x23B PUSH1 0x4 DUP1 CALLDATASIZE SUB DUP2 ADD SWAP1 PUSH2 0x236 SWAP2 SWAP1 PUSH2 0x1C35 JUMP JUMPDEST PUSH2 0xC2F JUMP JUMPDEST STOP JUMPDEST PUSH2 0x245 PUSH2 0xDC7 JUMP JUMPDEST STOP JUMPDEST PUSH2 0x24F PUSH2 0xF74 JUMP JUMPDEST PUSH1 0x40 MLOAD PUSH2 0x25C SWAP2 SWAP1 PUSH2 0x1E85 JUMP JUMPDEST PUSH1 0x40 MLOAD DUP1 SWAP2 SUB SWAP1 RETURN JUMPDEST PUSH2 0x26D PUSH2 0xF9B JUMP JUMPDEST PUSH1 0x40 MLOAD PUSH2 0x27A SWAP2 SWAP1 PUSH2 0x1E9E JUMP JUMPDEST PUSH1 0x40 MLOAD DUP1 SWAP2 SUB SWAP1 RETURN JUMPDEST PUSH2 0x29D PUSH1 0x4 DUP1 CALLDATASIZE SUB DUP2 ADD SWAP1 PUSH2 0x298 SWAP2 SWAP1 PUSH2 0x1C35 JUMP JUMPDEST PUSH2 0xFA1 JUMP JUMPDEST PUSH1 0x40 MLOAD PUSH2 0x2AA SWAP2 SWAP1 PUSH2 0x1ED1 JUMP JUMPDEST PUSH1 0x40 MLOAD DUP1 SWAP2 SUB SWAP1 RETURN JUMPDEST PUSH2 0x2BB PUSH2 0xFC7 JUMP JUMPDEST STOP JUMPDEST PUSH2 0x2D7 PUSH1 0x4 DUP1 CALLDATASIZE SUB DUP2 ADD SWAP1 PUSH2 0x2D2 SWAP2 SWAP1 PUSH2 0x1904 JUMP JUMPDEST PUSH2 0x10B2 JUMP JUMPDEST STOP JUMPDEST PUSH2 0x2E1 PUSH2 0x13B6 JUMP JUMPDEST STOP JUMPDEST PUSH2 0x2EB PUSH2 0x149F JUMP JUMPDEST STOP JUMPDEST PUSH2 0x307 PUSH1 0x4 DUP1 CALLDATASIZE SUB DUP2 ADD SWAP1 PUSH2 0x302 SWAP2 SWAP1 PUSH2 0x1C35 JUMP JUMPDEST PUSH2 0x158A JUMP JUMPDEST STOP JUMPDEST PUSH2 0x323 PUSH1 0x4 DUP1 CALLDATASIZE SUB DUP2 ADD SWAP1 PUSH2 0x31E SWAP2 SWAP1 PUSH2 0x1904 JUMP JUMPDEST PUSH2 0x160E JUMP JUMPDEST PUSH1 0x40 MLOAD PUSH2 0x330 SWAP2 SWAP1 PUSH2 0x1E56 JUMP JUMPDEST PUSH1 0x40 MLOAD DUP1 SWAP2 SUB SWAP1 RETURN JUMPDEST PUSH2 0x341 PUSH2 0x1721 JUMP JUMPDEST PUSH1 0x1 PUSH0 DUP2 SLOAD DUP1 SWAP3 SWAP2 SWAP1 PUSH2 0x353 SWAP1 PUSH2 0x1F17 JUMP JUMPDEST SWAP2 SWAP1 POP SSTORE POP PUSH0 PUSH1 0x3 PUSH0 PUSH1 0x1 SLOAD DUP2 MSTORE PUSH1 0x20 ADD SWAP1 DUP2 MSTORE PUSH1 0x20 ADD PUSH0 KECCAK256 PUSH0 ADD PUSH0 PUSH2 0x100 EXP DUP2 SLOAD DUP2 PUSH1 0xFF MUL NOT AND SWAP1 DUP4 PUSH1 0x5 DUP2 GT ISZERO PUSH2 0x38F JUMPI PUSH2 0x38E PUSH2 0x192F JUMP JUMPDEST JUMPDEST MUL OR SWAP1 SSTORE POP PUSH32 0xBA5B9081592C446FC890C90B94EB1CB2E823C52D85ADAFB0A116860C7549705A PUSH1 0x1 SLOAD PUSH1 0x40 MLOAD PUSH2 0x3C5 SWAP2 SWAP1 PUSH2 0x1E9E JUMP JUMPDEST PUSH1 0x40 MLOAD DUP1 SWAP2 SUB SWAP1 LOG1 JUMP JUMPDEST PUSH1 0x3 PUSH1 0x20 MSTORE DUP1 PUSH0 MSTORE PUSH1 0x40 PUSH0 KECCAK256 PUSH0 SWAP2 POP SWAP1 POP DUP1 PUSH0 ADD PUSH0 SWAP1 SLOAD SWAP1 PUSH2 0x100 EXP SWAP1 DIV PUSH1 0xFF AND SWAP1 DUP1 PUSH1 0x1 ADD SLOAD SWAP1 POP DUP3 JUMP JUMPDEST PUSH2 0x403 PUSH2 0x1870 JUMP JUMPDEST PUSH1 0x3 PUSH0 PUSH1 0x1 SLOAD DUP2 MSTORE PUSH1 0x20 ADD SWAP1 DUP2 MSTORE PUSH1 0x20 ADD PUSH0 KECCAK256 PUSH1 0x40 MLOAD DUP1 PUSH1 0x60 ADD PUSH1 0x40 MSTORE SWAP1 DUP2 PUSH0 DUP3 ADD PUSH0 SWAP1 SLOAD SWAP1 PUSH2 0x100 EXP SWAP1 DIV PUSH1 0xFF AND PUSH1 0x5 DUP2 GT ISZERO PUSH2 0x444 JUMPI PUSH2 0x443 PUSH2 0x192F JUMP JUMPDEST JUMPDEST PUSH1 0x5 DUP2 GT ISZERO PUSH2 0x456 JUMPI PUSH2 0x455 PUSH2 0x192F JUMP JUMPDEST JUMPDEST DUP2 MSTORE PUSH1 0x20 ADD PUSH1 0x1 DUP3 ADD SLOAD DUP2 MSTORE PUSH1 0x20 ADD PUSH1 0x2 DUP3 ADD DUP1 SLOAD DUP1 PUSH1 0x20 MUL PUSH1 0x20 ADD PUSH1 0x40 MLOAD SWAP1 DUP2 ADD PUSH1 0x40 MSTORE DUP1 SWAP3 SWAP2 SWAP1 DUP2 DUP2 MSTORE PUSH1 0x20 ADD PUSH0 SWAP1 JUMPDEST DUP3 DUP3 LT ISZERO PUSH2 0x55B JUMPI DUP4 DUP3 SWAP1 PUSH0 MSTORE PUSH1 0x20 PUSH0 KECCAK256 SWAP1 PUSH1 0x3 MUL ADD PUSH1 0x40 MLOAD DUP1 PUSH1 0x60 ADD PUSH1 0x40 MSTORE SWAP1 DUP2 PUSH0 DUP3 ADD SLOAD DUP2 MSTORE PUSH1 0x20 ADD PUSH1 0x1 DUP3 ADD DUP1 SLOAD PUSH2 0x4C2 SWAP1 PUSH2 0x1F8B JUMP JUMPDEST DUP1 PUSH1 0x1F ADD PUSH1 0x20 DUP1 SWAP2 DIV MUL PUSH1 0x20 ADD PUSH1 0x40 MLOAD SWAP1 DUP2 ADD PUSH1 0x40 MSTORE DUP1 SWAP3 SWAP2 SWAP1 DUP2 DUP2 MSTORE PUSH1 0x20 ADD DUP3 DUP1 SLOAD PUSH2 0x4EE SWAP1 PUSH2 0x1F8B JUMP JUMPDEST DUP1 ISZERO PUSH2 0x539 JUMPI DUP1 PUSH1 0x1F LT PUSH2 0x510 JUMPI PUSH2 0x100 DUP1 DUP4 SLOAD DIV MUL DUP4 MSTORE SWAP2 PUSH1 0x20 ADD SWAP2 PUSH2 0x539 JUMP JUMPDEST DUP3 ADD SWAP2 SWAP1 PUSH0 MSTORE PUSH1 0x20 PUSH0 KECCAK256 SWAP1 JUMPDEST DUP2 SLOAD DUP2 MSTORE SWAP1 PUSH1 0x1 ADD SWAP1 PUSH1 0x20 ADD DUP1 DUP4 GT PUSH2 0x51C JUMPI DUP3 SWAP1 SUB PUSH1 0x1F AND DUP3 ADD SWAP2 JUMPDEST POP POP POP POP POP DUP2 MSTORE PUSH1 0x20 ADD PUSH1 0x2 DUP3 ADD SLOAD DUP2 MSTORE POP POP DUP2 MSTORE PUSH1 0x20 ADD SWAP1 PUSH1 0x1 ADD SWAP1 PUSH2 0x488 JUMP JUMPDEST POP POP POP POP DUP2 MSTORE POP POP SWAP1 POP SWAP1 JUMP JUMPDEST PUSH2 0x570 PUSH2 0x1721 JUMP JUMPDEST PUSH0 PUSH2 0x579 PUSH2 0x3FB JUMP JUMPDEST SWAP1 POP PUSH0 PUSH1 0x5 DUP2 GT ISZERO PUSH2 0x58E JUMPI PUSH2 0x58D PUSH2 0x192F JUMP JUMPDEST JUMPDEST DUP2 PUSH0 ADD MLOAD PUSH1 0x5 DUP2 GT ISZERO PUSH2 0x5A4 JUMPI PUSH2 0x5A3 PUSH2 0x192F JUMP JUMPDEST JUMPDEST EQ PUSH2 0x5E4 JUMPI PUSH1 0x40 MLOAD PUSH32 0x8C379A000000000000000000000000000000000000000000000000000000000 DUP2 MSTORE PUSH1 0x4 ADD PUSH2 0x5DB SWAP1 PUSH2 0x203B JUMP JUMPDEST PUSH1 0x40 MLOAD DUP1 SWAP2 SUB SWAP1 REVERT JUMPDEST PUSH1 0x4 PUSH0 DUP4 PUSH20 0xFFFFFFFFFFFFFFFFFFFFFFFFFFFFFFFFFFFFFFFF AND PUSH20 0xFFFFFFFFFFFFFFFFFFFFFFFFFFFFFFFFFFFFFFFF AND DUP2 MSTORE PUSH1 0x20 ADD SWAP1 DUP2 MSTORE PUSH1 0x20 ADD PUSH0 KECCAK256 PUSH0 ADD PUSH0 SWAP1 SLOAD SWAP1 PUSH2 0x100 EXP SWAP1 DIV PUSH1 0xFF AND ISZERO PUSH2 0x670 JUMPI PUSH1 0x40 MLOAD PUSH32 0x8C379A000000000000000000000000000000000000000000000000000000000 DUP2 MSTORE PUSH1 0x4 ADD PUSH2 0x667 SWAP1 PUSH2 0x20A3 JUMP JUMPDEST PUSH1 0x40 MLOAD DUP1 SWAP2 SUB SWAP1 REVERT JUMPDEST PUSH1 0x1 PUSH1 0x4 PUSH0 DUP5 PUSH20 0xFFFFFFFFFFFFFFFFFFFFFFFFFFFFFFFFFFFFFFFF AND PUSH20 0xFFFFFFFFFFFFFFFFFFFFFFFFFFFFFFFFFFFFFFFF AND DUP2 MSTORE PUSH1 0x20 ADD SWAP1 DUP2 MSTORE PUSH1 0x20 ADD PUSH0 KECCAK256 PUSH0 ADD PUSH0 PUSH2 0x100 EXP DUP2 SLOAD DUP2 PUSH1 0xFF MUL NOT AND SWAP1 DUP4 ISZERO ISZERO MUL OR SWAP1 SSTORE POP PUSH32 0xB6BE2187D059CC2A55FE29E0E503B566E1E0F8C8780096E185429350ACFFD3DD DUP3 PUSH1 0x40 MLOAD PUSH2 0x6F6 SWAP2 SWAP1 PUSH2 0x1E85 JUMP JUMPDEST PUSH1 0x40 MLOAD DUP1 SWAP2 SUB SWAP1 LOG1 POP POP JUMP JUMPDEST PUSH1 0x4 PUSH0 CALLER PUSH20 0xFFFFFFFFFFFFFFFFFFFFFFFFFFFFFFFFFFFFFFFF AND PUSH20 0xFFFFFFFFFFFFFFFFFFFFFFFFFFFFFFFFFFFFFFFF AND DUP2 MSTORE PUSH1 0x20 ADD SWAP1 DUP2 MSTORE PUSH1 0x20 ADD PUSH0 KECCAK256 PUSH0 ADD PUSH0 SWAP1 SLOAD SWAP1 PUSH2 0x100 EXP SWAP1 DIV PUSH1 0xFF AND PUSH2 0x78D JUMPI PUSH1 0x40 MLOAD PUSH32 0x8C379A000000000000000000000000000000000000000000000000000000000 DUP2 MSTORE PUSH1 0x4 ADD PUSH2 0x784 SWAP1 PUSH2 0x210B JUMP JUMPDEST PUSH1 0x40 MLOAD DUP1 SWAP2 SUB SWAP1 REVERT JUMPDEST PUSH0 DUP2 MLOAD GT PUSH2 0x7D0 JUMPI PUSH1 0x40 MLOAD PUSH32 0x8C379A000000000000000000000000000000000000000000000000000000000 DUP2 MSTORE PUSH1 0x4 ADD PUSH2 0x7C7 SWAP1 PUSH2 0x2173 JUMP JUMPDEST PUSH1 0x40 MLOAD DUP1 SWAP2 SUB SWAP1 REVERT JUMPDEST PUSH1 0x4 PUSH0 CALLER PUSH20 0xFFFFFFFFFFFFFFFFFFFFFFFFFFFFFFFFFFFFFFFF AND PUSH20 0xFFFFFFFFFFFFFFFFFFFFFFFFFFFFFFFFFFFFFFFF AND DUP2 MSTORE PUSH1 0x20 ADD SWAP1 DUP2 MSTORE PUSH1 0x20 ADD PUSH0 KECCAK256 PUSH0 ADD PUSH0 SWAP1 SLOAD SWAP1 PUSH2 0x100 EXP SWAP1 DIV PUSH1 0xFF AND PUSH2 0x85B JUMPI PUSH1 0x40 MLOAD PUSH32 0x8C379A000000000000000000000000000000000000000000000000000000000 DUP2 MSTORE PUSH1 0x4 ADD PUSH2 0x852 SWAP1 PUSH2 0x210B JUMP JUMPDEST PUSH1 0x40 MLOAD DUP1 SWAP2 SUB SWAP1 REVERT JUMPDEST PUSH0 PUSH1 0x3 PUSH0 PUSH1 0x1 SLOAD DUP2 MSTORE PUSH1 0x20 ADD SWAP1 DUP2 MSTORE PUSH1 0x20 ADD PUSH0 KECCAK256 SWAP1 POP PUSH1 0x1 PUSH1 0x5 DUP2 GT ISZERO PUSH2 0x885 JUMPI PUSH2 0x884 PUSH2 0x192F JUMP JUMPDEST JUMPDEST DUP2 PUSH0 ADD PUSH0 SWAP1 SLOAD SWAP1 PUSH2 0x100 EXP SWAP1 DIV PUSH1 0xFF AND PUSH1 0x5 DUP2 GT ISZERO PUSH2 0x8A7 JUMPI PUSH2 0x8A6 PUSH2 0x192F JUMP JUMPDEST JUMPDEST EQ PUSH2 0x8E7 JUMPI PUSH1 0x40 MLOAD PUSH32 0x8C379A000000000000000000000000000000000000000000000000000000000 DUP2 MSTORE PUSH1 0x4 ADD PUSH2 0x8DE SWAP1 PUSH2 0x2201 JUMP JUMPDEST PUSH1 0x40 MLOAD DUP1 SWAP2 SUB SWAP1 REVERT JUMPDEST DUP1 PUSH1 0x2 ADD PUSH1 0x40 MLOAD DUP1 PUSH1 0x60 ADD PUSH1 0x40 MSTORE DUP1 PUSH1 0x2 SLOAD DUP2 MSTORE PUSH1 0x20 ADD DUP5 DUP2 MSTORE PUSH1 0x20 ADD PUSH0 DUP2 MSTORE POP SWAP1 DUP1 PUSH1 0x1 DUP2 SLOAD ADD DUP1 DUP3 SSTORE DUP1 SWAP2 POP POP PUSH1 0x1 SWAP1 SUB SWAP1 PUSH0 MSTORE PUSH1 0x20 PUSH0 KECCAK256 SWAP1 PUSH1 0x3 MUL ADD PUSH0 SWAP1 SWAP2 SWAP1 SWAP2 SWAP1 SWAP2 POP PUSH0 DUP3 ADD MLOAD DUP2 PUSH0 ADD SSTORE PUSH1 0x20 DUP3 ADD MLOAD DUP2 PUSH1 0x1 ADD SWAP1 DUP2 PUSH2 0x94B SWAP2 SWAP1 PUSH2 0x23BF JUMP JUMPDEST POP PUSH1 0x40 DUP3 ADD MLOAD DUP2 PUSH1 0x2 ADD SSTORE POP POP PUSH32 0x92E393E9B54E2F801D3EA4BEB0C5E71A21CC34A5D34B77D0FB8A3AA1650DC18F PUSH1 0x2 SLOAD PUSH1 0x40 MLOAD PUSH2 0x989 SWAP2 SWAP1 PUSH2 0x1E9E JUMP JUMPDEST PUSH1 0x40 MLOAD DUP1 SWAP2 SUB SWAP1 LOG1 PUSH1 0x2 PUSH0 DUP2 SLOAD DUP1 SWAP3 SWAP2 SWAP1 PUSH2 0x9A3 SWAP1 PUSH2 0x1F17 JUMP JUMPDEST SWAP2 SWAP1 POP SSTORE POP POP POP JUMP JUMPDEST PUSH2 0x9B4 PUSH2 0x1870 JUMP JUMPDEST PUSH1 0x3 PUSH0 DUP4 DUP2 MSTORE PUSH1 0x20 ADD SWAP1 DUP2 MSTORE PUSH1 0x20 ADD PUSH0 KECCAK256 PUSH1 0x40 MLOAD DUP1 PUSH1 0x60 ADD PUSH1 0x40 MSTORE SWAP1 DUP2 PUSH0 DUP3 ADD PUSH0 SWAP1 SLOAD SWAP1 PUSH2 0x100 EXP SWAP1 DIV PUSH1 0xFF AND PUSH1 0x5 DUP2 GT ISZERO PUSH2 0x9F3 JUMPI PUSH2 0x9F2 PUSH2 0x192F JUMP JUMPDEST JUMPDEST PUSH1 0x5 DUP2 GT ISZERO PUSH2 0xA05 JUMPI PUSH2 0xA04 PUSH2 0x192F JUMP JUMPDEST JUMPDEST DUP2 MSTORE PUSH1 0x20 ADD PUSH1 0x1 DUP3 ADD SLOAD DUP2 MSTORE PUSH1 0x20 ADD PUSH1 0x2 DUP3 ADD DUP1 SLOAD DUP1 PUSH1 0x20 MUL PUSH1 0x20 ADD PUSH1 0x40 MLOAD SWAP1 DUP2 ADD PUSH1 0x40 MSTORE DUP1 SWAP3 SWAP2 SWAP1 DUP2 DUP2 MSTORE PUSH1 0x20 ADD PUSH0 SWAP1 JUMPDEST DUP3 DUP3 LT ISZERO PUSH2 0xB0A JUMPI DUP4 DUP3 SWAP1 PUSH0 MSTORE PUSH1 0x20 PUSH0 KECCAK256 SWAP1 PUSH1 0x3 MUL ADD PUSH1 0x40 MLOAD DUP1 PUSH1 0x60 ADD PUSH1 0x40 MSTORE SWAP1 DUP2 PUSH0 DUP3 ADD SLOAD DUP2 MSTORE PUSH1 0x20 ADD PUSH1 0x1 DUP3 ADD DUP1 SLOAD PUSH2 0xA71 SWAP1 PUSH2 0x1F8B JUMP JUMPDEST DUP1 PUSH1 0x1F ADD PUSH1 0x20 DUP1 SWAP2 DIV MUL PUSH1 0x20 ADD PUSH1 0x40 MLOAD SWAP1 DUP2 ADD PUSH1 0x40 MSTORE DUP1 SWAP3 SWAP2 SWAP1 DUP2 DUP2 MSTORE PUSH1 0x20 ADD DUP3 DUP1 SLOAD PUSH2 0xA9D SWAP1 PUSH2 0x1F8B JUMP JUMPDEST DUP1 ISZERO PUSH2 0xAE8 JUMPI DUP1 PUSH1 0x1F LT PUSH2 0xABF JUMPI PUSH2 0x100 DUP1 DUP4 SLOAD DIV MUL DUP4 MSTORE SWAP2 PUSH1 0x20 ADD SWAP2 PUSH2 0xAE8 JUMP JUMPDEST DUP3 ADD SWAP2 SWAP1 PUSH0 MSTORE PUSH1 0x20 PUSH0 KECCAK256 SWAP1 JUMPDEST DUP2 SLOAD DUP2 MSTORE SWAP1 PUSH1 0x1 ADD SWAP1 PUSH1 0x20 ADD DUP1 DUP4 GT PUSH2 0xACB JUMPI DUP3 SWAP1 SUB PUSH1 0x1F AND DUP3 ADD SWAP2 JUMPDEST POP POP POP POP POP DUP2 MSTORE PUSH1 0x20 ADD PUSH1 0x2 DUP3 ADD SLOAD DUP2 MSTORE POP POP DUP2 MSTORE PUSH1 0x20 ADD SWAP1 PUSH1 0x1 ADD SWAP1 PUSH2 0xA37 JUMP JUMPDEST POP POP POP POP DUP2 MSTORE POP POP SWAP1 POP SWAP2 SWAP1 POP JUMP JUMPDEST PUSH1 0x60 PUSH0 PUSH2 0xB24 PUSH2 0x3FB JUMP JUMPDEST SWAP1 POP DUP1 PUSH1 0x40 ADD MLOAD SWAP2 POP POP SWAP1 JUMP JUMPDEST PUSH2 0xB39 PUSH2 0x1721 JUMP JUMPDEST PUSH0 PUSH2 0xB42 PUSH2 0x3FB JUMP JUMPDEST SWAP1 POP PUSH1 0x1 PUSH1 0x5 DUP2 GT ISZERO PUSH2 0xB58 JUMPI PUSH2 0xB57 PUSH2 0x192F JUMP JUMPDEST JUMPDEST DUP2 PUSH0 ADD MLOAD PUSH1 0x5 DUP2 GT ISZERO PUSH2 0xB6E JUMPI PUSH2 0xB6D PUSH2 0x192F JUMP JUMPDEST JUMPDEST EQ PUSH2 0xBAE JUMPI PUSH1 0x40 MLOAD PUSH32 0x8C379A000000000000000000000000000000000000000000000000000000000 DUP2 MSTORE PUSH1 0x4 ADD PUSH2 0xBA5 SWAP1 PUSH2 0x24FE JUMP JUMPDEST PUSH1 0x40 MLOAD DUP1 SWAP2 SUB SWAP1 REVERT JUMPDEST PUSH1 0x2 DUP2 PUSH0 ADD SWAP1 PUSH1 0x5 DUP2 GT ISZERO PUSH2 0xBC6 JUMPI PUSH2 0xBC5 PUSH2 0x192F JUMP JUMPDEST JUMPDEST SWAP1 DUP2 PUSH1 0x5 DUP2 GT ISZERO PUSH2 0xBDA JUMPI PUSH2 0xBD9 PUSH2 0x192F JUMP JUMPDEST JUMPDEST DUP2 MSTORE POP POP PUSH32 0xA97A4EE45751E2ABF3E4FC8946939630B11B371EA8AE39CCDC3056E98F5CC3F PUSH1 0x1 PUSH1 0x2 PUSH1 0x40 MLOAD PUSH2 0xC11 SWAP3 SWAP2 SWAP1 PUSH2 0x251C JUMP JUMPDEST PUSH1 0x40 MLOAD DUP1 SWAP2 SUB SWAP1 LOG1 POP JUMP JUMPDEST PUSH2 0xC24 PUSH2 0x1721 JUMP JUMPDEST PUSH2 0xC2D PUSH0 PUSH2 0x17A8 JUMP JUMPDEST JUMP JUMPDEST PUSH2 0xC37 PUSH2 0x1721 JUMP JUMPDEST PUSH0 PUSH2 0xC40 PUSH2 0x3FB JUMP JUMPDEST SWAP1 POP PUSH0 PUSH1 0x5 DUP2 GT ISZERO PUSH2 0xC55 JUMPI PUSH2 0xC54 PUSH2 0x192F JUMP JUMPDEST JUMPDEST DUP2 PUSH0 ADD MLOAD PUSH1 0x5 DUP2 GT ISZERO PUSH2 0xC6B JUMPI PUSH2 0xC6A PUSH2 0x192F JUMP JUMPDEST JUMPDEST EQ PUSH2 0xCAB JUMPI PUSH1 0x40 MLOAD PUSH32 0x8C379A000000000000000000000000000000000000000000000000000000000 DUP2 MSTORE PUSH1 0x4 ADD PUSH2 0xCA2 SWAP1 PUSH2 0x203B JUMP JUMPDEST PUSH1 0x40 MLOAD DUP1 SWAP2 SUB SWAP1 REVERT JUMPDEST PUSH1 0x4 PUSH0 DUP4 PUSH20 0xFFFFFFFFFFFFFFFFFFFFFFFFFFFFFFFFFFFFFFFF AND PUSH20 0xFFFFFFFFFFFFFFFFFFFFFFFFFFFFFFFFFFFFFFFF AND DUP2 MSTORE PUSH1 0x20 ADD SWAP1 DUP2 MSTORE PUSH1 0x20 ADD PUSH0 KECCAK256 PUSH0 ADD PUSH0 SWAP1 SLOAD SWAP1 PUSH2 0x100 EXP SWAP1 DIV PUSH1 0xFF AND PUSH2 0xD36 JUMPI PUSH1 0x40 MLOAD PUSH32 0x8C379A000000000000000000000000000000000000000000000000000000000 DUP2 MSTORE PUSH1 0x4 ADD PUSH2 0xD2D SWAP1 PUSH2 0x258D JUMP JUMPDEST PUSH1 0x40 MLOAD DUP1 SWAP2 SUB SWAP1 REVERT JUMPDEST PUSH0 PUSH1 0x4 PUSH0 DUP5 PUSH20 0xFFFFFFFFFFFFFFFFFFFFFFFFFFFFFFFFFFFFFFFF AND PUSH20 0xFFFFFFFFFFFFFFFFFFFFFFFFFFFFFFFFFFFFFFFF AND DUP2 MSTORE PUSH1 0x20 ADD SWAP1 DUP2 MSTORE PUSH1 0x20 ADD PUSH0 KECCAK256 PUSH0 ADD PUSH0 PUSH2 0x100 EXP DUP2 SLOAD DUP2 PUSH1 0xFF MUL NOT AND SWAP1 DUP4 ISZERO ISZERO MUL OR SWAP1 SSTORE POP PUSH32 0x25FC2460244A2FFF1D6879302EA1D6F3E684E599D76C012A22E42D5BB61CC5D7 DUP3 PUSH1 0x40 MLOAD PUSH2 0xDBB SWAP2 SWAP1 PUSH2 0x1E85 JUMP JUMPDEST PUSH1 0x40 MLOAD DUP1 SWAP2 SUB SWAP1 LOG1 POP POP JUMP JUMPDEST PUSH0 PUSH2 0xDD0 PUSH2 0x3FB JUMP JUMPDEST SWAP1 POP PUSH1 0x4 PUSH1 0x5 DUP2 GT ISZERO PUSH2 0xDE6 JUMPI PUSH2 0xDE5 PUSH2 0x192F JUMP JUMPDEST JUMPDEST DUP2 PUSH0 ADD MLOAD PUSH1 0x5 DUP2 GT ISZERO PUSH2 0xDFC JUMPI PUSH2 0xDFB PUSH2 0x192F JUMP JUMPDEST JUMPDEST EQ PUSH2 0xE3C JUMPI PUSH1 0x40 MLOAD PUSH32 0x8C379A000000000000000000000000000000000000000000000000000000000 DUP2 MSTORE PUSH1 0x4 ADD PUSH2 0xE33 SWAP1 PUSH2 0x25F5 JUMP JUMPDEST PUSH1 0x40 MLOAD DUP1 SWAP2 SUB SWAP1 REVERT JUMPDEST PUSH0 DUP2 PUSH1 0x40 ADD MLOAD MLOAD GT PUSH2 0xE83 JUMPI PUSH1 0x40 MLOAD PUSH32 0x8C379A000000000000000000000000000000000000000000000000000000000 DUP2 MSTORE PUSH1 0x4 ADD PUSH2 0xE7A SWAP1 PUSH2 0x265D JUMP JUMPDEST PUSH1 0x40 MLOAD DUP1 SWAP2 SUB SWAP1 REVERT JUMPDEST PUSH2 0xE8B PUSH2 0x18A1 JUMP JUMPDEST PUSH0 DUP3 PUSH1 0x40 ADD MLOAD SWAP1 POP PUSH0 PUSH0 SWAP1 POP JUMPDEST DUP2 MLOAD DUP2 LT ISZERO PUSH2 0xEF6 JUMPI DUP3 PUSH1 0x40 ADD MLOAD DUP3 DUP3 DUP2 MLOAD DUP2 LT PUSH2 0xEB9 JUMPI PUSH2 0xEB8 PUSH2 0x267B JUMP JUMPDEST JUMPDEST PUSH1 0x20 MUL PUSH1 0x20 ADD ADD MLOAD PUSH1 0x40 ADD MLOAD GT ISZERO PUSH2 0xEE9 JUMPI DUP2 DUP2 DUP2 MLOAD DUP2 LT PUSH2 0xEDE JUMPI PUSH2 0xEDD PUSH2 0x267B JUMP JUMPDEST JUMPDEST PUSH1 0x20 MUL PUSH1 0x20 ADD ADD MLOAD SWAP3 POP JUMPDEST DUP1 DUP1 PUSH1 0x1 ADD SWAP2 POP POP PUSH2 0xE98 JUMP JUMPDEST POP DUP2 PUSH0 ADD MLOAD DUP4 PUSH1 0x20 ADD DUP2 DUP2 MSTORE POP POP PUSH1 0x5 DUP4 PUSH0 ADD SWAP1 PUSH1 0x5 DUP2 GT ISZERO PUSH2 0xF1C JUMPI PUSH2 0xF1B PUSH2 0x192F JUMP JUMPDEST JUMPDEST SWAP1 DUP2 PUSH1 0x5 DUP2 GT ISZERO PUSH2 0xF30 JUMPI PUSH2 0xF2F PUSH2 0x192F JUMP JUMPDEST JUMPDEST DUP2 MSTORE POP POP PUSH32 0xA97A4EE45751E2ABF3E4FC8946939630B11B371EA8AE39CCDC3056E98F5CC3F PUSH1 0x4 PUSH1 0x5 PUSH1 0x40 MLOAD PUSH2 0xF67 SWAP3 SWAP2 SWAP1 PUSH2 0x251C JUMP JUMPDEST PUSH1 0x40 MLOAD DUP1 SWAP2 SUB SWAP1 LOG1 POP POP POP JUMP JUMPDEST PUSH0 PUSH0 PUSH0 SWAP1 SLOAD SWAP1 PUSH2 0x100 EXP SWAP1 DIV PUSH20 0xFFFFFFFFFFFFFFFFFFFFFFFFFFFFFFFFFFFFFFFF AND SWAP1 POP SWAP1 JUMP JUMPDEST PUSH1 0x1 SLOAD DUP2 JUMP JUMPDEST PUSH1 0x4 PUSH1 0x20 MSTORE DUP1 PUSH0 MSTORE PUSH1 0x40 PUSH0 KECCAK256 PUSH0 SWAP2 POP SWAP1 POP DUP1 PUSH0 ADD PUSH0 SWAP1 SLOAD SWAP1 PUSH2 0x100 EXP SWAP1 DIV PUSH1 0xFF AND SWAP1 POP DUP2 JUMP JUMPDEST PUSH2 0xFCF PUSH2 0x1721 JUMP JUMPDEST PUSH0 PUSH2 0xFD8 PUSH2 0x3FB JUMP JUMPDEST SWAP1 POP PUSH1 0x3 PUSH1 0x5 DUP2 GT ISZERO PUSH2 0xFEE JUMPI PUSH2 0xFED PUSH2 0x192F JUMP JUMPDEST JUMPDEST DUP2 PUSH0 ADD MLOAD PUSH1 0x5 DUP2 GT ISZERO PUSH2 0x1004 JUMPI PUSH2 0x1003 PUSH2 0x192F JUMP JUMPDEST JUMPDEST EQ PUSH2 0x1044 JUMPI PUSH1 0x40 MLOAD PUSH32 0x8C379A000000000000000000000000000000000000000000000000000000000 DUP2 MSTORE PUSH1 0x4 ADD PUSH2 0x103B SWAP1 PUSH2 0x26F2 JUMP JUMPDEST PUSH1 0x40 MLOAD DUP1 SWAP2 SUB SWAP1 REVERT JUMPDEST PUSH1 0x4 DUP2 PUSH0 ADD SWAP1 PUSH1 0x5 DUP2 GT ISZERO PUSH2 0x105C JUMPI PUSH2 0x105B PUSH2 0x192F JUMP JUMPDEST JUMPDEST SWAP1 DUP2 PUSH1 0x5 DUP2 GT ISZERO PUSH2 0x1070 JUMPI PUSH2 0x106F PUSH2 0x192F JUMP JUMPDEST JUMPDEST DUP2 MSTORE POP POP PUSH32 0xA97A4EE45751E2ABF3E4FC8946939630B11B371EA8AE39CCDC3056E98F5CC3F PUSH1 0x3 PUSH1 0x4 PUSH1 0x40 MLOAD PUSH2 0x10A7 SWAP3 SWAP2 SWAP1 PUSH2 0x251C JUMP JUMPDEST PUSH1 0x40 MLOAD DUP1 SWAP2 SUB SWAP1 LOG1 POP JUMP JUMPDEST PUSH1 0x4 PUSH0 CALLER PUSH20 0xFFFFFFFFFFFFFFFFFFFFFFFFFFFFFFFFFFFFFFFF AND PUSH20 0xFFFFFFFFFFFFFFFFFFFFFFFFFFFFFFFFFFFFFFFF AND DUP2 MSTORE PUSH1 0x20 ADD SWAP1 DUP2 MSTORE PUSH1 0x20 ADD PUSH0 KECCAK256 PUSH0 ADD PUSH0 SWAP1 SLOAD SWAP1 PUSH2 0x100 EXP SWAP1 DIV PUSH1 0xFF AND PUSH2 0x113D JUMPI PUSH1 0x40 MLOAD PUSH32 0x8C379A000000000000000000000000000000000000000000000000000000000 DUP2 MSTORE PUSH1 0x4 ADD PUSH2 0x1134 SWAP1 PUSH2 0x210B JUMP JUMPDEST PUSH1 0x40 MLOAD DUP1 SWAP2 SUB SWAP1 REVERT JUMPDEST PUSH0 PUSH1 0x3 PUSH0 PUSH1 0x1 SLOAD DUP2 MSTORE PUSH1 0x20 ADD SWAP1 DUP2 MSTORE PUSH1 0x20 ADD PUSH0 KECCAK256 SWAP1 POP PUSH1 0x3 PUSH1 0x5 DUP2 GT ISZERO PUSH2 0x1167 JUMPI PUSH2 0x1166 PUSH2 0x192F JUMP JUMPDEST JUMPDEST DUP2 PUSH0 ADD PUSH0 SWAP1 SLOAD SWAP1 PUSH2 0x100 EXP SWAP1 DIV PUSH1 0xFF AND PUSH1 0x5 DUP2 GT ISZERO PUSH2 0x1189 JUMPI PUSH2 0x1188 PUSH2 0x192F JUMP JUMPDEST JUMPDEST EQ PUSH2 0x11C9 JUMPI PUSH1 0x40 MLOAD PUSH32 0x8C379A000000000000000000000000000000000000000000000000000000000 DUP2 MSTORE PUSH1 0x4 ADD PUSH2 0x11C0 SWAP1 PUSH2 0x275A JUMP JUMPDEST PUSH1 0x40 MLOAD DUP1 SWAP2 SUB SWAP1 REVERT JUMPDEST DUP1 PUSH1 0x2 ADD DUP1 SLOAD SWAP1 POP DUP3 LT PUSH2 0x1212 JUMPI PUSH1 0x40 MLOAD PUSH32 0x8C379A000000000000000000000000000000000000000000000000000000000 DUP2 MSTORE PUSH1 0x4 ADD PUSH2 0x1209 SWAP1 PUSH2 0x27C2 JUMP JUMPDEST PUSH1 0x40 MLOAD DUP1 SWAP2 SUB SWAP1 REVERT JUMPDEST PUSH0 PUSH1 0x4 PUSH0 CALLER PUSH20 0xFFFFFFFFFFFFFFFFFFFFFFFFFFFFFFFFFFFFFFFF AND PUSH20 0xFFFFFFFFFFFFFFFFFFFFFFFFFFFFFFFFFFFFFFFF AND DUP2 MSTORE PUSH1 0x20 ADD SWAP1 DUP2 MSTORE PUSH1 0x20 ADD PUSH0 KECCAK256 SWAP1 POP DUP1 PUSH0 ADD PUSH0 SWAP1 SLOAD SWAP1 PUSH2 0x100 EXP SWAP1 DIV PUSH1 0xFF AND PUSH2 0x12A1 JUMPI PUSH1 0x40 MLOAD PUSH32 0x8C379A000000000000000000000000000000000000000000000000000000000 DUP2 MSTORE PUSH1 0x4 ADD PUSH2 0x1298 SWAP1 PUSH2 0x2850 JUMP JUMPDEST PUSH1 0x40 MLOAD DUP1 SWAP2 SUB SWAP1 REVERT JUMPDEST PUSH1 0x1 SLOAD DUP2 PUSH1 0x1 ADD PUSH1 0x1 DUP4 PUSH1 0x1 ADD DUP1 SLOAD SWAP1 POP PUSH2 0x12BC SWAP2 SWAP1 PUSH2 0x286E JUMP JUMPDEST DUP2 SLOAD DUP2 LT PUSH2 0x12CD JUMPI PUSH2 0x12CC PUSH2 0x267B JUMP JUMPDEST JUMPDEST SWAP1 PUSH0 MSTORE PUSH1 0x20 PUSH0 KECCAK256 ADD SLOAD SUB PUSH2 0x1316 JUMPI PUSH1 0x40 MLOAD PUSH32 0x8C379A000000000000000000000000000000000000000000000000000000000 DUP2 MSTORE PUSH1 0x4 ADD PUSH2 0x130D SWAP1 PUSH2 0x2911 JUMP JUMPDEST PUSH1 0x40 MLOAD DUP1 SWAP2 SUB SWAP1 REVERT JUMPDEST DUP1 PUSH1 0x2 ADD DUP4 SWAP1 DUP1 PUSH1 0x1 DUP2 SLOAD ADD DUP1 DUP3 SSTORE DUP1 SWAP2 POP POP PUSH1 0x1 SWAP1 SUB SWAP1 PUSH0 MSTORE PUSH1 0x20 PUSH0 KECCAK256 ADD PUSH0 SWAP1 SWAP2 SWAP1 SWAP2 SWAP1 SWAP2 POP SSTORE DUP2 PUSH1 0x2 ADD DUP4 DUP2 SLOAD DUP2 LT PUSH2 0x1354 JUMPI PUSH2 0x1353 PUSH2 0x267B JUMP JUMPDEST JUMPDEST SWAP1 PUSH0 MSTORE PUSH1 0x20 PUSH0 KECCAK256 SWAP1 PUSH1 0x3 MUL ADD PUSH1 0x2 ADD PUSH0 DUP2 SLOAD DUP1 SWAP3 SWAP2 SWAP1 PUSH2 0x1373 SWAP1 PUSH2 0x1F17 JUMP JUMPDEST SWAP2 SWAP1 POP SSTORE POP PUSH32 0x4D99B957A2BC29A30EBD96A7BE8E68FE50A3C701DB28A91436490B7D53870CA4 CALLER DUP5 PUSH1 0x40 MLOAD PUSH2 0x13A9 SWAP3 SWAP2 SWAP1 PUSH2 0x292F JUMP JUMPDEST PUSH1 0x40 MLOAD DUP1 SWAP2 SUB SWAP1 LOG1 POP POP POP JUMP JUMPDEST PUSH2 0x13BE PUSH2 0x1721 JUMP JUMPDEST PUSH0 PUSH2 0x13C7 PUSH2 0x3FB JUMP JUMPDEST SWAP1 POP PUSH0 PUSH1 0x5 DUP2 GT ISZERO PUSH2 0x13DC JUMPI PUSH2 0x13DB PUSH2 0x192F JUMP JUMPDEST JUMPDEST DUP2 PUSH0 ADD MLOAD PUSH1 0x5 DUP2 GT ISZERO PUSH2 0x13F2 JUMPI PUSH2 0x13F1 PUSH2 0x192F JUMP JUMPDEST JUMPDEST EQ PUSH2 0x1432 JUMPI PUSH1 0x40 MLOAD PUSH32 0x8C379A000000000000000000000000000000000000000000000000000000000 DUP2 MSTORE PUSH1 0x4 ADD PUSH2 0x1429 SWAP1 PUSH2 0x2201 JUMP JUMPDEST PUSH1 0x40 MLOAD DUP1 SWAP2 SUB SWAP1 REVERT JUMPDEST PUSH1 0x1 DUP2 PUSH0 ADD SWAP1 PUSH1 0x5 DUP2 GT ISZERO PUSH2 0x144A JUMPI PUSH2 0x1449 PUSH2 0x192F JUMP JUMPDEST JUMPDEST SWAP1 DUP2 PUSH1 0x5 DUP2 GT ISZERO PUSH2 0x145E JUMPI PUSH2 0x145D PUSH2 0x192F JUMP JUMPDEST JUMPDEST DUP2 MSTORE POP POP PUSH32 0xA97A4EE45751E2ABF3E4FC8946939630B11B371EA8AE39CCDC3056E98F5CC3F PUSH0 PUSH1 0x1 PUSH1 0x40 MLOAD PUSH2 0x1494 SWAP3 SWAP2 SWAP1 PUSH2 0x251C JUMP JUMPDEST PUSH1 0x40 MLOAD DUP1 SWAP2 SUB SWAP1 LOG1 POP JUMP JUMPDEST PUSH2 0x14A7 PUSH2 0x1721 JUMP JUMPDEST PUSH0 PUSH2 0x14B0 PUSH2 0x3FB JUMP JUMPDEST SWAP1 POP PUSH1 0x2 PUSH1 0x5 DUP2 GT ISZERO PUSH2 0x14C6 JUMPI PUSH2 0x14C5 PUSH2 0x192F JUMP JUMPDEST JUMPDEST DUP2 PUSH0 ADD MLOAD PUSH1 0x5 DUP2 GT ISZERO PUSH2 0x14DC JUMPI PUSH2 0x14DB PUSH2 0x192F JUMP JUMPDEST JUMPDEST EQ PUSH2 0x151C JUMPI PUSH1 0x40 MLOAD PUSH32 0x8C379A000000000000000000000000000000000000000000000000000000000 DUP2 MSTORE PUSH1 0x4 ADD PUSH2 0x1513 SWAP1 PUSH2 0x29A0 JUMP JUMPDEST PUSH1 0x40 MLOAD DUP1 SWAP2 SUB SWAP1 REVERT JUMPDEST PUSH1 0x3 DUP2 PUSH0 ADD SWAP1 PUSH1 0x5 DUP2 GT ISZERO PUSH2 0x1534 JUMPI PUSH2 0x1533 PUSH2 0x192F JUMP JUMPDEST JUMPDEST SWAP1 DUP2 PUSH1 0x5 DUP2 GT ISZERO PUSH2 0x1548 JUMPI PUSH2 0x1547 PUSH2 0x192F JUMP JUMPDEST JUMPDEST DUP2 MSTORE POP POP PUSH32 0xA97A4EE45751E2ABF3E4FC8946939630B11B371EA8AE39CCDC3056E98F5CC3F PUSH1 0x2 PUSH1 0x3 PUSH1 0x40 MLOAD PUSH2 0x157F SWAP3 SWAP2 SWAP1 PUSH2 0x251C JUMP JUMPDEST PUSH1 0x40 MLOAD DUP1 SWAP2 SUB SWAP1 LOG1 POP JUMP JUMPDEST PUSH2 0x1592 PUSH2 0x1721 JUMP JUMPDEST PUSH0 PUSH20 0xFFFFFFFFFFFFFFFFFFFFFFFFFFFFFFFFFFFFFFFF AND DUP2 PUSH20 0xFFFFFFFFFFFFFFFFFFFFFFFFFFFFFFFFFFFFFFFF AND SUB PUSH2 0x1602 JUMPI PUSH0 PUSH1 0x40 MLOAD PUSH32 0x1E4FBDF700000000000000000000000000000000000000000000000000000000 DUP2 MSTORE PUSH1 0x4 ADD PUSH2 0x15F9 SWAP2 SWAP1 PUSH2 0x1E85 JUMP JUMPDEST PUSH1 0x40 MLOAD DUP1 SWAP2 SUB SWAP1 REVERT JUMPDEST PUSH2 0x160B DUP2 PUSH2 0x17A8 JUMP JUMPDEST POP JUMP JUMPDEST PUSH1 0x60 PUSH1 0x3 PUSH0 DUP4 DUP2 MSTORE PUSH1 0x20 ADD SWAP1 DUP2 MSTORE PUSH1 0x20 ADD PUSH0 KECCAK256 PUSH1 0x2 ADD DUP1 SLOAD DUP1 PUSH1 0x20 MUL PUSH1 0x20 ADD PUSH1 0x40 MLOAD SWAP1 DUP2 ADD PUSH1 0x40 MSTORE DUP1 SWAP3 SWAP2 SWAP1 DUP2 DUP2 MSTORE PUSH1 0x20 ADD PUSH0 SWAP1 JUMPDEST DUP3 DUP3 LT ISZERO PUSH2 0x1716 JUMPI DUP4 DUP3 SWAP1 PUSH0 MSTORE PUSH1 0x20 PUSH0 KECCAK256 SWAP1 PUSH1 0x3 MUL ADD PUSH1 0x40 MLOAD DUP1 PUSH1 0x60 ADD PUSH1 0x40 MSTORE SWAP1 DUP2 PUSH0 DUP3 ADD SLOAD DUP2 MSTORE PUSH1 0x20 ADD PUSH1 0x1 DUP3 ADD DUP1 SLOAD PUSH2 0x167D SWAP1 PUSH2 0x1F8B JUMP JUMPDEST DUP1 PUSH1 0x1F ADD PUSH1 0x20 DUP1 SWAP2 DIV MUL PUSH1 0x20 ADD PUSH1 0x40 MLOAD SWAP1 DUP2 ADD PUSH1 0x40 MSTORE DUP1 SWAP3 SWAP2 SWAP1 DUP2 DUP2 MSTORE PUSH1 0x20 ADD DUP3 DUP1 SLOAD PUSH2 0x16A9 SWAP1 PUSH2 0x1F8B JUMP JUMPDEST DUP1 ISZERO PUSH2 0x16F4 JUMPI DUP1 PUSH1 0x1F LT PUSH2 0x16CB JUMPI PUSH2 0x100 DUP1 DUP4 SLOAD DIV MUL DUP4 MSTORE SWAP2 PUSH1 0x20 ADD SWAP2 PUSH2 0x16F4 JUMP JUMPDEST DUP3 ADD SWAP2 SWAP1 PUSH0 MSTORE PUSH1 0x20 PUSH0 KECCAK256 SWAP1 JUMPDEST DUP2 SLOAD DUP2 MSTORE SWAP1 PUSH1 0x1 ADD SWAP1 PUSH1 0x20 ADD DUP1 DUP4 GT PUSH2 0x16D7 JUMPI DUP3 SWAP1 SUB PUSH1 0x1F AND DUP3 ADD SWAP2 JUMPDEST POP POP POP POP POP DUP2 MSTORE PUSH1 0x20 ADD PUSH1 0x2 DUP3 ADD SLOAD DUP2 MSTORE POP POP DUP2 MSTORE PUSH1 0x20 ADD SWAP1 PUSH1 0x1 ADD SWAP1 PUSH2 0x1643 JUMP JUMPDEST POP POP POP POP SWAP1 POP SWAP2 SWAP1 POP JUMP JUMPDEST PUSH2 0x1729 PUSH2 0x1869 JUMP JUMPDEST PUSH20 0xFFFFFFFFFFFFFFFFFFFFFFFFFFFFFFFFFFFFFFFF AND PUSH2 0x1747 PUSH2 0xF74 JUMP JUMPDEST PUSH20 0xFFFFFFFFFFFFFFFFFFFFFFFFFFFFFFFFFFFFFFFF AND EQ PUSH2 0x17A6 JUMPI PUSH2 0x176A PUSH2 0x1869 JUMP JUMPDEST PUSH1 0x40 MLOAD PUSH32 0x118CDAA700000000000000000000000000000000000000000000000000000000 DUP2 MSTORE PUSH1 0x4 ADD PUSH2 0x179D SWAP2 SWAP1 PUSH2 0x1E85 JUMP JUMPDEST PUSH1 0x40 MLOAD DUP1 SWAP2 SUB SWAP1 REVERT JUMPDEST JUMP JUMPDEST PUSH0 PUSH0 PUSH0 SWAP1 SLOAD SWAP1 PUSH2 0x100 EXP SWAP1 DIV PUSH20 0xFFFFFFFFFFFFFFFFFFFFFFFFFFFFFFFFFFFFFFFF AND SWAP1 POP DUP2 PUSH0 PUSH0 PUSH2 0x100 EXP DUP2 SLOAD DUP2 PUSH20 0xFFFFFFFFFFFFFFFFFFFFFFFFFFFFFFFFFFFFFFFF MUL NOT AND SWAP1 DUP4 PUSH20 0xFFFFFFFFFFFFFFFFFFFFFFFFFFFFFFFFFFFFFFFF AND MUL OR SWAP1 SSTORE POP DUP2 PUSH20 0xFFFFFFFFFFFFFFFFFFFFFFFFFFFFFFFFFFFFFFFF AND DUP2 PUSH20 0xFFFFFFFFFFFFFFFFFFFFFFFFFFFFFFFFFFFFFFFF AND PUSH32 0x8BE0079C531659141344CD1FD0A4F28419497F9722A3DAAFE3B4186F6B6457E0 PUSH1 0x40 MLOAD PUSH1 0x40 MLOAD DUP1 SWAP2 SUB SWAP1 LOG3 POP POP JUMP JUMPDEST PUSH0 CALLER SWAP1 POP SWAP1 JUMP JUMPDEST PUSH1 0x40 MLOAD DUP1 PUSH1 0x60 ADD PUSH1 0x40 MSTORE DUP1 PUSH0 PUSH1 0x5 DUP2 GT ISZERO PUSH2 0x188E JUMPI PUSH2 0x188D PUSH2 0x192F JUMP JUMPDEST JUMPDEST DUP2 MSTORE PUSH1 0x20 ADD PUSH0 DUP2 MSTORE PUSH1 0x20 ADD PUSH1 0x60 DUP2 MSTORE POP SWAP1 JUMP JUMPDEST PUSH1 0x40 MLOAD DUP1 PUSH1 0x60 ADD PUSH1 0x40 MSTORE DUP1 PUSH0 DUP2 MSTORE PUSH1 0x20 ADD PUSH1 0x60 DUP2 MSTORE PUSH1 0x20 ADD PUSH0 DUP2 MSTORE POP SWAP1 JUMP JUMPDEST PUSH0 PUSH1 0x40 MLOAD SWAP1 POP SWAP1 JUMP JUMPDEST PUSH0 PUSH0 REVERT JUMPDEST PUSH0 PUSH0 REVERT JUMPDEST PUSH0 DUP2 SWAP1 POP SWAP2 SWAP1 POP JUMP JUMPDEST PUSH2 0x18E3 DUP2 PUSH2 0x18D1 JUMP JUMPDEST DUP2 EQ PUSH2 0x18ED JUMPI PUSH0 PUSH0 REVERT JUMPDEST POP JUMP JUMPDEST PUSH0 DUP2 CALLDATALOAD SWAP1 POP PUSH2 0x18FE DUP2 PUSH2 0x18DA JUMP JUMPDEST SWAP3 SWAP2 POP POP JUMP JUMPDEST PUSH0 PUSH1 0x20 DUP3 DUP5 SUB SLT ISZERO PUSH2 0x1919 JUMPI PUSH2 0x1918 PUSH2 0x18C9 JUMP JUMPDEST JUMPDEST PUSH0 PUSH2 0x1926 DUP5 DUP3 DUP6 ADD PUSH2 0x18F0 JUMP JUMPDEST SWAP2 POP POP SWAP3 SWAP2 POP POP JUMP JUMPDEST PUSH32 0x4E487B7100000000000000000000000000000000000000000000000000000000 PUSH0 MSTORE PUSH1 0x21 PUSH1 0x4 MSTORE PUSH1 0x24 PUSH0 REVERT JUMPDEST PUSH1 0x6 DUP2 LT PUSH2 0x196D JUMPI PUSH2 0x196C PUSH2 0x192F JUMP JUMPDEST JUMPDEST POP JUMP JUMPDEST PUSH0 DUP2 SWAP1 POP PUSH2 0x197D DUP3 PUSH2 0x195C JUMP JUMPDEST SWAP2 SWAP1 POP JUMP JUMPDEST PUSH0 PUSH2 0x198C DUP3 PUSH2 0x1970 JUMP JUMPDEST SWAP1 POP SWAP2 SWAP1 POP JUMP JUMPDEST PUSH2 0x199C DUP2 PUSH2 0x1982 JUMP JUMPDEST DUP3 MSTORE POP POP JUMP JUMPDEST PUSH2 0x19AB DUP2 PUSH2 0x18D1 JUMP JUMPDEST DUP3 MSTORE POP POP JUMP JUMPDEST PUSH0 PUSH1 0x40 DUP3 ADD SWAP1 POP PUSH2 0x19C4 PUSH0 DUP4 ADD DUP6 PUSH2 0x1993 JUMP JUMPDEST PUSH2 0x19D1 PUSH1 0x20 DUP4 ADD DUP5 PUSH2 0x19A2 JUMP JUMPDEST SWAP4 SWAP3 POP POP POP JUMP JUMPDEST PUSH2 0x19E1 DUP2 PUSH2 0x1982 JUMP JUMPDEST DUP3 MSTORE POP POP JUMP JUMPDEST PUSH2 0x19F0 DUP2 PUSH2 0x18D1 JUMP JUMPDEST DUP3 MSTORE POP POP JUMP JUMPDEST PUSH0 DUP2 MLOAD SWAP1 POP SWAP2 SWAP1 POP JUMP JUMPDEST PUSH0 DUP3 DUP3 MSTORE PUSH1 0x20 DUP3 ADD SWAP1 POP SWAP3 SWAP2 POP POP JUMP JUMPDEST PUSH0 DUP2 SWAP1 POP PUSH1 0x20 DUP3 ADD SWAP1 POP SWAP2 SWAP1 POP JUMP JUMPDEST PUSH0 DUP2 MLOAD SWAP1 POP SWAP2 SWAP1 POP JUMP JUMPDEST PUSH0 DUP3 DUP3 MSTORE PUSH1 0x20 DUP3 ADD SWAP1 POP SWAP3 SWAP2 POP POP JUMP JUMPDEST DUP3 DUP2 DUP4 MCOPY PUSH0 DUP4 DUP4 ADD MSTORE POP POP POP JUMP JUMPDEST PUSH0 PUSH1 0x1F NOT PUSH1 0x1F DUP4 ADD AND SWAP1 POP SWAP2 SWAP1 POP JUMP JUMPDEST PUSH0 PUSH2 0x1A61 DUP3 PUSH2 0x1A1F JUMP JUMPDEST PUSH2 0x1A6B DUP2 DUP6 PUSH2 0x1A29 JUMP JUMPDEST SWAP4 POP PUSH2 0x1A7B DUP2 DUP6 PUSH1 0x20 DUP7 ADD PUSH2 0x1A39 JUMP JUMPDEST PUSH2 0x1A84 DUP2 PUSH2 0x1A47 JUMP JUMPDEST DUP5 ADD SWAP2 POP POP SWAP3 SWAP2 POP POP JUMP JUMPDEST PUSH0 PUSH1 0x60 DUP4 ADD PUSH0 DUP4 ADD MLOAD PUSH2 0x1AA4 PUSH0 DUP7 ADD DUP3 PUSH2 0x19E7 JUMP JUMPDEST POP PUSH1 0x20 DUP4 ADD MLOAD DUP5 DUP3 SUB PUSH1 0x20 DUP7 ADD MSTORE PUSH2 0x1ABC DUP3 DUP3 PUSH2 0x1A57 JUMP JUMPDEST SWAP2 POP POP PUSH1 0x40 DUP4 ADD MLOAD PUSH2 0x1AD1 PUSH1 0x40 DUP7 ADD DUP3 PUSH2 0x19E7 JUMP JUMPDEST POP DUP1 SWAP2 POP POP SWAP3 SWAP2 POP POP JUMP JUMPDEST PUSH0 PUSH2 0x1AE7 DUP4 DUP4 PUSH2 0x1A8F JUMP JUMPDEST SWAP1 POP SWAP3 SWAP2 POP POP JUMP JUMPDEST PUSH0 PUSH1 0x20 DUP3 ADD SWAP1 POP SWAP2 SWAP1 POP JUMP JUMPDEST PUSH0 PUSH2 0x1B05 DUP3 PUSH2 0x19F6 JUMP JUMPDEST PUSH2 0x1B0F DUP2 DUP6 PUSH2 0x1A00 JUMP JUMPDEST SWAP4 POP DUP4 PUSH1 0x20 DUP3 MUL DUP6 ADD PUSH2 0x1B21 DUP6 PUSH2 0x1A10 JUMP JUMPDEST DUP1 PUSH0 JUMPDEST DUP6 DUP2 LT ISZERO PUSH2 0x1B5C JUMPI DUP5 DUP5 SUB DUP10 MSTORE DUP2 MLOAD PUSH2 0x1B3D DUP6 DUP3 PUSH2 0x1ADC JUMP JUMPDEST SWAP5 POP PUSH2 0x1B48 DUP4 PUSH2 0x1AEF JUMP JUMPDEST SWAP3 POP PUSH1 0x20 DUP11 ADD SWAP10 POP POP PUSH1 0x1 DUP2 ADD SWAP1 POP PUSH2 0x1B24 JUMP JUMPDEST POP DUP3 SWAP8 POP DUP8 SWAP6 POP POP POP POP POP POP SWAP3 SWAP2 POP POP JUMP JUMPDEST PUSH0 PUSH1 0x60 DUP4 ADD PUSH0 DUP4 ADD MLOAD PUSH2 0x1B83 PUSH0 DUP7 ADD DUP3 PUSH2 0x19D8 JUMP JUMPDEST POP PUSH1 0x20 DUP4 ADD MLOAD PUSH2 0x1B96 PUSH1 0x20 DUP7 ADD DUP3 PUSH2 0x19E7 JUMP JUMPDEST POP PUSH1 0x40 DUP4 ADD MLOAD DUP5 DUP3 SUB PUSH1 0x40 DUP7 ADD MSTORE PUSH2 0x1BAE DUP3 DUP3 PUSH2 0x1AFB JUMP JUMPDEST SWAP2 POP POP DUP1 SWAP2 POP POP SWAP3 SWAP2 POP POP JUMP JUMPDEST PUSH0 PUSH1 0x20 DUP3 ADD SWAP1 POP DUP2 DUP2 SUB PUSH0 DUP4 ADD MSTORE PUSH2 0x1BD3 DUP2 DUP5 PUSH2 0x1B6E JUMP JUMPDEST SWAP1 POP SWAP3 SWAP2 POP POP JUMP JUMPDEST PUSH0 PUSH20 0xFFFFFFFFFFFFFFFFFFFFFFFFFFFFFFFFFFFFFFFF DUP3 AND SWAP1 POP SWAP2 SWAP1 POP JUMP JUMPDEST PUSH0 PUSH2 0x1C04 DUP3 PUSH2 0x1BDB JUMP JUMPDEST SWAP1 POP SWAP2 SWAP1 POP JUMP JUMPDEST PUSH2 0x1C14 DUP2 PUSH2 0x1BFA JUMP JUMPDEST DUP2 EQ PUSH2 0x1C1E JUMPI PUSH0 PUSH0 REVERT JUMPDEST POP JUMP JUMPDEST PUSH0 DUP2 CALLDATALOAD SWAP1 POP PUSH2 0x1C2F DUP2 PUSH2 0x1C0B JUMP JUMPDEST SWAP3 SWAP2 POP POP JUMP JUMPDEST PUSH0 PUSH1 0x20 DUP3 DUP5 SUB SLT ISZERO PUSH2 0x1C4A JUMPI PUSH2 0x1C49 PUSH2 0x18C9 JUMP JUMPDEST JUMPDEST PUSH0 PUSH2 0x1C57 DUP5 DUP3 DUP6 ADD PUSH2 0x1C21 JUMP JUMPDEST SWAP2 POP POP SWAP3 SWAP2 POP POP JUMP JUMPDEST PUSH0 PUSH0 REVERT JUMPDEST PUSH0 PUSH0 REVERT JUMPDEST PUSH32 0x4E487B7100000000000000000000000000000000000000000000000000000000 PUSH0 MSTORE PUSH1 0x41 PUSH1 0x4 MSTORE PUSH1 0x24 PUSH0 REVERT JUMPDEST PUSH2 0x1C9E DUP3 PUSH2 0x1A47 JUMP JUMPDEST DUP2 ADD DUP2 DUP2 LT PUSH8 0xFFFFFFFFFFFFFFFF DUP3 GT OR ISZERO PUSH2 0x1CBD JUMPI PUSH2 0x1CBC PUSH2 0x1C68 JUMP JUMPDEST JUMPDEST DUP1 PUSH1 0x40 MSTORE POP POP POP JUMP JUMPDEST PUSH0 PUSH2 0x1CCF PUSH2 0x18C0 JUMP JUMPDEST SWAP1 POP PUSH2 0x1CDB DUP3 DUP3 PUSH2 0x1C95 JUMP JUMPDEST SWAP2 SWAP1 POP JUMP JUMPDEST PUSH0 PUSH8 0xFFFFFFFFFFFFFFFF DUP3 GT ISZERO PUSH2 0x1CFA JUMPI PUSH2 0x1CF9 PUSH2 0x1C68 JUMP JUMPDEST JUMPDEST PUSH2 0x1D03 DUP3 PUSH2 0x1A47 JUMP JUMPDEST SWAP1 POP PUSH1 0x20 DUP2 ADD SWAP1 POP SWAP2 SWAP1 POP JUMP JUMPDEST DUP3 DUP2 DUP4 CALLDATACOPY PUSH0 DUP4 DUP4 ADD MSTORE POP POP POP JUMP JUMPDEST PUSH0 PUSH2 0x1D30 PUSH2 0x1D2B DUP5 PUSH2 0x1CE0 JUMP JUMPDEST PUSH2 0x1CC6 JUMP JUMPDEST SWAP1 POP DUP3 DUP2 MSTORE PUSH1 0x20 DUP2 ADD DUP5 DUP5 DUP5 ADD GT ISZERO PUSH2 0x1D4C JUMPI PUSH2 0x1D4B PUSH2 0x1C64 JUMP JUMPDEST JUMPDEST PUSH2 0x1D57 DUP5 DUP3 DUP6 PUSH2 0x1D10 JUMP JUMPDEST POP SWAP4 SWAP3 POP POP POP JUMP JUMPDEST PUSH0 DUP3 PUSH1 0x1F DUP4 ADD SLT PUSH2 0x1D73 JUMPI PUSH2 0x1D72 PUSH2 0x1C60 JUMP JUMPDEST JUMPDEST DUP2 CALLDATALOAD PUSH2 0x1D83 DUP5 DUP3 PUSH1 0x20 DUP7 ADD PUSH2 0x1D1E JUMP JUMPDEST SWAP2 POP POP SWAP3 SWAP2 POP POP JUMP JUMPDEST PUSH0 PUSH1 0x20 DUP3 DUP5 SUB SLT ISZERO PUSH2 0x1DA1 JUMPI PUSH2 0x1DA0 PUSH2 0x18C9 JUMP JUMPDEST JUMPDEST PUSH0 DUP3 ADD CALLDATALOAD PUSH8 0xFFFFFFFFFFFFFFFF DUP2 GT ISZERO PUSH2 0x1DBE JUMPI PUSH2 0x1DBD PUSH2 0x18CD JUMP JUMPDEST JUMPDEST PUSH2 0x1DCA DUP5 DUP3 DUP6 ADD PUSH2 0x1D5F JUMP JUMPDEST SWAP2 POP POP SWAP3 SWAP2 POP POP JUMP JUMPDEST PUSH0 DUP3 DUP3 MSTORE PUSH1 0x20 DUP3 ADD SWAP1 POP SWAP3 SWAP2 POP POP JUMP JUMPDEST PUSH0 PUSH2 0x1DED DUP3 PUSH2 0x19F6 JUMP JUMPDEST PUSH2 0x1DF7 DUP2 DUP6 PUSH2 0x1DD3 JUMP JUMPDEST SWAP4 POP DUP4 PUSH1 0x20 DUP3 MUL DUP6 ADD PUSH2 0x1E09 DUP6 PUSH2 0x1A10 JUMP JUMPDEST DUP1 PUSH0 JUMPDEST DUP6 DUP2 LT ISZERO PUSH2 0x1E44 JUMPI DUP5 DUP5 SUB DUP10 MSTORE DUP2 MLOAD PUSH2 0x1E25 DUP6 DUP3 PUSH2 0x1ADC JUMP JUMPDEST SWAP5 POP PUSH2 0x1E30 DUP4 PUSH2 0x1AEF JUMP JUMPDEST SWAP3 POP PUSH1 0x20 DUP11 ADD SWAP10 POP POP PUSH1 0x1 DUP2 ADD SWAP1 POP PUSH2 0x1E0C JUMP JUMPDEST POP DUP3 SWAP8 POP DUP8 SWAP6 POP POP POP POP POP POP SWAP3 SWAP2 POP POP JUMP JUMPDEST PUSH0 PUSH1 0x20 DUP3 ADD SWAP1 POP DUP2 DUP2 SUB PUSH0 DUP4 ADD MSTORE PUSH2 0x1E6E DUP2 DUP5 PUSH2 0x1DE3 JUMP JUMPDEST SWAP1 POP SWAP3 SWAP2 POP POP JUMP JUMPDEST PUSH2 0x1E7F DUP2 PUSH2 0x1BFA JUMP JUMPDEST DUP3 MSTORE POP POP JUMP JUMPDEST PUSH0 PUSH1 0x20 DUP3 ADD SWAP1 POP PUSH2 0x1E98 PUSH0 DUP4 ADD DUP5 PUSH2 0x1E76 JUMP JUMPDEST SWAP3 SWAP2 POP POP JUMP JUMPDEST PUSH0 PUSH1 0x20 DUP3 ADD SWAP1 POP PUSH2 0x1EB1 PUSH0 DUP4 ADD DUP5 PUSH2 0x19A2 JUMP JUMPDEST SWAP3 SWAP2 POP POP JUMP JUMPDEST PUSH0 DUP2 ISZERO ISZERO SWAP1 POP SWAP2 SWAP1 POP JUMP JUMPDEST PUSH2 0x1ECB DUP2 PUSH2 0x1EB7 JUMP JUMPDEST DUP3 MSTORE POP POP JUMP JUMPDEST PUSH0 PUSH1 0x20 DUP3 ADD SWAP1 POP PUSH2 0x1EE4 PUSH0 DUP4 ADD DUP5 PUSH2 0x1EC2 JUMP JUMPDEST SWAP3 SWAP2 POP POP JUMP JUMPDEST PUSH32 0x4E487B7100000000000000000000000000000000000000000000000000000000 PUSH0 MSTORE PUSH1 0x11 PUSH1 0x4 MSTORE PUSH1 0x24 PUSH0 REVERT JUMPDEST PUSH0 PUSH2 0x1F21 DUP3 PUSH2 0x18D1 JUMP JUMPDEST SWAP2 POP PUSH32 0xFFFFFFFFFFFFFFFFFFFFFFFFFFFFFFFFFFFFFFFFFFFFFFFFFFFFFFFFFFFFFFFF DUP3 SUB PUSH2 0x1F53 JUMPI PUSH2 0x1F52 PUSH2 0x1EEA JUMP JUMPDEST JUMPDEST PUSH1 0x1 DUP3 ADD SWAP1 POP SWAP2 SWAP1 POP JUMP JUMPDEST PUSH32 0x4E487B7100000000000000000000000000000000000000000000000000000000 PUSH0 MSTORE PUSH1 0x22 PUSH1 0x4 MSTORE PUSH1 0x24 PUSH0 REVERT JUMPDEST PUSH0 PUSH1 0x2 DUP3 DIV SWAP1 POP PUSH1 0x1 DUP3 AND DUP1 PUSH2 0x1FA2 JUMPI PUSH1 0x7F DUP3 AND SWAP2 POP JUMPDEST PUSH1 0x20 DUP3 LT DUP2 SUB PUSH2 0x1FB5 JUMPI PUSH2 0x1FB4 PUSH2 0x1F5E JUMP JUMPDEST JUMPDEST POP SWAP2 SWAP1 POP JUMP JUMPDEST PUSH0 DUP3 DUP3 MSTORE PUSH1 0x20 DUP3 ADD SWAP1 POP SWAP3 SWAP2 POP POP JUMP JUMPDEST PUSH32 0x526567697374726174696F6E206E6F74207374617274656420666F7220746869 PUSH0 DUP3 ADD MSTORE PUSH32 0x732073657373696F6E0000000000000000000000000000000000000000000000 PUSH1 0x20 DUP3 ADD MSTORE POP JUMP JUMPDEST PUSH0 PUSH2 0x2025 PUSH1 0x29 DUP4 PUSH2 0x1FBB JUMP JUMPDEST SWAP2 POP PUSH2 0x2030 DUP3 PUSH2 0x1FCB JUMP JUMPDEST PUSH1 0x40 DUP3 ADD SWAP1 POP SWAP2 SWAP1 POP JUMP JUMPDEST PUSH0 PUSH1 0x20 DUP3 ADD SWAP1 POP DUP2 DUP2 SUB PUSH0 DUP4 ADD MSTORE PUSH2 0x2052 DUP2 PUSH2 0x2019 JUMP JUMPDEST SWAP1 POP SWAP2 SWAP1 POP JUMP JUMPDEST PUSH32 0x566F74657220697320616C726561647920726567697374657265640000000000 PUSH0 DUP3 ADD MSTORE POP JUMP JUMPDEST PUSH0 PUSH2 0x208D PUSH1 0x1B DUP4 PUSH2 0x1FBB JUMP JUMPDEST SWAP2 POP PUSH2 0x2098 DUP3 PUSH2 0x2059 JUMP JUMPDEST PUSH1 0x20 DUP3 ADD SWAP1 POP SWAP2 SWAP1 POP JUMP JUMPDEST PUSH0 PUSH1 0x20 DUP3 ADD SWAP1 POP DUP2 DUP2 SUB PUSH0 DUP4 ADD MSTORE PUSH2 0x20BA DUP2 PUSH2 0x2081 JUMP JUMPDEST SWAP1 POP SWAP2 SWAP1 POP JUMP JUMPDEST PUSH32 0x596F7520617265206E6F74207265676973746572656400000000000000000000 PUSH0 DUP3 ADD MSTORE POP JUMP JUMPDEST PUSH0 PUSH2 0x20F5 PUSH1 0x16 DUP4 PUSH2 0x1FBB JUMP JUMPDEST SWAP2 POP PUSH2 0x2100 DUP3 PUSH2 0x20C1 JUMP JUMPDEST PUSH1 0x20 DUP3 ADD SWAP1 POP SWAP2 SWAP1 POP JUMP JUMPDEST PUSH0 PUSH1 0x20 DUP3 ADD SWAP1 POP DUP2 DUP2 SUB PUSH0 DUP4 ADD MSTORE PUSH2 0x2122 DUP2 PUSH2 0x20E9 JUMP JUMPDEST SWAP1 POP SWAP2 SWAP1 POP JUMP JUMPDEST PUSH32 0x50726F706F73616C206465736372697074696F6E206973207265717569726564 PUSH0 DUP3 ADD MSTORE POP JUMP JUMPDEST PUSH0 PUSH2 0x215D PUSH1 0x20 DUP4 PUSH2 0x1FBB JUMP JUMPDEST SWAP2 POP PUSH2 0x2168 DUP3 PUSH2 0x2129 JUMP JUMPDEST PUSH1 0x20 DUP3 ADD SWAP1 POP SWAP2 SWAP1 POP JUMP JUMPDEST PUSH0 PUSH1 0x20 DUP3 ADD SWAP1 POP DUP2 DUP2 SUB PUSH0 DUP4 ADD MSTORE PUSH2 0x218A DUP2 PUSH2 0x2151 JUMP JUMPDEST SWAP1 POP SWAP2 SWAP1 POP JUMP JUMPDEST PUSH32 0x50726F706F73616C73206E6F74207374617274656420666F7220746869732073 PUSH0 DUP3 ADD MSTORE PUSH32 0x657373696F6E0000000000000000000000000000000000000000000000000000 PUSH1 0x20 DUP3 ADD MSTORE POP JUMP JUMPDEST PUSH0 PUSH2 0x21EB PUSH1 0x26 DUP4 PUSH2 0x1FBB JUMP JUMPDEST SWAP2 POP PUSH2 0x21F6 DUP3 PUSH2 0x2191 JUMP JUMPDEST PUSH1 0x40 DUP3 ADD SWAP1 POP SWAP2 SWAP1 POP JUMP JUMPDEST PUSH0 PUSH1 0x20 DUP3 ADD SWAP1 POP DUP2 DUP2 SUB PUSH0 DUP4 ADD MSTORE PUSH2 0x2218 DUP2 PUSH2 0x21DF JUMP JUMPDEST SWAP1 POP SWAP2 SWAP1 POP JUMP JUMPDEST PUSH0 DUP2 SWAP1 POP DUP2 PUSH0 MSTORE PUSH1 0x20 PUSH0 KECCAK256 SWAP1 POP SWAP2 SWAP1 POP JUMP JUMPDEST PUSH0 PUSH1 0x20 PUSH1 0x1F DUP4 ADD DIV SWAP1 POP SWAP2 SWAP1 POP JUMP JUMPDEST PUSH0 DUP3 DUP3 SHL SWAP1 POP SWAP3 SWAP2 POP POP JUMP JUMPDEST PUSH0 PUSH1 0x8 DUP4 MUL PUSH2 0x227B PUSH32 0xFFFFFFFFFFFFFFFFFFFFFFFFFFFFFFFFFFFFFFFFFFFFFFFFFFFFFFFFFFFFFFFF DUP3 PUSH2 0x2240 JUMP JUMPDEST PUSH2 0x2285 DUP7 DUP4 PUSH2 0x2240 JUMP JUMPDEST SWAP6 POP DUP1 NOT DUP5 AND SWAP4 POP DUP1 DUP7 AND DUP5 OR SWAP3 POP POP POP SWAP4 SWAP3 POP POP POP JUMP JUMPDEST PUSH0 DUP2 SWAP1 POP SWAP2 SWAP1 POP JUMP JUMPDEST PUSH0 PUSH2 0x22C0 PUSH2 0x22BB PUSH2 0x22B6 DUP5 PUSH2 0x18D1 JUMP JUMPDEST PUSH2 0x229D JUMP JUMPDEST PUSH2 0x18D1 JUMP JUMPDEST SWAP1 POP SWAP2 SWAP1 POP JUMP JUMPDEST PUSH0 DUP2 SWAP1 POP SWAP2 SWAP1 POP JUMP JUMPDEST PUSH2 0x22D9 DUP4 PUSH2 0x22A6 JUMP JUMPDEST PUSH2 0x22ED PUSH2 0x22E5 DUP3 PUSH2 0x22C7 JUMP JUMPDEST DUP5 DUP5 SLOAD PUSH2 0x224C JUMP JUMPDEST DUP3 SSTORE POP POP POP POP JUMP JUMPDEST PUSH0 PUSH0 SWAP1 POP SWAP1 JUMP JUMPDEST PUSH2 0x2304 PUSH2 0x22F5 JUMP JUMPDEST PUSH2 0x230F DUP2 DUP5 DUP5 PUSH2 0x22D0 JUMP JUMPDEST POP POP POP JUMP JUMPDEST JUMPDEST DUP2 DUP2 LT ISZERO PUSH2 0x2332 JUMPI PUSH2 0x2327 PUSH0 DUP3 PUSH2 0x22FC JUMP JUMPDEST PUSH1 0x1 DUP2 ADD SWAP1 POP PUSH2 0x2315 JUMP JUMPDEST POP POP JUMP JUMPDEST PUSH1 0x1F DUP3 GT ISZERO PUSH2 0x2377 JUMPI PUSH2 0x2348 DUP2 PUSH2 0x221F JUMP JUMPDEST PUSH2 0x2351 DUP5 PUSH2 0x2231 JUMP JUMPDEST DUP2 ADD PUSH1 0x20 DUP6 LT ISZERO PUSH2 0x2360 JUMPI DUP2 SWAP1 POP JUMPDEST PUSH2 0x2374 PUSH2 0x236C DUP6 PUSH2 0x2231 JUMP JUMPDEST DUP4 ADD DUP3 PUSH2 0x2314 JUMP JUMPDEST POP POP JUMPDEST POP POP POP JUMP JUMPDEST PUSH0 DUP3 DUP3 SHR SWAP1 POP SWAP3 SWAP2 POP POP JUMP JUMPDEST PUSH0 PUSH2 0x2397 PUSH0 NOT DUP5 PUSH1 0x8 MUL PUSH2 0x237C JUMP JUMPDEST NOT DUP1 DUP4 AND SWAP2 POP POP SWAP3 SWAP2 POP POP JUMP JUMPDEST PUSH0 PUSH2 0x23AF DUP4 DUP4 PUSH2 0x2388 JUMP JUMPDEST SWAP2 POP DUP3 PUSH1 0x2 MUL DUP3 OR SWAP1 POP SWAP3 SWAP2 POP POP JUMP JUMPDEST PUSH2 0x23C8 DUP3 PUSH2 0x1A1F JUMP JUMPDEST PUSH8 0xFFFFFFFFFFFFFFFF DUP2 GT ISZERO PUSH2 0x23E1 JUMPI PUSH2 0x23E0 PUSH2 0x1C68 JUMP JUMPDEST JUMPDEST PUSH2 0x23EB DUP3 SLOAD PUSH2 0x1F8B JUMP JUMPDEST PUSH2 0x23F6 DUP3 DUP3 DUP6 PUSH2 0x2336 JUMP JUMPDEST PUSH0 PUSH1 0x20 SWAP1 POP PUSH1 0x1F DUP4 GT PUSH1 0x1 DUP2 EQ PUSH2 0x2427 JUMPI PUSH0 DUP5 ISZERO PUSH2 0x2415 JUMPI DUP3 DUP8 ADD MLOAD SWAP1 POP JUMPDEST PUSH2 0x241F DUP6 DUP3 PUSH2 0x23A4 JUMP JUMPDEST DUP7 SSTORE POP PUSH2 0x2486 JUMP JUMPDEST PUSH1 0x1F NOT DUP5 AND PUSH2 0x2435 DUP7 PUSH2 0x221F JUMP JUMPDEST PUSH0 JUMPDEST DUP3 DUP2 LT ISZERO PUSH2 0x245C JUMPI DUP5 DUP10 ADD MLOAD DUP3 SSTORE PUSH1 0x1 DUP3 ADD SWAP2 POP PUSH1 0x20 DUP6 ADD SWAP5 POP PUSH1 0x20 DUP2 ADD SWAP1 POP PUSH2 0x2437 JUMP JUMPDEST DUP7 DUP4 LT ISZERO PUSH2 0x2479 JUMPI DUP5 DUP10 ADD MLOAD PUSH2 0x2475 PUSH1 0x1F DUP10 AND DUP3 PUSH2 0x2388 JUMP JUMPDEST DUP4 SSTORE POP JUMPDEST PUSH1 0x1 PUSH1 0x2 DUP9 MUL ADD DUP9 SSTORE POP POP POP JUMPDEST POP POP POP POP POP POP JUMP JUMPDEST PUSH32 0x50726F706F73616C7320726567697374726174696F6E206E6F74207374617274 PUSH0 DUP3 ADD MSTORE PUSH32 0x656420666F7220746869732073657373696F6E00000000000000000000000000 PUSH1 0x20 DUP3 ADD MSTORE POP JUMP JUMPDEST PUSH0 PUSH2 0x24E8 PUSH1 0x33 DUP4 PUSH2 0x1FBB JUMP JUMPDEST SWAP2 POP PUSH2 0x24F3 DUP3 PUSH2 0x248E JUMP JUMPDEST PUSH1 0x40 DUP3 ADD SWAP1 POP SWAP2 SWAP1 POP JUMP JUMPDEST PUSH0 PUSH1 0x20 DUP3 ADD SWAP1 POP DUP2 DUP2 SUB PUSH0 DUP4 ADD MSTORE PUSH2 0x2515 DUP2 PUSH2 0x24DC JUMP JUMPDEST SWAP1 POP SWAP2 SWAP1 POP JUMP JUMPDEST PUSH0 PUSH1 0x40 DUP3 ADD SWAP1 POP PUSH2 0x252F PUSH0 DUP4 ADD DUP6 PUSH2 0x1993 JUMP JUMPDEST PUSH2 0x253C PUSH1 0x20 DUP4 ADD DUP5 PUSH2 0x1993 JUMP JUMPDEST SWAP4 SWAP3 POP POP POP JUMP JUMPDEST PUSH32 0x566F74657220697320616C726561647920756E72656769737465726564000000 PUSH0 DUP3 ADD MSTORE POP JUMP JUMPDEST PUSH0 PUSH2 0x2577 PUSH1 0x1D DUP4 PUSH2 0x1FBB JUMP JUMPDEST SWAP2 POP PUSH2 0x2582 DUP3 PUSH2 0x2543 JUMP JUMPDEST PUSH1 0x20 DUP3 ADD SWAP1 POP SWAP2 SWAP1 POP JUMP JUMPDEST PUSH0 PUSH1 0x20 DUP3 ADD SWAP1 POP DUP2 DUP2 SUB PUSH0 DUP4 ADD MSTORE PUSH2 0x25A4 DUP2 PUSH2 0x256B JUMP JUMPDEST SWAP1 POP SWAP2 SWAP1 POP JUMP JUMPDEST PUSH32 0x566F74696E672073657373696F6E206E6F7420656E6465640000000000000000 PUSH0 DUP3 ADD MSTORE POP JUMP JUMPDEST PUSH0 PUSH2 0x25DF PUSH1 0x18 DUP4 PUSH2 0x1FBB JUMP JUMPDEST SWAP2 POP PUSH2 0x25EA DUP3 PUSH2 0x25AB JUMP JUMPDEST PUSH1 0x20 DUP3 ADD SWAP1 POP SWAP2 SWAP1 POP JUMP JUMPDEST PUSH0 PUSH1 0x20 DUP3 ADD SWAP1 POP DUP2 DUP2 SUB PUSH0 DUP4 ADD MSTORE PUSH2 0x260C DUP2 PUSH2 0x25D3 JUMP JUMPDEST SWAP1 POP SWAP2 SWAP1 POP JUMP JUMPDEST PUSH32 0x546869732073657373696F6E20686173206E6F2070726F706F73616C73000000 PUSH0 DUP3 ADD MSTORE POP JUMP JUMPDEST PUSH0 PUSH2 0x2647 PUSH1 0x1D DUP4 PUSH2 0x1FBB JUMP JUMPDEST SWAP2 POP PUSH2 0x2652 DUP3 PUSH2 0x2613 JUMP JUMPDEST PUSH1 0x20 DUP3 ADD SWAP1 POP SWAP2 SWAP1 POP JUMP JUMPDEST PUSH0 PUSH1 0x20 DUP3 ADD SWAP1 POP DUP2 DUP2 SUB PUSH0 DUP4 ADD MSTORE PUSH2 0x2674 DUP2 PUSH2 0x263B JUMP JUMPDEST SWAP1 POP SWAP2 SWAP1 POP JUMP JUMPDEST PUSH32 0x4E487B7100000000000000000000000000000000000000000000000000000000 PUSH0 MSTORE PUSH1 0x32 PUSH1 0x4 MSTORE PUSH1 0x24 PUSH0 REVERT JUMPDEST PUSH32 0x566F74696E672073657373696F6E206E6F742073746172746564000000000000 PUSH0 DUP3 ADD MSTORE POP JUMP JUMPDEST PUSH0 PUSH2 0x26DC PUSH1 0x1A DUP4 PUSH2 0x1FBB JUMP JUMPDEST SWAP2 POP PUSH2 0x26E7 DUP3 PUSH2 0x26A8 JUMP JUMPDEST PUSH1 0x20 DUP3 ADD SWAP1 POP SWAP2 SWAP1 POP JUMP JUMPDEST PUSH0 PUSH1 0x20 DUP3 ADD SWAP1 POP DUP2 DUP2 SUB PUSH0 DUP4 ADD MSTORE PUSH2 0x2709 DUP2 PUSH2 0x26D0 JUMP JUMPDEST SWAP1 POP SWAP2 SWAP1 POP JUMP JUMPDEST PUSH32 0x726567697374726174696F6E20646964206E6F74207374617274656400000000 PUSH0 DUP3 ADD MSTORE POP JUMP JUMPDEST PUSH0 PUSH2 0x2744 PUSH1 0x1C DUP4 PUSH2 0x1FBB JUMP JUMPDEST SWAP2 POP PUSH2 0x274F DUP3 PUSH2 0x2710 JUMP JUMPDEST PUSH1 0x20 DUP3 ADD SWAP1 POP SWAP2 SWAP1 POP JUMP JUMPDEST PUSH0 PUSH1 0x20 DUP3 ADD SWAP1 POP DUP2 DUP2 SUB PUSH0 DUP4 ADD MSTORE PUSH2 0x2771 DUP2 PUSH2 0x2738 JUMP JUMPDEST SWAP1 POP SWAP2 SWAP1 POP JUMP JUMPDEST PUSH32 0x496E76616C69642070726F706F73616C20496400000000000000000000000000 PUSH0 DUP3 ADD MSTORE POP JUMP JUMPDEST PUSH0 PUSH2 0x27AC PUSH1 0x13 DUP4 PUSH2 0x1FBB JUMP JUMPDEST SWAP2 POP PUSH2 0x27B7 DUP3 PUSH2 0x2778 JUMP JUMPDEST PUSH1 0x20 DUP3 ADD SWAP1 POP SWAP2 SWAP1 POP JUMP JUMPDEST PUSH0 PUSH1 0x20 DUP3 ADD SWAP1 POP DUP2 DUP2 SUB PUSH0 DUP4 ADD MSTORE PUSH2 0x27D9 DUP2 PUSH2 0x27A0 JUMP JUMPDEST SWAP1 POP SWAP2 SWAP1 POP JUMP JUMPDEST PUSH32 0x596F7520617265206E6F74207265676973746572656420746F20766F74652066 PUSH0 DUP3 ADD MSTORE PUSH32 0x6F7220746869732073657373696F6E0000000000000000000000000000000000 PUSH1 0x20 DUP3 ADD MSTORE POP JUMP JUMPDEST PUSH0 PUSH2 0x283A PUSH1 0x2F DUP4 PUSH2 0x1FBB JUMP JUMPDEST SWAP2 POP PUSH2 0x2845 DUP3 PUSH2 0x27E0 JUMP JUMPDEST PUSH1 0x40 DUP3 ADD SWAP1 POP SWAP2 SWAP1 POP JUMP JUMPDEST PUSH0 PUSH1 0x20 DUP3 ADD SWAP1 POP DUP2 DUP2 SUB PUSH0 DUP4 ADD MSTORE PUSH2 0x2867 DUP2 PUSH2 0x282E JUMP JUMPDEST SWAP1 POP SWAP2 SWAP1 POP JUMP JUMPDEST PUSH0 PUSH2 0x2878 DUP3 PUSH2 0x18D1 JUMP JUMPDEST SWAP2 POP PUSH2 0x2883 DUP4 PUSH2 0x18D1 JUMP JUMPDEST SWAP3 POP DUP3 DUP3 SUB SWAP1 POP DUP2 DUP2 GT ISZERO PUSH2 0x289B JUMPI PUSH2 0x289A PUSH2 0x1EEA JUMP JUMPDEST JUMPDEST SWAP3 SWAP2 POP POP JUMP JUMPDEST PUSH32 0x596F75206861766520616C726561647920766F74656420666F72207468697320 PUSH0 DUP3 ADD MSTORE PUSH32 0x73657373696F6E00000000000000000000000000000000000000000000000000 PUSH1 0x20 DUP3 ADD MSTORE POP JUMP JUMPDEST PUSH0 PUSH2 0x28FB PUSH1 0x27 DUP4 PUSH2 0x1FBB JUMP JUMPDEST SWAP2 POP PUSH2 0x2906 DUP3 PUSH2 0x28A1 JUMP JUMPDEST PUSH1 0x40 DUP3 ADD SWAP1 POP SWAP2 SWAP1 POP JUMP JUMPDEST PUSH0 PUSH1 0x20 DUP3 ADD SWAP1 POP DUP2 DUP2 SUB PUSH0 DUP4 ADD MSTORE PUSH2 0x2928 DUP2 PUSH2 0x28EF JUMP JUMPDEST SWAP1 POP SWAP2 SWAP1 POP JUMP JUMPDEST PUSH0 PUSH1 0x40 DUP3 ADD SWAP1 POP PUSH2 0x2942 PUSH0 DUP4 ADD DUP6 PUSH2 0x1E76 JUMP JUMPDEST PUSH2 0x294F PUSH1 0x20 DUP4 ADD DUP5 PUSH2 0x19A2 JUMP JUMPDEST SWAP4 SWAP3 POP POP POP JUMP JUMPDEST PUSH32 0x50726F706F73616C7320726567697374726174696F6E206E6F7420656E646564 PUSH0 DUP3 ADD MSTORE POP JUMP JUMPDEST PUSH0 PUSH2 0x298A PUSH1 0x20 DUP4 PUSH2 0x1FBB JUMP JUMPDEST SWAP2 POP PUSH2 0x2995 DUP3 PUSH2 0x2956 JUMP JUMPDEST PUSH1 0x20 DUP3 ADD SWAP1 POP SWAP2 SWAP1 POP JUMP JUMPDEST PUSH0 PUSH1 0x20 DUP3 ADD SWAP1 POP DUP2 DUP2 SUB PUSH0 DUP4 ADD MSTORE PUSH2 0x29B7 DUP2 PUSH2 0x297E JUMP JUMPDEST SWAP1 POP SWAP2 SWAP1 POP JUMP INVALID LOG2 PUSH5 0x6970667358 0x22 SLT KECCAK256 SWAP6 EXTSTATICCALL ADDMOD CALLDATALOAD CALLER SWAP13 PC EXTCODEHASH 0xEB 0xD2 PUSH24 0x7302696E3B74BD0652D183C0FB7448568E7604513F64736F PUSH13 0x634300081E0033000000000000 "
				},
				"gasEstimates": {
					"creation": {
						"codeDepositCost": "2148000",
						"executionCost": "infinite",
						"totalCost": "infinite"
					},
					"external": {
						"computeMostVotedProposal()": "infinite",
						"createVotingSession()": "infinite",
						"currentVotingSessionId()": "2492",
						"endProposalsRegistration()": "infinite",
						"endVotingSession()": "infinite",
						"getAllProposalsBySession(uint256)": "infinite",
						"getAllProposalsFromCurrentSession()": "infinite",
						"getCurrentSession()": "infinite",
						"getWinningProposalBySession(uint256)": "infinite",
						"owner()": "2559",
						"registerVoter(address)": "infinite",
						"renounceOwnership()": "infinite",
						"sendNewProposition(string)": "infinite",
						"sendVote(uint256)": "infinite",
						"startProposalsRegistration()": "infinite",
						"startVotingSession()": "infinite",
						"transferOwnership(address)": "infinite",
						"unregisterVoter(address)": "infinite",
						"voters(address)": "2945",
						"votingSessions(uint256)": "infinite"
					}
				},
				"methodIdentifiers": {
					"computeMostVotedProposal()": "895d0faf",
					"createVotingSession()": "0a936e3a",
					"currentVotingSessionId()": "9bdfef30",
					"endProposalsRegistration()": "6c297445",
					"endVotingSession()": "a7bfab16",
					"getAllProposalsBySession(uint256)": "f38d3af8",
					"getAllProposalsFromCurrentSession()": "640be567",
					"getCurrentSession()": "1401795f",
					"getWinningProposalBySession(uint256)": "58fb94ec",
					"owner()": "8da5cb5b",
					"registerVoter(address)": "38db6dd3",
					"renounceOwnership()": "715018a6",
					"sendNewProposition(string)": "45bf58fd",
					"sendVote(uint256)": "c8f5714e",
					"startProposalsRegistration()": "e09b8c79",
					"startVotingSession()": "ee74c678",
					"transferOwnership(address)": "f2fde38b",
					"unregisterVoter(address)": "7ed17751",
					"voters(address)": "a3ec138d",
					"votingSessions(uint256)": "1186eb7c"
				}
			},
			"storageLayout": {
				"storage": [
					{
						"astId": 648,
						"contract": "contracts/12_VotingV2.sol:Voting",
						"label": "_owner",
						"offset": 0,
						"slot": "0",
						"type": "t_address"
					},
					{
						"astId": 6,
						"contract": "contracts/12_VotingV2.sol:Voting",
						"label": "currentVotingSessionId",
						"offset": 0,
						"slot": "1",
						"type": "t_uint256"
					},
					{
						"astId": 8,
						"contract": "contracts/12_VotingV2.sol:Voting",
						"label": "nonce",
						"offset": 0,
						"slot": "2",
						"type": "t_uint256"
					},
					{
						"astId": 13,
						"contract": "contracts/12_VotingV2.sol:Voting",
						"label": "votingSessions",
						"offset": 0,
						"slot": "3",
						"type": "t_mapping(t_uint256,t_struct(VotingSession)44_storage)"
					},
					{
						"astId": 18,
						"contract": "contracts/12_VotingV2.sol:Voting",
						"label": "voters",
						"offset": 0,
						"slot": "4",
						"type": "t_mapping(t_address,t_struct(Voter)27_storage)"
					}
				],
				"types": {
					"t_address": {
						"encoding": "inplace",
						"label": "address",
						"numberOfBytes": "20"
					},
					"t_array(t_struct(Proposal)34_storage)dyn_storage": {
						"base": "t_struct(Proposal)34_storage",
						"encoding": "dynamic_array",
						"label": "struct Voting.Proposal[]",
						"numberOfBytes": "32"
					},
					"t_array(t_uint256)dyn_storage": {
						"base": "t_uint256",
						"encoding": "dynamic_array",
						"label": "uint256[]",
						"numberOfBytes": "32"
					},
					"t_bool": {
						"encoding": "inplace",
						"label": "bool",
						"numberOfBytes": "1"
					},
					"t_enum(WorkflowStatus)51": {
						"encoding": "inplace",
						"label": "enum Voting.WorkflowStatus",
						"numberOfBytes": "1"
					},
					"t_mapping(t_address,t_struct(Voter)27_storage)": {
						"encoding": "mapping",
						"key": "t_address",
						"label": "mapping(address => struct Voting.Voter)",
						"numberOfBytes": "32",
						"value": "t_struct(Voter)27_storage"
					},
					"t_mapping(t_uint256,t_struct(VotingSession)44_storage)": {
						"encoding": "mapping",
						"key": "t_uint256",
						"label": "mapping(uint256 => struct Voting.VotingSession)",
						"numberOfBytes": "32",
						"value": "t_struct(VotingSession)44_storage"
					},
					"t_string_storage": {
						"encoding": "bytes",
						"label": "string",
						"numberOfBytes": "32"
					},
					"t_struct(Proposal)34_storage": {
						"encoding": "inplace",
						"label": "struct Voting.Proposal",
						"members": [
							{
								"astId": 29,
								"contract": "contracts/12_VotingV2.sol:Voting",
								"label": "id",
								"offset": 0,
								"slot": "0",
								"type": "t_uint256"
							},
							{
								"astId": 31,
								"contract": "contracts/12_VotingV2.sol:Voting",
								"label": "description",
								"offset": 0,
								"slot": "1",
								"type": "t_string_storage"
							},
							{
								"astId": 33,
								"contract": "contracts/12_VotingV2.sol:Voting",
								"label": "voteCount",
								"offset": 0,
								"slot": "2",
								"type": "t_uint256"
							}
						],
						"numberOfBytes": "96"
					},
					"t_struct(Voter)27_storage": {
						"encoding": "inplace",
						"label": "struct Voting.Voter",
						"members": [
							{
								"astId": 20,
								"contract": "contracts/12_VotingV2.sol:Voting",
								"label": "isRegistered",
								"offset": 0,
								"slot": "0",
								"type": "t_bool"
							},
							{
								"astId": 23,
								"contract": "contracts/12_VotingV2.sol:Voting",
								"label": "votedSessionIds",
								"offset": 0,
								"slot": "1",
								"type": "t_array(t_uint256)dyn_storage"
							},
							{
								"astId": 26,
								"contract": "contracts/12_VotingV2.sol:Voting",
								"label": "proposalIds",
								"offset": 0,
								"slot": "2",
								"type": "t_array(t_uint256)dyn_storage"
							}
						],
						"numberOfBytes": "96"
					},
					"t_struct(VotingSession)44_storage": {
						"encoding": "inplace",
						"label": "struct Voting.VotingSession",
						"members": [
							{
								"astId": 37,
								"contract": "contracts/12_VotingV2.sol:Voting",
								"label": "workflowStatus",
								"offset": 0,
								"slot": "0",
								"type": "t_enum(WorkflowStatus)51"
							},
							{
								"astId": 39,
								"contract": "contracts/12_VotingV2.sol:Voting",
								"label": "winningProposalId",
								"offset": 0,
								"slot": "1",
								"type": "t_uint256"
							},
							{
								"astId": 43,
								"contract": "contracts/12_VotingV2.sol:Voting",
								"label": "proposals",
								"offset": 0,
								"slot": "2",
								"type": "t_array(t_struct(Proposal)34_storage)dyn_storage"
							}
						],
						"numberOfBytes": "96"
					},
					"t_uint256": {
						"encoding": "inplace",
						"label": "uint256",
						"numberOfBytes": "32"
					}
				}
			},
			"userdoc": {
				"kind": "user",
				"methods": {},
				"version": 1
			}
		}
	}
}