{
	"data": {
		"bytecode": {
			"linkReferences": {},
			"object": "60806040525f5f553480156011575f5ffd5b506102d88061001f5f395ff3fe608060405234801561000f575f5ffd5b5060043610610034575f3560e01c8063affed0e014610038578063fb8c742014610056575b5f5ffd5b610040610074565b60405161004d91906100e7565b60405180910390f35b61005e610079565b60405161006b91906100e7565b60405180910390f35b5f5481565b5f5f5f81548092919061008b9061012d565b9190505550606442335f546040516020016100a893929190610209565b604051602081830303815290604052805190602001205f1c6100ca9190610272565b905090565b5f819050919050565b6100e1816100cf565b82525050565b5f6020820190506100fa5f8301846100d8565b92915050565b7f4e487b71000000000000000000000000000000000000000000000000000000005f52601160045260245ffd5b5f610137826100cf565b91507fffffffffffffffffffffffffffffffffffffffffffffffffffffffffffffffff820361016957610168610100565b5b600182019050919050565b5f819050919050565b61018e610189826100cf565b610174565b82525050565b5f73ffffffffffffffffffffffffffffffffffffffff82169050919050565b5f6101bd82610194565b9050919050565b5f8160601b9050919050565b5f6101da826101c4565b9050919050565b5f6101eb826101d0565b9050919050565b6102036101fe826101b3565b6101e1565b82525050565b5f610214828661017d565b60208201915061022482856101f2565b601482019150610234828461017d565b602082019150819050949350505050565b7f4e487b71000000000000000000000000000000000000000000000000000000005f52601260045260245ffd5b5f61027c826100cf565b9150610287836100cf565b92508261029757610296610245565b5b82820690509291505056fea2646970667358221220140deb029d632df718f89861e2af1300e43157035ea9ced72c12923d79a8a2de64736f6c634300081e0033",
			"opcodes": "PUSH1 0x80 PUSH1 0x40 MSTORE PUSH0 PUSH0 SSTORE CALLVALUE DUP1 ISZERO PUSH1 0x11 JUMPI PUSH0 PUSH0 REVERT JUMPDEST POP PUSH2 0x2D8 DUP1 PUSH2 0x1F PUSH0 CODECOPY PUSH0 RETURN INVALID PUSH1 0x80 PUSH1 0x40 MSTORE CALLVALUE DUP1 ISZERO PUSH2 0xF JUMPI PUSH0 PUSH0 REVERT JUMPDEST POP PUSH1 0x4 CALLDATASIZE LT PUSH2 0x34 JUMPI PUSH0 CALLDATALOAD PUSH1 0xE0 SHR DUP1 PUSH4 0xAFFED0E0 EQ PUSH2 0x38 JUMPI DUP1 PUSH4 0xFB8C7420 EQ PUSH2 0x56 JUMPI JUMPDEST PUSH0 PUSH0 REVERT JUMPDEST PUSH2 0x40 PUSH2 0x74 JUMP JUMPDEST PUSH1 0x40 MLOAD PUSH2 0x4D SWAP2 SWAP1 PUSH2 0xE7 JUMP JUMPDEST PUSH1 0x40 MLOAD DUP1 SWAP2 SUB SWAP1 RETURN JUMPDEST PUSH2 0x5E PUSH2 0x79 JUMP JUMPDEST PUSH1 0x40 MLOAD PUSH2 0x6B SWAP2 SWAP1 PUSH2 0xE7 JUMP JUMPDEST PUSH1 0x40 MLOAD DUP1 SWAP2 SUB SWAP1 RETURN JUMPDEST PUSH0 SLOAD DUP2 JUMP JUMPDEST PUSH0 PUSH0 PUSH0 DUP2 SLOAD DUP1 SWAP3 SWAP2 SWAP1 PUSH2 0x8B SWAP1 PUSH2 0x12D JUMP JUMPDEST SWAP2 SWAP1 POP SSTORE POP PUSH1 0x64 TIMESTAMP CALLER PUSH0 SLOAD PUSH1 0x40 MLOAD PUSH1 0x20 ADD PUSH2 0xA8 SWAP4 SWAP3 SWAP2 SWAP1 PUSH2 0x209 JUMP JUMPDEST PUSH1 0x40 MLOAD PUSH1 0x20 DUP2 DUP4 SUB SUB DUP2 MSTORE SWAP1 PUSH1 0x40 MSTORE DUP1 MLOAD SWAP1 PUSH1 0x20 ADD KECCAK256 PUSH0 SHR PUSH2 0xCA SWAP2 SWAP1 PUSH2 0x272 JUMP JUMPDEST SWAP1 POP SWAP1 JUMP JUMPDEST PUSH0 DUP2 SWAP1 POP SWAP2 SWAP1 POP JUMP JUMPDEST PUSH2 0xE1 DUP2 PUSH2 0xCF JUMP JUMPDEST DUP3 MSTORE POP POP JUMP JUMPDEST PUSH0 PUSH1 0x20 DUP3 ADD SWAP1 POP PUSH2 0xFA PUSH0 DUP4 ADD DUP5 PUSH2 0xD8 JUMP JUMPDEST SWAP3 SWAP2 POP POP JUMP JUMPDEST PUSH32 0x4E487B7100000000000000000000000000000000000000000000000000000000 PUSH0 MSTORE PUSH1 0x11 PUSH1 0x4 MSTORE PUSH1 0x24 PUSH0 REVERT JUMPDEST PUSH0 PUSH2 0x137 DUP3 PUSH2 0xCF JUMP JUMPDEST SWAP2 POP PUSH32 0xFFFFFFFFFFFFFFFFFFFFFFFFFFFFFFFFFFFFFFFFFFFFFFFFFFFFFFFFFFFFFFFF DUP3 SUB PUSH2 0x169 JUMPI PUSH2 0x168 PUSH2 0x100 JUMP JUMPDEST JUMPDEST PUSH1 0x1 DUP3 ADD SWAP1 POP SWAP2 SWAP1 POP JUMP JUMPDEST PUSH0 DUP2 SWAP1 POP SWAP2 SWAP1 POP JUMP JUMPDEST PUSH2 0x18E PUSH2 0x189 DUP3 PUSH2 0xCF JUMP JUMPDEST PUSH2 0x174 JUMP JUMPDEST DUP3 MSTORE POP POP JUMP JUMPDEST PUSH0 PUSH20 0xFFFFFFFFFFFFFFFFFFFFFFFFFFFFFFFFFFFFFFFF DUP3 AND SWAP1 POP SWAP2 SWAP1 POP JUMP JUMPDEST PUSH0 PUSH2 0x1BD DUP3 PUSH2 0x194 JUMP JUMPDEST SWAP1 POP SWAP2 SWAP1 POP JUMP JUMPDEST PUSH0 DUP2 PUSH1 0x60 SHL SWAP1 POP SWAP2 SWAP1 POP JUMP JUMPDEST PUSH0 PUSH2 0x1DA DUP3 PUSH2 0x1C4 JUMP JUMPDEST SWAP1 POP SWAP2 SWAP1 POP JUMP JUMPDEST PUSH0 PUSH2 0x1EB DUP3 PUSH2 0x1D0 JUMP JUMPDEST SWAP1 POP SWAP2 SWAP1 POP JUMP JUMPDEST PUSH2 0x203 PUSH2 0x1FE DUP3 PUSH2 0x1B3 JUMP JUMPDEST PUSH2 0x1E1 JUMP JUMPDEST DUP3 MSTORE POP POP JUMP JUMPDEST PUSH0 PUSH2 0x214 DUP3 DUP7 PUSH2 0x17D JUMP JUMPDEST PUSH1 0x20 DUP3 ADD SWAP2 POP PUSH2 0x224 DUP3 DUP6 PUSH2 0x1F2 JUMP JUMPDEST PUSH1 0x14 DUP3 ADD SWAP2 POP PUSH2 0x234 DUP3 DUP5 PUSH2 0x17D JUMP JUMPDEST PUSH1 0x20 DUP3 ADD SWAP2 POP DUP2 SWAP1 POP SWAP5 SWAP4 POP POP POP POP JUMP JUMPDEST PUSH32 0x4E487B7100000000000000000000000000000000000000000000000000000000 PUSH0 MSTORE PUSH1 0x12 PUSH1 0x4 MSTORE PUSH1 0x24 PUSH0 REVERT JUMPDEST PUSH0 PUSH2 0x27C DUP3 PUSH2 0xCF JUMP JUMPDEST SWAP2 POP PUSH2 0x287 DUP4 PUSH2 0xCF JUMP JUMPDEST SWAP3 POP DUP3 PUSH2 0x297 JUMPI PUSH2 0x296 PUSH2 0x245 JUMP JUMPDEST JUMPDEST DUP3 DUP3 MOD SWAP1 POP SWAP3 SWAP2 POP POP JUMP INVALID LOG2 PUSH5 0x6970667358 0x22 SLT KECCAK256 EQ 0xD 0xEB MUL SWAP14 PUSH4 0x2DF718F8 SWAP9 PUSH2 0xE2AF SGT STOP RETF BALANCE JUMPI SUB MCOPY 0xA9 0xCE 0xD7 0x2C SLT SWAP3 RETURNDATASIZE PUSH26 0xA8A2DE64736F6C634300081E0033000000000000000000000000 "
		},
		"gasEstimates": {
			"creation": {
				"codeDepositCost": "145600",
				"executionCost": "5192",
				"totalCost": "150792"
			},
			"external": {
				"GetRandomNumber()": "infinite",
				"nonce()": "2402"
			}
		},
		"methodIdentifiers": {
			"GetRandomNumber()": "fb8c7420",
			"nonce()": "affed0e0"
		}
	},
	"abi": [
		{
			"inputs": [],
			"name": "GetRandomNumber",
			"outputs": [
				{
					"internalType": "uint256",
					"name": "",
					"type": "uint256"
				}
			],
			"stateMutability": "nonpayable",
			"type": "function"
		},
		{
			"inputs": [],
			"name": "nonce",
			"outputs": [
				{
					"internalType": "uint256",
					"name": "",
					"type": "uint256"
				}
			],
			"stateMutability": "view",
			"type": "function"
		}
	]
}